{
  "_format": "hh-sol-artifact-1",
  "contractName": "BordaResult",
  "sourceName": "contracts/resultCalculators/BordaResult.sol",
  "abi": [
    {
      "inputs": [],
      "name": "CandidatesTie",
      "type": "error"
    },
    {
      "inputs": [],
      "name": "NoCandidates",
      "type": "error"
    },
    {
      "inputs": [],
      "name": "NoWinner",
      "type": "error"
    },
    {
      "inputs": [],
      "name": "VotesExhausted",
      "type": "error"
    },
    {
      "inputs": [
        {
          "internalType": "bytes",
          "name": "returnData",
          "type": "bytes"
        }
      ],
      "name": "calculateBordaResult",
      "outputs": [
        {
          "internalType": "uint256",
          "name": "",
          "type": "uint256"
        }
      ],
      "stateMutability": "pure",
      "type": "function"
    }
  ],
  "bytecode": "0x608060405234801561001057600080fd5b506107c7806100206000396000f3fe608060405234801561001057600080fd5b506004361061002b5760003560e01c80631557be7514610030575b600080fd5b61004a60048036038101906100459190610430565b610060565b6040516100579190610492565b60405180910390f35b600080828060200190518101906100779190610682565b9050600061008482610090565b90508092505050919050565b600080826000815181106100a7576100a66106cb565b5b6020026020010151519050600081036100ec576040517fe504190400000000000000000000000000000000000000000000000000000000815260040160405180910390fd5b60008167ffffffffffffffff81111561010857610107610305565b5b6040519080825280602002602001820160405280156101365781602001602082028036833780820191505090505b50905060005b84518110156102005760005b85828151811061015b5761015a6106cb565b5b6020026020010151518110156101f257600181856101799190610729565b6101839190610729565b83878481518110610197576101966106cb565b5b602002602001015183815181106101b1576101b06106cb565b5b6020026020010151815181106101ca576101c96106cb565b5b602002602001018181516101de919061075d565b915081815250508080600101915050610148565b50808060010191505061013c565b506000806000805b84518110156102905783858281518110610225576102246106cb565b5b6020026020010151111561025c57848181518110610246576102456106cb565b5b6020026020010151935080925060009150610283565b838582815181106102705761026f6106cb565b5b60200260200101510361028257600191505b5b8080600101915050610208565b5080156102c9576040517fac5997c700000000000000000000000000000000000000000000000000000000815260040160405180910390fd5b8195505050505050919050565b6000604051905090565b600080fd5b600080fd5b600080fd5b600080fd5b6000601f19601f8301169050919050565b7f4e487b7100000000000000000000000000000000000000000000000000000000600052604160045260246000fd5b61033d826102f4565b810181811067ffffffffffffffff8211171561035c5761035b610305565b5b80604052505050565b600061036f6102d6565b905061037b8282610334565b919050565b600067ffffffffffffffff82111561039b5761039a610305565b5b6103a4826102f4565b9050602081019050919050565b82818337600083830152505050565b60006103d36103ce84610380565b610365565b9050828152602081018484840111156103ef576103ee6102ef565b5b6103fa8482856103b1565b509392505050565b600082601f830112610417576104166102ea565b5b81356104278482602086016103c0565b91505092915050565b600060208284031215610446576104456102e0565b5b600082013567ffffffffffffffff811115610464576104636102e5565b5b61047084828501610402565b91505092915050565b6000819050919050565b61048c81610479565b82525050565b60006020820190506104a76000830184610483565b92915050565b600067ffffffffffffffff8211156104c8576104c7610305565b5b602082029050602081019050919050565b600080fd5b600067ffffffffffffffff8211156104f9576104f8610305565b5b602082029050602081019050919050565b61051381610479565b811461051e57600080fd5b50565b6000815190506105308161050a565b92915050565b6000610549610544846104de565b610365565b9050808382526020820190506020840283018581111561056c5761056b6104d9565b5b835b8181101561059557806105818882610521565b84526020840193505060208101905061056e565b5050509392505050565b600082601f8301126105b4576105b36102ea565b5b81516105c4848260208601610536565b91505092915050565b60006105e06105db846104ad565b610365565b90508083825260208201905060208402830185811115610603576106026104d9565b5b835b8181101561064a57805167ffffffffffffffff811115610628576106276102ea565b5b808601610635898261059f565b85526020850194505050602081019050610605565b5050509392505050565b600082601f830112610669576106686102ea565b5b81516106798482602086016105cd565b91505092915050565b600060208284031215610698576106976102e0565b5b600082015167ffffffffffffffff8111156106b6576106b56102e5565b5b6106c284828501610654565b91505092915050565b7f4e487b7100000000000000000000000000000000000000000000000000000000600052603260045260246000fd5b7f4e487b7100000000000000000000000000000000000000000000000000000000600052601160045260246000fd5b600061073482610479565b915061073f83610479565b9250828203905081811115610757576107566106fa565b5b92915050565b600061076882610479565b915061077383610479565b925082820190508082111561078b5761078a6106fa565b5b9291505056fea264697066735822122094005f8d16035070526f7e766ea95e423f63dadef299871f8bca220348d7200664736f6c63430008180033",
  "linkReferences": {},
  "deployedLinkReferences": {}
}