{
  "_format": "hh-sol-artifact-1",
  "contractName": "Election",
  "sourceName": "contracts/Election.sol",
  "abi": [
    {
      "inputs": [
        {
          "components": [
            {
              "internalType": "uint256",
              "name": "electionID",
              "type": "uint256"
            },
            {
              "internalType": "string",
              "name": "name",
              "type": "string"
            },
            {
              "internalType": "string",
              "name": "description",
              "type": "string"
            },
            {
              "internalType": "uint256",
              "name": "startDate",
              "type": "uint256"
            },
            {
              "internalType": "uint256",
              "name": "endDate",
              "type": "uint256"
            }
          ],
          "internalType": "struct Election.ElectionInfo",
          "name": "_electionInfo",
          "type": "tuple"
        },
        {
          "internalType": "contract Ballot",
          "name": "_ballot",
          "type": "address"
        },
        {
          "internalType": "contract ResultCalculator",
          "name": "_resultCalculator",
          "type": "address"
        },
        {
          "internalType": "address",
          "name": "_electionOrganizer",
          "type": "address"
        },
        {
          "internalType": "address",
          "name": "_electionOrganizerContract",
          "type": "address"
        }
      ],
      "stateMutability": "nonpayable",
      "type": "constructor"
    },
    {
      "anonymous": false,
      "inputs": [
        {
          "indexed": false,
          "internalType": "address",
          "name": "election",
          "type": "address"
        },
        {
          "indexed": false,
          "internalType": "address",
          "name": "ballot",
          "type": "address"
        },
        {
          "components": [
            {
              "internalType": "uint256",
              "name": "candidateID",
              "type": "uint256"
            },
            {
              "internalType": "string",
              "name": "name",
              "type": "string"
            },
            {
              "internalType": "string",
              "name": "description",
              "type": "string"
            }
          ],
          "indexed": false,
          "internalType": "struct Election.Candidate",
          "name": "candidate",
          "type": "tuple"
        }
      ],
      "name": "CandidateAdded",
      "type": "event"
    },
    {
      "anonymous": false,
      "inputs": [
        {
          "indexed": false,
          "internalType": "uint256[]",
          "name": "winners",
          "type": "uint256[]"
        }
      ],
      "name": "ListWinners",
      "type": "event"
    },
    {
      "anonymous": false,
      "inputs": [
        {
          "indexed": false,
          "internalType": "address",
          "name": "ballot",
          "type": "address"
        },
        {
          "components": [
            {
              "internalType": "uint256",
              "name": "candidateID",
              "type": "uint256"
            },
            {
              "internalType": "string",
              "name": "name",
              "type": "string"
            },
            {
              "internalType": "string",
              "name": "description",
              "type": "string"
            }
          ],
          "indexed": false,
          "internalType": "struct Election.Candidate",
          "name": "candidate",
          "type": "tuple"
        },
        {
          "indexed": false,
          "internalType": "uint256",
          "name": "weight",
          "type": "uint256"
        }
      ],
      "name": "VoteCasted",
      "type": "event"
    },
    {
      "inputs": [
        {
          "components": [
            {
              "internalType": "uint256",
              "name": "candidateID",
              "type": "uint256"
            },
            {
              "internalType": "string",
              "name": "name",
              "type": "string"
            },
            {
              "internalType": "string",
              "name": "description",
              "type": "string"
            }
          ],
          "internalType": "struct Election.Candidate",
          "name": "_candidate",
          "type": "tuple"
        }
      ],
      "name": "addCandidate",
      "outputs": [],
      "stateMutability": "nonpayable",
      "type": "function"
    },
    {
      "inputs": [],
      "name": "getBallot",
      "outputs": [
        {
          "internalType": "address",
          "name": "",
          "type": "address"
        }
      ],
      "stateMutability": "view",
      "type": "function"
    },
    {
      "inputs": [
        {
          "internalType": "uint256",
          "name": "_candidateID",
          "type": "uint256"
        }
      ],
      "name": "getCandidateByID",
      "outputs": [
        {
          "components": [
            {
              "internalType": "uint256",
              "name": "candidateID",
              "type": "uint256"
            },
            {
              "internalType": "string",
              "name": "name",
              "type": "string"
            },
            {
              "internalType": "string",
              "name": "description",
              "type": "string"
            }
          ],
          "internalType": "struct Election.Candidate",
          "name": "",
          "type": "tuple"
        }
      ],
      "stateMutability": "view",
      "type": "function"
    },
    {
      "inputs": [],
      "name": "getCandidateCount",
      "outputs": [
        {
          "internalType": "uint256",
          "name": "",
          "type": "uint256"
        }
      ],
      "stateMutability": "view",
      "type": "function"
    },
    {
      "inputs": [],
      "name": "getCandidates",
      "outputs": [
        {
          "components": [
            {
              "internalType": "uint256",
              "name": "candidateID",
              "type": "uint256"
            },
            {
              "internalType": "string",
              "name": "name",
              "type": "string"
            },
            {
              "internalType": "string",
              "name": "description",
              "type": "string"
            }
          ],
          "internalType": "struct Election.Candidate[]",
          "name": "",
          "type": "tuple[]"
        }
      ],
      "stateMutability": "view",
      "type": "function"
    },
    {
      "inputs": [],
      "name": "getElectionInfo",
      "outputs": [
        {
          "components": [
            {
              "internalType": "uint256",
              "name": "electionID",
              "type": "uint256"
            },
            {
              "internalType": "string",
              "name": "name",
              "type": "string"
            },
            {
              "internalType": "string",
              "name": "description",
              "type": "string"
            },
            {
              "internalType": "uint256",
              "name": "startDate",
              "type": "uint256"
            },
            {
              "internalType": "uint256",
              "name": "endDate",
              "type": "uint256"
            }
          ],
          "internalType": "struct Election.ElectionInfo",
          "name": "",
          "type": "tuple"
        }
      ],
      "stateMutability": "view",
      "type": "function"
    },
    {
      "inputs": [],
      "name": "getElectionOrganizer",
      "outputs": [
        {
          "internalType": "address",
          "name": "",
          "type": "address"
        }
      ],
      "stateMutability": "view",
      "type": "function"
    },
    {
      "inputs": [],
      "name": "getResult",
      "outputs": [
        {
          "internalType": "uint256[]",
          "name": "",
          "type": "uint256[]"
        }
      ],
      "stateMutability": "nonpayable",
      "type": "function"
    },
    {
      "inputs": [],
      "name": "getResultCalculator",
      "outputs": [
        {
          "internalType": "address",
          "name": "",
          "type": "address"
        }
      ],
      "stateMutability": "view",
      "type": "function"
    },
    {
      "inputs": [],
      "name": "getStatus",
      "outputs": [
        {
          "internalType": "enum Election.Status",
          "name": "",
          "type": "uint8"
        }
      ],
      "stateMutability": "view",
      "type": "function"
    },
    {
      "inputs": [
        {
          "internalType": "address",
          "name": "_voter",
          "type": "address"
        }
      ],
      "name": "getVoteStatus",
      "outputs": [
        {
          "internalType": "bool",
          "name": "",
          "type": "bool"
        }
      ],
      "stateMutability": "view",
      "type": "function"
    },
    {
      "inputs": [],
      "name": "getVoterCount",
      "outputs": [
        {
          "internalType": "uint256",
          "name": "",
          "type": "uint256"
        }
      ],
      "stateMutability": "view",
      "type": "function"
    },
    {
      "inputs": [],
      "name": "getWinners",
      "outputs": [
        {
          "internalType": "uint256[]",
          "name": "",
          "type": "uint256[]"
        }
      ],
      "stateMutability": "view",
      "type": "function"
    },
    {
      "inputs": [
        {
          "internalType": "address",
          "name": "_voter",
          "type": "address"
        },
        {
          "internalType": "uint256",
          "name": "_candidateID",
          "type": "uint256"
        },
        {
          "internalType": "uint256",
          "name": "weight",
          "type": "uint256"
        }
      ],
      "name": "vote",
      "outputs": [],
      "stateMutability": "nonpayable",
      "type": "function"
    }
  ],
  "bytecode": "0x60806040523480156200001157600080fd5b5060405162002b2438038062002b2483398181016040528101906200003791906200062d565b81600960006101000a81548173ffffffffffffffffffffffffffffffffffffffff021916908373ffffffffffffffffffffffffffffffffffffffff16021790555080600a60006101000a81548173ffffffffffffffffffffffffffffffffffffffff021916908373ffffffffffffffffffffffffffffffffffffffff1602179055508460008082015181600001556020820151816001019080519060200190620000e3929190620001d3565b50604082015181600201908051906020019062000102929190620001d3565b50606082015181600301556080820151816004015590505083600c60016101000a81548173ffffffffffffffffffffffffffffffffffffffff021916908373ffffffffffffffffffffffffffffffffffffffff16021790555082600d60006101000a81548173ffffffffffffffffffffffffffffffffffffffff021916908373ffffffffffffffffffffffffffffffffffffffff1602179055506103e86008819055506000600b819055506000600c60006101000a81548160ff021916908315150217905550505050505062000739565b828054620001e19062000703565b90600052602060002090601f01602090048101928262000205576000855562000251565b82601f106200022057805160ff191683800117855562000251565b8280016001018555821562000251579182015b828111156200025057825182559160200191906001019062000233565b5b50905062000260919062000264565b5090565b5b808211156200027f57600081600090555060010162000265565b5090565b6000604051905090565b600080fd5b600080fd5b600080fd5b6000601f19601f8301169050919050565b7f4e487b7100000000000000000000000000000000000000000000000000000000600052604160045260246000fd5b620002e7826200029c565b810181811067ffffffffffffffff82111715620003095762000308620002ad565b5b80604052505050565b60006200031e62000283565b90506200032c8282620002dc565b919050565b600080fd5b6000819050919050565b6200034b8162000336565b81146200035757600080fd5b50565b6000815190506200036b8162000340565b92915050565b600080fd5b600080fd5b600067ffffffffffffffff821115620003995762000398620002ad565b5b620003a4826200029c565b9050602081019050919050565b60005b83811015620003d1578082015181840152602081019050620003b4565b83811115620003e1576000848401525b50505050565b6000620003fe620003f8846200037b565b62000312565b9050828152602081018484840111156200041d576200041c62000376565b5b6200042a848285620003b1565b509392505050565b600082601f8301126200044a576200044962000371565b5b81516200045c848260208601620003e7565b91505092915050565b600060a082840312156200047e576200047d62000297565b5b6200048a60a062000312565b905060006200049c848285016200035a565b600083015250602082015167ffffffffffffffff811115620004c357620004c262000331565b5b620004d18482850162000432565b602083015250604082015167ffffffffffffffff811115620004f857620004f762000331565b5b620005068482850162000432565b60408301525060606200051c848285016200035a565b606083015250608062000532848285016200035a565b60808301525092915050565b600073ffffffffffffffffffffffffffffffffffffffff82169050919050565b60006200056b826200053e565b9050919050565b60006200057f826200055e565b9050919050565b620005918162000572565b81146200059d57600080fd5b50565b600081519050620005b18162000586565b92915050565b6000620005c4826200055e565b9050919050565b620005d681620005b7565b8114620005e257600080fd5b50565b600081519050620005f681620005cb565b92915050565b62000607816200055e565b81146200061357600080fd5b50565b6000815190506200062781620005fc565b92915050565b600080600080600060a086880312156200064c576200064b6200028d565b5b600086015167ffffffffffffffff8111156200066d576200066c62000292565b5b6200067b8882890162000465565b95505060206200068e88828901620005a0565b9450506040620006a188828901620005e5565b9350506060620006b48882890162000616565b9250506080620006c78882890162000616565b9150509295509295909350565b7f4e487b7100000000000000000000000000000000000000000000000000000000600052602260045260246000fd5b600060028204905060018216806200071c57607f821691505b60208210811415620007335762000732620006d4565b5b50919050565b6123db80620007496000396000f3fe608060405234801561001057600080fd5b50600436106100ea5760003560e01c8063521b0dcc1161008c5780639baec8b9116100665780639baec8b91461023b578063de29278914610259578063df15c37e14610277578063e04b1c0c14610295576100ea565b8063521b0dcc146101bd57806382202396146101ed57806386852dca1461021d576100ea565b80632a4a1b73116100c85780632a4a1b731461014757806330a563471461016357806337349a7d146101815780634e69d5601461019f576100ea565b806306a49fce146100ef57806311174a291461010d578063273ffe861461012b575b600080fd5b6100f76102b3565b60405161010491906113e0565b60405180910390f35b610115610440565b6040516101229190611411565b60405180910390f35b61014560048036038101906101409190611647565b61044a565b005b610161600480360381019061015c91906116ee565b610740565b005b61016b6108cb565b6040516101789190611411565b60405180910390f35b6101896108d5565b6040516101969190611750565b60405180910390f35b6101a761098f565b6040516101b491906117e2565b60405180910390f35b6101d760048036038101906101d291906117fd565b6109c4565b6040516101e49190611845565b60405180910390f35b61020760048036038101906102029190611860565b610a69565b60405161021491906118e4565b60405180910390f35b610225610bc4565b6040516102329190611983565b60405180910390f35b610243610d20565b6040516102509190611750565b60405180910390f35b610261610dda565b60405161026e9190611a54565b60405180910390f35b61027f610ffd565b60405161028c9190611a54565b60405180910390f35b61029d6110ab565b6040516102aa9190611750565b60405180910390f35b60606005805480602002602001604051908101604052809291908181526020016000905b8282101561043757838290600052602060002090600302016040518060600160405290816000820154815260200160018201805461031490611aa5565b80601f016020809104026020016040519081016040528092919081815260200182805461034090611aa5565b801561038d5780601f106103625761010080835404028352916020019161038d565b820191906000526020600020905b81548152906001019060200180831161037057829003601f168201915b505050505081526020016002820180546103a690611aa5565b80601f01602080910402602001604051908101604052809291908181526020018280546103d290611aa5565b801561041f5780601f106103f45761010080835404028352916020019161041f565b820191906000526020600020905b81548152906001019060200180831161040257829003601f168201915b505050505081525050815260200190600101906102d7565b50505050905090565b6000600b54905090565b600a60009054906101000a900473ffffffffffffffffffffffffffffffffffffffff1673ffffffffffffffffffffffffffffffffffffffff163373ffffffffffffffffffffffffffffffffffffffff16146104da576040517f08c379a00000000000000000000000000000000000000000000000000000000081526004016104d190611b5a565b60405180910390fd5b600160028111156104ee576104ed61176b565b5b6104f661098f565b60028111156105085761050761176b565b5b14610548576040517f08c379a000000000000000000000000000000000000000000000000000000000815260040161053f90611bec565b60405180910390fd5b600060016008546105599190611c3b565b90508082600001818152505060058290806001815401808255809150506001900390600052602060002090600302016000909190919091506000820151816000015560208201518160010190805190602001906105b79291906110d5565b5060408201518160020190805190602001906105d49291906110d5565b505050600c60019054906101000a900473ffffffffffffffffffffffffffffffffffffffff1673ffffffffffffffffffffffffffffffffffffffff1663e844d09783600001516040518263ffffffff1660e01b81526004016106369190611411565b600060405180830381600087803b15801561065057600080fd5b505af1158015610664573d6000803e3d6000fd5b505050508160076000846000015181526020019081526020016000206000820151816000015560208201518160010190805190602001906106a69291906110d5565b5060408201518160020190805190602001906106c39291906110d5565b50905050600860008154809291906106da90611c91565b91905055507f4d9dd414a40890e16b7bd0ea98bdf9d5b55c3d20cfe4b18febda0d60fb32a60c30600c60019054906101000a900473ffffffffffffffffffffffffffffffffffffffff168460405161073493929190611cda565b60405180910390a15050565b600060028111156107545761075361176b565b5b61075c61098f565b600281111561076e5761076d61176b565b5b146107ae576040517f08c379a00000000000000000000000000000000000000000000000000000000081526004016107a590611d8a565b60405180910390fd5b600c60019054906101000a900473ffffffffffffffffffffffffffffffffffffffff1673ffffffffffffffffffffffffffffffffffffffff16632a4a1b738484846040518463ffffffff1660e01b815260040161080d93929190611daa565b600060405180830381600087803b15801561082757600080fd5b505af115801561083b573d6000803e3d6000fd5b50505050600b600081548092919061085290611c91565b91905055507fd589db416dab4dff131e94610b2d02ce215ded85a2943a2ea59acd2153a85182600c60019054906101000a900473ffffffffffffffffffffffffffffffffffffffff1660076000858152602001908152602001600020836040516108be93929190611f09565b60405180910390a1505050565b6000600854905090565b6000600960009054906101000a900473ffffffffffffffffffffffffffffffffffffffff1673ffffffffffffffffffffffffffffffffffffffff163373ffffffffffffffffffffffffffffffffffffffff1614610967576040517f08c379a000000000000000000000000000000000000000000000000000000000815260040161095e90611fb9565b60405180910390fd5b600d60009054906101000a900473ffffffffffffffffffffffffffffffffffffffff16905090565b600080600301544210156109a657600190506109c1565b6000600401544210156109bc57600090506109c1565b600290505b90565b6000600c60019054906101000a900473ffffffffffffffffffffffffffffffffffffffff1673ffffffffffffffffffffffffffffffffffffffff1663521b0dcc836040518263ffffffff1660e01b8152600401610a219190611750565b602060405180830381865afa158015610a3e573d6000803e3d6000fd5b505050506040513d601f19601f82011682018060405250810190610a629190612005565b9050919050565b610a7161115b565b6007600083815260200190815260200160002060405180606001604052908160008201548152602001600182018054610aa990611aa5565b80601f0160208091040260200160405190810160405280929190818152602001828054610ad590611aa5565b8015610b225780601f10610af757610100808354040283529160200191610b22565b820191906000526020600020905b815481529060010190602001808311610b0557829003601f168201915b50505050508152602001600282018054610b3b90611aa5565b80601f0160208091040260200160405190810160405280929190818152602001828054610b6790611aa5565b8015610bb45780601f10610b8957610100808354040283529160200191610bb4565b820191906000526020600020905b815481529060010190602001808311610b9757829003601f168201915b5050505050815250509050919050565b610bcc61117c565b60006040518060a001604052908160008201548152602001600182018054610bf390611aa5565b80601f0160208091040260200160405190810160405280929190818152602001828054610c1f90611aa5565b8015610c6c5780601f10610c4157610100808354040283529160200191610c6c565b820191906000526020600020905b815481529060010190602001808311610c4f57829003601f168201915b50505050508152602001600282018054610c8590611aa5565b80601f0160208091040260200160405190810160405280929190818152602001828054610cb190611aa5565b8015610cfe5780601f10610cd357610100808354040283529160200191610cfe565b820191906000526020600020905b815481529060010190602001808311610ce157829003601f168201915b5050505050815260200160038201548152602001600482015481525050905090565b6000600960009054906101000a900473ffffffffffffffffffffffffffffffffffffffff1673ffffffffffffffffffffffffffffffffffffffff163373ffffffffffffffffffffffffffffffffffffffff1614610db2576040517f08c379a0000000000000000000000000000000000000000000000000000000008152600401610da990611fb9565b60405180910390fd5b600c60019054906101000a900473ffffffffffffffffffffffffffffffffffffffff16905090565b6060600280811115610def57610dee61176b565b5b610df761098f565b6002811115610e0957610e0861176b565b5b14610e49576040517f08c379a0000000000000000000000000000000000000000000000000000000008152600401610e40906120a4565b60405180910390fd5b60001515600c60009054906101000a900460ff1615151415610fef57600d60009054906101000a900473ffffffffffffffffffffffffffffffffffffffff1673ffffffffffffffffffffffffffffffffffffffff1663c8344a20600c60019054906101000a900473ffffffffffffffffffffffffffffffffffffffff16600b546040518363ffffffff1660e01b8152600401610ee6929190612123565b6000604051808303816000875af1158015610f05573d6000803e3d6000fd5b505050506040513d6000823e3d601f19601f82011682018060405250810190610f2e9190612229565b60069080519060200190610f439291906111ab565b506001600c60006101000a81548160ff0219169083151502179055507f28e5f582afeee46fd13ea548ad814f45b1d4a5159990336d5e66deb48a960e4c6006604051610f8f9190612317565b60405180910390a16006805480602002602001604051908101604052809291908181526020018280548015610fe357602002820191906000526020600020905b815481526020019060010190808311610fcf575b50505050509050610ffa565b610ff7610ffd565b90505b90565b606060011515600c60009054906101000a900460ff16151514611055576040517f08c379a000000000000000000000000000000000000000000000000000000000815260040161104c90612385565b60405180910390fd5b60068054806020026020016040519081016040528092919081815260200182805480156110a157602002820191906000526020600020905b81548152602001906001019080831161108d575b5050505050905090565b6000600960009054906101000a900473ffffffffffffffffffffffffffffffffffffffff16905090565b8280546110e190611aa5565b90600052602060002090601f016020900481019282611103576000855561114a565b82601f1061111c57805160ff191683800117855561114a565b8280016001018555821561114a579182015b8281111561114957825182559160200191906001019061112e565b5b50905061115791906111f8565b5090565b60405180606001604052806000815260200160608152602001606081525090565b6040518060a0016040528060008152602001606081526020016060815260200160008152602001600081525090565b8280548282559060005260206000209081019282156111e7579160200282015b828111156111e65782518255916020019190600101906111cb565b5b5090506111f491906111f8565b5090565b5b808211156112115760008160009055506001016111f9565b5090565b600081519050919050565b600082825260208201905092915050565b6000819050602082019050919050565b6000819050919050565b61125481611241565b82525050565b600081519050919050565b600082825260208201905092915050565b60005b83811015611294578082015181840152602081019050611279565b838111156112a3576000848401525b50505050565b6000601f19601f8301169050919050565b60006112c58261125a565b6112cf8185611265565b93506112df818560208601611276565b6112e8816112a9565b840191505092915050565b600060608301600083015161130b600086018261124b565b506020830151848203602086015261132382826112ba565b9150506040830151848203604086015261133d82826112ba565b9150508091505092915050565b600061135683836112f3565b905092915050565b6000602082019050919050565b600061137682611215565b6113808185611220565b93508360208202850161139285611231565b8060005b858110156113ce57848403895281516113af858261134a565b94506113ba8361135e565b925060208a01995050600181019050611396565b50829750879550505050505092915050565b600060208201905081810360008301526113fa818461136b565b905092915050565b61140b81611241565b82525050565b60006020820190506114266000830184611402565b92915050565b6000604051905090565b600080fd5b600080fd5b600080fd5b7f4e487b7100000000000000000000000000000000000000000000000000000000600052604160045260246000fd5b61147d826112a9565b810181811067ffffffffffffffff8211171561149c5761149b611445565b5b80604052505050565b60006114af61142c565b90506114bb8282611474565b919050565b600080fd5b6114ce81611241565b81146114d957600080fd5b50565b6000813590506114eb816114c5565b92915050565b600080fd5b600080fd5b600067ffffffffffffffff82111561151657611515611445565b5b61151f826112a9565b9050602081019050919050565b82818337600083830152505050565b600061154e611549846114fb565b6114a5565b90508281526020810184848401111561156a576115696114f6565b5b61157584828561152c565b509392505050565b600082601f830112611592576115916114f1565b5b81356115a284826020860161153b565b91505092915050565b6000606082840312156115c1576115c0611440565b5b6115cb60606114a5565b905060006115db848285016114dc565b600083015250602082013567ffffffffffffffff8111156115ff576115fe6114c0565b5b61160b8482850161157d565b602083015250604082013567ffffffffffffffff81111561162f5761162e6114c0565b5b61163b8482850161157d565b60408301525092915050565b60006020828403121561165d5761165c611436565b5b600082013567ffffffffffffffff81111561167b5761167a61143b565b5b611687848285016115ab565b91505092915050565b600073ffffffffffffffffffffffffffffffffffffffff82169050919050565b60006116bb82611690565b9050919050565b6116cb816116b0565b81146116d657600080fd5b50565b6000813590506116e8816116c2565b92915050565b60008060006060848603121561170757611706611436565b5b6000611715868287016116d9565b9350506020611726868287016114dc565b9250506040611737868287016114dc565b9150509250925092565b61174a816116b0565b82525050565b60006020820190506117656000830184611741565b92915050565b7f4e487b7100000000000000000000000000000000000000000000000000000000600052602160045260246000fd5b600381106117ab576117aa61176b565b5b50565b60008190506117bc8261179a565b919050565b60006117cc826117ae565b9050919050565b6117dc816117c1565b82525050565b60006020820190506117f760008301846117d3565b92915050565b60006020828403121561181357611812611436565b5b6000611821848285016116d9565b91505092915050565b60008115159050919050565b61183f8161182a565b82525050565b600060208201905061185a6000830184611836565b92915050565b60006020828403121561187657611875611436565b5b6000611884848285016114dc565b91505092915050565b60006060830160008301516118a5600086018261124b565b50602083015184820360208601526118bd82826112ba565b915050604083015184820360408601526118d782826112ba565b9150508091505092915050565b600060208201905081810360008301526118fe818461188d565b905092915050565b600060a08301600083015161191e600086018261124b565b506020830151848203602086015261193682826112ba565b9150506040830151848203604086015261195082826112ba565b9150506060830151611965606086018261124b565b506080830151611978608086018261124b565b508091505092915050565b6000602082019050818103600083015261199d8184611906565b905092915050565b600081519050919050565b600082825260208201905092915050565b6000819050602082019050919050565b60006119dd838361124b565b60208301905092915050565b6000602082019050919050565b6000611a01826119a5565b611a0b81856119b0565b9350611a16836119c1565b8060005b83811015611a47578151611a2e88826119d1565b9750611a39836119e9565b925050600181019050611a1a565b5085935050505092915050565b60006020820190508181036000830152611a6e81846119f6565b905092915050565b7f4e487b7100000000000000000000000000000000000000000000000000000000600052602260045260246000fd5b60006002820490506001821680611abd57607f821691505b60208210811415611ad157611ad0611a76565b5b50919050565b600082825260208201905092915050565b7f4d7573742062652063616c6c65642066726f6d2074686520656c656374696f6e60008201527f206f7267616e697a657220636f6e747261637400000000000000000000000000602082015250565b6000611b44603383611ad7565b9150611b4f82611ae8565b604082019050919050565b60006020820190508181036000830152611b7381611b37565b9050919050565b7f43616e6e6f74206164642063616e6469646174657320616674657220656c656360008201527f74696f6e20686173207374617274656400000000000000000000000000000000602082015250565b6000611bd6603083611ad7565b9150611be182611b7a565b604082019050919050565b60006020820190508181036000830152611c0581611bc9565b9050919050565b7f4e487b7100000000000000000000000000000000000000000000000000000000600052601160045260246000fd5b6000611c4682611241565b9150611c5183611241565b9250827fffffffffffffffffffffffffffffffffffffffffffffffffffffffffffffffff03821115611c8657611c85611c0c565b5b828201905092915050565b6000611c9c82611241565b91507fffffffffffffffffffffffffffffffffffffffffffffffffffffffffffffffff821415611ccf57611cce611c0c565b5b600182019050919050565b6000606082019050611cef6000830186611741565b611cfc6020830185611741565b8181036040830152611d0e818461188d565b9050949350505050565b7f456c656374696f6e206e6565647320746f2062652061637469766520746f207660008201527f6f74650000000000000000000000000000000000000000000000000000000000602082015250565b6000611d74602383611ad7565b9150611d7f82611d18565b604082019050919050565b60006020820190508181036000830152611da381611d67565b9050919050565b6000606082019050611dbf6000830186611741565b611dcc6020830185611402565b611dd96040830184611402565b949350505050565b60008160001c9050919050565b6000819050919050565b6000611e0b611e0683611de1565b611dee565b9050919050565b60008190508160005260206000209050919050565b60008154611e3481611aa5565b611e3e8186611265565b94506001821660008114611e595760018114611e6b57611e9e565b60ff1983168652602086019350611e9e565b611e7485611e12565b60005b83811015611e9657815481890152600182019150602081019050611e77565b808801955050505b50505092915050565b6000606083016000808401549050611ebe81611df8565b611ecb600087018261124b565b50600184018583036020870152611ee28382611e27565b925050600284018583036040870152611efb8382611e27565b925050819250505092915050565b6000606082019050611f1e6000830186611741565b8181036020830152611f308185611ea7565b9050611f3f6040830184611402565b949350505050565b7f43616c6c6572206d7573742062652074686520656c656374696f6e206f72676160008201527f6e697a6572000000000000000000000000000000000000000000000000000000602082015250565b6000611fa3602583611ad7565b9150611fae82611f47565b604082019050919050565b60006020820190508181036000830152611fd281611f96565b9050919050565b611fe28161182a565b8114611fed57600080fd5b50565b600081519050611fff81611fd9565b92915050565b60006020828403121561201b5761201a611436565b5b600061202984828501611ff0565b91505092915050565b7f526573756c747320617265206465636c61726564206f6e6c792061667465722060008201527f74686520656c656374696f6e20656e6473000000000000000000000000000000602082015250565b600061208e603183611ad7565b915061209982612032565b604082019050919050565b600060208201905081810360008301526120bd81612081565b9050919050565b6000819050919050565b60006120e96120e46120df84611690565b6120c4565b611690565b9050919050565b60006120fb826120ce565b9050919050565b600061210d826120f0565b9050919050565b61211d81612102565b82525050565b60006040820190506121386000830185612114565b6121456020830184611402565b9392505050565b600067ffffffffffffffff82111561216757612166611445565b5b602082029050602081019050919050565b600080fd5b60008151905061218c816114c5565b92915050565b60006121a56121a08461214c565b6114a5565b905080838252602082019050602084028301858111156121c8576121c7612178565b5b835b818110156121f157806121dd888261217d565b8452602084019350506020810190506121ca565b5050509392505050565b600082601f8301126122105761220f6114f1565b5b8151612220848260208601612192565b91505092915050565b60006020828403121561223f5761223e611436565b5b600082015167ffffffffffffffff81111561225d5761225c61143b565b5b612269848285016121fb565b91505092915050565b600081549050919050565b60008190508160005260206000209050919050565b600061229e8254611df8565b9050919050565b6000600182019050919050565b60006122bd82612272565b6122c781856119b0565b93506122d28361227d565b8060005b8381101561230a576122e782612292565b6122f188826119d1565b97506122fc836122a5565b9250506001810190506122d6565b5085935050505092915050565b6000602082019050818103600083015261233181846122b2565b905092915050565b7f526573756c7473206172656e2774206465636c61726564207965740000000000600082015250565b600061236f601b83611ad7565b915061237a82612339565b602082019050919050565b6000602082019050818103600083015261239e81612362565b905091905056fea2646970667358221220ceb99c2b3b0442a3e1b5c0415dddbd76c815c8096f8cbbe2ae6cb898c6f2c41764736f6c634300080a0033",
  "linkReferences": {},
  "deployedLinkReferences": {}
}