{
  "_format": "hh-sol-artifact-1",
  "contractName": "Election",
  "sourceName": "contracts/facets/votingApp/Election.sol",
  "abi": [
    {
      "inputs": [
        {
          "components": [
            {
              "internalType": "uint256",
              "name": "electionID",
              "type": "uint256"
            },
            {
              "internalType": "string",
              "name": "name",
              "type": "string"
            },
            {
              "internalType": "string",
              "name": "description",
              "type": "string"
            },
            {
              "internalType": "uint256",
              "name": "startDate",
              "type": "uint256"
            },
            {
              "internalType": "uint256",
              "name": "endDate",
              "type": "uint256"
            }
          ],
          "internalType": "struct Election.ElectionInfo",
          "name": "_electionInfo",
          "type": "tuple"
        },
        {
          "internalType": "contract Ballot",
          "name": "_ballot",
          "type": "address"
        },
        {
          "internalType": "contract ResultCalculator",
          "name": "_resultCalculator",
          "type": "address"
        },
        {
          "internalType": "address",
          "name": "_electionOrganizer",
          "type": "address"
        },
        {
          "internalType": "address",
          "name": "_electionOrganizerContract",
          "type": "address"
        },
        {
          "internalType": "uint256",
          "name": "_ballotType",
          "type": "uint256"
        }
      ],
      "stateMutability": "nonpayable",
      "type": "constructor"
    },
    {
      "anonymous": false,
      "inputs": [
        {
          "indexed": false,
          "internalType": "address",
          "name": "election",
          "type": "address"
        },
        {
          "indexed": false,
          "internalType": "address",
          "name": "ballot",
          "type": "address"
        },
        {
          "components": [
            {
              "internalType": "uint256",
              "name": "candidateID",
              "type": "uint256"
            },
            {
              "internalType": "string",
              "name": "name",
              "type": "string"
            },
            {
              "internalType": "string",
              "name": "description",
              "type": "string"
            }
          ],
          "indexed": false,
          "internalType": "struct Election.Candidate",
          "name": "candidate",
          "type": "tuple"
        }
      ],
      "name": "CandidateAdded",
      "type": "event"
    },
    {
      "anonymous": false,
      "inputs": [
        {
          "indexed": false,
          "internalType": "uint256[]",
          "name": "winners",
          "type": "uint256[]"
        }
      ],
      "name": "ListWinners",
      "type": "event"
    },
    {
      "anonymous": false,
      "inputs": [
        {
          "indexed": false,
          "internalType": "address",
          "name": "ballot",
          "type": "address"
        },
        {
          "components": [
            {
              "internalType": "uint256",
              "name": "candidateID",
              "type": "uint256"
            },
            {
              "internalType": "string",
              "name": "name",
              "type": "string"
            },
            {
              "internalType": "string",
              "name": "description",
              "type": "string"
            }
          ],
          "indexed": false,
          "internalType": "struct Election.Candidate",
          "name": "candidate",
          "type": "tuple"
        },
        {
          "indexed": false,
          "internalType": "uint256",
          "name": "weight",
          "type": "uint256"
        }
      ],
      "name": "VoteCasted",
      "type": "event"
    },
    {
      "inputs": [
        {
          "components": [
            {
              "internalType": "uint256",
              "name": "candidateID",
              "type": "uint256"
            },
            {
              "internalType": "string",
              "name": "name",
              "type": "string"
            },
            {
              "internalType": "string",
              "name": "description",
              "type": "string"
            }
          ],
          "internalType": "struct Election.Candidate",
          "name": "_candidate",
          "type": "tuple"
        }
      ],
      "name": "addCandidate",
      "outputs": [],
      "stateMutability": "nonpayable",
      "type": "function"
    },
    {
      "inputs": [],
      "name": "getBallot",
      "outputs": [
        {
          "internalType": "address",
          "name": "",
          "type": "address"
        }
      ],
      "stateMutability": "view",
      "type": "function"
    },
    {
      "inputs": [],
      "name": "getBallotType",
      "outputs": [
        {
          "internalType": "uint256",
          "name": "",
          "type": "uint256"
        }
      ],
      "stateMutability": "view",
      "type": "function"
    },
    {
      "inputs": [
        {
          "internalType": "uint256",
          "name": "_candidateID",
          "type": "uint256"
        }
      ],
      "name": "getCandidateByID",
      "outputs": [
        {
          "components": [
            {
              "internalType": "uint256",
              "name": "candidateID",
              "type": "uint256"
            },
            {
              "internalType": "string",
              "name": "name",
              "type": "string"
            },
            {
              "internalType": "string",
              "name": "description",
              "type": "string"
            }
          ],
          "internalType": "struct Election.Candidate",
          "name": "",
          "type": "tuple"
        }
      ],
      "stateMutability": "view",
      "type": "function"
    },
    {
      "inputs": [],
      "name": "getCandidateCount",
      "outputs": [
        {
          "internalType": "uint256",
          "name": "",
          "type": "uint256"
        }
      ],
      "stateMutability": "view",
      "type": "function"
    },
    {
      "inputs": [],
      "name": "getCandidates",
      "outputs": [
        {
          "components": [
            {
              "internalType": "uint256",
              "name": "candidateID",
              "type": "uint256"
            },
            {
              "internalType": "string",
              "name": "name",
              "type": "string"
            },
            {
              "internalType": "string",
              "name": "description",
              "type": "string"
            }
          ],
          "internalType": "struct Election.Candidate[]",
          "name": "",
          "type": "tuple[]"
        }
      ],
      "stateMutability": "view",
      "type": "function"
    },
    {
      "inputs": [],
      "name": "getElectionInfo",
      "outputs": [
        {
          "components": [
            {
              "internalType": "uint256",
              "name": "electionID",
              "type": "uint256"
            },
            {
              "internalType": "string",
              "name": "name",
              "type": "string"
            },
            {
              "internalType": "string",
              "name": "description",
              "type": "string"
            },
            {
              "internalType": "uint256",
              "name": "startDate",
              "type": "uint256"
            },
            {
              "internalType": "uint256",
              "name": "endDate",
              "type": "uint256"
            }
          ],
          "internalType": "struct Election.ElectionInfo",
          "name": "",
          "type": "tuple"
        }
      ],
      "stateMutability": "view",
      "type": "function"
    },
    {
      "inputs": [],
      "name": "getElectionOrganizer",
      "outputs": [
        {
          "internalType": "address",
          "name": "",
          "type": "address"
        }
      ],
      "stateMutability": "view",
      "type": "function"
    },
    {
      "inputs": [],
      "name": "getResult",
      "outputs": [
        {
          "internalType": "uint256[]",
          "name": "",
          "type": "uint256[]"
        }
      ],
      "stateMutability": "nonpayable",
      "type": "function"
    },
    {
      "inputs": [],
      "name": "getResultCalculator",
      "outputs": [
        {
          "internalType": "address",
          "name": "",
          "type": "address"
        }
      ],
      "stateMutability": "view",
      "type": "function"
    },
    {
      "inputs": [],
      "name": "getStatus",
      "outputs": [
        {
          "internalType": "enum Election.Status",
          "name": "",
          "type": "uint8"
        }
      ],
      "stateMutability": "view",
      "type": "function"
    },
    {
      "inputs": [
        {
          "internalType": "address",
          "name": "_voter",
          "type": "address"
        }
      ],
      "name": "getVoteStatus",
      "outputs": [
        {
          "internalType": "bool",
          "name": "",
          "type": "bool"
        }
      ],
      "stateMutability": "view",
      "type": "function"
    },
    {
      "inputs": [],
      "name": "getVoterCount",
      "outputs": [
        {
          "internalType": "uint256",
          "name": "",
          "type": "uint256"
        }
      ],
      "stateMutability": "view",
      "type": "function"
    },
    {
      "inputs": [],
      "name": "getWinners",
      "outputs": [
        {
          "internalType": "uint256[]",
          "name": "",
          "type": "uint256[]"
        }
      ],
      "stateMutability": "view",
      "type": "function"
    },
    {
      "inputs": [
        {
          "internalType": "string",
          "name": "_name",
          "type": "string"
        },
        {
          "internalType": "string",
          "name": "_description",
          "type": "string"
        },
        {
          "internalType": "uint256",
          "name": "index",
          "type": "uint256"
        }
      ],
      "name": "updateCandidateInfo",
      "outputs": [],
      "stateMutability": "nonpayable",
      "type": "function"
    },
    {
      "inputs": [
        {
          "components": [
            {
              "internalType": "uint256",
              "name": "electionID",
              "type": "uint256"
            },
            {
              "internalType": "string",
              "name": "name",
              "type": "string"
            },
            {
              "internalType": "string",
              "name": "description",
              "type": "string"
            },
            {
              "internalType": "uint256",
              "name": "startDate",
              "type": "uint256"
            },
            {
              "internalType": "uint256",
              "name": "endDate",
              "type": "uint256"
            }
          ],
          "internalType": "struct Election.ElectionInfo",
          "name": "_electionInfo",
          "type": "tuple"
        }
      ],
      "name": "updateElectionInfo",
      "outputs": [],
      "stateMutability": "nonpayable",
      "type": "function"
    },
    {
      "inputs": [
        {
          "internalType": "address",
          "name": "_voter",
          "type": "address"
        },
        {
          "internalType": "uint256",
          "name": "_candidateID",
          "type": "uint256"
        },
        {
          "internalType": "uint256",
          "name": "weight",
          "type": "uint256"
        },
        {
          "internalType": "uint256[]",
          "name": "voteArr",
          "type": "uint256[]"
        }
      ],
      "name": "vote",
      "outputs": [],
      "stateMutability": "nonpayable",
      "type": "function"
    }
  ],
  "bytecode": "0x60806040523480156200001157600080fd5b50604051620031e5380380620031e5833981810160405281019062000037919062000635565b82600960006101000a81548173ffffffffffffffffffffffffffffffffffffffff021916908373ffffffffffffffffffffffffffffffffffffffff16021790555081600a60006101000a81548173ffffffffffffffffffffffffffffffffffffffff021916908373ffffffffffffffffffffffffffffffffffffffff1602179055508560008082015181600001556020820151816001019080519060200190620000e3929190620001db565b50604082015181600201908051906020019062000102929190620001db565b50606082015181600301556080820151816004015590505084600d60016101000a81548173ffffffffffffffffffffffffffffffffffffffff021916908373ffffffffffffffffffffffffffffffffffffffff16021790555083600e60006101000a81548173ffffffffffffffffffffffffffffffffffffffff021916908373ffffffffffffffffffffffffffffffffffffffff1602179055506103e86008819055506000600b819055506000600d60006101000a81548160ff02191690831515021790555080600c8190555050505050505062000755565b828054620001e9906200071f565b90600052602060002090601f0160209004810192826200020d576000855562000259565b82601f106200022857805160ff191683800117855562000259565b8280016001018555821562000259579182015b82811115620002585782518255916020019190600101906200023b565b5b5090506200026891906200026c565b5090565b5b80821115620002875760008160009055506001016200026d565b5090565b6000604051905090565b600080fd5b600080fd5b600080fd5b6000601f19601f8301169050919050565b7f4e487b7100000000000000000000000000000000000000000000000000000000600052604160045260246000fd5b620002ef82620002a4565b810181811067ffffffffffffffff82111715620003115762000310620002b5565b5b80604052505050565b6000620003266200028b565b9050620003348282620002e4565b919050565b600080fd5b6000819050919050565b62000353816200033e565b81146200035f57600080fd5b50565b600081519050620003738162000348565b92915050565b600080fd5b600080fd5b600067ffffffffffffffff821115620003a157620003a0620002b5565b5b620003ac82620002a4565b9050602081019050919050565b60005b83811015620003d9578082015181840152602081019050620003bc565b83811115620003e9576000848401525b50505050565b600062000406620004008462000383565b6200031a565b9050828152602081018484840111156200042557620004246200037e565b5b62000432848285620003b9565b509392505050565b600082601f83011262000452576200045162000379565b5b815162000464848260208601620003ef565b91505092915050565b600060a082840312156200048657620004856200029f565b5b6200049260a06200031a565b90506000620004a48482850162000362565b600083015250602082015167ffffffffffffffff811115620004cb57620004ca62000339565b5b620004d9848285016200043a565b602083015250604082015167ffffffffffffffff8111156200050057620004ff62000339565b5b6200050e848285016200043a565b6040830152506060620005248482850162000362565b60608301525060806200053a8482850162000362565b60808301525092915050565b600073ffffffffffffffffffffffffffffffffffffffff82169050919050565b6000620005738262000546565b9050919050565b6000620005878262000566565b9050919050565b62000599816200057a565b8114620005a557600080fd5b50565b600081519050620005b9816200058e565b92915050565b6000620005cc8262000566565b9050919050565b620005de81620005bf565b8114620005ea57600080fd5b50565b600081519050620005fe81620005d3565b92915050565b6200060f8162000566565b81146200061b57600080fd5b50565b6000815190506200062f8162000604565b92915050565b60008060008060008060c0878903121562000655576200065462000295565b5b600087015167ffffffffffffffff8111156200067657620006756200029a565b5b6200068489828a016200046d565b96505060206200069789828a01620005a8565b9550506040620006aa89828a01620005ed565b9450506060620006bd89828a016200061e565b9350506080620006d089828a016200061e565b92505060a0620006e389828a0162000362565b9150509295509295509295565b7f4e487b7100000000000000000000000000000000000000000000000000000000600052602260045260246000fd5b600060028204905060018216806200073857607f821691505b602082108114156200074f576200074e620006f0565b5b50919050565b612a8080620007656000396000f3fe608060405234801561001057600080fd5b506004361061010b5760003560e01c8063521b0dcc116100a2578063a1818ac411610071578063a1818ac414610298578063de292789146102b4578063df15c37e146102d2578063e04b1c0c146102f0578063ecff1f4b1461030e5761010b565b8063521b0dcc146101fc578063822023961461022c57806386852dca1461025c5780639baec8b91461027a5761010b565b8063273ffe86116100de578063273ffe861461018657806330a56347146101a257806337349a7d146101c05780634e69d560146101de5761010b565b806306a49fce1461011057806311174a291461012e5780631ca577141461014c57806324fd983c1461016a575b600080fd5b61011861032a565b6040516101259190611750565b60405180910390f35b6101366104b7565b6040516101439190611781565b60405180910390f35b6101546104c1565b6040516101619190611781565b60405180910390f35b610184600480360381019061017f9190611911565b6104cb565b005b6101a0600480360381019061019b9190611a42565b610659565b005b6101aa61094f565b6040516101b79190611781565b60405180910390f35b6101c8610959565b6040516101d59190611acc565b60405180910390f35b6101e6610a13565b6040516101f39190611b5e565b60405180910390f35b61021660048036038101906102119190611ba5565b610a48565b6040516102239190611bed565b60405180910390f35b61024660048036038101906102419190611c08565b610aed565b6040516102539190611c8c565b60405180910390f35b610264610c48565b6040516102719190611d2b565b60405180910390f35b610282610da4565b60405161028f9190611acc565b60405180910390f35b6102b260048036038101906102ad9190611e15565b610e5e565b005b6102bc610fec565b6040516102c99190611f47565b60405180910390f35b6102da61120f565b6040516102e79190611f47565b60405180910390f35b6102f86112bd565b6040516103059190611acc565b60405180910390f35b6103286004803603810190610323919061202d565b6112e7565b005b60606005805480602002602001604051908101604052809291908181526020016000905b828210156104ae57838290600052602060002090600302016040518060600160405290816000820154815260200160018201805461038b906120a5565b80601f01602080910402602001604051908101604052809291908181526020018280546103b7906120a5565b80156104045780601f106103d957610100808354040283529160200191610404565b820191906000526020600020905b8154815290600101906020018083116103e757829003601f168201915b5050505050815260200160028201805461041d906120a5565b80601f0160208091040260200160405190810160405280929190818152602001828054610449906120a5565b80156104965780601f1061046b57610100808354040283529160200191610496565b820191906000526020600020905b81548152906001019060200180831161047957829003601f168201915b5050505050815250508152602001906001019061034e565b50505050905090565b6000600b54905090565b6000600c54905090565b600a60009054906101000a900473ffffffffffffffffffffffffffffffffffffffff1673ffffffffffffffffffffffffffffffffffffffff163373ffffffffffffffffffffffffffffffffffffffff161461055b576040517f08c379a00000000000000000000000000000000000000000000000000000000081526004016105529061215a565b60405180910390fd5b6001600281111561056f5761056e611ae7565b5b610577610a13565b600281111561058957610588611ae7565b5b146105c9576040517f08c379a00000000000000000000000000000000000000000000000000000000081526004016105c0906121ec565b60405180910390fd5b600060058054905090508082106105df57600080fd5b83600583815481106105f4576105f361220c565b5b90600052602060002090600302016001019080519060200190610618929190611445565b50826005838154811061062e5761062d61220c565b5b90600052602060002090600302016002019080519060200190610652929190611445565b5050505050565b600a60009054906101000a900473ffffffffffffffffffffffffffffffffffffffff1673ffffffffffffffffffffffffffffffffffffffff163373ffffffffffffffffffffffffffffffffffffffff16146106e9576040517f08c379a00000000000000000000000000000000000000000000000000000000081526004016106e09061215a565b60405180910390fd5b600160028111156106fd576106fc611ae7565b5b610705610a13565b600281111561071757610716611ae7565b5b14610757576040517f08c379a000000000000000000000000000000000000000000000000000000000815260040161074e906121ec565b60405180910390fd5b60006001600854610768919061226a565b90508082600001818152505060058290806001815401808255809150506001900390600052602060002090600302016000909190919091506000820151816000015560208201518160010190805190602001906107c6929190611445565b5060408201518160020190805190602001906107e3929190611445565b505050600d60019054906101000a900473ffffffffffffffffffffffffffffffffffffffff1673ffffffffffffffffffffffffffffffffffffffff1663e844d09783600001516040518263ffffffff1660e01b81526004016108459190611781565b600060405180830381600087803b15801561085f57600080fd5b505af1158015610873573d6000803e3d6000fd5b505050508160076000846000015181526020019081526020016000206000820151816000015560208201518160010190805190602001906108b5929190611445565b5060408201518160020190805190602001906108d2929190611445565b50905050600860008154809291906108e9906122c0565b91905055507f4d9dd414a40890e16b7bd0ea98bdf9d5b55c3d20cfe4b18febda0d60fb32a60c30600d60019054906101000a900473ffffffffffffffffffffffffffffffffffffffff168460405161094393929190612309565b60405180910390a15050565b6000600854905090565b6000600960009054906101000a900473ffffffffffffffffffffffffffffffffffffffff1673ffffffffffffffffffffffffffffffffffffffff163373ffffffffffffffffffffffffffffffffffffffff16146109eb576040517f08c379a00000000000000000000000000000000000000000000000000000000081526004016109e2906123b9565b60405180910390fd5b600e60009054906101000a900473ffffffffffffffffffffffffffffffffffffffff16905090565b60008060030154421015610a2a5760019050610a45565b600060040154421015610a405760009050610a45565b600290505b90565b6000600d60019054906101000a900473ffffffffffffffffffffffffffffffffffffffff1673ffffffffffffffffffffffffffffffffffffffff1663521b0dcc836040518263ffffffff1660e01b8152600401610aa59190611acc565b602060405180830381865afa158015610ac2573d6000803e3d6000fd5b505050506040513d601f19601f82011682018060405250810190610ae69190612405565b9050919050565b610af56114cb565b6007600083815260200190815260200160002060405180606001604052908160008201548152602001600182018054610b2d906120a5565b80601f0160208091040260200160405190810160405280929190818152602001828054610b59906120a5565b8015610ba65780601f10610b7b57610100808354040283529160200191610ba6565b820191906000526020600020905b815481529060010190602001808311610b8957829003601f168201915b50505050508152602001600282018054610bbf906120a5565b80601f0160208091040260200160405190810160405280929190818152602001828054610beb906120a5565b8015610c385780601f10610c0d57610100808354040283529160200191610c38565b820191906000526020600020905b815481529060010190602001808311610c1b57829003601f168201915b5050505050815250509050919050565b610c506114ec565b60006040518060a001604052908160008201548152602001600182018054610c77906120a5565b80601f0160208091040260200160405190810160405280929190818152602001828054610ca3906120a5565b8015610cf05780601f10610cc557610100808354040283529160200191610cf0565b820191906000526020600020905b815481529060010190602001808311610cd357829003601f168201915b50505050508152602001600282018054610d09906120a5565b80601f0160208091040260200160405190810160405280929190818152602001828054610d35906120a5565b8015610d825780601f10610d5757610100808354040283529160200191610d82565b820191906000526020600020905b815481529060010190602001808311610d6557829003601f168201915b5050505050815260200160038201548152602001600482015481525050905090565b6000600960009054906101000a900473ffffffffffffffffffffffffffffffffffffffff1673ffffffffffffffffffffffffffffffffffffffff163373ffffffffffffffffffffffffffffffffffffffff1614610e36576040517f08c379a0000000000000000000000000000000000000000000000000000000008152600401610e2d906123b9565b60405180910390fd5b600d60019054906101000a900473ffffffffffffffffffffffffffffffffffffffff16905090565b60006002811115610e7257610e71611ae7565b5b610e7a610a13565b6002811115610e8c57610e8b611ae7565b5b14610ecc576040517f08c379a0000000000000000000000000000000000000000000000000000000008152600401610ec3906124a4565b60405180910390fd5b600d60019054906101000a900473ffffffffffffffffffffffffffffffffffffffff1673ffffffffffffffffffffffffffffffffffffffff1663a1818ac4858585856040518563ffffffff1660e01b8152600401610f2d94939291906124c4565b600060405180830381600087803b158015610f4757600080fd5b505af1158015610f5b573d6000803e3d6000fd5b50505050600b6000815480929190610f72906122c0565b91905055507fd589db416dab4dff131e94610b2d02ce215ded85a2943a2ea59acd2153a85182600d60019054906101000a900473ffffffffffffffffffffffffffffffffffffffff166007600086815260200190815260200160002084604051610fde93929190612638565b60405180910390a150505050565b606060028081111561100157611000611ae7565b5b611009610a13565b600281111561101b5761101a611ae7565b5b1461105b576040517f08c379a0000000000000000000000000000000000000000000000000000000008152600401611052906126e8565b60405180910390fd5b60001515600d60009054906101000a900460ff161515141561120157600e60009054906101000a900473ffffffffffffffffffffffffffffffffffffffff1673ffffffffffffffffffffffffffffffffffffffff1663c8344a20600d60019054906101000a900473ffffffffffffffffffffffffffffffffffffffff16600b546040518363ffffffff1660e01b81526004016110f8929190612767565b6000604051808303816000875af1158015611117573d6000803e3d6000fd5b505050506040513d6000823e3d601f19601f82011682018060405250810190611140919061283c565b6006908051906020019061115592919061151b565b506001600d60006101000a81548160ff0219169083151502179055507f28e5f582afeee46fd13ea548ad814f45b1d4a5159990336d5e66deb48a960e4c60066040516111a1919061292a565b60405180910390a160068054806020026020016040519081016040528092919081815260200182805480156111f557602002820191906000526020600020905b8154815260200190600101908083116111e1575b5050505050905061120c565b61120961120f565b90505b90565b606060011515600d60009054906101000a900460ff16151514611267576040517f08c379a000000000000000000000000000000000000000000000000000000000815260040161125e90612998565b60405180910390fd5b60068054806020026020016040519081016040528092919081815260200182805480156112b357602002820191906000526020600020905b81548152602001906001019080831161129f575b5050505050905090565b6000600960009054906101000a900473ffffffffffffffffffffffffffffffffffffffff16905090565b600960009054906101000a900473ffffffffffffffffffffffffffffffffffffffff1673ffffffffffffffffffffffffffffffffffffffff163373ffffffffffffffffffffffffffffffffffffffff1614611377576040517f08c379a000000000000000000000000000000000000000000000000000000000815260040161136e906123b9565b60405180910390fd5b6001600281111561138b5761138a611ae7565b5b611393610a13565b60028111156113a5576113a4611ae7565b5b146113e5576040517f08c379a00000000000000000000000000000000000000000000000000000000081526004016113dc90612a2a565b60405180910390fd5b806000808201518160000155602082015181600101908051906020019061140d929190611445565b50604082015181600201908051906020019061142a929190611445565b50606082015181600301556080820151816004015590505050565b828054611451906120a5565b90600052602060002090601f01602090048101928261147357600085556114ba565b82601f1061148c57805160ff19168380011785556114ba565b828001600101855582156114ba579182015b828111156114b957825182559160200191906001019061149e565b5b5090506114c79190611568565b5090565b60405180606001604052806000815260200160608152602001606081525090565b6040518060a0016040528060008152602001606081526020016060815260200160008152602001600081525090565b828054828255906000526020600020908101928215611557579160200282015b8281111561155657825182559160200191906001019061153b565b5b5090506115649190611568565b5090565b5b80821115611581576000816000905550600101611569565b5090565b600081519050919050565b600082825260208201905092915050565b6000819050602082019050919050565b6000819050919050565b6115c4816115b1565b82525050565b600081519050919050565b600082825260208201905092915050565b60005b838110156116045780820151818401526020810190506115e9565b83811115611613576000848401525b50505050565b6000601f19601f8301169050919050565b6000611635826115ca565b61163f81856115d5565b935061164f8185602086016115e6565b61165881611619565b840191505092915050565b600060608301600083015161167b60008601826115bb565b5060208301518482036020860152611693828261162a565b915050604083015184820360408601526116ad828261162a565b9150508091505092915050565b60006116c68383611663565b905092915050565b6000602082019050919050565b60006116e682611585565b6116f08185611590565b935083602082028501611702856115a1565b8060005b8581101561173e578484038952815161171f85826116ba565b945061172a836116ce565b925060208a01995050600181019050611706565b50829750879550505050505092915050565b6000602082019050818103600083015261176a81846116db565b905092915050565b61177b816115b1565b82525050565b60006020820190506117966000830184611772565b92915050565b6000604051905090565b600080fd5b600080fd5b600080fd5b600080fd5b7f4e487b7100000000000000000000000000000000000000000000000000000000600052604160045260246000fd5b6117f282611619565b810181811067ffffffffffffffff82111715611811576118106117ba565b5b80604052505050565b600061182461179c565b905061183082826117e9565b919050565b600067ffffffffffffffff8211156118505761184f6117ba565b5b61185982611619565b9050602081019050919050565b82818337600083830152505050565b600061188861188384611835565b61181a565b9050828152602081018484840111156118a4576118a36117b5565b5b6118af848285611866565b509392505050565b600082601f8301126118cc576118cb6117b0565b5b81356118dc848260208601611875565b91505092915050565b6118ee816115b1565b81146118f957600080fd5b50565b60008135905061190b816118e5565b92915050565b60008060006060848603121561192a576119296117a6565b5b600084013567ffffffffffffffff811115611948576119476117ab565b5b611954868287016118b7565b935050602084013567ffffffffffffffff811115611975576119746117ab565b5b611981868287016118b7565b9250506040611992868287016118fc565b9150509250925092565b600080fd5b600080fd5b6000606082840312156119bc576119bb61199c565b5b6119c6606061181a565b905060006119d6848285016118fc565b600083015250602082013567ffffffffffffffff8111156119fa576119f96119a1565b5b611a06848285016118b7565b602083015250604082013567ffffffffffffffff811115611a2a57611a296119a1565b5b611a36848285016118b7565b60408301525092915050565b600060208284031215611a5857611a576117a6565b5b600082013567ffffffffffffffff811115611a7657611a756117ab565b5b611a82848285016119a6565b91505092915050565b600073ffffffffffffffffffffffffffffffffffffffff82169050919050565b6000611ab682611a8b565b9050919050565b611ac681611aab565b82525050565b6000602082019050611ae16000830184611abd565b92915050565b7f4e487b7100000000000000000000000000000000000000000000000000000000600052602160045260246000fd5b60038110611b2757611b26611ae7565b5b50565b6000819050611b3882611b16565b919050565b6000611b4882611b2a565b9050919050565b611b5881611b3d565b82525050565b6000602082019050611b736000830184611b4f565b92915050565b611b8281611aab565b8114611b8d57600080fd5b50565b600081359050611b9f81611b79565b92915050565b600060208284031215611bbb57611bba6117a6565b5b6000611bc984828501611b90565b91505092915050565b60008115159050919050565b611be781611bd2565b82525050565b6000602082019050611c026000830184611bde565b92915050565b600060208284031215611c1e57611c1d6117a6565b5b6000611c2c848285016118fc565b91505092915050565b6000606083016000830151611c4d60008601826115bb565b5060208301518482036020860152611c65828261162a565b91505060408301518482036040860152611c7f828261162a565b9150508091505092915050565b60006020820190508181036000830152611ca68184611c35565b905092915050565b600060a083016000830151611cc660008601826115bb565b5060208301518482036020860152611cde828261162a565b91505060408301518482036040860152611cf8828261162a565b9150506060830151611d0d60608601826115bb565b506080830151611d2060808601826115bb565b508091505092915050565b60006020820190508181036000830152611d458184611cae565b905092915050565b600067ffffffffffffffff821115611d6857611d676117ba565b5b602082029050602081019050919050565b600080fd5b6000611d91611d8c84611d4d565b61181a565b90508083825260208201905060208402830185811115611db457611db3611d79565b5b835b81811015611ddd5780611dc988826118fc565b845260208401935050602081019050611db6565b5050509392505050565b600082601f830112611dfc57611dfb6117b0565b5b8135611e0c848260208601611d7e565b91505092915050565b60008060008060808587031215611e2f57611e2e6117a6565b5b6000611e3d87828801611b90565b9450506020611e4e878288016118fc565b9350506040611e5f878288016118fc565b925050606085013567ffffffffffffffff811115611e8057611e7f6117ab565b5b611e8c87828801611de7565b91505092959194509250565b600081519050919050565b600082825260208201905092915050565b6000819050602082019050919050565b6000611ed083836115bb565b60208301905092915050565b6000602082019050919050565b6000611ef482611e98565b611efe8185611ea3565b9350611f0983611eb4565b8060005b83811015611f3a578151611f218882611ec4565b9750611f2c83611edc565b925050600181019050611f0d565b5085935050505092915050565b60006020820190508181036000830152611f618184611ee9565b905092915050565b600060a08284031215611f7f57611f7e61199c565b5b611f8960a061181a565b90506000611f99848285016118fc565b600083015250602082013567ffffffffffffffff811115611fbd57611fbc6119a1565b5b611fc9848285016118b7565b602083015250604082013567ffffffffffffffff811115611fed57611fec6119a1565b5b611ff9848285016118b7565b604083015250606061200d848285016118fc565b6060830152506080612021848285016118fc565b60808301525092915050565b600060208284031215612043576120426117a6565b5b600082013567ffffffffffffffff811115612061576120606117ab565b5b61206d84828501611f69565b91505092915050565b7f4e487b7100000000000000000000000000000000000000000000000000000000600052602260045260246000fd5b600060028204905060018216806120bd57607f821691505b602082108114156120d1576120d0612076565b5b50919050565b600082825260208201905092915050565b7f4d7573742062652063616c6c65642066726f6d2074686520656c656374696f6e60008201527f206f7267616e697a657220636f6e747261637400000000000000000000000000602082015250565b60006121446033836120d7565b915061214f826120e8565b604082019050919050565b6000602082019050818103600083015261217381612137565b9050919050565b7f43616e6e6f74206164642063616e6469646174657320616674657220656c656360008201527f74696f6e20686173207374617274656400000000000000000000000000000000602082015250565b60006121d66030836120d7565b91506121e18261217a565b604082019050919050565b60006020820190508181036000830152612205816121c9565b9050919050565b7f4e487b7100000000000000000000000000000000000000000000000000000000600052603260045260246000fd5b7f4e487b7100000000000000000000000000000000000000000000000000000000600052601160045260246000fd5b6000612275826115b1565b9150612280836115b1565b9250827fffffffffffffffffffffffffffffffffffffffffffffffffffffffffffffffff038211156122b5576122b461223b565b5b828201905092915050565b60006122cb826115b1565b91507fffffffffffffffffffffffffffffffffffffffffffffffffffffffffffffffff8214156122fe576122fd61223b565b5b600182019050919050565b600060608201905061231e6000830186611abd565b61232b6020830185611abd565b818103604083015261233d8184611c35565b9050949350505050565b7f43616c6c6572206d7573742062652074686520656c656374696f6e206f72676160008201527f6e697a6572000000000000000000000000000000000000000000000000000000602082015250565b60006123a36025836120d7565b91506123ae82612347565b604082019050919050565b600060208201905081810360008301526123d281612396565b9050919050565b6123e281611bd2565b81146123ed57600080fd5b50565b6000815190506123ff816123d9565b92915050565b60006020828403121561241b5761241a6117a6565b5b6000612429848285016123f0565b91505092915050565b7f456c656374696f6e206e6565647320746f2062652061637469766520746f207660008201527f6f74650000000000000000000000000000000000000000000000000000000000602082015250565b600061248e6023836120d7565b915061249982612432565b604082019050919050565b600060208201905081810360008301526124bd81612481565b9050919050565b60006080820190506124d96000830187611abd565b6124e66020830186611772565b6124f36040830185611772565b81810360608301526125058184611ee9565b905095945050505050565b60008160001c9050919050565b6000819050919050565b600061253a61253583612510565b61251d565b9050919050565b60008190508160005260206000209050919050565b60008154612563816120a5565b61256d81866115d5565b94506001821660008114612588576001811461259a576125cd565b60ff19831686526020860193506125cd565b6125a385612541565b60005b838110156125c5578154818901526001820191506020810190506125a6565b808801955050505b50505092915050565b60006060830160008084015490506125ed81612527565b6125fa60008701826115bb565b506001840185830360208701526126118382612556565b92505060028401858303604087015261262a8382612556565b925050819250505092915050565b600060608201905061264d6000830186611abd565b818103602083015261265f81856125d6565b905061266e6040830184611772565b949350505050565b7f526573756c747320617265206465636c61726564206f6e6c792061667465722060008201527f74686520656c656374696f6e20656e6473000000000000000000000000000000602082015250565b60006126d26031836120d7565b91506126dd82612676565b604082019050919050565b60006020820190508181036000830152612701816126c5565b9050919050565b6000819050919050565b600061272d61272861272384611a8b565b612708565b611a8b565b9050919050565b600061273f82612712565b9050919050565b600061275182612734565b9050919050565b61276181612746565b82525050565b600060408201905061277c6000830185612758565b6127896020830184611772565b9392505050565b60008151905061279f816118e5565b92915050565b60006127b86127b384611d4d565b61181a565b905080838252602082019050602084028301858111156127db576127da611d79565b5b835b8181101561280457806127f08882612790565b8452602084019350506020810190506127dd565b5050509392505050565b600082601f830112612823576128226117b0565b5b81516128338482602086016127a5565b91505092915050565b600060208284031215612852576128516117a6565b5b600082015167ffffffffffffffff8111156128705761286f6117ab565b5b61287c8482850161280e565b91505092915050565b600081549050919050565b60008190508160005260206000209050919050565b60006128b18254612527565b9050919050565b6000600182019050919050565b60006128d082612885565b6128da8185611ea3565b93506128e583612890565b8060005b8381101561291d576128fa826128a5565b6129048882611ec4565b975061290f836128b8565b9250506001810190506128e9565b5085935050505092915050565b6000602082019050818103600083015261294481846128c5565b905092915050565b7f526573756c7473206172656e2774206465636c61726564207965740000000000600082015250565b6000612982601b836120d7565b915061298d8261294c565b602082019050919050565b600060208201905081810360008301526129b181612975565b9050919050565b7f43616e6e6f742075706461746520656c656374696f6e20696e666f206166746560008201527f7220656c656374696f6e20686173207374617274656400000000000000000000602082015250565b6000612a146036836120d7565b9150612a1f826129b8565b604082019050919050565b60006020820190508181036000830152612a4381612a07565b905091905056fea26469706673582212201a716788a5bd89eaf4a35e03385a7988d2c0aa7378472d59d3abd421587ee65c64736f6c634300080a0033",
  "linkReferences": {},
  "deployedLinkReferences": {}
}