{
  "_format": "hh-sol-artifact-1",
  "contractName": "Election",
  "sourceName": "contracts/Election.sol",
  "abi": [
    {
      "inputs": [
        {
          "components": [
            {
              "internalType": "uint256",
              "name": "electionID",
              "type": "uint256"
            },
            {
              "internalType": "string",
              "name": "name",
              "type": "string"
            },
            {
              "internalType": "string",
              "name": "description",
              "type": "string"
            },
            {
              "internalType": "uint256",
              "name": "startDate",
              "type": "uint256"
            },
            {
              "internalType": "uint256",
              "name": "endDate",
              "type": "uint256"
            }
          ],
          "internalType": "struct Election.ElectionInfo",
          "name": "_electionInfo",
          "type": "tuple"
        },
        {
          "internalType": "contract Ballot",
          "name": "_ballot",
          "type": "address"
        },
        {
          "internalType": "contract ResultCalculator",
          "name": "_resultCalculator",
          "type": "address"
        },
        {
          "internalType": "address",
          "name": "_electionOrganizer",
          "type": "address"
        },
        {
          "internalType": "address",
          "name": "_electionOrganizerContract",
          "type": "address"
        }
      ],
      "stateMutability": "nonpayable",
      "type": "constructor"
    },
    {
      "anonymous": false,
      "inputs": [
        {
          "indexed": false,
          "internalType": "address",
          "name": "election",
          "type": "address"
        },
        {
          "indexed": false,
          "internalType": "address",
          "name": "ballot",
          "type": "address"
        },
        {
          "components": [
            {
              "internalType": "uint256",
              "name": "candidateID",
              "type": "uint256"
            },
            {
              "internalType": "string",
              "name": "name",
              "type": "string"
            },
            {
              "internalType": "string",
              "name": "description",
              "type": "string"
            }
          ],
          "indexed": false,
          "internalType": "struct Election.Candidate",
          "name": "candidate",
          "type": "tuple"
        }
      ],
      "name": "CandidateAdded",
      "type": "event"
    },
    {
      "anonymous": false,
      "inputs": [
        {
          "indexed": false,
          "internalType": "uint256[]",
          "name": "winners",
          "type": "uint256[]"
        }
      ],
      "name": "ListWinners",
      "type": "event"
    },
    {
      "anonymous": false,
      "inputs": [
        {
          "indexed": false,
          "internalType": "address",
          "name": "ballot",
          "type": "address"
        },
        {
          "components": [
            {
              "internalType": "uint256",
              "name": "candidateID",
              "type": "uint256"
            },
            {
              "internalType": "string",
              "name": "name",
              "type": "string"
            },
            {
              "internalType": "string",
              "name": "description",
              "type": "string"
            }
          ],
          "indexed": false,
          "internalType": "struct Election.Candidate",
          "name": "candidate",
          "type": "tuple"
        },
        {
          "indexed": false,
          "internalType": "uint256",
          "name": "weight",
          "type": "uint256"
        }
      ],
      "name": "VoteCasted",
      "type": "event"
    },
    {
      "inputs": [
        {
          "components": [
            {
              "internalType": "uint256",
              "name": "candidateID",
              "type": "uint256"
            },
            {
              "internalType": "string",
              "name": "name",
              "type": "string"
            },
            {
              "internalType": "string",
              "name": "description",
              "type": "string"
            }
          ],
          "internalType": "struct Election.Candidate",
          "name": "_candidate",
          "type": "tuple"
        }
      ],
      "name": "addCandidate",
      "outputs": [],
      "stateMutability": "nonpayable",
      "type": "function"
    },
    {
      "inputs": [],
      "name": "getBallot",
      "outputs": [
        {
          "internalType": "address",
          "name": "",
          "type": "address"
        }
      ],
      "stateMutability": "view",
      "type": "function"
    },
    {
      "inputs": [
        {
          "internalType": "uint256",
          "name": "_candidateID",
          "type": "uint256"
        }
      ],
      "name": "getCandidateByID",
      "outputs": [
        {
          "components": [
            {
              "internalType": "uint256",
              "name": "candidateID",
              "type": "uint256"
            },
            {
              "internalType": "string",
              "name": "name",
              "type": "string"
            },
            {
              "internalType": "string",
              "name": "description",
              "type": "string"
            }
          ],
          "internalType": "struct Election.Candidate",
          "name": "",
          "type": "tuple"
        }
      ],
      "stateMutability": "view",
      "type": "function"
    },
    {
      "inputs": [],
      "name": "getCandidateCount",
      "outputs": [
        {
          "internalType": "uint256",
          "name": "",
          "type": "uint256"
        }
      ],
      "stateMutability": "view",
      "type": "function"
    },
    {
      "inputs": [],
      "name": "getCandidates",
      "outputs": [
        {
          "components": [
            {
              "internalType": "uint256",
              "name": "candidateID",
              "type": "uint256"
            },
            {
              "internalType": "string",
              "name": "name",
              "type": "string"
            },
            {
              "internalType": "string",
              "name": "description",
              "type": "string"
            }
          ],
          "internalType": "struct Election.Candidate[]",
          "name": "",
          "type": "tuple[]"
        }
      ],
      "stateMutability": "view",
      "type": "function"
    },
    {
      "inputs": [],
      "name": "getElectionInfo",
      "outputs": [
        {
          "components": [
            {
              "internalType": "uint256",
              "name": "electionID",
              "type": "uint256"
            },
            {
              "internalType": "string",
              "name": "name",
              "type": "string"
            },
            {
              "internalType": "string",
              "name": "description",
              "type": "string"
            },
            {
              "internalType": "uint256",
              "name": "startDate",
              "type": "uint256"
            },
            {
              "internalType": "uint256",
              "name": "endDate",
              "type": "uint256"
            }
          ],
          "internalType": "struct Election.ElectionInfo",
          "name": "",
          "type": "tuple"
        }
      ],
      "stateMutability": "view",
      "type": "function"
    },
    {
      "inputs": [],
      "name": "getElectionOrganizer",
      "outputs": [
        {
          "internalType": "address",
          "name": "",
          "type": "address"
        }
      ],
      "stateMutability": "view",
      "type": "function"
    },
    {
      "inputs": [],
      "name": "getResult",
      "outputs": [
        {
          "internalType": "uint256[]",
          "name": "",
          "type": "uint256[]"
        }
      ],
      "stateMutability": "nonpayable",
      "type": "function"
    },
    {
      "inputs": [],
      "name": "getResultCalculator",
      "outputs": [
        {
          "internalType": "address",
          "name": "",
          "type": "address"
        }
      ],
      "stateMutability": "view",
      "type": "function"
    },
    {
      "inputs": [],
      "name": "getStatus",
      "outputs": [
        {
          "internalType": "enum Election.Status",
          "name": "",
          "type": "uint8"
        }
      ],
      "stateMutability": "view",
      "type": "function"
    },
    {
      "inputs": [
        {
          "internalType": "address",
          "name": "_voter",
          "type": "address"
        }
      ],
      "name": "getVoteStatus",
      "outputs": [
        {
          "internalType": "bool",
          "name": "",
          "type": "bool"
        }
      ],
      "stateMutability": "view",
      "type": "function"
    },
    {
      "inputs": [],
      "name": "getVoterCount",
      "outputs": [
        {
          "internalType": "uint256",
          "name": "",
          "type": "uint256"
        }
      ],
      "stateMutability": "view",
      "type": "function"
    },
    {
      "inputs": [],
      "name": "getWinners",
      "outputs": [
        {
          "internalType": "uint256[]",
          "name": "",
          "type": "uint256[]"
        }
      ],
      "stateMutability": "view",
      "type": "function"
    },
    {
      "inputs": [
        {
          "internalType": "address",
          "name": "_voter",
          "type": "address"
        },
        {
          "internalType": "uint256",
          "name": "_candidateID",
          "type": "uint256"
        },
        {
          "internalType": "uint256",
          "name": "weight",
          "type": "uint256"
        },
        {
          "internalType": "uint256[]",
          "name": "voteArr",
          "type": "uint256[]"
        }
      ],
      "name": "vote",
      "outputs": [],
      "stateMutability": "nonpayable",
      "type": "function"
    }
  ],
  "bytecode": "0x60806040523480156200001157600080fd5b5060405162001b5a38038062001b5a8339810160408190526200003491620002d8565b600980546001600160a01b038085166001600160a01b031992831617909255600a80549284169290911691909117905584516000908155602080870151805188939262000087926001929101906200010c565b5060408201518051620000a59160028401916020909101906200010c565b50606082015160038201556080909101516004909101555050600c8054600d80546001600160a01b0319166001600160a01b039485161790556103e86008556000600b556001600160a81b031916610100939092169290920260ff1916179055506200041b565b8280546200011a90620003de565b90600052602060002090601f0160209004810192826200013e576000855562000189565b82601f106200015957805160ff191683800117855562000189565b8280016001018555821562000189579182015b82811115620001895782518255916020019190600101906200016c565b50620001979291506200019b565b5090565b5b808211156200019757600081556001016200019c565b634e487b7160e01b600052604160045260246000fd5b60405160a081016001600160401b0381118282101715620001ed57620001ed620001b2565b60405290565b604051601f8201601f191681016001600160401b03811182821017156200021e576200021e620001b2565b604052919050565b600082601f8301126200023857600080fd5b81516001600160401b03811115620002545762000254620001b2565b60206200026a601f8301601f19168201620001f3565b82815285828487010111156200027f57600080fd5b60005b838110156200029f57858101830151828201840152820162000282565b83811115620002b15760008385840101525b5095945050505050565b80516001600160a01b0381168114620002d357600080fd5b919050565b600080600080600060a08688031215620002f157600080fd5b85516001600160401b03808211156200030957600080fd5b9087019060a0828a0312156200031e57600080fd5b62000328620001c8565b825181526020830151828111156200033f57600080fd5b6200034d8b82860162000226565b6020830152506040830151828111156200036657600080fd5b620003748b82860162000226565b6040830152506060830151606082015260808301516080820152809750505050620003a260208701620002bb565b9350620003b260408701620002bb565b9250620003c260608701620002bb565b9150620003d260808701620002bb565b90509295509295909350565b600181811c90821680620003f357607f821691505b602082108114156200041557634e487b7160e01b600052602260045260246000fd5b50919050565b61172f806200042b6000396000f3fe608060405234801561001057600080fd5b50600436106100ea5760003560e01c8063822023961161008c578063a1818ac411610066578063a1818ac4146101d1578063de292789146101e4578063df15c37e146101f9578063e04b1c0c1461020157600080fd5b8063822023961461019457806386852dca146101b45780639baec8b9146101c957600080fd5b806330a56347116100c857806330a563471461013457806337349a7d1461013c5780634e69d5601461015c578063521b0dcc1461017157600080fd5b806306a49fce146100ef57806311174a291461010d578063273ffe861461011f575b600080fd5b6100f7610212565b6040516101049190610fd5565b60405180910390f35b600b545b604051908152602001610104565b61013261012d3660046110ee565b61039f565b005b600854610111565b610144610664565b6040516001600160a01b039091168152602001610104565b6101646106a1565b60405161010491906111b5565b61018461017f3660046111f9565b6106ca565b6040519015158152602001610104565b6101a76101a236600461121b565b610753565b6040516101049190611234565b6101bc6108ca565b6040516101049190611247565b610144610a4d565b6101326101df3660046112cf565b610a8f565b6101ec610be5565b60405161010491906113c4565b6101ec610dc6565b6009546001600160a01b0316610144565b60606005805480602002602001604051908101604052809291908181526020016000905b82821015610396578382906000526020600020906003020160405180606001604052908160008201548152602001600182018054610273906113d7565b80601f016020809104026020016040519081016040528092919081815260200182805461029f906113d7565b80156102ec5780601f106102c1576101008083540402835291602001916102ec565b820191906000526020600020905b8154815290600101906020018083116102cf57829003601f168201915b50505050508152602001600282018054610305906113d7565b80601f0160208091040260200160405190810160405280929190818152602001828054610331906113d7565b801561037e5780601f106103535761010080835404028352916020019161037e565b820191906000526020600020905b81548152906001019060200180831161036157829003601f168201915b50505050508152505081526020019060010190610236565b50505050905090565b600a546001600160a01b0316331461041a5760405162461bcd60e51b815260206004820152603360248201527f4d7573742062652063616c6c65642066726f6d2074686520656c656374696f6e604482015272081bdc99d85b9a5e995c8818dbdb9d1c9858dd606a1b60648201526084015b60405180910390fd5b60016104246106a1565b60028111156104355761043561119f565b1461049b5760405162461bcd60e51b815260206004820152603060248201527f43616e6e6f74206164642063616e6469646174657320616674657220656c656360448201526f1d1a5bdb881a185cc81cdd185c9d195960821b6064820152608401610411565b600060085460016104ac9190611428565b80835260058054600181018255600091909152835160039091027f036b6384b5eca791c62761152d0c79bb0604c104a5fb6f4eb0703f3154bb3db081019182556020808601518051949550869461052a937f036b6384b5eca791c62761152d0c79bb0604c104a5fb6f4eb0703f3154bb3db101929190910190610e74565b5060408201518051610546916002840191602090910190610e74565b5050600c54835160405163e844d09760e01b815260048101919091526101009091046001600160a01b0316915063e844d09790602401600060405180830381600087803b15801561059657600080fd5b505af11580156105aa573d6000803e3d6000fd5b505083516000908152600760209081526040909120855181558186015180518795509193506105e0926001850192910190610e74565b50604082015180516105fc916002840191602090910190610e74565b5050600880549150600061060f83611440565b9091555050600c546040517f4d9dd414a40890e16b7bd0ea98bdf9d5b55c3d20cfe4b18febda0d60fb32a60c9161065891309161010090046001600160a01b031690869061145b565b60405180910390a15050565b6009546000906001600160a01b031633146106915760405162461bcd60e51b815260040161041190611487565b50600d546001600160a01b031690565b6003546000904210156106b45750600190565b6004544210156106c45750600090565b50600290565b600c54604051631486c37360e21b81526001600160a01b0383811660048301526000926101009004169063521b0dcc9060240160206040518083038186803b15801561071557600080fd5b505afa158015610729573d6000803e3d6000fd5b505050506040513d601f19601f8201168201806040525081019061074d91906114cc565b92915050565b61077760405180606001604052806000815260200160608152602001606081525090565b60076000838152602001908152602001600020604051806060016040529081600082015481526020016001820180546107af906113d7565b80601f01602080910402602001604051908101604052809291908181526020018280546107db906113d7565b80156108285780601f106107fd57610100808354040283529160200191610828565b820191906000526020600020905b81548152906001019060200180831161080b57829003601f168201915b50505050508152602001600282018054610841906113d7565b80601f016020809104026020016040519081016040528092919081815260200182805461086d906113d7565b80156108ba5780601f1061088f576101008083540402835291602001916108ba565b820191906000526020600020905b81548152906001019060200180831161089d57829003601f168201915b5050505050815250509050919050565b6108fc6040518060a0016040528060008152602001606081526020016060815260200160008152602001600081525090565b6040805160a0810190915260008054825260018054602084019190610920906113d7565b80601f016020809104026020016040519081016040528092919081815260200182805461094c906113d7565b80156109995780601f1061096e57610100808354040283529160200191610999565b820191906000526020600020905b81548152906001019060200180831161097c57829003601f168201915b505050505081526020016002820180546109b2906113d7565b80601f01602080910402602001604051908101604052809291908181526020018280546109de906113d7565b8015610a2b5780601f10610a0057610100808354040283529160200191610a2b565b820191906000526020600020905b815481529060010190602001808311610a0e57829003601f168201915b5050505050815260200160038201548152602001600482015481525050905090565b6009546000906001600160a01b03163314610a7a5760405162461bcd60e51b815260040161041190611487565b50600c5461010090046001600160a01b031690565b6000610a996106a1565b6002811115610aaa57610aaa61119f565b14610b035760405162461bcd60e51b815260206004820152602360248201527f456c656374696f6e206e6565647320746f2062652061637469766520746f20766044820152626f746560e81b6064820152608401610411565b600c5460405163286062b160e21b81526101009091046001600160a01b03169063a1818ac490610b3d9087908790879087906004016114ee565b600060405180830381600087803b158015610b5757600080fd5b505af1158015610b6b573d6000803e3d6000fd5b5050600b8054925090506000610b8083611440565b9091555050600c546000848152600760205260409081902090517fd589db416dab4dff131e94610b2d02ce215ded85a2943a2ea59acd2153a8518292610bd7926101009091046001600160a01b03169186906115c5565b60405180910390a150505050565b60606002610bf16106a1565b6002811115610c0257610c0261119f565b14610c695760405162461bcd60e51b815260206004820152603160248201527f526573756c747320617265206465636c61726564206f6e6c792061667465722060448201527074686520656c656374696f6e20656e647360781b6064820152608401610411565b600c5460ff16610db957600d54600c54600b54604051630641a25160e51b81526001600160a01b0361010090930483166004820152602481019190915291169063c8344a2090604401600060405180830381600087803b158015610ccc57600080fd5b505af1158015610ce0573d6000803e3d6000fd5b505050506040513d6000823e601f3d908101601f19168201604052610d089190810190611621565b8051610d1c91600691602090910190610ef8565b50600c805460ff191660011790556040517f28e5f582afeee46fd13ea548ad814f45b1d4a5159990336d5e66deb48a960e4c90610d5b906006906116b2565b60405180910390a16006805480602002602001604051908101604052809291908181526020018280548015610daf57602002820191906000526020600020905b815481526020019060010190808311610d9b575b5050505050905090565b610dc1610dc6565b905090565b600c5460609060ff161515600114610e205760405162461bcd60e51b815260206004820152601b60248201527f526573756c7473206172656e2774206465636c617265642079657400000000006044820152606401610411565b6006805480602002602001604051908101604052809291908181526020018280548015610daf5760200282019190600052602060002090815481526020019060010190808311610d9b575050505050905090565b828054610e80906113d7565b90600052602060002090601f016020900481019282610ea25760008555610ee8565b82601f10610ebb57805160ff1916838001178555610ee8565b82800160010185558215610ee8579182015b82811115610ee8578251825591602001919060010190610ecd565b50610ef4929150610f32565b5090565b828054828255906000526020600020908101928215610ee85791602002820182811115610ee8578251825591602001919060010190610ecd565b5b80821115610ef45760008155600101610f33565b6000815180845260005b81811015610f6d57602081850181015186830182015201610f51565b81811115610f7f576000602083870101525b50601f01601f19169290920160200192915050565b805182526000602082015160606020850152610fb36060850182610f47565b905060408301518482036040860152610fcc8282610f47565b95945050505050565b6000602080830181845280855180835260408601915060408160051b870101925083870160005b8281101561102a57603f19888603018452611018858351610f94565b94509285019290850190600101610ffc565b5092979650505050505050565b634e487b7160e01b600052604160045260246000fd5b604051601f8201601f1916810167ffffffffffffffff8111828210171561107657611076611037565b604052919050565b600082601f83011261108f57600080fd5b813567ffffffffffffffff8111156110a9576110a9611037565b6110bc601f8201601f191660200161104d565b8181528460208386010111156110d157600080fd5b816020850160208301376000918101602001919091529392505050565b60006020828403121561110057600080fd5b813567ffffffffffffffff8082111561111857600080fd5b908301906060828603121561112c57600080fd5b60405160608101818110838211171561114757611147611037565b6040528235815260208301358281111561116057600080fd5b61116c8782860161107e565b60208301525060408301358281111561118457600080fd5b6111908782860161107e565b60408301525095945050505050565b634e487b7160e01b600052602160045260246000fd5b60208101600383106111d757634e487b7160e01b600052602160045260246000fd5b91905290565b80356001600160a01b03811681146111f457600080fd5b919050565b60006020828403121561120b57600080fd5b611214826111dd565b9392505050565b60006020828403121561122d57600080fd5b5035919050565b6020815260006112146020830184610f94565b60208152815160208201526000602083015160a0604084015261126d60c0840182610f47565b90506040840151601f1984830301606085015261128a8282610f47565b91505060608401516080840152608084015160a08401528091505092915050565b600067ffffffffffffffff8211156112c5576112c5611037565b5060051b60200190565b600080600080608085870312156112e557600080fd5b6112ee856111dd565b9350602080860135935060408601359250606086013567ffffffffffffffff81111561131957600080fd5b8601601f8101881361132a57600080fd5b803561133d611338826112ab565b61104d565b81815260059190911b8201830190838101908a83111561135c57600080fd5b928401925b8284101561137a57833582529284019290840190611361565b979a9699509497505050505050565b600081518084526020808501945080840160005b838110156113b95781518752958201959082019060010161139d565b509495945050505050565b6020815260006112146020830184611389565b600181811c908216806113eb57607f821691505b6020821081141561140c57634e487b7160e01b600052602260045260246000fd5b50919050565b634e487b7160e01b600052601160045260246000fd5b6000821982111561143b5761143b611412565b500190565b600060001982141561145457611454611412565b5060010190565b6001600160a01b03848116825283166020820152606060408201819052600090610fcc90830184610f94565b60208082526025908201527f43616c6c6572206d7573742062652074686520656c656374696f6e206f7267616040820152643734bd32b960d91b606082015260800190565b6000602082840312156114de57600080fd5b8151801515811461121457600080fd5b60018060a01b038516815283602082015282604082015260806060820152600061151b6080830184611389565b9695505050505050565b8054600090600181811c908083168061153f57607f831692505b602080841082141561156157634e487b7160e01b600052602260045260246000fd5b8388526020880182801561157c576001811461158d576115b8565b60ff198716825282820197506115b8565b60008981526020902060005b878110156115b257815484820152908601908401611599565b83019850505b5050505050505092915050565b6001600160a01b0384168152606060208201819052835481830152608082015260006115f760c0830160018601611525565b828103605f190160a08401526116108160028701611525565b915050826040830152949350505050565b6000602080838503121561163457600080fd5b825167ffffffffffffffff81111561164b57600080fd5b8301601f8101851361165c57600080fd5b805161166a611338826112ab565b81815260059190911b8201830190838101908783111561168957600080fd5b928401925b828410156116a75783518252928401929084019061168e565b979650505050505050565b6020808252825482820181905260008481528281209092916040850190845b818110156116ed578354835260019384019392850192016116d1565b5090969550505050505056fea26469706673582212204d08e300b26b12537bf775f067b04ba7b1d4b442b764a41fa7cb431e4658da0164736f6c63430008090033",
  "linkReferences": {},
  "deployedLinkReferences": {}
}