{
  "_format": "hh-sol-artifact-1",
  "contractName": "Election",
  "sourceName": "contracts/facets/Election.sol",
  "abi": [
    {
      "inputs": [
        {
          "components": [
            {
              "internalType": "uint256",
              "name": "electionID",
              "type": "uint256"
            },
            {
              "internalType": "string",
              "name": "name",
              "type": "string"
            },
            {
              "internalType": "string",
              "name": "description",
              "type": "string"
            },
            {
              "internalType": "uint256",
              "name": "startDate",
              "type": "uint256"
            },
            {
              "internalType": "uint256",
              "name": "endDate",
              "type": "uint256"
            },
            {
              "internalType": "bool",
              "name": "electionType",
              "type": "bool"
            }
          ],
          "internalType": "struct Election.ElectionInfo",
          "name": "_electionInfo",
          "type": "tuple"
        },
        {
          "internalType": "contract Ballot",
          "name": "_ballot",
          "type": "address"
        },
        {
          "internalType": "contract ResultCalculator",
          "name": "_resultCalculator",
          "type": "address"
        },
        {
          "internalType": "address",
          "name": "_electionOrganizer",
          "type": "address"
        },
        {
          "internalType": "address",
          "name": "_electionOrganizerContract",
          "type": "address"
        },
        {
          "internalType": "uint256",
          "name": "_ballotType",
          "type": "uint256"
        }
      ],
      "stateMutability": "nonpayable",
      "type": "constructor"
    },
    {
      "anonymous": false,
      "inputs": [
        {
          "indexed": false,
          "internalType": "address",
          "name": "election",
          "type": "address"
        },
        {
          "indexed": false,
          "internalType": "address",
          "name": "ballot",
          "type": "address"
        },
        {
          "components": [
            {
              "internalType": "uint256",
              "name": "candidateID",
              "type": "uint256"
            },
            {
              "internalType": "string",
              "name": "name",
              "type": "string"
            },
            {
              "internalType": "string",
              "name": "description",
              "type": "string"
            }
          ],
          "indexed": false,
          "internalType": "struct Election.Candidate",
          "name": "candidate",
          "type": "tuple"
        }
      ],
      "name": "CandidateAdded",
      "type": "event"
    },
    {
      "anonymous": false,
      "inputs": [
        {
          "indexed": false,
          "internalType": "uint256[]",
          "name": "winners",
          "type": "uint256[]"
        }
      ],
      "name": "ListWinners",
      "type": "event"
    },
    {
      "anonymous": false,
      "inputs": [
        {
          "indexed": false,
          "internalType": "address",
          "name": "ballot",
          "type": "address"
        },
        {
          "components": [
            {
              "internalType": "uint256",
              "name": "candidateID",
              "type": "uint256"
            },
            {
              "internalType": "string",
              "name": "name",
              "type": "string"
            },
            {
              "internalType": "string",
              "name": "description",
              "type": "string"
            }
          ],
          "indexed": false,
          "internalType": "struct Election.Candidate",
          "name": "candidate",
          "type": "tuple"
        },
        {
          "indexed": false,
          "internalType": "uint256",
          "name": "weight",
          "type": "uint256"
        }
      ],
      "name": "VoteCasted",
      "type": "event"
    },
    {
      "inputs": [
        {
          "components": [
            {
              "internalType": "uint256",
              "name": "candidateID",
              "type": "uint256"
            },
            {
              "internalType": "string",
              "name": "name",
              "type": "string"
            },
            {
              "internalType": "string",
              "name": "description",
              "type": "string"
            }
          ],
          "internalType": "struct Election.Candidate",
          "name": "_candidate",
          "type": "tuple"
        }
      ],
      "name": "addCandidate",
      "outputs": [],
      "stateMutability": "nonpayable",
      "type": "function"
    },
    {
      "inputs": [],
      "name": "getBallot",
      "outputs": [
        {
          "internalType": "address",
          "name": "",
          "type": "address"
        }
      ],
      "stateMutability": "view",
      "type": "function"
    },
    {
      "inputs": [],
      "name": "getBallotType",
      "outputs": [
        {
          "internalType": "uint256",
          "name": "",
          "type": "uint256"
        }
      ],
      "stateMutability": "view",
      "type": "function"
    },
    {
      "inputs": [
        {
          "internalType": "uint256",
          "name": "_candidateID",
          "type": "uint256"
        }
      ],
      "name": "getCandidateByID",
      "outputs": [
        {
          "components": [
            {
              "internalType": "uint256",
              "name": "candidateID",
              "type": "uint256"
            },
            {
              "internalType": "string",
              "name": "name",
              "type": "string"
            },
            {
              "internalType": "string",
              "name": "description",
              "type": "string"
            }
          ],
          "internalType": "struct Election.Candidate",
          "name": "",
          "type": "tuple"
        }
      ],
      "stateMutability": "view",
      "type": "function"
    },
    {
      "inputs": [],
      "name": "getCandidateCount",
      "outputs": [
        {
          "internalType": "uint256",
          "name": "",
          "type": "uint256"
        }
      ],
      "stateMutability": "view",
      "type": "function"
    },
    {
      "inputs": [],
      "name": "getCandidates",
      "outputs": [
        {
          "components": [
            {
              "internalType": "uint256",
              "name": "candidateID",
              "type": "uint256"
            },
            {
              "internalType": "string",
              "name": "name",
              "type": "string"
            },
            {
              "internalType": "string",
              "name": "description",
              "type": "string"
            }
          ],
          "internalType": "struct Election.Candidate[]",
          "name": "",
          "type": "tuple[]"
        }
      ],
      "stateMutability": "view",
      "type": "function"
    },
    {
      "inputs": [],
      "name": "getElectionInfo",
      "outputs": [
        {
          "components": [
            {
              "internalType": "uint256",
              "name": "electionID",
              "type": "uint256"
            },
            {
              "internalType": "string",
              "name": "name",
              "type": "string"
            },
            {
              "internalType": "string",
              "name": "description",
              "type": "string"
            },
            {
              "internalType": "uint256",
              "name": "startDate",
              "type": "uint256"
            },
            {
              "internalType": "uint256",
              "name": "endDate",
              "type": "uint256"
            },
            {
              "internalType": "bool",
              "name": "electionType",
              "type": "bool"
            }
          ],
          "internalType": "struct Election.ElectionInfo",
          "name": "",
          "type": "tuple"
        }
      ],
      "stateMutability": "view",
      "type": "function"
    },
    {
      "inputs": [],
      "name": "getElectionOrganizer",
      "outputs": [
        {
          "internalType": "address",
          "name": "",
          "type": "address"
        }
      ],
      "stateMutability": "view",
      "type": "function"
    },
    {
      "inputs": [],
      "name": "getElectionType",
      "outputs": [
        {
          "internalType": "bool",
          "name": "",
          "type": "bool"
        }
      ],
      "stateMutability": "view",
      "type": "function"
    },
    {
      "inputs": [],
      "name": "getResult",
      "outputs": [
        {
          "internalType": "uint256[]",
          "name": "",
          "type": "uint256[]"
        }
      ],
      "stateMutability": "nonpayable",
      "type": "function"
    },
    {
      "inputs": [],
      "name": "getResultCalculator",
      "outputs": [
        {
          "internalType": "address",
          "name": "",
          "type": "address"
        }
      ],
      "stateMutability": "view",
      "type": "function"
    },
    {
      "inputs": [],
      "name": "getStatus",
      "outputs": [
        {
          "internalType": "enum Election.Status",
          "name": "",
          "type": "uint8"
        }
      ],
      "stateMutability": "view",
      "type": "function"
    },
    {
      "inputs": [
        {
          "internalType": "address",
          "name": "_voter",
          "type": "address"
        }
      ],
      "name": "getVoteStatus",
      "outputs": [
        {
          "internalType": "bool",
          "name": "",
          "type": "bool"
        }
      ],
      "stateMutability": "view",
      "type": "function"
    },
    {
      "inputs": [],
      "name": "getVoterCount",
      "outputs": [
        {
          "internalType": "uint256",
          "name": "",
          "type": "uint256"
        }
      ],
      "stateMutability": "view",
      "type": "function"
    },
    {
      "inputs": [],
      "name": "getWinners",
      "outputs": [
        {
          "internalType": "uint256[]",
          "name": "",
          "type": "uint256[]"
        }
      ],
      "stateMutability": "view",
      "type": "function"
    },
    {
      "inputs": [
        {
          "internalType": "string",
          "name": "_name",
          "type": "string"
        },
        {
          "internalType": "string",
          "name": "_description",
          "type": "string"
        },
        {
          "internalType": "uint256",
          "name": "index",
          "type": "uint256"
        }
      ],
      "name": "updateCandidateInfo",
      "outputs": [],
      "stateMutability": "nonpayable",
      "type": "function"
    },
    {
      "inputs": [
        {
          "components": [
            {
              "internalType": "uint256",
              "name": "electionID",
              "type": "uint256"
            },
            {
              "internalType": "string",
              "name": "name",
              "type": "string"
            },
            {
              "internalType": "string",
              "name": "description",
              "type": "string"
            },
            {
              "internalType": "uint256",
              "name": "startDate",
              "type": "uint256"
            },
            {
              "internalType": "uint256",
              "name": "endDate",
              "type": "uint256"
            },
            {
              "internalType": "bool",
              "name": "electionType",
              "type": "bool"
            }
          ],
          "internalType": "struct Election.ElectionInfo",
          "name": "_electionInfo",
          "type": "tuple"
        }
      ],
      "name": "updateElectionInfo",
      "outputs": [],
      "stateMutability": "nonpayable",
      "type": "function"
    },
    {
      "inputs": [
        {
          "internalType": "address",
          "name": "_voter",
          "type": "address"
        },
        {
          "internalType": "uint256",
          "name": "_candidateID",
          "type": "uint256"
        },
        {
          "internalType": "uint256",
          "name": "weight",
          "type": "uint256"
        },
        {
          "internalType": "uint256[]",
          "name": "voteArr",
          "type": "uint256[]"
        }
      ],
      "name": "vote",
      "outputs": [],
      "stateMutability": "nonpayable",
      "type": "function"
    }
  ],
  "bytecode": "0x60806040523480156200001157600080fd5b50604051620033cb380380620033cb8339818101604052810190620000379190620006a8565b82600a60006101000a81548173ffffffffffffffffffffffffffffffffffffffff021916908373ffffffffffffffffffffffffffffffffffffffff16021790555081600b60006101000a81548173ffffffffffffffffffffffffffffffffffffffff021916908373ffffffffffffffffffffffffffffffffffffffff1602179055508560008082015181600001556020820151816001019080519060200190620000e3929190620001fb565b50604082015181600201908051906020019062000102929190620001fb565b50606082015181600301556080820151816004015560a08201518160050160006101000a81548160ff02191690831515021790555090505084600e60016101000a81548173ffffffffffffffffffffffffffffffffffffffff021916908373ffffffffffffffffffffffffffffffffffffffff16021790555083600f60006101000a81548173ffffffffffffffffffffffffffffffffffffffff021916908373ffffffffffffffffffffffffffffffffffffffff1602179055506103e86009819055506000600c819055506000600e60006101000a81548160ff02191690831515021790555080600d81905550505050505050620007c8565b828054620002099062000792565b90600052602060002090601f0160209004810192826200022d576000855562000279565b82601f106200024857805160ff191683800117855562000279565b8280016001018555821562000279579182015b82811115620002785782518255916020019190600101906200025b565b5b5090506200028891906200028c565b5090565b5b80821115620002a75760008160009055506001016200028d565b5090565b6000604051905090565b600080fd5b600080fd5b600080fd5b6000601f19601f8301169050919050565b7f4e487b7100000000000000000000000000000000000000000000000000000000600052604160045260246000fd5b6200030f82620002c4565b810181811067ffffffffffffffff82111715620003315762000330620002d5565b5b80604052505050565b600062000346620002ab565b905062000354828262000304565b919050565b600080fd5b6000819050919050565b62000373816200035e565b81146200037f57600080fd5b50565b600081519050620003938162000368565b92915050565b600080fd5b600080fd5b600067ffffffffffffffff821115620003c157620003c0620002d5565b5b620003cc82620002c4565b9050602081019050919050565b60005b83811015620003f9578082015181840152602081019050620003dc565b8381111562000409576000848401525b50505050565b6000620004266200042084620003a3565b6200033a565b9050828152602081018484840111156200044557620004446200039e565b5b62000452848285620003d9565b509392505050565b600082601f83011262000472576200047162000399565b5b8151620004848482602086016200040f565b91505092915050565b60008115159050919050565b620004a4816200048d565b8114620004b057600080fd5b50565b600081519050620004c48162000499565b92915050565b600060c08284031215620004e357620004e2620002bf565b5b620004ef60c06200033a565b90506000620005018482850162000382565b600083015250602082015167ffffffffffffffff81111562000528576200052762000359565b5b62000536848285016200045a565b602083015250604082015167ffffffffffffffff8111156200055d576200055c62000359565b5b6200056b848285016200045a565b6040830152506060620005818482850162000382565b6060830152506080620005978482850162000382565b60808301525060a0620005ad84828501620004b3565b60a08301525092915050565b600073ffffffffffffffffffffffffffffffffffffffff82169050919050565b6000620005e682620005b9565b9050919050565b6000620005fa82620005d9565b9050919050565b6200060c81620005ed565b81146200061857600080fd5b50565b6000815190506200062c8162000601565b92915050565b60006200063f82620005d9565b9050919050565b620006518162000632565b81146200065d57600080fd5b50565b600081519050620006718162000646565b92915050565b6200068281620005d9565b81146200068e57600080fd5b50565b600081519050620006a28162000677565b92915050565b60008060008060008060c08789031215620006c857620006c7620002b5565b5b600087015167ffffffffffffffff811115620006e957620006e8620002ba565b5b620006f789828a01620004ca565b96505060206200070a89828a016200061b565b95505060406200071d89828a0162000660565b94505060606200073089828a0162000691565b93505060806200074389828a0162000691565b92505060a06200075689828a0162000382565b9150509295509295509295565b7f4e487b7100000000000000000000000000000000000000000000000000000000600052602260045260246000fd5b60006002820490506001821680620007ab57607f821691505b60208210811415620007c257620007c162000763565b5b50919050565b612bf380620007d86000396000f3fe608060405234801561001057600080fd5b50600436106101165760003560e01c806382202396116100a2578063b976181b11610071578063b976181b146102bf578063de292789146102db578063df15c37e146102f9578063e04b1c0c14610317578063e29859e51461033557610116565b8063822023961461023757806386852dca146102675780639baec8b914610285578063a1818ac4146102a357610116565b8063273ffe86116100e9578063273ffe861461019157806330a56347146101ad57806337349a7d146101cb5780634e69d560146101e9578063521b0dcc1461020757610116565b806306a49fce1461011b57806311174a29146101395780631ca577141461015757806324fd983c14610175575b600080fd5b610123610353565b604051610130919061180c565b60405180910390f35b6101416104e0565b60405161014e919061183d565b60405180910390f35b61015f6104ea565b60405161016c919061183d565b60405180910390f35b61018f600480360381019061018a91906119cd565b6104f4565b005b6101ab60048036038101906101a69190611afe565b6106b8565b005b6101b56109ae565b6040516101c2919061183d565b60405180910390f35b6101d36109b8565b6040516101e09190611b88565b60405180910390f35b6101f1610a72565b6040516101fe9190611c1a565b60405180910390f35b610221600480360381019061021c9190611c61565b610aa7565b60405161022e9190611ca9565b60405180910390f35b610251600480360381019061024c9190611cc4565b610b4c565b60405161025e9190611d48565b60405180910390f35b61026f610ca7565b60405161027c9190611e09565b60405180910390f35b61028d610e1e565b60405161029a9190611b88565b60405180910390f35b6102bd60048036038101906102b89190611ef3565b610ed8565b005b6102d960048036038101906102d4919061207a565b611066565b005b6102e36111e4565b6040516102f09190612172565b60405180910390f35b610301611407565b60405161030e9190612172565b60405180910390f35b61031f6114b5565b60405161032c9190611b88565b60405180910390f35b61033d6114df565b60405161034a9190611ca9565b60405180910390f35b60606006805480602002602001604051908101604052809291908181526020016000905b828210156104d75783829060005260206000209060030201604051806060016040529081600082015481526020016001820180546103b4906121c3565b80601f01602080910402602001604051908101604052809291908181526020018280546103e0906121c3565b801561042d5780601f106104025761010080835404028352916020019161042d565b820191906000526020600020905b81548152906001019060200180831161041057829003601f168201915b50505050508152602001600282018054610446906121c3565b80601f0160208091040260200160405190810160405280929190818152602001828054610472906121c3565b80156104bf5780601f10610494576101008083540402835291602001916104bf565b820191906000526020600020905b8154815290600101906020018083116104a257829003601f168201915b50505050508152505081526020019060010190610377565b50505050905090565b6000600c54905090565b6000600d54905090565b600b60009054906101000a900473ffffffffffffffffffffffffffffffffffffffff1673ffffffffffffffffffffffffffffffffffffffff163373ffffffffffffffffffffffffffffffffffffffff1614610584576040517f08c379a000000000000000000000000000000000000000000000000000000000815260040161057b90612278565b60405180910390fd5b6001600281111561059857610597611ba3565b5b6105a0610a72565b60028111156105b2576105b1611ba3565b5b146105f2576040517f08c379a00000000000000000000000000000000000000000000000000000000081526004016105e99061230a565b60405180910390fd5b6000600680549050905080821061063e576040517f08c379a000000000000000000000000000000000000000000000000000000000815260040161063590612376565b60405180910390fd5b836006838154811061065357610652612396565b5b906000526020600020906003020160010190805190602001906106779291906114f8565b50826006838154811061068d5761068c612396565b5b906000526020600020906003020160020190805190602001906106b19291906114f8565b5050505050565b600b60009054906101000a900473ffffffffffffffffffffffffffffffffffffffff1673ffffffffffffffffffffffffffffffffffffffff163373ffffffffffffffffffffffffffffffffffffffff1614610748576040517f08c379a000000000000000000000000000000000000000000000000000000000815260040161073f90612278565b60405180910390fd5b6001600281111561075c5761075b611ba3565b5b610764610a72565b600281111561077657610775611ba3565b5b146107b6576040517f08c379a00000000000000000000000000000000000000000000000000000000081526004016107ad9061230a565b60405180910390fd5b600060016009546107c791906123f4565b90508082600001818152505060068290806001815401808255809150506001900390600052602060002090600302016000909190919091506000820151816000015560208201518160010190805190602001906108259291906114f8565b5060408201518160020190805190602001906108429291906114f8565b505050600e60019054906101000a900473ffffffffffffffffffffffffffffffffffffffff1673ffffffffffffffffffffffffffffffffffffffff1663e844d09783600001516040518263ffffffff1660e01b81526004016108a4919061183d565b600060405180830381600087803b1580156108be57600080fd5b505af11580156108d2573d6000803e3d6000fd5b505050508160086000846000015181526020019081526020016000206000820151816000015560208201518160010190805190602001906109149291906114f8565b5060408201518160020190805190602001906109319291906114f8565b50905050600960008154809291906109489061244a565b91905055507f4d9dd414a40890e16b7bd0ea98bdf9d5b55c3d20cfe4b18febda0d60fb32a60c30600e60019054906101000a900473ffffffffffffffffffffffffffffffffffffffff16846040516109a293929190612493565b60405180910390a15050565b6000600954905090565b6000600a60009054906101000a900473ffffffffffffffffffffffffffffffffffffffff1673ffffffffffffffffffffffffffffffffffffffff163373ffffffffffffffffffffffffffffffffffffffff1614610a4a576040517f08c379a0000000000000000000000000000000000000000000000000000000008152600401610a4190612543565b60405180910390fd5b600f60009054906101000a900473ffffffffffffffffffffffffffffffffffffffff16905090565b60008060030154421015610a895760019050610aa4565b600060040154421015610a9f5760009050610aa4565b600290505b90565b6000600e60019054906101000a900473ffffffffffffffffffffffffffffffffffffffff1673ffffffffffffffffffffffffffffffffffffffff1663521b0dcc836040518263ffffffff1660e01b8152600401610b049190611b88565b602060405180830381865afa158015610b21573d6000803e3d6000fd5b505050506040513d601f19601f82011682018060405250810190610b459190612578565b9050919050565b610b5461157e565b6008600083815260200190815260200160002060405180606001604052908160008201548152602001600182018054610b8c906121c3565b80601f0160208091040260200160405190810160405280929190818152602001828054610bb8906121c3565b8015610c055780601f10610bda57610100808354040283529160200191610c05565b820191906000526020600020905b815481529060010190602001808311610be857829003601f168201915b50505050508152602001600282018054610c1e906121c3565b80601f0160208091040260200160405190810160405280929190818152602001828054610c4a906121c3565b8015610c975780601f10610c6c57610100808354040283529160200191610c97565b820191906000526020600020905b815481529060010190602001808311610c7a57829003601f168201915b5050505050815250509050919050565b610caf61159f565b60006040518060c001604052908160008201548152602001600182018054610cd6906121c3565b80601f0160208091040260200160405190810160405280929190818152602001828054610d02906121c3565b8015610d4f5780601f10610d2457610100808354040283529160200191610d4f565b820191906000526020600020905b815481529060010190602001808311610d3257829003601f168201915b50505050508152602001600282018054610d68906121c3565b80601f0160208091040260200160405190810160405280929190818152602001828054610d94906121c3565b8015610de15780601f10610db657610100808354040283529160200191610de1565b820191906000526020600020905b815481529060010190602001808311610dc457829003601f168201915b5050505050815260200160038201548152602001600482015481526020016005820160009054906101000a900460ff161515151581525050905090565b6000600a60009054906101000a900473ffffffffffffffffffffffffffffffffffffffff1673ffffffffffffffffffffffffffffffffffffffff163373ffffffffffffffffffffffffffffffffffffffff1614610eb0576040517f08c379a0000000000000000000000000000000000000000000000000000000008152600401610ea790612543565b60405180910390fd5b600e60019054906101000a900473ffffffffffffffffffffffffffffffffffffffff16905090565b60006002811115610eec57610eeb611ba3565b5b610ef4610a72565b6002811115610f0657610f05611ba3565b5b14610f46576040517f08c379a0000000000000000000000000000000000000000000000000000000008152600401610f3d90612617565b60405180910390fd5b600e60019054906101000a900473ffffffffffffffffffffffffffffffffffffffff1673ffffffffffffffffffffffffffffffffffffffff1663a1818ac4858585856040518563ffffffff1660e01b8152600401610fa79493929190612637565b600060405180830381600087803b158015610fc157600080fd5b505af1158015610fd5573d6000803e3d6000fd5b50505050600c6000815480929190610fec9061244a565b91905055507fd589db416dab4dff131e94610b2d02ce215ded85a2943a2ea59acd2153a85182600e60019054906101000a900473ffffffffffffffffffffffffffffffffffffffff166008600086815260200190815260200160002084604051611058939291906127ab565b60405180910390a150505050565b600a60009054906101000a900473ffffffffffffffffffffffffffffffffffffffff1673ffffffffffffffffffffffffffffffffffffffff163373ffffffffffffffffffffffffffffffffffffffff16146110f6576040517f08c379a00000000000000000000000000000000000000000000000000000000081526004016110ed90612543565b60405180910390fd5b6001600281111561110a57611109611ba3565b5b611112610a72565b600281111561112457611123611ba3565b5b14611164576040517f08c379a000000000000000000000000000000000000000000000000000000000815260040161115b9061285b565b60405180910390fd5b806000808201518160000155602082015181600101908051906020019061118c9291906114f8565b5060408201518160020190805190602001906111a99291906114f8565b50606082015181600301556080820151816004015560a08201518160050160006101000a81548160ff02191690831515021790555090505050565b60606002808111156111f9576111f8611ba3565b5b611201610a72565b600281111561121357611212611ba3565b5b14611253576040517f08c379a000000000000000000000000000000000000000000000000000000000815260040161124a906128ed565b60405180910390fd5b60001515600e60009054906101000a900460ff16151514156113f957600f60009054906101000a900473ffffffffffffffffffffffffffffffffffffffff1673ffffffffffffffffffffffffffffffffffffffff1663c8344a20600e60019054906101000a900473ffffffffffffffffffffffffffffffffffffffff16600c546040518363ffffffff1660e01b81526004016112f092919061296c565b6000604051808303816000875af115801561130f573d6000803e3d6000fd5b505050506040513d6000823e3d601f19601f820116820180604052508101906113389190612a41565b6007908051906020019061134d9291906115d7565b506001600e60006101000a81548160ff0219169083151502179055507f28e5f582afeee46fd13ea548ad814f45b1d4a5159990336d5e66deb48a960e4c60076040516113999190612b2f565b60405180910390a160078054806020026020016040519081016040528092919081815260200182805480156113ed57602002820191906000526020600020905b8154815260200190600101908083116113d9575b50505050509050611404565b611401611407565b90505b90565b606060011515600e60009054906101000a900460ff1615151461145f576040517f08c379a000000000000000000000000000000000000000000000000000000000815260040161145690612b9d565b60405180910390fd5b60078054806020026020016040519081016040528092919081815260200182805480156114ab57602002820191906000526020600020905b815481526020019060010190808311611497575b5050505050905090565b6000600a60009054906101000a900473ffffffffffffffffffffffffffffffffffffffff16905090565b60008060050160009054906101000a900460ff16905090565b828054611504906121c3565b90600052602060002090601f016020900481019282611526576000855561156d565b82601f1061153f57805160ff191683800117855561156d565b8280016001018555821561156d579182015b8281111561156c578251825591602001919060010190611551565b5b50905061157a9190611624565b5090565b60405180606001604052806000815260200160608152602001606081525090565b6040518060c0016040528060008152602001606081526020016060815260200160008152602001600081526020016000151581525090565b828054828255906000526020600020908101928215611613579160200282015b828111156116125782518255916020019190600101906115f7565b5b5090506116209190611624565b5090565b5b8082111561163d576000816000905550600101611625565b5090565b600081519050919050565b600082825260208201905092915050565b6000819050602082019050919050565b6000819050919050565b6116808161166d565b82525050565b600081519050919050565b600082825260208201905092915050565b60005b838110156116c05780820151818401526020810190506116a5565b838111156116cf576000848401525b50505050565b6000601f19601f8301169050919050565b60006116f182611686565b6116fb8185611691565b935061170b8185602086016116a2565b611714816116d5565b840191505092915050565b60006060830160008301516117376000860182611677565b506020830151848203602086015261174f82826116e6565b9150506040830151848203604086015261176982826116e6565b9150508091505092915050565b6000611782838361171f565b905092915050565b6000602082019050919050565b60006117a282611641565b6117ac818561164c565b9350836020820285016117be8561165d565b8060005b858110156117fa57848403895281516117db8582611776565b94506117e68361178a565b925060208a019950506001810190506117c2565b50829750879550505050505092915050565b600060208201905081810360008301526118268184611797565b905092915050565b6118378161166d565b82525050565b6000602082019050611852600083018461182e565b92915050565b6000604051905090565b600080fd5b600080fd5b600080fd5b600080fd5b7f4e487b7100000000000000000000000000000000000000000000000000000000600052604160045260246000fd5b6118ae826116d5565b810181811067ffffffffffffffff821117156118cd576118cc611876565b5b80604052505050565b60006118e0611858565b90506118ec82826118a5565b919050565b600067ffffffffffffffff82111561190c5761190b611876565b5b611915826116d5565b9050602081019050919050565b82818337600083830152505050565b600061194461193f846118f1565b6118d6565b9050828152602081018484840111156119605761195f611871565b5b61196b848285611922565b509392505050565b600082601f8301126119885761198761186c565b5b8135611998848260208601611931565b91505092915050565b6119aa8161166d565b81146119b557600080fd5b50565b6000813590506119c7816119a1565b92915050565b6000806000606084860312156119e6576119e5611862565b5b600084013567ffffffffffffffff811115611a0457611a03611867565b5b611a1086828701611973565b935050602084013567ffffffffffffffff811115611a3157611a30611867565b5b611a3d86828701611973565b9250506040611a4e868287016119b8565b9150509250925092565b600080fd5b600080fd5b600060608284031215611a7857611a77611a58565b5b611a8260606118d6565b90506000611a92848285016119b8565b600083015250602082013567ffffffffffffffff811115611ab657611ab5611a5d565b5b611ac284828501611973565b602083015250604082013567ffffffffffffffff811115611ae657611ae5611a5d565b5b611af284828501611973565b60408301525092915050565b600060208284031215611b1457611b13611862565b5b600082013567ffffffffffffffff811115611b3257611b31611867565b5b611b3e84828501611a62565b91505092915050565b600073ffffffffffffffffffffffffffffffffffffffff82169050919050565b6000611b7282611b47565b9050919050565b611b8281611b67565b82525050565b6000602082019050611b9d6000830184611b79565b92915050565b7f4e487b7100000000000000000000000000000000000000000000000000000000600052602160045260246000fd5b60038110611be357611be2611ba3565b5b50565b6000819050611bf482611bd2565b919050565b6000611c0482611be6565b9050919050565b611c1481611bf9565b82525050565b6000602082019050611c2f6000830184611c0b565b92915050565b611c3e81611b67565b8114611c4957600080fd5b50565b600081359050611c5b81611c35565b92915050565b600060208284031215611c7757611c76611862565b5b6000611c8584828501611c4c565b91505092915050565b60008115159050919050565b611ca381611c8e565b82525050565b6000602082019050611cbe6000830184611c9a565b92915050565b600060208284031215611cda57611cd9611862565b5b6000611ce8848285016119b8565b91505092915050565b6000606083016000830151611d096000860182611677565b5060208301518482036020860152611d2182826116e6565b91505060408301518482036040860152611d3b82826116e6565b9150508091505092915050565b60006020820190508181036000830152611d628184611cf1565b905092915050565b611d7381611c8e565b82525050565b600060c083016000830151611d916000860182611677565b5060208301518482036020860152611da982826116e6565b91505060408301518482036040860152611dc382826116e6565b9150506060830151611dd86060860182611677565b506080830151611deb6080860182611677565b5060a0830151611dfe60a0860182611d6a565b508091505092915050565b60006020820190508181036000830152611e238184611d79565b905092915050565b600067ffffffffffffffff821115611e4657611e45611876565b5b602082029050602081019050919050565b600080fd5b6000611e6f611e6a84611e2b565b6118d6565b90508083825260208201905060208402830185811115611e9257611e91611e57565b5b835b81811015611ebb5780611ea788826119b8565b845260208401935050602081019050611e94565b5050509392505050565b600082601f830112611eda57611ed961186c565b5b8135611eea848260208601611e5c565b91505092915050565b60008060008060808587031215611f0d57611f0c611862565b5b6000611f1b87828801611c4c565b9450506020611f2c878288016119b8565b9350506040611f3d878288016119b8565b925050606085013567ffffffffffffffff811115611f5e57611f5d611867565b5b611f6a87828801611ec5565b91505092959194509250565b611f7f81611c8e565b8114611f8a57600080fd5b50565b600081359050611f9c81611f76565b92915050565b600060c08284031215611fb857611fb7611a58565b5b611fc260c06118d6565b90506000611fd2848285016119b8565b600083015250602082013567ffffffffffffffff811115611ff657611ff5611a5d565b5b61200284828501611973565b602083015250604082013567ffffffffffffffff81111561202657612025611a5d565b5b61203284828501611973565b6040830152506060612046848285016119b8565b606083015250608061205a848285016119b8565b60808301525060a061206e84828501611f8d565b60a08301525092915050565b6000602082840312156120905761208f611862565b5b600082013567ffffffffffffffff8111156120ae576120ad611867565b5b6120ba84828501611fa2565b91505092915050565b600081519050919050565b600082825260208201905092915050565b6000819050602082019050919050565b60006120fb8383611677565b60208301905092915050565b6000602082019050919050565b600061211f826120c3565b61212981856120ce565b9350612134836120df565b8060005b8381101561216557815161214c88826120ef565b975061215783612107565b925050600181019050612138565b5085935050505092915050565b6000602082019050818103600083015261218c8184612114565b905092915050565b7f4e487b7100000000000000000000000000000000000000000000000000000000600052602260045260246000fd5b600060028204905060018216806121db57607f821691505b602082108114156121ef576121ee612194565b5b50919050565b600082825260208201905092915050565b7f4d7573742062652063616c6c65642066726f6d2074686520656c656374696f6e60008201527f206f7267616e697a657220636f6e747261637400000000000000000000000000602082015250565b60006122626033836121f5565b915061226d82612206565b604082019050919050565b6000602082019050818103600083015261229181612255565b9050919050565b7f43616e6e6f74206164642063616e6469646174657320616674657220656c656360008201527f74696f6e20686173207374617274656400000000000000000000000000000000602082015250565b60006122f46030836121f5565b91506122ff82612298565b604082019050919050565b60006020820190508181036000830152612323816122e7565b9050919050565b7f43616e646964617465206e6f7420666f756e6400000000000000000000000000600082015250565b60006123606013836121f5565b915061236b8261232a565b602082019050919050565b6000602082019050818103600083015261238f81612353565b9050919050565b7f4e487b7100000000000000000000000000000000000000000000000000000000600052603260045260246000fd5b7f4e487b7100000000000000000000000000000000000000000000000000000000600052601160045260246000fd5b60006123ff8261166d565b915061240a8361166d565b9250827fffffffffffffffffffffffffffffffffffffffffffffffffffffffffffffffff0382111561243f5761243e6123c5565b5b828201905092915050565b60006124558261166d565b91507fffffffffffffffffffffffffffffffffffffffffffffffffffffffffffffffff821415612488576124876123c5565b5b600182019050919050565b60006060820190506124a86000830186611b79565b6124b56020830185611b79565b81810360408301526124c78184611cf1565b9050949350505050565b7f43616c6c6572206d7573742062652074686520656c656374696f6e206f72676160008201527f6e697a6572000000000000000000000000000000000000000000000000000000602082015250565b600061252d6025836121f5565b9150612538826124d1565b604082019050919050565b6000602082019050818103600083015261255c81612520565b9050919050565b60008151905061257281611f76565b92915050565b60006020828403121561258e5761258d611862565b5b600061259c84828501612563565b91505092915050565b7f456c656374696f6e206e6565647320746f2062652061637469766520746f207660008201527f6f74650000000000000000000000000000000000000000000000000000000000602082015250565b60006126016023836121f5565b915061260c826125a5565b604082019050919050565b60006020820190508181036000830152612630816125f4565b9050919050565b600060808201905061264c6000830187611b79565b612659602083018661182e565b612666604083018561182e565b81810360608301526126788184612114565b905095945050505050565b60008160001c9050919050565b6000819050919050565b60006126ad6126a883612683565b612690565b9050919050565b60008190508160005260206000209050919050565b600081546126d6816121c3565b6126e08186611691565b945060018216600081146126fb576001811461270d57612740565b60ff1983168652602086019350612740565b612716856126b4565b60005b8381101561273857815481890152600182019150602081019050612719565b808801955050505b50505092915050565b60006060830160008084015490506127608161269a565b61276d6000870182611677565b5060018401858303602087015261278483826126c9565b92505060028401858303604087015261279d83826126c9565b925050819250505092915050565b60006060820190506127c06000830186611b79565b81810360208301526127d28185612749565b90506127e1604083018461182e565b949350505050565b7f43616e6e6f742075706461746520656c656374696f6e20696e666f206166746560008201527f7220656c656374696f6e20686173207374617274656400000000000000000000602082015250565b60006128456036836121f5565b9150612850826127e9565b604082019050919050565b6000602082019050818103600083015261287481612838565b9050919050565b7f526573756c747320617265206465636c61726564206f6e6c792061667465722060008201527f74686520656c656374696f6e20656e6473000000000000000000000000000000602082015250565b60006128d76031836121f5565b91506128e28261287b565b604082019050919050565b60006020820190508181036000830152612906816128ca565b9050919050565b6000819050919050565b600061293261292d61292884611b47565b61290d565b611b47565b9050919050565b600061294482612917565b9050919050565b600061295682612939565b9050919050565b6129668161294b565b82525050565b6000604082019050612981600083018561295d565b61298e602083018461182e565b9392505050565b6000815190506129a4816119a1565b92915050565b60006129bd6129b884611e2b565b6118d6565b905080838252602082019050602084028301858111156129e0576129df611e57565b5b835b81811015612a0957806129f58882612995565b8452602084019350506020810190506129e2565b5050509392505050565b600082601f830112612a2857612a2761186c565b5b8151612a388482602086016129aa565b91505092915050565b600060208284031215612a5757612a56611862565b5b600082015167ffffffffffffffff811115612a7557612a74611867565b5b612a8184828501612a13565b91505092915050565b600081549050919050565b60008190508160005260206000209050919050565b6000612ab6825461269a565b9050919050565b6000600182019050919050565b6000612ad582612a8a565b612adf81856120ce565b9350612aea83612a95565b8060005b83811015612b2257612aff82612aaa565b612b0988826120ef565b9750612b1483612abd565b925050600181019050612aee565b5085935050505092915050565b60006020820190508181036000830152612b498184612aca565b905092915050565b7f526573756c7473206172656e2774206465636c61726564207965740000000000600082015250565b6000612b87601b836121f5565b9150612b9282612b51565b602082019050919050565b60006020820190508181036000830152612bb681612b7a565b905091905056fea264697066735822122084d096b900f8c2c79bf1a305d3cde39ba7ac7586db6bdf961e624250bd48e4e964736f6c634300080a0033",
  "linkReferences": {},
  "deployedLinkReferences": {}
}