{
  "_format": "hh-sol-artifact-1",
  "contractName": "Election",
  "sourceName": "contracts/Election.sol",
  "abi": [
    {
      "inputs": [
        {
          "components": [
            {
              "internalType": "uint256",
              "name": "electionID",
              "type": "uint256"
            },
            {
              "internalType": "string",
              "name": "name",
              "type": "string"
            },
            {
              "internalType": "string",
              "name": "description",
              "type": "string"
            },
            {
              "internalType": "uint256",
              "name": "startDate",
              "type": "uint256"
            },
            {
              "internalType": "uint256",
              "name": "endDate",
              "type": "uint256"
            }
          ],
          "internalType": "struct Election.ElectionInfo",
          "name": "_electionInfo",
          "type": "tuple"
        },
        {
          "internalType": "contract Ballot",
          "name": "_ballot",
          "type": "address"
        },
        {
          "internalType": "contract ResultCalculator",
          "name": "_resultCalculator",
          "type": "address"
        },
        {
          "internalType": "address",
          "name": "_electionOrganizer",
          "type": "address"
        },
        {
          "internalType": "address",
          "name": "_electionOrganizerContract",
          "type": "address"
        },
        {
          "internalType": "uint256",
          "name": "_ballotType",
          "type": "uint256"
        }
      ],
      "stateMutability": "nonpayable",
      "type": "constructor"
    },
    {
      "anonymous": false,
      "inputs": [
        {
          "indexed": false,
          "internalType": "address",
          "name": "election",
          "type": "address"
        },
        {
          "indexed": false,
          "internalType": "address",
          "name": "ballot",
          "type": "address"
        },
        {
          "components": [
            {
              "internalType": "uint256",
              "name": "candidateID",
              "type": "uint256"
            },
            {
              "internalType": "string",
              "name": "name",
              "type": "string"
            },
            {
              "internalType": "string",
              "name": "description",
              "type": "string"
            }
          ],
          "indexed": false,
          "internalType": "struct Election.Candidate",
          "name": "candidate",
          "type": "tuple"
        }
      ],
      "name": "CandidateAdded",
      "type": "event"
    },
    {
      "anonymous": false,
      "inputs": [
        {
          "indexed": false,
          "internalType": "uint256[]",
          "name": "winners",
          "type": "uint256[]"
        }
      ],
      "name": "ListWinners",
      "type": "event"
    },
    {
      "anonymous": false,
      "inputs": [
        {
          "indexed": false,
          "internalType": "address",
          "name": "ballot",
          "type": "address"
        },
        {
          "components": [
            {
              "internalType": "uint256",
              "name": "candidateID",
              "type": "uint256"
            },
            {
              "internalType": "string",
              "name": "name",
              "type": "string"
            },
            {
              "internalType": "string",
              "name": "description",
              "type": "string"
            }
          ],
          "indexed": false,
          "internalType": "struct Election.Candidate",
          "name": "candidate",
          "type": "tuple"
        },
        {
          "indexed": false,
          "internalType": "uint256",
          "name": "weight",
          "type": "uint256"
        }
      ],
      "name": "VoteCasted",
      "type": "event"
    },
    {
      "inputs": [
        {
          "components": [
            {
              "internalType": "uint256",
              "name": "candidateID",
              "type": "uint256"
            },
            {
              "internalType": "string",
              "name": "name",
              "type": "string"
            },
            {
              "internalType": "string",
              "name": "description",
              "type": "string"
            }
          ],
          "internalType": "struct Election.Candidate",
          "name": "_candidate",
          "type": "tuple"
        }
      ],
      "name": "addCandidate",
      "outputs": [],
      "stateMutability": "nonpayable",
      "type": "function"
    },
    {
      "inputs": [],
      "name": "getBallot",
      "outputs": [
        {
          "internalType": "address",
          "name": "",
          "type": "address"
        }
      ],
      "stateMutability": "view",
      "type": "function"
    },
    {
      "inputs": [],
      "name": "getBallotType",
      "outputs": [
        {
          "internalType": "uint256",
          "name": "",
          "type": "uint256"
        }
      ],
      "stateMutability": "view",
      "type": "function"
    },
    {
      "inputs": [
        {
          "internalType": "uint256",
          "name": "_candidateID",
          "type": "uint256"
        }
      ],
      "name": "getCandidateByID",
      "outputs": [
        {
          "components": [
            {
              "internalType": "uint256",
              "name": "candidateID",
              "type": "uint256"
            },
            {
              "internalType": "string",
              "name": "name",
              "type": "string"
            },
            {
              "internalType": "string",
              "name": "description",
              "type": "string"
            }
          ],
          "internalType": "struct Election.Candidate",
          "name": "",
          "type": "tuple"
        }
      ],
      "stateMutability": "view",
      "type": "function"
    },
    {
      "inputs": [],
      "name": "getCandidateCount",
      "outputs": [
        {
          "internalType": "uint256",
          "name": "",
          "type": "uint256"
        }
      ],
      "stateMutability": "view",
      "type": "function"
    },
    {
      "inputs": [],
      "name": "getCandidates",
      "outputs": [
        {
          "components": [
            {
              "internalType": "uint256",
              "name": "candidateID",
              "type": "uint256"
            },
            {
              "internalType": "string",
              "name": "name",
              "type": "string"
            },
            {
              "internalType": "string",
              "name": "description",
              "type": "string"
            }
          ],
          "internalType": "struct Election.Candidate[]",
          "name": "",
          "type": "tuple[]"
        }
      ],
      "stateMutability": "view",
      "type": "function"
    },
    {
      "inputs": [],
      "name": "getElectionInfo",
      "outputs": [
        {
          "components": [
            {
              "internalType": "uint256",
              "name": "electionID",
              "type": "uint256"
            },
            {
              "internalType": "string",
              "name": "name",
              "type": "string"
            },
            {
              "internalType": "string",
              "name": "description",
              "type": "string"
            },
            {
              "internalType": "uint256",
              "name": "startDate",
              "type": "uint256"
            },
            {
              "internalType": "uint256",
              "name": "endDate",
              "type": "uint256"
            }
          ],
          "internalType": "struct Election.ElectionInfo",
          "name": "",
          "type": "tuple"
        }
      ],
      "stateMutability": "view",
      "type": "function"
    },
    {
      "inputs": [],
      "name": "getElectionOrganizer",
      "outputs": [
        {
          "internalType": "address",
          "name": "",
          "type": "address"
        }
      ],
      "stateMutability": "view",
      "type": "function"
    },
    {
      "inputs": [],
      "name": "getResult",
      "outputs": [
        {
          "internalType": "uint256[]",
          "name": "",
          "type": "uint256[]"
        }
      ],
      "stateMutability": "nonpayable",
      "type": "function"
    },
    {
      "inputs": [],
      "name": "getResultCalculator",
      "outputs": [
        {
          "internalType": "address",
          "name": "",
          "type": "address"
        }
      ],
      "stateMutability": "view",
      "type": "function"
    },
    {
      "inputs": [],
      "name": "getStatus",
      "outputs": [
        {
          "internalType": "enum Election.Status",
          "name": "",
          "type": "uint8"
        }
      ],
      "stateMutability": "view",
      "type": "function"
    },
    {
      "inputs": [
        {
          "internalType": "address",
          "name": "_voter",
          "type": "address"
        }
      ],
      "name": "getVoteStatus",
      "outputs": [
        {
          "internalType": "bool",
          "name": "",
          "type": "bool"
        }
      ],
      "stateMutability": "view",
      "type": "function"
    },
    {
      "inputs": [],
      "name": "getVoterCount",
      "outputs": [
        {
          "internalType": "uint256",
          "name": "",
          "type": "uint256"
        }
      ],
      "stateMutability": "view",
      "type": "function"
    },
    {
      "inputs": [],
      "name": "getWinners",
      "outputs": [
        {
          "internalType": "uint256[]",
          "name": "",
          "type": "uint256[]"
        }
      ],
      "stateMutability": "view",
      "type": "function"
    },
    {
      "inputs": [
        {
          "components": [
            {
              "internalType": "uint256",
              "name": "electionID",
              "type": "uint256"
            },
            {
              "internalType": "string",
              "name": "name",
              "type": "string"
            },
            {
              "internalType": "string",
              "name": "description",
              "type": "string"
            },
            {
              "internalType": "uint256",
              "name": "startDate",
              "type": "uint256"
            },
            {
              "internalType": "uint256",
              "name": "endDate",
              "type": "uint256"
            }
          ],
          "internalType": "struct Election.ElectionInfo",
          "name": "_electionInfo",
          "type": "tuple"
        }
      ],
      "name": "updateElectionInfo",
      "outputs": [],
      "stateMutability": "nonpayable",
      "type": "function"
    },
    {
      "inputs": [
        {
          "internalType": "address",
          "name": "_voter",
          "type": "address"
        },
        {
          "internalType": "uint256",
          "name": "_candidateID",
          "type": "uint256"
        },
        {
          "internalType": "uint256",
          "name": "weight",
          "type": "uint256"
        },
        {
          "internalType": "uint256[]",
          "name": "voteArr",
          "type": "uint256[]"
        }
      ],
      "name": "vote",
      "outputs": [],
      "stateMutability": "nonpayable",
      "type": "function"
    }
  ],
  "bytecode": "0x60806040523480156200001157600080fd5b5060405162001d7e38038062001d7e8339810160408190526200003491620002e0565b600980546001600160a01b038086166001600160a01b031992831617909255600a805492851692909116919091179055855160009081556020808801518051899392620000879260019291019062000114565b5060408201518051620000a591600284019160209091019062000114565b5060608201516003820155608090910151600490910155600d8054600e80546001600160a01b0319166001600160a01b039788161790556103e86008556000600b556001600160a81b031916610100969095169590950260ff19169390931790935550600c55506200042b9050565b8280546200012290620003ee565b90600052602060002090601f01602090048101928262000146576000855562000191565b82601f106200016157805160ff191683800117855562000191565b8280016001018555821562000191579182015b828111156200019157825182559160200191906001019062000174565b506200019f929150620001a3565b5090565b5b808211156200019f5760008155600101620001a4565b634e487b7160e01b600052604160045260246000fd5b60405160a081016001600160401b0381118282101715620001f557620001f5620001ba565b60405290565b604051601f8201601f191681016001600160401b0381118282101715620002265762000226620001ba565b604052919050565b600082601f8301126200024057600080fd5b81516001600160401b038111156200025c576200025c620001ba565b602062000272601f8301601f19168201620001fb565b82815285828487010111156200028757600080fd5b60005b83811015620002a75785810183015182820184015282016200028a565b83811115620002b95760008385840101525b5095945050505050565b80516001600160a01b0381168114620002db57600080fd5b919050565b60008060008060008060c08789031215620002fa57600080fd5b86516001600160401b03808211156200031257600080fd5b9088019060a0828b0312156200032757600080fd5b62000331620001d0565b825181526020830151828111156200034857600080fd5b620003568c8286016200022e565b6020830152506040830151828111156200036f57600080fd5b6200037d8c8286016200022e565b6040830152506060830151606082015260808301516080820152809850505050620003ab60208801620002c3565b9450620003bb60408801620002c3565b9350620003cb60608801620002c3565b9250620003db60808801620002c3565b915060a087015190509295509295509295565b600181811c908216806200040357607f821691505b602082108114156200042557634e487b7160e01b600052602260045260246000fd5b50919050565b611943806200043b6000396000f3fe608060405234801561001057600080fd5b50600436106101005760003560e01c80638220239611610097578063de29278911610066578063de29278914610202578063df15c37e14610217578063e04b1c0c1461021f578063ecff1f4b1461023057600080fd5b806382202396146101b257806386852dca146101d25780639baec8b9146101e7578063a1818ac4146101ef57600080fd5b806330a56347116100d357806330a563471461015257806337349a7d1461015a5780634e69d5601461017a578063521b0dcc1461018f57600080fd5b806306a49fce1461010557806311174a29146101235780631ca5771414610135578063273ffe861461013d575b600080fd5b61010d610243565b60405161011a919061110e565b60405180910390f35b600b545b60405190815260200161011a565b600c54610127565b61015061014b366004611250565b6103d0565b005b600854610127565b610162610695565b6040516001600160a01b03909116815260200161011a565b6101826106d2565b60405161011a9190611317565b6101a261019d36600461135b565b6106fb565b604051901515815260200161011a565b6101c56101c036600461137d565b610784565b60405161011a9190611396565b6101da6108fb565b60405161011a91906113a9565b610162610a7e565b6101506101fd366004611431565b610ac0565b61020a610c16565b60405161011a9190611526565b61020a610df7565b6009546001600160a01b0316610162565b61015061023e366004611539565b610ea5565b60606005805480602002602001604051908101604052809291908181526020016000905b828210156103c75783829060005260206000209060030201604051806060016040529081600082015481526020016001820180546102a4906115eb565b80601f01602080910402602001604051908101604052809291908181526020018280546102d0906115eb565b801561031d5780601f106102f25761010080835404028352916020019161031d565b820191906000526020600020905b81548152906001019060200180831161030057829003601f168201915b50505050508152602001600282018054610336906115eb565b80601f0160208091040260200160405190810160405280929190818152602001828054610362906115eb565b80156103af5780601f10610384576101008083540402835291602001916103af565b820191906000526020600020905b81548152906001019060200180831161039257829003601f168201915b50505050508152505081526020019060010190610267565b50505050905090565b600a546001600160a01b0316331461044b5760405162461bcd60e51b815260206004820152603360248201527f4d7573742062652063616c6c65642066726f6d2074686520656c656374696f6e604482015272081bdc99d85b9a5e995c8818dbdb9d1c9858dd606a1b60648201526084015b60405180910390fd5b60016104556106d2565b600281111561046657610466611301565b146104cc5760405162461bcd60e51b815260206004820152603060248201527f43616e6e6f74206164642063616e6469646174657320616674657220656c656360448201526f1d1a5bdb881a185cc81cdd185c9d195960821b6064820152608401610442565b600060085460016104dd919061163c565b80835260058054600181018255600091909152835160039091027f036b6384b5eca791c62761152d0c79bb0604c104a5fb6f4eb0703f3154bb3db081019182556020808601518051949550869461055b937f036b6384b5eca791c62761152d0c79bb0604c104a5fb6f4eb0703f3154bb3db101929190910190610fad565b5060408201518051610577916002840191602090910190610fad565b5050600d54835160405163e844d09760e01b815260048101919091526101009091046001600160a01b0316915063e844d09790602401600060405180830381600087803b1580156105c757600080fd5b505af11580156105db573d6000803e3d6000fd5b50508351600090815260076020908152604090912085518155818601518051879550919350610611926001850192910190610fad565b506040820151805161062d916002840191602090910190610fad565b5050600880549150600061064083611654565b9091555050600d546040517f4d9dd414a40890e16b7bd0ea98bdf9d5b55c3d20cfe4b18febda0d60fb32a60c9161068991309161010090046001600160a01b031690869061166f565b60405180910390a15050565b6009546000906001600160a01b031633146106c25760405162461bcd60e51b81526004016104429061169b565b50600e546001600160a01b031690565b6003546000904210156106e55750600190565b6004544210156106f55750600090565b50600290565b600d54604051631486c37360e21b81526001600160a01b0383811660048301526000926101009004169063521b0dcc9060240160206040518083038186803b15801561074657600080fd5b505afa15801561075a573d6000803e3d6000fd5b505050506040513d601f19601f8201168201806040525081019061077e91906116e0565b92915050565b6107a860405180606001604052806000815260200160608152602001606081525090565b60076000838152602001908152602001600020604051806060016040529081600082015481526020016001820180546107e0906115eb565b80601f016020809104026020016040519081016040528092919081815260200182805461080c906115eb565b80156108595780601f1061082e57610100808354040283529160200191610859565b820191906000526020600020905b81548152906001019060200180831161083c57829003601f168201915b50505050508152602001600282018054610872906115eb565b80601f016020809104026020016040519081016040528092919081815260200182805461089e906115eb565b80156108eb5780601f106108c0576101008083540402835291602001916108eb565b820191906000526020600020905b8154815290600101906020018083116108ce57829003601f168201915b5050505050815250509050919050565b61092d6040518060a0016040528060008152602001606081526020016060815260200160008152602001600081525090565b6040805160a0810190915260008054825260018054602084019190610951906115eb565b80601f016020809104026020016040519081016040528092919081815260200182805461097d906115eb565b80156109ca5780601f1061099f576101008083540402835291602001916109ca565b820191906000526020600020905b8154815290600101906020018083116109ad57829003601f168201915b505050505081526020016002820180546109e3906115eb565b80601f0160208091040260200160405190810160405280929190818152602001828054610a0f906115eb565b8015610a5c5780601f10610a3157610100808354040283529160200191610a5c565b820191906000526020600020905b815481529060010190602001808311610a3f57829003601f168201915b5050505050815260200160038201548152602001600482015481525050905090565b6009546000906001600160a01b03163314610aab5760405162461bcd60e51b81526004016104429061169b565b50600d5461010090046001600160a01b031690565b6000610aca6106d2565b6002811115610adb57610adb611301565b14610b345760405162461bcd60e51b815260206004820152602360248201527f456c656374696f6e206e6565647320746f2062652061637469766520746f20766044820152626f746560e81b6064820152608401610442565b600d5460405163286062b160e21b81526101009091046001600160a01b03169063a1818ac490610b6e908790879087908790600401611702565b600060405180830381600087803b158015610b8857600080fd5b505af1158015610b9c573d6000803e3d6000fd5b5050600b8054925090506000610bb183611654565b9091555050600d546000848152600760205260409081902090517fd589db416dab4dff131e94610b2d02ce215ded85a2943a2ea59acd2153a8518292610c08926101009091046001600160a01b03169186906117d9565b60405180910390a150505050565b60606002610c226106d2565b6002811115610c3357610c33611301565b14610c9a5760405162461bcd60e51b815260206004820152603160248201527f526573756c747320617265206465636c61726564206f6e6c792061667465722060448201527074686520656c656374696f6e20656e647360781b6064820152608401610442565b600d5460ff16610dea57600e54600d54600b54604051630641a25160e51b81526001600160a01b0361010090930483166004820152602481019190915291169063c8344a2090604401600060405180830381600087803b158015610cfd57600080fd5b505af1158015610d11573d6000803e3d6000fd5b505050506040513d6000823e601f3d908101601f19168201604052610d399190810190611835565b8051610d4d91600691602090910190611031565b50600d805460ff191660011790556040517f28e5f582afeee46fd13ea548ad814f45b1d4a5159990336d5e66deb48a960e4c90610d8c906006906118c6565b60405180910390a16006805480602002602001604051908101604052809291908181526020018280548015610de057602002820191906000526020600020905b815481526020019060010190808311610dcc575b5050505050905090565b610df2610df7565b905090565b600d5460609060ff161515600114610e515760405162461bcd60e51b815260206004820152601b60248201527f526573756c7473206172656e2774206465636c617265642079657400000000006044820152606401610442565b6006805480602002602001604051908101604052809291908181526020018280548015610de05760200282019190600052602060002090815481526020019060010190808311610dcc575050505050905090565b6009546001600160a01b03163314610ecf5760405162461bcd60e51b81526004016104429061169b565b6001610ed96106d2565b6002811115610eea57610eea611301565b14610f565760405162461bcd60e51b815260206004820152603660248201527f43616e6e6f742075706461746520656c656374696f6e20696e666f20616674656044820152751c88195b1958dd1a5bdb881a185cc81cdd185c9d195960521b6064820152608401610442565b805160009081556020808301518051849392610f7792600192910190610fad565b5060408201518051610f93916002840191602090910190610fad565b506060820151600382015560809091015160049091015550565b828054610fb9906115eb565b90600052602060002090601f016020900481019282610fdb5760008555611021565b82601f10610ff457805160ff1916838001178555611021565b82800160010185558215611021579182015b82811115611021578251825591602001919060010190611006565b5061102d92915061106b565b5090565b8280548282559060005260206000209081019282156110215791602002820182811115611021578251825591602001919060010190611006565b5b8082111561102d576000815560010161106c565b6000815180845260005b818110156110a65760208185018101518683018201520161108a565b818111156110b8576000602083870101525b50601f01601f19169290920160200192915050565b8051825260006020820151606060208501526110ec6060850182611080565b9050604083015184820360408601526111058282611080565b95945050505050565b6000602080830181845280855180835260408601915060408160051b870101925083870160005b8281101561116357603f198886030184526111518583516110cd565b94509285019290850190600101611135565b5092979650505050505050565b634e487b7160e01b600052604160045260246000fd5b60405160a0810167ffffffffffffffff811182821017156111a9576111a9611170565b60405290565b604051601f8201601f1916810167ffffffffffffffff811182821017156111d8576111d8611170565b604052919050565b600082601f8301126111f157600080fd5b813567ffffffffffffffff81111561120b5761120b611170565b61121e601f8201601f19166020016111af565b81815284602083860101111561123357600080fd5b816020850160208301376000918101602001919091529392505050565b60006020828403121561126257600080fd5b813567ffffffffffffffff8082111561127a57600080fd5b908301906060828603121561128e57600080fd5b6040516060810181811083821117156112a9576112a9611170565b604052823581526020830135828111156112c257600080fd5b6112ce878286016111e0565b6020830152506040830135828111156112e657600080fd5b6112f2878286016111e0565b60408301525095945050505050565b634e487b7160e01b600052602160045260246000fd5b602081016003831061133957634e487b7160e01b600052602160045260246000fd5b91905290565b80356001600160a01b038116811461135657600080fd5b919050565b60006020828403121561136d57600080fd5b6113768261133f565b9392505050565b60006020828403121561138f57600080fd5b5035919050565b60208152600061137660208301846110cd565b60208152815160208201526000602083015160a060408401526113cf60c0840182611080565b90506040840151601f198483030160608501526113ec8282611080565b91505060608401516080840152608084015160a08401528091505092915050565b600067ffffffffffffffff82111561142757611427611170565b5060051b60200190565b6000806000806080858703121561144757600080fd5b6114508561133f565b9350602080860135935060408601359250606086013567ffffffffffffffff81111561147b57600080fd5b8601601f8101881361148c57600080fd5b803561149f61149a8261140d565b6111af565b81815260059190911b8201830190838101908a8311156114be57600080fd5b928401925b828410156114dc578335825292840192908401906114c3565b979a9699509497505050505050565b600081518084526020808501945080840160005b8381101561151b578151875295820195908201906001016114ff565b509495945050505050565b60208152600061137660208301846114eb565b60006020828403121561154b57600080fd5b813567ffffffffffffffff8082111561156357600080fd5b9083019060a0828603121561157757600080fd5b61157f611186565b8235815260208301358281111561159557600080fd5b6115a1878286016111e0565b6020830152506040830135828111156115b957600080fd5b6115c5878286016111e0565b604083015250606083013560608201526080830135608082015280935050505092915050565b600181811c908216806115ff57607f821691505b6020821081141561162057634e487b7160e01b600052602260045260246000fd5b50919050565b634e487b7160e01b600052601160045260246000fd5b6000821982111561164f5761164f611626565b500190565b600060001982141561166857611668611626565b5060010190565b6001600160a01b03848116825283166020820152606060408201819052600090611105908301846110cd565b60208082526025908201527f43616c6c6572206d7573742062652074686520656c656374696f6e206f7267616040820152643734bd32b960d91b606082015260800190565b6000602082840312156116f257600080fd5b8151801515811461137657600080fd5b60018060a01b038516815283602082015282604082015260806060820152600061172f60808301846114eb565b9695505050505050565b8054600090600181811c908083168061175357607f831692505b602080841082141561177557634e487b7160e01b600052602260045260246000fd5b8388526020880182801561179057600181146117a1576117cc565b60ff198716825282820197506117cc565b60008981526020902060005b878110156117c6578154848201529086019084016117ad565b83019850505b5050505050505092915050565b6001600160a01b03841681526060602082018190528354818301526080820152600061180b60c0830160018601611739565b828103605f190160a08401526118248160028701611739565b915050826040830152949350505050565b6000602080838503121561184857600080fd5b825167ffffffffffffffff81111561185f57600080fd5b8301601f8101851361187057600080fd5b805161187e61149a8261140d565b81815260059190911b8201830190838101908783111561189d57600080fd5b928401925b828410156118bb578351825292840192908401906118a2565b979650505050505050565b6020808252825482820181905260008481528281209092916040850190845b81811015611901578354835260019384019392850192016118e5565b5090969550505050505056fea2646970667358221220bf2f899fe6e41b6dca111bcadf806931d8c3da01b7319395bbba331c49ce434d64736f6c63430008090033",
  "linkReferences": {},
  "deployedLinkReferences": {}
}