{"abi":[{"type":"constructor","inputs":[{"name":"_electionAddress","type":"address","internalType":"address"}],"stateMutability":"nonpayable"},{"type":"function","name":"electionContract","inputs":[],"outputs":[{"name":"","type":"address","internalType":"address"}],"stateMutability":"view"},{"type":"function","name":"getVotes","inputs":[],"outputs":[{"name":"","type":"uint256[]","internalType":"uint256[]"}],"stateMutability":"view"},{"type":"function","name":"init","inputs":[{"name":"totalCandidate","type":"uint256","internalType":"uint256"}],"outputs":[],"stateMutability":"nonpayable"},{"type":"function","name":"vote","inputs":[{"name":"voteArr","type":"uint256[]","internalType":"uint256[]"}],"outputs":[],"stateMutability":"nonpayable"},{"type":"error","name":"IncorrectCredits","inputs":[]},{"type":"error","name":"OwnerPermissioned","inputs":[]},{"type":"error","name":"VoteInputLength","inputs":[]}],"bytecode":{"object":"0x6080604052348015600e575f5ffd5b5060405161051c38038061051c833981016040819052602b91604e565b5f80546001600160a01b0319166001600160a01b03929092169190911790556079565b5f60208284031215605d575f5ffd5b81516001600160a01b03811681146072575f5ffd5b9392505050565b610496806100865f395ff3fe608060405234801561000f575f5ffd5b506004361061004a575f3560e01c80630dc960151461004e578063b7b0422d1461006c578063ce11f2bb14610081578063e407bcbd14610094575b5f5ffd5b6100566100be565b60405161006391906102d7565b60405180910390f35b61007f61007a366004610319565b61013f565b005b61007f61008f366004610344565b6101c4565b5f546100a6906001600160a01b031681565b6040516001600160a01b039091168152602001610063565b5f546060906001600160a01b031633146100eb5760405163282b2e2960e21b815260040160405180910390fd5b600180548060200260200160405190810160405280929190818152602001828054801561013557602002820191905f5260205f20905b815481526020019060010190808311610121575b5050505050905090565b5f546001600160a01b031633146101695760405163282b2e2960e21b815260040160405180910390fd5b8067ffffffffffffffff81111561018257610182610330565b6040519080825280602002602001820160405280156101ab578160200160208202803683370190505b5080516101c09160019160209091019061027a565b5050565b5f546001600160a01b031633146101ee5760405163282b2e2960e21b815260040160405180910390fd5b6001548151811461021257604051636e2ca24960e01b815260040160405180910390fd5b5f5b81811015610275576102268183610420565b600184838151811061023a5761023a610439565b60200260200101518154811061025257610252610439565b905f5260205f20015f828254610268919061044d565b9091555050600101610214565b505050565b828054828255905f5260205f209081019282156102b3579160200282015b828111156102b3578251825591602001919060010190610298565b506102bf9291506102c3565b5090565b5b808211156102bf575f81556001016102c4565b602080825282518282018190525f918401906040840190835b8181101561030e5783518352602093840193909201916001016102f0565b509095945050505050565b5f60208284031215610329575f5ffd5b5035919050565b634e487b7160e01b5f52604160045260245ffd5b5f60208284031215610354575f5ffd5b813567ffffffffffffffff81111561036a575f5ffd5b8201601f8101841361037a575f5ffd5b803567ffffffffffffffff81111561039457610394610330565b8060051b604051601f19603f830116810181811067ffffffffffffffff821117156103c1576103c1610330565b6040529182526020818401810192908101878411156103de575f5ffd5b6020850194505b83851015610401578435808252602095860195909350016103e5565b509695505050505050565b634e487b7160e01b5f52601160045260245ffd5b818103818111156104335761043361040c565b92915050565b634e487b7160e01b5f52603260045260245ffd5b808201808211156104335761043361040c56fea2646970667358221220f942de69d51ef36af80103aa1d54d061dbf68d9810230a3a0753b6b5c587858f64736f6c634300081c0033","linkReferences":{}},"methodIdentifiers":{"electionContract()":"e407bcbd","getVotes()":"0dc96015","init(uint256)":"b7b0422d","vote(uint256[])":"ce11f2bb"},"id":7}