{
  "_format": "hh-sol-artifact-1",
  "contractName": "OneVote",
  "sourceName": "contracts/OneVote.sol",
  "abi": [
    {
      "inputs": [
        {
          "internalType": "contract ISemaphore",
          "name": "_semaphore",
          "type": "address"
        },
        {
          "internalType": "uint256",
          "name": "_groupId",
          "type": "uint256"
        }
      ],
      "stateMutability": "nonpayable",
      "type": "constructor"
    },
    {
      "inputs": [
        {
          "internalType": "uint256",
          "name": "_processId",
          "type": "uint256"
        },
        {
          "internalType": "bytes32",
          "name": "candidate",
          "type": "bytes32"
        }
      ],
      "name": "addCandidate",
      "outputs": [],
      "stateMutability": "nonpayable",
      "type": "function"
    },
    {
      "inputs": [
        {
          "internalType": "uint256",
          "name": "identityCommitment",
          "type": "uint256"
        }
      ],
      "name": "addVoter",
      "outputs": [],
      "stateMutability": "nonpayable",
      "type": "function"
    },
    {
      "inputs": [
        {
          "internalType": "string",
          "name": "_name",
          "type": "string"
        },
        {
          "internalType": "string",
          "name": "_description",
          "type": "string"
        },
        {
          "internalType": "uint256",
          "name": "_startDate",
          "type": "uint256"
        },
        {
          "internalType": "uint256",
          "name": "_endDate",
          "type": "uint256"
        }
      ],
      "name": "createVotingProcess",
      "outputs": [],
      "stateMutability": "nonpayable",
      "type": "function"
    },
    {
      "inputs": [
        {
          "internalType": "uint256",
          "name": "indentityCommitment",
          "type": "uint256"
        }
      ],
      "name": "getUserAuthStatus",
      "outputs": [
        {
          "internalType": "bool",
          "name": "",
          "type": "bool"
        }
      ],
      "stateMutability": "view",
      "type": "function"
    },
    {
      "inputs": [],
      "name": "semaphore",
      "outputs": [
        {
          "internalType": "contract ISemaphore",
          "name": "",
          "type": "address"
        }
      ],
      "stateMutability": "view",
      "type": "function"
    },
    {
      "inputs": [
        {
          "internalType": "uint256",
          "name": "",
          "type": "uint256"
        }
      ],
      "name": "userAuthStatus",
      "outputs": [
        {
          "internalType": "bool",
          "name": "",
          "type": "bool"
        }
      ],
      "stateMutability": "view",
      "type": "function"
    },
    {
      "inputs": [
        {
          "internalType": "uint256",
          "name": "_vote",
          "type": "uint256"
        },
        {
          "internalType": "uint256",
          "name": "nullifierHash",
          "type": "uint256"
        },
        {
          "internalType": "uint256",
          "name": "pollId",
          "type": "uint256"
        },
        {
          "internalType": "uint256",
          "name": "merkleTreeRoot",
          "type": "uint256"
        },
        {
          "internalType": "uint256[8]",
          "name": "proof",
          "type": "uint256[8]"
        }
      ],
      "name": "vote",
      "outputs": [],
      "stateMutability": "nonpayable",
      "type": "function"
    },
    {
      "inputs": [
        {
          "internalType": "contract VotingProcess",
          "name": "",
          "type": "address"
        }
      ],
      "name": "votingProcessAdmins",
      "outputs": [
        {
          "internalType": "address",
          "name": "",
          "type": "address"
        }
      ],
      "stateMutability": "view",
      "type": "function"
    },
    {
      "inputs": [
        {
          "internalType": "uint256",
          "name": "",
          "type": "uint256"
        }
      ],
      "name": "votingProcesses",
      "outputs": [
        {
          "internalType": "contract VotingProcess",
          "name": "",
          "type": "address"
        }
      ],
      "stateMutability": "view",
      "type": "function"
    }
  ],
  "bytecode": "0x60806040523480156200001157600080fd5b5060405162002bfd38038062002bfd83398181016040528101906200003791906200014d565b81600560006101000a81548173ffffffffffffffffffffffffffffffffffffffff021916908373ffffffffffffffffffffffffffffffffffffffff16021790555080600481905550600560009054906101000a900473ffffffffffffffffffffffffffffffffffffffff1673ffffffffffffffffffffffffffffffffffffffff16639c1121416004546020306040518463ffffffff1660e01b8152600401620000e393929190620001c1565b600060405180830381600087803b158015620000fe57600080fd5b505af115801562000113573d6000803e3d6000fd5b50505050505062000298565b600081519050620001308162000264565b92915050565b60008151905062000147816200027e565b92915050565b600080604083850312156200016157600080fd5b600062000171858286016200011f565b9250506020620001848582860162000136565b9150509250929050565b6200019981620001fe565b82525050565b620001aa8162000250565b82525050565b620001bb8162000246565b82525050565b6000606082019050620001d86000830186620001b0565b620001e760208301856200019f565b620001f660408301846200018e565b949350505050565b60006200020b8262000226565b9050919050565b60006200021f82620001fe565b9050919050565b600073ffffffffffffffffffffffffffffffffffffffff82169050919050565b6000819050919050565b60006200025d8262000246565b9050919050565b6200026f8162000212565b81146200027b57600080fd5b50565b620002898162000246565b81146200029557600080fd5b50565b61295580620002a86000396000f3fe60806040523480156200001157600080fd5b5060043610620000a05760003560e01c80637b5d2534116200006f5780637b5d25341462000167578063afb793021462000189578063c0374c6814620001bf578063d225bb0414620001df578063d8f7a0bb14620001ff57620000a0565b8063040c46ec14620000a557806371af787014620000db57806376805335146200011157806376cce6071462000131575b600080fd5b620000c36004803603810190620000bd919062000892565b6200021f565b604051620000d2919062000ab0565b60405180910390f35b620000f96004803603810190620000f3919062000892565b62000252565b60405162000108919062000a59565b60405180910390f35b6200012f6004803603810190620001299190620008ff565b6200027c565b005b6200014f600480360381019062000149919062000892565b620003c1565b6040516200015e919062000a59565b60405180910390f35b62000171620003e1565b60405162000180919062000a93565b60405180910390f35b620001a76004803603810190620001a19190620007c8565b62000407565b604051620001b6919062000a3c565b60405180910390f35b620001dd6004803603810190620001d79190620007f4565b6200043a565b005b620001fd6004803603810190620001f79190620008be565b6200057b565b005b6200021d600480360381019062000217919062000892565b62000620565b005b60006020528060005260406000206000915054906101000a900473ffffffffffffffffffffffffffffffffffffffff1681565b60006002600083815260200190815260200160002060009054906101000a900460ff169050919050565b600560009054906101000a900473ffffffffffffffffffffffffffffffffffffffff1673ffffffffffffffffffffffffffffffffffffffff16633bc778e360045484888888876040518763ffffffff1660e01b8152600401620002e59695949392919062000b82565b600060405180830381600087803b1580156200030057600080fd5b505af115801562000315573d6000803e3d6000fd5b5050505060008084815260200190815260200160002060009054906101000a900473ffffffffffffffffffffffffffffffffffffffff1673ffffffffffffffffffffffffffffffffffffffff16630121b93f866040518263ffffffff1660e01b815260040162000386919062000acd565b600060405180830381600087803b158015620003a157600080fd5b505af1158015620003b6573d6000803e3d6000fd5b505050505050505050565b60026020528060005260406000206000915054906101000a900460ff1681565b600560009054906101000a900473ffffffffffffffffffffffffffffffffffffffff1681565b60016020528060005260406000206000915054906101000a900473ffffffffffffffffffffffffffffffffffffffff1681565b600033905060016003600082825462000454919062000c6b565b925050819055506000600354868686866040516200047290620006e4565b6200048295949392919062000aea565b604051809103906000f0801580156200049f573d6000803e3d6000fd5b50905080600080600354815260200190815260200160002060006101000a81548173ffffffffffffffffffffffffffffffffffffffff021916908373ffffffffffffffffffffffffffffffffffffffff16021790555081600160008373ffffffffffffffffffffffffffffffffffffffff1673ffffffffffffffffffffffffffffffffffffffff16815260200190815260200160002060006101000a81548173ffffffffffffffffffffffffffffffffffffffff021916908373ffffffffffffffffffffffffffffffffffffffff160217905550505050505050565b60008083815260200190815260200160002060009054906101000a900473ffffffffffffffffffffffffffffffffffffffff1673ffffffffffffffffffffffffffffffffffffffff1663230d6ed8826040518263ffffffff1660e01b8152600401620005e8919062000a76565b600060405180830381600087803b1580156200060357600080fd5b505af115801562000618573d6000803e3d6000fd5b505050505050565b600560009054906101000a900473ffffffffffffffffffffffffffffffffffffffff1673ffffffffffffffffffffffffffffffffffffffff16631783efc3600454836040518363ffffffff1660e01b81526004016200068192919062000b55565b600060405180830381600087803b1580156200069c57600080fd5b505af1158015620006b1573d6000803e3d6000fd5b5050505060016002600083815260200190815260200160002060006101000a81548160ff02191690831515021790555050565b611a678062000eb983390190565b600062000709620007038462000c19565b62000bf0565b9050828152602081018484840111156200072257600080fd5b6200072f84828562000d80565b509392505050565b6000819050826020600802820111156200075057600080fd5b92915050565b600081359050620007678162000e6a565b92915050565b6000813590506200077e8162000e84565b92915050565b600082601f8301126200079657600080fd5b8135620007a8848260208601620006f2565b91505092915050565b600081359050620007c28162000e9e565b92915050565b600060208284031215620007db57600080fd5b6000620007eb848285016200076d565b91505092915050565b600080600080608085870312156200080b57600080fd5b600085013567ffffffffffffffff8111156200082657600080fd5b620008348782880162000784565b945050602085013567ffffffffffffffff8111156200085257600080fd5b620008608782880162000784565b93505060406200087387828801620007b1565b92505060606200088687828801620007b1565b91505092959194509250565b600060208284031215620008a557600080fd5b6000620008b584828501620007b1565b91505092915050565b60008060408385031215620008d257600080fd5b6000620008e285828601620007b1565b9250506020620008f58582860162000756565b9150509250929050565b600080600080600061018086880312156200091957600080fd5b60006200092988828901620007b1565b95505060206200093c88828901620007b1565b94505060406200094f88828901620007b1565b93505060606200096288828901620007b1565b9250506080620009758882890162000737565b9150509295509295909350565b6200098d8162000cc8565b82525050565b620009a2610100838362000d80565b5050565b620009b18162000cdc565b82525050565b620009c28162000ce8565b82525050565b620009d38162000d30565b82525050565b620009e48162000d58565b82525050565b6000620009f78262000c4f565b62000a03818562000c5a565b935062000a1581856020860162000d8f565b62000a208162000e59565b840191505092915050565b62000a368162000d26565b82525050565b600060208201905062000a53600083018462000982565b92915050565b600060208201905062000a706000830184620009a6565b92915050565b600060208201905062000a8d6000830184620009b7565b92915050565b600060208201905062000aaa6000830184620009c8565b92915050565b600060208201905062000ac76000830184620009d9565b92915050565b600060208201905062000ae4600083018462000a2b565b92915050565b600060a08201905062000b01600083018862000a2b565b818103602083015262000b158187620009ea565b9050818103604083015262000b2b8186620009ea565b905062000b3c606083018562000a2b565b62000b4b608083018462000a2b565b9695505050505050565b600060408201905062000b6c600083018562000a2b565b62000b7b602083018462000a2b565b9392505050565b60006101a08201905062000b9a600083018962000a2b565b62000ba9602083018862000a2b565b62000bb8604083018762000a2b565b62000bc7606083018662000a2b565b62000bd6608083018562000a2b565b62000be560a083018462000993565b979650505050505050565b600062000bfc62000c0f565b905062000c0a828262000dc5565b919050565b6000604051905090565b600067ffffffffffffffff82111562000c375762000c3662000e2a565b5b62000c428262000e59565b9050602081019050919050565b600081519050919050565b600082825260208201905092915050565b600062000c788262000d26565b915062000c858362000d26565b9250827fffffffffffffffffffffffffffffffffffffffffffffffffffffffffffffffff0382111562000cbd5762000cbc62000dfb565b5b828201905092915050565b600062000cd58262000d06565b9050919050565b60008115159050919050565b6000819050919050565b600062000cff8262000cc8565b9050919050565b600073ffffffffffffffffffffffffffffffffffffffff82169050919050565b6000819050919050565b600062000d3d8262000d44565b9050919050565b600062000d518262000d06565b9050919050565b600062000d658262000d6c565b9050919050565b600062000d798262000d06565b9050919050565b82818337600083830152505050565b60005b8381101562000daf57808201518184015260208101905062000d92565b8381111562000dbf576000848401525b50505050565b62000dd08262000e59565b810181811067ffffffffffffffff8211171562000df25762000df162000e2a565b5b80604052505050565b7f4e487b7100000000000000000000000000000000000000000000000000000000600052601160045260246000fd5b7f4e487b7100000000000000000000000000000000000000000000000000000000600052604160045260246000fd5b6000601f19601f8301169050919050565b62000e758162000ce8565b811462000e8157600080fd5b50565b62000e8f8162000cf2565b811462000e9b57600080fd5b50565b62000ea98162000d26565b811462000eb557600080fd5b5056fe60806040523480156200001157600080fd5b5060405162001a6738038062001a678339818101604052810190620000379190620002a2565b8181116200007c576040517f08c379a000000000000000000000000000000000000000000000000000000000815260040162000073906200037d565b60405180910390fd5b33600960016101000a81548173ffffffffffffffffffffffffffffffffffffffff021916908373ffffffffffffffffffffffffffffffffffffffff160217905550846000819055508360019080519060200190620000dc92919062000169565b508260029080519060200190620000f592919062000169565b5081600381905550806004819055506000600960006101000a81548160ff0219169083600281111562000151577f4e487b7100000000000000000000000000000000000000000000000000000000600052602160045260246000fd5b02179055506000600581905550505050505062000593565b82805462000177906200044f565b90600052602060002090601f0160209004810192826200019b5760008555620001e7565b82601f10620001b657805160ff1916838001178555620001e7565b82800160010185558215620001e7579182015b82811115620001e6578251825591602001919060010190620001c9565b5b509050620001f69190620001fa565b5090565b5b8082111562000215576000816000905550600101620001fb565b5090565b6000620002306200022a84620003c8565b6200039f565b9050828152602081018484840111156200024957600080fd5b6200025684828562000419565b509392505050565b600082601f8301126200027057600080fd5b81516200028284826020860162000219565b91505092915050565b6000815190506200029c8162000579565b92915050565b600080600080600060a08688031215620002bb57600080fd5b6000620002cb888289016200028b565b955050602086015167ffffffffffffffff811115620002e957600080fd5b620002f7888289016200025e565b945050604086015167ffffffffffffffff8111156200031557600080fd5b62000323888289016200025e565b935050606062000336888289016200028b565b925050608062000349888289016200028b565b9150509295509295909350565b600062000365602183620003fe565b915062000372826200052a565b604082019050919050565b60006020820190508181036000830152620003988162000356565b9050919050565b6000620003ab620003be565b9050620003b9828262000485565b919050565b6000604051905090565b600067ffffffffffffffff821115620003e657620003e5620004ea565b5b620003f18262000519565b9050602081019050919050565b600082825260208201905092915050565b6000819050919050565b60005b83811015620004395780820151818401526020810190506200041c565b8381111562000449576000848401525b50505050565b600060028204905060018216806200046857607f821691505b602082108114156200047f576200047e620004bb565b5b50919050565b620004908262000519565b810181811067ffffffffffffffff82111715620004b257620004b1620004ea565b5b80604052505050565b7f4e487b7100000000000000000000000000000000000000000000000000000000600052602260045260246000fd5b7f4e487b7100000000000000000000000000000000000000000000000000000000600052604160045260246000fd5b6000601f19601f8301169050919050565b7f456e642064617465206d7573742062652061667465722073746172742064617460008201527f6500000000000000000000000000000000000000000000000000000000000000602082015250565b62000584816200040f565b81146200059057600080fd5b50565b6114c480620005a36000396000f3fe608060405234801561001057600080fd5b506004361061010b5760003560e01c80637284e416116100a2578063c24a0f8b11610071578063c24a0f8b14610298578063cb5a69a9146102b6578063e0d38faf146102d5578063ef8a923514610305578063f927cc29146103235761010b565b80637284e4161461022057806378f305c61461023e578063af640d0f1461025c578063b13564881461027a5761010b565b8063230d6ed8116100de578063230d6ed814610186578063299c8036146101a25780633477ee2e146101d25780634e69d560146102025761010b565b80630121b93f1461011057806306a49fce1461012c57806306fdde031461014a5780630b97bc8614610168575b600080fd5b61012a60048036038101906101259190610e11565b610342565b005b610134610550565b6040516101419190611013565b60405180910390f35b6101526105a8565b60405161015f91906110cb565b60405180910390f35b610170610636565b60405161017d919061114d565b60405180910390f35b6101a0600480360381019061019b9190610de8565b61063c565b005b6101bc60048036038101906101b79190610e11565b61087c565b6040516101c9919061106c565b60405180910390f35b6101ec60048036038101906101e79190610e11565b610894565b6040516101f9919061106c565b60405180910390f35b61020a6108b8565b60405161021791906110b0565b60405180910390f35b6102286108f6565b60405161023591906110cb565b60405180910390f35b610246610984565b604051610253919061114d565b60405180910390f35b61026461098e565b604051610271919061114d565b60405180910390f35b610282610994565b60405161028f919061114d565b60405180910390f35b6102a061099e565b6040516102ad919061114d565b60405180910390f35b6102be6109a4565b6040516102cc929190611035565b60405180910390f35b6102ef60048036038101906102ea9190610de8565b610b3e565b6040516102fc919061114d565b60405180910390f35b61030d610b56565b60405161031a91906110b0565b60405180910390f35b61032b610b69565b604051610339929190611087565b60405180910390f35b600161034c6108b8565b600960006101000a81548160ff02191690836002811115610396577f4e487b7100000000000000000000000000000000000000000000000000000000600052602160045260246000fd5b02179055508060028111156103d4577f4e487b7100000000000000000000000000000000000000000000000000000000600052602160045260246000fd5b600960009054906101000a900460ff16600281111561041c577f4e487b7100000000000000000000000000000000000000000000000000000000600052602160045260246000fd5b1461045c576040517f08c379a00000000000000000000000000000000000000000000000000000000081526004016104539061110d565b60405180910390fd5b6000600760008481526020019081526020016000205490507fffffffffffffffffffffffffffffffffffffffffffffffffffffffffffffffff6008600083815260200190815260200160002054106104e9576040517f08c379a00000000000000000000000000000000000000000000000000000000081526004016104e0906110ed565b60405180910390fd5b600160086000838152602001908152602001600020600082825461050d91906111f6565b925050819055507f58b57dcb93683e0d6141a7cf94961e9bb5d530ac24c156a936d2592b32ef973681604051610543919061106c565b60405180910390a1505050565b6060600680548060200260200160405190810160405280929190818152602001828054801561059e57602002820191906000526020600020905b81548152602001906001019080831161058a575b5050505050905090565b600180546105b5906112b8565b80601f01602080910402602001604051908101604052809291908181526020018280546105e1906112b8565b801561062e5780601f106106035761010080835404028352916020019161062e565b820191906000526020600020905b81548152906001019060200180831161061157829003601f168201915b505050505081565b60035481565b600960019054906101000a900473ffffffffffffffffffffffffffffffffffffffff1673ffffffffffffffffffffffffffffffffffffffff163373ffffffffffffffffffffffffffffffffffffffff16146106cc576040517f08c379a00000000000000000000000000000000000000000000000000000000081526004016106c39061112d565b60405180910390fd5b60006106d66108b8565b600960006101000a81548160ff02191690836002811115610720577f4e487b7100000000000000000000000000000000000000000000000000000000600052602160045260246000fd5b021790555080600281111561075e577f4e487b7100000000000000000000000000000000000000000000000000000000600052602160045260246000fd5b600960009054906101000a900460ff1660028111156107a6577f4e487b7100000000000000000000000000000000000000000000000000000000600052602160045260246000fd5b146107e6576040517f08c379a00000000000000000000000000000000000000000000000000000000081526004016107dd9061110d565b60405180910390fd5b600682908060018154018082558091505060019003906000526020600020016000909190919091505581600760006005548152602001908152602001600020819055506005600081548092919061083c906112ea565b91905055507f1ca6455dcb14c395e267f0f1f437ef528cbd7259d0ac82309627fcac2e9d801c82604051610870919061106c565b60405180910390a15050565b60076020528060005260406000206000915090505481565b600681815481106108a457600080fd5b906000526020600020016000915090505481565b60006003544210156108cd57600090506108f3565b60035442101580156108e0575060045442105b156108ee57600190506108f3565b600290505b90565b60028054610903906112b8565b80601f016020809104026020016040519081016040528092919081815260200182805461092f906112b8565b801561097c5780601f106109515761010080835404028352916020019161097c565b820191906000526020600020905b81548152906001019060200180831161095f57829003601f168201915b505050505081565b6000600354905090565b60005481565b6000600454905090565b60045481565b606080600060068054905067ffffffffffffffff8111156109ee577f4e487b7100000000000000000000000000000000000000000000000000000000600052604160045260246000fd5b604051908082528060200260200182016040528015610a1c5781602001602082028036833780820191505090505b50905060005b600680549050811015610adf576008600060068381548110610a6d577f4e487b7100000000000000000000000000000000000000000000000000000000600052603260045260246000fd5b9060005260206000200154815260200190815260200160002054828281518110610ac0577f4e487b7100000000000000000000000000000000000000000000000000000000600052603260045260246000fd5b6020026020010181815250508080610ad7906112ea565b915050610a22565b5060068181805480602002602001604051908101604052809291908181526020018280548015610b2e57602002820191906000526020600020905b815481526020019060010190808311610b1a575b5050505050915092509250509091565b60086020528060005260406000206000915090505481565b600960009054906101000a900460ff1681565b6000806002610b766108b8565b600960006101000a81548160ff02191690836002811115610bc0577f4e487b7100000000000000000000000000000000000000000000000000000000600052602160045260246000fd5b0217905550806002811115610bfe577f4e487b7100000000000000000000000000000000000000000000000000000000600052602160045260246000fd5b600960009054906101000a900460ff166002811115610c46577f4e487b7100000000000000000000000000000000000000000000000000000000600052602160045260246000fd5b14610c86576040517f08c379a0000000000000000000000000000000000000000000000000000000008152600401610c7d9061110d565b60405180910390fd5b60008080600090505b600680549050811015610db057826008600060068481548110610cdb577f4e487b7100000000000000000000000000000000000000000000000000000000600052603260045260246000fd5b90600052602060002001548152602001908152602001600020541115610d9d5760068181548110610d35577f4e487b7100000000000000000000000000000000000000000000000000000000600052603260045260246000fd5b906000526020600020015491506008600060068381548110610d80577f4e487b7100000000000000000000000000000000000000000000000000000000600052603260045260246000fd5b906000526020600020015481526020019081526020016000205492505b8080610da8906112ea565b915050610c8f565b508082945094505050509091565b600081359050610dcd81611460565b92915050565b600081359050610de281611477565b92915050565b600060208284031215610dfa57600080fd5b6000610e0884828501610dbe565b91505092915050565b600060208284031215610e2357600080fd5b6000610e3184828501610dd3565b91505092915050565b6000610e468383610f26565b60208301905092915050565b6000610e5e8383610ff5565b60208301905092915050565b6000610e7582611188565b610e7f81856111c3565b9350610e8a83611168565b8060005b83811015610ebb578151610ea28882610e3a565b9750610ead836111a9565b925050600181019050610e8e565b5085935050505092915050565b6000610ed382611193565b610edd81856111d4565b9350610ee883611178565b8060005b83811015610f19578151610f008882610e52565b9750610f0b836111b6565b925050600181019050610eec565b5085935050505092915050565b610f2f8161124c565b82525050565b610f3e8161124c565b82525050565b610f4d81611273565b82525050565b6000610f5e8261119e565b610f6881856111e5565b9350610f78818560208601611285565b610f81816113c0565b840191505092915050565b6000610f996013836111e5565b9150610fa4826113d1565b602082019050919050565b6000610fbc6017836111e5565b9150610fc7826113fa565b602082019050919050565b6000610fdf600e836111e5565b9150610fea82611423565b602082019050919050565b610ffe81611269565b82525050565b61100d81611269565b82525050565b6000602082019050818103600083015261102d8184610e6a565b905092915050565b6000604082019050818103600083015261104f8185610e6a565b905081810360208301526110638184610ec8565b90509392505050565b60006020820190506110816000830184610f35565b92915050565b600060408201905061109c6000830185610f35565b6110a96020830184611004565b9392505050565b60006020820190506110c56000830184610f44565b92915050565b600060208201905081810360008301526110e58184610f53565b905092915050565b6000602082019050818103600083015261110681610f8c565b9050919050565b6000602082019050818103600083015261112681610faf565b9050919050565b6000602082019050818103600083015261114681610fd2565b9050919050565b60006020820190506111626000830184611004565b92915050565b6000819050602082019050919050565b6000819050602082019050919050565b600081519050919050565b600081519050919050565b600081519050919050565b6000602082019050919050565b6000602082019050919050565b600082825260208201905092915050565b600082825260208201905092915050565b600082825260208201905092915050565b600061120182611269565b915061120c83611269565b9250827fffffffffffffffffffffffffffffffffffffffffffffffffffffffffffffffff0382111561124157611240611333565b5b828201905092915050565b6000819050919050565b60008190506112648261144c565b919050565b6000819050919050565b600061127e82611256565b9050919050565b60005b838110156112a3578082015181840152602081019050611288565b838111156112b2576000848401525b50505050565b600060028204905060018216806112d057607f821691505b602082108114156112e4576112e3611391565b5b50919050565b60006112f582611269565b91507fffffffffffffffffffffffffffffffffffffffffffffffffffffffffffffffff82141561132857611327611333565b5b600182019050919050565b7f4e487b7100000000000000000000000000000000000000000000000000000000600052601160045260246000fd5b7f4e487b7100000000000000000000000000000000000000000000000000000000600052602160045260246000fd5b7f4e487b7100000000000000000000000000000000000000000000000000000000600052602260045260246000fd5b6000601f19601f8301169050919050565b7f566f746520636f756e74206f766572666c6f7700000000000000000000000000600082015250565b7f496e76616c696420656c656374696f6e20737461747573000000000000000000600082015250565b7f4e6f7420617574686f72697a6564000000000000000000000000000000000000600082015250565b6003811061145d5761145c611362565b5b50565b6114698161124c565b811461147457600080fd5b50565b61148081611269565b811461148b57600080fd5b5056fea2646970667358221220fa54fa2a3bf2ea731302062f4323d1b31a1b14e242f84831132b2ad5a238ea2964736f6c63430008040033a264697066735822122007269e4a6bd9d881f320cdffbbb730544cedfc28e71b3ca60f23bb17f5a4be1f64736f6c63430008040033",
  "linkReferences": {},
  "deployedLinkReferences": {}
}