{
  "_format": "hh-sol-artifact-1",
  "contractName": "OneVote",
  "sourceName": "contracts/OneVote.sol",
  "abi": [
    {
      "inputs": [
        {
          "internalType": "contract ISemaphore",
          "name": "_semaphore",
          "type": "address"
        },
        {
          "internalType": "uint256",
          "name": "_groupId",
          "type": "uint256"
        }
      ],
      "stateMutability": "nonpayable",
      "type": "constructor"
    },
    {
      "inputs": [
        {
          "internalType": "uint256",
          "name": "_processId",
          "type": "uint256"
        },
        {
          "internalType": "bytes32",
          "name": "candidate",
          "type": "bytes32"
        }
      ],
      "name": "addCandidate",
      "outputs": [],
      "stateMutability": "nonpayable",
      "type": "function"
    },
    {
      "inputs": [
        {
          "internalType": "uint256",
          "name": "identityCommitment",
          "type": "uint256"
        }
      ],
      "name": "addVoter",
      "outputs": [],
      "stateMutability": "nonpayable",
      "type": "function"
    },
    {
      "inputs": [
        {
          "internalType": "string",
          "name": "_name",
          "type": "string"
        },
        {
          "internalType": "string",
          "name": "_description",
          "type": "string"
        },
        {
          "internalType": "uint256",
          "name": "_startDate",
          "type": "uint256"
        },
        {
          "internalType": "uint256",
          "name": "_endDate",
          "type": "uint256"
        }
      ],
      "name": "createVotingProcess",
      "outputs": [],
      "stateMutability": "nonpayable",
      "type": "function"
    },
    {
      "inputs": [],
      "name": "getAllVotingProcesses",
      "outputs": [
        {
          "internalType": "address[]",
          "name": "",
          "type": "address[]"
        }
      ],
      "stateMutability": "view",
      "type": "function"
    },
    {
      "inputs": [
        {
          "internalType": "uint256",
          "name": "indentityCommitment",
          "type": "uint256"
        }
      ],
      "name": "getUserAuthStatus",
      "outputs": [
        {
          "internalType": "bool",
          "name": "",
          "type": "bool"
        }
      ],
      "stateMutability": "view",
      "type": "function"
    },
    {
      "inputs": [],
      "name": "semaphore",
      "outputs": [
        {
          "internalType": "contract ISemaphore",
          "name": "",
          "type": "address"
        }
      ],
      "stateMutability": "view",
      "type": "function"
    },
    {
      "inputs": [
        {
          "internalType": "uint256",
          "name": "",
          "type": "uint256"
        }
      ],
      "name": "userAuthStatus",
      "outputs": [
        {
          "internalType": "bool",
          "name": "",
          "type": "bool"
        }
      ],
      "stateMutability": "view",
      "type": "function"
    },
    {
      "inputs": [
        {
          "internalType": "uint256",
          "name": "_vote",
          "type": "uint256"
        },
        {
          "internalType": "uint256",
          "name": "nullifierHash",
          "type": "uint256"
        },
        {
          "internalType": "uint256",
          "name": "pollId",
          "type": "uint256"
        },
        {
          "internalType": "uint256",
          "name": "merkleTreeRoot",
          "type": "uint256"
        },
        {
          "internalType": "uint256[8]",
          "name": "proof",
          "type": "uint256[8]"
        }
      ],
      "name": "vote",
      "outputs": [],
      "stateMutability": "nonpayable",
      "type": "function"
    },
    {
      "inputs": [
        {
          "internalType": "contract VotingProcess",
          "name": "",
          "type": "address"
        }
      ],
      "name": "votingProcessAdmins",
      "outputs": [
        {
          "internalType": "address",
          "name": "",
          "type": "address"
        }
      ],
      "stateMutability": "view",
      "type": "function"
    },
    {
      "inputs": [
        {
          "internalType": "uint256",
          "name": "",
          "type": "uint256"
        }
      ],
      "name": "votingProcesses",
      "outputs": [
        {
          "internalType": "contract VotingProcess",
          "name": "",
          "type": "address"
        }
      ],
      "stateMutability": "view",
      "type": "function"
    }
  ],
  "bytecode": "0x60806040523480156200001157600080fd5b5060405162002ccd38038062002ccd83398181016040528101906200003791906200014d565b81600560006101000a81548173ffffffffffffffffffffffffffffffffffffffff021916908373ffffffffffffffffffffffffffffffffffffffff16021790555080600481905550600560009054906101000a900473ffffffffffffffffffffffffffffffffffffffff1673ffffffffffffffffffffffffffffffffffffffff16639c1121416004546020306040518463ffffffff1660e01b8152600401620000e393929190620001c1565b600060405180830381600087803b158015620000fe57600080fd5b505af115801562000113573d6000803e3d6000fd5b50505050505062000298565b600081519050620001308162000264565b92915050565b60008151905062000147816200027e565b92915050565b600080604083850312156200016157600080fd5b600062000171858286016200011f565b9250506020620001848582860162000136565b9150509250929050565b6200019981620001fe565b82525050565b620001aa8162000250565b82525050565b620001bb8162000246565b82525050565b6000606082019050620001d86000830186620001b0565b620001e760208301856200019f565b620001f660408301846200018e565b949350505050565b60006200020b8262000226565b9050919050565b60006200021f82620001fe565b9050919050565b600073ffffffffffffffffffffffffffffffffffffffff82169050919050565b6000819050919050565b60006200025d8262000246565b9050919050565b6200026f8162000212565b81146200027b57600080fd5b50565b620002898162000246565b81146200029557600080fd5b50565b612a2580620002a86000396000f3fe60806040523480156200001157600080fd5b5060043610620000ac5760003560e01c80637b5d2534116200006f5780637b5d25341462000195578063afb7930214620001b7578063c0374c6814620001ed578063d225bb04146200020d578063d8f7a0bb146200022d57620000ac565b8063040c46ec14620000b15780630dcc651514620000e757806371af7870146200010957806376805335146200013f57806376cce607146200015f575b600080fd5b620000cf6004803603810190620000c9919062000a1d565b6200024d565b604051620000de919062000cf4565b60405180910390f35b620000f162000280565b60405162000100919062000c79565b60405180910390f35b62000127600480360381019062000121919062000a1d565b620003dd565b60405162000136919062000c9d565b60405180910390f35b6200015d600480360381019062000157919062000a8a565b62000407565b005b6200017d600480360381019062000177919062000a1d565b6200054c565b6040516200018c919062000c9d565b60405180910390f35b6200019f6200056c565b604051620001ae919062000cd7565b60405180910390f35b620001d56004803603810190620001cf919062000953565b62000592565b604051620001e4919062000c5c565b60405180910390f35b6200020b60048036038101906200020591906200097f565b620005c5565b005b6200022b600480360381019062000225919062000a49565b62000706565b005b6200024b600480360381019062000245919062000a1d565b620007ab565b005b60006020528060005260406000206000915054906101000a900473ffffffffffffffffffffffffffffffffffffffff1681565b6060600060035467ffffffffffffffff811115620002c7577f4e487b7100000000000000000000000000000000000000000000000000000000600052604160045260246000fd5b604051908082528060200260200182016040528015620002f65781602001602082028036833780820191505090505b5090506000600190505b6003548111620003d55760008082815260200190815260200160002060009054906101000a900473ffffffffffffffffffffffffffffffffffffffff16826001836200034d919062000f45565b8151811062000385577f4e487b7100000000000000000000000000000000000000000000000000000000600052603260045260246000fd5b602002602001019073ffffffffffffffffffffffffffffffffffffffff16908173ffffffffffffffffffffffffffffffffffffffff16815250508080620003cc90620010b3565b91505062000300565b508091505090565b60006002600083815260200190815260200160002060009054906101000a900460ff169050919050565b600560009054906101000a900473ffffffffffffffffffffffffffffffffffffffff1673ffffffffffffffffffffffffffffffffffffffff16633bc778e360045484888888876040518763ffffffff1660e01b8152600401620004709695949392919062000dc6565b600060405180830381600087803b1580156200048b57600080fd5b505af1158015620004a0573d6000803e3d6000fd5b5050505060008084815260200190815260200160002060009054906101000a900473ffffffffffffffffffffffffffffffffffffffff1673ffffffffffffffffffffffffffffffffffffffff16630121b93f866040518263ffffffff1660e01b815260040162000511919062000d11565b600060405180830381600087803b1580156200052c57600080fd5b505af115801562000541573d6000803e3d6000fd5b505050505050505050565b60026020528060005260406000206000915054906101000a900460ff1681565b600560009054906101000a900473ffffffffffffffffffffffffffffffffffffffff1681565b60016020528060005260406000206000915054906101000a900473ffffffffffffffffffffffffffffffffffffffff1681565b6000339050600160036000828254620005df919062000ee8565b92505081905550600060035486868686604051620005fd906200086f565b6200060d95949392919062000d2e565b604051809103906000f0801580156200062a573d6000803e3d6000fd5b50905080600080600354815260200190815260200160002060006101000a81548173ffffffffffffffffffffffffffffffffffffffff021916908373ffffffffffffffffffffffffffffffffffffffff16021790555081600160008373ffffffffffffffffffffffffffffffffffffffff1673ffffffffffffffffffffffffffffffffffffffff16815260200190815260200160002060006101000a81548173ffffffffffffffffffffffffffffffffffffffff021916908373ffffffffffffffffffffffffffffffffffffffff160217905550505050505050565b60008083815260200190815260200160002060009054906101000a900473ffffffffffffffffffffffffffffffffffffffff1673ffffffffffffffffffffffffffffffffffffffff1663230d6ed8826040518263ffffffff1660e01b815260040162000773919062000cba565b600060405180830381600087803b1580156200078e57600080fd5b505af1158015620007a3573d6000803e3d6000fd5b505050505050565b600560009054906101000a900473ffffffffffffffffffffffffffffffffffffffff1673ffffffffffffffffffffffffffffffffffffffff16631783efc3600454836040518363ffffffff1660e01b81526004016200080c92919062000d99565b600060405180830381600087803b1580156200082757600080fd5b505af11580156200083c573d6000803e3d6000fd5b5050505060016002600083815260200190815260200160002060006101000a81548160ff02191690831515021790555050565b61183180620011bf83390190565b6000620008946200088e8462000e5d565b62000e34565b905082815260208101848484011115620008ad57600080fd5b620008ba84828562001038565b509392505050565b600081905082602060080282011115620008db57600080fd5b92915050565b600081359050620008f28162001170565b92915050565b60008135905062000909816200118a565b92915050565b600082601f8301126200092157600080fd5b8135620009338482602086016200087d565b91505092915050565b6000813590506200094d81620011a4565b92915050565b6000602082840312156200096657600080fd5b60006200097684828501620008f8565b91505092915050565b600080600080608085870312156200099657600080fd5b600085013567ffffffffffffffff811115620009b157600080fd5b620009bf878288016200090f565b945050602085013567ffffffffffffffff811115620009dd57600080fd5b620009eb878288016200090f565b9350506040620009fe878288016200093c565b925050606062000a11878288016200093c565b91505092959194509250565b60006020828403121562000a3057600080fd5b600062000a40848285016200093c565b91505092915050565b6000806040838503121562000a5d57600080fd5b600062000a6d858286016200093c565b925050602062000a8085828601620008e1565b9150509250929050565b6000806000806000610180868803121562000aa457600080fd5b600062000ab4888289016200093c565b955050602062000ac7888289016200093c565b945050604062000ada888289016200093c565b935050606062000aed888289016200093c565b925050608062000b0088828901620008c2565b9150509295509295909350565b600062000b1b838362000b27565b60208301905092915050565b62000b328162000f80565b82525050565b62000b438162000f80565b82525050565b600062000b568262000ea3565b62000b62818562000ec6565b935062000b6f8362000e93565b8060005b8381101562000ba657815162000b8a888262000b0d565b975062000b978362000eb9565b92505060018101905062000b73565b5085935050505092915050565b62000bc2610100838362001038565b5050565b62000bd18162000f94565b82525050565b62000be28162000fa0565b82525050565b62000bf38162000fe8565b82525050565b62000c048162001010565b82525050565b600062000c178262000eae565b62000c23818562000ed7565b935062000c3581856020860162001047565b62000c40816200115f565b840191505092915050565b62000c568162000fde565b82525050565b600060208201905062000c73600083018462000b38565b92915050565b6000602082019050818103600083015262000c95818462000b49565b905092915050565b600060208201905062000cb4600083018462000bc6565b92915050565b600060208201905062000cd1600083018462000bd7565b92915050565b600060208201905062000cee600083018462000be8565b92915050565b600060208201905062000d0b600083018462000bf9565b92915050565b600060208201905062000d28600083018462000c4b565b92915050565b600060a08201905062000d45600083018862000c4b565b818103602083015262000d59818762000c0a565b9050818103604083015262000d6f818662000c0a565b905062000d80606083018562000c4b565b62000d8f608083018462000c4b565b9695505050505050565b600060408201905062000db0600083018562000c4b565b62000dbf602083018462000c4b565b9392505050565b60006101a08201905062000dde600083018962000c4b565b62000ded602083018862000c4b565b62000dfc604083018762000c4b565b62000e0b606083018662000c4b565b62000e1a608083018562000c4b565b62000e2960a083018462000bb3565b979650505050505050565b600062000e4062000e53565b905062000e4e82826200107d565b919050565b6000604051905090565b600067ffffffffffffffff82111562000e7b5762000e7a62001130565b5b62000e86826200115f565b9050602081019050919050565b6000819050602082019050919050565b600081519050919050565b600081519050919050565b6000602082019050919050565b600082825260208201905092915050565b600082825260208201905092915050565b600062000ef58262000fde565b915062000f028362000fde565b9250827fffffffffffffffffffffffffffffffffffffffffffffffffffffffffffffffff0382111562000f3a5762000f3962001101565b5b828201905092915050565b600062000f528262000fde565b915062000f5f8362000fde565b92508282101562000f755762000f7462001101565b5b828203905092915050565b600062000f8d8262000fbe565b9050919050565b60008115159050919050565b6000819050919050565b600062000fb78262000f80565b9050919050565b600073ffffffffffffffffffffffffffffffffffffffff82169050919050565b6000819050919050565b600062000ff58262000ffc565b9050919050565b6000620010098262000fbe565b9050919050565b60006200101d8262001024565b9050919050565b6000620010318262000fbe565b9050919050565b82818337600083830152505050565b60005b83811015620010675780820151818401526020810190506200104a565b8381111562001077576000848401525b50505050565b62001088826200115f565b810181811067ffffffffffffffff82111715620010aa57620010a962001130565b5b80604052505050565b6000620010c08262000fde565b91507fffffffffffffffffffffffffffffffffffffffffffffffffffffffffffffffff821415620010f657620010f562001101565b5b600182019050919050565b7f4e487b7100000000000000000000000000000000000000000000000000000000600052601160045260246000fd5b7f4e487b7100000000000000000000000000000000000000000000000000000000600052604160045260246000fd5b6000601f19601f8301169050919050565b6200117b8162000fa0565b81146200118757600080fd5b50565b620011958162000faa565b8114620011a157600080fd5b50565b620011af8162000fde565b8114620011bb57600080fd5b5056fe60806040523480156200001157600080fd5b5060405162001831380380620018318339818101604052810190620000379190620002a2565b8181116200007c576040517f08c379a000000000000000000000000000000000000000000000000000000000815260040162000073906200037d565b60405180910390fd5b33600960016101000a81548173ffffffffffffffffffffffffffffffffffffffff021916908373ffffffffffffffffffffffffffffffffffffffff160217905550846000819055508360019080519060200190620000dc92919062000169565b508260029080519060200190620000f592919062000169565b5081600381905550806004819055506000600960006101000a81548160ff0219169083600281111562000151577f4e487b7100000000000000000000000000000000000000000000000000000000600052602160045260246000fd5b02179055506000600581905550505050505062000593565b82805462000177906200044f565b90600052602060002090601f0160209004810192826200019b5760008555620001e7565b82601f10620001b657805160ff1916838001178555620001e7565b82800160010185558215620001e7579182015b82811115620001e6578251825591602001919060010190620001c9565b5b509050620001f69190620001fa565b5090565b5b8082111562000215576000816000905550600101620001fb565b5090565b6000620002306200022a84620003c8565b6200039f565b9050828152602081018484840111156200024957600080fd5b6200025684828562000419565b509392505050565b600082601f8301126200027057600080fd5b81516200028284826020860162000219565b91505092915050565b6000815190506200029c8162000579565b92915050565b600080600080600060a08688031215620002bb57600080fd5b6000620002cb888289016200028b565b955050602086015167ffffffffffffffff811115620002e957600080fd5b620002f7888289016200025e565b945050604086015167ffffffffffffffff8111156200031557600080fd5b62000323888289016200025e565b935050606062000336888289016200028b565b925050608062000349888289016200028b565b9150509295509295909350565b600062000365602183620003fe565b915062000372826200052a565b604082019050919050565b60006020820190508181036000830152620003988162000356565b9050919050565b6000620003ab620003be565b9050620003b9828262000485565b919050565b6000604051905090565b600067ffffffffffffffff821115620003e657620003e5620004ea565b5b620003f18262000519565b9050602081019050919050565b600082825260208201905092915050565b6000819050919050565b60005b83811015620004395780820151818401526020810190506200041c565b8381111562000449576000848401525b50505050565b600060028204905060018216806200046857607f821691505b602082108114156200047f576200047e620004bb565b5b50919050565b620004908262000519565b810181811067ffffffffffffffff82111715620004b257620004b1620004ea565b5b80604052505050565b7f4e487b7100000000000000000000000000000000000000000000000000000000600052602260045260246000fd5b7f4e487b7100000000000000000000000000000000000000000000000000000000600052604160045260246000fd5b6000601f19601f8301169050919050565b7f456e642064617465206d7573742062652061667465722073746172742064617460008201527f6500000000000000000000000000000000000000000000000000000000000000602082015250565b62000584816200040f565b81146200059057600080fd5b50565b61128e80620005a36000396000f3fe608060405234801561001057600080fd5b506004361061010b5760003560e01c80637284e416116100a2578063c24a0f8b11610071578063c24a0f8b14610298578063cb5a69a9146102b6578063e0d38faf146102d5578063ef8a923514610305578063f927cc29146103235761010b565b80637284e4161461022057806378f305c61461023e578063af640d0f1461025c578063b13564881461027a5761010b565b8063230d6ed8116100de578063230d6ed814610186578063299c8036146101a25780633477ee2e146101d25780634e69d560146102025761010b565b80630121b93f1461011057806306a49fce1461012c57806306fdde031461014a5780630b97bc8614610168575b600080fd5b61012a60048036038101906101259190610bdb565b610342565b005b610134610435565b6040516101419190610ddd565b60405180910390f35b61015261048d565b60405161015f9190610e95565b60405180910390f35b61017061051b565b60405161017d9190610f17565b60405180910390f35b6101a0600480360381019061019b9190610bb2565b610521565b005b6101bc60048036038101906101b79190610bdb565b610646565b6040516101c99190610e36565b60405180910390f35b6101ec60048036038101906101e79190610bdb565b61065e565b6040516101f99190610e36565b60405180910390f35b61020a610682565b6040516102179190610e7a565b60405180910390f35b6102286106c0565b6040516102359190610e95565b60405180910390f35b61024661074e565b6040516102539190610f17565b60405180910390f35b610264610758565b6040516102719190610f17565b60405180910390f35b61028261075e565b60405161028f9190610f17565b60405180910390f35b6102a0610768565b6040516102ad9190610f17565b60405180910390f35b6102be61076e565b6040516102cc929190610dff565b60405180910390f35b6102ef60048036038101906102ea9190610bb2565b610908565b6040516102fc9190610f17565b60405180910390f35b61030d610920565b60405161031a9190610e7a565b60405180910390f35b61032b610933565b604051610339929190610e51565b60405180910390f35b6000600760008381526020019081526020016000205490507fffffffffffffffffffffffffffffffffffffffffffffffffffffffffffffffff6008600083815260200190815260200160002054106103cf576040517f08c379a00000000000000000000000000000000000000000000000000000000081526004016103c690610eb7565b60405180910390fd5b60016008600083815260200190815260200160002060008282546103f39190610fc0565b925050819055507f58b57dcb93683e0d6141a7cf94961e9bb5d530ac24c156a936d2592b32ef9736816040516104299190610e36565b60405180910390a15050565b6060600680548060200260200160405190810160405280929190818152602001828054801561048357602002820191906000526020600020905b81548152602001906001019080831161046f575b5050505050905090565b6001805461049a90611082565b80601f01602080910402602001604051908101604052809291908181526020018280546104c690611082565b80156105135780601f106104e857610100808354040283529160200191610513565b820191906000526020600020905b8154815290600101906020018083116104f657829003601f168201915b505050505081565b60035481565b600960019054906101000a900473ffffffffffffffffffffffffffffffffffffffff1673ffffffffffffffffffffffffffffffffffffffff163373ffffffffffffffffffffffffffffffffffffffff16146105b1576040517f08c379a00000000000000000000000000000000000000000000000000000000081526004016105a890610ef7565b60405180910390fd5b6006819080600181540180825580915050600190039060005260206000200160009091909190915055806007600060055481526020019081526020016000208190555060056000815480929190610607906110b4565b91905055507f1ca6455dcb14c395e267f0f1f437ef528cbd7259d0ac82309627fcac2e9d801c8160405161063b9190610e36565b60405180910390a150565b60076020528060005260406000206000915090505481565b6006818154811061066e57600080fd5b906000526020600020016000915090505481565b600060035442101561069757600090506106bd565b60035442101580156106aa575060045442105b156106b857600190506106bd565b600290505b90565b600280546106cd90611082565b80601f01602080910402602001604051908101604052809291908181526020018280546106f990611082565b80156107465780601f1061071b57610100808354040283529160200191610746565b820191906000526020600020905b81548152906001019060200180831161072957829003601f168201915b505050505081565b6000600354905090565b60005481565b6000600454905090565b60045481565b606080600060068054905067ffffffffffffffff8111156107b8577f4e487b7100000000000000000000000000000000000000000000000000000000600052604160045260246000fd5b6040519080825280602002602001820160405280156107e65781602001602082028036833780820191505090505b50905060005b6006805490508110156108a9576008600060068381548110610837577f4e487b7100000000000000000000000000000000000000000000000000000000600052603260045260246000fd5b906000526020600020015481526020019081526020016000205482828151811061088a577f4e487b7100000000000000000000000000000000000000000000000000000000600052603260045260246000fd5b60200260200101818152505080806108a1906110b4565b9150506107ec565b50600681818054806020026020016040519081016040528092919081815260200182805480156108f857602002820191906000526020600020905b8154815260200190600101908083116108e4575b5050505050915092509250509091565b60086020528060005260406000206000915090505481565b600960009054906101000a900460ff1681565b6000806002610940610682565b600960006101000a81548160ff0219169083600281111561098a577f4e487b7100000000000000000000000000000000000000000000000000000000600052602160045260246000fd5b02179055508060028111156109c8577f4e487b7100000000000000000000000000000000000000000000000000000000600052602160045260246000fd5b600960009054906101000a900460ff166002811115610a10577f4e487b7100000000000000000000000000000000000000000000000000000000600052602160045260246000fd5b14610a50576040517f08c379a0000000000000000000000000000000000000000000000000000000008152600401610a4790610ed7565b60405180910390fd5b60008080600090505b600680549050811015610b7a57826008600060068481548110610aa5577f4e487b7100000000000000000000000000000000000000000000000000000000600052603260045260246000fd5b90600052602060002001548152602001908152602001600020541115610b675760068181548110610aff577f4e487b7100000000000000000000000000000000000000000000000000000000600052603260045260246000fd5b906000526020600020015491506008600060068381548110610b4a577f4e487b7100000000000000000000000000000000000000000000000000000000600052603260045260246000fd5b906000526020600020015481526020019081526020016000205492505b8080610b72906110b4565b915050610a59565b508082945094505050509091565b600081359050610b978161122a565b92915050565b600081359050610bac81611241565b92915050565b600060208284031215610bc457600080fd5b6000610bd284828501610b88565b91505092915050565b600060208284031215610bed57600080fd5b6000610bfb84828501610b9d565b91505092915050565b6000610c108383610cf0565b60208301905092915050565b6000610c288383610dbf565b60208301905092915050565b6000610c3f82610f52565b610c498185610f8d565b9350610c5483610f32565b8060005b83811015610c85578151610c6c8882610c04565b9750610c7783610f73565b925050600181019050610c58565b5085935050505092915050565b6000610c9d82610f5d565b610ca78185610f9e565b9350610cb283610f42565b8060005b83811015610ce3578151610cca8882610c1c565b9750610cd583610f80565b925050600181019050610cb6565b5085935050505092915050565b610cf981611016565b82525050565b610d0881611016565b82525050565b610d178161103d565b82525050565b6000610d2882610f68565b610d328185610faf565b9350610d4281856020860161104f565b610d4b8161118a565b840191505092915050565b6000610d63601383610faf565b9150610d6e8261119b565b602082019050919050565b6000610d86601783610faf565b9150610d91826111c4565b602082019050919050565b6000610da9600e83610faf565b9150610db4826111ed565b602082019050919050565b610dc881611033565b82525050565b610dd781611033565b82525050565b60006020820190508181036000830152610df78184610c34565b905092915050565b60006040820190508181036000830152610e198185610c34565b90508181036020830152610e2d8184610c92565b90509392505050565b6000602082019050610e4b6000830184610cff565b92915050565b6000604082019050610e666000830185610cff565b610e736020830184610dce565b9392505050565b6000602082019050610e8f6000830184610d0e565b92915050565b60006020820190508181036000830152610eaf8184610d1d565b905092915050565b60006020820190508181036000830152610ed081610d56565b9050919050565b60006020820190508181036000830152610ef081610d79565b9050919050565b60006020820190508181036000830152610f1081610d9c565b9050919050565b6000602082019050610f2c6000830184610dce565b92915050565b6000819050602082019050919050565b6000819050602082019050919050565b600081519050919050565b600081519050919050565b600081519050919050565b6000602082019050919050565b6000602082019050919050565b600082825260208201905092915050565b600082825260208201905092915050565b600082825260208201905092915050565b6000610fcb82611033565b9150610fd683611033565b9250827fffffffffffffffffffffffffffffffffffffffffffffffffffffffffffffffff0382111561100b5761100a6110fd565b5b828201905092915050565b6000819050919050565b600081905061102e82611216565b919050565b6000819050919050565b600061104882611020565b9050919050565b60005b8381101561106d578082015181840152602081019050611052565b8381111561107c576000848401525b50505050565b6000600282049050600182168061109a57607f821691505b602082108114156110ae576110ad61115b565b5b50919050565b60006110bf82611033565b91507fffffffffffffffffffffffffffffffffffffffffffffffffffffffffffffffff8214156110f2576110f16110fd565b5b600182019050919050565b7f4e487b7100000000000000000000000000000000000000000000000000000000600052601160045260246000fd5b7f4e487b7100000000000000000000000000000000000000000000000000000000600052602160045260246000fd5b7f4e487b7100000000000000000000000000000000000000000000000000000000600052602260045260246000fd5b6000601f19601f8301169050919050565b7f566f746520636f756e74206f766572666c6f7700000000000000000000000000600082015250565b7f496e76616c696420656c656374696f6e20737461747573000000000000000000600082015250565b7f4e6f7420617574686f72697a6564000000000000000000000000000000000000600082015250565b600381106112275761122661112c565b5b50565b61123381611016565b811461123e57600080fd5b50565b61124a81611033565b811461125557600080fd5b5056fea2646970667358221220e6f44218418f2cd3b0cb451f38ab0042707d21f790528866b40a2e0f4f74cfb464736f6c63430008040033a26469706673582212200be4829933c41635cd9303883dfb930aa304187a211ef51f1cd0b4e4b97a1c2764736f6c63430008040033",
  "linkReferences": {},
  "deployedLinkReferences": {}
}