{
  "_format": "hh-sol-artifact-1",
  "contractName": "ElectionFactory",
  "sourceName": "contracts/ElectionFactory.sol",
  "abi": [
    {
      "inputs": [
        {
          "internalType": "address",
          "name": "router",
          "type": "address"
        }
      ],
      "stateMutability": "nonpayable",
      "type": "constructor"
    },
    {
      "inputs": [
        {
          "internalType": "address",
          "name": "router",
          "type": "address"
        }
      ],
      "name": "InvalidRouter",
      "type": "error"
    },
    {
      "inputs": [],
      "name": "NotWhitelistedSender",
      "type": "error"
    },
    {
      "inputs": [],
      "name": "OnlyOwner",
      "type": "error"
    },
    {
      "inputs": [],
      "name": "OwnerRestricted",
      "type": "error"
    },
    {
      "anonymous": false,
      "inputs": [
        {
          "indexed": true,
          "internalType": "bytes32",
          "name": "messageId",
          "type": "bytes32"
        },
        {
          "indexed": true,
          "internalType": "uint64",
          "name": "sourceChainSelector",
          "type": "uint64"
        },
        {
          "indexed": false,
          "internalType": "address",
          "name": "sender",
          "type": "address"
        }
      ],
      "name": "MessageReceived",
      "type": "event"
    },
    {
      "inputs": [
        {
          "internalType": "uint64",
          "name": "_sourceChainSelector",
          "type": "uint64"
        },
        {
          "internalType": "address",
          "name": "_contractAddress",
          "type": "address"
        }
      ],
      "name": "addWhitelistedContract",
      "outputs": [],
      "stateMutability": "nonpayable",
      "type": "function"
    },
    {
      "inputs": [
        {
          "components": [
            {
              "internalType": "bytes32",
              "name": "messageId",
              "type": "bytes32"
            },
            {
              "internalType": "uint64",
              "name": "sourceChainSelector",
              "type": "uint64"
            },
            {
              "internalType": "bytes",
              "name": "sender",
              "type": "bytes"
            },
            {
              "internalType": "bytes",
              "name": "data",
              "type": "bytes"
            },
            {
              "components": [
                {
                  "internalType": "address",
                  "name": "token",
                  "type": "address"
                },
                {
                  "internalType": "uint256",
                  "name": "amount",
                  "type": "uint256"
                }
              ],
              "internalType": "struct Client.EVMTokenAmount[]",
              "name": "destTokenAmounts",
              "type": "tuple[]"
            }
          ],
          "internalType": "struct Client.Any2EVMMessage",
          "name": "message",
          "type": "tuple"
        }
      ],
      "name": "ccipReceive",
      "outputs": [],
      "stateMutability": "nonpayable",
      "type": "function"
    },
    {
      "inputs": [
        {
          "components": [
            {
              "internalType": "uint256",
              "name": "startTime",
              "type": "uint256"
            },
            {
              "internalType": "uint256",
              "name": "endTime",
              "type": "uint256"
            },
            {
              "internalType": "string",
              "name": "name",
              "type": "string"
            },
            {
              "internalType": "string",
              "name": "description",
              "type": "string"
            }
          ],
          "internalType": "struct Election.ElectionInfo",
          "name": "_electionInfo",
          "type": "tuple"
        },
        {
          "internalType": "uint256",
          "name": "_ballotType",
          "type": "uint256"
        },
        {
          "internalType": "uint256",
          "name": "_resultType",
          "type": "uint256"
        }
      ],
      "name": "createElection",
      "outputs": [],
      "stateMutability": "nonpayable",
      "type": "function"
    },
    {
      "inputs": [
        {
          "internalType": "uint256",
          "name": "_electionId",
          "type": "uint256"
        }
      ],
      "name": "deleteElection",
      "outputs": [],
      "stateMutability": "nonpayable",
      "type": "function"
    },
    {
      "inputs": [],
      "name": "factoryOwner",
      "outputs": [
        {
          "internalType": "address",
          "name": "",
          "type": "address"
        }
      ],
      "stateMutability": "view",
      "type": "function"
    },
    {
      "inputs": [],
      "name": "getOpenElections",
      "outputs": [
        {
          "internalType": "address[]",
          "name": "",
          "type": "address[]"
        }
      ],
      "stateMutability": "view",
      "type": "function"
    },
    {
      "inputs": [],
      "name": "getRouter",
      "outputs": [
        {
          "internalType": "address",
          "name": "",
          "type": "address"
        }
      ],
      "stateMutability": "view",
      "type": "function"
    },
    {
      "inputs": [
        {
          "internalType": "uint256",
          "name": "",
          "type": "uint256"
        }
      ],
      "name": "openBasedElections",
      "outputs": [
        {
          "internalType": "address",
          "name": "",
          "type": "address"
        }
      ],
      "stateMutability": "view",
      "type": "function"
    },
    {
      "inputs": [
        {
          "internalType": "uint64",
          "name": "_sourceChainSelector",
          "type": "uint64"
        }
      ],
      "name": "removeWhitelistedContract",
      "outputs": [],
      "stateMutability": "nonpayable",
      "type": "function"
    },
    {
      "inputs": [
        {
          "internalType": "bytes4",
          "name": "interfaceId",
          "type": "bytes4"
        }
      ],
      "name": "supportsInterface",
      "outputs": [
        {
          "internalType": "bool",
          "name": "",
          "type": "bool"
        }
      ],
      "stateMutability": "pure",
      "type": "function"
    }
  ],
  "bytecode": "0x60e06040523480156200001157600080fd5b506040516200b82b3803806200b82b8339818101604052810190620000379190620002e7565b80600073ffffffffffffffffffffffffffffffffffffffff168173ffffffffffffffffffffffffffffffffffffffff1603620000ad5760006040517fd7f73334000000000000000000000000000000000000000000000000000000008152600401620000a491906200032a565b60405180910390fd5b8073ffffffffffffffffffffffffffffffffffffffff1660808173ffffffffffffffffffffffffffffffffffffffff168152505050336000806101000a81548173ffffffffffffffffffffffffffffffffffffffff021916908373ffffffffffffffffffffffffffffffffffffffff160217905550604051620001309062000253565b604051809103906000f0801580156200014d573d6000803e3d6000fd5b5073ffffffffffffffffffffffffffffffffffffffff1660c08173ffffffffffffffffffffffffffffffffffffffff16815250506040516200018f9062000261565b604051809103906000f080158015620001ac573d6000803e3d6000fd5b50600260006101000a81548173ffffffffffffffffffffffffffffffffffffffff021916908373ffffffffffffffffffffffffffffffffffffffff160217905550604051620001fb906200026f565b604051809103906000f08015801562000218573d6000803e3d6000fd5b5073ffffffffffffffffffffffffffffffffffffffff1660a08173ffffffffffffffffffffffffffffffffffffffff16815250505062000347565b612308806200208e83390190565b61569d806200439683390190565b611df88062009a3383390190565b600080fd5b600073ffffffffffffffffffffffffffffffffffffffff82169050919050565b6000620002af8262000282565b9050919050565b620002c181620002a2565b8114620002cd57600080fd5b50565b600081519050620002e181620002b6565b92915050565b6000602082840312156200030057620002ff6200027d565b5b60006200031084828501620002d0565b91505092915050565b6200032481620002a2565b82525050565b600060208201905062000341600083018462000319565b92915050565b60805160a05160c051611d106200037e60003960006107c5015260006108b6015260008181610604015261079a0152611d106000f3fe608060405234801561001057600080fd5b506004361061009e5760003560e01c806385572ffb1161006657806385572ffb1461015b5780639e1aaea114610177578063b0f479a114610193578063e98d594c146101b1578063ef50da53146101cd5761009e565b806301ffc9a7146100a357806320de2ee6146100d35780634273601c1461010357806363970f5614610121578063740c47d41461013f575b600080fd5b6100bd60048036038101906100b89190610dd2565b6101e9565b6040516100ca9190610e1a565b60405180910390f35b6100ed60048036038101906100e89190610e6b565b6102bb565b6040516100fa9190610ed9565b60405180910390f35b61010b6102fa565b6040516101189190610ed9565b60405180910390f35b61012961031e565b6040516101369190610fb2565b60405180910390f35b61015960048036038101906101549190610e6b565b6103ac565b005b61017560048036038101906101709190610ff8565b610602565b005b610191600480360381019061018c91906110ad565b6106a7565b005b61019b610796565b6040516101a89190610ed9565b60405180910390f35b6101cb60048036038101906101c691906112ed565b6107be565b005b6101e760048036038101906101e2919061135c565b6109e9565b005b60007f85572ffb000000000000000000000000000000000000000000000000000000007bffffffffffffffffffffffffffffffffffffffffffffffffffffffff1916827bffffffffffffffffffffffffffffffffffffffffffffffffffffffff191614806102b457507f01ffc9a7000000000000000000000000000000000000000000000000000000007bffffffffffffffffffffffffffffffffffffffffffffffffffffffff1916827bffffffffffffffffffffffffffffffffffffffffffffffffffffffff1916145b9050919050565b600181815481106102cb57600080fd5b906000526020600020016000915054906101000a900473ffffffffffffffffffffffffffffffffffffffff1681565b60008054906101000a900473ffffffffffffffffffffffffffffffffffffffff1681565b606060018054806020026020016040519081016040528092919081815260200182805480156103a257602002820191906000526020600020905b8160009054906101000a900473ffffffffffffffffffffffffffffffffffffffff1673ffffffffffffffffffffffffffffffffffffffff1681526020019060010190808311610358575b5050505050905090565b3373ffffffffffffffffffffffffffffffffffffffff166003600083815260200190815260200160002060009054906101000a900473ffffffffffffffffffffffffffffffffffffffff1673ffffffffffffffffffffffffffffffffffffffff1614610444576040517f5fc483c500000000000000000000000000000000000000000000000000000000815260040160405180910390fd5b60006001808054905061045791906113b8565b90508082146105815760018181548110610474576104736113ec565b5b9060005260206000200160009054906101000a900473ffffffffffffffffffffffffffffffffffffffff16600183815481106104b3576104b26113ec565b5b9060005260206000200160006101000a81548173ffffffffffffffffffffffffffffffffffffffff021916908373ffffffffffffffffffffffffffffffffffffffff1602179055506003600082815260200190815260200160002060009054906101000a900473ffffffffffffffffffffffffffffffffffffffff166003600084815260200190815260200160002060006101000a81548173ffffffffffffffffffffffffffffffffffffffff021916908373ffffffffffffffffffffffffffffffffffffffff1602179055505b60018054806105935761059261141b565b5b6001900381819060005260206000200160006101000a81549073ffffffffffffffffffffffffffffffffffffffff021916905590556003600082815260200190815260200160002060006101000a81549073ffffffffffffffffffffffffffffffffffffffff02191690555050565b7f000000000000000000000000000000000000000000000000000000000000000073ffffffffffffffffffffffffffffffffffffffff163373ffffffffffffffffffffffffffffffffffffffff161461069257336040517fd7f733340000000000000000000000000000000000000000000000000000000081526004016106899190610ed9565b60405180910390fd5b6106a48161069f90611719565b610ad8565b50565b60008054906101000a900473ffffffffffffffffffffffffffffffffffffffff1673ffffffffffffffffffffffffffffffffffffffff163373ffffffffffffffffffffffffffffffffffffffff161461072c576040517fd4c711d600000000000000000000000000000000000000000000000000000000815260040160405180910390fd5b80600460008467ffffffffffffffff1667ffffffffffffffff16815260200190815260200160002060006101000a81548173ffffffffffffffffffffffffffffffffffffffff021916908373ffffffffffffffffffffffffffffffffffffffff1602179055505050565b60007f0000000000000000000000000000000000000000000000000000000000000000905090565b60006107e97f0000000000000000000000000000000000000000000000000000000000000000610c2a565b90506000600260009054906101000a900473ffffffffffffffffffffffffffffffffffffffff1673ffffffffffffffffffffffffffffffffffffffff166390b352f785846040518363ffffffff1660e01b815260040161084a92919061173b565b6020604051808303816000875af1158015610869573d6000803e3d6000fd5b505050506040513d601f19601f8201168201806040525081019061088d9190611779565b905060008290508073ffffffffffffffffffffffffffffffffffffffff16636439684c878685337f00000000000000000000000000000000000000000000000000000000000000006040518663ffffffff1660e01b81526004016108f595949392919061189e565b600060405180830381600087803b15801561090f57600080fd5b505af1158015610923573d6000803e3d6000fd5b505050503360036000600180549050815260200190815260200160002060006101000a81548173ffffffffffffffffffffffffffffffffffffffff021916908373ffffffffffffffffffffffffffffffffffffffff1602179055506001819080600181540180825580915050600190039060005260206000200160009091909190916101000a81548173ffffffffffffffffffffffffffffffffffffffff021916908373ffffffffffffffffffffffffffffffffffffffff160217905550505050505050565b60008054906101000a900473ffffffffffffffffffffffffffffffffffffffff1673ffffffffffffffffffffffffffffffffffffffff163373ffffffffffffffffffffffffffffffffffffffff1614610a6e576040517fd4c711d600000000000000000000000000000000000000000000000000000000815260040160405180910390fd5b6000600460008367ffffffffffffffff1667ffffffffffffffff16815260200190815260200160002060006101000a81548173ffffffffffffffffffffffffffffffffffffffff021916908373ffffffffffffffffffffffffffffffffffffffff16021790555050565b8060400151806020019051810190610af09190611936565b73ffffffffffffffffffffffffffffffffffffffff1660046000836020015167ffffffffffffffff1667ffffffffffffffff16815260200190815260200160002060009054906101000a900473ffffffffffffffffffffffffffffffffffffffff1673ffffffffffffffffffffffffffffffffffffffff1614610b9f576040517fd79a227a00000000000000000000000000000000000000000000000000000000815260040160405180910390fd5b60008160600151806020019051810190610bb99190611abb565b9050610bc481610ce4565b816020015167ffffffffffffffff1682600001517fcde44b4f1d4a51abfed5cbe2b4ae24632539d99980c5988af6d4e2eb990c235a8460400151806020019051810190610c119190611936565b604051610c1e9190611b63565b60405180910390a35050565b6000763d602d80600a3d3981f3363d3d373d3d3d363d730000008260601b60e81c176000526e5af43d82803e903d91602b57fd5bf38260781b17602052603760096000f09050600073ffffffffffffffffffffffffffffffffffffffff168173ffffffffffffffffffffffffffffffffffffffff1603610cdf576040517f08c379a0000000000000000000000000000000000000000000000000000000008152600401610cd690611bdb565b60405180910390fd5b919050565b6000816000015190508073ffffffffffffffffffffffffffffffffffffffff1663510c2d0d836020015184604001516040518363ffffffff1660e01b8152600401610d30929190611caa565b600060405180830381600087803b158015610d4a57600080fd5b505af1158015610d5e573d6000803e3d6000fd5b505050505050565b6000604051905090565b600080fd5b600080fd5b60007fffffffff0000000000000000000000000000000000000000000000000000000082169050919050565b610daf81610d7a565b8114610dba57600080fd5b50565b600081359050610dcc81610da6565b92915050565b600060208284031215610de857610de7610d70565b5b6000610df684828501610dbd565b91505092915050565b60008115159050919050565b610e1481610dff565b82525050565b6000602082019050610e2f6000830184610e0b565b92915050565b6000819050919050565b610e4881610e35565b8114610e5357600080fd5b50565b600081359050610e6581610e3f565b92915050565b600060208284031215610e8157610e80610d70565b5b6000610e8f84828501610e56565b91505092915050565b600073ffffffffffffffffffffffffffffffffffffffff82169050919050565b6000610ec382610e98565b9050919050565b610ed381610eb8565b82525050565b6000602082019050610eee6000830184610eca565b92915050565b600081519050919050565b600082825260208201905092915050565b6000819050602082019050919050565b610f2981610eb8565b82525050565b6000610f3b8383610f20565b60208301905092915050565b6000602082019050919050565b6000610f5f82610ef4565b610f698185610eff565b9350610f7483610f10565b8060005b83811015610fa5578151610f8c8882610f2f565b9750610f9783610f47565b925050600181019050610f78565b5085935050505092915050565b60006020820190508181036000830152610fcc8184610f54565b905092915050565b600080fd5b600060a08284031215610fef57610fee610fd4565b5b81905092915050565b60006020828403121561100e5761100d610d70565b5b600082013567ffffffffffffffff81111561102c5761102b610d75565b5b61103884828501610fd9565b91505092915050565b600067ffffffffffffffff82169050919050565b61105e81611041565b811461106957600080fd5b50565b60008135905061107b81611055565b92915050565b61108a81610eb8565b811461109557600080fd5b50565b6000813590506110a781611081565b92915050565b600080604083850312156110c4576110c3610d70565b5b60006110d28582860161106c565b92505060206110e385828601611098565b9150509250929050565b600080fd5b6000601f19601f8301169050919050565b7f4e487b7100000000000000000000000000000000000000000000000000000000600052604160045260246000fd5b61113b826110f2565b810181811067ffffffffffffffff8211171561115a57611159611103565b5b80604052505050565b600061116d610d66565b90506111798282611132565b919050565b600080fd5b600080fd5b600080fd5b600067ffffffffffffffff8211156111a8576111a7611103565b5b6111b1826110f2565b9050602081019050919050565b82818337600083830152505050565b60006111e06111db8461118d565b611163565b9050828152602081018484840111156111fc576111fb611188565b5b6112078482856111be565b509392505050565b600082601f83011261122457611223611183565b5b81356112348482602086016111cd565b91505092915050565b600060808284031215611253576112526110ed565b5b61125d6080611163565b9050600061126d84828501610e56565b600083015250602061128184828501610e56565b602083015250604082013567ffffffffffffffff8111156112a5576112a461117e565b5b6112b18482850161120f565b604083015250606082013567ffffffffffffffff8111156112d5576112d461117e565b5b6112e18482850161120f565b60608301525092915050565b60008060006060848603121561130657611305610d70565b5b600084013567ffffffffffffffff81111561132457611323610d75565b5b6113308682870161123d565b935050602061134186828701610e56565b925050604061135286828701610e56565b9150509250925092565b60006020828403121561137257611371610d70565b5b60006113808482850161106c565b91505092915050565b7f4e487b7100000000000000000000000000000000000000000000000000000000600052601160045260246000fd5b60006113c382610e35565b91506113ce83610e35565b92508282039050818111156113e6576113e5611389565b5b92915050565b7f4e487b7100000000000000000000000000000000000000000000000000000000600052603260045260246000fd5b7f4e487b7100000000000000000000000000000000000000000000000000000000600052603160045260246000fd5b6000819050919050565b61145d8161144a565b811461146857600080fd5b50565b60008135905061147a81611454565b92915050565b600067ffffffffffffffff82111561149b5761149a611103565b5b6114a4826110f2565b9050602081019050919050565b60006114c46114bf84611480565b611163565b9050828152602081018484840111156114e0576114df611188565b5b6114eb8482856111be565b509392505050565b600082601f83011261150857611507611183565b5b81356115188482602086016114b1565b91505092915050565b600067ffffffffffffffff82111561153c5761153b611103565b5b602082029050602081019050919050565b600080fd5b600060408284031215611568576115676110ed565b5b6115726040611163565b9050600061158284828501611098565b600083015250602061159684828501610e56565b60208301525092915050565b60006115b56115b084611521565b611163565b905080838252602082019050604084028301858111156115d8576115d761154d565b5b835b8181101561160157806115ed8882611552565b8452602084019350506040810190506115da565b5050509392505050565b600082601f8301126116205761161f611183565b5b81356116308482602086016115a2565b91505092915050565b600060a0828403121561164f5761164e6110ed565b5b61165960a0611163565b905060006116698482850161146b565b600083015250602061167d8482850161106c565b602083015250604082013567ffffffffffffffff8111156116a1576116a061117e565b5b6116ad848285016114f3565b604083015250606082013567ffffffffffffffff8111156116d1576116d061117e565b5b6116dd848285016114f3565b606083015250608082013567ffffffffffffffff8111156117015761170061117e565b5b61170d8482850161160b565b60808301525092915050565b60006117253683611639565b9050919050565b61173581610e35565b82525050565b6000604082019050611750600083018561172c565b61175d6020830184610eca565b9392505050565b60008151905061177381611081565b92915050565b60006020828403121561178f5761178e610d70565b5b600061179d84828501611764565b91505092915050565b6117af81610e35565b82525050565b600081519050919050565b600082825260208201905092915050565b60005b838110156117ef5780820151818401526020810190506117d4565b60008484015250505050565b6000611806826117b5565b61181081856117c0565b93506118208185602086016117d1565b611829816110f2565b840191505092915050565b600060808301600083015161184c60008601826117a6565b50602083015161185f60208601826117a6565b506040830151848203604086015261187782826117fb565b9150506060830151848203606086015261189182826117fb565b9150508091505092915050565b600060a08201905081810360008301526118b88188611834565b90506118c7602083018761172c565b6118d46040830186610eca565b6118e16060830185610eca565b6118ee6080830184610eca565b9695505050505050565b600061190382610e98565b9050919050565b611913816118f8565b811461191e57600080fd5b50565b6000815190506119308161190a565b92915050565b60006020828403121561194c5761194b610d70565b5b600061195a84828501611921565b91505092915050565b600067ffffffffffffffff82111561197e5761197d611103565b5b602082029050602081019050919050565b60008151905061199e81610e3f565b92915050565b60006119b76119b284611963565b611163565b905080838252602082019050602084028301858111156119da576119d961154d565b5b835b81811015611a0357806119ef888261198f565b8452602084019350506020810190506119dc565b5050509392505050565b600082601f830112611a2257611a21611183565b5b8151611a328482602086016119a4565b91505092915050565b600060608284031215611a5157611a506110ed565b5b611a5b6060611163565b90506000611a6b84828501611764565b6000830152506020611a7f84828501611764565b602083015250604082015167ffffffffffffffff811115611aa357611aa261117e565b5b611aaf84828501611a0d565b60408301525092915050565b600060208284031215611ad157611ad0610d70565b5b600082015167ffffffffffffffff811115611aef57611aee610d75565b5b611afb84828501611a3b565b91505092915050565b6000819050919050565b6000611b29611b24611b1f84610e98565b611b04565b610e98565b9050919050565b6000611b3b82611b0e565b9050919050565b6000611b4d82611b30565b9050919050565b611b5d81611b42565b82525050565b6000602082019050611b786000830184611b54565b92915050565b600082825260208201905092915050565b7f455243313136373a20637265617465206661696c656400000000000000000000600082015250565b6000611bc5601683611b7e565b9150611bd082611b8f565b602082019050919050565b60006020820190508181036000830152611bf481611bb8565b9050919050565b600081519050919050565b600082825260208201905092915050565b6000819050602082019050919050565b6000611c3383836117a6565b60208301905092915050565b6000602082019050919050565b6000611c5782611bfb565b611c618185611c06565b9350611c6c83611c17565b8060005b83811015611c9d578151611c848882611c27565b9750611c8f83611c3f565b925050600181019050611c70565b5085935050505092915050565b6000604082019050611cbf6000830185610eca565b8181036020830152611cd18184611c4c565b9050939250505056fea26469706673582212205184c291dce550d247266700ae68a585fd3898d6c432ece87e03e2cff874f05064736f6c63430008180033608060405234801561001057600080fd5b506122e8806100206000396000f3fe608060405234801561001057600080fd5b50600436106100ea5760003560e01c80636c74bf6d1161008c578063de11c94a11610066578063de11c94a14610239578063de29278914610257578063dfbf53ae14610275578063fdbc400614610293576100ea565b80636c74bf6d146101dc5780638da5cb5b146101fd578063c720990a1461021b576100ea565b8063462e91ec116100c8578063462e91ec1461016c578063510c2d0d146101885780636439684c146101a45780636a334fe3146101c0576100ea565b806309e9d7e2146100ef578063254fe7d71461010b5780633477ee2e1461013b575b600080fd5b610109600480360381019061010491906112cb565b6102b1565b005b61012560048036038101906101209190611356565b61041f565b604051610132919061139e565b60405180910390f35b610155600480360381019061015091906112cb565b61043f565b604051610163929190611458565b60405180910390f35b610186600480360381019061018191906114ed565b6104fb565b005b6101a2600480360381019061019d9190611678565b610637565b005b6101be60048036038101906101b99190611843565b6107a6565b005b6101da60048036038101906101d591906118da565b610a32565b005b6101e4610cb4565b6040516101f49493929190611923565b60405180910390f35b610205610de2565b6040516102129190611985565b60405180910390f35b610223610e08565b60405161023091906119a0565b60405180910390f35b610241610e0e565b60405161024e9190611985565b60405180910390f35b61025f610e34565b60405161026c91906119a0565b60405180910390f35b61027d611100565b60405161028a91906119a0565b60405180910390f35b61029b611106565b6040516102a89190611b13565b60405180910390f35b600760009054906101000a900473ffffffffffffffffffffffffffffffffffffffff1673ffffffffffffffffffffffffffffffffffffffff163373ffffffffffffffffffffffffffffffffffffffff1614610338576040517fa0acb8a400000000000000000000000000000000000000000000000000000000815260040160405180910390fd5b600c6001600c8054905061034c9190611b64565b8154811061035d5761035c611b98565b5b9060005260206000209060020201600c828154811061037f5761037e611b98565b5b906000526020600020906002020160008201548160000155600182018160010190816103ab9190611de9565b5090505080600c82815481106103c4576103c3611b98565b5b906000526020600020906002020160000181905550600c8054806103eb576103ea611ed1565b5b60019003818190600052602060002090600202016000808201600090556001820160006104189190611224565b5050905550565b60016020528060005260406000206000915054906101000a900460ff1681565b600c818154811061044f57600080fd5b906000526020600020906002020160009150905080600001549080600101805461047890611bf6565b80601f01602080910402602001604051908101604052809291908181526020018280546104a490611bf6565b80156104f15780601f106104c6576101008083540402835291602001916104f1565b820191906000526020600020905b8154815290600101906020018083116104d457829003601f168201915b5050505050905082565b600760009054906101000a900473ffffffffffffffffffffffffffffffffffffffff1673ffffffffffffffffffffffffffffffffffffffff163373ffffffffffffffffffffffffffffffffffffffff1614610582576040517fa0acb8a400000000000000000000000000000000000000000000000000000000815260040160405180910390fd5b60006040518060400160405280600c80549050815260200184848080601f016020809104026020016040519081016040528093929190818152602001838380828437600081840152601f19601f820116905080830192505050505050508152509050600c81908060018154018082558091505060019003906000526020600020906002020160009091909190915060008201518160000155602082015181600101908161062f9190611f00565b505050505050565b600660009054906101000a900473ffffffffffffffffffffffffffffffffffffffff1673ffffffffffffffffffffffffffffffffffffffff163373ffffffffffffffffffffffffffffffffffffffff16146106be576040517fa0acb8a400000000000000000000000000000000000000000000000000000000815260040160405180910390fd5b60018060008473ffffffffffffffffffffffffffffffffffffffff1673ffffffffffffffffffffffffffffffffffffffff16815260200190815260200160002060006101000a81548160ff021916908315150217905550600a60019054906101000a900473ffffffffffffffffffffffffffffffffffffffff1673ffffffffffffffffffffffffffffffffffffffff1663ce11f2bb826040518263ffffffff1660e01b81526004016107709190612081565b600060405180830381600087803b15801561078a57600080fd5b505af115801561079e573d6000803e3d6000fd5b505050505050565b60008060019054906101000a900460ff161590508080156107d75750600160008054906101000a900460ff1660ff16105b8061080457506107e630611201565b1580156108035750600160008054906101000a900460ff1660ff16145b5b610843576040517f08c379a000000000000000000000000000000000000000000000000000000000815260040161083a90612115565b60405180910390fd5b60016000806101000a81548160ff021916908360ff1602179055508015610880576001600060016101000a81548160ff0219169083151502179055505b856002600082015181600001556020820151816001015560408201518160020190816108ac9190611f00565b5060608201518160030190816108c29190611f00565b509050508460098190555082600760006101000a81548173ffffffffffffffffffffffffffffffffffffffff021916908373ffffffffffffffffffffffffffffffffffffffff16021790555033600660006101000a81548173ffffffffffffffffffffffffffffffffffffffff021916908373ffffffffffffffffffffffffffffffffffffffff16021790555083600a60016101000a81548173ffffffffffffffffffffffffffffffffffffffff021916908373ffffffffffffffffffffffffffffffffffffffff16021790555081600b60006101000a81548173ffffffffffffffffffffffffffffffffffffffff021916908373ffffffffffffffffffffffffffffffffffffffff1602179055508015610a2a5760008060016101000a81548160ff0219169083151502179055507f7f26b83ff96e1f2b6a682f133852f6798a09c465da95921460cefb38474024986001604051610a21919061217d565b60405180910390a15b505050505050565b600160003373ffffffffffffffffffffffffffffffffffffffff1673ffffffffffffffffffffffffffffffffffffffff16815260200190815260200160002060009054906101000a900460ff1615610ab6576040517f7c9a1cf900000000000000000000000000000000000000000000000000000000815260040160405180910390fd5b600260000154421080610acd575060026001015442115b15610b04576040517f715ef7af00000000000000000000000000000000000000000000000000000000815260040160405180910390fd5b60001515600a60009054906101000a900460ff16151503610bcd57600a60019054906101000a900473ffffffffffffffffffffffffffffffffffffffff1673ffffffffffffffffffffffffffffffffffffffff1663b7b0422d600c805490506040518263ffffffff1660e01b8152600401610b7f91906119a0565b600060405180830381600087803b158015610b9957600080fd5b505af1158015610bad573d6000803e3d6000fd5b505050506001600a60006101000a81548160ff0219169083151502179055505b600a60019054906101000a900473ffffffffffffffffffffffffffffffffffffffff1673ffffffffffffffffffffffffffffffffffffffff1663ce11f2bb826040518263ffffffff1660e01b8152600401610c289190612081565b600060405180830381600087803b158015610c4257600080fd5b505af1158015610c56573d6000803e3d6000fd5b5050505060018060003373ffffffffffffffffffffffffffffffffffffffff1673ffffffffffffffffffffffffffffffffffffffff16815260200190815260200160002060006101000a81548160ff02191690831515021790555050565b6002806000015490806001015490806002018054610cd190611bf6565b80601f0160208091040260200160405190810160405280929190818152602001828054610cfd90611bf6565b8015610d4a5780601f10610d1f57610100808354040283529160200191610d4a565b820191906000526020600020905b815481529060010190602001808311610d2d57829003601f168201915b505050505090806003018054610d5f90611bf6565b80601f0160208091040260200160405190810160405280929190818152602001828054610d8b90611bf6565b8015610dd85780601f10610dad57610100808354040283529160200191610dd8565b820191906000526020600020905b815481529060010190602001808311610dbb57829003601f168201915b5050505050905084565b600760009054906101000a900473ffffffffffffffffffffffffffffffffffffffff1681565b60095481565b600660009054906101000a900473ffffffffffffffffffffffffffffffffffffffff1681565b6000600760009054906101000a900473ffffffffffffffffffffffffffffffffffffffff1673ffffffffffffffffffffffffffffffffffffffff163373ffffffffffffffffffffffffffffffffffffffff1614610ebd576040517fa0acb8a400000000000000000000000000000000000000000000000000000000815260040160405180910390fd5b600260010154421015610efc576040517f69b8b9ab00000000000000000000000000000000000000000000000000000000815260040160405180910390fd5b60006040516024016040516020818303038152906040527f0dc96015000000000000000000000000000000000000000000000000000000007bffffffffffffffffffffffffffffffffffffffffffffffffffffffff19166020820180517bffffffffffffffffffffffffffffffffffffffffffffffffffffffff83818316178352505050509050600080600a60019054906101000a900473ffffffffffffffffffffffffffffffffffffffff1673ffffffffffffffffffffffffffffffffffffffff1683604051610fcd91906121df565b600060405180830381855afa9150503d8060008114611008576040519150601f19603f3d011682016040523d82523d6000602084013e61100d565b606091505b509150915081611049576040517f506e74f500000000000000000000000000000000000000000000000000000000815260040160405180910390fd5b6000600b60009054906101000a900473ffffffffffffffffffffffffffffffffffffffff1673ffffffffffffffffffffffffffffffffffffffff1663934150cc836009546040518363ffffffff1660e01b81526004016110aa929190612240565b6020604051808303816000875af11580156110c9573d6000803e3d6000fd5b505050506040513d601f19601f820116820180604052508101906110ed9190612285565b9050806008819055508094505050505090565b60085481565b6060600c805480602002602001604051908101604052809291908181526020016000905b828210156111f857838290600052602060002090600202016040518060400160405290816000820154815260200160018201805461116790611bf6565b80601f016020809104026020016040519081016040528092919081815260200182805461119390611bf6565b80156111e05780601f106111b5576101008083540402835291602001916111e0565b820191906000526020600020905b8154815290600101906020018083116111c357829003601f168201915b5050505050815250508152602001906001019061112a565b50505050905090565b6000808273ffffffffffffffffffffffffffffffffffffffff163b119050919050565b50805461123090611bf6565b6000825580601f106112425750611261565b601f0160209004906000526020600020908101906112609190611264565b5b50565b5b8082111561127d576000816000905550600101611265565b5090565b6000604051905090565b600080fd5b600080fd5b6000819050919050565b6112a881611295565b81146112b357600080fd5b50565b6000813590506112c58161129f565b92915050565b6000602082840312156112e1576112e061128b565b5b60006112ef848285016112b6565b91505092915050565b600073ffffffffffffffffffffffffffffffffffffffff82169050919050565b6000611323826112f8565b9050919050565b61133381611318565b811461133e57600080fd5b50565b6000813590506113508161132a565b92915050565b60006020828403121561136c5761136b61128b565b5b600061137a84828501611341565b91505092915050565b60008115159050919050565b61139881611383565b82525050565b60006020820190506113b3600083018461138f565b92915050565b6113c281611295565b82525050565b600081519050919050565b600082825260208201905092915050565b60005b838110156114025780820151818401526020810190506113e7565b60008484015250505050565b6000601f19601f8301169050919050565b600061142a826113c8565b61143481856113d3565b93506114448185602086016113e4565b61144d8161140e565b840191505092915050565b600060408201905061146d60008301856113b9565b818103602083015261147f818461141f565b90509392505050565b600080fd5b600080fd5b600080fd5b60008083601f8401126114ad576114ac611488565b5b8235905067ffffffffffffffff8111156114ca576114c961148d565b5b6020830191508360018202830111156114e6576114e5611492565b5b9250929050565b600080602083850312156115045761150361128b565b5b600083013567ffffffffffffffff81111561152257611521611290565b5b61152e85828601611497565b92509250509250929050565b7f4e487b7100000000000000000000000000000000000000000000000000000000600052604160045260246000fd5b6115728261140e565b810181811067ffffffffffffffff821117156115915761159061153a565b5b80604052505050565b60006115a4611281565b90506115b08282611569565b919050565b600067ffffffffffffffff8211156115d0576115cf61153a565b5b602082029050602081019050919050565b60006115f46115ef846115b5565b61159a565b9050808382526020820190506020840283018581111561161757611616611492565b5b835b81811015611640578061162c88826112b6565b845260208401935050602081019050611619565b5050509392505050565b600082601f83011261165f5761165e611488565b5b813561166f8482602086016115e1565b91505092915050565b6000806040838503121561168f5761168e61128b565b5b600061169d85828601611341565b925050602083013567ffffffffffffffff8111156116be576116bd611290565b5b6116ca8582860161164a565b9150509250929050565b600080fd5b600080fd5b600080fd5b600067ffffffffffffffff8211156116fe576116fd61153a565b5b6117078261140e565b9050602081019050919050565b82818337600083830152505050565b6000611736611731846116e3565b61159a565b905082815260208101848484011115611752576117516116de565b5b61175d848285611714565b509392505050565b600082601f83011261177a57611779611488565b5b813561178a848260208601611723565b91505092915050565b6000608082840312156117a9576117a86116d4565b5b6117b3608061159a565b905060006117c3848285016112b6565b60008301525060206117d7848285016112b6565b602083015250604082013567ffffffffffffffff8111156117fb576117fa6116d9565b5b61180784828501611765565b604083015250606082013567ffffffffffffffff81111561182b5761182a6116d9565b5b61183784828501611765565b60608301525092915050565b600080600080600060a0868803121561185f5761185e61128b565b5b600086013567ffffffffffffffff81111561187d5761187c611290565b5b61188988828901611793565b955050602061189a888289016112b6565b94505060406118ab88828901611341565b93505060606118bc88828901611341565b92505060806118cd88828901611341565b9150509295509295909350565b6000602082840312156118f0576118ef61128b565b5b600082013567ffffffffffffffff81111561190e5761190d611290565b5b61191a8482850161164a565b91505092915050565b600060808201905061193860008301876113b9565b61194560208301866113b9565b8181036040830152611957818561141f565b9050818103606083015261196b818461141f565b905095945050505050565b61197f81611318565b82525050565b600060208201905061199a6000830184611976565b92915050565b60006020820190506119b560008301846113b9565b92915050565b600081519050919050565b600082825260208201905092915050565b6000819050602082019050919050565b6119f081611295565b82525050565b600082825260208201905092915050565b6000611a12826113c8565b611a1c81856119f6565b9350611a2c8185602086016113e4565b611a358161140e565b840191505092915050565b6000604083016000830151611a5860008601826119e7565b5060208301518482036020860152611a708282611a07565b9150508091505092915050565b6000611a898383611a40565b905092915050565b6000602082019050919050565b6000611aa9826119bb565b611ab381856119c6565b935083602082028501611ac5856119d7565b8060005b85811015611b015784840389528151611ae28582611a7d565b9450611aed83611a91565b925060208a01995050600181019050611ac9565b50829750879550505050505092915050565b60006020820190508181036000830152611b2d8184611a9e565b905092915050565b7f4e487b7100000000000000000000000000000000000000000000000000000000600052601160045260246000fd5b6000611b6f82611295565b9150611b7a83611295565b9250828203905081811115611b9257611b91611b35565b5b92915050565b7f4e487b7100000000000000000000000000000000000000000000000000000000600052603260045260246000fd5b7f4e487b7100000000000000000000000000000000000000000000000000000000600052602260045260246000fd5b60006002820490506001821680611c0e57607f821691505b602082108103611c2157611c20611bc7565b5b50919050565b600081549050611c3681611bf6565b9050919050565b60008190508160005260206000209050919050565b60006020601f8301049050919050565b600082821b905092915050565b600060088302611c9f7fffffffffffffffffffffffffffffffffffffffffffffffffffffffffffffffff82611c62565b611ca98683611c62565b95508019841693508086168417925050509392505050565b6000819050919050565b6000611ce6611ce1611cdc84611295565b611cc1565b611295565b9050919050565b6000819050919050565b611d0083611ccb565b611d14611d0c82611ced565b848454611c6f565b825550505050565b600090565b611d29611d1c565b611d34818484611cf7565b505050565b5b81811015611d5857611d4d600082611d21565b600181019050611d3a565b5050565b601f821115611d9d57611d6e81611c3d565b611d7784611c52565b81016020851015611d86578190505b611d9a611d9285611c52565b830182611d39565b50505b505050565b600082821c905092915050565b6000611dc060001984600802611da2565b1980831691505092915050565b6000611dd98383611daf565b9150826002028217905092915050565b818103611df7575050611ecf565b611e0082611c27565b67ffffffffffffffff811115611e1957611e1861153a565b5b611e238254611bf6565b611e2e828285611d5c565b6000601f831160018114611e5d5760008415611e4b578287015490505b611e558582611dcd565b865550611ec8565b601f198416611e6b87611c3d565b9650611e7686611c3d565b60005b82811015611e9e57848901548255600182019150600185019450602081019050611e79565b86831015611ebb5784890154611eb7601f891682611daf565b8355505b6001600288020188555050505b5050505050505b565b7f4e487b7100000000000000000000000000000000000000000000000000000000600052603160045260246000fd5b611f09826113c8565b67ffffffffffffffff811115611f2257611f2161153a565b5b611f2c8254611bf6565b611f37828285611d5c565b600060209050601f831160018114611f6a5760008415611f58578287015190505b611f628582611dcd565b865550611fca565b601f198416611f7886611c3d565b60005b82811015611fa057848901518255600182019150602085019450602081019050611f7b565b86831015611fbd5784890151611fb9601f891682611daf565b8355505b6001600288020188555050505b505050505050565b600081519050919050565b600082825260208201905092915050565b6000819050602082019050919050565b600061200a83836119e7565b60208301905092915050565b6000602082019050919050565b600061202e82611fd2565b6120388185611fdd565b935061204383611fee565b8060005b8381101561207457815161205b8882611ffe565b975061206683612016565b925050600181019050612047565b5085935050505092915050565b6000602082019050818103600083015261209b8184612023565b905092915050565b7f496e697469616c697a61626c653a20636f6e747261637420697320616c72656160008201527f647920696e697469616c697a6564000000000000000000000000000000000000602082015250565b60006120ff602e836113d3565b915061210a826120a3565b604082019050919050565b6000602082019050818103600083015261212e816120f2565b9050919050565b6000819050919050565b600060ff82169050919050565b600061216761216261215d84612135565b611cc1565b61213f565b9050919050565b6121778161214c565b82525050565b6000602082019050612192600083018461216e565b92915050565b600081519050919050565b600081905092915050565b60006121b982612198565b6121c381856121a3565b93506121d38185602086016113e4565b80840191505092915050565b60006121eb82846121ae565b915081905092915050565b600082825260208201905092915050565b600061221282612198565b61221c81856121f6565b935061222c8185602086016113e4565b6122358161140e565b840191505092915050565b6000604082019050818103600083015261225a8185612207565b905061226960208301846113b9565b9392505050565b60008151905061227f8161129f565b92915050565b60006020828403121561229b5761229a61128b565b5b60006122a984828501612270565b9150509291505056fea26469706673582212203ff6063e5b6a058a77454691c8e6d45eaf012335a1d3a396a92cf998673c042e64736f6c63430008180033608060405234801561001057600080fd5b5061567d806100206000396000f3fe608060405234801561001057600080fd5b506004361061002b5760003560e01c806390b352f714610030575b600080fd5b61004a600480360381019061004591906103b8565b610060565b6040516100579190610407565b60405180910390f35b6000600183036100a55781604051610077906102b7565b6100819190610407565b604051809103906000f08015801561009d573d6000803e3d6000fd5b5090506102b1565b600283036100e857816040516100ba906102c4565b6100c49190610407565b604051809103906000f0801580156100e0573d6000803e3d6000fd5b5090506102b1565b6003830361012b57816040516100fd906102d1565b6101079190610407565b604051809103906000f080158015610123573d6000803e3d6000fd5b5090506102b1565b6004830361016e5781604051610140906102de565b61014a9190610407565b604051809103906000f080158015610166573d6000803e3d6000fd5b5090506102b1565b600583036101b15781604051610183906102eb565b61018d9190610407565b604051809103906000f0801580156101a9573d6000803e3d6000fd5b5090506102b1565b600683036101f457816040516101c6906102f8565b6101d09190610407565b604051809103906000f0801580156101ec573d6000803e3d6000fd5b5090506102b1565b60078303610237578160405161020990610305565b6102139190610407565b604051809103906000f08015801561022f573d6000803e3d6000fd5b5090506102b1565b6008830361027a578160405161024c90610312565b6102569190610407565b604051809103906000f080158015610272573d6000803e3d6000fd5b5090506102b1565b81604051610287906102b7565b6102919190610407565b604051809103906000f0801580156102ad573d6000803e3d6000fd5b5090505b92915050565b6109da8061042383390190565b6109cb80610dfd83390190565b6108e5806117c883390190565b6108e5806120ad83390190565b610a488061299283390190565b610a24806133da83390190565b610c2580613dfe83390190565b610c2580614a2383390190565b600080fd5b6000819050919050565b61033781610324565b811461034257600080fd5b50565b6000813590506103548161032e565b92915050565b600073ffffffffffffffffffffffffffffffffffffffff82169050919050565b60006103858261035a565b9050919050565b6103958161037a565b81146103a057600080fd5b50565b6000813590506103b28161038c565b92915050565b600080604083850312156103cf576103ce61031f565b5b60006103dd85828601610345565b92505060206103ee858286016103a3565b9150509250929050565b6104018161037a565b82525050565b600060208201905061041c60008301846103f8565b9291505056fe608060405234801561001057600080fd5b506040516109da3803806109da833981810160405281019061003291906100db565b806000806101000a81548173ffffffffffffffffffffffffffffffffffffffff021916908373ffffffffffffffffffffffffffffffffffffffff16021790555050610108565b600080fd5b600073ffffffffffffffffffffffffffffffffffffffff82169050919050565b60006100a88261007d565b9050919050565b6100b88161009d565b81146100c357600080fd5b50565b6000815190506100d5816100af565b92915050565b6000602082840312156100f1576100f0610078565b5b60006100ff848285016100c6565b91505092915050565b6108c3806101176000396000f3fe608060405234801561001057600080fd5b506004361061004c5760003560e01c80630dc9601514610051578063b7b0422d1461006f578063ce11f2bb1461008b578063e407bcbd146100a7575b600080fd5b6100596100c5565b604051610066919061055a565b60405180910390f35b610089600480360381019061008491906105bc565b6101a2565b005b6100a560048036038101906100a09190610742565b610290565b005b6100af6103c6565b6040516100bc91906107cc565b60405180910390f35b606060008054906101000a900473ffffffffffffffffffffffffffffffffffffffff1673ffffffffffffffffffffffffffffffffffffffff163373ffffffffffffffffffffffffffffffffffffffff161461014c576040517fa0acb8a400000000000000000000000000000000000000000000000000000000815260040160405180910390fd5b600280548060200260200160405190810160405280929190818152602001828054801561019857602002820191906000526020600020905b815481526020019060010190808311610184575b5050505050905090565b60008054906101000a900473ffffffffffffffffffffffffffffffffffffffff1673ffffffffffffffffffffffffffffffffffffffff163373ffffffffffffffffffffffffffffffffffffffff1614610227576040517fa0acb8a400000000000000000000000000000000000000000000000000000000815260040160405180910390fd5b806001819055508067ffffffffffffffff811115610248576102476105ff565b5b6040519080825280602002602001820160405280156102765781602001602082028036833780820191505090505b506002908051906020019061028c929190610428565b5050565b60008054906101000a900473ffffffffffffffffffffffffffffffffffffffff1673ffffffffffffffffffffffffffffffffffffffff163373ffffffffffffffffffffffffffffffffffffffff1614610315576040517fa0acb8a400000000000000000000000000000000000000000000000000000000815260040160405180910390fd5b6001815114610350576040517f5495aae600000000000000000000000000000000000000000000000000000000815260040160405180910390fd5b61037481600081518110610367576103666107e7565b5b60200260200101516103ea565b60028160008151811061038a576103896107e7565b5b6020026020010151815481106103a3576103a26107e7565b5b9060005260206000200160008154809291906103be90610845565b919050555050565b60008054906101000a900473ffffffffffffffffffffffffffffffffffffffff1681565b6001548110610425576040517f5c87eb8a00000000000000000000000000000000000000000000000000000000815260040160405180910390fd5b50565b828054828255906000526020600020908101928215610464579160200282015b82811115610463578251825591602001919060010190610448565b5b5090506104719190610475565b5090565b5b8082111561048e576000816000905550600101610476565b5090565b600081519050919050565b600082825260208201905092915050565b6000819050602082019050919050565b6000819050919050565b6104d1816104be565b82525050565b60006104e383836104c8565b60208301905092915050565b6000602082019050919050565b600061050782610492565b610511818561049d565b935061051c836104ae565b8060005b8381101561054d57815161053488826104d7565b975061053f836104ef565b925050600181019050610520565b5085935050505092915050565b6000602082019050818103600083015261057481846104fc565b905092915050565b6000604051905090565b600080fd5b600080fd5b610599816104be565b81146105a457600080fd5b50565b6000813590506105b681610590565b92915050565b6000602082840312156105d2576105d1610586565b5b60006105e0848285016105a7565b91505092915050565b600080fd5b6000601f19601f8301169050919050565b7f4e487b7100000000000000000000000000000000000000000000000000000000600052604160045260246000fd5b610637826105ee565b810181811067ffffffffffffffff82111715610656576106556105ff565b5b80604052505050565b600061066961057c565b9050610675828261062e565b919050565b600067ffffffffffffffff821115610695576106946105ff565b5b602082029050602081019050919050565b600080fd5b60006106be6106b98461067a565b61065f565b905080838252602082019050602084028301858111156106e1576106e06106a6565b5b835b8181101561070a57806106f688826105a7565b8452602084019350506020810190506106e3565b5050509392505050565b600082601f830112610729576107286105e9565b5b81356107398482602086016106ab565b91505092915050565b60006020828403121561075857610757610586565b5b600082013567ffffffffffffffff8111156107765761077561058b565b5b61078284828501610714565b91505092915050565b600073ffffffffffffffffffffffffffffffffffffffff82169050919050565b60006107b68261078b565b9050919050565b6107c6816107ab565b82525050565b60006020820190506107e160008301846107bd565b92915050565b7f4e487b7100000000000000000000000000000000000000000000000000000000600052603260045260246000fd5b7f4e487b7100000000000000000000000000000000000000000000000000000000600052601160045260246000fd5b6000610850826104be565b91507fffffffffffffffffffffffffffffffffffffffffffffffffffffffffffffffff820361088257610881610816565b5b60018201905091905056fea264697066735822122033138643efbc4d660fa7ed30e57204c83eb97dcf81c3378b79592b18d192eb7264736f6c63430008180033608060405234801561001057600080fd5b506040516109cb3803806109cb833981810160405281019061003291906100db565b806000806101000a81548173ffffffffffffffffffffffffffffffffffffffff021916908373ffffffffffffffffffffffffffffffffffffffff16021790555050610108565b600080fd5b600073ffffffffffffffffffffffffffffffffffffffff82169050919050565b60006100a88261007d565b9050919050565b6100b88161009d565b81146100c357600080fd5b50565b6000815190506100d5816100af565b92915050565b6000602082840312156100f1576100f0610078565b5b60006100ff848285016100c6565b91505092915050565b6108b4806101176000396000f3fe608060405234801561001057600080fd5b506004361061004c5760003560e01c80630dc9601514610051578063b7b0422d1461006f578063ce11f2bb1461008b578063e407bcbd146100a7575b600080fd5b6100596100c5565b604051610066919061052b565b60405180910390f35b6100896004803603810190610084919061058d565b6101a2565b005b6100a560048036038101906100a09190610713565b610289565b005b6100af6103d5565b6040516100bc919061079d565b60405180910390f35b606060008054906101000a900473ffffffffffffffffffffffffffffffffffffffff1673ffffffffffffffffffffffffffffffffffffffff163373ffffffffffffffffffffffffffffffffffffffff161461014c576040517fa0acb8a400000000000000000000000000000000000000000000000000000000815260040160405180910390fd5b600180548060200260200160405190810160405280929190818152602001828054801561019857602002820191906000526020600020905b815481526020019060010190808311610184575b5050505050905090565b60008054906101000a900473ffffffffffffffffffffffffffffffffffffffff1673ffffffffffffffffffffffffffffffffffffffff163373ffffffffffffffffffffffffffffffffffffffff1614610227576040517fa0acb8a400000000000000000000000000000000000000000000000000000000815260040160405180910390fd5b8067ffffffffffffffff811115610241576102406105d0565b5b60405190808252806020026020018201604052801561026f5781602001602082028036833780820191505090505b50600190805190602001906102859291906103f9565b5050565b60008054906101000a900473ffffffffffffffffffffffffffffffffffffffff1673ffffffffffffffffffffffffffffffffffffffff163373ffffffffffffffffffffffffffffffffffffffff161461030e576040517fa0acb8a400000000000000000000000000000000000000000000000000000000815260040160405180910390fd5b6000600180549050905080825114610352576040517f6e2ca24900000000000000000000000000000000000000000000000000000000815260040160405180910390fd5b60005b818110156103d0576001818361036b91906107e7565b61037591906107e7565b600184838151811061038a5761038961081b565b5b6020026020010151815481106103a3576103a261081b565b5b9060005260206000200160008282546103bc919061084a565b925050819055508080600101915050610355565b505050565b60008054906101000a900473ffffffffffffffffffffffffffffffffffffffff1681565b828054828255906000526020600020908101928215610435579160200282015b82811115610434578251825591602001919060010190610419565b5b5090506104429190610446565b5090565b5b8082111561045f576000816000905550600101610447565b5090565b600081519050919050565b600082825260208201905092915050565b6000819050602082019050919050565b6000819050919050565b6104a28161048f565b82525050565b60006104b48383610499565b60208301905092915050565b6000602082019050919050565b60006104d882610463565b6104e2818561046e565b93506104ed8361047f565b8060005b8381101561051e57815161050588826104a8565b9750610510836104c0565b9250506001810190506104f1565b5085935050505092915050565b6000602082019050818103600083015261054581846104cd565b905092915050565b6000604051905090565b600080fd5b600080fd5b61056a8161048f565b811461057557600080fd5b50565b60008135905061058781610561565b92915050565b6000602082840312156105a3576105a2610557565b5b60006105b184828501610578565b91505092915050565b600080fd5b6000601f19601f8301169050919050565b7f4e487b7100000000000000000000000000000000000000000000000000000000600052604160045260246000fd5b610608826105bf565b810181811067ffffffffffffffff82111715610627576106266105d0565b5b80604052505050565b600061063a61054d565b905061064682826105ff565b919050565b600067ffffffffffffffff821115610666576106656105d0565b5b602082029050602081019050919050565b600080fd5b600061068f61068a8461064b565b610630565b905080838252602082019050602084028301858111156106b2576106b1610677565b5b835b818110156106db57806106c78882610578565b8452602084019350506020810190506106b4565b5050509392505050565b600082601f8301126106fa576106f96105ba565b5b813561070a84826020860161067c565b91505092915050565b60006020828403121561072957610728610557565b5b600082013567ffffffffffffffff8111156107475761074661055c565b5b610753848285016106e5565b91505092915050565b600073ffffffffffffffffffffffffffffffffffffffff82169050919050565b60006107878261075c565b9050919050565b6107978161077c565b82525050565b60006020820190506107b2600083018461078e565b92915050565b7f4e487b7100000000000000000000000000000000000000000000000000000000600052601160045260246000fd5b60006107f28261048f565b91506107fd8361048f565b9250828203905081811115610815576108146107b8565b5b92915050565b7f4e487b7100000000000000000000000000000000000000000000000000000000600052603260045260246000fd5b60006108558261048f565b91506108608361048f565b9250828201905080821115610878576108776107b8565b5b9291505056fea26469706673582212209ce7a582caad837934ab0a380eb4fd1a78276b2c7a9fe4c3eeacdf81e0773cd864736f6c63430008180033608060405234801561001057600080fd5b506040516108e53803806108e5833981810160405281019061003291906100db565b806000806101000a81548173ffffffffffffffffffffffffffffffffffffffff021916908373ffffffffffffffffffffffffffffffffffffffff16021790555050610108565b600080fd5b600073ffffffffffffffffffffffffffffffffffffffff82169050919050565b60006100a88261007d565b9050919050565b6100b88161009d565b81146100c357600080fd5b50565b6000815190506100d5816100af565b92915050565b6000602082840312156100f1576100f0610078565b5b60006100ff848285016100c6565b91505092915050565b6107ce806101176000396000f3fe608060405234801561001057600080fd5b506004361061004c5760003560e01c80630dc9601514610051578063b7b0422d1461006f578063ce11f2bb1461008b578063e407bcbd146100a7575b600080fd5b6100596100c5565b604051610066919061050b565b60405180910390f35b6100896004803603810190610084919061056d565b610164565b005b6100a560048036038101906100a091906106f3565b6101f3565b005b6100af6102f3565b6040516100bc919061077d565b60405180910390f35b60606002805480602002602001604051908101604052809291908181526020016000905b8282101561015b5783829060005260206000200180548060200260200160405190810160405280929190818152602001828054801561014757602002820191906000526020600020905b815481526020019060010190808311610133575b5050505050815260200190600101906100e9565b50505050905090565b60008054906101000a900473ffffffffffffffffffffffffffffffffffffffff1673ffffffffffffffffffffffffffffffffffffffff163373ffffffffffffffffffffffffffffffffffffffff16146101e9576040517fa0acb8a400000000000000000000000000000000000000000000000000000000815260040160405180910390fd5b8060018190555050565b60008054906101000a900473ffffffffffffffffffffffffffffffffffffffff1673ffffffffffffffffffffffffffffffffffffffff163373ffffffffffffffffffffffffffffffffffffffff1614610278576040517fa0acb8a400000000000000000000000000000000000000000000000000000000815260040160405180910390fd5b8051600154146102b4576040517f6e2ca24900000000000000000000000000000000000000000000000000000000815260040160405180910390fd5b6002819080600181540180825580915050600190039060005260206000200160009091909190915090805190602001906102ef929190610317565b5050565b60008054906101000a900473ffffffffffffffffffffffffffffffffffffffff1681565b828054828255906000526020600020908101928215610353579160200282015b82811115610352578251825591602001919060010190610337565b5b5090506103609190610364565b5090565b5b8082111561037d576000816000905550600101610365565b5090565b600081519050919050565b600082825260208201905092915050565b6000819050602082019050919050565b600081519050919050565b600082825260208201905092915050565b6000819050602082019050919050565b6000819050919050565b6103ec816103d9565b82525050565b60006103fe83836103e3565b60208301905092915050565b6000602082019050919050565b6000610422826103ad565b61042c81856103b8565b9350610437836103c9565b8060005b8381101561046857815161044f88826103f2565b975061045a8361040a565b92505060018101905061043b565b5085935050505092915050565b60006104818383610417565b905092915050565b6000602082019050919050565b60006104a182610381565b6104ab818561038c565b9350836020820285016104bd8561039d565b8060005b858110156104f957848403895281516104da8582610475565b94506104e583610489565b925060208a019950506001810190506104c1565b50829750879550505050505092915050565b600060208201905081810360008301526105258184610496565b905092915050565b6000604051905090565b600080fd5b600080fd5b61054a816103d9565b811461055557600080fd5b50565b60008135905061056781610541565b92915050565b60006020828403121561058357610582610537565b5b600061059184828501610558565b91505092915050565b600080fd5b6000601f19601f8301169050919050565b7f4e487b7100000000000000000000000000000000000000000000000000000000600052604160045260246000fd5b6105e88261059f565b810181811067ffffffffffffffff82111715610607576106066105b0565b5b80604052505050565b600061061a61052d565b905061062682826105df565b919050565b600067ffffffffffffffff821115610646576106456105b0565b5b602082029050602081019050919050565b600080fd5b600061066f61066a8461062b565b610610565b9050808382526020820190506020840283018581111561069257610691610657565b5b835b818110156106bb57806106a78882610558565b845260208401935050602081019050610694565b5050509392505050565b600082601f8301126106da576106d961059a565b5b81356106ea84826020860161065c565b91505092915050565b60006020828403121561070957610708610537565b5b600082013567ffffffffffffffff8111156107275761072661053c565b5b610733848285016106c5565b91505092915050565b600073ffffffffffffffffffffffffffffffffffffffff82169050919050565b60006107678261073c565b9050919050565b6107778161075c565b82525050565b6000602082019050610792600083018461076e565b9291505056fea2646970667358221220ec9e9b8271cb458c0f7efab37789db8b8a59451eaa819d2a23a3dbc29e39df9064736f6c63430008180033608060405234801561001057600080fd5b506040516108e53803806108e5833981810160405281019061003291906100db565b806000806101000a81548173ffffffffffffffffffffffffffffffffffffffff021916908373ffffffffffffffffffffffffffffffffffffffff16021790555050610108565b600080fd5b600073ffffffffffffffffffffffffffffffffffffffff82169050919050565b60006100a88261007d565b9050919050565b6100b88161009d565b81146100c357600080fd5b50565b6000815190506100d5816100af565b92915050565b6000602082840312156100f1576100f0610078565b5b60006100ff848285016100c6565b91505092915050565b6107ce806101176000396000f3fe608060405234801561001057600080fd5b506004361061004c5760003560e01c80630dc9601514610051578063b7b0422d1461006f578063ce11f2bb1461008b578063e407bcbd146100a7575b600080fd5b6100596100c5565b604051610066919061050b565b60405180910390f35b6100896004803603810190610084919061056d565b610164565b005b6100a560048036038101906100a091906106f3565b6101f3565b005b6100af6102f3565b6040516100bc919061077d565b60405180910390f35b60606002805480602002602001604051908101604052809291908181526020016000905b8282101561015b5783829060005260206000200180548060200260200160405190810160405280929190818152602001828054801561014757602002820191906000526020600020905b815481526020019060010190808311610133575b5050505050815260200190600101906100e9565b50505050905090565b60008054906101000a900473ffffffffffffffffffffffffffffffffffffffff1673ffffffffffffffffffffffffffffffffffffffff163373ffffffffffffffffffffffffffffffffffffffff16146101e9576040517fa0acb8a400000000000000000000000000000000000000000000000000000000815260040160405180910390fd5b8060018190555050565b60008054906101000a900473ffffffffffffffffffffffffffffffffffffffff1673ffffffffffffffffffffffffffffffffffffffff163373ffffffffffffffffffffffffffffffffffffffff1614610278576040517fa0acb8a400000000000000000000000000000000000000000000000000000000815260040160405180910390fd5b8051600154146102b4576040517f6e2ca24900000000000000000000000000000000000000000000000000000000815260040160405180910390fd5b6002819080600181540180825580915050600190039060005260206000200160009091909190915090805190602001906102ef929190610317565b5050565b60008054906101000a900473ffffffffffffffffffffffffffffffffffffffff1681565b828054828255906000526020600020908101928215610353579160200282015b82811115610352578251825591602001919060010190610337565b5b5090506103609190610364565b5090565b5b8082111561037d576000816000905550600101610365565b5090565b600081519050919050565b600082825260208201905092915050565b6000819050602082019050919050565b600081519050919050565b600082825260208201905092915050565b6000819050602082019050919050565b6000819050919050565b6103ec816103d9565b82525050565b60006103fe83836103e3565b60208301905092915050565b6000602082019050919050565b6000610422826103ad565b61042c81856103b8565b9350610437836103c9565b8060005b8381101561046857815161044f88826103f2565b975061045a8361040a565b92505060018101905061043b565b5085935050505092915050565b60006104818383610417565b905092915050565b6000602082019050919050565b60006104a182610381565b6104ab818561038c565b9350836020820285016104bd8561039d565b8060005b858110156104f957848403895281516104da8582610475565b94506104e583610489565b925060208a019950506001810190506104c1565b50829750879550505050505092915050565b600060208201905081810360008301526105258184610496565b905092915050565b6000604051905090565b600080fd5b600080fd5b61054a816103d9565b811461055557600080fd5b50565b60008135905061056781610541565b92915050565b60006020828403121561058357610582610537565b5b600061059184828501610558565b91505092915050565b600080fd5b6000601f19601f8301169050919050565b7f4e487b7100000000000000000000000000000000000000000000000000000000600052604160045260246000fd5b6105e88261059f565b810181811067ffffffffffffffff82111715610607576106066105b0565b5b80604052505050565b600061061a61052d565b905061062682826105df565b919050565b600067ffffffffffffffff821115610646576106456105b0565b5b602082029050602081019050919050565b600080fd5b600061066f61066a8461062b565b610610565b9050808382526020820190506020840283018581111561069257610691610657565b5b835b818110156106bb57806106a78882610558565b845260208401935050602081019050610694565b5050509392505050565b600082601f8301126106da576106d961059a565b5b81356106ea84826020860161065c565b91505092915050565b60006020828403121561070957610708610537565b5b600082013567ffffffffffffffff8111156107275761072661053c565b5b610733848285016106c5565b91505092915050565b600073ffffffffffffffffffffffffffffffffffffffff82169050919050565b60006107678261073c565b9050919050565b6107778161075c565b82525050565b6000602082019050610792600083018461076e565b9291505056fea2646970667358221220a8c75688431ebabe58882e9849b990d44d89c1686715912bca7b2321e7af26f364736f6c63430008180033608060405234801561001057600080fd5b50604051610a48380380610a48833981810160405281019061003291906100db565b806000806101000a81548173ffffffffffffffffffffffffffffffffffffffff021916908373ffffffffffffffffffffffffffffffffffffffff16021790555050610108565b600080fd5b600073ffffffffffffffffffffffffffffffffffffffff82169050919050565b60006100a88261007d565b9050919050565b6100b88161009d565b81146100c357600080fd5b50565b6000815190506100d5816100af565b92915050565b6000602082840312156100f1576100f0610078565b5b60006100ff848285016100c6565b91505092915050565b610931806101176000396000f3fe608060405234801561001057600080fd5b506004361061004c5760003560e01c80630dc9601514610051578063b7b0422d1461006f578063ce11f2bb1461008b578063e407bcbd146100a7575b600080fd5b6100596100c5565b60405161006691906105a8565b60405180910390f35b6100896004803603810190610084919061060a565b6101a2565b005b6100a560048036038101906100a09190610790565b610289565b005b6100af6103fd565b6040516100bc919061081a565b60405180910390f35b606060008054906101000a900473ffffffffffffffffffffffffffffffffffffffff1673ffffffffffffffffffffffffffffffffffffffff163373ffffffffffffffffffffffffffffffffffffffff161461014c576040517fa0acb8a400000000000000000000000000000000000000000000000000000000815260040160405180910390fd5b600180548060200260200160405190810160405280929190818152602001828054801561019857602002820191906000526020600020905b815481526020019060010190808311610184575b5050505050905090565b60008054906101000a900473ffffffffffffffffffffffffffffffffffffffff1673ffffffffffffffffffffffffffffffffffffffff163373ffffffffffffffffffffffffffffffffffffffff1614610227576040517fa0acb8a400000000000000000000000000000000000000000000000000000000815260040160405180910390fd5b8067ffffffffffffffff8111156102415761024061064d565b5b60405190808252806020026020018201604052801561026f5781602001602082028036833780820191505090505b5060019080519060200190610285929190610476565b5050565b60008054906101000a900473ffffffffffffffffffffffffffffffffffffffff1673ffffffffffffffffffffffffffffffffffffffff163373ffffffffffffffffffffffffffffffffffffffff161461030e576040517fa0acb8a400000000000000000000000000000000000000000000000000000000815260040160405180910390fd5b6000600180549050905080825114610352576040517f6e2ca24900000000000000000000000000000000000000000000000000000000815260040160405180910390fd5b61035b82610421565b610391576040517ffbf5d42300000000000000000000000000000000000000000000000000000000815260040160405180910390fd5b60005b818110156103f8578281815181106103af576103ae610835565b5b6020026020010151600182815481106103cb576103ca610835565b5b9060005260206000200160008282546103e49190610893565b925050819055508080600101915050610394565b505050565b60008054906101000a900473ffffffffffffffffffffffffffffffffffffffff1681565b6000806064905060005b83518110156104695783818151811061044757610446610835565b5b60200260200101518261045a91906108c7565b9150808060010191505061042b565b5060008114915050919050565b8280548282559060005260206000209081019282156104b2579160200282015b828111156104b1578251825591602001919060010190610496565b5b5090506104bf91906104c3565b5090565b5b808211156104dc5760008160009055506001016104c4565b5090565b600081519050919050565b600082825260208201905092915050565b6000819050602082019050919050565b6000819050919050565b61051f8161050c565b82525050565b60006105318383610516565b60208301905092915050565b6000602082019050919050565b6000610555826104e0565b61055f81856104eb565b935061056a836104fc565b8060005b8381101561059b5781516105828882610525565b975061058d8361053d565b92505060018101905061056e565b5085935050505092915050565b600060208201905081810360008301526105c2818461054a565b905092915050565b6000604051905090565b600080fd5b600080fd5b6105e78161050c565b81146105f257600080fd5b50565b600081359050610604816105de565b92915050565b6000602082840312156106205761061f6105d4565b5b600061062e848285016105f5565b91505092915050565b600080fd5b6000601f19601f8301169050919050565b7f4e487b7100000000000000000000000000000000000000000000000000000000600052604160045260246000fd5b6106858261063c565b810181811067ffffffffffffffff821117156106a4576106a361064d565b5b80604052505050565b60006106b76105ca565b90506106c3828261067c565b919050565b600067ffffffffffffffff8211156106e3576106e261064d565b5b602082029050602081019050919050565b600080fd5b600061070c610707846106c8565b6106ad565b9050808382526020820190506020840283018581111561072f5761072e6106f4565b5b835b81811015610758578061074488826105f5565b845260208401935050602081019050610731565b5050509392505050565b600082601f83011261077757610776610637565b5b81356107878482602086016106f9565b91505092915050565b6000602082840312156107a6576107a56105d4565b5b600082013567ffffffffffffffff8111156107c4576107c36105d9565b5b6107d084828501610762565b91505092915050565b600073ffffffffffffffffffffffffffffffffffffffff82169050919050565b6000610804826107d9565b9050919050565b610814816107f9565b82525050565b600060208201905061082f600083018461080b565b92915050565b7f4e487b7100000000000000000000000000000000000000000000000000000000600052603260045260246000fd5b7f4e487b7100000000000000000000000000000000000000000000000000000000600052601160045260246000fd5b600061089e8261050c565b91506108a98361050c565b92508282019050808211156108c1576108c0610864565b5b92915050565b60006108d28261050c565b91506108dd8361050c565b92508282039050818111156108f5576108f4610864565b5b9291505056fea2646970667358221220db1edb10cfba4679ecb53e7a0fbc29d23cc717cff1cbd3b09b9fd21a58cca15e64736f6c63430008180033608060405234801561001057600080fd5b50604051610a24380380610a24833981810160405281019061003291906100db565b806000806101000a81548173ffffffffffffffffffffffffffffffffffffffff021916908373ffffffffffffffffffffffffffffffffffffffff16021790555050610108565b600080fd5b600073ffffffffffffffffffffffffffffffffffffffff82169050919050565b60006100a88261007d565b9050919050565b6100b88161009d565b81146100c357600080fd5b50565b6000815190506100d5816100af565b92915050565b6000602082840312156100f1576100f0610078565b5b60006100ff848285016100c6565b91505092915050565b61090d806101176000396000f3fe608060405234801561001057600080fd5b50600436106100575760003560e01c80630dc960151461005c5780639a1b4b381461007a578063b7b0422d14610098578063ce11f2bb146100b4578063e407bcbd146100d0575b600080fd5b6100646100ee565b604051610071919061058e565b60405180910390f35b6100826101cb565b60405161008f91906105bf565b60405180910390f35b6100b260048036038101906100ad919061061a565b6101d0565b005b6100ce60048036038101906100c991906107a0565b6102b7565b005b6100d8610438565b6040516100e5919061082a565b60405180910390f35b606060008054906101000a900473ffffffffffffffffffffffffffffffffffffffff1673ffffffffffffffffffffffffffffffffffffffff163373ffffffffffffffffffffffffffffffffffffffff1614610175576040517fa0acb8a400000000000000000000000000000000000000000000000000000000815260040160405180910390fd5b60018054806020026020016040519081016040528092919081815260200182805480156101c157602002820191906000526020600020905b8154815260200190600101908083116101ad575b5050505050905090565b600a81565b60008054906101000a900473ffffffffffffffffffffffffffffffffffffffff1673ffffffffffffffffffffffffffffffffffffffff163373ffffffffffffffffffffffffffffffffffffffff1614610255576040517fa0acb8a400000000000000000000000000000000000000000000000000000000815260040160405180910390fd5b8067ffffffffffffffff81111561026f5761026e61065d565b5b60405190808252806020026020018201604052801561029d5781602001602082028036833780820191505090505b50600190805190602001906102b392919061045c565b5050565b60008054906101000a900473ffffffffffffffffffffffffffffffffffffffff1673ffffffffffffffffffffffffffffffffffffffff163373ffffffffffffffffffffffffffffffffffffffff161461033c576040517fa0acb8a400000000000000000000000000000000000000000000000000000000815260040160405180910390fd5b6000600180549050905080825114610380576040517f6e2ca24900000000000000000000000000000000000000000000000000000000815260040160405180910390fd5b60005b818110156104335760008382815181106103a05761039f610845565b5b60200260200101519050600a8111156103f057806040517f590e1cd60000000000000000000000000000000000000000000000000000000081526004016103e791906105bf565b60405180910390fd5b806001838154811061040557610404610845565b5b90600052602060002001600082825461041e91906108a3565b92505081905550508080600101915050610383565b505050565b60008054906101000a900473ffffffffffffffffffffffffffffffffffffffff1681565b828054828255906000526020600020908101928215610498579160200282015b8281111561049757825182559160200191906001019061047c565b5b5090506104a591906104a9565b5090565b5b808211156104c25760008160009055506001016104aa565b5090565b600081519050919050565b600082825260208201905092915050565b6000819050602082019050919050565b6000819050919050565b610505816104f2565b82525050565b600061051783836104fc565b60208301905092915050565b6000602082019050919050565b600061053b826104c6565b61054581856104d1565b9350610550836104e2565b8060005b83811015610581578151610568888261050b565b975061057383610523565b925050600181019050610554565b5085935050505092915050565b600060208201905081810360008301526105a88184610530565b905092915050565b6105b9816104f2565b82525050565b60006020820190506105d460008301846105b0565b92915050565b6000604051905090565b600080fd5b600080fd5b6105f7816104f2565b811461060257600080fd5b50565b600081359050610614816105ee565b92915050565b6000602082840312156106305761062f6105e4565b5b600061063e84828501610605565b91505092915050565b600080fd5b6000601f19601f8301169050919050565b7f4e487b7100000000000000000000000000000000000000000000000000000000600052604160045260246000fd5b6106958261064c565b810181811067ffffffffffffffff821117156106b4576106b361065d565b5b80604052505050565b60006106c76105da565b90506106d3828261068c565b919050565b600067ffffffffffffffff8211156106f3576106f261065d565b5b602082029050602081019050919050565b600080fd5b600061071c610717846106d8565b6106bd565b9050808382526020820190506020840283018581111561073f5761073e610704565b5b835b8181101561076857806107548882610605565b845260208401935050602081019050610741565b5050509392505050565b600082601f83011261078757610786610647565b5b8135610797848260208601610709565b91505092915050565b6000602082840312156107b6576107b56105e4565b5b600082013567ffffffffffffffff8111156107d4576107d36105e9565b5b6107e084828501610772565b91505092915050565b600073ffffffffffffffffffffffffffffffffffffffff82169050919050565b6000610814826107e9565b9050919050565b61082481610809565b82525050565b600060208201905061083f600083018461081b565b92915050565b7f4e487b7100000000000000000000000000000000000000000000000000000000600052603260045260246000fd5b7f4e487b7100000000000000000000000000000000000000000000000000000000600052601160045260246000fd5b60006108ae826104f2565b91506108b9836104f2565b92508282019050808211156108d1576108d0610874565b5b9291505056fea2646970667358221220af94e1b83e71bf50fcc6492f1e8ff6550ca14b7a620994b88fa66928d9c34c0264736f6c63430008180033608060405234801561001057600080fd5b50604051610c25380380610c25833981810160405281019061003291906100db565b806000806101000a81548173ffffffffffffffffffffffffffffffffffffffff021916908373ffffffffffffffffffffffffffffffffffffffff16021790555050610108565b600080fd5b600073ffffffffffffffffffffffffffffffffffffffff82169050919050565b60006100a88261007d565b9050919050565b6100b88161009d565b81146100c357600080fd5b50565b6000815190506100d5816100af565b92915050565b6000602082840312156100f1576100f0610078565b5b60006100ff848285016100c6565b91505092915050565b610b0e806101176000396000f3fe608060405234801561001057600080fd5b506004361061004c5760003560e01c80630dc9601514610051578063b7b0422d1461006f578063ce11f2bb1461008b578063e407bcbd146100a7575b600080fd5b6100596100c5565b60405161006691906107b9565b60405180910390f35b6100896004803603810190610084919061081b565b6101e9565b005b6100a560048036038101906100a091906109a1565b610369565b005b6100af6104fc565b6040516100bc9190610a2b565b60405180910390f35b606060008054906101000a900473ffffffffffffffffffffffffffffffffffffffff1673ffffffffffffffffffffffffffffffffffffffff163373ffffffffffffffffffffffffffffffffffffffff161461014c576040517fa0acb8a400000000000000000000000000000000000000000000000000000000815260040160405180910390fd5b6001805480602002602001604051908101604052809291908181526020016000905b828210156101e0578382906000526020600020018054806020026020016040519081016040528092919081815260200182805480156101cc57602002820191906000526020600020905b8154815260200190600101908083116101b8575b50505050508152602001906001019061016e565b50505050905090565b60008054906101000a900473ffffffffffffffffffffffffffffffffffffffff1673ffffffffffffffffffffffffffffffffffffffff163373ffffffffffffffffffffffffffffffffffffffff161461026e576040517fa0acb8a400000000000000000000000000000000000000000000000000000000815260040160405180910390fd5b8067ffffffffffffffff8111156102885761028761085e565b5b6040519080825280602002602001820160405280156102bb57816020015b60608152602001906001900390816102a65790505b50600190805190602001906102d1929190610520565b5060005b81811015610365578167ffffffffffffffff8111156102f7576102f661085e565b5b6040519080825280602002602001820160405280156103255781602001602082028036833780820191505090505b506001828154811061033a57610339610a46565b5b906000526020600020019080519060200190610357929190610580565b5080806001019150506102d5565b5050565b60008054906101000a900473ffffffffffffffffffffffffffffffffffffffff1673ffffffffffffffffffffffffffffffffffffffff163373ffffffffffffffffffffffffffffffffffffffff16146103ee576040517fa0acb8a400000000000000000000000000000000000000000000000000000000815260040160405180910390fd5b6000600180549050905080825114610432576040517f6e2ca24900000000000000000000000000000000000000000000000000000000815260040160405180910390fd5b60005b818110156104f757600060018261044c9190610aa4565b90505b828110156104e95760018085848151811061046d5761046c610a46565b5b60200260200101518154811061048657610485610a46565b5b906000526020600020018583815181106104a3576104a2610a46565b5b6020026020010151815481106104bc576104bb610a46565b5b9060005260206000200160008282546104d59190610aa4565b92505081905550808060010191505061044f565b508080600101915050610435565b505050565b60008054906101000a900473ffffffffffffffffffffffffffffffffffffffff1681565b82805482825590600052602060002090810192821561056f579160200282015b8281111561056e57825182908051906020019061055e929190610580565b5091602001919060010190610540565b5b50905061057c91906105cd565b5090565b8280548282559060005260206000209081019282156105bc579160200282015b828111156105bb5782518255916020019190600101906105a0565b5b5090506105c991906105f1565b5090565b5b808211156105ed57600081816105e4919061060e565b506001016105ce565b5090565b5b8082111561060a5760008160009055506001016105f2565b5090565b508054600082559060005260206000209081019061062c91906105f1565b50565b600081519050919050565b600082825260208201905092915050565b6000819050602082019050919050565b600081519050919050565b600082825260208201905092915050565b6000819050602082019050919050565b6000819050919050565b61069a81610687565b82525050565b60006106ac8383610691565b60208301905092915050565b6000602082019050919050565b60006106d08261065b565b6106da8185610666565b93506106e583610677565b8060005b838110156107165781516106fd88826106a0565b9750610708836106b8565b9250506001810190506106e9565b5085935050505092915050565b600061072f83836106c5565b905092915050565b6000602082019050919050565b600061074f8261062f565b610759818561063a565b93508360208202850161076b8561064b565b8060005b858110156107a757848403895281516107888582610723565b945061079383610737565b925060208a0199505060018101905061076f565b50829750879550505050505092915050565b600060208201905081810360008301526107d38184610744565b905092915050565b6000604051905090565b600080fd5b600080fd5b6107f881610687565b811461080357600080fd5b50565b600081359050610815816107ef565b92915050565b600060208284031215610831576108306107e5565b5b600061083f84828501610806565b91505092915050565b600080fd5b6000601f19601f8301169050919050565b7f4e487b7100000000000000000000000000000000000000000000000000000000600052604160045260246000fd5b6108968261084d565b810181811067ffffffffffffffff821117156108b5576108b461085e565b5b80604052505050565b60006108c86107db565b90506108d4828261088d565b919050565b600067ffffffffffffffff8211156108f4576108f361085e565b5b602082029050602081019050919050565b600080fd5b600061091d610918846108d9565b6108be565b905080838252602082019050602084028301858111156109405761093f610905565b5b835b8181101561096957806109558882610806565b845260208401935050602081019050610942565b5050509392505050565b600082601f83011261098857610987610848565b5b813561099884826020860161090a565b91505092915050565b6000602082840312156109b7576109b66107e5565b5b600082013567ffffffffffffffff8111156109d5576109d46107ea565b5b6109e184828501610973565b91505092915050565b600073ffffffffffffffffffffffffffffffffffffffff82169050919050565b6000610a15826109ea565b9050919050565b610a2581610a0a565b82525050565b6000602082019050610a406000830184610a1c565b92915050565b7f4e487b7100000000000000000000000000000000000000000000000000000000600052603260045260246000fd5b7f4e487b7100000000000000000000000000000000000000000000000000000000600052601160045260246000fd5b6000610aaf82610687565b9150610aba83610687565b9250828201905080821115610ad257610ad1610a75565b5b9291505056fea264697066735822122076cd2ad110c581ad6ae461f1534885b41ff89377a60f029ce034bcb2e6d88cd364736f6c63430008180033608060405234801561001057600080fd5b50604051610c25380380610c25833981810160405281019061003291906100db565b806000806101000a81548173ffffffffffffffffffffffffffffffffffffffff021916908373ffffffffffffffffffffffffffffffffffffffff16021790555050610108565b600080fd5b600073ffffffffffffffffffffffffffffffffffffffff82169050919050565b60006100a88261007d565b9050919050565b6100b88161009d565b81146100c357600080fd5b50565b6000815190506100d5816100af565b92915050565b6000602082840312156100f1576100f0610078565b5b60006100ff848285016100c6565b91505092915050565b610b0e806101176000396000f3fe608060405234801561001057600080fd5b506004361061004c5760003560e01c80630dc9601514610051578063b7b0422d1461006f578063ce11f2bb1461008b578063e407bcbd146100a7575b600080fd5b6100596100c5565b60405161006691906107b9565b60405180910390f35b6100896004803603810190610084919061081b565b6101e9565b005b6100a560048036038101906100a091906109a1565b610369565b005b6100af6104fc565b6040516100bc9190610a2b565b60405180910390f35b606060008054906101000a900473ffffffffffffffffffffffffffffffffffffffff1673ffffffffffffffffffffffffffffffffffffffff163373ffffffffffffffffffffffffffffffffffffffff161461014c576040517fa0acb8a400000000000000000000000000000000000000000000000000000000815260040160405180910390fd5b6001805480602002602001604051908101604052809291908181526020016000905b828210156101e0578382906000526020600020018054806020026020016040519081016040528092919081815260200182805480156101cc57602002820191906000526020600020905b8154815260200190600101908083116101b8575b50505050508152602001906001019061016e565b50505050905090565b60008054906101000a900473ffffffffffffffffffffffffffffffffffffffff1673ffffffffffffffffffffffffffffffffffffffff163373ffffffffffffffffffffffffffffffffffffffff161461026e576040517fa0acb8a400000000000000000000000000000000000000000000000000000000815260040160405180910390fd5b8067ffffffffffffffff8111156102885761028761085e565b5b6040519080825280602002602001820160405280156102bb57816020015b60608152602001906001900390816102a65790505b50600190805190602001906102d1929190610520565b5060005b81811015610365578167ffffffffffffffff8111156102f7576102f661085e565b5b6040519080825280602002602001820160405280156103255781602001602082028036833780820191505090505b506001828154811061033a57610339610a46565b5b906000526020600020019080519060200190610357929190610580565b5080806001019150506102d5565b5050565b60008054906101000a900473ffffffffffffffffffffffffffffffffffffffff1673ffffffffffffffffffffffffffffffffffffffff163373ffffffffffffffffffffffffffffffffffffffff16146103ee576040517fa0acb8a400000000000000000000000000000000000000000000000000000000815260040160405180910390fd5b6000600180549050905080825114610432576040517f6e2ca24900000000000000000000000000000000000000000000000000000000815260040160405180910390fd5b60005b818110156104f757600060018261044c9190610aa4565b90505b828110156104e95760018085848151811061046d5761046c610a46565b5b60200260200101518154811061048657610485610a46565b5b906000526020600020018583815181106104a3576104a2610a46565b5b6020026020010151815481106104bc576104bb610a46565b5b9060005260206000200160008282546104d59190610aa4565b92505081905550808060010191505061044f565b508080600101915050610435565b505050565b60008054906101000a900473ffffffffffffffffffffffffffffffffffffffff1681565b82805482825590600052602060002090810192821561056f579160200282015b8281111561056e57825182908051906020019061055e929190610580565b5091602001919060010190610540565b5b50905061057c91906105cd565b5090565b8280548282559060005260206000209081019282156105bc579160200282015b828111156105bb5782518255916020019190600101906105a0565b5b5090506105c991906105f1565b5090565b5b808211156105ed57600081816105e4919061060e565b506001016105ce565b5090565b5b8082111561060a5760008160009055506001016105f2565b5090565b508054600082559060005260206000209081019061062c91906105f1565b50565b600081519050919050565b600082825260208201905092915050565b6000819050602082019050919050565b600081519050919050565b600082825260208201905092915050565b6000819050602082019050919050565b6000819050919050565b61069a81610687565b82525050565b60006106ac8383610691565b60208301905092915050565b6000602082019050919050565b60006106d08261065b565b6106da8185610666565b93506106e583610677565b8060005b838110156107165781516106fd88826106a0565b9750610708836106b8565b9250506001810190506106e9565b5085935050505092915050565b600061072f83836106c5565b905092915050565b6000602082019050919050565b600061074f8261062f565b610759818561063a565b93508360208202850161076b8561064b565b8060005b858110156107a757848403895281516107888582610723565b945061079383610737565b925060208a0199505060018101905061076f565b50829750879550505050505092915050565b600060208201905081810360008301526107d38184610744565b905092915050565b6000604051905090565b600080fd5b600080fd5b6107f881610687565b811461080357600080fd5b50565b600081359050610815816107ef565b92915050565b600060208284031215610831576108306107e5565b5b600061083f84828501610806565b91505092915050565b600080fd5b6000601f19601f8301169050919050565b7f4e487b7100000000000000000000000000000000000000000000000000000000600052604160045260246000fd5b6108968261084d565b810181811067ffffffffffffffff821117156108b5576108b461085e565b5b80604052505050565b60006108c86107db565b90506108d4828261088d565b919050565b600067ffffffffffffffff8211156108f4576108f361085e565b5b602082029050602081019050919050565b600080fd5b600061091d610918846108d9565b6108be565b905080838252602082019050602084028301858111156109405761093f610905565b5b835b8181101561096957806109558882610806565b845260208401935050602081019050610942565b5050509392505050565b600082601f83011261098857610987610848565b5b813561099884826020860161090a565b91505092915050565b6000602082840312156109b7576109b66107e5565b5b600082013567ffffffffffffffff8111156109d5576109d46107ea565b5b6109e184828501610973565b91505092915050565b600073ffffffffffffffffffffffffffffffffffffffff82169050919050565b6000610a15826109ea565b9050919050565b610a2581610a0a565b82525050565b6000602082019050610a406000830184610a1c565b92915050565b7f4e487b7100000000000000000000000000000000000000000000000000000000600052603260045260246000fd5b7f4e487b7100000000000000000000000000000000000000000000000000000000600052601160045260246000fd5b6000610aaf82610687565b9150610aba83610687565b9250828201905080821115610ad257610ad1610a75565b5b9291505056fea26469706673582212204223a76dcf7ffc7e904fcc3733a8a7dc5e130855cb256408b822147c90aa046264736f6c63430008180033a2646970667358221220d3a8bd68b06376dbabccc5187169e1960537d03e4aef6db3799fd420961dbd2364736f6c63430008180033608060405234801561001057600080fd5b50611dd8806100206000396000f3fe608060405234801561001057600080fd5b50600436106100625760003560e01c80631557be75146100675780631892513814610097578063934150cc146100c7578063af6de5a1146100f7578063b226565314610127578063d517599014610157575b600080fd5b610081600480360381019061007c919061179c565b610187565b60405161008e91906117fe565b60405180910390f35b6100b160048036038101906100ac919061179c565b6101b7565b6040516100be91906117fe565b60405180910390f35b6100e160048036038101906100dc91906118a5565b6101e7565b6040516100ee91906117fe565b60405180910390f35b610111600480360381019061010c9190611905565b6103b9565b60405161011e91906117fe565b60405180910390f35b610141600480360381019061013c919061179c565b610463565b60405161014e91906117fe565b60405180910390f35b610171600480360381019061016c919061179c565b610493565b60405161017e91906117fe565b60405180910390f35b6000808280602001905181019061019e9190611b0b565b905060006101ab826104c3565b90508092505050919050565b600080828060200190518101906101ce9190611b0b565b905060006101db82610709565b90508092505050919050565b60006003821015610203576101fc84846103b9565b90506103b2565b6003820361025f5761025884848080601f016020809104026020016040519081016040528093929190818152602001838380828437600081840152601f19601f82011690508083019250505050505050610463565b90506103b2565b600482036102bb576102b484848080601f016020809104026020016040519081016040528093929190818152602001838380828437600081840152601f19601f82011690508083019250505050505050610187565b90506103b2565b600582036102d4576102cd84846103b9565b90506103b2565b600682036102ed576102e684846103b9565b90506103b2565b600782036103495761034284848080601f016020809104026020016040519081016040528093929190818152602001838380828437600081840152601f19601f82011690508083019250505050505050610493565b90506103b2565b600882036103a55761039e84848080601f016020809104026020016040519081016040528093929190818152602001838380828437600081840152601f19601f820116905080830192505050505050506101b7565b90506103b2565b6103af84846103b9565b90505b9392505050565b60008083838101906103cb9190611beb565b90506000808251905060005b835181101561041c5760008482815181106103f5576103f4611c34565b5b602002602001015190508381111561040e578093508192505b5080806001019150506103d7565b5082518103610457576040517f8b9ae95f00000000000000000000000000000000000000000000000000000000815260040160405180910390fd5b80935050505092915050565b6000808280602001905181019061047a9190611b0b565b9050600061048782610cc7565b90508092505050919050565b600080828060200190518101906104aa9190611b0b565b905060006104b782610fde565b90508092505050919050565b600080826000815181106104da576104d9611c34565b5b60200260200101515190506000810361051f576040517fe504190400000000000000000000000000000000000000000000000000000000815260040160405180910390fd5b60008167ffffffffffffffff81111561053b5761053a611671565b5b6040519080825280602002602001820160405280156105695781602001602082028036833780820191505090505b50905060005b84518110156106335760005b85828151811061058e5761058d611c34565b5b60200260200101515181101561062557600181856105ac9190611c92565b6105b69190611c92565b838784815181106105ca576105c9611c34565b5b602002602001015183815181106105e4576105e3611c34565b5b6020026020010151815181106105fd576105fc611c34565b5b602002602001018181516106119190611cc6565b91508181525050808060010191505061057b565b50808060010191505061056f565b506000806000805b84518110156106c3578385828151811061065857610657611c34565b5b6020026020010151111561068f5784818151811061067957610678611c34565b5b60200260200101519350809250600091506106b6565b838582815181106106a3576106a2611c34565b5b6020026020010151036106b557600191505b5b808060010191505061063b565b5080156106fc576040517fac5997c700000000000000000000000000000000000000000000000000000000815260040160405180910390fd5b8195505050505050919050565b600080825190506000810361074a576040517fe504190400000000000000000000000000000000000000000000000000000000815260040160405180910390fd5b60008167ffffffffffffffff81111561076657610765611671565b5b60405190808252806020026020018201604052801561079957816020015b60608152602001906001900390816107845790505b50905060005b8281101561081b578267ffffffffffffffff8111156107c1576107c0611671565b5b6040519080825280602002602001820160405280156107ef5781602001602082028036833780820191505090505b5082828151811061080357610802611c34565b5b6020026020010181905250808060010191505061079f565b5060005b828110156109345760005b83811015610926578082146109195785818151811061084c5761084b611c34565b5b6020026020010151828151811061086657610865611c34565b5b602002602001015186838151811061088157610880611c34565b5b6020026020010151828151811061089b5761089a611c34565b5b60200260200101511115610918578582815181106108bc576108bb611c34565b5b602002602001015181815181106108d6576108d5611c34565b5b60200260200101518383815181106108f1576108f0611c34565b5b6020026020010151828151811061090b5761090a611c34565b5b6020026020010181815250505b5b808060010191505061082a565b50808060010191505061081f565b5060005b82811015610b995760005b83811015610b8b57808214610b7e5760005b84811015610b7c5780831415801561096d5750808214155b15610b6f5783828151811061098557610984611c34565b5b6020026020010151838151811061099f5761099e611c34565b5b60200260200101518483815181106109ba576109b9611c34565b5b602002602001015182815181106109d4576109d3611c34565b5b6020026020010151108015610a5057508383815181106109f7576109f6611c34565b5b60200260200101518181518110610a1157610a10611c34565b5b6020026020010151848381518110610a2c57610a2b611c34565b5b60200260200101518281518110610a4657610a45611c34565b5b6020026020010151105b15610b6e57838381518110610a6857610a67611c34565b5b60200260200101518181518110610a8257610a81611c34565b5b6020026020010151848381518110610a9d57610a9c611c34565b5b60200260200101518481518110610ab757610ab6611c34565b5b602002602001015110610afe57838381518110610ad757610ad6611c34565b5b60200260200101518181518110610af157610af0611c34565b5b6020026020010151610b34565b838281518110610b1157610b10611c34565b5b60200260200101518381518110610b2b57610b2a611c34565b5b60200260200101515b848381518110610b4757610b46611c34565b5b60200260200101518281518110610b6157610b60611c34565b5b6020026020010181815250505b5b8080600101915050610955565b505b8080600101915050610943565b508080600101915050610938565b50600080806000905060005b85811015610c81576000805b87811015610c4e57808314610c4157868181518110610bd357610bd2611c34565b5b60200260200101518381518110610bed57610bec611c34565b5b6020026020010151878481518110610c0857610c07611c34565b5b60200260200101518281518110610c2257610c21611c34565b5b60200260200101511115610c4057600182610c3d9190611cc6565b91505b5b8080600101915050610bb1565b5084811115610c665780945081935060009250610c73565b848103610c7257600192505b5b508080600101915050610ba5565b508015610cba576040517fac5997c700000000000000000000000000000000000000000000000000000000815260040160405180910390fd5b8195505050505050919050565b60008082600081518110610cde57610cdd611c34565b5b602002602001015151905060008103610d23576040517fe504190400000000000000000000000000000000000000000000000000000000815260040160405180910390fd5b5b600115610fa7576000610d37848361145d565b905060005b8151811015610d8c5760028551610d539190611d29565b828281518110610d6657610d65611c34565b5b60200260200101511115610d7f57809350505050610fd9565b8080600101915050610d3c565b5060008451905060008551905060006001905060005b8451811015610e775783858281518110610dbf57610dbe611c34565b5b6020026020010151108015610dee57506000858281518110610de457610de3611c34565b5b6020026020010151115b15610e1c57848181518110610e0657610e05611c34565b5b6020026020010151935080925060009150610e6a565b83858281518110610e3057610e2f611c34565b5b6020026020010151148015610e5f57506000858281518110610e5557610e54611c34565b5b6020026020010151115b15610e6957600091505b5b8080600101915050610da2565b50600285148015610e855750805b15610ebc576040517fac5997c700000000000000000000000000000000000000000000000000000000815260040160405180910390fd5b60005b8751811015610f1757610eec888281518110610ede57610edd611c34565b5b602002602001015184611556565b888281518110610eff57610efe611c34565b5b60200260200101819052508080600101915050610ebf565b5060006001905060005b8851811015610f64576000898281518110610f3f57610f3e611c34565b5b6020026020010151511115610f575760009150610f64565b8080600101915050610f21565b508015610f9d576040517fd7b4628c00000000000000000000000000000000000000000000000000000000815260040160405180910390fd5b5050505050610d24565b6040517f8b9ae95f00000000000000000000000000000000000000000000000000000000815260040160405180910390fd5b919050565b600080825190506000810361101f576040517fe504190400000000000000000000000000000000000000000000000000000000815260040160405180910390fd5b60008167ffffffffffffffff81111561103b5761103a611671565b5b60405190808252806020026020018201604052801561106e57816020015b60608152602001906001900390816110595790505b50905060005b82811015611229578267ffffffffffffffff81111561109657611095611671565b5b6040519080825280602002602001820160405280156110c45781602001602082028036833780820191505090505b508282815181106110d8576110d7611c34565b5b602002602001018190525060005b8381101561121b5780821461120e5785818151811061110857611107611c34565b5b6020026020010151828151811061112257611121611c34565b5b602002602001015186838151811061113d5761113c611c34565b5b6020026020010151828151811061115757611156611c34565b5b60200260200101511161119e5785818151811061117757611176611c34565b5b6020026020010151828151811061119157611190611c34565b5b60200260200101516111d4565b8582815181106111b1576111b0611c34565b5b602002602001015181815181106111cb576111ca611c34565b5b60200260200101515b8383815181106111e7576111e6611c34565b5b6020026020010151828151811061120157611200611c34565b5b6020026020010181815250505b80806001019150506110e6565b508080600101915050611074565b5060008267ffffffffffffffff81111561124657611245611671565b5b6040519080825280602002602001820160405280156112745781602001602082028036833780820191505090505b5090506000805b848110156113ef5760008567ffffffffffffffff81111561129f5761129e611671565b5b6040519080825280602002602001820160405280156112cd5781602001602082028036833780820191505090505b5090506000805b878110156113d0578084146113c3578681815181106112f6576112f5611c34565b5b602002602001015184815181106113105761130f611c34565b5b602002602001015187858151811061132b5761132a611c34565b5b6020026020010151828151811061134557611344611c34565b5b602002602001015111156113c25782848151811061136657611365611c34565b5b60200260200101805180919061137b90611d5a565b8152505086848151811061139257611391611c34565b5b602002602001015181815181106113ac576113ab611c34565b5b6020026020010151826113bf9190611cc6565b91505b5b80806001019150506112d4565b50838111156113e0578093508194505b5050808060010191505061127b565b5060008060005b8681101561144e578185828151811061141257611411611c34565b5b602002602001015111156114415784818151811061143357611432611c34565b5b602002602001015191508092505b80806001019150506113f6565b50819650505050505050919050565b606060008267ffffffffffffffff81111561147b5761147a611671565b5b6040519080825280602002602001820160405280156114a95781602001602082028036833780820191505090505b50905060005b845181101561154b5760008582815181106114cd576114cc611c34565b5b602002602001015151111561153e57818582815181106114f0576114ef611c34565b5b602002602001015160008151811061150b5761150a611c34565b5b60200260200101518151811061152457611523611c34565b5b60200260200101805180919061153990611d5a565b815250505b80806001019150506114af565b508091505092915050565b60606000600184516115689190611c92565b67ffffffffffffffff81111561158157611580611671565b5b6040519080825280602002602001820160405280156115af5781602001602082028036833780820191505090505b5090506000805b855181101561163657848682815181106115d3576115d2611c34565b5b602002602001015114611629578581815181106115f3576115f2611c34565b5b602002602001015183838151811061160e5761160d611c34565b5b602002602001018181525050818061162590611d5a565b9250505b80806001019150506115b6565b50819250505092915050565b6000604051905090565b600080fd5b600080fd5b600080fd5b600080fd5b6000601f19601f8301169050919050565b7f4e487b7100000000000000000000000000000000000000000000000000000000600052604160045260246000fd5b6116a982611660565b810181811067ffffffffffffffff821117156116c8576116c7611671565b5b80604052505050565b60006116db611642565b90506116e782826116a0565b919050565b600067ffffffffffffffff82111561170757611706611671565b5b61171082611660565b9050602081019050919050565b82818337600083830152505050565b600061173f61173a846116ec565b6116d1565b90508281526020810184848401111561175b5761175a61165b565b5b61176684828561171d565b509392505050565b600082601f83011261178357611782611656565b5b813561179384826020860161172c565b91505092915050565b6000602082840312156117b2576117b161164c565b5b600082013567ffffffffffffffff8111156117d0576117cf611651565b5b6117dc8482850161176e565b91505092915050565b6000819050919050565b6117f8816117e5565b82525050565b600060208201905061181360008301846117ef565b92915050565b600080fd5b600080fd5b60008083601f84011261183957611838611656565b5b8235905067ffffffffffffffff81111561185657611855611819565b5b6020830191508360018202830111156118725761187161181e565b5b9250929050565b611882816117e5565b811461188d57600080fd5b50565b60008135905061189f81611879565b92915050565b6000806000604084860312156118be576118bd61164c565b5b600084013567ffffffffffffffff8111156118dc576118db611651565b5b6118e886828701611823565b935093505060206118fb86828701611890565b9150509250925092565b6000806020838503121561191c5761191b61164c565b5b600083013567ffffffffffffffff81111561193a57611939611651565b5b61194685828601611823565b92509250509250929050565b600067ffffffffffffffff82111561196d5761196c611671565b5b602082029050602081019050919050565b600067ffffffffffffffff82111561199957611998611671565b5b602082029050602081019050919050565b6000815190506119b981611879565b92915050565b60006119d26119cd8461197e565b6116d1565b905080838252602082019050602084028301858111156119f5576119f461181e565b5b835b81811015611a1e5780611a0a88826119aa565b8452602084019350506020810190506119f7565b5050509392505050565b600082601f830112611a3d57611a3c611656565b5b8151611a4d8482602086016119bf565b91505092915050565b6000611a69611a6484611952565b6116d1565b90508083825260208201905060208402830185811115611a8c57611a8b61181e565b5b835b81811015611ad357805167ffffffffffffffff811115611ab157611ab0611656565b5b808601611abe8982611a28565b85526020850194505050602081019050611a8e565b5050509392505050565b600082601f830112611af257611af1611656565b5b8151611b02848260208601611a56565b91505092915050565b600060208284031215611b2157611b2061164c565b5b600082015167ffffffffffffffff811115611b3f57611b3e611651565b5b611b4b84828501611add565b91505092915050565b6000611b67611b628461197e565b6116d1565b90508083825260208201905060208402830185811115611b8a57611b8961181e565b5b835b81811015611bb35780611b9f8882611890565b845260208401935050602081019050611b8c565b5050509392505050565b600082601f830112611bd257611bd1611656565b5b8135611be2848260208601611b54565b91505092915050565b600060208284031215611c0157611c0061164c565b5b600082013567ffffffffffffffff811115611c1f57611c1e611651565b5b611c2b84828501611bbd565b91505092915050565b7f4e487b7100000000000000000000000000000000000000000000000000000000600052603260045260246000fd5b7f4e487b7100000000000000000000000000000000000000000000000000000000600052601160045260246000fd5b6000611c9d826117e5565b9150611ca8836117e5565b9250828203905081811115611cc057611cbf611c63565b5b92915050565b6000611cd1826117e5565b9150611cdc836117e5565b9250828201905080821115611cf457611cf3611c63565b5b92915050565b7f4e487b7100000000000000000000000000000000000000000000000000000000600052601260045260246000fd5b6000611d34826117e5565b9150611d3f836117e5565b925082611d4f57611d4e611cfa565b5b828204905092915050565b6000611d65826117e5565b91507fffffffffffffffffffffffffffffffffffffffffffffffffffffffffffffffff8203611d9757611d96611c63565b5b60018201905091905056fea2646970667358221220faa1d2c85684997fd0ca27c7314e86d071715df30ebbb96bde0360de085a66b964736f6c63430008180033",
  "linkReferences": {},
  "deployedLinkReferences": {}
}