{
  "_format": "hh-sol-artifact-1",
  "contractName": "ElectionOrganizer",
  "sourceName": "contracts/facets/ElectionOrganizer.sol",
  "abi": [
    {
      "anonymous": false,
      "inputs": [
        {
          "indexed": false,
          "internalType": "address",
          "name": "election",
          "type": "address"
        },
        {
          "components": [
            {
              "internalType": "uint256",
              "name": "candidateID",
              "type": "uint256"
            },
            {
              "internalType": "string",
              "name": "name",
              "type": "string"
            },
            {
              "internalType": "string",
              "name": "description",
              "type": "string"
            }
          ],
          "indexed": false,
          "internalType": "struct Election.Candidate",
          "name": "candidate",
          "type": "tuple"
        }
      ],
      "name": "CandidateAdded",
      "type": "event"
    },
    {
      "anonymous": false,
      "inputs": [
        {
          "indexed": false,
          "internalType": "address",
          "name": "election",
          "type": "address"
        }
      ],
      "name": "CreatedElection",
      "type": "event"
    },
    {
      "inputs": [
        {
          "internalType": "contract Election",
          "name": "_election",
          "type": "address"
        },
        {
          "components": [
            {
              "internalType": "uint256",
              "name": "candidateID",
              "type": "uint256"
            },
            {
              "internalType": "string",
              "name": "name",
              "type": "string"
            },
            {
              "internalType": "string",
              "name": "description",
              "type": "string"
            }
          ],
          "internalType": "struct Election.Candidate",
          "name": "_candidate",
          "type": "tuple"
        }
      ],
      "name": "addCandidate",
      "outputs": [],
      "stateMutability": "nonpayable",
      "type": "function"
    },
    {
      "inputs": [
        {
          "components": [
            {
              "internalType": "uint256",
              "name": "organizerID",
              "type": "uint256"
            },
            {
              "internalType": "string",
              "name": "name",
              "type": "string"
            },
            {
              "internalType": "address",
              "name": "publicAddress",
              "type": "address"
            }
          ],
          "internalType": "struct ElectionOrganizer.OrganizerInfo",
          "name": "_organizerInfo",
          "type": "tuple"
        }
      ],
      "name": "addElectionOrganizer",
      "outputs": [],
      "stateMutability": "nonpayable",
      "type": "function"
    },
    {
      "inputs": [
        {
          "internalType": "address",
          "name": "_addOrganizer",
          "type": "address"
        },
        {
          "internalType": "address",
          "name": "_election",
          "type": "address"
        }
      ],
      "name": "addOrganizerToInviteBasedElection",
      "outputs": [],
      "stateMutability": "nonpayable",
      "type": "function"
    },
    {
      "inputs": [
        {
          "components": [
            {
              "internalType": "uint256",
              "name": "electionID",
              "type": "uint256"
            },
            {
              "internalType": "string",
              "name": "name",
              "type": "string"
            },
            {
              "internalType": "string",
              "name": "description",
              "type": "string"
            },
            {
              "internalType": "uint256",
              "name": "startDate",
              "type": "uint256"
            },
            {
              "internalType": "uint256",
              "name": "endDate",
              "type": "uint256"
            },
            {
              "internalType": "bool",
              "name": "electionType",
              "type": "bool"
            }
          ],
          "internalType": "struct Election.ElectionInfo",
          "name": "_electionInfo",
          "type": "tuple"
        },
        {
          "internalType": "uint256",
          "name": "_ballotType",
          "type": "uint256"
        },
        {
          "internalType": "uint256",
          "name": "_resultCalculatorType",
          "type": "uint256"
        }
      ],
      "name": "createElection",
      "outputs": [],
      "stateMutability": "nonpayable",
      "type": "function"
    },
    {
      "inputs": [],
      "name": "electionOrganizerInit",
      "outputs": [],
      "stateMutability": "nonpayable",
      "type": "function"
    },
    {
      "inputs": [],
      "name": "getElectionFactory",
      "outputs": [
        {
          "internalType": "address",
          "name": "",
          "type": "address"
        }
      ],
      "stateMutability": "view",
      "type": "function"
    },
    {
      "inputs": [
        {
          "internalType": "address",
          "name": "_address",
          "type": "address"
        }
      ],
      "name": "getElectionOrganizerByAddress",
      "outputs": [
        {
          "components": [
            {
              "internalType": "uint256",
              "name": "organizerID",
              "type": "uint256"
            },
            {
              "internalType": "string",
              "name": "name",
              "type": "string"
            },
            {
              "internalType": "address",
              "name": "publicAddress",
              "type": "address"
            }
          ],
          "internalType": "struct ElectionOrganizer.OrganizerInfo",
          "name": "",
          "type": "tuple"
        }
      ],
      "stateMutability": "view",
      "type": "function"
    },
    {
      "inputs": [
        {
          "internalType": "uint256",
          "name": "_organizerID",
          "type": "uint256"
        }
      ],
      "name": "getElectionOrganizerByID",
      "outputs": [
        {
          "components": [
            {
              "internalType": "uint256",
              "name": "organizerID",
              "type": "uint256"
            },
            {
              "internalType": "string",
              "name": "name",
              "type": "string"
            },
            {
              "internalType": "address",
              "name": "publicAddress",
              "type": "address"
            }
          ],
          "internalType": "struct ElectionOrganizer.OrganizerInfo",
          "name": "",
          "type": "tuple"
        }
      ],
      "stateMutability": "view",
      "type": "function"
    },
    {
      "inputs": [],
      "name": "getElectionOrganizers",
      "outputs": [
        {
          "components": [
            {
              "internalType": "uint256",
              "name": "organizerID",
              "type": "uint256"
            },
            {
              "internalType": "string",
              "name": "name",
              "type": "string"
            },
            {
              "internalType": "address",
              "name": "publicAddress",
              "type": "address"
            }
          ],
          "internalType": "struct ElectionOrganizer.OrganizerInfo[]",
          "name": "",
          "type": "tuple[]"
        }
      ],
      "stateMutability": "view",
      "type": "function"
    },
    {
      "inputs": [
        {
          "internalType": "address",
          "name": "_election",
          "type": "address"
        }
      ],
      "name": "getElectionOwner",
      "outputs": [
        {
          "internalType": "address",
          "name": "",
          "type": "address"
        }
      ],
      "stateMutability": "view",
      "type": "function"
    },
    {
      "inputs": [],
      "name": "getElectionStorage",
      "outputs": [
        {
          "internalType": "address",
          "name": "",
          "type": "address"
        }
      ],
      "stateMutability": "view",
      "type": "function"
    },
    {
      "inputs": [
        {
          "internalType": "address",
          "name": "_organizer",
          "type": "address"
        }
      ],
      "name": "getInviteBasedElections",
      "outputs": [
        {
          "internalType": "address[]",
          "name": "",
          "type": "address[]"
        }
      ],
      "stateMutability": "view",
      "type": "function"
    },
    {
      "inputs": [],
      "name": "getOpenBasedElections",
      "outputs": [
        {
          "internalType": "address[]",
          "name": "",
          "type": "address[]"
        }
      ],
      "stateMutability": "view",
      "type": "function"
    },
    {
      "inputs": [
        {
          "internalType": "contract Election",
          "name": "_election",
          "type": "address"
        }
      ],
      "name": "getResult",
      "outputs": [
        {
          "internalType": "uint256[]",
          "name": "",
          "type": "uint256[]"
        }
      ],
      "stateMutability": "nonpayable",
      "type": "function"
    },
    {
      "inputs": [
        {
          "internalType": "contract Election",
          "name": "_election",
          "type": "address"
        },
        {
          "internalType": "string",
          "name": "_name",
          "type": "string"
        },
        {
          "internalType": "string",
          "name": "_description",
          "type": "string"
        },
        {
          "internalType": "uint256",
          "name": "index",
          "type": "uint256"
        }
      ],
      "name": "updateCandidateInfo",
      "outputs": [],
      "stateMutability": "nonpayable",
      "type": "function"
    }
  ],
  "bytecode": "0x6080604052606460035534801561001557600080fd5b50613cf3806100256000396000f3fe608060405234801561001057600080fd5b50600436106100f55760003560e01c8063761db9fb11610097578063936a116711610066578063936a11671461025e578063a8c019871461027a578063a95bc63514610298578063e5999c2b146102c8576100f5565b8063761db9fb146101d857806379db9ffe146101f65780637d1659fa1461022657806388e96eb614610242576100f5565b8063326e0d28116100d3578063326e0d281461013e57806332fb68cd1461015a57806335b5082814610178578063446a37e0146101a8576100f5565b80630249ff4d146100fa57806315d4ffa0146101185780631d43d8ed14610134575b600080fd5b6101026102f8565b60405161010f919061141b565b60405180910390f35b610132600480360381019061012d919061167c565b610322565b005b61013c610591565b005b6101586004803603810190610153919061179f565b6105fc565b005b610162610782565b60405161016f919061141b565b60405180910390f35b610192600480360381019061018d91906117fb565b6107b5565b60405161019f919061141b565b60405180910390f35b6101c260048036038101906101bd9190611828565b61085a565b6040516101cf9190611913565b60405180910390f35b6101e06108d9565b6040516101ed91906119f3565b60405180910390f35b610210600480360381019061020b9190611a15565b610976565b60405161021d9190611b1a565b60405180910390f35b610240600480360381019061023b9190611b3c565b610a95565b005b61025c60048036038101906102579190611c8c565b610b28565b005b61027860048036038101906102739190611cfb565b610e00565b005b610282610f53565b60405161028f9190611eac565b60405180910390f35b6102b260048036038101906102ad91906117fb565b6110a4565b6040516102bf9190611b1a565b60405180910390f35b6102e260048036038101906102dd91906117fb565b6111ef565b6040516102ef91906119f3565b60405180910390f35b6000600560009054906101000a900473ffffffffffffffffffffffffffffffffffffffff16905090565b600060016003546103339190611efd565b90508082600001818152505060008290806001815401808255809150506001900390600052602060002090600302016000909190919091506000820151816000015560208201518160010190805190602001906103919291906112f3565b5060408201518160020160006101000a81548173ffffffffffffffffffffffffffffffffffffffff021916908373ffffffffffffffffffffffffffffffffffffffff16021790555050508160016000846040015173ffffffffffffffffffffffffffffffffffffffff1673ffffffffffffffffffffffffffffffffffffffff1681526020019081526020016000206000820151816000015560208201518160010190805190602001906104459291906112f3565b5060408201518160020160006101000a81548173ffffffffffffffffffffffffffffffffffffffff021916908373ffffffffffffffffffffffffffffffffffffffff1602179055509050508160026000846000015181526020019081526020016000206000820151816000015560208201518160010190805190602001906104ce9291906112f3565b5060408201518160020160006101000a81548173ffffffffffffffffffffffffffffffffffffffff021916908373ffffffffffffffffffffffffffffffffffffffff160217905550905050600160046000846040015173ffffffffffffffffffffffffffffffffffffffff1673ffffffffffffffffffffffffffffffffffffffff16815260200190815260200160002060006101000a81548160ff0219169083151502179055506003600081548092919061058890611f53565b91905055505050565b60405161059d90611379565b604051809103906000f0801580156105b9573d6000803e3d6000fd5b50600560006101000a81548173ffffffffffffffffffffffffffffffffffffffff021916908373ffffffffffffffffffffffffffffffffffffffff160217905550565b8173ffffffffffffffffffffffffffffffffffffffff1663e04b1c0c6040518163ffffffff1660e01b8152600401602060405180830381865afa158015610647573d6000803e3d6000fd5b505050506040513d601f19601f8201168201806040525081019061066b9190611fb1565b8073ffffffffffffffffffffffffffffffffffffffff163373ffffffffffffffffffffffffffffffffffffffff16146106d9576040517f08c379a00000000000000000000000000000000000000000000000000000000081526004016106d090612061565b60405180910390fd5b8273ffffffffffffffffffffffffffffffffffffffff1663273ffe86836040518263ffffffff1660e01b815260040161071291906120d8565b600060405180830381600087803b15801561072c57600080fd5b505af1158015610740573d6000803e3d6000fd5b505050507fd0c201c1465de1cf8804d8aa806f3674abe49346aa6a18624a868dfa1410892183836040516107759291906120fa565b60405180910390a1505050565b600061078c611299565b60000160009054906101000a900473ffffffffffffffffffffffffffffffffffffffff16905090565b6000600560009054906101000a900473ffffffffffffffffffffffffffffffffffffffff1673ffffffffffffffffffffffffffffffffffffffff166335b50828836040518263ffffffff1660e01b8152600401610812919061141b565b602060405180830381865afa15801561082f573d6000803e3d6000fd5b505050506040513d601f19601f820116820180604052508101906108539190611fb1565b9050919050565b60608173ffffffffffffffffffffffffffffffffffffffff1663de2927896040518163ffffffff1660e01b81526004016000604051808303816000875af11580156108a9573d6000803e3d6000fd5b505050506040513d6000823e3d601f19601f820116820180604052508101906108d29190612207565b9050919050565b6060600560009054906101000a900473ffffffffffffffffffffffffffffffffffffffff1673ffffffffffffffffffffffffffffffffffffffff1663761db9fb6040518163ffffffff1660e01b8152600401600060405180830381865afa158015610948573d6000803e3d6000fd5b505050506040513d6000823e3d601f19601f820116820180604052508101906109719190612313565b905090565b61097e611386565b60026000838152602001908152602001600020604051806060016040529081600082015481526020016001820180546109b69061238b565b80601f01602080910402602001604051908101604052809291908181526020018280546109e29061238b565b8015610a2f5780601f10610a0457610100808354040283529160200191610a2f565b820191906000526020600020905b815481529060010190602001808311610a1257829003601f168201915b505050505081526020016002820160009054906101000a900473ffffffffffffffffffffffffffffffffffffffff1673ffffffffffffffffffffffffffffffffffffffff1673ffffffffffffffffffffffffffffffffffffffff16815250509050919050565b600560009054906101000a900473ffffffffffffffffffffffffffffffffffffffff1673ffffffffffffffffffffffffffffffffffffffff16637d1659fa83836040518363ffffffff1660e01b8152600401610af29291906123bd565b600060405180830381600087803b158015610b0c57600080fd5b505af1158015610b20573d6000803e3d6000fd5b505050505050565b600460003373ffffffffffffffffffffffffffffffffffffffff1673ffffffffffffffffffffffffffffffffffffffff16815260200190815260200160002060009054906101000a900460ff16610bb4576040517f08c379a0000000000000000000000000000000000000000000000000000000008152600401610bab90612458565b60405180910390fd5b6000610bbe611299565b60000160009054906101000a900473ffffffffffffffffffffffffffffffffffffffff16905060006001600560009054906101000a900473ffffffffffffffffffffffffffffffffffffffff1673ffffffffffffffffffffffffffffffffffffffff1663213785a06040518163ffffffff1660e01b8152600401602060405180830381865afa158015610c55573d6000803e3d6000fd5b505050506040513d601f19601f82011682018060405250810190610c799190612478565b610c839190611efd565b9050808560000181815250508173ffffffffffffffffffffffffffffffffffffffff16639dc9faf286868633306040518663ffffffff1660e01b8152600401610cd0959493929190612553565b600060405180830381600087803b158015610cea57600080fd5b505af1158015610cfe573d6000803e3d6000fd5b505050506000610d0c6112c6565b60020160009054906101000a900473ffffffffffffffffffffffffffffffffffffffff169050600560009054906101000a900473ffffffffffffffffffffffffffffffffffffffff1673ffffffffffffffffffffffffffffffffffffffff166387b4e8d382336040518363ffffffff1660e01b8152600401610d8f9291906123bd565b600060405180830381600087803b158015610da957600080fd5b505af1158015610dbd573d6000803e3d6000fd5b505050507f49fdfe60e25ebf09e8f8c20a8a10c828d9b82cecf7b04e1ecb59ae51f79f827781604051610df0919061141b565b60405180910390a1505050505050565b8373ffffffffffffffffffffffffffffffffffffffff1663e04b1c0c6040518163ffffffff1660e01b8152600401602060405180830381865afa158015610e4b573d6000803e3d6000fd5b505050506040513d601f19601f82011682018060405250810190610e6f9190611fb1565b8073ffffffffffffffffffffffffffffffffffffffff163373ffffffffffffffffffffffffffffffffffffffff1614610edd576040517f08c379a0000000000000000000000000000000000000000000000000000000008152600401610ed490612061565b60405180910390fd5b8473ffffffffffffffffffffffffffffffffffffffff166324fd983c8585856040518463ffffffff1660e01b8152600401610f1a939291906125e6565b600060405180830381600087803b158015610f3457600080fd5b505af1158015610f48573d6000803e3d6000fd5b505050505050505050565b60606000805480602002602001604051908101604052809291908181526020016000905b8282101561109b578382906000526020600020906003020160405180606001604052908160008201548152602001600182018054610fb49061238b565b80601f0160208091040260200160405190810160405280929190818152602001828054610fe09061238b565b801561102d5780601f106110025761010080835404028352916020019161102d565b820191906000526020600020905b81548152906001019060200180831161101057829003601f168201915b505050505081526020016002820160009054906101000a900473ffffffffffffffffffffffffffffffffffffffff1673ffffffffffffffffffffffffffffffffffffffff1673ffffffffffffffffffffffffffffffffffffffff168152505081526020019060010190610f77565b50505050905090565b6110ac611386565b600160008373ffffffffffffffffffffffffffffffffffffffff1673ffffffffffffffffffffffffffffffffffffffff168152602001908152602001600020604051806060016040529081600082015481526020016001820180546111109061238b565b80601f016020809104026020016040519081016040528092919081815260200182805461113c9061238b565b80156111895780601f1061115e57610100808354040283529160200191611189565b820191906000526020600020905b81548152906001019060200180831161116c57829003601f168201915b505050505081526020016002820160009054906101000a900473ffffffffffffffffffffffffffffffffffffffff1673ffffffffffffffffffffffffffffffffffffffff1673ffffffffffffffffffffffffffffffffffffffff16815250509050919050565b6060600560009054906101000a900473ffffffffffffffffffffffffffffffffffffffff1673ffffffffffffffffffffffffffffffffffffffff1663e5999c2b836040518263ffffffff1660e01b815260040161124c919061141b565b600060405180830381865afa158015611269573d6000803e3d6000fd5b505050506040513d6000823e3d601f19601f820116820180604052508101906112929190612313565b9050919050565b6000807fc20038518297e76c0e27a913ab03e5d4fd92b2579d428cf3b89f8c71add2acef90508091505090565b6000807f5b43f313088137496832405d64cc708765db93c8144d82f7a7f806ac22d5603b90508091505090565b8280546112ff9061238b565b90600052602060002090601f0160209004810192826113215760008555611368565b82601f1061133a57805160ff1916838001178555611368565b82800160010185558215611368579182015b8281111561136757825182559160200191906001019061134c565b5b50905061137591906113bd565b5090565b6116928061262c83390190565b60405180606001604052806000815260200160608152602001600073ffffffffffffffffffffffffffffffffffffffff1681525090565b5b808211156113d65760008160009055506001016113be565b5090565b600073ffffffffffffffffffffffffffffffffffffffff82169050919050565b6000611405826113da565b9050919050565b611415816113fa565b82525050565b6000602082019050611430600083018461140c565b92915050565b6000604051905090565b600080fd5b600080fd5b600080fd5b6000601f19601f8301169050919050565b7f4e487b7100000000000000000000000000000000000000000000000000000000600052604160045260246000fd5b6114988261144f565b810181811067ffffffffffffffff821117156114b7576114b6611460565b5b80604052505050565b60006114ca611436565b90506114d6828261148f565b919050565b600080fd5b6000819050919050565b6114f3816114e0565b81146114fe57600080fd5b50565b600081359050611510816114ea565b92915050565b600080fd5b600080fd5b600067ffffffffffffffff82111561153b5761153a611460565b5b6115448261144f565b9050602081019050919050565b82818337600083830152505050565b600061157361156e84611520565b6114c0565b90508281526020810184848401111561158f5761158e61151b565b5b61159a848285611551565b509392505050565b600082601f8301126115b7576115b6611516565b5b81356115c7848260208601611560565b91505092915050565b6115d9816113fa565b81146115e457600080fd5b50565b6000813590506115f6816115d0565b92915050565b6000606082840312156116125761161161144a565b5b61161c60606114c0565b9050600061162c84828501611501565b600083015250602082013567ffffffffffffffff8111156116505761164f6114db565b5b61165c848285016115a2565b6020830152506040611670848285016115e7565b60408301525092915050565b60006020828403121561169257611691611440565b5b600082013567ffffffffffffffff8111156116b0576116af611445565b5b6116bc848285016115fc565b91505092915050565b60006116d0826113fa565b9050919050565b6116e0816116c5565b81146116eb57600080fd5b50565b6000813590506116fd816116d7565b92915050565b6000606082840312156117195761171861144a565b5b61172360606114c0565b9050600061173384828501611501565b600083015250602082013567ffffffffffffffff811115611757576117566114db565b5b611763848285016115a2565b602083015250604082013567ffffffffffffffff811115611787576117866114db565b5b611793848285016115a2565b60408301525092915050565b600080604083850312156117b6576117b5611440565b5b60006117c4858286016116ee565b925050602083013567ffffffffffffffff8111156117e5576117e4611445565b5b6117f185828601611703565b9150509250929050565b60006020828403121561181157611810611440565b5b600061181f848285016115e7565b91505092915050565b60006020828403121561183e5761183d611440565b5b600061184c848285016116ee565b91505092915050565b600081519050919050565b600082825260208201905092915050565b6000819050602082019050919050565b61188a816114e0565b82525050565b600061189c8383611881565b60208301905092915050565b6000602082019050919050565b60006118c082611855565b6118ca8185611860565b93506118d583611871565b8060005b838110156119065781516118ed8882611890565b97506118f8836118a8565b9250506001810190506118d9565b5085935050505092915050565b6000602082019050818103600083015261192d81846118b5565b905092915050565b600081519050919050565b600082825260208201905092915050565b6000819050602082019050919050565b61196a816113fa565b82525050565b600061197c8383611961565b60208301905092915050565b6000602082019050919050565b60006119a082611935565b6119aa8185611940565b93506119b583611951565b8060005b838110156119e65781516119cd8882611970565b97506119d883611988565b9250506001810190506119b9565b5085935050505092915050565b60006020820190508181036000830152611a0d8184611995565b905092915050565b600060208284031215611a2b57611a2a611440565b5b6000611a3984828501611501565b91505092915050565b600081519050919050565b600082825260208201905092915050565b60005b83811015611a7c578082015181840152602081019050611a61565b83811115611a8b576000848401525b50505050565b6000611a9c82611a42565b611aa68185611a4d565b9350611ab6818560208601611a5e565b611abf8161144f565b840191505092915050565b6000606083016000830151611ae26000860182611881565b5060208301518482036020860152611afa8282611a91565b9150506040830151611b0f6040860182611961565b508091505092915050565b60006020820190508181036000830152611b348184611aca565b905092915050565b60008060408385031215611b5357611b52611440565b5b6000611b61858286016115e7565b9250506020611b72858286016115e7565b9150509250929050565b60008115159050919050565b611b9181611b7c565b8114611b9c57600080fd5b50565b600081359050611bae81611b88565b92915050565b600060c08284031215611bca57611bc961144a565b5b611bd460c06114c0565b90506000611be484828501611501565b600083015250602082013567ffffffffffffffff811115611c0857611c076114db565b5b611c14848285016115a2565b602083015250604082013567ffffffffffffffff811115611c3857611c376114db565b5b611c44848285016115a2565b6040830152506060611c5884828501611501565b6060830152506080611c6c84828501611501565b60808301525060a0611c8084828501611b9f565b60a08301525092915050565b600080600060608486031215611ca557611ca4611440565b5b600084013567ffffffffffffffff811115611cc357611cc2611445565b5b611ccf86828701611bb4565b9350506020611ce086828701611501565b9250506040611cf186828701611501565b9150509250925092565b60008060008060808587031215611d1557611d14611440565b5b6000611d23878288016116ee565b945050602085013567ffffffffffffffff811115611d4457611d43611445565b5b611d50878288016115a2565b935050604085013567ffffffffffffffff811115611d7157611d70611445565b5b611d7d878288016115a2565b9250506060611d8e87828801611501565b91505092959194509250565b600081519050919050565b600082825260208201905092915050565b6000819050602082019050919050565b6000606083016000830151611dde6000860182611881565b5060208301518482036020860152611df68282611a91565b9150506040830151611e0b6040860182611961565b508091505092915050565b6000611e228383611dc6565b905092915050565b6000602082019050919050565b6000611e4282611d9a565b611e4c8185611da5565b935083602082028501611e5e85611db6565b8060005b85811015611e9a5784840389528151611e7b8582611e16565b9450611e8683611e2a565b925060208a01995050600181019050611e62565b50829750879550505050505092915050565b60006020820190508181036000830152611ec68184611e37565b905092915050565b7f4e487b7100000000000000000000000000000000000000000000000000000000600052601160045260246000fd5b6000611f08826114e0565b9150611f13836114e0565b9250827fffffffffffffffffffffffffffffffffffffffffffffffffffffffffffffffff03821115611f4857611f47611ece565b5b828201905092915050565b6000611f5e826114e0565b91507fffffffffffffffffffffffffffffffffffffffffffffffffffffffffffffffff821415611f9157611f90611ece565b5b600182019050919050565b600081519050611fab816115d0565b92915050565b600060208284031215611fc757611fc6611440565b5b6000611fd584828501611f9c565b91505092915050565b600082825260208201905092915050565b7f4f6e6c792061636365737369626c652062792074686520636f72726573706f6e60008201527f64696e6720656c656374696f6e206f7267616e697a6572000000000000000000602082015250565b600061204b603783611fde565b915061205682611fef565b604082019050919050565b6000602082019050818103600083015261207a8161203e565b9050919050565b60006060830160008301516120996000860182611881565b50602083015184820360208601526120b18282611a91565b915050604083015184820360408601526120cb8282611a91565b9150508091505092915050565b600060208201905081810360008301526120f28184612081565b905092915050565b600060408201905061210f600083018561140c565b81810360208301526121218184612081565b90509392505050565b600067ffffffffffffffff82111561214557612144611460565b5b602082029050602081019050919050565b600080fd5b60008151905061216a816114ea565b92915050565b600061218361217e8461212a565b6114c0565b905080838252602082019050602084028301858111156121a6576121a5612156565b5b835b818110156121cf57806121bb888261215b565b8452602084019350506020810190506121a8565b5050509392505050565b600082601f8301126121ee576121ed611516565b5b81516121fe848260208601612170565b91505092915050565b60006020828403121561221d5761221c611440565b5b600082015167ffffffffffffffff81111561223b5761223a611445565b5b612247848285016121d9565b91505092915050565b600067ffffffffffffffff82111561226b5761226a611460565b5b602082029050602081019050919050565b600061228f61228a84612250565b6114c0565b905080838252602082019050602084028301858111156122b2576122b1612156565b5b835b818110156122db57806122c78882611f9c565b8452602084019350506020810190506122b4565b5050509392505050565b600082601f8301126122fa576122f9611516565b5b815161230a84826020860161227c565b91505092915050565b60006020828403121561232957612328611440565b5b600082015167ffffffffffffffff81111561234757612346611445565b5b612353848285016122e5565b91505092915050565b7f4e487b7100000000000000000000000000000000000000000000000000000000600052602260045260246000fd5b600060028204905060018216806123a357607f821691505b602082108114156123b7576123b661235c565b5b50919050565b60006040820190506123d2600083018561140c565b6123df602083018461140c565b9392505050565b7f4f6e6c792061636365737369626c65206279207573657273207265676973657460008201527f65726564206173206f7267616e697a6572730000000000000000000000000000602082015250565b6000612442603283611fde565b915061244d826123e6565b604082019050919050565b6000602082019050818103600083015261247181612435565b9050919050565b60006020828403121561248e5761248d611440565b5b600061249c8482850161215b565b91505092915050565b6124ae81611b7c565b82525050565b600060c0830160008301516124cc6000860182611881565b50602083015184820360208601526124e48282611a91565b915050604083015184820360408601526124fe8282611a91565b91505060608301516125136060860182611881565b5060808301516125266080860182611881565b5060a083015161253960a08601826124a5565b508091505092915050565b61254d816114e0565b82525050565b600060a082019050818103600083015261256d81886124b4565b905061257c6020830187612544565b6125896040830186612544565b612596606083018561140c565b6125a3608083018461140c565b9695505050505050565b60006125b882611a42565b6125c28185611fde565b93506125d2818560208601611a5e565b6125db8161144f565b840191505092915050565b6000606082019050818103600083015261260081866125ad565b9050818103602083015261261481856125ad565b90506126236040830184612544565b94935050505056fe608060405234801561001057600080fd5b50611672806100206000396000f3fe608060405234801561001057600080fd5b50600436106100885760003560e01c80637d1659fa1161005b5780637d1659fa1461012957806387b4e8d314610145578063ca99067a14610161578063e5999c2b1461017d57610088565b8063213785a01461008d57806335b50828146100ab578063761db9fb146100db5780637a309b05146100f9575b600080fd5b6100956101ad565b6040516100a29190610cb2565b60405180910390f35b6100c560048036038101906100c09190610d3f565b6101b7565b6040516100d29190610d7b565b60405180910390f35b6100e3610220565b6040516100f09190610e54565b60405180910390f35b610113600480360381019061010e9190610fcf565b6102ae565b6040516101209190610e54565b60405180910390f35b610143600480360381019061013e919061102b565b6102b6565b005b61015f600480360381019061015a919061102b565b6104bf565b005b61017b60048036038101906101769190610d3f565b610787565b005b61019760048036038101906101929190610d3f565b610b25565b6040516101a49190610e54565b60405180910390f35b6000600554905090565b6000600460008373ffffffffffffffffffffffffffffffffffffffff1673ffffffffffffffffffffffffffffffffffffffff16815260200190815260200160002060009054906101000a900473ffffffffffffffffffffffffffffffffffffffff169050919050565b606060018054806020026020016040519081016040528092919081815260200182805480156102a457602002820191906000526020600020905b8160009054906101000a900473ffffffffffffffffffffffffffffffffffffffff1673ffffffffffffffffffffffffffffffffffffffff168152602001906001019080831161025a575b5050505050905090565b606092915050565b60001515600360008373ffffffffffffffffffffffffffffffffffffffff1673ffffffffffffffffffffffffffffffffffffffff16815260200190815260200160002060008473ffffffffffffffffffffffffffffffffffffffff1673ffffffffffffffffffffffffffffffffffffffff16815260200190815260200160002060009054906101000a900460ff16151514610386576040517f08c379a000000000000000000000000000000000000000000000000000000000815260040161037d906110ee565b60405180910390fd5b6001600360008373ffffffffffffffffffffffffffffffffffffffff1673ffffffffffffffffffffffffffffffffffffffff16815260200190815260200160002060008473ffffffffffffffffffffffffffffffffffffffff1673ffffffffffffffffffffffffffffffffffffffff16815260200190815260200160002060006101000a81548160ff021916908315150217905550600260008373ffffffffffffffffffffffffffffffffffffffff1673ffffffffffffffffffffffffffffffffffffffff168152602001908152602001600020819080600181540180825580915050600190039060005260206000200160009091909190916101000a81548173ffffffffffffffffffffffffffffffffffffffff021916908373ffffffffffffffffffffffffffffffffffffffff1602179055505050565b6000829050600560008154809291906104d79061113d565b919050555060008173ffffffffffffffffffffffffffffffffffffffff166386852dca6040518163ffffffff1660e01b8152600401600060405180830381865afa158015610529573d6000803e3d6000fd5b505050506040513d6000823e3d601f19601f8201168201806040525081019061055291906113a5565b60a0015190506001151581151514156105cd576001829080600181540180825580915050600190039060005260206000200160009091909190916101000a81548173ffffffffffffffffffffffffffffffffffffffff021916908373ffffffffffffffffffffffffffffffffffffffff160217905550610703565b600260008473ffffffffffffffffffffffffffffffffffffffff1673ffffffffffffffffffffffffffffffffffffffff168152602001908152602001600020829080600181540180825580915050600190039060005260206000200160009091909190916101000a81548173ffffffffffffffffffffffffffffffffffffffff021916908373ffffffffffffffffffffffffffffffffffffffff1602179055506001600360008673ffffffffffffffffffffffffffffffffffffffff1673ffffffffffffffffffffffffffffffffffffffff16815260200190815260200160002060008573ffffffffffffffffffffffffffffffffffffffff1673ffffffffffffffffffffffffffffffffffffffff16815260200190815260200160002060006101000a81548160ff0219169083151502179055505b82600460008673ffffffffffffffffffffffffffffffffffffffff1673ffffffffffffffffffffffffffffffffffffffff16815260200190815260200160002060006101000a81548173ffffffffffffffffffffffffffffffffffffffff021916908373ffffffffffffffffffffffffffffffffffffffff16021790555050505050565b3373ffffffffffffffffffffffffffffffffffffffff166107a7826101b7565b73ffffffffffffffffffffffffffffffffffffffff16146107fd576040517f08c379a00000000000000000000000000000000000000000000000000000000081526004016107f49061143a565b60405180910390fd5b6000819050600160028111156108165761081561145a565b5b8173ffffffffffffffffffffffffffffffffffffffff16634e69d5606040518163ffffffff1660e01b8152600401602060405180830381865afa158015610861573d6000803e3d6000fd5b505050506040513d601f19601f8201168201806040525081019061088591906114ae565b60028111156108975761089661145a565b5b146108d7576040517f08c379a00000000000000000000000000000000000000000000000000000000081526004016108ce9061154d565b60405180910390fd5b6000600180548060200260200160405190810160405280929190818152602001828054801561095b57602002820191906000526020600020905b8160009054906101000a900473ffffffffffffffffffffffffffffffffffffffff1673ffffffffffffffffffffffffffffffffffffffff1681526020019060010190808311610911575b505050505090506000815190506000600182610977919061156d565b67ffffffffffffffff8111156109905761098f610e8c565b5b6040519080825280602002602001820160405280156109be5781602001602082028036833780820191505090505b50905060008060008091505b84821015610ac4578773ffffffffffffffffffffffffffffffffffffffff168683815181106109fc576109fb6115a1565b5b602002602001015173ffffffffffffffffffffffffffffffffffffffff1614610a9a57858281518110610a3257610a316115a1565b5b6020026020010151848481518110610a4d57610a4c6115a1565b5b602002602001019073ffffffffffffffffffffffffffffffffffffffff16908173ffffffffffffffffffffffffffffffffffffffff16815250508280610a929061113d565b935050610ab1565b600015158115151415610ab05760009750600190505b5b8180610abc9061113d565b9250506109ca565b80610b04576040517f08c379a0000000000000000000000000000000000000000000000000000000008152600401610afb9061161c565b60405180910390fd5b8360019080519060200190610b1a929190610bf2565b505050505050505050565b6060600260008373ffffffffffffffffffffffffffffffffffffffff1673ffffffffffffffffffffffffffffffffffffffff168152602001908152602001600020805480602002602001604051908101604052809291908181526020018280548015610be657602002820191906000526020600020905b8160009054906101000a900473ffffffffffffffffffffffffffffffffffffffff1673ffffffffffffffffffffffffffffffffffffffff1681526020019060010190808311610b9c575b50505050509050919050565b828054828255906000526020600020908101928215610c6b579160200282015b82811115610c6a5782518260006101000a81548173ffffffffffffffffffffffffffffffffffffffff021916908373ffffffffffffffffffffffffffffffffffffffff16021790555091602001919060010190610c12565b5b509050610c789190610c7c565b5090565b5b80821115610c95576000816000905550600101610c7d565b5090565b6000819050919050565b610cac81610c99565b82525050565b6000602082019050610cc76000830184610ca3565b92915050565b6000604051905090565b600080fd5b600080fd5b600073ffffffffffffffffffffffffffffffffffffffff82169050919050565b6000610d0c82610ce1565b9050919050565b610d1c81610d01565b8114610d2757600080fd5b50565b600081359050610d3981610d13565b92915050565b600060208284031215610d5557610d54610cd7565b5b6000610d6384828501610d2a565b91505092915050565b610d7581610d01565b82525050565b6000602082019050610d906000830184610d6c565b92915050565b600081519050919050565b600082825260208201905092915050565b6000819050602082019050919050565b610dcb81610d01565b82525050565b6000610ddd8383610dc2565b60208301905092915050565b6000602082019050919050565b6000610e0182610d96565b610e0b8185610da1565b9350610e1683610db2565b8060005b83811015610e47578151610e2e8882610dd1565b9750610e3983610de9565b925050600181019050610e1a565b5085935050505092915050565b60006020820190508181036000830152610e6e8184610df6565b905092915050565b600080fd5b6000601f19601f8301169050919050565b7f4e487b7100000000000000000000000000000000000000000000000000000000600052604160045260246000fd5b610ec482610e7b565b810181811067ffffffffffffffff82111715610ee357610ee2610e8c565b5b80604052505050565b6000610ef6610ccd565b9050610f028282610ebb565b919050565b600067ffffffffffffffff821115610f2257610f21610e8c565b5b602082029050602081019050919050565b600080fd5b6000610f4b610f4684610f07565b610eec565b90508083825260208201905060208402830185811115610f6e57610f6d610f33565b5b835b81811015610f975780610f838882610d2a565b845260208401935050602081019050610f70565b5050509392505050565b600082601f830112610fb657610fb5610e76565b5b8135610fc6848260208601610f38565b91505092915050565b60008060408385031215610fe657610fe5610cd7565b5b600083013567ffffffffffffffff81111561100457611003610cdc565b5b61101085828601610fa1565b925050602061102185828601610d2a565b9150509250929050565b6000806040838503121561104257611041610cd7565b5b600061105085828601610d2a565b925050602061106185828601610d2a565b9150509250929050565b600082825260208201905092915050565b7f4f7267616e697a657220616c726561647920616464656420746f20746869732060008201527f656c656374696f6e000000000000000000000000000000000000000000000000602082015250565b60006110d860288361106b565b91506110e38261107c565b604082019050919050565b60006020820190508181036000830152611107816110cb565b9050919050565b7f4e487b7100000000000000000000000000000000000000000000000000000000600052601160045260246000fd5b600061114882610c99565b91507fffffffffffffffffffffffffffffffffffffffffffffffffffffffffffffffff82141561117b5761117a61110e565b5b600182019050919050565b600080fd5b600080fd5b61119981610c99565b81146111a457600080fd5b50565b6000815190506111b681611190565b92915050565b600080fd5b600067ffffffffffffffff8211156111dc576111db610e8c565b5b6111e582610e7b565b9050602081019050919050565b60005b838110156112105780820151818401526020810190506111f5565b8381111561121f576000848401525b50505050565b6000611238611233846111c1565b610eec565b905082815260208101848484011115611254576112536111bc565b5b61125f8482856111f2565b509392505050565b600082601f83011261127c5761127b610e76565b5b815161128c848260208601611225565b91505092915050565b60008115159050919050565b6112aa81611295565b81146112b557600080fd5b50565b6000815190506112c7816112a1565b92915050565b600060c082840312156112e3576112e2611186565b5b6112ed60c0610eec565b905060006112fd848285016111a7565b600083015250602082015167ffffffffffffffff8111156113215761132061118b565b5b61132d84828501611267565b602083015250604082015167ffffffffffffffff8111156113515761135061118b565b5b61135d84828501611267565b6040830152506060611371848285016111a7565b6060830152506080611385848285016111a7565b60808301525060a0611399848285016112b8565b60a08301525092915050565b6000602082840312156113bb576113ba610cd7565b5b600082015167ffffffffffffffff8111156113d9576113d8610cdc565b5b6113e5848285016112cd565b91505092915050565b7f4f6e6c79204f776e65722043616e2044656c65746520456c656374696f6e0000600082015250565b6000611424601e8361106b565b915061142f826113ee565b602082019050919050565b6000602082019050818103600083015261145381611417565b9050919050565b7f4e487b7100000000000000000000000000000000000000000000000000000000600052602160045260246000fd5b6003811061149657600080fd5b50565b6000815190506114a881611489565b92915050565b6000602082840312156114c4576114c3610cd7565b5b60006114d284828501611499565b91505092915050565b7f43616e6e6f742064656c65746520656c656374696f6e20616674657220656c6560008201527f6374696f6e206861732073746172746564000000000000000000000000000000602082015250565b600061153760318361106b565b9150611542826114db565b604082019050919050565b600060208201905081810360008301526115668161152a565b9050919050565b600061157882610c99565b915061158383610c99565b9250828210156115965761159561110e565b5b828203905092915050565b7f4e487b7100000000000000000000000000000000000000000000000000000000600052603260045260246000fd5b7f456c656374696f6e206e6f7420666f756e640000000000000000000000000000600082015250565b600061160660128361106b565b9150611611826115d0565b602082019050919050565b60006020820190508181036000830152611635816115f9565b905091905056fea264697066735822122043c5f83a3bafff04c8998c93cf4355cdb76e01e8624f1426fd77910a4d6827ff64736f6c634300080a0033a264697066735822122079cea1313855b09583e3120a6d034abdb98da1e8e0673590e81da7a3033471f464736f6c634300080a0033",
  "linkReferences": {},
  "deployedLinkReferences": {}
}