{
  "_format": "hh-sol-artifact-1",
  "contractName": "SchulzeResult",
  "sourceName": "contracts/resultCalculators/SchulzeResult.sol",
  "abi": [
    {
      "inputs": [],
      "name": "CandidatesTie",
      "type": "error"
    },
    {
      "inputs": [],
      "name": "NoCandidates",
      "type": "error"
    },
    {
      "inputs": [],
      "name": "NoWinner",
      "type": "error"
    },
    {
      "inputs": [],
      "name": "VotesExhausted",
      "type": "error"
    },
    {
      "inputs": [
        {
          "internalType": "bytes",
          "name": "returnData",
          "type": "bytes"
        }
      ],
      "name": "calculateSchulzeResult",
      "outputs": [
        {
          "internalType": "uint256",
          "name": "",
          "type": "uint256"
        }
      ],
      "stateMutability": "pure",
      "type": "function"
    }
  ],
  "bytecode": "0x608060405234801561001057600080fd5b50610b0b806100206000396000f3fe608060405234801561001057600080fd5b506004361061002b5760003560e01c80631892513814610030575b600080fd5b61004a600480360381019061004591906107a8565b610060565b604051610057919061080a565b60405180910390f35b6000808280602001905181019061007791906109fa565b9050600061008482610090565b90508092505050919050565b60008082519050600081036100d1576040517fe504190400000000000000000000000000000000000000000000000000000000815260040160405180910390fd5b60008167ffffffffffffffff8111156100ed576100ec61067d565b5b60405190808252806020026020018201604052801561012057816020015b606081526020019060019003908161010b5790505b50905060005b828110156101a2578267ffffffffffffffff8111156101485761014761067d565b5b6040519080825280602002602001820160405280156101765781602001602082028036833780820191505090505b5082828151811061018a57610189610a43565b5b60200260200101819052508080600101915050610126565b5060005b828110156102bb5760005b838110156102ad578082146102a0578581815181106101d3576101d2610a43565b5b602002602001015182815181106101ed576101ec610a43565b5b602002602001015186838151811061020857610207610a43565b5b6020026020010151828151811061022257610221610a43565b5b6020026020010151111561029f5785828151811061024357610242610a43565b5b6020026020010151818151811061025d5761025c610a43565b5b602002602001015183838151811061027857610277610a43565b5b6020026020010151828151811061029257610291610a43565b5b6020026020010181815250505b5b80806001019150506101b1565b5080806001019150506101a6565b5060005b828110156105205760005b83811015610512578082146105055760005b84811015610503578083141580156102f45750808214155b156104f65783828151811061030c5761030b610a43565b5b6020026020010151838151811061032657610325610a43565b5b602002602001015184838151811061034157610340610a43565b5b6020026020010151828151811061035b5761035a610a43565b5b60200260200101511080156103d7575083838151811061037e5761037d610a43565b5b6020026020010151818151811061039857610397610a43565b5b60200260200101518483815181106103b3576103b2610a43565b5b602002602001015182815181106103cd576103cc610a43565b5b6020026020010151105b156104f5578383815181106103ef576103ee610a43565b5b6020026020010151818151811061040957610408610a43565b5b602002602001015184838151811061042457610423610a43565b5b6020026020010151848151811061043e5761043d610a43565b5b6020026020010151106104855783838151811061045e5761045d610a43565b5b6020026020010151818151811061047857610477610a43565b5b60200260200101516104bb565b83828151811061049857610497610a43565b5b602002602001015183815181106104b2576104b1610a43565b5b60200260200101515b8483815181106104ce576104cd610a43565b5b602002602001015182815181106104e8576104e7610a43565b5b6020026020010181815250505b5b80806001019150506102dc565b505b80806001019150506102ca565b5080806001019150506102bf565b50600080806000905060005b85811015610608576000805b878110156105d5578083146105c85786818151811061055a57610559610a43565b5b6020026020010151838151811061057457610573610a43565b5b602002602001015187848151811061058f5761058e610a43565b5b602002602001015182815181106105a9576105a8610a43565b5b602002602001015111156105c7576001826105c49190610aa1565b91505b5b8080600101915050610538565b50848111156105ed57809450819350600092506105fa565b8481036105f957600192505b5b50808060010191505061052c565b508015610641576040517fac5997c700000000000000000000000000000000000000000000000000000000815260040160405180910390fd5b8195505050505050919050565b6000604051905090565b600080fd5b600080fd5b600080fd5b600080fd5b6000601f19601f8301169050919050565b7f4e487b7100000000000000000000000000000000000000000000000000000000600052604160045260246000fd5b6106b58261066c565b810181811067ffffffffffffffff821117156106d4576106d361067d565b5b80604052505050565b60006106e761064e565b90506106f382826106ac565b919050565b600067ffffffffffffffff8211156107135761071261067d565b5b61071c8261066c565b9050602081019050919050565b82818337600083830152505050565b600061074b610746846106f8565b6106dd565b90508281526020810184848401111561076757610766610667565b5b610772848285610729565b509392505050565b600082601f83011261078f5761078e610662565b5b813561079f848260208601610738565b91505092915050565b6000602082840312156107be576107bd610658565b5b600082013567ffffffffffffffff8111156107dc576107db61065d565b5b6107e88482850161077a565b91505092915050565b6000819050919050565b610804816107f1565b82525050565b600060208201905061081f60008301846107fb565b92915050565b600067ffffffffffffffff8211156108405761083f61067d565b5b602082029050602081019050919050565b600080fd5b600067ffffffffffffffff8211156108715761087061067d565b5b602082029050602081019050919050565b61088b816107f1565b811461089657600080fd5b50565b6000815190506108a881610882565b92915050565b60006108c16108bc84610856565b6106dd565b905080838252602082019050602084028301858111156108e4576108e3610851565b5b835b8181101561090d57806108f98882610899565b8452602084019350506020810190506108e6565b5050509392505050565b600082601f83011261092c5761092b610662565b5b815161093c8482602086016108ae565b91505092915050565b600061095861095384610825565b6106dd565b9050808382526020820190506020840283018581111561097b5761097a610851565b5b835b818110156109c257805167ffffffffffffffff8111156109a05761099f610662565b5b8086016109ad8982610917565b8552602085019450505060208101905061097d565b5050509392505050565b600082601f8301126109e1576109e0610662565b5b81516109f1848260208601610945565b91505092915050565b600060208284031215610a1057610a0f610658565b5b600082015167ffffffffffffffff811115610a2e57610a2d61065d565b5b610a3a848285016109cc565b91505092915050565b7f4e487b7100000000000000000000000000000000000000000000000000000000600052603260045260246000fd5b7f4e487b7100000000000000000000000000000000000000000000000000000000600052601160045260246000fd5b6000610aac826107f1565b9150610ab7836107f1565b9250828201905080821115610acf57610ace610a72565b5b9291505056fea2646970667358221220094657a5e9cf985b4a098bc6b5e0d5a92784e05a666c7935ecf05831784a430464736f6c63430008180033",
  "linkReferences": {},
  "deployedLinkReferences": {}
}