{"abi":[{"type":"function","name":"EVM_EXTRA_ARGS_V1_TAG","inputs":[],"outputs":[{"name":"","type":"bytes4","internalType":"bytes4"}],"stateMutability":"view"}],"bytecode":{"object":"0x60966032600b8282823980515f1a607314602657634e487b7160e01b5f525f60045260245ffd5b305f52607381538281f3fe73000000000000000000000000000000000000000030146080604052600436106032575f3560e01c80633ab8c0d0146036575b5f5ffd5b60436397a657c960e01b81565b6040516001600160e01b0319909116815260200160405180910390f3fea2646970667358221220e153c03cb7910164f1a73d93f354cf897fc0bd527024c8f3c89ddd7e2f760b3464736f6c634300081c0033","linkReferences":{}},"methodIdentifiers":{"EVM_EXTRA_ARGS_V1_TAG()":"3ab8c0d0"},"id":27}