{
  "_format": "hh-sol-artifact-1",
  "contractName": "GeneralBallot",
  "sourceName": "contracts/ballot/GeneralBallot.sol",
  "abi": [
    {
      "inputs": [
        {
          "internalType": "uint256",
          "name": "_candidate",
          "type": "uint256"
        }
      ],
      "name": "addCandidate",
      "outputs": [],
      "stateMutability": "nonpayable",
      "type": "function"
    },
    {
      "inputs": [],
      "name": "getCandidates",
      "outputs": [
        {
          "internalType": "uint256[]",
          "name": "",
          "type": "uint256[]"
        }
      ],
      "stateMutability": "view",
      "type": "function"
    },
    {
      "inputs": [
        {
          "internalType": "uint256",
          "name": "_candidate",
          "type": "uint256"
        },
        {
          "internalType": "uint256",
          "name": "_weight",
          "type": "uint256"
        }
      ],
      "name": "getVoteCount",
      "outputs": [
        {
          "internalType": "uint256",
          "name": "",
          "type": "uint256"
        }
      ],
      "stateMutability": "view",
      "type": "function"
    },
    {
      "inputs": [
        {
          "internalType": "address",
          "name": "_voter",
          "type": "address"
        }
      ],
      "name": "getVoteStatus",
      "outputs": [
        {
          "internalType": "bool",
          "name": "",
          "type": "bool"
        }
      ],
      "stateMutability": "view",
      "type": "function"
    },
    {
      "inputs": [
        {
          "internalType": "address",
          "name": "_voter",
          "type": "address"
        },
        {
          "internalType": "uint256",
          "name": "_candidate",
          "type": "uint256"
        },
        {
          "internalType": "uint256",
          "name": "_weight",
          "type": "uint256"
        }
      ],
      "name": "vote",
      "outputs": [],
      "stateMutability": "nonpayable",
      "type": "function"
    },
    {
      "inputs": [
        {
          "internalType": "uint256",
          "name": "",
          "type": "uint256"
        }
      ],
      "name": "votes",
      "outputs": [
        {
          "internalType": "uint256",
          "name": "",
          "type": "uint256"
        }
      ],
      "stateMutability": "view",
      "type": "function"
    }
  ],
  "bytecode": "0x608060405234801561001057600080fd5b5061066d806100206000396000f3fe608060405234801561001057600080fd5b50600436106100625760003560e01c806306a49fce146100675780632a4a1b7314610085578063521b0dcc146100a15780635df81330146100d1578063de2e19a014610101578063e844d09714610131575b600080fd5b61006f61014d565b60405161007c91906103b4565b60405180910390f35b61009f600480360381019061009a9190610465565b6101a5565b005b6100bb60048036038101906100b691906104b8565b610230565b6040516100c89190610500565b60405180910390f35b6100eb60048036038101906100e6919061051b565b610286565b6040516100f89190610557565b60405180910390f35b61011b60048036038101906101169190610572565b61029e565b6040516101289190610557565b60405180910390f35b61014b6004803603810190610146919061051b565b6102c0565b005b6060600080548060200260200160405190810160405280929190818152602001828054801561019b57602002820191906000526020600020905b815481526020019060010190808311610187575b5050505050905090565b6001905060016002600084815260200190815260200160002060008282546101cd91906105e1565b9250508190555060018060008573ffffffffffffffffffffffffffffffffffffffff1673ffffffffffffffffffffffffffffffffffffffff16815260200190815260200160002060006101000a81548160ff021916908315150217905550505050565b6000600160008373ffffffffffffffffffffffffffffffffffffffff1673ffffffffffffffffffffffffffffffffffffffff16815260200190815260200160002060009054906101000a900460ff169050919050565b60026020528060005260406000206000915090505481565b6000600191506002600084815260200190815260200160002054905092915050565b600081908060018154018082558091505060019003906000526020600020016000909190919091505550565b600081519050919050565b600082825260208201905092915050565b6000819050602082019050919050565b6000819050919050565b61032b81610318565b82525050565b600061033d8383610322565b60208301905092915050565b6000602082019050919050565b6000610361826102ec565b61036b81856102f7565b935061037683610308565b8060005b838110156103a757815161038e8882610331565b975061039983610349565b92505060018101905061037a565b5085935050505092915050565b600060208201905081810360008301526103ce8184610356565b905092915050565b600080fd5b600073ffffffffffffffffffffffffffffffffffffffff82169050919050565b6000610406826103db565b9050919050565b610416816103fb565b811461042157600080fd5b50565b6000813590506104338161040d565b92915050565b61044281610318565b811461044d57600080fd5b50565b60008135905061045f81610439565b92915050565b60008060006060848603121561047e5761047d6103d6565b5b600061048c86828701610424565b935050602061049d86828701610450565b92505060406104ae86828701610450565b9150509250925092565b6000602082840312156104ce576104cd6103d6565b5b60006104dc84828501610424565b91505092915050565b60008115159050919050565b6104fa816104e5565b82525050565b600060208201905061051560008301846104f1565b92915050565b600060208284031215610531576105306103d6565b5b600061053f84828501610450565b91505092915050565b61055181610318565b82525050565b600060208201905061056c6000830184610548565b92915050565b60008060408385031215610589576105886103d6565b5b600061059785828601610450565b92505060206105a885828601610450565b9150509250929050565b7f4e487b7100000000000000000000000000000000000000000000000000000000600052601160045260246000fd5b60006105ec82610318565b91506105f783610318565b9250827fffffffffffffffffffffffffffffffffffffffffffffffffffffffffffffffff0382111561062c5761062b6105b2565b5b82820190509291505056fea2646970667358221220360fa7f197a2a0ace1c61cf2d17c28f21e961f33eb38631456eedde1767daaa064736f6c63430008090033",
  "linkReferences": {},
  "deployedLinkReferences": {}
}