{
  "_format": "hh-sol-artifact-1",
  "contractName": "GeneralBallot",
  "sourceName": "contracts/ballot/GeneralBallot.sol",
  "abi": [
    {
      "inputs": [
        {
          "internalType": "uint256",
          "name": "_candidate",
          "type": "uint256"
        }
      ],
      "name": "addCandidate",
      "outputs": [],
      "stateMutability": "nonpayable",
      "type": "function"
    },
    {
      "inputs": [],
      "name": "getCandidates",
      "outputs": [
        {
          "internalType": "uint256[]",
          "name": "",
          "type": "uint256[]"
        }
      ],
      "stateMutability": "view",
      "type": "function"
    },
    {
      "inputs": [],
      "name": "getVoteArr",
      "outputs": [
        {
          "internalType": "uint256[][]",
          "name": "",
          "type": "uint256[][]"
        }
      ],
      "stateMutability": "nonpayable",
      "type": "function"
    },
    {
      "inputs": [
        {
          "internalType": "uint256",
          "name": "_candidate",
          "type": "uint256"
        },
        {
          "internalType": "uint256",
          "name": "_weight",
          "type": "uint256"
        }
      ],
      "name": "getVoteCount",
      "outputs": [
        {
          "internalType": "uint256",
          "name": "",
          "type": "uint256"
        }
      ],
      "stateMutability": "view",
      "type": "function"
    },
    {
      "inputs": [
        {
          "internalType": "address",
          "name": "_voter",
          "type": "address"
        }
      ],
      "name": "getVoteStatus",
      "outputs": [
        {
          "internalType": "bool",
          "name": "",
          "type": "bool"
        }
      ],
      "stateMutability": "view",
      "type": "function"
    },
    {
      "inputs": [
        {
          "internalType": "address",
          "name": "_voter",
          "type": "address"
        },
        {
          "internalType": "uint256",
          "name": "_candidate",
          "type": "uint256"
        },
        {
          "internalType": "uint256",
          "name": "_weight",
          "type": "uint256"
        },
        {
          "internalType": "uint256[]",
          "name": "voteArr",
          "type": "uint256[]"
        }
      ],
      "name": "vote",
      "outputs": [],
      "stateMutability": "nonpayable",
      "type": "function"
    },
    {
      "inputs": [
        {
          "internalType": "uint256",
          "name": "",
          "type": "uint256"
        }
      ],
      "name": "votes",
      "outputs": [
        {
          "internalType": "uint256",
          "name": "",
          "type": "uint256"
        }
      ],
      "stateMutability": "view",
      "type": "function"
    }
  ],
  "bytecode": "0x608060405234801561001057600080fd5b506104d5806100206000396000f3fe608060405234801561001057600080fd5b506004361061007d5760003560e01c8063a1818ac41161005b578063a1818ac41461010a578063afa524081461011f578063de2e19a01461012e578063e844d0971461014f57600080fd5b806306a49fce14610082578063521b0dcc146100a05780635df81330146100dc575b600080fd5b61008a61018f565b604051610097919061023a565b60405180910390f35b6100cc6100ae36600461029a565b6001600160a01b031660009081526001602052604090205460ff1690565b6040519015158152602001610097565b6100fc6100ea3660046102bc565b60026020526000908152604090205481565b604051908152602001610097565b61011d6101183660046102eb565b6101e7565b005b606060405161009791906103cd565b6100fc61013c366004610457565b5060009081526002602052604090205490565b61011d61015d3660046102bc565b600080546001810182559080527f290decd9548b62a8d60345a988386fc84ba6bc95484008f6362f93160ef3e5630155565b606060008054806020026020016040519081016040528092919081815260200182805480156101dd57602002820191906000526020600020905b8154815260200190600101908083116101c9575b5050505050905090565b6000838152600260205260408120805460019450849290610209908490610479565b9091555050506001600160a01b039092166000908152600160208190526040909120805460ff191690911790555050565b6020808252825182820181905260009190848201906040850190845b8181101561027257835183529284019291840191600101610256565b50909695505050505050565b80356001600160a01b038116811461029557600080fd5b919050565b6000602082840312156102ac57600080fd5b6102b58261027e565b9392505050565b6000602082840312156102ce57600080fd5b5035919050565b634e487b7160e01b600052604160045260246000fd5b6000806000806080858703121561030157600080fd5b61030a8561027e565b9350602080860135935060408601359250606086013567ffffffffffffffff8082111561033657600080fd5b818801915088601f83011261034a57600080fd5b81358181111561035c5761035c6102d5565b8060051b604051601f19603f83011681018181108582111715610381576103816102d5565b60405291825284820192508381018501918b83111561039f57600080fd5b938501935b828510156103bd578435845293850193928501926103a4565b989b979a50959850505050505050565b6000602080830181845280855180835260408601915060408160051b87010192508387016000805b8381101561044957888603603f19018552825180518088529088019088880190845b818110156104335783518352928a0192918a0191600101610417565b50909750505093860193918601916001016103f5565b509398975050505050505050565b6000806040838503121561046a57600080fd5b50508035926020909101359150565b6000821982111561049a57634e487b7160e01b600052601160045260246000fd5b50019056fea26469706673582212201fc52fdacd45bd65bc246b826853246a1717ee9b48c4fc8f952c7a8e35646e7d64736f6c63430008090033",
  "linkReferences": {},
  "deployedLinkReferences": {}
}