{
  "_format": "hh-sol-artifact-1",
  "contractName": "Semaphore",
  "sourceName": "contracts/Semaphore.sol",
  "abi": [
    {
      "inputs": [
        {
          "internalType": "uint8",
          "name": "_treeLevels",
          "type": "uint8"
        },
        {
          "internalType": "uint232",
          "name": "_firstExternalNullifier",
          "type": "uint232"
        }
      ],
      "stateMutability": "nonpayable",
      "type": "constructor"
    },
    {
      "anonymous": false,
      "inputs": [
        {
          "indexed": true,
          "internalType": "uint232",
          "name": "externalNullifier",
          "type": "uint232"
        }
      ],
      "name": "ExternalNullifierAdd",
      "type": "event"
    },
    {
      "anonymous": false,
      "inputs": [
        {
          "indexed": true,
          "internalType": "uint232",
          "name": "externalNullifier",
          "type": "uint232"
        },
        {
          "indexed": true,
          "internalType": "bool",
          "name": "active",
          "type": "bool"
        }
      ],
      "name": "ExternalNullifierChangeStatus",
      "type": "event"
    },
    {
      "anonymous": false,
      "inputs": [
        {
          "indexed": true,
          "internalType": "uint256",
          "name": "identityCommitment",
          "type": "uint256"
        }
      ],
      "name": "IdentityCommitment",
      "type": "event"
    },
    {
      "anonymous": false,
      "inputs": [
        {
          "indexed": true,
          "internalType": "uint256",
          "name": "leaf",
          "type": "uint256"
        },
        {
          "indexed": true,
          "internalType": "uint256",
          "name": "leafIndex",
          "type": "uint256"
        }
      ],
      "name": "LeafInsertion",
      "type": "event"
    },
    {
      "anonymous": false,
      "inputs": [
        {
          "indexed": false,
          "internalType": "uint256",
          "name": "root",
          "type": "uint256"
        }
      ],
      "name": "NewRoot",
      "type": "event"
    },
    {
      "anonymous": false,
      "inputs": [
        {
          "indexed": true,
          "internalType": "address",
          "name": "previousOwner",
          "type": "address"
        },
        {
          "indexed": true,
          "internalType": "address",
          "name": "newOwner",
          "type": "address"
        }
      ],
      "name": "OwnershipTransferred",
      "type": "event"
    },
    {
      "anonymous": false,
      "inputs": [
        {
          "indexed": true,
          "internalType": "bool",
          "name": "newPermission",
          "type": "bool"
        }
      ],
      "name": "PermissionSet",
      "type": "event"
    },
    {
      "anonymous": false,
      "inputs": [
        {
          "indexed": false,
          "internalType": "uint256",
          "name": "root",
          "type": "uint256"
        }
      ],
      "name": "RootRoot",
      "type": "event"
    },
    {
      "inputs": [],
      "name": "NOTHING_UP_MY_SLEEVE_ZERO",
      "outputs": [
        {
          "internalType": "uint256",
          "name": "",
          "type": "uint256"
        }
      ],
      "stateMutability": "view",
      "type": "function"
    },
    {
      "inputs": [
        {
          "internalType": "uint232",
          "name": "_externalNullifier",
          "type": "uint232"
        }
      ],
      "name": "addExternalNullifier",
      "outputs": [],
      "stateMutability": "nonpayable",
      "type": "function"
    },
    {
      "inputs": [
        {
          "internalType": "bytes",
          "name": "_signal",
          "type": "bytes"
        },
        {
          "internalType": "uint256[8]",
          "name": "_proof",
          "type": "uint256[8]"
        },
        {
          "internalType": "uint256",
          "name": "_root",
          "type": "uint256"
        },
        {
          "internalType": "uint256",
          "name": "_nullifiersHash",
          "type": "uint256"
        },
        {
          "internalType": "uint232",
          "name": "_externalNullifier",
          "type": "uint232"
        }
      ],
      "name": "broadcastSignal",
      "outputs": [],
      "stateMutability": "nonpayable",
      "type": "function"
    },
    {
      "inputs": [
        {
          "internalType": "uint232",
          "name": "_externalNullifier",
          "type": "uint232"
        }
      ],
      "name": "deactivateExternalNullifier",
      "outputs": [],
      "stateMutability": "nonpayable",
      "type": "function"
    },
    {
      "inputs": [
        {
          "internalType": "uint232",
          "name": "",
          "type": "uint232"
        }
      ],
      "name": "externalNullifierLinkedList",
      "outputs": [
        {
          "internalType": "uint232",
          "name": "next",
          "type": "uint232"
        },
        {
          "internalType": "bool",
          "name": "exists",
          "type": "bool"
        },
        {
          "internalType": "bool",
          "name": "isActive",
          "type": "bool"
        }
      ],
      "stateMutability": "view",
      "type": "function"
    },
    {
      "inputs": [],
      "name": "firstExternalNullifier",
      "outputs": [
        {
          "internalType": "uint232",
          "name": "",
          "type": "uint232"
        }
      ],
      "stateMutability": "view",
      "type": "function"
    },
    {
      "inputs": [
        {
          "internalType": "uint232",
          "name": "_externalNullifier",
          "type": "uint232"
        }
      ],
      "name": "getNextExternalNullifier",
      "outputs": [
        {
          "internalType": "uint232",
          "name": "",
          "type": "uint232"
        }
      ],
      "stateMutability": "view",
      "type": "function"
    },
    {
      "inputs": [],
      "name": "getNumIdentityCommitments",
      "outputs": [
        {
          "internalType": "uint256",
          "name": "",
          "type": "uint256"
        }
      ],
      "stateMutability": "view",
      "type": "function"
    },
    {
      "inputs": [],
      "name": "getRoots",
      "outputs": [
        {
          "internalType": "uint256[10]",
          "name": "",
          "type": "uint256[10]"
        }
      ],
      "stateMutability": "view",
      "type": "function"
    },
    {
      "inputs": [
        {
          "internalType": "uint256",
          "name": "_identityCommitment",
          "type": "uint256"
        }
      ],
      "name": "insertIdentity",
      "outputs": [
        {
          "internalType": "uint256",
          "name": "",
          "type": "uint256"
        }
      ],
      "stateMutability": "nonpayable",
      "type": "function"
    },
    {
      "inputs": [],
      "name": "isBroadcastPermissioned",
      "outputs": [
        {
          "internalType": "bool",
          "name": "",
          "type": "bool"
        }
      ],
      "stateMutability": "view",
      "type": "function"
    },
    {
      "inputs": [
        {
          "internalType": "uint232",
          "name": "_externalNullifier",
          "type": "uint232"
        }
      ],
      "name": "isExternalNullifierActive",
      "outputs": [
        {
          "internalType": "bool",
          "name": "",
          "type": "bool"
        }
      ],
      "stateMutability": "view",
      "type": "function"
    },
    {
      "inputs": [],
      "name": "isOwner",
      "outputs": [
        {
          "internalType": "bool",
          "name": "",
          "type": "bool"
        }
      ],
      "stateMutability": "view",
      "type": "function"
    },
    {
      "inputs": [],
      "name": "lastExternalNullifier",
      "outputs": [
        {
          "internalType": "uint232",
          "name": "",
          "type": "uint232"
        }
      ],
      "stateMutability": "view",
      "type": "function"
    },
    {
      "inputs": [
        {
          "internalType": "uint256",
          "name": "",
          "type": "uint256"
        }
      ],
      "name": "nullifierHashHistory",
      "outputs": [
        {
          "internalType": "bool",
          "name": "",
          "type": "bool"
        }
      ],
      "stateMutability": "view",
      "type": "function"
    },
    {
      "inputs": [],
      "name": "numExternalNullifiers",
      "outputs": [
        {
          "internalType": "uint256",
          "name": "",
          "type": "uint256"
        }
      ],
      "stateMutability": "view",
      "type": "function"
    },
    {
      "inputs": [],
      "name": "owner",
      "outputs": [
        {
          "internalType": "address",
          "name": "",
          "type": "address"
        }
      ],
      "stateMutability": "view",
      "type": "function"
    },
    {
      "inputs": [
        {
          "internalType": "uint256[2]",
          "name": "_a",
          "type": "uint256[2]"
        },
        {
          "internalType": "uint256[2][2]",
          "name": "_b",
          "type": "uint256[2][2]"
        },
        {
          "internalType": "uint256[2]",
          "name": "_c",
          "type": "uint256[2]"
        }
      ],
      "name": "packProof",
      "outputs": [
        {
          "internalType": "uint256[8]",
          "name": "",
          "type": "uint256[8]"
        }
      ],
      "stateMutability": "pure",
      "type": "function"
    },
    {
      "inputs": [
        {
          "internalType": "bytes",
          "name": "_signal",
          "type": "bytes"
        },
        {
          "internalType": "uint256[8]",
          "name": "_proof",
          "type": "uint256[8]"
        },
        {
          "internalType": "uint256",
          "name": "_root",
          "type": "uint256"
        },
        {
          "internalType": "uint256",
          "name": "_nullifiersHash",
          "type": "uint256"
        },
        {
          "internalType": "uint256",
          "name": "_signalHash",
          "type": "uint256"
        },
        {
          "internalType": "uint232",
          "name": "_externalNullifier",
          "type": "uint232"
        }
      ],
      "name": "preBroadcastCheck",
      "outputs": [
        {
          "internalType": "bool",
          "name": "",
          "type": "bool"
        }
      ],
      "stateMutability": "view",
      "type": "function"
    },
    {
      "inputs": [
        {
          "internalType": "uint232",
          "name": "_externalNullifier",
          "type": "uint232"
        }
      ],
      "name": "reactivateExternalNullifier",
      "outputs": [],
      "stateMutability": "nonpayable",
      "type": "function"
    },
    {
      "inputs": [],
      "name": "renounceOwnership",
      "outputs": [],
      "stateMutability": "nonpayable",
      "type": "function"
    },
    {
      "inputs": [],
      "name": "root",
      "outputs": [
        {
          "internalType": "uint256",
          "name": "",
          "type": "uint256"
        }
      ],
      "stateMutability": "view",
      "type": "function"
    },
    {
      "inputs": [
        {
          "internalType": "uint256",
          "name": "",
          "type": "uint256"
        }
      ],
      "name": "rootHistory",
      "outputs": [
        {
          "internalType": "bool",
          "name": "",
          "type": "bool"
        }
      ],
      "stateMutability": "view",
      "type": "function"
    },
    {
      "inputs": [
        {
          "internalType": "bool",
          "name": "_newPermission",
          "type": "bool"
        }
      ],
      "name": "setPermissioning",
      "outputs": [],
      "stateMutability": "nonpayable",
      "type": "function"
    },
    {
      "inputs": [
        {
          "internalType": "address",
          "name": "newOwner",
          "type": "address"
        }
      ],
      "name": "transferOwnership",
      "outputs": [],
      "stateMutability": "nonpayable",
      "type": "function"
    },
    {
      "inputs": [
        {
          "internalType": "uint256[8]",
          "name": "_proof",
          "type": "uint256[8]"
        }
      ],
      "name": "unpackProof",
      "outputs": [
        {
          "internalType": "uint256[2]",
          "name": "",
          "type": "uint256[2]"
        },
        {
          "internalType": "uint256[2][2]",
          "name": "",
          "type": "uint256[2][2]"
        },
        {
          "internalType": "uint256[2]",
          "name": "",
          "type": "uint256[2]"
        }
      ],
      "stateMutability": "pure",
      "type": "function"
    },
    {
      "inputs": [
        {
          "internalType": "uint256[2]",
          "name": "a",
          "type": "uint256[2]"
        },
        {
          "internalType": "uint256[2][2]",
          "name": "b",
          "type": "uint256[2][2]"
        },
        {
          "internalType": "uint256[2]",
          "name": "c",
          "type": "uint256[2]"
        },
        {
          "internalType": "uint256[4]",
          "name": "input",
          "type": "uint256[4]"
        }
      ],
      "name": "verifyProof",
      "outputs": [
        {
          "internalType": "bool",
          "name": "r",
          "type": "bool"
        }
      ],
      "stateMutability": "view",
      "type": "function"
    }
  ],
  "bytecode": "0x6080604052600060015560006050556000605160006101000a8154817cffffffffffffffffffffffffffffffffffffffffffffffffffffffffff02191690837cffffffffffffffffffffffffffffffffffffffffffffffffffffffffff1602179055506000605260006101000a8154817cffffffffffffffffffffffffffffffffffffffffffffffffffffffffff02191690837cffffffffffffffffffffffffffffffffffffffffffffffffffffffffff16021790555060016052601d6101000a81548160ff0219169083151502179055507f30644e72e131a029b85045b68181585d2833e84879b9709143e1f593f0000001604051602001620001039062000942565b6040516020818303038152906040528051906020012060001c62000128919062000992565b6054553480156200013857600080fd5b5060405162005f4538038062005f4583398181016040528101906200015e919062000a67565b8160545460008260ff161180156200017d5750602060ff168260ff1611155b620001bf576040517f08c379a0000000000000000000000000000000000000000000000000000000008152600401620001b69062000b35565b60405180910390fd5b816000806101000a81548160ff021916908360ff16021790555080600d600060208110620001f257620001f162000b57565b5b018190555060008190506000600190505b8360ff168160ff161015620002825760006200022683846200037760201b60201c565b905080600d8360ff166020811062000243576200024262000b57565b5b018190555080602d8360ff166020811062000263576200026262000b57565b5b0181905550809250508080620002799062000bb5565b91505062000203565b506200029581826200037760201b60201c565b600c8190555050505033604e60006101000a81548173ffffffffffffffffffffffffffffffffffffffff021916908373ffffffffffffffffffffffffffffffffffffffff160217905550604e60009054906101000a900473ffffffffffffffffffffffffffffffffffffffff1673ffffffffffffffffffffffffffffffffffffffff16600073ffffffffffffffffffffffffffffffffffffffff167f8be0079c531659141344cd1fd0a4f28419497f9722a3daafe3b4186f6b6457e060405160405180910390a36200036f816001620004ce60201b60201c565b505062000dfa565b600080839050600073__$cf5da3090e28b1d67a537682696360513a$__63f47d33b58360006040518363ffffffff1660e01b8152600401620003bb92919062000c42565b6040805180830381865af4158015620003d8573d6000803e3d6000fd5b505050506040513d601f19601f82011682018060405250810190620003fe919062000ca0565b80925081935050507f30644e72e131a029b85045b68181585d2833e84879b9709143e1f593f00000018062000438576200043762000963565b5b848308915073__$cf5da3090e28b1d67a537682696360513a$__63f47d33b583836040518363ffffffff1660e01b81526004016200047892919062000ce7565b6040805180830381865af415801562000495573d6000803e3d6000fd5b505050506040513d601f19601f82011682018060405250810190620004bb919062000ca0565b8092508193505050819250505092915050565b80156200052e5781605160006101000a8154817cffffffffffffffffffffffffffffffffffffffffffffffffffffffffff02191690837cffffffffffffffffffffffffffffffffffffffffffffffffffffffffff160217905550620006aa565b60001515604f6000847cffffffffffffffffffffffffffffffffffffffffffffffffffffffffff167cffffffffffffffffffffffffffffffffffffffffffffffffffffffffff168152602001908152602001600020600001601d9054906101000a900460ff16151514620005d9576040517f08c379a0000000000000000000000000000000000000000000000000000000008152600401620005d09062000d8a565b60405180910390fd5b81604f6000605260009054906101000a90047cffffffffffffffffffffffffffffffffffffffffffffffffffffffffff167cffffffffffffffffffffffffffffffffffffffffffffffffffffffffff167cffffffffffffffffffffffffffffffffffffffffffffffffffffffffff16815260200190815260200160002060000160006101000a8154817cffffffffffffffffffffffffffffffffffffffffffffffffffffffffff02191690837cffffffffffffffffffffffffffffffffffffffffffffffffffffffffff1602179055505b6000604f6000847cffffffffffffffffffffffffffffffffffffffffffffffffffffffffff167cffffffffffffffffffffffffffffffffffffffffffffffffffffffffff16815260200190815260200160002060000160006101000a8154817cffffffffffffffffffffffffffffffffffffffffffffffffffffffffff02191690837cffffffffffffffffffffffffffffffffffffffffffffffffffffffffff1602179055506001604f6000847cffffffffffffffffffffffffffffffffffffffffffffffffffffffffff167cffffffffffffffffffffffffffffffffffffffffffffffffffffffffff168152602001908152602001600020600001601e6101000a81548160ff0219169083151502179055506001604f6000847cffffffffffffffffffffffffffffffffffffffffffffffffffffffffff167cffffffffffffffffffffffffffffffffffffffffffffffffffffffffff168152602001908152602001600020600001601d6101000a81548160ff02191690831515021790555081605260006101000a8154817cffffffffffffffffffffffffffffffffffffffffffffffffffffffffff02191690837cffffffffffffffffffffffffffffffffffffffffffffffffffffffffff16021790555060506000815480929190620008929062000dac565b9190505550817cffffffffffffffffffffffffffffffffffffffffffffffffffffffffff167fd1ca56647596090d70fa8d49bcc376b97248314e3f204c491333b3440405f58960405160405180910390a25050565b600081905092915050565b7f53656d6170686f72650000000000000000000000000000000000000000000000600082015250565b60006200092a600983620008e7565b91506200093782620008f2565b600982019050919050565b60006200094f826200091b565b9150819050919050565b6000819050919050565b7f4e487b7100000000000000000000000000000000000000000000000000000000600052601260045260246000fd5b60006200099f8262000959565b9150620009ac8362000959565b925082620009bf57620009be62000963565b5b828206905092915050565b600080fd5b600060ff82169050919050565b620009e781620009cf565b8114620009f357600080fd5b50565b60008151905062000a0781620009dc565b92915050565b60007cffffffffffffffffffffffffffffffffffffffffffffffffffffffffff82169050919050565b62000a418162000a0d565b811462000a4d57600080fd5b50565b60008151905062000a618162000a36565b92915050565b6000806040838503121562000a815762000a80620009ca565b5b600062000a9185828601620009f6565b925050602062000aa48582860162000a50565b9150509250929050565b600082825260208201905092915050565b7f496e6372656d656e74616c4d65726b6c65547265653a205f747265654c65766560008201527f6c73206d757374206265206265747765656e203020616e642033330000000000602082015250565b600062000b1d603b8362000aae565b915062000b2a8262000abf565b604082019050919050565b6000602082019050818103600083015262000b508162000b0e565b9050919050565b7f4e487b7100000000000000000000000000000000000000000000000000000000600052603260045260246000fd5b7f4e487b7100000000000000000000000000000000000000000000000000000000600052601160045260246000fd5b600062000bc282620009cf565b915060ff82141562000bd95762000bd862000b86565b5b600182019050919050565b62000bef8162000959565b82525050565b6000819050919050565b6000819050919050565b600062000c2a62000c2462000c1e8462000bf5565b62000bff565b62000959565b9050919050565b62000c3c8162000c09565b82525050565b600060408201905062000c59600083018562000be4565b62000c68602083018462000c31565b9392505050565b62000c7a8162000959565b811462000c8657600080fd5b50565b60008151905062000c9a8162000c6f565b92915050565b6000806040838503121562000cba5762000cb9620009ca565b5b600062000cca8582860162000c89565b925050602062000cdd8582860162000c89565b9150509250929050565b600060408201905062000cfe600083018562000be4565b62000d0d602083018462000be4565b9392505050565b7f53656d6170686f72653a2065787465726e616c206e756c6c696669657220616c60008201527f7265616479207365740000000000000000000000000000000000000000000000602082015250565b600062000d7260298362000aae565b915062000d7f8262000d14565b604082019050919050565b6000602082019050818103600083015262000da58162000d63565b9050919050565b600062000db98262000959565b91507fffffffffffffffffffffffffffffffffffffffffffffffffffffffffffffffff82141562000def5762000dee62000b86565b5b600182019050919050565b61513b8062000e0a6000396000f3fe608060405234801561001057600080fd5b50600436106101a95760003560e01c8063819bd8a5116100f9578063c8cf02da11610097578063ebf0c71711610071578063ebf0c717146104d4578063f1c621ee146104f2578063f2fde38b14610522578063f5ab0dd61461053e576101a9565b8063c8cf02da1461046a578063ce85bbdb14610488578063eac4287e146104a4576101a9565b80638f6efd00116100d35780638f6efd00146103ce578063ba10b81d146103ec578063c3a3407f1461040a578063c4cd55961461043a576101a9565b8063819bd8a5146103765780638da5cb5b146103925780638f32d59b146103b0576101a9565b80635d86faba116101665780636d80efca116101405780636d80efca146102ec5780636ebf62651461031c578063715018a61461033a5780637a5519f914610344576101a9565b80635d86faba1461026e5780635e05ea171461028c5780635fe8c13b146102bc576101a9565b80630e57596f146101ae57806323baaa83146101ca578063283ebaf4146101e657806335a5e06d14610204578063539f38b2146102225780635d3ce7251461023e575b600080fd5b6101c860048036038101906101c391906136da565b610570565b005b6101e460048036038101906101df9190613775565b6107a7565b005b6101ee6109b0565b6040516101fb91906137bd565b60405180910390f35b61020c6109c3565b6040516102199190613883565b60405180910390f35b61023c60048036038101906102379190613775565b610a0e565b005b6102586004803603810190610253919061389f565b610a1c565b60405161026591906137bd565b60405180910390f35b610276610b88565b604051610283919061395c565b60405180910390f35b6102a660048036038101906102a19190613ad9565b610bb7565b6040516102b39190613bb1565b60405180910390f35b6102d660048036038101906102d19190613c7e565b610d22565b6040516102e391906137bd565b60405180910390f35b61030660048036038101906103019190613ce7565b6113f7565b6040516103139190613d23565b60405180910390f35b61032461147b565b6040516103319190613d23565b60405180910390f35b610342611481565b005b61035e60048036038101906103599190613775565b611589565b60405161036d93929190613d3e565b60405180910390f35b610390600480360381019061038b9190613775565b6115f6565b005b61039a6117ff565b6040516103a79190613db6565b60405180910390f35b6103b8611829565b6040516103c591906137bd565b60405180910390f35b6103d6611881565b6040516103e39190613d23565b60405180910390f35b6103f4611887565b6040516104019190613d23565b60405180910390f35b610424600480360381019061041f9190613775565b611891565b604051610431919061395c565b60405180910390f35b610454600480360381019061044f9190613ce7565b611a6e565b60405161046191906137bd565b60405180910390f35b610472611a8e565b60405161047f919061395c565b60405180910390f35b6104a2600480360381019061049d9190613dfd565b611abd565b005b6104be60048036038101906104b99190613775565b611b09565b6040516104cb91906137bd565b60405180910390f35b6104dc611b74565b6040516104e99190613d23565b60405180910390f35b61050c60048036038101906105079190613ce7565b611b7a565b60405161051991906137bd565b60405180910390f35b61053c60048036038101906105379190613e56565b611b9a565b005b61055860048036038101906105539190613e83565b611bed565b60405161056793929190614033565b60405180910390f35b848484848461057e84611d39565b6105bd576040517f08c379a00000000000000000000000000000000000000000000000000000000081526004016105b4906140ee565b60405180910390fd5b600015156053600084815260200190815260200160002060009054906101000a900460ff16151514610624576040517f08c379a000000000000000000000000000000000000000000000000000000000815260040161061b90614180565b60405180910390fd5b61062d81611b09565b61066c576040517f08c379a000000000000000000000000000000000000000000000000000000000815260040161066390614212565b60405180910390fd5b7fd0be6067448f25771ec845586f8e534829698cec02e5acedf5334d188b57681e8360405161069b9190613d23565b60405180910390a160006106ae86611f52565b90507f30644e72e131a029b85045b68181585d2833e84879b9709143e1f593f00000018310610712576040517f08c379a0000000000000000000000000000000000000000000000000000000008152600401610709906142a4565b60405180910390fd5b60006040518060800160405280868152602001858152602001838152602001847cffffffffffffffffffffffffffffffffffffffffffffffffffffffffff168152509050600080600061076489611bed565b9250925092506001605360008e815260200190815260200160002060006101000a81548160ff021916908315150217905550505050505050505050505050505050565b604f6000827cffffffffffffffffffffffffffffffffffffffffffffffffffffffffff167cffffffffffffffffffffffffffffffffffffffffffffffffffffffffff168152602001908152602001600020600001601d9054906101000a900460ff16610848576040517f08c379a000000000000000000000000000000000000000000000000000000000815260040161083f90614212565b60405180910390fd5b60011515604f6000837cffffffffffffffffffffffffffffffffffffffffffffffffffffffffff167cffffffffffffffffffffffffffffffffffffffffffffffffffffffffff168152602001908152602001600020600001601e9054906101000a900460ff161515146108f0576040517f08c379a00000000000000000000000000000000000000000000000000000000081526004016108e790614336565b60405180910390fd5b6000604f6000837cffffffffffffffffffffffffffffffffffffffffffffffffffffffffff167cffffffffffffffffffffffffffffffffffffffffffffffffffffffffff168152602001908152602001600020600001601e6101000a81548160ff02191690831515021790555060001515817cffffffffffffffffffffffffffffffffffffffffffffffffffffffffff167fb8d2b8a2b352df7f139810483b3c80fc3a4a88711c90bdb7180f1030b7f49acf60405160405180910390a350565b6052601d9054906101000a900460ff1681565b6109cb613257565b6002600a806020026040519081016040528092919082600a8015610a04576020028201915b8154815260200190600101908083116109f0575b5050505050905090565b610a19816000611f6a565b50565b6000806040518060800160405280878152602001868152602001858152602001847cffffffffffffffffffffffffffffffffffffffffffffffffffffffffff1681525090506000806000610a6f8a611bed565b92509250925060001515605360008a815260200190815260200160002060009054906101000a900460ff161515148015610ab0575086610aae8c611f52565b145b8015610ac35750610ac08b611f52565b87145b8015610ad45750610ad386611b09565b5b8015610afd5750604d60008a815260200190815260200160002060009054906101000a900460ff165b8015610b0e5750610b0d8a611d39565b5b8015610b3957507f30644e72e131a029b85045b68181585d2833e84879b9709143e1f593f000000189105b8015610b6457507f30644e72e131a029b85045b68181585d2833e84879b9709143e1f593f000000188105b8015610b785750610b7783838387610d22565b5b9450505050509695505050505050565b605160009054906101000a90047cffffffffffffffffffffffffffffffffffffffffffffffffffffffffff1681565b610bbf61327a565b60405180610100016040528085600060028110610bdf57610bde614356565b5b6020020151815260200185600160028110610bfd57610bfc614356565b5b6020020151815260200184600060028110610c1b57610c1a614356565b5b6020020151600060028110610c3357610c32614356565b5b6020020151815260200184600060028110610c5157610c50614356565b5b6020020151600160028110610c6957610c68614356565b5b6020020151815260200184600160028110610c8757610c86614356565b5b6020020151600060028110610c9f57610c9e614356565b5b6020020151815260200184600160028110610cbd57610cbc614356565b5b6020020151600160028110610cd557610cd4614356565b5b6020020151815260200183600060028110610cf357610cf2614356565b5b6020020151815260200183600160028110610d1157610d10614356565b5b602002015181525090509392505050565b6000610d2c61329d565b604051806040016040528087600060028110610d4b57610d4a614356565b5b6020020151815260200187600160028110610d6957610d68614356565b5b602002015181525081600001819052506040518060400160405280604051806040016040528088600060028110610da357610da2614356565b5b6020020151600060028110610dbb57610dba614356565b5b6020020151815260200188600060028110610dd957610dd8614356565b5b6020020151600160028110610df157610df0614356565b5b60200201518152508152602001604051806040016040528088600160028110610e1d57610e1c614356565b5b6020020151600060028110610e3557610e34614356565b5b6020020151815260200188600160028110610e5357610e52614356565b5b6020020151600160028110610e6b57610e6a614356565b5b60200201518152508152508160200181905250604051806040016040528085600060028110610e9d57610e9c614356565b5b6020020151815260200185600160028110610ebb57610eba614356565b5b602002015181525081604001819052506000610ed561237c565b90506000604051806040016040528060008152602001600081525090507f30644e72e131a029b85045b68181585d97816a916871ca8d3c208c16d87cfd4783600001516000015110610f5c576040517f08c379a0000000000000000000000000000000000000000000000000000000008152600401610f53906143d1565b60405180910390fd5b7f30644e72e131a029b85045b68181585d97816a916871ca8d3c208c16d87cfd4783600001516020015110610fc6576040517f08c379a0000000000000000000000000000000000000000000000000000000008152600401610fbd9061443d565b60405180910390fd5b7f30644e72e131a029b85045b68181585d97816a916871ca8d3c208c16d87cfd4783602001516000015160006002811061100357611002614356565b5b602002015110611048576040517f08c379a000000000000000000000000000000000000000000000000000000000815260040161103f906144a9565b60405180910390fd5b7f30644e72e131a029b85045b68181585d97816a916871ca8d3c208c16d87cfd4783602001516020015160006002811061108557611084614356565b5b6020020151106110ca576040517f08c379a00000000000000000000000000000000000000000000000000000000081526004016110c190614515565b60405180910390fd5b7f30644e72e131a029b85045b68181585d97816a916871ca8d3c208c16d87cfd4783602001516000015160016002811061110757611106614356565b5b60200201511061114c576040517f08c379a000000000000000000000000000000000000000000000000000000000815260040161114390614581565b60405180910390fd5b7f30644e72e131a029b85045b68181585d97816a916871ca8d3c208c16d87cfd4783602001516020015160016002811061118957611188614356565b5b6020020151106111ce576040517f08c379a00000000000000000000000000000000000000000000000000000000081526004016111c5906145ed565b60405180910390fd5b7f30644e72e131a029b85045b68181585d97816a916871ca8d3c208c16d87cfd4783604001516000015110611238576040517f08c379a000000000000000000000000000000000000000000000000000000000815260040161122f90614659565b60405180910390fd5b7f30644e72e131a029b85045b68181585d97816a916871ca8d3c208c16d87cfd47836040015160200151106112a2576040517f08c379a0000000000000000000000000000000000000000000000000000000008152600401611299906146c5565b60405180910390fd5b60005b600481101561138d577f30644e72e131a029b85045b68181585d2833e84879b9709143e1f593f00000018682600481106112e2576112e1614356565b5b602002015110611327576040517f08c379a000000000000000000000000000000000000000000000000000000000815260040161131e90614731565b60405180910390fd5b6113788261137385608001516001856113409190614780565b6005811061135157611350614356565b5b602002015189856004811061136957611368614356565b5b602002015161287b565b6128f4565b91508080611385906147d6565b9150506112a5565b506113b48183608001516000600581106113aa576113a9614356565b5b60200201516128f4565b90506113ea6113c68460000151612993565b84602001518460000151856020015185876040015189604001518960600151612a51565b9350505050949350505050565b600060545482141561143e576040517f08c379a0000000000000000000000000000000000000000000000000000000008152600401611435906148b7565b60405180910390fd5b817f31d0d431762af1b333d4fef318e03efc7b702fe91dd1f0aa2c72e699bebcb48960405160405180910390a261147482612d65565b9050919050565b60545481565b611489611829565b6114c8576040517f08c379a00000000000000000000000000000000000000000000000000000000081526004016114bf90614923565b60405180910390fd5b600073ffffffffffffffffffffffffffffffffffffffff16604e60009054906101000a900473ffffffffffffffffffffffffffffffffffffffff1673ffffffffffffffffffffffffffffffffffffffff167f8be0079c531659141344cd1fd0a4f28419497f9722a3daafe3b4186f6b6457e060405160405180910390a36000604e60006101000a81548173ffffffffffffffffffffffffffffffffffffffff021916908373ffffffffffffffffffffffffffffffffffffffff160217905550565b604f6020528060005260406000206000915090508060000160009054906101000a90047cffffffffffffffffffffffffffffffffffffffffffffffffffffffffff169080600001601d9054906101000a900460ff169080600001601e9054906101000a900460ff16905083565b604f6000827cffffffffffffffffffffffffffffffffffffffffffffffffffffffffff167cffffffffffffffffffffffffffffffffffffffffffffffffffffffffff168152602001908152602001600020600001601d9054906101000a900460ff16611697576040517f08c379a000000000000000000000000000000000000000000000000000000000815260040161168e90614212565b60405180910390fd5b60001515604f6000837cffffffffffffffffffffffffffffffffffffffffffffffffffffffffff167cffffffffffffffffffffffffffffffffffffffffffffffffffffffffff168152602001908152602001600020600001601e9054906101000a900460ff1615151461173f576040517f08c379a0000000000000000000000000000000000000000000000000000000008152600401611736906149b5565b60405180910390fd5b6001604f6000837cffffffffffffffffffffffffffffffffffffffffffffffffffffffffff167cffffffffffffffffffffffffffffffffffffffffffffffffffffffffff168152602001908152602001600020600001601e6101000a81548160ff02191690831515021790555060011515817cffffffffffffffffffffffffffffffffffffffffffffffffffffffffff167fb8d2b8a2b352df7f139810483b3c80fc3a4a88711c90bdb7180f1030b7f49acf60405160405180910390a350565b6000604e60009054906101000a900473ffffffffffffffffffffffffffffffffffffffff16905090565b6000604e60009054906101000a900473ffffffffffffffffffffffffffffffffffffffff1673ffffffffffffffffffffffffffffffffffffffff163373ffffffffffffffffffffffffffffffffffffffff1614905090565b60505481565b6000600154905090565b6000604f6000837cffffffffffffffffffffffffffffffffffffffffffffffffffffffffff167cffffffffffffffffffffffffffffffffffffffffffffffffffffffffff168152602001908152602001600020600001601d9054906101000a900460ff16611934576040517f08c379a000000000000000000000000000000000000000000000000000000000815260040161192b90614a47565b60405180910390fd5b6000604f6000847cffffffffffffffffffffffffffffffffffffffffffffffffffffffffff167cffffffffffffffffffffffffffffffffffffffffffffffffffffffffff16815260200190815260200160002060000160009054906101000a90047cffffffffffffffffffffffffffffffffffffffffffffffffffffffffff1690506001605054118015611a265750604f6000827cffffffffffffffffffffffffffffffffffffffffffffffffffffffffff167cffffffffffffffffffffffffffffffffffffffffffffffffffffffffff168152602001908152602001600020600001601d9054906101000a900460ff165b611a65576040517f08c379a0000000000000000000000000000000000000000000000000000000008152600401611a5c90614ad9565b60405180910390fd5b80915050919050565b60536020528060005260406000206000915054906101000a900460ff1681565b605260009054906101000a90047cffffffffffffffffffffffffffffffffffffffffffffffffffffffffff1681565b806052601d6101000a81548160ff0219169083151502179055508015157ffba91b9002bc7732a7bff1b44ee16a30ebaeb06d7921779034c6a6ab27e69c2760405160405180910390a250565b6000604f6000837cffffffffffffffffffffffffffffffffffffffffffffffffffffffffff167cffffffffffffffffffffffffffffffffffffffffffffffffffffffffff168152602001908152602001600020600001601e9054906101000a900460ff169050919050565b600c5481565b604d6020528060005260406000206000915054906101000a900460ff1681565b611ba2611829565b611be1576040517f08c379a0000000000000000000000000000000000000000000000000000000008152600401611bd890614923565b60405180910390fd5b611bea81612fdd565b50565b611bf56132d0565b611bfd6132f2565b611c056132d0565b604051806040016040528085600060088110611c2457611c23614356565b5b6020020151815260200185600160088110611c4257611c41614356565b5b60200201518152506040518060400160405280604051806040016040528088600260088110611c7457611c73614356565b5b6020020151815260200188600360088110611c9257611c91614356565b5b60200201518152508152602001604051806040016040528088600460088110611cbe57611cbd614356565b5b6020020151815260200188600560088110611cdc57611cdb614356565b5b6020020151815250815250604051806040016040528087600660088110611d0657611d05614356565b5b6020020151815260200187600760088110611d2457611d23614356565b5b60200201518152509250925092509193909250565b60007f30644e72e131a029b85045b68181585d2833e84879b9709143e1f593f000000182600060088110611d7057611d6f614356565b5b6020020151108015611db957507f30644e72e131a029b85045b68181585d2833e84879b9709143e1f593f000000182600160088110611db257611db1614356565b5b6020020151105b8015611dfc57507f30644e72e131a029b85045b68181585d2833e84879b9709143e1f593f000000182600260088110611df557611df4614356565b5b6020020151105b8015611e3f57507f30644e72e131a029b85045b68181585d2833e84879b9709143e1f593f000000182600360088110611e3857611e37614356565b5b6020020151105b8015611e8257507f30644e72e131a029b85045b68181585d2833e84879b9709143e1f593f000000182600460088110611e7b57611e7a614356565b5b6020020151105b8015611ec557507f30644e72e131a029b85045b68181585d2833e84879b9709143e1f593f000000182600560088110611ebe57611ebd614356565b5b6020020151105b8015611f0857507f30644e72e131a029b85045b68181585d2833e84879b9709143e1f593f000000182600660088110611f0157611f00614356565b5b6020020151105b8015611f4b57507f30644e72e131a029b85045b68181585d2833e84879b9709143e1f593f000000182600760088110611f4457611f43614356565b5b6020020151105b9050919050565b60006008828051906020012060001c901c9050919050565b8015611fc85781605160006101000a8154817cffffffffffffffffffffffffffffffffffffffffffffffffffffffffff02191690837cffffffffffffffffffffffffffffffffffffffffffffffffffffffffff160217905550612141565b60001515604f6000847cffffffffffffffffffffffffffffffffffffffffffffffffffffffffff167cffffffffffffffffffffffffffffffffffffffffffffffffffffffffff168152602001908152602001600020600001601d9054906101000a900460ff16151514612070576040517f08c379a000000000000000000000000000000000000000000000000000000000815260040161206790614b6b565b60405180910390fd5b81604f6000605260009054906101000a90047cffffffffffffffffffffffffffffffffffffffffffffffffffffffffff167cffffffffffffffffffffffffffffffffffffffffffffffffffffffffff167cffffffffffffffffffffffffffffffffffffffffffffffffffffffffff16815260200190815260200160002060000160006101000a8154817cffffffffffffffffffffffffffffffffffffffffffffffffffffffffff02191690837cffffffffffffffffffffffffffffffffffffffffffffffffffffffffff1602179055505b6000604f6000847cffffffffffffffffffffffffffffffffffffffffffffffffffffffffff167cffffffffffffffffffffffffffffffffffffffffffffffffffffffffff16815260200190815260200160002060000160006101000a8154817cffffffffffffffffffffffffffffffffffffffffffffffffffffffffff02191690837cffffffffffffffffffffffffffffffffffffffffffffffffffffffffff1602179055506001604f6000847cffffffffffffffffffffffffffffffffffffffffffffffffffffffffff167cffffffffffffffffffffffffffffffffffffffffffffffffffffffffff168152602001908152602001600020600001601e6101000a81548160ff0219169083151502179055506001604f6000847cffffffffffffffffffffffffffffffffffffffffffffffffffffffffff167cffffffffffffffffffffffffffffffffffffffffffffffffffffffffff168152602001908152602001600020600001601d6101000a81548160ff02191690831515021790555081605260006101000a8154817cffffffffffffffffffffffffffffffffffffffffffffffffffffffffff02191690837cffffffffffffffffffffffffffffffffffffffffffffffffffffffffff16021790555060506000815480929190612327906147d6565b9190505550817cffffffffffffffffffffffffffffffffffffffffffffffffffffffffff167fd1ca56647596090d70fa8d49bcc376b97248314e3f204c491333b3440405f58960405160405180910390a25050565b61238461331f565b60405180604001604052807f2aeb4aafb1c7a3e1445536842c9d8225ebd94a09d15cda4e17d944add94ede4781526020017f03ab549390940a14a8d8d3fe3f6ecb68195432778936e617d914f14d1df035798152508160000181905250604051806040016040528060405180604001604052807f2fd95a27d1b9d966bb3ae847506bfc2ffa3e5c945f4502cf0f10dfd658960f9481526020017f167a6701c17cc2734e919e79f59f110b511f1ff811a06fd840949416d10ddafc815250815260200160405180604001604052807f02b4c85ab8a8fbe2d979af025230a96c10e07c5e4163fc7d633ba083fc44f9ee81526020017f303ca2757a59cbf0e0bbdb8f1712f29e3e804cd258e18aca0da7f6bd7136e8068152508152508160200181905250604051806040016040528060405180604001604052807f0fa9bb662fc3acd975ee36a6ea2c0c709c3a75303345702acaf0d845428f932b81526020017f2f2d53e983b994de7cac84d565b30b457f11273ff5a898ce80c9fd66bdf9e075815250815260200160405180604001604052807f2d1f4da8e0f4d49c61fd3ec22a104df1a5159b1e329b3506354559ebafff080181526020017f2ff6e55d56bb54b32d728131475c6ca6d7a92cc6b82bfcd59311c765e7edcb458152508152508160400181905250604051806040016040528060405180604001604052807f23511787419db90d2bad3c8bfbac9f4398c26cd6cd34bb5276c2cd94b7b7d26f81526020017f17e0c1843c4ec925cf3d09b051978f5f23d1d166117d572f38dbd874126dead5815250815260200160405180604001604052807f06e374c176a74bf3d0c0329b9d03b53693d77f928cd1fc4c6f6053ec00f2ca2581526020017f2d832fd3933c30f159e18dbe33bc7496240cc22bcece79faf02388e5bd366a21815250815250816060018190525060405180604001604052807f2174881f2cb4aee5292b2f603cb183bf301d263b1a11c7ec22585fec00ecce9881526020017e3e5e75ec133240c640391a4cb8a18e2fbc4f6336e6b6693643735d5c623087815250816080015160006005811061269c5761269b614356565b5b602002018190525060405180604001604052807f1664a7bd963677623594fb978543aceb4fc3576b0f976c519a22bdbca62226c381526020017f0e28ccde23de1c2f78b1d8d35660f7014f391e354756aad1f5f75d159cfab652815250816080015160016005811061271157612710614356565b5b602002018190525060405180604001604052807f17439f723025a06c170891f82daf6fbf4fe30c3824d1b0820262e7ee632bd62d81526020017f0a74bd079e9f728a7c5dc31ea3c7c43e978be8921a351b9de0df3cfb2f601855815250816080015160026005811061278657612785614356565b5b602002018190525060405180604001604052807f274660c30271883b25933fc39f835337bafcb604536af04f6264fe96a7b32d5181526020017f27e6947d2ab1e5b87fa5e0b4fe610ee7a623bdf4e0225e249c6a3446af5085b581525081608001516003600581106127fb576127fa614356565b5b602002018190525060405180604001604052807f108ba5cc069e7368567294f740794f36d4c7d99d40dd667fe5dd544967bdc9a981526020017f2175417a3760110f546c7f7f30d3195d766cbe31f34013b45322ff7fd974635c81525081608001516004600581106128705761286f614356565b5b602002018190525090565b61288361336c565b61288b613386565b8360000151816000600381106128a4576128a3614356565b5b6020020181815250508360200151816001600381106128c6576128c5614356565b5b60200201818152505082816002600381106128e4576128e3614356565b5b6020020181815250505092915050565b6128fc61336c565b6129046133a8565b83600001518160006004811061291d5761291c614356565b5b60200201818152505083602001518160016004811061293f5761293e614356565b5b60200201818152505082600001518160026004811061296157612960614356565b5b60200201818152505082602001518160036004811061298357612982614356565b5b6020020181815250505092915050565b61299b61336c565b600082600001511480156129b3575060008260200151145b156129d65760405180604001604052806000815260200160008152509050612a4c565b6040518060400160405280836000015181526020017f30644e72e131a029b85045b68181585d97816a916871ca8d3c208c16d87cfd478460200151612a1b9190614bba565b7f30644e72e131a029b85045b68181585d97816a916871ca8d3c208c16d87cfd47612a469190614beb565b81525090505b919050565b60008060405180608001604052808b8152602001898152602001878152602001858152509050600060405180608001604052808b815260200189815260200187815260200185815250905060006018905060008167ffffffffffffffff811115612abe57612abd61346e565b5b604051908082528060200260200182016040528015612aec5781602001602082028036833780820191505090505b50905060005b6004811015612d2a576000600682612b0a9190614c1f565b9050858260048110612b1f57612b1e614356565b5b60200201516000015183600083612b369190614780565b81518110612b4757612b46614356565b5b602002602001018181525050858260048110612b6657612b65614356565b5b60200201516020015183600183612b7d9190614780565b81518110612b8e57612b8d614356565b5b602002602001018181525050848260048110612bad57612bac614356565b5b602002015160000151600060028110612bc957612bc8614356565b5b602002015183600283612bdc9190614780565b81518110612bed57612bec614356565b5b602002602001018181525050848260048110612c0c57612c0b614356565b5b602002015160000151600160028110612c2857612c27614356565b5b602002015183600383612c3b9190614780565b81518110612c4c57612c4b614356565b5b602002602001018181525050848260048110612c6b57612c6a614356565b5b602002015160200151600060028110612c8757612c86614356565b5b602002015183600483612c9a9190614780565b81518110612cab57612caa614356565b5b602002602001018181525050848260048110612cca57612cc9614356565b5b602002015160200151600160028110612ce657612ce5614356565b5b602002015183600583612cf99190614780565b81518110612d0a57612d09614356565b5b602002602001018181525050508080612d22906147d6565b915050612af2565b50612d336133ca565b60008082600060018110612d4a57612d49614356565b5b60200201511415965050505050505098975050505050505050565b60007f30644e72e131a029b85045b68181585d2833e84879b9709143e1f593f00000018210612dc9576040517f08c379a0000000000000000000000000000000000000000000000000000000008152600401612dc090614d11565b60405180910390fd5b6000600154905060008060009054906101000a900460ff1660ff169050806002612df39190614e64565b8210612e34576040517f08c379a0000000000000000000000000000000000000000000000000000000008152600401612e2b90614f21565b60405180910390fd5b600084905060008060005b60008054906101000a900460ff1660ff168160ff161015612ef4576000600287612e699190614bba565b1415612eaf57839250600d8160ff1660208110612e8957612e88614356565b5b0154915083602d8260ff1660208110612ea557612ea4614356565b5b0181905550612ece565b602d8160ff1660208110612ec657612ec5614356565b5b015492508391505b612ed8838361310d565b9350600186901c95508080612eec90614f4e565b915050612e3f565b5082600c819055506001604d6000600c54815260200190815260200160002060006101000a81548160ff0219169083151502179055507f798104477dcefe17a2ff5ed9af618d9b254ea90608948f8da0fbbad00c44a937600c54604051612f5b9190613d23565b60405180910390a1600c546002600154600a8110612f7c57612f7b614356565b5b0181905550600060015490506001806000828254612f9a9190614780565b9250508190555080887fe6f49fa84abd31919f446b22a52bb3ceae774b4b87f062f022fec45c46f4f45860405160405180910390a3859650505050505050919050565b600073ffffffffffffffffffffffffffffffffffffffff168173ffffffffffffffffffffffffffffffffffffffff16141561304d576040517f08c379a000000000000000000000000000000000000000000000000000000000815260040161304490614fea565b60405180910390fd5b8073ffffffffffffffffffffffffffffffffffffffff16604e60009054906101000a900473ffffffffffffffffffffffffffffffffffffffff1673ffffffffffffffffffffffffffffffffffffffff167f8be0079c531659141344cd1fd0a4f28419497f9722a3daafe3b4186f6b6457e060405160405180910390a380604e60006101000a81548173ffffffffffffffffffffffffffffffffffffffff021916908373ffffffffffffffffffffffffffffffffffffffff16021790555050565b600080839050600073__$cf5da3090e28b1d67a537682696360513a$__63f47d33b58360006040518363ffffffff1660e01b815260040161314f92919061505e565b6040805180830381865af415801561316b573d6000803e3d6000fd5b505050506040513d601f19601f8201168201806040525081019061318f919061509c565b80925081935050507f30644e72e131a029b85045b68181585d2833e84879b9709143e1f593f0000001806131c6576131c5614b8b565b5b848308915073__$cf5da3090e28b1d67a537682696360513a$__63f47d33b583836040518363ffffffff1660e01b81526004016132049291906150dc565b6040805180830381865af4158015613220573d6000803e3d6000fd5b505050506040513d601f19601f82011682018060405250810190613244919061509c565b8092508193505050819250505092915050565b604051806101400160405280600a90602082028036833780820191505090505090565b604051806101000160405280600890602082028036833780820191505090505090565b60405180606001604052806132b061336c565b81526020016132bd6133ec565b81526020016132ca61336c565b81525090565b6040518060400160405280600290602082028036833780820191505090505090565b60405180604001604052806002905b6133096132d0565b8152602001906001900390816133015790505090565b6040518060a0016040528061333261336c565b815260200161333f6133ec565b815260200161334c6133ec565b81526020016133596133ec565b8152602001613366613412565b81525090565b604051806040016040528060008152602001600081525090565b6040518060600160405280600390602082028036833780820191505090505090565b6040518060800160405280600490602082028036833780820191505090505090565b6040518060200160405280600190602082028036833780820191505090505090565b60405180604001604052806133ff6132d0565b815260200161340c6132d0565b81525090565b6040518060a001604052806005905b61342961336c565b8152602001906001900390816134215790505090565b6000604051905090565b600080fd5b600080fd5b600080fd5b600080fd5b6000601f19601f8301169050919050565b7f4e487b7100000000000000000000000000000000000000000000000000000000600052604160045260246000fd5b6134a68261345d565b810181811067ffffffffffffffff821117156134c5576134c461346e565b5b80604052505050565b60006134d861343f565b90506134e4828261349d565b919050565b600067ffffffffffffffff8211156135045761350361346e565b5b61350d8261345d565b9050602081019050919050565b82818337600083830152505050565b600061353c613537846134e9565b6134ce565b90508281526020810184848401111561355857613557613458565b5b61356384828561351a565b509392505050565b600082601f8301126135805761357f613453565b5b8135613590848260208601613529565b91505092915050565b600067ffffffffffffffff8211156135b4576135b361346e565b5b602082029050919050565b600080fd5b6000819050919050565b6135d7816135c4565b81146135e257600080fd5b50565b6000813590506135f4816135ce565b92915050565b600061360d61360884613599565b6134ce565b90508060208402830185811115613627576136266135bf565b5b835b81811015613650578061363c88826135e5565b845260208401935050602081019050613629565b5050509392505050565b600082601f83011261366f5761366e613453565b5b600861367c8482856135fa565b91505092915050565b60007cffffffffffffffffffffffffffffffffffffffffffffffffffffffffff82169050919050565b6136b781613685565b81146136c257600080fd5b50565b6000813590506136d4816136ae565b92915050565b600080600080600061018086880312156136f7576136f6613449565b5b600086013567ffffffffffffffff8111156137155761371461344e565b5b6137218882890161356b565b95505060206137328882890161365a565b945050610120613744888289016135e5565b935050610140613756888289016135e5565b925050610160613768888289016136c5565b9150509295509295909350565b60006020828403121561378b5761378a613449565b5b6000613799848285016136c5565b91505092915050565b60008115159050919050565b6137b7816137a2565b82525050565b60006020820190506137d260008301846137ae565b92915050565b6000600a9050919050565b600081905092915050565b6000819050919050565b613801816135c4565b82525050565b600061381383836137f8565b60208301905092915050565b6000602082019050919050565b613835816137d8565b61383f81846137e3565b925061384a826137ee565b8060005b8381101561387b5781516138628782613807565b965061386d8361381f565b92505060018101905061384e565b505050505050565b600061014082019050613899600083018461382c565b92915050565b6000806000806000806101a087890312156138bd576138bc613449565b5b600087013567ffffffffffffffff8111156138db576138da61344e565b5b6138e789828a0161356b565b96505060206138f889828a0161365a565b95505061012061390a89828a016135e5565b94505061014061391c89828a016135e5565b93505061016061392e89828a016135e5565b92505061018061394089828a016136c5565b9150509295509295509295565b61395681613685565b82525050565b6000602082019050613971600083018461394d565b92915050565b600067ffffffffffffffff8211156139925761399161346e565b5b602082029050919050565b60006139b06139ab84613977565b6134ce565b905080602084028301858111156139ca576139c96135bf565b5b835b818110156139f357806139df88826135e5565b8452602084019350506020810190506139cc565b5050509392505050565b600082601f830112613a1257613a11613453565b5b6002613a1f84828561399d565b91505092915050565b600067ffffffffffffffff821115613a4357613a4261346e565b5b602082029050919050565b6000613a61613a5c84613a28565b6134ce565b90508060408402830185811115613a7b57613a7a6135bf565b5b835b81811015613aa45780613a9088826139fd565b845260208401935050604081019050613a7d565b5050509392505050565b600082601f830112613ac357613ac2613453565b5b6002613ad0848285613a4e565b91505092915050565b60008060006101008486031215613af357613af2613449565b5b6000613b01868287016139fd565b9350506040613b1286828701613aae565b92505060c0613b23868287016139fd565b9150509250925092565b600060089050919050565b600081905092915050565b6000819050919050565b6000602082019050919050565b613b6381613b2d565b613b6d8184613b38565b9250613b7882613b43565b8060005b83811015613ba9578151613b908782613807565b9650613b9b83613b4d565b925050600181019050613b7c565b505050505050565b600061010082019050613bc76000830184613b5a565b92915050565b600067ffffffffffffffff821115613be857613be761346e565b5b602082029050919050565b6000613c06613c0184613bcd565b6134ce565b90508060208402830185811115613c2057613c1f6135bf565b5b835b81811015613c495780613c3588826135e5565b845260208401935050602081019050613c22565b5050509392505050565b600082601f830112613c6857613c67613453565b5b6004613c75848285613bf3565b91505092915050565b6000806000806101808587031215613c9957613c98613449565b5b6000613ca7878288016139fd565b9450506040613cb887828801613aae565b93505060c0613cc9878288016139fd565b925050610100613cdb87828801613c53565b91505092959194509250565b600060208284031215613cfd57613cfc613449565b5b6000613d0b848285016135e5565b91505092915050565b613d1d816135c4565b82525050565b6000602082019050613d386000830184613d14565b92915050565b6000606082019050613d53600083018661394d565b613d6060208301856137ae565b613d6d60408301846137ae565b949350505050565b600073ffffffffffffffffffffffffffffffffffffffff82169050919050565b6000613da082613d75565b9050919050565b613db081613d95565b82525050565b6000602082019050613dcb6000830184613da7565b92915050565b613dda816137a2565b8114613de557600080fd5b50565b600081359050613df781613dd1565b92915050565b600060208284031215613e1357613e12613449565b5b6000613e2184828501613de8565b91505092915050565b613e3381613d95565b8114613e3e57600080fd5b50565b600081359050613e5081613e2a565b92915050565b600060208284031215613e6c57613e6b613449565b5b6000613e7a84828501613e41565b91505092915050565b60006101008284031215613e9a57613e99613449565b5b6000613ea88482850161365a565b91505092915050565b600060029050919050565b600081905092915050565b6000819050919050565b6000602082019050919050565b613ee781613eb1565b613ef18184613ebc565b9250613efc82613ec7565b8060005b83811015613f2d578151613f148782613807565b9650613f1f83613ed1565b925050600181019050613f00565b505050505050565b600060029050919050565b600081905092915050565b6000819050919050565b600081905092915050565b613f6981613eb1565b613f738184613f55565b9250613f7e82613ec7565b8060005b83811015613faf578151613f968782613807565b9650613fa183613ed1565b925050600181019050613f82565b505050505050565b6000613fc38383613f60565b60408301905092915050565b6000602082019050919050565b613fe581613f35565b613fef8184613f40565b9250613ffa82613f4b565b8060005b8381101561402b5781516140128782613fb7565b965061401d83613fcf565b925050600181019050613ffe565b505050505050565b6000610100820190506140496000830186613ede565b6140566040830185613fdc565b61406360c0830184613ede565b949350505050565b600082825260208201905092915050565b7f53656d6170686f72653a20696e76616c6964206669656c6420656c656d656e7460008201527f28732920696e2070726f6f660000000000000000000000000000000000000000602082015250565b60006140d8602c8361406b565b91506140e38261407c565b604082019050919050565b60006020820190508181036000830152614107816140cb565b9050919050565b7f53656d6170686f72653a206e756c6c696669657220616c72656164792073656560008201527f6e00000000000000000000000000000000000000000000000000000000000000602082015250565b600061416a60218361406b565b91506141758261410e565b604082019050919050565b600060208201905081810360008301526141998161415d565b9050919050565b7f53656d6170686f72653a2065787465726e616c206e756c6c6966696572206e6f60008201527f7420666f756e6400000000000000000000000000000000000000000000000000602082015250565b60006141fc60278361406b565b9150614207826141a0565b604082019050919050565b6000602082019050818103600083015261422b816141ef565b9050919050565b7f53656d6170686f72653a20746865206e756c6c6966696572732068617368206d60008201527f757374206265206c742074686520736e61726b207363616c6172206669656c64602082015250565b600061428e60408361406b565b915061429982614232565b604082019050919050565b600060208201905081810360008301526142bd81614281565b9050919050565b7f53656d6170686f72653a2065787465726e616c206e756c6c696669657220616c60008201527f7265616479206465616374697661746564000000000000000000000000000000602082015250565b600061432060318361406b565b915061432b826142c4565b604082019050919050565b6000602082019050818103600083015261434f81614313565b9050919050565b7f4e487b7100000000000000000000000000000000000000000000000000000000600052603260045260246000fd5b7f76657269666965722d61582d6774652d7072696d652d71000000000000000000600082015250565b60006143bb60178361406b565b91506143c682614385565b602082019050919050565b600060208201905081810360008301526143ea816143ae565b9050919050565b7f76657269666965722d61592d6774652d7072696d652d71000000000000000000600082015250565b600061442760178361406b565b9150614432826143f1565b602082019050919050565b600060208201905081810360008301526144568161441a565b9050919050565b7f76657269666965722d6258302d6774652d7072696d652d710000000000000000600082015250565b600061449360188361406b565b915061449e8261445d565b602082019050919050565b600060208201905081810360008301526144c281614486565b9050919050565b7f76657269666965722d6259302d6774652d7072696d652d710000000000000000600082015250565b60006144ff60188361406b565b915061450a826144c9565b602082019050919050565b6000602082019050818103600083015261452e816144f2565b9050919050565b7f76657269666965722d6258312d6774652d7072696d652d710000000000000000600082015250565b600061456b60188361406b565b915061457682614535565b602082019050919050565b6000602082019050818103600083015261459a8161455e565b9050919050565b7f76657269666965722d6259312d6774652d7072696d652d710000000000000000600082015250565b60006145d760188361406b565b91506145e2826145a1565b602082019050919050565b60006020820190508181036000830152614606816145ca565b9050919050565b7f76657269666965722d63582d6774652d7072696d652d71000000000000000000600082015250565b600061464360178361406b565b915061464e8261460d565b602082019050919050565b6000602082019050818103600083015261467281614636565b9050919050565b7f76657269666965722d63592d6774652d7072696d652d71000000000000000000600082015250565b60006146af60178361406b565b91506146ba82614679565b602082019050919050565b600060208201905081810360008301526146de816146a2565b9050919050565b7f76657269666965722d6774652d736e61726b2d7363616c61722d6669656c6400600082015250565b600061471b601f8361406b565b9150614726826146e5565b602082019050919050565b6000602082019050818103600083015261474a8161470e565b9050919050565b7f4e487b7100000000000000000000000000000000000000000000000000000000600052601160045260246000fd5b600061478b826135c4565b9150614796836135c4565b9250827fffffffffffffffffffffffffffffffffffffffffffffffffffffffffffffffff038211156147cb576147ca614751565b5b828201905092915050565b60006147e1826135c4565b91507fffffffffffffffffffffffffffffffffffffffffffffffffffffffffffffffff82141561481457614813614751565b5b600182019050919050565b7f53656d6170686f72653a206964656e7469747920636f6d6d69746d656e74206360008201527f616e6e6f7420626520746865206e6f7468696e672d75702d6d792d736c65657660208201527f652d76616c756500000000000000000000000000000000000000000000000000604082015250565b60006148a160478361406b565b91506148ac8261481f565b606082019050919050565b600060208201905081810360008301526148d081614894565b9050919050565b7f4f776e61626c653a2063616c6c6572206973206e6f7420746865206f776e6572600082015250565b600061490d60208361406b565b9150614918826148d7565b602082019050919050565b6000602082019050818103600083015261493c81614900565b9050919050565b7f53656d6170686f72653a2065787465726e616c206e756c6c696669657220697360008201527f20616c7265616479206163746976650000000000000000000000000000000000602082015250565b600061499f602f8361406b565b91506149aa82614943565b604082019050919050565b600060208201905081810360008301526149ce81614992565b9050919050565b7f53656d6170686f72653a206e6f20737563682065787465726e616c206e756c6c60008201527f6966696572000000000000000000000000000000000000000000000000000000602082015250565b6000614a3160258361406b565b9150614a3c826149d5565b604082019050919050565b60006020820190508181036000830152614a6081614a24565b9050919050565b7f53656d6170686f72653a206e6f2065787465726e616c206e756c6c696669657260008201527f206578697374732061667465722074686520737065636966696564206f6e6500602082015250565b6000614ac3603f8361406b565b9150614ace82614a67565b604082019050919050565b60006020820190508181036000830152614af281614ab6565b9050919050565b7f53656d6170686f72653a2065787465726e616c206e756c6c696669657220616c60008201527f7265616479207365740000000000000000000000000000000000000000000000602082015250565b6000614b5560298361406b565b9150614b6082614af9565b604082019050919050565b60006020820190508181036000830152614b8481614b48565b9050919050565b7f4e487b7100000000000000000000000000000000000000000000000000000000600052601260045260246000fd5b6000614bc5826135c4565b9150614bd0836135c4565b925082614be057614bdf614b8b565b5b828206905092915050565b6000614bf6826135c4565b9150614c01836135c4565b925082821015614c1457614c13614751565b5b828203905092915050565b6000614c2a826135c4565b9150614c35836135c4565b9250817fffffffffffffffffffffffffffffffffffffffffffffffffffffffffffffffff0483118215151615614c6e57614c6d614751565b5b828202905092915050565b7f496e6372656d656e74616c4d65726b6c65547265653a20696e736572744c656160008201527f6620617267756d656e74206d757374206265203c20534e41524b5f5343414c4160208201527f525f4649454c4400000000000000000000000000000000000000000000000000604082015250565b6000614cfb60478361406b565b9150614d0682614c79565b606082019050919050565b60006020820190508181036000830152614d2a81614cee565b9050919050565b60008160011c9050919050565b6000808291508390505b6001851115614d8857808604811115614d6457614d63614751565b5b6001851615614d735780820291505b8081029050614d8185614d31565b9450614d48565b94509492505050565b600082614da15760019050614e5d565b81614daf5760009050614e5d565b8160018114614dc55760028114614dcf57614dfe565b6001915050614e5d565b60ff841115614de157614de0614751565b5b8360020a915084821115614df857614df7614751565b5b50614e5d565b5060208310610133831016604e8410600b8410161715614e335782820a905083811115614e2e57614e2d614751565b5b614e5d565b614e408484846001614d3e565b92509050818404811115614e5757614e56614751565b5b81810290505b9392505050565b6000614e6f826135c4565b9150614e7a836135c4565b9250614ea77fffffffffffffffffffffffffffffffffffffffffffffffffffffffffffffffff8484614d91565b905092915050565b7f496e6372656d656e74616c4d65726b6c65547265653a2074726565206973206660008201527f756c6c0000000000000000000000000000000000000000000000000000000000602082015250565b6000614f0b60238361406b565b9150614f1682614eaf565b604082019050919050565b60006020820190508181036000830152614f3a81614efe565b9050919050565b600060ff82169050919050565b6000614f5982614f41565b915060ff821415614f6d57614f6c614751565b5b600182019050919050565b7f4f776e61626c653a206e6577206f776e657220697320746865207a65726f206160008201527f6464726573730000000000000000000000000000000000000000000000000000602082015250565b6000614fd460268361406b565b9150614fdf82614f78565b604082019050919050565b6000602082019050818103600083015261500381614fc7565b9050919050565b615013816135c4565b82525050565b6000819050919050565b6000819050919050565b600061504861504361503e84615019565b615023565b6135c4565b9050919050565b6150588161502d565b82525050565b6000604082019050615073600083018561500a565b615080602083018461504f565b9392505050565b600081519050615096816135ce565b92915050565b600080604083850312156150b3576150b2613449565b5b60006150c185828601615087565b92505060206150d285828601615087565b9150509250929050565b60006040820190506150f1600083018561500a565b6150fe602083018461500a565b939250505056fea2646970667358221220b7c7e58053d7dca721c75beeffac7f82699146c7afd2f169f42d0c028e62628d64736f6c634300080a0033",
  "linkReferences": {
    "contracts/MiMC.sol": {
      "MiMC": [
        {
          "length": 20,
          "start": 897
        },
        {
          "length": 20,
          "start": 1087
        },
        {
          "length": 20,
          "start": 16161
        },
        {
          "length": 20,
          "start": 16343
        }
      ]
    }
  },
  "deployedLinkReferences": {
    "contracts/MiMC.sol": {
      "MiMC": [
        {
          "length": 20,
          "start": 12567
        },
        {
          "length": 20,
          "start": 12749
        }
      ]
    }
  }
}