{
  "_format": "hh-sol-artifact-1",
  "contractName": "PreferenceBallot",
  "sourceName": "contracts/ballot/PreferenceBallot.sol",
  "abi": [
    {
      "inputs": [
        {
          "internalType": "uint256",
          "name": "_candidate",
          "type": "uint256"
        }
      ],
      "name": "addCandidate",
      "outputs": [],
      "stateMutability": "nonpayable",
      "type": "function"
    },
    {
      "inputs": [],
      "name": "getCandidates",
      "outputs": [
        {
          "internalType": "uint256[]",
          "name": "",
          "type": "uint256[]"
        }
      ],
      "stateMutability": "view",
      "type": "function"
    },
    {
      "inputs": [
        {
          "internalType": "uint256",
          "name": "_candidate",
          "type": "uint256"
        },
        {
          "internalType": "uint256",
          "name": "_preference",
          "type": "uint256"
        }
      ],
      "name": "getVoteCount",
      "outputs": [
        {
          "internalType": "uint256",
          "name": "",
          "type": "uint256"
        }
      ],
      "stateMutability": "view",
      "type": "function"
    },
    {
      "inputs": [
        {
          "internalType": "address",
          "name": "_voter",
          "type": "address"
        }
      ],
      "name": "getVoteStatus",
      "outputs": [
        {
          "internalType": "bool",
          "name": "",
          "type": "bool"
        }
      ],
      "stateMutability": "view",
      "type": "function"
    },
    {
      "inputs": [
        {
          "internalType": "address",
          "name": "_voter",
          "type": "address"
        },
        {
          "internalType": "uint256",
          "name": "_candidate",
          "type": "uint256"
        },
        {
          "internalType": "uint256",
          "name": "_preference",
          "type": "uint256"
        }
      ],
      "name": "vote",
      "outputs": [],
      "stateMutability": "nonpayable",
      "type": "function"
    }
  ],
  "bytecode": "0x608060405234801561001057600080fd5b50610a9f806100206000396000f3fe608060405234801561001057600080fd5b50600436106100575760003560e01c806306a49fce1461005c5780632a4a1b731461007a578063521b0dcc14610096578063de2e19a0146100c6578063e844d097146100f6575b600080fd5b610064610112565b6040516100719190610645565b60405180910390f35b610094600480360381019061008f91906106f6565b61016a565b005b6100b060048036038101906100ab9190610749565b6104cc565b6040516100bd9190610791565b60405180910390f35b6100e060048036038101906100db91906107ac565b610522565b6040516100ed91906107fb565b60405180910390f35b610110600480360381019061010b9190610816565b610551565b005b6060600080548060200260200160405190810160405280929190818152602001828054801561016057602002820191906000526020600020905b81548152602001906001019080831161014c575b5050505050905090565b60001515600160008573ffffffffffffffffffffffffffffffffffffffff1673ffffffffffffffffffffffffffffffffffffffff16815260200190815260200160002060009054906101000a900460ff161515146101fd576040517f08c379a00000000000000000000000000000000000000000000000000000000081526004016101f4906108a0565b60405180910390fd5b60001515600360008573ffffffffffffffffffffffffffffffffffffffff1673ffffffffffffffffffffffffffffffffffffffff168152602001908152602001600020600084815260200190815260200160002060009054906101000a900460ff161515146102a1576040517f08c379a000000000000000000000000000000000000000000000000000000000815260040161029890610932565b60405180910390fd5b600080549050600460008573ffffffffffffffffffffffffffffffffffffffff1673ffffffffffffffffffffffffffffffffffffffff1681526020019081526020016000205410610327576040517f08c379a000000000000000000000000000000000000000000000000000000000815260040161031e906109c4565b60405180910390fd5b6001600260008381526020019081526020016000206000848152602001908152602001600020600082825461035c9190610a13565b925050819055506001600460008573ffffffffffffffffffffffffffffffffffffffff1673ffffffffffffffffffffffffffffffffffffffff16815260200190815260200160002060008282546103b39190610a13565b925050819055506001600360008573ffffffffffffffffffffffffffffffffffffffff1673ffffffffffffffffffffffffffffffffffffffff168152602001908152602001600020600084815260200190815260200160002060006101000a81548160ff021916908315150217905550600080549050600460008573ffffffffffffffffffffffffffffffffffffffff1673ffffffffffffffffffffffffffffffffffffffff1681526020019081526020016000205414156104c75760018060008573ffffffffffffffffffffffffffffffffffffffff1673ffffffffffffffffffffffffffffffffffffffff16815260200190815260200160002060006101000a81548160ff0219169083151502179055505b505050565b6000600160008373ffffffffffffffffffffffffffffffffffffffff1673ffffffffffffffffffffffffffffffffffffffff16815260200190815260200160002060009054906101000a900460ff169050919050565b600060026000838152602001908152602001600020600084815260200190815260200160002054905092915050565b600081908060018154018082558091505060019003906000526020600020016000909190919091505550565b600081519050919050565b600082825260208201905092915050565b6000819050602082019050919050565b6000819050919050565b6105bc816105a9565b82525050565b60006105ce83836105b3565b60208301905092915050565b6000602082019050919050565b60006105f28261057d565b6105fc8185610588565b935061060783610599565b8060005b8381101561063857815161061f88826105c2565b975061062a836105da565b92505060018101905061060b565b5085935050505092915050565b6000602082019050818103600083015261065f81846105e7565b905092915050565b600080fd5b600073ffffffffffffffffffffffffffffffffffffffff82169050919050565b60006106978261066c565b9050919050565b6106a78161068c565b81146106b257600080fd5b50565b6000813590506106c48161069e565b92915050565b6106d3816105a9565b81146106de57600080fd5b50565b6000813590506106f0816106ca565b92915050565b60008060006060848603121561070f5761070e610667565b5b600061071d868287016106b5565b935050602061072e868287016106e1565b925050604061073f868287016106e1565b9150509250925092565b60006020828403121561075f5761075e610667565b5b600061076d848285016106b5565b91505092915050565b60008115159050919050565b61078b81610776565b82525050565b60006020820190506107a66000830184610782565b92915050565b600080604083850312156107c3576107c2610667565b5b60006107d1858286016106e1565b92505060206107e2858286016106e1565b9150509250929050565b6107f5816105a9565b82525050565b600060208201905061081060008301846107ec565b92915050565b60006020828403121561082c5761082b610667565b5b600061083a848285016106e1565b91505092915050565b600082825260208201905092915050565b7f566f74657220616c726561647920766f74656400000000000000000000000000600082015250565b600061088a601383610843565b915061089582610854565b602082019050919050565b600060208201905081810360008301526108b98161087d565b9050919050565b7f566f74657220616c726561647920766f74656420666f7220746869732063616e60008201527f6469646174650000000000000000000000000000000000000000000000000000602082015250565b600061091c602683610843565b9150610927826108c0565b604082019050919050565b6000602082019050818103600083015261094b8161090f565b9050919050565b7f4d617820766f74657320616c72656164792063617374656420627920766f746560008201527f7200000000000000000000000000000000000000000000000000000000000000602082015250565b60006109ae602183610843565b91506109b982610952565b604082019050919050565b600060208201905081810360008301526109dd816109a1565b9050919050565b7f4e487b7100000000000000000000000000000000000000000000000000000000600052601160045260246000fd5b6000610a1e826105a9565b9150610a29836105a9565b9250827fffffffffffffffffffffffffffffffffffffffffffffffffffffffffffffffff03821115610a5e57610a5d6109e4565b5b82820190509291505056fea26469706673582212209e3304415631b6146a62a5e046f5d5409e1df53cb9c9e611a1ea69133b25b6e064736f6c63430008090033",
  "linkReferences": {},
  "deployedLinkReferences": {}
}