{
  "_format": "hh-sol-artifact-1",
  "contractName": "BrightID",
  "sourceName": "contracts/BrightID.sol",
  "abi": [
    {
      "inputs": [],
      "name": "getVerifiers",
      "outputs": [
        {
          "internalType": "address[]",
          "name": "",
          "type": "address[]"
        }
      ],
      "stateMutability": "view",
      "type": "function"
    },
    {
      "inputs": [
        {
          "internalType": "uint256",
          "name": "",
          "type": "uint256"
        }
      ],
      "name": "verifiedUsers",
      "outputs": [
        {
          "internalType": "address",
          "name": "",
          "type": "address"
        }
      ],
      "stateMutability": "view",
      "type": "function"
    },
    {
      "inputs": [
        {
          "internalType": "address[]",
          "name": "addrs",
          "type": "address[]"
        },
        {
          "internalType": "uint256",
          "name": "timestamp",
          "type": "uint256"
        },
        {
          "internalType": "uint8",
          "name": "v",
          "type": "uint8"
        },
        {
          "internalType": "bytes32",
          "name": "r",
          "type": "bytes32"
        },
        {
          "internalType": "bytes32",
          "name": "s",
          "type": "bytes32"
        }
      ],
      "name": "verify",
      "outputs": [],
      "stateMutability": "nonpayable",
      "type": "function"
    }
  ],
  "bytecode": "0x60806040527f736e617073686f7400000000000000000000000000000000000000000000000060015573b1d71f62bee34e9fc349234c201090c33bcdf6db600260006101000a81548173ffffffffffffffffffffffffffffffffffffffff021916908373ffffffffffffffffffffffffffffffffffffffff16021790555034801561008957600080fd5b506109a6806100996000396000f3fe608060405234801561001057600080fd5b50600436106100415760003560e01c80630213c0c51461004657806307763ec314610062578063a935e76614610092575b600080fd5b610060600480360381019061005b9190610588565b6100b0565b005b61007c6004803603810190610077919061061f565b61024b565b604051610089919061065b565b60405180910390f35b61009a61028a565b6040516100a79190610734565b60405180910390f35b600060015486866040516020016100c993929190610828565b604051602081830303815290604052805190602001209050600060018286868660405160008152602001604052604051610106949392919061087f565b6020604051602081039080840390855afa158015610128573d6000803e3d6000fd5b505050602060405103519050600260009054906101000a900473ffffffffffffffffffffffffffffffffffffffff1673ffffffffffffffffffffffffffffffffffffffff168173ffffffffffffffffffffffffffffffffffffffff16146101c4576040517f08c379a00000000000000000000000000000000000000000000000000000000081526004016101bb90610921565b60405180910390fd5b6000876000815181106101da576101d9610941565b5b60200260200101519080600181540180825580915050600190039060005260206000200160009091909190916101000a81548173ffffffffffffffffffffffffffffffffffffffff021916908373ffffffffffffffffffffffffffffffffffffffff16021790555050505050505050565b6000818154811061025b57600080fd5b906000526020600020016000915054906101000a900473ffffffffffffffffffffffffffffffffffffffff1681565b6060600080548060200260200160405190810160405280929190818152602001828054801561030e57602002820191906000526020600020905b8160009054906101000a900473ffffffffffffffffffffffffffffffffffffffff1673ffffffffffffffffffffffffffffffffffffffff16815260200190600101908083116102c4575b5050505050905090565b6000604051905090565b600080fd5b600080fd5b600080fd5b6000601f19601f8301169050919050565b7f4e487b7100000000000000000000000000000000000000000000000000000000600052604160045260246000fd5b61037a82610331565b810181811067ffffffffffffffff8211171561039957610398610342565b5b80604052505050565b60006103ac610318565b90506103b88282610371565b919050565b600067ffffffffffffffff8211156103d8576103d7610342565b5b602082029050602081019050919050565b600080fd5b600073ffffffffffffffffffffffffffffffffffffffff82169050919050565b6000610419826103ee565b9050919050565b6104298161040e565b811461043457600080fd5b50565b60008135905061044681610420565b92915050565b600061045f61045a846103bd565b6103a2565b90508083825260208201905060208402830185811115610482576104816103e9565b5b835b818110156104ab57806104978882610437565b845260208401935050602081019050610484565b5050509392505050565b600082601f8301126104ca576104c961032c565b5b81356104da84826020860161044c565b91505092915050565b6000819050919050565b6104f6816104e3565b811461050157600080fd5b50565b600081359050610513816104ed565b92915050565b600060ff82169050919050565b61052f81610519565b811461053a57600080fd5b50565b60008135905061054c81610526565b92915050565b6000819050919050565b61056581610552565b811461057057600080fd5b50565b6000813590506105828161055c565b92915050565b600080600080600060a086880312156105a4576105a3610322565b5b600086013567ffffffffffffffff8111156105c2576105c1610327565b5b6105ce888289016104b5565b95505060206105df88828901610504565b94505060406105f08882890161053d565b935050606061060188828901610573565b925050608061061288828901610573565b9150509295509295909350565b60006020828403121561063557610634610322565b5b600061064384828501610504565b91505092915050565b6106558161040e565b82525050565b6000602082019050610670600083018461064c565b92915050565b600081519050919050565b600082825260208201905092915050565b6000819050602082019050919050565b6106ab8161040e565b82525050565b60006106bd83836106a2565b60208301905092915050565b6000602082019050919050565b60006106e182610676565b6106eb8185610681565b93506106f683610692565b8060005b8381101561072757815161070e88826106b1565b9750610719836106c9565b9250506001810190506106fa565b5085935050505092915050565b6000602082019050818103600083015261074e81846106d6565b905092915050565b6000819050919050565b61077161076c82610552565b610756565b82525050565b600081905092915050565b61078b8161040e565b82525050565b600061079d8383610782565b60208301905092915050565b60006107b482610676565b6107be8185610777565b93506107c983610692565b8060005b838110156107fa5781516107e18882610791565b97506107ec836106c9565b9250506001810190506107cd565b5085935050505092915050565b6000819050919050565b61082261081d826104e3565b610807565b82525050565b60006108348286610760565b60208201915061084482856107a9565b91506108508284610811565b602082019150819050949350505050565b61086a81610552565b82525050565b61087981610519565b82525050565b60006080820190506108946000830187610861565b6108a16020830186610870565b6108ae6040830185610861565b6108bb6060830184610861565b95945050505050565b600082825260208201905092915050565b7f4e6f7420617574686f72697a6564000000000000000000000000000000000000600082015250565b600061090b600e836108c4565b9150610916826108d5565b602082019050919050565b6000602082019050818103600083015261093a816108fe565b9050919050565b7f4e487b7100000000000000000000000000000000000000000000000000000000600052603260045260246000fdfea2646970667358221220fd243693a7e14dabe1677b26afaf9ad1f06ac5aebb6011623a6058b823fc739664736f6c634300080a0033",
  "linkReferences": {},
  "deployedLinkReferences": {}
}