{
  "_format": "hh-sol-artifact-1",
  "contractName": "KemenyYoungResult",
  "sourceName": "contracts/resultCalculators/KemenyYoungResult.sol",
  "abi": [
    {
      "inputs": [],
      "name": "CandidatesTie",
      "type": "error"
    },
    {
      "inputs": [],
      "name": "NoCandidates",
      "type": "error"
    },
    {
      "inputs": [],
      "name": "NoWinner",
      "type": "error"
    },
    {
      "inputs": [],
      "name": "VotesExhausted",
      "type": "error"
    },
    {
      "inputs": [
        {
          "internalType": "bytes",
          "name": "returnData",
          "type": "bytes"
        }
      ],
      "name": "calculateKemenyYoungResult",
      "outputs": [
        {
          "internalType": "uint256",
          "name": "",
          "type": "uint256"
        }
      ],
      "stateMutability": "pure",
      "type": "function"
    }
  ],
  "bytecode": "0x608060405234801561001057600080fd5b50610a14806100206000396000f3fe608060405234801561001057600080fd5b506004361061002b5760003560e01c8063d517599014610030575b600080fd5b61004a60048036038101906100459190610669565b610060565b60405161005791906106cb565b60405180910390f35b6000808280602001905181019061007791906108bb565b9050600061008482610090565b90508092505050919050565b60008082519050600081036100d1576040517fe504190400000000000000000000000000000000000000000000000000000000815260040160405180910390fd5b60008167ffffffffffffffff8111156100ed576100ec61053e565b5b60405190808252806020026020018201604052801561012057816020015b606081526020019060019003908161010b5790505b50905060005b828110156102db578267ffffffffffffffff8111156101485761014761053e565b5b6040519080825280602002602001820160405280156101765781602001602082028036833780820191505090505b5082828151811061018a57610189610904565b5b602002602001018190525060005b838110156102cd578082146102c0578581815181106101ba576101b9610904565b5b602002602001015182815181106101d4576101d3610904565b5b60200260200101518683815181106101ef576101ee610904565b5b6020026020010151828151811061020957610208610904565b5b6020026020010151116102505785818151811061022957610228610904565b5b6020026020010151828151811061024357610242610904565b5b6020026020010151610286565b85828151811061026357610262610904565b5b6020026020010151818151811061027d5761027c610904565b5b60200260200101515b83838151811061029957610298610904565b5b602002602001015182815181106102b3576102b2610904565b5b6020026020010181815250505b8080600101915050610198565b508080600101915050610126565b5060008267ffffffffffffffff8111156102f8576102f761053e565b5b6040519080825280602002602001820160405280156103265781602001602082028036833780820191505090505b5090506000805b848110156104a15760008567ffffffffffffffff8111156103515761035061053e565b5b60405190808252806020026020018201604052801561037f5781602001602082028036833780820191505090505b5090506000805b8781101561048257808414610475578681815181106103a8576103a7610904565b5b602002602001015184815181106103c2576103c1610904565b5b60200260200101518785815181106103dd576103dc610904565b5b602002602001015182815181106103f7576103f6610904565b5b602002602001015111156104745782848151811061041857610417610904565b5b60200260200101805180919061042d90610962565b8152505086848151811061044457610443610904565b5b6020026020010151818151811061045e5761045d610904565b5b60200260200101518261047191906109aa565b91505b5b8080600101915050610386565b5083811115610492578093508194505b5050808060010191505061032d565b5060008060005b8681101561050057818582815181106104c4576104c3610904565b5b602002602001015111156104f3578481815181106104e5576104e4610904565b5b602002602001015191508092505b80806001019150506104a8565b50819650505050505050919050565b6000604051905090565b600080fd5b600080fd5b600080fd5b600080fd5b6000601f19601f8301169050919050565b7f4e487b7100000000000000000000000000000000000000000000000000000000600052604160045260246000fd5b6105768261052d565b810181811067ffffffffffffffff821117156105955761059461053e565b5b80604052505050565b60006105a861050f565b90506105b4828261056d565b919050565b600067ffffffffffffffff8211156105d4576105d361053e565b5b6105dd8261052d565b9050602081019050919050565b82818337600083830152505050565b600061060c610607846105b9565b61059e565b90508281526020810184848401111561062857610627610528565b5b6106338482856105ea565b509392505050565b600082601f8301126106505761064f610523565b5b81356106608482602086016105f9565b91505092915050565b60006020828403121561067f5761067e610519565b5b600082013567ffffffffffffffff81111561069d5761069c61051e565b5b6106a98482850161063b565b91505092915050565b6000819050919050565b6106c5816106b2565b82525050565b60006020820190506106e060008301846106bc565b92915050565b600067ffffffffffffffff8211156107015761070061053e565b5b602082029050602081019050919050565b600080fd5b600067ffffffffffffffff8211156107325761073161053e565b5b602082029050602081019050919050565b61074c816106b2565b811461075757600080fd5b50565b60008151905061076981610743565b92915050565b600061078261077d84610717565b61059e565b905080838252602082019050602084028301858111156107a5576107a4610712565b5b835b818110156107ce57806107ba888261075a565b8452602084019350506020810190506107a7565b5050509392505050565b600082601f8301126107ed576107ec610523565b5b81516107fd84826020860161076f565b91505092915050565b6000610819610814846106e6565b61059e565b9050808382526020820190506020840283018581111561083c5761083b610712565b5b835b8181101561088357805167ffffffffffffffff81111561086157610860610523565b5b80860161086e89826107d8565b8552602085019450505060208101905061083e565b5050509392505050565b600082601f8301126108a2576108a1610523565b5b81516108b2848260208601610806565b91505092915050565b6000602082840312156108d1576108d0610519565b5b600082015167ffffffffffffffff8111156108ef576108ee61051e565b5b6108fb8482850161088d565b91505092915050565b7f4e487b7100000000000000000000000000000000000000000000000000000000600052603260045260246000fd5b7f4e487b7100000000000000000000000000000000000000000000000000000000600052601160045260246000fd5b600061096d826106b2565b91507fffffffffffffffffffffffffffffffffffffffffffffffffffffffffffffffff820361099f5761099e610933565b5b600182019050919050565b60006109b5826106b2565b91506109c0836106b2565b92508282019050808211156109d8576109d7610933565b5b9291505056fea26469706673582212205a2ad361dc2393b6be617caab15789866eebbd39b7ccdbd3569cdff2a5e67f3764736f6c63430008180033",
  "linkReferences": {},
  "deployedLinkReferences": {}
}