{
  "_format": "hh-sol-artifact-1",
  "contractName": "Election",
  "sourceName": "contracts/Election.sol",
  "abi": [
    {
      "inputs": [
        {
          "components": [
            {
              "internalType": "uint256",
              "name": "electionID",
              "type": "uint256"
            },
            {
              "internalType": "string",
              "name": "name",
              "type": "string"
            },
            {
              "internalType": "string",
              "name": "description",
              "type": "string"
            },
            {
              "internalType": "uint256",
              "name": "startDate",
              "type": "uint256"
            },
            {
              "internalType": "uint256",
              "name": "endDate",
              "type": "uint256"
            }
          ],
          "internalType": "struct Election.ElectionInfo",
          "name": "_electionInfo",
          "type": "tuple"
        },
        {
          "internalType": "contract Ballot",
          "name": "_ballot",
          "type": "address"
        },
        {
          "internalType": "contract ResultCalculator",
          "name": "_resultCalculator",
          "type": "address"
        },
        {
          "internalType": "address",
          "name": "_electionOrganizer",
          "type": "address"
        },
        {
          "internalType": "address",
          "name": "_electionOrganizerContract",
          "type": "address"
        },
        {
          "internalType": "uint256",
          "name": "_ballotType",
          "type": "uint256"
        }
      ],
      "stateMutability": "nonpayable",
      "type": "constructor"
    },
    {
      "anonymous": false,
      "inputs": [
        {
          "indexed": false,
          "internalType": "address",
          "name": "election",
          "type": "address"
        },
        {
          "indexed": false,
          "internalType": "address",
          "name": "ballot",
          "type": "address"
        },
        {
          "components": [
            {
              "internalType": "uint256",
              "name": "candidateID",
              "type": "uint256"
            },
            {
              "internalType": "string",
              "name": "name",
              "type": "string"
            },
            {
              "internalType": "string",
              "name": "description",
              "type": "string"
            }
          ],
          "indexed": false,
          "internalType": "struct Election.Candidate",
          "name": "candidate",
          "type": "tuple"
        }
      ],
      "name": "CandidateAdded",
      "type": "event"
    },
    {
      "anonymous": false,
      "inputs": [
        {
          "indexed": false,
          "internalType": "uint256[]",
          "name": "winners",
          "type": "uint256[]"
        }
      ],
      "name": "ListWinners",
      "type": "event"
    },
    {
      "anonymous": false,
      "inputs": [
        {
          "indexed": false,
          "internalType": "address",
          "name": "ballot",
          "type": "address"
        },
        {
          "components": [
            {
              "internalType": "uint256",
              "name": "candidateID",
              "type": "uint256"
            },
            {
              "internalType": "string",
              "name": "name",
              "type": "string"
            },
            {
              "internalType": "string",
              "name": "description",
              "type": "string"
            }
          ],
          "indexed": false,
          "internalType": "struct Election.Candidate",
          "name": "candidate",
          "type": "tuple"
        },
        {
          "indexed": false,
          "internalType": "uint256",
          "name": "weight",
          "type": "uint256"
        }
      ],
      "name": "VoteCasted",
      "type": "event"
    },
    {
      "inputs": [
        {
          "components": [
            {
              "internalType": "uint256",
              "name": "candidateID",
              "type": "uint256"
            },
            {
              "internalType": "string",
              "name": "name",
              "type": "string"
            },
            {
              "internalType": "string",
              "name": "description",
              "type": "string"
            }
          ],
          "internalType": "struct Election.Candidate",
          "name": "_candidate",
          "type": "tuple"
        }
      ],
      "name": "addCandidate",
      "outputs": [],
      "stateMutability": "nonpayable",
      "type": "function"
    },
    {
      "inputs": [],
      "name": "getBallot",
      "outputs": [
        {
          "internalType": "address",
          "name": "",
          "type": "address"
        }
      ],
      "stateMutability": "view",
      "type": "function"
    },
    {
      "inputs": [],
      "name": "getBallotType",
      "outputs": [
        {
          "internalType": "uint256",
          "name": "",
          "type": "uint256"
        }
      ],
      "stateMutability": "view",
      "type": "function"
    },
    {
      "inputs": [
        {
          "internalType": "uint256",
          "name": "_candidateID",
          "type": "uint256"
        }
      ],
      "name": "getCandidateByID",
      "outputs": [
        {
          "components": [
            {
              "internalType": "uint256",
              "name": "candidateID",
              "type": "uint256"
            },
            {
              "internalType": "string",
              "name": "name",
              "type": "string"
            },
            {
              "internalType": "string",
              "name": "description",
              "type": "string"
            }
          ],
          "internalType": "struct Election.Candidate",
          "name": "",
          "type": "tuple"
        }
      ],
      "stateMutability": "view",
      "type": "function"
    },
    {
      "inputs": [],
      "name": "getCandidateCount",
      "outputs": [
        {
          "internalType": "uint256",
          "name": "",
          "type": "uint256"
        }
      ],
      "stateMutability": "view",
      "type": "function"
    },
    {
      "inputs": [],
      "name": "getCandidates",
      "outputs": [
        {
          "components": [
            {
              "internalType": "uint256",
              "name": "candidateID",
              "type": "uint256"
            },
            {
              "internalType": "string",
              "name": "name",
              "type": "string"
            },
            {
              "internalType": "string",
              "name": "description",
              "type": "string"
            }
          ],
          "internalType": "struct Election.Candidate[]",
          "name": "",
          "type": "tuple[]"
        }
      ],
      "stateMutability": "view",
      "type": "function"
    },
    {
      "inputs": [],
      "name": "getElectionInfo",
      "outputs": [
        {
          "components": [
            {
              "internalType": "uint256",
              "name": "electionID",
              "type": "uint256"
            },
            {
              "internalType": "string",
              "name": "name",
              "type": "string"
            },
            {
              "internalType": "string",
              "name": "description",
              "type": "string"
            },
            {
              "internalType": "uint256",
              "name": "startDate",
              "type": "uint256"
            },
            {
              "internalType": "uint256",
              "name": "endDate",
              "type": "uint256"
            }
          ],
          "internalType": "struct Election.ElectionInfo",
          "name": "",
          "type": "tuple"
        }
      ],
      "stateMutability": "view",
      "type": "function"
    },
    {
      "inputs": [],
      "name": "getElectionOrganizer",
      "outputs": [
        {
          "internalType": "address",
          "name": "",
          "type": "address"
        }
      ],
      "stateMutability": "view",
      "type": "function"
    },
    {
      "inputs": [],
      "name": "getResult",
      "outputs": [
        {
          "internalType": "uint256[]",
          "name": "",
          "type": "uint256[]"
        }
      ],
      "stateMutability": "nonpayable",
      "type": "function"
    },
    {
      "inputs": [],
      "name": "getResultCalculator",
      "outputs": [
        {
          "internalType": "address",
          "name": "",
          "type": "address"
        }
      ],
      "stateMutability": "view",
      "type": "function"
    },
    {
      "inputs": [],
      "name": "getStatus",
      "outputs": [
        {
          "internalType": "enum Election.Status",
          "name": "",
          "type": "uint8"
        }
      ],
      "stateMutability": "view",
      "type": "function"
    },
    {
      "inputs": [
        {
          "internalType": "address",
          "name": "_voter",
          "type": "address"
        }
      ],
      "name": "getVoteStatus",
      "outputs": [
        {
          "internalType": "bool",
          "name": "",
          "type": "bool"
        }
      ],
      "stateMutability": "view",
      "type": "function"
    },
    {
      "inputs": [],
      "name": "getVoterCount",
      "outputs": [
        {
          "internalType": "uint256",
          "name": "",
          "type": "uint256"
        }
      ],
      "stateMutability": "view",
      "type": "function"
    },
    {
      "inputs": [],
      "name": "getWinners",
      "outputs": [
        {
          "internalType": "uint256[]",
          "name": "",
          "type": "uint256[]"
        }
      ],
      "stateMutability": "view",
      "type": "function"
    },
    {
      "inputs": [
        {
          "internalType": "address",
          "name": "_voter",
          "type": "address"
        },
        {
          "internalType": "uint256",
          "name": "_candidateID",
          "type": "uint256"
        },
        {
          "internalType": "uint256",
          "name": "weight",
          "type": "uint256"
        },
        {
          "internalType": "uint256[]",
          "name": "voteArr",
          "type": "uint256[]"
        }
      ],
      "name": "vote",
      "outputs": [],
      "stateMutability": "nonpayable",
      "type": "function"
    }
  ],
  "bytecode": "0x60806040523480156200001157600080fd5b5060405162001b7d38038062001b7d8339810160408190526200003491620002e0565b600980546001600160a01b038086166001600160a01b031992831617909255600a805492851692909116919091179055855160009081556020808801518051899392620000879260019291019062000114565b5060408201518051620000a591600284019160209091019062000114565b5060608201516003820155608090910151600490910155600d8054600e80546001600160a01b0319166001600160a01b039788161790556103e86008556000600b556001600160a81b031916610100969095169590950260ff19169390931790935550600c55506200042b9050565b8280546200012290620003ee565b90600052602060002090601f01602090048101928262000146576000855562000191565b82601f106200016157805160ff191683800117855562000191565b8280016001018555821562000191579182015b828111156200019157825182559160200191906001019062000174565b506200019f929150620001a3565b5090565b5b808211156200019f5760008155600101620001a4565b634e487b7160e01b600052604160045260246000fd5b60405160a081016001600160401b0381118282101715620001f557620001f5620001ba565b60405290565b604051601f8201601f191681016001600160401b0381118282101715620002265762000226620001ba565b604052919050565b600082601f8301126200024057600080fd5b81516001600160401b038111156200025c576200025c620001ba565b602062000272601f8301601f19168201620001fb565b82815285828487010111156200028757600080fd5b60005b83811015620002a75785810183015182820184015282016200028a565b83811115620002b95760008385840101525b5095945050505050565b80516001600160a01b0381168114620002db57600080fd5b919050565b60008060008060008060c08789031215620002fa57600080fd5b86516001600160401b03808211156200031257600080fd5b9088019060a0828b0312156200032757600080fd5b62000331620001d0565b825181526020830151828111156200034857600080fd5b620003568c8286016200022e565b6020830152506040830151828111156200036f57600080fd5b6200037d8c8286016200022e565b6040830152506060830151606082015260808301516080820152809850505050620003ab60208801620002c3565b9450620003bb60408801620002c3565b9350620003cb60608801620002c3565b9250620003db60808801620002c3565b915060a087015190509295509295509295565b600181811c908216806200040357607f821691505b602082108114156200042557634e487b7160e01b600052602260045260246000fd5b50919050565b611742806200043b6000396000f3fe608060405234801561001057600080fd5b50600436106100f55760003560e01c8063521b0dcc11610097578063a1818ac411610066578063a1818ac4146101e4578063de292789146101f7578063df15c37e1461020c578063e04b1c0c1461021457600080fd5b8063521b0dcc1461018457806382202396146101a757806386852dca146101c75780639baec8b9146101dc57600080fd5b8063273ffe86116100d3578063273ffe861461013257806330a563471461014757806337349a7d1461014f5780634e69d5601461016f57600080fd5b806306a49fce146100fa57806311174a29146101185780631ca577141461012a575b600080fd5b610102610225565b60405161010f9190610fe8565b60405180910390f35b600b545b60405190815260200161010f565b600c5461011c565b610145610140366004611101565b6103b2565b005b60085461011c565b610157610677565b6040516001600160a01b03909116815260200161010f565b6101776106b4565b60405161010f91906111c8565b61019761019236600461120c565b6106dd565b604051901515815260200161010f565b6101ba6101b536600461122e565b610766565b60405161010f9190611247565b6101cf6108dd565b60405161010f919061125a565b610157610a60565b6101456101f23660046112e2565b610aa2565b6101ff610bf8565b60405161010f91906113d7565b6101ff610dd9565b6009546001600160a01b0316610157565b60606005805480602002602001604051908101604052809291908181526020016000905b828210156103a9578382906000526020600020906003020160405180606001604052908160008201548152602001600182018054610286906113ea565b80601f01602080910402602001604051908101604052809291908181526020018280546102b2906113ea565b80156102ff5780601f106102d4576101008083540402835291602001916102ff565b820191906000526020600020905b8154815290600101906020018083116102e257829003601f168201915b50505050508152602001600282018054610318906113ea565b80601f0160208091040260200160405190810160405280929190818152602001828054610344906113ea565b80156103915780601f1061036657610100808354040283529160200191610391565b820191906000526020600020905b81548152906001019060200180831161037457829003601f168201915b50505050508152505081526020019060010190610249565b50505050905090565b600a546001600160a01b0316331461042d5760405162461bcd60e51b815260206004820152603360248201527f4d7573742062652063616c6c65642066726f6d2074686520656c656374696f6e604482015272081bdc99d85b9a5e995c8818dbdb9d1c9858dd606a1b60648201526084015b60405180910390fd5b60016104376106b4565b6002811115610448576104486111b2565b146104ae5760405162461bcd60e51b815260206004820152603060248201527f43616e6e6f74206164642063616e6469646174657320616674657220656c656360448201526f1d1a5bdb881a185cc81cdd185c9d195960821b6064820152608401610424565b600060085460016104bf919061143b565b80835260058054600181018255600091909152835160039091027f036b6384b5eca791c62761152d0c79bb0604c104a5fb6f4eb0703f3154bb3db081019182556020808601518051949550869461053d937f036b6384b5eca791c62761152d0c79bb0604c104a5fb6f4eb0703f3154bb3db101929190910190610e87565b5060408201518051610559916002840191602090910190610e87565b5050600d54835160405163e844d09760e01b815260048101919091526101009091046001600160a01b0316915063e844d09790602401600060405180830381600087803b1580156105a957600080fd5b505af11580156105bd573d6000803e3d6000fd5b505083516000908152600760209081526040909120855181558186015180518795509193506105f3926001850192910190610e87565b506040820151805161060f916002840191602090910190610e87565b5050600880549150600061062283611453565b9091555050600d546040517f4d9dd414a40890e16b7bd0ea98bdf9d5b55c3d20cfe4b18febda0d60fb32a60c9161066b91309161010090046001600160a01b031690869061146e565b60405180910390a15050565b6009546000906001600160a01b031633146106a45760405162461bcd60e51b81526004016104249061149a565b50600e546001600160a01b031690565b6003546000904210156106c75750600190565b6004544210156106d75750600090565b50600290565b600d54604051631486c37360e21b81526001600160a01b0383811660048301526000926101009004169063521b0dcc9060240160206040518083038186803b15801561072857600080fd5b505afa15801561073c573d6000803e3d6000fd5b505050506040513d601f19601f8201168201806040525081019061076091906114df565b92915050565b61078a60405180606001604052806000815260200160608152602001606081525090565b60076000838152602001908152602001600020604051806060016040529081600082015481526020016001820180546107c2906113ea565b80601f01602080910402602001604051908101604052809291908181526020018280546107ee906113ea565b801561083b5780601f106108105761010080835404028352916020019161083b565b820191906000526020600020905b81548152906001019060200180831161081e57829003601f168201915b50505050508152602001600282018054610854906113ea565b80601f0160208091040260200160405190810160405280929190818152602001828054610880906113ea565b80156108cd5780601f106108a2576101008083540402835291602001916108cd565b820191906000526020600020905b8154815290600101906020018083116108b057829003601f168201915b5050505050815250509050919050565b61090f6040518060a0016040528060008152602001606081526020016060815260200160008152602001600081525090565b6040805160a0810190915260008054825260018054602084019190610933906113ea565b80601f016020809104026020016040519081016040528092919081815260200182805461095f906113ea565b80156109ac5780601f10610981576101008083540402835291602001916109ac565b820191906000526020600020905b81548152906001019060200180831161098f57829003601f168201915b505050505081526020016002820180546109c5906113ea565b80601f01602080910402602001604051908101604052809291908181526020018280546109f1906113ea565b8015610a3e5780601f10610a1357610100808354040283529160200191610a3e565b820191906000526020600020905b815481529060010190602001808311610a2157829003601f168201915b5050505050815260200160038201548152602001600482015481525050905090565b6009546000906001600160a01b03163314610a8d5760405162461bcd60e51b81526004016104249061149a565b50600d5461010090046001600160a01b031690565b6000610aac6106b4565b6002811115610abd57610abd6111b2565b14610b165760405162461bcd60e51b815260206004820152602360248201527f456c656374696f6e206e6565647320746f2062652061637469766520746f20766044820152626f746560e81b6064820152608401610424565b600d5460405163286062b160e21b81526101009091046001600160a01b03169063a1818ac490610b50908790879087908790600401611501565b600060405180830381600087803b158015610b6a57600080fd5b505af1158015610b7e573d6000803e3d6000fd5b5050600b8054925090506000610b9383611453565b9091555050600d546000848152600760205260409081902090517fd589db416dab4dff131e94610b2d02ce215ded85a2943a2ea59acd2153a8518292610bea926101009091046001600160a01b03169186906115d8565b60405180910390a150505050565b60606002610c046106b4565b6002811115610c1557610c156111b2565b14610c7c5760405162461bcd60e51b815260206004820152603160248201527f526573756c747320617265206465636c61726564206f6e6c792061667465722060448201527074686520656c656374696f6e20656e647360781b6064820152608401610424565b600d5460ff16610dcc57600e54600d54600b54604051630641a25160e51b81526001600160a01b0361010090930483166004820152602481019190915291169063c8344a2090604401600060405180830381600087803b158015610cdf57600080fd5b505af1158015610cf3573d6000803e3d6000fd5b505050506040513d6000823e601f3d908101601f19168201604052610d1b9190810190611634565b8051610d2f91600691602090910190610f0b565b50600d805460ff191660011790556040517f28e5f582afeee46fd13ea548ad814f45b1d4a5159990336d5e66deb48a960e4c90610d6e906006906116c5565b60405180910390a16006805480602002602001604051908101604052809291908181526020018280548015610dc257602002820191906000526020600020905b815481526020019060010190808311610dae575b5050505050905090565b610dd4610dd9565b905090565b600d5460609060ff161515600114610e335760405162461bcd60e51b815260206004820152601b60248201527f526573756c7473206172656e2774206465636c617265642079657400000000006044820152606401610424565b6006805480602002602001604051908101604052809291908181526020018280548015610dc25760200282019190600052602060002090815481526020019060010190808311610dae575050505050905090565b828054610e93906113ea565b90600052602060002090601f016020900481019282610eb55760008555610efb565b82601f10610ece57805160ff1916838001178555610efb565b82800160010185558215610efb579182015b82811115610efb578251825591602001919060010190610ee0565b50610f07929150610f45565b5090565b828054828255906000526020600020908101928215610efb5791602002820182811115610efb578251825591602001919060010190610ee0565b5b80821115610f075760008155600101610f46565b6000815180845260005b81811015610f8057602081850181015186830182015201610f64565b81811115610f92576000602083870101525b50601f01601f19169290920160200192915050565b805182526000602082015160606020850152610fc66060850182610f5a565b905060408301518482036040860152610fdf8282610f5a565b95945050505050565b6000602080830181845280855180835260408601915060408160051b870101925083870160005b8281101561103d57603f1988860301845261102b858351610fa7565b9450928501929085019060010161100f565b5092979650505050505050565b634e487b7160e01b600052604160045260246000fd5b604051601f8201601f1916810167ffffffffffffffff811182821017156110895761108961104a565b604052919050565b600082601f8301126110a257600080fd5b813567ffffffffffffffff8111156110bc576110bc61104a565b6110cf601f8201601f1916602001611060565b8181528460208386010111156110e457600080fd5b816020850160208301376000918101602001919091529392505050565b60006020828403121561111357600080fd5b813567ffffffffffffffff8082111561112b57600080fd5b908301906060828603121561113f57600080fd5b60405160608101818110838211171561115a5761115a61104a565b6040528235815260208301358281111561117357600080fd5b61117f87828601611091565b60208301525060408301358281111561119757600080fd5b6111a387828601611091565b60408301525095945050505050565b634e487b7160e01b600052602160045260246000fd5b60208101600383106111ea57634e487b7160e01b600052602160045260246000fd5b91905290565b80356001600160a01b038116811461120757600080fd5b919050565b60006020828403121561121e57600080fd5b611227826111f0565b9392505050565b60006020828403121561124057600080fd5b5035919050565b6020815260006112276020830184610fa7565b60208152815160208201526000602083015160a0604084015261128060c0840182610f5a565b90506040840151601f1984830301606085015261129d8282610f5a565b91505060608401516080840152608084015160a08401528091505092915050565b600067ffffffffffffffff8211156112d8576112d861104a565b5060051b60200190565b600080600080608085870312156112f857600080fd5b611301856111f0565b9350602080860135935060408601359250606086013567ffffffffffffffff81111561132c57600080fd5b8601601f8101881361133d57600080fd5b803561135061134b826112be565b611060565b81815260059190911b8201830190838101908a83111561136f57600080fd5b928401925b8284101561138d57833582529284019290840190611374565b979a9699509497505050505050565b600081518084526020808501945080840160005b838110156113cc578151875295820195908201906001016113b0565b509495945050505050565b602081526000611227602083018461139c565b600181811c908216806113fe57607f821691505b6020821081141561141f57634e487b7160e01b600052602260045260246000fd5b50919050565b634e487b7160e01b600052601160045260246000fd5b6000821982111561144e5761144e611425565b500190565b600060001982141561146757611467611425565b5060010190565b6001600160a01b03848116825283166020820152606060408201819052600090610fdf90830184610fa7565b60208082526025908201527f43616c6c6572206d7573742062652074686520656c656374696f6e206f7267616040820152643734bd32b960d91b606082015260800190565b6000602082840312156114f157600080fd5b8151801515811461122757600080fd5b60018060a01b038516815283602082015282604082015260806060820152600061152e608083018461139c565b9695505050505050565b8054600090600181811c908083168061155257607f831692505b602080841082141561157457634e487b7160e01b600052602260045260246000fd5b8388526020880182801561158f57600181146115a0576115cb565b60ff198716825282820197506115cb565b60008981526020902060005b878110156115c5578154848201529086019084016115ac565b83019850505b5050505050505092915050565b6001600160a01b03841681526060602082018190528354818301526080820152600061160a60c0830160018601611538565b828103605f190160a08401526116238160028701611538565b915050826040830152949350505050565b6000602080838503121561164757600080fd5b825167ffffffffffffffff81111561165e57600080fd5b8301601f8101851361166f57600080fd5b805161167d61134b826112be565b81815260059190911b8201830190838101908783111561169c57600080fd5b928401925b828410156116ba578351825292840192908401906116a1565b979650505050505050565b6020808252825482820181905260008481528281209092916040850190845b81811015611700578354835260019384019392850192016116e4565b5090969550505050505056fea2646970667358221220d080dd2ebfc48bbc8f4467bedeab38b40b72b0e0636a77422a5f7a3eccfd6d5d64736f6c63430008090033",
  "linkReferences": {},
  "deployedLinkReferences": {}
}