{
  "_format": "hh-sol-artifact-1",
  "contractName": "Test1Facet",
  "sourceName": "contracts/facets/Test1Facet.sol",
  "abi": [
    {
      "inputs": [],
      "name": "getReqBallot",
      "outputs": [
        {
          "internalType": "contract Ballot",
          "name": "",
          "type": "address"
        }
      ],
      "stateMutability": "view",
      "type": "function"
    },
    {
      "inputs": [],
      "name": "getReqResult",
      "outputs": [
        {
          "internalType": "contract ResultCalculator",
          "name": "",
          "type": "address"
        }
      ],
      "stateMutability": "view",
      "type": "function"
    },
    {
      "inputs": [],
      "name": "setReqBallot",
      "outputs": [],
      "stateMutability": "nonpayable",
      "type": "function"
    },
    {
      "inputs": [],
      "name": "setReqResult",
      "outputs": [],
      "stateMutability": "nonpayable",
      "type": "function"
    },
    {
      "inputs": [],
      "name": "test1facetAddress",
      "outputs": [
        {
          "components": [
            {
              "internalType": "address",
              "name": "diamond",
              "type": "address"
            }
          ],
          "internalType": "struct LibDiamond.AddressStorage",
          "name": "",
          "type": "tuple"
        }
      ],
      "stateMutability": "pure",
      "type": "function"
    },
    {
      "inputs": [],
      "name": "test1facetelection",
      "outputs": [
        {
          "components": [
            {
              "internalType": "contract Ballot",
              "name": "ballot",
              "type": "address"
            },
            {
              "internalType": "contract ResultCalculator",
              "name": "resultCalculator",
              "type": "address"
            },
            {
              "internalType": "contract Election",
              "name": "election",
              "type": "address"
            }
          ],
          "internalType": "struct LibDiamond.ElectionStorage",
          "name": "",
          "type": "tuple"
        }
      ],
      "stateMutability": "pure",
      "type": "function"
    }
  ],
  "bytecode": "0x608060405234801561001057600080fd5b50610769806100206000396000f3fe608060405234801561001057600080fd5b50600436106100625760003560e01c80632b5d963a1461006757806346d429931461008557806360d6a325146100a357806365e5c206146100ad5780638d64898c146100b7578063d70ec4d0146100d5575b600080fd5b61006f6100f3565b60405161007c9190610588565b60405180910390f35b61008d610126565b60405161009a91906105e0565b60405180910390f35b6100ab61019c565b005b6100b5610235565b005b6100bf6102ce565b6040516100cc919061061c565b60405180910390f35b6100dd610301565b6040516100ea91906106b8565b60405180910390f35b60006100fd610423565b60000160009054906101000a900473ffffffffffffffffffffffffffffffffffffffff16905090565b61012e61047d565b610136610450565b6040518060200160405290816000820160009054906101000a900473ffffffffffffffffffffffffffffffffffffffff1673ffffffffffffffffffffffffffffffffffffffff1673ffffffffffffffffffffffffffffffffffffffff1681525050905090565b6101a4610450565b60000160009054906101000a900473ffffffffffffffffffffffffffffffffffffffff1673ffffffffffffffffffffffffffffffffffffffff16637878256260026040518263ffffffff1660e01b81526004016102019190610718565b600060405180830381600087803b15801561021b57600080fd5b505af115801561022f573d6000803e3d6000fd5b50505050565b61023d610450565b60000160009054906101000a900473ffffffffffffffffffffffffffffffffffffffff1673ffffffffffffffffffffffffffffffffffffffff1663a9dda9c760026040518263ffffffff1660e01b815260040161029a9190610718565b600060405180830381600087803b1580156102b457600080fd5b505af11580156102c8573d6000803e3d6000fd5b50505050565b60006102d8610423565b60010160009054906101000a900473ffffffffffffffffffffffffffffffffffffffff16905090565b6103096104a6565b610311610423565b6040518060600160405290816000820160009054906101000a900473ffffffffffffffffffffffffffffffffffffffff1673ffffffffffffffffffffffffffffffffffffffff1673ffffffffffffffffffffffffffffffffffffffff1681526020016001820160009054906101000a900473ffffffffffffffffffffffffffffffffffffffff1673ffffffffffffffffffffffffffffffffffffffff1673ffffffffffffffffffffffffffffffffffffffff1681526020016002820160009054906101000a900473ffffffffffffffffffffffffffffffffffffffff1673ffffffffffffffffffffffffffffffffffffffff1673ffffffffffffffffffffffffffffffffffffffff1681525050905090565b6000807f5b43f313088137496832405d64cc708765db93c8144d82f7a7f806ac22d5603b90508091505090565b6000807fc20038518297e76c0e27a913ab03e5d4fd92b2579d428cf3b89f8c71add2acef90508091505090565b6040518060200160405280600073ffffffffffffffffffffffffffffffffffffffff1681525090565b6040518060600160405280600073ffffffffffffffffffffffffffffffffffffffff168152602001600073ffffffffffffffffffffffffffffffffffffffff168152602001600073ffffffffffffffffffffffffffffffffffffffff1681525090565b600073ffffffffffffffffffffffffffffffffffffffff82169050919050565b6000819050919050565b600061054e61054961054484610509565b610529565b610509565b9050919050565b600061056082610533565b9050919050565b600061057282610555565b9050919050565b61058281610567565b82525050565b600060208201905061059d6000830184610579565b92915050565b60006105ae82610509565b9050919050565b6105be816105a3565b82525050565b6020820160008201516105da60008501826105b5565b50505050565b60006020820190506105f560008301846105c4565b92915050565b600061060682610555565b9050919050565b610616816105fb565b82525050565b6000602082019050610631600083018461060d565b92915050565b61064081610567565b82525050565b61064f816105fb565b82525050565b600061066082610555565b9050919050565b61067081610655565b82525050565b60608201600082015161068c6000850182610637565b50602082015161069f6020850182610646565b5060408201516106b26040850182610667565b50505050565b60006060820190506106cd6000830184610676565b92915050565b6000819050919050565b6000819050919050565b60006107026106fd6106f8846106d3565b610529565b6106dd565b9050919050565b610712816106e7565b82525050565b600060208201905061072d6000830184610709565b9291505056fea2646970667358221220a7e791ae270e6ac12e2052a754b8cb597b3d07dccfbc5d4718ef006e231732b564736f6c634300080a0033",
  "linkReferences": {},
  "deployedLinkReferences": {}
}