{
  "_format": "hh-sol-artifact-1",
  "contractName": "Test1Facet",
  "sourceName": "contracts/facets/Test1Facet.sol",
  "abi": [
    {
      "anonymous": false,
      "inputs": [
        {
          "indexed": false,
          "internalType": "address",
          "name": "something",
          "type": "address"
        }
      ],
      "name": "TestEvent",
      "type": "event"
    },
    {
      "inputs": [],
      "name": "getName",
      "outputs": [
        {
          "internalType": "string",
          "name": "",
          "type": "string"
        }
      ],
      "stateMutability": "view",
      "type": "function"
    },
    {
      "inputs": [],
      "name": "getNewFacet",
      "outputs": [
        {
          "internalType": "address",
          "name": "",
          "type": "address"
        }
      ],
      "stateMutability": "nonpayable",
      "type": "function"
    },
    {
      "inputs": [],
      "name": "getString",
      "outputs": [
        {
          "internalType": "string",
          "name": "",
          "type": "string"
        }
      ],
      "stateMutability": "view",
      "type": "function"
    },
    {
      "inputs": [
        {
          "internalType": "string",
          "name": "_name",
          "type": "string"
        }
      ],
      "name": "setName",
      "outputs": [],
      "stateMutability": "nonpayable",
      "type": "function"
    }
  ],
  "bytecode": "0x608060405234801561001057600080fd5b50610acd806100206000396000f3fe608060405234801561001057600080fd5b506004361061004c5760003560e01c806317d7de7c1461005157806389ea642f1461006f578063c47f00271461008d578063d86f748d146100a9575b600080fd5b6100596100c7565b60405161006691906103ec565b60405180910390f35b610077610159565b60405161008491906103ec565b60405180910390f35b6100a760048036038101906100a29190610557565b6101f6565b005b6100b1610210565b6040516100be91906105e1565b60405180910390f35b6060600080546100d69061062b565b80601f01602080910402602001604051908101604052809291908181526020018280546101029061062b565b801561014f5780601f106101245761010080835404028352916020019161014f565b820191906000526020600020905b81548152906001019060200180831161013257829003601f168201915b5050505050905090565b6060600160009054906101000a900473ffffffffffffffffffffffffffffffffffffffff1673ffffffffffffffffffffffffffffffffffffffff166389ea642f6040518163ffffffff1660e01b8152600401600060405180830381865afa1580156101c8573d6000803e3d6000fd5b505050506040513d6000823e3d601f19601f820116820180604052508101906101f191906106cd565b905090565b806000908051906020019061020c9291906102a3565b5050565b600060405161021e90610329565b604051809103906000f08015801561023a573d6000803e3d6000fd5b50600160006101000a81548173ffffffffffffffffffffffffffffffffffffffff021916908373ffffffffffffffffffffffffffffffffffffffff160217905550600160009054906101000a900473ffffffffffffffffffffffffffffffffffffffff16905090565b8280546102af9061062b565b90600052602060002090601f0160209004810192826102d15760008555610318565b82601f106102ea57805160ff1916838001178555610318565b82800160010185558215610318579182015b828111156103175782518255916020019190600101906102fc565b5b5090506103259190610336565b5090565b6103818061071783390190565b5b8082111561034f576000816000905550600101610337565b5090565b600081519050919050565b600082825260208201905092915050565b60005b8381101561038d578082015181840152602081019050610372565b8381111561039c576000848401525b50505050565b6000601f19601f8301169050919050565b60006103be82610353565b6103c8818561035e565b93506103d881856020860161036f565b6103e1816103a2565b840191505092915050565b6000602082019050818103600083015261040681846103b3565b905092915050565b6000604051905090565b600080fd5b600080fd5b600080fd5b600080fd5b7f4e487b7100000000000000000000000000000000000000000000000000000000600052604160045260246000fd5b610464826103a2565b810181811067ffffffffffffffff821117156104835761048261042c565b5b80604052505050565b600061049661040e565b90506104a2828261045b565b919050565b600067ffffffffffffffff8211156104c2576104c161042c565b5b6104cb826103a2565b9050602081019050919050565b82818337600083830152505050565b60006104fa6104f5846104a7565b61048c565b90508281526020810184848401111561051657610515610427565b5b6105218482856104d8565b509392505050565b600082601f83011261053e5761053d610422565b5b813561054e8482602086016104e7565b91505092915050565b60006020828403121561056d5761056c610418565b5b600082013567ffffffffffffffff81111561058b5761058a61041d565b5b61059784828501610529565b91505092915050565b600073ffffffffffffffffffffffffffffffffffffffff82169050919050565b60006105cb826105a0565b9050919050565b6105db816105c0565b82525050565b60006020820190506105f660008301846105d2565b92915050565b7f4e487b7100000000000000000000000000000000000000000000000000000000600052602260045260246000fd5b6000600282049050600182168061064357607f821691505b60208210811415610657576106566105fc565b5b50919050565b600061067061066b846104a7565b61048c565b90508281526020810184848401111561068c5761068b610427565b5b61069784828561036f565b509392505050565b600082601f8301126106b4576106b3610422565b5b81516106c484826020860161065d565b91505092915050565b6000602082840312156106e3576106e2610418565b5b600082015167ffffffffffffffff8111156107015761070061041d565b5b61070d8482850161069f565b9150509291505056fe608060405234801561001057600080fd5b50610361806100206000396000f3fe608060405234801561001057600080fd5b506004361061012c5760003560e01c806389ea642f116100ad578063caae8f2311610071578063caae8f23146101db578063d2f0c73e146101e5578063e5f687b2146101ef578063e7de23a4146101f9578063ef3f4d78146102035761012c565b806389ea642f146101955780638ee8be30146101b357806391d0396b146101bd578063c670641d146101c7578063ca5fa5c0146101d15761012c565b80632e463958116100f45780632e463958146101635780635fd6312b1461016d5780636dc16b0114610177578063792a8e2e14610181578063884280a61461018b5761012c565b806303feeeae146101315780630c103a931461013b5780630e4cd7fc14610145578063148843091461014f57806317fd06e714610159575b600080fd5b61013961020d565b005b61014361020f565b005b61014d610211565b005b610157610213565b005b610161610215565b005b61016b610217565b005b610175610219565b005b61017f61021b565b005b61018961021d565b005b61019361021f565b005b61019d610221565b6040516101aa9190610309565b60405180910390f35b6101bb61025e565b005b6101c5610260565b005b6101cf610262565b005b6101d9610264565b005b6101e3610266565b005b6101ed610268565b005b6101f761026a565b005b61020161026c565b005b61020b61026e565b005b565b565b565b565b565b565b565b565b565b565b60606040518060400160405280600881526020017f596f67656e647261000000000000000000000000000000000000000000000000815250905090565b565b565b565b565b565b565b565b565b565b600081519050919050565b600082825260208201905092915050565b60005b838110156102aa57808201518184015260208101905061028f565b838111156102b9576000848401525b50505050565b6000601f19601f8301169050919050565b60006102db82610270565b6102e5818561027b565b93506102f581856020860161028c565b6102fe816102bf565b840191505092915050565b6000602082019050818103600083015261032381846102d0565b90509291505056fea2646970667358221220de16e96001b79c69d222ee19316ee28a41d83378c4fe2d12f599caf6f862c23f64736f6c634300080a0033a2646970667358221220f1c9da25b4a0a34af6aea49b15a3040b2573d7fcc094d72e04e306897d2f0bc964736f6c634300080a0033",
  "linkReferences": {},
  "deployedLinkReferences": {}
}