{
  "_format": "hh-sol-artifact-1",
  "contractName": "SchulzeResult",
  "sourceName": "contracts/resultCalculator/SchulzeResult.sol",
  "abi": [
    {
      "inputs": [
        {
          "internalType": "contract Ballot",
          "name": "_ballot",
          "type": "address"
        },
        {
          "internalType": "uint256",
          "name": "_voterCount",
          "type": "uint256"
        }
      ],
      "name": "getResult",
      "outputs": [
        {
          "internalType": "uint256[]",
          "name": "",
          "type": "uint256[]"
        }
      ],
      "stateMutability": "nonpayable",
      "type": "function"
    },
    {
      "inputs": [
        {
          "internalType": "uint256[]",
          "name": "data",
          "type": "uint256[]"
        },
        {
          "internalType": "uint256[]",
          "name": "candidates",
          "type": "uint256[]"
        }
      ],
      "name": "getWinner",
      "outputs": [
        {
          "internalType": "uint256[]",
          "name": "",
          "type": "uint256[]"
        }
      ],
      "stateMutability": "pure",
      "type": "function"
    }
  ],
  "bytecode": "0x608060405234801561001057600080fd5b50610dba806100206000396000f3fe608060405234801561001057600080fd5b50600436106100365760003560e01c8063c8344a201461003b578063fe14ceb214610064575b600080fd5b61004e610049366004610a27565b610077565b60405161005b9190610a5f565b60405180910390f35b61004e610072366004610b79565b610803565b60606000836001600160a01b03166306a49fce6040518163ffffffff1660e01b815260040160006040518083038186803b1580156100b457600080fd5b505afa1580156100c8573d6000803e3d6000fd5b505050506040513d6000823e601f3d908101601f191682016040526100f09190810190610c38565b90506000846001600160a01b031663afa524086040518163ffffffff1660e01b8152600401600060405180830381600087803b15801561012f57600080fd5b505af1158015610143573d6000803e3d6000fd5b505050506040513d6000823e601f3d908101601f1916820160405261016b9190810190610c75565b82519091508067ffffffffffffffff81111561018957610189610aa3565b6040519080825280602002602001820160405280156101b2578160200160208202803683370190505b5080516101c7916000916020909101906109c7565b5060005b81811015610207576103e8600082815481106101e9576101e9610d26565b600091825260209091200155806101ff81610d52565b9150506101cb565b5060008167ffffffffffffffff81111561022357610223610aa3565b60405190808252806020026020018201604052801561025657816020015b60608152602001906001900390816102415790505b50905060005b828110156102d7578267ffffffffffffffff81111561027d5761027d610aa3565b6040519080825280602002602001820160405280156102a6578160200160208202803683370190505b508282815181106102b9576102b9610d26565b602002602001018190525080806102cf90610d52565b91505061025c565b5060005b8281101561034b5760005b8381101561033857600083838151811061030257610302610d26565b6020026020010151828151811061031b5761031b610d26565b60209081029190910101528061033081610d52565b9150506102e6565b508061034381610d52565b9150506102db565b5060005b828110156104a35760005b838110156104905780821461047e5784818151811061037b5761037b610d26565b6020026020010151828151811061039457610394610d26565b60200260200101518583815181106103ae576103ae610d26565b602002602001015182815181106103c7576103c7610d26565b60200260200101511115610444578482815181106103e7576103e7610d26565b6020026020010151818151811061040057610400610d26565b602002602001015183838151811061041a5761041a610d26565b6020026020010151828151811061043357610433610d26565b60200260200101818152505061047e565b600083838151811061045857610458610d26565b6020026020010151828151811061047157610471610d26565b6020026020010181815250505b8061048881610d52565b91505061035a565b508061049b81610d52565b91505061034f565b5060008060005b848110156106085760005b858110156105f5578082146105e35760005b868110156105e1578083141580156104df5750808214155b156105cf57600094506105568683815181106104fd576104fd610d26565b6020026020010151848151811061051657610516610d26565b602002602001015187858151811061053057610530610d26565b6020026020010151838151811061054957610549610d26565b60200260200101516109a0565b94506105948587848151811061056e5761056e610d26565b6020026020010151838151811061058757610587610d26565b60200260200101516109b8565b9350838683815181106105a9576105a9610d26565b602002602001015182815181106105c2576105c2610d26565b6020026020010181815250505b806105d981610d52565b9150506104c7565b505b806105ed81610d52565b9150506104b5565b508061060081610d52565b9150506104aa565b506000865167ffffffffffffffff81111561062557610625610aa3565b60405190808252806020026020018201604052801561064e578160200160208202803683370190505b50905060005b875181101561068f5761271082828151811061067257610672610d26565b60209081029190910101528061068781610d52565b915050610654565b5060005b858110156107835760005b868110156107705780821461075e578582815181106106bf576106bf610d26565b602002602001015181815181106106d8576106d8610d26565b60200260200101518682815181106106f2576106f2610d26565b6020026020010151838151811061070b5761070b610d26565b6020026020010151111561075e57600183838151811061072d5761072d610d26565b602002602001015161073f9190610d6d565b83838151811061075157610751610d26565b6020026020010181815250505b8061076881610d52565b91505061069e565b508061077b81610d52565b915050610693565b5061078e8188610803565b80516107a2916000916020909101906109c7565b5060008054806020026020016040519081016040528092919081815260200182805480156107ef57602002820191906000526020600020905b8154815260200190600101908083116107db575b505050505097505050505050505092915050565b60606000835167ffffffffffffffff81111561082157610821610aa3565b60405190808252806020026020018201604052801561084a578160200160208202803683370190505b5090506000612710815b8551811015610995578551831061086a57610995565b6000805b87518110156108eb578389828151811061088a5761088a610d26565b60200260200101511080156108b75750818982815181106108ad576108ad610d26565b6020026020010151115b156108d9578881815181106108ce576108ce610d26565b602002602001015191505b806108e381610d52565b91505061086e565b5080925060005b8751811015610980578751851061090857610980565b8189828151811061091b5761091b610d26565b6020026020010151141561096e5787818151811061093b5761093b610d26565b602002602001015186868151811061095557610955610d26565b60209081029190910101528461096a81610d52565b9550505b8061097881610d52565b9150506108f2565b5050808061098d90610d52565b915050610854565b509195945050505050565b60008183106109af57816109b1565b825b9392505050565b60008183116109af57816109b1565b828054828255906000526020600020908101928215610a02579160200282015b82811115610a025782518255916020019190600101906109e7565b50610a0e929150610a12565b5090565b5b80821115610a0e5760008155600101610a13565b60008060408385031215610a3a57600080fd5b82356001600160a01b0381168114610a5157600080fd5b946020939093013593505050565b6020808252825182820181905260009190848201906040850190845b81811015610a9757835183529284019291840191600101610a7b565b50909695505050505050565b634e487b7160e01b600052604160045260246000fd5b604051601f8201601f1916810167ffffffffffffffff81118282101715610ae257610ae2610aa3565b604052919050565b600067ffffffffffffffff821115610b0457610b04610aa3565b5060051b60200190565b600082601f830112610b1f57600080fd5b81356020610b34610b2f83610aea565b610ab9565b82815260059290921b84018101918181019086841115610b5357600080fd5b8286015b84811015610b6e5780358352918301918301610b57565b509695505050505050565b60008060408385031215610b8c57600080fd5b823567ffffffffffffffff80821115610ba457600080fd5b610bb086838701610b0e565b93506020850135915080821115610bc657600080fd5b50610bd385828601610b0e565b9150509250929050565b600082601f830112610bee57600080fd5b81516020610bfe610b2f83610aea565b82815260059290921b84018101918181019086841115610c1d57600080fd5b8286015b84811015610b6e5780518352918301918301610c21565b600060208284031215610c4a57600080fd5b815167ffffffffffffffff811115610c6157600080fd5b610c6d84828501610bdd565b949350505050565b60006020808385031215610c8857600080fd5b825167ffffffffffffffff80821115610ca057600080fd5b818501915085601f830112610cb457600080fd5b8151610cc2610b2f82610aea565b81815260059190911b83018401908481019088831115610ce157600080fd5b8585015b83811015610d1957805185811115610cfd5760008081fd5b610d0b8b89838a0101610bdd565b845250918601918601610ce5565b5098975050505050505050565b634e487b7160e01b600052603260045260246000fd5b634e487b7160e01b600052601160045260246000fd5b6000600019821415610d6657610d66610d3c565b5060010190565b600082821015610d7f57610d7f610d3c565b50039056fea2646970667358221220b409885460704e468da195cc4bb87c0bd23dfba66545db531bd0e506dacd25c264736f6c63430008090033",
  "linkReferences": {},
  "deployedLinkReferences": {}
}