{
  "_format": "hh-sol-artifact-1",
  "contractName": "ElectionOrganizer",
  "sourceName": "contracts/facets/votingApp/ElectionOrganizer.sol",
  "abi": [
    {
      "anonymous": false,
      "inputs": [
        {
          "indexed": false,
          "internalType": "address",
          "name": "election",
          "type": "address"
        },
        {
          "components": [
            {
              "internalType": "uint256",
              "name": "candidateID",
              "type": "uint256"
            },
            {
              "internalType": "string",
              "name": "name",
              "type": "string"
            },
            {
              "internalType": "string",
              "name": "description",
              "type": "string"
            }
          ],
          "indexed": false,
          "internalType": "struct Election.Candidate",
          "name": "candidate",
          "type": "tuple"
        }
      ],
      "name": "CandidateAdded",
      "type": "event"
    },
    {
      "anonymous": false,
      "inputs": [
        {
          "indexed": false,
          "internalType": "address",
          "name": "election",
          "type": "address"
        }
      ],
      "name": "CreatedElection",
      "type": "event"
    },
    {
      "inputs": [
        {
          "internalType": "contract Election",
          "name": "_election",
          "type": "address"
        },
        {
          "components": [
            {
              "internalType": "uint256",
              "name": "candidateID",
              "type": "uint256"
            },
            {
              "internalType": "string",
              "name": "name",
              "type": "string"
            },
            {
              "internalType": "string",
              "name": "description",
              "type": "string"
            }
          ],
          "internalType": "struct Election.Candidate",
          "name": "_candidate",
          "type": "tuple"
        }
      ],
      "name": "addCandidate",
      "outputs": [],
      "stateMutability": "nonpayable",
      "type": "function"
    },
    {
      "inputs": [
        {
          "components": [
            {
              "internalType": "uint256",
              "name": "organizerID",
              "type": "uint256"
            },
            {
              "internalType": "string",
              "name": "name",
              "type": "string"
            },
            {
              "internalType": "address",
              "name": "publicAddress",
              "type": "address"
            }
          ],
          "internalType": "struct ElectionOrganizer.OrganizerInfo",
          "name": "_organizerInfo",
          "type": "tuple"
        }
      ],
      "name": "addElectionOrganizer",
      "outputs": [],
      "stateMutability": "nonpayable",
      "type": "function"
    },
    {
      "inputs": [
        {
          "components": [
            {
              "internalType": "uint256",
              "name": "electionID",
              "type": "uint256"
            },
            {
              "internalType": "string",
              "name": "name",
              "type": "string"
            },
            {
              "internalType": "string",
              "name": "description",
              "type": "string"
            },
            {
              "internalType": "uint256",
              "name": "startDate",
              "type": "uint256"
            },
            {
              "internalType": "uint256",
              "name": "endDate",
              "type": "uint256"
            }
          ],
          "internalType": "struct Election.ElectionInfo",
          "name": "_electionInfo",
          "type": "tuple"
        },
        {
          "internalType": "uint256",
          "name": "_ballotType",
          "type": "uint256"
        },
        {
          "internalType": "uint256",
          "name": "_resultCalculatorType",
          "type": "uint256"
        }
      ],
      "name": "createElection",
      "outputs": [],
      "stateMutability": "nonpayable",
      "type": "function"
    },
    {
      "inputs": [
        {
          "internalType": "uint256",
          "name": "_electionID",
          "type": "uint256"
        }
      ],
      "name": "getElectionByID",
      "outputs": [
        {
          "internalType": "address",
          "name": "",
          "type": "address"
        }
      ],
      "stateMutability": "view",
      "type": "function"
    },
    {
      "inputs": [],
      "name": "getElectionFactory",
      "outputs": [
        {
          "internalType": "address",
          "name": "",
          "type": "address"
        }
      ],
      "stateMutability": "view",
      "type": "function"
    },
    {
      "inputs": [
        {
          "internalType": "address",
          "name": "_address",
          "type": "address"
        }
      ],
      "name": "getElectionOrganizerByAddress",
      "outputs": [
        {
          "components": [
            {
              "internalType": "uint256",
              "name": "organizerID",
              "type": "uint256"
            },
            {
              "internalType": "string",
              "name": "name",
              "type": "string"
            },
            {
              "internalType": "address",
              "name": "publicAddress",
              "type": "address"
            }
          ],
          "internalType": "struct ElectionOrganizer.OrganizerInfo",
          "name": "",
          "type": "tuple"
        }
      ],
      "stateMutability": "view",
      "type": "function"
    },
    {
      "inputs": [
        {
          "internalType": "uint256",
          "name": "_organizerID",
          "type": "uint256"
        }
      ],
      "name": "getElectionOrganizerByID",
      "outputs": [
        {
          "components": [
            {
              "internalType": "uint256",
              "name": "organizerID",
              "type": "uint256"
            },
            {
              "internalType": "string",
              "name": "name",
              "type": "string"
            },
            {
              "internalType": "address",
              "name": "publicAddress",
              "type": "address"
            }
          ],
          "internalType": "struct ElectionOrganizer.OrganizerInfo",
          "name": "",
          "type": "tuple"
        }
      ],
      "stateMutability": "view",
      "type": "function"
    },
    {
      "inputs": [],
      "name": "getElectionOrganizers",
      "outputs": [
        {
          "components": [
            {
              "internalType": "uint256",
              "name": "organizerID",
              "type": "uint256"
            },
            {
              "internalType": "string",
              "name": "name",
              "type": "string"
            },
            {
              "internalType": "address",
              "name": "publicAddress",
              "type": "address"
            }
          ],
          "internalType": "struct ElectionOrganizer.OrganizerInfo[]",
          "name": "",
          "type": "tuple[]"
        }
      ],
      "stateMutability": "view",
      "type": "function"
    },
    {
      "inputs": [],
      "name": "getElectionStorage",
      "outputs": [
        {
          "internalType": "address",
          "name": "",
          "type": "address"
        }
      ],
      "stateMutability": "view",
      "type": "function"
    },
    {
      "inputs": [],
      "name": "getElections",
      "outputs": [
        {
          "internalType": "address[]",
          "name": "",
          "type": "address[]"
        }
      ],
      "stateMutability": "view",
      "type": "function"
    },
    {
      "inputs": [],
      "name": "getElectionsOfOrganizer",
      "outputs": [
        {
          "internalType": "address[]",
          "name": "",
          "type": "address[]"
        }
      ],
      "stateMutability": "view",
      "type": "function"
    },
    {
      "inputs": [
        {
          "internalType": "contract Election",
          "name": "_election",
          "type": "address"
        }
      ],
      "name": "getResult",
      "outputs": [
        {
          "internalType": "uint256[]",
          "name": "",
          "type": "uint256[]"
        }
      ],
      "stateMutability": "nonpayable",
      "type": "function"
    },
    {
      "inputs": [],
      "name": "init",
      "outputs": [],
      "stateMutability": "nonpayable",
      "type": "function"
    }
  ],
  "bytecode": "0x6080604052606460035534801561001557600080fd5b50612bb7806100256000396000f3fe608060405234801561001057600080fd5b50600436106100cf5760003560e01c8063446a37e01161008c5780639f3a7f52116100665780639f3a7f5214610212578063a8c0198714610230578063a95bc6351461024e578063e1c7392a1461027e576100cf565b8063446a37e01461019657806379db9ffe146101c65780637f934bdb146101f6576100cf565b80630249ff4d146100d457806315d4ffa0146100f257806325fb97a91461010e578063326e0d281461013e57806332fb68cd1461015a57806339d8a45114610178575b600080fd5b6100dc610288565b6040516100e991906110dd565b60405180910390f35b61010c6004803603810190610107919061133e565b6102b2565b005b61012860048036038101906101239190611387565b610521565b60405161013591906110dd565b60405180910390f35b6101586004803603810190610153919061148e565b6105c6565b005b61016261074c565b60405161016f91906110dd565b60405180910390f35b61018061077f565b60405161018d91906115a8565b60405180910390f35b6101b060048036038101906101ab91906115ca565b610827565b6040516101bd91906116b5565b60405180910390f35b6101e060048036038101906101db9190611387565b6108a6565b6040516101ed91906117af565b60405180910390f35b610210600480360381019061020b9190611895565b6109c5565b005b61021a610bd9565b60405161022791906115a8565b60405180910390f35b610238610c76565b6040516102459190611a16565b60405180910390f35b61026860048036038101906102639190611a38565b610dc7565b60405161027591906117af565b60405180910390f35b610286610f12565b005b6000600560009054906101000a900473ffffffffffffffffffffffffffffffffffffffff16905090565b600060016003546102c39190611a94565b9050808260000181815250506000829080600181540180825580915050600190039060005260206000209060030201600090919091909150600082015181600001556020820151816001019080519060200190610321929190610fb5565b5060408201518160020160006101000a81548173ffffffffffffffffffffffffffffffffffffffff021916908373ffffffffffffffffffffffffffffffffffffffff16021790555050508160016000846040015173ffffffffffffffffffffffffffffffffffffffff1673ffffffffffffffffffffffffffffffffffffffff1681526020019081526020016000206000820151816000015560208201518160010190805190602001906103d5929190610fb5565b5060408201518160020160006101000a81548173ffffffffffffffffffffffffffffffffffffffff021916908373ffffffffffffffffffffffffffffffffffffffff16021790555090505081600260008460000151815260200190815260200160002060008201518160000155602082015181600101908051906020019061045e929190610fb5565b5060408201518160020160006101000a81548173ffffffffffffffffffffffffffffffffffffffff021916908373ffffffffffffffffffffffffffffffffffffffff160217905550905050600160046000846040015173ffffffffffffffffffffffffffffffffffffffff1673ffffffffffffffffffffffffffffffffffffffff16815260200190815260200160002060006101000a81548160ff0219169083151502179055506003600081548092919061051890611aea565b91905055505050565b6000600560009054906101000a900473ffffffffffffffffffffffffffffffffffffffff1673ffffffffffffffffffffffffffffffffffffffff166325fb97a9836040518263ffffffff1660e01b815260040161057e9190611b42565b602060405180830381865afa15801561059b573d6000803e3d6000fd5b505050506040513d601f19601f820116820180604052508101906105bf9190611b72565b9050919050565b8173ffffffffffffffffffffffffffffffffffffffff1663e04b1c0c6040518163ffffffff1660e01b8152600401602060405180830381865afa158015610611573d6000803e3d6000fd5b505050506040513d601f19601f820116820180604052508101906106359190611b72565b8073ffffffffffffffffffffffffffffffffffffffff163373ffffffffffffffffffffffffffffffffffffffff16146106a3576040517f08c379a000000000000000000000000000000000000000000000000000000000815260040161069a90611c22565b60405180910390fd5b8273ffffffffffffffffffffffffffffffffffffffff1663273ffe86836040518263ffffffff1660e01b81526004016106dc9190611c99565b600060405180830381600087803b1580156106f657600080fd5b505af115801561070a573d6000803e3d6000fd5b505050507fd0c201c1465de1cf8804d8aa806f3674abe49346aa6a18624a868dfa14108921838360405161073f929190611cbb565b60405180910390a1505050565b6000610756610f7d565b60020160009054906101000a900473ffffffffffffffffffffffffffffffffffffffff16905090565b6060600560009054906101000a900473ffffffffffffffffffffffffffffffffffffffff1673ffffffffffffffffffffffffffffffffffffffff166364372f73336040518263ffffffff1660e01b81526004016107dc91906110dd565b600060405180830381865afa1580156107f9573d6000803e3d6000fd5b505050506040513d6000823e3d601f19601f820116820180604052508101906108229190611db3565b905090565b60608173ffffffffffffffffffffffffffffffffffffffff1663de2927896040518163ffffffff1660e01b81526004016000604051808303816000875af1158015610876573d6000803e3d6000fd5b505050506040513d6000823e3d601f19601f8201168201806040525081019061089f9190611ed4565b9050919050565b6108ae61103b565b60026000838152602001908152602001600020604051806060016040529081600082015481526020016001820180546108e690611f4c565b80601f016020809104026020016040519081016040528092919081815260200182805461091290611f4c565b801561095f5780601f106109345761010080835404028352916020019161095f565b820191906000526020600020905b81548152906001019060200180831161094257829003601f168201915b505050505081526020016002820160009054906101000a900473ffffffffffffffffffffffffffffffffffffffff1673ffffffffffffffffffffffffffffffffffffffff1673ffffffffffffffffffffffffffffffffffffffff16815250509050919050565b600460003373ffffffffffffffffffffffffffffffffffffffff1673ffffffffffffffffffffffffffffffffffffffff16815260200190815260200160002060009054906101000a900460ff16610a51576040517f08c379a0000000000000000000000000000000000000000000000000000000008152600401610a4890611ff0565b60405180910390fd5b6000806001600560009054906101000a900473ffffffffffffffffffffffffffffffffffffffff1673ffffffffffffffffffffffffffffffffffffffff1663213785a06040518163ffffffff1660e01b8152600401602060405180830381865afa158015610ac3573d6000803e3d6000fd5b505050506040513d601f19601f82011682018060405250810190610ae79190612010565b610af19190611a94565b905080856000018181525050610b0a8585853330610faa565b9150600560009054906101000a900473ffffffffffffffffffffffffffffffffffffffff1673ffffffffffffffffffffffffffffffffffffffff166387b4e8d383336040518363ffffffff1660e01b8152600401610b6992919061209c565b600060405180830381600087803b158015610b8357600080fd5b505af1158015610b97573d6000803e3d6000fd5b505050507f49fdfe60e25ebf09e8f8c20a8a10c828d9b82cecf7b04e1ecb59ae51f79f827782604051610bca91906110dd565b60405180910390a15050505050565b6060600560009054906101000a900473ffffffffffffffffffffffffffffffffffffffff1673ffffffffffffffffffffffffffffffffffffffff16639f3a7f526040518163ffffffff1660e01b8152600401600060405180830381865afa158015610c48573d6000803e3d6000fd5b505050506040513d6000823e3d601f19601f82011682018060405250810190610c719190611db3565b905090565b60606000805480602002602001604051908101604052809291908181526020016000905b82821015610dbe578382906000526020600020906003020160405180606001604052908160008201548152602001600182018054610cd790611f4c565b80601f0160208091040260200160405190810160405280929190818152602001828054610d0390611f4c565b8015610d505780601f10610d2557610100808354040283529160200191610d50565b820191906000526020600020905b815481529060010190602001808311610d3357829003601f168201915b505050505081526020016002820160009054906101000a900473ffffffffffffffffffffffffffffffffffffffff1673ffffffffffffffffffffffffffffffffffffffff1673ffffffffffffffffffffffffffffffffffffffff168152505081526020019060010190610c9a565b50505050905090565b610dcf61103b565b600160008373ffffffffffffffffffffffffffffffffffffffff1673ffffffffffffffffffffffffffffffffffffffff16815260200190815260200160002060405180606001604052908160008201548152602001600182018054610e3390611f4c565b80601f0160208091040260200160405190810160405280929190818152602001828054610e5f90611f4c565b8015610eac5780601f10610e8157610100808354040283529160200191610eac565b820191906000526020600020905b815481529060010190602001808311610e8f57829003601f168201915b505050505081526020016002820160009054906101000a900473ffffffffffffffffffffffffffffffffffffffff1673ffffffffffffffffffffffffffffffffffffffff1673ffffffffffffffffffffffffffffffffffffffff16815250509050919050565b604051610f1e90611072565b604051809103906000f080158015610f3a573d6000803e3d6000fd5b50600560006101000a81548173ffffffffffffffffffffffffffffffffffffffff021916908373ffffffffffffffffffffffffffffffffffffffff160217905550565b6000807f2ad3e90873cbe86f6a024e2d91b7abbabc6ce35c355c15912cb7d7df99da235b90508091505090565b600095945050505050565b828054610fc190611f4c565b90600052602060002090601f016020900481019282610fe3576000855561102a565b82601f10610ffc57805160ff191683800117855561102a565b8280016001018555821561102a579182015b8281111561102957825182559160200191906001019061100e565b5b509050611037919061107f565b5090565b60405180606001604052806000815260200160608152602001600073ffffffffffffffffffffffffffffffffffffffff1681525090565b610abc806120c683390190565b5b80821115611098576000816000905550600101611080565b5090565b600073ffffffffffffffffffffffffffffffffffffffff82169050919050565b60006110c78261109c565b9050919050565b6110d7816110bc565b82525050565b60006020820190506110f260008301846110ce565b92915050565b6000604051905090565b600080fd5b600080fd5b600080fd5b6000601f19601f8301169050919050565b7f4e487b7100000000000000000000000000000000000000000000000000000000600052604160045260246000fd5b61115a82611111565b810181811067ffffffffffffffff8211171561117957611178611122565b5b80604052505050565b600061118c6110f8565b90506111988282611151565b919050565b600080fd5b6000819050919050565b6111b5816111a2565b81146111c057600080fd5b50565b6000813590506111d2816111ac565b92915050565b600080fd5b600080fd5b600067ffffffffffffffff8211156111fd576111fc611122565b5b61120682611111565b9050602081019050919050565b82818337600083830152505050565b6000611235611230846111e2565b611182565b905082815260208101848484011115611251576112506111dd565b5b61125c848285611213565b509392505050565b600082601f830112611279576112786111d8565b5b8135611289848260208601611222565b91505092915050565b61129b816110bc565b81146112a657600080fd5b50565b6000813590506112b881611292565b92915050565b6000606082840312156112d4576112d361110c565b5b6112de6060611182565b905060006112ee848285016111c3565b600083015250602082013567ffffffffffffffff8111156113125761131161119d565b5b61131e84828501611264565b6020830152506040611332848285016112a9565b60408301525092915050565b60006020828403121561135457611353611102565b5b600082013567ffffffffffffffff81111561137257611371611107565b5b61137e848285016112be565b91505092915050565b60006020828403121561139d5761139c611102565b5b60006113ab848285016111c3565b91505092915050565b60006113bf826110bc565b9050919050565b6113cf816113b4565b81146113da57600080fd5b50565b6000813590506113ec816113c6565b92915050565b6000606082840312156114085761140761110c565b5b6114126060611182565b90506000611422848285016111c3565b600083015250602082013567ffffffffffffffff8111156114465761144561119d565b5b61145284828501611264565b602083015250604082013567ffffffffffffffff8111156114765761147561119d565b5b61148284828501611264565b60408301525092915050565b600080604083850312156114a5576114a4611102565b5b60006114b3858286016113dd565b925050602083013567ffffffffffffffff8111156114d4576114d3611107565b5b6114e0858286016113f2565b9150509250929050565b600081519050919050565b600082825260208201905092915050565b6000819050602082019050919050565b61151f816110bc565b82525050565b60006115318383611516565b60208301905092915050565b6000602082019050919050565b6000611555826114ea565b61155f81856114f5565b935061156a83611506565b8060005b8381101561159b5781516115828882611525565b975061158d8361153d565b92505060018101905061156e565b5085935050505092915050565b600060208201905081810360008301526115c2818461154a565b905092915050565b6000602082840312156115e0576115df611102565b5b60006115ee848285016113dd565b91505092915050565b600081519050919050565b600082825260208201905092915050565b6000819050602082019050919050565b61162c816111a2565b82525050565b600061163e8383611623565b60208301905092915050565b6000602082019050919050565b6000611662826115f7565b61166c8185611602565b935061167783611613565b8060005b838110156116a857815161168f8882611632565b975061169a8361164a565b92505060018101905061167b565b5085935050505092915050565b600060208201905081810360008301526116cf8184611657565b905092915050565b600081519050919050565b600082825260208201905092915050565b60005b838110156117115780820151818401526020810190506116f6565b83811115611720576000848401525b50505050565b6000611731826116d7565b61173b81856116e2565b935061174b8185602086016116f3565b61175481611111565b840191505092915050565b60006060830160008301516117776000860182611623565b506020830151848203602086015261178f8282611726565b91505060408301516117a46040860182611516565b508091505092915050565b600060208201905081810360008301526117c9818461175f565b905092915050565b600060a082840312156117e7576117e661110c565b5b6117f160a0611182565b90506000611801848285016111c3565b600083015250602082013567ffffffffffffffff8111156118255761182461119d565b5b61183184828501611264565b602083015250604082013567ffffffffffffffff8111156118555761185461119d565b5b61186184828501611264565b6040830152506060611875848285016111c3565b6060830152506080611889848285016111c3565b60808301525092915050565b6000806000606084860312156118ae576118ad611102565b5b600084013567ffffffffffffffff8111156118cc576118cb611107565b5b6118d8868287016117d1565b93505060206118e9868287016111c3565b92505060406118fa868287016111c3565b9150509250925092565b600081519050919050565b600082825260208201905092915050565b6000819050602082019050919050565b60006060830160008301516119486000860182611623565b50602083015184820360208601526119608282611726565b91505060408301516119756040860182611516565b508091505092915050565b600061198c8383611930565b905092915050565b6000602082019050919050565b60006119ac82611904565b6119b6818561190f565b9350836020820285016119c885611920565b8060005b85811015611a0457848403895281516119e58582611980565b94506119f083611994565b925060208a019950506001810190506119cc565b50829750879550505050505092915050565b60006020820190508181036000830152611a3081846119a1565b905092915050565b600060208284031215611a4e57611a4d611102565b5b6000611a5c848285016112a9565b91505092915050565b7f4e487b7100000000000000000000000000000000000000000000000000000000600052601160045260246000fd5b6000611a9f826111a2565b9150611aaa836111a2565b9250827fffffffffffffffffffffffffffffffffffffffffffffffffffffffffffffffff03821115611adf57611ade611a65565b5b828201905092915050565b6000611af5826111a2565b91507fffffffffffffffffffffffffffffffffffffffffffffffffffffffffffffffff821415611b2857611b27611a65565b5b600182019050919050565b611b3c816111a2565b82525050565b6000602082019050611b576000830184611b33565b92915050565b600081519050611b6c81611292565b92915050565b600060208284031215611b8857611b87611102565b5b6000611b9684828501611b5d565b91505092915050565b600082825260208201905092915050565b7f4f6e6c792061636365737369626c652062792074686520636f72726573706f6e60008201527f64696e6720656c656374696f6e206f7267616e697a6572000000000000000000602082015250565b6000611c0c603783611b9f565b9150611c1782611bb0565b604082019050919050565b60006020820190508181036000830152611c3b81611bff565b9050919050565b6000606083016000830151611c5a6000860182611623565b5060208301518482036020860152611c728282611726565b91505060408301518482036040860152611c8c8282611726565b9150508091505092915050565b60006020820190508181036000830152611cb38184611c42565b905092915050565b6000604082019050611cd060008301856110ce565b8181036020830152611ce28184611c42565b90509392505050565b600067ffffffffffffffff821115611d0657611d05611122565b5b602082029050602081019050919050565b600080fd5b6000611d2f611d2a84611ceb565b611182565b90508083825260208201905060208402830185811115611d5257611d51611d17565b5b835b81811015611d7b5780611d678882611b5d565b845260208401935050602081019050611d54565b5050509392505050565b600082601f830112611d9a57611d996111d8565b5b8151611daa848260208601611d1c565b91505092915050565b600060208284031215611dc957611dc8611102565b5b600082015167ffffffffffffffff811115611de757611de6611107565b5b611df384828501611d85565b91505092915050565b600067ffffffffffffffff821115611e1757611e16611122565b5b602082029050602081019050919050565b600081519050611e37816111ac565b92915050565b6000611e50611e4b84611dfc565b611182565b90508083825260208201905060208402830185811115611e7357611e72611d17565b5b835b81811015611e9c5780611e888882611e28565b845260208401935050602081019050611e75565b5050509392505050565b600082601f830112611ebb57611eba6111d8565b5b8151611ecb848260208601611e3d565b91505092915050565b600060208284031215611eea57611ee9611102565b5b600082015167ffffffffffffffff811115611f0857611f07611107565b5b611f1484828501611ea6565b91505092915050565b7f4e487b7100000000000000000000000000000000000000000000000000000000600052602260045260246000fd5b60006002820490506001821680611f6457607f821691505b60208210811415611f7857611f77611f1d565b5b50919050565b7f4f6e6c792061636365737369626c65206279207573657273207265676973657460008201527f65726564206173206f7267616e697a6572730000000000000000000000000000602082015250565b6000611fda603283611b9f565b9150611fe582611f7e565b604082019050919050565b6000602082019050818103600083015261200981611fcd565b9050919050565b60006020828403121561202657612025611102565b5b600061203484828501611e28565b91505092915050565b6000819050919050565b600061206261205d6120588461109c565b61203d565b61109c565b9050919050565b600061207482612047565b9050919050565b600061208682612069565b9050919050565b6120968161207b565b82525050565b60006040820190506120b1600083018561208d565b6120be60208301846110ce565b939250505056fe60806040526103e860045534801561001657600080fd5b50610a96806100266000396000f3fe608060405234801561001057600080fd5b50600436106100575760003560e01c8063213785a01461005c57806325fb97a91461007a57806364372f73146100aa57806387b4e8d3146100da5780639f3a7f52146100f6575b600080fd5b610064610114565b60405161007191906104b7565b60405180910390f35b610094600480360381019061008f9190610512565b61011e565b6040516100a19190610580565b60405180910390f35b6100c460048036038101906100bf91906105c7565b61015b565b6040516100d191906106b2565b60405180910390f35b6100f460048036038101906100ef9190610712565b610228565b005b6100fe610410565b60405161010b91906106b2565b60405180910390f35b6000600454905090565b60006003600083815260200190815260200160002060009054906101000a900473ffffffffffffffffffffffffffffffffffffffff169050919050565b6060600260008373ffffffffffffffffffffffffffffffffffffffff1673ffffffffffffffffffffffffffffffffffffffff16815260200190815260200160002080548060200260200160405190810160405280929190818152602001828054801561021c57602002820191906000526020600020905b8160009054906101000a900473ffffffffffffffffffffffffffffffffffffffff1673ffffffffffffffffffffffffffffffffffffffff16815260200190600101908083116101d2575b50505050509050919050565b6004600081548092919061023b90610781565b91905055506000829080600181540180825580915050600190039060005260206000200160009091909190916101000a81548173ffffffffffffffffffffffffffffffffffffffff021916908373ffffffffffffffffffffffffffffffffffffffff160217905550600260008273ffffffffffffffffffffffffffffffffffffffff1673ffffffffffffffffffffffffffffffffffffffff168152602001908152602001600020829080600181540180825580915050600190039060005260206000200160009091909190916101000a81548173ffffffffffffffffffffffffffffffffffffffff021916908373ffffffffffffffffffffffffffffffffffffffff16021790555081600360008473ffffffffffffffffffffffffffffffffffffffff166386852dca6040518163ffffffff1660e01b8152600401600060405180830381865afa158015610393573d6000803e3d6000fd5b505050506040513d6000823e3d601f19601f820116820180604052508101906103bc9190610a17565b60000151815260200190815260200160002060006101000a81548173ffffffffffffffffffffffffffffffffffffffff021916908373ffffffffffffffffffffffffffffffffffffffff1602179055505050565b6060600080548060200260200160405190810160405280929190818152602001828054801561049457602002820191906000526020600020905b8160009054906101000a900473ffffffffffffffffffffffffffffffffffffffff1673ffffffffffffffffffffffffffffffffffffffff168152602001906001019080831161044a575b5050505050905090565b6000819050919050565b6104b18161049e565b82525050565b60006020820190506104cc60008301846104a8565b92915050565b6000604051905090565b600080fd5b600080fd5b6104ef8161049e565b81146104fa57600080fd5b50565b60008135905061050c816104e6565b92915050565b600060208284031215610528576105276104dc565b5b6000610536848285016104fd565b91505092915050565b600073ffffffffffffffffffffffffffffffffffffffff82169050919050565b600061056a8261053f565b9050919050565b61057a8161055f565b82525050565b60006020820190506105956000830184610571565b92915050565b6105a48161055f565b81146105af57600080fd5b50565b6000813590506105c18161059b565b92915050565b6000602082840312156105dd576105dc6104dc565b5b60006105eb848285016105b2565b91505092915050565b600081519050919050565b600082825260208201905092915050565b6000819050602082019050919050565b6106298161055f565b82525050565b600061063b8383610620565b60208301905092915050565b6000602082019050919050565b600061065f826105f4565b61066981856105ff565b935061067483610610565b8060005b838110156106a557815161068c888261062f565b975061069783610647565b925050600181019050610678565b5085935050505092915050565b600060208201905081810360008301526106cc8184610654565b905092915050565b60006106df8261055f565b9050919050565b6106ef816106d4565b81146106fa57600080fd5b50565b60008135905061070c816106e6565b92915050565b60008060408385031215610729576107286104dc565b5b6000610737858286016106fd565b9250506020610748858286016105b2565b9150509250929050565b7f4e487b7100000000000000000000000000000000000000000000000000000000600052601160045260246000fd5b600061078c8261049e565b91507fffffffffffffffffffffffffffffffffffffffffffffffffffffffffffffffff8214156107bf576107be610752565b5b600182019050919050565b600080fd5b6000601f19601f8301169050919050565b7f4e487b7100000000000000000000000000000000000000000000000000000000600052604160045260246000fd5b610818826107cf565b810181811067ffffffffffffffff82111715610837576108366107e0565b5b80604052505050565b600061084a6104d2565b9050610856828261080f565b919050565b600080fd5b60008151905061086f816104e6565b92915050565b600080fd5b600080fd5b600067ffffffffffffffff82111561089a576108996107e0565b5b6108a3826107cf565b9050602081019050919050565b60005b838110156108ce5780820151818401526020810190506108b3565b838111156108dd576000848401525b50505050565b60006108f66108f18461087f565b610840565b9050828152602081018484840111156109125761091161087a565b5b61091d8482856108b0565b509392505050565b600082601f83011261093a57610939610875565b5b815161094a8482602086016108e3565b91505092915050565b600060a08284031215610969576109686107ca565b5b61097360a0610840565b9050600061098384828501610860565b600083015250602082015167ffffffffffffffff8111156109a7576109a661085b565b5b6109b384828501610925565b602083015250604082015167ffffffffffffffff8111156109d7576109d661085b565b5b6109e384828501610925565b60408301525060606109f784828501610860565b6060830152506080610a0b84828501610860565b60808301525092915050565b600060208284031215610a2d57610a2c6104dc565b5b600082015167ffffffffffffffff811115610a4b57610a4a6104e1565b5b610a5784828501610953565b9150509291505056fea264697066735822122098f153dfa6d15e7d0527774fffc8a4bfd30ae2401e31a8bb9de76e48e92dacb064736f6c634300080a0033a264697066735822122051fc23ae3239dbf8b76d9817a986f99a9825913556a08248e51b27959582724064736f6c634300080a0033",
  "linkReferences": {},
  "deployedLinkReferences": {}
}