{
  "_format": "hh-sol-artifact-1",
  "contractName": "ElectionFactory",
  "sourceName": "contracts/facets/ElectionFactory.sol",
  "abi": [
    {
      "inputs": [],
      "stateMutability": "nonpayable",
      "type": "constructor"
    },
    {
      "inputs": [
        {
          "components": [
            {
              "internalType": "uint256",
              "name": "electionID",
              "type": "uint256"
            },
            {
              "internalType": "string",
              "name": "name",
              "type": "string"
            },
            {
              "internalType": "string",
              "name": "description",
              "type": "string"
            },
            {
              "internalType": "uint256",
              "name": "startDate",
              "type": "uint256"
            },
            {
              "internalType": "uint256",
              "name": "endDate",
              "type": "uint256"
            }
          ],
          "internalType": "struct Election.ElectionInfo",
          "name": "_electionInfo",
          "type": "tuple"
        },
        {
          "internalType": "uint256",
          "name": "_ballotType",
          "type": "uint256"
        },
        {
          "internalType": "uint256",
          "name": "_resultCalculatorType",
          "type": "uint256"
        },
        {
          "internalType": "address",
          "name": "_electionOrganizer",
          "type": "address"
        },
        {
          "internalType": "address",
          "name": "_electionOrganizerContract",
          "type": "address"
        }
      ],
      "name": "getElectionFromFactory",
      "outputs": [],
      "stateMutability": "nonpayable",
      "type": "function"
    }
  ],
  "bytecode": "0x608060405234801561001057600080fd5b50336000806101000a81548173ffffffffffffffffffffffffffffffffffffffff021916908373ffffffffffffffffffffffffffffffffffffffff160217905550613944806100606000396000f3fe60806040523480156200001157600080fd5b50600436106200002e5760003560e01c80639727e6451462000033575b600080fd5b6200005160048036038101906200004b919062000683565b62000053565b005b6000806200006062000322565b60000160009054906101000a900473ffffffffffffffffffffffffffffffffffffffff1690508073ffffffffffffffffffffffffffffffffffffffff166378782562876040518263ffffffff1660e01b8152600401620000c191906200073b565b600060405180830381600087803b158015620000dc57600080fd5b505af1158015620000f1573d6000803e3d6000fd5b505050508073ffffffffffffffffffffffffffffffffffffffff1663a9dda9c7876040518263ffffffff1660e01b81526004016200013091906200073b565b600060405180830381600087803b1580156200014b57600080fd5b505af115801562000160573d6000803e3d6000fd5b505050506000620001706200034f565b6040518060600160405290816000820160009054906101000a900473ffffffffffffffffffffffffffffffffffffffff1673ffffffffffffffffffffffffffffffffffffffff1673ffffffffffffffffffffffffffffffffffffffff1681526020016001820160009054906101000a900473ffffffffffffffffffffffffffffffffffffffff1673ffffffffffffffffffffffffffffffffffffffff1673ffffffffffffffffffffffffffffffffffffffff1681526020016002820160009054906101000a900473ffffffffffffffffffffffffffffffffffffffff1673ffffffffffffffffffffffffffffffffffffffff1673ffffffffffffffffffffffffffffffffffffffff16815250509050878160000151826020015187878b6040516200029b906200037c565b620002ac9695949392919062000924565b604051809103906000f080158015620002c9573d6000803e3d6000fd5b50925082620002d76200034f565b60020160006101000a81548173ffffffffffffffffffffffffffffffffffffffff021916908373ffffffffffffffffffffffffffffffffffffffff1602179055505050505050505050565b6000807fc20038518297e76c0e27a913ab03e5d4fd92b2579d428cf3b89f8c71add2acef90508091505090565b6000807f5b43f313088137496832405d64cc708765db93c8144d82f7a7f806ac22d5603b90508091505090565b612f76806200099983390190565b6000604051905090565b600080fd5b600080fd5b600080fd5b6000601f19601f8301169050919050565b7f4e487b7100000000000000000000000000000000000000000000000000000000600052604160045260246000fd5b620003ee82620003a3565b810181811067ffffffffffffffff8211171562000410576200040f620003b4565b5b80604052505050565b6000620004256200038a565b9050620004338282620003e3565b919050565b600080fd5b6000819050919050565b62000452816200043d565b81146200045e57600080fd5b50565b600081359050620004728162000447565b92915050565b600080fd5b600080fd5b600067ffffffffffffffff821115620004a0576200049f620003b4565b5b620004ab82620003a3565b9050602081019050919050565b82818337600083830152505050565b6000620004de620004d88462000482565b62000419565b905082815260208101848484011115620004fd57620004fc6200047d565b5b6200050a848285620004b8565b509392505050565b600082601f8301126200052a576200052962000478565b5b81356200053c848260208601620004c7565b91505092915050565b600060a082840312156200055e576200055d6200039e565b5b6200056a60a062000419565b905060006200057c8482850162000461565b600083015250602082013567ffffffffffffffff811115620005a357620005a262000438565b5b620005b18482850162000512565b602083015250604082013567ffffffffffffffff811115620005d857620005d762000438565b5b620005e68482850162000512565b6040830152506060620005fc8482850162000461565b6060830152506080620006128482850162000461565b60808301525092915050565b600073ffffffffffffffffffffffffffffffffffffffff82169050919050565b60006200064b826200061e565b9050919050565b6200065d816200063e565b81146200066957600080fd5b50565b6000813590506200067d8162000652565b92915050565b600080600080600060a08688031215620006a257620006a162000394565b5b600086013567ffffffffffffffff811115620006c357620006c262000399565b5b620006d18882890162000545565b9550506020620006e48882890162000461565b9450506040620006f78882890162000461565b93505060606200070a888289016200066c565b92505060806200071d888289016200066c565b9150509295509295909350565b62000735816200043d565b82525050565b60006020820190506200075260008301846200072a565b92915050565b62000763816200043d565b82525050565b600081519050919050565b600082825260208201905092915050565b60005b83811015620007a557808201518184015260208101905062000788565b83811115620007b5576000848401525b50505050565b6000620007c88262000769565b620007d4818562000774565b9350620007e681856020860162000785565b620007f181620003a3565b840191505092915050565b600060a08301600083015162000816600086018262000758565b5060208301518482036020860152620008308282620007bb565b915050604083015184820360408601526200084c8282620007bb565b915050606083015162000863606086018262000758565b50608083015162000878608086018262000758565b508091505092915050565b6000819050919050565b6000620008ae620008a8620008a2846200061e565b62000883565b6200061e565b9050919050565b6000620008c2826200088d565b9050919050565b6000620008d682620008b5565b9050919050565b620008e881620008c9565b82525050565b6000620008fb82620008b5565b9050919050565b6200090d81620008ee565b82525050565b6200091e816200063e565b82525050565b600060c0820190508181036000830152620009408189620007fc565b9050620009516020830188620008dd565b62000960604083018762000902565b6200096f606083018662000913565b6200097e608083018562000913565b6200098d60a08301846200072a565b97965050505050505056fe60806040523480156200001157600080fd5b5060405162002f7638038062002f76833981810160405281019062000037919062000635565b82600960006101000a81548173ffffffffffffffffffffffffffffffffffffffff021916908373ffffffffffffffffffffffffffffffffffffffff16021790555081600a60006101000a81548173ffffffffffffffffffffffffffffffffffffffff021916908373ffffffffffffffffffffffffffffffffffffffff1602179055508560008082015181600001556020820151816001019080519060200190620000e3929190620001db565b50604082015181600201908051906020019062000102929190620001db565b50606082015181600301556080820151816004015590505084600d60016101000a81548173ffffffffffffffffffffffffffffffffffffffff021916908373ffffffffffffffffffffffffffffffffffffffff16021790555083600e60006101000a81548173ffffffffffffffffffffffffffffffffffffffff021916908373ffffffffffffffffffffffffffffffffffffffff1602179055506103e86008819055506000600b819055506000600d60006101000a81548160ff02191690831515021790555080600c8190555050505050505062000755565b828054620001e9906200071f565b90600052602060002090601f0160209004810192826200020d576000855562000259565b82601f106200022857805160ff191683800117855562000259565b8280016001018555821562000259579182015b82811115620002585782518255916020019190600101906200023b565b5b5090506200026891906200026c565b5090565b5b80821115620002875760008160009055506001016200026d565b5090565b6000604051905090565b600080fd5b600080fd5b600080fd5b6000601f19601f8301169050919050565b7f4e487b7100000000000000000000000000000000000000000000000000000000600052604160045260246000fd5b620002ef82620002a4565b810181811067ffffffffffffffff82111715620003115762000310620002b5565b5b80604052505050565b6000620003266200028b565b9050620003348282620002e4565b919050565b600080fd5b6000819050919050565b62000353816200033e565b81146200035f57600080fd5b50565b600081519050620003738162000348565b92915050565b600080fd5b600080fd5b600067ffffffffffffffff821115620003a157620003a0620002b5565b5b620003ac82620002a4565b9050602081019050919050565b60005b83811015620003d9578082015181840152602081019050620003bc565b83811115620003e9576000848401525b50505050565b600062000406620004008462000383565b6200031a565b9050828152602081018484840111156200042557620004246200037e565b5b62000432848285620003b9565b509392505050565b600082601f83011262000452576200045162000379565b5b815162000464848260208601620003ef565b91505092915050565b600060a082840312156200048657620004856200029f565b5b6200049260a06200031a565b90506000620004a48482850162000362565b600083015250602082015167ffffffffffffffff811115620004cb57620004ca62000339565b5b620004d9848285016200043a565b602083015250604082015167ffffffffffffffff8111156200050057620004ff62000339565b5b6200050e848285016200043a565b6040830152506060620005248482850162000362565b60608301525060806200053a8482850162000362565b60808301525092915050565b600073ffffffffffffffffffffffffffffffffffffffff82169050919050565b6000620005738262000546565b9050919050565b6000620005878262000566565b9050919050565b62000599816200057a565b8114620005a557600080fd5b50565b600081519050620005b9816200058e565b92915050565b6000620005cc8262000566565b9050919050565b620005de81620005bf565b8114620005ea57600080fd5b50565b600081519050620005fe81620005d3565b92915050565b6200060f8162000566565b81146200061b57600080fd5b50565b6000815190506200062f8162000604565b92915050565b60008060008060008060c0878903121562000655576200065462000295565b5b600087015167ffffffffffffffff8111156200067657620006756200029a565b5b6200068489828a016200046d565b96505060206200069789828a01620005a8565b9550506040620006aa89828a01620005ed565b9450506060620006bd89828a016200061e565b9350506080620006d089828a016200061e565b92505060a0620006e389828a0162000362565b9150509295509295509295565b7f4e487b7100000000000000000000000000000000000000000000000000000000600052602260045260246000fd5b600060028204905060018216806200073857607f821691505b602082108114156200074f576200074e620006f0565b5b50919050565b61281180620007656000396000f3fe608060405234801561001057600080fd5b50600436106101005760003560e01c80638220239611610097578063de29278911610066578063de2927891461028d578063df15c37e146102ab578063e04b1c0c146102c9578063ecff1f4b146102e757610100565b8063822023961461020557806386852dca146102355780639baec8b914610253578063a1818ac41461027157610100565b806330a56347116100d357806330a563471461017b57806337349a7d146101995780634e69d560146101b7578063521b0dcc146101d557610100565b806306a49fce1461010557806311174a29146101235780631ca5771414610141578063273ffe861461015f575b600080fd5b61010d610303565b60405161011a919061159b565b60405180910390f35b61012b610490565b60405161013891906115cc565b60405180910390f35b61014961049a565b60405161015691906115cc565b60405180910390f35b61017960048036038101906101749190611802565b6104a4565b005b61018361079a565b60405161019091906115cc565b60405180910390f35b6101a16107a4565b6040516101ae919061188c565b60405180910390f35b6101bf61085e565b6040516101cc919061191e565b60405180910390f35b6101ef60048036038101906101ea9190611965565b610893565b6040516101fc91906119ad565b60405180910390f35b61021f600480360381019061021a91906119c8565b610938565b60405161022c9190611a4c565b60405180910390f35b61023d610a93565b60405161024a9190611aeb565b60405180910390f35b61025b610bef565b604051610268919061188c565b60405180910390f35b61028b60048036038101906102869190611bd5565b610ca9565b005b610295610e37565b6040516102a29190611d07565b60405180910390f35b6102b361105a565b6040516102c09190611d07565b60405180910390f35b6102d1611108565b6040516102de919061188c565b60405180910390f35b61030160048036038101906102fc9190611ded565b611132565b005b60606005805480602002602001604051908101604052809291908181526020016000905b8282101561048757838290600052602060002090600302016040518060600160405290816000820154815260200160018201805461036490611e65565b80601f016020809104026020016040519081016040528092919081815260200182805461039090611e65565b80156103dd5780601f106103b2576101008083540402835291602001916103dd565b820191906000526020600020905b8154815290600101906020018083116103c057829003601f168201915b505050505081526020016002820180546103f690611e65565b80601f016020809104026020016040519081016040528092919081815260200182805461042290611e65565b801561046f5780601f106104445761010080835404028352916020019161046f565b820191906000526020600020905b81548152906001019060200180831161045257829003601f168201915b50505050508152505081526020019060010190610327565b50505050905090565b6000600b54905090565b6000600c54905090565b600a60009054906101000a900473ffffffffffffffffffffffffffffffffffffffff1673ffffffffffffffffffffffffffffffffffffffff163373ffffffffffffffffffffffffffffffffffffffff1614610534576040517f08c379a000000000000000000000000000000000000000000000000000000000815260040161052b90611f1a565b60405180910390fd5b60016002811115610548576105476118a7565b5b61055061085e565b6002811115610562576105616118a7565b5b146105a2576040517f08c379a000000000000000000000000000000000000000000000000000000000815260040161059990611fac565b60405180910390fd5b600060016008546105b39190611ffb565b9050808260000181815250506005829080600181540180825580915050600190039060005260206000209060030201600090919091909150600082015181600001556020820151816001019080519060200190610611929190611290565b50604082015181600201908051906020019061062e929190611290565b505050600d60019054906101000a900473ffffffffffffffffffffffffffffffffffffffff1673ffffffffffffffffffffffffffffffffffffffff1663e844d09783600001516040518263ffffffff1660e01b815260040161069091906115cc565b600060405180830381600087803b1580156106aa57600080fd5b505af11580156106be573d6000803e3d6000fd5b50505050816007600084600001518152602001908152602001600020600082015181600001556020820151816001019080519060200190610700929190611290565b50604082015181600201908051906020019061071d929190611290565b509050506008600081548092919061073490612051565b91905055507f4d9dd414a40890e16b7bd0ea98bdf9d5b55c3d20cfe4b18febda0d60fb32a60c30600d60019054906101000a900473ffffffffffffffffffffffffffffffffffffffff168460405161078e9392919061209a565b60405180910390a15050565b6000600854905090565b6000600960009054906101000a900473ffffffffffffffffffffffffffffffffffffffff1673ffffffffffffffffffffffffffffffffffffffff163373ffffffffffffffffffffffffffffffffffffffff1614610836576040517f08c379a000000000000000000000000000000000000000000000000000000000815260040161082d9061214a565b60405180910390fd5b600e60009054906101000a900473ffffffffffffffffffffffffffffffffffffffff16905090565b600080600301544210156108755760019050610890565b60006004015442101561088b5760009050610890565b600290505b90565b6000600d60019054906101000a900473ffffffffffffffffffffffffffffffffffffffff1673ffffffffffffffffffffffffffffffffffffffff1663521b0dcc836040518263ffffffff1660e01b81526004016108f0919061188c565b602060405180830381865afa15801561090d573d6000803e3d6000fd5b505050506040513d601f19601f820116820180604052508101906109319190612196565b9050919050565b610940611316565b600760008381526020019081526020016000206040518060600160405290816000820154815260200160018201805461097890611e65565b80601f01602080910402602001604051908101604052809291908181526020018280546109a490611e65565b80156109f15780601f106109c6576101008083540402835291602001916109f1565b820191906000526020600020905b8154815290600101906020018083116109d457829003601f168201915b50505050508152602001600282018054610a0a90611e65565b80601f0160208091040260200160405190810160405280929190818152602001828054610a3690611e65565b8015610a835780601f10610a5857610100808354040283529160200191610a83565b820191906000526020600020905b815481529060010190602001808311610a6657829003601f168201915b5050505050815250509050919050565b610a9b611337565b60006040518060a001604052908160008201548152602001600182018054610ac290611e65565b80601f0160208091040260200160405190810160405280929190818152602001828054610aee90611e65565b8015610b3b5780601f10610b1057610100808354040283529160200191610b3b565b820191906000526020600020905b815481529060010190602001808311610b1e57829003601f168201915b50505050508152602001600282018054610b5490611e65565b80601f0160208091040260200160405190810160405280929190818152602001828054610b8090611e65565b8015610bcd5780601f10610ba257610100808354040283529160200191610bcd565b820191906000526020600020905b815481529060010190602001808311610bb057829003601f168201915b5050505050815260200160038201548152602001600482015481525050905090565b6000600960009054906101000a900473ffffffffffffffffffffffffffffffffffffffff1673ffffffffffffffffffffffffffffffffffffffff163373ffffffffffffffffffffffffffffffffffffffff1614610c81576040517f08c379a0000000000000000000000000000000000000000000000000000000008152600401610c789061214a565b60405180910390fd5b600d60019054906101000a900473ffffffffffffffffffffffffffffffffffffffff16905090565b60006002811115610cbd57610cbc6118a7565b5b610cc561085e565b6002811115610cd757610cd66118a7565b5b14610d17576040517f08c379a0000000000000000000000000000000000000000000000000000000008152600401610d0e90612235565b60405180910390fd5b600d60019054906101000a900473ffffffffffffffffffffffffffffffffffffffff1673ffffffffffffffffffffffffffffffffffffffff1663a1818ac4858585856040518563ffffffff1660e01b8152600401610d789493929190612255565b600060405180830381600087803b158015610d9257600080fd5b505af1158015610da6573d6000803e3d6000fd5b50505050600b6000815480929190610dbd90612051565b91905055507fd589db416dab4dff131e94610b2d02ce215ded85a2943a2ea59acd2153a85182600d60019054906101000a900473ffffffffffffffffffffffffffffffffffffffff166007600086815260200190815260200160002084604051610e29939291906123c9565b60405180910390a150505050565b6060600280811115610e4c57610e4b6118a7565b5b610e5461085e565b6002811115610e6657610e656118a7565b5b14610ea6576040517f08c379a0000000000000000000000000000000000000000000000000000000008152600401610e9d90612479565b60405180910390fd5b60001515600d60009054906101000a900460ff161515141561104c57600e60009054906101000a900473ffffffffffffffffffffffffffffffffffffffff1673ffffffffffffffffffffffffffffffffffffffff1663c8344a20600d60019054906101000a900473ffffffffffffffffffffffffffffffffffffffff16600b546040518363ffffffff1660e01b8152600401610f439291906124f8565b6000604051808303816000875af1158015610f62573d6000803e3d6000fd5b505050506040513d6000823e3d601f19601f82011682018060405250810190610f8b91906125cd565b60069080519060200190610fa0929190611366565b506001600d60006101000a81548160ff0219169083151502179055507f28e5f582afeee46fd13ea548ad814f45b1d4a5159990336d5e66deb48a960e4c6006604051610fec91906126bb565b60405180910390a1600680548060200260200160405190810160405280929190818152602001828054801561104057602002820191906000526020600020905b81548152602001906001019080831161102c575b50505050509050611057565b61105461105a565b90505b90565b606060011515600d60009054906101000a900460ff161515146110b2576040517f08c379a00000000000000000000000000000000000000000000000000000000081526004016110a990612729565b60405180910390fd5b60068054806020026020016040519081016040528092919081815260200182805480156110fe57602002820191906000526020600020905b8154815260200190600101908083116110ea575b5050505050905090565b6000600960009054906101000a900473ffffffffffffffffffffffffffffffffffffffff16905090565b600960009054906101000a900473ffffffffffffffffffffffffffffffffffffffff1673ffffffffffffffffffffffffffffffffffffffff163373ffffffffffffffffffffffffffffffffffffffff16146111c2576040517f08c379a00000000000000000000000000000000000000000000000000000000081526004016111b99061214a565b60405180910390fd5b600160028111156111d6576111d56118a7565b5b6111de61085e565b60028111156111f0576111ef6118a7565b5b14611230576040517f08c379a0000000000000000000000000000000000000000000000000000000008152600401611227906127bb565b60405180910390fd5b8060008082015181600001556020820151816001019080519060200190611258929190611290565b506040820151816002019080519060200190611275929190611290565b50606082015181600301556080820151816004015590505050565b82805461129c90611e65565b90600052602060002090601f0160209004810192826112be5760008555611305565b82601f106112d757805160ff1916838001178555611305565b82800160010185558215611305579182015b828111156113045782518255916020019190600101906112e9565b5b50905061131291906113b3565b5090565b60405180606001604052806000815260200160608152602001606081525090565b6040518060a0016040528060008152602001606081526020016060815260200160008152602001600081525090565b8280548282559060005260206000209081019282156113a2579160200282015b828111156113a1578251825591602001919060010190611386565b5b5090506113af91906113b3565b5090565b5b808211156113cc5760008160009055506001016113b4565b5090565b600081519050919050565b600082825260208201905092915050565b6000819050602082019050919050565b6000819050919050565b61140f816113fc565b82525050565b600081519050919050565b600082825260208201905092915050565b60005b8381101561144f578082015181840152602081019050611434565b8381111561145e576000848401525b50505050565b6000601f19601f8301169050919050565b600061148082611415565b61148a8185611420565b935061149a818560208601611431565b6114a381611464565b840191505092915050565b60006060830160008301516114c66000860182611406565b50602083015184820360208601526114de8282611475565b915050604083015184820360408601526114f88282611475565b9150508091505092915050565b600061151183836114ae565b905092915050565b6000602082019050919050565b6000611531826113d0565b61153b81856113db565b93508360208202850161154d856113ec565b8060005b85811015611589578484038952815161156a8582611505565b945061157583611519565b925060208a01995050600181019050611551565b50829750879550505050505092915050565b600060208201905081810360008301526115b58184611526565b905092915050565b6115c6816113fc565b82525050565b60006020820190506115e160008301846115bd565b92915050565b6000604051905090565b600080fd5b600080fd5b600080fd5b7f4e487b7100000000000000000000000000000000000000000000000000000000600052604160045260246000fd5b61163882611464565b810181811067ffffffffffffffff8211171561165757611656611600565b5b80604052505050565b600061166a6115e7565b9050611676828261162f565b919050565b600080fd5b611689816113fc565b811461169457600080fd5b50565b6000813590506116a681611680565b92915050565b600080fd5b600080fd5b600067ffffffffffffffff8211156116d1576116d0611600565b5b6116da82611464565b9050602081019050919050565b82818337600083830152505050565b6000611709611704846116b6565b611660565b905082815260208101848484011115611725576117246116b1565b5b6117308482856116e7565b509392505050565b600082601f83011261174d5761174c6116ac565b5b813561175d8482602086016116f6565b91505092915050565b60006060828403121561177c5761177b6115fb565b5b6117866060611660565b9050600061179684828501611697565b600083015250602082013567ffffffffffffffff8111156117ba576117b961167b565b5b6117c684828501611738565b602083015250604082013567ffffffffffffffff8111156117ea576117e961167b565b5b6117f684828501611738565b60408301525092915050565b600060208284031215611818576118176115f1565b5b600082013567ffffffffffffffff811115611836576118356115f6565b5b61184284828501611766565b91505092915050565b600073ffffffffffffffffffffffffffffffffffffffff82169050919050565b60006118768261184b565b9050919050565b6118868161186b565b82525050565b60006020820190506118a1600083018461187d565b92915050565b7f4e487b7100000000000000000000000000000000000000000000000000000000600052602160045260246000fd5b600381106118e7576118e66118a7565b5b50565b60008190506118f8826118d6565b919050565b6000611908826118ea565b9050919050565b611918816118fd565b82525050565b6000602082019050611933600083018461190f565b92915050565b6119428161186b565b811461194d57600080fd5b50565b60008135905061195f81611939565b92915050565b60006020828403121561197b5761197a6115f1565b5b600061198984828501611950565b91505092915050565b60008115159050919050565b6119a781611992565b82525050565b60006020820190506119c2600083018461199e565b92915050565b6000602082840312156119de576119dd6115f1565b5b60006119ec84828501611697565b91505092915050565b6000606083016000830151611a0d6000860182611406565b5060208301518482036020860152611a258282611475565b91505060408301518482036040860152611a3f8282611475565b9150508091505092915050565b60006020820190508181036000830152611a6681846119f5565b905092915050565b600060a083016000830151611a866000860182611406565b5060208301518482036020860152611a9e8282611475565b91505060408301518482036040860152611ab88282611475565b9150506060830151611acd6060860182611406565b506080830151611ae06080860182611406565b508091505092915050565b60006020820190508181036000830152611b058184611a6e565b905092915050565b600067ffffffffffffffff821115611b2857611b27611600565b5b602082029050602081019050919050565b600080fd5b6000611b51611b4c84611b0d565b611660565b90508083825260208201905060208402830185811115611b7457611b73611b39565b5b835b81811015611b9d5780611b898882611697565b845260208401935050602081019050611b76565b5050509392505050565b600082601f830112611bbc57611bbb6116ac565b5b8135611bcc848260208601611b3e565b91505092915050565b60008060008060808587031215611bef57611bee6115f1565b5b6000611bfd87828801611950565b9450506020611c0e87828801611697565b9350506040611c1f87828801611697565b925050606085013567ffffffffffffffff811115611c4057611c3f6115f6565b5b611c4c87828801611ba7565b91505092959194509250565b600081519050919050565b600082825260208201905092915050565b6000819050602082019050919050565b6000611c908383611406565b60208301905092915050565b6000602082019050919050565b6000611cb482611c58565b611cbe8185611c63565b9350611cc983611c74565b8060005b83811015611cfa578151611ce18882611c84565b9750611cec83611c9c565b925050600181019050611ccd565b5085935050505092915050565b60006020820190508181036000830152611d218184611ca9565b905092915050565b600060a08284031215611d3f57611d3e6115fb565b5b611d4960a0611660565b90506000611d5984828501611697565b600083015250602082013567ffffffffffffffff811115611d7d57611d7c61167b565b5b611d8984828501611738565b602083015250604082013567ffffffffffffffff811115611dad57611dac61167b565b5b611db984828501611738565b6040830152506060611dcd84828501611697565b6060830152506080611de184828501611697565b60808301525092915050565b600060208284031215611e0357611e026115f1565b5b600082013567ffffffffffffffff811115611e2157611e206115f6565b5b611e2d84828501611d29565b91505092915050565b7f4e487b7100000000000000000000000000000000000000000000000000000000600052602260045260246000fd5b60006002820490506001821680611e7d57607f821691505b60208210811415611e9157611e90611e36565b5b50919050565b600082825260208201905092915050565b7f4d7573742062652063616c6c65642066726f6d2074686520656c656374696f6e60008201527f206f7267616e697a657220636f6e747261637400000000000000000000000000602082015250565b6000611f04603383611e97565b9150611f0f82611ea8565b604082019050919050565b60006020820190508181036000830152611f3381611ef7565b9050919050565b7f43616e6e6f74206164642063616e6469646174657320616674657220656c656360008201527f74696f6e20686173207374617274656400000000000000000000000000000000602082015250565b6000611f96603083611e97565b9150611fa182611f3a565b604082019050919050565b60006020820190508181036000830152611fc581611f89565b9050919050565b7f4e487b7100000000000000000000000000000000000000000000000000000000600052601160045260246000fd5b6000612006826113fc565b9150612011836113fc565b9250827fffffffffffffffffffffffffffffffffffffffffffffffffffffffffffffffff0382111561204657612045611fcc565b5b828201905092915050565b600061205c826113fc565b91507fffffffffffffffffffffffffffffffffffffffffffffffffffffffffffffffff82141561208f5761208e611fcc565b5b600182019050919050565b60006060820190506120af600083018661187d565b6120bc602083018561187d565b81810360408301526120ce81846119f5565b9050949350505050565b7f43616c6c6572206d7573742062652074686520656c656374696f6e206f72676160008201527f6e697a6572000000000000000000000000000000000000000000000000000000602082015250565b6000612134602583611e97565b915061213f826120d8565b604082019050919050565b6000602082019050818103600083015261216381612127565b9050919050565b61217381611992565b811461217e57600080fd5b50565b6000815190506121908161216a565b92915050565b6000602082840312156121ac576121ab6115f1565b5b60006121ba84828501612181565b91505092915050565b7f456c656374696f6e206e6565647320746f2062652061637469766520746f207660008201527f6f74650000000000000000000000000000000000000000000000000000000000602082015250565b600061221f602383611e97565b915061222a826121c3565b604082019050919050565b6000602082019050818103600083015261224e81612212565b9050919050565b600060808201905061226a600083018761187d565b61227760208301866115bd565b61228460408301856115bd565b81810360608301526122968184611ca9565b905095945050505050565b60008160001c9050919050565b6000819050919050565b60006122cb6122c6836122a1565b6122ae565b9050919050565b60008190508160005260206000209050919050565b600081546122f481611e65565b6122fe8186611420565b94506001821660008114612319576001811461232b5761235e565b60ff198316865260208601935061235e565b612334856122d2565b60005b8381101561235657815481890152600182019150602081019050612337565b808801955050505b50505092915050565b600060608301600080840154905061237e816122b8565b61238b6000870182611406565b506001840185830360208701526123a283826122e7565b9250506002840185830360408701526123bb83826122e7565b925050819250505092915050565b60006060820190506123de600083018661187d565b81810360208301526123f08185612367565b90506123ff60408301846115bd565b949350505050565b7f526573756c747320617265206465636c61726564206f6e6c792061667465722060008201527f74686520656c656374696f6e20656e6473000000000000000000000000000000602082015250565b6000612463603183611e97565b915061246e82612407565b604082019050919050565b6000602082019050818103600083015261249281612456565b9050919050565b6000819050919050565b60006124be6124b96124b48461184b565b612499565b61184b565b9050919050565b60006124d0826124a3565b9050919050565b60006124e2826124c5565b9050919050565b6124f2816124d7565b82525050565b600060408201905061250d60008301856124e9565b61251a60208301846115bd565b9392505050565b60008151905061253081611680565b92915050565b600061254961254484611b0d565b611660565b9050808382526020820190506020840283018581111561256c5761256b611b39565b5b835b8181101561259557806125818882612521565b84526020840193505060208101905061256e565b5050509392505050565b600082601f8301126125b4576125b36116ac565b5b81516125c4848260208601612536565b91505092915050565b6000602082840312156125e3576125e26115f1565b5b600082015167ffffffffffffffff811115612601576126006115f6565b5b61260d8482850161259f565b91505092915050565b600081549050919050565b60008190508160005260206000209050919050565b600061264282546122b8565b9050919050565b6000600182019050919050565b600061266182612616565b61266b8185611c63565b935061267683612621565b8060005b838110156126ae5761268b82612636565b6126958882611c84565b97506126a083612649565b92505060018101905061267a565b5085935050505092915050565b600060208201905081810360008301526126d58184612656565b905092915050565b7f526573756c7473206172656e2774206465636c61726564207965740000000000600082015250565b6000612713601b83611e97565b915061271e826126dd565b602082019050919050565b6000602082019050818103600083015261274281612706565b9050919050565b7f43616e6e6f742075706461746520656c656374696f6e20696e666f206166746560008201527f7220656c656374696f6e20686173207374617274656400000000000000000000602082015250565b60006127a5603683611e97565b91506127b082612749565b604082019050919050565b600060208201905081810360008301526127d481612798565b905091905056fea26469706673582212209d9e3b84c941033488ca171793c31b0ac25cbbbc46921ee2295f032189018e2d64736f6c634300080a0033a26469706673582212202016c645040ac0c64c51c523c0e1965611ac3a86a6f80723f0a5b9cd38678ada64736f6c634300080a0033",
  "linkReferences": {},
  "deployedLinkReferences": {}
}