{
  "_format": "hh-sol-artifact-1",
  "contractName": "ParticipationProofs",
  "sourceName": "contracts/ParticipationProofs.sol",
  "abi": [
    {
      "anonymous": false,
      "inputs": [
        {
          "indexed": true,
          "internalType": "address",
          "name": "voter",
          "type": "address"
        },
        {
          "indexed": false,
          "internalType": "uint256",
          "name": "timestamp",
          "type": "uint256"
        }
      ],
      "name": "ProofLogged",
      "type": "event"
    },
    {
      "inputs": [
        {
          "internalType": "address",
          "name": "voter",
          "type": "address"
        }
      ],
      "name": "hasParticipated",
      "outputs": [
        {
          "internalType": "bool",
          "name": "",
          "type": "bool"
        }
      ],
      "stateMutability": "view",
      "type": "function"
    },
    {
      "inputs": [
        {
          "internalType": "address",
          "name": "voter",
          "type": "address"
        },
        {
          "internalType": "bytes[]",
          "name": "proposal",
          "type": "bytes[]"
        },
        {
          "internalType": "uint256",
          "name": "timestamp",
          "type": "uint256"
        }
      ],
      "name": "recordProof",
      "outputs": [],
      "stateMutability": "nonpayable",
      "type": "function"
    }
  ],
  "bytecode": "0x608060405234801561001057600080fd5b50610695806100206000396000f3fe608060405234801561001057600080fd5b50600436106100365760003560e01c80638a7d3d6c1461003b578063b4fb3ee314610057575b600080fd5b610055600480360381019061005091906104e6565b610087565b005b610071600480360381019061006c9190610555565b6101bd565b60405161007e919061059d565b60405180910390f35b6000808473ffffffffffffffffffffffffffffffffffffffff1673ffffffffffffffffffffffffffffffffffffffff16815260200190815260200160002060009054906101000a900460ff1615610113576040517f08c379a000000000000000000000000000000000000000000000000000000000815260040161010a90610615565b60405180910390fd5b60016000808573ffffffffffffffffffffffffffffffffffffffff1673ffffffffffffffffffffffffffffffffffffffff16815260200190815260200160002060006101000a81548160ff0219169083151502179055508273ffffffffffffffffffffffffffffffffffffffff167faf8a9684eae43788cc5bcbcc1ac1c5a03fd9a8266ca4305b6f3e371774b52596826040516101b09190610644565b60405180910390a2505050565b60008060008373ffffffffffffffffffffffffffffffffffffffff1673ffffffffffffffffffffffffffffffffffffffff16815260200190815260200160002060009054906101000a900460ff169050919050565b6000604051905090565b600080fd5b600080fd5b600073ffffffffffffffffffffffffffffffffffffffff82169050919050565b600061025182610226565b9050919050565b61026181610246565b811461026c57600080fd5b50565b60008135905061027e81610258565b92915050565b600080fd5b6000601f19601f8301169050919050565b7f4e487b7100000000000000000000000000000000000000000000000000000000600052604160045260246000fd5b6102d282610289565b810181811067ffffffffffffffff821117156102f1576102f061029a565b5b80604052505050565b6000610304610212565b905061031082826102c9565b919050565b600067ffffffffffffffff8211156103305761032f61029a565b5b602082029050602081019050919050565b600080fd5b600080fd5b600067ffffffffffffffff8211156103665761036561029a565b5b61036f82610289565b9050602081019050919050565b82818337600083830152505050565b600061039e6103998461034b565b6102fa565b9050828152602081018484840111156103ba576103b9610346565b5b6103c584828561037c565b509392505050565b600082601f8301126103e2576103e1610284565b5b81356103f284826020860161038b565b91505092915050565b600061040e61040984610315565b6102fa565b9050808382526020820190506020840283018581111561043157610430610341565b5b835b8181101561047857803567ffffffffffffffff81111561045657610455610284565b5b80860161046389826103cd565b85526020850194505050602081019050610433565b5050509392505050565b600082601f83011261049757610496610284565b5b81356104a78482602086016103fb565b91505092915050565b6000819050919050565b6104c3816104b0565b81146104ce57600080fd5b50565b6000813590506104e0816104ba565b92915050565b6000806000606084860312156104ff576104fe61021c565b5b600061050d8682870161026f565b935050602084013567ffffffffffffffff81111561052e5761052d610221565b5b61053a86828701610482565b925050604061054b868287016104d1565b9150509250925092565b60006020828403121561056b5761056a61021c565b5b60006105798482850161026f565b91505092915050565b60008115159050919050565b61059781610582565b82525050565b60006020820190506105b2600083018461058e565b92915050565b600082825260208201905092915050565b7f566f7465722068617320616c7265616479207061727469636970617465642e00600082015250565b60006105ff601f836105b8565b915061060a826105c9565b602082019050919050565b6000602082019050818103600083015261062e816105f2565b9050919050565b61063e816104b0565b82525050565b60006020820190506106596000830184610635565b9291505056fea2646970667358221220b1ff12a6547eb10f117804a5ce4733619f5096b6c0302a4bf41a54c21d2b456664736f6c634300080a0033",
  "linkReferences": {},
  "deployedLinkReferences": {}
}