{"abi":[{"type":"function","name":"calculateIRVResult","inputs":[{"name":"returnData","type":"bytes","internalType":"bytes"}],"outputs":[{"name":"winners","type":"uint256[]","internalType":"uint256[]"}],"stateMutability":"pure"},{"type":"error","name":"CandidatesTie","inputs":[]},{"type":"error","name":"NoCandidates","inputs":[]},{"type":"error","name":"NoWinner","inputs":[]},{"type":"error","name":"VotesExhausted","inputs":[]}],"bytecode":{"object":"0x6080604052348015600e575f5ffd5b50610a858061001c5f395ff3fe608060405234801561000f575f5ffd5b5060043610610029575f3560e01c8063b22656531461002d575b5f5ffd5b61004061003b3660046107d1565b610056565b60405161004d9190610865565b60405180910390f35b60605f8280602001905181019061006d91906108ca565b90506100788161007f565b9392505050565b60605f825f81518110610094576100946109dd565b602002602001015151905060028110156100b15761007881610569565b5f8167ffffffffffffffff8111156100cb576100cb61078c565b6040519080825280602002602001820160405280156100f4578160200160208202803683370190505b5090505f5b828110156101275780828281518110610114576101146109dd565b60209081029190910101526001016100f9565b505b5f61013485846105d0565b90505f5b81518110156101bf576002865161014f9190610a05565b828281518110610161576101616109dd565b602002602001015111156101b757604080516001808252818301909252906020808301908036833701905050945080855f815181106101a2576101a26109dd565b60200260200101818152505050505050919050565b600101610138565b5084518060015f5b845181101561028d57838582815181106101e3576101e36109dd565b602002602001015110801561021057505f858281518110610206576102066109dd565b6020026020010151115b1561023c57848181518110610227576102276109dd565b602002602001015193508092505f9150610285565b8385828151811061024f5761024f6109dd565b602002602001015114801561027c57505f858281518110610272576102726109dd565b6020026020010151115b15610285575f91505b6001016101c7565b5080156103b3575f8667ffffffffffffffff8111156102ae576102ae61078c565b6040519080825280602002602001820160405280156102d7578160200160208202803683370190505b5090505f805b865181101561033b575f8782815181106102f9576102f96109dd565b60200260200101511115610333578083838151811061031a5761031a6109dd565b60209081029190910101528161032f81610a24565b9250505b6001016102dd565b5060408051600280825260608201835290916020830190803683370190505098505f5b818110156103a557828181518110610378576103786109dd565b60200260200101518a8281518110610392576103926109dd565b602090810291909101015260010161035e565b505050505050505050919050565b5f5b8851811015610406576103e18982815181106103d3576103d36109dd565b6020026020010151846106b4565b8982815181106103f3576103f36109dd565b60209081029190910101526001016103b5565b5060015f5b8951811015610446575f8a8281518110610427576104276109dd565b602002602001015151111561043e575f9150610446565b60010161040b565b50801561055f575f805b8751811015610490578a5188828151811061046d5761046d6109dd565b602002602001015114610488578161048481610a24565b9250505b600101610450565b508067ffffffffffffffff8111156104aa576104aa61078c565b6040519080825280602002602001820160405280156104d3578160200160208202803683370190505b5098505f805b8851811015610550578b518982815181106104f6576104f66109dd565b60200260200101511461054857888181518110610515576105156109dd565b60200260200101518b838151811061052f5761052f6109dd565b60209081029190910101528161054481610a24565b9250505b6001016104d9565b50505050505050505050919050565b5050505050610129565b6060815f0361058b57604051638b9ae95f60e01b815260040160405180910390fd5b6040805160018082528183019092525f91602080830190803683370190505090505f815f815181106105bf576105bf6109dd565b602090810291909101015292915050565b60605f8267ffffffffffffffff8111156105ec576105ec61078c565b604051908082528060200260200182016040528015610615578160200160208202803683370190505b5090505f5b84518110156106aa575f858281518110610636576106366109dd565b60200260200101515111156106a25781858281518110610658576106586109dd565b60200260200101515f81518110610671576106716109dd565b602002602001015181518110610689576106896109dd565b60200260200101805180919061069e90610a24565b9052505b60010161061a565b5090505b92915050565b60605f600184516106c59190610a3c565b67ffffffffffffffff8111156106dd576106dd61078c565b604051908082528060200260200182016040528015610706578160200160208202803683370190505b5090505f805b85518110156107825784868281518110610728576107286109dd565b60200260200101511461077a57858181518110610747576107476109dd565b6020026020010151838381518110610761576107616109dd565b60209081029190910101528161077681610a24565b9250505b60010161070c565b5090949350505050565b634e487b7160e01b5f52604160045260245ffd5b604051601f8201601f1916810167ffffffffffffffff811182821017156107c9576107c961078c565b604052919050565b5f602082840312156107e1575f5ffd5b813567ffffffffffffffff8111156107f7575f5ffd5b8201601f81018413610807575f5ffd5b803567ffffffffffffffff8111156108215761082161078c565b610834601f8201601f19166020016107a0565b818152856020838501011115610848575f5ffd5b816020840160208301375f91810160200191909152949350505050565b602080825282518282018190525f918401906040840190835b8181101561089c57835183526020938401939092019160010161087e565b509095945050505050565b5f67ffffffffffffffff8211156108c0576108c061078c565b5060051b60200190565b5f602082840312156108da575f5ffd5b815167ffffffffffffffff8111156108f0575f5ffd5b8201601f81018413610900575f5ffd5b805161091361090e826108a7565b6107a0565b8082825260208201915060208360051b850101925086831115610934575f5ffd5b602084015b838110156109d257805167ffffffffffffffff811115610957575f5ffd5b8501603f81018913610967575f5ffd5b602081015161097861090e826108a7565b808282526020820191506020808460051b8601010192508b83111561099b575f5ffd5b6040840193505b828410156109bd5783518252602093840193909101906109a2565b86525050602093840193919091019050610939565b509695505050505050565b634e487b7160e01b5f52603260045260245ffd5b634e487b7160e01b5f52601160045260245ffd5b5f82610a1f57634e487b7160e01b5f52601260045260245ffd5b500490565b5f60018201610a3557610a356109f1565b5060010190565b818103818111156106ae576106ae6109f156fea2646970667358221220d5d13c40e8a9e1cb87167bdb73be5adcf4341b5e71e0f7109f8257463b4b7cdc64736f6c634300081c0033","linkReferences":{}},"methodIdentifiers":{"calculateIRVResult(bytes)":"b2265653"},"id":14}