{
  "_format": "hh-sol-artifact-1",
  "contractName": "ElectionStorage",
  "sourceName": "contracts/facets/votingApp/ElectionStorage.sol",
  "abi": [
    {
      "inputs": [
        {
          "internalType": "address",
          "name": "election",
          "type": "address"
        },
        {
          "internalType": "address",
          "name": "_organizer",
          "type": "address"
        }
      ],
      "name": "addElection",
      "outputs": [],
      "stateMutability": "nonpayable",
      "type": "function"
    },
    {
      "inputs": [
        {
          "internalType": "address",
          "name": "_organizer",
          "type": "address"
        },
        {
          "internalType": "address",
          "name": "_election",
          "type": "address"
        }
      ],
      "name": "addOrganizerToInviteBasedElection",
      "outputs": [],
      "stateMutability": "nonpayable",
      "type": "function"
    },
    {
      "inputs": [],
      "name": "getElectionCount",
      "outputs": [
        {
          "internalType": "uint256",
          "name": "",
          "type": "uint256"
        }
      ],
      "stateMutability": "view",
      "type": "function"
    },
    {
      "inputs": [
        {
          "internalType": "address",
          "name": "_organizer",
          "type": "address"
        }
      ],
      "name": "getInviteBasedElections",
      "outputs": [
        {
          "internalType": "address[]",
          "name": "",
          "type": "address[]"
        }
      ],
      "stateMutability": "view",
      "type": "function"
    },
    {
      "inputs": [],
      "name": "getOpenBasedElections",
      "outputs": [
        {
          "internalType": "address[]",
          "name": "",
          "type": "address[]"
        }
      ],
      "stateMutability": "view",
      "type": "function"
    }
  ],
  "bytecode": "0x608060405234801561001057600080fd5b50610c55806100206000396000f3fe608060405234801561001057600080fd5b50600436106100575760003560e01c8063213785a01461005c578063761db9fb1461007a5780637d1659fa1461009857806387b4e8d3146100b4578063e5999c2b146100d0575b600080fd5b610064610100565b6040516100719190610631565b60405180910390f35b61008261010a565b60405161008f919061073c565b60405180910390f35b6100b260048036038101906100ad919061079e565b610198565b005b6100ce60048036038101906100c9919061079e565b610301565b005b6100ea60048036038101906100e591906107de565b61054b565b6040516100f7919061073c565b60405180910390f35b6000600454905090565b6060600180548060200260200160405190810160405280929190818152602001828054801561018e57602002820191906000526020600020905b8160009054906101000a900473ffffffffffffffffffffffffffffffffffffffff1673ffffffffffffffffffffffffffffffffffffffff1681526020019060010190808311610144575b5050505050905090565b60001515600360008373ffffffffffffffffffffffffffffffffffffffff1673ffffffffffffffffffffffffffffffffffffffff16815260200190815260200160002060008473ffffffffffffffffffffffffffffffffffffffff1673ffffffffffffffffffffffffffffffffffffffff16815260200190815260200160002060009054906101000a900460ff16151514610268576040517f08c379a000000000000000000000000000000000000000000000000000000000815260040161025f9061088e565b60405180910390fd5b6001600360008373ffffffffffffffffffffffffffffffffffffffff1673ffffffffffffffffffffffffffffffffffffffff16815260200190815260200160002060008473ffffffffffffffffffffffffffffffffffffffff1673ffffffffffffffffffffffffffffffffffffffff16815260200190815260200160002060006101000a81548160ff0219169083151502179055505050565b600082905060046000815480929190610319906108dd565b919050555060008173ffffffffffffffffffffffffffffffffffffffff166386852dca6040518163ffffffff1660e01b8152600401600060405180830381865afa15801561036b573d6000803e3d6000fd5b505050506040513d6000823e3d601f19601f820116820180604052508101906103949190610bd6565b60a00151905060011515811515141561040f576001829080600181540180825580915050600190039060005260206000200160009091909190916101000a81548173ffffffffffffffffffffffffffffffffffffffff021916908373ffffffffffffffffffffffffffffffffffffffff160217905550610545565b600260008473ffffffffffffffffffffffffffffffffffffffff1673ffffffffffffffffffffffffffffffffffffffff168152602001908152602001600020829080600181540180825580915050600190039060005260206000200160009091909190916101000a81548173ffffffffffffffffffffffffffffffffffffffff021916908373ffffffffffffffffffffffffffffffffffffffff1602179055506001600360008673ffffffffffffffffffffffffffffffffffffffff1673ffffffffffffffffffffffffffffffffffffffff16815260200190815260200160002060008573ffffffffffffffffffffffffffffffffffffffff1673ffffffffffffffffffffffffffffffffffffffff16815260200190815260200160002060006101000a81548160ff0219169083151502179055505b50505050565b6060600260008373ffffffffffffffffffffffffffffffffffffffff1673ffffffffffffffffffffffffffffffffffffffff16815260200190815260200160002080548060200260200160405190810160405280929190818152602001828054801561060c57602002820191906000526020600020905b8160009054906101000a900473ffffffffffffffffffffffffffffffffffffffff1673ffffffffffffffffffffffffffffffffffffffff16815260200190600101908083116105c2575b50505050509050919050565b6000819050919050565b61062b81610618565b82525050565b60006020820190506106466000830184610622565b92915050565b600081519050919050565b600082825260208201905092915050565b6000819050602082019050919050565b600073ffffffffffffffffffffffffffffffffffffffff82169050919050565b60006106a382610678565b9050919050565b6106b381610698565b82525050565b60006106c583836106aa565b60208301905092915050565b6000602082019050919050565b60006106e98261064c565b6106f38185610657565b93506106fe83610668565b8060005b8381101561072f57815161071688826106b9565b9750610721836106d1565b925050600181019050610702565b5085935050505092915050565b6000602082019050818103600083015261075681846106de565b905092915050565b6000604051905090565b600080fd5b600080fd5b61077b81610698565b811461078657600080fd5b50565b60008135905061079881610772565b92915050565b600080604083850312156107b5576107b4610768565b5b60006107c385828601610789565b92505060206107d485828601610789565b9150509250929050565b6000602082840312156107f4576107f3610768565b5b600061080284828501610789565b91505092915050565b600082825260208201905092915050565b7f4f7267616e697a657220616c726561647920616464656420746f20746869732060008201527f656c656374696f6e000000000000000000000000000000000000000000000000602082015250565b600061087860288361080b565b91506108838261081c565b604082019050919050565b600060208201905081810360008301526108a78161086b565b9050919050565b7f4e487b7100000000000000000000000000000000000000000000000000000000600052601160045260246000fd5b60006108e882610618565b91507fffffffffffffffffffffffffffffffffffffffffffffffffffffffffffffffff82141561091b5761091a6108ae565b5b600182019050919050565b600080fd5b6000601f19601f8301169050919050565b7f4e487b7100000000000000000000000000000000000000000000000000000000600052604160045260246000fd5b6109748261092b565b810181811067ffffffffffffffff821117156109935761099261093c565b5b80604052505050565b60006109a661075e565b90506109b2828261096b565b919050565b600080fd5b6109c581610618565b81146109d057600080fd5b50565b6000815190506109e2816109bc565b92915050565b600080fd5b600080fd5b600067ffffffffffffffff821115610a0d57610a0c61093c565b5b610a168261092b565b9050602081019050919050565b60005b83811015610a41578082015181840152602081019050610a26565b83811115610a50576000848401525b50505050565b6000610a69610a64846109f2565b61099c565b905082815260208101848484011115610a8557610a846109ed565b5b610a90848285610a23565b509392505050565b600082601f830112610aad57610aac6109e8565b5b8151610abd848260208601610a56565b91505092915050565b60008115159050919050565b610adb81610ac6565b8114610ae657600080fd5b50565b600081519050610af881610ad2565b92915050565b600060c08284031215610b1457610b13610926565b5b610b1e60c061099c565b90506000610b2e848285016109d3565b600083015250602082015167ffffffffffffffff811115610b5257610b516109b7565b5b610b5e84828501610a98565b602083015250604082015167ffffffffffffffff811115610b8257610b816109b7565b5b610b8e84828501610a98565b6040830152506060610ba2848285016109d3565b6060830152506080610bb6848285016109d3565b60808301525060a0610bca84828501610ae9565b60a08301525092915050565b600060208284031215610bec57610beb610768565b5b600082015167ffffffffffffffff811115610c0a57610c0961076d565b5b610c1684828501610afe565b9150509291505056fea2646970667358221220663042fefed2e3160b7966fba8dc1b163709f438457b97ffb331281615b7770164736f6c634300080a0033",
  "linkReferences": {},
  "deployedLinkReferences": {}
}