{
  "_format": "hh-sol-artifact-1",
  "contractName": "Semaphore",
  "sourceName": "contracts/Semaphore.sol",
  "abi": [
    {
      "inputs": [
        {
          "internalType": "uint8",
          "name": "_treeLevels",
          "type": "uint8"
        },
        {
          "internalType": "uint232",
          "name": "_firstExternalNullifier",
          "type": "uint232"
        }
      ],
      "stateMutability": "nonpayable",
      "type": "constructor"
    },
    {
      "anonymous": false,
      "inputs": [
        {
          "indexed": true,
          "internalType": "uint232",
          "name": "externalNullifier",
          "type": "uint232"
        }
      ],
      "name": "ExternalNullifierAdd",
      "type": "event"
    },
    {
      "anonymous": false,
      "inputs": [
        {
          "indexed": true,
          "internalType": "uint232",
          "name": "externalNullifier",
          "type": "uint232"
        },
        {
          "indexed": true,
          "internalType": "bool",
          "name": "active",
          "type": "bool"
        }
      ],
      "name": "ExternalNullifierChangeStatus",
      "type": "event"
    },
    {
      "anonymous": false,
      "inputs": [
        {
          "indexed": true,
          "internalType": "uint256",
          "name": "identityCommitment",
          "type": "uint256"
        }
      ],
      "name": "IdentityCommitment",
      "type": "event"
    },
    {
      "anonymous": false,
      "inputs": [
        {
          "indexed": true,
          "internalType": "uint256",
          "name": "leaf",
          "type": "uint256"
        },
        {
          "indexed": true,
          "internalType": "uint256",
          "name": "leafIndex",
          "type": "uint256"
        }
      ],
      "name": "LeafInsertion",
      "type": "event"
    },
    {
      "anonymous": false,
      "inputs": [
        {
          "indexed": false,
          "internalType": "uint256",
          "name": "root",
          "type": "uint256"
        }
      ],
      "name": "NewRoot",
      "type": "event"
    },
    {
      "anonymous": false,
      "inputs": [
        {
          "indexed": true,
          "internalType": "address",
          "name": "previousOwner",
          "type": "address"
        },
        {
          "indexed": true,
          "internalType": "address",
          "name": "newOwner",
          "type": "address"
        }
      ],
      "name": "OwnershipTransferred",
      "type": "event"
    },
    {
      "anonymous": false,
      "inputs": [
        {
          "indexed": true,
          "internalType": "bool",
          "name": "newPermission",
          "type": "bool"
        }
      ],
      "name": "PermissionSet",
      "type": "event"
    },
    {
      "anonymous": false,
      "inputs": [
        {
          "indexed": false,
          "internalType": "uint256",
          "name": "root",
          "type": "uint256"
        }
      ],
      "name": "RootRoot",
      "type": "event"
    },
    {
      "inputs": [],
      "name": "NOTHING_UP_MY_SLEEVE_ZERO",
      "outputs": [
        {
          "internalType": "uint256",
          "name": "",
          "type": "uint256"
        }
      ],
      "stateMutability": "view",
      "type": "function"
    },
    {
      "inputs": [
        {
          "internalType": "uint232",
          "name": "_externalNullifier",
          "type": "uint232"
        }
      ],
      "name": "addExternalNullifier",
      "outputs": [],
      "stateMutability": "nonpayable",
      "type": "function"
    },
    {
      "inputs": [
        {
          "internalType": "bytes",
          "name": "_signal",
          "type": "bytes"
        },
        {
          "internalType": "uint256[8]",
          "name": "_proof",
          "type": "uint256[8]"
        },
        {
          "internalType": "uint256",
          "name": "_root",
          "type": "uint256"
        },
        {
          "internalType": "uint256",
          "name": "_nullifiersHash",
          "type": "uint256"
        },
        {
          "internalType": "uint232",
          "name": "_externalNullifier",
          "type": "uint232"
        }
      ],
      "name": "broadcastSignal",
      "outputs": [],
      "stateMutability": "nonpayable",
      "type": "function"
    },
    {
      "inputs": [
        {
          "internalType": "uint232",
          "name": "_externalNullifier",
          "type": "uint232"
        }
      ],
      "name": "deactivateExternalNullifier",
      "outputs": [],
      "stateMutability": "nonpayable",
      "type": "function"
    },
    {
      "inputs": [
        {
          "internalType": "uint232",
          "name": "",
          "type": "uint232"
        }
      ],
      "name": "externalNullifierLinkedList",
      "outputs": [
        {
          "internalType": "uint232",
          "name": "next",
          "type": "uint232"
        },
        {
          "internalType": "bool",
          "name": "exists",
          "type": "bool"
        },
        {
          "internalType": "bool",
          "name": "isActive",
          "type": "bool"
        }
      ],
      "stateMutability": "view",
      "type": "function"
    },
    {
      "inputs": [],
      "name": "firstExternalNullifier",
      "outputs": [
        {
          "internalType": "uint232",
          "name": "",
          "type": "uint232"
        }
      ],
      "stateMutability": "view",
      "type": "function"
    },
    {
      "inputs": [
        {
          "internalType": "uint232",
          "name": "_externalNullifier",
          "type": "uint232"
        }
      ],
      "name": "getNextExternalNullifier",
      "outputs": [
        {
          "internalType": "uint232",
          "name": "",
          "type": "uint232"
        }
      ],
      "stateMutability": "view",
      "type": "function"
    },
    {
      "inputs": [],
      "name": "getNumIdentityCommitments",
      "outputs": [
        {
          "internalType": "uint256",
          "name": "",
          "type": "uint256"
        }
      ],
      "stateMutability": "view",
      "type": "function"
    },
    {
      "inputs": [],
      "name": "getRoots",
      "outputs": [
        {
          "internalType": "uint256[10]",
          "name": "",
          "type": "uint256[10]"
        }
      ],
      "stateMutability": "view",
      "type": "function"
    },
    {
      "inputs": [
        {
          "internalType": "uint256",
          "name": "_identityCommitment",
          "type": "uint256"
        }
      ],
      "name": "insertIdentity",
      "outputs": [
        {
          "internalType": "uint256",
          "name": "",
          "type": "uint256"
        }
      ],
      "stateMutability": "nonpayable",
      "type": "function"
    },
    {
      "inputs": [],
      "name": "isBroadcastPermissioned",
      "outputs": [
        {
          "internalType": "bool",
          "name": "",
          "type": "bool"
        }
      ],
      "stateMutability": "view",
      "type": "function"
    },
    {
      "inputs": [
        {
          "internalType": "uint232",
          "name": "_externalNullifier",
          "type": "uint232"
        }
      ],
      "name": "isExternalNullifierActive",
      "outputs": [
        {
          "internalType": "bool",
          "name": "",
          "type": "bool"
        }
      ],
      "stateMutability": "view",
      "type": "function"
    },
    {
      "inputs": [],
      "name": "isOwner",
      "outputs": [
        {
          "internalType": "bool",
          "name": "",
          "type": "bool"
        }
      ],
      "stateMutability": "view",
      "type": "function"
    },
    {
      "inputs": [],
      "name": "lastExternalNullifier",
      "outputs": [
        {
          "internalType": "uint232",
          "name": "",
          "type": "uint232"
        }
      ],
      "stateMutability": "view",
      "type": "function"
    },
    {
      "inputs": [
        {
          "internalType": "uint256",
          "name": "",
          "type": "uint256"
        }
      ],
      "name": "nullifierHashHistory",
      "outputs": [
        {
          "internalType": "bool",
          "name": "",
          "type": "bool"
        }
      ],
      "stateMutability": "view",
      "type": "function"
    },
    {
      "inputs": [],
      "name": "numExternalNullifiers",
      "outputs": [
        {
          "internalType": "uint256",
          "name": "",
          "type": "uint256"
        }
      ],
      "stateMutability": "view",
      "type": "function"
    },
    {
      "inputs": [],
      "name": "owner",
      "outputs": [
        {
          "internalType": "address",
          "name": "",
          "type": "address"
        }
      ],
      "stateMutability": "view",
      "type": "function"
    },
    {
      "inputs": [
        {
          "internalType": "uint256[2]",
          "name": "_a",
          "type": "uint256[2]"
        },
        {
          "internalType": "uint256[2][2]",
          "name": "_b",
          "type": "uint256[2][2]"
        },
        {
          "internalType": "uint256[2]",
          "name": "_c",
          "type": "uint256[2]"
        }
      ],
      "name": "packProof",
      "outputs": [
        {
          "internalType": "uint256[8]",
          "name": "",
          "type": "uint256[8]"
        }
      ],
      "stateMutability": "pure",
      "type": "function"
    },
    {
      "inputs": [
        {
          "internalType": "bytes",
          "name": "_signal",
          "type": "bytes"
        },
        {
          "internalType": "uint256[8]",
          "name": "_proof",
          "type": "uint256[8]"
        },
        {
          "internalType": "uint256",
          "name": "_root",
          "type": "uint256"
        },
        {
          "internalType": "uint256",
          "name": "_nullifiersHash",
          "type": "uint256"
        },
        {
          "internalType": "uint256",
          "name": "_signalHash",
          "type": "uint256"
        },
        {
          "internalType": "uint232",
          "name": "_externalNullifier",
          "type": "uint232"
        }
      ],
      "name": "preBroadcastCheck",
      "outputs": [
        {
          "internalType": "bool",
          "name": "",
          "type": "bool"
        }
      ],
      "stateMutability": "view",
      "type": "function"
    },
    {
      "inputs": [
        {
          "internalType": "uint232",
          "name": "_externalNullifier",
          "type": "uint232"
        }
      ],
      "name": "reactivateExternalNullifier",
      "outputs": [],
      "stateMutability": "nonpayable",
      "type": "function"
    },
    {
      "inputs": [],
      "name": "renounceOwnership",
      "outputs": [],
      "stateMutability": "nonpayable",
      "type": "function"
    },
    {
      "inputs": [],
      "name": "root",
      "outputs": [
        {
          "internalType": "uint256",
          "name": "",
          "type": "uint256"
        }
      ],
      "stateMutability": "view",
      "type": "function"
    },
    {
      "inputs": [
        {
          "internalType": "uint256",
          "name": "",
          "type": "uint256"
        }
      ],
      "name": "rootHistory",
      "outputs": [
        {
          "internalType": "bool",
          "name": "",
          "type": "bool"
        }
      ],
      "stateMutability": "view",
      "type": "function"
    },
    {
      "inputs": [
        {
          "internalType": "bool",
          "name": "_newPermission",
          "type": "bool"
        }
      ],
      "name": "setPermissioning",
      "outputs": [],
      "stateMutability": "nonpayable",
      "type": "function"
    },
    {
      "inputs": [
        {
          "internalType": "address",
          "name": "newOwner",
          "type": "address"
        }
      ],
      "name": "transferOwnership",
      "outputs": [],
      "stateMutability": "nonpayable",
      "type": "function"
    },
    {
      "inputs": [
        {
          "internalType": "uint256[8]",
          "name": "_proof",
          "type": "uint256[8]"
        }
      ],
      "name": "unpackProof",
      "outputs": [
        {
          "internalType": "uint256[2]",
          "name": "",
          "type": "uint256[2]"
        },
        {
          "internalType": "uint256[2][2]",
          "name": "",
          "type": "uint256[2][2]"
        },
        {
          "internalType": "uint256[2]",
          "name": "",
          "type": "uint256[2]"
        }
      ],
      "stateMutability": "pure",
      "type": "function"
    },
    {
      "inputs": [
        {
          "internalType": "uint256[2]",
          "name": "a",
          "type": "uint256[2]"
        },
        {
          "internalType": "uint256[2][2]",
          "name": "b",
          "type": "uint256[2][2]"
        },
        {
          "internalType": "uint256[2]",
          "name": "c",
          "type": "uint256[2]"
        },
        {
          "internalType": "uint256[4]",
          "name": "input",
          "type": "uint256[4]"
        }
      ],
      "name": "verifyProof",
      "outputs": [
        {
          "internalType": "bool",
          "name": "r",
          "type": "bool"
        }
      ],
      "stateMutability": "view",
      "type": "function"
    }
  ],
  "bytecode": "0x60006001819055605055605180546001600160e81b0319169055605280546001600160f01b031916600160e81b1790556853656d6170686f726560b81b60a052600960805260a9604052620000957f30644e72e131a029b85045b68181585d2833e84879b9709143e1f593f00000017f7d10c03d1f7884c85edee6353bd2b2ffbae9221236edde3778eac58089912bc062000528565b605455348015620000a557600080fd5b50604051620031c6380380620031c6833981016040819052620000c8916200054b565b8160545460008260ff16118015620000e45750602060ff831611155b6200015c5760405162461bcd60e51b815260206004820152603b60248201527f496e6372656d656e74616c4d65726b6c65547265653a205f747265654c65766560448201527f6c73206d757374206265206265747765656e203020616e64203333000000000060648201526084015b60405180910390fd5b6000805460ff191660ff84161781558190600d01558060015b8360ff168160ff161015620001e35760006200019283806200024d565b905080600d8360ff1660208110620001ae57620001ae6200059a565b015580602d60ff841660208110620001ca57620001ca6200059a565b0155915080620001da81620005c6565b91505062000175565b50620001f081806200024d565b600c555050604e80546001600160a01b031916339081179091556040519091506000907f8be0079c531659141344cd1fd0a4f28419497f9722a3daafe3b4186f6b6457e0908290a362000245816001620003a4565b50506200062c565b60405163f47d33b560e01b815260048101839052600060248201819052908390829073__$cf5da3090e28b1d67a537682696360513a$__9063f47d33b590604401604080518083038186803b158015620002a657600080fd5b505af4158015620002bb573d6000803e3d6000fd5b505050506040513d601f19601f82011682018060405250810190620002e19190620005e9565b90925090507f30644e72e131a029b85045b68181585d2833e84879b9709143e1f593f000000184830860405163f47d33b560e01b8152600481018290526024810183905290925073__$cf5da3090e28b1d67a537682696360513a$__9063f47d33b590604401604080518083038186803b1580156200035f57600080fd5b505af415801562000374573d6000803e3d6000fd5b505050506040513d601f19601f820116820180604052508101906200039a9190620005e9565b5095945050505050565b8015620003cc57605180546001600160e81b0319166001600160e81b03841617905562000482565b6001600160e81b0382166000908152604f6020526040902054600160e81b900460ff1615620004505760405162461bcd60e51b815260206004820152602960248201527f53656d6170686f72653a2065787465726e616c206e756c6c696669657220616c6044820152681c9958591e481cd95d60ba1b606482015260840162000153565b6052546001600160e81b039081166000908152604f6020526040902080546001600160e81b0319169184169190911790555b6001600160e81b0382166000818152604f6020526040812080547fff000000000000000000000000000000000000000000000000000000000000001661010160e81b179055605280546001600160e81b0319169092179091556050805491620004eb836200060e565b90915550506040516001600160e81b038316907fd1ca56647596090d70fa8d49bcc376b97248314e3f204c491333b3440405f58990600090a25050565b6000826200054657634e487b7160e01b600052601260045260246000fd5b500690565b600080604083850312156200055f57600080fd5b825160ff811681146200057157600080fd5b60208401519092506001600160e81b03811681146200058f57600080fd5b809150509250929050565b634e487b7160e01b600052603260045260246000fd5b634e487b7160e01b600052601160045260246000fd5b600060ff821660ff811415620005e057620005e0620005b0565b60010192915050565b60008060408385031215620005fd57600080fd5b505080516020909101519092909150565b6000600019821415620006255762000625620005b0565b5060010190565b612b8a806200063c6000396000f3fe608060405234801561001057600080fd5b50600436106101a95760003560e01c8063819bd8a5116100f9578063c8cf02da11610097578063ebf0c71711610071578063ebf0c717146103f1578063f1c621ee146103fa578063f2fde38b1461041d578063f5ab0dd61461043057600080fd5b8063c8cf02da146103b8578063ce85bbdb146103cb578063eac4287e146103de57600080fd5b80638f6efd00116100d35780638f6efd0014610371578063ba10b81d1461037a578063c3a3407f14610382578063c4cd55961461039557600080fd5b8063819bd8a5146103305780638da5cb5b146103435780638f32d59b1461035e57600080fd5b80635d86faba116101665780636d80efca116101405780636d80efca146102985780636ebf6265146102b9578063715018a6146102c25780637a5519f9146102ca57600080fd5b80635d86faba1461023a5780635e05ea17146102655780635fe8c13b1461028557600080fd5b80630e57596f146101ae57806323baaa83146101c3578063283ebaf4146101d657806335a5e06d146101ff578063539f38b2146102145780635d3ce72514610227575b600080fd5b6101c16101bc3660046124d6565b610452565b005b6101c16101d136600461254d565b610679565b6052546101ea90600160e81b900460ff1681565b60405190151581526020015b60405180910390f35b610207610796565b6040516101f6919061256f565b6101c161022236600461254d565b6107d2565b6101ea6102353660046125a1565b6107e0565b60515461024d906001600160e81b031681565b6040516001600160e81b0390911681526020016101f6565b6102786102733660046126c0565b6108e9565b6040516101f69190612707565b6101ea610293366004612730565b610946565b6102ab6102a63660046127e8565b610e36565b6040519081526020016101f6565b6102ab60545481565b6101c1610efa565b6103096102d836600461254d565b604f602052600090815260409020546001600160e81b0381169060ff600160e81b8204811691600160f01b90041683565b604080516001600160e81b03909416845291151560208401521515908201526060016101f6565b6101c161033e36600461254d565b610f9e565b604e546040516001600160a01b0390911681526020016101f6565b604e546001600160a01b031633146101ea565b6102ab60505481565b6001546102ab565b61024d61039036600461254d565b6110ba565b6101ea6103a33660046127e8565b60536020526000908152604090205460ff1681565b60525461024d906001600160e81b031681565b6101c16103d9366004612801565b6111f7565b6101ea6103ec36600461254d565b611240565b6102ab600c5481565b6101ea6104083660046127e8565b604d6020526000908152604090205460ff1681565b6101c161042b366004612823565b611265565b61044361043e36600461284c565b6112c8565b6040516101f693929190612892565b848484848461046084611351565b6104c65760405162461bcd60e51b815260206004820152602c60248201527f53656d6170686f72653a20696e76616c6964206669656c6420656c656d656e7460448201526b1439949034b710383937b7b360a11b60648201526084015b60405180910390fd5b60008281526053602052604090205460ff161561052f5760405162461bcd60e51b815260206004820152602160248201527f53656d6170686f72653a206e756c6c696669657220616c7265616479207365656044820152603760f91b60648201526084016104bd565b61053881611240565b6105545760405162461bcd60e51b81526004016104bd906128e2565b6040518381527fd0be6067448f25771ec845586f8e534829698cec02e5acedf5334d188b57681e9060200160405180910390a18451602086012060081c600080516020612b358339815191528310610616576040805162461bcd60e51b81526020600482015260248101919091527f53656d6170686f72653a20746865206e756c6c6966696572732068617368206d60448201527f757374206265206c742074686520736e61726b207363616c6172206669656c6460648201526084016104bd565b60408051608081018252858152602081018590529081018290526001600160e81b03831660608201526000808061064c896112c8565b50505060009b8c525050605360205250506040909720805460ff1916600117905550505050505050505050565b6001600160e81b0381166000908152604f6020526040902054600160e81b900460ff166106b85760405162461bcd60e51b81526004016104bd906128e2565b6001600160e81b0381166000908152604f6020526040902054600160f01b900460ff1615156001146107465760405162461bcd60e51b815260206004820152603160248201527f53656d6170686f72653a2065787465726e616c206e756c6c696669657220616c6044820152701c9958591e4819195858dd1a5d985d1959607a1b60648201526084016104bd565b6001600160e81b0381166000818152604f6020526040808220805460ff60f01b19169055519091907fb8d2b8a2b352df7f139810483b3c80fc3a4a88711c90bdb7180f1030b7f49acf908390a350565b61079e6121a7565b6040805161014081019182905290600290600a9082845b8154815260200190600101908083116107b5575050505050905090565b6107dd816000611433565b50565b60408051608081018252858152602081018590529081018390526001600160e81b03821660608201526000908180806108188a6112c8565b60008b815260536020526040902054929550909350915060ff1615801561084757508a5160208c012060081c87145b801561085b57508a5160208c012060081c87145b801561086b575061086b86611240565b801561088557506000898152604d602052604090205460ff165b801561089557506108958a611351565b80156108ae5750600080516020612b3583398151915289105b80156108c75750600080516020612b3583398151915288105b80156108da57506108da83838387610946565b9b9a5050505050505050505050565b6108f16121c6565b5060408051610100810182528451815260209485015185820152835151918101919091528251840151606082015291830180515160808401525183015160a0830152805160c08301529091015160e082015290565b60006109506121e5565b6040805180820182528751815260208089015181830152908352815160808101835287515181840190815288518301516060830152815282518084018452888301805151825251830151818401528183015283820152815180830183528651815286820151918101919091529082015260006109ca611599565b604080518082019091526000808252602082015283515191925090600080516020612b1583398151915211610a415760405162461bcd60e51b815260206004820152601760248201527f76657269666965722d61582d6774652d7072696d652d7100000000000000000060448201526064016104bd565b825160200151600080516020612b1583398151915211610aa35760405162461bcd60e51b815260206004820152601760248201527f76657269666965722d61592d6774652d7072696d652d7100000000000000000060448201526064016104bd565b60208301515151600080516020612b1583398151915211610b065760405162461bcd60e51b815260206004820152601860248201527f76657269666965722d6258302d6774652d7072696d652d71000000000000000060448201526064016104bd565b602083810151015151600080516020612b1583398151915211610b6b5760405162461bcd60e51b815260206004820152601860248201527f76657269666965722d6259302d6774652d7072696d652d71000000000000000060448201526064016104bd565b602083810151510151600080516020612b1583398151915211610bd05760405162461bcd60e51b815260206004820152601860248201527f76657269666965722d6258312d6774652d7072696d652d71000000000000000060448201526064016104bd565b6020838101518101510151600080516020612b1583398151915211610c375760405162461bcd60e51b815260206004820152601860248201527f76657269666965722d6259312d6774652d7072696d652d71000000000000000060448201526064016104bd565b604083015151600080516020612b1583398151915211610c995760405162461bcd60e51b815260206004820152601760248201527f76657269666965722d63582d6774652d7072696d652d7100000000000000000060448201526064016104bd565b600080516020612b1583398151915283604001516020015110610cfe5760405162461bcd60e51b815260206004820152601760248201527f76657269666965722d63592d6774652d7072696d652d7100000000000000000060448201526064016104bd565b60005b6004811015610de057600080516020612b35833981519152868260048110610d2b57610d2b612929565b602002015110610d7d5760405162461bcd60e51b815260206004820152601f60248201527f76657269666965722d6774652d736e61726b2d7363616c61722d6669656c640060448201526064016104bd565b610dcc82610dc78560800151846001610d969190612955565b60058110610da657610da6612929565b6020020151898560048110610dbd57610dbd612929565b60200201516119b9565b6119f4565b915080610dd88161296d565b915050610d01565b50608082015151610df29082906119f4565b9050610e28610e048460000151611a30565b84602001518460000151856020015185876040015189604001518960600151611acb565b93505050505b949350505050565b6000605454821415610ec05760405162461bcd60e51b815260206004820152604760248201527f53656d6170686f72653a206964656e7469747920636f6d6d69746d656e74206360448201527f616e6e6f7420626520746865206e6f7468696e672d75702d6d792d736c656576606482015266652d76616c756560c81b608482015260a4016104bd565b60405182907f31d0d431762af1b333d4fef318e03efc7b702fe91dd1f0aa2c72e699bebcb48990600090a2610ef482611d3c565b92915050565b604e546001600160a01b03163314610f545760405162461bcd60e51b815260206004820181905260248201527f4f776e61626c653a2063616c6c6572206973206e6f7420746865206f776e657260448201526064016104bd565b604e546040516000916001600160a01b0316907f8be0079c531659141344cd1fd0a4f28419497f9722a3daafe3b4186f6b6457e0908390a3604e80546001600160a01b0319169055565b6001600160e81b0381166000908152604f6020526040902054600160e81b900460ff16610fdd5760405162461bcd60e51b81526004016104bd906128e2565b6001600160e81b0381166000908152604f6020526040902054600160f01b900460ff16156110655760405162461bcd60e51b815260206004820152602f60248201527f53656d6170686f72653a2065787465726e616c206e756c6c696669657220697360448201526e20616c72656164792061637469766560881b60648201526084016104bd565b6001600160e81b0381166000818152604f6020526040808220805460ff60f01b1916600160f01b17905551600192917fb8d2b8a2b352df7f139810483b3c80fc3a4a88711c90bdb7180f1030b7f49acf91a350565b6001600160e81b0381166000908152604f6020526040812054600160e81b900460ff166111375760405162461bcd60e51b815260206004820152602560248201527f53656d6170686f72653a206e6f20737563682065787465726e616c206e756c6c60448201526434b334b2b960d91b60648201526084016104bd565b6001600160e81b038083166000908152604f6020526040902054605054911690600110801561118557506001600160e81b0381166000908152604f6020526040902054600160e81b900460ff165b610ef45760405162461bcd60e51b815260206004820152603f60248201527f53656d6170686f72653a206e6f2065787465726e616c206e756c6c696669657260448201527f206578697374732061667465722074686520737065636966696564206f6e650060648201526084016104bd565b6052805460ff60e81b1916600160e81b831515908102919091179091556040517ffba91b9002bc7732a7bff1b44ee16a30ebaeb06d7921779034c6a6ab27e69c2790600090a250565b6001600160e81b03166000908152604f6020526040902054600160f01b900460ff1690565b604e546001600160a01b031633146112bf5760405162461bcd60e51b815260206004820181905260248201527f4f776e61626c653a2063616c6c6572206973206e6f7420746865206f776e657260448201526064016104bd565b6107dd81611fa9565b6112d0612236565b6112d8612254565b6112e0612236565b50506040805180820182528351815260208085015181830152825160808082018552868501518286019081526060808901519084015282528451808601865290870151815260a08701518184015281830152835180850190945260c0860151845260e0909501519083015293909150565b8051600090600080516020612b3583398151915211801561138357506020820151600080516020612b35833981519152115b80156113a057506040820151600080516020612b35833981519152115b80156113bd57506060820151600080516020612b35833981519152115b80156113da57506080820151600080516020612b35833981519152115b80156113f7575060a0820151600080516020612b35833981519152115b8015611414575060c0820151600080516020612b35833981519152115b8015610ef457505060e00151600080516020612b358339815191521190565b801561145957605180546001600160e81b0319166001600160e81b03841617905561150d565b6001600160e81b0382166000908152604f6020526040902054600160e81b900460ff16156114db5760405162461bcd60e51b815260206004820152602960248201527f53656d6170686f72653a2065787465726e616c206e756c6c696669657220616c6044820152681c9958591e481cd95d60ba1b60648201526084016104bd565b6052546001600160e81b039081166000908152604f6020526040902080546001600160e81b0319169184169190911790555b6001600160e81b0382166000818152604f6020526040812080546001600160f81b03191661010160e81b179055605280546001600160e81b031916909217909155605080549161155c8361296d565b90915550506040516001600160e81b038316907fd1ca56647596090d70fa8d49bcc376b97248314e3f204c491333b3440405f58990600090a25050565b6115a1612281565b6040805180820182527f2aeb4aafb1c7a3e1445536842c9d8225ebd94a09d15cda4e17d944add94ede4781527f03ab549390940a14a8d8d3fe3f6ecb68195432778936e617d914f14d1df035796020808301919091529083528151608080820184527f2fd95a27d1b9d966bb3ae847506bfc2ffa3e5c945f4502cf0f10dfd658960f948285019081527f167a6701c17cc2734e919e79f59f110b511f1ff811a06fd840949416d10ddafc606080850191909152908352845180860186527f02b4c85ab8a8fbe2d979af025230a96c10e07c5e4163fc7d633ba083fc44f9ee81527f303ca2757a59cbf0e0bbdb8f1712f29e3e804cd258e18aca0da7f6bd7136e806818601528385015285840192909252835180820185527f0fa9bb662fc3acd975ee36a6ea2c0c709c3a75303345702acaf0d845428f932b8186019081527f2f2d53e983b994de7cac84d565b30b457f11273ff5a898ce80c9fd66bdf9e075828501528152845180860186527f2d1f4da8e0f4d49c61fd3ec22a104df1a5159b1e329b3506354559ebafff080181527f2ff6e55d56bb54b32d728131475c6ca6d7a92cc6b82bfcd59311c765e7edcb45818601528185015285850152835180820185527f23511787419db90d2bad3c8bfbac9f4398c26cd6cd34bb5276c2cd94b7b7d26f8186019081527f17e0c1843c4ec925cf3d09b051978f5f23d1d166117d572f38dbd874126dead5828501528152845180860186527f06e374c176a74bf3d0c0329b9d03b53693d77f928cd1fc4c6f6053ec00f2ca2581527f2d832fd3933c30f159e18dbe33bc7496240cc22bcece79faf02388e5bd366a21818601528185015282860152835180850185527f2174881f2cb4aee5292b2f603cb183bf301d263b1a11c7ec22585fec00ecce9881527e3e5e75ec133240c640391a4cb8a18e2fbc4f6336e6b6693643735d5c62308781850152818601805191909152845180860186527f1664a7bd963677623594fb978543aceb4fc3576b0f976c519a22bdbca62226c381527f0e28ccde23de1c2f78b1d8d35660f7014f391e354756aad1f5f75d159cfab652818601528151850152845180860186527f17439f723025a06c170891f82daf6fbf4fe30c3824d1b0820262e7ee632bd62d81527f0a74bd079e9f728a7c5dc31ea3c7c43e978be8921a351b9de0df3cfb2f601855818601528151860152845180860186527f274660c30271883b25933fc39f835337bafcb604536af04f6264fe96a7b32d5181527f27e6947d2ab1e5b87fa5e0b4fe610ee7a623bdf4e0225e249c6a3446af5085b58186015281519093019290925283518085019094527f108ba5cc069e7368567294f740794f36d4c7d99d40dd667fe5dd544967bdc9a984527f2175417a3760110f546c7f7f30d3195d766cbe31f34013b45322ff7fd974635c9284019290925251015290565b60408051808201909152600080825260208201526119d56122d2565b8351815260208085015190820152828160025b60200201525092915050565b6040805180820190915260008082526020820152611a106122f0565b8351815260208085015181830152835160408301528301518160036119e8565b60408051808201909152600080825260208201528151158015611a5557506020820151155b15611a73575050604080518082019091526000808252602082015290565b604051806040016040528083600001518152602001600080516020612b158339815191528460200151611aa69190612988565b611abe90600080516020612b158339815191526129aa565b905292915050565b919050565b60408051608080820183528a825260208083018a90528284018890526060808401879052845192830185528b83528282018a9052828501889052820185905283516018808252610320820190955260009491859190839082016103008036833701905050905060005b6004811015611d1f576000611b4a8260066129c1565b9050858260048110611b5e57611b5e612929565b60200201515183611b70836000612955565b81518110611b8057611b80612929565b602002602001018181525050858260048110611b9e57611b9e612929565b60200201516020015183826001611bb59190612955565b81518110611bc557611bc5612929565b602002602001018181525050848260048110611be357611be3612929565b6020020151515183611bf6836002612955565b81518110611c0657611c06612929565b602002602001018181525050848260048110611c2457611c24612929565b6020020151516001602002015183611c3d836003612955565b81518110611c4d57611c4d612929565b602002602001018181525050848260048110611c6b57611c6b612929565b602002015160200151600060028110611c8657611c86612929565b602002015183611c97836004612955565b81518110611ca757611ca7612929565b602002602001018181525050848260048110611cc557611cc5612929565b602002015160200151600160028110611ce057611ce0612929565b602002015183611cf1836005612955565b81518110611d0157611d01612929565b60209081029190910101525080611d178161296d565b915050611b34565b50611d2861230e565b5115159d9c50505050505050505050505050565b6000600080516020612b358339815191528210611dd15760405162461bcd60e51b815260206004820152604760248201527f496e6372656d656e74616c4d65726b6c65547265653a20696e736572744c656160448201527f6620617267756d656e74206d757374206265203c20534e41524b5f5343414c416064820152661497d19251531160ca1b608482015260a4016104bd565b60015460005460ff16611de5816002612ac4565b8210611e3f5760405162461bcd60e51b815260206004820152602360248201527f496e6372656d656e74616c4d65726b6c65547265653a207472656520697320666044820152621d5b1b60ea1b60648201526084016104bd565b83600080805b60005460ff9081169082161015611ee357611e61600287612988565b611ea057839250600d8160ff1660208110611e7e57611e7e612929565b0154915083602d8260ff1660208110611e9957611e99612929565b0155611ebe565b602d8160ff1660208110611eb657611eb6612929565b015492508391505b611ec8838361206a565b60019690961c95935080611edb81612ad0565b915050611e45565b50600c8381556000848152604d602052604090819020805460ff19166001179055905490517f798104477dcefe17a2ff5ed9af618d9b254ea90608948f8da0fbbad00c44a93791611f379190815260200190565b60405180910390a1600c546002600154600a8110611f5757611f57612929565b01556001805490806000611f6b8285612955565b9091555050604051819089907fe6f49fa84abd31919f446b22a52bb3ceae774b4b87f062f022fec45c46f4f45890600090a350939695505050505050565b6001600160a01b03811661200e5760405162461bcd60e51b815260206004820152602660248201527f4f776e61626c653a206e6577206f776e657220697320746865207a65726f206160448201526564647265737360d01b60648201526084016104bd565b604e546040516001600160a01b038084169216907f8be0079c531659141344cd1fd0a4f28419497f9722a3daafe3b4186f6b6457e090600090a3604e80546001600160a01b0319166001600160a01b0392909216919091179055565b60405163f47d33b560e01b815260048101839052600060248201819052908390829073__$cf5da3090e28b1d67a537682696360513a$__9063f47d33b590604401604080518083038186803b1580156120c257600080fd5b505af41580156120d6573d6000803e3d6000fd5b505050506040513d601f19601f820116820180604052508101906120fa9190612af0565b9092509050600080516020612b3583398151915284830860405163f47d33b560e01b8152600481018290526024810183905290925073__$cf5da3090e28b1d67a537682696360513a$__9063f47d33b590604401604080518083038186803b15801561216557600080fd5b505af4158015612179573d6000803e3d6000fd5b505050506040513d601f19601f8201168201806040525081019061219d9190612af0565b5095945050505050565b604051806101400160405280600a906020820280368337509192915050565b6040518061010001604052806008906020820280368337509192915050565b6040805160a08101909152600060608201818152608083019190915281526020810161220f61232c565b8152602001612231604051806040016040528060008152602001600081525090565b905290565b60405180604001604052806002906020820280368337509192915050565b60405180604001604052806002905b61226b612236565b8152602001906001900390816122635790505090565b6040805160e08101909152600060a0820181815260c08301919091528152602081016122ab61232c565b81526020016122b861232c565b81526020016122c561232c565b815260200161223161234c565b60405180606001604052806003906020820280368337509192915050565b60405180608001604052806004906020820280368337509192915050565b60405180602001604052806001906020820280368337509192915050565b604051806040016040528061233f612236565b8152602001612231612236565b6040518060a001604052806005905b604080518082019091526000808252602082015281526020019060019003908161235b5790505090565b634e487b7160e01b600052604160045260246000fd5b6040805190810167ffffffffffffffff811182821017156123be576123be612385565b60405290565b600082601f8301126123d557600080fd5b813567ffffffffffffffff808211156123f0576123f0612385565b604051601f8301601f19908116603f0116810190828211818310171561241857612418612385565b8160405283815286602085880101111561243157600080fd5b836020870160208301376000602085830101528094505050505092915050565b600082601f83011261246257600080fd5b60405161010080820182811067ffffffffffffffff8211171561248757612487612385565b6040528301818582111561249a57600080fd5b845b828110156124b457803582526020918201910161249c565b509195945050505050565b80356001600160e81b0381168114611ac657600080fd5b600080600080600061018086880312156124ef57600080fd5b853567ffffffffffffffff81111561250657600080fd5b612512888289016123c4565b9550506125228760208801612451565b93506101208601359250610140860135915061254161016087016124bf565b90509295509295909350565b60006020828403121561255f57600080fd5b612568826124bf565b9392505050565b6101408101818360005b600a811015612598578151835260209283019290910190600101612579565b50505092915050565b6000806000806000806101a087890312156125bb57600080fd5b863567ffffffffffffffff8111156125d257600080fd5b6125de89828a016123c4565b9650506125ee8860208901612451565b945061012087013593506101408701359250610160870135915061261561018088016124bf565b90509295509295509295565b600082601f83011261263257600080fd5b61263a61239b565b80604084018581111561264c57600080fd5b845b8181101561266657803584526020938401930161264e565b509095945050505050565b600082601f83011261268257600080fd5b61268a61239b565b80608084018581111561269c57600080fd5b845b81811015612666576126b08782612621565b845260209093019260400161269e565b600080600061010084860312156126d657600080fd5b6126e08585612621565b92506126ef8560408601612671565b91506126fe8560c08601612621565b90509250925092565b6101008101818360005b6008811015612598578151835260209283019290910190600101612711565b60008060008061018080868803121561274857600080fd5b6127528787612621565b94506127618760408801612671565b93506127708760c08801612621565b92508661011f87011261278257600080fd5b6040516080810181811067ffffffffffffffff821117156127a5576127a5612385565b6040529086019080888311156127ba57600080fd5b61010088015b838110156127d85780358252602091820191016127c0565b5050809250505092959194509250565b6000602082840312156127fa57600080fd5b5035919050565b60006020828403121561281357600080fd5b8135801515811461256857600080fd5b60006020828403121561283557600080fd5b81356001600160a01b038116811461256857600080fd5b6000610100828403121561285f57600080fd5b6125688383612451565b8060005b600281101561288c57815184526020938401939091019060010161286d565b50505050565b61010081016128a18286612869565b60408083018560005b60028110156128d1576128be838351612869565b91830191602091909101906001016128aa565b50505050610e2e60c0830184612869565b60208082526027908201527f53656d6170686f72653a2065787465726e616c206e756c6c6966696572206e6f6040820152661d08199bdd5b9960ca1b606082015260800190565b634e487b7160e01b600052603260045260246000fd5b634e487b7160e01b600052601160045260246000fd5b600082198211156129685761296861293f565b500190565b60006000198214156129815761298161293f565b5060010190565b6000826129a557634e487b7160e01b600052601260045260246000fd5b500690565b6000828210156129bc576129bc61293f565b500390565b60008160001904831182151516156129db576129db61293f565b500290565b600181815b80851115612a1b578160001904821115612a0157612a0161293f565b80851615612a0e57918102915b93841c93908002906129e5565b509250929050565b600082612a3257506001610ef4565b81612a3f57506000610ef4565b8160018114612a555760028114612a5f57612a7b565b6001915050610ef4565b60ff841115612a7057612a7061293f565b50506001821b610ef4565b5060208310610133831016604e8410600b8410161715612a9e575081810a610ef4565b612aa883836129e0565b8060001904821115612abc57612abc61293f565b029392505050565b60006125688383612a23565b600060ff821660ff811415612ae757612ae761293f565b60010192915050565b60008060408385031215612b0357600080fd5b50508051602090910151909290915056fe30644e72e131a029b85045b68181585d97816a916871ca8d3c208c16d87cfd4730644e72e131a029b85045b68181585d2833e84879b9709143e1f593f0000001a26469706673582212204aa65a8c183994b9cf636c99953318bb84c96284c97132d55ab718b12f2c84c164736f6c63430008090033",
  "linkReferences": {
    "contracts/MiMC.sol": {
      "MiMC": [
        {
          "length": 20,
          "start": 625
        },
        {
          "length": 20,
          "start": 810
        },
        {
          "length": 20,
          "start": 9930
        },
        {
          "length": 20,
          "start": 10093
        }
      ]
    }
  },
  "deployedLinkReferences": {
    "contracts/MiMC.sol": {
      "MiMC": [
        {
          "length": 20,
          "start": 8334
        },
        {
          "length": 20,
          "start": 8497
        }
      ]
    }
  }
}