{
  "_format": "hh-sol-artifact-1",
  "contractName": "GeneralResult",
  "sourceName": "contracts/resultCalculators/GeneralResult.sol",
  "abi": [
    {
      "inputs": [],
      "name": "CandidatesTie",
      "type": "error"
    },
    {
      "inputs": [],
      "name": "NoCandidates",
      "type": "error"
    },
    {
      "inputs": [],
      "name": "NoWinner",
      "type": "error"
    },
    {
      "inputs": [],
      "name": "VotesExhausted",
      "type": "error"
    },
    {
      "inputs": [
        {
          "internalType": "bytes",
          "name": "returnData",
          "type": "bytes"
        }
      ],
      "name": "calculateGeneralResult",
      "outputs": [
        {
          "internalType": "uint256",
          "name": "",
          "type": "uint256"
        }
      ],
      "stateMutability": "pure",
      "type": "function"
    }
  ],
  "bytecode": "0x608060405234801561001057600080fd5b5061042d806100206000396000f3fe608060405234801561001057600080fd5b506004361061002b5760003560e01c8063af6de5a114610030575b600080fd5b61004a60048036038101906100459190610183565b610060565b60405161005791906101e9565b60405180910390f35b6000808383810190610072919061037f565b90506000808251905060005b83518110156100c357600084828151811061009c5761009b6103c8565b5b60200260200101519050838111156100b5578093508192505b50808060010191505061007e565b50825181036100fe576040517f8b9ae95f00000000000000000000000000000000000000000000000000000000815260040160405180910390fd5b80935050505092915050565b6000604051905090565b600080fd5b600080fd5b600080fd5b600080fd5b600080fd5b60008083601f8401126101435761014261011e565b5b8235905067ffffffffffffffff8111156101605761015f610123565b5b60208301915083600182028301111561017c5761017b610128565b5b9250929050565b6000806020838503121561019a57610199610114565b5b600083013567ffffffffffffffff8111156101b8576101b7610119565b5b6101c48582860161012d565b92509250509250929050565b6000819050919050565b6101e3816101d0565b82525050565b60006020820190506101fe60008301846101da565b92915050565b6000601f19601f8301169050919050565b7f4e487b7100000000000000000000000000000000000000000000000000000000600052604160045260246000fd5b61024d82610204565b810181811067ffffffffffffffff8211171561026c5761026b610215565b5b80604052505050565b600061027f61010a565b905061028b8282610244565b919050565b600067ffffffffffffffff8211156102ab576102aa610215565b5b602082029050602081019050919050565b6102c5816101d0565b81146102d057600080fd5b50565b6000813590506102e2816102bc565b92915050565b60006102fb6102f684610290565b610275565b9050808382526020820190506020840283018581111561031e5761031d610128565b5b835b81811015610347578061033388826102d3565b845260208401935050602081019050610320565b5050509392505050565b600082601f8301126103665761036561011e565b5b81356103768482602086016102e8565b91505092915050565b60006020828403121561039557610394610114565b5b600082013567ffffffffffffffff8111156103b3576103b2610119565b5b6103bf84828501610351565b91505092915050565b7f4e487b7100000000000000000000000000000000000000000000000000000000600052603260045260246000fdfea2646970667358221220adc31ab45c7648acb74275d5cb55fc8b124e98fa584c1e9be4e7f2a25227b1f864736f6c63430008180033",
  "linkReferences": {},
  "deployedLinkReferences": {}
}