{
  "_format": "hh-sol-artifact-1",
  "contractName": "Pairing",
  "sourceName": "@semaphore-protocol/contracts/base/Pairing.sol",
  "abi": [
    {
      "inputs": [],
      "name": "InvalidProof",
      "type": "error"
    },
    {
      "inputs": [],
      "name": "P1",
      "outputs": [
        {
          "components": [
            {
              "internalType": "uint256",
              "name": "X",
              "type": "uint256"
            },
            {
              "internalType": "uint256",
              "name": "Y",
              "type": "uint256"
            }
          ],
          "internalType": "struct Pairing.G1Point",
          "name": "",
          "type": "tuple"
        }
      ],
      "stateMutability": "pure",
      "type": "function"
    },
    {
      "inputs": [],
      "name": "P2",
      "outputs": [
        {
          "components": [
            {
              "internalType": "uint256[2]",
              "name": "X",
              "type": "uint256[2]"
            },
            {
              "internalType": "uint256[2]",
              "name": "Y",
              "type": "uint256[2]"
            }
          ],
          "internalType": "struct Pairing.G2Point",
          "name": "",
          "type": "tuple"
        }
      ],
      "stateMutability": "pure",
      "type": "function"
    },
    {
      "inputs": [
        {
          "components": [
            {
              "internalType": "uint256",
              "name": "X",
              "type": "uint256"
            },
            {
              "internalType": "uint256",
              "name": "Y",
              "type": "uint256"
            }
          ],
          "internalType": "struct Pairing.G1Point",
          "name": "p1",
          "type": "tuple"
        },
        {
          "components": [
            {
              "internalType": "uint256",
              "name": "X",
              "type": "uint256"
            },
            {
              "internalType": "uint256",
              "name": "Y",
              "type": "uint256"
            }
          ],
          "internalType": "struct Pairing.G1Point",
          "name": "p2",
          "type": "tuple"
        }
      ],
      "name": "addition",
      "outputs": [
        {
          "components": [
            {
              "internalType": "uint256",
              "name": "X",
              "type": "uint256"
            },
            {
              "internalType": "uint256",
              "name": "Y",
              "type": "uint256"
            }
          ],
          "internalType": "struct Pairing.G1Point",
          "name": "r",
          "type": "tuple"
        }
      ],
      "stateMutability": "view",
      "type": "function"
    },
    {
      "inputs": [
        {
          "components": [
            {
              "internalType": "uint256",
              "name": "X",
              "type": "uint256"
            },
            {
              "internalType": "uint256",
              "name": "Y",
              "type": "uint256"
            }
          ],
          "internalType": "struct Pairing.G1Point",
          "name": "p",
          "type": "tuple"
        }
      ],
      "name": "negate",
      "outputs": [
        {
          "components": [
            {
              "internalType": "uint256",
              "name": "X",
              "type": "uint256"
            },
            {
              "internalType": "uint256",
              "name": "Y",
              "type": "uint256"
            }
          ],
          "internalType": "struct Pairing.G1Point",
          "name": "r",
          "type": "tuple"
        }
      ],
      "stateMutability": "pure",
      "type": "function"
    },
    {
      "inputs": [
        {
          "components": [
            {
              "internalType": "uint256",
              "name": "X",
              "type": "uint256"
            },
            {
              "internalType": "uint256",
              "name": "Y",
              "type": "uint256"
            }
          ],
          "internalType": "struct Pairing.G1Point[]",
          "name": "p1",
          "type": "tuple[]"
        },
        {
          "components": [
            {
              "internalType": "uint256[2]",
              "name": "X",
              "type": "uint256[2]"
            },
            {
              "internalType": "uint256[2]",
              "name": "Y",
              "type": "uint256[2]"
            }
          ],
          "internalType": "struct Pairing.G2Point[]",
          "name": "p2",
          "type": "tuple[]"
        }
      ],
      "name": "pairingCheck",
      "outputs": [],
      "stateMutability": "view",
      "type": "function"
    },
    {
      "inputs": [
        {
          "components": [
            {
              "internalType": "uint256",
              "name": "X",
              "type": "uint256"
            },
            {
              "internalType": "uint256",
              "name": "Y",
              "type": "uint256"
            }
          ],
          "internalType": "struct Pairing.G1Point",
          "name": "p",
          "type": "tuple"
        },
        {
          "internalType": "uint256",
          "name": "s",
          "type": "uint256"
        }
      ],
      "name": "scalar_mul",
      "outputs": [
        {
          "components": [
            {
              "internalType": "uint256",
              "name": "X",
              "type": "uint256"
            },
            {
              "internalType": "uint256",
              "name": "Y",
              "type": "uint256"
            }
          ],
          "internalType": "struct Pairing.G1Point",
          "name": "r",
          "type": "tuple"
        }
      ],
      "stateMutability": "view",
      "type": "function"
    }
  ],
  "bytecode": "0x611134610053600b82828239805160001a607314610046577f4e487b7100000000000000000000000000000000000000000000000000000000600052600060045260246000fd5b30600052607381538281f3fe730000000000000000000000000000000000000000301460806040526004361061006c5760003560e01c806318c77c95146100715780631de21b76146100a15780632f3ed539146100bf57806330332aea146100db5780636e1b6990146100f9578063a680077514610129575b600080fd5b61008b60048036038101906100869190610b01565b610159565b6040516100989190610b7f565b60405180910390f35b6100a9610242565b6040516100b69190610b7f565b60405180910390f35b6100d960048036038101906100d49190610e2b565b610266565b005b6100e3610607565b6040516100f09190610f6e565b60405180910390f35b610113600480360381019061010e9190610f89565b6106d1565b6040516101209190610b7f565b60405180910390f35b610143600480360381019061013e9190610fc9565b6107ed565b6040516101509190610b7f565b60405180910390f35b61016161090e565b610169610928565b83600001518160006004811061018257610181610ff6565b5b6020020181815250508360200151816001600481106101a4576101a3610ff6565b5b6020020181815250508260000151816002600481106101c6576101c5610ff6565b5b6020020181815250508260200151816003600481106101e8576101e7610ff6565b5b602002018181525050600060608360c08460066107d05a03fa90508061023a576040517f09bde33900000000000000000000000000000000000000000000000000000000815260040160405180910390fd5b505092915050565b61024a61090e565b6040518060400160405280600181526020016002815250905090565b80518251146102a1576040517f09bde33900000000000000000000000000000000000000000000000000000000815260040160405180910390fd5b60008251905060006006826102b69190611054565b905060008167ffffffffffffffff8111156102d4576102d3610a00565b5b6040519080825280602002602001820160405280156103025781602001602082028036833780820191505090505b50905060005b838110156105815785818151811061032357610322610ff6565b5b60200260200101516000015182600060068461033f9190611054565b6103499190611096565b8151811061035a57610359610ff6565b5b60200260200101818152505085818151811061037957610378610ff6565b5b6020026020010151602001518260016006846103959190611054565b61039f9190611096565b815181106103b0576103af610ff6565b5b6020026020010181815250508481815181106103cf576103ce610ff6565b5b6020026020010151600001516000600281106103ee576103ed610ff6565b5b60200201518260026006846104039190611054565b61040d9190611096565b8151811061041e5761041d610ff6565b5b60200260200101818152505084818151811061043d5761043c610ff6565b5b60200260200101516000015160016002811061045c5761045b610ff6565b5b60200201518260036006846104719190611054565b61047b9190611096565b8151811061048c5761048b610ff6565b5b6020026020010181815250508481815181106104ab576104aa610ff6565b5b6020026020010151602001516000600281106104ca576104c9610ff6565b5b60200201518260046006846104df9190611054565b6104e99190611096565b815181106104fa576104f9610ff6565b5b60200260200101818152505084818151811061051957610518610ff6565b5b60200260200101516020015160016002811061053857610537610ff6565b5b602002015182600560068461054d9190611054565b6105579190611096565b8151811061056857610567610ff6565b5b6020026020010181815250508080600101915050610308565b5061058a61094a565b6000602082602086026020860160086107d05a03fa90508015806105c757506001826000600181106105bf576105be610ff6565b5b602002015114155b156105fe576040517f09bde33900000000000000000000000000000000000000000000000000000000815260040160405180910390fd5b50505050505050565b61060f61096c565b604051806040016040528060405180604001604052807f198e9393920d483a7260bfb731fb5d25f1aa493335a9e71297e485b7aef312c281526020017f1800deef121f1e76426a00665e5c4479674322d4f75edadd46debd5cd992f6ed815250815260200160405180604001604052807f090689d0585ff075ec9e99ad690c3395bc4b313370b38ef355acdadcd122975b81526020017f12c85ea5db8c6deb4aab71808dcb408fe3d1e7690c43d37b4ce6cc0166fa7daa815250815250905090565b6106d961090e565b7f30644e72e131a029b85045b68181585d2833e84879b9709143e1f593f00000018210610732576040517f09bde33900000000000000000000000000000000000000000000000000000000815260040160405180910390fd5b61073a610992565b83600001518160006003811061075357610752610ff6565b5b60200201818152505083602001518160016003811061077557610774610ff6565b5b602002018181525050828160026003811061079357610792610ff6565b5b602002018181525050600060608360808460076107d05a03fa9050806107e5576040517f09bde33900000000000000000000000000000000000000000000000000000000815260040160405180910390fd5b505092915050565b6107f561090e565b6000826000015114801561080d575060008260200151145b156108305760405180604001604052806000815260200160008152509050610909565b7f30644e72e131a029b85045b68181585d97816a916871ca8d3c208c16d87cfd47826000015110158061088757507f30644e72e131a029b85045b68181585d97816a916871ca8d3c208c16d87cfd47826020015110155b156108be576040517f09bde33900000000000000000000000000000000000000000000000000000000815260040160405180910390fd5b60405180604001604052808360000151815260200183602001517f30644e72e131a029b85045b68181585d97816a916871ca8d3c208c16d87cfd4761090391906110ca565b81525090505b919050565b604051806040016040528060008152602001600081525090565b6040518060800160405280600490602082028036833780820191505090505090565b6040518060200160405280600190602082028036833780820191505090505090565b604051806040016040528061097f6109b4565b815260200161098c6109b4565b81525090565b6040518060600160405280600390602082028036833780820191505090505090565b6040518060400160405280600290602082028036833780820191505090505090565b6000604051905090565b600080fd5b600080fd5b600080fd5b6000601f19601f8301169050919050565b7f4e487b7100000000000000000000000000000000000000000000000000000000600052604160045260246000fd5b610a38826109ef565b810181811067ffffffffffffffff82111715610a5757610a56610a00565b5b80604052505050565b6000610a6a6109d6565b9050610a768282610a2f565b919050565b6000819050919050565b610a8e81610a7b565b8114610a9957600080fd5b50565b600081359050610aab81610a85565b92915050565b600060408284031215610ac757610ac66109ea565b5b610ad16040610a60565b90506000610ae184828501610a9c565b6000830152506020610af584828501610a9c565b60208301525092915050565b60008060808385031215610b1857610b176109e0565b5b6000610b2685828601610ab1565b9250506040610b3785828601610ab1565b9150509250929050565b610b4a81610a7b565b82525050565b604082016000820151610b666000850182610b41565b506020820151610b796020850182610b41565b50505050565b6000604082019050610b946000830184610b50565b92915050565b600080fd5b600067ffffffffffffffff821115610bba57610bb9610a00565b5b602082029050602081019050919050565b600080fd5b6000610be3610bde84610b9f565b610a60565b90508083825260208201905060408402830185811115610c0657610c05610bcb565b5b835b81811015610c2f5780610c1b8882610ab1565b845260208401935050604081019050610c08565b5050509392505050565b600082601f830112610c4e57610c4d610b9a565b5b8135610c5e848260208601610bd0565b91505092915050565b600067ffffffffffffffff821115610c8257610c81610a00565b5b602082029050602081019050919050565b600067ffffffffffffffff821115610cae57610cad610a00565b5b602082029050919050565b6000610ccc610cc784610c93565b610a60565b90508060208402830185811115610ce657610ce5610bcb565b5b835b81811015610d0f5780610cfb8882610a9c565b845260208401935050602081019050610ce8565b5050509392505050565b600082601f830112610d2e57610d2d610b9a565b5b6002610d3b848285610cb9565b91505092915050565b600060808284031215610d5a57610d596109ea565b5b610d646040610a60565b90506000610d7484828501610d19565b6000830152506040610d8884828501610d19565b60208301525092915050565b6000610da7610da284610c67565b610a60565b90508083825260208201905060808402830185811115610dca57610dc9610bcb565b5b835b81811015610df35780610ddf8882610d44565b845260208401935050608081019050610dcc565b5050509392505050565b600082601f830112610e1257610e11610b9a565b5b8135610e22848260208601610d94565b91505092915050565b60008060408385031215610e4257610e416109e0565b5b600083013567ffffffffffffffff811115610e6057610e5f6109e5565b5b610e6c85828601610c39565b925050602083013567ffffffffffffffff811115610e8d57610e8c6109e5565b5b610e9985828601610dfd565b9150509250929050565b600060029050919050565b600081905092915050565b6000819050919050565b6000610ecf8383610b41565b60208301905092915050565b6000602082019050919050565b610ef181610ea3565b610efb8184610eae565b9250610f0682610eb9565b8060005b83811015610f37578151610f1e8782610ec3565b9650610f2983610edb565b925050600181019050610f0a565b505050505050565b608082016000820151610f556000850182610ee8565b506020820151610f686040850182610ee8565b50505050565b6000608082019050610f836000830184610f3f565b92915050565b60008060608385031215610fa057610f9f6109e0565b5b6000610fae85828601610ab1565b9250506040610fbf85828601610a9c565b9150509250929050565b600060408284031215610fdf57610fde6109e0565b5b6000610fed84828501610ab1565b91505092915050565b7f4e487b7100000000000000000000000000000000000000000000000000000000600052603260045260246000fd5b7f4e487b7100000000000000000000000000000000000000000000000000000000600052601160045260246000fd5b600061105f82610a7b565b915061106a83610a7b565b925082820261107881610a7b565b9150828204841483151761108f5761108e611025565b5b5092915050565b60006110a182610a7b565b91506110ac83610a7b565b92508282019050808211156110c4576110c3611025565b5b92915050565b60006110d582610a7b565b91506110e083610a7b565b92508282039050818111156110f8576110f7611025565b5b9291505056fea26469706673582212205a854fdf6d9443b289d4f3539d6a80f938578a3e456a96849ab89b86ac83b66464736f6c63430008170033",
  "linkReferences": {},
  "deployedLinkReferences": {}
}