{
  "_format": "hh-sol-artifact-1",
  "contractName": "ResultCalculator",
  "sourceName": "contracts/resultCalculators/ResultCalculator.sol",
  "abi": [
    {
      "inputs": [],
      "name": "CandidatesTie",
      "type": "error"
    },
    {
      "inputs": [],
      "name": "NoCandidates",
      "type": "error"
    },
    {
      "inputs": [],
      "name": "NoWinner",
      "type": "error"
    },
    {
      "inputs": [],
      "name": "VotesExhausted",
      "type": "error"
    },
    {
      "inputs": [
        {
          "internalType": "bytes",
          "name": "returnData",
          "type": "bytes"
        }
      ],
      "name": "calculateBordaResult",
      "outputs": [
        {
          "internalType": "uint256",
          "name": "",
          "type": "uint256"
        }
      ],
      "stateMutability": "pure",
      "type": "function"
    },
    {
      "inputs": [
        {
          "internalType": "bytes",
          "name": "returnData",
          "type": "bytes"
        }
      ],
      "name": "calculateGeneralResult",
      "outputs": [
        {
          "internalType": "uint256",
          "name": "",
          "type": "uint256"
        }
      ],
      "stateMutability": "pure",
      "type": "function"
    },
    {
      "inputs": [
        {
          "internalType": "bytes",
          "name": "returnData",
          "type": "bytes"
        }
      ],
      "name": "calculateIRVResult",
      "outputs": [
        {
          "internalType": "uint256",
          "name": "",
          "type": "uint256"
        }
      ],
      "stateMutability": "pure",
      "type": "function"
    },
    {
      "inputs": [
        {
          "internalType": "bytes",
          "name": "returnData",
          "type": "bytes"
        }
      ],
      "name": "calculateKemenyYoungResult",
      "outputs": [
        {
          "internalType": "uint256",
          "name": "",
          "type": "uint256"
        }
      ],
      "stateMutability": "pure",
      "type": "function"
    },
    {
      "inputs": [
        {
          "internalType": "bytes",
          "name": "returnData",
          "type": "bytes"
        }
      ],
      "name": "calculateSchulzeResult",
      "outputs": [
        {
          "internalType": "uint256",
          "name": "",
          "type": "uint256"
        }
      ],
      "stateMutability": "pure",
      "type": "function"
    },
    {
      "inputs": [
        {
          "internalType": "bytes",
          "name": "returnData",
          "type": "bytes"
        },
        {
          "internalType": "uint256",
          "name": "_resultType",
          "type": "uint256"
        }
      ],
      "name": "getResults",
      "outputs": [
        {
          "internalType": "uint256",
          "name": "",
          "type": "uint256"
        }
      ],
      "stateMutability": "pure",
      "type": "function"
    }
  ],
  "bytecode": "0x608060405234801561001057600080fd5b50611dd8806100206000396000f3fe608060405234801561001057600080fd5b50600436106100625760003560e01c80631557be75146100675780631892513814610097578063934150cc146100c7578063af6de5a1146100f7578063b226565314610127578063d517599014610157575b600080fd5b610081600480360381019061007c919061179c565b610187565b60405161008e91906117fe565b60405180910390f35b6100b160048036038101906100ac919061179c565b6101b7565b6040516100be91906117fe565b60405180910390f35b6100e160048036038101906100dc91906118a5565b6101e7565b6040516100ee91906117fe565b60405180910390f35b610111600480360381019061010c9190611905565b6103b9565b60405161011e91906117fe565b60405180910390f35b610141600480360381019061013c919061179c565b610463565b60405161014e91906117fe565b60405180910390f35b610171600480360381019061016c919061179c565b610493565b60405161017e91906117fe565b60405180910390f35b6000808280602001905181019061019e9190611b0b565b905060006101ab826104c3565b90508092505050919050565b600080828060200190518101906101ce9190611b0b565b905060006101db82610709565b90508092505050919050565b60006003821015610203576101fc84846103b9565b90506103b2565b6003820361025f5761025884848080601f016020809104026020016040519081016040528093929190818152602001838380828437600081840152601f19601f82011690508083019250505050505050610463565b90506103b2565b600482036102bb576102b484848080601f016020809104026020016040519081016040528093929190818152602001838380828437600081840152601f19601f82011690508083019250505050505050610187565b90506103b2565b600582036102d4576102cd84846103b9565b90506103b2565b600682036102ed576102e684846103b9565b90506103b2565b600782036103495761034284848080601f016020809104026020016040519081016040528093929190818152602001838380828437600081840152601f19601f82011690508083019250505050505050610493565b90506103b2565b600882036103a55761039e84848080601f016020809104026020016040519081016040528093929190818152602001838380828437600081840152601f19601f820116905080830192505050505050506101b7565b90506103b2565b6103af84846103b9565b90505b9392505050565b60008083838101906103cb9190611beb565b90506000808251905060005b835181101561041c5760008482815181106103f5576103f4611c34565b5b602002602001015190508381111561040e578093508192505b5080806001019150506103d7565b5082518103610457576040517f8b9ae95f00000000000000000000000000000000000000000000000000000000815260040160405180910390fd5b80935050505092915050565b6000808280602001905181019061047a9190611b0b565b9050600061048782610cc7565b90508092505050919050565b600080828060200190518101906104aa9190611b0b565b905060006104b782610fde565b90508092505050919050565b600080826000815181106104da576104d9611c34565b5b60200260200101515190506000810361051f576040517fe504190400000000000000000000000000000000000000000000000000000000815260040160405180910390fd5b60008167ffffffffffffffff81111561053b5761053a611671565b5b6040519080825280602002602001820160405280156105695781602001602082028036833780820191505090505b50905060005b84518110156106335760005b85828151811061058e5761058d611c34565b5b60200260200101515181101561062557600181856105ac9190611c92565b6105b69190611c92565b838784815181106105ca576105c9611c34565b5b602002602001015183815181106105e4576105e3611c34565b5b6020026020010151815181106105fd576105fc611c34565b5b602002602001018181516106119190611cc6565b91508181525050808060010191505061057b565b50808060010191505061056f565b506000806000805b84518110156106c3578385828151811061065857610657611c34565b5b6020026020010151111561068f5784818151811061067957610678611c34565b5b60200260200101519350809250600091506106b6565b838582815181106106a3576106a2611c34565b5b6020026020010151036106b557600191505b5b808060010191505061063b565b5080156106fc576040517fac5997c700000000000000000000000000000000000000000000000000000000815260040160405180910390fd5b8195505050505050919050565b600080825190506000810361074a576040517fe504190400000000000000000000000000000000000000000000000000000000815260040160405180910390fd5b60008167ffffffffffffffff81111561076657610765611671565b5b60405190808252806020026020018201604052801561079957816020015b60608152602001906001900390816107845790505b50905060005b8281101561081b578267ffffffffffffffff8111156107c1576107c0611671565b5b6040519080825280602002602001820160405280156107ef5781602001602082028036833780820191505090505b5082828151811061080357610802611c34565b5b6020026020010181905250808060010191505061079f565b5060005b828110156109345760005b83811015610926578082146109195785818151811061084c5761084b611c34565b5b6020026020010151828151811061086657610865611c34565b5b602002602001015186838151811061088157610880611c34565b5b6020026020010151828151811061089b5761089a611c34565b5b60200260200101511115610918578582815181106108bc576108bb611c34565b5b602002602001015181815181106108d6576108d5611c34565b5b60200260200101518383815181106108f1576108f0611c34565b5b6020026020010151828151811061090b5761090a611c34565b5b6020026020010181815250505b5b808060010191505061082a565b50808060010191505061081f565b5060005b82811015610b995760005b83811015610b8b57808214610b7e5760005b84811015610b7c5780831415801561096d5750808214155b15610b6f5783828151811061098557610984611c34565b5b6020026020010151838151811061099f5761099e611c34565b5b60200260200101518483815181106109ba576109b9611c34565b5b602002602001015182815181106109d4576109d3611c34565b5b6020026020010151108015610a5057508383815181106109f7576109f6611c34565b5b60200260200101518181518110610a1157610a10611c34565b5b6020026020010151848381518110610a2c57610a2b611c34565b5b60200260200101518281518110610a4657610a45611c34565b5b6020026020010151105b15610b6e57838381518110610a6857610a67611c34565b5b60200260200101518181518110610a8257610a81611c34565b5b6020026020010151848381518110610a9d57610a9c611c34565b5b60200260200101518481518110610ab757610ab6611c34565b5b602002602001015110610afe57838381518110610ad757610ad6611c34565b5b60200260200101518181518110610af157610af0611c34565b5b6020026020010151610b34565b838281518110610b1157610b10611c34565b5b60200260200101518381518110610b2b57610b2a611c34565b5b60200260200101515b848381518110610b4757610b46611c34565b5b60200260200101518281518110610b6157610b60611c34565b5b6020026020010181815250505b5b8080600101915050610955565b505b8080600101915050610943565b508080600101915050610938565b50600080806000905060005b85811015610c81576000805b87811015610c4e57808314610c4157868181518110610bd357610bd2611c34565b5b60200260200101518381518110610bed57610bec611c34565b5b6020026020010151878481518110610c0857610c07611c34565b5b60200260200101518281518110610c2257610c21611c34565b5b60200260200101511115610c4057600182610c3d9190611cc6565b91505b5b8080600101915050610bb1565b5084811115610c665780945081935060009250610c73565b848103610c7257600192505b5b508080600101915050610ba5565b508015610cba576040517fac5997c700000000000000000000000000000000000000000000000000000000815260040160405180910390fd5b8195505050505050919050565b60008082600081518110610cde57610cdd611c34565b5b602002602001015151905060008103610d23576040517fe504190400000000000000000000000000000000000000000000000000000000815260040160405180910390fd5b5b600115610fa7576000610d37848361145d565b905060005b8151811015610d8c5760028551610d539190611d29565b828281518110610d6657610d65611c34565b5b60200260200101511115610d7f57809350505050610fd9565b8080600101915050610d3c565b5060008451905060008551905060006001905060005b8451811015610e775783858281518110610dbf57610dbe611c34565b5b6020026020010151108015610dee57506000858281518110610de457610de3611c34565b5b6020026020010151115b15610e1c57848181518110610e0657610e05611c34565b5b6020026020010151935080925060009150610e6a565b83858281518110610e3057610e2f611c34565b5b6020026020010151148015610e5f57506000858281518110610e5557610e54611c34565b5b6020026020010151115b15610e6957600091505b5b8080600101915050610da2565b50600285148015610e855750805b15610ebc576040517fac5997c700000000000000000000000000000000000000000000000000000000815260040160405180910390fd5b60005b8751811015610f1757610eec888281518110610ede57610edd611c34565b5b602002602001015184611556565b888281518110610eff57610efe611c34565b5b60200260200101819052508080600101915050610ebf565b5060006001905060005b8851811015610f64576000898281518110610f3f57610f3e611c34565b5b6020026020010151511115610f575760009150610f64565b8080600101915050610f21565b508015610f9d576040517fd7b4628c00000000000000000000000000000000000000000000000000000000815260040160405180910390fd5b5050505050610d24565b6040517f8b9ae95f00000000000000000000000000000000000000000000000000000000815260040160405180910390fd5b919050565b600080825190506000810361101f576040517fe504190400000000000000000000000000000000000000000000000000000000815260040160405180910390fd5b60008167ffffffffffffffff81111561103b5761103a611671565b5b60405190808252806020026020018201604052801561106e57816020015b60608152602001906001900390816110595790505b50905060005b82811015611229578267ffffffffffffffff81111561109657611095611671565b5b6040519080825280602002602001820160405280156110c45781602001602082028036833780820191505090505b508282815181106110d8576110d7611c34565b5b602002602001018190525060005b8381101561121b5780821461120e5785818151811061110857611107611c34565b5b6020026020010151828151811061112257611121611c34565b5b602002602001015186838151811061113d5761113c611c34565b5b6020026020010151828151811061115757611156611c34565b5b60200260200101511161119e5785818151811061117757611176611c34565b5b6020026020010151828151811061119157611190611c34565b5b60200260200101516111d4565b8582815181106111b1576111b0611c34565b5b602002602001015181815181106111cb576111ca611c34565b5b60200260200101515b8383815181106111e7576111e6611c34565b5b6020026020010151828151811061120157611200611c34565b5b6020026020010181815250505b80806001019150506110e6565b508080600101915050611074565b5060008267ffffffffffffffff81111561124657611245611671565b5b6040519080825280602002602001820160405280156112745781602001602082028036833780820191505090505b5090506000805b848110156113ef5760008567ffffffffffffffff81111561129f5761129e611671565b5b6040519080825280602002602001820160405280156112cd5781602001602082028036833780820191505090505b5090506000805b878110156113d0578084146113c3578681815181106112f6576112f5611c34565b5b602002602001015184815181106113105761130f611c34565b5b602002602001015187858151811061132b5761132a611c34565b5b6020026020010151828151811061134557611344611c34565b5b602002602001015111156113c25782848151811061136657611365611c34565b5b60200260200101805180919061137b90611d5a565b8152505086848151811061139257611391611c34565b5b602002602001015181815181106113ac576113ab611c34565b5b6020026020010151826113bf9190611cc6565b91505b5b80806001019150506112d4565b50838111156113e0578093508194505b5050808060010191505061127b565b5060008060005b8681101561144e578185828151811061141257611411611c34565b5b602002602001015111156114415784818151811061143357611432611c34565b5b602002602001015191508092505b80806001019150506113f6565b50819650505050505050919050565b606060008267ffffffffffffffff81111561147b5761147a611671565b5b6040519080825280602002602001820160405280156114a95781602001602082028036833780820191505090505b50905060005b845181101561154b5760008582815181106114cd576114cc611c34565b5b602002602001015151111561153e57818582815181106114f0576114ef611c34565b5b602002602001015160008151811061150b5761150a611c34565b5b60200260200101518151811061152457611523611c34565b5b60200260200101805180919061153990611d5a565b815250505b80806001019150506114af565b508091505092915050565b60606000600184516115689190611c92565b67ffffffffffffffff81111561158157611580611671565b5b6040519080825280602002602001820160405280156115af5781602001602082028036833780820191505090505b5090506000805b855181101561163657848682815181106115d3576115d2611c34565b5b602002602001015114611629578581815181106115f3576115f2611c34565b5b602002602001015183838151811061160e5761160d611c34565b5b602002602001018181525050818061162590611d5a565b9250505b80806001019150506115b6565b50819250505092915050565b6000604051905090565b600080fd5b600080fd5b600080fd5b600080fd5b6000601f19601f8301169050919050565b7f4e487b7100000000000000000000000000000000000000000000000000000000600052604160045260246000fd5b6116a982611660565b810181811067ffffffffffffffff821117156116c8576116c7611671565b5b80604052505050565b60006116db611642565b90506116e782826116a0565b919050565b600067ffffffffffffffff82111561170757611706611671565b5b61171082611660565b9050602081019050919050565b82818337600083830152505050565b600061173f61173a846116ec565b6116d1565b90508281526020810184848401111561175b5761175a61165b565b5b61176684828561171d565b509392505050565b600082601f83011261178357611782611656565b5b813561179384826020860161172c565b91505092915050565b6000602082840312156117b2576117b161164c565b5b600082013567ffffffffffffffff8111156117d0576117cf611651565b5b6117dc8482850161176e565b91505092915050565b6000819050919050565b6117f8816117e5565b82525050565b600060208201905061181360008301846117ef565b92915050565b600080fd5b600080fd5b60008083601f84011261183957611838611656565b5b8235905067ffffffffffffffff81111561185657611855611819565b5b6020830191508360018202830111156118725761187161181e565b5b9250929050565b611882816117e5565b811461188d57600080fd5b50565b60008135905061189f81611879565b92915050565b6000806000604084860312156118be576118bd61164c565b5b600084013567ffffffffffffffff8111156118dc576118db611651565b5b6118e886828701611823565b935093505060206118fb86828701611890565b9150509250925092565b6000806020838503121561191c5761191b61164c565b5b600083013567ffffffffffffffff81111561193a57611939611651565b5b61194685828601611823565b92509250509250929050565b600067ffffffffffffffff82111561196d5761196c611671565b5b602082029050602081019050919050565b600067ffffffffffffffff82111561199957611998611671565b5b602082029050602081019050919050565b6000815190506119b981611879565b92915050565b60006119d26119cd8461197e565b6116d1565b905080838252602082019050602084028301858111156119f5576119f461181e565b5b835b81811015611a1e5780611a0a88826119aa565b8452602084019350506020810190506119f7565b5050509392505050565b600082601f830112611a3d57611a3c611656565b5b8151611a4d8482602086016119bf565b91505092915050565b6000611a69611a6484611952565b6116d1565b90508083825260208201905060208402830185811115611a8c57611a8b61181e565b5b835b81811015611ad357805167ffffffffffffffff811115611ab157611ab0611656565b5b808601611abe8982611a28565b85526020850194505050602081019050611a8e565b5050509392505050565b600082601f830112611af257611af1611656565b5b8151611b02848260208601611a56565b91505092915050565b600060208284031215611b2157611b2061164c565b5b600082015167ffffffffffffffff811115611b3f57611b3e611651565b5b611b4b84828501611add565b91505092915050565b6000611b67611b628461197e565b6116d1565b90508083825260208201905060208402830185811115611b8a57611b8961181e565b5b835b81811015611bb35780611b9f8882611890565b845260208401935050602081019050611b8c565b5050509392505050565b600082601f830112611bd257611bd1611656565b5b8135611be2848260208601611b54565b91505092915050565b600060208284031215611c0157611c0061164c565b5b600082013567ffffffffffffffff811115611c1f57611c1e611651565b5b611c2b84828501611bbd565b91505092915050565b7f4e487b7100000000000000000000000000000000000000000000000000000000600052603260045260246000fd5b7f4e487b7100000000000000000000000000000000000000000000000000000000600052601160045260246000fd5b6000611c9d826117e5565b9150611ca8836117e5565b9250828203905081811115611cc057611cbf611c63565b5b92915050565b6000611cd1826117e5565b9150611cdc836117e5565b9250828201905080821115611cf457611cf3611c63565b5b92915050565b7f4e487b7100000000000000000000000000000000000000000000000000000000600052601260045260246000fd5b6000611d34826117e5565b9150611d3f836117e5565b925082611d4f57611d4e611cfa565b5b828204905092915050565b6000611d65826117e5565b91507fffffffffffffffffffffffffffffffffffffffffffffffffffffffffffffffff8203611d9757611d96611c63565b5b60018201905091905056fea2646970667358221220faa1d2c85684997fd0ca27c7314e86d071715df30ebbb96bde0360de085a66b964736f6c63430008180033",
  "linkReferences": {},
  "deployedLinkReferences": {}
}