{
  "_format": "hh-sol-artifact-1",
  "contractName": "IRVResult",
  "sourceName": "contracts/resultCalculator/IRVResult.sol",
  "abi": [
    {
      "inputs": [
        {
          "internalType": "contract Ballot",
          "name": "_ballot",
          "type": "address"
        },
        {
          "internalType": "uint256",
          "name": "_voterCount",
          "type": "uint256"
        }
      ],
      "name": "getResult",
      "outputs": [
        {
          "internalType": "uint256[]",
          "name": "",
          "type": "uint256[]"
        }
      ],
      "stateMutability": "nonpayable",
      "type": "function"
    },
    {
      "inputs": [
        {
          "internalType": "uint256[]",
          "name": "candidate",
          "type": "uint256[]"
        },
        {
          "internalType": "uint256[][]",
          "name": "votes",
          "type": "uint256[][]"
        },
        {
          "internalType": "uint256[]",
          "name": "actualCandidate",
          "type": "uint256[]"
        },
        {
          "internalType": "uint256",
          "name": "candidateLen",
          "type": "uint256"
        },
        {
          "internalType": "uint256",
          "name": "votesLen",
          "type": "uint256"
        }
      ],
      "name": "instant_runoff_voting",
      "outputs": [
        {
          "internalType": "uint256",
          "name": "",
          "type": "uint256"
        }
      ],
      "stateMutability": "nonpayable",
      "type": "function"
    }
  ],
  "bytecode": "0x608060405234801561001057600080fd5b506109f0806100206000396000f3fe608060405234801561001057600080fd5b50600436106100365760003560e01c8063c8344a201461003b578063d0f7ef1b14610064575b600080fd5b61004e610049366004610567565b610085565b60405161005b919061059f565b60405180910390f35b6100776100723660046106b9565b610236565b60405190815260200161005b565b60408051600081526020810191829052516060916100a69160019190610507565b506000836001600160a01b03166306a49fce6040518163ffffffff1660e01b815260040160006040518083038186803b1580156100e257600080fd5b505afa1580156100f6573d6000803e3d6000fd5b505050506040513d6000823e601f3d908101601f1916820160405261011e919081019061081d565b90506000846001600160a01b031663afa524086040518163ffffffff1660e01b8152600401600060405180830381600087803b15801561015d57600080fd5b505af1158015610171573d6000803e3d6000fd5b505050506040513d6000823e601f3d908101601f19168201604052610199919081019061085a565b905060006101ac83838586518651610236565b60018054808201825560008290527fb10e2d527612073b26eecdfd717e6a320cf44b4afac2b0732d9fcbe2b7fa0cf60182905580546040805160208381028201810190925282815293945083018282801561022657602002820191906000526020600020905b815481526020019060010190808311610212575b5050505050935050505092915050565b6000805b845181101561028757600080600087848151811061025a5761025a61090b565b6020026020010151815260200190815260200160002081905550808061027f90610937565b91505061023a565b5060005b82811015610301576000808783815181106102a8576102a861090b565b60200260200101516000815181106102c2576102c261090b565b6020026020010151815260200190815260200160002060008154809291906102e990610937565b919050555080806102f990610937565b91505061028b565b5060005b8381101561037e57610318600284610952565b60008089848151811061032d5761032d61090b565b6020026020010151815260200190815260200160002054111561036c5786818151811061035c5761035c61090b565b60200260200101519150506104fe565b8061037681610937565b915050610305565b506000866000815181106103945761039461090b565b602002602001015190506000600190505b875181101561042257600080838152602001908152602001600020546000808a84815181106103d6576103d661090b565b60200260200101518152602001908152602001600020541015610410578781815181106104055761040561090b565b602002602001015191505b8061041a81610937565b9150506103a5565b5060001960005b8581101561046c578881815181106104435761044361090b565b602002602001015183141561045a5780915061046c565b8061046481610937565b915050610429565b5080600019146104ec57805b610483600187610974565b8110156104dd578861049682600161098b565b815181106104a6576104a661090b565b60200260200101518982815181106104c0576104c061090b565b6020908102919091010152806104d581610937565b915050610478565b50846104e8816109a3565b9550505b6104f98888888888610236565b925050505b95945050505050565b828054828255906000526020600020908101928215610542579160200282015b82811115610542578251825591602001919060010190610527565b5061054e929150610552565b5090565b5b8082111561054e5760008155600101610553565b6000806040838503121561057a57600080fd5b82356001600160a01b038116811461059157600080fd5b946020939093013593505050565b6020808252825182820181905260009190848201906040850190845b818110156105d7578351835292840192918401916001016105bb565b50909695505050505050565b634e487b7160e01b600052604160045260246000fd5b604051601f8201601f1916810167ffffffffffffffff81118282101715610622576106226105e3565b604052919050565b600067ffffffffffffffff821115610644576106446105e3565b5060051b60200190565b600082601f83011261065f57600080fd5b8135602061067461066f8361062a565b6105f9565b82815260059290921b8401810191818101908684111561069357600080fd5b8286015b848110156106ae5780358352918301918301610697565b509695505050505050565b600080600080600060a086880312156106d157600080fd5b853567ffffffffffffffff808211156106e957600080fd5b6106f589838a0161064e565b965060209150818801358181111561070c57600080fd5b8801601f81018a1361071d57600080fd5b803561072b61066f8261062a565b81815260059190911b8201840190848101908c83111561074a57600080fd5b8584015b83811015610782578035868111156107665760008081fd5b6107748f898389010161064e565b84525091860191860161074e565b509850505050604088013591508082111561079c57600080fd5b506107a98882890161064e565b9598949750949560608101359550608001359392505050565b600082601f8301126107d357600080fd5b815160206107e361066f8361062a565b82815260059290921b8401810191818101908684111561080257600080fd5b8286015b848110156106ae5780518352918301918301610806565b60006020828403121561082f57600080fd5b815167ffffffffffffffff81111561084657600080fd5b610852848285016107c2565b949350505050565b6000602080838503121561086d57600080fd5b825167ffffffffffffffff8082111561088557600080fd5b818501915085601f83011261089957600080fd5b81516108a761066f8261062a565b81815260059190911b830184019084810190888311156108c657600080fd5b8585015b838110156108fe578051858111156108e25760008081fd5b6108f08b89838a01016107c2565b8452509186019186016108ca565b5098975050505050505050565b634e487b7160e01b600052603260045260246000fd5b634e487b7160e01b600052601160045260246000fd5b600060001982141561094b5761094b610921565b5060010190565b60008261096f57634e487b7160e01b600052601260045260246000fd5b500490565b60008282101561098657610986610921565b500390565b6000821982111561099e5761099e610921565b500190565b6000816109b2576109b2610921565b50600019019056fea2646970667358221220fe4685007d080c4512a5b0aed5cb110cfa94f4439c1d13ba873a85831466687a64736f6c63430008090033",
  "linkReferences": {},
  "deployedLinkReferences": {}
}