{
  "_format": "hh-sol-artifact-1",
  "contractName": "ScoreBallot",
  "sourceName": "contracts/facets/votingApp/ballot/ScoreBallot.sol",
  "abi": [
    {
      "inputs": [
        {
          "internalType": "uint256",
          "name": "_candidate",
          "type": "uint256"
        }
      ],
      "name": "addCandidate",
      "outputs": [],
      "stateMutability": "nonpayable",
      "type": "function"
    },
    {
      "inputs": [],
      "name": "getCandidates",
      "outputs": [
        {
          "internalType": "uint256[]",
          "name": "",
          "type": "uint256[]"
        }
      ],
      "stateMutability": "view",
      "type": "function"
    },
    {
      "inputs": [],
      "name": "getVoteArr",
      "outputs": [
        {
          "internalType": "uint256[][]",
          "name": "",
          "type": "uint256[][]"
        }
      ],
      "stateMutability": "nonpayable",
      "type": "function"
    },
    {
      "inputs": [
        {
          "internalType": "uint256",
          "name": "_candidate",
          "type": "uint256"
        },
        {
          "internalType": "uint256",
          "name": "_weight",
          "type": "uint256"
        }
      ],
      "name": "getVoteCount",
      "outputs": [
        {
          "internalType": "uint256",
          "name": "",
          "type": "uint256"
        }
      ],
      "stateMutability": "view",
      "type": "function"
    },
    {
      "inputs": [
        {
          "internalType": "address",
          "name": "_voter",
          "type": "address"
        }
      ],
      "name": "getVoteStatus",
      "outputs": [
        {
          "internalType": "bool",
          "name": "",
          "type": "bool"
        }
      ],
      "stateMutability": "view",
      "type": "function"
    },
    {
      "inputs": [
        {
          "internalType": "address",
          "name": "_voter",
          "type": "address"
        },
        {
          "internalType": "uint256",
          "name": "_candidate",
          "type": "uint256"
        },
        {
          "internalType": "uint256",
          "name": "_score",
          "type": "uint256"
        },
        {
          "internalType": "uint256[]",
          "name": "voteArr",
          "type": "uint256[]"
        }
      ],
      "name": "vote",
      "outputs": [],
      "stateMutability": "nonpayable",
      "type": "function"
    }
  ],
  "bytecode": "0x608060405234801561001057600080fd5b50610d9f806100206000396000f3fe608060405234801561001057600080fd5b50600436106100625760003560e01c806306a49fce14610067578063521b0dcc14610085578063a1818ac4146100b5578063afa52408146100d1578063de2e19a0146100ef578063e844d0971461011f575b600080fd5b61006f61013b565b60405161007c919061065a565b60405180910390f35b61009f600480360381019061009a91906106ee565b610193565b6040516100ac9190610736565b60405180910390f35b6100cf60048036038101906100ca91906108d6565b6101e9565b005b6100d961053a565b6040516100e69190610a8a565b60405180910390f35b61010960048036038101906101049190610aac565b610544565b6040516101169190610afb565b60405180910390f35b61013960048036038101906101349190610b16565b610566565b005b6060600080548060200260200160405190810160405280929190818152602001828054801561018957602002820191906000526020600020905b815481526020019060010190808311610175575b5050505050905090565b6000600160008373ffffffffffffffffffffffffffffffffffffffff1673ffffffffffffffffffffffffffffffffffffffff16815260200190815260200160002060009054906101000a900460ff169050919050565b60001515600160008673ffffffffffffffffffffffffffffffffffffffff1673ffffffffffffffffffffffffffffffffffffffff16815260200190815260200160002060009054906101000a900460ff1615151461027c576040517f08c379a000000000000000000000000000000000000000000000000000000000815260040161027390610ba0565b60405180910390fd5b60001515600460008673ffffffffffffffffffffffffffffffffffffffff1673ffffffffffffffffffffffffffffffffffffffff168152602001908152602001600020600085815260200190815260200160002060009054906101000a900460ff16151514610320576040517f08c379a000000000000000000000000000000000000000000000000000000000815260040161031790610c32565b60405180910390fd5b600080549050600560008673ffffffffffffffffffffffffffffffffffffffff1673ffffffffffffffffffffffffffffffffffffffff16815260200190815260200160002054106103a6576040517f08c379a000000000000000000000000000000000000000000000000000000000815260040161039d90610cc4565b60405180910390fd5b816002600085815260200190815260200160002060008282546103c99190610d13565b925050819055506001600560008673ffffffffffffffffffffffffffffffffffffffff1673ffffffffffffffffffffffffffffffffffffffff16815260200190815260200160002060008282546104209190610d13565b925050819055506001600460008673ffffffffffffffffffffffffffffffffffffffff1673ffffffffffffffffffffffffffffffffffffffff168152602001908152602001600020600085815260200190815260200160002060006101000a81548160ff021916908315150217905550600080549050600560008673ffffffffffffffffffffffffffffffffffffffff1673ffffffffffffffffffffffffffffffffffffffff1681526020019081526020016000205414156105345760018060008673ffffffffffffffffffffffffffffffffffffffff1673ffffffffffffffffffffffffffffffffffffffff16815260200190815260200160002060006101000a81548160ff0219169083151502179055505b50505050565b6060808091505090565b6000600191506002600084815260200190815260200160002054905092915050565b600081908060018154018082558091505060019003906000526020600020016000909190919091505550565b600081519050919050565b600082825260208201905092915050565b6000819050602082019050919050565b6000819050919050565b6105d1816105be565b82525050565b60006105e383836105c8565b60208301905092915050565b6000602082019050919050565b600061060782610592565b610611818561059d565b935061061c836105ae565b8060005b8381101561064d57815161063488826105d7565b975061063f836105ef565b925050600181019050610620565b5085935050505092915050565b6000602082019050818103600083015261067481846105fc565b905092915050565b6000604051905090565b600080fd5b600080fd5b600073ffffffffffffffffffffffffffffffffffffffff82169050919050565b60006106bb82610690565b9050919050565b6106cb816106b0565b81146106d657600080fd5b50565b6000813590506106e8816106c2565b92915050565b60006020828403121561070457610703610686565b5b6000610712848285016106d9565b91505092915050565b60008115159050919050565b6107308161071b565b82525050565b600060208201905061074b6000830184610727565b92915050565b61075a816105be565b811461076557600080fd5b50565b60008135905061077781610751565b92915050565b600080fd5b6000601f19601f8301169050919050565b7f4e487b7100000000000000000000000000000000000000000000000000000000600052604160045260246000fd5b6107cb82610782565b810181811067ffffffffffffffff821117156107ea576107e9610793565b5b80604052505050565b60006107fd61067c565b905061080982826107c2565b919050565b600067ffffffffffffffff82111561082957610828610793565b5b602082029050602081019050919050565b600080fd5b600061085261084d8461080e565b6107f3565b905080838252602082019050602084028301858111156108755761087461083a565b5b835b8181101561089e578061088a8882610768565b845260208401935050602081019050610877565b5050509392505050565b600082601f8301126108bd576108bc61077d565b5b81356108cd84826020860161083f565b91505092915050565b600080600080608085870312156108f0576108ef610686565b5b60006108fe878288016106d9565b945050602061090f87828801610768565b935050604061092087828801610768565b925050606085013567ffffffffffffffff8111156109415761094061068b565b5b61094d878288016108a8565b91505092959194509250565b600081519050919050565b600082825260208201905092915050565b6000819050602082019050919050565b600082825260208201905092915050565b60006109a182610592565b6109ab8185610985565b93506109b6836105ae565b8060005b838110156109e75781516109ce88826105d7565b97506109d9836105ef565b9250506001810190506109ba565b5085935050505092915050565b6000610a008383610996565b905092915050565b6000602082019050919050565b6000610a2082610959565b610a2a8185610964565b935083602082028501610a3c85610975565b8060005b85811015610a785784840389528151610a5985826109f4565b9450610a6483610a08565b925060208a01995050600181019050610a40565b50829750879550505050505092915050565b60006020820190508181036000830152610aa48184610a15565b905092915050565b60008060408385031215610ac357610ac2610686565b5b6000610ad185828601610768565b9250506020610ae285828601610768565b9150509250929050565b610af5816105be565b82525050565b6000602082019050610b106000830184610aec565b92915050565b600060208284031215610b2c57610b2b610686565b5b6000610b3a84828501610768565b91505092915050565b600082825260208201905092915050565b7f566f74657220616c726561647920766f74656400000000000000000000000000600082015250565b6000610b8a601383610b43565b9150610b9582610b54565b602082019050919050565b60006020820190508181036000830152610bb981610b7d565b9050919050565b7f566f74657220616c726561647920766f74656420666f7220746869732063616e60008201527f6469646174650000000000000000000000000000000000000000000000000000602082015250565b6000610c1c602683610b43565b9150610c2782610bc0565b604082019050919050565b60006020820190508181036000830152610c4b81610c0f565b9050919050565b7f4d617820766f74657320616c72656164792063617374656420627920766f746560008201527f7200000000000000000000000000000000000000000000000000000000000000602082015250565b6000610cae602183610b43565b9150610cb982610c52565b604082019050919050565b60006020820190508181036000830152610cdd81610ca1565b9050919050565b7f4e487b7100000000000000000000000000000000000000000000000000000000600052601160045260246000fd5b6000610d1e826105be565b9150610d29836105be565b9250827fffffffffffffffffffffffffffffffffffffffffffffffffffffffffffffffff03821115610d5e57610d5d610ce4565b5b82820190509291505056fea26469706673582212205ab0d9c007c450c495d005160678e34a543de2ef5d0c978a36dda43fbc920a3a64736f6c634300080a0033",
  "linkReferences": {},
  "deployedLinkReferences": {}
}