{
  "_format": "hh-sol-artifact-1",
  "contractName": "GetBallot",
  "sourceName": "contracts/facets/GetBallot.sol",
  "abi": [
    {
      "inputs": [
        {
          "internalType": "uint256",
          "name": "_ballotType",
          "type": "uint256"
        }
      ],
      "name": "getNewBallot",
      "outputs": [],
      "stateMutability": "nonpayable",
      "type": "function"
    }
  ],
  "bytecode": "0x608060405234801561001057600080fd5b50614f98806100206000396000f3fe608060405234801561001057600080fd5b506004361061002b5760003560e01c80637878256214610030575b600080fd5b61004a600480360381019061004591906104b0565b61004c565b005b60018114156100c25760405161006190610427565b604051809103906000f08015801561007d573d6000803e3d6000fd5b506000806101000a81548173ffffffffffffffffffffffffffffffffffffffff021916908373ffffffffffffffffffffffffffffffffffffffff16021790555061038d565b6002811415610138576040516100d790610434565b604051809103906000f0801580156100f3573d6000803e3d6000fd5b506000806101000a81548173ffffffffffffffffffffffffffffffffffffffff021916908373ffffffffffffffffffffffffffffffffffffffff16021790555061038c565b60038114156101465761038b565b60048114156101bc5760405161015b90610441565b604051809103906000f080158015610177573d6000803e3d6000fd5b506000806101000a81548173ffffffffffffffffffffffffffffffffffffffff021916908373ffffffffffffffffffffffffffffffffffffffff16021790555061038a565b6005811415610232576040516101d19061044e565b604051809103906000f0801580156101ed573d6000803e3d6000fd5b506000806101000a81548173ffffffffffffffffffffffffffffffffffffffff021916908373ffffffffffffffffffffffffffffffffffffffff160217905550610389565b60068114156102a8576040516102479061045b565b604051809103906000f080158015610263573d6000803e3d6000fd5b506000806101000a81548173ffffffffffffffffffffffffffffffffffffffff021916908373ffffffffffffffffffffffffffffffffffffffff160217905550610388565b600781141561031e576040516102bd90610468565b604051809103906000f0801580156102d9573d6000803e3d6000fd5b506000806101000a81548173ffffffffffffffffffffffffffffffffffffffff021916908373ffffffffffffffffffffffffffffffffffffffff160217905550610387565b60405161032a90610427565b604051809103906000f080158015610346573d6000803e3d6000fd5b506000806101000a81548173ffffffffffffffffffffffffffffffffffffffff021916908373ffffffffffffffffffffffffffffffffffffffff1602179055505b5b5b5b5b5b5b60008054906101000a900473ffffffffffffffffffffffffffffffffffffffff166103b66103fa565b60000160006101000a81548173ffffffffffffffffffffffffffffffffffffffff021916908373ffffffffffffffffffffffffffffffffffffffff16021790555050565b6000807f5b43f313088137496832405d64cc708765db93c8144d82f7a7f806ac22d5603b90508091505090565b610acc806104de83390190565b610dde80610faa83390190565b610c6c80611d8883390190565b610dfa806129f483390190565b610a49806137ee83390190565b610d2c8061423783390190565b600080fd5b6000819050919050565b61048d8161047a565b811461049857600080fd5b50565b6000813590506104aa81610484565b92915050565b6000602082840312156104c6576104c5610475565b5b60006104d48482850161049b565b9150509291505056fe608060405234801561001057600080fd5b50610aac806100206000396000f3fe608060405234801561001057600080fd5b506004361061007d5760003560e01c8063a1818ac41161005b578063a1818ac414610100578063afa524081461011c578063de2e19a01461013a578063e844d0971461016a5761007d565b806306a49fce14610082578063521b0dcc146100a05780635df81330146100d0575b600080fd5b61008a610186565b604051610097919061048b565b60405180910390f35b6100ba60048036038101906100b5919061051f565b6101de565b6040516100c79190610567565b60405180910390f35b6100ea60048036038101906100e591906105ae565b610234565b6040516100f791906105ea565b60405180910390f35b61011a6004803603810190610115919061075e565b61024c565b005b61012461036b565b6040516101319190610912565b60405180910390f35b610154600480360381019061014f9190610934565b610375565b60405161016191906105ea565b60405180910390f35b610184600480360381019061017f91906105ae565b610397565b005b606060008054806020026020016040519081016040528092919081815260200182805480156101d457602002820191906000526020600020905b8154815260200190600101908083116101c0575b5050505050905090565b6000600160008373ffffffffffffffffffffffffffffffffffffffff1673ffffffffffffffffffffffffffffffffffffffff16815260200190815260200160002060009054906101000a900460ff169050919050565b60026020528060005260406000206000915090505481565b6001915060001515600160008673ffffffffffffffffffffffffffffffffffffffff1673ffffffffffffffffffffffffffffffffffffffff16815260200190815260200160002060009054906101000a900460ff161515146102e3576040517f08c379a00000000000000000000000000000000000000000000000000000000081526004016102da906109d1565b60405180910390fd5b60016002600085815260200190815260200160002060008282546103079190610a20565b9250508190555060018060008673ffffffffffffffffffffffffffffffffffffffff1673ffffffffffffffffffffffffffffffffffffffff16815260200190815260200160002060006101000a81548160ff02191690831515021790555050505050565b6060808091505090565b6000600191506002600084815260200190815260200160002054905092915050565b600081908060018154018082558091505060019003906000526020600020016000909190919091505550565b600081519050919050565b600082825260208201905092915050565b6000819050602082019050919050565b6000819050919050565b610402816103ef565b82525050565b600061041483836103f9565b60208301905092915050565b6000602082019050919050565b6000610438826103c3565b61044281856103ce565b935061044d836103df565b8060005b8381101561047e5781516104658882610408565b975061047083610420565b925050600181019050610451565b5085935050505092915050565b600060208201905081810360008301526104a5818461042d565b905092915050565b6000604051905090565b600080fd5b600080fd5b600073ffffffffffffffffffffffffffffffffffffffff82169050919050565b60006104ec826104c1565b9050919050565b6104fc816104e1565b811461050757600080fd5b50565b600081359050610519816104f3565b92915050565b600060208284031215610535576105346104b7565b5b60006105438482850161050a565b91505092915050565b60008115159050919050565b6105618161054c565b82525050565b600060208201905061057c6000830184610558565b92915050565b61058b816103ef565b811461059657600080fd5b50565b6000813590506105a881610582565b92915050565b6000602082840312156105c4576105c36104b7565b5b60006105d284828501610599565b91505092915050565b6105e4816103ef565b82525050565b60006020820190506105ff60008301846105db565b92915050565b600080fd5b6000601f19601f8301169050919050565b7f4e487b7100000000000000000000000000000000000000000000000000000000600052604160045260246000fd5b6106538261060a565b810181811067ffffffffffffffff821117156106725761067161061b565b5b80604052505050565b60006106856104ad565b9050610691828261064a565b919050565b600067ffffffffffffffff8211156106b1576106b061061b565b5b602082029050602081019050919050565b600080fd5b60006106da6106d584610696565b61067b565b905080838252602082019050602084028301858111156106fd576106fc6106c2565b5b835b8181101561072657806107128882610599565b8452602084019350506020810190506106ff565b5050509392505050565b600082601f83011261074557610744610605565b5b81356107558482602086016106c7565b91505092915050565b60008060008060808587031215610778576107776104b7565b5b60006107868782880161050a565b945050602061079787828801610599565b93505060406107a887828801610599565b925050606085013567ffffffffffffffff8111156107c9576107c86104bc565b5b6107d587828801610730565b91505092959194509250565b600081519050919050565b600082825260208201905092915050565b6000819050602082019050919050565b600082825260208201905092915050565b6000610829826103c3565b610833818561080d565b935061083e836103df565b8060005b8381101561086f5781516108568882610408565b975061086183610420565b925050600181019050610842565b5085935050505092915050565b6000610888838361081e565b905092915050565b6000602082019050919050565b60006108a8826107e1565b6108b281856107ec565b9350836020820285016108c4856107fd565b8060005b8581101561090057848403895281516108e1858261087c565b94506108ec83610890565b925060208a019950506001810190506108c8565b50829750879550505050505092915050565b6000602082019050818103600083015261092c818461089d565b905092915050565b6000806040838503121561094b5761094a6104b7565b5b600061095985828601610599565b925050602061096a85828601610599565b9150509250929050565b600082825260208201905092915050565b7f566f74657220616c726561647920766f74656400000000000000000000000000600082015250565b60006109bb601383610974565b91506109c682610985565b602082019050919050565b600060208201905081810360008301526109ea816109ae565b9050919050565b7f4e487b7100000000000000000000000000000000000000000000000000000000600052601160045260246000fd5b6000610a2b826103ef565b9150610a36836103ef565b9250827fffffffffffffffffffffffffffffffffffffffffffffffffffffffffffffffff03821115610a6b57610a6a6109f1565b5b82820190509291505056fea264697066735822122049b9e53ed2fc33ebd815d8e238ce1723b28f83855c57f982840b15e20549d0b664736f6c634300080a0033608060405234801561001057600080fd5b50610dbe806100206000396000f3fe608060405234801561001057600080fd5b50600436106100625760003560e01c806306a49fce14610067578063521b0dcc14610085578063a1818ac4146100b5578063afa52408146100d1578063de2e19a0146100ef578063e844d0971461011f575b600080fd5b61006f61013b565b60405161007c9190610679565b60405180910390f35b61009f600480360381019061009a919061070d565b610193565b6040516100ac9190610755565b60405180910390f35b6100cf60048036038101906100ca91906108f5565b6101e9565b005b6100d961054c565b6040516100e69190610aa9565b60405180910390f35b61010960048036038101906101049190610acb565b610556565b6040516101169190610b1a565b60405180910390f35b61013960048036038101906101349190610b35565b610585565b005b6060600080548060200260200160405190810160405280929190818152602001828054801561018957602002820191906000526020600020905b815481526020019060010190808311610175575b5050505050905090565b6000600160008373ffffffffffffffffffffffffffffffffffffffff1673ffffffffffffffffffffffffffffffffffffffff16815260200190815260200160002060009054906101000a900460ff169050919050565b60001515600160008673ffffffffffffffffffffffffffffffffffffffff1673ffffffffffffffffffffffffffffffffffffffff16815260200190815260200160002060009054906101000a900460ff1615151461027c576040517f08c379a000000000000000000000000000000000000000000000000000000000815260040161027390610bbf565b60405180910390fd5b60001515600360008673ffffffffffffffffffffffffffffffffffffffff1673ffffffffffffffffffffffffffffffffffffffff168152602001908152602001600020600085815260200190815260200160002060009054906101000a900460ff16151514610320576040517f08c379a000000000000000000000000000000000000000000000000000000000815260040161031790610c51565b60405180910390fd5b600080549050600460008673ffffffffffffffffffffffffffffffffffffffff1673ffffffffffffffffffffffffffffffffffffffff16815260200190815260200160002054106103a6576040517f08c379a000000000000000000000000000000000000000000000000000000000815260040161039d90610ce3565b60405180910390fd5b600160026000848152602001908152602001600020600085815260200190815260200160002060008282546103db9190610d32565b925050819055506001600460008673ffffffffffffffffffffffffffffffffffffffff1673ffffffffffffffffffffffffffffffffffffffff16815260200190815260200160002060008282546104329190610d32565b925050819055506001600360008673ffffffffffffffffffffffffffffffffffffffff1673ffffffffffffffffffffffffffffffffffffffff168152602001908152602001600020600085815260200190815260200160002060006101000a81548160ff021916908315150217905550600080549050600460008673ffffffffffffffffffffffffffffffffffffffff1673ffffffffffffffffffffffffffffffffffffffff1681526020019081526020016000205414156105465760018060008673ffffffffffffffffffffffffffffffffffffffff1673ffffffffffffffffffffffffffffffffffffffff16815260200190815260200160002060006101000a81548160ff0219169083151502179055505b50505050565b6060808091505090565b600060026000838152602001908152602001600020600084815260200190815260200160002054905092915050565b600081908060018154018082558091505060019003906000526020600020016000909190919091505550565b600081519050919050565b600082825260208201905092915050565b6000819050602082019050919050565b6000819050919050565b6105f0816105dd565b82525050565b600061060283836105e7565b60208301905092915050565b6000602082019050919050565b6000610626826105b1565b61063081856105bc565b935061063b836105cd565b8060005b8381101561066c57815161065388826105f6565b975061065e8361060e565b92505060018101905061063f565b5085935050505092915050565b60006020820190508181036000830152610693818461061b565b905092915050565b6000604051905090565b600080fd5b600080fd5b600073ffffffffffffffffffffffffffffffffffffffff82169050919050565b60006106da826106af565b9050919050565b6106ea816106cf565b81146106f557600080fd5b50565b600081359050610707816106e1565b92915050565b600060208284031215610723576107226106a5565b5b6000610731848285016106f8565b91505092915050565b60008115159050919050565b61074f8161073a565b82525050565b600060208201905061076a6000830184610746565b92915050565b610779816105dd565b811461078457600080fd5b50565b60008135905061079681610770565b92915050565b600080fd5b6000601f19601f8301169050919050565b7f4e487b7100000000000000000000000000000000000000000000000000000000600052604160045260246000fd5b6107ea826107a1565b810181811067ffffffffffffffff82111715610809576108086107b2565b5b80604052505050565b600061081c61069b565b905061082882826107e1565b919050565b600067ffffffffffffffff821115610848576108476107b2565b5b602082029050602081019050919050565b600080fd5b600061087161086c8461082d565b610812565b9050808382526020820190506020840283018581111561089457610893610859565b5b835b818110156108bd57806108a98882610787565b845260208401935050602081019050610896565b5050509392505050565b600082601f8301126108dc576108db61079c565b5b81356108ec84826020860161085e565b91505092915050565b6000806000806080858703121561090f5761090e6106a5565b5b600061091d878288016106f8565b945050602061092e87828801610787565b935050604061093f87828801610787565b925050606085013567ffffffffffffffff8111156109605761095f6106aa565b5b61096c878288016108c7565b91505092959194509250565b600081519050919050565b600082825260208201905092915050565b6000819050602082019050919050565b600082825260208201905092915050565b60006109c0826105b1565b6109ca81856109a4565b93506109d5836105cd565b8060005b83811015610a065781516109ed88826105f6565b97506109f88361060e565b9250506001810190506109d9565b5085935050505092915050565b6000610a1f83836109b5565b905092915050565b6000602082019050919050565b6000610a3f82610978565b610a498185610983565b935083602082028501610a5b85610994565b8060005b85811015610a975784840389528151610a788582610a13565b9450610a8383610a27565b925060208a01995050600181019050610a5f565b50829750879550505050505092915050565b60006020820190508181036000830152610ac38184610a34565b905092915050565b60008060408385031215610ae257610ae16106a5565b5b6000610af085828601610787565b9250506020610b0185828601610787565b9150509250929050565b610b14816105dd565b82525050565b6000602082019050610b2f6000830184610b0b565b92915050565b600060208284031215610b4b57610b4a6106a5565b5b6000610b5984828501610787565b91505092915050565b600082825260208201905092915050565b7f566f74657220616c726561647920766f74656400000000000000000000000000600082015250565b6000610ba9601383610b62565b9150610bb482610b73565b602082019050919050565b60006020820190508181036000830152610bd881610b9c565b9050919050565b7f566f74657220616c726561647920766f74656420666f7220746869732063616e60008201527f6469646174650000000000000000000000000000000000000000000000000000602082015250565b6000610c3b602683610b62565b9150610c4682610bdf565b604082019050919050565b60006020820190508181036000830152610c6a81610c2e565b9050919050565b7f4d617820766f74657320616c72656164792063617374656420627920766f746560008201527f7200000000000000000000000000000000000000000000000000000000000000602082015250565b6000610ccd602183610b62565b9150610cd882610c71565b604082019050919050565b60006020820190508181036000830152610cfc81610cc0565b9050919050565b7f4e487b7100000000000000000000000000000000000000000000000000000000600052601160045260246000fd5b6000610d3d826105dd565b9150610d48836105dd565b9250827fffffffffffffffffffffffffffffffffffffffffffffffffffffffffffffffff03821115610d7d57610d7c610d03565b5b82820190509291505056fea2646970667358221220cc33100a2faa9f0816572bafed2e7a96599f2eb36e3bddf51cf1c17a053d933164736f6c634300080a0033608060405234801561001057600080fd5b50610c4c806100206000396000f3fe608060405234801561001057600080fd5b50600436106100625760003560e01c806306a49fce14610067578063521b0dcc14610085578063a1818ac4146100b5578063afa52408146100d1578063de2e19a0146100ef578063e844d0971461011f575b600080fd5b61006f61013b565b60405161007c919061062b565b60405180910390f35b61009f600480360381019061009a91906106bf565b610193565b6040516100ac9190610707565b60405180910390f35b6100cf60048036038101906100ca91906108a7565b6101e9565b005b6100d9610422565b6040516100e69190610a5b565b60405180910390f35b61010960048036038101906101049190610a7d565b6104c1565b6040516101169190610acc565b60405180910390f35b61013960048036038101906101349190610ae7565b6104cd565b005b6060600080548060200260200160405190810160405280929190818152602001828054801561018957602002820191906000526020600020905b815481526020019060010190808311610175575b5050505050905090565b6000600160008373ffffffffffffffffffffffffffffffffffffffff1673ffffffffffffffffffffffffffffffffffffffff16815260200190815260200160002060009054906101000a900460ff169050919050565b60001515600160008673ffffffffffffffffffffffffffffffffffffffff1673ffffffffffffffffffffffffffffffffffffffff16815260200190815260200160002060009054906101000a900460ff1615151461027c576040517f08c379a000000000000000000000000000000000000000000000000000000000815260040161027390610b71565b60405180910390fd5b6002819080600181540180825580915050600190039060005260206000200160009091909190915090805190602001906102b79291906104f9565b506001600460008673ffffffffffffffffffffffffffffffffffffffff1673ffffffffffffffffffffffffffffffffffffffff16815260200190815260200160002060008282546103089190610bc0565b925050819055506001600360008673ffffffffffffffffffffffffffffffffffffffff1673ffffffffffffffffffffffffffffffffffffffff168152602001908152602001600020600085815260200190815260200160002060006101000a81548160ff021916908315150217905550600080549050600460008673ffffffffffffffffffffffffffffffffffffffff1673ffffffffffffffffffffffffffffffffffffffff16815260200190815260200160002054141561041c5760018060008673ffffffffffffffffffffffffffffffffffffffff1673ffffffffffffffffffffffffffffffffffffffff16815260200190815260200160002060006101000a81548160ff0219169083151502179055505b50505050565b60606002805480602002602001604051908101604052809291908181526020016000905b828210156104b8578382906000526020600020018054806020026020016040519081016040528092919081815260200182805480156104a457602002820191906000526020600020905b815481526020019060010190808311610490575b505050505081526020019060010190610446565b50505050905090565b60006001905092915050565b600081908060018154018082558091505060019003906000526020600020016000909190919091505550565b828054828255906000526020600020908101928215610535579160200282015b82811115610534578251825591602001919060010190610519565b5b5090506105429190610546565b5090565b5b8082111561055f576000816000905550600101610547565b5090565b600081519050919050565b600082825260208201905092915050565b6000819050602082019050919050565b6000819050919050565b6105a28161058f565b82525050565b60006105b48383610599565b60208301905092915050565b6000602082019050919050565b60006105d882610563565b6105e2818561056e565b93506105ed8361057f565b8060005b8381101561061e57815161060588826105a8565b9750610610836105c0565b9250506001810190506105f1565b5085935050505092915050565b6000602082019050818103600083015261064581846105cd565b905092915050565b6000604051905090565b600080fd5b600080fd5b600073ffffffffffffffffffffffffffffffffffffffff82169050919050565b600061068c82610661565b9050919050565b61069c81610681565b81146106a757600080fd5b50565b6000813590506106b981610693565b92915050565b6000602082840312156106d5576106d4610657565b5b60006106e3848285016106aa565b91505092915050565b60008115159050919050565b610701816106ec565b82525050565b600060208201905061071c60008301846106f8565b92915050565b61072b8161058f565b811461073657600080fd5b50565b60008135905061074881610722565b92915050565b600080fd5b6000601f19601f8301169050919050565b7f4e487b7100000000000000000000000000000000000000000000000000000000600052604160045260246000fd5b61079c82610753565b810181811067ffffffffffffffff821117156107bb576107ba610764565b5b80604052505050565b60006107ce61064d565b90506107da8282610793565b919050565b600067ffffffffffffffff8211156107fa576107f9610764565b5b602082029050602081019050919050565b600080fd5b600061082361081e846107df565b6107c4565b905080838252602082019050602084028301858111156108465761084561080b565b5b835b8181101561086f578061085b8882610739565b845260208401935050602081019050610848565b5050509392505050565b600082601f83011261088e5761088d61074e565b5b813561089e848260208601610810565b91505092915050565b600080600080608085870312156108c1576108c0610657565b5b60006108cf878288016106aa565b94505060206108e087828801610739565b93505060406108f187828801610739565b925050606085013567ffffffffffffffff8111156109125761091161065c565b5b61091e87828801610879565b91505092959194509250565b600081519050919050565b600082825260208201905092915050565b6000819050602082019050919050565b600082825260208201905092915050565b600061097282610563565b61097c8185610956565b93506109878361057f565b8060005b838110156109b857815161099f88826105a8565b97506109aa836105c0565b92505060018101905061098b565b5085935050505092915050565b60006109d18383610967565b905092915050565b6000602082019050919050565b60006109f18261092a565b6109fb8185610935565b935083602082028501610a0d85610946565b8060005b85811015610a495784840389528151610a2a85826109c5565b9450610a35836109d9565b925060208a01995050600181019050610a11565b50829750879550505050505092915050565b60006020820190508181036000830152610a7581846109e6565b905092915050565b60008060408385031215610a9457610a93610657565b5b6000610aa285828601610739565b9250506020610ab385828601610739565b9150509250929050565b610ac68161058f565b82525050565b6000602082019050610ae16000830184610abd565b92915050565b600060208284031215610afd57610afc610657565b5b6000610b0b84828501610739565b91505092915050565b600082825260208201905092915050565b7f566f74657220616c726561647920766f74656400000000000000000000000000600082015250565b6000610b5b601383610b14565b9150610b6682610b25565b602082019050919050565b60006020820190508181036000830152610b8a81610b4e565b9050919050565b7f4e487b7100000000000000000000000000000000000000000000000000000000600052601160045260246000fd5b6000610bcb8261058f565b9150610bd68361058f565b9250827fffffffffffffffffffffffffffffffffffffffffffffffffffffffffffffffff03821115610c0b57610c0a610b91565b5b82820190509291505056fea2646970667358221220a4bfa854b9dbd04a933f14ce133994938b60a1b678ca22d4b85c77d6490b22d064736f6c634300080a0033608060405234801561001057600080fd5b50610dda806100206000396000f3fe608060405234801561001057600080fd5b50600436106100625760003560e01c806306a49fce14610067578063521b0dcc14610085578063a1818ac4146100b5578063afa52408146100d1578063de2e19a0146100ef578063e844d0971461011f575b600080fd5b61006f61013b565b60405161007c9190610741565b60405180910390f35b61009f600480360381019061009a91906107d5565b610193565b6040516100ac919061081d565b60405180910390f35b6100cf60048036038101906100ca91906109bd565b6101e9565b005b6100d96104fe565b6040516100e69190610b71565b60405180910390f35b61010960048036038101906101049190610b93565b61059d565b6040516101169190610be2565b60405180910390f35b61013960048036038101906101349190610bfd565b6105e3565b005b6060600080548060200260200160405190810160405280929190818152602001828054801561018957602002820191906000526020600020905b815481526020019060010190808311610175575b5050505050905090565b6000600160008373ffffffffffffffffffffffffffffffffffffffff1673ffffffffffffffffffffffffffffffffffffffff16815260200190815260200160002060009054906101000a900460ff169050919050565b60001515600160008673ffffffffffffffffffffffffffffffffffffffff1673ffffffffffffffffffffffffffffffffffffffff16815260200190815260200160002060009054906101000a900460ff1615151461027c576040517f08c379a000000000000000000000000000000000000000000000000000000000815260040161027390610c87565b60405180910390fd5b600081519050600060028054905014156103345760005b818110156103325760028267ffffffffffffffff8111156102b7576102b661087a565b5b6040519080825280602002602001820160405280156102e55781602001602082028036833780820191505090505b5090806001815401808255809150506001900390600052602060002001600090919091909150908051906020019061031e92919061060f565b50808061032a90610cd6565b915050610293565b505b60005b8181101561049f57600060018261034e9190610d1f565b90505b8281101561048b5783818151811061036c5761036b610d75565b5b602002602001015184838151811061038757610386610d75565b5b602002602001015111156103ea57600282815481106103a9576103a8610d75565b5b9060005260206000200181815481106103c5576103c4610d75565b5b9060005260206000200160008154809291906103e090610cd6565b9190505550610478565b8381815181106103fd576103fc610d75565b5b602002602001015184838151811061041857610417610d75565b5b60200260200101511015610477576002818154811061043a57610439610d75565b5b90600052602060002001828154811061045657610455610d75565b5b90600052602060002001600081548092919061047190610cd6565b91905055505b5b808061048390610cd6565b915050610351565b50808061049790610cd6565b915050610337565b5060018060008773ffffffffffffffffffffffffffffffffffffffff1673ffffffffffffffffffffffffffffffffffffffff16815260200190815260200160002060006101000a81548160ff0219169083151502179055505050505050565b60606002805480602002602001604051908101604052809291908181526020016000905b828210156105945783829060005260206000200180548060200260200160405190810160405280929190818152602001828054801561058057602002820191906000526020600020905b81548152602001906001019080831161056c575b505050505081526020019060010190610522565b50505050905090565b6000600283815481106105b3576105b2610d75565b5b906000526020600020016001815481106105d0576105cf610d75565b5b9060005260206000200154905092915050565b600081908060018154018082558091505060019003906000526020600020016000909190919091505550565b82805482825590600052602060002090810192821561064b579160200282015b8281111561064a57825182559160200191906001019061062f565b5b509050610658919061065c565b5090565b5b8082111561067557600081600090555060010161065d565b5090565b600081519050919050565b600082825260208201905092915050565b6000819050602082019050919050565b6000819050919050565b6106b8816106a5565b82525050565b60006106ca83836106af565b60208301905092915050565b6000602082019050919050565b60006106ee82610679565b6106f88185610684565b935061070383610695565b8060005b8381101561073457815161071b88826106be565b9750610726836106d6565b925050600181019050610707565b5085935050505092915050565b6000602082019050818103600083015261075b81846106e3565b905092915050565b6000604051905090565b600080fd5b600080fd5b600073ffffffffffffffffffffffffffffffffffffffff82169050919050565b60006107a282610777565b9050919050565b6107b281610797565b81146107bd57600080fd5b50565b6000813590506107cf816107a9565b92915050565b6000602082840312156107eb576107ea61076d565b5b60006107f9848285016107c0565b91505092915050565b60008115159050919050565b61081781610802565b82525050565b6000602082019050610832600083018461080e565b92915050565b610841816106a5565b811461084c57600080fd5b50565b60008135905061085e81610838565b92915050565b600080fd5b6000601f19601f8301169050919050565b7f4e487b7100000000000000000000000000000000000000000000000000000000600052604160045260246000fd5b6108b282610869565b810181811067ffffffffffffffff821117156108d1576108d061087a565b5b80604052505050565b60006108e4610763565b90506108f082826108a9565b919050565b600067ffffffffffffffff8211156109105761090f61087a565b5b602082029050602081019050919050565b600080fd5b6000610939610934846108f5565b6108da565b9050808382526020820190506020840283018581111561095c5761095b610921565b5b835b818110156109855780610971888261084f565b84526020840193505060208101905061095e565b5050509392505050565b600082601f8301126109a4576109a3610864565b5b81356109b4848260208601610926565b91505092915050565b600080600080608085870312156109d7576109d661076d565b5b60006109e5878288016107c0565b94505060206109f68782880161084f565b9350506040610a078782880161084f565b925050606085013567ffffffffffffffff811115610a2857610a27610772565b5b610a348782880161098f565b91505092959194509250565b600081519050919050565b600082825260208201905092915050565b6000819050602082019050919050565b600082825260208201905092915050565b6000610a8882610679565b610a928185610a6c565b9350610a9d83610695565b8060005b83811015610ace578151610ab588826106be565b9750610ac0836106d6565b925050600181019050610aa1565b5085935050505092915050565b6000610ae78383610a7d565b905092915050565b6000602082019050919050565b6000610b0782610a40565b610b118185610a4b565b935083602082028501610b2385610a5c565b8060005b85811015610b5f5784840389528151610b408582610adb565b9450610b4b83610aef565b925060208a01995050600181019050610b27565b50829750879550505050505092915050565b60006020820190508181036000830152610b8b8184610afc565b905092915050565b60008060408385031215610baa57610ba961076d565b5b6000610bb88582860161084f565b9250506020610bc98582860161084f565b9150509250929050565b610bdc816106a5565b82525050565b6000602082019050610bf76000830184610bd3565b92915050565b600060208284031215610c1357610c1261076d565b5b6000610c218482850161084f565b91505092915050565b600082825260208201905092915050565b7f566f74657220616c726561647920766f74656400000000000000000000000000600082015250565b6000610c71601383610c2a565b9150610c7c82610c3b565b602082019050919050565b60006020820190508181036000830152610ca081610c64565b9050919050565b7f4e487b7100000000000000000000000000000000000000000000000000000000600052601160045260246000fd5b6000610ce1826106a5565b91507fffffffffffffffffffffffffffffffffffffffffffffffffffffffffffffffff821415610d1457610d13610ca7565b5b600182019050919050565b6000610d2a826106a5565b9150610d35836106a5565b9250827fffffffffffffffffffffffffffffffffffffffffffffffffffffffffffffffff03821115610d6a57610d69610ca7565b5b828201905092915050565b7f4e487b7100000000000000000000000000000000000000000000000000000000600052603260045260246000fdfea2646970667358221220e9f8e322621dca854de37b6363ffd4cab18a367f5367d63ff1f255f90f6bb37264736f6c634300080a0033608060405234801561001057600080fd5b50610a29806100206000396000f3fe608060405234801561001057600080fd5b50600436106100625760003560e01c806306a49fce14610067578063521b0dcc14610085578063a1818ac4146100b5578063afa52408146100d1578063de2e19a0146100ef578063e844d0971461011f575b600080fd5b61006f61013b565b60405161007c919061048d565b60405180910390f35b61009f600480360381019061009a9190610521565b610193565b6040516100ac9190610569565b60405180910390f35b6100cf60048036038101906100ca9190610709565b6101e9565b005b6100d9610315565b6040516100e691906108bd565b60405180910390f35b610109600480360381019061010491906108df565b61031f565b604051610116919061092e565b60405180910390f35b61013960048036038101906101349190610949565b61032f565b005b6060600080548060200260200160405190810160405280929190818152602001828054801561018957602002820191906000526020600020905b815481526020019060010190808311610175575b5050505050905090565b6000600160008373ffffffffffffffffffffffffffffffffffffffff1673ffffffffffffffffffffffffffffffffffffffff16815260200190815260200160002060009054906101000a900460ff169050919050565b60001515600160008673ffffffffffffffffffffffffffffffffffffffff1673ffffffffffffffffffffffffffffffffffffffff16815260200190815260200160002060009054906101000a900460ff1615151461027c576040517f08c379a0000000000000000000000000000000000000000000000000000000008152600401610273906109d3565b60405180910390fd5b6002819080600181540180825580915050600190039060005260206000200160009091909190915090805190602001906102b792919061035b565b5060018060008673ffffffffffffffffffffffffffffffffffffffff1673ffffffffffffffffffffffffffffffffffffffff16815260200190815260200160002060006101000a81548160ff02191690831515021790555050505050565b6060808091505090565b6000600191506001905092915050565b600081908060018154018082558091505060019003906000526020600020016000909190919091505550565b828054828255906000526020600020908101928215610397579160200282015b8281111561039657825182559160200191906001019061037b565b5b5090506103a491906103a8565b5090565b5b808211156103c15760008160009055506001016103a9565b5090565b600081519050919050565b600082825260208201905092915050565b6000819050602082019050919050565b6000819050919050565b610404816103f1565b82525050565b600061041683836103fb565b60208301905092915050565b6000602082019050919050565b600061043a826103c5565b61044481856103d0565b935061044f836103e1565b8060005b83811015610480578151610467888261040a565b975061047283610422565b925050600181019050610453565b5085935050505092915050565b600060208201905081810360008301526104a7818461042f565b905092915050565b6000604051905090565b600080fd5b600080fd5b600073ffffffffffffffffffffffffffffffffffffffff82169050919050565b60006104ee826104c3565b9050919050565b6104fe816104e3565b811461050957600080fd5b50565b60008135905061051b816104f5565b92915050565b600060208284031215610537576105366104b9565b5b60006105458482850161050c565b91505092915050565b60008115159050919050565b6105638161054e565b82525050565b600060208201905061057e600083018461055a565b92915050565b61058d816103f1565b811461059857600080fd5b50565b6000813590506105aa81610584565b92915050565b600080fd5b6000601f19601f8301169050919050565b7f4e487b7100000000000000000000000000000000000000000000000000000000600052604160045260246000fd5b6105fe826105b5565b810181811067ffffffffffffffff8211171561061d5761061c6105c6565b5b80604052505050565b60006106306104af565b905061063c82826105f5565b919050565b600067ffffffffffffffff82111561065c5761065b6105c6565b5b602082029050602081019050919050565b600080fd5b600061068561068084610641565b610626565b905080838252602082019050602084028301858111156106a8576106a761066d565b5b835b818110156106d157806106bd888261059b565b8452602084019350506020810190506106aa565b5050509392505050565b600082601f8301126106f0576106ef6105b0565b5b8135610700848260208601610672565b91505092915050565b60008060008060808587031215610723576107226104b9565b5b60006107318782880161050c565b94505060206107428782880161059b565b93505060406107538782880161059b565b925050606085013567ffffffffffffffff811115610774576107736104be565b5b610780878288016106db565b91505092959194509250565b600081519050919050565b600082825260208201905092915050565b6000819050602082019050919050565b600082825260208201905092915050565b60006107d4826103c5565b6107de81856107b8565b93506107e9836103e1565b8060005b8381101561081a578151610801888261040a565b975061080c83610422565b9250506001810190506107ed565b5085935050505092915050565b600061083383836107c9565b905092915050565b6000602082019050919050565b60006108538261078c565b61085d8185610797565b93508360208202850161086f856107a8565b8060005b858110156108ab578484038952815161088c8582610827565b94506108978361083b565b925060208a01995050600181019050610873565b50829750879550505050505092915050565b600060208201905081810360008301526108d78184610848565b905092915050565b600080604083850312156108f6576108f56104b9565b5b60006109048582860161059b565b92505060206109158582860161059b565b9150509250929050565b610928816103f1565b82525050565b6000602082019050610943600083018461091f565b92915050565b60006020828403121561095f5761095e6104b9565b5b600061096d8482850161059b565b91505092915050565b600082825260208201905092915050565b7f566f74657220616c726561647920766f74656400000000000000000000000000600082015250565b60006109bd601383610976565b91506109c882610987565b602082019050919050565b600060208201905081810360008301526109ec816109b0565b905091905056fea264697066735822122001e55494df720fce121885012220432448d9b1a0e485f7a508d90768901c84c764736f6c634300080a0033608060405234801561001057600080fd5b50610d0c806100206000396000f3fe608060405234801561001057600080fd5b50600436106100625760003560e01c806306a49fce14610067578063521b0dcc14610085578063a1818ac4146100b5578063afa52408146100d1578063de2e19a0146100ef578063e844d0971461011f575b600080fd5b61006f61013b565b60405161007c9190610673565b60405180910390f35b61009f600480360381019061009a9190610707565b610193565b6040516100ac919061074f565b60405180910390f35b6100cf60048036038101906100ca91906108ef565b6101e9565b005b6100d961046a565b6040516100e69190610aa3565b60405180910390f35b61010960048036038101906101049190610ac5565b610509565b6040516101169190610b14565b60405180910390f35b61013960048036038101906101349190610b2f565b610515565b005b6060600080548060200260200160405190810160405280929190818152602001828054801561018957602002820191906000526020600020905b815481526020019060010190808311610175575b5050505050905090565b6000600160008373ffffffffffffffffffffffffffffffffffffffff1673ffffffffffffffffffffffffffffffffffffffff16815260200190815260200160002060009054906101000a900460ff169050919050565b60001515600160008673ffffffffffffffffffffffffffffffffffffffff1673ffffffffffffffffffffffffffffffffffffffff16815260200190815260200160002060009054906101000a900460ff1615151461027c576040517f08c379a000000000000000000000000000000000000000000000000000000000815260040161027390610bb9565b60405180910390fd5b6000815190506000600280549050141561033a5760005b818110156103385760008267ffffffffffffffff8111156102b7576102b66107ac565b5b6040519080825280602002602001820160405280156102e55781602001602082028036833780820191505090505b509050600281908060018154018082558091505060019003906000526020600020016000909190919091509080519060200190610323929190610541565b5050808061033090610c08565b915050610293565b505b60005b8181101561040b5760006001826103549190610c51565b90505b828110156103f75784600285848151811061037557610374610ca7565b5b60200260200101518154811061038e5761038d610ca7565b5b906000526020600020018583815181106103ab576103aa610ca7565b5b6020026020010151815481106103c4576103c3610ca7565b5b9060005260206000200160008282546103dd9190610c51565b9250508190555080806103ef90610c08565b915050610357565b50808061040390610c08565b91505061033d565b5060018060008773ffffffffffffffffffffffffffffffffffffffff1673ffffffffffffffffffffffffffffffffffffffff16815260200190815260200160002060006101000a81548160ff0219169083151502179055505050505050565b60606002805480602002602001604051908101604052809291908181526020016000905b82821015610500578382906000526020600020018054806020026020016040519081016040528092919081815260200182805480156104ec57602002820191906000526020600020905b8154815260200190600101908083116104d8575b50505050508152602001906001019061048e565b50505050905090565b60006001905092915050565b600081908060018154018082558091505060019003906000526020600020016000909190919091505550565b82805482825590600052602060002090810192821561057d579160200282015b8281111561057c578251825591602001919060010190610561565b5b50905061058a919061058e565b5090565b5b808211156105a757600081600090555060010161058f565b5090565b600081519050919050565b600082825260208201905092915050565b6000819050602082019050919050565b6000819050919050565b6105ea816105d7565b82525050565b60006105fc83836105e1565b60208301905092915050565b6000602082019050919050565b6000610620826105ab565b61062a81856105b6565b9350610635836105c7565b8060005b8381101561066657815161064d88826105f0565b975061065883610608565b925050600181019050610639565b5085935050505092915050565b6000602082019050818103600083015261068d8184610615565b905092915050565b6000604051905090565b600080fd5b600080fd5b600073ffffffffffffffffffffffffffffffffffffffff82169050919050565b60006106d4826106a9565b9050919050565b6106e4816106c9565b81146106ef57600080fd5b50565b600081359050610701816106db565b92915050565b60006020828403121561071d5761071c61069f565b5b600061072b848285016106f2565b91505092915050565b60008115159050919050565b61074981610734565b82525050565b60006020820190506107646000830184610740565b92915050565b610773816105d7565b811461077e57600080fd5b50565b6000813590506107908161076a565b92915050565b600080fd5b6000601f19601f8301169050919050565b7f4e487b7100000000000000000000000000000000000000000000000000000000600052604160045260246000fd5b6107e48261079b565b810181811067ffffffffffffffff82111715610803576108026107ac565b5b80604052505050565b6000610816610695565b905061082282826107db565b919050565b600067ffffffffffffffff821115610842576108416107ac565b5b602082029050602081019050919050565b600080fd5b600061086b61086684610827565b61080c565b9050808382526020820190506020840283018581111561088e5761088d610853565b5b835b818110156108b757806108a38882610781565b845260208401935050602081019050610890565b5050509392505050565b600082601f8301126108d6576108d5610796565b5b81356108e6848260208601610858565b91505092915050565b600080600080608085870312156109095761090861069f565b5b6000610917878288016106f2565b945050602061092887828801610781565b935050604061093987828801610781565b925050606085013567ffffffffffffffff81111561095a576109596106a4565b5b610966878288016108c1565b91505092959194509250565b600081519050919050565b600082825260208201905092915050565b6000819050602082019050919050565b600082825260208201905092915050565b60006109ba826105ab565b6109c4818561099e565b93506109cf836105c7565b8060005b83811015610a005781516109e788826105f0565b97506109f283610608565b9250506001810190506109d3565b5085935050505092915050565b6000610a1983836109af565b905092915050565b6000602082019050919050565b6000610a3982610972565b610a43818561097d565b935083602082028501610a558561098e565b8060005b85811015610a915784840389528151610a728582610a0d565b9450610a7d83610a21565b925060208a01995050600181019050610a59565b50829750879550505050505092915050565b60006020820190508181036000830152610abd8184610a2e565b905092915050565b60008060408385031215610adc57610adb61069f565b5b6000610aea85828601610781565b9250506020610afb85828601610781565b9150509250929050565b610b0e816105d7565b82525050565b6000602082019050610b296000830184610b05565b92915050565b600060208284031215610b4557610b4461069f565b5b6000610b5384828501610781565b91505092915050565b600082825260208201905092915050565b7f566f74657220616c726561647920766f74656400000000000000000000000000600082015250565b6000610ba3601383610b5c565b9150610bae82610b6d565b602082019050919050565b60006020820190508181036000830152610bd281610b96565b9050919050565b7f4e487b7100000000000000000000000000000000000000000000000000000000600052601160045260246000fd5b6000610c13826105d7565b91507fffffffffffffffffffffffffffffffffffffffffffffffffffffffffffffffff821415610c4657610c45610bd9565b5b600182019050919050565b6000610c5c826105d7565b9150610c67836105d7565b9250827fffffffffffffffffffffffffffffffffffffffffffffffffffffffffffffffff03821115610c9c57610c9b610bd9565b5b828201905092915050565b7f4e487b7100000000000000000000000000000000000000000000000000000000600052603260045260246000fdfea2646970667358221220539b1dad6dfb459720446e2c1314a6571eacd6b1d2927bea58ce4b79468fe58064736f6c634300080a0033a2646970667358221220cd4fdcce89b495521155790f8bc0cee291c1048930548e0f563258a4c63dd1ec64736f6c634300080a0033",
  "linkReferences": {},
  "deployedLinkReferences": {}
}