{
  "contracts/ElectionOrganizer.sol": {
    "ElectionOrganizer": {
      "abi": [
        {
          "anonymous": false,
          "inputs": [
            {
              "indexed": false,
              "internalType": "address",
              "name": "election",
              "type": "address"
            },
            {
              "components": [
                {
                  "internalType": "uint256",
                  "name": "candidateID",
                  "type": "uint256"
                },
                {
                  "internalType": "string",
                  "name": "name",
                  "type": "string"
                }
              ],
              "indexed": false,
              "internalType": "struct Election.Candidate",
              "name": "candidate",
              "type": "tuple"
            }
          ],
          "name": "CandidateAdded",
          "type": "event"
        },
        {
          "anonymous": false,
          "inputs": [
            {
              "indexed": false,
              "internalType": "address",
              "name": "election",
              "type": "address"
            }
          ],
          "name": "CreatedElection",
          "type": "event"
        },
        {
          "inputs": [
            {
              "internalType": "contract Election",
              "name": "_election",
              "type": "address"
            },
            {
              "components": [
                {
                  "internalType": "uint256",
                  "name": "candidateID",
                  "type": "uint256"
                },
                {
                  "internalType": "string",
                  "name": "name",
                  "type": "string"
                }
              ],
              "internalType": "struct Election.Candidate",
              "name": "_candidate",
              "type": "tuple"
            }
          ],
          "name": "addCandidate",
          "outputs": [],
          "stateMutability": "nonpayable",
          "type": "function"
        },
        {
          "inputs": [
            {
              "components": [
                {
                  "internalType": "uint256",
                  "name": "organizerID",
                  "type": "uint256"
                },
                {
                  "internalType": "string",
                  "name": "name",
                  "type": "string"
                },
                {
                  "internalType": "address",
                  "name": "publicAddress",
                  "type": "address"
                }
              ],
              "internalType": "struct ElectionOrganizer.OrganizerInfo",
              "name": "_organizerInfo",
              "type": "tuple"
            },
            {
              "internalType": "address",
              "name": "_organizer",
              "type": "address"
            }
          ],
          "name": "addOrganizer",
          "outputs": [],
          "stateMutability": "nonpayable",
          "type": "function"
        },
        {
          "inputs": [
            {
              "components": [
                {
                  "internalType": "uint256",
                  "name": "electionID",
                  "type": "uint256"
                },
                {
                  "internalType": "string",
                  "name": "name",
                  "type": "string"
                },
                {
                  "internalType": "string",
                  "name": "description",
                  "type": "string"
                },
                {
                  "internalType": "uint256",
                  "name": "startDate",
                  "type": "uint256"
                },
                {
                  "internalType": "uint256",
                  "name": "endDate",
                  "type": "uint256"
                }
              ],
              "internalType": "struct Election.ElectionInfo",
              "name": "_electionInfo",
              "type": "tuple"
            },
            {
              "internalType": "contract Ballot",
              "name": "_ballot",
              "type": "address"
            },
            {
              "internalType": "contract ResultCalculator",
              "name": "_resultCalculator",
              "type": "address"
            }
          ],
          "name": "createElection",
          "outputs": [],
          "stateMutability": "nonpayable",
          "type": "function"
        },
        {
          "inputs": [],
          "name": "getElections",
          "outputs": [
            {
              "internalType": "address[]",
              "name": "",
              "type": "address[]"
            }
          ],
          "stateMutability": "view",
          "type": "function"
        },
        {
          "inputs": [
            {
              "internalType": "contract Election",
              "name": "_election",
              "type": "address"
            }
          ],
          "name": "getResult",
          "outputs": [],
          "stateMutability": "nonpayable",
          "type": "function"
        }
      ],
      "evm": {
        "bytecode": {
          "linkReferences": {},
          "object": "608060405234801561001057600080fd5b506135a6806100206000396000f3fe60806040523480156200001157600080fd5b50600436106200005e5760003560e01c8063446a37e014620000635780635118161b14620000835780635b1aad0014620000a35780639f3a7f5214620000c3578063b16b14b714620000e5575b600080fd5b6200008160048036038101906200007b91906200058f565b62000105565b005b620000a160048036038101906200009b919062000827565b6200016a565b005b620000c16004803603810190620000bb9190620009f0565b62000221565b005b620000cd62000306565b604051620000dc919062000b39565b60405180910390f35b620001036004803603810190620000fd919062000bd5565b62000396565b005b8073ffffffffffffffffffffffffffffffffffffffff1663de2927896040518163ffffffff1660e01b8152600401600060405180830381600087803b1580156200014e57600080fd5b505af115801562000163573d6000803e3d6000fd5b5050505050565b81600160008373ffffffffffffffffffffffffffffffffffffffff1673ffffffffffffffffffffffffffffffffffffffff168152602001908152602001600020600082015181600001556020820151816001019080519060200190620001d292919062000444565b5060408201518160020160006101000a81548173ffffffffffffffffffffffffffffffffffffffff021916908373ffffffffffffffffffffffffffffffffffffffff1602179055509050505050565b6000838383336040516200023590620004d5565b62000244949392919062000e07565b604051809103906000f08015801562000261573d6000803e3d6000fd5b5090506000819080600181540180825580915050600190039060005260206000200160009091909190916101000a81548173ffffffffffffffffffffffffffffffffffffffff021916908373ffffffffffffffffffffffffffffffffffffffff1602179055507f49fdfe60e25ebf09e8f8c20a8a10c828d9b82cecf7b04e1ecb59ae51f79f827781604051620002f8919062000e5b565b60405180910390a150505050565b606060008054806020026020016040519081016040528092919081815260200182805480156200038c57602002820191906000526020600020905b8160009054906101000a900473ffffffffffffffffffffffffffffffffffffffff1673ffffffffffffffffffffffffffffffffffffffff168152602001906001019080831162000341575b5050505050905090565b8173ffffffffffffffffffffffffffffffffffffffff16631c6c741b826040518263ffffffff1660e01b8152600401620003d1919062000eb9565b600060405180830381600087803b158015620003ec57600080fd5b505af115801562000401573d6000803e3d6000fd5b505050507f07771d3b5b09cc4582322e65d05740a706298222c7a823cff620ebf6e1b5420b82826040516200043892919062000edd565b60405180910390a15050565b828054620004529062000f40565b90600052602060002090601f016020900481019282620004765760008555620004c2565b82601f106200049157805160ff1916838001178555620004c2565b82800160010185558215620004c2579182015b82811115620004c1578251825591602001919060010190620004a4565b5b509050620004d19190620004e3565b5090565b6125fa8062000f7783390190565b5b80821115620004fe576000816000905550600101620004e4565b5090565b6000604051905090565b600080fd5b600080fd5b600073ffffffffffffffffffffffffffffffffffffffff82169050919050565b6000620005438262000516565b9050919050565b6000620005578262000536565b9050919050565b62000569816200054a565b81146200057557600080fd5b50565b60008135905062000589816200055e565b92915050565b600060208284031215620005a857620005a76200050c565b5b6000620005b88482850162000578565b91505092915050565b600080fd5b6000601f19601f8301169050919050565b7f4e487b7100000000000000000000000000000000000000000000000000000000600052604160045260246000fd5b6200061182620005c6565b810181811067ffffffffffffffff82111715620006335762000632620005d7565b5b80604052505050565b60006200064862000502565b905062000656828262000606565b919050565b600080fd5b6000819050919050565b620006758162000660565b81146200068157600080fd5b50565b60008135905062000695816200066a565b92915050565b600080fd5b600080fd5b600067ffffffffffffffff821115620006c357620006c2620005d7565b5b620006ce82620005c6565b9050602081019050919050565b82818337600083830152505050565b600062000701620006fb84620006a5565b6200063c565b90508281526020810184848401111562000720576200071f620006a0565b5b6200072d848285620006db565b509392505050565b600082601f8301126200074d576200074c6200069b565b5b81356200075f848260208601620006ea565b91505092915050565b620007738162000536565b81146200077f57600080fd5b50565b600081359050620007938162000768565b92915050565b600060608284031215620007b257620007b1620005c1565b5b620007be60606200063c565b90506000620007d08482850162000684565b600083015250602082013567ffffffffffffffff811115620007f757620007f66200065b565b5b620008058482850162000735565b60208301525060406200081b8482850162000782565b60408301525092915050565b600080604083850312156200084157620008406200050c565b5b600083013567ffffffffffffffff81111562000862576200086162000511565b5b620008708582860162000799565b9250506020620008838582860162000782565b9150509250929050565b600060a08284031215620008a657620008a5620005c1565b5b620008b260a06200063c565b90506000620008c48482850162000684565b600083015250602082013567ffffffffffffffff811115620008eb57620008ea6200065b565b5b620008f98482850162000735565b602083015250604082013567ffffffffffffffff81111562000920576200091f6200065b565b5b6200092e8482850162000735565b6040830152506060620009448482850162000684565b60608301525060806200095a8482850162000684565b60808301525092915050565b6000620009738262000536565b9050919050565b620009858162000966565b81146200099157600080fd5b50565b600081359050620009a5816200097a565b92915050565b6000620009b88262000536565b9050919050565b620009ca81620009ab565b8114620009d657600080fd5b50565b600081359050620009ea81620009bf565b92915050565b60008060006060848603121562000a0c5762000a0b6200050c565b5b600084013567ffffffffffffffff81111562000a2d5762000a2c62000511565b5b62000a3b868287016200088d565b935050602062000a4e8682870162000994565b925050604062000a6186828701620009d9565b9150509250925092565b600081519050919050565b600082825260208201905092915050565b6000819050602082019050919050565b62000aa28162000536565b82525050565b600062000ab6838362000a97565b60208301905092915050565b6000602082019050919050565b600062000adc8262000a6b565b62000ae8818562000a76565b935062000af58362000a87565b8060005b8381101562000b2c57815162000b10888262000aa8565b975062000b1d8362000ac2565b92505060018101905062000af9565b5085935050505092915050565b6000602082019050818103600083015262000b55818462000acf565b905092915050565b60006040828403121562000b765762000b75620005c1565b5b62000b8260406200063c565b9050600062000b948482850162000684565b600083015250602082013567ffffffffffffffff81111562000bbb5762000bba6200065b565b5b62000bc98482850162000735565b60208301525092915050565b6000806040838503121562000bef5762000bee6200050c565b5b600062000bff8582860162000578565b925050602083013567ffffffffffffffff81111562000c235762000c2262000511565b5b62000c318582860162000b5d565b9150509250929050565b62000c468162000660565b82525050565b600081519050919050565b600082825260208201905092915050565b60005b8381101562000c8857808201518184015260208101905062000c6b565b8381111562000c98576000848401525b50505050565b600062000cab8262000c4c565b62000cb7818562000c57565b935062000cc981856020860162000c68565b62000cd481620005c6565b840191505092915050565b600060a08301600083015162000cf9600086018262000c3b565b506020830151848203602086015262000d13828262000c9e565b9150506040830151848203604086015262000d2f828262000c9e565b915050606083015162000d46606086018262000c3b565b50608083015162000d5b608086018262000c3b565b508091505092915050565b6000819050919050565b600062000d9162000d8b62000d858462000516565b62000d66565b62000516565b9050919050565b600062000da58262000d70565b9050919050565b600062000db98262000d98565b9050919050565b62000dcb8162000dac565b82525050565b600062000dde8262000d98565b9050919050565b62000df08162000dd1565b82525050565b62000e018162000536565b82525050565b6000608082019050818103600083015262000e23818762000cdf565b905062000e34602083018662000dc0565b62000e43604083018562000de5565b62000e52606083018462000df6565b95945050505050565b600060208201905062000e72600083018462000df6565b92915050565b600060408301600083015162000e92600086018262000c3b565b506020830151848203602086015262000eac828262000c9e565b9150508091505092915050565b6000602082019050818103600083015262000ed5818462000e78565b905092915050565b600060408201905062000ef4600083018562000df6565b818103602083015262000f08818462000e78565b90509392505050565b7f4e487b7100000000000000000000000000000000000000000000000000000000600052602260045260246000fd5b6000600282049050600182168062000f5957607f821691505b6020821081141562000f705762000f6f62000f11565b5b5091905056fe60806040523480156200001157600080fd5b50604051620025fa380380620025fa833981810160405281019062000037919062000637565b80600a60006101000a81548173ffffffffffffffffffffffffffffffffffffffff021916908373ffffffffffffffffffffffffffffffffffffffff1602179055508360008082015181600001556020820151816001019080519060200190620000a2929190620001dd565b506040820151816002019080519060200190620000c1929190620001dd565b50606082015181600301556080820151816004015590505082600c60016101000a81548173ffffffffffffffffffffffffffffffffffffffff021916908373ffffffffffffffffffffffffffffffffffffffff16021790555081600d60006101000a81548173ffffffffffffffffffffffffffffffffffffffff021916908373ffffffffffffffffffffffffffffffffffffffff16021790555083606001514210156200019c576001600c60006101000a81548160ff02191690836002811115620001915762000190620006c8565b5b0217905550620001cb565b6000600c60006101000a81548160ff02191690836002811115620001c557620001c4620006c8565b5b02179055505b6000600b81905550505050506200075c565b828054620001eb9062000726565b90600052602060002090601f0160209004810192826200020f57600085556200025b565b82601f106200022a57805160ff19168380011785556200025b565b828001600101855582156200025b579182015b828111156200025a5782518255916020019190600101906200023d565b5b5090506200026a91906200026e565b5090565b5b80821115620002895760008160009055506001016200026f565b5090565b6000604051905090565b600080fd5b600080fd5b600080fd5b6000601f19601f8301169050919050565b7f4e487b7100000000000000000000000000000000000000000000000000000000600052604160045260246000fd5b620002f182620002a6565b810181811067ffffffffffffffff82111715620003135762000312620002b7565b5b80604052505050565b6000620003286200028d565b9050620003368282620002e6565b919050565b600080fd5b6000819050919050565b620003558162000340565b81146200036157600080fd5b50565b60008151905062000375816200034a565b92915050565b600080fd5b600080fd5b600067ffffffffffffffff821115620003a357620003a2620002b7565b5b620003ae82620002a6565b9050602081019050919050565b60005b83811015620003db578082015181840152602081019050620003be565b83811115620003eb576000848401525b50505050565b600062000408620004028462000385565b6200031c565b90508281526020810184848401111562000427576200042662000380565b5b62000434848285620003bb565b509392505050565b600082601f8301126200045457620004536200037b565b5b815162000466848260208601620003f1565b91505092915050565b600060a08284031215620004885762000487620002a1565b5b6200049460a06200031c565b90506000620004a68482850162000364565b600083015250602082015167ffffffffffffffff811115620004cd57620004cc6200033b565b5b620004db848285016200043c565b602083015250604082015167ffffffffffffffff8111156200050257620005016200033b565b5b62000510848285016200043c565b6040830152506060620005268482850162000364565b60608301525060806200053c8482850162000364565b60808301525092915050565b600073ffffffffffffffffffffffffffffffffffffffff82169050919050565b6000620005758262000548565b9050919050565b6000620005898262000568565b9050919050565b6200059b816200057c565b8114620005a757600080fd5b50565b600081519050620005bb8162000590565b92915050565b6000620005ce8262000568565b9050919050565b620005e081620005c1565b8114620005ec57600080fd5b50565b6000815190506200060081620005d5565b92915050565b620006118162000568565b81146200061d57600080fd5b50565b600081519050620006318162000606565b92915050565b6000806000806080858703121562000654576200065362000297565b5b600085015167ffffffffffffffff8111156200067557620006746200029c565b5b62000683878288016200046f565b94505060206200069687828801620005aa565b9350506040620006a987828801620005ef565b9250506060620006bc8782880162000620565b91505092959194509250565b7f4e487b7100000000000000000000000000000000000000000000000000000000600052602160045260246000fd5b7f4e487b7100000000000000000000000000000000000000000000000000000000600052602260045260246000fd5b600060028204905060018216806200073f57607f821691505b60208210811415620007565762000755620006f7565b5b50919050565b611e8e806200076c6000396000f3fe608060405234801561001057600080fd5b50600436106100b45760003560e01c8063521b0dcc11610071578063521b0dcc146101695780636c74bf6d1461019957806386852dca146101bb578063ac3910a2146101d9578063de292789146101f7578063df15c37e14610201576100b4565b806306a49fce146100b957806311174a29146100d75780631c6c741b146100f55780632a4a1b73146101115780632e134f851461012d5780634e69d5601461014b575b600080fd5b6100c161021f565b6040516100ce91906110d6565b60405180910390f35b6100df61031a565b6040516100ec9190611107565b60405180910390f35b61010f600480360381019061010a919061130d565b610324565b005b61012b600480360381019061012691906113b4565b610569565b005b610135610686565b6040516101429190611466565b60405180910390f35b6101536106ac565b60405161016091906114f8565b60405180910390f35b610183600480360381019061017e9190611513565b6106e1565b604051610190919061155b565b60405180910390f35b6101a1610786565b6040516101b29594939291906115c0565b60405180910390f35b6101c36108ba565b6040516101d0919061169e565b60405180910390f35b6101e1610a16565b6040516101ee91906116e1565b60405180910390f35b6101ff610a3c565b005b610209610c91565b60405161021691906117ab565b60405180910390f35b60606005805480602002602001604051908101604052809291908181526020016000905b82821015610311578382906000526020600020906002020160405180604001604052908160008201548152602001600182018054610280906117fc565b80601f01602080910402602001604051908101604052809291908181526020018280546102ac906117fc565b80156102f95780601f106102ce576101008083540402835291602001916102f9565b820191906000526020600020905b8154815290600101906020018083116102dc57829003601f168201915b50505050508152505081526020019060010190610243565b50505050905090565b6000600b54905090565b600a60009054906101000a900473ffffffffffffffffffffffffffffffffffffffff1673ffffffffffffffffffffffffffffffffffffffff163373ffffffffffffffffffffffffffffffffffffffff16146103b4576040517f08c379a00000000000000000000000000000000000000000000000000000000081526004016103ab906118a0565b60405180910390fd5b6005819080600181540180825580915050600190039060005260206000209060020201600090919091909150600082015181600001556020820151816001019080519060200190610406929190610d79565b505050600c60019054906101000a900473ffffffffffffffffffffffffffffffffffffffff1673ffffffffffffffffffffffffffffffffffffffff1663e844d09782600001516040518263ffffffff1660e01b81526004016104689190611107565b600060405180830381600087803b15801561048257600080fd5b505af1158015610496573d6000803e3d6000fd5b505050508060096000836000015181526020019081526020016000206000820151816000015560208201518160010190805190602001906104d8929190610d79565b509050506007816000015190806001815401808255809150506001900390600052602060002001600090919091909150557f1c2b84eccbb3b596139db436612c5ee0c320cd95fdfa80251a91eb699e75b80130600c60019054906101000a900473ffffffffffffffffffffffffffffffffffffffff168360405161055e9392919061190c565b60405180910390a150565b600c60019054906101000a900473ffffffffffffffffffffffffffffffffffffffff1673ffffffffffffffffffffffffffffffffffffffff16632a4a1b738484846040518463ffffffff1660e01b81526004016105c89392919061194a565b600060405180830381600087803b1580156105e257600080fd5b505af11580156105f6573d6000803e3d6000fd5b50505050600b600081548092919061060d906119b0565b91905055507f89116e9980fb92d511e6fb40f617f5cf0b58cf040ea472df506add052418021a600c60019054906101000a900473ffffffffffffffffffffffffffffffffffffffff16600960008581526020019081526020016000208360405161067993929190611b08565b60405180910390a1505050565b600d60009054906101000a900473ffffffffffffffffffffffffffffffffffffffff1681565b600080600301544210156106c357600190506106de565b6000600401544210156106d957600090506106de565b600290505b90565b6000600c60019054906101000a900473ffffffffffffffffffffffffffffffffffffffff1673ffffffffffffffffffffffffffffffffffffffff1663521b0dcc836040518263ffffffff1660e01b815260040161073e9190611b46565b602060405180830381865afa15801561075b573d6000803e3d6000fd5b505050506040513d601f19601f8201168201806040525081019061077f9190611b8d565b9050919050565b600080600001549080600101805461079d906117fc565b80601f01602080910402602001604051908101604052809291908181526020018280546107c9906117fc565b80156108165780601f106107eb57610100808354040283529160200191610816565b820191906000526020600020905b8154815290600101906020018083116107f957829003601f168201915b50505050509080600201805461082b906117fc565b80601f0160208091040260200160405190810160405280929190818152602001828054610857906117fc565b80156108a45780601f10610879576101008083540402835291602001916108a4565b820191906000526020600020905b81548152906001019060200180831161088757829003601f168201915b5050505050908060030154908060040154905085565b6108c2610dff565b60006040518060a0016040529081600082015481526020016001820180546108e9906117fc565b80601f0160208091040260200160405190810160405280929190818152602001828054610915906117fc565b80156109625780601f1061093757610100808354040283529160200191610962565b820191906000526020600020905b81548152906001019060200180831161094557829003601f168201915b5050505050815260200160028201805461097b906117fc565b80601f01602080910402602001604051908101604052809291908181526020018280546109a7906117fc565b80156109f45780601f106109c9576101008083540402835291602001916109f4565b820191906000526020600020905b8154815290600101906020018083116109d757829003601f168201915b5050505050815260200160038201548152602001600482015481525050905090565b600c60019054906101000a900473ffffffffffffffffffffffffffffffffffffffff1681565b600a60009054906101000a900473ffffffffffffffffffffffffffffffffffffffff1673ffffffffffffffffffffffffffffffffffffffff163373ffffffffffffffffffffffffffffffffffffffff1614610acc576040517f08c379a0000000000000000000000000000000000000000000000000000000008152600401610ac3906118a0565b60405180910390fd5b600d60009054906101000a900473ffffffffffffffffffffffffffffffffffffffff1673ffffffffffffffffffffffffffffffffffffffff1663c8344a20600c60019054906101000a900473ffffffffffffffffffffffffffffffffffffffff16600b546040518363ffffffff1660e01b8152600401610b4d929190611bba565b6000604051808303816000875af1158015610b6c573d6000803e3d6000fd5b505050506040513d6000823e3d601f19601f82011682018060405250810190610b959190611cc0565b60089080519060200190610baa929190610e2e565b5060005b600580549050811015610c565760066009600060088481548110610bd557610bd4611d09565b5b906000526020600020015481526020019081526020016000209080600181540180825580915050600190039060005260206000209060020201600090919091909150600082015481600001556001820181600101908054610c35906117fc565b610c40929190610e7b565b5050508080610c4e906119b0565b915050610bae565b507fdd4046340a3ebf10dbe18f1fbbf3ae91016308db118938cafcc3557ae4ff78ad6006604051610c879190611e36565b60405180910390a1565b6060600a60009054906101000a900473ffffffffffffffffffffffffffffffffffffffff1673ffffffffffffffffffffffffffffffffffffffff163373ffffffffffffffffffffffffffffffffffffffff1614610d23576040517f08c379a0000000000000000000000000000000000000000000000000000000008152600401610d1a906118a0565b60405180910390fd5b6008805480602002602001604051908101604052809291908181526020018280548015610d6f57602002820191906000526020600020905b815481526020019060010190808311610d5b575b5050505050905090565b828054610d85906117fc565b90600052602060002090601f016020900481019282610da75760008555610dee565b82601f10610dc057805160ff1916838001178555610dee565b82800160010185558215610dee579182015b82811115610ded578251825591602001919060010190610dd2565b5b509050610dfb9190610f08565b5090565b6040518060a0016040528060008152602001606081526020016060815260200160008152602001600081525090565b828054828255906000526020600020908101928215610e6a579160200282015b82811115610e69578251825591602001919060010190610e4e565b5b509050610e779190610f08565b5090565b828054610e87906117fc565b90600052602060002090601f016020900481019282610ea95760008555610ef7565b82601f10610eba5780548555610ef7565b82800160010185558215610ef757600052602060002091601f016020900482015b82811115610ef6578254825591600101919060010190610edb565b5b509050610f049190610f08565b5090565b5b80821115610f21576000816000905550600101610f09565b5090565b600081519050919050565b600082825260208201905092915050565b6000819050602082019050919050565b6000819050919050565b610f6481610f51565b82525050565b600081519050919050565b600082825260208201905092915050565b60005b83811015610fa4578082015181840152602081019050610f89565b83811115610fb3576000848401525b50505050565b6000601f19601f8301169050919050565b6000610fd582610f6a565b610fdf8185610f75565b9350610fef818560208601610f86565b610ff881610fb9565b840191505092915050565b600060408301600083015161101b6000860182610f5b565b50602083015184820360208601526110338282610fca565b9150508091505092915050565b600061104c8383611003565b905092915050565b6000602082019050919050565b600061106c82610f25565b6110768185610f30565b93508360208202850161108885610f41565b8060005b858110156110c457848403895281516110a58582611040565b94506110b083611054565b925060208a0199505060018101905061108c565b50829750879550505050505092915050565b600060208201905081810360008301526110f08184611061565b905092915050565b61110181610f51565b82525050565b600060208201905061111c60008301846110f8565b92915050565b6000604051905090565b600080fd5b600080fd5b600080fd5b7f4e487b7100000000000000000000000000000000000000000000000000000000600052604160045260246000fd5b61117382610fb9565b810181811067ffffffffffffffff821117156111925761119161113b565b5b80604052505050565b60006111a5611122565b90506111b1828261116a565b919050565b600080fd5b6111c481610f51565b81146111cf57600080fd5b50565b6000813590506111e1816111bb565b92915050565b600080fd5b600080fd5b600067ffffffffffffffff82111561120c5761120b61113b565b5b61121582610fb9565b9050602081019050919050565b82818337600083830152505050565b600061124461123f846111f1565b61119b565b9050828152602081018484840111156112605761125f6111ec565b5b61126b848285611222565b509392505050565b600082601f830112611288576112876111e7565b5b8135611298848260208601611231565b91505092915050565b6000604082840312156112b7576112b6611136565b5b6112c1604061119b565b905060006112d1848285016111d2565b600083015250602082013567ffffffffffffffff8111156112f5576112f46111b6565b5b61130184828501611273565b60208301525092915050565b6000602082840312156113235761132261112c565b5b600082013567ffffffffffffffff81111561134157611340611131565b5b61134d848285016112a1565b91505092915050565b600073ffffffffffffffffffffffffffffffffffffffff82169050919050565b600061138182611356565b9050919050565b61139181611376565b811461139c57600080fd5b50565b6000813590506113ae81611388565b92915050565b6000806000606084860312156113cd576113cc61112c565b5b60006113db8682870161139f565b93505060206113ec868287016111d2565b92505060406113fd868287016111d2565b9150509250925092565b6000819050919050565b600061142c61142761142284611356565b611407565b611356565b9050919050565b600061143e82611411565b9050919050565b600061145082611433565b9050919050565b61146081611445565b82525050565b600060208201905061147b6000830184611457565b92915050565b7f4e487b7100000000000000000000000000000000000000000000000000000000600052602160045260246000fd5b600381106114c1576114c0611481565b5b50565b60008190506114d2826114b0565b919050565b60006114e2826114c4565b9050919050565b6114f2816114d7565b82525050565b600060208201905061150d60008301846114e9565b92915050565b6000602082840312156115295761152861112c565b5b60006115378482850161139f565b91505092915050565b60008115159050919050565b61155581611540565b82525050565b6000602082019050611570600083018461154c565b92915050565b600082825260208201905092915050565b600061159282610f6a565b61159c8185611576565b93506115ac818560208601610f86565b6115b581610fb9565b840191505092915050565b600060a0820190506115d560008301886110f8565b81810360208301526115e78187611587565b905081810360408301526115fb8186611587565b905061160a60608301856110f8565b61161760808301846110f8565b9695505050505050565b600060a0830160008301516116396000860182610f5b565b50602083015184820360208601526116518282610fca565b9150506040830151848203604086015261166b8282610fca565b91505060608301516116806060860182610f5b565b5060808301516116936080860182610f5b565b508091505092915050565b600060208201905081810360008301526116b88184611621565b905092915050565b60006116cb82611433565b9050919050565b6116db816116c0565b82525050565b60006020820190506116f660008301846116d2565b92915050565b600081519050919050565b600082825260208201905092915050565b6000819050602082019050919050565b60006117348383610f5b565b60208301905092915050565b6000602082019050919050565b6000611758826116fc565b6117628185611707565b935061176d83611718565b8060005b8381101561179e5781516117858882611728565b975061179083611740565b925050600181019050611771565b5085935050505092915050565b600060208201905081810360008301526117c5818461174d565b905092915050565b7f4e487b7100000000000000000000000000000000000000000000000000000000600052602260045260246000fd5b6000600282049050600182168061181457607f821691505b60208210811415611828576118276117cd565b5b50919050565b7f43616c6c6572206d7573742062652074686520656c656374696f6e206f72676160008201527f6e697a6572000000000000000000000000000000000000000000000000000000602082015250565b600061188a602583611576565b91506118958261182e565b604082019050919050565b600060208201905081810360008301526118b98161187d565b9050919050565b6118c981611376565b82525050565b60006040830160008301516118e76000860182610f5b565b50602083015184820360208601526118ff8282610fca565b9150508091505092915050565b600060608201905061192160008301866118c0565b61192e60208301856118c0565b818103604083015261194081846118cf565b9050949350505050565b600060608201905061195f60008301866118c0565b61196c60208301856110f8565b61197960408301846110f8565b949350505050565b7f4e487b7100000000000000000000000000000000000000000000000000000000600052601160045260246000fd5b60006119bb82610f51565b91507fffffffffffffffffffffffffffffffffffffffffffffffffffffffffffffffff8214156119ee576119ed611981565b5b600182019050919050565b60008160001c9050919050565b6000819050919050565b6000611a23611a1e836119f9565b611a06565b9050919050565b60008190508160005260206000209050919050565b60008154611a4c816117fc565b611a568186610f75565b94506001821660008114611a715760018114611a8357611ab6565b60ff1983168652602086019350611ab6565b611a8c85611a2a565b60005b83811015611aae57815481890152600182019150602081019050611a8f565b808801955050505b50505092915050565b6000604083016000808401549050611ad681611a10565b611ae36000870182610f5b565b50600184018583036020870152611afa8382611a3f565b925050819250505092915050565b6000606082019050611b1d60008301866118c0565b8181036020830152611b2f8185611abf565b9050611b3e60408301846110f8565b949350505050565b6000602082019050611b5b60008301846118c0565b92915050565b611b6a81611540565b8114611b7557600080fd5b50565b600081519050611b8781611b61565b92915050565b600060208284031215611ba357611ba261112c565b5b6000611bb184828501611b78565b91505092915050565b6000604082019050611bcf60008301856116d2565b611bdc60208301846110f8565b9392505050565b600067ffffffffffffffff821115611bfe57611bfd61113b565b5b602082029050602081019050919050565b600080fd5b600081519050611c23816111bb565b92915050565b6000611c3c611c3784611be3565b61119b565b90508083825260208201905060208402830185811115611c5f57611c5e611c0f565b5b835b81811015611c885780611c748882611c14565b845260208401935050602081019050611c61565b5050509392505050565b600082601f830112611ca757611ca66111e7565b5b8151611cb7848260208601611c29565b91505092915050565b600060208284031215611cd657611cd561112c565b5b600082015167ffffffffffffffff811115611cf457611cf3611131565b5b611d0084828501611c92565b91505092915050565b7f4e487b7100000000000000000000000000000000000000000000000000000000600052603260045260246000fd5b600081549050919050565b60008190508160005260206000209050919050565b6000604083016000808401549050611d6f81611a10565b611d7c6000870182610f5b565b50600184018583036020870152611d938382611a3f565b925050819250505092915050565b6000611dad8383611d58565b905092915050565b6000600282019050919050565b6000611dcd82611d38565b611dd78185610f30565b935083602082028501611de985611d43565b8060005b85811015611e2457848403895281611e058582611da1565b9450611e1083611db5565b925060208a01995050600181019050611ded565b50829750879550505050505092915050565b60006020820190508181036000830152611e508184611dc2565b90509291505056fea2646970667358221220390bb1e10fafb0027c79b0fcfb01aba57ff0ab571d6f10224cccc698e42d403b64736f6c634300080a0033a26469706673582212209726ffbbf12f0172aa953cd36ced485438a7d365d10cef3e138b2159b3c6123564736f6c634300080a0033",
          "opcodes": "PUSH1 0x80 PUSH1 0x40 MSTORE CALLVALUE DUP1 ISZERO PUSH2 0x10 JUMPI PUSH1 0x0 DUP1 REVERT JUMPDEST POP PUSH2 0x35A6 DUP1 PUSH2 0x20 PUSH1 0x0 CODECOPY PUSH1 0x0 RETURN INVALID PUSH1 0x80 PUSH1 0x40 MSTORE CALLVALUE DUP1 ISZERO PUSH3 0x11 JUMPI PUSH1 0x0 DUP1 REVERT JUMPDEST POP PUSH1 0x4 CALLDATASIZE LT PUSH3 0x5E JUMPI PUSH1 0x0 CALLDATALOAD PUSH1 0xE0 SHR DUP1 PUSH4 0x446A37E0 EQ PUSH3 0x63 JUMPI DUP1 PUSH4 0x5118161B EQ PUSH3 0x83 JUMPI DUP1 PUSH4 0x5B1AAD00 EQ PUSH3 0xA3 JUMPI DUP1 PUSH4 0x9F3A7F52 EQ PUSH3 0xC3 JUMPI DUP1 PUSH4 0xB16B14B7 EQ PUSH3 0xE5 JUMPI JUMPDEST PUSH1 0x0 DUP1 REVERT JUMPDEST PUSH3 0x81 PUSH1 0x4 DUP1 CALLDATASIZE SUB DUP2 ADD SWAP1 PUSH3 0x7B SWAP2 SWAP1 PUSH3 0x58F JUMP JUMPDEST PUSH3 0x105 JUMP JUMPDEST STOP JUMPDEST PUSH3 0xA1 PUSH1 0x4 DUP1 CALLDATASIZE SUB DUP2 ADD SWAP1 PUSH3 0x9B SWAP2 SWAP1 PUSH3 0x827 JUMP JUMPDEST PUSH3 0x16A JUMP JUMPDEST STOP JUMPDEST PUSH3 0xC1 PUSH1 0x4 DUP1 CALLDATASIZE SUB DUP2 ADD SWAP1 PUSH3 0xBB SWAP2 SWAP1 PUSH3 0x9F0 JUMP JUMPDEST PUSH3 0x221 JUMP JUMPDEST STOP JUMPDEST PUSH3 0xCD PUSH3 0x306 JUMP JUMPDEST PUSH1 0x40 MLOAD PUSH3 0xDC SWAP2 SWAP1 PUSH3 0xB39 JUMP JUMPDEST PUSH1 0x40 MLOAD DUP1 SWAP2 SUB SWAP1 RETURN JUMPDEST PUSH3 0x103 PUSH1 0x4 DUP1 CALLDATASIZE SUB DUP2 ADD SWAP1 PUSH3 0xFD SWAP2 SWAP1 PUSH3 0xBD5 JUMP JUMPDEST PUSH3 0x396 JUMP JUMPDEST STOP JUMPDEST DUP1 PUSH20 0xFFFFFFFFFFFFFFFFFFFFFFFFFFFFFFFFFFFFFFFF AND PUSH4 0xDE292789 PUSH1 0x40 MLOAD DUP2 PUSH4 0xFFFFFFFF AND PUSH1 0xE0 SHL DUP2 MSTORE PUSH1 0x4 ADD PUSH1 0x0 PUSH1 0x40 MLOAD DUP1 DUP4 SUB DUP2 PUSH1 0x0 DUP8 DUP1 EXTCODESIZE ISZERO DUP1 ISZERO PUSH3 0x14E JUMPI PUSH1 0x0 DUP1 REVERT JUMPDEST POP GAS CALL ISZERO DUP1 ISZERO PUSH3 0x163 JUMPI RETURNDATASIZE PUSH1 0x0 DUP1 RETURNDATACOPY RETURNDATASIZE PUSH1 0x0 REVERT JUMPDEST POP POP POP POP POP JUMP JUMPDEST DUP2 PUSH1 0x1 PUSH1 0x0 DUP4 PUSH20 0xFFFFFFFFFFFFFFFFFFFFFFFFFFFFFFFFFFFFFFFF AND PUSH20 0xFFFFFFFFFFFFFFFFFFFFFFFFFFFFFFFFFFFFFFFF AND DUP2 MSTORE PUSH1 0x20 ADD SWAP1 DUP2 MSTORE PUSH1 0x20 ADD PUSH1 0x0 KECCAK256 PUSH1 0x0 DUP3 ADD MLOAD DUP2 PUSH1 0x0 ADD SSTORE PUSH1 0x20 DUP3 ADD MLOAD DUP2 PUSH1 0x1 ADD SWAP1 DUP1 MLOAD SWAP1 PUSH1 0x20 ADD SWAP1 PUSH3 0x1D2 SWAP3 SWAP2 SWAP1 PUSH3 0x444 JUMP JUMPDEST POP PUSH1 0x40 DUP3 ADD MLOAD DUP2 PUSH1 0x2 ADD PUSH1 0x0 PUSH2 0x100 EXP DUP2 SLOAD DUP2 PUSH20 0xFFFFFFFFFFFFFFFFFFFFFFFFFFFFFFFFFFFFFFFF MUL NOT AND SWAP1 DUP4 PUSH20 0xFFFFFFFFFFFFFFFFFFFFFFFFFFFFFFFFFFFFFFFF AND MUL OR SWAP1 SSTORE POP SWAP1 POP POP POP POP JUMP JUMPDEST PUSH1 0x0 DUP4 DUP4 DUP4 CALLER PUSH1 0x40 MLOAD PUSH3 0x235 SWAP1 PUSH3 0x4D5 JUMP JUMPDEST PUSH3 0x244 SWAP5 SWAP4 SWAP3 SWAP2 SWAP1 PUSH3 0xE07 JUMP JUMPDEST PUSH1 0x40 MLOAD DUP1 SWAP2 SUB SWAP1 PUSH1 0x0 CREATE DUP1 ISZERO DUP1 ISZERO PUSH3 0x261 JUMPI RETURNDATASIZE PUSH1 0x0 DUP1 RETURNDATACOPY RETURNDATASIZE PUSH1 0x0 REVERT JUMPDEST POP SWAP1 POP PUSH1 0x0 DUP2 SWAP1 DUP1 PUSH1 0x1 DUP2 SLOAD ADD DUP1 DUP3 SSTORE DUP1 SWAP2 POP POP PUSH1 0x1 SWAP1 SUB SWAP1 PUSH1 0x0 MSTORE PUSH1 0x20 PUSH1 0x0 KECCAK256 ADD PUSH1 0x0 SWAP1 SWAP2 SWAP1 SWAP2 SWAP1 SWAP2 PUSH2 0x100 EXP DUP2 SLOAD DUP2 PUSH20 0xFFFFFFFFFFFFFFFFFFFFFFFFFFFFFFFFFFFFFFFF MUL NOT AND SWAP1 DUP4 PUSH20 0xFFFFFFFFFFFFFFFFFFFFFFFFFFFFFFFFFFFFFFFF AND MUL OR SWAP1 SSTORE POP PUSH32 0x49FDFE60E25EBF09E8F8C20A8A10C828D9B82CECF7B04E1ECB59AE51F79F8277 DUP2 PUSH1 0x40 MLOAD PUSH3 0x2F8 SWAP2 SWAP1 PUSH3 0xE5B JUMP JUMPDEST PUSH1 0x40 MLOAD DUP1 SWAP2 SUB SWAP1 LOG1 POP POP POP POP JUMP JUMPDEST PUSH1 0x60 PUSH1 0x0 DUP1 SLOAD DUP1 PUSH1 0x20 MUL PUSH1 0x20 ADD PUSH1 0x40 MLOAD SWAP1 DUP2 ADD PUSH1 0x40 MSTORE DUP1 SWAP3 SWAP2 SWAP1 DUP2 DUP2 MSTORE PUSH1 0x20 ADD DUP3 DUP1 SLOAD DUP1 ISZERO PUSH3 0x38C JUMPI PUSH1 0x20 MUL DUP3 ADD SWAP2 SWAP1 PUSH1 0x0 MSTORE PUSH1 0x20 PUSH1 0x0 KECCAK256 SWAP1 JUMPDEST DUP2 PUSH1 0x0 SWAP1 SLOAD SWAP1 PUSH2 0x100 EXP SWAP1 DIV PUSH20 0xFFFFFFFFFFFFFFFFFFFFFFFFFFFFFFFFFFFFFFFF AND PUSH20 0xFFFFFFFFFFFFFFFFFFFFFFFFFFFFFFFFFFFFFFFF AND DUP2 MSTORE PUSH1 0x20 ADD SWAP1 PUSH1 0x1 ADD SWAP1 DUP1 DUP4 GT PUSH3 0x341 JUMPI JUMPDEST POP POP POP POP POP SWAP1 POP SWAP1 JUMP JUMPDEST DUP2 PUSH20 0xFFFFFFFFFFFFFFFFFFFFFFFFFFFFFFFFFFFFFFFF AND PUSH4 0x1C6C741B DUP3 PUSH1 0x40 MLOAD DUP3 PUSH4 0xFFFFFFFF AND PUSH1 0xE0 SHL DUP2 MSTORE PUSH1 0x4 ADD PUSH3 0x3D1 SWAP2 SWAP1 PUSH3 0xEB9 JUMP JUMPDEST PUSH1 0x0 PUSH1 0x40 MLOAD DUP1 DUP4 SUB DUP2 PUSH1 0x0 DUP8 DUP1 EXTCODESIZE ISZERO DUP1 ISZERO PUSH3 0x3EC JUMPI PUSH1 0x0 DUP1 REVERT JUMPDEST POP GAS CALL ISZERO DUP1 ISZERO PUSH3 0x401 JUMPI RETURNDATASIZE PUSH1 0x0 DUP1 RETURNDATACOPY RETURNDATASIZE PUSH1 0x0 REVERT JUMPDEST POP POP POP POP PUSH32 0x7771D3B5B09CC4582322E65D05740A706298222C7A823CFF620EBF6E1B5420B DUP3 DUP3 PUSH1 0x40 MLOAD PUSH3 0x438 SWAP3 SWAP2 SWAP1 PUSH3 0xEDD JUMP JUMPDEST PUSH1 0x40 MLOAD DUP1 SWAP2 SUB SWAP1 LOG1 POP POP JUMP JUMPDEST DUP3 DUP1 SLOAD PUSH3 0x452 SWAP1 PUSH3 0xF40 JUMP JUMPDEST SWAP1 PUSH1 0x0 MSTORE PUSH1 0x20 PUSH1 0x0 KECCAK256 SWAP1 PUSH1 0x1F ADD PUSH1 0x20 SWAP1 DIV DUP2 ADD SWAP3 DUP3 PUSH3 0x476 JUMPI PUSH1 0x0 DUP6 SSTORE PUSH3 0x4C2 JUMP JUMPDEST DUP3 PUSH1 0x1F LT PUSH3 0x491 JUMPI DUP1 MLOAD PUSH1 0xFF NOT AND DUP4 DUP1 ADD OR DUP6 SSTORE PUSH3 0x4C2 JUMP JUMPDEST DUP3 DUP1 ADD PUSH1 0x1 ADD DUP6 SSTORE DUP3 ISZERO PUSH3 0x4C2 JUMPI SWAP2 DUP3 ADD JUMPDEST DUP3 DUP2 GT ISZERO PUSH3 0x4C1 JUMPI DUP3 MLOAD DUP3 SSTORE SWAP2 PUSH1 0x20 ADD SWAP2 SWAP1 PUSH1 0x1 ADD SWAP1 PUSH3 0x4A4 JUMP JUMPDEST JUMPDEST POP SWAP1 POP PUSH3 0x4D1 SWAP2 SWAP1 PUSH3 0x4E3 JUMP JUMPDEST POP SWAP1 JUMP JUMPDEST PUSH2 0x25FA DUP1 PUSH3 0xF77 DUP4 CODECOPY ADD SWAP1 JUMP JUMPDEST JUMPDEST DUP1 DUP3 GT ISZERO PUSH3 0x4FE JUMPI PUSH1 0x0 DUP2 PUSH1 0x0 SWAP1 SSTORE POP PUSH1 0x1 ADD PUSH3 0x4E4 JUMP JUMPDEST POP SWAP1 JUMP JUMPDEST PUSH1 0x0 PUSH1 0x40 MLOAD SWAP1 POP SWAP1 JUMP JUMPDEST PUSH1 0x0 DUP1 REVERT JUMPDEST PUSH1 0x0 DUP1 REVERT JUMPDEST PUSH1 0x0 PUSH20 0xFFFFFFFFFFFFFFFFFFFFFFFFFFFFFFFFFFFFFFFF DUP3 AND SWAP1 POP SWAP2 SWAP1 POP JUMP JUMPDEST PUSH1 0x0 PUSH3 0x543 DUP3 PUSH3 0x516 JUMP JUMPDEST SWAP1 POP SWAP2 SWAP1 POP JUMP JUMPDEST PUSH1 0x0 PUSH3 0x557 DUP3 PUSH3 0x536 JUMP JUMPDEST SWAP1 POP SWAP2 SWAP1 POP JUMP JUMPDEST PUSH3 0x569 DUP2 PUSH3 0x54A JUMP JUMPDEST DUP2 EQ PUSH3 0x575 JUMPI PUSH1 0x0 DUP1 REVERT JUMPDEST POP JUMP JUMPDEST PUSH1 0x0 DUP2 CALLDATALOAD SWAP1 POP PUSH3 0x589 DUP2 PUSH3 0x55E JUMP JUMPDEST SWAP3 SWAP2 POP POP JUMP JUMPDEST PUSH1 0x0 PUSH1 0x20 DUP3 DUP5 SUB SLT ISZERO PUSH3 0x5A8 JUMPI PUSH3 0x5A7 PUSH3 0x50C JUMP JUMPDEST JUMPDEST PUSH1 0x0 PUSH3 0x5B8 DUP5 DUP3 DUP6 ADD PUSH3 0x578 JUMP JUMPDEST SWAP2 POP POP SWAP3 SWAP2 POP POP JUMP JUMPDEST PUSH1 0x0 DUP1 REVERT JUMPDEST PUSH1 0x0 PUSH1 0x1F NOT PUSH1 0x1F DUP4 ADD AND SWAP1 POP SWAP2 SWAP1 POP JUMP JUMPDEST PUSH32 0x4E487B7100000000000000000000000000000000000000000000000000000000 PUSH1 0x0 MSTORE PUSH1 0x41 PUSH1 0x4 MSTORE PUSH1 0x24 PUSH1 0x0 REVERT JUMPDEST PUSH3 0x611 DUP3 PUSH3 0x5C6 JUMP JUMPDEST DUP2 ADD DUP2 DUP2 LT PUSH8 0xFFFFFFFFFFFFFFFF DUP3 GT OR ISZERO PUSH3 0x633 JUMPI PUSH3 0x632 PUSH3 0x5D7 JUMP JUMPDEST JUMPDEST DUP1 PUSH1 0x40 MSTORE POP POP POP JUMP JUMPDEST PUSH1 0x0 PUSH3 0x648 PUSH3 0x502 JUMP JUMPDEST SWAP1 POP PUSH3 0x656 DUP3 DUP3 PUSH3 0x606 JUMP JUMPDEST SWAP2 SWAP1 POP JUMP JUMPDEST PUSH1 0x0 DUP1 REVERT JUMPDEST PUSH1 0x0 DUP2 SWAP1 POP SWAP2 SWAP1 POP JUMP JUMPDEST PUSH3 0x675 DUP2 PUSH3 0x660 JUMP JUMPDEST DUP2 EQ PUSH3 0x681 JUMPI PUSH1 0x0 DUP1 REVERT JUMPDEST POP JUMP JUMPDEST PUSH1 0x0 DUP2 CALLDATALOAD SWAP1 POP PUSH3 0x695 DUP2 PUSH3 0x66A JUMP JUMPDEST SWAP3 SWAP2 POP POP JUMP JUMPDEST PUSH1 0x0 DUP1 REVERT JUMPDEST PUSH1 0x0 DUP1 REVERT JUMPDEST PUSH1 0x0 PUSH8 0xFFFFFFFFFFFFFFFF DUP3 GT ISZERO PUSH3 0x6C3 JUMPI PUSH3 0x6C2 PUSH3 0x5D7 JUMP JUMPDEST JUMPDEST PUSH3 0x6CE DUP3 PUSH3 0x5C6 JUMP JUMPDEST SWAP1 POP PUSH1 0x20 DUP2 ADD SWAP1 POP SWAP2 SWAP1 POP JUMP JUMPDEST DUP3 DUP2 DUP4 CALLDATACOPY PUSH1 0x0 DUP4 DUP4 ADD MSTORE POP POP POP JUMP JUMPDEST PUSH1 0x0 PUSH3 0x701 PUSH3 0x6FB DUP5 PUSH3 0x6A5 JUMP JUMPDEST PUSH3 0x63C JUMP JUMPDEST SWAP1 POP DUP3 DUP2 MSTORE PUSH1 0x20 DUP2 ADD DUP5 DUP5 DUP5 ADD GT ISZERO PUSH3 0x720 JUMPI PUSH3 0x71F PUSH3 0x6A0 JUMP JUMPDEST JUMPDEST PUSH3 0x72D DUP5 DUP3 DUP6 PUSH3 0x6DB JUMP JUMPDEST POP SWAP4 SWAP3 POP POP POP JUMP JUMPDEST PUSH1 0x0 DUP3 PUSH1 0x1F DUP4 ADD SLT PUSH3 0x74D JUMPI PUSH3 0x74C PUSH3 0x69B JUMP JUMPDEST JUMPDEST DUP2 CALLDATALOAD PUSH3 0x75F DUP5 DUP3 PUSH1 0x20 DUP7 ADD PUSH3 0x6EA JUMP JUMPDEST SWAP2 POP POP SWAP3 SWAP2 POP POP JUMP JUMPDEST PUSH3 0x773 DUP2 PUSH3 0x536 JUMP JUMPDEST DUP2 EQ PUSH3 0x77F JUMPI PUSH1 0x0 DUP1 REVERT JUMPDEST POP JUMP JUMPDEST PUSH1 0x0 DUP2 CALLDATALOAD SWAP1 POP PUSH3 0x793 DUP2 PUSH3 0x768 JUMP JUMPDEST SWAP3 SWAP2 POP POP JUMP JUMPDEST PUSH1 0x0 PUSH1 0x60 DUP3 DUP5 SUB SLT ISZERO PUSH3 0x7B2 JUMPI PUSH3 0x7B1 PUSH3 0x5C1 JUMP JUMPDEST JUMPDEST PUSH3 0x7BE PUSH1 0x60 PUSH3 0x63C JUMP JUMPDEST SWAP1 POP PUSH1 0x0 PUSH3 0x7D0 DUP5 DUP3 DUP6 ADD PUSH3 0x684 JUMP JUMPDEST PUSH1 0x0 DUP4 ADD MSTORE POP PUSH1 0x20 DUP3 ADD CALLDATALOAD PUSH8 0xFFFFFFFFFFFFFFFF DUP2 GT ISZERO PUSH3 0x7F7 JUMPI PUSH3 0x7F6 PUSH3 0x65B JUMP JUMPDEST JUMPDEST PUSH3 0x805 DUP5 DUP3 DUP6 ADD PUSH3 0x735 JUMP JUMPDEST PUSH1 0x20 DUP4 ADD MSTORE POP PUSH1 0x40 PUSH3 0x81B DUP5 DUP3 DUP6 ADD PUSH3 0x782 JUMP JUMPDEST PUSH1 0x40 DUP4 ADD MSTORE POP SWAP3 SWAP2 POP POP JUMP JUMPDEST PUSH1 0x0 DUP1 PUSH1 0x40 DUP4 DUP6 SUB SLT ISZERO PUSH3 0x841 JUMPI PUSH3 0x840 PUSH3 0x50C JUMP JUMPDEST JUMPDEST PUSH1 0x0 DUP4 ADD CALLDATALOAD PUSH8 0xFFFFFFFFFFFFFFFF DUP2 GT ISZERO PUSH3 0x862 JUMPI PUSH3 0x861 PUSH3 0x511 JUMP JUMPDEST JUMPDEST PUSH3 0x870 DUP6 DUP3 DUP7 ADD PUSH3 0x799 JUMP JUMPDEST SWAP3 POP POP PUSH1 0x20 PUSH3 0x883 DUP6 DUP3 DUP7 ADD PUSH3 0x782 JUMP JUMPDEST SWAP2 POP POP SWAP3 POP SWAP3 SWAP1 POP JUMP JUMPDEST PUSH1 0x0 PUSH1 0xA0 DUP3 DUP5 SUB SLT ISZERO PUSH3 0x8A6 JUMPI PUSH3 0x8A5 PUSH3 0x5C1 JUMP JUMPDEST JUMPDEST PUSH3 0x8B2 PUSH1 0xA0 PUSH3 0x63C JUMP JUMPDEST SWAP1 POP PUSH1 0x0 PUSH3 0x8C4 DUP5 DUP3 DUP6 ADD PUSH3 0x684 JUMP JUMPDEST PUSH1 0x0 DUP4 ADD MSTORE POP PUSH1 0x20 DUP3 ADD CALLDATALOAD PUSH8 0xFFFFFFFFFFFFFFFF DUP2 GT ISZERO PUSH3 0x8EB JUMPI PUSH3 0x8EA PUSH3 0x65B JUMP JUMPDEST JUMPDEST PUSH3 0x8F9 DUP5 DUP3 DUP6 ADD PUSH3 0x735 JUMP JUMPDEST PUSH1 0x20 DUP4 ADD MSTORE POP PUSH1 0x40 DUP3 ADD CALLDATALOAD PUSH8 0xFFFFFFFFFFFFFFFF DUP2 GT ISZERO PUSH3 0x920 JUMPI PUSH3 0x91F PUSH3 0x65B JUMP JUMPDEST JUMPDEST PUSH3 0x92E DUP5 DUP3 DUP6 ADD PUSH3 0x735 JUMP JUMPDEST PUSH1 0x40 DUP4 ADD MSTORE POP PUSH1 0x60 PUSH3 0x944 DUP5 DUP3 DUP6 ADD PUSH3 0x684 JUMP JUMPDEST PUSH1 0x60 DUP4 ADD MSTORE POP PUSH1 0x80 PUSH3 0x95A DUP5 DUP3 DUP6 ADD PUSH3 0x684 JUMP JUMPDEST PUSH1 0x80 DUP4 ADD MSTORE POP SWAP3 SWAP2 POP POP JUMP JUMPDEST PUSH1 0x0 PUSH3 0x973 DUP3 PUSH3 0x536 JUMP JUMPDEST SWAP1 POP SWAP2 SWAP1 POP JUMP JUMPDEST PUSH3 0x985 DUP2 PUSH3 0x966 JUMP JUMPDEST DUP2 EQ PUSH3 0x991 JUMPI PUSH1 0x0 DUP1 REVERT JUMPDEST POP JUMP JUMPDEST PUSH1 0x0 DUP2 CALLDATALOAD SWAP1 POP PUSH3 0x9A5 DUP2 PUSH3 0x97A JUMP JUMPDEST SWAP3 SWAP2 POP POP JUMP JUMPDEST PUSH1 0x0 PUSH3 0x9B8 DUP3 PUSH3 0x536 JUMP JUMPDEST SWAP1 POP SWAP2 SWAP1 POP JUMP JUMPDEST PUSH3 0x9CA DUP2 PUSH3 0x9AB JUMP JUMPDEST DUP2 EQ PUSH3 0x9D6 JUMPI PUSH1 0x0 DUP1 REVERT JUMPDEST POP JUMP JUMPDEST PUSH1 0x0 DUP2 CALLDATALOAD SWAP1 POP PUSH3 0x9EA DUP2 PUSH3 0x9BF JUMP JUMPDEST SWAP3 SWAP2 POP POP JUMP JUMPDEST PUSH1 0x0 DUP1 PUSH1 0x0 PUSH1 0x60 DUP5 DUP7 SUB SLT ISZERO PUSH3 0xA0C JUMPI PUSH3 0xA0B PUSH3 0x50C JUMP JUMPDEST JUMPDEST PUSH1 0x0 DUP5 ADD CALLDATALOAD PUSH8 0xFFFFFFFFFFFFFFFF DUP2 GT ISZERO PUSH3 0xA2D JUMPI PUSH3 0xA2C PUSH3 0x511 JUMP JUMPDEST JUMPDEST PUSH3 0xA3B DUP7 DUP3 DUP8 ADD PUSH3 0x88D JUMP JUMPDEST SWAP4 POP POP PUSH1 0x20 PUSH3 0xA4E DUP7 DUP3 DUP8 ADD PUSH3 0x994 JUMP JUMPDEST SWAP3 POP POP PUSH1 0x40 PUSH3 0xA61 DUP7 DUP3 DUP8 ADD PUSH3 0x9D9 JUMP JUMPDEST SWAP2 POP POP SWAP3 POP SWAP3 POP SWAP3 JUMP JUMPDEST PUSH1 0x0 DUP2 MLOAD SWAP1 POP SWAP2 SWAP1 POP JUMP JUMPDEST PUSH1 0x0 DUP3 DUP3 MSTORE PUSH1 0x20 DUP3 ADD SWAP1 POP SWAP3 SWAP2 POP POP JUMP JUMPDEST PUSH1 0x0 DUP2 SWAP1 POP PUSH1 0x20 DUP3 ADD SWAP1 POP SWAP2 SWAP1 POP JUMP JUMPDEST PUSH3 0xAA2 DUP2 PUSH3 0x536 JUMP JUMPDEST DUP3 MSTORE POP POP JUMP JUMPDEST PUSH1 0x0 PUSH3 0xAB6 DUP4 DUP4 PUSH3 0xA97 JUMP JUMPDEST PUSH1 0x20 DUP4 ADD SWAP1 POP SWAP3 SWAP2 POP POP JUMP JUMPDEST PUSH1 0x0 PUSH1 0x20 DUP3 ADD SWAP1 POP SWAP2 SWAP1 POP JUMP JUMPDEST PUSH1 0x0 PUSH3 0xADC DUP3 PUSH3 0xA6B JUMP JUMPDEST PUSH3 0xAE8 DUP2 DUP6 PUSH3 0xA76 JUMP JUMPDEST SWAP4 POP PUSH3 0xAF5 DUP4 PUSH3 0xA87 JUMP JUMPDEST DUP1 PUSH1 0x0 JUMPDEST DUP4 DUP2 LT ISZERO PUSH3 0xB2C JUMPI DUP2 MLOAD PUSH3 0xB10 DUP9 DUP3 PUSH3 0xAA8 JUMP JUMPDEST SWAP8 POP PUSH3 0xB1D DUP4 PUSH3 0xAC2 JUMP JUMPDEST SWAP3 POP POP PUSH1 0x1 DUP2 ADD SWAP1 POP PUSH3 0xAF9 JUMP JUMPDEST POP DUP6 SWAP4 POP POP POP POP SWAP3 SWAP2 POP POP JUMP JUMPDEST PUSH1 0x0 PUSH1 0x20 DUP3 ADD SWAP1 POP DUP2 DUP2 SUB PUSH1 0x0 DUP4 ADD MSTORE PUSH3 0xB55 DUP2 DUP5 PUSH3 0xACF JUMP JUMPDEST SWAP1 POP SWAP3 SWAP2 POP POP JUMP JUMPDEST PUSH1 0x0 PUSH1 0x40 DUP3 DUP5 SUB SLT ISZERO PUSH3 0xB76 JUMPI PUSH3 0xB75 PUSH3 0x5C1 JUMP JUMPDEST JUMPDEST PUSH3 0xB82 PUSH1 0x40 PUSH3 0x63C JUMP JUMPDEST SWAP1 POP PUSH1 0x0 PUSH3 0xB94 DUP5 DUP3 DUP6 ADD PUSH3 0x684 JUMP JUMPDEST PUSH1 0x0 DUP4 ADD MSTORE POP PUSH1 0x20 DUP3 ADD CALLDATALOAD PUSH8 0xFFFFFFFFFFFFFFFF DUP2 GT ISZERO PUSH3 0xBBB JUMPI PUSH3 0xBBA PUSH3 0x65B JUMP JUMPDEST JUMPDEST PUSH3 0xBC9 DUP5 DUP3 DUP6 ADD PUSH3 0x735 JUMP JUMPDEST PUSH1 0x20 DUP4 ADD MSTORE POP SWAP3 SWAP2 POP POP JUMP JUMPDEST PUSH1 0x0 DUP1 PUSH1 0x40 DUP4 DUP6 SUB SLT ISZERO PUSH3 0xBEF JUMPI PUSH3 0xBEE PUSH3 0x50C JUMP JUMPDEST JUMPDEST PUSH1 0x0 PUSH3 0xBFF DUP6 DUP3 DUP7 ADD PUSH3 0x578 JUMP JUMPDEST SWAP3 POP POP PUSH1 0x20 DUP4 ADD CALLDATALOAD PUSH8 0xFFFFFFFFFFFFFFFF DUP2 GT ISZERO PUSH3 0xC23 JUMPI PUSH3 0xC22 PUSH3 0x511 JUMP JUMPDEST JUMPDEST PUSH3 0xC31 DUP6 DUP3 DUP7 ADD PUSH3 0xB5D JUMP JUMPDEST SWAP2 POP POP SWAP3 POP SWAP3 SWAP1 POP JUMP JUMPDEST PUSH3 0xC46 DUP2 PUSH3 0x660 JUMP JUMPDEST DUP3 MSTORE POP POP JUMP JUMPDEST PUSH1 0x0 DUP2 MLOAD SWAP1 POP SWAP2 SWAP1 POP JUMP JUMPDEST PUSH1 0x0 DUP3 DUP3 MSTORE PUSH1 0x20 DUP3 ADD SWAP1 POP SWAP3 SWAP2 POP POP JUMP JUMPDEST PUSH1 0x0 JUMPDEST DUP4 DUP2 LT ISZERO PUSH3 0xC88 JUMPI DUP1 DUP3 ADD MLOAD DUP2 DUP5 ADD MSTORE PUSH1 0x20 DUP2 ADD SWAP1 POP PUSH3 0xC6B JUMP JUMPDEST DUP4 DUP2 GT ISZERO PUSH3 0xC98 JUMPI PUSH1 0x0 DUP5 DUP5 ADD MSTORE JUMPDEST POP POP POP POP JUMP JUMPDEST PUSH1 0x0 PUSH3 0xCAB DUP3 PUSH3 0xC4C JUMP JUMPDEST PUSH3 0xCB7 DUP2 DUP6 PUSH3 0xC57 JUMP JUMPDEST SWAP4 POP PUSH3 0xCC9 DUP2 DUP6 PUSH1 0x20 DUP7 ADD PUSH3 0xC68 JUMP JUMPDEST PUSH3 0xCD4 DUP2 PUSH3 0x5C6 JUMP JUMPDEST DUP5 ADD SWAP2 POP POP SWAP3 SWAP2 POP POP JUMP JUMPDEST PUSH1 0x0 PUSH1 0xA0 DUP4 ADD PUSH1 0x0 DUP4 ADD MLOAD PUSH3 0xCF9 PUSH1 0x0 DUP7 ADD DUP3 PUSH3 0xC3B JUMP JUMPDEST POP PUSH1 0x20 DUP4 ADD MLOAD DUP5 DUP3 SUB PUSH1 0x20 DUP7 ADD MSTORE PUSH3 0xD13 DUP3 DUP3 PUSH3 0xC9E JUMP JUMPDEST SWAP2 POP POP PUSH1 0x40 DUP4 ADD MLOAD DUP5 DUP3 SUB PUSH1 0x40 DUP7 ADD MSTORE PUSH3 0xD2F DUP3 DUP3 PUSH3 0xC9E JUMP JUMPDEST SWAP2 POP POP PUSH1 0x60 DUP4 ADD MLOAD PUSH3 0xD46 PUSH1 0x60 DUP7 ADD DUP3 PUSH3 0xC3B JUMP JUMPDEST POP PUSH1 0x80 DUP4 ADD MLOAD PUSH3 0xD5B PUSH1 0x80 DUP7 ADD DUP3 PUSH3 0xC3B JUMP JUMPDEST POP DUP1 SWAP2 POP POP SWAP3 SWAP2 POP POP JUMP JUMPDEST PUSH1 0x0 DUP2 SWAP1 POP SWAP2 SWAP1 POP JUMP JUMPDEST PUSH1 0x0 PUSH3 0xD91 PUSH3 0xD8B PUSH3 0xD85 DUP5 PUSH3 0x516 JUMP JUMPDEST PUSH3 0xD66 JUMP JUMPDEST PUSH3 0x516 JUMP JUMPDEST SWAP1 POP SWAP2 SWAP1 POP JUMP JUMPDEST PUSH1 0x0 PUSH3 0xDA5 DUP3 PUSH3 0xD70 JUMP JUMPDEST SWAP1 POP SWAP2 SWAP1 POP JUMP JUMPDEST PUSH1 0x0 PUSH3 0xDB9 DUP3 PUSH3 0xD98 JUMP JUMPDEST SWAP1 POP SWAP2 SWAP1 POP JUMP JUMPDEST PUSH3 0xDCB DUP2 PUSH3 0xDAC JUMP JUMPDEST DUP3 MSTORE POP POP JUMP JUMPDEST PUSH1 0x0 PUSH3 0xDDE DUP3 PUSH3 0xD98 JUMP JUMPDEST SWAP1 POP SWAP2 SWAP1 POP JUMP JUMPDEST PUSH3 0xDF0 DUP2 PUSH3 0xDD1 JUMP JUMPDEST DUP3 MSTORE POP POP JUMP JUMPDEST PUSH3 0xE01 DUP2 PUSH3 0x536 JUMP JUMPDEST DUP3 MSTORE POP POP JUMP JUMPDEST PUSH1 0x0 PUSH1 0x80 DUP3 ADD SWAP1 POP DUP2 DUP2 SUB PUSH1 0x0 DUP4 ADD MSTORE PUSH3 0xE23 DUP2 DUP8 PUSH3 0xCDF JUMP JUMPDEST SWAP1 POP PUSH3 0xE34 PUSH1 0x20 DUP4 ADD DUP7 PUSH3 0xDC0 JUMP JUMPDEST PUSH3 0xE43 PUSH1 0x40 DUP4 ADD DUP6 PUSH3 0xDE5 JUMP JUMPDEST PUSH3 0xE52 PUSH1 0x60 DUP4 ADD DUP5 PUSH3 0xDF6 JUMP JUMPDEST SWAP6 SWAP5 POP POP POP POP POP JUMP JUMPDEST PUSH1 0x0 PUSH1 0x20 DUP3 ADD SWAP1 POP PUSH3 0xE72 PUSH1 0x0 DUP4 ADD DUP5 PUSH3 0xDF6 JUMP JUMPDEST SWAP3 SWAP2 POP POP JUMP JUMPDEST PUSH1 0x0 PUSH1 0x40 DUP4 ADD PUSH1 0x0 DUP4 ADD MLOAD PUSH3 0xE92 PUSH1 0x0 DUP7 ADD DUP3 PUSH3 0xC3B JUMP JUMPDEST POP PUSH1 0x20 DUP4 ADD MLOAD DUP5 DUP3 SUB PUSH1 0x20 DUP7 ADD MSTORE PUSH3 0xEAC DUP3 DUP3 PUSH3 0xC9E JUMP JUMPDEST SWAP2 POP POP DUP1 SWAP2 POP POP SWAP3 SWAP2 POP POP JUMP JUMPDEST PUSH1 0x0 PUSH1 0x20 DUP3 ADD SWAP1 POP DUP2 DUP2 SUB PUSH1 0x0 DUP4 ADD MSTORE PUSH3 0xED5 DUP2 DUP5 PUSH3 0xE78 JUMP JUMPDEST SWAP1 POP SWAP3 SWAP2 POP POP JUMP JUMPDEST PUSH1 0x0 PUSH1 0x40 DUP3 ADD SWAP1 POP PUSH3 0xEF4 PUSH1 0x0 DUP4 ADD DUP6 PUSH3 0xDF6 JUMP JUMPDEST DUP2 DUP2 SUB PUSH1 0x20 DUP4 ADD MSTORE PUSH3 0xF08 DUP2 DUP5 PUSH3 0xE78 JUMP JUMPDEST SWAP1 POP SWAP4 SWAP3 POP POP POP JUMP JUMPDEST PUSH32 0x4E487B7100000000000000000000000000000000000000000000000000000000 PUSH1 0x0 MSTORE PUSH1 0x22 PUSH1 0x4 MSTORE PUSH1 0x24 PUSH1 0x0 REVERT JUMPDEST PUSH1 0x0 PUSH1 0x2 DUP3 DIV SWAP1 POP PUSH1 0x1 DUP3 AND DUP1 PUSH3 0xF59 JUMPI PUSH1 0x7F DUP3 AND SWAP2 POP JUMPDEST PUSH1 0x20 DUP3 LT DUP2 EQ ISZERO PUSH3 0xF70 JUMPI PUSH3 0xF6F PUSH3 0xF11 JUMP JUMPDEST JUMPDEST POP SWAP2 SWAP1 POP JUMP INVALID PUSH1 0x80 PUSH1 0x40 MSTORE CALLVALUE DUP1 ISZERO PUSH3 0x11 JUMPI PUSH1 0x0 DUP1 REVERT JUMPDEST POP PUSH1 0x40 MLOAD PUSH3 0x25FA CODESIZE SUB DUP1 PUSH3 0x25FA DUP4 CODECOPY DUP2 DUP2 ADD PUSH1 0x40 MSTORE DUP2 ADD SWAP1 PUSH3 0x37 SWAP2 SWAP1 PUSH3 0x637 JUMP JUMPDEST DUP1 PUSH1 0xA PUSH1 0x0 PUSH2 0x100 EXP DUP2 SLOAD DUP2 PUSH20 0xFFFFFFFFFFFFFFFFFFFFFFFFFFFFFFFFFFFFFFFF MUL NOT AND SWAP1 DUP4 PUSH20 0xFFFFFFFFFFFFFFFFFFFFFFFFFFFFFFFFFFFFFFFF AND MUL OR SWAP1 SSTORE POP DUP4 PUSH1 0x0 DUP1 DUP3 ADD MLOAD DUP2 PUSH1 0x0 ADD SSTORE PUSH1 0x20 DUP3 ADD MLOAD DUP2 PUSH1 0x1 ADD SWAP1 DUP1 MLOAD SWAP1 PUSH1 0x20 ADD SWAP1 PUSH3 0xA2 SWAP3 SWAP2 SWAP1 PUSH3 0x1DD JUMP JUMPDEST POP PUSH1 0x40 DUP3 ADD MLOAD DUP2 PUSH1 0x2 ADD SWAP1 DUP1 MLOAD SWAP1 PUSH1 0x20 ADD SWAP1 PUSH3 0xC1 SWAP3 SWAP2 SWAP1 PUSH3 0x1DD JUMP JUMPDEST POP PUSH1 0x60 DUP3 ADD MLOAD DUP2 PUSH1 0x3 ADD SSTORE PUSH1 0x80 DUP3 ADD MLOAD DUP2 PUSH1 0x4 ADD SSTORE SWAP1 POP POP DUP3 PUSH1 0xC PUSH1 0x1 PUSH2 0x100 EXP DUP2 SLOAD DUP2 PUSH20 0xFFFFFFFFFFFFFFFFFFFFFFFFFFFFFFFFFFFFFFFF MUL NOT AND SWAP1 DUP4 PUSH20 0xFFFFFFFFFFFFFFFFFFFFFFFFFFFFFFFFFFFFFFFF AND MUL OR SWAP1 SSTORE POP DUP2 PUSH1 0xD PUSH1 0x0 PUSH2 0x100 EXP DUP2 SLOAD DUP2 PUSH20 0xFFFFFFFFFFFFFFFFFFFFFFFFFFFFFFFFFFFFFFFF MUL NOT AND SWAP1 DUP4 PUSH20 0xFFFFFFFFFFFFFFFFFFFFFFFFFFFFFFFFFFFFFFFF AND MUL OR SWAP1 SSTORE POP DUP4 PUSH1 0x60 ADD MLOAD TIMESTAMP LT ISZERO PUSH3 0x19C JUMPI PUSH1 0x1 PUSH1 0xC PUSH1 0x0 PUSH2 0x100 EXP DUP2 SLOAD DUP2 PUSH1 0xFF MUL NOT AND SWAP1 DUP4 PUSH1 0x2 DUP2 GT ISZERO PUSH3 0x191 JUMPI PUSH3 0x190 PUSH3 0x6C8 JUMP JUMPDEST JUMPDEST MUL OR SWAP1 SSTORE POP PUSH3 0x1CB JUMP JUMPDEST PUSH1 0x0 PUSH1 0xC PUSH1 0x0 PUSH2 0x100 EXP DUP2 SLOAD DUP2 PUSH1 0xFF MUL NOT AND SWAP1 DUP4 PUSH1 0x2 DUP2 GT ISZERO PUSH3 0x1C5 JUMPI PUSH3 0x1C4 PUSH3 0x6C8 JUMP JUMPDEST JUMPDEST MUL OR SWAP1 SSTORE POP JUMPDEST PUSH1 0x0 PUSH1 0xB DUP2 SWAP1 SSTORE POP POP POP POP POP PUSH3 0x75C JUMP JUMPDEST DUP3 DUP1 SLOAD PUSH3 0x1EB SWAP1 PUSH3 0x726 JUMP JUMPDEST SWAP1 PUSH1 0x0 MSTORE PUSH1 0x20 PUSH1 0x0 KECCAK256 SWAP1 PUSH1 0x1F ADD PUSH1 0x20 SWAP1 DIV DUP2 ADD SWAP3 DUP3 PUSH3 0x20F JUMPI PUSH1 0x0 DUP6 SSTORE PUSH3 0x25B JUMP JUMPDEST DUP3 PUSH1 0x1F LT PUSH3 0x22A JUMPI DUP1 MLOAD PUSH1 0xFF NOT AND DUP4 DUP1 ADD OR DUP6 SSTORE PUSH3 0x25B JUMP JUMPDEST DUP3 DUP1 ADD PUSH1 0x1 ADD DUP6 SSTORE DUP3 ISZERO PUSH3 0x25B JUMPI SWAP2 DUP3 ADD JUMPDEST DUP3 DUP2 GT ISZERO PUSH3 0x25A JUMPI DUP3 MLOAD DUP3 SSTORE SWAP2 PUSH1 0x20 ADD SWAP2 SWAP1 PUSH1 0x1 ADD SWAP1 PUSH3 0x23D JUMP JUMPDEST JUMPDEST POP SWAP1 POP PUSH3 0x26A SWAP2 SWAP1 PUSH3 0x26E JUMP JUMPDEST POP SWAP1 JUMP JUMPDEST JUMPDEST DUP1 DUP3 GT ISZERO PUSH3 0x289 JUMPI PUSH1 0x0 DUP2 PUSH1 0x0 SWAP1 SSTORE POP PUSH1 0x1 ADD PUSH3 0x26F JUMP JUMPDEST POP SWAP1 JUMP JUMPDEST PUSH1 0x0 PUSH1 0x40 MLOAD SWAP1 POP SWAP1 JUMP JUMPDEST PUSH1 0x0 DUP1 REVERT JUMPDEST PUSH1 0x0 DUP1 REVERT JUMPDEST PUSH1 0x0 DUP1 REVERT JUMPDEST PUSH1 0x0 PUSH1 0x1F NOT PUSH1 0x1F DUP4 ADD AND SWAP1 POP SWAP2 SWAP1 POP JUMP JUMPDEST PUSH32 0x4E487B7100000000000000000000000000000000000000000000000000000000 PUSH1 0x0 MSTORE PUSH1 0x41 PUSH1 0x4 MSTORE PUSH1 0x24 PUSH1 0x0 REVERT JUMPDEST PUSH3 0x2F1 DUP3 PUSH3 0x2A6 JUMP JUMPDEST DUP2 ADD DUP2 DUP2 LT PUSH8 0xFFFFFFFFFFFFFFFF DUP3 GT OR ISZERO PUSH3 0x313 JUMPI PUSH3 0x312 PUSH3 0x2B7 JUMP JUMPDEST JUMPDEST DUP1 PUSH1 0x40 MSTORE POP POP POP JUMP JUMPDEST PUSH1 0x0 PUSH3 0x328 PUSH3 0x28D JUMP JUMPDEST SWAP1 POP PUSH3 0x336 DUP3 DUP3 PUSH3 0x2E6 JUMP JUMPDEST SWAP2 SWAP1 POP JUMP JUMPDEST PUSH1 0x0 DUP1 REVERT JUMPDEST PUSH1 0x0 DUP2 SWAP1 POP SWAP2 SWAP1 POP JUMP JUMPDEST PUSH3 0x355 DUP2 PUSH3 0x340 JUMP JUMPDEST DUP2 EQ PUSH3 0x361 JUMPI PUSH1 0x0 DUP1 REVERT JUMPDEST POP JUMP JUMPDEST PUSH1 0x0 DUP2 MLOAD SWAP1 POP PUSH3 0x375 DUP2 PUSH3 0x34A JUMP JUMPDEST SWAP3 SWAP2 POP POP JUMP JUMPDEST PUSH1 0x0 DUP1 REVERT JUMPDEST PUSH1 0x0 DUP1 REVERT JUMPDEST PUSH1 0x0 PUSH8 0xFFFFFFFFFFFFFFFF DUP3 GT ISZERO PUSH3 0x3A3 JUMPI PUSH3 0x3A2 PUSH3 0x2B7 JUMP JUMPDEST JUMPDEST PUSH3 0x3AE DUP3 PUSH3 0x2A6 JUMP JUMPDEST SWAP1 POP PUSH1 0x20 DUP2 ADD SWAP1 POP SWAP2 SWAP1 POP JUMP JUMPDEST PUSH1 0x0 JUMPDEST DUP4 DUP2 LT ISZERO PUSH3 0x3DB JUMPI DUP1 DUP3 ADD MLOAD DUP2 DUP5 ADD MSTORE PUSH1 0x20 DUP2 ADD SWAP1 POP PUSH3 0x3BE JUMP JUMPDEST DUP4 DUP2 GT ISZERO PUSH3 0x3EB JUMPI PUSH1 0x0 DUP5 DUP5 ADD MSTORE JUMPDEST POP POP POP POP JUMP JUMPDEST PUSH1 0x0 PUSH3 0x408 PUSH3 0x402 DUP5 PUSH3 0x385 JUMP JUMPDEST PUSH3 0x31C JUMP JUMPDEST SWAP1 POP DUP3 DUP2 MSTORE PUSH1 0x20 DUP2 ADD DUP5 DUP5 DUP5 ADD GT ISZERO PUSH3 0x427 JUMPI PUSH3 0x426 PUSH3 0x380 JUMP JUMPDEST JUMPDEST PUSH3 0x434 DUP5 DUP3 DUP6 PUSH3 0x3BB JUMP JUMPDEST POP SWAP4 SWAP3 POP POP POP JUMP JUMPDEST PUSH1 0x0 DUP3 PUSH1 0x1F DUP4 ADD SLT PUSH3 0x454 JUMPI PUSH3 0x453 PUSH3 0x37B JUMP JUMPDEST JUMPDEST DUP2 MLOAD PUSH3 0x466 DUP5 DUP3 PUSH1 0x20 DUP7 ADD PUSH3 0x3F1 JUMP JUMPDEST SWAP2 POP POP SWAP3 SWAP2 POP POP JUMP JUMPDEST PUSH1 0x0 PUSH1 0xA0 DUP3 DUP5 SUB SLT ISZERO PUSH3 0x488 JUMPI PUSH3 0x487 PUSH3 0x2A1 JUMP JUMPDEST JUMPDEST PUSH3 0x494 PUSH1 0xA0 PUSH3 0x31C JUMP JUMPDEST SWAP1 POP PUSH1 0x0 PUSH3 0x4A6 DUP5 DUP3 DUP6 ADD PUSH3 0x364 JUMP JUMPDEST PUSH1 0x0 DUP4 ADD MSTORE POP PUSH1 0x20 DUP3 ADD MLOAD PUSH8 0xFFFFFFFFFFFFFFFF DUP2 GT ISZERO PUSH3 0x4CD JUMPI PUSH3 0x4CC PUSH3 0x33B JUMP JUMPDEST JUMPDEST PUSH3 0x4DB DUP5 DUP3 DUP6 ADD PUSH3 0x43C JUMP JUMPDEST PUSH1 0x20 DUP4 ADD MSTORE POP PUSH1 0x40 DUP3 ADD MLOAD PUSH8 0xFFFFFFFFFFFFFFFF DUP2 GT ISZERO PUSH3 0x502 JUMPI PUSH3 0x501 PUSH3 0x33B JUMP JUMPDEST JUMPDEST PUSH3 0x510 DUP5 DUP3 DUP6 ADD PUSH3 0x43C JUMP JUMPDEST PUSH1 0x40 DUP4 ADD MSTORE POP PUSH1 0x60 PUSH3 0x526 DUP5 DUP3 DUP6 ADD PUSH3 0x364 JUMP JUMPDEST PUSH1 0x60 DUP4 ADD MSTORE POP PUSH1 0x80 PUSH3 0x53C DUP5 DUP3 DUP6 ADD PUSH3 0x364 JUMP JUMPDEST PUSH1 0x80 DUP4 ADD MSTORE POP SWAP3 SWAP2 POP POP JUMP JUMPDEST PUSH1 0x0 PUSH20 0xFFFFFFFFFFFFFFFFFFFFFFFFFFFFFFFFFFFFFFFF DUP3 AND SWAP1 POP SWAP2 SWAP1 POP JUMP JUMPDEST PUSH1 0x0 PUSH3 0x575 DUP3 PUSH3 0x548 JUMP JUMPDEST SWAP1 POP SWAP2 SWAP1 POP JUMP JUMPDEST PUSH1 0x0 PUSH3 0x589 DUP3 PUSH3 0x568 JUMP JUMPDEST SWAP1 POP SWAP2 SWAP1 POP JUMP JUMPDEST PUSH3 0x59B DUP2 PUSH3 0x57C JUMP JUMPDEST DUP2 EQ PUSH3 0x5A7 JUMPI PUSH1 0x0 DUP1 REVERT JUMPDEST POP JUMP JUMPDEST PUSH1 0x0 DUP2 MLOAD SWAP1 POP PUSH3 0x5BB DUP2 PUSH3 0x590 JUMP JUMPDEST SWAP3 SWAP2 POP POP JUMP JUMPDEST PUSH1 0x0 PUSH3 0x5CE DUP3 PUSH3 0x568 JUMP JUMPDEST SWAP1 POP SWAP2 SWAP1 POP JUMP JUMPDEST PUSH3 0x5E0 DUP2 PUSH3 0x5C1 JUMP JUMPDEST DUP2 EQ PUSH3 0x5EC JUMPI PUSH1 0x0 DUP1 REVERT JUMPDEST POP JUMP JUMPDEST PUSH1 0x0 DUP2 MLOAD SWAP1 POP PUSH3 0x600 DUP2 PUSH3 0x5D5 JUMP JUMPDEST SWAP3 SWAP2 POP POP JUMP JUMPDEST PUSH3 0x611 DUP2 PUSH3 0x568 JUMP JUMPDEST DUP2 EQ PUSH3 0x61D JUMPI PUSH1 0x0 DUP1 REVERT JUMPDEST POP JUMP JUMPDEST PUSH1 0x0 DUP2 MLOAD SWAP1 POP PUSH3 0x631 DUP2 PUSH3 0x606 JUMP JUMPDEST SWAP3 SWAP2 POP POP JUMP JUMPDEST PUSH1 0x0 DUP1 PUSH1 0x0 DUP1 PUSH1 0x80 DUP6 DUP8 SUB SLT ISZERO PUSH3 0x654 JUMPI PUSH3 0x653 PUSH3 0x297 JUMP JUMPDEST JUMPDEST PUSH1 0x0 DUP6 ADD MLOAD PUSH8 0xFFFFFFFFFFFFFFFF DUP2 GT ISZERO PUSH3 0x675 JUMPI PUSH3 0x674 PUSH3 0x29C JUMP JUMPDEST JUMPDEST PUSH3 0x683 DUP8 DUP3 DUP9 ADD PUSH3 0x46F JUMP JUMPDEST SWAP5 POP POP PUSH1 0x20 PUSH3 0x696 DUP8 DUP3 DUP9 ADD PUSH3 0x5AA JUMP JUMPDEST SWAP4 POP POP PUSH1 0x40 PUSH3 0x6A9 DUP8 DUP3 DUP9 ADD PUSH3 0x5EF JUMP JUMPDEST SWAP3 POP POP PUSH1 0x60 PUSH3 0x6BC DUP8 DUP3 DUP9 ADD PUSH3 0x620 JUMP JUMPDEST SWAP2 POP POP SWAP3 SWAP6 SWAP2 SWAP5 POP SWAP3 POP JUMP JUMPDEST PUSH32 0x4E487B7100000000000000000000000000000000000000000000000000000000 PUSH1 0x0 MSTORE PUSH1 0x21 PUSH1 0x4 MSTORE PUSH1 0x24 PUSH1 0x0 REVERT JUMPDEST PUSH32 0x4E487B7100000000000000000000000000000000000000000000000000000000 PUSH1 0x0 MSTORE PUSH1 0x22 PUSH1 0x4 MSTORE PUSH1 0x24 PUSH1 0x0 REVERT JUMPDEST PUSH1 0x0 PUSH1 0x2 DUP3 DIV SWAP1 POP PUSH1 0x1 DUP3 AND DUP1 PUSH3 0x73F JUMPI PUSH1 0x7F DUP3 AND SWAP2 POP JUMPDEST PUSH1 0x20 DUP3 LT DUP2 EQ ISZERO PUSH3 0x756 JUMPI PUSH3 0x755 PUSH3 0x6F7 JUMP JUMPDEST JUMPDEST POP SWAP2 SWAP1 POP JUMP JUMPDEST PUSH2 0x1E8E DUP1 PUSH3 0x76C PUSH1 0x0 CODECOPY PUSH1 0x0 RETURN INVALID PUSH1 0x80 PUSH1 0x40 MSTORE CALLVALUE DUP1 ISZERO PUSH2 0x10 JUMPI PUSH1 0x0 DUP1 REVERT JUMPDEST POP PUSH1 0x4 CALLDATASIZE LT PUSH2 0xB4 JUMPI PUSH1 0x0 CALLDATALOAD PUSH1 0xE0 SHR DUP1 PUSH4 0x521B0DCC GT PUSH2 0x71 JUMPI DUP1 PUSH4 0x521B0DCC EQ PUSH2 0x169 JUMPI DUP1 PUSH4 0x6C74BF6D EQ PUSH2 0x199 JUMPI DUP1 PUSH4 0x86852DCA EQ PUSH2 0x1BB JUMPI DUP1 PUSH4 0xAC3910A2 EQ PUSH2 0x1D9 JUMPI DUP1 PUSH4 0xDE292789 EQ PUSH2 0x1F7 JUMPI DUP1 PUSH4 0xDF15C37E EQ PUSH2 0x201 JUMPI PUSH2 0xB4 JUMP JUMPDEST DUP1 PUSH4 0x6A49FCE EQ PUSH2 0xB9 JUMPI DUP1 PUSH4 0x11174A29 EQ PUSH2 0xD7 JUMPI DUP1 PUSH4 0x1C6C741B EQ PUSH2 0xF5 JUMPI DUP1 PUSH4 0x2A4A1B73 EQ PUSH2 0x111 JUMPI DUP1 PUSH4 0x2E134F85 EQ PUSH2 0x12D JUMPI DUP1 PUSH4 0x4E69D560 EQ PUSH2 0x14B JUMPI JUMPDEST PUSH1 0x0 DUP1 REVERT JUMPDEST PUSH2 0xC1 PUSH2 0x21F JUMP JUMPDEST PUSH1 0x40 MLOAD PUSH2 0xCE SWAP2 SWAP1 PUSH2 0x10D6 JUMP JUMPDEST PUSH1 0x40 MLOAD DUP1 SWAP2 SUB SWAP1 RETURN JUMPDEST PUSH2 0xDF PUSH2 0x31A JUMP JUMPDEST PUSH1 0x40 MLOAD PUSH2 0xEC SWAP2 SWAP1 PUSH2 0x1107 JUMP JUMPDEST PUSH1 0x40 MLOAD DUP1 SWAP2 SUB SWAP1 RETURN JUMPDEST PUSH2 0x10F PUSH1 0x4 DUP1 CALLDATASIZE SUB DUP2 ADD SWAP1 PUSH2 0x10A SWAP2 SWAP1 PUSH2 0x130D JUMP JUMPDEST PUSH2 0x324 JUMP JUMPDEST STOP JUMPDEST PUSH2 0x12B PUSH1 0x4 DUP1 CALLDATASIZE SUB DUP2 ADD SWAP1 PUSH2 0x126 SWAP2 SWAP1 PUSH2 0x13B4 JUMP JUMPDEST PUSH2 0x569 JUMP JUMPDEST STOP JUMPDEST PUSH2 0x135 PUSH2 0x686 JUMP JUMPDEST PUSH1 0x40 MLOAD PUSH2 0x142 SWAP2 SWAP1 PUSH2 0x1466 JUMP JUMPDEST PUSH1 0x40 MLOAD DUP1 SWAP2 SUB SWAP1 RETURN JUMPDEST PUSH2 0x153 PUSH2 0x6AC JUMP JUMPDEST PUSH1 0x40 MLOAD PUSH2 0x160 SWAP2 SWAP1 PUSH2 0x14F8 JUMP JUMPDEST PUSH1 0x40 MLOAD DUP1 SWAP2 SUB SWAP1 RETURN JUMPDEST PUSH2 0x183 PUSH1 0x4 DUP1 CALLDATASIZE SUB DUP2 ADD SWAP1 PUSH2 0x17E SWAP2 SWAP1 PUSH2 0x1513 JUMP JUMPDEST PUSH2 0x6E1 JUMP JUMPDEST PUSH1 0x40 MLOAD PUSH2 0x190 SWAP2 SWAP1 PUSH2 0x155B JUMP JUMPDEST PUSH1 0x40 MLOAD DUP1 SWAP2 SUB SWAP1 RETURN JUMPDEST PUSH2 0x1A1 PUSH2 0x786 JUMP JUMPDEST PUSH1 0x40 MLOAD PUSH2 0x1B2 SWAP6 SWAP5 SWAP4 SWAP3 SWAP2 SWAP1 PUSH2 0x15C0 JUMP JUMPDEST PUSH1 0x40 MLOAD DUP1 SWAP2 SUB SWAP1 RETURN JUMPDEST PUSH2 0x1C3 PUSH2 0x8BA JUMP JUMPDEST PUSH1 0x40 MLOAD PUSH2 0x1D0 SWAP2 SWAP1 PUSH2 0x169E JUMP JUMPDEST PUSH1 0x40 MLOAD DUP1 SWAP2 SUB SWAP1 RETURN JUMPDEST PUSH2 0x1E1 PUSH2 0xA16 JUMP JUMPDEST PUSH1 0x40 MLOAD PUSH2 0x1EE SWAP2 SWAP1 PUSH2 0x16E1 JUMP JUMPDEST PUSH1 0x40 MLOAD DUP1 SWAP2 SUB SWAP1 RETURN JUMPDEST PUSH2 0x1FF PUSH2 0xA3C JUMP JUMPDEST STOP JUMPDEST PUSH2 0x209 PUSH2 0xC91 JUMP JUMPDEST PUSH1 0x40 MLOAD PUSH2 0x216 SWAP2 SWAP1 PUSH2 0x17AB JUMP JUMPDEST PUSH1 0x40 MLOAD DUP1 SWAP2 SUB SWAP1 RETURN JUMPDEST PUSH1 0x60 PUSH1 0x5 DUP1 SLOAD DUP1 PUSH1 0x20 MUL PUSH1 0x20 ADD PUSH1 0x40 MLOAD SWAP1 DUP2 ADD PUSH1 0x40 MSTORE DUP1 SWAP3 SWAP2 SWAP1 DUP2 DUP2 MSTORE PUSH1 0x20 ADD PUSH1 0x0 SWAP1 JUMPDEST DUP3 DUP3 LT ISZERO PUSH2 0x311 JUMPI DUP4 DUP3 SWAP1 PUSH1 0x0 MSTORE PUSH1 0x20 PUSH1 0x0 KECCAK256 SWAP1 PUSH1 0x2 MUL ADD PUSH1 0x40 MLOAD DUP1 PUSH1 0x40 ADD PUSH1 0x40 MSTORE SWAP1 DUP2 PUSH1 0x0 DUP3 ADD SLOAD DUP2 MSTORE PUSH1 0x20 ADD PUSH1 0x1 DUP3 ADD DUP1 SLOAD PUSH2 0x280 SWAP1 PUSH2 0x17FC JUMP JUMPDEST DUP1 PUSH1 0x1F ADD PUSH1 0x20 DUP1 SWAP2 DIV MUL PUSH1 0x20 ADD PUSH1 0x40 MLOAD SWAP1 DUP2 ADD PUSH1 0x40 MSTORE DUP1 SWAP3 SWAP2 SWAP1 DUP2 DUP2 MSTORE PUSH1 0x20 ADD DUP3 DUP1 SLOAD PUSH2 0x2AC SWAP1 PUSH2 0x17FC JUMP JUMPDEST DUP1 ISZERO PUSH2 0x2F9 JUMPI DUP1 PUSH1 0x1F LT PUSH2 0x2CE JUMPI PUSH2 0x100 DUP1 DUP4 SLOAD DIV MUL DUP4 MSTORE SWAP2 PUSH1 0x20 ADD SWAP2 PUSH2 0x2F9 JUMP JUMPDEST DUP3 ADD SWAP2 SWAP1 PUSH1 0x0 MSTORE PUSH1 0x20 PUSH1 0x0 KECCAK256 SWAP1 JUMPDEST DUP2 SLOAD DUP2 MSTORE SWAP1 PUSH1 0x1 ADD SWAP1 PUSH1 0x20 ADD DUP1 DUP4 GT PUSH2 0x2DC JUMPI DUP3 SWAP1 SUB PUSH1 0x1F AND DUP3 ADD SWAP2 JUMPDEST POP POP POP POP POP DUP2 MSTORE POP POP DUP2 MSTORE PUSH1 0x20 ADD SWAP1 PUSH1 0x1 ADD SWAP1 PUSH2 0x243 JUMP JUMPDEST POP POP POP POP SWAP1 POP SWAP1 JUMP JUMPDEST PUSH1 0x0 PUSH1 0xB SLOAD SWAP1 POP SWAP1 JUMP JUMPDEST PUSH1 0xA PUSH1 0x0 SWAP1 SLOAD SWAP1 PUSH2 0x100 EXP SWAP1 DIV PUSH20 0xFFFFFFFFFFFFFFFFFFFFFFFFFFFFFFFFFFFFFFFF AND PUSH20 0xFFFFFFFFFFFFFFFFFFFFFFFFFFFFFFFFFFFFFFFF AND CALLER PUSH20 0xFFFFFFFFFFFFFFFFFFFFFFFFFFFFFFFFFFFFFFFF AND EQ PUSH2 0x3B4 JUMPI PUSH1 0x40 MLOAD PUSH32 0x8C379A000000000000000000000000000000000000000000000000000000000 DUP2 MSTORE PUSH1 0x4 ADD PUSH2 0x3AB SWAP1 PUSH2 0x18A0 JUMP JUMPDEST PUSH1 0x40 MLOAD DUP1 SWAP2 SUB SWAP1 REVERT JUMPDEST PUSH1 0x5 DUP2 SWAP1 DUP1 PUSH1 0x1 DUP2 SLOAD ADD DUP1 DUP3 SSTORE DUP1 SWAP2 POP POP PUSH1 0x1 SWAP1 SUB SWAP1 PUSH1 0x0 MSTORE PUSH1 0x20 PUSH1 0x0 KECCAK256 SWAP1 PUSH1 0x2 MUL ADD PUSH1 0x0 SWAP1 SWAP2 SWAP1 SWAP2 SWAP1 SWAP2 POP PUSH1 0x0 DUP3 ADD MLOAD DUP2 PUSH1 0x0 ADD SSTORE PUSH1 0x20 DUP3 ADD MLOAD DUP2 PUSH1 0x1 ADD SWAP1 DUP1 MLOAD SWAP1 PUSH1 0x20 ADD SWAP1 PUSH2 0x406 SWAP3 SWAP2 SWAP1 PUSH2 0xD79 JUMP JUMPDEST POP POP POP PUSH1 0xC PUSH1 0x1 SWAP1 SLOAD SWAP1 PUSH2 0x100 EXP SWAP1 DIV PUSH20 0xFFFFFFFFFFFFFFFFFFFFFFFFFFFFFFFFFFFFFFFF AND PUSH20 0xFFFFFFFFFFFFFFFFFFFFFFFFFFFFFFFFFFFFFFFF AND PUSH4 0xE844D097 DUP3 PUSH1 0x0 ADD MLOAD PUSH1 0x40 MLOAD DUP3 PUSH4 0xFFFFFFFF AND PUSH1 0xE0 SHL DUP2 MSTORE PUSH1 0x4 ADD PUSH2 0x468 SWAP2 SWAP1 PUSH2 0x1107 JUMP JUMPDEST PUSH1 0x0 PUSH1 0x40 MLOAD DUP1 DUP4 SUB DUP2 PUSH1 0x0 DUP8 DUP1 EXTCODESIZE ISZERO DUP1 ISZERO PUSH2 0x482 JUMPI PUSH1 0x0 DUP1 REVERT JUMPDEST POP GAS CALL ISZERO DUP1 ISZERO PUSH2 0x496 JUMPI RETURNDATASIZE PUSH1 0x0 DUP1 RETURNDATACOPY RETURNDATASIZE PUSH1 0x0 REVERT JUMPDEST POP POP POP POP DUP1 PUSH1 0x9 PUSH1 0x0 DUP4 PUSH1 0x0 ADD MLOAD DUP2 MSTORE PUSH1 0x20 ADD SWAP1 DUP2 MSTORE PUSH1 0x20 ADD PUSH1 0x0 KECCAK256 PUSH1 0x0 DUP3 ADD MLOAD DUP2 PUSH1 0x0 ADD SSTORE PUSH1 0x20 DUP3 ADD MLOAD DUP2 PUSH1 0x1 ADD SWAP1 DUP1 MLOAD SWAP1 PUSH1 0x20 ADD SWAP1 PUSH2 0x4D8 SWAP3 SWAP2 SWAP1 PUSH2 0xD79 JUMP JUMPDEST POP SWAP1 POP POP PUSH1 0x7 DUP2 PUSH1 0x0 ADD MLOAD SWAP1 DUP1 PUSH1 0x1 DUP2 SLOAD ADD DUP1 DUP3 SSTORE DUP1 SWAP2 POP POP PUSH1 0x1 SWAP1 SUB SWAP1 PUSH1 0x0 MSTORE PUSH1 0x20 PUSH1 0x0 KECCAK256 ADD PUSH1 0x0 SWAP1 SWAP2 SWAP1 SWAP2 SWAP1 SWAP2 POP SSTORE PUSH32 0x1C2B84ECCBB3B596139DB436612C5EE0C320CD95FDFA80251A91EB699E75B801 ADDRESS PUSH1 0xC PUSH1 0x1 SWAP1 SLOAD SWAP1 PUSH2 0x100 EXP SWAP1 DIV PUSH20 0xFFFFFFFFFFFFFFFFFFFFFFFFFFFFFFFFFFFFFFFF AND DUP4 PUSH1 0x40 MLOAD PUSH2 0x55E SWAP4 SWAP3 SWAP2 SWAP1 PUSH2 0x190C JUMP JUMPDEST PUSH1 0x40 MLOAD DUP1 SWAP2 SUB SWAP1 LOG1 POP JUMP JUMPDEST PUSH1 0xC PUSH1 0x1 SWAP1 SLOAD SWAP1 PUSH2 0x100 EXP SWAP1 DIV PUSH20 0xFFFFFFFFFFFFFFFFFFFFFFFFFFFFFFFFFFFFFFFF AND PUSH20 0xFFFFFFFFFFFFFFFFFFFFFFFFFFFFFFFFFFFFFFFF AND PUSH4 0x2A4A1B73 DUP5 DUP5 DUP5 PUSH1 0x40 MLOAD DUP5 PUSH4 0xFFFFFFFF AND PUSH1 0xE0 SHL DUP2 MSTORE PUSH1 0x4 ADD PUSH2 0x5C8 SWAP4 SWAP3 SWAP2 SWAP1 PUSH2 0x194A JUMP JUMPDEST PUSH1 0x0 PUSH1 0x40 MLOAD DUP1 DUP4 SUB DUP2 PUSH1 0x0 DUP8 DUP1 EXTCODESIZE ISZERO DUP1 ISZERO PUSH2 0x5E2 JUMPI PUSH1 0x0 DUP1 REVERT JUMPDEST POP GAS CALL ISZERO DUP1 ISZERO PUSH2 0x5F6 JUMPI RETURNDATASIZE PUSH1 0x0 DUP1 RETURNDATACOPY RETURNDATASIZE PUSH1 0x0 REVERT JUMPDEST POP POP POP POP PUSH1 0xB PUSH1 0x0 DUP2 SLOAD DUP1 SWAP3 SWAP2 SWAP1 PUSH2 0x60D SWAP1 PUSH2 0x19B0 JUMP JUMPDEST SWAP2 SWAP1 POP SSTORE POP PUSH32 0x89116E9980FB92D511E6FB40F617F5CF0B58CF040EA472DF506ADD052418021A PUSH1 0xC PUSH1 0x1 SWAP1 SLOAD SWAP1 PUSH2 0x100 EXP SWAP1 DIV PUSH20 0xFFFFFFFFFFFFFFFFFFFFFFFFFFFFFFFFFFFFFFFF AND PUSH1 0x9 PUSH1 0x0 DUP6 DUP2 MSTORE PUSH1 0x20 ADD SWAP1 DUP2 MSTORE PUSH1 0x20 ADD PUSH1 0x0 KECCAK256 DUP4 PUSH1 0x40 MLOAD PUSH2 0x679 SWAP4 SWAP3 SWAP2 SWAP1 PUSH2 0x1B08 JUMP JUMPDEST PUSH1 0x40 MLOAD DUP1 SWAP2 SUB SWAP1 LOG1 POP POP POP JUMP JUMPDEST PUSH1 0xD PUSH1 0x0 SWAP1 SLOAD SWAP1 PUSH2 0x100 EXP SWAP1 DIV PUSH20 0xFFFFFFFFFFFFFFFFFFFFFFFFFFFFFFFFFFFFFFFF AND DUP2 JUMP JUMPDEST PUSH1 0x0 DUP1 PUSH1 0x3 ADD SLOAD TIMESTAMP LT ISZERO PUSH2 0x6C3 JUMPI PUSH1 0x1 SWAP1 POP PUSH2 0x6DE JUMP JUMPDEST PUSH1 0x0 PUSH1 0x4 ADD SLOAD TIMESTAMP LT ISZERO PUSH2 0x6D9 JUMPI PUSH1 0x0 SWAP1 POP PUSH2 0x6DE JUMP JUMPDEST PUSH1 0x2 SWAP1 POP JUMPDEST SWAP1 JUMP JUMPDEST PUSH1 0x0 PUSH1 0xC PUSH1 0x1 SWAP1 SLOAD SWAP1 PUSH2 0x100 EXP SWAP1 DIV PUSH20 0xFFFFFFFFFFFFFFFFFFFFFFFFFFFFFFFFFFFFFFFF AND PUSH20 0xFFFFFFFFFFFFFFFFFFFFFFFFFFFFFFFFFFFFFFFF AND PUSH4 0x521B0DCC DUP4 PUSH1 0x40 MLOAD DUP3 PUSH4 0xFFFFFFFF AND PUSH1 0xE0 SHL DUP2 MSTORE PUSH1 0x4 ADD PUSH2 0x73E SWAP2 SWAP1 PUSH2 0x1B46 JUMP JUMPDEST PUSH1 0x20 PUSH1 0x40 MLOAD DUP1 DUP4 SUB DUP2 DUP7 GAS STATICCALL ISZERO DUP1 ISZERO PUSH2 0x75B JUMPI RETURNDATASIZE PUSH1 0x0 DUP1 RETURNDATACOPY RETURNDATASIZE PUSH1 0x0 REVERT JUMPDEST POP POP POP POP PUSH1 0x40 MLOAD RETURNDATASIZE PUSH1 0x1F NOT PUSH1 0x1F DUP3 ADD AND DUP3 ADD DUP1 PUSH1 0x40 MSTORE POP DUP2 ADD SWAP1 PUSH2 0x77F SWAP2 SWAP1 PUSH2 0x1B8D JUMP JUMPDEST SWAP1 POP SWAP2 SWAP1 POP JUMP JUMPDEST PUSH1 0x0 DUP1 PUSH1 0x0 ADD SLOAD SWAP1 DUP1 PUSH1 0x1 ADD DUP1 SLOAD PUSH2 0x79D SWAP1 PUSH2 0x17FC JUMP JUMPDEST DUP1 PUSH1 0x1F ADD PUSH1 0x20 DUP1 SWAP2 DIV MUL PUSH1 0x20 ADD PUSH1 0x40 MLOAD SWAP1 DUP2 ADD PUSH1 0x40 MSTORE DUP1 SWAP3 SWAP2 SWAP1 DUP2 DUP2 MSTORE PUSH1 0x20 ADD DUP3 DUP1 SLOAD PUSH2 0x7C9 SWAP1 PUSH2 0x17FC JUMP JUMPDEST DUP1 ISZERO PUSH2 0x816 JUMPI DUP1 PUSH1 0x1F LT PUSH2 0x7EB JUMPI PUSH2 0x100 DUP1 DUP4 SLOAD DIV MUL DUP4 MSTORE SWAP2 PUSH1 0x20 ADD SWAP2 PUSH2 0x816 JUMP JUMPDEST DUP3 ADD SWAP2 SWAP1 PUSH1 0x0 MSTORE PUSH1 0x20 PUSH1 0x0 KECCAK256 SWAP1 JUMPDEST DUP2 SLOAD DUP2 MSTORE SWAP1 PUSH1 0x1 ADD SWAP1 PUSH1 0x20 ADD DUP1 DUP4 GT PUSH2 0x7F9 JUMPI DUP3 SWAP1 SUB PUSH1 0x1F AND DUP3 ADD SWAP2 JUMPDEST POP POP POP POP POP SWAP1 DUP1 PUSH1 0x2 ADD DUP1 SLOAD PUSH2 0x82B SWAP1 PUSH2 0x17FC JUMP JUMPDEST DUP1 PUSH1 0x1F ADD PUSH1 0x20 DUP1 SWAP2 DIV MUL PUSH1 0x20 ADD PUSH1 0x40 MLOAD SWAP1 DUP2 ADD PUSH1 0x40 MSTORE DUP1 SWAP3 SWAP2 SWAP1 DUP2 DUP2 MSTORE PUSH1 0x20 ADD DUP3 DUP1 SLOAD PUSH2 0x857 SWAP1 PUSH2 0x17FC JUMP JUMPDEST DUP1 ISZERO PUSH2 0x8A4 JUMPI DUP1 PUSH1 0x1F LT PUSH2 0x879 JUMPI PUSH2 0x100 DUP1 DUP4 SLOAD DIV MUL DUP4 MSTORE SWAP2 PUSH1 0x20 ADD SWAP2 PUSH2 0x8A4 JUMP JUMPDEST DUP3 ADD SWAP2 SWAP1 PUSH1 0x0 MSTORE PUSH1 0x20 PUSH1 0x0 KECCAK256 SWAP1 JUMPDEST DUP2 SLOAD DUP2 MSTORE SWAP1 PUSH1 0x1 ADD SWAP1 PUSH1 0x20 ADD DUP1 DUP4 GT PUSH2 0x887 JUMPI DUP3 SWAP1 SUB PUSH1 0x1F AND DUP3 ADD SWAP2 JUMPDEST POP POP POP POP POP SWAP1 DUP1 PUSH1 0x3 ADD SLOAD SWAP1 DUP1 PUSH1 0x4 ADD SLOAD SWAP1 POP DUP6 JUMP JUMPDEST PUSH2 0x8C2 PUSH2 0xDFF JUMP JUMPDEST PUSH1 0x0 PUSH1 0x40 MLOAD DUP1 PUSH1 0xA0 ADD PUSH1 0x40 MSTORE SWAP1 DUP2 PUSH1 0x0 DUP3 ADD SLOAD DUP2 MSTORE PUSH1 0x20 ADD PUSH1 0x1 DUP3 ADD DUP1 SLOAD PUSH2 0x8E9 SWAP1 PUSH2 0x17FC JUMP JUMPDEST DUP1 PUSH1 0x1F ADD PUSH1 0x20 DUP1 SWAP2 DIV MUL PUSH1 0x20 ADD PUSH1 0x40 MLOAD SWAP1 DUP2 ADD PUSH1 0x40 MSTORE DUP1 SWAP3 SWAP2 SWAP1 DUP2 DUP2 MSTORE PUSH1 0x20 ADD DUP3 DUP1 SLOAD PUSH2 0x915 SWAP1 PUSH2 0x17FC JUMP JUMPDEST DUP1 ISZERO PUSH2 0x962 JUMPI DUP1 PUSH1 0x1F LT PUSH2 0x937 JUMPI PUSH2 0x100 DUP1 DUP4 SLOAD DIV MUL DUP4 MSTORE SWAP2 PUSH1 0x20 ADD SWAP2 PUSH2 0x962 JUMP JUMPDEST DUP3 ADD SWAP2 SWAP1 PUSH1 0x0 MSTORE PUSH1 0x20 PUSH1 0x0 KECCAK256 SWAP1 JUMPDEST DUP2 SLOAD DUP2 MSTORE SWAP1 PUSH1 0x1 ADD SWAP1 PUSH1 0x20 ADD DUP1 DUP4 GT PUSH2 0x945 JUMPI DUP3 SWAP1 SUB PUSH1 0x1F AND DUP3 ADD SWAP2 JUMPDEST POP POP POP POP POP DUP2 MSTORE PUSH1 0x20 ADD PUSH1 0x2 DUP3 ADD DUP1 SLOAD PUSH2 0x97B SWAP1 PUSH2 0x17FC JUMP JUMPDEST DUP1 PUSH1 0x1F ADD PUSH1 0x20 DUP1 SWAP2 DIV MUL PUSH1 0x20 ADD PUSH1 0x40 MLOAD SWAP1 DUP2 ADD PUSH1 0x40 MSTORE DUP1 SWAP3 SWAP2 SWAP1 DUP2 DUP2 MSTORE PUSH1 0x20 ADD DUP3 DUP1 SLOAD PUSH2 0x9A7 SWAP1 PUSH2 0x17FC JUMP JUMPDEST DUP1 ISZERO PUSH2 0x9F4 JUMPI DUP1 PUSH1 0x1F LT PUSH2 0x9C9 JUMPI PUSH2 0x100 DUP1 DUP4 SLOAD DIV MUL DUP4 MSTORE SWAP2 PUSH1 0x20 ADD SWAP2 PUSH2 0x9F4 JUMP JUMPDEST DUP3 ADD SWAP2 SWAP1 PUSH1 0x0 MSTORE PUSH1 0x20 PUSH1 0x0 KECCAK256 SWAP1 JUMPDEST DUP2 SLOAD DUP2 MSTORE SWAP1 PUSH1 0x1 ADD SWAP1 PUSH1 0x20 ADD DUP1 DUP4 GT PUSH2 0x9D7 JUMPI DUP3 SWAP1 SUB PUSH1 0x1F AND DUP3 ADD SWAP2 JUMPDEST POP POP POP POP POP DUP2 MSTORE PUSH1 0x20 ADD PUSH1 0x3 DUP3 ADD SLOAD DUP2 MSTORE PUSH1 0x20 ADD PUSH1 0x4 DUP3 ADD SLOAD DUP2 MSTORE POP POP SWAP1 POP SWAP1 JUMP JUMPDEST PUSH1 0xC PUSH1 0x1 SWAP1 SLOAD SWAP1 PUSH2 0x100 EXP SWAP1 DIV PUSH20 0xFFFFFFFFFFFFFFFFFFFFFFFFFFFFFFFFFFFFFFFF AND DUP2 JUMP JUMPDEST PUSH1 0xA PUSH1 0x0 SWAP1 SLOAD SWAP1 PUSH2 0x100 EXP SWAP1 DIV PUSH20 0xFFFFFFFFFFFFFFFFFFFFFFFFFFFFFFFFFFFFFFFF AND PUSH20 0xFFFFFFFFFFFFFFFFFFFFFFFFFFFFFFFFFFFFFFFF AND CALLER PUSH20 0xFFFFFFFFFFFFFFFFFFFFFFFFFFFFFFFFFFFFFFFF AND EQ PUSH2 0xACC JUMPI PUSH1 0x40 MLOAD PUSH32 0x8C379A000000000000000000000000000000000000000000000000000000000 DUP2 MSTORE PUSH1 0x4 ADD PUSH2 0xAC3 SWAP1 PUSH2 0x18A0 JUMP JUMPDEST PUSH1 0x40 MLOAD DUP1 SWAP2 SUB SWAP1 REVERT JUMPDEST PUSH1 0xD PUSH1 0x0 SWAP1 SLOAD SWAP1 PUSH2 0x100 EXP SWAP1 DIV PUSH20 0xFFFFFFFFFFFFFFFFFFFFFFFFFFFFFFFFFFFFFFFF AND PUSH20 0xFFFFFFFFFFFFFFFFFFFFFFFFFFFFFFFFFFFFFFFF AND PUSH4 0xC8344A20 PUSH1 0xC PUSH1 0x1 SWAP1 SLOAD SWAP1 PUSH2 0x100 EXP SWAP1 DIV PUSH20 0xFFFFFFFFFFFFFFFFFFFFFFFFFFFFFFFFFFFFFFFF AND PUSH1 0xB SLOAD PUSH1 0x40 MLOAD DUP4 PUSH4 0xFFFFFFFF AND PUSH1 0xE0 SHL DUP2 MSTORE PUSH1 0x4 ADD PUSH2 0xB4D SWAP3 SWAP2 SWAP1 PUSH2 0x1BBA JUMP JUMPDEST PUSH1 0x0 PUSH1 0x40 MLOAD DUP1 DUP4 SUB DUP2 PUSH1 0x0 DUP8 GAS CALL ISZERO DUP1 ISZERO PUSH2 0xB6C JUMPI RETURNDATASIZE PUSH1 0x0 DUP1 RETURNDATACOPY RETURNDATASIZE PUSH1 0x0 REVERT JUMPDEST POP POP POP POP PUSH1 0x40 MLOAD RETURNDATASIZE PUSH1 0x0 DUP3 RETURNDATACOPY RETURNDATASIZE PUSH1 0x1F NOT PUSH1 0x1F DUP3 ADD AND DUP3 ADD DUP1 PUSH1 0x40 MSTORE POP DUP2 ADD SWAP1 PUSH2 0xB95 SWAP2 SWAP1 PUSH2 0x1CC0 JUMP JUMPDEST PUSH1 0x8 SWAP1 DUP1 MLOAD SWAP1 PUSH1 0x20 ADD SWAP1 PUSH2 0xBAA SWAP3 SWAP2 SWAP1 PUSH2 0xE2E JUMP JUMPDEST POP PUSH1 0x0 JUMPDEST PUSH1 0x5 DUP1 SLOAD SWAP1 POP DUP2 LT ISZERO PUSH2 0xC56 JUMPI PUSH1 0x6 PUSH1 0x9 PUSH1 0x0 PUSH1 0x8 DUP5 DUP2 SLOAD DUP2 LT PUSH2 0xBD5 JUMPI PUSH2 0xBD4 PUSH2 0x1D09 JUMP JUMPDEST JUMPDEST SWAP1 PUSH1 0x0 MSTORE PUSH1 0x20 PUSH1 0x0 KECCAK256 ADD SLOAD DUP2 MSTORE PUSH1 0x20 ADD SWAP1 DUP2 MSTORE PUSH1 0x20 ADD PUSH1 0x0 KECCAK256 SWAP1 DUP1 PUSH1 0x1 DUP2 SLOAD ADD DUP1 DUP3 SSTORE DUP1 SWAP2 POP POP PUSH1 0x1 SWAP1 SUB SWAP1 PUSH1 0x0 MSTORE PUSH1 0x20 PUSH1 0x0 KECCAK256 SWAP1 PUSH1 0x2 MUL ADD PUSH1 0x0 SWAP1 SWAP2 SWAP1 SWAP2 SWAP1 SWAP2 POP PUSH1 0x0 DUP3 ADD SLOAD DUP2 PUSH1 0x0 ADD SSTORE PUSH1 0x1 DUP3 ADD DUP2 PUSH1 0x1 ADD SWAP1 DUP1 SLOAD PUSH2 0xC35 SWAP1 PUSH2 0x17FC JUMP JUMPDEST PUSH2 0xC40 SWAP3 SWAP2 SWAP1 PUSH2 0xE7B JUMP JUMPDEST POP POP POP DUP1 DUP1 PUSH2 0xC4E SWAP1 PUSH2 0x19B0 JUMP JUMPDEST SWAP2 POP POP PUSH2 0xBAE JUMP JUMPDEST POP PUSH32 0xDD4046340A3EBF10DBE18F1FBBF3AE91016308DB118938CAFCC3557AE4FF78AD PUSH1 0x6 PUSH1 0x40 MLOAD PUSH2 0xC87 SWAP2 SWAP1 PUSH2 0x1E36 JUMP JUMPDEST PUSH1 0x40 MLOAD DUP1 SWAP2 SUB SWAP1 LOG1 JUMP JUMPDEST PUSH1 0x60 PUSH1 0xA PUSH1 0x0 SWAP1 SLOAD SWAP1 PUSH2 0x100 EXP SWAP1 DIV PUSH20 0xFFFFFFFFFFFFFFFFFFFFFFFFFFFFFFFFFFFFFFFF AND PUSH20 0xFFFFFFFFFFFFFFFFFFFFFFFFFFFFFFFFFFFFFFFF AND CALLER PUSH20 0xFFFFFFFFFFFFFFFFFFFFFFFFFFFFFFFFFFFFFFFF AND EQ PUSH2 0xD23 JUMPI PUSH1 0x40 MLOAD PUSH32 0x8C379A000000000000000000000000000000000000000000000000000000000 DUP2 MSTORE PUSH1 0x4 ADD PUSH2 0xD1A SWAP1 PUSH2 0x18A0 JUMP JUMPDEST PUSH1 0x40 MLOAD DUP1 SWAP2 SUB SWAP1 REVERT JUMPDEST PUSH1 0x8 DUP1 SLOAD DUP1 PUSH1 0x20 MUL PUSH1 0x20 ADD PUSH1 0x40 MLOAD SWAP1 DUP2 ADD PUSH1 0x40 MSTORE DUP1 SWAP3 SWAP2 SWAP1 DUP2 DUP2 MSTORE PUSH1 0x20 ADD DUP3 DUP1 SLOAD DUP1 ISZERO PUSH2 0xD6F JUMPI PUSH1 0x20 MUL DUP3 ADD SWAP2 SWAP1 PUSH1 0x0 MSTORE PUSH1 0x20 PUSH1 0x0 KECCAK256 SWAP1 JUMPDEST DUP2 SLOAD DUP2 MSTORE PUSH1 0x20 ADD SWAP1 PUSH1 0x1 ADD SWAP1 DUP1 DUP4 GT PUSH2 0xD5B JUMPI JUMPDEST POP POP POP POP POP SWAP1 POP SWAP1 JUMP JUMPDEST DUP3 DUP1 SLOAD PUSH2 0xD85 SWAP1 PUSH2 0x17FC JUMP JUMPDEST SWAP1 PUSH1 0x0 MSTORE PUSH1 0x20 PUSH1 0x0 KECCAK256 SWAP1 PUSH1 0x1F ADD PUSH1 0x20 SWAP1 DIV DUP2 ADD SWAP3 DUP3 PUSH2 0xDA7 JUMPI PUSH1 0x0 DUP6 SSTORE PUSH2 0xDEE JUMP JUMPDEST DUP3 PUSH1 0x1F LT PUSH2 0xDC0 JUMPI DUP1 MLOAD PUSH1 0xFF NOT AND DUP4 DUP1 ADD OR DUP6 SSTORE PUSH2 0xDEE JUMP JUMPDEST DUP3 DUP1 ADD PUSH1 0x1 ADD DUP6 SSTORE DUP3 ISZERO PUSH2 0xDEE JUMPI SWAP2 DUP3 ADD JUMPDEST DUP3 DUP2 GT ISZERO PUSH2 0xDED JUMPI DUP3 MLOAD DUP3 SSTORE SWAP2 PUSH1 0x20 ADD SWAP2 SWAP1 PUSH1 0x1 ADD SWAP1 PUSH2 0xDD2 JUMP JUMPDEST JUMPDEST POP SWAP1 POP PUSH2 0xDFB SWAP2 SWAP1 PUSH2 0xF08 JUMP JUMPDEST POP SWAP1 JUMP JUMPDEST PUSH1 0x40 MLOAD DUP1 PUSH1 0xA0 ADD PUSH1 0x40 MSTORE DUP1 PUSH1 0x0 DUP2 MSTORE PUSH1 0x20 ADD PUSH1 0x60 DUP2 MSTORE PUSH1 0x20 ADD PUSH1 0x60 DUP2 MSTORE PUSH1 0x20 ADD PUSH1 0x0 DUP2 MSTORE PUSH1 0x20 ADD PUSH1 0x0 DUP2 MSTORE POP SWAP1 JUMP JUMPDEST DUP3 DUP1 SLOAD DUP3 DUP3 SSTORE SWAP1 PUSH1 0x0 MSTORE PUSH1 0x20 PUSH1 0x0 KECCAK256 SWAP1 DUP2 ADD SWAP3 DUP3 ISZERO PUSH2 0xE6A JUMPI SWAP2 PUSH1 0x20 MUL DUP3 ADD JUMPDEST DUP3 DUP2 GT ISZERO PUSH2 0xE69 JUMPI DUP3 MLOAD DUP3 SSTORE SWAP2 PUSH1 0x20 ADD SWAP2 SWAP1 PUSH1 0x1 ADD SWAP1 PUSH2 0xE4E JUMP JUMPDEST JUMPDEST POP SWAP1 POP PUSH2 0xE77 SWAP2 SWAP1 PUSH2 0xF08 JUMP JUMPDEST POP SWAP1 JUMP JUMPDEST DUP3 DUP1 SLOAD PUSH2 0xE87 SWAP1 PUSH2 0x17FC JUMP JUMPDEST SWAP1 PUSH1 0x0 MSTORE PUSH1 0x20 PUSH1 0x0 KECCAK256 SWAP1 PUSH1 0x1F ADD PUSH1 0x20 SWAP1 DIV DUP2 ADD SWAP3 DUP3 PUSH2 0xEA9 JUMPI PUSH1 0x0 DUP6 SSTORE PUSH2 0xEF7 JUMP JUMPDEST DUP3 PUSH1 0x1F LT PUSH2 0xEBA JUMPI DUP1 SLOAD DUP6 SSTORE PUSH2 0xEF7 JUMP JUMPDEST DUP3 DUP1 ADD PUSH1 0x1 ADD DUP6 SSTORE DUP3 ISZERO PUSH2 0xEF7 JUMPI PUSH1 0x0 MSTORE PUSH1 0x20 PUSH1 0x0 KECCAK256 SWAP2 PUSH1 0x1F ADD PUSH1 0x20 SWAP1 DIV DUP3 ADD JUMPDEST DUP3 DUP2 GT ISZERO PUSH2 0xEF6 JUMPI DUP3 SLOAD DUP3 SSTORE SWAP2 PUSH1 0x1 ADD SWAP2 SWAP1 PUSH1 0x1 ADD SWAP1 PUSH2 0xEDB JUMP JUMPDEST JUMPDEST POP SWAP1 POP PUSH2 0xF04 SWAP2 SWAP1 PUSH2 0xF08 JUMP JUMPDEST POP SWAP1 JUMP JUMPDEST JUMPDEST DUP1 DUP3 GT ISZERO PUSH2 0xF21 JUMPI PUSH1 0x0 DUP2 PUSH1 0x0 SWAP1 SSTORE POP PUSH1 0x1 ADD PUSH2 0xF09 JUMP JUMPDEST POP SWAP1 JUMP JUMPDEST PUSH1 0x0 DUP2 MLOAD SWAP1 POP SWAP2 SWAP1 POP JUMP JUMPDEST PUSH1 0x0 DUP3 DUP3 MSTORE PUSH1 0x20 DUP3 ADD SWAP1 POP SWAP3 SWAP2 POP POP JUMP JUMPDEST PUSH1 0x0 DUP2 SWAP1 POP PUSH1 0x20 DUP3 ADD SWAP1 POP SWAP2 SWAP1 POP JUMP JUMPDEST PUSH1 0x0 DUP2 SWAP1 POP SWAP2 SWAP1 POP JUMP JUMPDEST PUSH2 0xF64 DUP2 PUSH2 0xF51 JUMP JUMPDEST DUP3 MSTORE POP POP JUMP JUMPDEST PUSH1 0x0 DUP2 MLOAD SWAP1 POP SWAP2 SWAP1 POP JUMP JUMPDEST PUSH1 0x0 DUP3 DUP3 MSTORE PUSH1 0x20 DUP3 ADD SWAP1 POP SWAP3 SWAP2 POP POP JUMP JUMPDEST PUSH1 0x0 JUMPDEST DUP4 DUP2 LT ISZERO PUSH2 0xFA4 JUMPI DUP1 DUP3 ADD MLOAD DUP2 DUP5 ADD MSTORE PUSH1 0x20 DUP2 ADD SWAP1 POP PUSH2 0xF89 JUMP JUMPDEST DUP4 DUP2 GT ISZERO PUSH2 0xFB3 JUMPI PUSH1 0x0 DUP5 DUP5 ADD MSTORE JUMPDEST POP POP POP POP JUMP JUMPDEST PUSH1 0x0 PUSH1 0x1F NOT PUSH1 0x1F DUP4 ADD AND SWAP1 POP SWAP2 SWAP1 POP JUMP JUMPDEST PUSH1 0x0 PUSH2 0xFD5 DUP3 PUSH2 0xF6A JUMP JUMPDEST PUSH2 0xFDF DUP2 DUP6 PUSH2 0xF75 JUMP JUMPDEST SWAP4 POP PUSH2 0xFEF DUP2 DUP6 PUSH1 0x20 DUP7 ADD PUSH2 0xF86 JUMP JUMPDEST PUSH2 0xFF8 DUP2 PUSH2 0xFB9 JUMP JUMPDEST DUP5 ADD SWAP2 POP POP SWAP3 SWAP2 POP POP JUMP JUMPDEST PUSH1 0x0 PUSH1 0x40 DUP4 ADD PUSH1 0x0 DUP4 ADD MLOAD PUSH2 0x101B PUSH1 0x0 DUP7 ADD DUP3 PUSH2 0xF5B JUMP JUMPDEST POP PUSH1 0x20 DUP4 ADD MLOAD DUP5 DUP3 SUB PUSH1 0x20 DUP7 ADD MSTORE PUSH2 0x1033 DUP3 DUP3 PUSH2 0xFCA JUMP JUMPDEST SWAP2 POP POP DUP1 SWAP2 POP POP SWAP3 SWAP2 POP POP JUMP JUMPDEST PUSH1 0x0 PUSH2 0x104C DUP4 DUP4 PUSH2 0x1003 JUMP JUMPDEST SWAP1 POP SWAP3 SWAP2 POP POP JUMP JUMPDEST PUSH1 0x0 PUSH1 0x20 DUP3 ADD SWAP1 POP SWAP2 SWAP1 POP JUMP JUMPDEST PUSH1 0x0 PUSH2 0x106C DUP3 PUSH2 0xF25 JUMP JUMPDEST PUSH2 0x1076 DUP2 DUP6 PUSH2 0xF30 JUMP JUMPDEST SWAP4 POP DUP4 PUSH1 0x20 DUP3 MUL DUP6 ADD PUSH2 0x1088 DUP6 PUSH2 0xF41 JUMP JUMPDEST DUP1 PUSH1 0x0 JUMPDEST DUP6 DUP2 LT ISZERO PUSH2 0x10C4 JUMPI DUP5 DUP5 SUB DUP10 MSTORE DUP2 MLOAD PUSH2 0x10A5 DUP6 DUP3 PUSH2 0x1040 JUMP JUMPDEST SWAP5 POP PUSH2 0x10B0 DUP4 PUSH2 0x1054 JUMP JUMPDEST SWAP3 POP PUSH1 0x20 DUP11 ADD SWAP10 POP POP PUSH1 0x1 DUP2 ADD SWAP1 POP PUSH2 0x108C JUMP JUMPDEST POP DUP3 SWAP8 POP DUP8 SWAP6 POP POP POP POP POP POP SWAP3 SWAP2 POP POP JUMP JUMPDEST PUSH1 0x0 PUSH1 0x20 DUP3 ADD SWAP1 POP DUP2 DUP2 SUB PUSH1 0x0 DUP4 ADD MSTORE PUSH2 0x10F0 DUP2 DUP5 PUSH2 0x1061 JUMP JUMPDEST SWAP1 POP SWAP3 SWAP2 POP POP JUMP JUMPDEST PUSH2 0x1101 DUP2 PUSH2 0xF51 JUMP JUMPDEST DUP3 MSTORE POP POP JUMP JUMPDEST PUSH1 0x0 PUSH1 0x20 DUP3 ADD SWAP1 POP PUSH2 0x111C PUSH1 0x0 DUP4 ADD DUP5 PUSH2 0x10F8 JUMP JUMPDEST SWAP3 SWAP2 POP POP JUMP JUMPDEST PUSH1 0x0 PUSH1 0x40 MLOAD SWAP1 POP SWAP1 JUMP JUMPDEST PUSH1 0x0 DUP1 REVERT JUMPDEST PUSH1 0x0 DUP1 REVERT JUMPDEST PUSH1 0x0 DUP1 REVERT JUMPDEST PUSH32 0x4E487B7100000000000000000000000000000000000000000000000000000000 PUSH1 0x0 MSTORE PUSH1 0x41 PUSH1 0x4 MSTORE PUSH1 0x24 PUSH1 0x0 REVERT JUMPDEST PUSH2 0x1173 DUP3 PUSH2 0xFB9 JUMP JUMPDEST DUP2 ADD DUP2 DUP2 LT PUSH8 0xFFFFFFFFFFFFFFFF DUP3 GT OR ISZERO PUSH2 0x1192 JUMPI PUSH2 0x1191 PUSH2 0x113B JUMP JUMPDEST JUMPDEST DUP1 PUSH1 0x40 MSTORE POP POP POP JUMP JUMPDEST PUSH1 0x0 PUSH2 0x11A5 PUSH2 0x1122 JUMP JUMPDEST SWAP1 POP PUSH2 0x11B1 DUP3 DUP3 PUSH2 0x116A JUMP JUMPDEST SWAP2 SWAP1 POP JUMP JUMPDEST PUSH1 0x0 DUP1 REVERT JUMPDEST PUSH2 0x11C4 DUP2 PUSH2 0xF51 JUMP JUMPDEST DUP2 EQ PUSH2 0x11CF JUMPI PUSH1 0x0 DUP1 REVERT JUMPDEST POP JUMP JUMPDEST PUSH1 0x0 DUP2 CALLDATALOAD SWAP1 POP PUSH2 0x11E1 DUP2 PUSH2 0x11BB JUMP JUMPDEST SWAP3 SWAP2 POP POP JUMP JUMPDEST PUSH1 0x0 DUP1 REVERT JUMPDEST PUSH1 0x0 DUP1 REVERT JUMPDEST PUSH1 0x0 PUSH8 0xFFFFFFFFFFFFFFFF DUP3 GT ISZERO PUSH2 0x120C JUMPI PUSH2 0x120B PUSH2 0x113B JUMP JUMPDEST JUMPDEST PUSH2 0x1215 DUP3 PUSH2 0xFB9 JUMP JUMPDEST SWAP1 POP PUSH1 0x20 DUP2 ADD SWAP1 POP SWAP2 SWAP1 POP JUMP JUMPDEST DUP3 DUP2 DUP4 CALLDATACOPY PUSH1 0x0 DUP4 DUP4 ADD MSTORE POP POP POP JUMP JUMPDEST PUSH1 0x0 PUSH2 0x1244 PUSH2 0x123F DUP5 PUSH2 0x11F1 JUMP JUMPDEST PUSH2 0x119B JUMP JUMPDEST SWAP1 POP DUP3 DUP2 MSTORE PUSH1 0x20 DUP2 ADD DUP5 DUP5 DUP5 ADD GT ISZERO PUSH2 0x1260 JUMPI PUSH2 0x125F PUSH2 0x11EC JUMP JUMPDEST JUMPDEST PUSH2 0x126B DUP5 DUP3 DUP6 PUSH2 0x1222 JUMP JUMPDEST POP SWAP4 SWAP3 POP POP POP JUMP JUMPDEST PUSH1 0x0 DUP3 PUSH1 0x1F DUP4 ADD SLT PUSH2 0x1288 JUMPI PUSH2 0x1287 PUSH2 0x11E7 JUMP JUMPDEST JUMPDEST DUP2 CALLDATALOAD PUSH2 0x1298 DUP5 DUP3 PUSH1 0x20 DUP7 ADD PUSH2 0x1231 JUMP JUMPDEST SWAP2 POP POP SWAP3 SWAP2 POP POP JUMP JUMPDEST PUSH1 0x0 PUSH1 0x40 DUP3 DUP5 SUB SLT ISZERO PUSH2 0x12B7 JUMPI PUSH2 0x12B6 PUSH2 0x1136 JUMP JUMPDEST JUMPDEST PUSH2 0x12C1 PUSH1 0x40 PUSH2 0x119B JUMP JUMPDEST SWAP1 POP PUSH1 0x0 PUSH2 0x12D1 DUP5 DUP3 DUP6 ADD PUSH2 0x11D2 JUMP JUMPDEST PUSH1 0x0 DUP4 ADD MSTORE POP PUSH1 0x20 DUP3 ADD CALLDATALOAD PUSH8 0xFFFFFFFFFFFFFFFF DUP2 GT ISZERO PUSH2 0x12F5 JUMPI PUSH2 0x12F4 PUSH2 0x11B6 JUMP JUMPDEST JUMPDEST PUSH2 0x1301 DUP5 DUP3 DUP6 ADD PUSH2 0x1273 JUMP JUMPDEST PUSH1 0x20 DUP4 ADD MSTORE POP SWAP3 SWAP2 POP POP JUMP JUMPDEST PUSH1 0x0 PUSH1 0x20 DUP3 DUP5 SUB SLT ISZERO PUSH2 0x1323 JUMPI PUSH2 0x1322 PUSH2 0x112C JUMP JUMPDEST JUMPDEST PUSH1 0x0 DUP3 ADD CALLDATALOAD PUSH8 0xFFFFFFFFFFFFFFFF DUP2 GT ISZERO PUSH2 0x1341 JUMPI PUSH2 0x1340 PUSH2 0x1131 JUMP JUMPDEST JUMPDEST PUSH2 0x134D DUP5 DUP3 DUP6 ADD PUSH2 0x12A1 JUMP JUMPDEST SWAP2 POP POP SWAP3 SWAP2 POP POP JUMP JUMPDEST PUSH1 0x0 PUSH20 0xFFFFFFFFFFFFFFFFFFFFFFFFFFFFFFFFFFFFFFFF DUP3 AND SWAP1 POP SWAP2 SWAP1 POP JUMP JUMPDEST PUSH1 0x0 PUSH2 0x1381 DUP3 PUSH2 0x1356 JUMP JUMPDEST SWAP1 POP SWAP2 SWAP1 POP JUMP JUMPDEST PUSH2 0x1391 DUP2 PUSH2 0x1376 JUMP JUMPDEST DUP2 EQ PUSH2 0x139C JUMPI PUSH1 0x0 DUP1 REVERT JUMPDEST POP JUMP JUMPDEST PUSH1 0x0 DUP2 CALLDATALOAD SWAP1 POP PUSH2 0x13AE DUP2 PUSH2 0x1388 JUMP JUMPDEST SWAP3 SWAP2 POP POP JUMP JUMPDEST PUSH1 0x0 DUP1 PUSH1 0x0 PUSH1 0x60 DUP5 DUP7 SUB SLT ISZERO PUSH2 0x13CD JUMPI PUSH2 0x13CC PUSH2 0x112C JUMP JUMPDEST JUMPDEST PUSH1 0x0 PUSH2 0x13DB DUP7 DUP3 DUP8 ADD PUSH2 0x139F JUMP JUMPDEST SWAP4 POP POP PUSH1 0x20 PUSH2 0x13EC DUP7 DUP3 DUP8 ADD PUSH2 0x11D2 JUMP JUMPDEST SWAP3 POP POP PUSH1 0x40 PUSH2 0x13FD DUP7 DUP3 DUP8 ADD PUSH2 0x11D2 JUMP JUMPDEST SWAP2 POP POP SWAP3 POP SWAP3 POP SWAP3 JUMP JUMPDEST PUSH1 0x0 DUP2 SWAP1 POP SWAP2 SWAP1 POP JUMP JUMPDEST PUSH1 0x0 PUSH2 0x142C PUSH2 0x1427 PUSH2 0x1422 DUP5 PUSH2 0x1356 JUMP JUMPDEST PUSH2 0x1407 JUMP JUMPDEST PUSH2 0x1356 JUMP JUMPDEST SWAP1 POP SWAP2 SWAP1 POP JUMP JUMPDEST PUSH1 0x0 PUSH2 0x143E DUP3 PUSH2 0x1411 JUMP JUMPDEST SWAP1 POP SWAP2 SWAP1 POP JUMP JUMPDEST PUSH1 0x0 PUSH2 0x1450 DUP3 PUSH2 0x1433 JUMP JUMPDEST SWAP1 POP SWAP2 SWAP1 POP JUMP JUMPDEST PUSH2 0x1460 DUP2 PUSH2 0x1445 JUMP JUMPDEST DUP3 MSTORE POP POP JUMP JUMPDEST PUSH1 0x0 PUSH1 0x20 DUP3 ADD SWAP1 POP PUSH2 0x147B PUSH1 0x0 DUP4 ADD DUP5 PUSH2 0x1457 JUMP JUMPDEST SWAP3 SWAP2 POP POP JUMP JUMPDEST PUSH32 0x4E487B7100000000000000000000000000000000000000000000000000000000 PUSH1 0x0 MSTORE PUSH1 0x21 PUSH1 0x4 MSTORE PUSH1 0x24 PUSH1 0x0 REVERT JUMPDEST PUSH1 0x3 DUP2 LT PUSH2 0x14C1 JUMPI PUSH2 0x14C0 PUSH2 0x1481 JUMP JUMPDEST JUMPDEST POP JUMP JUMPDEST PUSH1 0x0 DUP2 SWAP1 POP PUSH2 0x14D2 DUP3 PUSH2 0x14B0 JUMP JUMPDEST SWAP2 SWAP1 POP JUMP JUMPDEST PUSH1 0x0 PUSH2 0x14E2 DUP3 PUSH2 0x14C4 JUMP JUMPDEST SWAP1 POP SWAP2 SWAP1 POP JUMP JUMPDEST PUSH2 0x14F2 DUP2 PUSH2 0x14D7 JUMP JUMPDEST DUP3 MSTORE POP POP JUMP JUMPDEST PUSH1 0x0 PUSH1 0x20 DUP3 ADD SWAP1 POP PUSH2 0x150D PUSH1 0x0 DUP4 ADD DUP5 PUSH2 0x14E9 JUMP JUMPDEST SWAP3 SWAP2 POP POP JUMP JUMPDEST PUSH1 0x0 PUSH1 0x20 DUP3 DUP5 SUB SLT ISZERO PUSH2 0x1529 JUMPI PUSH2 0x1528 PUSH2 0x112C JUMP JUMPDEST JUMPDEST PUSH1 0x0 PUSH2 0x1537 DUP5 DUP3 DUP6 ADD PUSH2 0x139F JUMP JUMPDEST SWAP2 POP POP SWAP3 SWAP2 POP POP JUMP JUMPDEST PUSH1 0x0 DUP2 ISZERO ISZERO SWAP1 POP SWAP2 SWAP1 POP JUMP JUMPDEST PUSH2 0x1555 DUP2 PUSH2 0x1540 JUMP JUMPDEST DUP3 MSTORE POP POP JUMP JUMPDEST PUSH1 0x0 PUSH1 0x20 DUP3 ADD SWAP1 POP PUSH2 0x1570 PUSH1 0x0 DUP4 ADD DUP5 PUSH2 0x154C JUMP JUMPDEST SWAP3 SWAP2 POP POP JUMP JUMPDEST PUSH1 0x0 DUP3 DUP3 MSTORE PUSH1 0x20 DUP3 ADD SWAP1 POP SWAP3 SWAP2 POP POP JUMP JUMPDEST PUSH1 0x0 PUSH2 0x1592 DUP3 PUSH2 0xF6A JUMP JUMPDEST PUSH2 0x159C DUP2 DUP6 PUSH2 0x1576 JUMP JUMPDEST SWAP4 POP PUSH2 0x15AC DUP2 DUP6 PUSH1 0x20 DUP7 ADD PUSH2 0xF86 JUMP JUMPDEST PUSH2 0x15B5 DUP2 PUSH2 0xFB9 JUMP JUMPDEST DUP5 ADD SWAP2 POP POP SWAP3 SWAP2 POP POP JUMP JUMPDEST PUSH1 0x0 PUSH1 0xA0 DUP3 ADD SWAP1 POP PUSH2 0x15D5 PUSH1 0x0 DUP4 ADD DUP9 PUSH2 0x10F8 JUMP JUMPDEST DUP2 DUP2 SUB PUSH1 0x20 DUP4 ADD MSTORE PUSH2 0x15E7 DUP2 DUP8 PUSH2 0x1587 JUMP JUMPDEST SWAP1 POP DUP2 DUP2 SUB PUSH1 0x40 DUP4 ADD MSTORE PUSH2 0x15FB DUP2 DUP7 PUSH2 0x1587 JUMP JUMPDEST SWAP1 POP PUSH2 0x160A PUSH1 0x60 DUP4 ADD DUP6 PUSH2 0x10F8 JUMP JUMPDEST PUSH2 0x1617 PUSH1 0x80 DUP4 ADD DUP5 PUSH2 0x10F8 JUMP JUMPDEST SWAP7 SWAP6 POP POP POP POP POP POP JUMP JUMPDEST PUSH1 0x0 PUSH1 0xA0 DUP4 ADD PUSH1 0x0 DUP4 ADD MLOAD PUSH2 0x1639 PUSH1 0x0 DUP7 ADD DUP3 PUSH2 0xF5B JUMP JUMPDEST POP PUSH1 0x20 DUP4 ADD MLOAD DUP5 DUP3 SUB PUSH1 0x20 DUP7 ADD MSTORE PUSH2 0x1651 DUP3 DUP3 PUSH2 0xFCA JUMP JUMPDEST SWAP2 POP POP PUSH1 0x40 DUP4 ADD MLOAD DUP5 DUP3 SUB PUSH1 0x40 DUP7 ADD MSTORE PUSH2 0x166B DUP3 DUP3 PUSH2 0xFCA JUMP JUMPDEST SWAP2 POP POP PUSH1 0x60 DUP4 ADD MLOAD PUSH2 0x1680 PUSH1 0x60 DUP7 ADD DUP3 PUSH2 0xF5B JUMP JUMPDEST POP PUSH1 0x80 DUP4 ADD MLOAD PUSH2 0x1693 PUSH1 0x80 DUP7 ADD DUP3 PUSH2 0xF5B JUMP JUMPDEST POP DUP1 SWAP2 POP POP SWAP3 SWAP2 POP POP JUMP JUMPDEST PUSH1 0x0 PUSH1 0x20 DUP3 ADD SWAP1 POP DUP2 DUP2 SUB PUSH1 0x0 DUP4 ADD MSTORE PUSH2 0x16B8 DUP2 DUP5 PUSH2 0x1621 JUMP JUMPDEST SWAP1 POP SWAP3 SWAP2 POP POP JUMP JUMPDEST PUSH1 0x0 PUSH2 0x16CB DUP3 PUSH2 0x1433 JUMP JUMPDEST SWAP1 POP SWAP2 SWAP1 POP JUMP JUMPDEST PUSH2 0x16DB DUP2 PUSH2 0x16C0 JUMP JUMPDEST DUP3 MSTORE POP POP JUMP JUMPDEST PUSH1 0x0 PUSH1 0x20 DUP3 ADD SWAP1 POP PUSH2 0x16F6 PUSH1 0x0 DUP4 ADD DUP5 PUSH2 0x16D2 JUMP JUMPDEST SWAP3 SWAP2 POP POP JUMP JUMPDEST PUSH1 0x0 DUP2 MLOAD SWAP1 POP SWAP2 SWAP1 POP JUMP JUMPDEST PUSH1 0x0 DUP3 DUP3 MSTORE PUSH1 0x20 DUP3 ADD SWAP1 POP SWAP3 SWAP2 POP POP JUMP JUMPDEST PUSH1 0x0 DUP2 SWAP1 POP PUSH1 0x20 DUP3 ADD SWAP1 POP SWAP2 SWAP1 POP JUMP JUMPDEST PUSH1 0x0 PUSH2 0x1734 DUP4 DUP4 PUSH2 0xF5B JUMP JUMPDEST PUSH1 0x20 DUP4 ADD SWAP1 POP SWAP3 SWAP2 POP POP JUMP JUMPDEST PUSH1 0x0 PUSH1 0x20 DUP3 ADD SWAP1 POP SWAP2 SWAP1 POP JUMP JUMPDEST PUSH1 0x0 PUSH2 0x1758 DUP3 PUSH2 0x16FC JUMP JUMPDEST PUSH2 0x1762 DUP2 DUP6 PUSH2 0x1707 JUMP JUMPDEST SWAP4 POP PUSH2 0x176D DUP4 PUSH2 0x1718 JUMP JUMPDEST DUP1 PUSH1 0x0 JUMPDEST DUP4 DUP2 LT ISZERO PUSH2 0x179E JUMPI DUP2 MLOAD PUSH2 0x1785 DUP9 DUP3 PUSH2 0x1728 JUMP JUMPDEST SWAP8 POP PUSH2 0x1790 DUP4 PUSH2 0x1740 JUMP JUMPDEST SWAP3 POP POP PUSH1 0x1 DUP2 ADD SWAP1 POP PUSH2 0x1771 JUMP JUMPDEST POP DUP6 SWAP4 POP POP POP POP SWAP3 SWAP2 POP POP JUMP JUMPDEST PUSH1 0x0 PUSH1 0x20 DUP3 ADD SWAP1 POP DUP2 DUP2 SUB PUSH1 0x0 DUP4 ADD MSTORE PUSH2 0x17C5 DUP2 DUP5 PUSH2 0x174D JUMP JUMPDEST SWAP1 POP SWAP3 SWAP2 POP POP JUMP JUMPDEST PUSH32 0x4E487B7100000000000000000000000000000000000000000000000000000000 PUSH1 0x0 MSTORE PUSH1 0x22 PUSH1 0x4 MSTORE PUSH1 0x24 PUSH1 0x0 REVERT JUMPDEST PUSH1 0x0 PUSH1 0x2 DUP3 DIV SWAP1 POP PUSH1 0x1 DUP3 AND DUP1 PUSH2 0x1814 JUMPI PUSH1 0x7F DUP3 AND SWAP2 POP JUMPDEST PUSH1 0x20 DUP3 LT DUP2 EQ ISZERO PUSH2 0x1828 JUMPI PUSH2 0x1827 PUSH2 0x17CD JUMP JUMPDEST JUMPDEST POP SWAP2 SWAP1 POP JUMP JUMPDEST PUSH32 0x43616C6C6572206D7573742062652074686520656C656374696F6E206F726761 PUSH1 0x0 DUP3 ADD MSTORE PUSH32 0x6E697A6572000000000000000000000000000000000000000000000000000000 PUSH1 0x20 DUP3 ADD MSTORE POP JUMP JUMPDEST PUSH1 0x0 PUSH2 0x188A PUSH1 0x25 DUP4 PUSH2 0x1576 JUMP JUMPDEST SWAP2 POP PUSH2 0x1895 DUP3 PUSH2 0x182E JUMP JUMPDEST PUSH1 0x40 DUP3 ADD SWAP1 POP SWAP2 SWAP1 POP JUMP JUMPDEST PUSH1 0x0 PUSH1 0x20 DUP3 ADD SWAP1 POP DUP2 DUP2 SUB PUSH1 0x0 DUP4 ADD MSTORE PUSH2 0x18B9 DUP2 PUSH2 0x187D JUMP JUMPDEST SWAP1 POP SWAP2 SWAP1 POP JUMP JUMPDEST PUSH2 0x18C9 DUP2 PUSH2 0x1376 JUMP JUMPDEST DUP3 MSTORE POP POP JUMP JUMPDEST PUSH1 0x0 PUSH1 0x40 DUP4 ADD PUSH1 0x0 DUP4 ADD MLOAD PUSH2 0x18E7 PUSH1 0x0 DUP7 ADD DUP3 PUSH2 0xF5B JUMP JUMPDEST POP PUSH1 0x20 DUP4 ADD MLOAD DUP5 DUP3 SUB PUSH1 0x20 DUP7 ADD MSTORE PUSH2 0x18FF DUP3 DUP3 PUSH2 0xFCA JUMP JUMPDEST SWAP2 POP POP DUP1 SWAP2 POP POP SWAP3 SWAP2 POP POP JUMP JUMPDEST PUSH1 0x0 PUSH1 0x60 DUP3 ADD SWAP1 POP PUSH2 0x1921 PUSH1 0x0 DUP4 ADD DUP7 PUSH2 0x18C0 JUMP JUMPDEST PUSH2 0x192E PUSH1 0x20 DUP4 ADD DUP6 PUSH2 0x18C0 JUMP JUMPDEST DUP2 DUP2 SUB PUSH1 0x40 DUP4 ADD MSTORE PUSH2 0x1940 DUP2 DUP5 PUSH2 0x18CF JUMP JUMPDEST SWAP1 POP SWAP5 SWAP4 POP POP POP POP JUMP JUMPDEST PUSH1 0x0 PUSH1 0x60 DUP3 ADD SWAP1 POP PUSH2 0x195F PUSH1 0x0 DUP4 ADD DUP7 PUSH2 0x18C0 JUMP JUMPDEST PUSH2 0x196C PUSH1 0x20 DUP4 ADD DUP6 PUSH2 0x10F8 JUMP JUMPDEST PUSH2 0x1979 PUSH1 0x40 DUP4 ADD DUP5 PUSH2 0x10F8 JUMP JUMPDEST SWAP5 SWAP4 POP POP POP POP JUMP JUMPDEST PUSH32 0x4E487B7100000000000000000000000000000000000000000000000000000000 PUSH1 0x0 MSTORE PUSH1 0x11 PUSH1 0x4 MSTORE PUSH1 0x24 PUSH1 0x0 REVERT JUMPDEST PUSH1 0x0 PUSH2 0x19BB DUP3 PUSH2 0xF51 JUMP JUMPDEST SWAP2 POP PUSH32 0xFFFFFFFFFFFFFFFFFFFFFFFFFFFFFFFFFFFFFFFFFFFFFFFFFFFFFFFFFFFFFFFF DUP3 EQ ISZERO PUSH2 0x19EE JUMPI PUSH2 0x19ED PUSH2 0x1981 JUMP JUMPDEST JUMPDEST PUSH1 0x1 DUP3 ADD SWAP1 POP SWAP2 SWAP1 POP JUMP JUMPDEST PUSH1 0x0 DUP2 PUSH1 0x0 SHR SWAP1 POP SWAP2 SWAP1 POP JUMP JUMPDEST PUSH1 0x0 DUP2 SWAP1 POP SWAP2 SWAP1 POP JUMP JUMPDEST PUSH1 0x0 PUSH2 0x1A23 PUSH2 0x1A1E DUP4 PUSH2 0x19F9 JUMP JUMPDEST PUSH2 0x1A06 JUMP JUMPDEST SWAP1 POP SWAP2 SWAP1 POP JUMP JUMPDEST PUSH1 0x0 DUP2 SWAP1 POP DUP2 PUSH1 0x0 MSTORE PUSH1 0x20 PUSH1 0x0 KECCAK256 SWAP1 POP SWAP2 SWAP1 POP JUMP JUMPDEST PUSH1 0x0 DUP2 SLOAD PUSH2 0x1A4C DUP2 PUSH2 0x17FC JUMP JUMPDEST PUSH2 0x1A56 DUP2 DUP7 PUSH2 0xF75 JUMP JUMPDEST SWAP5 POP PUSH1 0x1 DUP3 AND PUSH1 0x0 DUP2 EQ PUSH2 0x1A71 JUMPI PUSH1 0x1 DUP2 EQ PUSH2 0x1A83 JUMPI PUSH2 0x1AB6 JUMP JUMPDEST PUSH1 0xFF NOT DUP4 AND DUP7 MSTORE PUSH1 0x20 DUP7 ADD SWAP4 POP PUSH2 0x1AB6 JUMP JUMPDEST PUSH2 0x1A8C DUP6 PUSH2 0x1A2A JUMP JUMPDEST PUSH1 0x0 JUMPDEST DUP4 DUP2 LT ISZERO PUSH2 0x1AAE JUMPI DUP2 SLOAD DUP2 DUP10 ADD MSTORE PUSH1 0x1 DUP3 ADD SWAP2 POP PUSH1 0x20 DUP2 ADD SWAP1 POP PUSH2 0x1A8F JUMP JUMPDEST DUP1 DUP9 ADD SWAP6 POP POP POP JUMPDEST POP POP POP SWAP3 SWAP2 POP POP JUMP JUMPDEST PUSH1 0x0 PUSH1 0x40 DUP4 ADD PUSH1 0x0 DUP1 DUP5 ADD SLOAD SWAP1 POP PUSH2 0x1AD6 DUP2 PUSH2 0x1A10 JUMP JUMPDEST PUSH2 0x1AE3 PUSH1 0x0 DUP8 ADD DUP3 PUSH2 0xF5B JUMP JUMPDEST POP PUSH1 0x1 DUP5 ADD DUP6 DUP4 SUB PUSH1 0x20 DUP8 ADD MSTORE PUSH2 0x1AFA DUP4 DUP3 PUSH2 0x1A3F JUMP JUMPDEST SWAP3 POP POP DUP2 SWAP3 POP POP POP SWAP3 SWAP2 POP POP JUMP JUMPDEST PUSH1 0x0 PUSH1 0x60 DUP3 ADD SWAP1 POP PUSH2 0x1B1D PUSH1 0x0 DUP4 ADD DUP7 PUSH2 0x18C0 JUMP JUMPDEST DUP2 DUP2 SUB PUSH1 0x20 DUP4 ADD MSTORE PUSH2 0x1B2F DUP2 DUP6 PUSH2 0x1ABF JUMP JUMPDEST SWAP1 POP PUSH2 0x1B3E PUSH1 0x40 DUP4 ADD DUP5 PUSH2 0x10F8 JUMP JUMPDEST SWAP5 SWAP4 POP POP POP POP JUMP JUMPDEST PUSH1 0x0 PUSH1 0x20 DUP3 ADD SWAP1 POP PUSH2 0x1B5B PUSH1 0x0 DUP4 ADD DUP5 PUSH2 0x18C0 JUMP JUMPDEST SWAP3 SWAP2 POP POP JUMP JUMPDEST PUSH2 0x1B6A DUP2 PUSH2 0x1540 JUMP JUMPDEST DUP2 EQ PUSH2 0x1B75 JUMPI PUSH1 0x0 DUP1 REVERT JUMPDEST POP JUMP JUMPDEST PUSH1 0x0 DUP2 MLOAD SWAP1 POP PUSH2 0x1B87 DUP2 PUSH2 0x1B61 JUMP JUMPDEST SWAP3 SWAP2 POP POP JUMP JUMPDEST PUSH1 0x0 PUSH1 0x20 DUP3 DUP5 SUB SLT ISZERO PUSH2 0x1BA3 JUMPI PUSH2 0x1BA2 PUSH2 0x112C JUMP JUMPDEST JUMPDEST PUSH1 0x0 PUSH2 0x1BB1 DUP5 DUP3 DUP6 ADD PUSH2 0x1B78 JUMP JUMPDEST SWAP2 POP POP SWAP3 SWAP2 POP POP JUMP JUMPDEST PUSH1 0x0 PUSH1 0x40 DUP3 ADD SWAP1 POP PUSH2 0x1BCF PUSH1 0x0 DUP4 ADD DUP6 PUSH2 0x16D2 JUMP JUMPDEST PUSH2 0x1BDC PUSH1 0x20 DUP4 ADD DUP5 PUSH2 0x10F8 JUMP JUMPDEST SWAP4 SWAP3 POP POP POP JUMP JUMPDEST PUSH1 0x0 PUSH8 0xFFFFFFFFFFFFFFFF DUP3 GT ISZERO PUSH2 0x1BFE JUMPI PUSH2 0x1BFD PUSH2 0x113B JUMP JUMPDEST JUMPDEST PUSH1 0x20 DUP3 MUL SWAP1 POP PUSH1 0x20 DUP2 ADD SWAP1 POP SWAP2 SWAP1 POP JUMP JUMPDEST PUSH1 0x0 DUP1 REVERT JUMPDEST PUSH1 0x0 DUP2 MLOAD SWAP1 POP PUSH2 0x1C23 DUP2 PUSH2 0x11BB JUMP JUMPDEST SWAP3 SWAP2 POP POP JUMP JUMPDEST PUSH1 0x0 PUSH2 0x1C3C PUSH2 0x1C37 DUP5 PUSH2 0x1BE3 JUMP JUMPDEST PUSH2 0x119B JUMP JUMPDEST SWAP1 POP DUP1 DUP4 DUP3 MSTORE PUSH1 0x20 DUP3 ADD SWAP1 POP PUSH1 0x20 DUP5 MUL DUP4 ADD DUP6 DUP2 GT ISZERO PUSH2 0x1C5F JUMPI PUSH2 0x1C5E PUSH2 0x1C0F JUMP JUMPDEST JUMPDEST DUP4 JUMPDEST DUP2 DUP2 LT ISZERO PUSH2 0x1C88 JUMPI DUP1 PUSH2 0x1C74 DUP9 DUP3 PUSH2 0x1C14 JUMP JUMPDEST DUP5 MSTORE PUSH1 0x20 DUP5 ADD SWAP4 POP POP PUSH1 0x20 DUP2 ADD SWAP1 POP PUSH2 0x1C61 JUMP JUMPDEST POP POP POP SWAP4 SWAP3 POP POP POP JUMP JUMPDEST PUSH1 0x0 DUP3 PUSH1 0x1F DUP4 ADD SLT PUSH2 0x1CA7 JUMPI PUSH2 0x1CA6 PUSH2 0x11E7 JUMP JUMPDEST JUMPDEST DUP2 MLOAD PUSH2 0x1CB7 DUP5 DUP3 PUSH1 0x20 DUP7 ADD PUSH2 0x1C29 JUMP JUMPDEST SWAP2 POP POP SWAP3 SWAP2 POP POP JUMP JUMPDEST PUSH1 0x0 PUSH1 0x20 DUP3 DUP5 SUB SLT ISZERO PUSH2 0x1CD6 JUMPI PUSH2 0x1CD5 PUSH2 0x112C JUMP JUMPDEST JUMPDEST PUSH1 0x0 DUP3 ADD MLOAD PUSH8 0xFFFFFFFFFFFFFFFF DUP2 GT ISZERO PUSH2 0x1CF4 JUMPI PUSH2 0x1CF3 PUSH2 0x1131 JUMP JUMPDEST JUMPDEST PUSH2 0x1D00 DUP5 DUP3 DUP6 ADD PUSH2 0x1C92 JUMP JUMPDEST SWAP2 POP POP SWAP3 SWAP2 POP POP JUMP JUMPDEST PUSH32 0x4E487B7100000000000000000000000000000000000000000000000000000000 PUSH1 0x0 MSTORE PUSH1 0x32 PUSH1 0x4 MSTORE PUSH1 0x24 PUSH1 0x0 REVERT JUMPDEST PUSH1 0x0 DUP2 SLOAD SWAP1 POP SWAP2 SWAP1 POP JUMP JUMPDEST PUSH1 0x0 DUP2 SWAP1 POP DUP2 PUSH1 0x0 MSTORE PUSH1 0x20 PUSH1 0x0 KECCAK256 SWAP1 POP SWAP2 SWAP1 POP JUMP JUMPDEST PUSH1 0x0 PUSH1 0x40 DUP4 ADD PUSH1 0x0 DUP1 DUP5 ADD SLOAD SWAP1 POP PUSH2 0x1D6F DUP2 PUSH2 0x1A10 JUMP JUMPDEST PUSH2 0x1D7C PUSH1 0x0 DUP8 ADD DUP3 PUSH2 0xF5B JUMP JUMPDEST POP PUSH1 0x1 DUP5 ADD DUP6 DUP4 SUB PUSH1 0x20 DUP8 ADD MSTORE PUSH2 0x1D93 DUP4 DUP3 PUSH2 0x1A3F JUMP JUMPDEST SWAP3 POP POP DUP2 SWAP3 POP POP POP SWAP3 SWAP2 POP POP JUMP JUMPDEST PUSH1 0x0 PUSH2 0x1DAD DUP4 DUP4 PUSH2 0x1D58 JUMP JUMPDEST SWAP1 POP SWAP3 SWAP2 POP POP JUMP JUMPDEST PUSH1 0x0 PUSH1 0x2 DUP3 ADD SWAP1 POP SWAP2 SWAP1 POP JUMP JUMPDEST PUSH1 0x0 PUSH2 0x1DCD DUP3 PUSH2 0x1D38 JUMP JUMPDEST PUSH2 0x1DD7 DUP2 DUP6 PUSH2 0xF30 JUMP JUMPDEST SWAP4 POP DUP4 PUSH1 0x20 DUP3 MUL DUP6 ADD PUSH2 0x1DE9 DUP6 PUSH2 0x1D43 JUMP JUMPDEST DUP1 PUSH1 0x0 JUMPDEST DUP6 DUP2 LT ISZERO PUSH2 0x1E24 JUMPI DUP5 DUP5 SUB DUP10 MSTORE DUP2 PUSH2 0x1E05 DUP6 DUP3 PUSH2 0x1DA1 JUMP JUMPDEST SWAP5 POP PUSH2 0x1E10 DUP4 PUSH2 0x1DB5 JUMP JUMPDEST SWAP3 POP PUSH1 0x20 DUP11 ADD SWAP10 POP POP PUSH1 0x1 DUP2 ADD SWAP1 POP PUSH2 0x1DED JUMP JUMPDEST POP DUP3 SWAP8 POP DUP8 SWAP6 POP POP POP POP POP POP SWAP3 SWAP2 POP POP JUMP JUMPDEST PUSH1 0x0 PUSH1 0x20 DUP3 ADD SWAP1 POP DUP2 DUP2 SUB PUSH1 0x0 DUP4 ADD MSTORE PUSH2 0x1E50 DUP2 DUP5 PUSH2 0x1DC2 JUMP JUMPDEST SWAP1 POP SWAP3 SWAP2 POP POP JUMP INVALID LOG2 PUSH5 0x6970667358 0x22 SLT KECCAK256 CODECOPY SIGNEXTEND 0xB1 0xE1 0xF 0xAF 0xB0 MUL PUSH29 0x79B0FCFB01ABA57FF0AB571D6F10224CCCC698E42D403B64736F6C6343 STOP ADDMOD EXP STOP CALLER LOG2 PUSH5 0x6970667358 0x22 SLT KECCAK256 SWAP8 0x26 SELFDESTRUCT 0xBB CALL 0x2F ADD PUSH19 0xAA953CD36CED485438A7D365D10CEF3E138B21 MSIZE 0xB3 0xC6 SLT CALLDATALOAD PUSH5 0x736F6C6343 STOP ADDMOD EXP STOP CALLER "
        },
        "methodIdentifiers": {
          "addCandidate(address,(uint256,string))": "b16b14b7",
          "addOrganizer((uint256,string,address),address)": "5118161b",
          "createElection((uint256,string,string,uint256,uint256),address,address)": "5b1aad00",
          "getElections()": "9f3a7f52",
          "getResult(address)": "446a37e0"
        }
      }
    }
  }
}