{"contracts/MiMC.sol":{"MiMC":{"abi":[{"inputs":[{"internalType":"uint256","name":"in_xL","type":"uint256"},{"internalType":"uint256","name":"in_xR","type":"uint256"}],"name":"MiMCSponge","outputs":[{"internalType":"uint256","name":"xL","type":"uint256"},{"internalType":"uint256","name":"xR","type":"uint256"}],"stateMutability":"pure","type":"function"}],"evm":{"bytecode":{"linkReferences":{},"object":"61015e610053600b82828239805160001a607314610046577f4e487b7100000000000000000000000000000000000000000000000000000000600052600060045260246000fd5b30600052607381538281f3fe73000000000000000000000000000000000000000030146080604052600436106100355760003560e01c8063f47d33b51461003a575b600080fd5b610054600480360381019061004f91906100b0565b61006b565b6040516100629291906100ff565b60405180910390f35b6000809250929050565b600080fd5b6000819050919050565b61008d8161007a565b811461009857600080fd5b50565b6000813590506100aa81610084565b92915050565b600080604083850312156100c7576100c6610075565b5b60006100d58582860161009b565b92505060206100e68582860161009b565b9150509250929050565b6100f98161007a565b82525050565b600060408201905061011460008301856100f0565b61012160208301846100f0565b939250505056fea2646970667358221220cd41a825e6a7c967bed12ccfb3c7adc7ecbef68971e4e96e2e6fd98a1cd4a21364736f6c634300080a0033","opcodes":"PUSH2 0x15E PUSH2 0x53 PUSH1 0xB DUP3 DUP3 DUP3 CODECOPY DUP1 MLOAD PUSH1 0x0 BYTE PUSH1 0x73 EQ PUSH2 0x46 JUMPI PUSH32 0x4E487B7100000000000000000000000000000000000000000000000000000000 PUSH1 0x0 MSTORE PUSH1 0x0 PUSH1 0x4 MSTORE PUSH1 0x24 PUSH1 0x0 REVERT JUMPDEST ADDRESS PUSH1 0x0 MSTORE PUSH1 0x73 DUP2 MSTORE8 DUP3 DUP2 RETURN INVALID PUSH20 0x0 ADDRESS EQ PUSH1 0x80 PUSH1 0x40 MSTORE PUSH1 0x4 CALLDATASIZE LT PUSH2 0x35 JUMPI PUSH1 0x0 CALLDATALOAD PUSH1 0xE0 SHR DUP1 PUSH4 0xF47D33B5 EQ PUSH2 0x3A JUMPI JUMPDEST PUSH1 0x0 DUP1 REVERT JUMPDEST PUSH2 0x54 PUSH1 0x4 DUP1 CALLDATASIZE SUB DUP2 ADD SWAP1 PUSH2 0x4F SWAP2 SWAP1 PUSH2 0xB0 JUMP JUMPDEST PUSH2 0x6B JUMP JUMPDEST PUSH1 0x40 MLOAD PUSH2 0x62 SWAP3 SWAP2 SWAP1 PUSH2 0xFF JUMP JUMPDEST PUSH1 0x40 MLOAD DUP1 SWAP2 SUB SWAP1 RETURN JUMPDEST PUSH1 0x0 DUP1 SWAP3 POP SWAP3 SWAP1 POP JUMP JUMPDEST PUSH1 0x0 DUP1 REVERT JUMPDEST PUSH1 0x0 DUP2 SWAP1 POP SWAP2 SWAP1 POP JUMP JUMPDEST PUSH2 0x8D DUP2 PUSH2 0x7A JUMP JUMPDEST DUP2 EQ PUSH2 0x98 JUMPI PUSH1 0x0 DUP1 REVERT JUMPDEST POP JUMP JUMPDEST PUSH1 0x0 DUP2 CALLDATALOAD SWAP1 POP PUSH2 0xAA DUP2 PUSH2 0x84 JUMP JUMPDEST SWAP3 SWAP2 POP POP JUMP JUMPDEST PUSH1 0x0 DUP1 PUSH1 0x40 DUP4 DUP6 SUB SLT ISZERO PUSH2 0xC7 JUMPI PUSH2 0xC6 PUSH2 0x75 JUMP JUMPDEST JUMPDEST PUSH1 0x0 PUSH2 0xD5 DUP6 DUP3 DUP7 ADD PUSH2 0x9B JUMP JUMPDEST SWAP3 POP POP PUSH1 0x20 PUSH2 0xE6 DUP6 DUP3 DUP7 ADD PUSH2 0x9B JUMP JUMPDEST SWAP2 POP POP SWAP3 POP SWAP3 SWAP1 POP JUMP JUMPDEST PUSH2 0xF9 DUP2 PUSH2 0x7A JUMP JUMPDEST DUP3 MSTORE POP POP JUMP JUMPDEST PUSH1 0x0 PUSH1 0x40 DUP3 ADD SWAP1 POP PUSH2 0x114 PUSH1 0x0 DUP4 ADD DUP6 PUSH2 0xF0 JUMP JUMPDEST PUSH2 0x121 PUSH1 0x20 DUP4 ADD DUP5 PUSH2 0xF0 JUMP JUMPDEST SWAP4 SWAP3 POP POP POP JUMP INVALID LOG2 PUSH5 0x6970667358 0x22 SLT KECCAK256 0xCD COINBASE 0xA8 0x25 0xE6 0xA7 0xC9 PUSH8 0xBED12CCFB3C7ADC7 0xEC 0xBE 0xF6 DUP10 PUSH18 0xE4E96E2E6FD98A1CD4A21364736F6C634300 ADDMOD EXP STOP CALLER "},"methodIdentifiers":{"MiMCSponge(uint256,uint256)":"f47d33b5"}}}}}