{"contracts/IncrementalMerkleTree.sol":{"IncrementalMerkleTree":{"abi":[{"inputs":[{"internalType":"uint8","name":"_treeLevels","type":"uint8"},{"internalType":"uint256","name":"_zeroValue","type":"uint256"}],"stateMutability":"nonpayable","type":"constructor"},{"anonymous":false,"inputs":[{"indexed":true,"internalType":"uint256","name":"leaf","type":"uint256"},{"indexed":true,"internalType":"uint256","name":"leafIndex","type":"uint256"}],"name":"LeafInsertion","type":"event"},{"anonymous":false,"inputs":[{"indexed":false,"internalType":"uint256","name":"root","type":"uint256"}],"name":"NewRoot","type":"event"},{"inputs":[],"name":"getRoots","outputs":[{"internalType":"uint256[10]","name":"","type":"uint256[10]"}],"stateMutability":"view","type":"function"},{"inputs":[],"name":"root","outputs":[{"internalType":"uint256","name":"","type":"uint256"}],"stateMutability":"view","type":"function"},{"inputs":[{"internalType":"uint256","name":"","type":"uint256"}],"name":"rootHistory","outputs":[{"internalType":"bool","name":"","type":"bool"}],"stateMutability":"view","type":"function"}],"evm":{"bytecode":{"linkReferences":{"contracts/MiMC.sol":{"MiMC":[{"length":20,"start":392},{"length":20,"start":582}]}},"object":"608060405260006001553480156200001657600080fd5b50604051620009193803806200091983398181016040528101906200003c919062000353565b60008260ff16118015620000575750602060ff168260ff1611155b62000099576040517f08c379a0000000000000000000000000000000000000000000000000000000008152600401620000909062000421565b60405180910390fd5b816000806101000a81548160ff021916908360ff16021790555080600d600060208110620000cc57620000cb62000443565b5b018190555060008190506000600190505b8360ff168160ff1610156200015c5760006200010083846200017e60201b60201c565b905080600d8360ff16602081106200011d576200011c62000443565b5b018190555080602d8360ff16602081106200013d576200013c62000443565b5b01819055508092505080806200015390620004a1565b915050620000dd565b506200016f81826200017e60201b60201c565b600c81905550505050620005fe565b600080839050600073__$cf5da3090e28b1d67a537682696360513a$__63f47d33b58360006040518363ffffffff1660e01b8152600401620001c29291906200052e565b6040805180830381865af4158015620001df573d6000803e3d6000fd5b505050506040513d601f19601f820116820180604052508101906200020591906200055b565b80925081935050507f30644e72e131a029b85045b68181585d2833e84879b9709143e1f593f0000001806200023f576200023e620005a2565b5b848308915073__$cf5da3090e28b1d67a537682696360513a$__63f47d33b583836040518363ffffffff1660e01b81526004016200027f929190620005d1565b6040805180830381865af41580156200029c573d6000803e3d6000fd5b505050506040513d601f19601f82011682018060405250810190620002c291906200055b565b8092508193505050819250505092915050565b600080fd5b600060ff82169050919050565b620002f281620002da565b8114620002fe57600080fd5b50565b6000815190506200031281620002e7565b92915050565b6000819050919050565b6200032d8162000318565b81146200033957600080fd5b50565b6000815190506200034d8162000322565b92915050565b600080604083850312156200036d576200036c620002d5565b5b60006200037d8582860162000301565b925050602062000390858286016200033c565b9150509250929050565b600082825260208201905092915050565b7f496e6372656d656e74616c4d65726b6c65547265653a205f747265654c65766560008201527f6c73206d757374206265206265747765656e203020616e642033330000000000602082015250565b600062000409603b836200039a565b91506200041682620003ab565b604082019050919050565b600060208201905081810360008301526200043c81620003fa565b9050919050565b7f4e487b7100000000000000000000000000000000000000000000000000000000600052603260045260246000fd5b7f4e487b7100000000000000000000000000000000000000000000000000000000600052601160045260246000fd5b6000620004ae82620002da565b915060ff821415620004c557620004c462000472565b5b600182019050919050565b620004db8162000318565b82525050565b6000819050919050565b6000819050919050565b600062000516620005106200050a84620004e1565b620004eb565b62000318565b9050919050565b6200052881620004f5565b82525050565b6000604082019050620005456000830185620004d0565b6200055460208301846200051d565b9392505050565b60008060408385031215620005755762000574620002d5565b5b600062000585858286016200033c565b925050602062000598858286016200033c565b9150509250929050565b7f4e487b7100000000000000000000000000000000000000000000000000000000600052601260045260246000fd5b6000604082019050620005e86000830185620004d0565b620005f76020830184620004d0565b9392505050565b61030b806200060e6000396000f3fe608060405234801561001057600080fd5b50600436106100415760003560e01c806335a5e06d14610046578063ebf0c71714610064578063f1c621ee14610082575b600080fd5b61004e6100b2565b60405161005b91906101fb565b60405180910390f35b61006c6100fd565b6040516100799190610226565b60405180910390f35b61009c60048036038101906100979190610272565b610103565b6040516100a991906102ba565b60405180910390f35b6100ba610123565b6002600a806020026040519081016040528092919082600a80156100f3576020028201915b8154815260200190600101908083116100df575b5050505050905090565b600c5481565b604d6020528060005260406000206000915054906101000a900460ff1681565b604051806101400160405280600a90602082028036833780820191505090505090565b6000600a9050919050565b600081905092915050565b6000819050919050565b6000819050919050565b61017981610166565b82525050565b600061018b8383610170565b60208301905092915050565b6000602082019050919050565b6101ad81610146565b6101b78184610151565b92506101c28261015c565b8060005b838110156101f35781516101da878261017f565b96506101e583610197565b9250506001810190506101c6565b505050505050565b60006101408201905061021160008301846101a4565b92915050565b61022081610166565b82525050565b600060208201905061023b6000830184610217565b92915050565b600080fd5b61024f81610166565b811461025a57600080fd5b50565b60008135905061026c81610246565b92915050565b60006020828403121561028857610287610241565b5b60006102968482850161025d565b91505092915050565b60008115159050919050565b6102b48161029f565b82525050565b60006020820190506102cf60008301846102ab565b9291505056fea2646970667358221220fabd62ca6524aedeec37a52a575f752770b5c1744639bd1200d2d833e5929f0f64736f6c634300080a0033","opcodes":"PUSH1 0x80 PUSH1 0x40 MSTORE PUSH1 0x0 PUSH1 0x1 SSTORE CALLVALUE DUP1 ISZERO PUSH3 0x16 JUMPI PUSH1 0x0 DUP1 REVERT JUMPDEST POP PUSH1 0x40 MLOAD PUSH3 0x919 CODESIZE SUB DUP1 PUSH3 0x919 DUP4 CODECOPY DUP2 DUP2 ADD PUSH1 0x40 MSTORE DUP2 ADD SWAP1 PUSH3 0x3C SWAP2 SWAP1 PUSH3 0x353 JUMP JUMPDEST PUSH1 0x0 DUP3 PUSH1 0xFF AND GT DUP1 ISZERO PUSH3 0x57 JUMPI POP PUSH1 0x20 PUSH1 0xFF AND DUP3 PUSH1 0xFF AND GT ISZERO JUMPDEST PUSH3 0x99 JUMPI PUSH1 0x40 MLOAD PUSH32 0x8C379A000000000000000000000000000000000000000000000000000000000 DUP2 MSTORE PUSH1 0x4 ADD PUSH3 0x90 SWAP1 PUSH3 0x421 JUMP JUMPDEST PUSH1 0x40 MLOAD DUP1 SWAP2 SUB SWAP1 REVERT JUMPDEST DUP2 PUSH1 0x0 DUP1 PUSH2 0x100 EXP DUP2 SLOAD DUP2 PUSH1 0xFF MUL NOT AND SWAP1 DUP4 PUSH1 0xFF AND MUL OR SWAP1 SSTORE POP DUP1 PUSH1 0xD PUSH1 0x0 PUSH1 0x20 DUP2 LT PUSH3 0xCC JUMPI PUSH3 0xCB PUSH3 0x443 JUMP JUMPDEST JUMPDEST ADD DUP2 SWAP1 SSTORE POP PUSH1 0x0 DUP2 SWAP1 POP PUSH1 0x0 PUSH1 0x1 SWAP1 POP JUMPDEST DUP4 PUSH1 0xFF AND DUP2 PUSH1 0xFF AND LT ISZERO PUSH3 0x15C JUMPI PUSH1 0x0 PUSH3 0x100 DUP4 DUP5 PUSH3 0x17E PUSH1 0x20 SHL PUSH1 0x20 SHR JUMP JUMPDEST SWAP1 POP DUP1 PUSH1 0xD DUP4 PUSH1 0xFF AND PUSH1 0x20 DUP2 LT PUSH3 0x11D JUMPI PUSH3 0x11C PUSH3 0x443 JUMP JUMPDEST JUMPDEST ADD DUP2 SWAP1 SSTORE POP DUP1 PUSH1 0x2D DUP4 PUSH1 0xFF AND PUSH1 0x20 DUP2 LT PUSH3 0x13D JUMPI PUSH3 0x13C PUSH3 0x443 JUMP JUMPDEST JUMPDEST ADD DUP2 SWAP1 SSTORE POP DUP1 SWAP3 POP POP DUP1 DUP1 PUSH3 0x153 SWAP1 PUSH3 0x4A1 JUMP JUMPDEST SWAP2 POP POP PUSH3 0xDD JUMP JUMPDEST POP PUSH3 0x16F DUP2 DUP3 PUSH3 0x17E PUSH1 0x20 SHL PUSH1 0x20 SHR JUMP JUMPDEST PUSH1 0xC DUP2 SWAP1 SSTORE POP POP POP POP PUSH3 0x5FE JUMP JUMPDEST PUSH1 0x0 DUP1 DUP4 SWAP1 POP PUSH1 0x0 PUSH20 0x0 PUSH4 0xF47D33B5 DUP4 PUSH1 0x0 PUSH1 0x40 MLOAD DUP4 PUSH4 0xFFFFFFFF AND PUSH1 0xE0 SHL DUP2 MSTORE PUSH1 0x4 ADD PUSH3 0x1C2 SWAP3 SWAP2 SWAP1 PUSH3 0x52E JUMP JUMPDEST PUSH1 0x40 DUP1 MLOAD DUP1 DUP4 SUB DUP2 DUP7 GAS DELEGATECALL ISZERO DUP1 ISZERO PUSH3 0x1DF JUMPI RETURNDATASIZE PUSH1 0x0 DUP1 RETURNDATACOPY RETURNDATASIZE PUSH1 0x0 REVERT JUMPDEST POP POP POP POP PUSH1 0x40 MLOAD RETURNDATASIZE PUSH1 0x1F NOT PUSH1 0x1F DUP3 ADD AND DUP3 ADD DUP1 PUSH1 0x40 MSTORE POP DUP2 ADD SWAP1 PUSH3 0x205 SWAP2 SWAP1 PUSH3 0x55B JUMP JUMPDEST DUP1 SWAP3 POP DUP2 SWAP4 POP POP POP PUSH32 0x30644E72E131A029B85045B68181585D2833E84879B9709143E1F593F0000001 DUP1 PUSH3 0x23F JUMPI PUSH3 0x23E PUSH3 0x5A2 JUMP JUMPDEST JUMPDEST DUP5 DUP4 ADDMOD SWAP2 POP PUSH20 0x0 PUSH4 0xF47D33B5 DUP4 DUP4 PUSH1 0x40 MLOAD DUP4 PUSH4 0xFFFFFFFF AND PUSH1 0xE0 SHL DUP2 MSTORE PUSH1 0x4 ADD PUSH3 0x27F SWAP3 SWAP2 SWAP1 PUSH3 0x5D1 JUMP JUMPDEST PUSH1 0x40 DUP1 MLOAD DUP1 DUP4 SUB DUP2 DUP7 GAS DELEGATECALL ISZERO DUP1 ISZERO PUSH3 0x29C JUMPI RETURNDATASIZE PUSH1 0x0 DUP1 RETURNDATACOPY RETURNDATASIZE PUSH1 0x0 REVERT JUMPDEST POP POP POP POP PUSH1 0x40 MLOAD RETURNDATASIZE PUSH1 0x1F NOT PUSH1 0x1F DUP3 ADD AND DUP3 ADD DUP1 PUSH1 0x40 MSTORE POP DUP2 ADD SWAP1 PUSH3 0x2C2 SWAP2 SWAP1 PUSH3 0x55B JUMP JUMPDEST DUP1 SWAP3 POP DUP2 SWAP4 POP POP POP DUP2 SWAP3 POP POP POP SWAP3 SWAP2 POP POP JUMP JUMPDEST PUSH1 0x0 DUP1 REVERT JUMPDEST PUSH1 0x0 PUSH1 0xFF DUP3 AND SWAP1 POP SWAP2 SWAP1 POP JUMP JUMPDEST PUSH3 0x2F2 DUP2 PUSH3 0x2DA JUMP JUMPDEST DUP2 EQ PUSH3 0x2FE JUMPI PUSH1 0x0 DUP1 REVERT JUMPDEST POP JUMP JUMPDEST PUSH1 0x0 DUP2 MLOAD SWAP1 POP PUSH3 0x312 DUP2 PUSH3 0x2E7 JUMP JUMPDEST SWAP3 SWAP2 POP POP JUMP JUMPDEST PUSH1 0x0 DUP2 SWAP1 POP SWAP2 SWAP1 POP JUMP JUMPDEST PUSH3 0x32D DUP2 PUSH3 0x318 JUMP JUMPDEST DUP2 EQ PUSH3 0x339 JUMPI PUSH1 0x0 DUP1 REVERT JUMPDEST POP JUMP JUMPDEST PUSH1 0x0 DUP2 MLOAD SWAP1 POP PUSH3 0x34D DUP2 PUSH3 0x322 JUMP JUMPDEST SWAP3 SWAP2 POP POP JUMP JUMPDEST PUSH1 0x0 DUP1 PUSH1 0x40 DUP4 DUP6 SUB SLT ISZERO PUSH3 0x36D JUMPI PUSH3 0x36C PUSH3 0x2D5 JUMP JUMPDEST JUMPDEST PUSH1 0x0 PUSH3 0x37D DUP6 DUP3 DUP7 ADD PUSH3 0x301 JUMP JUMPDEST SWAP3 POP POP PUSH1 0x20 PUSH3 0x390 DUP6 DUP3 DUP7 ADD PUSH3 0x33C JUMP JUMPDEST SWAP2 POP POP SWAP3 POP SWAP3 SWAP1 POP JUMP JUMPDEST PUSH1 0x0 DUP3 DUP3 MSTORE PUSH1 0x20 DUP3 ADD SWAP1 POP SWAP3 SWAP2 POP POP JUMP JUMPDEST PUSH32 0x496E6372656D656E74616C4D65726B6C65547265653A205F747265654C657665 PUSH1 0x0 DUP3 ADD MSTORE PUSH32 0x6C73206D757374206265206265747765656E203020616E642033330000000000 PUSH1 0x20 DUP3 ADD MSTORE POP JUMP JUMPDEST PUSH1 0x0 PUSH3 0x409 PUSH1 0x3B DUP4 PUSH3 0x39A JUMP JUMPDEST SWAP2 POP PUSH3 0x416 DUP3 PUSH3 0x3AB JUMP JUMPDEST PUSH1 0x40 DUP3 ADD SWAP1 POP SWAP2 SWAP1 POP JUMP JUMPDEST PUSH1 0x0 PUSH1 0x20 DUP3 ADD SWAP1 POP DUP2 DUP2 SUB PUSH1 0x0 DUP4 ADD MSTORE PUSH3 0x43C DUP2 PUSH3 0x3FA JUMP JUMPDEST SWAP1 POP SWAP2 SWAP1 POP JUMP JUMPDEST PUSH32 0x4E487B7100000000000000000000000000000000000000000000000000000000 PUSH1 0x0 MSTORE PUSH1 0x32 PUSH1 0x4 MSTORE PUSH1 0x24 PUSH1 0x0 REVERT JUMPDEST PUSH32 0x4E487B7100000000000000000000000000000000000000000000000000000000 PUSH1 0x0 MSTORE PUSH1 0x11 PUSH1 0x4 MSTORE PUSH1 0x24 PUSH1 0x0 REVERT JUMPDEST PUSH1 0x0 PUSH3 0x4AE DUP3 PUSH3 0x2DA JUMP JUMPDEST SWAP2 POP PUSH1 0xFF DUP3 EQ ISZERO PUSH3 0x4C5 JUMPI PUSH3 0x4C4 PUSH3 0x472 JUMP JUMPDEST JUMPDEST PUSH1 0x1 DUP3 ADD SWAP1 POP SWAP2 SWAP1 POP JUMP JUMPDEST PUSH3 0x4DB DUP2 PUSH3 0x318 JUMP JUMPDEST DUP3 MSTORE POP POP JUMP JUMPDEST PUSH1 0x0 DUP2 SWAP1 POP SWAP2 SWAP1 POP JUMP JUMPDEST PUSH1 0x0 DUP2 SWAP1 POP SWAP2 SWAP1 POP JUMP JUMPDEST PUSH1 0x0 PUSH3 0x516 PUSH3 0x510 PUSH3 0x50A DUP5 PUSH3 0x4E1 JUMP JUMPDEST PUSH3 0x4EB JUMP JUMPDEST PUSH3 0x318 JUMP JUMPDEST SWAP1 POP SWAP2 SWAP1 POP JUMP JUMPDEST PUSH3 0x528 DUP2 PUSH3 0x4F5 JUMP JUMPDEST DUP3 MSTORE POP POP JUMP JUMPDEST PUSH1 0x0 PUSH1 0x40 DUP3 ADD SWAP1 POP PUSH3 0x545 PUSH1 0x0 DUP4 ADD DUP6 PUSH3 0x4D0 JUMP JUMPDEST PUSH3 0x554 PUSH1 0x20 DUP4 ADD DUP5 PUSH3 0x51D JUMP JUMPDEST SWAP4 SWAP3 POP POP POP JUMP JUMPDEST PUSH1 0x0 DUP1 PUSH1 0x40 DUP4 DUP6 SUB SLT ISZERO PUSH3 0x575 JUMPI PUSH3 0x574 PUSH3 0x2D5 JUMP JUMPDEST JUMPDEST PUSH1 0x0 PUSH3 0x585 DUP6 DUP3 DUP7 ADD PUSH3 0x33C JUMP JUMPDEST SWAP3 POP POP PUSH1 0x20 PUSH3 0x598 DUP6 DUP3 DUP7 ADD PUSH3 0x33C JUMP JUMPDEST SWAP2 POP POP SWAP3 POP SWAP3 SWAP1 POP JUMP JUMPDEST PUSH32 0x4E487B7100000000000000000000000000000000000000000000000000000000 PUSH1 0x0 MSTORE PUSH1 0x12 PUSH1 0x4 MSTORE PUSH1 0x24 PUSH1 0x0 REVERT JUMPDEST PUSH1 0x0 PUSH1 0x40 DUP3 ADD SWAP1 POP PUSH3 0x5E8 PUSH1 0x0 DUP4 ADD DUP6 PUSH3 0x4D0 JUMP JUMPDEST PUSH3 0x5F7 PUSH1 0x20 DUP4 ADD DUP5 PUSH3 0x4D0 JUMP JUMPDEST SWAP4 SWAP3 POP POP POP JUMP JUMPDEST PUSH2 0x30B DUP1 PUSH3 0x60E PUSH1 0x0 CODECOPY PUSH1 0x0 RETURN INVALID PUSH1 0x80 PUSH1 0x40 MSTORE CALLVALUE DUP1 ISZERO PUSH2 0x10 JUMPI PUSH1 0x0 DUP1 REVERT JUMPDEST POP PUSH1 0x4 CALLDATASIZE LT PUSH2 0x41 JUMPI PUSH1 0x0 CALLDATALOAD PUSH1 0xE0 SHR DUP1 PUSH4 0x35A5E06D EQ PUSH2 0x46 JUMPI DUP1 PUSH4 0xEBF0C717 EQ PUSH2 0x64 JUMPI DUP1 PUSH4 0xF1C621EE EQ PUSH2 0x82 JUMPI JUMPDEST PUSH1 0x0 DUP1 REVERT JUMPDEST PUSH2 0x4E PUSH2 0xB2 JUMP JUMPDEST PUSH1 0x40 MLOAD PUSH2 0x5B SWAP2 SWAP1 PUSH2 0x1FB JUMP JUMPDEST PUSH1 0x40 MLOAD DUP1 SWAP2 SUB SWAP1 RETURN JUMPDEST PUSH2 0x6C PUSH2 0xFD JUMP JUMPDEST PUSH1 0x40 MLOAD PUSH2 0x79 SWAP2 SWAP1 PUSH2 0x226 JUMP JUMPDEST PUSH1 0x40 MLOAD DUP1 SWAP2 SUB SWAP1 RETURN JUMPDEST PUSH2 0x9C PUSH1 0x4 DUP1 CALLDATASIZE SUB DUP2 ADD SWAP1 PUSH2 0x97 SWAP2 SWAP1 PUSH2 0x272 JUMP JUMPDEST PUSH2 0x103 JUMP JUMPDEST PUSH1 0x40 MLOAD PUSH2 0xA9 SWAP2 SWAP1 PUSH2 0x2BA JUMP JUMPDEST PUSH1 0x40 MLOAD DUP1 SWAP2 SUB SWAP1 RETURN JUMPDEST PUSH2 0xBA PUSH2 0x123 JUMP JUMPDEST PUSH1 0x2 PUSH1 0xA DUP1 PUSH1 0x20 MUL PUSH1 0x40 MLOAD SWAP1 DUP2 ADD PUSH1 0x40 MSTORE DUP1 SWAP3 SWAP2 SWAP1 DUP3 PUSH1 0xA DUP1 ISZERO PUSH2 0xF3 JUMPI PUSH1 0x20 MUL DUP3 ADD SWAP2 JUMPDEST DUP2 SLOAD DUP2 MSTORE PUSH1 0x20 ADD SWAP1 PUSH1 0x1 ADD SWAP1 DUP1 DUP4 GT PUSH2 0xDF JUMPI JUMPDEST POP POP POP POP POP SWAP1 POP SWAP1 JUMP JUMPDEST PUSH1 0xC SLOAD DUP2 JUMP JUMPDEST PUSH1 0x4D PUSH1 0x20 MSTORE DUP1 PUSH1 0x0 MSTORE PUSH1 0x40 PUSH1 0x0 KECCAK256 PUSH1 0x0 SWAP2 POP SLOAD SWAP1 PUSH2 0x100 EXP SWAP1 DIV PUSH1 0xFF AND DUP2 JUMP JUMPDEST PUSH1 0x40 MLOAD DUP1 PUSH2 0x140 ADD PUSH1 0x40 MSTORE DUP1 PUSH1 0xA SWAP1 PUSH1 0x20 DUP3 MUL DUP1 CALLDATASIZE DUP4 CALLDATACOPY DUP1 DUP3 ADD SWAP2 POP POP SWAP1 POP POP SWAP1 JUMP JUMPDEST PUSH1 0x0 PUSH1 0xA SWAP1 POP SWAP2 SWAP1 POP JUMP JUMPDEST PUSH1 0x0 DUP2 SWAP1 POP SWAP3 SWAP2 POP POP JUMP JUMPDEST PUSH1 0x0 DUP2 SWAP1 POP SWAP2 SWAP1 POP JUMP JUMPDEST PUSH1 0x0 DUP2 SWAP1 POP SWAP2 SWAP1 POP JUMP JUMPDEST PUSH2 0x179 DUP2 PUSH2 0x166 JUMP JUMPDEST DUP3 MSTORE POP POP JUMP JUMPDEST PUSH1 0x0 PUSH2 0x18B DUP4 DUP4 PUSH2 0x170 JUMP JUMPDEST PUSH1 0x20 DUP4 ADD SWAP1 POP SWAP3 SWAP2 POP POP JUMP JUMPDEST PUSH1 0x0 PUSH1 0x20 DUP3 ADD SWAP1 POP SWAP2 SWAP1 POP JUMP JUMPDEST PUSH2 0x1AD DUP2 PUSH2 0x146 JUMP JUMPDEST PUSH2 0x1B7 DUP2 DUP5 PUSH2 0x151 JUMP JUMPDEST SWAP3 POP PUSH2 0x1C2 DUP3 PUSH2 0x15C JUMP JUMPDEST DUP1 PUSH1 0x0 JUMPDEST DUP4 DUP2 LT ISZERO PUSH2 0x1F3 JUMPI DUP2 MLOAD PUSH2 0x1DA DUP8 DUP3 PUSH2 0x17F JUMP JUMPDEST SWAP7 POP PUSH2 0x1E5 DUP4 PUSH2 0x197 JUMP JUMPDEST SWAP3 POP POP PUSH1 0x1 DUP2 ADD SWAP1 POP PUSH2 0x1C6 JUMP JUMPDEST POP POP POP POP POP POP JUMP JUMPDEST PUSH1 0x0 PUSH2 0x140 DUP3 ADD SWAP1 POP PUSH2 0x211 PUSH1 0x0 DUP4 ADD DUP5 PUSH2 0x1A4 JUMP JUMPDEST SWAP3 SWAP2 POP POP JUMP JUMPDEST PUSH2 0x220 DUP2 PUSH2 0x166 JUMP JUMPDEST DUP3 MSTORE POP POP JUMP JUMPDEST PUSH1 0x0 PUSH1 0x20 DUP3 ADD SWAP1 POP PUSH2 0x23B PUSH1 0x0 DUP4 ADD DUP5 PUSH2 0x217 JUMP JUMPDEST SWAP3 SWAP2 POP POP JUMP JUMPDEST PUSH1 0x0 DUP1 REVERT JUMPDEST PUSH2 0x24F DUP2 PUSH2 0x166 JUMP JUMPDEST DUP2 EQ PUSH2 0x25A JUMPI PUSH1 0x0 DUP1 REVERT JUMPDEST POP JUMP JUMPDEST PUSH1 0x0 DUP2 CALLDATALOAD SWAP1 POP PUSH2 0x26C DUP2 PUSH2 0x246 JUMP JUMPDEST SWAP3 SWAP2 POP POP JUMP JUMPDEST PUSH1 0x0 PUSH1 0x20 DUP3 DUP5 SUB SLT ISZERO PUSH2 0x288 JUMPI PUSH2 0x287 PUSH2 0x241 JUMP JUMPDEST JUMPDEST PUSH1 0x0 PUSH2 0x296 DUP5 DUP3 DUP6 ADD PUSH2 0x25D JUMP JUMPDEST SWAP2 POP POP SWAP3 SWAP2 POP POP JUMP JUMPDEST PUSH1 0x0 DUP2 ISZERO ISZERO SWAP1 POP SWAP2 SWAP1 POP JUMP JUMPDEST PUSH2 0x2B4 DUP2 PUSH2 0x29F JUMP JUMPDEST DUP3 MSTORE POP POP JUMP JUMPDEST PUSH1 0x0 PUSH1 0x20 DUP3 ADD SWAP1 POP PUSH2 0x2CF PUSH1 0x0 DUP4 ADD DUP5 PUSH2 0x2AB JUMP JUMPDEST SWAP3 SWAP2 POP POP JUMP INVALID LOG2 PUSH5 0x6970667358 0x22 SLT KECCAK256 STATICCALL 0xBD PUSH3 0xCA6524 0xAE 0xDE 0xEC CALLDATACOPY 0xA5 0x2A JUMPI 0x5F PUSH22 0x2770B5C1744639BD1200D2D833E5929F0F64736F6C63 NUMBER STOP ADDMOD EXP STOP CALLER "},"methodIdentifiers":{"getRoots()":"35a5e06d","root()":"ebf0c717","rootHistory(uint256)":"f1c621ee"}}}}}