{"contracts/Semaphore.sol":{"Semaphore":{"abi":[{"inputs":[{"internalType":"uint8","name":"_treeLevels","type":"uint8"},{"internalType":"uint232","name":"_firstExternalNullifier","type":"uint232"}],"stateMutability":"nonpayable","type":"constructor"},{"anonymous":false,"inputs":[{"indexed":true,"internalType":"uint232","name":"externalNullifier","type":"uint232"}],"name":"ExternalNullifierAdd","type":"event"},{"anonymous":false,"inputs":[{"indexed":true,"internalType":"uint232","name":"externalNullifier","type":"uint232"},{"indexed":true,"internalType":"bool","name":"active","type":"bool"}],"name":"ExternalNullifierChangeStatus","type":"event"},{"anonymous":false,"inputs":[{"indexed":true,"internalType":"uint256","name":"identityCommitment","type":"uint256"}],"name":"IdentityCommitment","type":"event"},{"anonymous":false,"inputs":[{"indexed":true,"internalType":"uint256","name":"leaf","type":"uint256"},{"indexed":true,"internalType":"uint256","name":"leafIndex","type":"uint256"}],"name":"LeafInsertion","type":"event"},{"anonymous":false,"inputs":[{"indexed":false,"internalType":"uint256","name":"root","type":"uint256"}],"name":"NewRoot","type":"event"},{"anonymous":false,"inputs":[{"indexed":true,"internalType":"address","name":"previousOwner","type":"address"},{"indexed":true,"internalType":"address","name":"newOwner","type":"address"}],"name":"OwnershipTransferred","type":"event"},{"anonymous":false,"inputs":[{"indexed":true,"internalType":"bool","name":"newPermission","type":"bool"}],"name":"PermissionSet","type":"event"},{"anonymous":false,"inputs":[{"indexed":false,"internalType":"uint256","name":"root","type":"uint256"}],"name":"RootRoot","type":"event"},{"inputs":[],"name":"NOTHING_UP_MY_SLEEVE_ZERO","outputs":[{"internalType":"uint256","name":"","type":"uint256"}],"stateMutability":"view","type":"function"},{"inputs":[{"internalType":"uint232","name":"_externalNullifier","type":"uint232"}],"name":"addExternalNullifier","outputs":[],"stateMutability":"nonpayable","type":"function"},{"inputs":[{"internalType":"bytes","name":"_signal","type":"bytes"},{"internalType":"uint256[8]","name":"_proof","type":"uint256[8]"},{"internalType":"uint256","name":"_root","type":"uint256"},{"internalType":"uint256","name":"_nullifiersHash","type":"uint256"},{"internalType":"uint232","name":"_externalNullifier","type":"uint232"}],"name":"broadcastSignal","outputs":[],"stateMutability":"nonpayable","type":"function"},{"inputs":[{"internalType":"uint232","name":"_externalNullifier","type":"uint232"}],"name":"deactivateExternalNullifier","outputs":[],"stateMutability":"nonpayable","type":"function"},{"inputs":[{"internalType":"uint232","name":"","type":"uint232"}],"name":"externalNullifierLinkedList","outputs":[{"internalType":"uint232","name":"next","type":"uint232"},{"internalType":"bool","name":"exists","type":"bool"},{"internalType":"bool","name":"isActive","type":"bool"}],"stateMutability":"view","type":"function"},{"inputs":[],"name":"firstExternalNullifier","outputs":[{"internalType":"uint232","name":"","type":"uint232"}],"stateMutability":"view","type":"function"},{"inputs":[{"internalType":"uint232","name":"_externalNullifier","type":"uint232"}],"name":"getNextExternalNullifier","outputs":[{"internalType":"uint232","name":"","type":"uint232"}],"stateMutability":"view","type":"function"},{"inputs":[],"name":"getNumIdentityCommitments","outputs":[{"internalType":"uint256","name":"","type":"uint256"}],"stateMutability":"view","type":"function"},{"inputs":[],"name":"getRoots","outputs":[{"internalType":"uint256[10]","name":"","type":"uint256[10]"}],"stateMutability":"view","type":"function"},{"inputs":[{"internalType":"uint256","name":"_identityCommitment","type":"uint256"}],"name":"insertIdentity","outputs":[{"internalType":"uint256","name":"","type":"uint256"}],"stateMutability":"nonpayable","type":"function"},{"inputs":[],"name":"isBroadcastPermissioned","outputs":[{"internalType":"bool","name":"","type":"bool"}],"stateMutability":"view","type":"function"},{"inputs":[{"internalType":"uint232","name":"_externalNullifier","type":"uint232"}],"name":"isExternalNullifierActive","outputs":[{"internalType":"bool","name":"","type":"bool"}],"stateMutability":"view","type":"function"},{"inputs":[],"name":"isOwner","outputs":[{"internalType":"bool","name":"","type":"bool"}],"stateMutability":"view","type":"function"},{"inputs":[],"name":"lastExternalNullifier","outputs":[{"internalType":"uint232","name":"","type":"uint232"}],"stateMutability":"view","type":"function"},{"inputs":[{"internalType":"uint256","name":"","type":"uint256"}],"name":"nullifierHashHistory","outputs":[{"internalType":"bool","name":"","type":"bool"}],"stateMutability":"view","type":"function"},{"inputs":[],"name":"numExternalNullifiers","outputs":[{"internalType":"uint256","name":"","type":"uint256"}],"stateMutability":"view","type":"function"},{"inputs":[],"name":"owner","outputs":[{"internalType":"address","name":"","type":"address"}],"stateMutability":"view","type":"function"},{"inputs":[{"internalType":"uint256[2]","name":"_a","type":"uint256[2]"},{"internalType":"uint256[2][2]","name":"_b","type":"uint256[2][2]"},{"internalType":"uint256[2]","name":"_c","type":"uint256[2]"}],"name":"packProof","outputs":[{"internalType":"uint256[8]","name":"","type":"uint256[8]"}],"stateMutability":"pure","type":"function"},{"inputs":[{"internalType":"bytes","name":"_signal","type":"bytes"},{"internalType":"uint256[8]","name":"_proof","type":"uint256[8]"},{"internalType":"uint256","name":"_root","type":"uint256"},{"internalType":"uint256","name":"_nullifiersHash","type":"uint256"},{"internalType":"uint256","name":"_signalHash","type":"uint256"},{"internalType":"uint232","name":"_externalNullifier","type":"uint232"}],"name":"preBroadcastCheck","outputs":[{"internalType":"bool","name":"","type":"bool"}],"stateMutability":"view","type":"function"},{"inputs":[{"internalType":"uint232","name":"_externalNullifier","type":"uint232"}],"name":"reactivateExternalNullifier","outputs":[],"stateMutability":"nonpayable","type":"function"},{"inputs":[],"name":"renounceOwnership","outputs":[],"stateMutability":"nonpayable","type":"function"},{"inputs":[],"name":"root","outputs":[{"internalType":"uint256","name":"","type":"uint256"}],"stateMutability":"view","type":"function"},{"inputs":[{"internalType":"uint256","name":"","type":"uint256"}],"name":"rootHistory","outputs":[{"internalType":"bool","name":"","type":"bool"}],"stateMutability":"view","type":"function"},{"inputs":[{"internalType":"bool","name":"_newPermission","type":"bool"}],"name":"setPermissioning","outputs":[],"stateMutability":"nonpayable","type":"function"},{"inputs":[{"internalType":"address","name":"newOwner","type":"address"}],"name":"transferOwnership","outputs":[],"stateMutability":"nonpayable","type":"function"},{"inputs":[{"internalType":"uint256[8]","name":"_proof","type":"uint256[8]"}],"name":"unpackProof","outputs":[{"internalType":"uint256[2]","name":"","type":"uint256[2]"},{"internalType":"uint256[2][2]","name":"","type":"uint256[2][2]"},{"internalType":"uint256[2]","name":"","type":"uint256[2]"}],"stateMutability":"pure","type":"function"},{"inputs":[{"internalType":"uint256[2]","name":"a","type":"uint256[2]"},{"internalType":"uint256[2][2]","name":"b","type":"uint256[2][2]"},{"internalType":"uint256[2]","name":"c","type":"uint256[2]"},{"internalType":"uint256[4]","name":"input","type":"uint256[4]"}],"name":"verifyProof","outputs":[{"internalType":"bool","name":"r","type":"bool"}],"stateMutability":"view","type":"function"}],"evm":{"bytecode":{"linkReferences":{"contracts/MiMC.sol":{"MiMC":[{"length":20,"start":897},{"length":20,"start":1087},{"length":20,"start":16161},{"length":20,"start":16343}]}},"object":"6080604052600060015560006050556000605160006101000a8154817cffffffffffffffffffffffffffffffffffffffffffffffffffffffffff02191690837cffffffffffffffffffffffffffffffffffffffffffffffffffffffffff1602179055506000605260006101000a8154817cffffffffffffffffffffffffffffffffffffffffffffffffffffffffff02191690837cffffffffffffffffffffffffffffffffffffffffffffffffffffffffff16021790555060016052601d6101000a81548160ff0219169083151502179055507f30644e72e131a029b85045b68181585d2833e84879b9709143e1f593f0000001604051602001620001039062000942565b6040516020818303038152906040528051906020012060001c62000128919062000992565b6054553480156200013857600080fd5b5060405162005f4538038062005f4583398181016040528101906200015e919062000a67565b8160545460008260ff161180156200017d5750602060ff168260ff1611155b620001bf576040517f08c379a0000000000000000000000000000000000000000000000000000000008152600401620001b69062000b35565b60405180910390fd5b816000806101000a81548160ff021916908360ff16021790555080600d600060208110620001f257620001f162000b57565b5b018190555060008190506000600190505b8360ff168160ff161015620002825760006200022683846200037760201b60201c565b905080600d8360ff166020811062000243576200024262000b57565b5b018190555080602d8360ff166020811062000263576200026262000b57565b5b0181905550809250508080620002799062000bb5565b91505062000203565b506200029581826200037760201b60201c565b600c8190555050505033604e60006101000a81548173ffffffffffffffffffffffffffffffffffffffff021916908373ffffffffffffffffffffffffffffffffffffffff160217905550604e60009054906101000a900473ffffffffffffffffffffffffffffffffffffffff1673ffffffffffffffffffffffffffffffffffffffff16600073ffffffffffffffffffffffffffffffffffffffff167f8be0079c531659141344cd1fd0a4f28419497f9722a3daafe3b4186f6b6457e060405160405180910390a36200036f816001620004ce60201b60201c565b505062000dfa565b600080839050600073__$cf5da3090e28b1d67a537682696360513a$__63f47d33b58360006040518363ffffffff1660e01b8152600401620003bb92919062000c42565b6040805180830381865af4158015620003d8573d6000803e3d6000fd5b505050506040513d601f19601f82011682018060405250810190620003fe919062000ca0565b80925081935050507f30644e72e131a029b85045b68181585d2833e84879b9709143e1f593f00000018062000438576200043762000963565b5b848308915073__$cf5da3090e28b1d67a537682696360513a$__63f47d33b583836040518363ffffffff1660e01b81526004016200047892919062000ce7565b6040805180830381865af415801562000495573d6000803e3d6000fd5b505050506040513d601f19601f82011682018060405250810190620004bb919062000ca0565b8092508193505050819250505092915050565b80156200052e5781605160006101000a8154817cffffffffffffffffffffffffffffffffffffffffffffffffffffffffff02191690837cffffffffffffffffffffffffffffffffffffffffffffffffffffffffff160217905550620006aa565b60001515604f6000847cffffffffffffffffffffffffffffffffffffffffffffffffffffffffff167cffffffffffffffffffffffffffffffffffffffffffffffffffffffffff168152602001908152602001600020600001601d9054906101000a900460ff16151514620005d9576040517f08c379a0000000000000000000000000000000000000000000000000000000008152600401620005d09062000d8a565b60405180910390fd5b81604f6000605260009054906101000a90047cffffffffffffffffffffffffffffffffffffffffffffffffffffffffff167cffffffffffffffffffffffffffffffffffffffffffffffffffffffffff167cffffffffffffffffffffffffffffffffffffffffffffffffffffffffff16815260200190815260200160002060000160006101000a8154817cffffffffffffffffffffffffffffffffffffffffffffffffffffffffff02191690837cffffffffffffffffffffffffffffffffffffffffffffffffffffffffff1602179055505b6000604f6000847cffffffffffffffffffffffffffffffffffffffffffffffffffffffffff167cffffffffffffffffffffffffffffffffffffffffffffffffffffffffff16815260200190815260200160002060000160006101000a8154817cffffffffffffffffffffffffffffffffffffffffffffffffffffffffff02191690837cffffffffffffffffffffffffffffffffffffffffffffffffffffffffff1602179055506001604f6000847cffffffffffffffffffffffffffffffffffffffffffffffffffffffffff167cffffffffffffffffffffffffffffffffffffffffffffffffffffffffff168152602001908152602001600020600001601e6101000a81548160ff0219169083151502179055506001604f6000847cffffffffffffffffffffffffffffffffffffffffffffffffffffffffff167cffffffffffffffffffffffffffffffffffffffffffffffffffffffffff168152602001908152602001600020600001601d6101000a81548160ff02191690831515021790555081605260006101000a8154817cffffffffffffffffffffffffffffffffffffffffffffffffffffffffff02191690837cffffffffffffffffffffffffffffffffffffffffffffffffffffffffff16021790555060506000815480929190620008929062000dac565b9190505550817cffffffffffffffffffffffffffffffffffffffffffffffffffffffffff167fd1ca56647596090d70fa8d49bcc376b97248314e3f204c491333b3440405f58960405160405180910390a25050565b600081905092915050565b7f53656d6170686f72650000000000000000000000000000000000000000000000600082015250565b60006200092a600983620008e7565b91506200093782620008f2565b600982019050919050565b60006200094f826200091b565b9150819050919050565b6000819050919050565b7f4e487b7100000000000000000000000000000000000000000000000000000000600052601260045260246000fd5b60006200099f8262000959565b9150620009ac8362000959565b925082620009bf57620009be62000963565b5b828206905092915050565b600080fd5b600060ff82169050919050565b620009e781620009cf565b8114620009f357600080fd5b50565b60008151905062000a0781620009dc565b92915050565b60007cffffffffffffffffffffffffffffffffffffffffffffffffffffffffff82169050919050565b62000a418162000a0d565b811462000a4d57600080fd5b50565b60008151905062000a618162000a36565b92915050565b6000806040838503121562000a815762000a80620009ca565b5b600062000a9185828601620009f6565b925050602062000aa48582860162000a50565b9150509250929050565b600082825260208201905092915050565b7f496e6372656d656e74616c4d65726b6c65547265653a205f747265654c65766560008201527f6c73206d757374206265206265747765656e203020616e642033330000000000602082015250565b600062000b1d603b8362000aae565b915062000b2a8262000abf565b604082019050919050565b6000602082019050818103600083015262000b508162000b0e565b9050919050565b7f4e487b7100000000000000000000000000000000000000000000000000000000600052603260045260246000fd5b7f4e487b7100000000000000000000000000000000000000000000000000000000600052601160045260246000fd5b600062000bc282620009cf565b915060ff82141562000bd95762000bd862000b86565b5b600182019050919050565b62000bef8162000959565b82525050565b6000819050919050565b6000819050919050565b600062000c2a62000c2462000c1e8462000bf5565b62000bff565b62000959565b9050919050565b62000c3c8162000c09565b82525050565b600060408201905062000c59600083018562000be4565b62000c68602083018462000c31565b9392505050565b62000c7a8162000959565b811462000c8657600080fd5b50565b60008151905062000c9a8162000c6f565b92915050565b6000806040838503121562000cba5762000cb9620009ca565b5b600062000cca8582860162000c89565b925050602062000cdd8582860162000c89565b9150509250929050565b600060408201905062000cfe600083018562000be4565b62000d0d602083018462000be4565b9392505050565b7f53656d6170686f72653a2065787465726e616c206e756c6c696669657220616c60008201527f7265616479207365740000000000000000000000000000000000000000000000602082015250565b600062000d7260298362000aae565b915062000d7f8262000d14565b604082019050919050565b6000602082019050818103600083015262000da58162000d63565b9050919050565b600062000db98262000959565b91507fffffffffffffffffffffffffffffffffffffffffffffffffffffffffffffffff82141562000def5762000dee62000b86565b5b600182019050919050565b61513b8062000e0a6000396000f3fe608060405234801561001057600080fd5b50600436106101a95760003560e01c8063819bd8a5116100f9578063c8cf02da11610097578063ebf0c71711610071578063ebf0c717146104d4578063f1c621ee146104f2578063f2fde38b14610522578063f5ab0dd61461053e576101a9565b8063c8cf02da1461046a578063ce85bbdb14610488578063eac4287e146104a4576101a9565b80638f6efd00116100d35780638f6efd00146103ce578063ba10b81d146103ec578063c3a3407f1461040a578063c4cd55961461043a576101a9565b8063819bd8a5146103765780638da5cb5b146103925780638f32d59b146103b0576101a9565b80635d86faba116101665780636d80efca116101405780636d80efca146102ec5780636ebf62651461031c578063715018a61461033a5780637a5519f914610344576101a9565b80635d86faba1461026e5780635e05ea171461028c5780635fe8c13b146102bc576101a9565b80630e57596f146101ae57806323baaa83146101ca578063283ebaf4146101e657806335a5e06d14610204578063539f38b2146102225780635d3ce7251461023e575b600080fd5b6101c860048036038101906101c391906136da565b610570565b005b6101e460048036038101906101df9190613775565b6107a7565b005b6101ee6109b0565b6040516101fb91906137bd565b60405180910390f35b61020c6109c3565b6040516102199190613883565b60405180910390f35b61023c60048036038101906102379190613775565b610a0e565b005b6102586004803603810190610253919061389f565b610a1c565b60405161026591906137bd565b60405180910390f35b610276610b88565b604051610283919061395c565b60405180910390f35b6102a660048036038101906102a19190613ad9565b610bb7565b6040516102b39190613bb1565b60405180910390f35b6102d660048036038101906102d19190613c7e565b610d22565b6040516102e391906137bd565b60405180910390f35b61030660048036038101906103019190613ce7565b6113f7565b6040516103139190613d23565b60405180910390f35b61032461147b565b6040516103319190613d23565b60405180910390f35b610342611481565b005b61035e60048036038101906103599190613775565b611589565b60405161036d93929190613d3e565b60405180910390f35b610390600480360381019061038b9190613775565b6115f6565b005b61039a6117ff565b6040516103a79190613db6565b60405180910390f35b6103b8611829565b6040516103c591906137bd565b60405180910390f35b6103d6611881565b6040516103e39190613d23565b60405180910390f35b6103f4611887565b6040516104019190613d23565b60405180910390f35b610424600480360381019061041f9190613775565b611891565b604051610431919061395c565b60405180910390f35b610454600480360381019061044f9190613ce7565b611a6e565b60405161046191906137bd565b60405180910390f35b610472611a8e565b60405161047f919061395c565b60405180910390f35b6104a2600480360381019061049d9190613dfd565b611abd565b005b6104be60048036038101906104b99190613775565b611b09565b6040516104cb91906137bd565b60405180910390f35b6104dc611b74565b6040516104e99190613d23565b60405180910390f35b61050c60048036038101906105079190613ce7565b611b7a565b60405161051991906137bd565b60405180910390f35b61053c60048036038101906105379190613e56565b611b9a565b005b61055860048036038101906105539190613e83565b611bed565b60405161056793929190614033565b60405180910390f35b848484848461057e84611d39565b6105bd576040517f08c379a00000000000000000000000000000000000000000000000000000000081526004016105b4906140ee565b60405180910390fd5b600015156053600084815260200190815260200160002060009054906101000a900460ff16151514610624576040517f08c379a000000000000000000000000000000000000000000000000000000000815260040161061b90614180565b60405180910390fd5b61062d81611b09565b61066c576040517f08c379a000000000000000000000000000000000000000000000000000000000815260040161066390614212565b60405180910390fd5b7fd0be6067448f25771ec845586f8e534829698cec02e5acedf5334d188b57681e8360405161069b9190613d23565b60405180910390a160006106ae86611f52565b90507f30644e72e131a029b85045b68181585d2833e84879b9709143e1f593f00000018310610712576040517f08c379a0000000000000000000000000000000000000000000000000000000008152600401610709906142a4565b60405180910390fd5b60006040518060800160405280868152602001858152602001838152602001847cffffffffffffffffffffffffffffffffffffffffffffffffffffffffff168152509050600080600061076489611bed565b9250925092506001605360008e815260200190815260200160002060006101000a81548160ff021916908315150217905550505050505050505050505050505050565b604f6000827cffffffffffffffffffffffffffffffffffffffffffffffffffffffffff167cffffffffffffffffffffffffffffffffffffffffffffffffffffffffff168152602001908152602001600020600001601d9054906101000a900460ff16610848576040517f08c379a000000000000000000000000000000000000000000000000000000000815260040161083f90614212565b60405180910390fd5b60011515604f6000837cffffffffffffffffffffffffffffffffffffffffffffffffffffffffff167cffffffffffffffffffffffffffffffffffffffffffffffffffffffffff168152602001908152602001600020600001601e9054906101000a900460ff161515146108f0576040517f08c379a00000000000000000000000000000000000000000000000000000000081526004016108e790614336565b60405180910390fd5b6000604f6000837cffffffffffffffffffffffffffffffffffffffffffffffffffffffffff167cffffffffffffffffffffffffffffffffffffffffffffffffffffffffff168152602001908152602001600020600001601e6101000a81548160ff02191690831515021790555060001515817cffffffffffffffffffffffffffffffffffffffffffffffffffffffffff167fb8d2b8a2b352df7f139810483b3c80fc3a4a88711c90bdb7180f1030b7f49acf60405160405180910390a350565b6052601d9054906101000a900460ff1681565b6109cb613257565b6002600a806020026040519081016040528092919082600a8015610a04576020028201915b8154815260200190600101908083116109f0575b5050505050905090565b610a19816000611f6a565b50565b6000806040518060800160405280878152602001868152602001858152602001847cffffffffffffffffffffffffffffffffffffffffffffffffffffffffff1681525090506000806000610a6f8a611bed565b92509250925060001515605360008a815260200190815260200160002060009054906101000a900460ff161515148015610ab0575086610aae8c611f52565b145b8015610ac35750610ac08b611f52565b87145b8015610ad45750610ad386611b09565b5b8015610afd5750604d60008a815260200190815260200160002060009054906101000a900460ff165b8015610b0e5750610b0d8a611d39565b5b8015610b3957507f30644e72e131a029b85045b68181585d2833e84879b9709143e1f593f000000189105b8015610b6457507f30644e72e131a029b85045b68181585d2833e84879b9709143e1f593f000000188105b8015610b785750610b7783838387610d22565b5b9450505050509695505050505050565b605160009054906101000a90047cffffffffffffffffffffffffffffffffffffffffffffffffffffffffff1681565b610bbf61327a565b60405180610100016040528085600060028110610bdf57610bde614356565b5b6020020151815260200185600160028110610bfd57610bfc614356565b5b6020020151815260200184600060028110610c1b57610c1a614356565b5b6020020151600060028110610c3357610c32614356565b5b6020020151815260200184600060028110610c5157610c50614356565b5b6020020151600160028110610c6957610c68614356565b5b6020020151815260200184600160028110610c8757610c86614356565b5b6020020151600060028110610c9f57610c9e614356565b5b6020020151815260200184600160028110610cbd57610cbc614356565b5b6020020151600160028110610cd557610cd4614356565b5b6020020151815260200183600060028110610cf357610cf2614356565b5b6020020151815260200183600160028110610d1157610d10614356565b5b602002015181525090509392505050565b6000610d2c61329d565b604051806040016040528087600060028110610d4b57610d4a614356565b5b6020020151815260200187600160028110610d6957610d68614356565b5b602002015181525081600001819052506040518060400160405280604051806040016040528088600060028110610da357610da2614356565b5b6020020151600060028110610dbb57610dba614356565b5b6020020151815260200188600060028110610dd957610dd8614356565b5b6020020151600160028110610df157610df0614356565b5b60200201518152508152602001604051806040016040528088600160028110610e1d57610e1c614356565b5b6020020151600060028110610e3557610e34614356565b5b6020020151815260200188600160028110610e5357610e52614356565b5b6020020151600160028110610e6b57610e6a614356565b5b60200201518152508152508160200181905250604051806040016040528085600060028110610e9d57610e9c614356565b5b6020020151815260200185600160028110610ebb57610eba614356565b5b602002015181525081604001819052506000610ed561237c565b90506000604051806040016040528060008152602001600081525090507f30644e72e131a029b85045b68181585d97816a916871ca8d3c208c16d87cfd4783600001516000015110610f5c576040517f08c379a0000000000000000000000000000000000000000000000000000000008152600401610f53906143d1565b60405180910390fd5b7f30644e72e131a029b85045b68181585d97816a916871ca8d3c208c16d87cfd4783600001516020015110610fc6576040517f08c379a0000000000000000000000000000000000000000000000000000000008152600401610fbd9061443d565b60405180910390fd5b7f30644e72e131a029b85045b68181585d97816a916871ca8d3c208c16d87cfd4783602001516000015160006002811061100357611002614356565b5b602002015110611048576040517f08c379a000000000000000000000000000000000000000000000000000000000815260040161103f906144a9565b60405180910390fd5b7f30644e72e131a029b85045b68181585d97816a916871ca8d3c208c16d87cfd4783602001516020015160006002811061108557611084614356565b5b6020020151106110ca576040517f08c379a00000000000000000000000000000000000000000000000000000000081526004016110c190614515565b60405180910390fd5b7f30644e72e131a029b85045b68181585d97816a916871ca8d3c208c16d87cfd4783602001516000015160016002811061110757611106614356565b5b60200201511061114c576040517f08c379a000000000000000000000000000000000000000000000000000000000815260040161114390614581565b60405180910390fd5b7f30644e72e131a029b85045b68181585d97816a916871ca8d3c208c16d87cfd4783602001516020015160016002811061118957611188614356565b5b6020020151106111ce576040517f08c379a00000000000000000000000000000000000000000000000000000000081526004016111c5906145ed565b60405180910390fd5b7f30644e72e131a029b85045b68181585d97816a916871ca8d3c208c16d87cfd4783604001516000015110611238576040517f08c379a000000000000000000000000000000000000000000000000000000000815260040161122f90614659565b60405180910390fd5b7f30644e72e131a029b85045b68181585d97816a916871ca8d3c208c16d87cfd47836040015160200151106112a2576040517f08c379a0000000000000000000000000000000000000000000000000000000008152600401611299906146c5565b60405180910390fd5b60005b600481101561138d577f30644e72e131a029b85045b68181585d2833e84879b9709143e1f593f00000018682600481106112e2576112e1614356565b5b602002015110611327576040517f08c379a000000000000000000000000000000000000000000000000000000000815260040161131e90614731565b60405180910390fd5b6113788261137385608001516001856113409190614780565b6005811061135157611350614356565b5b602002015189856004811061136957611368614356565b5b602002015161287b565b6128f4565b91508080611385906147d6565b9150506112a5565b506113b48183608001516000600581106113aa576113a9614356565b5b60200201516128f4565b90506113ea6113c68460000151612993565b84602001518460000151856020015185876040015189604001518960600151612a51565b9350505050949350505050565b600060545482141561143e576040517f08c379a0000000000000000000000000000000000000000000000000000000008152600401611435906148b7565b60405180910390fd5b817f31d0d431762af1b333d4fef318e03efc7b702fe91dd1f0aa2c72e699bebcb48960405160405180910390a261147482612d65565b9050919050565b60545481565b611489611829565b6114c8576040517f08c379a00000000000000000000000000000000000000000000000000000000081526004016114bf90614923565b60405180910390fd5b600073ffffffffffffffffffffffffffffffffffffffff16604e60009054906101000a900473ffffffffffffffffffffffffffffffffffffffff1673ffffffffffffffffffffffffffffffffffffffff167f8be0079c531659141344cd1fd0a4f28419497f9722a3daafe3b4186f6b6457e060405160405180910390a36000604e60006101000a81548173ffffffffffffffffffffffffffffffffffffffff021916908373ffffffffffffffffffffffffffffffffffffffff160217905550565b604f6020528060005260406000206000915090508060000160009054906101000a90047cffffffffffffffffffffffffffffffffffffffffffffffffffffffffff169080600001601d9054906101000a900460ff169080600001601e9054906101000a900460ff16905083565b604f6000827cffffffffffffffffffffffffffffffffffffffffffffffffffffffffff167cffffffffffffffffffffffffffffffffffffffffffffffffffffffffff168152602001908152602001600020600001601d9054906101000a900460ff16611697576040517f08c379a000000000000000000000000000000000000000000000000000000000815260040161168e90614212565b60405180910390fd5b60001515604f6000837cffffffffffffffffffffffffffffffffffffffffffffffffffffffffff167cffffffffffffffffffffffffffffffffffffffffffffffffffffffffff168152602001908152602001600020600001601e9054906101000a900460ff1615151461173f576040517f08c379a0000000000000000000000000000000000000000000000000000000008152600401611736906149b5565b60405180910390fd5b6001604f6000837cffffffffffffffffffffffffffffffffffffffffffffffffffffffffff167cffffffffffffffffffffffffffffffffffffffffffffffffffffffffff168152602001908152602001600020600001601e6101000a81548160ff02191690831515021790555060011515817cffffffffffffffffffffffffffffffffffffffffffffffffffffffffff167fb8d2b8a2b352df7f139810483b3c80fc3a4a88711c90bdb7180f1030b7f49acf60405160405180910390a350565b6000604e60009054906101000a900473ffffffffffffffffffffffffffffffffffffffff16905090565b6000604e60009054906101000a900473ffffffffffffffffffffffffffffffffffffffff1673ffffffffffffffffffffffffffffffffffffffff163373ffffffffffffffffffffffffffffffffffffffff1614905090565b60505481565b6000600154905090565b6000604f6000837cffffffffffffffffffffffffffffffffffffffffffffffffffffffffff167cffffffffffffffffffffffffffffffffffffffffffffffffffffffffff168152602001908152602001600020600001601d9054906101000a900460ff16611934576040517f08c379a000000000000000000000000000000000000000000000000000000000815260040161192b90614a47565b60405180910390fd5b6000604f6000847cffffffffffffffffffffffffffffffffffffffffffffffffffffffffff167cffffffffffffffffffffffffffffffffffffffffffffffffffffffffff16815260200190815260200160002060000160009054906101000a90047cffffffffffffffffffffffffffffffffffffffffffffffffffffffffff1690506001605054118015611a265750604f6000827cffffffffffffffffffffffffffffffffffffffffffffffffffffffffff167cffffffffffffffffffffffffffffffffffffffffffffffffffffffffff168152602001908152602001600020600001601d9054906101000a900460ff165b611a65576040517f08c379a0000000000000000000000000000000000000000000000000000000008152600401611a5c90614ad9565b60405180910390fd5b80915050919050565b60536020528060005260406000206000915054906101000a900460ff1681565b605260009054906101000a90047cffffffffffffffffffffffffffffffffffffffffffffffffffffffffff1681565b806052601d6101000a81548160ff0219169083151502179055508015157ffba91b9002bc7732a7bff1b44ee16a30ebaeb06d7921779034c6a6ab27e69c2760405160405180910390a250565b6000604f6000837cffffffffffffffffffffffffffffffffffffffffffffffffffffffffff167cffffffffffffffffffffffffffffffffffffffffffffffffffffffffff168152602001908152602001600020600001601e9054906101000a900460ff169050919050565b600c5481565b604d6020528060005260406000206000915054906101000a900460ff1681565b611ba2611829565b611be1576040517f08c379a0000000000000000000000000000000000000000000000000000000008152600401611bd890614923565b60405180910390fd5b611bea81612fdd565b50565b611bf56132d0565b611bfd6132f2565b611c056132d0565b604051806040016040528085600060088110611c2457611c23614356565b5b6020020151815260200185600160088110611c4257611c41614356565b5b60200201518152506040518060400160405280604051806040016040528088600260088110611c7457611c73614356565b5b6020020151815260200188600360088110611c9257611c91614356565b5b60200201518152508152602001604051806040016040528088600460088110611cbe57611cbd614356565b5b6020020151815260200188600560088110611cdc57611cdb614356565b5b6020020151815250815250604051806040016040528087600660088110611d0657611d05614356565b5b6020020151815260200187600760088110611d2457611d23614356565b5b60200201518152509250925092509193909250565b60007f30644e72e131a029b85045b68181585d2833e84879b9709143e1f593f000000182600060088110611d7057611d6f614356565b5b6020020151108015611db957507f30644e72e131a029b85045b68181585d2833e84879b9709143e1f593f000000182600160088110611db257611db1614356565b5b6020020151105b8015611dfc57507f30644e72e131a029b85045b68181585d2833e84879b9709143e1f593f000000182600260088110611df557611df4614356565b5b6020020151105b8015611e3f57507f30644e72e131a029b85045b68181585d2833e84879b9709143e1f593f000000182600360088110611e3857611e37614356565b5b6020020151105b8015611e8257507f30644e72e131a029b85045b68181585d2833e84879b9709143e1f593f000000182600460088110611e7b57611e7a614356565b5b6020020151105b8015611ec557507f30644e72e131a029b85045b68181585d2833e84879b9709143e1f593f000000182600560088110611ebe57611ebd614356565b5b6020020151105b8015611f0857507f30644e72e131a029b85045b68181585d2833e84879b9709143e1f593f000000182600660088110611f0157611f00614356565b5b6020020151105b8015611f4b57507f30644e72e131a029b85045b68181585d2833e84879b9709143e1f593f000000182600760088110611f4457611f43614356565b5b6020020151105b9050919050565b60006008828051906020012060001c901c9050919050565b8015611fc85781605160006101000a8154817cffffffffffffffffffffffffffffffffffffffffffffffffffffffffff02191690837cffffffffffffffffffffffffffffffffffffffffffffffffffffffffff160217905550612141565b60001515604f6000847cffffffffffffffffffffffffffffffffffffffffffffffffffffffffff167cffffffffffffffffffffffffffffffffffffffffffffffffffffffffff168152602001908152602001600020600001601d9054906101000a900460ff16151514612070576040517f08c379a000000000000000000000000000000000000000000000000000000000815260040161206790614b6b565b60405180910390fd5b81604f6000605260009054906101000a90047cffffffffffffffffffffffffffffffffffffffffffffffffffffffffff167cffffffffffffffffffffffffffffffffffffffffffffffffffffffffff167cffffffffffffffffffffffffffffffffffffffffffffffffffffffffff16815260200190815260200160002060000160006101000a8154817cffffffffffffffffffffffffffffffffffffffffffffffffffffffffff02191690837cffffffffffffffffffffffffffffffffffffffffffffffffffffffffff1602179055505b6000604f6000847cffffffffffffffffffffffffffffffffffffffffffffffffffffffffff167cffffffffffffffffffffffffffffffffffffffffffffffffffffffffff16815260200190815260200160002060000160006101000a8154817cffffffffffffffffffffffffffffffffffffffffffffffffffffffffff02191690837cffffffffffffffffffffffffffffffffffffffffffffffffffffffffff1602179055506001604f6000847cffffffffffffffffffffffffffffffffffffffffffffffffffffffffff167cffffffffffffffffffffffffffffffffffffffffffffffffffffffffff168152602001908152602001600020600001601e6101000a81548160ff0219169083151502179055506001604f6000847cffffffffffffffffffffffffffffffffffffffffffffffffffffffffff167cffffffffffffffffffffffffffffffffffffffffffffffffffffffffff168152602001908152602001600020600001601d6101000a81548160ff02191690831515021790555081605260006101000a8154817cffffffffffffffffffffffffffffffffffffffffffffffffffffffffff02191690837cffffffffffffffffffffffffffffffffffffffffffffffffffffffffff16021790555060506000815480929190612327906147d6565b9190505550817cffffffffffffffffffffffffffffffffffffffffffffffffffffffffff167fd1ca56647596090d70fa8d49bcc376b97248314e3f204c491333b3440405f58960405160405180910390a25050565b61238461331f565b60405180604001604052807f2aeb4aafb1c7a3e1445536842c9d8225ebd94a09d15cda4e17d944add94ede4781526020017f03ab549390940a14a8d8d3fe3f6ecb68195432778936e617d914f14d1df035798152508160000181905250604051806040016040528060405180604001604052807f2fd95a27d1b9d966bb3ae847506bfc2ffa3e5c945f4502cf0f10dfd658960f9481526020017f167a6701c17cc2734e919e79f59f110b511f1ff811a06fd840949416d10ddafc815250815260200160405180604001604052807f02b4c85ab8a8fbe2d979af025230a96c10e07c5e4163fc7d633ba083fc44f9ee81526020017f303ca2757a59cbf0e0bbdb8f1712f29e3e804cd258e18aca0da7f6bd7136e8068152508152508160200181905250604051806040016040528060405180604001604052807f0fa9bb662fc3acd975ee36a6ea2c0c709c3a75303345702acaf0d845428f932b81526020017f2f2d53e983b994de7cac84d565b30b457f11273ff5a898ce80c9fd66bdf9e075815250815260200160405180604001604052807f2d1f4da8e0f4d49c61fd3ec22a104df1a5159b1e329b3506354559ebafff080181526020017f2ff6e55d56bb54b32d728131475c6ca6d7a92cc6b82bfcd59311c765e7edcb458152508152508160400181905250604051806040016040528060405180604001604052807f23511787419db90d2bad3c8bfbac9f4398c26cd6cd34bb5276c2cd94b7b7d26f81526020017f17e0c1843c4ec925cf3d09b051978f5f23d1d166117d572f38dbd874126dead5815250815260200160405180604001604052807f06e374c176a74bf3d0c0329b9d03b53693d77f928cd1fc4c6f6053ec00f2ca2581526020017f2d832fd3933c30f159e18dbe33bc7496240cc22bcece79faf02388e5bd366a21815250815250816060018190525060405180604001604052807f2174881f2cb4aee5292b2f603cb183bf301d263b1a11c7ec22585fec00ecce9881526020017e3e5e75ec133240c640391a4cb8a18e2fbc4f6336e6b6693643735d5c623087815250816080015160006005811061269c5761269b614356565b5b602002018190525060405180604001604052807f1664a7bd963677623594fb978543aceb4fc3576b0f976c519a22bdbca62226c381526020017f0e28ccde23de1c2f78b1d8d35660f7014f391e354756aad1f5f75d159cfab652815250816080015160016005811061271157612710614356565b5b602002018190525060405180604001604052807f17439f723025a06c170891f82daf6fbf4fe30c3824d1b0820262e7ee632bd62d81526020017f0a74bd079e9f728a7c5dc31ea3c7c43e978be8921a351b9de0df3cfb2f601855815250816080015160026005811061278657612785614356565b5b602002018190525060405180604001604052807f274660c30271883b25933fc39f835337bafcb604536af04f6264fe96a7b32d5181526020017f27e6947d2ab1e5b87fa5e0b4fe610ee7a623bdf4e0225e249c6a3446af5085b581525081608001516003600581106127fb576127fa614356565b5b602002018190525060405180604001604052807f108ba5cc069e7368567294f740794f36d4c7d99d40dd667fe5dd544967bdc9a981526020017f2175417a3760110f546c7f7f30d3195d766cbe31f34013b45322ff7fd974635c81525081608001516004600581106128705761286f614356565b5b602002018190525090565b61288361336c565b61288b613386565b8360000151816000600381106128a4576128a3614356565b5b6020020181815250508360200151816001600381106128c6576128c5614356565b5b60200201818152505082816002600381106128e4576128e3614356565b5b6020020181815250505092915050565b6128fc61336c565b6129046133a8565b83600001518160006004811061291d5761291c614356565b5b60200201818152505083602001518160016004811061293f5761293e614356565b5b60200201818152505082600001518160026004811061296157612960614356565b5b60200201818152505082602001518160036004811061298357612982614356565b5b6020020181815250505092915050565b61299b61336c565b600082600001511480156129b3575060008260200151145b156129d65760405180604001604052806000815260200160008152509050612a4c565b6040518060400160405280836000015181526020017f30644e72e131a029b85045b68181585d97816a916871ca8d3c208c16d87cfd478460200151612a1b9190614bba565b7f30644e72e131a029b85045b68181585d97816a916871ca8d3c208c16d87cfd47612a469190614beb565b81525090505b919050565b60008060405180608001604052808b8152602001898152602001878152602001858152509050600060405180608001604052808b815260200189815260200187815260200185815250905060006018905060008167ffffffffffffffff811115612abe57612abd61346e565b5b604051908082528060200260200182016040528015612aec5781602001602082028036833780820191505090505b50905060005b6004811015612d2a576000600682612b0a9190614c1f565b9050858260048110612b1f57612b1e614356565b5b60200201516000015183600083612b369190614780565b81518110612b4757612b46614356565b5b602002602001018181525050858260048110612b6657612b65614356565b5b60200201516020015183600183612b7d9190614780565b81518110612b8e57612b8d614356565b5b602002602001018181525050848260048110612bad57612bac614356565b5b602002015160000151600060028110612bc957612bc8614356565b5b602002015183600283612bdc9190614780565b81518110612bed57612bec614356565b5b602002602001018181525050848260048110612c0c57612c0b614356565b5b602002015160000151600160028110612c2857612c27614356565b5b602002015183600383612c3b9190614780565b81518110612c4c57612c4b614356565b5b602002602001018181525050848260048110612c6b57612c6a614356565b5b602002015160200151600060028110612c8757612c86614356565b5b602002015183600483612c9a9190614780565b81518110612cab57612caa614356565b5b602002602001018181525050848260048110612cca57612cc9614356565b5b602002015160200151600160028110612ce657612ce5614356565b5b602002015183600583612cf99190614780565b81518110612d0a57612d09614356565b5b602002602001018181525050508080612d22906147d6565b915050612af2565b50612d336133ca565b60008082600060018110612d4a57612d49614356565b5b60200201511415965050505050505098975050505050505050565b60007f30644e72e131a029b85045b68181585d2833e84879b9709143e1f593f00000018210612dc9576040517f08c379a0000000000000000000000000000000000000000000000000000000008152600401612dc090614d11565b60405180910390fd5b6000600154905060008060009054906101000a900460ff1660ff169050806002612df39190614e64565b8210612e34576040517f08c379a0000000000000000000000000000000000000000000000000000000008152600401612e2b90614f21565b60405180910390fd5b600084905060008060005b60008054906101000a900460ff1660ff168160ff161015612ef4576000600287612e699190614bba565b1415612eaf57839250600d8160ff1660208110612e8957612e88614356565b5b0154915083602d8260ff1660208110612ea557612ea4614356565b5b0181905550612ece565b602d8160ff1660208110612ec657612ec5614356565b5b015492508391505b612ed8838361310d565b9350600186901c95508080612eec90614f4e565b915050612e3f565b5082600c819055506001604d6000600c54815260200190815260200160002060006101000a81548160ff0219169083151502179055507f798104477dcefe17a2ff5ed9af618d9b254ea90608948f8da0fbbad00c44a937600c54604051612f5b9190613d23565b60405180910390a1600c546002600154600a8110612f7c57612f7b614356565b5b0181905550600060015490506001806000828254612f9a9190614780565b9250508190555080887fe6f49fa84abd31919f446b22a52bb3ceae774b4b87f062f022fec45c46f4f45860405160405180910390a3859650505050505050919050565b600073ffffffffffffffffffffffffffffffffffffffff168173ffffffffffffffffffffffffffffffffffffffff16141561304d576040517f08c379a000000000000000000000000000000000000000000000000000000000815260040161304490614fea565b60405180910390fd5b8073ffffffffffffffffffffffffffffffffffffffff16604e60009054906101000a900473ffffffffffffffffffffffffffffffffffffffff1673ffffffffffffffffffffffffffffffffffffffff167f8be0079c531659141344cd1fd0a4f28419497f9722a3daafe3b4186f6b6457e060405160405180910390a380604e60006101000a81548173ffffffffffffffffffffffffffffffffffffffff021916908373ffffffffffffffffffffffffffffffffffffffff16021790555050565b600080839050600073__$cf5da3090e28b1d67a537682696360513a$__63f47d33b58360006040518363ffffffff1660e01b815260040161314f92919061505e565b6040805180830381865af415801561316b573d6000803e3d6000fd5b505050506040513d601f19601f8201168201806040525081019061318f919061509c565b80925081935050507f30644e72e131a029b85045b68181585d2833e84879b9709143e1f593f0000001806131c6576131c5614b8b565b5b848308915073__$cf5da3090e28b1d67a537682696360513a$__63f47d33b583836040518363ffffffff1660e01b81526004016132049291906150dc565b6040805180830381865af4158015613220573d6000803e3d6000fd5b505050506040513d601f19601f82011682018060405250810190613244919061509c565b8092508193505050819250505092915050565b604051806101400160405280600a90602082028036833780820191505090505090565b604051806101000160405280600890602082028036833780820191505090505090565b60405180606001604052806132b061336c565b81526020016132bd6133ec565b81526020016132ca61336c565b81525090565b6040518060400160405280600290602082028036833780820191505090505090565b60405180604001604052806002905b6133096132d0565b8152602001906001900390816133015790505090565b6040518060a0016040528061333261336c565b815260200161333f6133ec565b815260200161334c6133ec565b81526020016133596133ec565b8152602001613366613412565b81525090565b604051806040016040528060008152602001600081525090565b6040518060600160405280600390602082028036833780820191505090505090565b6040518060800160405280600490602082028036833780820191505090505090565b6040518060200160405280600190602082028036833780820191505090505090565b60405180604001604052806133ff6132d0565b815260200161340c6132d0565b81525090565b6040518060a001604052806005905b61342961336c565b8152602001906001900390816134215790505090565b6000604051905090565b600080fd5b600080fd5b600080fd5b600080fd5b6000601f19601f8301169050919050565b7f4e487b7100000000000000000000000000000000000000000000000000000000600052604160045260246000fd5b6134a68261345d565b810181811067ffffffffffffffff821117156134c5576134c461346e565b5b80604052505050565b60006134d861343f565b90506134e4828261349d565b919050565b600067ffffffffffffffff8211156135045761350361346e565b5b61350d8261345d565b9050602081019050919050565b82818337600083830152505050565b600061353c613537846134e9565b6134ce565b90508281526020810184848401111561355857613557613458565b5b61356384828561351a565b509392505050565b600082601f8301126135805761357f613453565b5b8135613590848260208601613529565b91505092915050565b600067ffffffffffffffff8211156135b4576135b361346e565b5b602082029050919050565b600080fd5b6000819050919050565b6135d7816135c4565b81146135e257600080fd5b50565b6000813590506135f4816135ce565b92915050565b600061360d61360884613599565b6134ce565b90508060208402830185811115613627576136266135bf565b5b835b81811015613650578061363c88826135e5565b845260208401935050602081019050613629565b5050509392505050565b600082601f83011261366f5761366e613453565b5b600861367c8482856135fa565b91505092915050565b60007cffffffffffffffffffffffffffffffffffffffffffffffffffffffffff82169050919050565b6136b781613685565b81146136c257600080fd5b50565b6000813590506136d4816136ae565b92915050565b600080600080600061018086880312156136f7576136f6613449565b5b600086013567ffffffffffffffff8111156137155761371461344e565b5b6137218882890161356b565b95505060206137328882890161365a565b945050610120613744888289016135e5565b935050610140613756888289016135e5565b925050610160613768888289016136c5565b9150509295509295909350565b60006020828403121561378b5761378a613449565b5b6000613799848285016136c5565b91505092915050565b60008115159050919050565b6137b7816137a2565b82525050565b60006020820190506137d260008301846137ae565b92915050565b6000600a9050919050565b600081905092915050565b6000819050919050565b613801816135c4565b82525050565b600061381383836137f8565b60208301905092915050565b6000602082019050919050565b613835816137d8565b61383f81846137e3565b925061384a826137ee565b8060005b8381101561387b5781516138628782613807565b965061386d8361381f565b92505060018101905061384e565b505050505050565b600061014082019050613899600083018461382c565b92915050565b6000806000806000806101a087890312156138bd576138bc613449565b5b600087013567ffffffffffffffff8111156138db576138da61344e565b5b6138e789828a0161356b565b96505060206138f889828a0161365a565b95505061012061390a89828a016135e5565b94505061014061391c89828a016135e5565b93505061016061392e89828a016135e5565b92505061018061394089828a016136c5565b9150509295509295509295565b61395681613685565b82525050565b6000602082019050613971600083018461394d565b92915050565b600067ffffffffffffffff8211156139925761399161346e565b5b602082029050919050565b60006139b06139ab84613977565b6134ce565b905080602084028301858111156139ca576139c96135bf565b5b835b818110156139f357806139df88826135e5565b8452602084019350506020810190506139cc565b5050509392505050565b600082601f830112613a1257613a11613453565b5b6002613a1f84828561399d565b91505092915050565b600067ffffffffffffffff821115613a4357613a4261346e565b5b602082029050919050565b6000613a61613a5c84613a28565b6134ce565b90508060408402830185811115613a7b57613a7a6135bf565b5b835b81811015613aa45780613a9088826139fd565b845260208401935050604081019050613a7d565b5050509392505050565b600082601f830112613ac357613ac2613453565b5b6002613ad0848285613a4e565b91505092915050565b60008060006101008486031215613af357613af2613449565b5b6000613b01868287016139fd565b9350506040613b1286828701613aae565b92505060c0613b23868287016139fd565b9150509250925092565b600060089050919050565b600081905092915050565b6000819050919050565b6000602082019050919050565b613b6381613b2d565b613b6d8184613b38565b9250613b7882613b43565b8060005b83811015613ba9578151613b908782613807565b9650613b9b83613b4d565b925050600181019050613b7c565b505050505050565b600061010082019050613bc76000830184613b5a565b92915050565b600067ffffffffffffffff821115613be857613be761346e565b5b602082029050919050565b6000613c06613c0184613bcd565b6134ce565b90508060208402830185811115613c2057613c1f6135bf565b5b835b81811015613c495780613c3588826135e5565b845260208401935050602081019050613c22565b5050509392505050565b600082601f830112613c6857613c67613453565b5b6004613c75848285613bf3565b91505092915050565b6000806000806101808587031215613c9957613c98613449565b5b6000613ca7878288016139fd565b9450506040613cb887828801613aae565b93505060c0613cc9878288016139fd565b925050610100613cdb87828801613c53565b91505092959194509250565b600060208284031215613cfd57613cfc613449565b5b6000613d0b848285016135e5565b91505092915050565b613d1d816135c4565b82525050565b6000602082019050613d386000830184613d14565b92915050565b6000606082019050613d53600083018661394d565b613d6060208301856137ae565b613d6d60408301846137ae565b949350505050565b600073ffffffffffffffffffffffffffffffffffffffff82169050919050565b6000613da082613d75565b9050919050565b613db081613d95565b82525050565b6000602082019050613dcb6000830184613da7565b92915050565b613dda816137a2565b8114613de557600080fd5b50565b600081359050613df781613dd1565b92915050565b600060208284031215613e1357613e12613449565b5b6000613e2184828501613de8565b91505092915050565b613e3381613d95565b8114613e3e57600080fd5b50565b600081359050613e5081613e2a565b92915050565b600060208284031215613e6c57613e6b613449565b5b6000613e7a84828501613e41565b91505092915050565b60006101008284031215613e9a57613e99613449565b5b6000613ea88482850161365a565b91505092915050565b600060029050919050565b600081905092915050565b6000819050919050565b6000602082019050919050565b613ee781613eb1565b613ef18184613ebc565b9250613efc82613ec7565b8060005b83811015613f2d578151613f148782613807565b9650613f1f83613ed1565b925050600181019050613f00565b505050505050565b600060029050919050565b600081905092915050565b6000819050919050565b600081905092915050565b613f6981613eb1565b613f738184613f55565b9250613f7e82613ec7565b8060005b83811015613faf578151613f968782613807565b9650613fa183613ed1565b925050600181019050613f82565b505050505050565b6000613fc38383613f60565b60408301905092915050565b6000602082019050919050565b613fe581613f35565b613fef8184613f40565b9250613ffa82613f4b565b8060005b8381101561402b5781516140128782613fb7565b965061401d83613fcf565b925050600181019050613ffe565b505050505050565b6000610100820190506140496000830186613ede565b6140566040830185613fdc565b61406360c0830184613ede565b949350505050565b600082825260208201905092915050565b7f53656d6170686f72653a20696e76616c6964206669656c6420656c656d656e7460008201527f28732920696e2070726f6f660000000000000000000000000000000000000000602082015250565b60006140d8602c8361406b565b91506140e38261407c565b604082019050919050565b60006020820190508181036000830152614107816140cb565b9050919050565b7f53656d6170686f72653a206e756c6c696669657220616c72656164792073656560008201527f6e00000000000000000000000000000000000000000000000000000000000000602082015250565b600061416a60218361406b565b91506141758261410e565b604082019050919050565b600060208201905081810360008301526141998161415d565b9050919050565b7f53656d6170686f72653a2065787465726e616c206e756c6c6966696572206e6f60008201527f7420666f756e6400000000000000000000000000000000000000000000000000602082015250565b60006141fc60278361406b565b9150614207826141a0565b604082019050919050565b6000602082019050818103600083015261422b816141ef565b9050919050565b7f53656d6170686f72653a20746865206e756c6c6966696572732068617368206d60008201527f757374206265206c742074686520736e61726b207363616c6172206669656c64602082015250565b600061428e60408361406b565b915061429982614232565b604082019050919050565b600060208201905081810360008301526142bd81614281565b9050919050565b7f53656d6170686f72653a2065787465726e616c206e756c6c696669657220616c60008201527f7265616479206465616374697661746564000000000000000000000000000000602082015250565b600061432060318361406b565b915061432b826142c4565b604082019050919050565b6000602082019050818103600083015261434f81614313565b9050919050565b7f4e487b7100000000000000000000000000000000000000000000000000000000600052603260045260246000fd5b7f76657269666965722d61582d6774652d7072696d652d71000000000000000000600082015250565b60006143bb60178361406b565b91506143c682614385565b602082019050919050565b600060208201905081810360008301526143ea816143ae565b9050919050565b7f76657269666965722d61592d6774652d7072696d652d71000000000000000000600082015250565b600061442760178361406b565b9150614432826143f1565b602082019050919050565b600060208201905081810360008301526144568161441a565b9050919050565b7f76657269666965722d6258302d6774652d7072696d652d710000000000000000600082015250565b600061449360188361406b565b915061449e8261445d565b602082019050919050565b600060208201905081810360008301526144c281614486565b9050919050565b7f76657269666965722d6259302d6774652d7072696d652d710000000000000000600082015250565b60006144ff60188361406b565b915061450a826144c9565b602082019050919050565b6000602082019050818103600083015261452e816144f2565b9050919050565b7f76657269666965722d6258312d6774652d7072696d652d710000000000000000600082015250565b600061456b60188361406b565b915061457682614535565b602082019050919050565b6000602082019050818103600083015261459a8161455e565b9050919050565b7f76657269666965722d6259312d6774652d7072696d652d710000000000000000600082015250565b60006145d760188361406b565b91506145e2826145a1565b602082019050919050565b60006020820190508181036000830152614606816145ca565b9050919050565b7f76657269666965722d63582d6774652d7072696d652d71000000000000000000600082015250565b600061464360178361406b565b915061464e8261460d565b602082019050919050565b6000602082019050818103600083015261467281614636565b9050919050565b7f76657269666965722d63592d6774652d7072696d652d71000000000000000000600082015250565b60006146af60178361406b565b91506146ba82614679565b602082019050919050565b600060208201905081810360008301526146de816146a2565b9050919050565b7f76657269666965722d6774652d736e61726b2d7363616c61722d6669656c6400600082015250565b600061471b601f8361406b565b9150614726826146e5565b602082019050919050565b6000602082019050818103600083015261474a8161470e565b9050919050565b7f4e487b7100000000000000000000000000000000000000000000000000000000600052601160045260246000fd5b600061478b826135c4565b9150614796836135c4565b9250827fffffffffffffffffffffffffffffffffffffffffffffffffffffffffffffffff038211156147cb576147ca614751565b5b828201905092915050565b60006147e1826135c4565b91507fffffffffffffffffffffffffffffffffffffffffffffffffffffffffffffffff82141561481457614813614751565b5b600182019050919050565b7f53656d6170686f72653a206964656e7469747920636f6d6d69746d656e74206360008201527f616e6e6f7420626520746865206e6f7468696e672d75702d6d792d736c65657660208201527f652d76616c756500000000000000000000000000000000000000000000000000604082015250565b60006148a160478361406b565b91506148ac8261481f565b606082019050919050565b600060208201905081810360008301526148d081614894565b9050919050565b7f4f776e61626c653a2063616c6c6572206973206e6f7420746865206f776e6572600082015250565b600061490d60208361406b565b9150614918826148d7565b602082019050919050565b6000602082019050818103600083015261493c81614900565b9050919050565b7f53656d6170686f72653a2065787465726e616c206e756c6c696669657220697360008201527f20616c7265616479206163746976650000000000000000000000000000000000602082015250565b600061499f602f8361406b565b91506149aa82614943565b604082019050919050565b600060208201905081810360008301526149ce81614992565b9050919050565b7f53656d6170686f72653a206e6f20737563682065787465726e616c206e756c6c60008201527f6966696572000000000000000000000000000000000000000000000000000000602082015250565b6000614a3160258361406b565b9150614a3c826149d5565b604082019050919050565b60006020820190508181036000830152614a6081614a24565b9050919050565b7f53656d6170686f72653a206e6f2065787465726e616c206e756c6c696669657260008201527f206578697374732061667465722074686520737065636966696564206f6e6500602082015250565b6000614ac3603f8361406b565b9150614ace82614a67565b604082019050919050565b60006020820190508181036000830152614af281614ab6565b9050919050565b7f53656d6170686f72653a2065787465726e616c206e756c6c696669657220616c60008201527f7265616479207365740000000000000000000000000000000000000000000000602082015250565b6000614b5560298361406b565b9150614b6082614af9565b604082019050919050565b60006020820190508181036000830152614b8481614b48565b9050919050565b7f4e487b7100000000000000000000000000000000000000000000000000000000600052601260045260246000fd5b6000614bc5826135c4565b9150614bd0836135c4565b925082614be057614bdf614b8b565b5b828206905092915050565b6000614bf6826135c4565b9150614c01836135c4565b925082821015614c1457614c13614751565b5b828203905092915050565b6000614c2a826135c4565b9150614c35836135c4565b9250817fffffffffffffffffffffffffffffffffffffffffffffffffffffffffffffffff0483118215151615614c6e57614c6d614751565b5b828202905092915050565b7f496e6372656d656e74616c4d65726b6c65547265653a20696e736572744c656160008201527f6620617267756d656e74206d757374206265203c20534e41524b5f5343414c4160208201527f525f4649454c4400000000000000000000000000000000000000000000000000604082015250565b6000614cfb60478361406b565b9150614d0682614c79565b606082019050919050565b60006020820190508181036000830152614d2a81614cee565b9050919050565b60008160011c9050919050565b6000808291508390505b6001851115614d8857808604811115614d6457614d63614751565b5b6001851615614d735780820291505b8081029050614d8185614d31565b9450614d48565b94509492505050565b600082614da15760019050614e5d565b81614daf5760009050614e5d565b8160018114614dc55760028114614dcf57614dfe565b6001915050614e5d565b60ff841115614de157614de0614751565b5b8360020a915084821115614df857614df7614751565b5b50614e5d565b5060208310610133831016604e8410600b8410161715614e335782820a905083811115614e2e57614e2d614751565b5b614e5d565b614e408484846001614d3e565b92509050818404811115614e5757614e56614751565b5b81810290505b9392505050565b6000614e6f826135c4565b9150614e7a836135c4565b9250614ea77fffffffffffffffffffffffffffffffffffffffffffffffffffffffffffffffff8484614d91565b905092915050565b7f496e6372656d656e74616c4d65726b6c65547265653a2074726565206973206660008201527f756c6c0000000000000000000000000000000000000000000000000000000000602082015250565b6000614f0b60238361406b565b9150614f1682614eaf565b604082019050919050565b60006020820190508181036000830152614f3a81614efe565b9050919050565b600060ff82169050919050565b6000614f5982614f41565b915060ff821415614f6d57614f6c614751565b5b600182019050919050565b7f4f776e61626c653a206e6577206f776e657220697320746865207a65726f206160008201527f6464726573730000000000000000000000000000000000000000000000000000602082015250565b6000614fd460268361406b565b9150614fdf82614f78565b604082019050919050565b6000602082019050818103600083015261500381614fc7565b9050919050565b615013816135c4565b82525050565b6000819050919050565b6000819050919050565b600061504861504361503e84615019565b615023565b6135c4565b9050919050565b6150588161502d565b82525050565b6000604082019050615073600083018561500a565b615080602083018461504f565b9392505050565b600081519050615096816135ce565b92915050565b600080604083850312156150b3576150b2613449565b5b60006150c185828601615087565b92505060206150d285828601615087565b9150509250929050565b60006040820190506150f1600083018561500a565b6150fe602083018461500a565b939250505056fea2646970667358221220b7c7e58053d7dca721c75beeffac7f82699146c7afd2f169f42d0c028e62628d64736f6c634300080a0033","opcodes":"PUSH1 0x80 PUSH1 0x40 MSTORE PUSH1 0x0 PUSH1 0x1 SSTORE PUSH1 0x0 PUSH1 0x50 SSTORE PUSH1 0x0 PUSH1 0x51 PUSH1 0x0 PUSH2 0x100 EXP DUP2 SLOAD DUP2 PUSH29 0xFFFFFFFFFFFFFFFFFFFFFFFFFFFFFFFFFFFFFFFFFFFFFFFFFFFFFFFFFF MUL NOT AND SWAP1 DUP4 PUSH29 0xFFFFFFFFFFFFFFFFFFFFFFFFFFFFFFFFFFFFFFFFFFFFFFFFFFFFFFFFFF AND MUL OR SWAP1 SSTORE POP PUSH1 0x0 PUSH1 0x52 PUSH1 0x0 PUSH2 0x100 EXP DUP2 SLOAD DUP2 PUSH29 0xFFFFFFFFFFFFFFFFFFFFFFFFFFFFFFFFFFFFFFFFFFFFFFFFFFFFFFFFFF MUL NOT AND SWAP1 DUP4 PUSH29 0xFFFFFFFFFFFFFFFFFFFFFFFFFFFFFFFFFFFFFFFFFFFFFFFFFFFFFFFFFF AND MUL OR SWAP1 SSTORE POP PUSH1 0x1 PUSH1 0x52 PUSH1 0x1D PUSH2 0x100 EXP DUP2 SLOAD DUP2 PUSH1 0xFF MUL NOT AND SWAP1 DUP4 ISZERO ISZERO MUL OR SWAP1 SSTORE POP PUSH32 0x30644E72E131A029B85045B68181585D2833E84879B9709143E1F593F0000001 PUSH1 0x40 MLOAD PUSH1 0x20 ADD PUSH3 0x103 SWAP1 PUSH3 0x942 JUMP JUMPDEST PUSH1 0x40 MLOAD PUSH1 0x20 DUP2 DUP4 SUB SUB DUP2 MSTORE SWAP1 PUSH1 0x40 MSTORE DUP1 MLOAD SWAP1 PUSH1 0x20 ADD KECCAK256 PUSH1 0x0 SHR PUSH3 0x128 SWAP2 SWAP1 PUSH3 0x992 JUMP JUMPDEST PUSH1 0x54 SSTORE CALLVALUE DUP1 ISZERO PUSH3 0x138 JUMPI PUSH1 0x0 DUP1 REVERT JUMPDEST POP PUSH1 0x40 MLOAD PUSH3 0x5F45 CODESIZE SUB DUP1 PUSH3 0x5F45 DUP4 CODECOPY DUP2 DUP2 ADD PUSH1 0x40 MSTORE DUP2 ADD SWAP1 PUSH3 0x15E SWAP2 SWAP1 PUSH3 0xA67 JUMP JUMPDEST DUP2 PUSH1 0x54 SLOAD PUSH1 0x0 DUP3 PUSH1 0xFF AND GT DUP1 ISZERO PUSH3 0x17D JUMPI POP PUSH1 0x20 PUSH1 0xFF AND DUP3 PUSH1 0xFF AND GT ISZERO JUMPDEST PUSH3 0x1BF JUMPI PUSH1 0x40 MLOAD PUSH32 0x8C379A000000000000000000000000000000000000000000000000000000000 DUP2 MSTORE PUSH1 0x4 ADD PUSH3 0x1B6 SWAP1 PUSH3 0xB35 JUMP JUMPDEST PUSH1 0x40 MLOAD DUP1 SWAP2 SUB SWAP1 REVERT JUMPDEST DUP2 PUSH1 0x0 DUP1 PUSH2 0x100 EXP DUP2 SLOAD DUP2 PUSH1 0xFF MUL NOT AND SWAP1 DUP4 PUSH1 0xFF AND MUL OR SWAP1 SSTORE POP DUP1 PUSH1 0xD PUSH1 0x0 PUSH1 0x20 DUP2 LT PUSH3 0x1F2 JUMPI PUSH3 0x1F1 PUSH3 0xB57 JUMP JUMPDEST JUMPDEST ADD DUP2 SWAP1 SSTORE POP PUSH1 0x0 DUP2 SWAP1 POP PUSH1 0x0 PUSH1 0x1 SWAP1 POP JUMPDEST DUP4 PUSH1 0xFF AND DUP2 PUSH1 0xFF AND LT ISZERO PUSH3 0x282 JUMPI PUSH1 0x0 PUSH3 0x226 DUP4 DUP5 PUSH3 0x377 PUSH1 0x20 SHL PUSH1 0x20 SHR JUMP JUMPDEST SWAP1 POP DUP1 PUSH1 0xD DUP4 PUSH1 0xFF AND PUSH1 0x20 DUP2 LT PUSH3 0x243 JUMPI PUSH3 0x242 PUSH3 0xB57 JUMP JUMPDEST JUMPDEST ADD DUP2 SWAP1 SSTORE POP DUP1 PUSH1 0x2D DUP4 PUSH1 0xFF AND PUSH1 0x20 DUP2 LT PUSH3 0x263 JUMPI PUSH3 0x262 PUSH3 0xB57 JUMP JUMPDEST JUMPDEST ADD DUP2 SWAP1 SSTORE POP DUP1 SWAP3 POP POP DUP1 DUP1 PUSH3 0x279 SWAP1 PUSH3 0xBB5 JUMP JUMPDEST SWAP2 POP POP PUSH3 0x203 JUMP JUMPDEST POP PUSH3 0x295 DUP2 DUP3 PUSH3 0x377 PUSH1 0x20 SHL PUSH1 0x20 SHR JUMP JUMPDEST PUSH1 0xC DUP2 SWAP1 SSTORE POP POP POP POP CALLER PUSH1 0x4E PUSH1 0x0 PUSH2 0x100 EXP DUP2 SLOAD DUP2 PUSH20 0xFFFFFFFFFFFFFFFFFFFFFFFFFFFFFFFFFFFFFFFF MUL NOT AND SWAP1 DUP4 PUSH20 0xFFFFFFFFFFFFFFFFFFFFFFFFFFFFFFFFFFFFFFFF AND MUL OR SWAP1 SSTORE POP PUSH1 0x4E PUSH1 0x0 SWAP1 SLOAD SWAP1 PUSH2 0x100 EXP SWAP1 DIV PUSH20 0xFFFFFFFFFFFFFFFFFFFFFFFFFFFFFFFFFFFFFFFF AND PUSH20 0xFFFFFFFFFFFFFFFFFFFFFFFFFFFFFFFFFFFFFFFF AND PUSH1 0x0 PUSH20 0xFFFFFFFFFFFFFFFFFFFFFFFFFFFFFFFFFFFFFFFF AND PUSH32 0x8BE0079C531659141344CD1FD0A4F28419497F9722A3DAAFE3B4186F6B6457E0 PUSH1 0x40 MLOAD PUSH1 0x40 MLOAD DUP1 SWAP2 SUB SWAP1 LOG3 PUSH3 0x36F DUP2 PUSH1 0x1 PUSH3 0x4CE PUSH1 0x20 SHL PUSH1 0x20 SHR JUMP JUMPDEST POP POP PUSH3 0xDFA JUMP JUMPDEST PUSH1 0x0 DUP1 DUP4 SWAP1 POP PUSH1 0x0 PUSH20 0x0 PUSH4 0xF47D33B5 DUP4 PUSH1 0x0 PUSH1 0x40 MLOAD DUP4 PUSH4 0xFFFFFFFF AND PUSH1 0xE0 SHL DUP2 MSTORE PUSH1 0x4 ADD PUSH3 0x3BB SWAP3 SWAP2 SWAP1 PUSH3 0xC42 JUMP JUMPDEST PUSH1 0x40 DUP1 MLOAD DUP1 DUP4 SUB DUP2 DUP7 GAS DELEGATECALL ISZERO DUP1 ISZERO PUSH3 0x3D8 JUMPI RETURNDATASIZE PUSH1 0x0 DUP1 RETURNDATACOPY RETURNDATASIZE PUSH1 0x0 REVERT JUMPDEST POP POP POP POP PUSH1 0x40 MLOAD RETURNDATASIZE PUSH1 0x1F NOT PUSH1 0x1F DUP3 ADD AND DUP3 ADD DUP1 PUSH1 0x40 MSTORE POP DUP2 ADD SWAP1 PUSH3 0x3FE SWAP2 SWAP1 PUSH3 0xCA0 JUMP JUMPDEST DUP1 SWAP3 POP DUP2 SWAP4 POP POP POP PUSH32 0x30644E72E131A029B85045B68181585D2833E84879B9709143E1F593F0000001 DUP1 PUSH3 0x438 JUMPI PUSH3 0x437 PUSH3 0x963 JUMP JUMPDEST JUMPDEST DUP5 DUP4 ADDMOD SWAP2 POP PUSH20 0x0 PUSH4 0xF47D33B5 DUP4 DUP4 PUSH1 0x40 MLOAD DUP4 PUSH4 0xFFFFFFFF AND PUSH1 0xE0 SHL DUP2 MSTORE PUSH1 0x4 ADD PUSH3 0x478 SWAP3 SWAP2 SWAP1 PUSH3 0xCE7 JUMP JUMPDEST PUSH1 0x40 DUP1 MLOAD DUP1 DUP4 SUB DUP2 DUP7 GAS DELEGATECALL ISZERO DUP1 ISZERO PUSH3 0x495 JUMPI RETURNDATASIZE PUSH1 0x0 DUP1 RETURNDATACOPY RETURNDATASIZE PUSH1 0x0 REVERT JUMPDEST POP POP POP POP PUSH1 0x40 MLOAD RETURNDATASIZE PUSH1 0x1F NOT PUSH1 0x1F DUP3 ADD AND DUP3 ADD DUP1 PUSH1 0x40 MSTORE POP DUP2 ADD SWAP1 PUSH3 0x4BB SWAP2 SWAP1 PUSH3 0xCA0 JUMP JUMPDEST DUP1 SWAP3 POP DUP2 SWAP4 POP POP POP DUP2 SWAP3 POP POP POP SWAP3 SWAP2 POP POP JUMP JUMPDEST DUP1 ISZERO PUSH3 0x52E JUMPI DUP2 PUSH1 0x51 PUSH1 0x0 PUSH2 0x100 EXP DUP2 SLOAD DUP2 PUSH29 0xFFFFFFFFFFFFFFFFFFFFFFFFFFFFFFFFFFFFFFFFFFFFFFFFFFFFFFFFFF MUL NOT AND SWAP1 DUP4 PUSH29 0xFFFFFFFFFFFFFFFFFFFFFFFFFFFFFFFFFFFFFFFFFFFFFFFFFFFFFFFFFF AND MUL OR SWAP1 SSTORE POP PUSH3 0x6AA JUMP JUMPDEST PUSH1 0x0 ISZERO ISZERO PUSH1 0x4F PUSH1 0x0 DUP5 PUSH29 0xFFFFFFFFFFFFFFFFFFFFFFFFFFFFFFFFFFFFFFFFFFFFFFFFFFFFFFFFFF AND PUSH29 0xFFFFFFFFFFFFFFFFFFFFFFFFFFFFFFFFFFFFFFFFFFFFFFFFFFFFFFFFFF AND DUP2 MSTORE PUSH1 0x20 ADD SWAP1 DUP2 MSTORE PUSH1 0x20 ADD PUSH1 0x0 KECCAK256 PUSH1 0x0 ADD PUSH1 0x1D SWAP1 SLOAD SWAP1 PUSH2 0x100 EXP SWAP1 DIV PUSH1 0xFF AND ISZERO ISZERO EQ PUSH3 0x5D9 JUMPI PUSH1 0x40 MLOAD PUSH32 0x8C379A000000000000000000000000000000000000000000000000000000000 DUP2 MSTORE PUSH1 0x4 ADD PUSH3 0x5D0 SWAP1 PUSH3 0xD8A JUMP JUMPDEST PUSH1 0x40 MLOAD DUP1 SWAP2 SUB SWAP1 REVERT JUMPDEST DUP2 PUSH1 0x4F PUSH1 0x0 PUSH1 0x52 PUSH1 0x0 SWAP1 SLOAD SWAP1 PUSH2 0x100 EXP SWAP1 DIV PUSH29 0xFFFFFFFFFFFFFFFFFFFFFFFFFFFFFFFFFFFFFFFFFFFFFFFFFFFFFFFFFF AND PUSH29 0xFFFFFFFFFFFFFFFFFFFFFFFFFFFFFFFFFFFFFFFFFFFFFFFFFFFFFFFFFF AND PUSH29 0xFFFFFFFFFFFFFFFFFFFFFFFFFFFFFFFFFFFFFFFFFFFFFFFFFFFFFFFFFF AND DUP2 MSTORE PUSH1 0x20 ADD SWAP1 DUP2 MSTORE PUSH1 0x20 ADD PUSH1 0x0 KECCAK256 PUSH1 0x0 ADD PUSH1 0x0 PUSH2 0x100 EXP DUP2 SLOAD DUP2 PUSH29 0xFFFFFFFFFFFFFFFFFFFFFFFFFFFFFFFFFFFFFFFFFFFFFFFFFFFFFFFFFF MUL NOT AND SWAP1 DUP4 PUSH29 0xFFFFFFFFFFFFFFFFFFFFFFFFFFFFFFFFFFFFFFFFFFFFFFFFFFFFFFFFFF AND MUL OR SWAP1 SSTORE POP JUMPDEST PUSH1 0x0 PUSH1 0x4F PUSH1 0x0 DUP5 PUSH29 0xFFFFFFFFFFFFFFFFFFFFFFFFFFFFFFFFFFFFFFFFFFFFFFFFFFFFFFFFFF AND PUSH29 0xFFFFFFFFFFFFFFFFFFFFFFFFFFFFFFFFFFFFFFFFFFFFFFFFFFFFFFFFFF AND DUP2 MSTORE PUSH1 0x20 ADD SWAP1 DUP2 MSTORE PUSH1 0x20 ADD PUSH1 0x0 KECCAK256 PUSH1 0x0 ADD PUSH1 0x0 PUSH2 0x100 EXP DUP2 SLOAD DUP2 PUSH29 0xFFFFFFFFFFFFFFFFFFFFFFFFFFFFFFFFFFFFFFFFFFFFFFFFFFFFFFFFFF MUL NOT AND SWAP1 DUP4 PUSH29 0xFFFFFFFFFFFFFFFFFFFFFFFFFFFFFFFFFFFFFFFFFFFFFFFFFFFFFFFFFF AND MUL OR SWAP1 SSTORE POP PUSH1 0x1 PUSH1 0x4F PUSH1 0x0 DUP5 PUSH29 0xFFFFFFFFFFFFFFFFFFFFFFFFFFFFFFFFFFFFFFFFFFFFFFFFFFFFFFFFFF AND PUSH29 0xFFFFFFFFFFFFFFFFFFFFFFFFFFFFFFFFFFFFFFFFFFFFFFFFFFFFFFFFFF AND DUP2 MSTORE PUSH1 0x20 ADD SWAP1 DUP2 MSTORE PUSH1 0x20 ADD PUSH1 0x0 KECCAK256 PUSH1 0x0 ADD PUSH1 0x1E PUSH2 0x100 EXP DUP2 SLOAD DUP2 PUSH1 0xFF MUL NOT AND SWAP1 DUP4 ISZERO ISZERO MUL OR SWAP1 SSTORE POP PUSH1 0x1 PUSH1 0x4F PUSH1 0x0 DUP5 PUSH29 0xFFFFFFFFFFFFFFFFFFFFFFFFFFFFFFFFFFFFFFFFFFFFFFFFFFFFFFFFFF AND PUSH29 0xFFFFFFFFFFFFFFFFFFFFFFFFFFFFFFFFFFFFFFFFFFFFFFFFFFFFFFFFFF AND DUP2 MSTORE PUSH1 0x20 ADD SWAP1 DUP2 MSTORE PUSH1 0x20 ADD PUSH1 0x0 KECCAK256 PUSH1 0x0 ADD PUSH1 0x1D PUSH2 0x100 EXP DUP2 SLOAD DUP2 PUSH1 0xFF MUL NOT AND SWAP1 DUP4 ISZERO ISZERO MUL OR SWAP1 SSTORE POP DUP2 PUSH1 0x52 PUSH1 0x0 PUSH2 0x100 EXP DUP2 SLOAD DUP2 PUSH29 0xFFFFFFFFFFFFFFFFFFFFFFFFFFFFFFFFFFFFFFFFFFFFFFFFFFFFFFFFFF MUL NOT AND SWAP1 DUP4 PUSH29 0xFFFFFFFFFFFFFFFFFFFFFFFFFFFFFFFFFFFFFFFFFFFFFFFFFFFFFFFFFF AND MUL OR SWAP1 SSTORE POP PUSH1 0x50 PUSH1 0x0 DUP2 SLOAD DUP1 SWAP3 SWAP2 SWAP1 PUSH3 0x892 SWAP1 PUSH3 0xDAC JUMP JUMPDEST SWAP2 SWAP1 POP SSTORE POP DUP2 PUSH29 0xFFFFFFFFFFFFFFFFFFFFFFFFFFFFFFFFFFFFFFFFFFFFFFFFFFFFFFFFFF AND PUSH32 0xD1CA56647596090D70FA8D49BCC376B97248314E3F204C491333B3440405F589 PUSH1 0x40 MLOAD PUSH1 0x40 MLOAD DUP1 SWAP2 SUB SWAP1 LOG2 POP POP JUMP JUMPDEST PUSH1 0x0 DUP2 SWAP1 POP SWAP3 SWAP2 POP POP JUMP JUMPDEST PUSH32 0x53656D6170686F72650000000000000000000000000000000000000000000000 PUSH1 0x0 DUP3 ADD MSTORE POP JUMP JUMPDEST PUSH1 0x0 PUSH3 0x92A PUSH1 0x9 DUP4 PUSH3 0x8E7 JUMP JUMPDEST SWAP2 POP PUSH3 0x937 DUP3 PUSH3 0x8F2 JUMP JUMPDEST PUSH1 0x9 DUP3 ADD SWAP1 POP SWAP2 SWAP1 POP JUMP JUMPDEST PUSH1 0x0 PUSH3 0x94F DUP3 PUSH3 0x91B JUMP JUMPDEST SWAP2 POP DUP2 SWAP1 POP SWAP2 SWAP1 POP JUMP JUMPDEST PUSH1 0x0 DUP2 SWAP1 POP SWAP2 SWAP1 POP JUMP JUMPDEST PUSH32 0x4E487B7100000000000000000000000000000000000000000000000000000000 PUSH1 0x0 MSTORE PUSH1 0x12 PUSH1 0x4 MSTORE PUSH1 0x24 PUSH1 0x0 REVERT JUMPDEST PUSH1 0x0 PUSH3 0x99F DUP3 PUSH3 0x959 JUMP JUMPDEST SWAP2 POP PUSH3 0x9AC DUP4 PUSH3 0x959 JUMP JUMPDEST SWAP3 POP DUP3 PUSH3 0x9BF JUMPI PUSH3 0x9BE PUSH3 0x963 JUMP JUMPDEST JUMPDEST DUP3 DUP3 MOD SWAP1 POP SWAP3 SWAP2 POP POP JUMP JUMPDEST PUSH1 0x0 DUP1 REVERT JUMPDEST PUSH1 0x0 PUSH1 0xFF DUP3 AND SWAP1 POP SWAP2 SWAP1 POP JUMP JUMPDEST PUSH3 0x9E7 DUP2 PUSH3 0x9CF JUMP JUMPDEST DUP2 EQ PUSH3 0x9F3 JUMPI PUSH1 0x0 DUP1 REVERT JUMPDEST POP JUMP JUMPDEST PUSH1 0x0 DUP2 MLOAD SWAP1 POP PUSH3 0xA07 DUP2 PUSH3 0x9DC JUMP JUMPDEST SWAP3 SWAP2 POP POP JUMP JUMPDEST PUSH1 0x0 PUSH29 0xFFFFFFFFFFFFFFFFFFFFFFFFFFFFFFFFFFFFFFFFFFFFFFFFFFFFFFFFFF DUP3 AND SWAP1 POP SWAP2 SWAP1 POP JUMP JUMPDEST PUSH3 0xA41 DUP2 PUSH3 0xA0D JUMP JUMPDEST DUP2 EQ PUSH3 0xA4D JUMPI PUSH1 0x0 DUP1 REVERT JUMPDEST POP JUMP JUMPDEST PUSH1 0x0 DUP2 MLOAD SWAP1 POP PUSH3 0xA61 DUP2 PUSH3 0xA36 JUMP JUMPDEST SWAP3 SWAP2 POP POP JUMP JUMPDEST PUSH1 0x0 DUP1 PUSH1 0x40 DUP4 DUP6 SUB SLT ISZERO PUSH3 0xA81 JUMPI PUSH3 0xA80 PUSH3 0x9CA JUMP JUMPDEST JUMPDEST PUSH1 0x0 PUSH3 0xA91 DUP6 DUP3 DUP7 ADD PUSH3 0x9F6 JUMP JUMPDEST SWAP3 POP POP PUSH1 0x20 PUSH3 0xAA4 DUP6 DUP3 DUP7 ADD PUSH3 0xA50 JUMP JUMPDEST SWAP2 POP POP SWAP3 POP SWAP3 SWAP1 POP JUMP JUMPDEST PUSH1 0x0 DUP3 DUP3 MSTORE PUSH1 0x20 DUP3 ADD SWAP1 POP SWAP3 SWAP2 POP POP JUMP JUMPDEST PUSH32 0x496E6372656D656E74616C4D65726B6C65547265653A205F747265654C657665 PUSH1 0x0 DUP3 ADD MSTORE PUSH32 0x6C73206D757374206265206265747765656E203020616E642033330000000000 PUSH1 0x20 DUP3 ADD MSTORE POP JUMP JUMPDEST PUSH1 0x0 PUSH3 0xB1D PUSH1 0x3B DUP4 PUSH3 0xAAE JUMP JUMPDEST SWAP2 POP PUSH3 0xB2A DUP3 PUSH3 0xABF JUMP JUMPDEST PUSH1 0x40 DUP3 ADD SWAP1 POP SWAP2 SWAP1 POP JUMP JUMPDEST PUSH1 0x0 PUSH1 0x20 DUP3 ADD SWAP1 POP DUP2 DUP2 SUB PUSH1 0x0 DUP4 ADD MSTORE PUSH3 0xB50 DUP2 PUSH3 0xB0E JUMP JUMPDEST SWAP1 POP SWAP2 SWAP1 POP JUMP JUMPDEST PUSH32 0x4E487B7100000000000000000000000000000000000000000000000000000000 PUSH1 0x0 MSTORE PUSH1 0x32 PUSH1 0x4 MSTORE PUSH1 0x24 PUSH1 0x0 REVERT JUMPDEST PUSH32 0x4E487B7100000000000000000000000000000000000000000000000000000000 PUSH1 0x0 MSTORE PUSH1 0x11 PUSH1 0x4 MSTORE PUSH1 0x24 PUSH1 0x0 REVERT JUMPDEST PUSH1 0x0 PUSH3 0xBC2 DUP3 PUSH3 0x9CF JUMP JUMPDEST SWAP2 POP PUSH1 0xFF DUP3 EQ ISZERO PUSH3 0xBD9 JUMPI PUSH3 0xBD8 PUSH3 0xB86 JUMP JUMPDEST JUMPDEST PUSH1 0x1 DUP3 ADD SWAP1 POP SWAP2 SWAP1 POP JUMP JUMPDEST PUSH3 0xBEF DUP2 PUSH3 0x959 JUMP JUMPDEST DUP3 MSTORE POP POP JUMP JUMPDEST PUSH1 0x0 DUP2 SWAP1 POP SWAP2 SWAP1 POP JUMP JUMPDEST PUSH1 0x0 DUP2 SWAP1 POP SWAP2 SWAP1 POP JUMP JUMPDEST PUSH1 0x0 PUSH3 0xC2A PUSH3 0xC24 PUSH3 0xC1E DUP5 PUSH3 0xBF5 JUMP JUMPDEST PUSH3 0xBFF JUMP JUMPDEST PUSH3 0x959 JUMP JUMPDEST SWAP1 POP SWAP2 SWAP1 POP JUMP JUMPDEST PUSH3 0xC3C DUP2 PUSH3 0xC09 JUMP JUMPDEST DUP3 MSTORE POP POP JUMP JUMPDEST PUSH1 0x0 PUSH1 0x40 DUP3 ADD SWAP1 POP PUSH3 0xC59 PUSH1 0x0 DUP4 ADD DUP6 PUSH3 0xBE4 JUMP JUMPDEST PUSH3 0xC68 PUSH1 0x20 DUP4 ADD DUP5 PUSH3 0xC31 JUMP JUMPDEST SWAP4 SWAP3 POP POP POP JUMP JUMPDEST PUSH3 0xC7A DUP2 PUSH3 0x959 JUMP JUMPDEST DUP2 EQ PUSH3 0xC86 JUMPI PUSH1 0x0 DUP1 REVERT JUMPDEST POP JUMP JUMPDEST PUSH1 0x0 DUP2 MLOAD SWAP1 POP PUSH3 0xC9A DUP2 PUSH3 0xC6F JUMP JUMPDEST SWAP3 SWAP2 POP POP JUMP JUMPDEST PUSH1 0x0 DUP1 PUSH1 0x40 DUP4 DUP6 SUB SLT ISZERO PUSH3 0xCBA JUMPI PUSH3 0xCB9 PUSH3 0x9CA JUMP JUMPDEST JUMPDEST PUSH1 0x0 PUSH3 0xCCA DUP6 DUP3 DUP7 ADD PUSH3 0xC89 JUMP JUMPDEST SWAP3 POP POP PUSH1 0x20 PUSH3 0xCDD DUP6 DUP3 DUP7 ADD PUSH3 0xC89 JUMP JUMPDEST SWAP2 POP POP SWAP3 POP SWAP3 SWAP1 POP JUMP JUMPDEST PUSH1 0x0 PUSH1 0x40 DUP3 ADD SWAP1 POP PUSH3 0xCFE PUSH1 0x0 DUP4 ADD DUP6 PUSH3 0xBE4 JUMP JUMPDEST PUSH3 0xD0D PUSH1 0x20 DUP4 ADD DUP5 PUSH3 0xBE4 JUMP JUMPDEST SWAP4 SWAP3 POP POP POP JUMP JUMPDEST PUSH32 0x53656D6170686F72653A2065787465726E616C206E756C6C696669657220616C PUSH1 0x0 DUP3 ADD MSTORE PUSH32 0x7265616479207365740000000000000000000000000000000000000000000000 PUSH1 0x20 DUP3 ADD MSTORE POP JUMP JUMPDEST PUSH1 0x0 PUSH3 0xD72 PUSH1 0x29 DUP4 PUSH3 0xAAE JUMP JUMPDEST SWAP2 POP PUSH3 0xD7F DUP3 PUSH3 0xD14 JUMP JUMPDEST PUSH1 0x40 DUP3 ADD SWAP1 POP SWAP2 SWAP1 POP JUMP JUMPDEST PUSH1 0x0 PUSH1 0x20 DUP3 ADD SWAP1 POP DUP2 DUP2 SUB PUSH1 0x0 DUP4 ADD MSTORE PUSH3 0xDA5 DUP2 PUSH3 0xD63 JUMP JUMPDEST SWAP1 POP SWAP2 SWAP1 POP JUMP JUMPDEST PUSH1 0x0 PUSH3 0xDB9 DUP3 PUSH3 0x959 JUMP JUMPDEST SWAP2 POP PUSH32 0xFFFFFFFFFFFFFFFFFFFFFFFFFFFFFFFFFFFFFFFFFFFFFFFFFFFFFFFFFFFFFFFF DUP3 EQ ISZERO PUSH3 0xDEF JUMPI PUSH3 0xDEE PUSH3 0xB86 JUMP JUMPDEST JUMPDEST PUSH1 0x1 DUP3 ADD SWAP1 POP SWAP2 SWAP1 POP JUMP JUMPDEST PUSH2 0x513B DUP1 PUSH3 0xE0A PUSH1 0x0 CODECOPY PUSH1 0x0 RETURN INVALID PUSH1 0x80 PUSH1 0x40 MSTORE CALLVALUE DUP1 ISZERO PUSH2 0x10 JUMPI PUSH1 0x0 DUP1 REVERT JUMPDEST POP PUSH1 0x4 CALLDATASIZE LT PUSH2 0x1A9 JUMPI PUSH1 0x0 CALLDATALOAD PUSH1 0xE0 SHR DUP1 PUSH4 0x819BD8A5 GT PUSH2 0xF9 JUMPI DUP1 PUSH4 0xC8CF02DA GT PUSH2 0x97 JUMPI DUP1 PUSH4 0xEBF0C717 GT PUSH2 0x71 JUMPI DUP1 PUSH4 0xEBF0C717 EQ PUSH2 0x4D4 JUMPI DUP1 PUSH4 0xF1C621EE EQ PUSH2 0x4F2 JUMPI DUP1 PUSH4 0xF2FDE38B EQ PUSH2 0x522 JUMPI DUP1 PUSH4 0xF5AB0DD6 EQ PUSH2 0x53E JUMPI PUSH2 0x1A9 JUMP JUMPDEST DUP1 PUSH4 0xC8CF02DA EQ PUSH2 0x46A JUMPI DUP1 PUSH4 0xCE85BBDB EQ PUSH2 0x488 JUMPI DUP1 PUSH4 0xEAC4287E EQ PUSH2 0x4A4 JUMPI PUSH2 0x1A9 JUMP JUMPDEST DUP1 PUSH4 0x8F6EFD00 GT PUSH2 0xD3 JUMPI DUP1 PUSH4 0x8F6EFD00 EQ PUSH2 0x3CE JUMPI DUP1 PUSH4 0xBA10B81D EQ PUSH2 0x3EC JUMPI DUP1 PUSH4 0xC3A3407F EQ PUSH2 0x40A JUMPI DUP1 PUSH4 0xC4CD5596 EQ PUSH2 0x43A JUMPI PUSH2 0x1A9 JUMP JUMPDEST DUP1 PUSH4 0x819BD8A5 EQ PUSH2 0x376 JUMPI DUP1 PUSH4 0x8DA5CB5B EQ PUSH2 0x392 JUMPI DUP1 PUSH4 0x8F32D59B EQ PUSH2 0x3B0 JUMPI PUSH2 0x1A9 JUMP JUMPDEST DUP1 PUSH4 0x5D86FABA GT PUSH2 0x166 JUMPI DUP1 PUSH4 0x6D80EFCA GT PUSH2 0x140 JUMPI DUP1 PUSH4 0x6D80EFCA EQ PUSH2 0x2EC JUMPI DUP1 PUSH4 0x6EBF6265 EQ PUSH2 0x31C JUMPI DUP1 PUSH4 0x715018A6 EQ PUSH2 0x33A JUMPI DUP1 PUSH4 0x7A5519F9 EQ PUSH2 0x344 JUMPI PUSH2 0x1A9 JUMP JUMPDEST DUP1 PUSH4 0x5D86FABA EQ PUSH2 0x26E JUMPI DUP1 PUSH4 0x5E05EA17 EQ PUSH2 0x28C JUMPI DUP1 PUSH4 0x5FE8C13B EQ PUSH2 0x2BC JUMPI PUSH2 0x1A9 JUMP JUMPDEST DUP1 PUSH4 0xE57596F EQ PUSH2 0x1AE JUMPI DUP1 PUSH4 0x23BAAA83 EQ PUSH2 0x1CA JUMPI DUP1 PUSH4 0x283EBAF4 EQ PUSH2 0x1E6 JUMPI DUP1 PUSH4 0x35A5E06D EQ PUSH2 0x204 JUMPI DUP1 PUSH4 0x539F38B2 EQ PUSH2 0x222 JUMPI DUP1 PUSH4 0x5D3CE725 EQ PUSH2 0x23E JUMPI JUMPDEST PUSH1 0x0 DUP1 REVERT JUMPDEST PUSH2 0x1C8 PUSH1 0x4 DUP1 CALLDATASIZE SUB DUP2 ADD SWAP1 PUSH2 0x1C3 SWAP2 SWAP1 PUSH2 0x36DA JUMP JUMPDEST PUSH2 0x570 JUMP JUMPDEST STOP JUMPDEST PUSH2 0x1E4 PUSH1 0x4 DUP1 CALLDATASIZE SUB DUP2 ADD SWAP1 PUSH2 0x1DF SWAP2 SWAP1 PUSH2 0x3775 JUMP JUMPDEST PUSH2 0x7A7 JUMP JUMPDEST STOP JUMPDEST PUSH2 0x1EE PUSH2 0x9B0 JUMP JUMPDEST PUSH1 0x40 MLOAD PUSH2 0x1FB SWAP2 SWAP1 PUSH2 0x37BD JUMP JUMPDEST PUSH1 0x40 MLOAD DUP1 SWAP2 SUB SWAP1 RETURN JUMPDEST PUSH2 0x20C PUSH2 0x9C3 JUMP JUMPDEST PUSH1 0x40 MLOAD PUSH2 0x219 SWAP2 SWAP1 PUSH2 0x3883 JUMP JUMPDEST PUSH1 0x40 MLOAD DUP1 SWAP2 SUB SWAP1 RETURN JUMPDEST PUSH2 0x23C PUSH1 0x4 DUP1 CALLDATASIZE SUB DUP2 ADD SWAP1 PUSH2 0x237 SWAP2 SWAP1 PUSH2 0x3775 JUMP JUMPDEST PUSH2 0xA0E JUMP JUMPDEST STOP JUMPDEST PUSH2 0x258 PUSH1 0x4 DUP1 CALLDATASIZE SUB DUP2 ADD SWAP1 PUSH2 0x253 SWAP2 SWAP1 PUSH2 0x389F JUMP JUMPDEST PUSH2 0xA1C JUMP JUMPDEST PUSH1 0x40 MLOAD PUSH2 0x265 SWAP2 SWAP1 PUSH2 0x37BD JUMP JUMPDEST PUSH1 0x40 MLOAD DUP1 SWAP2 SUB SWAP1 RETURN JUMPDEST PUSH2 0x276 PUSH2 0xB88 JUMP JUMPDEST PUSH1 0x40 MLOAD PUSH2 0x283 SWAP2 SWAP1 PUSH2 0x395C JUMP JUMPDEST PUSH1 0x40 MLOAD DUP1 SWAP2 SUB SWAP1 RETURN JUMPDEST PUSH2 0x2A6 PUSH1 0x4 DUP1 CALLDATASIZE SUB DUP2 ADD SWAP1 PUSH2 0x2A1 SWAP2 SWAP1 PUSH2 0x3AD9 JUMP JUMPDEST PUSH2 0xBB7 JUMP JUMPDEST PUSH1 0x40 MLOAD PUSH2 0x2B3 SWAP2 SWAP1 PUSH2 0x3BB1 JUMP JUMPDEST PUSH1 0x40 MLOAD DUP1 SWAP2 SUB SWAP1 RETURN JUMPDEST PUSH2 0x2D6 PUSH1 0x4 DUP1 CALLDATASIZE SUB DUP2 ADD SWAP1 PUSH2 0x2D1 SWAP2 SWAP1 PUSH2 0x3C7E JUMP JUMPDEST PUSH2 0xD22 JUMP JUMPDEST PUSH1 0x40 MLOAD PUSH2 0x2E3 SWAP2 SWAP1 PUSH2 0x37BD JUMP JUMPDEST PUSH1 0x40 MLOAD DUP1 SWAP2 SUB SWAP1 RETURN JUMPDEST PUSH2 0x306 PUSH1 0x4 DUP1 CALLDATASIZE SUB DUP2 ADD SWAP1 PUSH2 0x301 SWAP2 SWAP1 PUSH2 0x3CE7 JUMP JUMPDEST PUSH2 0x13F7 JUMP JUMPDEST PUSH1 0x40 MLOAD PUSH2 0x313 SWAP2 SWAP1 PUSH2 0x3D23 JUMP JUMPDEST PUSH1 0x40 MLOAD DUP1 SWAP2 SUB SWAP1 RETURN JUMPDEST PUSH2 0x324 PUSH2 0x147B JUMP JUMPDEST PUSH1 0x40 MLOAD PUSH2 0x331 SWAP2 SWAP1 PUSH2 0x3D23 JUMP JUMPDEST PUSH1 0x40 MLOAD DUP1 SWAP2 SUB SWAP1 RETURN JUMPDEST PUSH2 0x342 PUSH2 0x1481 JUMP JUMPDEST STOP JUMPDEST PUSH2 0x35E PUSH1 0x4 DUP1 CALLDATASIZE SUB DUP2 ADD SWAP1 PUSH2 0x359 SWAP2 SWAP1 PUSH2 0x3775 JUMP JUMPDEST PUSH2 0x1589 JUMP JUMPDEST PUSH1 0x40 MLOAD PUSH2 0x36D SWAP4 SWAP3 SWAP2 SWAP1 PUSH2 0x3D3E JUMP JUMPDEST PUSH1 0x40 MLOAD DUP1 SWAP2 SUB SWAP1 RETURN JUMPDEST PUSH2 0x390 PUSH1 0x4 DUP1 CALLDATASIZE SUB DUP2 ADD SWAP1 PUSH2 0x38B SWAP2 SWAP1 PUSH2 0x3775 JUMP JUMPDEST PUSH2 0x15F6 JUMP JUMPDEST STOP JUMPDEST PUSH2 0x39A PUSH2 0x17FF JUMP JUMPDEST PUSH1 0x40 MLOAD PUSH2 0x3A7 SWAP2 SWAP1 PUSH2 0x3DB6 JUMP JUMPDEST PUSH1 0x40 MLOAD DUP1 SWAP2 SUB SWAP1 RETURN JUMPDEST PUSH2 0x3B8 PUSH2 0x1829 JUMP JUMPDEST PUSH1 0x40 MLOAD PUSH2 0x3C5 SWAP2 SWAP1 PUSH2 0x37BD JUMP JUMPDEST PUSH1 0x40 MLOAD DUP1 SWAP2 SUB SWAP1 RETURN JUMPDEST PUSH2 0x3D6 PUSH2 0x1881 JUMP JUMPDEST PUSH1 0x40 MLOAD PUSH2 0x3E3 SWAP2 SWAP1 PUSH2 0x3D23 JUMP JUMPDEST PUSH1 0x40 MLOAD DUP1 SWAP2 SUB SWAP1 RETURN JUMPDEST PUSH2 0x3F4 PUSH2 0x1887 JUMP JUMPDEST PUSH1 0x40 MLOAD PUSH2 0x401 SWAP2 SWAP1 PUSH2 0x3D23 JUMP JUMPDEST PUSH1 0x40 MLOAD DUP1 SWAP2 SUB SWAP1 RETURN JUMPDEST PUSH2 0x424 PUSH1 0x4 DUP1 CALLDATASIZE SUB DUP2 ADD SWAP1 PUSH2 0x41F SWAP2 SWAP1 PUSH2 0x3775 JUMP JUMPDEST PUSH2 0x1891 JUMP JUMPDEST PUSH1 0x40 MLOAD PUSH2 0x431 SWAP2 SWAP1 PUSH2 0x395C JUMP JUMPDEST PUSH1 0x40 MLOAD DUP1 SWAP2 SUB SWAP1 RETURN JUMPDEST PUSH2 0x454 PUSH1 0x4 DUP1 CALLDATASIZE SUB DUP2 ADD SWAP1 PUSH2 0x44F SWAP2 SWAP1 PUSH2 0x3CE7 JUMP JUMPDEST PUSH2 0x1A6E JUMP JUMPDEST PUSH1 0x40 MLOAD PUSH2 0x461 SWAP2 SWAP1 PUSH2 0x37BD JUMP JUMPDEST PUSH1 0x40 MLOAD DUP1 SWAP2 SUB SWAP1 RETURN JUMPDEST PUSH2 0x472 PUSH2 0x1A8E JUMP JUMPDEST PUSH1 0x40 MLOAD PUSH2 0x47F SWAP2 SWAP1 PUSH2 0x395C JUMP JUMPDEST PUSH1 0x40 MLOAD DUP1 SWAP2 SUB SWAP1 RETURN JUMPDEST PUSH2 0x4A2 PUSH1 0x4 DUP1 CALLDATASIZE SUB DUP2 ADD SWAP1 PUSH2 0x49D SWAP2 SWAP1 PUSH2 0x3DFD JUMP JUMPDEST PUSH2 0x1ABD JUMP JUMPDEST STOP JUMPDEST PUSH2 0x4BE PUSH1 0x4 DUP1 CALLDATASIZE SUB DUP2 ADD SWAP1 PUSH2 0x4B9 SWAP2 SWAP1 PUSH2 0x3775 JUMP JUMPDEST PUSH2 0x1B09 JUMP JUMPDEST PUSH1 0x40 MLOAD PUSH2 0x4CB SWAP2 SWAP1 PUSH2 0x37BD JUMP JUMPDEST PUSH1 0x40 MLOAD DUP1 SWAP2 SUB SWAP1 RETURN JUMPDEST PUSH2 0x4DC PUSH2 0x1B74 JUMP JUMPDEST PUSH1 0x40 MLOAD PUSH2 0x4E9 SWAP2 SWAP1 PUSH2 0x3D23 JUMP JUMPDEST PUSH1 0x40 MLOAD DUP1 SWAP2 SUB SWAP1 RETURN JUMPDEST PUSH2 0x50C PUSH1 0x4 DUP1 CALLDATASIZE SUB DUP2 ADD SWAP1 PUSH2 0x507 SWAP2 SWAP1 PUSH2 0x3CE7 JUMP JUMPDEST PUSH2 0x1B7A JUMP JUMPDEST PUSH1 0x40 MLOAD PUSH2 0x519 SWAP2 SWAP1 PUSH2 0x37BD JUMP JUMPDEST PUSH1 0x40 MLOAD DUP1 SWAP2 SUB SWAP1 RETURN JUMPDEST PUSH2 0x53C PUSH1 0x4 DUP1 CALLDATASIZE SUB DUP2 ADD SWAP1 PUSH2 0x537 SWAP2 SWAP1 PUSH2 0x3E56 JUMP JUMPDEST PUSH2 0x1B9A JUMP JUMPDEST STOP JUMPDEST PUSH2 0x558 PUSH1 0x4 DUP1 CALLDATASIZE SUB DUP2 ADD SWAP1 PUSH2 0x553 SWAP2 SWAP1 PUSH2 0x3E83 JUMP JUMPDEST PUSH2 0x1BED JUMP JUMPDEST PUSH1 0x40 MLOAD PUSH2 0x567 SWAP4 SWAP3 SWAP2 SWAP1 PUSH2 0x4033 JUMP JUMPDEST PUSH1 0x40 MLOAD DUP1 SWAP2 SUB SWAP1 RETURN JUMPDEST DUP5 DUP5 DUP5 DUP5 DUP5 PUSH2 0x57E DUP5 PUSH2 0x1D39 JUMP JUMPDEST PUSH2 0x5BD JUMPI PUSH1 0x40 MLOAD PUSH32 0x8C379A000000000000000000000000000000000000000000000000000000000 DUP2 MSTORE PUSH1 0x4 ADD PUSH2 0x5B4 SWAP1 PUSH2 0x40EE JUMP JUMPDEST PUSH1 0x40 MLOAD DUP1 SWAP2 SUB SWAP1 REVERT JUMPDEST PUSH1 0x0 ISZERO ISZERO PUSH1 0x53 PUSH1 0x0 DUP5 DUP2 MSTORE PUSH1 0x20 ADD SWAP1 DUP2 MSTORE PUSH1 0x20 ADD PUSH1 0x0 KECCAK256 PUSH1 0x0 SWAP1 SLOAD SWAP1 PUSH2 0x100 EXP SWAP1 DIV PUSH1 0xFF AND ISZERO ISZERO EQ PUSH2 0x624 JUMPI PUSH1 0x40 MLOAD PUSH32 0x8C379A000000000000000000000000000000000000000000000000000000000 DUP2 MSTORE PUSH1 0x4 ADD PUSH2 0x61B SWAP1 PUSH2 0x4180 JUMP JUMPDEST PUSH1 0x40 MLOAD DUP1 SWAP2 SUB SWAP1 REVERT JUMPDEST PUSH2 0x62D DUP2 PUSH2 0x1B09 JUMP JUMPDEST PUSH2 0x66C JUMPI PUSH1 0x40 MLOAD PUSH32 0x8C379A000000000000000000000000000000000000000000000000000000000 DUP2 MSTORE PUSH1 0x4 ADD PUSH2 0x663 SWAP1 PUSH2 0x4212 JUMP JUMPDEST PUSH1 0x40 MLOAD DUP1 SWAP2 SUB SWAP1 REVERT JUMPDEST PUSH32 0xD0BE6067448F25771EC845586F8E534829698CEC02E5ACEDF5334D188B57681E DUP4 PUSH1 0x40 MLOAD PUSH2 0x69B SWAP2 SWAP1 PUSH2 0x3D23 JUMP JUMPDEST PUSH1 0x40 MLOAD DUP1 SWAP2 SUB SWAP1 LOG1 PUSH1 0x0 PUSH2 0x6AE DUP7 PUSH2 0x1F52 JUMP JUMPDEST SWAP1 POP PUSH32 0x30644E72E131A029B85045B68181585D2833E84879B9709143E1F593F0000001 DUP4 LT PUSH2 0x712 JUMPI PUSH1 0x40 MLOAD PUSH32 0x8C379A000000000000000000000000000000000000000000000000000000000 DUP2 MSTORE PUSH1 0x4 ADD PUSH2 0x709 SWAP1 PUSH2 0x42A4 JUMP JUMPDEST PUSH1 0x40 MLOAD DUP1 SWAP2 SUB SWAP1 REVERT JUMPDEST PUSH1 0x0 PUSH1 0x40 MLOAD DUP1 PUSH1 0x80 ADD PUSH1 0x40 MSTORE DUP1 DUP7 DUP2 MSTORE PUSH1 0x20 ADD DUP6 DUP2 MSTORE PUSH1 0x20 ADD DUP4 DUP2 MSTORE PUSH1 0x20 ADD DUP5 PUSH29 0xFFFFFFFFFFFFFFFFFFFFFFFFFFFFFFFFFFFFFFFFFFFFFFFFFFFFFFFFFF AND DUP2 MSTORE POP SWAP1 POP PUSH1 0x0 DUP1 PUSH1 0x0 PUSH2 0x764 DUP10 PUSH2 0x1BED JUMP JUMPDEST SWAP3 POP SWAP3 POP SWAP3 POP PUSH1 0x1 PUSH1 0x53 PUSH1 0x0 DUP15 DUP2 MSTORE PUSH1 0x20 ADD SWAP1 DUP2 MSTORE PUSH1 0x20 ADD PUSH1 0x0 KECCAK256 PUSH1 0x0 PUSH2 0x100 EXP DUP2 SLOAD DUP2 PUSH1 0xFF MUL NOT AND SWAP1 DUP4 ISZERO ISZERO MUL OR SWAP1 SSTORE POP POP POP POP POP POP POP POP POP POP POP POP POP POP POP POP JUMP JUMPDEST PUSH1 0x4F PUSH1 0x0 DUP3 PUSH29 0xFFFFFFFFFFFFFFFFFFFFFFFFFFFFFFFFFFFFFFFFFFFFFFFFFFFFFFFFFF AND PUSH29 0xFFFFFFFFFFFFFFFFFFFFFFFFFFFFFFFFFFFFFFFFFFFFFFFFFFFFFFFFFF AND DUP2 MSTORE PUSH1 0x20 ADD SWAP1 DUP2 MSTORE PUSH1 0x20 ADD PUSH1 0x0 KECCAK256 PUSH1 0x0 ADD PUSH1 0x1D SWAP1 SLOAD SWAP1 PUSH2 0x100 EXP SWAP1 DIV PUSH1 0xFF AND PUSH2 0x848 JUMPI PUSH1 0x40 MLOAD PUSH32 0x8C379A000000000000000000000000000000000000000000000000000000000 DUP2 MSTORE PUSH1 0x4 ADD PUSH2 0x83F SWAP1 PUSH2 0x4212 JUMP JUMPDEST PUSH1 0x40 MLOAD DUP1 SWAP2 SUB SWAP1 REVERT JUMPDEST PUSH1 0x1 ISZERO ISZERO PUSH1 0x4F PUSH1 0x0 DUP4 PUSH29 0xFFFFFFFFFFFFFFFFFFFFFFFFFFFFFFFFFFFFFFFFFFFFFFFFFFFFFFFFFF AND PUSH29 0xFFFFFFFFFFFFFFFFFFFFFFFFFFFFFFFFFFFFFFFFFFFFFFFFFFFFFFFFFF AND DUP2 MSTORE PUSH1 0x20 ADD SWAP1 DUP2 MSTORE PUSH1 0x20 ADD PUSH1 0x0 KECCAK256 PUSH1 0x0 ADD PUSH1 0x1E SWAP1 SLOAD SWAP1 PUSH2 0x100 EXP SWAP1 DIV PUSH1 0xFF AND ISZERO ISZERO EQ PUSH2 0x8F0 JUMPI PUSH1 0x40 MLOAD PUSH32 0x8C379A000000000000000000000000000000000000000000000000000000000 DUP2 MSTORE PUSH1 0x4 ADD PUSH2 0x8E7 SWAP1 PUSH2 0x4336 JUMP JUMPDEST PUSH1 0x40 MLOAD DUP1 SWAP2 SUB SWAP1 REVERT JUMPDEST PUSH1 0x0 PUSH1 0x4F PUSH1 0x0 DUP4 PUSH29 0xFFFFFFFFFFFFFFFFFFFFFFFFFFFFFFFFFFFFFFFFFFFFFFFFFFFFFFFFFF AND PUSH29 0xFFFFFFFFFFFFFFFFFFFFFFFFFFFFFFFFFFFFFFFFFFFFFFFFFFFFFFFFFF AND DUP2 MSTORE PUSH1 0x20 ADD SWAP1 DUP2 MSTORE PUSH1 0x20 ADD PUSH1 0x0 KECCAK256 PUSH1 0x0 ADD PUSH1 0x1E PUSH2 0x100 EXP DUP2 SLOAD DUP2 PUSH1 0xFF MUL NOT AND SWAP1 DUP4 ISZERO ISZERO MUL OR SWAP1 SSTORE POP PUSH1 0x0 ISZERO ISZERO DUP2 PUSH29 0xFFFFFFFFFFFFFFFFFFFFFFFFFFFFFFFFFFFFFFFFFFFFFFFFFFFFFFFFFF AND PUSH32 0xB8D2B8A2B352DF7F139810483B3C80FC3A4A88711C90BDB7180F1030B7F49ACF PUSH1 0x40 MLOAD PUSH1 0x40 MLOAD DUP1 SWAP2 SUB SWAP1 LOG3 POP JUMP JUMPDEST PUSH1 0x52 PUSH1 0x1D SWAP1 SLOAD SWAP1 PUSH2 0x100 EXP SWAP1 DIV PUSH1 0xFF AND DUP2 JUMP JUMPDEST PUSH2 0x9CB PUSH2 0x3257 JUMP JUMPDEST PUSH1 0x2 PUSH1 0xA DUP1 PUSH1 0x20 MUL PUSH1 0x40 MLOAD SWAP1 DUP2 ADD PUSH1 0x40 MSTORE DUP1 SWAP3 SWAP2 SWAP1 DUP3 PUSH1 0xA DUP1 ISZERO PUSH2 0xA04 JUMPI PUSH1 0x20 MUL DUP3 ADD SWAP2 JUMPDEST DUP2 SLOAD DUP2 MSTORE PUSH1 0x20 ADD SWAP1 PUSH1 0x1 ADD SWAP1 DUP1 DUP4 GT PUSH2 0x9F0 JUMPI JUMPDEST POP POP POP POP POP SWAP1 POP SWAP1 JUMP JUMPDEST PUSH2 0xA19 DUP2 PUSH1 0x0 PUSH2 0x1F6A JUMP JUMPDEST POP JUMP JUMPDEST PUSH1 0x0 DUP1 PUSH1 0x40 MLOAD DUP1 PUSH1 0x80 ADD PUSH1 0x40 MSTORE DUP1 DUP8 DUP2 MSTORE PUSH1 0x20 ADD DUP7 DUP2 MSTORE PUSH1 0x20 ADD DUP6 DUP2 MSTORE PUSH1 0x20 ADD DUP5 PUSH29 0xFFFFFFFFFFFFFFFFFFFFFFFFFFFFFFFFFFFFFFFFFFFFFFFFFFFFFFFFFF AND DUP2 MSTORE POP SWAP1 POP PUSH1 0x0 DUP1 PUSH1 0x0 PUSH2 0xA6F DUP11 PUSH2 0x1BED JUMP JUMPDEST SWAP3 POP SWAP3 POP SWAP3 POP PUSH1 0x0 ISZERO ISZERO PUSH1 0x53 PUSH1 0x0 DUP11 DUP2 MSTORE PUSH1 0x20 ADD SWAP1 DUP2 MSTORE PUSH1 0x20 ADD PUSH1 0x0 KECCAK256 PUSH1 0x0 SWAP1 SLOAD SWAP1 PUSH2 0x100 EXP SWAP1 DIV PUSH1 0xFF AND ISZERO ISZERO EQ DUP1 ISZERO PUSH2 0xAB0 JUMPI POP DUP7 PUSH2 0xAAE DUP13 PUSH2 0x1F52 JUMP JUMPDEST EQ JUMPDEST DUP1 ISZERO PUSH2 0xAC3 JUMPI POP PUSH2 0xAC0 DUP12 PUSH2 0x1F52 JUMP JUMPDEST DUP8 EQ JUMPDEST DUP1 ISZERO PUSH2 0xAD4 JUMPI POP PUSH2 0xAD3 DUP7 PUSH2 0x1B09 JUMP JUMPDEST JUMPDEST DUP1 ISZERO PUSH2 0xAFD JUMPI POP PUSH1 0x4D PUSH1 0x0 DUP11 DUP2 MSTORE PUSH1 0x20 ADD SWAP1 DUP2 MSTORE PUSH1 0x20 ADD PUSH1 0x0 KECCAK256 PUSH1 0x0 SWAP1 SLOAD SWAP1 PUSH2 0x100 EXP SWAP1 DIV PUSH1 0xFF AND JUMPDEST DUP1 ISZERO PUSH2 0xB0E JUMPI POP PUSH2 0xB0D DUP11 PUSH2 0x1D39 JUMP JUMPDEST JUMPDEST DUP1 ISZERO PUSH2 0xB39 JUMPI POP PUSH32 0x30644E72E131A029B85045B68181585D2833E84879B9709143E1F593F0000001 DUP10 LT JUMPDEST DUP1 ISZERO PUSH2 0xB64 JUMPI POP PUSH32 0x30644E72E131A029B85045B68181585D2833E84879B9709143E1F593F0000001 DUP9 LT JUMPDEST DUP1 ISZERO PUSH2 0xB78 JUMPI POP PUSH2 0xB77 DUP4 DUP4 DUP4 DUP8 PUSH2 0xD22 JUMP JUMPDEST JUMPDEST SWAP5 POP POP POP POP POP SWAP7 SWAP6 POP POP POP POP POP POP JUMP JUMPDEST PUSH1 0x51 PUSH1 0x0 SWAP1 SLOAD SWAP1 PUSH2 0x100 EXP SWAP1 DIV PUSH29 0xFFFFFFFFFFFFFFFFFFFFFFFFFFFFFFFFFFFFFFFFFFFFFFFFFFFFFFFFFF AND DUP2 JUMP JUMPDEST PUSH2 0xBBF PUSH2 0x327A JUMP JUMPDEST PUSH1 0x40 MLOAD DUP1 PUSH2 0x100 ADD PUSH1 0x40 MSTORE DUP1 DUP6 PUSH1 0x0 PUSH1 0x2 DUP2 LT PUSH2 0xBDF JUMPI PUSH2 0xBDE PUSH2 0x4356 JUMP JUMPDEST JUMPDEST PUSH1 0x20 MUL ADD MLOAD DUP2 MSTORE PUSH1 0x20 ADD DUP6 PUSH1 0x1 PUSH1 0x2 DUP2 LT PUSH2 0xBFD JUMPI PUSH2 0xBFC PUSH2 0x4356 JUMP JUMPDEST JUMPDEST PUSH1 0x20 MUL ADD MLOAD DUP2 MSTORE PUSH1 0x20 ADD DUP5 PUSH1 0x0 PUSH1 0x2 DUP2 LT PUSH2 0xC1B JUMPI PUSH2 0xC1A PUSH2 0x4356 JUMP JUMPDEST JUMPDEST PUSH1 0x20 MUL ADD MLOAD PUSH1 0x0 PUSH1 0x2 DUP2 LT PUSH2 0xC33 JUMPI PUSH2 0xC32 PUSH2 0x4356 JUMP JUMPDEST JUMPDEST PUSH1 0x20 MUL ADD MLOAD DUP2 MSTORE PUSH1 0x20 ADD DUP5 PUSH1 0x0 PUSH1 0x2 DUP2 LT PUSH2 0xC51 JUMPI PUSH2 0xC50 PUSH2 0x4356 JUMP JUMPDEST JUMPDEST PUSH1 0x20 MUL ADD MLOAD PUSH1 0x1 PUSH1 0x2 DUP2 LT PUSH2 0xC69 JUMPI PUSH2 0xC68 PUSH2 0x4356 JUMP JUMPDEST JUMPDEST PUSH1 0x20 MUL ADD MLOAD DUP2 MSTORE PUSH1 0x20 ADD DUP5 PUSH1 0x1 PUSH1 0x2 DUP2 LT PUSH2 0xC87 JUMPI PUSH2 0xC86 PUSH2 0x4356 JUMP JUMPDEST JUMPDEST PUSH1 0x20 MUL ADD MLOAD PUSH1 0x0 PUSH1 0x2 DUP2 LT PUSH2 0xC9F JUMPI PUSH2 0xC9E PUSH2 0x4356 JUMP JUMPDEST JUMPDEST PUSH1 0x20 MUL ADD MLOAD DUP2 MSTORE PUSH1 0x20 ADD DUP5 PUSH1 0x1 PUSH1 0x2 DUP2 LT PUSH2 0xCBD JUMPI PUSH2 0xCBC PUSH2 0x4356 JUMP JUMPDEST JUMPDEST PUSH1 0x20 MUL ADD MLOAD PUSH1 0x1 PUSH1 0x2 DUP2 LT PUSH2 0xCD5 JUMPI PUSH2 0xCD4 PUSH2 0x4356 JUMP JUMPDEST JUMPDEST PUSH1 0x20 MUL ADD MLOAD DUP2 MSTORE PUSH1 0x20 ADD DUP4 PUSH1 0x0 PUSH1 0x2 DUP2 LT PUSH2 0xCF3 JUMPI PUSH2 0xCF2 PUSH2 0x4356 JUMP JUMPDEST JUMPDEST PUSH1 0x20 MUL ADD MLOAD DUP2 MSTORE PUSH1 0x20 ADD DUP4 PUSH1 0x1 PUSH1 0x2 DUP2 LT PUSH2 0xD11 JUMPI PUSH2 0xD10 PUSH2 0x4356 JUMP JUMPDEST JUMPDEST PUSH1 0x20 MUL ADD MLOAD DUP2 MSTORE POP SWAP1 POP SWAP4 SWAP3 POP POP POP JUMP JUMPDEST PUSH1 0x0 PUSH2 0xD2C PUSH2 0x329D JUMP JUMPDEST PUSH1 0x40 MLOAD DUP1 PUSH1 0x40 ADD PUSH1 0x40 MSTORE DUP1 DUP8 PUSH1 0x0 PUSH1 0x2 DUP2 LT PUSH2 0xD4B JUMPI PUSH2 0xD4A PUSH2 0x4356 JUMP JUMPDEST JUMPDEST PUSH1 0x20 MUL ADD MLOAD DUP2 MSTORE PUSH1 0x20 ADD DUP8 PUSH1 0x1 PUSH1 0x2 DUP2 LT PUSH2 0xD69 JUMPI PUSH2 0xD68 PUSH2 0x4356 JUMP JUMPDEST JUMPDEST PUSH1 0x20 MUL ADD MLOAD DUP2 MSTORE POP DUP2 PUSH1 0x0 ADD DUP2 SWAP1 MSTORE POP PUSH1 0x40 MLOAD DUP1 PUSH1 0x40 ADD PUSH1 0x40 MSTORE DUP1 PUSH1 0x40 MLOAD DUP1 PUSH1 0x40 ADD PUSH1 0x40 MSTORE DUP1 DUP9 PUSH1 0x0 PUSH1 0x2 DUP2 LT PUSH2 0xDA3 JUMPI PUSH2 0xDA2 PUSH2 0x4356 JUMP JUMPDEST JUMPDEST PUSH1 0x20 MUL ADD MLOAD PUSH1 0x0 PUSH1 0x2 DUP2 LT PUSH2 0xDBB JUMPI PUSH2 0xDBA PUSH2 0x4356 JUMP JUMPDEST JUMPDEST PUSH1 0x20 MUL ADD MLOAD DUP2 MSTORE PUSH1 0x20 ADD DUP9 PUSH1 0x0 PUSH1 0x2 DUP2 LT PUSH2 0xDD9 JUMPI PUSH2 0xDD8 PUSH2 0x4356 JUMP JUMPDEST JUMPDEST PUSH1 0x20 MUL ADD MLOAD PUSH1 0x1 PUSH1 0x2 DUP2 LT PUSH2 0xDF1 JUMPI PUSH2 0xDF0 PUSH2 0x4356 JUMP JUMPDEST JUMPDEST PUSH1 0x20 MUL ADD MLOAD DUP2 MSTORE POP DUP2 MSTORE PUSH1 0x20 ADD PUSH1 0x40 MLOAD DUP1 PUSH1 0x40 ADD PUSH1 0x40 MSTORE DUP1 DUP9 PUSH1 0x1 PUSH1 0x2 DUP2 LT PUSH2 0xE1D JUMPI PUSH2 0xE1C PUSH2 0x4356 JUMP JUMPDEST JUMPDEST PUSH1 0x20 MUL ADD MLOAD PUSH1 0x0 PUSH1 0x2 DUP2 LT PUSH2 0xE35 JUMPI PUSH2 0xE34 PUSH2 0x4356 JUMP JUMPDEST JUMPDEST PUSH1 0x20 MUL ADD MLOAD DUP2 MSTORE PUSH1 0x20 ADD DUP9 PUSH1 0x1 PUSH1 0x2 DUP2 LT PUSH2 0xE53 JUMPI PUSH2 0xE52 PUSH2 0x4356 JUMP JUMPDEST JUMPDEST PUSH1 0x20 MUL ADD MLOAD PUSH1 0x1 PUSH1 0x2 DUP2 LT PUSH2 0xE6B JUMPI PUSH2 0xE6A PUSH2 0x4356 JUMP JUMPDEST JUMPDEST PUSH1 0x20 MUL ADD MLOAD DUP2 MSTORE POP DUP2 MSTORE POP DUP2 PUSH1 0x20 ADD DUP2 SWAP1 MSTORE POP PUSH1 0x40 MLOAD DUP1 PUSH1 0x40 ADD PUSH1 0x40 MSTORE DUP1 DUP6 PUSH1 0x0 PUSH1 0x2 DUP2 LT PUSH2 0xE9D JUMPI PUSH2 0xE9C PUSH2 0x4356 JUMP JUMPDEST JUMPDEST PUSH1 0x20 MUL ADD MLOAD DUP2 MSTORE PUSH1 0x20 ADD DUP6 PUSH1 0x1 PUSH1 0x2 DUP2 LT PUSH2 0xEBB JUMPI PUSH2 0xEBA PUSH2 0x4356 JUMP JUMPDEST JUMPDEST PUSH1 0x20 MUL ADD MLOAD DUP2 MSTORE POP DUP2 PUSH1 0x40 ADD DUP2 SWAP1 MSTORE POP PUSH1 0x0 PUSH2 0xED5 PUSH2 0x237C JUMP JUMPDEST SWAP1 POP PUSH1 0x0 PUSH1 0x40 MLOAD DUP1 PUSH1 0x40 ADD PUSH1 0x40 MSTORE DUP1 PUSH1 0x0 DUP2 MSTORE PUSH1 0x20 ADD PUSH1 0x0 DUP2 MSTORE POP SWAP1 POP PUSH32 0x30644E72E131A029B85045B68181585D97816A916871CA8D3C208C16D87CFD47 DUP4 PUSH1 0x0 ADD MLOAD PUSH1 0x0 ADD MLOAD LT PUSH2 0xF5C JUMPI PUSH1 0x40 MLOAD PUSH32 0x8C379A000000000000000000000000000000000000000000000000000000000 DUP2 MSTORE PUSH1 0x4 ADD PUSH2 0xF53 SWAP1 PUSH2 0x43D1 JUMP JUMPDEST PUSH1 0x40 MLOAD DUP1 SWAP2 SUB SWAP1 REVERT JUMPDEST PUSH32 0x30644E72E131A029B85045B68181585D97816A916871CA8D3C208C16D87CFD47 DUP4 PUSH1 0x0 ADD MLOAD PUSH1 0x20 ADD MLOAD LT PUSH2 0xFC6 JUMPI PUSH1 0x40 MLOAD PUSH32 0x8C379A000000000000000000000000000000000000000000000000000000000 DUP2 MSTORE PUSH1 0x4 ADD PUSH2 0xFBD SWAP1 PUSH2 0x443D JUMP JUMPDEST PUSH1 0x40 MLOAD DUP1 SWAP2 SUB SWAP1 REVERT JUMPDEST PUSH32 0x30644E72E131A029B85045B68181585D97816A916871CA8D3C208C16D87CFD47 DUP4 PUSH1 0x20 ADD MLOAD PUSH1 0x0 ADD MLOAD PUSH1 0x0 PUSH1 0x2 DUP2 LT PUSH2 0x1003 JUMPI PUSH2 0x1002 PUSH2 0x4356 JUMP JUMPDEST JUMPDEST PUSH1 0x20 MUL ADD MLOAD LT PUSH2 0x1048 JUMPI PUSH1 0x40 MLOAD PUSH32 0x8C379A000000000000000000000000000000000000000000000000000000000 DUP2 MSTORE PUSH1 0x4 ADD PUSH2 0x103F SWAP1 PUSH2 0x44A9 JUMP JUMPDEST PUSH1 0x40 MLOAD DUP1 SWAP2 SUB SWAP1 REVERT JUMPDEST PUSH32 0x30644E72E131A029B85045B68181585D97816A916871CA8D3C208C16D87CFD47 DUP4 PUSH1 0x20 ADD MLOAD PUSH1 0x20 ADD MLOAD PUSH1 0x0 PUSH1 0x2 DUP2 LT PUSH2 0x1085 JUMPI PUSH2 0x1084 PUSH2 0x4356 JUMP JUMPDEST JUMPDEST PUSH1 0x20 MUL ADD MLOAD LT PUSH2 0x10CA JUMPI PUSH1 0x40 MLOAD PUSH32 0x8C379A000000000000000000000000000000000000000000000000000000000 DUP2 MSTORE PUSH1 0x4 ADD PUSH2 0x10C1 SWAP1 PUSH2 0x4515 JUMP JUMPDEST PUSH1 0x40 MLOAD DUP1 SWAP2 SUB SWAP1 REVERT JUMPDEST PUSH32 0x30644E72E131A029B85045B68181585D97816A916871CA8D3C208C16D87CFD47 DUP4 PUSH1 0x20 ADD MLOAD PUSH1 0x0 ADD MLOAD PUSH1 0x1 PUSH1 0x2 DUP2 LT PUSH2 0x1107 JUMPI PUSH2 0x1106 PUSH2 0x4356 JUMP JUMPDEST JUMPDEST PUSH1 0x20 MUL ADD MLOAD LT PUSH2 0x114C JUMPI PUSH1 0x40 MLOAD PUSH32 0x8C379A000000000000000000000000000000000000000000000000000000000 DUP2 MSTORE PUSH1 0x4 ADD PUSH2 0x1143 SWAP1 PUSH2 0x4581 JUMP JUMPDEST PUSH1 0x40 MLOAD DUP1 SWAP2 SUB SWAP1 REVERT JUMPDEST PUSH32 0x30644E72E131A029B85045B68181585D97816A916871CA8D3C208C16D87CFD47 DUP4 PUSH1 0x20 ADD MLOAD PUSH1 0x20 ADD MLOAD PUSH1 0x1 PUSH1 0x2 DUP2 LT PUSH2 0x1189 JUMPI PUSH2 0x1188 PUSH2 0x4356 JUMP JUMPDEST JUMPDEST PUSH1 0x20 MUL ADD MLOAD LT PUSH2 0x11CE JUMPI PUSH1 0x40 MLOAD PUSH32 0x8C379A000000000000000000000000000000000000000000000000000000000 DUP2 MSTORE PUSH1 0x4 ADD PUSH2 0x11C5 SWAP1 PUSH2 0x45ED JUMP JUMPDEST PUSH1 0x40 MLOAD DUP1 SWAP2 SUB SWAP1 REVERT JUMPDEST PUSH32 0x30644E72E131A029B85045B68181585D97816A916871CA8D3C208C16D87CFD47 DUP4 PUSH1 0x40 ADD MLOAD PUSH1 0x0 ADD MLOAD LT PUSH2 0x1238 JUMPI PUSH1 0x40 MLOAD PUSH32 0x8C379A000000000000000000000000000000000000000000000000000000000 DUP2 MSTORE PUSH1 0x4 ADD PUSH2 0x122F SWAP1 PUSH2 0x4659 JUMP JUMPDEST PUSH1 0x40 MLOAD DUP1 SWAP2 SUB SWAP1 REVERT JUMPDEST PUSH32 0x30644E72E131A029B85045B68181585D97816A916871CA8D3C208C16D87CFD47 DUP4 PUSH1 0x40 ADD MLOAD PUSH1 0x20 ADD MLOAD LT PUSH2 0x12A2 JUMPI PUSH1 0x40 MLOAD PUSH32 0x8C379A000000000000000000000000000000000000000000000000000000000 DUP2 MSTORE PUSH1 0x4 ADD PUSH2 0x1299 SWAP1 PUSH2 0x46C5 JUMP JUMPDEST PUSH1 0x40 MLOAD DUP1 SWAP2 SUB SWAP1 REVERT JUMPDEST PUSH1 0x0 JUMPDEST PUSH1 0x4 DUP2 LT ISZERO PUSH2 0x138D JUMPI PUSH32 0x30644E72E131A029B85045B68181585D2833E84879B9709143E1F593F0000001 DUP7 DUP3 PUSH1 0x4 DUP2 LT PUSH2 0x12E2 JUMPI PUSH2 0x12E1 PUSH2 0x4356 JUMP JUMPDEST JUMPDEST PUSH1 0x20 MUL ADD MLOAD LT PUSH2 0x1327 JUMPI PUSH1 0x40 MLOAD PUSH32 0x8C379A000000000000000000000000000000000000000000000000000000000 DUP2 MSTORE PUSH1 0x4 ADD PUSH2 0x131E SWAP1 PUSH2 0x4731 JUMP JUMPDEST PUSH1 0x40 MLOAD DUP1 SWAP2 SUB SWAP1 REVERT JUMPDEST PUSH2 0x1378 DUP3 PUSH2 0x1373 DUP6 PUSH1 0x80 ADD MLOAD PUSH1 0x1 DUP6 PUSH2 0x1340 SWAP2 SWAP1 PUSH2 0x4780 JUMP JUMPDEST PUSH1 0x5 DUP2 LT PUSH2 0x1351 JUMPI PUSH2 0x1350 PUSH2 0x4356 JUMP JUMPDEST JUMPDEST PUSH1 0x20 MUL ADD MLOAD DUP10 DUP6 PUSH1 0x4 DUP2 LT PUSH2 0x1369 JUMPI PUSH2 0x1368 PUSH2 0x4356 JUMP JUMPDEST JUMPDEST PUSH1 0x20 MUL ADD MLOAD PUSH2 0x287B JUMP JUMPDEST PUSH2 0x28F4 JUMP JUMPDEST SWAP2 POP DUP1 DUP1 PUSH2 0x1385 SWAP1 PUSH2 0x47D6 JUMP JUMPDEST SWAP2 POP POP PUSH2 0x12A5 JUMP JUMPDEST POP PUSH2 0x13B4 DUP2 DUP4 PUSH1 0x80 ADD MLOAD PUSH1 0x0 PUSH1 0x5 DUP2 LT PUSH2 0x13AA JUMPI PUSH2 0x13A9 PUSH2 0x4356 JUMP JUMPDEST JUMPDEST PUSH1 0x20 MUL ADD MLOAD PUSH2 0x28F4 JUMP JUMPDEST SWAP1 POP PUSH2 0x13EA PUSH2 0x13C6 DUP5 PUSH1 0x0 ADD MLOAD PUSH2 0x2993 JUMP JUMPDEST DUP5 PUSH1 0x20 ADD MLOAD DUP5 PUSH1 0x0 ADD MLOAD DUP6 PUSH1 0x20 ADD MLOAD DUP6 DUP8 PUSH1 0x40 ADD MLOAD DUP10 PUSH1 0x40 ADD MLOAD DUP10 PUSH1 0x60 ADD MLOAD PUSH2 0x2A51 JUMP JUMPDEST SWAP4 POP POP POP POP SWAP5 SWAP4 POP POP POP POP JUMP JUMPDEST PUSH1 0x0 PUSH1 0x54 SLOAD DUP3 EQ ISZERO PUSH2 0x143E JUMPI PUSH1 0x40 MLOAD PUSH32 0x8C379A000000000000000000000000000000000000000000000000000000000 DUP2 MSTORE PUSH1 0x4 ADD PUSH2 0x1435 SWAP1 PUSH2 0x48B7 JUMP JUMPDEST PUSH1 0x40 MLOAD DUP1 SWAP2 SUB SWAP1 REVERT JUMPDEST DUP2 PUSH32 0x31D0D431762AF1B333D4FEF318E03EFC7B702FE91DD1F0AA2C72E699BEBCB489 PUSH1 0x40 MLOAD PUSH1 0x40 MLOAD DUP1 SWAP2 SUB SWAP1 LOG2 PUSH2 0x1474 DUP3 PUSH2 0x2D65 JUMP JUMPDEST SWAP1 POP SWAP2 SWAP1 POP JUMP JUMPDEST PUSH1 0x54 SLOAD DUP2 JUMP JUMPDEST PUSH2 0x1489 PUSH2 0x1829 JUMP JUMPDEST PUSH2 0x14C8 JUMPI PUSH1 0x40 MLOAD PUSH32 0x8C379A000000000000000000000000000000000000000000000000000000000 DUP2 MSTORE PUSH1 0x4 ADD PUSH2 0x14BF SWAP1 PUSH2 0x4923 JUMP JUMPDEST PUSH1 0x40 MLOAD DUP1 SWAP2 SUB SWAP1 REVERT JUMPDEST PUSH1 0x0 PUSH20 0xFFFFFFFFFFFFFFFFFFFFFFFFFFFFFFFFFFFFFFFF AND PUSH1 0x4E PUSH1 0x0 SWAP1 SLOAD SWAP1 PUSH2 0x100 EXP SWAP1 DIV PUSH20 0xFFFFFFFFFFFFFFFFFFFFFFFFFFFFFFFFFFFFFFFF AND PUSH20 0xFFFFFFFFFFFFFFFFFFFFFFFFFFFFFFFFFFFFFFFF AND PUSH32 0x8BE0079C531659141344CD1FD0A4F28419497F9722A3DAAFE3B4186F6B6457E0 PUSH1 0x40 MLOAD PUSH1 0x40 MLOAD DUP1 SWAP2 SUB SWAP1 LOG3 PUSH1 0x0 PUSH1 0x4E PUSH1 0x0 PUSH2 0x100 EXP DUP2 SLOAD DUP2 PUSH20 0xFFFFFFFFFFFFFFFFFFFFFFFFFFFFFFFFFFFFFFFF MUL NOT AND SWAP1 DUP4 PUSH20 0xFFFFFFFFFFFFFFFFFFFFFFFFFFFFFFFFFFFFFFFF AND MUL OR SWAP1 SSTORE POP JUMP JUMPDEST PUSH1 0x4F PUSH1 0x20 MSTORE DUP1 PUSH1 0x0 MSTORE PUSH1 0x40 PUSH1 0x0 KECCAK256 PUSH1 0x0 SWAP2 POP SWAP1 POP DUP1 PUSH1 0x0 ADD PUSH1 0x0 SWAP1 SLOAD SWAP1 PUSH2 0x100 EXP SWAP1 DIV PUSH29 0xFFFFFFFFFFFFFFFFFFFFFFFFFFFFFFFFFFFFFFFFFFFFFFFFFFFFFFFFFF AND SWAP1 DUP1 PUSH1 0x0 ADD PUSH1 0x1D SWAP1 SLOAD SWAP1 PUSH2 0x100 EXP SWAP1 DIV PUSH1 0xFF AND SWAP1 DUP1 PUSH1 0x0 ADD PUSH1 0x1E SWAP1 SLOAD SWAP1 PUSH2 0x100 EXP SWAP1 DIV PUSH1 0xFF AND SWAP1 POP DUP4 JUMP JUMPDEST PUSH1 0x4F PUSH1 0x0 DUP3 PUSH29 0xFFFFFFFFFFFFFFFFFFFFFFFFFFFFFFFFFFFFFFFFFFFFFFFFFFFFFFFFFF AND PUSH29 0xFFFFFFFFFFFFFFFFFFFFFFFFFFFFFFFFFFFFFFFFFFFFFFFFFFFFFFFFFF AND DUP2 MSTORE PUSH1 0x20 ADD SWAP1 DUP2 MSTORE PUSH1 0x20 ADD PUSH1 0x0 KECCAK256 PUSH1 0x0 ADD PUSH1 0x1D SWAP1 SLOAD SWAP1 PUSH2 0x100 EXP SWAP1 DIV PUSH1 0xFF AND PUSH2 0x1697 JUMPI PUSH1 0x40 MLOAD PUSH32 0x8C379A000000000000000000000000000000000000000000000000000000000 DUP2 MSTORE PUSH1 0x4 ADD PUSH2 0x168E SWAP1 PUSH2 0x4212 JUMP JUMPDEST PUSH1 0x40 MLOAD DUP1 SWAP2 SUB SWAP1 REVERT JUMPDEST PUSH1 0x0 ISZERO ISZERO PUSH1 0x4F PUSH1 0x0 DUP4 PUSH29 0xFFFFFFFFFFFFFFFFFFFFFFFFFFFFFFFFFFFFFFFFFFFFFFFFFFFFFFFFFF AND PUSH29 0xFFFFFFFFFFFFFFFFFFFFFFFFFFFFFFFFFFFFFFFFFFFFFFFFFFFFFFFFFF AND DUP2 MSTORE PUSH1 0x20 ADD SWAP1 DUP2 MSTORE PUSH1 0x20 ADD PUSH1 0x0 KECCAK256 PUSH1 0x0 ADD PUSH1 0x1E SWAP1 SLOAD SWAP1 PUSH2 0x100 EXP SWAP1 DIV PUSH1 0xFF AND ISZERO ISZERO EQ PUSH2 0x173F JUMPI PUSH1 0x40 MLOAD PUSH32 0x8C379A000000000000000000000000000000000000000000000000000000000 DUP2 MSTORE PUSH1 0x4 ADD PUSH2 0x1736 SWAP1 PUSH2 0x49B5 JUMP JUMPDEST PUSH1 0x40 MLOAD DUP1 SWAP2 SUB SWAP1 REVERT JUMPDEST PUSH1 0x1 PUSH1 0x4F PUSH1 0x0 DUP4 PUSH29 0xFFFFFFFFFFFFFFFFFFFFFFFFFFFFFFFFFFFFFFFFFFFFFFFFFFFFFFFFFF AND PUSH29 0xFFFFFFFFFFFFFFFFFFFFFFFFFFFFFFFFFFFFFFFFFFFFFFFFFFFFFFFFFF AND DUP2 MSTORE PUSH1 0x20 ADD SWAP1 DUP2 MSTORE PUSH1 0x20 ADD PUSH1 0x0 KECCAK256 PUSH1 0x0 ADD PUSH1 0x1E PUSH2 0x100 EXP DUP2 SLOAD DUP2 PUSH1 0xFF MUL NOT AND SWAP1 DUP4 ISZERO ISZERO MUL OR SWAP1 SSTORE POP PUSH1 0x1 ISZERO ISZERO DUP2 PUSH29 0xFFFFFFFFFFFFFFFFFFFFFFFFFFFFFFFFFFFFFFFFFFFFFFFFFFFFFFFFFF AND PUSH32 0xB8D2B8A2B352DF7F139810483B3C80FC3A4A88711C90BDB7180F1030B7F49ACF PUSH1 0x40 MLOAD PUSH1 0x40 MLOAD DUP1 SWAP2 SUB SWAP1 LOG3 POP JUMP JUMPDEST PUSH1 0x0 PUSH1 0x4E PUSH1 0x0 SWAP1 SLOAD SWAP1 PUSH2 0x100 EXP SWAP1 DIV PUSH20 0xFFFFFFFFFFFFFFFFFFFFFFFFFFFFFFFFFFFFFFFF AND SWAP1 POP SWAP1 JUMP JUMPDEST PUSH1 0x0 PUSH1 0x4E PUSH1 0x0 SWAP1 SLOAD SWAP1 PUSH2 0x100 EXP SWAP1 DIV PUSH20 0xFFFFFFFFFFFFFFFFFFFFFFFFFFFFFFFFFFFFFFFF AND PUSH20 0xFFFFFFFFFFFFFFFFFFFFFFFFFFFFFFFFFFFFFFFF AND CALLER PUSH20 0xFFFFFFFFFFFFFFFFFFFFFFFFFFFFFFFFFFFFFFFF AND EQ SWAP1 POP SWAP1 JUMP JUMPDEST PUSH1 0x50 SLOAD DUP2 JUMP JUMPDEST PUSH1 0x0 PUSH1 0x1 SLOAD SWAP1 POP SWAP1 JUMP JUMPDEST PUSH1 0x0 PUSH1 0x4F PUSH1 0x0 DUP4 PUSH29 0xFFFFFFFFFFFFFFFFFFFFFFFFFFFFFFFFFFFFFFFFFFFFFFFFFFFFFFFFFF AND PUSH29 0xFFFFFFFFFFFFFFFFFFFFFFFFFFFFFFFFFFFFFFFFFFFFFFFFFFFFFFFFFF AND DUP2 MSTORE PUSH1 0x20 ADD SWAP1 DUP2 MSTORE PUSH1 0x20 ADD PUSH1 0x0 KECCAK256 PUSH1 0x0 ADD PUSH1 0x1D SWAP1 SLOAD SWAP1 PUSH2 0x100 EXP SWAP1 DIV PUSH1 0xFF AND PUSH2 0x1934 JUMPI PUSH1 0x40 MLOAD PUSH32 0x8C379A000000000000000000000000000000000000000000000000000000000 DUP2 MSTORE PUSH1 0x4 ADD PUSH2 0x192B SWAP1 PUSH2 0x4A47 JUMP JUMPDEST PUSH1 0x40 MLOAD DUP1 SWAP2 SUB SWAP1 REVERT JUMPDEST PUSH1 0x0 PUSH1 0x4F PUSH1 0x0 DUP5 PUSH29 0xFFFFFFFFFFFFFFFFFFFFFFFFFFFFFFFFFFFFFFFFFFFFFFFFFFFFFFFFFF AND PUSH29 0xFFFFFFFFFFFFFFFFFFFFFFFFFFFFFFFFFFFFFFFFFFFFFFFFFFFFFFFFFF AND DUP2 MSTORE PUSH1 0x20 ADD SWAP1 DUP2 MSTORE PUSH1 0x20 ADD PUSH1 0x0 KECCAK256 PUSH1 0x0 ADD PUSH1 0x0 SWAP1 SLOAD SWAP1 PUSH2 0x100 EXP SWAP1 DIV PUSH29 0xFFFFFFFFFFFFFFFFFFFFFFFFFFFFFFFFFFFFFFFFFFFFFFFFFFFFFFFFFF AND SWAP1 POP PUSH1 0x1 PUSH1 0x50 SLOAD GT DUP1 ISZERO PUSH2 0x1A26 JUMPI POP PUSH1 0x4F PUSH1 0x0 DUP3 PUSH29 0xFFFFFFFFFFFFFFFFFFFFFFFFFFFFFFFFFFFFFFFFFFFFFFFFFFFFFFFFFF AND PUSH29 0xFFFFFFFFFFFFFFFFFFFFFFFFFFFFFFFFFFFFFFFFFFFFFFFFFFFFFFFFFF AND DUP2 MSTORE PUSH1 0x20 ADD SWAP1 DUP2 MSTORE PUSH1 0x20 ADD PUSH1 0x0 KECCAK256 PUSH1 0x0 ADD PUSH1 0x1D SWAP1 SLOAD SWAP1 PUSH2 0x100 EXP SWAP1 DIV PUSH1 0xFF AND JUMPDEST PUSH2 0x1A65 JUMPI PUSH1 0x40 MLOAD PUSH32 0x8C379A000000000000000000000000000000000000000000000000000000000 DUP2 MSTORE PUSH1 0x4 ADD PUSH2 0x1A5C SWAP1 PUSH2 0x4AD9 JUMP JUMPDEST PUSH1 0x40 MLOAD DUP1 SWAP2 SUB SWAP1 REVERT JUMPDEST DUP1 SWAP2 POP POP SWAP2 SWAP1 POP JUMP JUMPDEST PUSH1 0x53 PUSH1 0x20 MSTORE DUP1 PUSH1 0x0 MSTORE PUSH1 0x40 PUSH1 0x0 KECCAK256 PUSH1 0x0 SWAP2 POP SLOAD SWAP1 PUSH2 0x100 EXP SWAP1 DIV PUSH1 0xFF AND DUP2 JUMP JUMPDEST PUSH1 0x52 PUSH1 0x0 SWAP1 SLOAD SWAP1 PUSH2 0x100 EXP SWAP1 DIV PUSH29 0xFFFFFFFFFFFFFFFFFFFFFFFFFFFFFFFFFFFFFFFFFFFFFFFFFFFFFFFFFF AND DUP2 JUMP JUMPDEST DUP1 PUSH1 0x52 PUSH1 0x1D PUSH2 0x100 EXP DUP2 SLOAD DUP2 PUSH1 0xFF MUL NOT AND SWAP1 DUP4 ISZERO ISZERO MUL OR SWAP1 SSTORE POP DUP1 ISZERO ISZERO PUSH32 0xFBA91B9002BC7732A7BFF1B44EE16A30EBAEB06D7921779034C6A6AB27E69C27 PUSH1 0x40 MLOAD PUSH1 0x40 MLOAD DUP1 SWAP2 SUB SWAP1 LOG2 POP JUMP JUMPDEST PUSH1 0x0 PUSH1 0x4F PUSH1 0x0 DUP4 PUSH29 0xFFFFFFFFFFFFFFFFFFFFFFFFFFFFFFFFFFFFFFFFFFFFFFFFFFFFFFFFFF AND PUSH29 0xFFFFFFFFFFFFFFFFFFFFFFFFFFFFFFFFFFFFFFFFFFFFFFFFFFFFFFFFFF AND DUP2 MSTORE PUSH1 0x20 ADD SWAP1 DUP2 MSTORE PUSH1 0x20 ADD PUSH1 0x0 KECCAK256 PUSH1 0x0 ADD PUSH1 0x1E SWAP1 SLOAD SWAP1 PUSH2 0x100 EXP SWAP1 DIV PUSH1 0xFF AND SWAP1 POP SWAP2 SWAP1 POP JUMP JUMPDEST PUSH1 0xC SLOAD DUP2 JUMP JUMPDEST PUSH1 0x4D PUSH1 0x20 MSTORE DUP1 PUSH1 0x0 MSTORE PUSH1 0x40 PUSH1 0x0 KECCAK256 PUSH1 0x0 SWAP2 POP SLOAD SWAP1 PUSH2 0x100 EXP SWAP1 DIV PUSH1 0xFF AND DUP2 JUMP JUMPDEST PUSH2 0x1BA2 PUSH2 0x1829 JUMP JUMPDEST PUSH2 0x1BE1 JUMPI PUSH1 0x40 MLOAD PUSH32 0x8C379A000000000000000000000000000000000000000000000000000000000 DUP2 MSTORE PUSH1 0x4 ADD PUSH2 0x1BD8 SWAP1 PUSH2 0x4923 JUMP JUMPDEST PUSH1 0x40 MLOAD DUP1 SWAP2 SUB SWAP1 REVERT JUMPDEST PUSH2 0x1BEA DUP2 PUSH2 0x2FDD JUMP JUMPDEST POP JUMP JUMPDEST PUSH2 0x1BF5 PUSH2 0x32D0 JUMP JUMPDEST PUSH2 0x1BFD PUSH2 0x32F2 JUMP JUMPDEST PUSH2 0x1C05 PUSH2 0x32D0 JUMP JUMPDEST PUSH1 0x40 MLOAD DUP1 PUSH1 0x40 ADD PUSH1 0x40 MSTORE DUP1 DUP6 PUSH1 0x0 PUSH1 0x8 DUP2 LT PUSH2 0x1C24 JUMPI PUSH2 0x1C23 PUSH2 0x4356 JUMP JUMPDEST JUMPDEST PUSH1 0x20 MUL ADD MLOAD DUP2 MSTORE PUSH1 0x20 ADD DUP6 PUSH1 0x1 PUSH1 0x8 DUP2 LT PUSH2 0x1C42 JUMPI PUSH2 0x1C41 PUSH2 0x4356 JUMP JUMPDEST JUMPDEST PUSH1 0x20 MUL ADD MLOAD DUP2 MSTORE POP PUSH1 0x40 MLOAD DUP1 PUSH1 0x40 ADD PUSH1 0x40 MSTORE DUP1 PUSH1 0x40 MLOAD DUP1 PUSH1 0x40 ADD PUSH1 0x40 MSTORE DUP1 DUP9 PUSH1 0x2 PUSH1 0x8 DUP2 LT PUSH2 0x1C74 JUMPI PUSH2 0x1C73 PUSH2 0x4356 JUMP JUMPDEST JUMPDEST PUSH1 0x20 MUL ADD MLOAD DUP2 MSTORE PUSH1 0x20 ADD DUP9 PUSH1 0x3 PUSH1 0x8 DUP2 LT PUSH2 0x1C92 JUMPI PUSH2 0x1C91 PUSH2 0x4356 JUMP JUMPDEST JUMPDEST PUSH1 0x20 MUL ADD MLOAD DUP2 MSTORE POP DUP2 MSTORE PUSH1 0x20 ADD PUSH1 0x40 MLOAD DUP1 PUSH1 0x40 ADD PUSH1 0x40 MSTORE DUP1 DUP9 PUSH1 0x4 PUSH1 0x8 DUP2 LT PUSH2 0x1CBE JUMPI PUSH2 0x1CBD PUSH2 0x4356 JUMP JUMPDEST JUMPDEST PUSH1 0x20 MUL ADD MLOAD DUP2 MSTORE PUSH1 0x20 ADD DUP9 PUSH1 0x5 PUSH1 0x8 DUP2 LT PUSH2 0x1CDC JUMPI PUSH2 0x1CDB PUSH2 0x4356 JUMP JUMPDEST JUMPDEST PUSH1 0x20 MUL ADD MLOAD DUP2 MSTORE POP DUP2 MSTORE POP PUSH1 0x40 MLOAD DUP1 PUSH1 0x40 ADD PUSH1 0x40 MSTORE DUP1 DUP8 PUSH1 0x6 PUSH1 0x8 DUP2 LT PUSH2 0x1D06 JUMPI PUSH2 0x1D05 PUSH2 0x4356 JUMP JUMPDEST JUMPDEST PUSH1 0x20 MUL ADD MLOAD DUP2 MSTORE PUSH1 0x20 ADD DUP8 PUSH1 0x7 PUSH1 0x8 DUP2 LT PUSH2 0x1D24 JUMPI PUSH2 0x1D23 PUSH2 0x4356 JUMP JUMPDEST JUMPDEST PUSH1 0x20 MUL ADD MLOAD DUP2 MSTORE POP SWAP3 POP SWAP3 POP SWAP3 POP SWAP2 SWAP4 SWAP1 SWAP3 POP JUMP JUMPDEST PUSH1 0x0 PUSH32 0x30644E72E131A029B85045B68181585D2833E84879B9709143E1F593F0000001 DUP3 PUSH1 0x0 PUSH1 0x8 DUP2 LT PUSH2 0x1D70 JUMPI PUSH2 0x1D6F PUSH2 0x4356 JUMP JUMPDEST JUMPDEST PUSH1 0x20 MUL ADD MLOAD LT DUP1 ISZERO PUSH2 0x1DB9 JUMPI POP PUSH32 0x30644E72E131A029B85045B68181585D2833E84879B9709143E1F593F0000001 DUP3 PUSH1 0x1 PUSH1 0x8 DUP2 LT PUSH2 0x1DB2 JUMPI PUSH2 0x1DB1 PUSH2 0x4356 JUMP JUMPDEST JUMPDEST PUSH1 0x20 MUL ADD MLOAD LT JUMPDEST DUP1 ISZERO PUSH2 0x1DFC JUMPI POP PUSH32 0x30644E72E131A029B85045B68181585D2833E84879B9709143E1F593F0000001 DUP3 PUSH1 0x2 PUSH1 0x8 DUP2 LT PUSH2 0x1DF5 JUMPI PUSH2 0x1DF4 PUSH2 0x4356 JUMP JUMPDEST JUMPDEST PUSH1 0x20 MUL ADD MLOAD LT JUMPDEST DUP1 ISZERO PUSH2 0x1E3F JUMPI POP PUSH32 0x30644E72E131A029B85045B68181585D2833E84879B9709143E1F593F0000001 DUP3 PUSH1 0x3 PUSH1 0x8 DUP2 LT PUSH2 0x1E38 JUMPI PUSH2 0x1E37 PUSH2 0x4356 JUMP JUMPDEST JUMPDEST PUSH1 0x20 MUL ADD MLOAD LT JUMPDEST DUP1 ISZERO PUSH2 0x1E82 JUMPI POP PUSH32 0x30644E72E131A029B85045B68181585D2833E84879B9709143E1F593F0000001 DUP3 PUSH1 0x4 PUSH1 0x8 DUP2 LT PUSH2 0x1E7B JUMPI PUSH2 0x1E7A PUSH2 0x4356 JUMP JUMPDEST JUMPDEST PUSH1 0x20 MUL ADD MLOAD LT JUMPDEST DUP1 ISZERO PUSH2 0x1EC5 JUMPI POP PUSH32 0x30644E72E131A029B85045B68181585D2833E84879B9709143E1F593F0000001 DUP3 PUSH1 0x5 PUSH1 0x8 DUP2 LT PUSH2 0x1EBE JUMPI PUSH2 0x1EBD PUSH2 0x4356 JUMP JUMPDEST JUMPDEST PUSH1 0x20 MUL ADD MLOAD LT JUMPDEST DUP1 ISZERO PUSH2 0x1F08 JUMPI POP PUSH32 0x30644E72E131A029B85045B68181585D2833E84879B9709143E1F593F0000001 DUP3 PUSH1 0x6 PUSH1 0x8 DUP2 LT PUSH2 0x1F01 JUMPI PUSH2 0x1F00 PUSH2 0x4356 JUMP JUMPDEST JUMPDEST PUSH1 0x20 MUL ADD MLOAD LT JUMPDEST DUP1 ISZERO PUSH2 0x1F4B JUMPI POP PUSH32 0x30644E72E131A029B85045B68181585D2833E84879B9709143E1F593F0000001 DUP3 PUSH1 0x7 PUSH1 0x8 DUP2 LT PUSH2 0x1F44 JUMPI PUSH2 0x1F43 PUSH2 0x4356 JUMP JUMPDEST JUMPDEST PUSH1 0x20 MUL ADD MLOAD LT JUMPDEST SWAP1 POP SWAP2 SWAP1 POP JUMP JUMPDEST PUSH1 0x0 PUSH1 0x8 DUP3 DUP1 MLOAD SWAP1 PUSH1 0x20 ADD KECCAK256 PUSH1 0x0 SHR SWAP1 SHR SWAP1 POP SWAP2 SWAP1 POP JUMP JUMPDEST DUP1 ISZERO PUSH2 0x1FC8 JUMPI DUP2 PUSH1 0x51 PUSH1 0x0 PUSH2 0x100 EXP DUP2 SLOAD DUP2 PUSH29 0xFFFFFFFFFFFFFFFFFFFFFFFFFFFFFFFFFFFFFFFFFFFFFFFFFFFFFFFFFF MUL NOT AND SWAP1 DUP4 PUSH29 0xFFFFFFFFFFFFFFFFFFFFFFFFFFFFFFFFFFFFFFFFFFFFFFFFFFFFFFFFFF AND MUL OR SWAP1 SSTORE POP PUSH2 0x2141 JUMP JUMPDEST PUSH1 0x0 ISZERO ISZERO PUSH1 0x4F PUSH1 0x0 DUP5 PUSH29 0xFFFFFFFFFFFFFFFFFFFFFFFFFFFFFFFFFFFFFFFFFFFFFFFFFFFFFFFFFF AND PUSH29 0xFFFFFFFFFFFFFFFFFFFFFFFFFFFFFFFFFFFFFFFFFFFFFFFFFFFFFFFFFF AND DUP2 MSTORE PUSH1 0x20 ADD SWAP1 DUP2 MSTORE PUSH1 0x20 ADD PUSH1 0x0 KECCAK256 PUSH1 0x0 ADD PUSH1 0x1D SWAP1 SLOAD SWAP1 PUSH2 0x100 EXP SWAP1 DIV PUSH1 0xFF AND ISZERO ISZERO EQ PUSH2 0x2070 JUMPI PUSH1 0x40 MLOAD PUSH32 0x8C379A000000000000000000000000000000000000000000000000000000000 DUP2 MSTORE PUSH1 0x4 ADD PUSH2 0x2067 SWAP1 PUSH2 0x4B6B JUMP JUMPDEST PUSH1 0x40 MLOAD DUP1 SWAP2 SUB SWAP1 REVERT JUMPDEST DUP2 PUSH1 0x4F PUSH1 0x0 PUSH1 0x52 PUSH1 0x0 SWAP1 SLOAD SWAP1 PUSH2 0x100 EXP SWAP1 DIV PUSH29 0xFFFFFFFFFFFFFFFFFFFFFFFFFFFFFFFFFFFFFFFFFFFFFFFFFFFFFFFFFF AND PUSH29 0xFFFFFFFFFFFFFFFFFFFFFFFFFFFFFFFFFFFFFFFFFFFFFFFFFFFFFFFFFF AND PUSH29 0xFFFFFFFFFFFFFFFFFFFFFFFFFFFFFFFFFFFFFFFFFFFFFFFFFFFFFFFFFF AND DUP2 MSTORE PUSH1 0x20 ADD SWAP1 DUP2 MSTORE PUSH1 0x20 ADD PUSH1 0x0 KECCAK256 PUSH1 0x0 ADD PUSH1 0x0 PUSH2 0x100 EXP DUP2 SLOAD DUP2 PUSH29 0xFFFFFFFFFFFFFFFFFFFFFFFFFFFFFFFFFFFFFFFFFFFFFFFFFFFFFFFFFF MUL NOT AND SWAP1 DUP4 PUSH29 0xFFFFFFFFFFFFFFFFFFFFFFFFFFFFFFFFFFFFFFFFFFFFFFFFFFFFFFFFFF AND MUL OR SWAP1 SSTORE POP JUMPDEST PUSH1 0x0 PUSH1 0x4F PUSH1 0x0 DUP5 PUSH29 0xFFFFFFFFFFFFFFFFFFFFFFFFFFFFFFFFFFFFFFFFFFFFFFFFFFFFFFFFFF AND PUSH29 0xFFFFFFFFFFFFFFFFFFFFFFFFFFFFFFFFFFFFFFFFFFFFFFFFFFFFFFFFFF AND DUP2 MSTORE PUSH1 0x20 ADD SWAP1 DUP2 MSTORE PUSH1 0x20 ADD PUSH1 0x0 KECCAK256 PUSH1 0x0 ADD PUSH1 0x0 PUSH2 0x100 EXP DUP2 SLOAD DUP2 PUSH29 0xFFFFFFFFFFFFFFFFFFFFFFFFFFFFFFFFFFFFFFFFFFFFFFFFFFFFFFFFFF MUL NOT AND SWAP1 DUP4 PUSH29 0xFFFFFFFFFFFFFFFFFFFFFFFFFFFFFFFFFFFFFFFFFFFFFFFFFFFFFFFFFF AND MUL OR SWAP1 SSTORE POP PUSH1 0x1 PUSH1 0x4F PUSH1 0x0 DUP5 PUSH29 0xFFFFFFFFFFFFFFFFFFFFFFFFFFFFFFFFFFFFFFFFFFFFFFFFFFFFFFFFFF AND PUSH29 0xFFFFFFFFFFFFFFFFFFFFFFFFFFFFFFFFFFFFFFFFFFFFFFFFFFFFFFFFFF AND DUP2 MSTORE PUSH1 0x20 ADD SWAP1 DUP2 MSTORE PUSH1 0x20 ADD PUSH1 0x0 KECCAK256 PUSH1 0x0 ADD PUSH1 0x1E PUSH2 0x100 EXP DUP2 SLOAD DUP2 PUSH1 0xFF MUL NOT AND SWAP1 DUP4 ISZERO ISZERO MUL OR SWAP1 SSTORE POP PUSH1 0x1 PUSH1 0x4F PUSH1 0x0 DUP5 PUSH29 0xFFFFFFFFFFFFFFFFFFFFFFFFFFFFFFFFFFFFFFFFFFFFFFFFFFFFFFFFFF AND PUSH29 0xFFFFFFFFFFFFFFFFFFFFFFFFFFFFFFFFFFFFFFFFFFFFFFFFFFFFFFFFFF AND DUP2 MSTORE PUSH1 0x20 ADD SWAP1 DUP2 MSTORE PUSH1 0x20 ADD PUSH1 0x0 KECCAK256 PUSH1 0x0 ADD PUSH1 0x1D PUSH2 0x100 EXP DUP2 SLOAD DUP2 PUSH1 0xFF MUL NOT AND SWAP1 DUP4 ISZERO ISZERO MUL OR SWAP1 SSTORE POP DUP2 PUSH1 0x52 PUSH1 0x0 PUSH2 0x100 EXP DUP2 SLOAD DUP2 PUSH29 0xFFFFFFFFFFFFFFFFFFFFFFFFFFFFFFFFFFFFFFFFFFFFFFFFFFFFFFFFFF MUL NOT AND SWAP1 DUP4 PUSH29 0xFFFFFFFFFFFFFFFFFFFFFFFFFFFFFFFFFFFFFFFFFFFFFFFFFFFFFFFFFF AND MUL OR SWAP1 SSTORE POP PUSH1 0x50 PUSH1 0x0 DUP2 SLOAD DUP1 SWAP3 SWAP2 SWAP1 PUSH2 0x2327 SWAP1 PUSH2 0x47D6 JUMP JUMPDEST SWAP2 SWAP1 POP SSTORE POP DUP2 PUSH29 0xFFFFFFFFFFFFFFFFFFFFFFFFFFFFFFFFFFFFFFFFFFFFFFFFFFFFFFFFFF AND PUSH32 0xD1CA56647596090D70FA8D49BCC376B97248314E3F204C491333B3440405F589 PUSH1 0x40 MLOAD PUSH1 0x40 MLOAD DUP1 SWAP2 SUB SWAP1 LOG2 POP POP JUMP JUMPDEST PUSH2 0x2384 PUSH2 0x331F JUMP JUMPDEST PUSH1 0x40 MLOAD DUP1 PUSH1 0x40 ADD PUSH1 0x40 MSTORE DUP1 PUSH32 0x2AEB4AAFB1C7A3E1445536842C9D8225EBD94A09D15CDA4E17D944ADD94EDE47 DUP2 MSTORE PUSH1 0x20 ADD PUSH32 0x3AB549390940A14A8D8D3FE3F6ECB68195432778936E617D914F14D1DF03579 DUP2 MSTORE POP DUP2 PUSH1 0x0 ADD DUP2 SWAP1 MSTORE POP PUSH1 0x40 MLOAD DUP1 PUSH1 0x40 ADD PUSH1 0x40 MSTORE DUP1 PUSH1 0x40 MLOAD DUP1 PUSH1 0x40 ADD PUSH1 0x40 MSTORE DUP1 PUSH32 0x2FD95A27D1B9D966BB3AE847506BFC2FFA3E5C945F4502CF0F10DFD658960F94 DUP2 MSTORE PUSH1 0x20 ADD PUSH32 0x167A6701C17CC2734E919E79F59F110B511F1FF811A06FD840949416D10DDAFC DUP2 MSTORE POP DUP2 MSTORE PUSH1 0x20 ADD PUSH1 0x40 MLOAD DUP1 PUSH1 0x40 ADD PUSH1 0x40 MSTORE DUP1 PUSH32 0x2B4C85AB8A8FBE2D979AF025230A96C10E07C5E4163FC7D633BA083FC44F9EE DUP2 MSTORE PUSH1 0x20 ADD PUSH32 0x303CA2757A59CBF0E0BBDB8F1712F29E3E804CD258E18ACA0DA7F6BD7136E806 DUP2 MSTORE POP DUP2 MSTORE POP DUP2 PUSH1 0x20 ADD DUP2 SWAP1 MSTORE POP PUSH1 0x40 MLOAD DUP1 PUSH1 0x40 ADD PUSH1 0x40 MSTORE DUP1 PUSH1 0x40 MLOAD DUP1 PUSH1 0x40 ADD PUSH1 0x40 MSTORE DUP1 PUSH32 0xFA9BB662FC3ACD975EE36A6EA2C0C709C3A75303345702ACAF0D845428F932B DUP2 MSTORE PUSH1 0x20 ADD PUSH32 0x2F2D53E983B994DE7CAC84D565B30B457F11273FF5A898CE80C9FD66BDF9E075 DUP2 MSTORE POP DUP2 MSTORE PUSH1 0x20 ADD PUSH1 0x40 MLOAD DUP1 PUSH1 0x40 ADD PUSH1 0x40 MSTORE DUP1 PUSH32 0x2D1F4DA8E0F4D49C61FD3EC22A104DF1A5159B1E329B3506354559EBAFFF0801 DUP2 MSTORE PUSH1 0x20 ADD PUSH32 0x2FF6E55D56BB54B32D728131475C6CA6D7A92CC6B82BFCD59311C765E7EDCB45 DUP2 MSTORE POP DUP2 MSTORE POP DUP2 PUSH1 0x40 ADD DUP2 SWAP1 MSTORE POP PUSH1 0x40 MLOAD DUP1 PUSH1 0x40 ADD PUSH1 0x40 MSTORE DUP1 PUSH1 0x40 MLOAD DUP1 PUSH1 0x40 ADD PUSH1 0x40 MSTORE DUP1 PUSH32 0x23511787419DB90D2BAD3C8BFBAC9F4398C26CD6CD34BB5276C2CD94B7B7D26F DUP2 MSTORE PUSH1 0x20 ADD PUSH32 0x17E0C1843C4EC925CF3D09B051978F5F23D1D166117D572F38DBD874126DEAD5 DUP2 MSTORE POP DUP2 MSTORE PUSH1 0x20 ADD PUSH1 0x40 MLOAD DUP1 PUSH1 0x40 ADD PUSH1 0x40 MSTORE DUP1 PUSH32 0x6E374C176A74BF3D0C0329B9D03B53693D77F928CD1FC4C6F6053EC00F2CA25 DUP2 MSTORE PUSH1 0x20 ADD PUSH32 0x2D832FD3933C30F159E18DBE33BC7496240CC22BCECE79FAF02388E5BD366A21 DUP2 MSTORE POP DUP2 MSTORE POP DUP2 PUSH1 0x60 ADD DUP2 SWAP1 MSTORE POP PUSH1 0x40 MLOAD DUP1 PUSH1 0x40 ADD PUSH1 0x40 MSTORE DUP1 PUSH32 0x2174881F2CB4AEE5292B2F603CB183BF301D263B1A11C7EC22585FEC00ECCE98 DUP2 MSTORE PUSH1 0x20 ADD PUSH31 0x3E5E75EC133240C640391A4CB8A18E2FBC4F6336E6B6693643735D5C623087 DUP2 MSTORE POP DUP2 PUSH1 0x80 ADD MLOAD PUSH1 0x0 PUSH1 0x5 DUP2 LT PUSH2 0x269C JUMPI PUSH2 0x269B PUSH2 0x4356 JUMP JUMPDEST JUMPDEST PUSH1 0x20 MUL ADD DUP2 SWAP1 MSTORE POP PUSH1 0x40 MLOAD DUP1 PUSH1 0x40 ADD PUSH1 0x40 MSTORE DUP1 PUSH32 0x1664A7BD963677623594FB978543ACEB4FC3576B0F976C519A22BDBCA62226C3 DUP2 MSTORE PUSH1 0x20 ADD PUSH32 0xE28CCDE23DE1C2F78B1D8D35660F7014F391E354756AAD1F5F75D159CFAB652 DUP2 MSTORE POP DUP2 PUSH1 0x80 ADD MLOAD PUSH1 0x1 PUSH1 0x5 DUP2 LT PUSH2 0x2711 JUMPI PUSH2 0x2710 PUSH2 0x4356 JUMP JUMPDEST JUMPDEST PUSH1 0x20 MUL ADD DUP2 SWAP1 MSTORE POP PUSH1 0x40 MLOAD DUP1 PUSH1 0x40 ADD PUSH1 0x40 MSTORE DUP1 PUSH32 0x17439F723025A06C170891F82DAF6FBF4FE30C3824D1B0820262E7EE632BD62D DUP2 MSTORE PUSH1 0x20 ADD PUSH32 0xA74BD079E9F728A7C5DC31EA3C7C43E978BE8921A351B9DE0DF3CFB2F601855 DUP2 MSTORE POP DUP2 PUSH1 0x80 ADD MLOAD PUSH1 0x2 PUSH1 0x5 DUP2 LT PUSH2 0x2786 JUMPI PUSH2 0x2785 PUSH2 0x4356 JUMP JUMPDEST JUMPDEST PUSH1 0x20 MUL ADD DUP2 SWAP1 MSTORE POP PUSH1 0x40 MLOAD DUP1 PUSH1 0x40 ADD PUSH1 0x40 MSTORE DUP1 PUSH32 0x274660C30271883B25933FC39F835337BAFCB604536AF04F6264FE96A7B32D51 DUP2 MSTORE PUSH1 0x20 ADD PUSH32 0x27E6947D2AB1E5B87FA5E0B4FE610EE7A623BDF4E0225E249C6A3446AF5085B5 DUP2 MSTORE POP DUP2 PUSH1 0x80 ADD MLOAD PUSH1 0x3 PUSH1 0x5 DUP2 LT PUSH2 0x27FB JUMPI PUSH2 0x27FA PUSH2 0x4356 JUMP JUMPDEST JUMPDEST PUSH1 0x20 MUL ADD DUP2 SWAP1 MSTORE POP PUSH1 0x40 MLOAD DUP1 PUSH1 0x40 ADD PUSH1 0x40 MSTORE DUP1 PUSH32 0x108BA5CC069E7368567294F740794F36D4C7D99D40DD667FE5DD544967BDC9A9 DUP2 MSTORE PUSH1 0x20 ADD PUSH32 0x2175417A3760110F546C7F7F30D3195D766CBE31F34013B45322FF7FD974635C DUP2 MSTORE POP DUP2 PUSH1 0x80 ADD MLOAD PUSH1 0x4 PUSH1 0x5 DUP2 LT PUSH2 0x2870 JUMPI PUSH2 0x286F PUSH2 0x4356 JUMP JUMPDEST JUMPDEST PUSH1 0x20 MUL ADD DUP2 SWAP1 MSTORE POP SWAP1 JUMP JUMPDEST PUSH2 0x2883 PUSH2 0x336C JUMP JUMPDEST PUSH2 0x288B PUSH2 0x3386 JUMP JUMPDEST DUP4 PUSH1 0x0 ADD MLOAD DUP2 PUSH1 0x0 PUSH1 0x3 DUP2 LT PUSH2 0x28A4 JUMPI PUSH2 0x28A3 PUSH2 0x4356 JUMP JUMPDEST JUMPDEST PUSH1 0x20 MUL ADD DUP2 DUP2 MSTORE POP POP DUP4 PUSH1 0x20 ADD MLOAD DUP2 PUSH1 0x1 PUSH1 0x3 DUP2 LT PUSH2 0x28C6 JUMPI PUSH2 0x28C5 PUSH2 0x4356 JUMP JUMPDEST JUMPDEST PUSH1 0x20 MUL ADD DUP2 DUP2 MSTORE POP POP DUP3 DUP2 PUSH1 0x2 PUSH1 0x3 DUP2 LT PUSH2 0x28E4 JUMPI PUSH2 0x28E3 PUSH2 0x4356 JUMP JUMPDEST JUMPDEST PUSH1 0x20 MUL ADD DUP2 DUP2 MSTORE POP POP POP SWAP3 SWAP2 POP POP JUMP JUMPDEST PUSH2 0x28FC PUSH2 0x336C JUMP JUMPDEST PUSH2 0x2904 PUSH2 0x33A8 JUMP JUMPDEST DUP4 PUSH1 0x0 ADD MLOAD DUP2 PUSH1 0x0 PUSH1 0x4 DUP2 LT PUSH2 0x291D JUMPI PUSH2 0x291C PUSH2 0x4356 JUMP JUMPDEST JUMPDEST PUSH1 0x20 MUL ADD DUP2 DUP2 MSTORE POP POP DUP4 PUSH1 0x20 ADD MLOAD DUP2 PUSH1 0x1 PUSH1 0x4 DUP2 LT PUSH2 0x293F JUMPI PUSH2 0x293E PUSH2 0x4356 JUMP JUMPDEST JUMPDEST PUSH1 0x20 MUL ADD DUP2 DUP2 MSTORE POP POP DUP3 PUSH1 0x0 ADD MLOAD DUP2 PUSH1 0x2 PUSH1 0x4 DUP2 LT PUSH2 0x2961 JUMPI PUSH2 0x2960 PUSH2 0x4356 JUMP JUMPDEST JUMPDEST PUSH1 0x20 MUL ADD DUP2 DUP2 MSTORE POP POP DUP3 PUSH1 0x20 ADD MLOAD DUP2 PUSH1 0x3 PUSH1 0x4 DUP2 LT PUSH2 0x2983 JUMPI PUSH2 0x2982 PUSH2 0x4356 JUMP JUMPDEST JUMPDEST PUSH1 0x20 MUL ADD DUP2 DUP2 MSTORE POP POP POP SWAP3 SWAP2 POP POP JUMP JUMPDEST PUSH2 0x299B PUSH2 0x336C JUMP JUMPDEST PUSH1 0x0 DUP3 PUSH1 0x0 ADD MLOAD EQ DUP1 ISZERO PUSH2 0x29B3 JUMPI POP PUSH1 0x0 DUP3 PUSH1 0x20 ADD MLOAD EQ JUMPDEST ISZERO PUSH2 0x29D6 JUMPI PUSH1 0x40 MLOAD DUP1 PUSH1 0x40 ADD PUSH1 0x40 MSTORE DUP1 PUSH1 0x0 DUP2 MSTORE PUSH1 0x20 ADD PUSH1 0x0 DUP2 MSTORE POP SWAP1 POP PUSH2 0x2A4C JUMP JUMPDEST PUSH1 0x40 MLOAD DUP1 PUSH1 0x40 ADD PUSH1 0x40 MSTORE DUP1 DUP4 PUSH1 0x0 ADD MLOAD DUP2 MSTORE PUSH1 0x20 ADD PUSH32 0x30644E72E131A029B85045B68181585D97816A916871CA8D3C208C16D87CFD47 DUP5 PUSH1 0x20 ADD MLOAD PUSH2 0x2A1B SWAP2 SWAP1 PUSH2 0x4BBA JUMP JUMPDEST PUSH32 0x30644E72E131A029B85045B68181585D97816A916871CA8D3C208C16D87CFD47 PUSH2 0x2A46 SWAP2 SWAP1 PUSH2 0x4BEB JUMP JUMPDEST DUP2 MSTORE POP SWAP1 POP JUMPDEST SWAP2 SWAP1 POP JUMP JUMPDEST PUSH1 0x0 DUP1 PUSH1 0x40 MLOAD DUP1 PUSH1 0x80 ADD PUSH1 0x40 MSTORE DUP1 DUP12 DUP2 MSTORE PUSH1 0x20 ADD DUP10 DUP2 MSTORE PUSH1 0x20 ADD DUP8 DUP2 MSTORE PUSH1 0x20 ADD DUP6 DUP2 MSTORE POP SWAP1 POP PUSH1 0x0 PUSH1 0x40 MLOAD DUP1 PUSH1 0x80 ADD PUSH1 0x40 MSTORE DUP1 DUP12 DUP2 MSTORE PUSH1 0x20 ADD DUP10 DUP2 MSTORE PUSH1 0x20 ADD DUP8 DUP2 MSTORE PUSH1 0x20 ADD DUP6 DUP2 MSTORE POP SWAP1 POP PUSH1 0x0 PUSH1 0x18 SWAP1 POP PUSH1 0x0 DUP2 PUSH8 0xFFFFFFFFFFFFFFFF DUP2 GT ISZERO PUSH2 0x2ABE JUMPI PUSH2 0x2ABD PUSH2 0x346E JUMP JUMPDEST JUMPDEST PUSH1 0x40 MLOAD SWAP1 DUP1 DUP3 MSTORE DUP1 PUSH1 0x20 MUL PUSH1 0x20 ADD DUP3 ADD PUSH1 0x40 MSTORE DUP1 ISZERO PUSH2 0x2AEC JUMPI DUP2 PUSH1 0x20 ADD PUSH1 0x20 DUP3 MUL DUP1 CALLDATASIZE DUP4 CALLDATACOPY DUP1 DUP3 ADD SWAP2 POP POP SWAP1 POP JUMPDEST POP SWAP1 POP PUSH1 0x0 JUMPDEST PUSH1 0x4 DUP2 LT ISZERO PUSH2 0x2D2A JUMPI PUSH1 0x0 PUSH1 0x6 DUP3 PUSH2 0x2B0A SWAP2 SWAP1 PUSH2 0x4C1F JUMP JUMPDEST SWAP1 POP DUP6 DUP3 PUSH1 0x4 DUP2 LT PUSH2 0x2B1F JUMPI PUSH2 0x2B1E PUSH2 0x4356 JUMP JUMPDEST JUMPDEST PUSH1 0x20 MUL ADD MLOAD PUSH1 0x0 ADD MLOAD DUP4 PUSH1 0x0 DUP4 PUSH2 0x2B36 SWAP2 SWAP1 PUSH2 0x4780 JUMP JUMPDEST DUP2 MLOAD DUP2 LT PUSH2 0x2B47 JUMPI PUSH2 0x2B46 PUSH2 0x4356 JUMP JUMPDEST JUMPDEST PUSH1 0x20 MUL PUSH1 0x20 ADD ADD DUP2 DUP2 MSTORE POP POP DUP6 DUP3 PUSH1 0x4 DUP2 LT PUSH2 0x2B66 JUMPI PUSH2 0x2B65 PUSH2 0x4356 JUMP JUMPDEST JUMPDEST PUSH1 0x20 MUL ADD MLOAD PUSH1 0x20 ADD MLOAD DUP4 PUSH1 0x1 DUP4 PUSH2 0x2B7D SWAP2 SWAP1 PUSH2 0x4780 JUMP JUMPDEST DUP2 MLOAD DUP2 LT PUSH2 0x2B8E JUMPI PUSH2 0x2B8D PUSH2 0x4356 JUMP JUMPDEST JUMPDEST PUSH1 0x20 MUL PUSH1 0x20 ADD ADD DUP2 DUP2 MSTORE POP POP DUP5 DUP3 PUSH1 0x4 DUP2 LT PUSH2 0x2BAD JUMPI PUSH2 0x2BAC PUSH2 0x4356 JUMP JUMPDEST JUMPDEST PUSH1 0x20 MUL ADD MLOAD PUSH1 0x0 ADD MLOAD PUSH1 0x0 PUSH1 0x2 DUP2 LT PUSH2 0x2BC9 JUMPI PUSH2 0x2BC8 PUSH2 0x4356 JUMP JUMPDEST JUMPDEST PUSH1 0x20 MUL ADD MLOAD DUP4 PUSH1 0x2 DUP4 PUSH2 0x2BDC SWAP2 SWAP1 PUSH2 0x4780 JUMP JUMPDEST DUP2 MLOAD DUP2 LT PUSH2 0x2BED JUMPI PUSH2 0x2BEC PUSH2 0x4356 JUMP JUMPDEST JUMPDEST PUSH1 0x20 MUL PUSH1 0x20 ADD ADD DUP2 DUP2 MSTORE POP POP DUP5 DUP3 PUSH1 0x4 DUP2 LT PUSH2 0x2C0C JUMPI PUSH2 0x2C0B PUSH2 0x4356 JUMP JUMPDEST JUMPDEST PUSH1 0x20 MUL ADD MLOAD PUSH1 0x0 ADD MLOAD PUSH1 0x1 PUSH1 0x2 DUP2 LT PUSH2 0x2C28 JUMPI PUSH2 0x2C27 PUSH2 0x4356 JUMP JUMPDEST JUMPDEST PUSH1 0x20 MUL ADD MLOAD DUP4 PUSH1 0x3 DUP4 PUSH2 0x2C3B SWAP2 SWAP1 PUSH2 0x4780 JUMP JUMPDEST DUP2 MLOAD DUP2 LT PUSH2 0x2C4C JUMPI PUSH2 0x2C4B PUSH2 0x4356 JUMP JUMPDEST JUMPDEST PUSH1 0x20 MUL PUSH1 0x20 ADD ADD DUP2 DUP2 MSTORE POP POP DUP5 DUP3 PUSH1 0x4 DUP2 LT PUSH2 0x2C6B JUMPI PUSH2 0x2C6A PUSH2 0x4356 JUMP JUMPDEST JUMPDEST PUSH1 0x20 MUL ADD MLOAD PUSH1 0x20 ADD MLOAD PUSH1 0x0 PUSH1 0x2 DUP2 LT PUSH2 0x2C87 JUMPI PUSH2 0x2C86 PUSH2 0x4356 JUMP JUMPDEST JUMPDEST PUSH1 0x20 MUL ADD MLOAD DUP4 PUSH1 0x4 DUP4 PUSH2 0x2C9A SWAP2 SWAP1 PUSH2 0x4780 JUMP JUMPDEST DUP2 MLOAD DUP2 LT PUSH2 0x2CAB JUMPI PUSH2 0x2CAA PUSH2 0x4356 JUMP JUMPDEST JUMPDEST PUSH1 0x20 MUL PUSH1 0x20 ADD ADD DUP2 DUP2 MSTORE POP POP DUP5 DUP3 PUSH1 0x4 DUP2 LT PUSH2 0x2CCA JUMPI PUSH2 0x2CC9 PUSH2 0x4356 JUMP JUMPDEST JUMPDEST PUSH1 0x20 MUL ADD MLOAD PUSH1 0x20 ADD MLOAD PUSH1 0x1 PUSH1 0x2 DUP2 LT PUSH2 0x2CE6 JUMPI PUSH2 0x2CE5 PUSH2 0x4356 JUMP JUMPDEST JUMPDEST PUSH1 0x20 MUL ADD MLOAD DUP4 PUSH1 0x5 DUP4 PUSH2 0x2CF9 SWAP2 SWAP1 PUSH2 0x4780 JUMP JUMPDEST DUP2 MLOAD DUP2 LT PUSH2 0x2D0A JUMPI PUSH2 0x2D09 PUSH2 0x4356 JUMP JUMPDEST JUMPDEST PUSH1 0x20 MUL PUSH1 0x20 ADD ADD DUP2 DUP2 MSTORE POP POP POP DUP1 DUP1 PUSH2 0x2D22 SWAP1 PUSH2 0x47D6 JUMP JUMPDEST SWAP2 POP POP PUSH2 0x2AF2 JUMP JUMPDEST POP PUSH2 0x2D33 PUSH2 0x33CA JUMP JUMPDEST PUSH1 0x0 DUP1 DUP3 PUSH1 0x0 PUSH1 0x1 DUP2 LT PUSH2 0x2D4A JUMPI PUSH2 0x2D49 PUSH2 0x4356 JUMP JUMPDEST JUMPDEST PUSH1 0x20 MUL ADD MLOAD EQ ISZERO SWAP7 POP POP POP POP POP POP POP SWAP9 SWAP8 POP POP POP POP POP POP POP POP JUMP JUMPDEST PUSH1 0x0 PUSH32 0x30644E72E131A029B85045B68181585D2833E84879B9709143E1F593F0000001 DUP3 LT PUSH2 0x2DC9 JUMPI PUSH1 0x40 MLOAD PUSH32 0x8C379A000000000000000000000000000000000000000000000000000000000 DUP2 MSTORE PUSH1 0x4 ADD PUSH2 0x2DC0 SWAP1 PUSH2 0x4D11 JUMP JUMPDEST PUSH1 0x40 MLOAD DUP1 SWAP2 SUB SWAP1 REVERT JUMPDEST PUSH1 0x0 PUSH1 0x1 SLOAD SWAP1 POP PUSH1 0x0 DUP1 PUSH1 0x0 SWAP1 SLOAD SWAP1 PUSH2 0x100 EXP SWAP1 DIV PUSH1 0xFF AND PUSH1 0xFF AND SWAP1 POP DUP1 PUSH1 0x2 PUSH2 0x2DF3 SWAP2 SWAP1 PUSH2 0x4E64 JUMP JUMPDEST DUP3 LT PUSH2 0x2E34 JUMPI PUSH1 0x40 MLOAD PUSH32 0x8C379A000000000000000000000000000000000000000000000000000000000 DUP2 MSTORE PUSH1 0x4 ADD PUSH2 0x2E2B SWAP1 PUSH2 0x4F21 JUMP JUMPDEST PUSH1 0x40 MLOAD DUP1 SWAP2 SUB SWAP1 REVERT JUMPDEST PUSH1 0x0 DUP5 SWAP1 POP PUSH1 0x0 DUP1 PUSH1 0x0 JUMPDEST PUSH1 0x0 DUP1 SLOAD SWAP1 PUSH2 0x100 EXP SWAP1 DIV PUSH1 0xFF AND PUSH1 0xFF AND DUP2 PUSH1 0xFF AND LT ISZERO PUSH2 0x2EF4 JUMPI PUSH1 0x0 PUSH1 0x2 DUP8 PUSH2 0x2E69 SWAP2 SWAP1 PUSH2 0x4BBA JUMP JUMPDEST EQ ISZERO PUSH2 0x2EAF JUMPI DUP4 SWAP3 POP PUSH1 0xD DUP2 PUSH1 0xFF AND PUSH1 0x20 DUP2 LT PUSH2 0x2E89 JUMPI PUSH2 0x2E88 PUSH2 0x4356 JUMP JUMPDEST JUMPDEST ADD SLOAD SWAP2 POP DUP4 PUSH1 0x2D DUP3 PUSH1 0xFF AND PUSH1 0x20 DUP2 LT PUSH2 0x2EA5 JUMPI PUSH2 0x2EA4 PUSH2 0x4356 JUMP JUMPDEST JUMPDEST ADD DUP2 SWAP1 SSTORE POP PUSH2 0x2ECE JUMP JUMPDEST PUSH1 0x2D DUP2 PUSH1 0xFF AND PUSH1 0x20 DUP2 LT PUSH2 0x2EC6 JUMPI PUSH2 0x2EC5 PUSH2 0x4356 JUMP JUMPDEST JUMPDEST ADD SLOAD SWAP3 POP DUP4 SWAP2 POP JUMPDEST PUSH2 0x2ED8 DUP4 DUP4 PUSH2 0x310D JUMP JUMPDEST SWAP4 POP PUSH1 0x1 DUP7 SWAP1 SHR SWAP6 POP DUP1 DUP1 PUSH2 0x2EEC SWAP1 PUSH2 0x4F4E JUMP JUMPDEST SWAP2 POP POP PUSH2 0x2E3F JUMP JUMPDEST POP DUP3 PUSH1 0xC DUP2 SWAP1 SSTORE POP PUSH1 0x1 PUSH1 0x4D PUSH1 0x0 PUSH1 0xC SLOAD DUP2 MSTORE PUSH1 0x20 ADD SWAP1 DUP2 MSTORE PUSH1 0x20 ADD PUSH1 0x0 KECCAK256 PUSH1 0x0 PUSH2 0x100 EXP DUP2 SLOAD DUP2 PUSH1 0xFF MUL NOT AND SWAP1 DUP4 ISZERO ISZERO MUL OR SWAP1 SSTORE POP PUSH32 0x798104477DCEFE17A2FF5ED9AF618D9B254EA90608948F8DA0FBBAD00C44A937 PUSH1 0xC SLOAD PUSH1 0x40 MLOAD PUSH2 0x2F5B SWAP2 SWAP1 PUSH2 0x3D23 JUMP JUMPDEST PUSH1 0x40 MLOAD DUP1 SWAP2 SUB SWAP1 LOG1 PUSH1 0xC SLOAD PUSH1 0x2 PUSH1 0x1 SLOAD PUSH1 0xA DUP2 LT PUSH2 0x2F7C JUMPI PUSH2 0x2F7B PUSH2 0x4356 JUMP JUMPDEST JUMPDEST ADD DUP2 SWAP1 SSTORE POP PUSH1 0x0 PUSH1 0x1 SLOAD SWAP1 POP PUSH1 0x1 DUP1 PUSH1 0x0 DUP3 DUP3 SLOAD PUSH2 0x2F9A SWAP2 SWAP1 PUSH2 0x4780 JUMP JUMPDEST SWAP3 POP POP DUP2 SWAP1 SSTORE POP DUP1 DUP9 PUSH32 0xE6F49FA84ABD31919F446B22A52BB3CEAE774B4B87F062F022FEC45C46F4F458 PUSH1 0x40 MLOAD PUSH1 0x40 MLOAD DUP1 SWAP2 SUB SWAP1 LOG3 DUP6 SWAP7 POP POP POP POP POP POP POP SWAP2 SWAP1 POP JUMP JUMPDEST PUSH1 0x0 PUSH20 0xFFFFFFFFFFFFFFFFFFFFFFFFFFFFFFFFFFFFFFFF AND DUP2 PUSH20 0xFFFFFFFFFFFFFFFFFFFFFFFFFFFFFFFFFFFFFFFF AND EQ ISZERO PUSH2 0x304D JUMPI PUSH1 0x40 MLOAD PUSH32 0x8C379A000000000000000000000000000000000000000000000000000000000 DUP2 MSTORE PUSH1 0x4 ADD PUSH2 0x3044 SWAP1 PUSH2 0x4FEA JUMP JUMPDEST PUSH1 0x40 MLOAD DUP1 SWAP2 SUB SWAP1 REVERT JUMPDEST DUP1 PUSH20 0xFFFFFFFFFFFFFFFFFFFFFFFFFFFFFFFFFFFFFFFF AND PUSH1 0x4E PUSH1 0x0 SWAP1 SLOAD SWAP1 PUSH2 0x100 EXP SWAP1 DIV PUSH20 0xFFFFFFFFFFFFFFFFFFFFFFFFFFFFFFFFFFFFFFFF AND PUSH20 0xFFFFFFFFFFFFFFFFFFFFFFFFFFFFFFFFFFFFFFFF AND PUSH32 0x8BE0079C531659141344CD1FD0A4F28419497F9722A3DAAFE3B4186F6B6457E0 PUSH1 0x40 MLOAD PUSH1 0x40 MLOAD DUP1 SWAP2 SUB SWAP1 LOG3 DUP1 PUSH1 0x4E PUSH1 0x0 PUSH2 0x100 EXP DUP2 SLOAD DUP2 PUSH20 0xFFFFFFFFFFFFFFFFFFFFFFFFFFFFFFFFFFFFFFFF MUL NOT AND SWAP1 DUP4 PUSH20 0xFFFFFFFFFFFFFFFFFFFFFFFFFFFFFFFFFFFFFFFF AND MUL OR SWAP1 SSTORE POP POP JUMP JUMPDEST PUSH1 0x0 DUP1 DUP4 SWAP1 POP PUSH1 0x0 PUSH20 0x0 PUSH4 0xF47D33B5 DUP4 PUSH1 0x0 PUSH1 0x40 MLOAD DUP4 PUSH4 0xFFFFFFFF AND PUSH1 0xE0 SHL DUP2 MSTORE PUSH1 0x4 ADD PUSH2 0x314F SWAP3 SWAP2 SWAP1 PUSH2 0x505E JUMP JUMPDEST PUSH1 0x40 DUP1 MLOAD DUP1 DUP4 SUB DUP2 DUP7 GAS DELEGATECALL ISZERO DUP1 ISZERO PUSH2 0x316B JUMPI RETURNDATASIZE PUSH1 0x0 DUP1 RETURNDATACOPY RETURNDATASIZE PUSH1 0x0 REVERT JUMPDEST POP POP POP POP PUSH1 0x40 MLOAD RETURNDATASIZE PUSH1 0x1F NOT PUSH1 0x1F DUP3 ADD AND DUP3 ADD DUP1 PUSH1 0x40 MSTORE POP DUP2 ADD SWAP1 PUSH2 0x318F SWAP2 SWAP1 PUSH2 0x509C JUMP JUMPDEST DUP1 SWAP3 POP DUP2 SWAP4 POP POP POP PUSH32 0x30644E72E131A029B85045B68181585D2833E84879B9709143E1F593F0000001 DUP1 PUSH2 0x31C6 JUMPI PUSH2 0x31C5 PUSH2 0x4B8B JUMP JUMPDEST JUMPDEST DUP5 DUP4 ADDMOD SWAP2 POP PUSH20 0x0 PUSH4 0xF47D33B5 DUP4 DUP4 PUSH1 0x40 MLOAD DUP4 PUSH4 0xFFFFFFFF AND PUSH1 0xE0 SHL DUP2 MSTORE PUSH1 0x4 ADD PUSH2 0x3204 SWAP3 SWAP2 SWAP1 PUSH2 0x50DC JUMP JUMPDEST PUSH1 0x40 DUP1 MLOAD DUP1 DUP4 SUB DUP2 DUP7 GAS DELEGATECALL ISZERO DUP1 ISZERO PUSH2 0x3220 JUMPI RETURNDATASIZE PUSH1 0x0 DUP1 RETURNDATACOPY RETURNDATASIZE PUSH1 0x0 REVERT JUMPDEST POP POP POP POP PUSH1 0x40 MLOAD RETURNDATASIZE PUSH1 0x1F NOT PUSH1 0x1F DUP3 ADD AND DUP3 ADD DUP1 PUSH1 0x40 MSTORE POP DUP2 ADD SWAP1 PUSH2 0x3244 SWAP2 SWAP1 PUSH2 0x509C JUMP JUMPDEST DUP1 SWAP3 POP DUP2 SWAP4 POP POP POP DUP2 SWAP3 POP POP POP SWAP3 SWAP2 POP POP JUMP JUMPDEST PUSH1 0x40 MLOAD DUP1 PUSH2 0x140 ADD PUSH1 0x40 MSTORE DUP1 PUSH1 0xA SWAP1 PUSH1 0x20 DUP3 MUL DUP1 CALLDATASIZE DUP4 CALLDATACOPY DUP1 DUP3 ADD SWAP2 POP POP SWAP1 POP POP SWAP1 JUMP JUMPDEST PUSH1 0x40 MLOAD DUP1 PUSH2 0x100 ADD PUSH1 0x40 MSTORE DUP1 PUSH1 0x8 SWAP1 PUSH1 0x20 DUP3 MUL DUP1 CALLDATASIZE DUP4 CALLDATACOPY DUP1 DUP3 ADD SWAP2 POP POP SWAP1 POP POP SWAP1 JUMP JUMPDEST PUSH1 0x40 MLOAD DUP1 PUSH1 0x60 ADD PUSH1 0x40 MSTORE DUP1 PUSH2 0x32B0 PUSH2 0x336C JUMP JUMPDEST DUP2 MSTORE PUSH1 0x20 ADD PUSH2 0x32BD PUSH2 0x33EC JUMP JUMPDEST DUP2 MSTORE PUSH1 0x20 ADD PUSH2 0x32CA PUSH2 0x336C JUMP JUMPDEST DUP2 MSTORE POP SWAP1 JUMP JUMPDEST PUSH1 0x40 MLOAD DUP1 PUSH1 0x40 ADD PUSH1 0x40 MSTORE DUP1 PUSH1 0x2 SWAP1 PUSH1 0x20 DUP3 MUL DUP1 CALLDATASIZE DUP4 CALLDATACOPY DUP1 DUP3 ADD SWAP2 POP POP SWAP1 POP POP SWAP1 JUMP JUMPDEST PUSH1 0x40 MLOAD DUP1 PUSH1 0x40 ADD PUSH1 0x40 MSTORE DUP1 PUSH1 0x2 SWAP1 JUMPDEST PUSH2 0x3309 PUSH2 0x32D0 JUMP JUMPDEST DUP2 MSTORE PUSH1 0x20 ADD SWAP1 PUSH1 0x1 SWAP1 SUB SWAP1 DUP2 PUSH2 0x3301 JUMPI SWAP1 POP POP SWAP1 JUMP JUMPDEST PUSH1 0x40 MLOAD DUP1 PUSH1 0xA0 ADD PUSH1 0x40 MSTORE DUP1 PUSH2 0x3332 PUSH2 0x336C JUMP JUMPDEST DUP2 MSTORE PUSH1 0x20 ADD PUSH2 0x333F PUSH2 0x33EC JUMP JUMPDEST DUP2 MSTORE PUSH1 0x20 ADD PUSH2 0x334C PUSH2 0x33EC JUMP JUMPDEST DUP2 MSTORE PUSH1 0x20 ADD PUSH2 0x3359 PUSH2 0x33EC JUMP JUMPDEST DUP2 MSTORE PUSH1 0x20 ADD PUSH2 0x3366 PUSH2 0x3412 JUMP JUMPDEST DUP2 MSTORE POP SWAP1 JUMP JUMPDEST PUSH1 0x40 MLOAD DUP1 PUSH1 0x40 ADD PUSH1 0x40 MSTORE DUP1 PUSH1 0x0 DUP2 MSTORE PUSH1 0x20 ADD PUSH1 0x0 DUP2 MSTORE POP SWAP1 JUMP JUMPDEST PUSH1 0x40 MLOAD DUP1 PUSH1 0x60 ADD PUSH1 0x40 MSTORE DUP1 PUSH1 0x3 SWAP1 PUSH1 0x20 DUP3 MUL DUP1 CALLDATASIZE DUP4 CALLDATACOPY DUP1 DUP3 ADD SWAP2 POP POP SWAP1 POP POP SWAP1 JUMP JUMPDEST PUSH1 0x40 MLOAD DUP1 PUSH1 0x80 ADD PUSH1 0x40 MSTORE DUP1 PUSH1 0x4 SWAP1 PUSH1 0x20 DUP3 MUL DUP1 CALLDATASIZE DUP4 CALLDATACOPY DUP1 DUP3 ADD SWAP2 POP POP SWAP1 POP POP SWAP1 JUMP JUMPDEST PUSH1 0x40 MLOAD DUP1 PUSH1 0x20 ADD PUSH1 0x40 MSTORE DUP1 PUSH1 0x1 SWAP1 PUSH1 0x20 DUP3 MUL DUP1 CALLDATASIZE DUP4 CALLDATACOPY DUP1 DUP3 ADD SWAP2 POP POP SWAP1 POP POP SWAP1 JUMP JUMPDEST PUSH1 0x40 MLOAD DUP1 PUSH1 0x40 ADD PUSH1 0x40 MSTORE DUP1 PUSH2 0x33FF PUSH2 0x32D0 JUMP JUMPDEST DUP2 MSTORE PUSH1 0x20 ADD PUSH2 0x340C PUSH2 0x32D0 JUMP JUMPDEST DUP2 MSTORE POP SWAP1 JUMP JUMPDEST PUSH1 0x40 MLOAD DUP1 PUSH1 0xA0 ADD PUSH1 0x40 MSTORE DUP1 PUSH1 0x5 SWAP1 JUMPDEST PUSH2 0x3429 PUSH2 0x336C JUMP JUMPDEST DUP2 MSTORE PUSH1 0x20 ADD SWAP1 PUSH1 0x1 SWAP1 SUB SWAP1 DUP2 PUSH2 0x3421 JUMPI SWAP1 POP POP SWAP1 JUMP JUMPDEST PUSH1 0x0 PUSH1 0x40 MLOAD SWAP1 POP SWAP1 JUMP JUMPDEST PUSH1 0x0 DUP1 REVERT JUMPDEST PUSH1 0x0 DUP1 REVERT JUMPDEST PUSH1 0x0 DUP1 REVERT JUMPDEST PUSH1 0x0 DUP1 REVERT JUMPDEST PUSH1 0x0 PUSH1 0x1F NOT PUSH1 0x1F DUP4 ADD AND SWAP1 POP SWAP2 SWAP1 POP JUMP JUMPDEST PUSH32 0x4E487B7100000000000000000000000000000000000000000000000000000000 PUSH1 0x0 MSTORE PUSH1 0x41 PUSH1 0x4 MSTORE PUSH1 0x24 PUSH1 0x0 REVERT JUMPDEST PUSH2 0x34A6 DUP3 PUSH2 0x345D JUMP JUMPDEST DUP2 ADD DUP2 DUP2 LT PUSH8 0xFFFFFFFFFFFFFFFF DUP3 GT OR ISZERO PUSH2 0x34C5 JUMPI PUSH2 0x34C4 PUSH2 0x346E JUMP JUMPDEST JUMPDEST DUP1 PUSH1 0x40 MSTORE POP POP POP JUMP JUMPDEST PUSH1 0x0 PUSH2 0x34D8 PUSH2 0x343F JUMP JUMPDEST SWAP1 POP PUSH2 0x34E4 DUP3 DUP3 PUSH2 0x349D JUMP JUMPDEST SWAP2 SWAP1 POP JUMP JUMPDEST PUSH1 0x0 PUSH8 0xFFFFFFFFFFFFFFFF DUP3 GT ISZERO PUSH2 0x3504 JUMPI PUSH2 0x3503 PUSH2 0x346E JUMP JUMPDEST JUMPDEST PUSH2 0x350D DUP3 PUSH2 0x345D JUMP JUMPDEST SWAP1 POP PUSH1 0x20 DUP2 ADD SWAP1 POP SWAP2 SWAP1 POP JUMP JUMPDEST DUP3 DUP2 DUP4 CALLDATACOPY PUSH1 0x0 DUP4 DUP4 ADD MSTORE POP POP POP JUMP JUMPDEST PUSH1 0x0 PUSH2 0x353C PUSH2 0x3537 DUP5 PUSH2 0x34E9 JUMP JUMPDEST PUSH2 0x34CE JUMP JUMPDEST SWAP1 POP DUP3 DUP2 MSTORE PUSH1 0x20 DUP2 ADD DUP5 DUP5 DUP5 ADD GT ISZERO PUSH2 0x3558 JUMPI PUSH2 0x3557 PUSH2 0x3458 JUMP JUMPDEST JUMPDEST PUSH2 0x3563 DUP5 DUP3 DUP6 PUSH2 0x351A JUMP JUMPDEST POP SWAP4 SWAP3 POP POP POP JUMP JUMPDEST PUSH1 0x0 DUP3 PUSH1 0x1F DUP4 ADD SLT PUSH2 0x3580 JUMPI PUSH2 0x357F PUSH2 0x3453 JUMP JUMPDEST JUMPDEST DUP2 CALLDATALOAD PUSH2 0x3590 DUP5 DUP3 PUSH1 0x20 DUP7 ADD PUSH2 0x3529 JUMP JUMPDEST SWAP2 POP POP SWAP3 SWAP2 POP POP JUMP JUMPDEST PUSH1 0x0 PUSH8 0xFFFFFFFFFFFFFFFF DUP3 GT ISZERO PUSH2 0x35B4 JUMPI PUSH2 0x35B3 PUSH2 0x346E JUMP JUMPDEST JUMPDEST PUSH1 0x20 DUP3 MUL SWAP1 POP SWAP2 SWAP1 POP JUMP JUMPDEST PUSH1 0x0 DUP1 REVERT JUMPDEST PUSH1 0x0 DUP2 SWAP1 POP SWAP2 SWAP1 POP JUMP JUMPDEST PUSH2 0x35D7 DUP2 PUSH2 0x35C4 JUMP JUMPDEST DUP2 EQ PUSH2 0x35E2 JUMPI PUSH1 0x0 DUP1 REVERT JUMPDEST POP JUMP JUMPDEST PUSH1 0x0 DUP2 CALLDATALOAD SWAP1 POP PUSH2 0x35F4 DUP2 PUSH2 0x35CE JUMP JUMPDEST SWAP3 SWAP2 POP POP JUMP JUMPDEST PUSH1 0x0 PUSH2 0x360D PUSH2 0x3608 DUP5 PUSH2 0x3599 JUMP JUMPDEST PUSH2 0x34CE JUMP JUMPDEST SWAP1 POP DUP1 PUSH1 0x20 DUP5 MUL DUP4 ADD DUP6 DUP2 GT ISZERO PUSH2 0x3627 JUMPI PUSH2 0x3626 PUSH2 0x35BF JUMP JUMPDEST JUMPDEST DUP4 JUMPDEST DUP2 DUP2 LT ISZERO PUSH2 0x3650 JUMPI DUP1 PUSH2 0x363C DUP9 DUP3 PUSH2 0x35E5 JUMP JUMPDEST DUP5 MSTORE PUSH1 0x20 DUP5 ADD SWAP4 POP POP PUSH1 0x20 DUP2 ADD SWAP1 POP PUSH2 0x3629 JUMP JUMPDEST POP POP POP SWAP4 SWAP3 POP POP POP JUMP JUMPDEST PUSH1 0x0 DUP3 PUSH1 0x1F DUP4 ADD SLT PUSH2 0x366F JUMPI PUSH2 0x366E PUSH2 0x3453 JUMP JUMPDEST JUMPDEST PUSH1 0x8 PUSH2 0x367C DUP5 DUP3 DUP6 PUSH2 0x35FA JUMP JUMPDEST SWAP2 POP POP SWAP3 SWAP2 POP POP JUMP JUMPDEST PUSH1 0x0 PUSH29 0xFFFFFFFFFFFFFFFFFFFFFFFFFFFFFFFFFFFFFFFFFFFFFFFFFFFFFFFFFF DUP3 AND SWAP1 POP SWAP2 SWAP1 POP JUMP JUMPDEST PUSH2 0x36B7 DUP2 PUSH2 0x3685 JUMP JUMPDEST DUP2 EQ PUSH2 0x36C2 JUMPI PUSH1 0x0 DUP1 REVERT JUMPDEST POP JUMP JUMPDEST PUSH1 0x0 DUP2 CALLDATALOAD SWAP1 POP PUSH2 0x36D4 DUP2 PUSH2 0x36AE JUMP JUMPDEST SWAP3 SWAP2 POP POP JUMP JUMPDEST PUSH1 0x0 DUP1 PUSH1 0x0 DUP1 PUSH1 0x0 PUSH2 0x180 DUP7 DUP9 SUB SLT ISZERO PUSH2 0x36F7 JUMPI PUSH2 0x36F6 PUSH2 0x3449 JUMP JUMPDEST JUMPDEST PUSH1 0x0 DUP7 ADD CALLDATALOAD PUSH8 0xFFFFFFFFFFFFFFFF DUP2 GT ISZERO PUSH2 0x3715 JUMPI PUSH2 0x3714 PUSH2 0x344E JUMP JUMPDEST JUMPDEST PUSH2 0x3721 DUP9 DUP3 DUP10 ADD PUSH2 0x356B JUMP JUMPDEST SWAP6 POP POP PUSH1 0x20 PUSH2 0x3732 DUP9 DUP3 DUP10 ADD PUSH2 0x365A JUMP JUMPDEST SWAP5 POP POP PUSH2 0x120 PUSH2 0x3744 DUP9 DUP3 DUP10 ADD PUSH2 0x35E5 JUMP JUMPDEST SWAP4 POP POP PUSH2 0x140 PUSH2 0x3756 DUP9 DUP3 DUP10 ADD PUSH2 0x35E5 JUMP JUMPDEST SWAP3 POP POP PUSH2 0x160 PUSH2 0x3768 DUP9 DUP3 DUP10 ADD PUSH2 0x36C5 JUMP JUMPDEST SWAP2 POP POP SWAP3 SWAP6 POP SWAP3 SWAP6 SWAP1 SWAP4 POP JUMP JUMPDEST PUSH1 0x0 PUSH1 0x20 DUP3 DUP5 SUB SLT ISZERO PUSH2 0x378B JUMPI PUSH2 0x378A PUSH2 0x3449 JUMP JUMPDEST JUMPDEST PUSH1 0x0 PUSH2 0x3799 DUP5 DUP3 DUP6 ADD PUSH2 0x36C5 JUMP JUMPDEST SWAP2 POP POP SWAP3 SWAP2 POP POP JUMP JUMPDEST PUSH1 0x0 DUP2 ISZERO ISZERO SWAP1 POP SWAP2 SWAP1 POP JUMP JUMPDEST PUSH2 0x37B7 DUP2 PUSH2 0x37A2 JUMP JUMPDEST DUP3 MSTORE POP POP JUMP JUMPDEST PUSH1 0x0 PUSH1 0x20 DUP3 ADD SWAP1 POP PUSH2 0x37D2 PUSH1 0x0 DUP4 ADD DUP5 PUSH2 0x37AE JUMP JUMPDEST SWAP3 SWAP2 POP POP JUMP JUMPDEST PUSH1 0x0 PUSH1 0xA SWAP1 POP SWAP2 SWAP1 POP JUMP JUMPDEST PUSH1 0x0 DUP2 SWAP1 POP SWAP3 SWAP2 POP POP JUMP JUMPDEST PUSH1 0x0 DUP2 SWAP1 POP SWAP2 SWAP1 POP JUMP JUMPDEST PUSH2 0x3801 DUP2 PUSH2 0x35C4 JUMP JUMPDEST DUP3 MSTORE POP POP JUMP JUMPDEST PUSH1 0x0 PUSH2 0x3813 DUP4 DUP4 PUSH2 0x37F8 JUMP JUMPDEST PUSH1 0x20 DUP4 ADD SWAP1 POP SWAP3 SWAP2 POP POP JUMP JUMPDEST PUSH1 0x0 PUSH1 0x20 DUP3 ADD SWAP1 POP SWAP2 SWAP1 POP JUMP JUMPDEST PUSH2 0x3835 DUP2 PUSH2 0x37D8 JUMP JUMPDEST PUSH2 0x383F DUP2 DUP5 PUSH2 0x37E3 JUMP JUMPDEST SWAP3 POP PUSH2 0x384A DUP3 PUSH2 0x37EE JUMP JUMPDEST DUP1 PUSH1 0x0 JUMPDEST DUP4 DUP2 LT ISZERO PUSH2 0x387B JUMPI DUP2 MLOAD PUSH2 0x3862 DUP8 DUP3 PUSH2 0x3807 JUMP JUMPDEST SWAP7 POP PUSH2 0x386D DUP4 PUSH2 0x381F JUMP JUMPDEST SWAP3 POP POP PUSH1 0x1 DUP2 ADD SWAP1 POP PUSH2 0x384E JUMP JUMPDEST POP POP POP POP POP POP JUMP JUMPDEST PUSH1 0x0 PUSH2 0x140 DUP3 ADD SWAP1 POP PUSH2 0x3899 PUSH1 0x0 DUP4 ADD DUP5 PUSH2 0x382C JUMP JUMPDEST SWAP3 SWAP2 POP POP JUMP JUMPDEST PUSH1 0x0 DUP1 PUSH1 0x0 DUP1 PUSH1 0x0 DUP1 PUSH2 0x1A0 DUP8 DUP10 SUB SLT ISZERO PUSH2 0x38BD JUMPI PUSH2 0x38BC PUSH2 0x3449 JUMP JUMPDEST JUMPDEST PUSH1 0x0 DUP8 ADD CALLDATALOAD PUSH8 0xFFFFFFFFFFFFFFFF DUP2 GT ISZERO PUSH2 0x38DB JUMPI PUSH2 0x38DA PUSH2 0x344E JUMP JUMPDEST JUMPDEST PUSH2 0x38E7 DUP10 DUP3 DUP11 ADD PUSH2 0x356B JUMP JUMPDEST SWAP7 POP POP PUSH1 0x20 PUSH2 0x38F8 DUP10 DUP3 DUP11 ADD PUSH2 0x365A JUMP JUMPDEST SWAP6 POP POP PUSH2 0x120 PUSH2 0x390A DUP10 DUP3 DUP11 ADD PUSH2 0x35E5 JUMP JUMPDEST SWAP5 POP POP PUSH2 0x140 PUSH2 0x391C DUP10 DUP3 DUP11 ADD PUSH2 0x35E5 JUMP JUMPDEST SWAP4 POP POP PUSH2 0x160 PUSH2 0x392E DUP10 DUP3 DUP11 ADD PUSH2 0x35E5 JUMP JUMPDEST SWAP3 POP POP PUSH2 0x180 PUSH2 0x3940 DUP10 DUP3 DUP11 ADD PUSH2 0x36C5 JUMP JUMPDEST SWAP2 POP POP SWAP3 SWAP6 POP SWAP3 SWAP6 POP SWAP3 SWAP6 JUMP JUMPDEST PUSH2 0x3956 DUP2 PUSH2 0x3685 JUMP JUMPDEST DUP3 MSTORE POP POP JUMP JUMPDEST PUSH1 0x0 PUSH1 0x20 DUP3 ADD SWAP1 POP PUSH2 0x3971 PUSH1 0x0 DUP4 ADD DUP5 PUSH2 0x394D JUMP JUMPDEST SWAP3 SWAP2 POP POP JUMP JUMPDEST PUSH1 0x0 PUSH8 0xFFFFFFFFFFFFFFFF DUP3 GT ISZERO PUSH2 0x3992 JUMPI PUSH2 0x3991 PUSH2 0x346E JUMP JUMPDEST JUMPDEST PUSH1 0x20 DUP3 MUL SWAP1 POP SWAP2 SWAP1 POP JUMP JUMPDEST PUSH1 0x0 PUSH2 0x39B0 PUSH2 0x39AB DUP5 PUSH2 0x3977 JUMP JUMPDEST PUSH2 0x34CE JUMP JUMPDEST SWAP1 POP DUP1 PUSH1 0x20 DUP5 MUL DUP4 ADD DUP6 DUP2 GT ISZERO PUSH2 0x39CA JUMPI PUSH2 0x39C9 PUSH2 0x35BF JUMP JUMPDEST JUMPDEST DUP4 JUMPDEST DUP2 DUP2 LT ISZERO PUSH2 0x39F3 JUMPI DUP1 PUSH2 0x39DF DUP9 DUP3 PUSH2 0x35E5 JUMP JUMPDEST DUP5 MSTORE PUSH1 0x20 DUP5 ADD SWAP4 POP POP PUSH1 0x20 DUP2 ADD SWAP1 POP PUSH2 0x39CC JUMP JUMPDEST POP POP POP SWAP4 SWAP3 POP POP POP JUMP JUMPDEST PUSH1 0x0 DUP3 PUSH1 0x1F DUP4 ADD SLT PUSH2 0x3A12 JUMPI PUSH2 0x3A11 PUSH2 0x3453 JUMP JUMPDEST JUMPDEST PUSH1 0x2 PUSH2 0x3A1F DUP5 DUP3 DUP6 PUSH2 0x399D JUMP JUMPDEST SWAP2 POP POP SWAP3 SWAP2 POP POP JUMP JUMPDEST PUSH1 0x0 PUSH8 0xFFFFFFFFFFFFFFFF DUP3 GT ISZERO PUSH2 0x3A43 JUMPI PUSH2 0x3A42 PUSH2 0x346E JUMP JUMPDEST JUMPDEST PUSH1 0x20 DUP3 MUL SWAP1 POP SWAP2 SWAP1 POP JUMP JUMPDEST PUSH1 0x0 PUSH2 0x3A61 PUSH2 0x3A5C DUP5 PUSH2 0x3A28 JUMP JUMPDEST PUSH2 0x34CE JUMP JUMPDEST SWAP1 POP DUP1 PUSH1 0x40 DUP5 MUL DUP4 ADD DUP6 DUP2 GT ISZERO PUSH2 0x3A7B JUMPI PUSH2 0x3A7A PUSH2 0x35BF JUMP JUMPDEST JUMPDEST DUP4 JUMPDEST DUP2 DUP2 LT ISZERO PUSH2 0x3AA4 JUMPI DUP1 PUSH2 0x3A90 DUP9 DUP3 PUSH2 0x39FD JUMP JUMPDEST DUP5 MSTORE PUSH1 0x20 DUP5 ADD SWAP4 POP POP PUSH1 0x40 DUP2 ADD SWAP1 POP PUSH2 0x3A7D JUMP JUMPDEST POP POP POP SWAP4 SWAP3 POP POP POP JUMP JUMPDEST PUSH1 0x0 DUP3 PUSH1 0x1F DUP4 ADD SLT PUSH2 0x3AC3 JUMPI PUSH2 0x3AC2 PUSH2 0x3453 JUMP JUMPDEST JUMPDEST PUSH1 0x2 PUSH2 0x3AD0 DUP5 DUP3 DUP6 PUSH2 0x3A4E JUMP JUMPDEST SWAP2 POP POP SWAP3 SWAP2 POP POP JUMP JUMPDEST PUSH1 0x0 DUP1 PUSH1 0x0 PUSH2 0x100 DUP5 DUP7 SUB SLT ISZERO PUSH2 0x3AF3 JUMPI PUSH2 0x3AF2 PUSH2 0x3449 JUMP JUMPDEST JUMPDEST PUSH1 0x0 PUSH2 0x3B01 DUP7 DUP3 DUP8 ADD PUSH2 0x39FD JUMP JUMPDEST SWAP4 POP POP PUSH1 0x40 PUSH2 0x3B12 DUP7 DUP3 DUP8 ADD PUSH2 0x3AAE JUMP JUMPDEST SWAP3 POP POP PUSH1 0xC0 PUSH2 0x3B23 DUP7 DUP3 DUP8 ADD PUSH2 0x39FD JUMP JUMPDEST SWAP2 POP POP SWAP3 POP SWAP3 POP SWAP3 JUMP JUMPDEST PUSH1 0x0 PUSH1 0x8 SWAP1 POP SWAP2 SWAP1 POP JUMP JUMPDEST PUSH1 0x0 DUP2 SWAP1 POP SWAP3 SWAP2 POP POP JUMP JUMPDEST PUSH1 0x0 DUP2 SWAP1 POP SWAP2 SWAP1 POP JUMP JUMPDEST PUSH1 0x0 PUSH1 0x20 DUP3 ADD SWAP1 POP SWAP2 SWAP1 POP JUMP JUMPDEST PUSH2 0x3B63 DUP2 PUSH2 0x3B2D JUMP JUMPDEST PUSH2 0x3B6D DUP2 DUP5 PUSH2 0x3B38 JUMP JUMPDEST SWAP3 POP PUSH2 0x3B78 DUP3 PUSH2 0x3B43 JUMP JUMPDEST DUP1 PUSH1 0x0 JUMPDEST DUP4 DUP2 LT ISZERO PUSH2 0x3BA9 JUMPI DUP2 MLOAD PUSH2 0x3B90 DUP8 DUP3 PUSH2 0x3807 JUMP JUMPDEST SWAP7 POP PUSH2 0x3B9B DUP4 PUSH2 0x3B4D JUMP JUMPDEST SWAP3 POP POP PUSH1 0x1 DUP2 ADD SWAP1 POP PUSH2 0x3B7C JUMP JUMPDEST POP POP POP POP POP POP JUMP JUMPDEST PUSH1 0x0 PUSH2 0x100 DUP3 ADD SWAP1 POP PUSH2 0x3BC7 PUSH1 0x0 DUP4 ADD DUP5 PUSH2 0x3B5A JUMP JUMPDEST SWAP3 SWAP2 POP POP JUMP JUMPDEST PUSH1 0x0 PUSH8 0xFFFFFFFFFFFFFFFF DUP3 GT ISZERO PUSH2 0x3BE8 JUMPI PUSH2 0x3BE7 PUSH2 0x346E JUMP JUMPDEST JUMPDEST PUSH1 0x20 DUP3 MUL SWAP1 POP SWAP2 SWAP1 POP JUMP JUMPDEST PUSH1 0x0 PUSH2 0x3C06 PUSH2 0x3C01 DUP5 PUSH2 0x3BCD JUMP JUMPDEST PUSH2 0x34CE JUMP JUMPDEST SWAP1 POP DUP1 PUSH1 0x20 DUP5 MUL DUP4 ADD DUP6 DUP2 GT ISZERO PUSH2 0x3C20 JUMPI PUSH2 0x3C1F PUSH2 0x35BF JUMP JUMPDEST JUMPDEST DUP4 JUMPDEST DUP2 DUP2 LT ISZERO PUSH2 0x3C49 JUMPI DUP1 PUSH2 0x3C35 DUP9 DUP3 PUSH2 0x35E5 JUMP JUMPDEST DUP5 MSTORE PUSH1 0x20 DUP5 ADD SWAP4 POP POP PUSH1 0x20 DUP2 ADD SWAP1 POP PUSH2 0x3C22 JUMP JUMPDEST POP POP POP SWAP4 SWAP3 POP POP POP JUMP JUMPDEST PUSH1 0x0 DUP3 PUSH1 0x1F DUP4 ADD SLT PUSH2 0x3C68 JUMPI PUSH2 0x3C67 PUSH2 0x3453 JUMP JUMPDEST JUMPDEST PUSH1 0x4 PUSH2 0x3C75 DUP5 DUP3 DUP6 PUSH2 0x3BF3 JUMP JUMPDEST SWAP2 POP POP SWAP3 SWAP2 POP POP JUMP JUMPDEST PUSH1 0x0 DUP1 PUSH1 0x0 DUP1 PUSH2 0x180 DUP6 DUP8 SUB SLT ISZERO PUSH2 0x3C99 JUMPI PUSH2 0x3C98 PUSH2 0x3449 JUMP JUMPDEST JUMPDEST PUSH1 0x0 PUSH2 0x3CA7 DUP8 DUP3 DUP9 ADD PUSH2 0x39FD JUMP JUMPDEST SWAP5 POP POP PUSH1 0x40 PUSH2 0x3CB8 DUP8 DUP3 DUP9 ADD PUSH2 0x3AAE JUMP JUMPDEST SWAP4 POP POP PUSH1 0xC0 PUSH2 0x3CC9 DUP8 DUP3 DUP9 ADD PUSH2 0x39FD JUMP JUMPDEST SWAP3 POP POP PUSH2 0x100 PUSH2 0x3CDB DUP8 DUP3 DUP9 ADD PUSH2 0x3C53 JUMP JUMPDEST SWAP2 POP POP SWAP3 SWAP6 SWAP2 SWAP5 POP SWAP3 POP JUMP JUMPDEST PUSH1 0x0 PUSH1 0x20 DUP3 DUP5 SUB SLT ISZERO PUSH2 0x3CFD JUMPI PUSH2 0x3CFC PUSH2 0x3449 JUMP JUMPDEST JUMPDEST PUSH1 0x0 PUSH2 0x3D0B DUP5 DUP3 DUP6 ADD PUSH2 0x35E5 JUMP JUMPDEST SWAP2 POP POP SWAP3 SWAP2 POP POP JUMP JUMPDEST PUSH2 0x3D1D DUP2 PUSH2 0x35C4 JUMP JUMPDEST DUP3 MSTORE POP POP JUMP JUMPDEST PUSH1 0x0 PUSH1 0x20 DUP3 ADD SWAP1 POP PUSH2 0x3D38 PUSH1 0x0 DUP4 ADD DUP5 PUSH2 0x3D14 JUMP JUMPDEST SWAP3 SWAP2 POP POP JUMP JUMPDEST PUSH1 0x0 PUSH1 0x60 DUP3 ADD SWAP1 POP PUSH2 0x3D53 PUSH1 0x0 DUP4 ADD DUP7 PUSH2 0x394D JUMP JUMPDEST PUSH2 0x3D60 PUSH1 0x20 DUP4 ADD DUP6 PUSH2 0x37AE JUMP JUMPDEST PUSH2 0x3D6D PUSH1 0x40 DUP4 ADD DUP5 PUSH2 0x37AE JUMP JUMPDEST SWAP5 SWAP4 POP POP POP POP JUMP JUMPDEST PUSH1 0x0 PUSH20 0xFFFFFFFFFFFFFFFFFFFFFFFFFFFFFFFFFFFFFFFF DUP3 AND SWAP1 POP SWAP2 SWAP1 POP JUMP JUMPDEST PUSH1 0x0 PUSH2 0x3DA0 DUP3 PUSH2 0x3D75 JUMP JUMPDEST SWAP1 POP SWAP2 SWAP1 POP JUMP JUMPDEST PUSH2 0x3DB0 DUP2 PUSH2 0x3D95 JUMP JUMPDEST DUP3 MSTORE POP POP JUMP JUMPDEST PUSH1 0x0 PUSH1 0x20 DUP3 ADD SWAP1 POP PUSH2 0x3DCB PUSH1 0x0 DUP4 ADD DUP5 PUSH2 0x3DA7 JUMP JUMPDEST SWAP3 SWAP2 POP POP JUMP JUMPDEST PUSH2 0x3DDA DUP2 PUSH2 0x37A2 JUMP JUMPDEST DUP2 EQ PUSH2 0x3DE5 JUMPI PUSH1 0x0 DUP1 REVERT JUMPDEST POP JUMP JUMPDEST PUSH1 0x0 DUP2 CALLDATALOAD SWAP1 POP PUSH2 0x3DF7 DUP2 PUSH2 0x3DD1 JUMP JUMPDEST SWAP3 SWAP2 POP POP JUMP JUMPDEST PUSH1 0x0 PUSH1 0x20 DUP3 DUP5 SUB SLT ISZERO PUSH2 0x3E13 JUMPI PUSH2 0x3E12 PUSH2 0x3449 JUMP JUMPDEST JUMPDEST PUSH1 0x0 PUSH2 0x3E21 DUP5 DUP3 DUP6 ADD PUSH2 0x3DE8 JUMP JUMPDEST SWAP2 POP POP SWAP3 SWAP2 POP POP JUMP JUMPDEST PUSH2 0x3E33 DUP2 PUSH2 0x3D95 JUMP JUMPDEST DUP2 EQ PUSH2 0x3E3E JUMPI PUSH1 0x0 DUP1 REVERT JUMPDEST POP JUMP JUMPDEST PUSH1 0x0 DUP2 CALLDATALOAD SWAP1 POP PUSH2 0x3E50 DUP2 PUSH2 0x3E2A JUMP JUMPDEST SWAP3 SWAP2 POP POP JUMP JUMPDEST PUSH1 0x0 PUSH1 0x20 DUP3 DUP5 SUB SLT ISZERO PUSH2 0x3E6C JUMPI PUSH2 0x3E6B PUSH2 0x3449 JUMP JUMPDEST JUMPDEST PUSH1 0x0 PUSH2 0x3E7A DUP5 DUP3 DUP6 ADD PUSH2 0x3E41 JUMP JUMPDEST SWAP2 POP POP SWAP3 SWAP2 POP POP JUMP JUMPDEST PUSH1 0x0 PUSH2 0x100 DUP3 DUP5 SUB SLT ISZERO PUSH2 0x3E9A JUMPI PUSH2 0x3E99 PUSH2 0x3449 JUMP JUMPDEST JUMPDEST PUSH1 0x0 PUSH2 0x3EA8 DUP5 DUP3 DUP6 ADD PUSH2 0x365A JUMP JUMPDEST SWAP2 POP POP SWAP3 SWAP2 POP POP JUMP JUMPDEST PUSH1 0x0 PUSH1 0x2 SWAP1 POP SWAP2 SWAP1 POP JUMP JUMPDEST PUSH1 0x0 DUP2 SWAP1 POP SWAP3 SWAP2 POP POP JUMP JUMPDEST PUSH1 0x0 DUP2 SWAP1 POP SWAP2 SWAP1 POP JUMP JUMPDEST PUSH1 0x0 PUSH1 0x20 DUP3 ADD SWAP1 POP SWAP2 SWAP1 POP JUMP JUMPDEST PUSH2 0x3EE7 DUP2 PUSH2 0x3EB1 JUMP JUMPDEST PUSH2 0x3EF1 DUP2 DUP5 PUSH2 0x3EBC JUMP JUMPDEST SWAP3 POP PUSH2 0x3EFC DUP3 PUSH2 0x3EC7 JUMP JUMPDEST DUP1 PUSH1 0x0 JUMPDEST DUP4 DUP2 LT ISZERO PUSH2 0x3F2D JUMPI DUP2 MLOAD PUSH2 0x3F14 DUP8 DUP3 PUSH2 0x3807 JUMP JUMPDEST SWAP7 POP PUSH2 0x3F1F DUP4 PUSH2 0x3ED1 JUMP JUMPDEST SWAP3 POP POP PUSH1 0x1 DUP2 ADD SWAP1 POP PUSH2 0x3F00 JUMP JUMPDEST POP POP POP POP POP POP JUMP JUMPDEST PUSH1 0x0 PUSH1 0x2 SWAP1 POP SWAP2 SWAP1 POP JUMP JUMPDEST PUSH1 0x0 DUP2 SWAP1 POP SWAP3 SWAP2 POP POP JUMP JUMPDEST PUSH1 0x0 DUP2 SWAP1 POP SWAP2 SWAP1 POP JUMP JUMPDEST PUSH1 0x0 DUP2 SWAP1 POP SWAP3 SWAP2 POP POP JUMP JUMPDEST PUSH2 0x3F69 DUP2 PUSH2 0x3EB1 JUMP JUMPDEST PUSH2 0x3F73 DUP2 DUP5 PUSH2 0x3F55 JUMP JUMPDEST SWAP3 POP PUSH2 0x3F7E DUP3 PUSH2 0x3EC7 JUMP JUMPDEST DUP1 PUSH1 0x0 JUMPDEST DUP4 DUP2 LT ISZERO PUSH2 0x3FAF JUMPI DUP2 MLOAD PUSH2 0x3F96 DUP8 DUP3 PUSH2 0x3807 JUMP JUMPDEST SWAP7 POP PUSH2 0x3FA1 DUP4 PUSH2 0x3ED1 JUMP JUMPDEST SWAP3 POP POP PUSH1 0x1 DUP2 ADD SWAP1 POP PUSH2 0x3F82 JUMP JUMPDEST POP POP POP POP POP POP JUMP JUMPDEST PUSH1 0x0 PUSH2 0x3FC3 DUP4 DUP4 PUSH2 0x3F60 JUMP JUMPDEST PUSH1 0x40 DUP4 ADD SWAP1 POP SWAP3 SWAP2 POP POP JUMP JUMPDEST PUSH1 0x0 PUSH1 0x20 DUP3 ADD SWAP1 POP SWAP2 SWAP1 POP JUMP JUMPDEST PUSH2 0x3FE5 DUP2 PUSH2 0x3F35 JUMP JUMPDEST PUSH2 0x3FEF DUP2 DUP5 PUSH2 0x3F40 JUMP JUMPDEST SWAP3 POP PUSH2 0x3FFA DUP3 PUSH2 0x3F4B JUMP JUMPDEST DUP1 PUSH1 0x0 JUMPDEST DUP4 DUP2 LT ISZERO PUSH2 0x402B JUMPI DUP2 MLOAD PUSH2 0x4012 DUP8 DUP3 PUSH2 0x3FB7 JUMP JUMPDEST SWAP7 POP PUSH2 0x401D DUP4 PUSH2 0x3FCF JUMP JUMPDEST SWAP3 POP POP PUSH1 0x1 DUP2 ADD SWAP1 POP PUSH2 0x3FFE JUMP JUMPDEST POP POP POP POP POP POP JUMP JUMPDEST PUSH1 0x0 PUSH2 0x100 DUP3 ADD SWAP1 POP PUSH2 0x4049 PUSH1 0x0 DUP4 ADD DUP7 PUSH2 0x3EDE JUMP JUMPDEST PUSH2 0x4056 PUSH1 0x40 DUP4 ADD DUP6 PUSH2 0x3FDC JUMP JUMPDEST PUSH2 0x4063 PUSH1 0xC0 DUP4 ADD DUP5 PUSH2 0x3EDE JUMP JUMPDEST SWAP5 SWAP4 POP POP POP POP JUMP JUMPDEST PUSH1 0x0 DUP3 DUP3 MSTORE PUSH1 0x20 DUP3 ADD SWAP1 POP SWAP3 SWAP2 POP POP JUMP JUMPDEST PUSH32 0x53656D6170686F72653A20696E76616C6964206669656C6420656C656D656E74 PUSH1 0x0 DUP3 ADD MSTORE PUSH32 0x28732920696E2070726F6F660000000000000000000000000000000000000000 PUSH1 0x20 DUP3 ADD MSTORE POP JUMP JUMPDEST PUSH1 0x0 PUSH2 0x40D8 PUSH1 0x2C DUP4 PUSH2 0x406B JUMP JUMPDEST SWAP2 POP PUSH2 0x40E3 DUP3 PUSH2 0x407C JUMP JUMPDEST PUSH1 0x40 DUP3 ADD SWAP1 POP SWAP2 SWAP1 POP JUMP JUMPDEST PUSH1 0x0 PUSH1 0x20 DUP3 ADD SWAP1 POP DUP2 DUP2 SUB PUSH1 0x0 DUP4 ADD MSTORE PUSH2 0x4107 DUP2 PUSH2 0x40CB JUMP JUMPDEST SWAP1 POP SWAP2 SWAP1 POP JUMP JUMPDEST PUSH32 0x53656D6170686F72653A206E756C6C696669657220616C726561647920736565 PUSH1 0x0 DUP3 ADD MSTORE PUSH32 0x6E00000000000000000000000000000000000000000000000000000000000000 PUSH1 0x20 DUP3 ADD MSTORE POP JUMP JUMPDEST PUSH1 0x0 PUSH2 0x416A PUSH1 0x21 DUP4 PUSH2 0x406B JUMP JUMPDEST SWAP2 POP PUSH2 0x4175 DUP3 PUSH2 0x410E JUMP JUMPDEST PUSH1 0x40 DUP3 ADD SWAP1 POP SWAP2 SWAP1 POP JUMP JUMPDEST PUSH1 0x0 PUSH1 0x20 DUP3 ADD SWAP1 POP DUP2 DUP2 SUB PUSH1 0x0 DUP4 ADD MSTORE PUSH2 0x4199 DUP2 PUSH2 0x415D JUMP JUMPDEST SWAP1 POP SWAP2 SWAP1 POP JUMP JUMPDEST PUSH32 0x53656D6170686F72653A2065787465726E616C206E756C6C6966696572206E6F PUSH1 0x0 DUP3 ADD MSTORE PUSH32 0x7420666F756E6400000000000000000000000000000000000000000000000000 PUSH1 0x20 DUP3 ADD MSTORE POP JUMP JUMPDEST PUSH1 0x0 PUSH2 0x41FC PUSH1 0x27 DUP4 PUSH2 0x406B JUMP JUMPDEST SWAP2 POP PUSH2 0x4207 DUP3 PUSH2 0x41A0 JUMP JUMPDEST PUSH1 0x40 DUP3 ADD SWAP1 POP SWAP2 SWAP1 POP JUMP JUMPDEST PUSH1 0x0 PUSH1 0x20 DUP3 ADD SWAP1 POP DUP2 DUP2 SUB PUSH1 0x0 DUP4 ADD MSTORE PUSH2 0x422B DUP2 PUSH2 0x41EF JUMP JUMPDEST SWAP1 POP SWAP2 SWAP1 POP JUMP JUMPDEST PUSH32 0x53656D6170686F72653A20746865206E756C6C6966696572732068617368206D PUSH1 0x0 DUP3 ADD MSTORE PUSH32 0x757374206265206C742074686520736E61726B207363616C6172206669656C64 PUSH1 0x20 DUP3 ADD MSTORE POP JUMP JUMPDEST PUSH1 0x0 PUSH2 0x428E PUSH1 0x40 DUP4 PUSH2 0x406B JUMP JUMPDEST SWAP2 POP PUSH2 0x4299 DUP3 PUSH2 0x4232 JUMP JUMPDEST PUSH1 0x40 DUP3 ADD SWAP1 POP SWAP2 SWAP1 POP JUMP JUMPDEST PUSH1 0x0 PUSH1 0x20 DUP3 ADD SWAP1 POP DUP2 DUP2 SUB PUSH1 0x0 DUP4 ADD MSTORE PUSH2 0x42BD DUP2 PUSH2 0x4281 JUMP JUMPDEST SWAP1 POP SWAP2 SWAP1 POP JUMP JUMPDEST PUSH32 0x53656D6170686F72653A2065787465726E616C206E756C6C696669657220616C PUSH1 0x0 DUP3 ADD MSTORE PUSH32 0x7265616479206465616374697661746564000000000000000000000000000000 PUSH1 0x20 DUP3 ADD MSTORE POP JUMP JUMPDEST PUSH1 0x0 PUSH2 0x4320 PUSH1 0x31 DUP4 PUSH2 0x406B JUMP JUMPDEST SWAP2 POP PUSH2 0x432B DUP3 PUSH2 0x42C4 JUMP JUMPDEST PUSH1 0x40 DUP3 ADD SWAP1 POP SWAP2 SWAP1 POP JUMP JUMPDEST PUSH1 0x0 PUSH1 0x20 DUP3 ADD SWAP1 POP DUP2 DUP2 SUB PUSH1 0x0 DUP4 ADD MSTORE PUSH2 0x434F DUP2 PUSH2 0x4313 JUMP JUMPDEST SWAP1 POP SWAP2 SWAP1 POP JUMP JUMPDEST PUSH32 0x4E487B7100000000000000000000000000000000000000000000000000000000 PUSH1 0x0 MSTORE PUSH1 0x32 PUSH1 0x4 MSTORE PUSH1 0x24 PUSH1 0x0 REVERT JUMPDEST PUSH32 0x76657269666965722D61582D6774652D7072696D652D71000000000000000000 PUSH1 0x0 DUP3 ADD MSTORE POP JUMP JUMPDEST PUSH1 0x0 PUSH2 0x43BB PUSH1 0x17 DUP4 PUSH2 0x406B JUMP JUMPDEST SWAP2 POP PUSH2 0x43C6 DUP3 PUSH2 0x4385 JUMP JUMPDEST PUSH1 0x20 DUP3 ADD SWAP1 POP SWAP2 SWAP1 POP JUMP JUMPDEST PUSH1 0x0 PUSH1 0x20 DUP3 ADD SWAP1 POP DUP2 DUP2 SUB PUSH1 0x0 DUP4 ADD MSTORE PUSH2 0x43EA DUP2 PUSH2 0x43AE JUMP JUMPDEST SWAP1 POP SWAP2 SWAP1 POP JUMP JUMPDEST PUSH32 0x76657269666965722D61592D6774652D7072696D652D71000000000000000000 PUSH1 0x0 DUP3 ADD MSTORE POP JUMP JUMPDEST PUSH1 0x0 PUSH2 0x4427 PUSH1 0x17 DUP4 PUSH2 0x406B JUMP JUMPDEST SWAP2 POP PUSH2 0x4432 DUP3 PUSH2 0x43F1 JUMP JUMPDEST PUSH1 0x20 DUP3 ADD SWAP1 POP SWAP2 SWAP1 POP JUMP JUMPDEST PUSH1 0x0 PUSH1 0x20 DUP3 ADD SWAP1 POP DUP2 DUP2 SUB PUSH1 0x0 DUP4 ADD MSTORE PUSH2 0x4456 DUP2 PUSH2 0x441A JUMP JUMPDEST SWAP1 POP SWAP2 SWAP1 POP JUMP JUMPDEST PUSH32 0x76657269666965722D6258302D6774652D7072696D652D710000000000000000 PUSH1 0x0 DUP3 ADD MSTORE POP JUMP JUMPDEST PUSH1 0x0 PUSH2 0x4493 PUSH1 0x18 DUP4 PUSH2 0x406B JUMP JUMPDEST SWAP2 POP PUSH2 0x449E DUP3 PUSH2 0x445D JUMP JUMPDEST PUSH1 0x20 DUP3 ADD SWAP1 POP SWAP2 SWAP1 POP JUMP JUMPDEST PUSH1 0x0 PUSH1 0x20 DUP3 ADD SWAP1 POP DUP2 DUP2 SUB PUSH1 0x0 DUP4 ADD MSTORE PUSH2 0x44C2 DUP2 PUSH2 0x4486 JUMP JUMPDEST SWAP1 POP SWAP2 SWAP1 POP JUMP JUMPDEST PUSH32 0x76657269666965722D6259302D6774652D7072696D652D710000000000000000 PUSH1 0x0 DUP3 ADD MSTORE POP JUMP JUMPDEST PUSH1 0x0 PUSH2 0x44FF PUSH1 0x18 DUP4 PUSH2 0x406B JUMP JUMPDEST SWAP2 POP PUSH2 0x450A DUP3 PUSH2 0x44C9 JUMP JUMPDEST PUSH1 0x20 DUP3 ADD SWAP1 POP SWAP2 SWAP1 POP JUMP JUMPDEST PUSH1 0x0 PUSH1 0x20 DUP3 ADD SWAP1 POP DUP2 DUP2 SUB PUSH1 0x0 DUP4 ADD MSTORE PUSH2 0x452E DUP2 PUSH2 0x44F2 JUMP JUMPDEST SWAP1 POP SWAP2 SWAP1 POP JUMP JUMPDEST PUSH32 0x76657269666965722D6258312D6774652D7072696D652D710000000000000000 PUSH1 0x0 DUP3 ADD MSTORE POP JUMP JUMPDEST PUSH1 0x0 PUSH2 0x456B PUSH1 0x18 DUP4 PUSH2 0x406B JUMP JUMPDEST SWAP2 POP PUSH2 0x4576 DUP3 PUSH2 0x4535 JUMP JUMPDEST PUSH1 0x20 DUP3 ADD SWAP1 POP SWAP2 SWAP1 POP JUMP JUMPDEST PUSH1 0x0 PUSH1 0x20 DUP3 ADD SWAP1 POP DUP2 DUP2 SUB PUSH1 0x0 DUP4 ADD MSTORE PUSH2 0x459A DUP2 PUSH2 0x455E JUMP JUMPDEST SWAP1 POP SWAP2 SWAP1 POP JUMP JUMPDEST PUSH32 0x76657269666965722D6259312D6774652D7072696D652D710000000000000000 PUSH1 0x0 DUP3 ADD MSTORE POP JUMP JUMPDEST PUSH1 0x0 PUSH2 0x45D7 PUSH1 0x18 DUP4 PUSH2 0x406B JUMP JUMPDEST SWAP2 POP PUSH2 0x45E2 DUP3 PUSH2 0x45A1 JUMP JUMPDEST PUSH1 0x20 DUP3 ADD SWAP1 POP SWAP2 SWAP1 POP JUMP JUMPDEST PUSH1 0x0 PUSH1 0x20 DUP3 ADD SWAP1 POP DUP2 DUP2 SUB PUSH1 0x0 DUP4 ADD MSTORE PUSH2 0x4606 DUP2 PUSH2 0x45CA JUMP JUMPDEST SWAP1 POP SWAP2 SWAP1 POP JUMP JUMPDEST PUSH32 0x76657269666965722D63582D6774652D7072696D652D71000000000000000000 PUSH1 0x0 DUP3 ADD MSTORE POP JUMP JUMPDEST PUSH1 0x0 PUSH2 0x4643 PUSH1 0x17 DUP4 PUSH2 0x406B JUMP JUMPDEST SWAP2 POP PUSH2 0x464E DUP3 PUSH2 0x460D JUMP JUMPDEST PUSH1 0x20 DUP3 ADD SWAP1 POP SWAP2 SWAP1 POP JUMP JUMPDEST PUSH1 0x0 PUSH1 0x20 DUP3 ADD SWAP1 POP DUP2 DUP2 SUB PUSH1 0x0 DUP4 ADD MSTORE PUSH2 0x4672 DUP2 PUSH2 0x4636 JUMP JUMPDEST SWAP1 POP SWAP2 SWAP1 POP JUMP JUMPDEST PUSH32 0x76657269666965722D63592D6774652D7072696D652D71000000000000000000 PUSH1 0x0 DUP3 ADD MSTORE POP JUMP JUMPDEST PUSH1 0x0 PUSH2 0x46AF PUSH1 0x17 DUP4 PUSH2 0x406B JUMP JUMPDEST SWAP2 POP PUSH2 0x46BA DUP3 PUSH2 0x4679 JUMP JUMPDEST PUSH1 0x20 DUP3 ADD SWAP1 POP SWAP2 SWAP1 POP JUMP JUMPDEST PUSH1 0x0 PUSH1 0x20 DUP3 ADD SWAP1 POP DUP2 DUP2 SUB PUSH1 0x0 DUP4 ADD MSTORE PUSH2 0x46DE DUP2 PUSH2 0x46A2 JUMP JUMPDEST SWAP1 POP SWAP2 SWAP1 POP JUMP JUMPDEST PUSH32 0x76657269666965722D6774652D736E61726B2D7363616C61722D6669656C6400 PUSH1 0x0 DUP3 ADD MSTORE POP JUMP JUMPDEST PUSH1 0x0 PUSH2 0x471B PUSH1 0x1F DUP4 PUSH2 0x406B JUMP JUMPDEST SWAP2 POP PUSH2 0x4726 DUP3 PUSH2 0x46E5 JUMP JUMPDEST PUSH1 0x20 DUP3 ADD SWAP1 POP SWAP2 SWAP1 POP JUMP JUMPDEST PUSH1 0x0 PUSH1 0x20 DUP3 ADD SWAP1 POP DUP2 DUP2 SUB PUSH1 0x0 DUP4 ADD MSTORE PUSH2 0x474A DUP2 PUSH2 0x470E JUMP JUMPDEST SWAP1 POP SWAP2 SWAP1 POP JUMP JUMPDEST PUSH32 0x4E487B7100000000000000000000000000000000000000000000000000000000 PUSH1 0x0 MSTORE PUSH1 0x11 PUSH1 0x4 MSTORE PUSH1 0x24 PUSH1 0x0 REVERT JUMPDEST PUSH1 0x0 PUSH2 0x478B DUP3 PUSH2 0x35C4 JUMP JUMPDEST SWAP2 POP PUSH2 0x4796 DUP4 PUSH2 0x35C4 JUMP JUMPDEST SWAP3 POP DUP3 PUSH32 0xFFFFFFFFFFFFFFFFFFFFFFFFFFFFFFFFFFFFFFFFFFFFFFFFFFFFFFFFFFFFFFFF SUB DUP3 GT ISZERO PUSH2 0x47CB JUMPI PUSH2 0x47CA PUSH2 0x4751 JUMP JUMPDEST JUMPDEST DUP3 DUP3 ADD SWAP1 POP SWAP3 SWAP2 POP POP JUMP JUMPDEST PUSH1 0x0 PUSH2 0x47E1 DUP3 PUSH2 0x35C4 JUMP JUMPDEST SWAP2 POP PUSH32 0xFFFFFFFFFFFFFFFFFFFFFFFFFFFFFFFFFFFFFFFFFFFFFFFFFFFFFFFFFFFFFFFF DUP3 EQ ISZERO PUSH2 0x4814 JUMPI PUSH2 0x4813 PUSH2 0x4751 JUMP JUMPDEST JUMPDEST PUSH1 0x1 DUP3 ADD SWAP1 POP SWAP2 SWAP1 POP JUMP JUMPDEST PUSH32 0x53656D6170686F72653A206964656E7469747920636F6D6D69746D656E742063 PUSH1 0x0 DUP3 ADD MSTORE PUSH32 0x616E6E6F7420626520746865206E6F7468696E672D75702D6D792D736C656576 PUSH1 0x20 DUP3 ADD MSTORE PUSH32 0x652D76616C756500000000000000000000000000000000000000000000000000 PUSH1 0x40 DUP3 ADD MSTORE POP JUMP JUMPDEST PUSH1 0x0 PUSH2 0x48A1 PUSH1 0x47 DUP4 PUSH2 0x406B JUMP JUMPDEST SWAP2 POP PUSH2 0x48AC DUP3 PUSH2 0x481F JUMP JUMPDEST PUSH1 0x60 DUP3 ADD SWAP1 POP SWAP2 SWAP1 POP JUMP JUMPDEST PUSH1 0x0 PUSH1 0x20 DUP3 ADD SWAP1 POP DUP2 DUP2 SUB PUSH1 0x0 DUP4 ADD MSTORE PUSH2 0x48D0 DUP2 PUSH2 0x4894 JUMP JUMPDEST SWAP1 POP SWAP2 SWAP1 POP JUMP JUMPDEST PUSH32 0x4F776E61626C653A2063616C6C6572206973206E6F7420746865206F776E6572 PUSH1 0x0 DUP3 ADD MSTORE POP JUMP JUMPDEST PUSH1 0x0 PUSH2 0x490D PUSH1 0x20 DUP4 PUSH2 0x406B JUMP JUMPDEST SWAP2 POP PUSH2 0x4918 DUP3 PUSH2 0x48D7 JUMP JUMPDEST PUSH1 0x20 DUP3 ADD SWAP1 POP SWAP2 SWAP1 POP JUMP JUMPDEST PUSH1 0x0 PUSH1 0x20 DUP3 ADD SWAP1 POP DUP2 DUP2 SUB PUSH1 0x0 DUP4 ADD MSTORE PUSH2 0x493C DUP2 PUSH2 0x4900 JUMP JUMPDEST SWAP1 POP SWAP2 SWAP1 POP JUMP JUMPDEST PUSH32 0x53656D6170686F72653A2065787465726E616C206E756C6C6966696572206973 PUSH1 0x0 DUP3 ADD MSTORE PUSH32 0x20616C7265616479206163746976650000000000000000000000000000000000 PUSH1 0x20 DUP3 ADD MSTORE POP JUMP JUMPDEST PUSH1 0x0 PUSH2 0x499F PUSH1 0x2F DUP4 PUSH2 0x406B JUMP JUMPDEST SWAP2 POP PUSH2 0x49AA DUP3 PUSH2 0x4943 JUMP JUMPDEST PUSH1 0x40 DUP3 ADD SWAP1 POP SWAP2 SWAP1 POP JUMP JUMPDEST PUSH1 0x0 PUSH1 0x20 DUP3 ADD SWAP1 POP DUP2 DUP2 SUB PUSH1 0x0 DUP4 ADD MSTORE PUSH2 0x49CE DUP2 PUSH2 0x4992 JUMP JUMPDEST SWAP1 POP SWAP2 SWAP1 POP JUMP JUMPDEST PUSH32 0x53656D6170686F72653A206E6F20737563682065787465726E616C206E756C6C PUSH1 0x0 DUP3 ADD MSTORE PUSH32 0x6966696572000000000000000000000000000000000000000000000000000000 PUSH1 0x20 DUP3 ADD MSTORE POP JUMP JUMPDEST PUSH1 0x0 PUSH2 0x4A31 PUSH1 0x25 DUP4 PUSH2 0x406B JUMP JUMPDEST SWAP2 POP PUSH2 0x4A3C DUP3 PUSH2 0x49D5 JUMP JUMPDEST PUSH1 0x40 DUP3 ADD SWAP1 POP SWAP2 SWAP1 POP JUMP JUMPDEST PUSH1 0x0 PUSH1 0x20 DUP3 ADD SWAP1 POP DUP2 DUP2 SUB PUSH1 0x0 DUP4 ADD MSTORE PUSH2 0x4A60 DUP2 PUSH2 0x4A24 JUMP JUMPDEST SWAP1 POP SWAP2 SWAP1 POP JUMP JUMPDEST PUSH32 0x53656D6170686F72653A206E6F2065787465726E616C206E756C6C6966696572 PUSH1 0x0 DUP3 ADD MSTORE PUSH32 0x206578697374732061667465722074686520737065636966696564206F6E6500 PUSH1 0x20 DUP3 ADD MSTORE POP JUMP JUMPDEST PUSH1 0x0 PUSH2 0x4AC3 PUSH1 0x3F DUP4 PUSH2 0x406B JUMP JUMPDEST SWAP2 POP PUSH2 0x4ACE DUP3 PUSH2 0x4A67 JUMP JUMPDEST PUSH1 0x40 DUP3 ADD SWAP1 POP SWAP2 SWAP1 POP JUMP JUMPDEST PUSH1 0x0 PUSH1 0x20 DUP3 ADD SWAP1 POP DUP2 DUP2 SUB PUSH1 0x0 DUP4 ADD MSTORE PUSH2 0x4AF2 DUP2 PUSH2 0x4AB6 JUMP JUMPDEST SWAP1 POP SWAP2 SWAP1 POP JUMP JUMPDEST PUSH32 0x53656D6170686F72653A2065787465726E616C206E756C6C696669657220616C PUSH1 0x0 DUP3 ADD MSTORE PUSH32 0x7265616479207365740000000000000000000000000000000000000000000000 PUSH1 0x20 DUP3 ADD MSTORE POP JUMP JUMPDEST PUSH1 0x0 PUSH2 0x4B55 PUSH1 0x29 DUP4 PUSH2 0x406B JUMP JUMPDEST SWAP2 POP PUSH2 0x4B60 DUP3 PUSH2 0x4AF9 JUMP JUMPDEST PUSH1 0x40 DUP3 ADD SWAP1 POP SWAP2 SWAP1 POP JUMP JUMPDEST PUSH1 0x0 PUSH1 0x20 DUP3 ADD SWAP1 POP DUP2 DUP2 SUB PUSH1 0x0 DUP4 ADD MSTORE PUSH2 0x4B84 DUP2 PUSH2 0x4B48 JUMP JUMPDEST SWAP1 POP SWAP2 SWAP1 POP JUMP JUMPDEST PUSH32 0x4E487B7100000000000000000000000000000000000000000000000000000000 PUSH1 0x0 MSTORE PUSH1 0x12 PUSH1 0x4 MSTORE PUSH1 0x24 PUSH1 0x0 REVERT JUMPDEST PUSH1 0x0 PUSH2 0x4BC5 DUP3 PUSH2 0x35C4 JUMP JUMPDEST SWAP2 POP PUSH2 0x4BD0 DUP4 PUSH2 0x35C4 JUMP JUMPDEST SWAP3 POP DUP3 PUSH2 0x4BE0 JUMPI PUSH2 0x4BDF PUSH2 0x4B8B JUMP JUMPDEST JUMPDEST DUP3 DUP3 MOD SWAP1 POP SWAP3 SWAP2 POP POP JUMP JUMPDEST PUSH1 0x0 PUSH2 0x4BF6 DUP3 PUSH2 0x35C4 JUMP JUMPDEST SWAP2 POP PUSH2 0x4C01 DUP4 PUSH2 0x35C4 JUMP JUMPDEST SWAP3 POP DUP3 DUP3 LT ISZERO PUSH2 0x4C14 JUMPI PUSH2 0x4C13 PUSH2 0x4751 JUMP JUMPDEST JUMPDEST DUP3 DUP3 SUB SWAP1 POP SWAP3 SWAP2 POP POP JUMP JUMPDEST PUSH1 0x0 PUSH2 0x4C2A DUP3 PUSH2 0x35C4 JUMP JUMPDEST SWAP2 POP PUSH2 0x4C35 DUP4 PUSH2 0x35C4 JUMP JUMPDEST SWAP3 POP DUP2 PUSH32 0xFFFFFFFFFFFFFFFFFFFFFFFFFFFFFFFFFFFFFFFFFFFFFFFFFFFFFFFFFFFFFFFF DIV DUP4 GT DUP3 ISZERO ISZERO AND ISZERO PUSH2 0x4C6E JUMPI PUSH2 0x4C6D PUSH2 0x4751 JUMP JUMPDEST JUMPDEST DUP3 DUP3 MUL SWAP1 POP SWAP3 SWAP2 POP POP JUMP JUMPDEST PUSH32 0x496E6372656D656E74616C4D65726B6C65547265653A20696E736572744C6561 PUSH1 0x0 DUP3 ADD MSTORE PUSH32 0x6620617267756D656E74206D757374206265203C20534E41524B5F5343414C41 PUSH1 0x20 DUP3 ADD MSTORE PUSH32 0x525F4649454C4400000000000000000000000000000000000000000000000000 PUSH1 0x40 DUP3 ADD MSTORE POP JUMP JUMPDEST PUSH1 0x0 PUSH2 0x4CFB PUSH1 0x47 DUP4 PUSH2 0x406B JUMP JUMPDEST SWAP2 POP PUSH2 0x4D06 DUP3 PUSH2 0x4C79 JUMP JUMPDEST PUSH1 0x60 DUP3 ADD SWAP1 POP SWAP2 SWAP1 POP JUMP JUMPDEST PUSH1 0x0 PUSH1 0x20 DUP3 ADD SWAP1 POP DUP2 DUP2 SUB PUSH1 0x0 DUP4 ADD MSTORE PUSH2 0x4D2A DUP2 PUSH2 0x4CEE JUMP JUMPDEST SWAP1 POP SWAP2 SWAP1 POP JUMP JUMPDEST PUSH1 0x0 DUP2 PUSH1 0x1 SHR SWAP1 POP SWAP2 SWAP1 POP JUMP JUMPDEST PUSH1 0x0 DUP1 DUP3 SWAP2 POP DUP4 SWAP1 POP JUMPDEST PUSH1 0x1 DUP6 GT ISZERO PUSH2 0x4D88 JUMPI DUP1 DUP7 DIV DUP2 GT ISZERO PUSH2 0x4D64 JUMPI PUSH2 0x4D63 PUSH2 0x4751 JUMP JUMPDEST JUMPDEST PUSH1 0x1 DUP6 AND ISZERO PUSH2 0x4D73 JUMPI DUP1 DUP3 MUL SWAP2 POP JUMPDEST DUP1 DUP2 MUL SWAP1 POP PUSH2 0x4D81 DUP6 PUSH2 0x4D31 JUMP JUMPDEST SWAP5 POP PUSH2 0x4D48 JUMP JUMPDEST SWAP5 POP SWAP5 SWAP3 POP POP POP JUMP JUMPDEST PUSH1 0x0 DUP3 PUSH2 0x4DA1 JUMPI PUSH1 0x1 SWAP1 POP PUSH2 0x4E5D JUMP JUMPDEST DUP2 PUSH2 0x4DAF JUMPI PUSH1 0x0 SWAP1 POP PUSH2 0x4E5D JUMP JUMPDEST DUP2 PUSH1 0x1 DUP2 EQ PUSH2 0x4DC5 JUMPI PUSH1 0x2 DUP2 EQ PUSH2 0x4DCF JUMPI PUSH2 0x4DFE JUMP JUMPDEST PUSH1 0x1 SWAP2 POP POP PUSH2 0x4E5D JUMP JUMPDEST PUSH1 0xFF DUP5 GT ISZERO PUSH2 0x4DE1 JUMPI PUSH2 0x4DE0 PUSH2 0x4751 JUMP JUMPDEST JUMPDEST DUP4 PUSH1 0x2 EXP SWAP2 POP DUP5 DUP3 GT ISZERO PUSH2 0x4DF8 JUMPI PUSH2 0x4DF7 PUSH2 0x4751 JUMP JUMPDEST JUMPDEST POP PUSH2 0x4E5D JUMP JUMPDEST POP PUSH1 0x20 DUP4 LT PUSH2 0x133 DUP4 LT AND PUSH1 0x4E DUP5 LT PUSH1 0xB DUP5 LT AND OR ISZERO PUSH2 0x4E33 JUMPI DUP3 DUP3 EXP SWAP1 POP DUP4 DUP2 GT ISZERO PUSH2 0x4E2E JUMPI PUSH2 0x4E2D PUSH2 0x4751 JUMP JUMPDEST JUMPDEST PUSH2 0x4E5D JUMP JUMPDEST PUSH2 0x4E40 DUP5 DUP5 DUP5 PUSH1 0x1 PUSH2 0x4D3E JUMP JUMPDEST SWAP3 POP SWAP1 POP DUP2 DUP5 DIV DUP2 GT ISZERO PUSH2 0x4E57 JUMPI PUSH2 0x4E56 PUSH2 0x4751 JUMP JUMPDEST JUMPDEST DUP2 DUP2 MUL SWAP1 POP JUMPDEST SWAP4 SWAP3 POP POP POP JUMP JUMPDEST PUSH1 0x0 PUSH2 0x4E6F DUP3 PUSH2 0x35C4 JUMP JUMPDEST SWAP2 POP PUSH2 0x4E7A DUP4 PUSH2 0x35C4 JUMP JUMPDEST SWAP3 POP PUSH2 0x4EA7 PUSH32 0xFFFFFFFFFFFFFFFFFFFFFFFFFFFFFFFFFFFFFFFFFFFFFFFFFFFFFFFFFFFFFFFF DUP5 DUP5 PUSH2 0x4D91 JUMP JUMPDEST SWAP1 POP SWAP3 SWAP2 POP POP JUMP JUMPDEST PUSH32 0x496E6372656D656E74616C4D65726B6C65547265653A20747265652069732066 PUSH1 0x0 DUP3 ADD MSTORE PUSH32 0x756C6C0000000000000000000000000000000000000000000000000000000000 PUSH1 0x20 DUP3 ADD MSTORE POP JUMP JUMPDEST PUSH1 0x0 PUSH2 0x4F0B PUSH1 0x23 DUP4 PUSH2 0x406B JUMP JUMPDEST SWAP2 POP PUSH2 0x4F16 DUP3 PUSH2 0x4EAF JUMP JUMPDEST PUSH1 0x40 DUP3 ADD SWAP1 POP SWAP2 SWAP1 POP JUMP JUMPDEST PUSH1 0x0 PUSH1 0x20 DUP3 ADD SWAP1 POP DUP2 DUP2 SUB PUSH1 0x0 DUP4 ADD MSTORE PUSH2 0x4F3A DUP2 PUSH2 0x4EFE JUMP JUMPDEST SWAP1 POP SWAP2 SWAP1 POP JUMP JUMPDEST PUSH1 0x0 PUSH1 0xFF DUP3 AND SWAP1 POP SWAP2 SWAP1 POP JUMP JUMPDEST PUSH1 0x0 PUSH2 0x4F59 DUP3 PUSH2 0x4F41 JUMP JUMPDEST SWAP2 POP PUSH1 0xFF DUP3 EQ ISZERO PUSH2 0x4F6D JUMPI PUSH2 0x4F6C PUSH2 0x4751 JUMP JUMPDEST JUMPDEST PUSH1 0x1 DUP3 ADD SWAP1 POP SWAP2 SWAP1 POP JUMP JUMPDEST PUSH32 0x4F776E61626C653A206E6577206F776E657220697320746865207A65726F2061 PUSH1 0x0 DUP3 ADD MSTORE PUSH32 0x6464726573730000000000000000000000000000000000000000000000000000 PUSH1 0x20 DUP3 ADD MSTORE POP JUMP JUMPDEST PUSH1 0x0 PUSH2 0x4FD4 PUSH1 0x26 DUP4 PUSH2 0x406B JUMP JUMPDEST SWAP2 POP PUSH2 0x4FDF DUP3 PUSH2 0x4F78 JUMP JUMPDEST PUSH1 0x40 DUP3 ADD SWAP1 POP SWAP2 SWAP1 POP JUMP JUMPDEST PUSH1 0x0 PUSH1 0x20 DUP3 ADD SWAP1 POP DUP2 DUP2 SUB PUSH1 0x0 DUP4 ADD MSTORE PUSH2 0x5003 DUP2 PUSH2 0x4FC7 JUMP JUMPDEST SWAP1 POP SWAP2 SWAP1 POP JUMP JUMPDEST PUSH2 0x5013 DUP2 PUSH2 0x35C4 JUMP JUMPDEST DUP3 MSTORE POP POP JUMP JUMPDEST PUSH1 0x0 DUP2 SWAP1 POP SWAP2 SWAP1 POP JUMP JUMPDEST PUSH1 0x0 DUP2 SWAP1 POP SWAP2 SWAP1 POP JUMP JUMPDEST PUSH1 0x0 PUSH2 0x5048 PUSH2 0x5043 PUSH2 0x503E DUP5 PUSH2 0x5019 JUMP JUMPDEST PUSH2 0x5023 JUMP JUMPDEST PUSH2 0x35C4 JUMP JUMPDEST SWAP1 POP SWAP2 SWAP1 POP JUMP JUMPDEST PUSH2 0x5058 DUP2 PUSH2 0x502D JUMP JUMPDEST DUP3 MSTORE POP POP JUMP JUMPDEST PUSH1 0x0 PUSH1 0x40 DUP3 ADD SWAP1 POP PUSH2 0x5073 PUSH1 0x0 DUP4 ADD DUP6 PUSH2 0x500A JUMP JUMPDEST PUSH2 0x5080 PUSH1 0x20 DUP4 ADD DUP5 PUSH2 0x504F JUMP JUMPDEST SWAP4 SWAP3 POP POP POP JUMP JUMPDEST PUSH1 0x0 DUP2 MLOAD SWAP1 POP PUSH2 0x5096 DUP2 PUSH2 0x35CE JUMP JUMPDEST SWAP3 SWAP2 POP POP JUMP JUMPDEST PUSH1 0x0 DUP1 PUSH1 0x40 DUP4 DUP6 SUB SLT ISZERO PUSH2 0x50B3 JUMPI PUSH2 0x50B2 PUSH2 0x3449 JUMP JUMPDEST JUMPDEST PUSH1 0x0 PUSH2 0x50C1 DUP6 DUP3 DUP7 ADD PUSH2 0x5087 JUMP JUMPDEST SWAP3 POP POP PUSH1 0x20 PUSH2 0x50D2 DUP6 DUP3 DUP7 ADD PUSH2 0x5087 JUMP JUMPDEST SWAP2 POP POP SWAP3 POP SWAP3 SWAP1 POP JUMP JUMPDEST PUSH1 0x0 PUSH1 0x40 DUP3 ADD SWAP1 POP PUSH2 0x50F1 PUSH1 0x0 DUP4 ADD DUP6 PUSH2 0x500A JUMP JUMPDEST PUSH2 0x50FE PUSH1 0x20 DUP4 ADD DUP5 PUSH2 0x500A JUMP JUMPDEST SWAP4 SWAP3 POP POP POP JUMP INVALID LOG2 PUSH5 0x6970667358 0x22 SLT KECCAK256 0xB7 0xC7 0xE5 DUP1 MSTORE8 0xD7 0xDC 0xA7 0x21 0xC7 JUMPDEST 0xEE SELFDESTRUCT 0xAC PUSH32 0x82699146C7AFD2F169F42D0C028E62628D64736F6C634300080A003300000000 "},"methodIdentifiers":{"NOTHING_UP_MY_SLEEVE_ZERO()":"6ebf6265","addExternalNullifier(uint232)":"539f38b2","broadcastSignal(bytes,uint256[8],uint256,uint256,uint232)":"0e57596f","deactivateExternalNullifier(uint232)":"23baaa83","externalNullifierLinkedList(uint232)":"7a5519f9","firstExternalNullifier()":"5d86faba","getNextExternalNullifier(uint232)":"c3a3407f","getNumIdentityCommitments()":"ba10b81d","getRoots()":"35a5e06d","insertIdentity(uint256)":"6d80efca","isBroadcastPermissioned()":"283ebaf4","isExternalNullifierActive(uint232)":"eac4287e","isOwner()":"8f32d59b","lastExternalNullifier()":"c8cf02da","nullifierHashHistory(uint256)":"c4cd5596","numExternalNullifiers()":"8f6efd00","owner()":"8da5cb5b","packProof(uint256[2],uint256[2][2],uint256[2])":"5e05ea17","preBroadcastCheck(bytes,uint256[8],uint256,uint256,uint256,uint232)":"5d3ce725","reactivateExternalNullifier(uint232)":"819bd8a5","renounceOwnership()":"715018a6","root()":"ebf0c717","rootHistory(uint256)":"f1c621ee","setPermissioning(bool)":"ce85bbdb","transferOwnership(address)":"f2fde38b","unpackProof(uint256[8])":"f5ab0dd6","verifyProof(uint256[2],uint256[2][2],uint256[2],uint256[4])":"5fe8c13b"}}}}}