{"contracts/VotingProcess.sol":{"VotingProcess":{"abi":[{"inputs":[{"internalType":"uint256","name":"_id","type":"uint256"},{"internalType":"string","name":"_name","type":"string"},{"internalType":"string","name":"_description","type":"string"},{"internalType":"uint256","name":"_startDate","type":"uint256"},{"internalType":"uint256","name":"_endDate","type":"uint256"},{"internalType":"contract ParticipationProofs","name":"_participationProofs","type":"address"}],"stateMutability":"nonpayable","type":"constructor"},{"inputs":[{"internalType":"bytes","name":"_proposal","type":"bytes"}],"name":"addProposal","outputs":[],"stateMutability":"nonpayable","type":"function"},{"inputs":[],"name":"description","outputs":[{"internalType":"string","name":"","type":"string"}],"stateMutability":"view","type":"function"},{"inputs":[],"name":"getEndDate","outputs":[{"internalType":"uint256","name":"","type":"uint256"}],"stateMutability":"view","type":"function"},{"inputs":[],"name":"getProposals","outputs":[{"internalType":"bytes[]","name":"","type":"bytes[]"}],"stateMutability":"view","type":"function"},{"inputs":[],"name":"getStartDate","outputs":[{"internalType":"uint256","name":"","type":"uint256"}],"stateMutability":"view","type":"function"},{"inputs":[],"name":"getStatus","outputs":[{"internalType":"enum VotingProcess.Status","name":"","type":"uint8"}],"stateMutability":"view","type":"function"},{"inputs":[],"name":"getVotesPerProposal","outputs":[{"components":[{"internalType":"bytes","name":"proposal","type":"bytes"},{"internalType":"uint256","name":"numberOfVotes","type":"uint256"}],"internalType":"struct VotingProcess.VoteProposal[]","name":"","type":"tuple[]"}],"stateMutability":"view","type":"function"},{"inputs":[],"name":"getWinningProposal","outputs":[{"components":[{"internalType":"bytes","name":"proposal","type":"bytes"},{"internalType":"uint256","name":"numberOfVotes","type":"uint256"}],"internalType":"struct VotingProcess.VoteProposal","name":"","type":"tuple"}],"stateMutability":"view","type":"function"},{"inputs":[],"name":"id","outputs":[{"internalType":"uint256","name":"","type":"uint256"}],"stateMutability":"view","type":"function"},{"inputs":[],"name":"name","outputs":[{"internalType":"string","name":"","type":"string"}],"stateMutability":"view","type":"function"},{"inputs":[],"name":"participationProofs","outputs":[{"internalType":"contract ParticipationProofs","name":"","type":"address"}],"stateMutability":"view","type":"function"},{"inputs":[{"internalType":"uint256","name":"","type":"uint256"}],"name":"proposals","outputs":[{"internalType":"bytes","name":"","type":"bytes"}],"stateMutability":"view","type":"function"},{"inputs":[{"internalType":"bytes","name":"signal","type":"bytes"}],"name":"vote","outputs":[],"stateMutability":"nonpayable","type":"function"},{"inputs":[{"internalType":"bytes","name":"","type":"bytes"}],"name":"votesPerProposal","outputs":[{"internalType":"uint256","name":"","type":"uint256"}],"stateMutability":"view","type":"function"}],"evm":{"bytecode":{"linkReferences":{},"object":"60806040523480156200001157600080fd5b5060405162001e5238038062001e528339818101604052810190620000379190620003cc565b85600081905550846001908051906020019062000056929190620000cb565b5083600290805190602001906200006f929190620000cb565b50826003819055508160048190555080600560006101000a81548173ffffffffffffffffffffffffffffffffffffffff021916908373ffffffffffffffffffffffffffffffffffffffff1602179055505050505050506200050b565b828054620000d990620004d5565b90600052602060002090601f016020900481019282620000fd576000855562000149565b82601f106200011857805160ff191683800117855562000149565b8280016001018555821562000149579182015b82811115620001485782518255916020019190600101906200012b565b5b5090506200015891906200015c565b5090565b5b80821115620001775760008160009055506001016200015d565b5090565b6000604051905090565b600080fd5b600080fd5b6000819050919050565b620001a4816200018f565b8114620001b057600080fd5b50565b600081519050620001c48162000199565b92915050565b600080fd5b600080fd5b6000601f19601f8301169050919050565b7f4e487b7100000000000000000000000000000000000000000000000000000000600052604160045260246000fd5b6200021f82620001d4565b810181811067ffffffffffffffff82111715620002415762000240620001e5565b5b80604052505050565b6000620002566200017b565b905062000264828262000214565b919050565b600067ffffffffffffffff821115620002875762000286620001e5565b5b6200029282620001d4565b9050602081019050919050565b60005b83811015620002bf578082015181840152602081019050620002a2565b83811115620002cf576000848401525b50505050565b6000620002ec620002e68462000269565b6200024a565b9050828152602081018484840111156200030b576200030a620001cf565b5b620003188482856200029f565b509392505050565b600082601f830112620003385762000337620001ca565b5b81516200034a848260208601620002d5565b91505092915050565b600073ffffffffffffffffffffffffffffffffffffffff82169050919050565b6000620003808262000353565b9050919050565b6000620003948262000373565b9050919050565b620003a68162000387565b8114620003b257600080fd5b50565b600081519050620003c6816200039b565b92915050565b60008060008060008060c08789031215620003ec57620003eb62000185565b5b6000620003fc89828a01620001b3565b965050602087015167ffffffffffffffff81111562000420576200041f6200018a565b5b6200042e89828a0162000320565b955050604087015167ffffffffffffffff8111156200045257620004516200018a565b5b6200046089828a0162000320565b94505060606200047389828a01620001b3565b93505060806200048689828a01620001b3565b92505060a06200049989828a01620003b5565b9150509295509295509295565b7f4e487b7100000000000000000000000000000000000000000000000000000000600052602260045260246000fd5b60006002820490506001821680620004ee57607f821691505b60208210811415620005055762000504620004a6565b5b50919050565b611937806200051b6000396000f3fe608060405234801561001057600080fd5b50600436106100ea5760003560e01c80637284e4161161008c578063af640d0f11610066578063af640d0f1461023d578063b13564881461025b578063bf7f3cfe14610279578063e9dc061414610297576100ea565b80637284e416146101e357806378f305c614610201578063a51346201461021f576100ea565b80634e69d560116100c85780634e69d5601461016d578063534376531461018b57806353b41f2c146101a757806362564c48146101c5576100ea565b8063013cf08b146100ef57806302f6df8e1461011f57806306fdde031461014f575b600080fd5b61010960048036038101906101049190610c6b565b6102b3565b6040516101169190610d31565b60405180910390f35b61013960048036038101906101349190610e88565b61035f565b6040516101469190610ee0565b60405180910390f35b61015761038d565b6040516101649190610f50565b60405180910390f35b61017561041b565b6040516101829190610fe9565b60405180910390f35b6101a560048036038101906101a09190610e88565b61044b565b005b6101af6104f8565b6040516101bc9190611083565b60405180910390f35b6101cd61051e565b6040516101da91906111aa565b60405180910390f35b6101eb6105f7565b6040516101f89190610f50565b60405180910390f35b610209610685565b6040516102169190610ee0565b60405180910390f35b61022761068f565b6040516102349190611218565b60405180910390f35b61024561087e565b6040516102529190610ee0565b60405180910390f35b610263610884565b6040516102709190610ee0565b60405180910390f35b61028161088e565b60405161028e9190611339565b60405180910390f35b6102b160048036038101906102ac9190610e88565b610a2b565b005b600681815481106102c357600080fd5b9060005260206000200160009150905080546102de9061138a565b80601f016020809104026020016040519081016040528092919081815260200182805461030a9061138a565b80156103575780601f1061032c57610100808354040283529160200191610357565b820191906000526020600020905b81548152906001019060200180831161033a57829003601f168201915b505050505081565b6007818051602081018201805184825260208301602085012081835280955050505050506000915090505481565b6001805461039a9061138a565b80601f01602080910402602001604051908101604052809291908181526020018280546103c69061138a565b80156104135780601f106103e857610100808354040283529160200191610413565b820191906000526020600020905b8154815290600101906020018083116103f657829003601f168201915b505050505081565b60006003544210156104305760019050610448565b6004544210156104435760009050610448565b600290505b90565b6001600281111561045f5761045e610f72565b5b61046761041b565b600281111561047957610478610f72565b5b146104b9576040517f08c379a00000000000000000000000000000000000000000000000000000000081526004016104b09061142e565b60405180910390fd5b6006819080600181540180825580915050600190039060005260206000200160009091909190915090805190602001906104f4929190610b64565b5050565b600560009054906101000a900473ffffffffffffffffffffffffffffffffffffffff1681565b60606006805480602002602001604051908101604052809291908181526020016000905b828210156105ee5783829060005260206000200180546105619061138a565b80601f016020809104026020016040519081016040528092919081815260200182805461058d9061138a565b80156105da5780601f106105af576101008083540402835291602001916105da565b820191906000526020600020905b8154815290600101906020018083116105bd57829003601f168201915b505050505081526020019060010190610542565b50505050905090565b600280546106049061138a565b80601f01602080910402602001604051908101604052809291908181526020018280546106309061138a565b801561067d5780601f106106525761010080835404028352916020019161067d565b820191906000526020600020905b81548152906001019060200180831161066057829003601f168201915b505050505081565b6000600354905090565b610697610bea565b6002808111156106aa576106a9610f72565b5b6106b261041b565b60028111156106c4576106c3610f72565b5b14610704576040517f08c379a00000000000000000000000000000000000000000000000000000000081526004016106fb906114c0565b60405180910390fd5b600061070e610bea565b60008160200181815250505b600680549050821015610876578060200151600760068481548110610742576107416114e0565b5b9060005260206000200160405161075991906115ae565b90815260200160405180910390205411156108635760068281548110610782576107816114e0565b5b9060005260206000200180546107979061138a565b80601f01602080910402602001604051908101604052809291908181526020018280546107c39061138a565b80156108105780601f106107e557610100808354040283529160200191610810565b820191906000526020600020905b8154815290600101906020018083116107f357829003601f168201915b50505050508160000181905250600760068381548110610833576108326114e0565b5b9060005260206000200160405161084a91906115ae565b9081526020016040518091039020548160200181815250505b818061086e906115f4565b92505061071a565b809250505090565b60005481565b6000600454905090565b606060008060068054905067ffffffffffffffff8111156108b2576108b1610d5d565b5b6040519080825280602002602001820160405280156108eb57816020015b6108d8610bea565b8152602001906001900390816108d05790505b5090505b600680549050821015610a235760405180604001604052806006848154811061091b5761091a6114e0565b5b9060005260206000200180546109309061138a565b80601f016020809104026020016040519081016040528092919081815260200182805461095c9061138a565b80156109a95780601f1061097e576101008083540402835291602001916109a9565b820191906000526020600020905b81548152906001019060200180831161098c57829003601f168201915b505050505081526020016007600685815481106109c9576109c86114e0565b5b906000526020600020016040516109e091906115ae565b908152602001604051809103902054815250818381518110610a0557610a046114e0565b5b60200260200101819052508180610a1b906115f4565b9250506108ef565b809250505090565b60006002811115610a3f57610a3e610f72565b5b610a4761041b565b6002811115610a5957610a58610f72565b5b14610a99576040517f08c379a0000000000000000000000000000000000000000000000000000000008152600401610a90906116af565b60405180910390fd5b6001600782604051610aab9190611700565b90815260200160405180910390206000828254610ac89190611717565b92505081905550600560009054906101000a900473ffffffffffffffffffffffffffffffffffffffff1673ffffffffffffffffffffffffffffffffffffffff16638a7d3d6c336006426040518463ffffffff1660e01b8152600401610b2f939291906118c3565b600060405180830381600087803b158015610b4957600080fd5b505af1158015610b5d573d6000803e3d6000fd5b5050505050565b828054610b709061138a565b90600052602060002090601f016020900481019282610b925760008555610bd9565b82601f10610bab57805160ff1916838001178555610bd9565b82800160010185558215610bd9579182015b82811115610bd8578251825591602001919060010190610bbd565b5b509050610be69190610c04565b5090565b604051806040016040528060608152602001600081525090565b5b80821115610c1d576000816000905550600101610c05565b5090565b6000604051905090565b600080fd5b600080fd5b6000819050919050565b610c4881610c35565b8114610c5357600080fd5b50565b600081359050610c6581610c3f565b92915050565b600060208284031215610c8157610c80610c2b565b5b6000610c8f84828501610c56565b91505092915050565b600081519050919050565b600082825260208201905092915050565b60005b83811015610cd2578082015181840152602081019050610cb7565b83811115610ce1576000848401525b50505050565b6000601f19601f8301169050919050565b6000610d0382610c98565b610d0d8185610ca3565b9350610d1d818560208601610cb4565b610d2681610ce7565b840191505092915050565b60006020820190508181036000830152610d4b8184610cf8565b905092915050565b600080fd5b600080fd5b7f4e487b7100000000000000000000000000000000000000000000000000000000600052604160045260246000fd5b610d9582610ce7565b810181811067ffffffffffffffff82111715610db457610db3610d5d565b5b80604052505050565b6000610dc7610c21565b9050610dd38282610d8c565b919050565b600067ffffffffffffffff821115610df357610df2610d5d565b5b610dfc82610ce7565b9050602081019050919050565b82818337600083830152505050565b6000610e2b610e2684610dd8565b610dbd565b905082815260208101848484011115610e4757610e46610d58565b5b610e52848285610e09565b509392505050565b600082601f830112610e6f57610e6e610d53565b5b8135610e7f848260208601610e18565b91505092915050565b600060208284031215610e9e57610e9d610c2b565b5b600082013567ffffffffffffffff811115610ebc57610ebb610c30565b5b610ec884828501610e5a565b91505092915050565b610eda81610c35565b82525050565b6000602082019050610ef56000830184610ed1565b92915050565b600081519050919050565b600082825260208201905092915050565b6000610f2282610efb565b610f2c8185610f06565b9350610f3c818560208601610cb4565b610f4581610ce7565b840191505092915050565b60006020820190508181036000830152610f6a8184610f17565b905092915050565b7f4e487b7100000000000000000000000000000000000000000000000000000000600052602160045260246000fd5b60038110610fb257610fb1610f72565b5b50565b6000819050610fc382610fa1565b919050565b6000610fd382610fb5565b9050919050565b610fe381610fc8565b82525050565b6000602082019050610ffe6000830184610fda565b92915050565b600073ffffffffffffffffffffffffffffffffffffffff82169050919050565b6000819050919050565b600061104961104461103f84611004565b611024565b611004565b9050919050565b600061105b8261102e565b9050919050565b600061106d82611050565b9050919050565b61107d81611062565b82525050565b60006020820190506110986000830184611074565b92915050565b600081519050919050565b600082825260208201905092915050565b6000819050602082019050919050565b600082825260208201905092915050565b60006110e682610c98565b6110f081856110ca565b9350611100818560208601610cb4565b61110981610ce7565b840191505092915050565b600061112083836110db565b905092915050565b6000602082019050919050565b60006111408261109e565b61114a81856110a9565b93508360208202850161115c856110ba565b8060005b8581101561119857848403895281516111798582611114565b945061118483611128565b925060208a01995050600181019050611160565b50829750879550505050505092915050565b600060208201905081810360008301526111c48184611135565b905092915050565b6111d581610c35565b82525050565b600060408301600083015184820360008601526111f882826110db565b915050602083015161120d60208601826111cc565b508091505092915050565b6000602082019050818103600083015261123281846111db565b905092915050565b600081519050919050565b600082825260208201905092915050565b6000819050602082019050919050565b6000604083016000830151848203600086015261128382826110db565b915050602083015161129860208601826111cc565b508091505092915050565b60006112af8383611266565b905092915050565b6000602082019050919050565b60006112cf8261123a565b6112d98185611245565b9350836020820285016112eb85611256565b8060005b85811015611327578484038952815161130885826112a3565b9450611313836112b7565b925060208a019950506001810190506112ef565b50829750879550505050505092915050565b6000602082019050818103600083015261135381846112c4565b905092915050565b7f4e487b7100000000000000000000000000000000000000000000000000000000600052602260045260246000fd5b600060028204905060018216806113a257607f821691505b602082108114156113b6576113b561135b565b5b50919050565b7f456c656374696f6e206e6565647320746f2062652070656e64696e6720746f2060008201527f6164642070726f706f73616c7300000000000000000000000000000000000000602082015250565b6000611418602d83610f06565b9150611423826113bc565b604082019050919050565b600060208201905081810360008301526114478161140b565b9050919050565b7f526573756c747320617265206465636c61726564206f6e6c792061667465722060008201527f74686520656c656374696f6e20656e6473000000000000000000000000000000602082015250565b60006114aa603183610f06565b91506114b58261144e565b604082019050919050565b600060208201905081810360008301526114d98161149d565b9050919050565b7f4e487b7100000000000000000000000000000000000000000000000000000000600052603260045260246000fd5b600081905092915050565b60008190508160005260206000209050919050565b6000815461153c8161138a565b611546818661150f565b945060018216600081146115615760018114611572576115a5565b60ff198316865281860193506115a5565b61157b8561151a565b60005b8381101561159d5781548189015260018201915060208101905061157e565b838801955050505b50505092915050565b60006115ba828461152f565b915081905092915050565b7f4e487b7100000000000000000000000000000000000000000000000000000000600052601160045260246000fd5b60006115ff82610c35565b91507fffffffffffffffffffffffffffffffffffffffffffffffffffffffffffffffff821415611632576116316115c5565b5b600182019050919050565b7f456c656374696f6e206e6565647320746f2062652061637469766520746f207660008201527f6f74650000000000000000000000000000000000000000000000000000000000602082015250565b6000611699602383610f06565b91506116a48261163d565b604082019050919050565b600060208201905081810360008301526116c88161168c565b9050919050565b60006116da82610c98565b6116e4818561150f565b93506116f4818560208601610cb4565b80840191505092915050565b600061170c82846116cf565b915081905092915050565b600061172282610c35565b915061172d83610c35565b9250827fffffffffffffffffffffffffffffffffffffffffffffffffffffffffffffffff03821115611762576117616115c5565b5b828201905092915050565b600061177882611004565b9050919050565b6117888161176d565b82525050565b600081549050919050565b60008190508160005260206000209050919050565b600081546117bb8161138a565b6117c581866110ca565b945060018216600081146117e057600181146117f257611825565b60ff1983168652602086019350611825565b6117fb8561151a565b60005b8381101561181d578154818901526001820191506020810190506117fe565b808801955050505b50505092915050565b600061183a83836117ae565b905092915050565b6000600182019050919050565b600061185a8261178e565b61186481856110a9565b93508360208202850161187685611799565b8060005b858110156118b157848403895281611892858261182e565b945061189d83611842565b925060208a0199505060018101905061187a565b50829750879550505050505092915050565b60006060820190506118d8600083018661177f565b81810360208301526118ea818561184f565b90506118f96040830184610ed1565b94935050505056fea2646970667358221220e658b6ec3ef84927f9f80d150b5530ea45c775d46c9ba7117abf557e8ba9cc1e64736f6c634300080a0033","opcodes":"PUSH1 0x80 PUSH1 0x40 MSTORE CALLVALUE DUP1 ISZERO PUSH3 0x11 JUMPI PUSH1 0x0 DUP1 REVERT JUMPDEST POP PUSH1 0x40 MLOAD PUSH3 0x1E52 CODESIZE SUB DUP1 PUSH3 0x1E52 DUP4 CODECOPY DUP2 DUP2 ADD PUSH1 0x40 MSTORE DUP2 ADD SWAP1 PUSH3 0x37 SWAP2 SWAP1 PUSH3 0x3CC JUMP JUMPDEST DUP6 PUSH1 0x0 DUP2 SWAP1 SSTORE POP DUP5 PUSH1 0x1 SWAP1 DUP1 MLOAD SWAP1 PUSH1 0x20 ADD SWAP1 PUSH3 0x56 SWAP3 SWAP2 SWAP1 PUSH3 0xCB JUMP JUMPDEST POP DUP4 PUSH1 0x2 SWAP1 DUP1 MLOAD SWAP1 PUSH1 0x20 ADD SWAP1 PUSH3 0x6F SWAP3 SWAP2 SWAP1 PUSH3 0xCB JUMP JUMPDEST POP DUP3 PUSH1 0x3 DUP2 SWAP1 SSTORE POP DUP2 PUSH1 0x4 DUP2 SWAP1 SSTORE POP DUP1 PUSH1 0x5 PUSH1 0x0 PUSH2 0x100 EXP DUP2 SLOAD DUP2 PUSH20 0xFFFFFFFFFFFFFFFFFFFFFFFFFFFFFFFFFFFFFFFF MUL NOT AND SWAP1 DUP4 PUSH20 0xFFFFFFFFFFFFFFFFFFFFFFFFFFFFFFFFFFFFFFFF AND MUL OR SWAP1 SSTORE POP POP POP POP POP POP POP PUSH3 0x50B JUMP JUMPDEST DUP3 DUP1 SLOAD PUSH3 0xD9 SWAP1 PUSH3 0x4D5 JUMP JUMPDEST SWAP1 PUSH1 0x0 MSTORE PUSH1 0x20 PUSH1 0x0 KECCAK256 SWAP1 PUSH1 0x1F ADD PUSH1 0x20 SWAP1 DIV DUP2 ADD SWAP3 DUP3 PUSH3 0xFD JUMPI PUSH1 0x0 DUP6 SSTORE PUSH3 0x149 JUMP JUMPDEST DUP3 PUSH1 0x1F LT PUSH3 0x118 JUMPI DUP1 MLOAD PUSH1 0xFF NOT AND DUP4 DUP1 ADD OR DUP6 SSTORE PUSH3 0x149 JUMP JUMPDEST DUP3 DUP1 ADD PUSH1 0x1 ADD DUP6 SSTORE DUP3 ISZERO PUSH3 0x149 JUMPI SWAP2 DUP3 ADD JUMPDEST DUP3 DUP2 GT ISZERO PUSH3 0x148 JUMPI DUP3 MLOAD DUP3 SSTORE SWAP2 PUSH1 0x20 ADD SWAP2 SWAP1 PUSH1 0x1 ADD SWAP1 PUSH3 0x12B JUMP JUMPDEST JUMPDEST POP SWAP1 POP PUSH3 0x158 SWAP2 SWAP1 PUSH3 0x15C JUMP JUMPDEST POP SWAP1 JUMP JUMPDEST JUMPDEST DUP1 DUP3 GT ISZERO PUSH3 0x177 JUMPI PUSH1 0x0 DUP2 PUSH1 0x0 SWAP1 SSTORE POP PUSH1 0x1 ADD PUSH3 0x15D JUMP JUMPDEST POP SWAP1 JUMP JUMPDEST PUSH1 0x0 PUSH1 0x40 MLOAD SWAP1 POP SWAP1 JUMP JUMPDEST PUSH1 0x0 DUP1 REVERT JUMPDEST PUSH1 0x0 DUP1 REVERT JUMPDEST PUSH1 0x0 DUP2 SWAP1 POP SWAP2 SWAP1 POP JUMP JUMPDEST PUSH3 0x1A4 DUP2 PUSH3 0x18F JUMP JUMPDEST DUP2 EQ PUSH3 0x1B0 JUMPI PUSH1 0x0 DUP1 REVERT JUMPDEST POP JUMP JUMPDEST PUSH1 0x0 DUP2 MLOAD SWAP1 POP PUSH3 0x1C4 DUP2 PUSH3 0x199 JUMP JUMPDEST SWAP3 SWAP2 POP POP JUMP JUMPDEST PUSH1 0x0 DUP1 REVERT JUMPDEST PUSH1 0x0 DUP1 REVERT JUMPDEST PUSH1 0x0 PUSH1 0x1F NOT PUSH1 0x1F DUP4 ADD AND SWAP1 POP SWAP2 SWAP1 POP JUMP JUMPDEST PUSH32 0x4E487B7100000000000000000000000000000000000000000000000000000000 PUSH1 0x0 MSTORE PUSH1 0x41 PUSH1 0x4 MSTORE PUSH1 0x24 PUSH1 0x0 REVERT JUMPDEST PUSH3 0x21F DUP3 PUSH3 0x1D4 JUMP JUMPDEST DUP2 ADD DUP2 DUP2 LT PUSH8 0xFFFFFFFFFFFFFFFF DUP3 GT OR ISZERO PUSH3 0x241 JUMPI PUSH3 0x240 PUSH3 0x1E5 JUMP JUMPDEST JUMPDEST DUP1 PUSH1 0x40 MSTORE POP POP POP JUMP JUMPDEST PUSH1 0x0 PUSH3 0x256 PUSH3 0x17B JUMP JUMPDEST SWAP1 POP PUSH3 0x264 DUP3 DUP3 PUSH3 0x214 JUMP JUMPDEST SWAP2 SWAP1 POP JUMP JUMPDEST PUSH1 0x0 PUSH8 0xFFFFFFFFFFFFFFFF DUP3 GT ISZERO PUSH3 0x287 JUMPI PUSH3 0x286 PUSH3 0x1E5 JUMP JUMPDEST JUMPDEST PUSH3 0x292 DUP3 PUSH3 0x1D4 JUMP JUMPDEST SWAP1 POP PUSH1 0x20 DUP2 ADD SWAP1 POP SWAP2 SWAP1 POP JUMP JUMPDEST PUSH1 0x0 JUMPDEST DUP4 DUP2 LT ISZERO PUSH3 0x2BF JUMPI DUP1 DUP3 ADD MLOAD DUP2 DUP5 ADD MSTORE PUSH1 0x20 DUP2 ADD SWAP1 POP PUSH3 0x2A2 JUMP JUMPDEST DUP4 DUP2 GT ISZERO PUSH3 0x2CF JUMPI PUSH1 0x0 DUP5 DUP5 ADD MSTORE JUMPDEST POP POP POP POP JUMP JUMPDEST PUSH1 0x0 PUSH3 0x2EC PUSH3 0x2E6 DUP5 PUSH3 0x269 JUMP JUMPDEST PUSH3 0x24A JUMP JUMPDEST SWAP1 POP DUP3 DUP2 MSTORE PUSH1 0x20 DUP2 ADD DUP5 DUP5 DUP5 ADD GT ISZERO PUSH3 0x30B JUMPI PUSH3 0x30A PUSH3 0x1CF JUMP JUMPDEST JUMPDEST PUSH3 0x318 DUP5 DUP3 DUP6 PUSH3 0x29F JUMP JUMPDEST POP SWAP4 SWAP3 POP POP POP JUMP JUMPDEST PUSH1 0x0 DUP3 PUSH1 0x1F DUP4 ADD SLT PUSH3 0x338 JUMPI PUSH3 0x337 PUSH3 0x1CA JUMP JUMPDEST JUMPDEST DUP2 MLOAD PUSH3 0x34A DUP5 DUP3 PUSH1 0x20 DUP7 ADD PUSH3 0x2D5 JUMP JUMPDEST SWAP2 POP POP SWAP3 SWAP2 POP POP JUMP JUMPDEST PUSH1 0x0 PUSH20 0xFFFFFFFFFFFFFFFFFFFFFFFFFFFFFFFFFFFFFFFF DUP3 AND SWAP1 POP SWAP2 SWAP1 POP JUMP JUMPDEST PUSH1 0x0 PUSH3 0x380 DUP3 PUSH3 0x353 JUMP JUMPDEST SWAP1 POP SWAP2 SWAP1 POP JUMP JUMPDEST PUSH1 0x0 PUSH3 0x394 DUP3 PUSH3 0x373 JUMP JUMPDEST SWAP1 POP SWAP2 SWAP1 POP JUMP JUMPDEST PUSH3 0x3A6 DUP2 PUSH3 0x387 JUMP JUMPDEST DUP2 EQ PUSH3 0x3B2 JUMPI PUSH1 0x0 DUP1 REVERT JUMPDEST POP JUMP JUMPDEST PUSH1 0x0 DUP2 MLOAD SWAP1 POP PUSH3 0x3C6 DUP2 PUSH3 0x39B JUMP JUMPDEST SWAP3 SWAP2 POP POP JUMP JUMPDEST PUSH1 0x0 DUP1 PUSH1 0x0 DUP1 PUSH1 0x0 DUP1 PUSH1 0xC0 DUP8 DUP10 SUB SLT ISZERO PUSH3 0x3EC JUMPI PUSH3 0x3EB PUSH3 0x185 JUMP JUMPDEST JUMPDEST PUSH1 0x0 PUSH3 0x3FC DUP10 DUP3 DUP11 ADD PUSH3 0x1B3 JUMP JUMPDEST SWAP7 POP POP PUSH1 0x20 DUP8 ADD MLOAD PUSH8 0xFFFFFFFFFFFFFFFF DUP2 GT ISZERO PUSH3 0x420 JUMPI PUSH3 0x41F PUSH3 0x18A JUMP JUMPDEST JUMPDEST PUSH3 0x42E DUP10 DUP3 DUP11 ADD PUSH3 0x320 JUMP JUMPDEST SWAP6 POP POP PUSH1 0x40 DUP8 ADD MLOAD PUSH8 0xFFFFFFFFFFFFFFFF DUP2 GT ISZERO PUSH3 0x452 JUMPI PUSH3 0x451 PUSH3 0x18A JUMP JUMPDEST JUMPDEST PUSH3 0x460 DUP10 DUP3 DUP11 ADD PUSH3 0x320 JUMP JUMPDEST SWAP5 POP POP PUSH1 0x60 PUSH3 0x473 DUP10 DUP3 DUP11 ADD PUSH3 0x1B3 JUMP JUMPDEST SWAP4 POP POP PUSH1 0x80 PUSH3 0x486 DUP10 DUP3 DUP11 ADD PUSH3 0x1B3 JUMP JUMPDEST SWAP3 POP POP PUSH1 0xA0 PUSH3 0x499 DUP10 DUP3 DUP11 ADD PUSH3 0x3B5 JUMP JUMPDEST SWAP2 POP POP SWAP3 SWAP6 POP SWAP3 SWAP6 POP SWAP3 SWAP6 JUMP JUMPDEST PUSH32 0x4E487B7100000000000000000000000000000000000000000000000000000000 PUSH1 0x0 MSTORE PUSH1 0x22 PUSH1 0x4 MSTORE PUSH1 0x24 PUSH1 0x0 REVERT JUMPDEST PUSH1 0x0 PUSH1 0x2 DUP3 DIV SWAP1 POP PUSH1 0x1 DUP3 AND DUP1 PUSH3 0x4EE JUMPI PUSH1 0x7F DUP3 AND SWAP2 POP JUMPDEST PUSH1 0x20 DUP3 LT DUP2 EQ ISZERO PUSH3 0x505 JUMPI PUSH3 0x504 PUSH3 0x4A6 JUMP JUMPDEST JUMPDEST POP SWAP2 SWAP1 POP JUMP JUMPDEST PUSH2 0x1937 DUP1 PUSH3 0x51B PUSH1 0x0 CODECOPY PUSH1 0x0 RETURN INVALID PUSH1 0x80 PUSH1 0x40 MSTORE CALLVALUE DUP1 ISZERO PUSH2 0x10 JUMPI PUSH1 0x0 DUP1 REVERT JUMPDEST POP PUSH1 0x4 CALLDATASIZE LT PUSH2 0xEA JUMPI PUSH1 0x0 CALLDATALOAD PUSH1 0xE0 SHR DUP1 PUSH4 0x7284E416 GT PUSH2 0x8C JUMPI DUP1 PUSH4 0xAF640D0F GT PUSH2 0x66 JUMPI DUP1 PUSH4 0xAF640D0F EQ PUSH2 0x23D JUMPI DUP1 PUSH4 0xB1356488 EQ PUSH2 0x25B JUMPI DUP1 PUSH4 0xBF7F3CFE EQ PUSH2 0x279 JUMPI DUP1 PUSH4 0xE9DC0614 EQ PUSH2 0x297 JUMPI PUSH2 0xEA JUMP JUMPDEST DUP1 PUSH4 0x7284E416 EQ PUSH2 0x1E3 JUMPI DUP1 PUSH4 0x78F305C6 EQ PUSH2 0x201 JUMPI DUP1 PUSH4 0xA5134620 EQ PUSH2 0x21F JUMPI PUSH2 0xEA JUMP JUMPDEST DUP1 PUSH4 0x4E69D560 GT PUSH2 0xC8 JUMPI DUP1 PUSH4 0x4E69D560 EQ PUSH2 0x16D JUMPI DUP1 PUSH4 0x53437653 EQ PUSH2 0x18B JUMPI DUP1 PUSH4 0x53B41F2C EQ PUSH2 0x1A7 JUMPI DUP1 PUSH4 0x62564C48 EQ PUSH2 0x1C5 JUMPI PUSH2 0xEA JUMP JUMPDEST DUP1 PUSH4 0x13CF08B EQ PUSH2 0xEF JUMPI DUP1 PUSH4 0x2F6DF8E EQ PUSH2 0x11F JUMPI DUP1 PUSH4 0x6FDDE03 EQ PUSH2 0x14F JUMPI JUMPDEST PUSH1 0x0 DUP1 REVERT JUMPDEST PUSH2 0x109 PUSH1 0x4 DUP1 CALLDATASIZE SUB DUP2 ADD SWAP1 PUSH2 0x104 SWAP2 SWAP1 PUSH2 0xC6B JUMP JUMPDEST PUSH2 0x2B3 JUMP JUMPDEST PUSH1 0x40 MLOAD PUSH2 0x116 SWAP2 SWAP1 PUSH2 0xD31 JUMP JUMPDEST PUSH1 0x40 MLOAD DUP1 SWAP2 SUB SWAP1 RETURN JUMPDEST PUSH2 0x139 PUSH1 0x4 DUP1 CALLDATASIZE SUB DUP2 ADD SWAP1 PUSH2 0x134 SWAP2 SWAP1 PUSH2 0xE88 JUMP JUMPDEST PUSH2 0x35F JUMP JUMPDEST PUSH1 0x40 MLOAD PUSH2 0x146 SWAP2 SWAP1 PUSH2 0xEE0 JUMP JUMPDEST PUSH1 0x40 MLOAD DUP1 SWAP2 SUB SWAP1 RETURN JUMPDEST PUSH2 0x157 PUSH2 0x38D JUMP JUMPDEST PUSH1 0x40 MLOAD PUSH2 0x164 SWAP2 SWAP1 PUSH2 0xF50 JUMP JUMPDEST PUSH1 0x40 MLOAD DUP1 SWAP2 SUB SWAP1 RETURN JUMPDEST PUSH2 0x175 PUSH2 0x41B JUMP JUMPDEST PUSH1 0x40 MLOAD PUSH2 0x182 SWAP2 SWAP1 PUSH2 0xFE9 JUMP JUMPDEST PUSH1 0x40 MLOAD DUP1 SWAP2 SUB SWAP1 RETURN JUMPDEST PUSH2 0x1A5 PUSH1 0x4 DUP1 CALLDATASIZE SUB DUP2 ADD SWAP1 PUSH2 0x1A0 SWAP2 SWAP1 PUSH2 0xE88 JUMP JUMPDEST PUSH2 0x44B JUMP JUMPDEST STOP JUMPDEST PUSH2 0x1AF PUSH2 0x4F8 JUMP JUMPDEST PUSH1 0x40 MLOAD PUSH2 0x1BC SWAP2 SWAP1 PUSH2 0x1083 JUMP JUMPDEST PUSH1 0x40 MLOAD DUP1 SWAP2 SUB SWAP1 RETURN JUMPDEST PUSH2 0x1CD PUSH2 0x51E JUMP JUMPDEST PUSH1 0x40 MLOAD PUSH2 0x1DA SWAP2 SWAP1 PUSH2 0x11AA JUMP JUMPDEST PUSH1 0x40 MLOAD DUP1 SWAP2 SUB SWAP1 RETURN JUMPDEST PUSH2 0x1EB PUSH2 0x5F7 JUMP JUMPDEST PUSH1 0x40 MLOAD PUSH2 0x1F8 SWAP2 SWAP1 PUSH2 0xF50 JUMP JUMPDEST PUSH1 0x40 MLOAD DUP1 SWAP2 SUB SWAP1 RETURN JUMPDEST PUSH2 0x209 PUSH2 0x685 JUMP JUMPDEST PUSH1 0x40 MLOAD PUSH2 0x216 SWAP2 SWAP1 PUSH2 0xEE0 JUMP JUMPDEST PUSH1 0x40 MLOAD DUP1 SWAP2 SUB SWAP1 RETURN JUMPDEST PUSH2 0x227 PUSH2 0x68F JUMP JUMPDEST PUSH1 0x40 MLOAD PUSH2 0x234 SWAP2 SWAP1 PUSH2 0x1218 JUMP JUMPDEST PUSH1 0x40 MLOAD DUP1 SWAP2 SUB SWAP1 RETURN JUMPDEST PUSH2 0x245 PUSH2 0x87E JUMP JUMPDEST PUSH1 0x40 MLOAD PUSH2 0x252 SWAP2 SWAP1 PUSH2 0xEE0 JUMP JUMPDEST PUSH1 0x40 MLOAD DUP1 SWAP2 SUB SWAP1 RETURN JUMPDEST PUSH2 0x263 PUSH2 0x884 JUMP JUMPDEST PUSH1 0x40 MLOAD PUSH2 0x270 SWAP2 SWAP1 PUSH2 0xEE0 JUMP JUMPDEST PUSH1 0x40 MLOAD DUP1 SWAP2 SUB SWAP1 RETURN JUMPDEST PUSH2 0x281 PUSH2 0x88E JUMP JUMPDEST PUSH1 0x40 MLOAD PUSH2 0x28E SWAP2 SWAP1 PUSH2 0x1339 JUMP JUMPDEST PUSH1 0x40 MLOAD DUP1 SWAP2 SUB SWAP1 RETURN JUMPDEST PUSH2 0x2B1 PUSH1 0x4 DUP1 CALLDATASIZE SUB DUP2 ADD SWAP1 PUSH2 0x2AC SWAP2 SWAP1 PUSH2 0xE88 JUMP JUMPDEST PUSH2 0xA2B JUMP JUMPDEST STOP JUMPDEST PUSH1 0x6 DUP2 DUP2 SLOAD DUP2 LT PUSH2 0x2C3 JUMPI PUSH1 0x0 DUP1 REVERT JUMPDEST SWAP1 PUSH1 0x0 MSTORE PUSH1 0x20 PUSH1 0x0 KECCAK256 ADD PUSH1 0x0 SWAP2 POP SWAP1 POP DUP1 SLOAD PUSH2 0x2DE SWAP1 PUSH2 0x138A JUMP JUMPDEST DUP1 PUSH1 0x1F ADD PUSH1 0x20 DUP1 SWAP2 DIV MUL PUSH1 0x20 ADD PUSH1 0x40 MLOAD SWAP1 DUP2 ADD PUSH1 0x40 MSTORE DUP1 SWAP3 SWAP2 SWAP1 DUP2 DUP2 MSTORE PUSH1 0x20 ADD DUP3 DUP1 SLOAD PUSH2 0x30A SWAP1 PUSH2 0x138A JUMP JUMPDEST DUP1 ISZERO PUSH2 0x357 JUMPI DUP1 PUSH1 0x1F LT PUSH2 0x32C JUMPI PUSH2 0x100 DUP1 DUP4 SLOAD DIV MUL DUP4 MSTORE SWAP2 PUSH1 0x20 ADD SWAP2 PUSH2 0x357 JUMP JUMPDEST DUP3 ADD SWAP2 SWAP1 PUSH1 0x0 MSTORE PUSH1 0x20 PUSH1 0x0 KECCAK256 SWAP1 JUMPDEST DUP2 SLOAD DUP2 MSTORE SWAP1 PUSH1 0x1 ADD SWAP1 PUSH1 0x20 ADD DUP1 DUP4 GT PUSH2 0x33A JUMPI DUP3 SWAP1 SUB PUSH1 0x1F AND DUP3 ADD SWAP2 JUMPDEST POP POP POP POP POP DUP2 JUMP JUMPDEST PUSH1 0x7 DUP2 DUP1 MLOAD PUSH1 0x20 DUP2 ADD DUP3 ADD DUP1 MLOAD DUP5 DUP3 MSTORE PUSH1 0x20 DUP4 ADD PUSH1 0x20 DUP6 ADD KECCAK256 DUP2 DUP4 MSTORE DUP1 SWAP6 POP POP POP POP POP POP PUSH1 0x0 SWAP2 POP SWAP1 POP SLOAD DUP2 JUMP JUMPDEST PUSH1 0x1 DUP1 SLOAD PUSH2 0x39A SWAP1 PUSH2 0x138A JUMP JUMPDEST DUP1 PUSH1 0x1F ADD PUSH1 0x20 DUP1 SWAP2 DIV MUL PUSH1 0x20 ADD PUSH1 0x40 MLOAD SWAP1 DUP2 ADD PUSH1 0x40 MSTORE DUP1 SWAP3 SWAP2 SWAP1 DUP2 DUP2 MSTORE PUSH1 0x20 ADD DUP3 DUP1 SLOAD PUSH2 0x3C6 SWAP1 PUSH2 0x138A JUMP JUMPDEST DUP1 ISZERO PUSH2 0x413 JUMPI DUP1 PUSH1 0x1F LT PUSH2 0x3E8 JUMPI PUSH2 0x100 DUP1 DUP4 SLOAD DIV MUL DUP4 MSTORE SWAP2 PUSH1 0x20 ADD SWAP2 PUSH2 0x413 JUMP JUMPDEST DUP3 ADD SWAP2 SWAP1 PUSH1 0x0 MSTORE PUSH1 0x20 PUSH1 0x0 KECCAK256 SWAP1 JUMPDEST DUP2 SLOAD DUP2 MSTORE SWAP1 PUSH1 0x1 ADD SWAP1 PUSH1 0x20 ADD DUP1 DUP4 GT PUSH2 0x3F6 JUMPI DUP3 SWAP1 SUB PUSH1 0x1F AND DUP3 ADD SWAP2 JUMPDEST POP POP POP POP POP DUP2 JUMP JUMPDEST PUSH1 0x0 PUSH1 0x3 SLOAD TIMESTAMP LT ISZERO PUSH2 0x430 JUMPI PUSH1 0x1 SWAP1 POP PUSH2 0x448 JUMP JUMPDEST PUSH1 0x4 SLOAD TIMESTAMP LT ISZERO PUSH2 0x443 JUMPI PUSH1 0x0 SWAP1 POP PUSH2 0x448 JUMP JUMPDEST PUSH1 0x2 SWAP1 POP JUMPDEST SWAP1 JUMP JUMPDEST PUSH1 0x1 PUSH1 0x2 DUP2 GT ISZERO PUSH2 0x45F JUMPI PUSH2 0x45E PUSH2 0xF72 JUMP JUMPDEST JUMPDEST PUSH2 0x467 PUSH2 0x41B JUMP JUMPDEST PUSH1 0x2 DUP2 GT ISZERO PUSH2 0x479 JUMPI PUSH2 0x478 PUSH2 0xF72 JUMP JUMPDEST JUMPDEST EQ PUSH2 0x4B9 JUMPI PUSH1 0x40 MLOAD PUSH32 0x8C379A000000000000000000000000000000000000000000000000000000000 DUP2 MSTORE PUSH1 0x4 ADD PUSH2 0x4B0 SWAP1 PUSH2 0x142E JUMP JUMPDEST PUSH1 0x40 MLOAD DUP1 SWAP2 SUB SWAP1 REVERT JUMPDEST PUSH1 0x6 DUP2 SWAP1 DUP1 PUSH1 0x1 DUP2 SLOAD ADD DUP1 DUP3 SSTORE DUP1 SWAP2 POP POP PUSH1 0x1 SWAP1 SUB SWAP1 PUSH1 0x0 MSTORE PUSH1 0x20 PUSH1 0x0 KECCAK256 ADD PUSH1 0x0 SWAP1 SWAP2 SWAP1 SWAP2 SWAP1 SWAP2 POP SWAP1 DUP1 MLOAD SWAP1 PUSH1 0x20 ADD SWAP1 PUSH2 0x4F4 SWAP3 SWAP2 SWAP1 PUSH2 0xB64 JUMP JUMPDEST POP POP JUMP JUMPDEST PUSH1 0x5 PUSH1 0x0 SWAP1 SLOAD SWAP1 PUSH2 0x100 EXP SWAP1 DIV PUSH20 0xFFFFFFFFFFFFFFFFFFFFFFFFFFFFFFFFFFFFFFFF AND DUP2 JUMP JUMPDEST PUSH1 0x60 PUSH1 0x6 DUP1 SLOAD DUP1 PUSH1 0x20 MUL PUSH1 0x20 ADD PUSH1 0x40 MLOAD SWAP1 DUP2 ADD PUSH1 0x40 MSTORE DUP1 SWAP3 SWAP2 SWAP1 DUP2 DUP2 MSTORE PUSH1 0x20 ADD PUSH1 0x0 SWAP1 JUMPDEST DUP3 DUP3 LT ISZERO PUSH2 0x5EE JUMPI DUP4 DUP3 SWAP1 PUSH1 0x0 MSTORE PUSH1 0x20 PUSH1 0x0 KECCAK256 ADD DUP1 SLOAD PUSH2 0x561 SWAP1 PUSH2 0x138A JUMP JUMPDEST DUP1 PUSH1 0x1F ADD PUSH1 0x20 DUP1 SWAP2 DIV MUL PUSH1 0x20 ADD PUSH1 0x40 MLOAD SWAP1 DUP2 ADD PUSH1 0x40 MSTORE DUP1 SWAP3 SWAP2 SWAP1 DUP2 DUP2 MSTORE PUSH1 0x20 ADD DUP3 DUP1 SLOAD PUSH2 0x58D SWAP1 PUSH2 0x138A JUMP JUMPDEST DUP1 ISZERO PUSH2 0x5DA JUMPI DUP1 PUSH1 0x1F LT PUSH2 0x5AF JUMPI PUSH2 0x100 DUP1 DUP4 SLOAD DIV MUL DUP4 MSTORE SWAP2 PUSH1 0x20 ADD SWAP2 PUSH2 0x5DA JUMP JUMPDEST DUP3 ADD SWAP2 SWAP1 PUSH1 0x0 MSTORE PUSH1 0x20 PUSH1 0x0 KECCAK256 SWAP1 JUMPDEST DUP2 SLOAD DUP2 MSTORE SWAP1 PUSH1 0x1 ADD SWAP1 PUSH1 0x20 ADD DUP1 DUP4 GT PUSH2 0x5BD JUMPI DUP3 SWAP1 SUB PUSH1 0x1F AND DUP3 ADD SWAP2 JUMPDEST POP POP POP POP POP DUP2 MSTORE PUSH1 0x20 ADD SWAP1 PUSH1 0x1 ADD SWAP1 PUSH2 0x542 JUMP JUMPDEST POP POP POP POP SWAP1 POP SWAP1 JUMP JUMPDEST PUSH1 0x2 DUP1 SLOAD PUSH2 0x604 SWAP1 PUSH2 0x138A JUMP JUMPDEST DUP1 PUSH1 0x1F ADD PUSH1 0x20 DUP1 SWAP2 DIV MUL PUSH1 0x20 ADD PUSH1 0x40 MLOAD SWAP1 DUP2 ADD PUSH1 0x40 MSTORE DUP1 SWAP3 SWAP2 SWAP1 DUP2 DUP2 MSTORE PUSH1 0x20 ADD DUP3 DUP1 SLOAD PUSH2 0x630 SWAP1 PUSH2 0x138A JUMP JUMPDEST DUP1 ISZERO PUSH2 0x67D JUMPI DUP1 PUSH1 0x1F LT PUSH2 0x652 JUMPI PUSH2 0x100 DUP1 DUP4 SLOAD DIV MUL DUP4 MSTORE SWAP2 PUSH1 0x20 ADD SWAP2 PUSH2 0x67D JUMP JUMPDEST DUP3 ADD SWAP2 SWAP1 PUSH1 0x0 MSTORE PUSH1 0x20 PUSH1 0x0 KECCAK256 SWAP1 JUMPDEST DUP2 SLOAD DUP2 MSTORE SWAP1 PUSH1 0x1 ADD SWAP1 PUSH1 0x20 ADD DUP1 DUP4 GT PUSH2 0x660 JUMPI DUP3 SWAP1 SUB PUSH1 0x1F AND DUP3 ADD SWAP2 JUMPDEST POP POP POP POP POP DUP2 JUMP JUMPDEST PUSH1 0x0 PUSH1 0x3 SLOAD SWAP1 POP SWAP1 JUMP JUMPDEST PUSH2 0x697 PUSH2 0xBEA JUMP JUMPDEST PUSH1 0x2 DUP1 DUP2 GT ISZERO PUSH2 0x6AA JUMPI PUSH2 0x6A9 PUSH2 0xF72 JUMP JUMPDEST JUMPDEST PUSH2 0x6B2 PUSH2 0x41B JUMP JUMPDEST PUSH1 0x2 DUP2 GT ISZERO PUSH2 0x6C4 JUMPI PUSH2 0x6C3 PUSH2 0xF72 JUMP JUMPDEST JUMPDEST EQ PUSH2 0x704 JUMPI PUSH1 0x40 MLOAD PUSH32 0x8C379A000000000000000000000000000000000000000000000000000000000 DUP2 MSTORE PUSH1 0x4 ADD PUSH2 0x6FB SWAP1 PUSH2 0x14C0 JUMP JUMPDEST PUSH1 0x40 MLOAD DUP1 SWAP2 SUB SWAP1 REVERT JUMPDEST PUSH1 0x0 PUSH2 0x70E PUSH2 0xBEA JUMP JUMPDEST PUSH1 0x0 DUP2 PUSH1 0x20 ADD DUP2 DUP2 MSTORE POP POP JUMPDEST PUSH1 0x6 DUP1 SLOAD SWAP1 POP DUP3 LT ISZERO PUSH2 0x876 JUMPI DUP1 PUSH1 0x20 ADD MLOAD PUSH1 0x7 PUSH1 0x6 DUP5 DUP2 SLOAD DUP2 LT PUSH2 0x742 JUMPI PUSH2 0x741 PUSH2 0x14E0 JUMP JUMPDEST JUMPDEST SWAP1 PUSH1 0x0 MSTORE PUSH1 0x20 PUSH1 0x0 KECCAK256 ADD PUSH1 0x40 MLOAD PUSH2 0x759 SWAP2 SWAP1 PUSH2 0x15AE JUMP JUMPDEST SWAP1 DUP2 MSTORE PUSH1 0x20 ADD PUSH1 0x40 MLOAD DUP1 SWAP2 SUB SWAP1 KECCAK256 SLOAD GT ISZERO PUSH2 0x863 JUMPI PUSH1 0x6 DUP3 DUP2 SLOAD DUP2 LT PUSH2 0x782 JUMPI PUSH2 0x781 PUSH2 0x14E0 JUMP JUMPDEST JUMPDEST SWAP1 PUSH1 0x0 MSTORE PUSH1 0x20 PUSH1 0x0 KECCAK256 ADD DUP1 SLOAD PUSH2 0x797 SWAP1 PUSH2 0x138A JUMP JUMPDEST DUP1 PUSH1 0x1F ADD PUSH1 0x20 DUP1 SWAP2 DIV MUL PUSH1 0x20 ADD PUSH1 0x40 MLOAD SWAP1 DUP2 ADD PUSH1 0x40 MSTORE DUP1 SWAP3 SWAP2 SWAP1 DUP2 DUP2 MSTORE PUSH1 0x20 ADD DUP3 DUP1 SLOAD PUSH2 0x7C3 SWAP1 PUSH2 0x138A JUMP JUMPDEST DUP1 ISZERO PUSH2 0x810 JUMPI DUP1 PUSH1 0x1F LT PUSH2 0x7E5 JUMPI PUSH2 0x100 DUP1 DUP4 SLOAD DIV MUL DUP4 MSTORE SWAP2 PUSH1 0x20 ADD SWAP2 PUSH2 0x810 JUMP JUMPDEST DUP3 ADD SWAP2 SWAP1 PUSH1 0x0 MSTORE PUSH1 0x20 PUSH1 0x0 KECCAK256 SWAP1 JUMPDEST DUP2 SLOAD DUP2 MSTORE SWAP1 PUSH1 0x1 ADD SWAP1 PUSH1 0x20 ADD DUP1 DUP4 GT PUSH2 0x7F3 JUMPI DUP3 SWAP1 SUB PUSH1 0x1F AND DUP3 ADD SWAP2 JUMPDEST POP POP POP POP POP DUP2 PUSH1 0x0 ADD DUP2 SWAP1 MSTORE POP PUSH1 0x7 PUSH1 0x6 DUP4 DUP2 SLOAD DUP2 LT PUSH2 0x833 JUMPI PUSH2 0x832 PUSH2 0x14E0 JUMP JUMPDEST JUMPDEST SWAP1 PUSH1 0x0 MSTORE PUSH1 0x20 PUSH1 0x0 KECCAK256 ADD PUSH1 0x40 MLOAD PUSH2 0x84A SWAP2 SWAP1 PUSH2 0x15AE JUMP JUMPDEST SWAP1 DUP2 MSTORE PUSH1 0x20 ADD PUSH1 0x40 MLOAD DUP1 SWAP2 SUB SWAP1 KECCAK256 SLOAD DUP2 PUSH1 0x20 ADD DUP2 DUP2 MSTORE POP POP JUMPDEST DUP2 DUP1 PUSH2 0x86E SWAP1 PUSH2 0x15F4 JUMP JUMPDEST SWAP3 POP POP PUSH2 0x71A JUMP JUMPDEST DUP1 SWAP3 POP POP POP SWAP1 JUMP JUMPDEST PUSH1 0x0 SLOAD DUP2 JUMP JUMPDEST PUSH1 0x0 PUSH1 0x4 SLOAD SWAP1 POP SWAP1 JUMP JUMPDEST PUSH1 0x60 PUSH1 0x0 DUP1 PUSH1 0x6 DUP1 SLOAD SWAP1 POP PUSH8 0xFFFFFFFFFFFFFFFF DUP2 GT ISZERO PUSH2 0x8B2 JUMPI PUSH2 0x8B1 PUSH2 0xD5D JUMP JUMPDEST JUMPDEST PUSH1 0x40 MLOAD SWAP1 DUP1 DUP3 MSTORE DUP1 PUSH1 0x20 MUL PUSH1 0x20 ADD DUP3 ADD PUSH1 0x40 MSTORE DUP1 ISZERO PUSH2 0x8EB JUMPI DUP2 PUSH1 0x20 ADD JUMPDEST PUSH2 0x8D8 PUSH2 0xBEA JUMP JUMPDEST DUP2 MSTORE PUSH1 0x20 ADD SWAP1 PUSH1 0x1 SWAP1 SUB SWAP1 DUP2 PUSH2 0x8D0 JUMPI SWAP1 POP JUMPDEST POP SWAP1 POP JUMPDEST PUSH1 0x6 DUP1 SLOAD SWAP1 POP DUP3 LT ISZERO PUSH2 0xA23 JUMPI PUSH1 0x40 MLOAD DUP1 PUSH1 0x40 ADD PUSH1 0x40 MSTORE DUP1 PUSH1 0x6 DUP5 DUP2 SLOAD DUP2 LT PUSH2 0x91B JUMPI PUSH2 0x91A PUSH2 0x14E0 JUMP JUMPDEST JUMPDEST SWAP1 PUSH1 0x0 MSTORE PUSH1 0x20 PUSH1 0x0 KECCAK256 ADD DUP1 SLOAD PUSH2 0x930 SWAP1 PUSH2 0x138A JUMP JUMPDEST DUP1 PUSH1 0x1F ADD PUSH1 0x20 DUP1 SWAP2 DIV MUL PUSH1 0x20 ADD PUSH1 0x40 MLOAD SWAP1 DUP2 ADD PUSH1 0x40 MSTORE DUP1 SWAP3 SWAP2 SWAP1 DUP2 DUP2 MSTORE PUSH1 0x20 ADD DUP3 DUP1 SLOAD PUSH2 0x95C SWAP1 PUSH2 0x138A JUMP JUMPDEST DUP1 ISZERO PUSH2 0x9A9 JUMPI DUP1 PUSH1 0x1F LT PUSH2 0x97E JUMPI PUSH2 0x100 DUP1 DUP4 SLOAD DIV MUL DUP4 MSTORE SWAP2 PUSH1 0x20 ADD SWAP2 PUSH2 0x9A9 JUMP JUMPDEST DUP3 ADD SWAP2 SWAP1 PUSH1 0x0 MSTORE PUSH1 0x20 PUSH1 0x0 KECCAK256 SWAP1 JUMPDEST DUP2 SLOAD DUP2 MSTORE SWAP1 PUSH1 0x1 ADD SWAP1 PUSH1 0x20 ADD DUP1 DUP4 GT PUSH2 0x98C JUMPI DUP3 SWAP1 SUB PUSH1 0x1F AND DUP3 ADD SWAP2 JUMPDEST POP POP POP POP POP DUP2 MSTORE PUSH1 0x20 ADD PUSH1 0x7 PUSH1 0x6 DUP6 DUP2 SLOAD DUP2 LT PUSH2 0x9C9 JUMPI PUSH2 0x9C8 PUSH2 0x14E0 JUMP JUMPDEST JUMPDEST SWAP1 PUSH1 0x0 MSTORE PUSH1 0x20 PUSH1 0x0 KECCAK256 ADD PUSH1 0x40 MLOAD PUSH2 0x9E0 SWAP2 SWAP1 PUSH2 0x15AE JUMP JUMPDEST SWAP1 DUP2 MSTORE PUSH1 0x20 ADD PUSH1 0x40 MLOAD DUP1 SWAP2 SUB SWAP1 KECCAK256 SLOAD DUP2 MSTORE POP DUP2 DUP4 DUP2 MLOAD DUP2 LT PUSH2 0xA05 JUMPI PUSH2 0xA04 PUSH2 0x14E0 JUMP JUMPDEST JUMPDEST PUSH1 0x20 MUL PUSH1 0x20 ADD ADD DUP2 SWAP1 MSTORE POP DUP2 DUP1 PUSH2 0xA1B SWAP1 PUSH2 0x15F4 JUMP JUMPDEST SWAP3 POP POP PUSH2 0x8EF JUMP JUMPDEST DUP1 SWAP3 POP POP POP SWAP1 JUMP JUMPDEST PUSH1 0x0 PUSH1 0x2 DUP2 GT ISZERO PUSH2 0xA3F JUMPI PUSH2 0xA3E PUSH2 0xF72 JUMP JUMPDEST JUMPDEST PUSH2 0xA47 PUSH2 0x41B JUMP JUMPDEST PUSH1 0x2 DUP2 GT ISZERO PUSH2 0xA59 JUMPI PUSH2 0xA58 PUSH2 0xF72 JUMP JUMPDEST JUMPDEST EQ PUSH2 0xA99 JUMPI PUSH1 0x40 MLOAD PUSH32 0x8C379A000000000000000000000000000000000000000000000000000000000 DUP2 MSTORE PUSH1 0x4 ADD PUSH2 0xA90 SWAP1 PUSH2 0x16AF JUMP JUMPDEST PUSH1 0x40 MLOAD DUP1 SWAP2 SUB SWAP1 REVERT JUMPDEST PUSH1 0x1 PUSH1 0x7 DUP3 PUSH1 0x40 MLOAD PUSH2 0xAAB SWAP2 SWAP1 PUSH2 0x1700 JUMP JUMPDEST SWAP1 DUP2 MSTORE PUSH1 0x20 ADD PUSH1 0x40 MLOAD DUP1 SWAP2 SUB SWAP1 KECCAK256 PUSH1 0x0 DUP3 DUP3 SLOAD PUSH2 0xAC8 SWAP2 SWAP1 PUSH2 0x1717 JUMP JUMPDEST SWAP3 POP POP DUP2 SWAP1 SSTORE POP PUSH1 0x5 PUSH1 0x0 SWAP1 SLOAD SWAP1 PUSH2 0x100 EXP SWAP1 DIV PUSH20 0xFFFFFFFFFFFFFFFFFFFFFFFFFFFFFFFFFFFFFFFF AND PUSH20 0xFFFFFFFFFFFFFFFFFFFFFFFFFFFFFFFFFFFFFFFF AND PUSH4 0x8A7D3D6C CALLER PUSH1 0x6 TIMESTAMP PUSH1 0x40 MLOAD DUP5 PUSH4 0xFFFFFFFF AND PUSH1 0xE0 SHL DUP2 MSTORE PUSH1 0x4 ADD PUSH2 0xB2F SWAP4 SWAP3 SWAP2 SWAP1 PUSH2 0x18C3 JUMP JUMPDEST PUSH1 0x0 PUSH1 0x40 MLOAD DUP1 DUP4 SUB DUP2 PUSH1 0x0 DUP8 DUP1 EXTCODESIZE ISZERO DUP1 ISZERO PUSH2 0xB49 JUMPI PUSH1 0x0 DUP1 REVERT JUMPDEST POP GAS CALL ISZERO DUP1 ISZERO PUSH2 0xB5D JUMPI RETURNDATASIZE PUSH1 0x0 DUP1 RETURNDATACOPY RETURNDATASIZE PUSH1 0x0 REVERT JUMPDEST POP POP POP POP POP JUMP JUMPDEST DUP3 DUP1 SLOAD PUSH2 0xB70 SWAP1 PUSH2 0x138A JUMP JUMPDEST SWAP1 PUSH1 0x0 MSTORE PUSH1 0x20 PUSH1 0x0 KECCAK256 SWAP1 PUSH1 0x1F ADD PUSH1 0x20 SWAP1 DIV DUP2 ADD SWAP3 DUP3 PUSH2 0xB92 JUMPI PUSH1 0x0 DUP6 SSTORE PUSH2 0xBD9 JUMP JUMPDEST DUP3 PUSH1 0x1F LT PUSH2 0xBAB JUMPI DUP1 MLOAD PUSH1 0xFF NOT AND DUP4 DUP1 ADD OR DUP6 SSTORE PUSH2 0xBD9 JUMP JUMPDEST DUP3 DUP1 ADD PUSH1 0x1 ADD DUP6 SSTORE DUP3 ISZERO PUSH2 0xBD9 JUMPI SWAP2 DUP3 ADD JUMPDEST DUP3 DUP2 GT ISZERO PUSH2 0xBD8 JUMPI DUP3 MLOAD DUP3 SSTORE SWAP2 PUSH1 0x20 ADD SWAP2 SWAP1 PUSH1 0x1 ADD SWAP1 PUSH2 0xBBD JUMP JUMPDEST JUMPDEST POP SWAP1 POP PUSH2 0xBE6 SWAP2 SWAP1 PUSH2 0xC04 JUMP JUMPDEST POP SWAP1 JUMP JUMPDEST PUSH1 0x40 MLOAD DUP1 PUSH1 0x40 ADD PUSH1 0x40 MSTORE DUP1 PUSH1 0x60 DUP2 MSTORE PUSH1 0x20 ADD PUSH1 0x0 DUP2 MSTORE POP SWAP1 JUMP JUMPDEST JUMPDEST DUP1 DUP3 GT ISZERO PUSH2 0xC1D JUMPI PUSH1 0x0 DUP2 PUSH1 0x0 SWAP1 SSTORE POP PUSH1 0x1 ADD PUSH2 0xC05 JUMP JUMPDEST POP SWAP1 JUMP JUMPDEST PUSH1 0x0 PUSH1 0x40 MLOAD SWAP1 POP SWAP1 JUMP JUMPDEST PUSH1 0x0 DUP1 REVERT JUMPDEST PUSH1 0x0 DUP1 REVERT JUMPDEST PUSH1 0x0 DUP2 SWAP1 POP SWAP2 SWAP1 POP JUMP JUMPDEST PUSH2 0xC48 DUP2 PUSH2 0xC35 JUMP JUMPDEST DUP2 EQ PUSH2 0xC53 JUMPI PUSH1 0x0 DUP1 REVERT JUMPDEST POP JUMP JUMPDEST PUSH1 0x0 DUP2 CALLDATALOAD SWAP1 POP PUSH2 0xC65 DUP2 PUSH2 0xC3F JUMP JUMPDEST SWAP3 SWAP2 POP POP JUMP JUMPDEST PUSH1 0x0 PUSH1 0x20 DUP3 DUP5 SUB SLT ISZERO PUSH2 0xC81 JUMPI PUSH2 0xC80 PUSH2 0xC2B JUMP JUMPDEST JUMPDEST PUSH1 0x0 PUSH2 0xC8F DUP5 DUP3 DUP6 ADD PUSH2 0xC56 JUMP JUMPDEST SWAP2 POP POP SWAP3 SWAP2 POP POP JUMP JUMPDEST PUSH1 0x0 DUP2 MLOAD SWAP1 POP SWAP2 SWAP1 POP JUMP JUMPDEST PUSH1 0x0 DUP3 DUP3 MSTORE PUSH1 0x20 DUP3 ADD SWAP1 POP SWAP3 SWAP2 POP POP JUMP JUMPDEST PUSH1 0x0 JUMPDEST DUP4 DUP2 LT ISZERO PUSH2 0xCD2 JUMPI DUP1 DUP3 ADD MLOAD DUP2 DUP5 ADD MSTORE PUSH1 0x20 DUP2 ADD SWAP1 POP PUSH2 0xCB7 JUMP JUMPDEST DUP4 DUP2 GT ISZERO PUSH2 0xCE1 JUMPI PUSH1 0x0 DUP5 DUP5 ADD MSTORE JUMPDEST POP POP POP POP JUMP JUMPDEST PUSH1 0x0 PUSH1 0x1F NOT PUSH1 0x1F DUP4 ADD AND SWAP1 POP SWAP2 SWAP1 POP JUMP JUMPDEST PUSH1 0x0 PUSH2 0xD03 DUP3 PUSH2 0xC98 JUMP JUMPDEST PUSH2 0xD0D DUP2 DUP6 PUSH2 0xCA3 JUMP JUMPDEST SWAP4 POP PUSH2 0xD1D DUP2 DUP6 PUSH1 0x20 DUP7 ADD PUSH2 0xCB4 JUMP JUMPDEST PUSH2 0xD26 DUP2 PUSH2 0xCE7 JUMP JUMPDEST DUP5 ADD SWAP2 POP POP SWAP3 SWAP2 POP POP JUMP JUMPDEST PUSH1 0x0 PUSH1 0x20 DUP3 ADD SWAP1 POP DUP2 DUP2 SUB PUSH1 0x0 DUP4 ADD MSTORE PUSH2 0xD4B DUP2 DUP5 PUSH2 0xCF8 JUMP JUMPDEST SWAP1 POP SWAP3 SWAP2 POP POP JUMP JUMPDEST PUSH1 0x0 DUP1 REVERT JUMPDEST PUSH1 0x0 DUP1 REVERT JUMPDEST PUSH32 0x4E487B7100000000000000000000000000000000000000000000000000000000 PUSH1 0x0 MSTORE PUSH1 0x41 PUSH1 0x4 MSTORE PUSH1 0x24 PUSH1 0x0 REVERT JUMPDEST PUSH2 0xD95 DUP3 PUSH2 0xCE7 JUMP JUMPDEST DUP2 ADD DUP2 DUP2 LT PUSH8 0xFFFFFFFFFFFFFFFF DUP3 GT OR ISZERO PUSH2 0xDB4 JUMPI PUSH2 0xDB3 PUSH2 0xD5D JUMP JUMPDEST JUMPDEST DUP1 PUSH1 0x40 MSTORE POP POP POP JUMP JUMPDEST PUSH1 0x0 PUSH2 0xDC7 PUSH2 0xC21 JUMP JUMPDEST SWAP1 POP PUSH2 0xDD3 DUP3 DUP3 PUSH2 0xD8C JUMP JUMPDEST SWAP2 SWAP1 POP JUMP JUMPDEST PUSH1 0x0 PUSH8 0xFFFFFFFFFFFFFFFF DUP3 GT ISZERO PUSH2 0xDF3 JUMPI PUSH2 0xDF2 PUSH2 0xD5D JUMP JUMPDEST JUMPDEST PUSH2 0xDFC DUP3 PUSH2 0xCE7 JUMP JUMPDEST SWAP1 POP PUSH1 0x20 DUP2 ADD SWAP1 POP SWAP2 SWAP1 POP JUMP JUMPDEST DUP3 DUP2 DUP4 CALLDATACOPY PUSH1 0x0 DUP4 DUP4 ADD MSTORE POP POP POP JUMP JUMPDEST PUSH1 0x0 PUSH2 0xE2B PUSH2 0xE26 DUP5 PUSH2 0xDD8 JUMP JUMPDEST PUSH2 0xDBD JUMP JUMPDEST SWAP1 POP DUP3 DUP2 MSTORE PUSH1 0x20 DUP2 ADD DUP5 DUP5 DUP5 ADD GT ISZERO PUSH2 0xE47 JUMPI PUSH2 0xE46 PUSH2 0xD58 JUMP JUMPDEST JUMPDEST PUSH2 0xE52 DUP5 DUP3 DUP6 PUSH2 0xE09 JUMP JUMPDEST POP SWAP4 SWAP3 POP POP POP JUMP JUMPDEST PUSH1 0x0 DUP3 PUSH1 0x1F DUP4 ADD SLT PUSH2 0xE6F JUMPI PUSH2 0xE6E PUSH2 0xD53 JUMP JUMPDEST JUMPDEST DUP2 CALLDATALOAD PUSH2 0xE7F DUP5 DUP3 PUSH1 0x20 DUP7 ADD PUSH2 0xE18 JUMP JUMPDEST SWAP2 POP POP SWAP3 SWAP2 POP POP JUMP JUMPDEST PUSH1 0x0 PUSH1 0x20 DUP3 DUP5 SUB SLT ISZERO PUSH2 0xE9E JUMPI PUSH2 0xE9D PUSH2 0xC2B JUMP JUMPDEST JUMPDEST PUSH1 0x0 DUP3 ADD CALLDATALOAD PUSH8 0xFFFFFFFFFFFFFFFF DUP2 GT ISZERO PUSH2 0xEBC JUMPI PUSH2 0xEBB PUSH2 0xC30 JUMP JUMPDEST JUMPDEST PUSH2 0xEC8 DUP5 DUP3 DUP6 ADD PUSH2 0xE5A JUMP JUMPDEST SWAP2 POP POP SWAP3 SWAP2 POP POP JUMP JUMPDEST PUSH2 0xEDA DUP2 PUSH2 0xC35 JUMP JUMPDEST DUP3 MSTORE POP POP JUMP JUMPDEST PUSH1 0x0 PUSH1 0x20 DUP3 ADD SWAP1 POP PUSH2 0xEF5 PUSH1 0x0 DUP4 ADD DUP5 PUSH2 0xED1 JUMP JUMPDEST SWAP3 SWAP2 POP POP JUMP JUMPDEST PUSH1 0x0 DUP2 MLOAD SWAP1 POP SWAP2 SWAP1 POP JUMP JUMPDEST PUSH1 0x0 DUP3 DUP3 MSTORE PUSH1 0x20 DUP3 ADD SWAP1 POP SWAP3 SWAP2 POP POP JUMP JUMPDEST PUSH1 0x0 PUSH2 0xF22 DUP3 PUSH2 0xEFB JUMP JUMPDEST PUSH2 0xF2C DUP2 DUP6 PUSH2 0xF06 JUMP JUMPDEST SWAP4 POP PUSH2 0xF3C DUP2 DUP6 PUSH1 0x20 DUP7 ADD PUSH2 0xCB4 JUMP JUMPDEST PUSH2 0xF45 DUP2 PUSH2 0xCE7 JUMP JUMPDEST DUP5 ADD SWAP2 POP POP SWAP3 SWAP2 POP POP JUMP JUMPDEST PUSH1 0x0 PUSH1 0x20 DUP3 ADD SWAP1 POP DUP2 DUP2 SUB PUSH1 0x0 DUP4 ADD MSTORE PUSH2 0xF6A DUP2 DUP5 PUSH2 0xF17 JUMP JUMPDEST SWAP1 POP SWAP3 SWAP2 POP POP JUMP JUMPDEST PUSH32 0x4E487B7100000000000000000000000000000000000000000000000000000000 PUSH1 0x0 MSTORE PUSH1 0x21 PUSH1 0x4 MSTORE PUSH1 0x24 PUSH1 0x0 REVERT JUMPDEST PUSH1 0x3 DUP2 LT PUSH2 0xFB2 JUMPI PUSH2 0xFB1 PUSH2 0xF72 JUMP JUMPDEST JUMPDEST POP JUMP JUMPDEST PUSH1 0x0 DUP2 SWAP1 POP PUSH2 0xFC3 DUP3 PUSH2 0xFA1 JUMP JUMPDEST SWAP2 SWAP1 POP JUMP JUMPDEST PUSH1 0x0 PUSH2 0xFD3 DUP3 PUSH2 0xFB5 JUMP JUMPDEST SWAP1 POP SWAP2 SWAP1 POP JUMP JUMPDEST PUSH2 0xFE3 DUP2 PUSH2 0xFC8 JUMP JUMPDEST DUP3 MSTORE POP POP JUMP JUMPDEST PUSH1 0x0 PUSH1 0x20 DUP3 ADD SWAP1 POP PUSH2 0xFFE PUSH1 0x0 DUP4 ADD DUP5 PUSH2 0xFDA JUMP JUMPDEST SWAP3 SWAP2 POP POP JUMP JUMPDEST PUSH1 0x0 PUSH20 0xFFFFFFFFFFFFFFFFFFFFFFFFFFFFFFFFFFFFFFFF DUP3 AND SWAP1 POP SWAP2 SWAP1 POP JUMP JUMPDEST PUSH1 0x0 DUP2 SWAP1 POP SWAP2 SWAP1 POP JUMP JUMPDEST PUSH1 0x0 PUSH2 0x1049 PUSH2 0x1044 PUSH2 0x103F DUP5 PUSH2 0x1004 JUMP JUMPDEST PUSH2 0x1024 JUMP JUMPDEST PUSH2 0x1004 JUMP JUMPDEST SWAP1 POP SWAP2 SWAP1 POP JUMP JUMPDEST PUSH1 0x0 PUSH2 0x105B DUP3 PUSH2 0x102E JUMP JUMPDEST SWAP1 POP SWAP2 SWAP1 POP JUMP JUMPDEST PUSH1 0x0 PUSH2 0x106D DUP3 PUSH2 0x1050 JUMP JUMPDEST SWAP1 POP SWAP2 SWAP1 POP JUMP JUMPDEST PUSH2 0x107D DUP2 PUSH2 0x1062 JUMP JUMPDEST DUP3 MSTORE POP POP JUMP JUMPDEST PUSH1 0x0 PUSH1 0x20 DUP3 ADD SWAP1 POP PUSH2 0x1098 PUSH1 0x0 DUP4 ADD DUP5 PUSH2 0x1074 JUMP JUMPDEST SWAP3 SWAP2 POP POP JUMP JUMPDEST PUSH1 0x0 DUP2 MLOAD SWAP1 POP SWAP2 SWAP1 POP JUMP JUMPDEST PUSH1 0x0 DUP3 DUP3 MSTORE PUSH1 0x20 DUP3 ADD SWAP1 POP SWAP3 SWAP2 POP POP JUMP JUMPDEST PUSH1 0x0 DUP2 SWAP1 POP PUSH1 0x20 DUP3 ADD SWAP1 POP SWAP2 SWAP1 POP JUMP JUMPDEST PUSH1 0x0 DUP3 DUP3 MSTORE PUSH1 0x20 DUP3 ADD SWAP1 POP SWAP3 SWAP2 POP POP JUMP JUMPDEST PUSH1 0x0 PUSH2 0x10E6 DUP3 PUSH2 0xC98 JUMP JUMPDEST PUSH2 0x10F0 DUP2 DUP6 PUSH2 0x10CA JUMP JUMPDEST SWAP4 POP PUSH2 0x1100 DUP2 DUP6 PUSH1 0x20 DUP7 ADD PUSH2 0xCB4 JUMP JUMPDEST PUSH2 0x1109 DUP2 PUSH2 0xCE7 JUMP JUMPDEST DUP5 ADD SWAP2 POP POP SWAP3 SWAP2 POP POP JUMP JUMPDEST PUSH1 0x0 PUSH2 0x1120 DUP4 DUP4 PUSH2 0x10DB JUMP JUMPDEST SWAP1 POP SWAP3 SWAP2 POP POP JUMP JUMPDEST PUSH1 0x0 PUSH1 0x20 DUP3 ADD SWAP1 POP SWAP2 SWAP1 POP JUMP JUMPDEST PUSH1 0x0 PUSH2 0x1140 DUP3 PUSH2 0x109E JUMP JUMPDEST PUSH2 0x114A DUP2 DUP6 PUSH2 0x10A9 JUMP JUMPDEST SWAP4 POP DUP4 PUSH1 0x20 DUP3 MUL DUP6 ADD PUSH2 0x115C DUP6 PUSH2 0x10BA JUMP JUMPDEST DUP1 PUSH1 0x0 JUMPDEST DUP6 DUP2 LT ISZERO PUSH2 0x1198 JUMPI DUP5 DUP5 SUB DUP10 MSTORE DUP2 MLOAD PUSH2 0x1179 DUP6 DUP3 PUSH2 0x1114 JUMP JUMPDEST SWAP5 POP PUSH2 0x1184 DUP4 PUSH2 0x1128 JUMP JUMPDEST SWAP3 POP PUSH1 0x20 DUP11 ADD SWAP10 POP POP PUSH1 0x1 DUP2 ADD SWAP1 POP PUSH2 0x1160 JUMP JUMPDEST POP DUP3 SWAP8 POP DUP8 SWAP6 POP POP POP POP POP POP SWAP3 SWAP2 POP POP JUMP JUMPDEST PUSH1 0x0 PUSH1 0x20 DUP3 ADD SWAP1 POP DUP2 DUP2 SUB PUSH1 0x0 DUP4 ADD MSTORE PUSH2 0x11C4 DUP2 DUP5 PUSH2 0x1135 JUMP JUMPDEST SWAP1 POP SWAP3 SWAP2 POP POP JUMP JUMPDEST PUSH2 0x11D5 DUP2 PUSH2 0xC35 JUMP JUMPDEST DUP3 MSTORE POP POP JUMP JUMPDEST PUSH1 0x0 PUSH1 0x40 DUP4 ADD PUSH1 0x0 DUP4 ADD MLOAD DUP5 DUP3 SUB PUSH1 0x0 DUP7 ADD MSTORE PUSH2 0x11F8 DUP3 DUP3 PUSH2 0x10DB JUMP JUMPDEST SWAP2 POP POP PUSH1 0x20 DUP4 ADD MLOAD PUSH2 0x120D PUSH1 0x20 DUP7 ADD DUP3 PUSH2 0x11CC JUMP JUMPDEST POP DUP1 SWAP2 POP POP SWAP3 SWAP2 POP POP JUMP JUMPDEST PUSH1 0x0 PUSH1 0x20 DUP3 ADD SWAP1 POP DUP2 DUP2 SUB PUSH1 0x0 DUP4 ADD MSTORE PUSH2 0x1232 DUP2 DUP5 PUSH2 0x11DB JUMP JUMPDEST SWAP1 POP SWAP3 SWAP2 POP POP JUMP JUMPDEST PUSH1 0x0 DUP2 MLOAD SWAP1 POP SWAP2 SWAP1 POP JUMP JUMPDEST PUSH1 0x0 DUP3 DUP3 MSTORE PUSH1 0x20 DUP3 ADD SWAP1 POP SWAP3 SWAP2 POP POP JUMP JUMPDEST PUSH1 0x0 DUP2 SWAP1 POP PUSH1 0x20 DUP3 ADD SWAP1 POP SWAP2 SWAP1 POP JUMP JUMPDEST PUSH1 0x0 PUSH1 0x40 DUP4 ADD PUSH1 0x0 DUP4 ADD MLOAD DUP5 DUP3 SUB PUSH1 0x0 DUP7 ADD MSTORE PUSH2 0x1283 DUP3 DUP3 PUSH2 0x10DB JUMP JUMPDEST SWAP2 POP POP PUSH1 0x20 DUP4 ADD MLOAD PUSH2 0x1298 PUSH1 0x20 DUP7 ADD DUP3 PUSH2 0x11CC JUMP JUMPDEST POP DUP1 SWAP2 POP POP SWAP3 SWAP2 POP POP JUMP JUMPDEST PUSH1 0x0 PUSH2 0x12AF DUP4 DUP4 PUSH2 0x1266 JUMP JUMPDEST SWAP1 POP SWAP3 SWAP2 POP POP JUMP JUMPDEST PUSH1 0x0 PUSH1 0x20 DUP3 ADD SWAP1 POP SWAP2 SWAP1 POP JUMP JUMPDEST PUSH1 0x0 PUSH2 0x12CF DUP3 PUSH2 0x123A JUMP JUMPDEST PUSH2 0x12D9 DUP2 DUP6 PUSH2 0x1245 JUMP JUMPDEST SWAP4 POP DUP4 PUSH1 0x20 DUP3 MUL DUP6 ADD PUSH2 0x12EB DUP6 PUSH2 0x1256 JUMP JUMPDEST DUP1 PUSH1 0x0 JUMPDEST DUP6 DUP2 LT ISZERO PUSH2 0x1327 JUMPI DUP5 DUP5 SUB DUP10 MSTORE DUP2 MLOAD PUSH2 0x1308 DUP6 DUP3 PUSH2 0x12A3 JUMP JUMPDEST SWAP5 POP PUSH2 0x1313 DUP4 PUSH2 0x12B7 JUMP JUMPDEST SWAP3 POP PUSH1 0x20 DUP11 ADD SWAP10 POP POP PUSH1 0x1 DUP2 ADD SWAP1 POP PUSH2 0x12EF JUMP JUMPDEST POP DUP3 SWAP8 POP DUP8 SWAP6 POP POP POP POP POP POP SWAP3 SWAP2 POP POP JUMP JUMPDEST PUSH1 0x0 PUSH1 0x20 DUP3 ADD SWAP1 POP DUP2 DUP2 SUB PUSH1 0x0 DUP4 ADD MSTORE PUSH2 0x1353 DUP2 DUP5 PUSH2 0x12C4 JUMP JUMPDEST SWAP1 POP SWAP3 SWAP2 POP POP JUMP JUMPDEST PUSH32 0x4E487B7100000000000000000000000000000000000000000000000000000000 PUSH1 0x0 MSTORE PUSH1 0x22 PUSH1 0x4 MSTORE PUSH1 0x24 PUSH1 0x0 REVERT JUMPDEST PUSH1 0x0 PUSH1 0x2 DUP3 DIV SWAP1 POP PUSH1 0x1 DUP3 AND DUP1 PUSH2 0x13A2 JUMPI PUSH1 0x7F DUP3 AND SWAP2 POP JUMPDEST PUSH1 0x20 DUP3 LT DUP2 EQ ISZERO PUSH2 0x13B6 JUMPI PUSH2 0x13B5 PUSH2 0x135B JUMP JUMPDEST JUMPDEST POP SWAP2 SWAP1 POP JUMP JUMPDEST PUSH32 0x456C656374696F6E206E6565647320746F2062652070656E64696E6720746F20 PUSH1 0x0 DUP3 ADD MSTORE PUSH32 0x6164642070726F706F73616C7300000000000000000000000000000000000000 PUSH1 0x20 DUP3 ADD MSTORE POP JUMP JUMPDEST PUSH1 0x0 PUSH2 0x1418 PUSH1 0x2D DUP4 PUSH2 0xF06 JUMP JUMPDEST SWAP2 POP PUSH2 0x1423 DUP3 PUSH2 0x13BC JUMP JUMPDEST PUSH1 0x40 DUP3 ADD SWAP1 POP SWAP2 SWAP1 POP JUMP JUMPDEST PUSH1 0x0 PUSH1 0x20 DUP3 ADD SWAP1 POP DUP2 DUP2 SUB PUSH1 0x0 DUP4 ADD MSTORE PUSH2 0x1447 DUP2 PUSH2 0x140B JUMP JUMPDEST SWAP1 POP SWAP2 SWAP1 POP JUMP JUMPDEST PUSH32 0x526573756C747320617265206465636C61726564206F6E6C7920616674657220 PUSH1 0x0 DUP3 ADD MSTORE PUSH32 0x74686520656C656374696F6E20656E6473000000000000000000000000000000 PUSH1 0x20 DUP3 ADD MSTORE POP JUMP JUMPDEST PUSH1 0x0 PUSH2 0x14AA PUSH1 0x31 DUP4 PUSH2 0xF06 JUMP JUMPDEST SWAP2 POP PUSH2 0x14B5 DUP3 PUSH2 0x144E JUMP JUMPDEST PUSH1 0x40 DUP3 ADD SWAP1 POP SWAP2 SWAP1 POP JUMP JUMPDEST PUSH1 0x0 PUSH1 0x20 DUP3 ADD SWAP1 POP DUP2 DUP2 SUB PUSH1 0x0 DUP4 ADD MSTORE PUSH2 0x14D9 DUP2 PUSH2 0x149D JUMP JUMPDEST SWAP1 POP SWAP2 SWAP1 POP JUMP JUMPDEST PUSH32 0x4E487B7100000000000000000000000000000000000000000000000000000000 PUSH1 0x0 MSTORE PUSH1 0x32 PUSH1 0x4 MSTORE PUSH1 0x24 PUSH1 0x0 REVERT JUMPDEST PUSH1 0x0 DUP2 SWAP1 POP SWAP3 SWAP2 POP POP JUMP JUMPDEST PUSH1 0x0 DUP2 SWAP1 POP DUP2 PUSH1 0x0 MSTORE PUSH1 0x20 PUSH1 0x0 KECCAK256 SWAP1 POP SWAP2 SWAP1 POP JUMP JUMPDEST PUSH1 0x0 DUP2 SLOAD PUSH2 0x153C DUP2 PUSH2 0x138A JUMP JUMPDEST PUSH2 0x1546 DUP2 DUP7 PUSH2 0x150F JUMP JUMPDEST SWAP5 POP PUSH1 0x1 DUP3 AND PUSH1 0x0 DUP2 EQ PUSH2 0x1561 JUMPI PUSH1 0x1 DUP2 EQ PUSH2 0x1572 JUMPI PUSH2 0x15A5 JUMP JUMPDEST PUSH1 0xFF NOT DUP4 AND DUP7 MSTORE DUP2 DUP7 ADD SWAP4 POP PUSH2 0x15A5 JUMP JUMPDEST PUSH2 0x157B DUP6 PUSH2 0x151A JUMP JUMPDEST PUSH1 0x0 JUMPDEST DUP4 DUP2 LT ISZERO PUSH2 0x159D JUMPI DUP2 SLOAD DUP2 DUP10 ADD MSTORE PUSH1 0x1 DUP3 ADD SWAP2 POP PUSH1 0x20 DUP2 ADD SWAP1 POP PUSH2 0x157E JUMP JUMPDEST DUP4 DUP9 ADD SWAP6 POP POP POP JUMPDEST POP POP POP SWAP3 SWAP2 POP POP JUMP JUMPDEST PUSH1 0x0 PUSH2 0x15BA DUP3 DUP5 PUSH2 0x152F JUMP JUMPDEST SWAP2 POP DUP2 SWAP1 POP SWAP3 SWAP2 POP POP JUMP JUMPDEST PUSH32 0x4E487B7100000000000000000000000000000000000000000000000000000000 PUSH1 0x0 MSTORE PUSH1 0x11 PUSH1 0x4 MSTORE PUSH1 0x24 PUSH1 0x0 REVERT JUMPDEST PUSH1 0x0 PUSH2 0x15FF DUP3 PUSH2 0xC35 JUMP JUMPDEST SWAP2 POP PUSH32 0xFFFFFFFFFFFFFFFFFFFFFFFFFFFFFFFFFFFFFFFFFFFFFFFFFFFFFFFFFFFFFFFF DUP3 EQ ISZERO PUSH2 0x1632 JUMPI PUSH2 0x1631 PUSH2 0x15C5 JUMP JUMPDEST JUMPDEST PUSH1 0x1 DUP3 ADD SWAP1 POP SWAP2 SWAP1 POP JUMP JUMPDEST PUSH32 0x456C656374696F6E206E6565647320746F2062652061637469766520746F2076 PUSH1 0x0 DUP3 ADD MSTORE PUSH32 0x6F74650000000000000000000000000000000000000000000000000000000000 PUSH1 0x20 DUP3 ADD MSTORE POP JUMP JUMPDEST PUSH1 0x0 PUSH2 0x1699 PUSH1 0x23 DUP4 PUSH2 0xF06 JUMP JUMPDEST SWAP2 POP PUSH2 0x16A4 DUP3 PUSH2 0x163D JUMP JUMPDEST PUSH1 0x40 DUP3 ADD SWAP1 POP SWAP2 SWAP1 POP JUMP JUMPDEST PUSH1 0x0 PUSH1 0x20 DUP3 ADD SWAP1 POP DUP2 DUP2 SUB PUSH1 0x0 DUP4 ADD MSTORE PUSH2 0x16C8 DUP2 PUSH2 0x168C JUMP JUMPDEST SWAP1 POP SWAP2 SWAP1 POP JUMP JUMPDEST PUSH1 0x0 PUSH2 0x16DA DUP3 PUSH2 0xC98 JUMP JUMPDEST PUSH2 0x16E4 DUP2 DUP6 PUSH2 0x150F JUMP JUMPDEST SWAP4 POP PUSH2 0x16F4 DUP2 DUP6 PUSH1 0x20 DUP7 ADD PUSH2 0xCB4 JUMP JUMPDEST DUP1 DUP5 ADD SWAP2 POP POP SWAP3 SWAP2 POP POP JUMP JUMPDEST PUSH1 0x0 PUSH2 0x170C DUP3 DUP5 PUSH2 0x16CF JUMP JUMPDEST SWAP2 POP DUP2 SWAP1 POP SWAP3 SWAP2 POP POP JUMP JUMPDEST PUSH1 0x0 PUSH2 0x1722 DUP3 PUSH2 0xC35 JUMP JUMPDEST SWAP2 POP PUSH2 0x172D DUP4 PUSH2 0xC35 JUMP JUMPDEST SWAP3 POP DUP3 PUSH32 0xFFFFFFFFFFFFFFFFFFFFFFFFFFFFFFFFFFFFFFFFFFFFFFFFFFFFFFFFFFFFFFFF SUB DUP3 GT ISZERO PUSH2 0x1762 JUMPI PUSH2 0x1761 PUSH2 0x15C5 JUMP JUMPDEST JUMPDEST DUP3 DUP3 ADD SWAP1 POP SWAP3 SWAP2 POP POP JUMP JUMPDEST PUSH1 0x0 PUSH2 0x1778 DUP3 PUSH2 0x1004 JUMP JUMPDEST SWAP1 POP SWAP2 SWAP1 POP JUMP JUMPDEST PUSH2 0x1788 DUP2 PUSH2 0x176D JUMP JUMPDEST DUP3 MSTORE POP POP JUMP JUMPDEST PUSH1 0x0 DUP2 SLOAD SWAP1 POP SWAP2 SWAP1 POP JUMP JUMPDEST PUSH1 0x0 DUP2 SWAP1 POP DUP2 PUSH1 0x0 MSTORE PUSH1 0x20 PUSH1 0x0 KECCAK256 SWAP1 POP SWAP2 SWAP1 POP JUMP JUMPDEST PUSH1 0x0 DUP2 SLOAD PUSH2 0x17BB DUP2 PUSH2 0x138A JUMP JUMPDEST PUSH2 0x17C5 DUP2 DUP7 PUSH2 0x10CA JUMP JUMPDEST SWAP5 POP PUSH1 0x1 DUP3 AND PUSH1 0x0 DUP2 EQ PUSH2 0x17E0 JUMPI PUSH1 0x1 DUP2 EQ PUSH2 0x17F2 JUMPI PUSH2 0x1825 JUMP JUMPDEST PUSH1 0xFF NOT DUP4 AND DUP7 MSTORE PUSH1 0x20 DUP7 ADD SWAP4 POP PUSH2 0x1825 JUMP JUMPDEST PUSH2 0x17FB DUP6 PUSH2 0x151A JUMP JUMPDEST PUSH1 0x0 JUMPDEST DUP4 DUP2 LT ISZERO PUSH2 0x181D JUMPI DUP2 SLOAD DUP2 DUP10 ADD MSTORE PUSH1 0x1 DUP3 ADD SWAP2 POP PUSH1 0x20 DUP2 ADD SWAP1 POP PUSH2 0x17FE JUMP JUMPDEST DUP1 DUP9 ADD SWAP6 POP POP POP JUMPDEST POP POP POP SWAP3 SWAP2 POP POP JUMP JUMPDEST PUSH1 0x0 PUSH2 0x183A DUP4 DUP4 PUSH2 0x17AE JUMP JUMPDEST SWAP1 POP SWAP3 SWAP2 POP POP JUMP JUMPDEST PUSH1 0x0 PUSH1 0x1 DUP3 ADD SWAP1 POP SWAP2 SWAP1 POP JUMP JUMPDEST PUSH1 0x0 PUSH2 0x185A DUP3 PUSH2 0x178E JUMP JUMPDEST PUSH2 0x1864 DUP2 DUP6 PUSH2 0x10A9 JUMP JUMPDEST SWAP4 POP DUP4 PUSH1 0x20 DUP3 MUL DUP6 ADD PUSH2 0x1876 DUP6 PUSH2 0x1799 JUMP JUMPDEST DUP1 PUSH1 0x0 JUMPDEST DUP6 DUP2 LT ISZERO PUSH2 0x18B1 JUMPI DUP5 DUP5 SUB DUP10 MSTORE DUP2 PUSH2 0x1892 DUP6 DUP3 PUSH2 0x182E JUMP JUMPDEST SWAP5 POP PUSH2 0x189D DUP4 PUSH2 0x1842 JUMP JUMPDEST SWAP3 POP PUSH1 0x20 DUP11 ADD SWAP10 POP POP PUSH1 0x1 DUP2 ADD SWAP1 POP PUSH2 0x187A JUMP JUMPDEST POP DUP3 SWAP8 POP DUP8 SWAP6 POP POP POP POP POP POP SWAP3 SWAP2 POP POP JUMP JUMPDEST PUSH1 0x0 PUSH1 0x60 DUP3 ADD SWAP1 POP PUSH2 0x18D8 PUSH1 0x0 DUP4 ADD DUP7 PUSH2 0x177F JUMP JUMPDEST DUP2 DUP2 SUB PUSH1 0x20 DUP4 ADD MSTORE PUSH2 0x18EA DUP2 DUP6 PUSH2 0x184F JUMP JUMPDEST SWAP1 POP PUSH2 0x18F9 PUSH1 0x40 DUP4 ADD DUP5 PUSH2 0xED1 JUMP JUMPDEST SWAP5 SWAP4 POP POP POP POP JUMP INVALID LOG2 PUSH5 0x6970667358 0x22 SLT KECCAK256 0xE6 PC 0xB6 0xEC RETURNDATACOPY 0xF8 0x49 0x27 0xF9 0xF8 0xD ISZERO SIGNEXTEND SSTORE ADDRESS 0xEA GASLIMIT 0xC7 PUSH22 0xD46C9BA7117ABF557E8BA9CC1E64736F6C634300080A STOP CALLER "},"methodIdentifiers":{"addProposal(bytes)":"53437653","description()":"7284e416","getEndDate()":"b1356488","getProposals()":"62564c48","getStartDate()":"78f305c6","getStatus()":"4e69d560","getVotesPerProposal()":"bf7f3cfe","getWinningProposal()":"a5134620","id()":"af640d0f","name()":"06fdde03","participationProofs()":"53b41f2c","proposals(uint256)":"013cf08b","vote(bytes)":"e9dc0614","votesPerProposal(bytes)":"02f6df8e"}}}}}