{"@semaphore-protocol/contracts/base/SemaphoreVerifier.sol":{"SemaphoreVerifier":{"abi":[{"inputs":[{"internalType":"uint256","name":"merkleTreeRoot","type":"uint256"},{"internalType":"uint256","name":"nullifierHash","type":"uint256"},{"internalType":"uint256","name":"signal","type":"uint256"},{"internalType":"uint256","name":"externalNullifier","type":"uint256"},{"internalType":"uint256[8]","name":"proof","type":"uint256[8]"},{"internalType":"uint256","name":"merkleTreeDepth","type":"uint256"}],"name":"verifyProof","outputs":[],"stateMutability":"view","type":"function"}],"evm":{"bytecode":{"linkReferences":{"@semaphore-protocol/contracts/base/Pairing.sol":{"Pairing":[{"length":20,"start":12236},{"length":20,"start":12263},{"length":20,"start":12578},{"length":20,"start":12605},{"length":20,"start":12920},{"length":20,"start":12947},{"length":20,"start":13262},{"length":20,"start":13289},{"length":20,"start":13858},{"length":20,"start":14579}]}},"object":"60806040526040518061022001604052806040518060e0016040528060405180604001604052807f1da3fc88726dcb210b80123bb09b40a86a57eb1cec7f3bfc89f91fe20622d85481526020017f23e9c269ed42423dbc44ce369cb78b342abe93731dc033216dadcb06c724aef0815250815260200160405180604001604052807f1a0c25b74f55683ebd0f8be53e188563362403cde2dad828ed917a8497ec367e81526020017f22af2404c15a320d0d67ee7c997eb497cea0208f443a620b9921f4a19402cfbe815250815260200160405180604001604052807f0457d05481ef2e919c3babe640b224438ac736c190b616070505bc66eb0a334881526020017f04b9e760240ab0439ff305c89eede1c06e7e4a3a250d3fce09eaa12e43c2a610815250815260200160405180604001604052807f2b4399f1079da135eff8211a2684b3fc5bbd79204198a7a537ed0c20a58c3e1681526020017f19bbb4d125a0c826783c15728d6cf28f267ffbf330c197d39bd6c664b9ba2836815250815260200160405180604001604052807f0bc177b0557e29966e89a33ca900b78647df9e344b65a6a12055eaef2b67536181526020017f012aefa5250fc5e72896094908c0f111ece72eda1b36ddbc8185fa1c2eaa6310815250815260200160405180604001604052807f20ddcfb90110e0e1ea7af6934ee1c67408af27964f44780c982426a9d988856b81526020017f0711dfbe9c6fab32ebbba6a258c2e97b91becc667aac1a357cb9a275264fe0f8815250815260200160405180604001604052807f0f2c85fbd7696d73949bc294dd362953ff7eccf67a075b84193d082839c3614b81526020017f21384f8b567278eaff9c8240269e5f739e530540be8312ec617183c572ab7e9181525081525081526020016040518060e0016040528060405180604001604052807f228dd06c5de709e7b53f38a850876a16f1b1437acd5f2dfda9ce83fb59189be381526020017f1e0b7dd795bbd17d04ca4b8aadd5a4a86f146e9f16ddff7519a72fea86796558815250815260200160405180604001604052807f1958ea13532b11ab4e211c7aa631c5eb6ed2a34d97fdc39fc39cd73bd35f11a581526020017f23621187ade6b9c56f2962955e72b4843b51481cbdec3cfb5ab4b948c56fd4aa815250815260200160405180604001604052807f2754771b51f24b62a15d2c53a6a1cc408fcc7a623b3e7f9823d52d629f5a765e81526020017f0917ae814c9db420f2ca2c678dcdc58adbd41c938041719c1b50c64ec72c8b10815250815260200160405180604001604052807f0758371f3dff3ee4c7c68d8c36f2e04254b9a4f7446521c75a30bdee9dc6fd7381526020017ed7a7adc8c0c2a3fb09602aa14d3fa1764d15bdb150fd0f03ee69b3b60cb61c815250815260200160405180604001604052807f1367f89c851a9003e69384b623a614d3afa8d2fc51f5cb5abafc67e442baa96081526020017f1a5c8221479bd8a8d50a74dd46d9e6f6cbe2cb6768a2429223f747a2f00685b6815250815260200160405180604001604052807f2240e05d565c404d5abb2f425a8fb849793bf671dae88e4f2567a617119bbe8d81526020017f0df676ebd848824af90c8f9bae101c3e0c687ee8facb7f2279f506a5881d929c815250815260200160405180604001604052807f07b289755dcdc3a38163bce0f2b12f0e3c046735d27a534c9941cf6683e7db1581526020017f2c69a3fee54303f17d8994afdac6e460545928a676307d5124c489b516e518dc81525081525081526020016040518060e0016040528060405180604001604052807f1461627fb9791e5a96fce79d89fca07b82d7556c84a3d4414367740957c7da4481526020017f2b97d05ca1d20d9abdec2e593937665b71c126735a9b7e601940c3f2758bda2b815250815260200160405180604001604052807f24f5d230612998286ea5e1f999d5bc8c4a635ee9864099913b6657633c7c4b4481526020017f28491d3fa0c8200cd31c9e3be4e423939a16a865d455bc00e411cff8787f7539815250815260200160405180604001604052807f0a5f594ba7d550aca92b125cbc6c6b564139e3fd5c5937f3bd5220df88554a0f81526020017f145a4c9d47805092bcebcd7e8c39b0f32b10f534475fd3a448cd6177f56de784815250815260200160405180604001604052807f23b4e079081aa0ab98aaf8a230318cf6e9c97bba977f6b3065a58a82483f663081526020017f2cc2af3f384010f2ac7435166856fb959625d567c92ce9ac20073d063e0e94e3815250815260200160405180604001604052807f0d67d70ad74db3b2eafec2ca2c819816e487d1fa29a15ca213f38a46a77c7d8081526020017f285e1aa325995fa12936d0eea843c4b0dd0ac6db5510826f9b585c1680632563815250815260200160405180604001604052807f165a04ef5bee8a96c8119c31502842aa34d60394793b8f937def7459b04d713581526020017f093ac34388aa5f6d55d8270e5a66328a04990230698de2326ab6e0495464816d815250815260200160405180604001604052807f27e79d515fe3439ddf81a8549902b5e9042e201c6769b8910a18dafed11d574881526020017f014ee84f3f0eeefd5ab1f81da564af7864d6204e9ccbfff66916a85d13e6fa4a81525081525081526020016040518060e0016040528060405180604001604052807f08d529aaca586b844314f80edfb1784260646108b75c158ce3f088c188bc802e81526020017f234536b6213200b2b44aebffcf0b574a2d0f4f2b47ef98db4b4431cfefc3bf22815250815260200160405180604001604052807f2e556c221fa59c978e78e9bba38e8947b59ef785b5e31ec8cf90e613787fb79381526020017f059469a2c10792ee9f1573148667562f175586470cea1dbb54bed106ef361b34815250815260200160405180604001604052807f15d64dac8e74c233b7859722356fc14c262242ae306c20f060880dbd9baa452e81526020017f2c28232f85d16cdd157a841cd7795ae537f6769d6b30fd18e9e03060246cc03c815250815260200160405180604001604052807f0dfb95a3e8c20cf8a70021ad12080f778abc60508bfe088803fdd53c46b4202c81526020017f224c92fd97d25de5d97901b9046ee6a5788dddf425cdba5d6e8ecf6ea83248c8815250815260200160405180604001604052807f1923f2f39f07d16e03562b8f1efed58073a457af74aa02179ced725e015b682c81526020017f19fe61c672e47a96a72333d6a66b7d8447ed8838fda18031d49370f0b7667607815250815260200160405180604001604052807f1d5da06c3e0fcfbe6c9e08f3f0eb1aa56b2927d65f2517bd5adbdab0609bc7d781526020017f03dc485cb2654fa526804696fae41fed451342bbfbcee7cc006f4f2271514d73815250815260200160405180604001604052807f11ac6ab06bbe07af99a7b46a2e5b3b9b80f5a57b64298f686c8660e36ea8bf3681526020017f0b66b9cf601565d1ea0341acb52c80d0114f7cf805b0d2a94848782bcd9c285b81525081525081526020016040518060e0016040528060405180604001604052807f29f41c6e0e30802e2749bfb0729810876f3423e6f24829ad3e30adb1934f1c8a81526020017f030e7a5f70bb5daa6e18d80d6d447e772efb0bb7fb9d0ffcd54fc5a48af1286d815250815260200160405180604001604052807f0ea726b117e48cda8bce2349405f006a84cdd3dcfba12efc990df25970a27b6d81526020017f30364cd4f8a293b1a04f0153548d3e01baad091c69097ca4e9f26be63e4095b5815250815260200160405180604001604052807f2c097b31a897227a6f64c9fc31d9a8fc421b0d8b8207f92532b464e431e61db881526020017f0fcf6d89d77d5123a43dfb23efb9c929c28c148ca82c794057864b8e66903c54815250815260200160405180604001604052807f0186dae5999acfe2cda6fa7a157ae726afda7c6f57b00ea0aa6c2c23bf83838881526020017f2f078608f710c45b60d23716c58e106d8c7a1c6db28119defffc413e074f8716815250815260200160405180604001604052807f2464c1784bda2cbfb51e5ab87cf7eb2764ad81f7038152bdbbb07d404b49aa3781526020017f0638b273e4ee33e03e42ca6c7de1ea7043dbdcaa48661864de644d91c6b4821f815250815260200160405180604001604052807f098ce8b5289ef791db34b68b9e0043ab7bf25306d83a9f0ce74396b8a69c57bb81526020017f1ec6f7a81748f3d2c2b87610d747ca72045ac1530e226f00710630d41aad7e26815250815260200160405180604001604052807f07dbf682cc528d3ff763fa576d05db50e023921728119ef66f880b6adae01cbe81526020017f0d287dcd9318207576eaa871e7b3308f613d9df7865059cdbc9f66fdef342dc681525081525081526020016040518060e0016040528060405180604001604052807f086d48f63f5c71cf5d49053014fd136b4f528a67c3d2500dc0359017376ef9e981526020017f13f83d45b3aa4ec86d3b9871cf43ccd7633306b29af07e7c70b13a212501b9c8815250815260200160405180604001604052807f240e3efc96e362bb9412aad60ae0ec25d4fced28aac3aa803e7287d3b6d425eb81526020017f1b7b1edff9f984c2ea43d3aab2487e863a4dee1c266fa2fc05f2a53bba124cb5815250815260200160405180604001604052807f14fdea340c7d5e62f830e244237c704e516d90f29a5e71f45928e97bb160376881526020017f1a0d3b9393c5595d11f31f2cb0b38834d26debc568a0b36e26fa93b6b05f70d3815250815260200160405180604001604052807f10b7fcb32afd1649ac4560aff9047bc52972befd38a21b870c0519719afee22a81526020017f27b1c713b71efa1eae72c81675ac78c578fa7ac8718cbd58d84fbe432f3d6783815250815260200160405180604001604052807f2ac10655edcd4c74305d2d323239400baf8541470936b2e1ac77167e31e8a9e281526020017e15b63038e94a1d4d5a85c7a666875e7f693a922ea2723a3e39f256b240f607815250815260200160405180604001604052807f2ed2a0a894b904559562fb1643c8b69a743e39a15455d6c6a0d668b32147934181526020017f15a2ed81d1ac5a1383524fd4daf70220034a6f40d643da7b79f9a20cab1895b0815250815260200160405180604001604052807f190cd68f815b152eb0c8474be622c18a56d2e518bf6ddbb929af7d50a2cedab981526020017f034b50d36d6b6dc03d6e6eb0f731eb1dd5df2f6300a760eab888e859f45f387581525081525081526020016040518060e0016040528060405180604001604052807f14f8ae76e209b3857222b80044dfc5baaafcf6e30497fac6910d74db4f99cbc481526020017f26f83f4984eb300f438c191ac9c7cefa55e22cb19fc1c29cc690eb0b03c70116815250815260200160405180604001604052807f1b658d7292b467a21e49116237813440d88a76fa6ef89db931e09b17ed0be44981526020017f29e759b830c254718fea4dfbbe6b17edc38e4b5a43d343eeb473f9894496b79f815250815260200160405180604001604052807f302dad4ea4d062effd18ec15d4a252b5881e1423a26ec6c859ec09ddc44496b581526020017f188664ee38c3f83423eb8c75ebc54d7ba95d5a728a3f7186fb4eb96e0702f7df815250815260200160405180604001604052807f14d2ec2fcb446a46ea217305921bbaed7b89d6059a3a044dba8dd6943b0379f481526020017f239ff36e4d70fee9088c5e61e7b5974d9726f6c554266bb26608973532913e60815250815260200160405180604001604052807f2c56b0e10ffbd7514c0c3e402662681881f06cf50ff9338a73b6f1e5f74ccf0581526020017f20e451924e71fb82d8f77683821fb35996645442b49e4a801b99256e51e66c79815250815260200160405180604001604052807f0951b7de5b62bfa1727fc51f791f0e8c9f5a89012fdcf10426bbb9f422ea6eb081526020017f0b8dc77891aa39b647a3e3044c7c2fdd27e06c4aa55c4e54b9a3cf4c4096edd9815250815260200160405180604001604052807f0dd1830feaf2cd658f56300da9a0a5a8cf324a1ed720c283c86bd37f7484090b81526020017f034140e7667ae5210cf863a7c8975117172af40f2d45e635e5b9f5042be9ba1981525081525081526020016040518060e0016040528060405180604001604052807f15bc113f408c7e7a786363979ae9279915708775076e86a44495064804663e1581526020017f19393ee4d81d952e8bf375888005c8314c87c632eebabd7a8d55940b0f7a66f5815250815260200160405180604001604052807f1a1f001347928a9a21ea414ccc67c3d1590dc29d437d68fc3ab020efb6ada72a81526020017f2c265c6b30a34bd323024f87bf2cd5a269e77c50c75e5ea317280785f91eb67c815250815260200160405180604001604052807f06bcd0efa27998d5f0daffaad7d6a98e3d0fe589e261f9b30c09169ef488479281526020017f2cc0792f40378327989245d05e386fcff9a2a9aa285746043cb3f621ae2f04fb815250815260200160405180604001604052807f0d306d920f3cc9d08dbd4549ebb3dd8d5fa10bd2c0a6663cd08e62915734865181526020017f2d3df68c9b28bf980dfea7683eba674a0415a26017ac2bef27176b88ca57f936815250815260200160405180604001604052807f24b61ef328570152ff83827a0f379f6c542398f3d1bc542c2bc34edd031e294f81526020017f1b03be64a67b3976e58415dcd6b353b32be9b0bad35d2d18b296453a28d985a4815250815260200160405180604001604052807f036cb3be4f36d6f5b34d8808b1e3e2ccb3fb1e3fd249eea06b1cc6761320b08c81526020017f16fa67f812376a8ac79a40970332c6ec7ced15f9539334fe642164284775e1f4815250815260200160405180604001604052807f23c611b7426b5dbce2f272a6046db21be35abadd4293876ecf50d58c5f17b2ae81526020017f1b1f0f9654e7d10b58ddaea64e20abee44f52bdd0cb58123b69c9011b497e0dd81525081525081526020016040518060e0016040528060405180604001604052807f213db2bdfb128fec0e98d364b9109caf26d66cacbbc808535af07af00200acc681526020017f164ec2e66021720a0d70b0cc70597ed748f0af9b080f5e789a821de5b0a91a1a815250815260200160405180604001604052807f2f2f2c0cc9d9b911a348466a4749c3a49d2629c9dde430ec9474f2bb06fc7f2f81526020017f173b3259b29d0e0c0176e2424bee65405bdd1e611bb933c19f5bfed931aab21e815250815260200160405180604001604052807f2b501c6317c16d185d7797db4b8735388ab31aa4d5d022502dce7c0fa5f30e3b81526020017f05e94a656be4a2f9128583762dc9e007d450315e71ef4d6cf82e64ee74325562815250815260200160405180604001604052807f1da680138dd3bdd851d6edcb441a137301ca1902c6c50036b27153520aee7fb481526020017f25fc89274231e8228cba90e52607039681d60f5d6b3a07fb429d116f53a4443d815250815260200160405180604001604052807f2a5036a81225c106605e7233124414ca2359360b60f19da736e6b4ebcfc9ce5481526020017f1f939f972ad716e18a465e4c5ec3669976b77364106a0cd73418ba058b7884cd815250815260200160405180604001604052807f2c9f9c6dfd0aa6e591235ad81a9923fe056846ca742e53af6a571ec00519d9b581526020017f0b8c60480c49dcfad4a82226600a9569494567e627301779e35b9bf8e0fe43d3815250815260200160405180604001604052807f1b447eb43a748829489de9e667c53a3053498f9adaa59b0bedcc7c8b463f515481526020017f085fb2aea389c48f2e7d17242f64b5bc3506cdf55b20bf9395da0e2f749bb09e81525081525081526020016040518060e0016040528060405180604001604052807f22c048af0497a1f7d9822f8b3edb498f614b85ce744ffe3e6ff58119d161854281526020017e18987c19177ca3ef0a85089090a97d608e3a9648b25d4ae1f673c134c591e0815250815260200160405180604001604052807f18d7d7154f3e946f1d5930f5c95f3b76bf39cfd3cc0266d8e9565df8e1ce608381526020017f097ba0c470041aaa08b64e9bf5a1bfe568d9a7689a7c597bc5c87fd9acc1c0ae815250815260200160405180604001604052807f29141df1097c02a70ac3504a99ee5e8bfbea03aae01a3c2ab86ebe0cb9265f5f81526020017f2d5bbfef49b2e4745d3a349dd67a035cfd4ce9313d3a20911376b21ec05e8b37815250815260200160405180604001604052807f2c4ef818e2918b7c272380c498e5c402928e4598adf31db243b591362011587e81526020017f0dfcbeee8258030ee712429f77d640767a137fd809bd80027218d6719c14fe7f815250815260200160405180604001604052807f1d55f8c7220cc6989034a2259e5764a0687c9410421fa5408174906d1511d83e81526020017f1471dd2d031a794968eaaf6a8e5551fbc8163c20617876438d535b2b383172e1815250815260200160405180604001604052807f0ddb36c33249944ac8bf7f0222f37712681d705bce9e0ef786fb6283306a255d81526020017f040d0656b2bba0b1b3c21822ea3fd5671359a1a04d76473b68217b4616f9559d815250815260200160405180604001604052807f24cff40932a3db30de20c16b20e68497cb42c750483824c3ef371f4e9045c6bd81526020017f1f431dccba254912b6a795ee36dcd115094cb44367768abdc27bbc5669eb8a3281525081525081526020016040518060e0016040528060405180604001604052807f03cf7157aba9c6be40a06864fa2c0e06f7178133d9c3768ff3982814946b0f7d81526020017f08e4f2655701b165858a2fc04d15297c282aec942c4a521cbe687772a2a775ad815250815260200160405180604001604052807f10eab11af7f34e5cdb73b010a98d7f18c7410eec5d8eb1b4526359f5ab246b2d81526020017f2727dfb72de41bcd49e47c8940bfe75b600bd39467763baecc6f8087130866d9815250815260200160405180604001604052807f096440bcf7534fd07ca2a941ad8fb743c49c0a5684920ee13e992f3ab8342af981526020017f200eecd036971149677fdd19a7f2dc2e2a33a460211994adce7f967da2920b9d815250815260200160405180604001604052807f2ee692deea7671684657a2ee16ffb165dd3bfd3cb8af86620b7d0feeaad6624881526020017f0328fec7c2ec04f0a7375c917f31ee23af341252c71051e8cd9a80ce9080121b815250815260200160405180604001604052807f1b8f18e1106fa4188030c6c00b7a9b76bc309ffadb11f47d5ff38bd616f06e6081526020017f09adb161ecc2264110216d13cd5dad70d58dcc398f9431844f9faef1baabeece815250815260200160405180604001604052807f18f1f7aa58cecca54d15b583367484da5dfc809734621c5699e4f812131b285981526020017f2f73d9c341a4bb3a5737672b5e6191848505c5ba127370425286901bf628b438815250815260200160405180604001604052807f2b869cfd2665da2a22c29622642595edd5bcded7e84209a1a0cd0a07c2d0c74381526020017f09d3dfe76c7b340c97705915c61f06591d27c5e3ec9e9a91582188298aab259881525081525081526020016040518060e0016040528060405180604001604052807f01a62dac147fd2d28c728dd7692a3505c43fa3ac0d580acde5208af76827a41481526020017f1d088b6d1f7c61f16092a5e2ef4a1f9743db839996d5e3e055b020d21c807a43815250815260200160405180604001604052807f04b3b6ae3a5a0590cf6c632dd5b19fad64b35508945e76465baab77eab5a754481526020017f2e3a6b4c59e33e5d9f5f309887f89b55e69614d8ae0fdc337f658a880e4bb2e7815250815260200160405180604001604052807f077df97d4ad49afc58e0990d3f4c43fb5a66de4fdb6c149212dadd1120da9dd181526020017f2e7590fddece695cf2e40c353691bbaf6e48a631b799dc51ea400db7168fc6ee815250815260200160405180604001604052807f1742dab9e730eafb41b052f0f9452b449d3424442df19e5e9ca46b1eb37ede1881526020017f1d3005df367bee452065f076925df17570f53f8c90f66780d986343035cdbd97815250815260200160405180604001604052807f23c00b1148eb39bf17c89e79bf445d07d112d956d3e1a07048fe1d937d00041081526020017f0d46b3410227aa67c7130da647213a8c964536737735218df087db3c101ce349815250815260200160405180604001604052807f16b7cad8bbcc92747ea1b6d25279e35222f5f5887691feee05fe82e04f3665dc81526020017f0d2abb809fb2ad694b1688bc906ec63b5f6155f0d45939c0d2ab96a70bda1665815250815260200160405180604001604052807f2a230ebd4006758badc83062c05a841f6467045ee5d4b5952ef2c6e786ed4bff81526020017f2a742766ba7e97cf0d388821cbb1ca01d0102c3b7880e9c976b19c5e2a698f0b81525081525081526020016040518060e0016040528060405180604001604052807f0a1142b39cac59d311fda518c2d4eaadaf36319a0b1cb5624b52b11768062a1981526020017f2538a481cee0a6745650435dd283ebe8a0186824a30756d83b6afdd7fa6186e8815250815260200160405180604001604052807f073c0d6ef96d93468e746fe7a9688f3053d5c9a96c3a2b039b7096ca0a3a9cae81526020017f01ee855a906702a4d58af8e0a49c4db6d58da5f166ad7283223b079b96e97734815250815260200160405180604001604052807f115ee58656b27d353eaf5e01de11f58159d35750e4df5753c25ad967a588340981526020017f19e20d0d752f4a8feb8aa3184b57129077b63d6c7023f816f54d470bd51751be815250815260200160405180604001604052807f066a9e5fbc3e8612b3401e42befc4b9f5e3428bf08ec91ef104cde862e53c54a81526020017f090c13b76bc68d4307215f8025bbfa13e003accc57b6055b629f13f2e87383d9815250815260200160405180604001604052807f28a2fb7c5e7425e4b49b1865ad6b43c8ba34c642f58aee8db5d352f93201a7ac81526020017f2010477774686ef83e8f2af52b3b04795e145b0228cd6af3e60c0ea87c87b1d0815250815260200160405180604001604052807f06260e7c05ca5ad151092a548392246cb2d3ca6fbeaa07ba5aa629977702698d81526020017f07bcf63a827724040c9944cc4314d740cd02a1d7fddd54ad6aa8da63e83ca524815250815260200160405180604001604052807f13a1f861a361a435d3c15ad8be0f73afe724f09a86f2f0bc8731889232a258ed81526020017f2a2eeaf8fb3ea2c877e411b9b541abc46be4b2782bff6ec46157fe8d1f546b2881525081525081526020016040518060e0016040528060405180604001604052807f1008ad7b2099ae56dc0478b9b79dc31c9d9973352ee80a724ec1be777d49e5ef81526020017f10ce43af4007cb53217273748eff14ea3894d61d16b4d25c7e4ae5c28edc85cc815250815260200160405180604001604052807ef71c6a739cf1c46d111ea159ecfe61278f110bc41f61b4d87d10c8643ad3dc81526020017f28e6b34e8d433462f6fd110ddb1b39bab64bfc4cd5aa802fb96a2d73970c336c815250815260200160405180604001604052807f28bdb5a19bbac721cd1599254ae6278ebf250f1c5d569dc3128e21f11a5d342781526020017f0bb76843462a16985e13a6dc0592851549070ea3293c187d63f0df32f0dd6936815250815260200160405180604001604052807f0942698159a2ef1d9a9420193d83bf956081197e10ac7ab550ebd932aaf19e9081526020017f060403214a5dd63e1f8ad5821a89eb3fd389856b2d9e6d3915f6a26dfde89993815250815260200160405180604001604052807f1d4ee42feb438c818d15badde8d1ba7c615d85e6c9e93df8605470d5760f719281526020017f17b47a9569d5ec3bddafda249ac91e97070d549979262cf3692242caa17c459b815250815260200160405180604001604052807f15b8453b386c5563cce2a22af5430b941bb1709202f58ef9c4a48413d9e499c181526020017f22d52ab21357018eb24ce7508c0d04130c1ddea4a5136cb73ee58063bd8584af815250815260200160405180604001604052807f2ecf342deb9fe786ca4772c3a0b3cacae3ab5d1942e0a08eb4696041d576307181526020017f1eb6d6da821f70eb0b7b9372cfdde917839d8977b90b5ad48f472b33ac64850981525081525081526020016040518060e0016040528060405180604001604052807f168e4fddac50a40d5bcff39c7fa9207cd368444c0c01a86690a6645b52f3aa1f81526020017f2139a256456825daa623957c4f2ea1a0d26f135769e450759142a7159b0a4476815250815260200160405180604001604052807f28deba4ed0a3b79dbc6a7dac67c07051f421904de49dcd7ae91aaf1223bc6d6381526020017f1c3976c9a490dad50e601586279bb60f12416a8cc141710167fcdc0dc931bffd815250815260200160405180604001604052807f0335f514c2acb9b255aae85514122267cd7d16e374c6231a2c34417d3449125481526020017f07fa1580c1cc3ed4f6d660c6f60f86afedd8a12fb90b2e8ed4f7e310c88b97f7815250815260200160405180604001604052807f20b781dd0db3b7980a4b3814128c86e597e1442d0fc9eb7f932a5229494d6b7981526020017f17d1cef436eb2f665670c7b34854e62c227043a7b111a539c0295518bbab3ca9815250815260200160405180604001604052807f260945445b4205f874ab7e203a18240e51c9d3c896ea300d40132b1c2f50299a81526020017f11087a8b76b0f957e1c482c909302916795f811a06866059e403689c01c903fb815250815260200160405180604001604052807f11d20fd81c0e5cf48ba1469ccb8ac99dcdc7cf746a6e70762a939d63dcc52dbf81526020017f2d447c5f134eff527d7bcaace88b3842c42b800d8dc049e0a6e72f5efc14293d815250815260200160405180604001604052807f107cd54a1606a6a873bed4c1b76af48975e66dcf6c127b4c799ad4fdd230b87c81526020017f1a51b81f6c07725ebcc56ebb1c482b99340eaa9bcb86cc09aed6f58a28e530b681525081525081526020016040518060e0016040528060405180604001604052807f21026f2492115bc10ad0a5d50cf101474fb0c5e53b25612d8156989bb8cbbed681526020017f1e4048744f2e211ffa8cfac1d2efbae21234bfaa15c8d640171182c9b386e8e2815250815260200160405180604001604052807f295aed6c2486154603e450f3d49b39fee1bf9ffc4bc4194f403a02d66e7954f681526020017f2f2045b5a78523c7892e775d7f8fe805563acebd5ab053745ea735ab7930afa5815250815260200160405180604001604052807f1beb6fbfbc70fb2711bc7c187cf0ec4b63ef6651b02742c9fe71de1aef7ffdb181526020017f215e8105a1a572b106c2bb0d1f0170bbf8ffda20957ea14b709a7f6cc778f966815250815260200160405180604001604052807f0e9404f55d91e9964e7b921158995a81097cf27b017273cc2c133107c653483781526020017f2902b31b20c04311298f9b90026980b7963a001834fa663eb83636ec5fdb7b6b815250815260200160405180604001604052807f0ddd515b58aa44c26b377e2c82c83c7d75722131ee7139ddb18082e2da8ddda081526020017ec958a799e9a65df6bd806e7bb76140d415ca61d1ffc2b2351b12e85553268a815250815260200160405180604001604052807f04adb15295c975c172a9a508c71dee5517223306cd091fb9881d0dca5d57d1d281526020017f08da6902b366d39b8a7ef07c831486aabbf834bbd07813bdcdb92be7850b2ca6815250815260200160405180604001604052807f094ce0ba5287bd96c37794306fe6b0c5541fc77f05aab2b4b8a80564d086bfcc81526020017f2ad90cdefdb6c12edc35cf483e270516b0ad3ed872dad6031ec705fba888258b81525081525081526020016040518060e0016040528060405180604001604052807f1b3a2deb5f90e41493bd6eca49124ffd998376cc19df2a131f619a9297e76ab281526020017f29fead8cbc4c7d473dd6a1f39e066c1a3b065c3d02407b8d977a6f4dc528e544815250815260200160405180604001604052807f27d69ef118055fceb37561e935fa4927952116ac0c00fbb8d2131ab68e12d9b081526020017f1c17e9a456e1a74448a960dcfe32f84bc0fa84f1ea428f907f0ae9e3db1e4f4d815250815260200160405180604001604052807f05bb401ea4577a1cf48cb24f6668ae5a9621b808d302044b53016f7f29fce06b81526020017f1a31802b5590506650d4bdb3b20c9ae4aec7a5e1430202ec52fbaa35c78b08a3815250815260200160405180604001604052807f07664b2723c11dccc1e71f59742b84568e6a5d1b7df21cd86f02f976047a2df681526020017f22d6d128fb4f49c32dae5f249410aaf0b2e039a9fb0f8aea8929da4bbe0cf357815250815260200160405180604001604052807f2d62d32c2ab7039c0294535b501330cc326affb6ac0c4d34a1971857fc5a5b1581526020017f27da035244e64180b7abfd1eb92e132275274b72b09a52fc42aebfb66e0068eb815250815260200160405180604001604052807f15aa7fb602df2aef2504640ebe99a0eb203f1891304b2b9635618cbfc9b56b3481526020017f0b0d0c477afc716d17d46acfa3dda4638919ec8092570b87178955f2cad9fdfb815250815260200160405180604001604052807f23c3983ac2b053ff6cab78d798397f954174f60664bc127a0babe5cb4e85a9dc81526020017f305e217ed6d494f993fa931a22615957da6fd13bc9cae958ad4d3a48c7cbbf87815250815250815250600090601162002adf92919062002af4565b5034801562002aed57600080fd5b5062002c7e565b826011600e02810192821562002b39579160200282015b8281111562002b385782518290600762002b2792919062002b4c565b50916020019190600e019062002b0b565b5b50905062002b48919062002ba4565b5090565b826007600202810192821562002b91579160200282015b8281111562002b905782518290600262002b7f92919062002bcc565b509160200191906002019062002b63565b5b50905062002ba0919062002c11565b5090565b5b8082111562002bc8576000818162002bbe919062002c39565b50600e0162002ba5565b5090565b826002810192821562002bfe579160200282015b8281111562002bfd57825182559160200191906001019062002be0565b5b50905062002c0d919062002c51565b5090565b5b8082111562002c35576000818162002c2b919062002c70565b5060020162002c12565b5090565b50806007600202019062002c4e919062002c11565b50565b5b8082111562002c6c57600081600090555060010162002c52565b5090565b506000815560010160009055565b6120fd8062002c8e6000396000f3fe608060405234801561001057600080fd5b506004361061002b5760003560e01c80639aca8f2a14610030575b600080fd5b61004a60048036038101906100459190611b9d565b61004c565b005b61005584610cd9565b935061006083610cd9565b925061006a611a04565b6040518060400160405280846000600881106100af577f4e487b7100000000000000000000000000000000000000000000000000000000600052603260045260246000fd5b60200201358152602001846001600881106100f3577f4e487b7100000000000000000000000000000000000000000000000000000000600052603260045260246000fd5b602002013581525081600001819052506040518060400160405280604051806040016040528086600260088110610153577f4e487b7100000000000000000000000000000000000000000000000000000000600052603260045260246000fd5b6020020135815260200186600360088110610197577f4e487b7100000000000000000000000000000000000000000000000000000000600052603260045260246000fd5b602002013581525081526020016040518060400160405280866004600881106101e9577f4e487b7100000000000000000000000000000000000000000000000000000000600052603260045260246000fd5b602002013581526020018660056008811061022d577f4e487b7100000000000000000000000000000000000000000000000000000000600052603260045260246000fd5b60200201358152508152508160200181905250604051806040016040528084600660088110610285577f4e487b7100000000000000000000000000000000000000000000000000000000600052603260045260246000fd5b60200201358152602001846007600881106102c9577f4e487b7100000000000000000000000000000000000000000000000000000000600052603260045260246000fd5b6020020135815250816040018190525060006102f06010846102eb9190611fc8565b610d10565b905060008160800151600081518110610332577f4e487b7100000000000000000000000000000000000000000000000000000000600052603260045260246000fd5b6020026020010151905073__$7534fe6764511721068472f39fd8abea4a$__6318c77c958273__$7534fe6764511721068472f39fd8abea4a$__636e1b699086608001516001815181106103af577f4e487b7100000000000000000000000000000000000000000000000000000000600052603260045260246000fd5b60200260200101518e6040518363ffffffff1660e01b81526004016103d5929190611edb565b604080518083038186803b1580156103ec57600080fd5b505af4158015610400573d6000803e3d6000fd5b505050506040513d601f19601f820116820180604052508101906104249190611b74565b6040518363ffffffff1660e01b8152600401610441929190611eb2565b604080518083038186803b15801561045857600080fd5b505af415801561046c573d6000803e3d6000fd5b505050506040513d601f19601f820116820180604052508101906104909190611b74565b905073__$7534fe6764511721068472f39fd8abea4a$__6318c77c958273__$7534fe6764511721068472f39fd8abea4a$__636e1b69908660800151600281518110610505577f4e487b7100000000000000000000000000000000000000000000000000000000600052603260045260246000fd5b60200260200101518d6040518363ffffffff1660e01b815260040161052b929190611edb565b604080518083038186803b15801561054257600080fd5b505af4158015610556573d6000803e3d6000fd5b505050506040513d601f19601f8201168201806040525081019061057a9190611b74565b6040518363ffffffff1660e01b8152600401610597929190611eb2565b604080518083038186803b1580156105ae57600080fd5b505af41580156105c2573d6000803e3d6000fd5b505050506040513d601f19601f820116820180604052508101906105e69190611b74565b905073__$7534fe6764511721068472f39fd8abea4a$__6318c77c958273__$7534fe6764511721068472f39fd8abea4a$__636e1b6990866080015160038151811061065b577f4e487b7100000000000000000000000000000000000000000000000000000000600052603260045260246000fd5b60200260200101518c6040518363ffffffff1660e01b8152600401610681929190611edb565b604080518083038186803b15801561069857600080fd5b505af41580156106ac573d6000803e3d6000fd5b505050506040513d601f19601f820116820180604052508101906106d09190611b74565b6040518363ffffffff1660e01b81526004016106ed929190611eb2565b604080518083038186803b15801561070457600080fd5b505af4158015610718573d6000803e3d6000fd5b505050506040513d601f19601f8201168201806040525081019061073c9190611b74565b905073__$7534fe6764511721068472f39fd8abea4a$__6318c77c958273__$7534fe6764511721068472f39fd8abea4a$__636e1b699086608001516004815181106107b1577f4e487b7100000000000000000000000000000000000000000000000000000000600052603260045260246000fd5b60200260200101518b6040518363ffffffff1660e01b81526004016107d7929190611edb565b604080518083038186803b1580156107ee57600080fd5b505af4158015610802573d6000803e3d6000fd5b505050506040513d601f19601f820116820180604052508101906108269190611b74565b6040518363ffffffff1660e01b8152600401610843929190611eb2565b604080518083038186803b15801561085a57600080fd5b505af415801561086e573d6000803e3d6000fd5b505050506040513d601f19601f820116820180604052508101906108929190611b74565b90506000600467ffffffffffffffff8111156108d7577f4e487b7100000000000000000000000000000000000000000000000000000000600052604160045260246000fd5b60405190808252806020026020018201604052801561091057816020015b6108fd611a37565b8152602001906001900390816108f55790505b5090506000600467ffffffffffffffff811115610956577f4e487b7100000000000000000000000000000000000000000000000000000000600052604160045260246000fd5b60405190808252806020026020018201604052801561098f57816020015b61097c611a51565b8152602001906001900390816109745790505b50905073__$7534fe6764511721068472f39fd8abea4a$__63a680077586600001516040518263ffffffff1660e01b81526004016109cd9190611e97565b604080518083038186803b1580156109e457600080fd5b505af41580156109f8573d6000803e3d6000fd5b505050506040513d601f19601f82011682018060405250810190610a1c9190611b74565b82600081518110610a56577f4e487b7100000000000000000000000000000000000000000000000000000000600052603260045260246000fd5b6020026020010181905250846020015181600081518110610aa0577f4e487b7100000000000000000000000000000000000000000000000000000000600052603260045260246000fd5b6020026020010181905250836000015182600181518110610aea577f4e487b7100000000000000000000000000000000000000000000000000000000600052603260045260246000fd5b6020026020010181905250836020015181600181518110610b34577f4e487b7100000000000000000000000000000000000000000000000000000000600052603260045260246000fd5b60200260200101819052508282600281518110610b7a577f4e487b7100000000000000000000000000000000000000000000000000000000600052603260045260246000fd5b6020026020010181905250836040015181600281518110610bc4577f4e487b7100000000000000000000000000000000000000000000000000000000600052603260045260246000fd5b6020026020010181905250846040015182600381518110610c0e577f4e487b7100000000000000000000000000000000000000000000000000000000600052603260045260246000fd5b6020026020010181905250836060015181600381518110610c58577f4e487b7100000000000000000000000000000000000000000000000000000000600052603260045260246000fd5b602002602001018190525073__$7534fe6764511721068472f39fd8abea4a$__632f3ed53983836040518363ffffffff1660e01b8152600401610c9c929190611e60565b60006040518083038186803b158015610cb457600080fd5b505af4158015610cc8573d6000803e3d6000fd5b505050505050505050505050505050565b6000600882604051602001610cee9190611e45565b6040516020818303038152906040528051906020012060001c901c9050919050565b610d18611a77565b610d20611a77565b60405180604001604052807f2d4d9aa7e302d9df41749d5507949d05dbea33fbb16c643b22f599a2be6df2e281526020017f14bedd503c37ceb061d8ec60209fe345ce89830a19230301f076caff004d19268152508160000181905250604051806040016040528060405180604001604052807f0967032fcbf776d1afc985f88877f182d38480a653f2decaa9794cbc3bf3060c81526020017f0e187847ad4c798374d0d6732bf501847dd68bc0e071241e0213bc7fc13db7ab815250815260200160405180604001604052807f304cfbd1e08a704a99f5e847d93f8c3caafddec46b7a0d379da69a4d112346a781526020017f1739c1b1a457a8c7313123d24d2f9192f896b7c63eea05a9d57f06547ad0cec88152508152508160200181905250604051806040016040528060405180604001604052807f198e9393920d483a7260bfb731fb5d25f1aa493335a9e71297e485b7aef312c281526020017f1800deef121f1e76426a00665e5c4479674322d4f75edadd46debd5cd992f6ed815250815260200160405180604001604052807f090689d0585ff075ec9e99ad690c3395bc4b313370b38ef355acdadcd122975b81526020017f12c85ea5db8c6deb4aab71808dcb408fe3d1e7690c43d37b4ce6cc0166fa7daa8152508152508160400181905250604051806040016040528060008560118110610f4c577f4e487b7100000000000000000000000000000000000000000000000000000000600052603260045260246000fd5b600e0201600060078110610f89577f4e487b7100000000000000000000000000000000000000000000000000000000600052603260045260246000fd5b60020201600280602002604051908101604052809291908260028015610fc4576020028201915b815481526020019060010190808311610fb0575b5050505050815260200160008560118110611008577f4e487b7100000000000000000000000000000000000000000000000000000000600052603260045260246000fd5b600e0201600160078110611045577f4e487b7100000000000000000000000000000000000000000000000000000000600052603260045260246000fd5b60020201600280602002604051908101604052809291908260028015611080576020028201915b81548152602001906001019080831161106c575b50505050508152508160600181905250600567ffffffffffffffff8111156110d1577f4e487b7100000000000000000000000000000000000000000000000000000000600052604160045260246000fd5b60405190808252806020026020018201604052801561110a57816020015b6110f7611a37565b8152602001906001900390816110ef5790505b508160800181905250604051806040016040528060008560118110611158577f4e487b7100000000000000000000000000000000000000000000000000000000600052603260045260246000fd5b600e0201600260078110611195577f4e487b7100000000000000000000000000000000000000000000000000000000600052603260045260246000fd5b600202016000600281106111d2577f4e487b7100000000000000000000000000000000000000000000000000000000600052603260045260246000fd5b0154815260200160008560118110611213577f4e487b7100000000000000000000000000000000000000000000000000000000600052603260045260246000fd5b600e0201600260078110611250577f4e487b7100000000000000000000000000000000000000000000000000000000600052603260045260246000fd5b6002020160016002811061128d577f4e487b7100000000000000000000000000000000000000000000000000000000600052603260045260246000fd5b015481525081608001516000815181106112d0577f4e487b7100000000000000000000000000000000000000000000000000000000600052603260045260246000fd5b6020026020010181905250604051806040016040528060008560118110611320577f4e487b7100000000000000000000000000000000000000000000000000000000600052603260045260246000fd5b600e020160036007811061135d577f4e487b7100000000000000000000000000000000000000000000000000000000600052603260045260246000fd5b6002020160006002811061139a577f4e487b7100000000000000000000000000000000000000000000000000000000600052603260045260246000fd5b01548152602001600085601181106113db577f4e487b7100000000000000000000000000000000000000000000000000000000600052603260045260246000fd5b600e0201600360078110611418577f4e487b7100000000000000000000000000000000000000000000000000000000600052603260045260246000fd5b60020201600160028110611455577f4e487b7100000000000000000000000000000000000000000000000000000000600052603260045260246000fd5b01548152508160800151600181518110611498577f4e487b7100000000000000000000000000000000000000000000000000000000600052603260045260246000fd5b60200260200101819052506040518060400160405280600085601181106114e8577f4e487b7100000000000000000000000000000000000000000000000000000000600052603260045260246000fd5b600e0201600460078110611525577f4e487b7100000000000000000000000000000000000000000000000000000000600052603260045260246000fd5b60020201600060028110611562577f4e487b7100000000000000000000000000000000000000000000000000000000600052603260045260246000fd5b01548152602001600085601181106115a3577f4e487b7100000000000000000000000000000000000000000000000000000000600052603260045260246000fd5b600e02016004600781106115e0577f4e487b7100000000000000000000000000000000000000000000000000000000600052603260045260246000fd5b6002020160016002811061161d577f4e487b7100000000000000000000000000000000000000000000000000000000600052603260045260246000fd5b01548152508160800151600281518110611660577f4e487b7100000000000000000000000000000000000000000000000000000000600052603260045260246000fd5b60200260200101819052506040518060400160405280600085601181106116b0577f4e487b7100000000000000000000000000000000000000000000000000000000600052603260045260246000fd5b600e02016005600781106116ed577f4e487b7100000000000000000000000000000000000000000000000000000000600052603260045260246000fd5b6002020160006002811061172a577f4e487b7100000000000000000000000000000000000000000000000000000000600052603260045260246000fd5b015481526020016000856011811061176b577f4e487b7100000000000000000000000000000000000000000000000000000000600052603260045260246000fd5b600e02016005600781106117a8577f4e487b7100000000000000000000000000000000000000000000000000000000600052603260045260246000fd5b600202016001600281106117e5577f4e487b7100000000000000000000000000000000000000000000000000000000600052603260045260246000fd5b01548152508160800151600381518110611828577f4e487b7100000000000000000000000000000000000000000000000000000000600052603260045260246000fd5b6020026020010181905250604051806040016040528060008560118110611878577f4e487b7100000000000000000000000000000000000000000000000000000000600052603260045260246000fd5b600e02016006600781106118b5577f4e487b7100000000000000000000000000000000000000000000000000000000600052603260045260246000fd5b600202016000600281106118f2577f4e487b7100000000000000000000000000000000000000000000000000000000600052603260045260246000fd5b0154815260200160008560118110611933577f4e487b7100000000000000000000000000000000000000000000000000000000600052603260045260246000fd5b600e0201600660078110611970577f4e487b7100000000000000000000000000000000000000000000000000000000600052603260045260246000fd5b600202016001600281106119ad577f4e487b7100000000000000000000000000000000000000000000000000000000600052603260045260246000fd5b015481525081608001516004815181106119f0577f4e487b7100000000000000000000000000000000000000000000000000000000600052603260045260246000fd5b602002602001018190525080915050919050565b6040518060600160405280611a17611a37565b8152602001611a24611a51565b8152602001611a31611a37565b81525090565b604051806040016040528060008152602001600081525090565b6040518060400160405280611a64611abe565b8152602001611a71611abe565b81525090565b6040518060a00160405280611a8a611a37565b8152602001611a97611a51565b8152602001611aa4611a51565b8152602001611ab1611a51565b8152602001606081525090565b6040518060400160405280600290602082028036833780820191505090505090565b600081905082602060080282011115611af857600080fd5b92915050565b600060408284031215611b1057600080fd5b611b1a6040611f04565b90506000611b2a84828501611b5f565b6000830152506020611b3e84828501611b5f565b60208301525092915050565b600081359050611b59816120b0565b92915050565b600081519050611b6e816120b0565b92915050565b600060408284031215611b8657600080fd5b6000611b9484828501611afe565b91505092915050565b6000806000806000806101a08789031215611bb757600080fd5b6000611bc589828a01611b4a565b9650506020611bd689828a01611b4a565b9550506040611be789828a01611b4a565b9450506060611bf889828a01611b4a565b9350506080611c0989828a01611ae0565b925050610180611c1b89828a01611b4a565b9150509295509295509295565b6000611c348383611db2565b60408301905092915050565b6000611c4c8383611de1565b60808301905092915050565b6000611c648383611e1f565b60208301905092915050565b6000611c7b82611f53565b611c858185611f9b565b9350611c9083611f29565b8060005b83811015611cc1578151611ca88882611c28565b9750611cb383611f74565b925050600181019050611c94565b5085935050505092915050565b6000611cd982611f5e565b611ce38185611fac565b9350611cee83611f39565b8060005b83811015611d1f578151611d068882611c40565b9750611d1183611f81565b925050600181019050611cf2565b5085935050505092915050565b611d3581611f69565b611d3f8184611fbd565b9250611d4a82611f49565b8060005b83811015611d7b578151611d628782611c58565b9650611d6d83611f8e565b925050600181019050611d4e565b505050505050565b604082016000820151611d996000850182611e1f565b506020820151611dac6020850182611e1f565b50505050565b604082016000820151611dc86000850182611e1f565b506020820151611ddb6020850182611e1f565b50505050565b608082016000820151611df76000850182611d2c565b506020820151611e0a6040850182611d2c565b50505050565b611e1981611ffc565b82525050565b611e2881611ffc565b82525050565b611e3f611e3a82611ffc565b612037565b82525050565b6000611e518284611e2e565b60208201915081905092915050565b60006040820190508181036000830152611e7a8185611c70565b90508181036020830152611e8e8184611cce565b90509392505050565b6000604082019050611eac6000830184611d83565b92915050565b6000608082019050611ec76000830185611d83565b611ed46040830184611d83565b9392505050565b6000606082019050611ef06000830185611d83565b611efd6040830184611e10565b9392505050565b6000611f0e611f1f565b9050611f1a8282612006565b919050565b6000604051905090565b6000819050602082019050919050565b6000819050602082019050919050565b6000819050919050565b600081519050919050565b600081519050919050565b600060029050919050565b6000602082019050919050565b6000602082019050919050565b6000602082019050919050565b600082825260208201905092915050565b600082825260208201905092915050565b600081905092915050565b6000611fd382611ffc565b9150611fde83611ffc565b925082821015611ff157611ff0612041565b5b828203905092915050565b6000819050919050565b61200f8261209f565b810181811067ffffffffffffffff8211171561202e5761202d612070565b5b80604052505050565b6000819050919050565b7f4e487b7100000000000000000000000000000000000000000000000000000000600052601160045260246000fd5b7f4e487b7100000000000000000000000000000000000000000000000000000000600052604160045260246000fd5b6000601f19601f8301169050919050565b6120b981611ffc565b81146120c457600080fd5b5056fea2646970667358221220f65aa9ba294671957da541442243772da21d134a1b1258556fe3a6f0a704a02a64736f6c63430008040033","opcodes":"PUSH1 0x80 PUSH1 0x40 MSTORE PUSH1 0x40 MLOAD DUP1 PUSH2 0x220 ADD PUSH1 0x40 MSTORE DUP1 PUSH1 0x40 MLOAD DUP1 PUSH1 0xE0 ADD PUSH1 0x40 MSTORE DUP1 PUSH1 0x40 MLOAD DUP1 PUSH1 0x40 ADD PUSH1 0x40 MSTORE DUP1 PUSH32 0x1DA3FC88726DCB210B80123BB09B40A86A57EB1CEC7F3BFC89F91FE20622D854 DUP2 MSTORE PUSH1 0x20 ADD PUSH32 0x23E9C269ED42423DBC44CE369CB78B342ABE93731DC033216DADCB06C724AEF0 DUP2 MSTORE POP DUP2 MSTORE PUSH1 0x20 ADD PUSH1 0x40 MLOAD DUP1 PUSH1 0x40 ADD PUSH1 0x40 MSTORE DUP1 PUSH32 0x1A0C25B74F55683EBD0F8BE53E188563362403CDE2DAD828ED917A8497EC367E DUP2 MSTORE PUSH1 0x20 ADD PUSH32 0x22AF2404C15A320D0D67EE7C997EB497CEA0208F443A620B9921F4A19402CFBE DUP2 MSTORE POP DUP2 MSTORE PUSH1 0x20 ADD PUSH1 0x40 MLOAD DUP1 PUSH1 0x40 ADD PUSH1 0x40 MSTORE DUP1 PUSH32 0x457D05481EF2E919C3BABE640B224438AC736C190B616070505BC66EB0A3348 DUP2 MSTORE PUSH1 0x20 ADD PUSH32 0x4B9E760240AB0439FF305C89EEDE1C06E7E4A3A250D3FCE09EAA12E43C2A610 DUP2 MSTORE POP DUP2 MSTORE PUSH1 0x20 ADD PUSH1 0x40 MLOAD DUP1 PUSH1 0x40 ADD PUSH1 0x40 MSTORE DUP1 PUSH32 0x2B4399F1079DA135EFF8211A2684B3FC5BBD79204198A7A537ED0C20A58C3E16 DUP2 MSTORE PUSH1 0x20 ADD PUSH32 0x19BBB4D125A0C826783C15728D6CF28F267FFBF330C197D39BD6C664B9BA2836 DUP2 MSTORE POP DUP2 MSTORE PUSH1 0x20 ADD PUSH1 0x40 MLOAD DUP1 PUSH1 0x40 ADD PUSH1 0x40 MSTORE DUP1 PUSH32 0xBC177B0557E29966E89A33CA900B78647DF9E344B65A6A12055EAEF2B675361 DUP2 MSTORE PUSH1 0x20 ADD PUSH32 0x12AEFA5250FC5E72896094908C0F111ECE72EDA1B36DDBC8185FA1C2EAA6310 DUP2 MSTORE POP DUP2 MSTORE PUSH1 0x20 ADD PUSH1 0x40 MLOAD DUP1 PUSH1 0x40 ADD PUSH1 0x40 MSTORE DUP1 PUSH32 0x20DDCFB90110E0E1EA7AF6934EE1C67408AF27964F44780C982426A9D988856B DUP2 MSTORE PUSH1 0x20 ADD PUSH32 0x711DFBE9C6FAB32EBBBA6A258C2E97B91BECC667AAC1A357CB9A275264FE0F8 DUP2 MSTORE POP DUP2 MSTORE PUSH1 0x20 ADD PUSH1 0x40 MLOAD DUP1 PUSH1 0x40 ADD PUSH1 0x40 MSTORE DUP1 PUSH32 0xF2C85FBD7696D73949BC294DD362953FF7ECCF67A075B84193D082839C3614B DUP2 MSTORE PUSH1 0x20 ADD PUSH32 0x21384F8B567278EAFF9C8240269E5F739E530540BE8312EC617183C572AB7E91 DUP2 MSTORE POP DUP2 MSTORE POP DUP2 MSTORE PUSH1 0x20 ADD PUSH1 0x40 MLOAD DUP1 PUSH1 0xE0 ADD PUSH1 0x40 MSTORE DUP1 PUSH1 0x40 MLOAD DUP1 PUSH1 0x40 ADD PUSH1 0x40 MSTORE DUP1 PUSH32 0x228DD06C5DE709E7B53F38A850876A16F1B1437ACD5F2DFDA9CE83FB59189BE3 DUP2 MSTORE PUSH1 0x20 ADD PUSH32 0x1E0B7DD795BBD17D04CA4B8AADD5A4A86F146E9F16DDFF7519A72FEA86796558 DUP2 MSTORE POP DUP2 MSTORE PUSH1 0x20 ADD PUSH1 0x40 MLOAD DUP1 PUSH1 0x40 ADD PUSH1 0x40 MSTORE DUP1 PUSH32 0x1958EA13532B11AB4E211C7AA631C5EB6ED2A34D97FDC39FC39CD73BD35F11A5 DUP2 MSTORE PUSH1 0x20 ADD PUSH32 0x23621187ADE6B9C56F2962955E72B4843B51481CBDEC3CFB5AB4B948C56FD4AA DUP2 MSTORE POP DUP2 MSTORE PUSH1 0x20 ADD PUSH1 0x40 MLOAD DUP1 PUSH1 0x40 ADD PUSH1 0x40 MSTORE DUP1 PUSH32 0x2754771B51F24B62A15D2C53A6A1CC408FCC7A623B3E7F9823D52D629F5A765E DUP2 MSTORE PUSH1 0x20 ADD PUSH32 0x917AE814C9DB420F2CA2C678DCDC58ADBD41C938041719C1B50C64EC72C8B10 DUP2 MSTORE POP DUP2 MSTORE PUSH1 0x20 ADD PUSH1 0x40 MLOAD DUP1 PUSH1 0x40 ADD PUSH1 0x40 MSTORE DUP1 PUSH32 0x758371F3DFF3EE4C7C68D8C36F2E04254B9A4F7446521C75A30BDEE9DC6FD73 DUP2 MSTORE PUSH1 0x20 ADD PUSH31 0xD7A7ADC8C0C2A3FB09602AA14D3FA1764D15BDB150FD0F03EE69B3B60CB61C DUP2 MSTORE POP DUP2 MSTORE PUSH1 0x20 ADD PUSH1 0x40 MLOAD DUP1 PUSH1 0x40 ADD PUSH1 0x40 MSTORE DUP1 PUSH32 0x1367F89C851A9003E69384B623A614D3AFA8D2FC51F5CB5ABAFC67E442BAA960 DUP2 MSTORE PUSH1 0x20 ADD PUSH32 0x1A5C8221479BD8A8D50A74DD46D9E6F6CBE2CB6768A2429223F747A2F00685B6 DUP2 MSTORE POP DUP2 MSTORE PUSH1 0x20 ADD PUSH1 0x40 MLOAD DUP1 PUSH1 0x40 ADD PUSH1 0x40 MSTORE DUP1 PUSH32 0x2240E05D565C404D5ABB2F425A8FB849793BF671DAE88E4F2567A617119BBE8D DUP2 MSTORE PUSH1 0x20 ADD PUSH32 0xDF676EBD848824AF90C8F9BAE101C3E0C687EE8FACB7F2279F506A5881D929C DUP2 MSTORE POP DUP2 MSTORE PUSH1 0x20 ADD PUSH1 0x40 MLOAD DUP1 PUSH1 0x40 ADD PUSH1 0x40 MSTORE DUP1 PUSH32 0x7B289755DCDC3A38163BCE0F2B12F0E3C046735D27A534C9941CF6683E7DB15 DUP2 MSTORE PUSH1 0x20 ADD PUSH32 0x2C69A3FEE54303F17D8994AFDAC6E460545928A676307D5124C489B516E518DC DUP2 MSTORE POP DUP2 MSTORE POP DUP2 MSTORE PUSH1 0x20 ADD PUSH1 0x40 MLOAD DUP1 PUSH1 0xE0 ADD PUSH1 0x40 MSTORE DUP1 PUSH1 0x40 MLOAD DUP1 PUSH1 0x40 ADD PUSH1 0x40 MSTORE DUP1 PUSH32 0x1461627FB9791E5A96FCE79D89FCA07B82D7556C84A3D4414367740957C7DA44 DUP2 MSTORE PUSH1 0x20 ADD PUSH32 0x2B97D05CA1D20D9ABDEC2E593937665B71C126735A9B7E601940C3F2758BDA2B DUP2 MSTORE POP DUP2 MSTORE PUSH1 0x20 ADD PUSH1 0x40 MLOAD DUP1 PUSH1 0x40 ADD PUSH1 0x40 MSTORE DUP1 PUSH32 0x24F5D230612998286EA5E1F999D5BC8C4A635EE9864099913B6657633C7C4B44 DUP2 MSTORE PUSH1 0x20 ADD PUSH32 0x28491D3FA0C8200CD31C9E3BE4E423939A16A865D455BC00E411CFF8787F7539 DUP2 MSTORE POP DUP2 MSTORE PUSH1 0x20 ADD PUSH1 0x40 MLOAD DUP1 PUSH1 0x40 ADD PUSH1 0x40 MSTORE DUP1 PUSH32 0xA5F594BA7D550ACA92B125CBC6C6B564139E3FD5C5937F3BD5220DF88554A0F DUP2 MSTORE PUSH1 0x20 ADD PUSH32 0x145A4C9D47805092BCEBCD7E8C39B0F32B10F534475FD3A448CD6177F56DE784 DUP2 MSTORE POP DUP2 MSTORE PUSH1 0x20 ADD PUSH1 0x40 MLOAD DUP1 PUSH1 0x40 ADD PUSH1 0x40 MSTORE DUP1 PUSH32 0x23B4E079081AA0AB98AAF8A230318CF6E9C97BBA977F6B3065A58A82483F6630 DUP2 MSTORE PUSH1 0x20 ADD PUSH32 0x2CC2AF3F384010F2AC7435166856FB959625D567C92CE9AC20073D063E0E94E3 DUP2 MSTORE POP DUP2 MSTORE PUSH1 0x20 ADD PUSH1 0x40 MLOAD DUP1 PUSH1 0x40 ADD PUSH1 0x40 MSTORE DUP1 PUSH32 0xD67D70AD74DB3B2EAFEC2CA2C819816E487D1FA29A15CA213F38A46A77C7D80 DUP2 MSTORE PUSH1 0x20 ADD PUSH32 0x285E1AA325995FA12936D0EEA843C4B0DD0AC6DB5510826F9B585C1680632563 DUP2 MSTORE POP DUP2 MSTORE PUSH1 0x20 ADD PUSH1 0x40 MLOAD DUP1 PUSH1 0x40 ADD PUSH1 0x40 MSTORE DUP1 PUSH32 0x165A04EF5BEE8A96C8119C31502842AA34D60394793B8F937DEF7459B04D7135 DUP2 MSTORE PUSH1 0x20 ADD PUSH32 0x93AC34388AA5F6D55D8270E5A66328A04990230698DE2326AB6E0495464816D DUP2 MSTORE POP DUP2 MSTORE PUSH1 0x20 ADD PUSH1 0x40 MLOAD DUP1 PUSH1 0x40 ADD PUSH1 0x40 MSTORE DUP1 PUSH32 0x27E79D515FE3439DDF81A8549902B5E9042E201C6769B8910A18DAFED11D5748 DUP2 MSTORE PUSH1 0x20 ADD PUSH32 0x14EE84F3F0EEEFD5AB1F81DA564AF7864D6204E9CCBFFF66916A85D13E6FA4A DUP2 MSTORE POP DUP2 MSTORE POP DUP2 MSTORE PUSH1 0x20 ADD PUSH1 0x40 MLOAD DUP1 PUSH1 0xE0 ADD PUSH1 0x40 MSTORE DUP1 PUSH1 0x40 MLOAD DUP1 PUSH1 0x40 ADD PUSH1 0x40 MSTORE DUP1 PUSH32 0x8D529AACA586B844314F80EDFB1784260646108B75C158CE3F088C188BC802E DUP2 MSTORE PUSH1 0x20 ADD PUSH32 0x234536B6213200B2B44AEBFFCF0B574A2D0F4F2B47EF98DB4B4431CFEFC3BF22 DUP2 MSTORE POP DUP2 MSTORE PUSH1 0x20 ADD PUSH1 0x40 MLOAD DUP1 PUSH1 0x40 ADD PUSH1 0x40 MSTORE DUP1 PUSH32 0x2E556C221FA59C978E78E9BBA38E8947B59EF785B5E31EC8CF90E613787FB793 DUP2 MSTORE PUSH1 0x20 ADD PUSH32 0x59469A2C10792EE9F1573148667562F175586470CEA1DBB54BED106EF361B34 DUP2 MSTORE POP DUP2 MSTORE PUSH1 0x20 ADD PUSH1 0x40 MLOAD DUP1 PUSH1 0x40 ADD PUSH1 0x40 MSTORE DUP1 PUSH32 0x15D64DAC8E74C233B7859722356FC14C262242AE306C20F060880DBD9BAA452E DUP2 MSTORE PUSH1 0x20 ADD PUSH32 0x2C28232F85D16CDD157A841CD7795AE537F6769D6B30FD18E9E03060246CC03C DUP2 MSTORE POP DUP2 MSTORE PUSH1 0x20 ADD PUSH1 0x40 MLOAD DUP1 PUSH1 0x40 ADD PUSH1 0x40 MSTORE DUP1 PUSH32 0xDFB95A3E8C20CF8A70021AD12080F778ABC60508BFE088803FDD53C46B4202C DUP2 MSTORE PUSH1 0x20 ADD PUSH32 0x224C92FD97D25DE5D97901B9046EE6A5788DDDF425CDBA5D6E8ECF6EA83248C8 DUP2 MSTORE POP DUP2 MSTORE PUSH1 0x20 ADD PUSH1 0x40 MLOAD DUP1 PUSH1 0x40 ADD PUSH1 0x40 MSTORE DUP1 PUSH32 0x1923F2F39F07D16E03562B8F1EFED58073A457AF74AA02179CED725E015B682C DUP2 MSTORE PUSH1 0x20 ADD PUSH32 0x19FE61C672E47A96A72333D6A66B7D8447ED8838FDA18031D49370F0B7667607 DUP2 MSTORE POP DUP2 MSTORE PUSH1 0x20 ADD PUSH1 0x40 MLOAD DUP1 PUSH1 0x40 ADD PUSH1 0x40 MSTORE DUP1 PUSH32 0x1D5DA06C3E0FCFBE6C9E08F3F0EB1AA56B2927D65F2517BD5ADBDAB0609BC7D7 DUP2 MSTORE PUSH1 0x20 ADD PUSH32 0x3DC485CB2654FA526804696FAE41FED451342BBFBCEE7CC006F4F2271514D73 DUP2 MSTORE POP DUP2 MSTORE PUSH1 0x20 ADD PUSH1 0x40 MLOAD DUP1 PUSH1 0x40 ADD PUSH1 0x40 MSTORE DUP1 PUSH32 0x11AC6AB06BBE07AF99A7B46A2E5B3B9B80F5A57B64298F686C8660E36EA8BF36 DUP2 MSTORE PUSH1 0x20 ADD PUSH32 0xB66B9CF601565D1EA0341ACB52C80D0114F7CF805B0D2A94848782BCD9C285B DUP2 MSTORE POP DUP2 MSTORE POP DUP2 MSTORE PUSH1 0x20 ADD PUSH1 0x40 MLOAD DUP1 PUSH1 0xE0 ADD PUSH1 0x40 MSTORE DUP1 PUSH1 0x40 MLOAD DUP1 PUSH1 0x40 ADD PUSH1 0x40 MSTORE DUP1 PUSH32 0x29F41C6E0E30802E2749BFB0729810876F3423E6F24829AD3E30ADB1934F1C8A DUP2 MSTORE PUSH1 0x20 ADD PUSH32 0x30E7A5F70BB5DAA6E18D80D6D447E772EFB0BB7FB9D0FFCD54FC5A48AF1286D DUP2 MSTORE POP DUP2 MSTORE PUSH1 0x20 ADD PUSH1 0x40 MLOAD DUP1 PUSH1 0x40 ADD PUSH1 0x40 MSTORE DUP1 PUSH32 0xEA726B117E48CDA8BCE2349405F006A84CDD3DCFBA12EFC990DF25970A27B6D DUP2 MSTORE PUSH1 0x20 ADD PUSH32 0x30364CD4F8A293B1A04F0153548D3E01BAAD091C69097CA4E9F26BE63E4095B5 DUP2 MSTORE POP DUP2 MSTORE PUSH1 0x20 ADD PUSH1 0x40 MLOAD DUP1 PUSH1 0x40 ADD PUSH1 0x40 MSTORE DUP1 PUSH32 0x2C097B31A897227A6F64C9FC31D9A8FC421B0D8B8207F92532B464E431E61DB8 DUP2 MSTORE PUSH1 0x20 ADD PUSH32 0xFCF6D89D77D5123A43DFB23EFB9C929C28C148CA82C794057864B8E66903C54 DUP2 MSTORE POP DUP2 MSTORE PUSH1 0x20 ADD PUSH1 0x40 MLOAD DUP1 PUSH1 0x40 ADD PUSH1 0x40 MSTORE DUP1 PUSH32 0x186DAE5999ACFE2CDA6FA7A157AE726AFDA7C6F57B00EA0AA6C2C23BF838388 DUP2 MSTORE PUSH1 0x20 ADD PUSH32 0x2F078608F710C45B60D23716C58E106D8C7A1C6DB28119DEFFFC413E074F8716 DUP2 MSTORE POP DUP2 MSTORE PUSH1 0x20 ADD PUSH1 0x40 MLOAD DUP1 PUSH1 0x40 ADD PUSH1 0x40 MSTORE DUP1 PUSH32 0x2464C1784BDA2CBFB51E5AB87CF7EB2764AD81F7038152BDBBB07D404B49AA37 DUP2 MSTORE PUSH1 0x20 ADD PUSH32 0x638B273E4EE33E03E42CA6C7DE1EA7043DBDCAA48661864DE644D91C6B4821F DUP2 MSTORE POP DUP2 MSTORE PUSH1 0x20 ADD PUSH1 0x40 MLOAD DUP1 PUSH1 0x40 ADD PUSH1 0x40 MSTORE DUP1 PUSH32 0x98CE8B5289EF791DB34B68B9E0043AB7BF25306D83A9F0CE74396B8A69C57BB DUP2 MSTORE PUSH1 0x20 ADD PUSH32 0x1EC6F7A81748F3D2C2B87610D747CA72045AC1530E226F00710630D41AAD7E26 DUP2 MSTORE POP DUP2 MSTORE PUSH1 0x20 ADD PUSH1 0x40 MLOAD DUP1 PUSH1 0x40 ADD PUSH1 0x40 MSTORE DUP1 PUSH32 0x7DBF682CC528D3FF763FA576D05DB50E023921728119EF66F880B6ADAE01CBE DUP2 MSTORE PUSH1 0x20 ADD PUSH32 0xD287DCD9318207576EAA871E7B3308F613D9DF7865059CDBC9F66FDEF342DC6 DUP2 MSTORE POP DUP2 MSTORE POP DUP2 MSTORE PUSH1 0x20 ADD PUSH1 0x40 MLOAD DUP1 PUSH1 0xE0 ADD PUSH1 0x40 MSTORE DUP1 PUSH1 0x40 MLOAD DUP1 PUSH1 0x40 ADD PUSH1 0x40 MSTORE DUP1 PUSH32 0x86D48F63F5C71CF5D49053014FD136B4F528A67C3D2500DC0359017376EF9E9 DUP2 MSTORE PUSH1 0x20 ADD PUSH32 0x13F83D45B3AA4EC86D3B9871CF43CCD7633306B29AF07E7C70B13A212501B9C8 DUP2 MSTORE POP DUP2 MSTORE PUSH1 0x20 ADD PUSH1 0x40 MLOAD DUP1 PUSH1 0x40 ADD PUSH1 0x40 MSTORE DUP1 PUSH32 0x240E3EFC96E362BB9412AAD60AE0EC25D4FCED28AAC3AA803E7287D3B6D425EB DUP2 MSTORE PUSH1 0x20 ADD PUSH32 0x1B7B1EDFF9F984C2EA43D3AAB2487E863A4DEE1C266FA2FC05F2A53BBA124CB5 DUP2 MSTORE POP DUP2 MSTORE PUSH1 0x20 ADD PUSH1 0x40 MLOAD DUP1 PUSH1 0x40 ADD PUSH1 0x40 MSTORE DUP1 PUSH32 0x14FDEA340C7D5E62F830E244237C704E516D90F29A5E71F45928E97BB1603768 DUP2 MSTORE PUSH1 0x20 ADD PUSH32 0x1A0D3B9393C5595D11F31F2CB0B38834D26DEBC568A0B36E26FA93B6B05F70D3 DUP2 MSTORE POP DUP2 MSTORE PUSH1 0x20 ADD PUSH1 0x40 MLOAD DUP1 PUSH1 0x40 ADD PUSH1 0x40 MSTORE DUP1 PUSH32 0x10B7FCB32AFD1649AC4560AFF9047BC52972BEFD38A21B870C0519719AFEE22A DUP2 MSTORE PUSH1 0x20 ADD PUSH32 0x27B1C713B71EFA1EAE72C81675AC78C578FA7AC8718CBD58D84FBE432F3D6783 DUP2 MSTORE POP DUP2 MSTORE PUSH1 0x20 ADD PUSH1 0x40 MLOAD DUP1 PUSH1 0x40 ADD PUSH1 0x40 MSTORE DUP1 PUSH32 0x2AC10655EDCD4C74305D2D323239400BAF8541470936B2E1AC77167E31E8A9E2 DUP2 MSTORE PUSH1 0x20 ADD PUSH31 0x15B63038E94A1D4D5A85C7A666875E7F693A922EA2723A3E39F256B240F607 DUP2 MSTORE POP DUP2 MSTORE PUSH1 0x20 ADD PUSH1 0x40 MLOAD DUP1 PUSH1 0x40 ADD PUSH1 0x40 MSTORE DUP1 PUSH32 0x2ED2A0A894B904559562FB1643C8B69A743E39A15455D6C6A0D668B321479341 DUP2 MSTORE PUSH1 0x20 ADD PUSH32 0x15A2ED81D1AC5A1383524FD4DAF70220034A6F40D643DA7B79F9A20CAB1895B0 DUP2 MSTORE POP DUP2 MSTORE PUSH1 0x20 ADD PUSH1 0x40 MLOAD DUP1 PUSH1 0x40 ADD PUSH1 0x40 MSTORE DUP1 PUSH32 0x190CD68F815B152EB0C8474BE622C18A56D2E518BF6DDBB929AF7D50A2CEDAB9 DUP2 MSTORE PUSH1 0x20 ADD PUSH32 0x34B50D36D6B6DC03D6E6EB0F731EB1DD5DF2F6300A760EAB888E859F45F3875 DUP2 MSTORE POP DUP2 MSTORE POP DUP2 MSTORE PUSH1 0x20 ADD PUSH1 0x40 MLOAD DUP1 PUSH1 0xE0 ADD PUSH1 0x40 MSTORE DUP1 PUSH1 0x40 MLOAD DUP1 PUSH1 0x40 ADD PUSH1 0x40 MSTORE DUP1 PUSH32 0x14F8AE76E209B3857222B80044DFC5BAAAFCF6E30497FAC6910D74DB4F99CBC4 DUP2 MSTORE PUSH1 0x20 ADD PUSH32 0x26F83F4984EB300F438C191AC9C7CEFA55E22CB19FC1C29CC690EB0B03C70116 DUP2 MSTORE POP DUP2 MSTORE PUSH1 0x20 ADD PUSH1 0x40 MLOAD DUP1 PUSH1 0x40 ADD PUSH1 0x40 MSTORE DUP1 PUSH32 0x1B658D7292B467A21E49116237813440D88A76FA6EF89DB931E09B17ED0BE449 DUP2 MSTORE PUSH1 0x20 ADD PUSH32 0x29E759B830C254718FEA4DFBBE6B17EDC38E4B5A43D343EEB473F9894496B79F DUP2 MSTORE POP DUP2 MSTORE PUSH1 0x20 ADD PUSH1 0x40 MLOAD DUP1 PUSH1 0x40 ADD PUSH1 0x40 MSTORE DUP1 PUSH32 0x302DAD4EA4D062EFFD18EC15D4A252B5881E1423A26EC6C859EC09DDC44496B5 DUP2 MSTORE PUSH1 0x20 ADD PUSH32 0x188664EE38C3F83423EB8C75EBC54D7BA95D5A728A3F7186FB4EB96E0702F7DF DUP2 MSTORE POP DUP2 MSTORE PUSH1 0x20 ADD PUSH1 0x40 MLOAD DUP1 PUSH1 0x40 ADD PUSH1 0x40 MSTORE DUP1 PUSH32 0x14D2EC2FCB446A46EA217305921BBAED7B89D6059A3A044DBA8DD6943B0379F4 DUP2 MSTORE PUSH1 0x20 ADD PUSH32 0x239FF36E4D70FEE9088C5E61E7B5974D9726F6C554266BB26608973532913E60 DUP2 MSTORE POP DUP2 MSTORE PUSH1 0x20 ADD PUSH1 0x40 MLOAD DUP1 PUSH1 0x40 ADD PUSH1 0x40 MSTORE DUP1 PUSH32 0x2C56B0E10FFBD7514C0C3E402662681881F06CF50FF9338A73B6F1E5F74CCF05 DUP2 MSTORE PUSH1 0x20 ADD PUSH32 0x20E451924E71FB82D8F77683821FB35996645442B49E4A801B99256E51E66C79 DUP2 MSTORE POP DUP2 MSTORE PUSH1 0x20 ADD PUSH1 0x40 MLOAD DUP1 PUSH1 0x40 ADD PUSH1 0x40 MSTORE DUP1 PUSH32 0x951B7DE5B62BFA1727FC51F791F0E8C9F5A89012FDCF10426BBB9F422EA6EB0 DUP2 MSTORE PUSH1 0x20 ADD PUSH32 0xB8DC77891AA39B647A3E3044C7C2FDD27E06C4AA55C4E54B9A3CF4C4096EDD9 DUP2 MSTORE POP DUP2 MSTORE PUSH1 0x20 ADD PUSH1 0x40 MLOAD DUP1 PUSH1 0x40 ADD PUSH1 0x40 MSTORE DUP1 PUSH32 0xDD1830FEAF2CD658F56300DA9A0A5A8CF324A1ED720C283C86BD37F7484090B DUP2 MSTORE PUSH1 0x20 ADD PUSH32 0x34140E7667AE5210CF863A7C8975117172AF40F2D45E635E5B9F5042BE9BA19 DUP2 MSTORE POP DUP2 MSTORE POP DUP2 MSTORE PUSH1 0x20 ADD PUSH1 0x40 MLOAD DUP1 PUSH1 0xE0 ADD PUSH1 0x40 MSTORE DUP1 PUSH1 0x40 MLOAD DUP1 PUSH1 0x40 ADD PUSH1 0x40 MSTORE DUP1 PUSH32 0x15BC113F408C7E7A786363979AE9279915708775076E86A44495064804663E15 DUP2 MSTORE PUSH1 0x20 ADD PUSH32 0x19393EE4D81D952E8BF375888005C8314C87C632EEBABD7A8D55940B0F7A66F5 DUP2 MSTORE POP DUP2 MSTORE PUSH1 0x20 ADD PUSH1 0x40 MLOAD DUP1 PUSH1 0x40 ADD PUSH1 0x40 MSTORE DUP1 PUSH32 0x1A1F001347928A9A21EA414CCC67C3D1590DC29D437D68FC3AB020EFB6ADA72A DUP2 MSTORE PUSH1 0x20 ADD PUSH32 0x2C265C6B30A34BD323024F87BF2CD5A269E77C50C75E5EA317280785F91EB67C DUP2 MSTORE POP DUP2 MSTORE PUSH1 0x20 ADD PUSH1 0x40 MLOAD DUP1 PUSH1 0x40 ADD PUSH1 0x40 MSTORE DUP1 PUSH32 0x6BCD0EFA27998D5F0DAFFAAD7D6A98E3D0FE589E261F9B30C09169EF4884792 DUP2 MSTORE PUSH1 0x20 ADD PUSH32 0x2CC0792F40378327989245D05E386FCFF9A2A9AA285746043CB3F621AE2F04FB DUP2 MSTORE POP DUP2 MSTORE PUSH1 0x20 ADD PUSH1 0x40 MLOAD DUP1 PUSH1 0x40 ADD PUSH1 0x40 MSTORE DUP1 PUSH32 0xD306D920F3CC9D08DBD4549EBB3DD8D5FA10BD2C0A6663CD08E629157348651 DUP2 MSTORE PUSH1 0x20 ADD PUSH32 0x2D3DF68C9B28BF980DFEA7683EBA674A0415A26017AC2BEF27176B88CA57F936 DUP2 MSTORE POP DUP2 MSTORE PUSH1 0x20 ADD PUSH1 0x40 MLOAD DUP1 PUSH1 0x40 ADD PUSH1 0x40 MSTORE DUP1 PUSH32 0x24B61EF328570152FF83827A0F379F6C542398F3D1BC542C2BC34EDD031E294F DUP2 MSTORE PUSH1 0x20 ADD PUSH32 0x1B03BE64A67B3976E58415DCD6B353B32BE9B0BAD35D2D18B296453A28D985A4 DUP2 MSTORE POP DUP2 MSTORE PUSH1 0x20 ADD PUSH1 0x40 MLOAD DUP1 PUSH1 0x40 ADD PUSH1 0x40 MSTORE DUP1 PUSH32 0x36CB3BE4F36D6F5B34D8808B1E3E2CCB3FB1E3FD249EEA06B1CC6761320B08C DUP2 MSTORE PUSH1 0x20 ADD PUSH32 0x16FA67F812376A8AC79A40970332C6EC7CED15F9539334FE642164284775E1F4 DUP2 MSTORE POP DUP2 MSTORE PUSH1 0x20 ADD PUSH1 0x40 MLOAD DUP1 PUSH1 0x40 ADD PUSH1 0x40 MSTORE DUP1 PUSH32 0x23C611B7426B5DBCE2F272A6046DB21BE35ABADD4293876ECF50D58C5F17B2AE DUP2 MSTORE PUSH1 0x20 ADD PUSH32 0x1B1F0F9654E7D10B58DDAEA64E20ABEE44F52BDD0CB58123B69C9011B497E0DD DUP2 MSTORE POP DUP2 MSTORE POP DUP2 MSTORE PUSH1 0x20 ADD PUSH1 0x40 MLOAD DUP1 PUSH1 0xE0 ADD PUSH1 0x40 MSTORE DUP1 PUSH1 0x40 MLOAD DUP1 PUSH1 0x40 ADD PUSH1 0x40 MSTORE DUP1 PUSH32 0x213DB2BDFB128FEC0E98D364B9109CAF26D66CACBBC808535AF07AF00200ACC6 DUP2 MSTORE PUSH1 0x20 ADD PUSH32 0x164EC2E66021720A0D70B0CC70597ED748F0AF9B080F5E789A821DE5B0A91A1A DUP2 MSTORE POP DUP2 MSTORE PUSH1 0x20 ADD PUSH1 0x40 MLOAD DUP1 PUSH1 0x40 ADD PUSH1 0x40 MSTORE DUP1 PUSH32 0x2F2F2C0CC9D9B911A348466A4749C3A49D2629C9DDE430EC9474F2BB06FC7F2F DUP2 MSTORE PUSH1 0x20 ADD PUSH32 0x173B3259B29D0E0C0176E2424BEE65405BDD1E611BB933C19F5BFED931AAB21E DUP2 MSTORE POP DUP2 MSTORE PUSH1 0x20 ADD PUSH1 0x40 MLOAD DUP1 PUSH1 0x40 ADD PUSH1 0x40 MSTORE DUP1 PUSH32 0x2B501C6317C16D185D7797DB4B8735388AB31AA4D5D022502DCE7C0FA5F30E3B DUP2 MSTORE PUSH1 0x20 ADD PUSH32 0x5E94A656BE4A2F9128583762DC9E007D450315E71EF4D6CF82E64EE74325562 DUP2 MSTORE POP DUP2 MSTORE PUSH1 0x20 ADD PUSH1 0x40 MLOAD DUP1 PUSH1 0x40 ADD PUSH1 0x40 MSTORE DUP1 PUSH32 0x1DA680138DD3BDD851D6EDCB441A137301CA1902C6C50036B27153520AEE7FB4 DUP2 MSTORE PUSH1 0x20 ADD PUSH32 0x25FC89274231E8228CBA90E52607039681D60F5D6B3A07FB429D116F53A4443D DUP2 MSTORE POP DUP2 MSTORE PUSH1 0x20 ADD PUSH1 0x40 MLOAD DUP1 PUSH1 0x40 ADD PUSH1 0x40 MSTORE DUP1 PUSH32 0x2A5036A81225C106605E7233124414CA2359360B60F19DA736E6B4EBCFC9CE54 DUP2 MSTORE PUSH1 0x20 ADD PUSH32 0x1F939F972AD716E18A465E4C5EC3669976B77364106A0CD73418BA058B7884CD DUP2 MSTORE POP DUP2 MSTORE PUSH1 0x20 ADD PUSH1 0x40 MLOAD DUP1 PUSH1 0x40 ADD PUSH1 0x40 MSTORE DUP1 PUSH32 0x2C9F9C6DFD0AA6E591235AD81A9923FE056846CA742E53AF6A571EC00519D9B5 DUP2 MSTORE PUSH1 0x20 ADD PUSH32 0xB8C60480C49DCFAD4A82226600A9569494567E627301779E35B9BF8E0FE43D3 DUP2 MSTORE POP DUP2 MSTORE PUSH1 0x20 ADD PUSH1 0x40 MLOAD DUP1 PUSH1 0x40 ADD PUSH1 0x40 MSTORE DUP1 PUSH32 0x1B447EB43A748829489DE9E667C53A3053498F9ADAA59B0BEDCC7C8B463F5154 DUP2 MSTORE PUSH1 0x20 ADD PUSH32 0x85FB2AEA389C48F2E7D17242F64B5BC3506CDF55B20BF9395DA0E2F749BB09E DUP2 MSTORE POP DUP2 MSTORE POP DUP2 MSTORE PUSH1 0x20 ADD PUSH1 0x40 MLOAD DUP1 PUSH1 0xE0 ADD PUSH1 0x40 MSTORE DUP1 PUSH1 0x40 MLOAD DUP1 PUSH1 0x40 ADD PUSH1 0x40 MSTORE DUP1 PUSH32 0x22C048AF0497A1F7D9822F8B3EDB498F614B85CE744FFE3E6FF58119D1618542 DUP2 MSTORE PUSH1 0x20 ADD PUSH31 0x18987C19177CA3EF0A85089090A97D608E3A9648B25D4AE1F673C134C591E0 DUP2 MSTORE POP DUP2 MSTORE PUSH1 0x20 ADD PUSH1 0x40 MLOAD DUP1 PUSH1 0x40 ADD PUSH1 0x40 MSTORE DUP1 PUSH32 0x18D7D7154F3E946F1D5930F5C95F3B76BF39CFD3CC0266D8E9565DF8E1CE6083 DUP2 MSTORE PUSH1 0x20 ADD PUSH32 0x97BA0C470041AAA08B64E9BF5A1BFE568D9A7689A7C597BC5C87FD9ACC1C0AE DUP2 MSTORE POP DUP2 MSTORE PUSH1 0x20 ADD PUSH1 0x40 MLOAD DUP1 PUSH1 0x40 ADD PUSH1 0x40 MSTORE DUP1 PUSH32 0x29141DF1097C02A70AC3504A99EE5E8BFBEA03AAE01A3C2AB86EBE0CB9265F5F DUP2 MSTORE PUSH1 0x20 ADD PUSH32 0x2D5BBFEF49B2E4745D3A349DD67A035CFD4CE9313D3A20911376B21EC05E8B37 DUP2 MSTORE POP DUP2 MSTORE PUSH1 0x20 ADD PUSH1 0x40 MLOAD DUP1 PUSH1 0x40 ADD PUSH1 0x40 MSTORE DUP1 PUSH32 0x2C4EF818E2918B7C272380C498E5C402928E4598ADF31DB243B591362011587E DUP2 MSTORE PUSH1 0x20 ADD PUSH32 0xDFCBEEE8258030EE712429F77D640767A137FD809BD80027218D6719C14FE7F DUP2 MSTORE POP DUP2 MSTORE PUSH1 0x20 ADD PUSH1 0x40 MLOAD DUP1 PUSH1 0x40 ADD PUSH1 0x40 MSTORE DUP1 PUSH32 0x1D55F8C7220CC6989034A2259E5764A0687C9410421FA5408174906D1511D83E DUP2 MSTORE PUSH1 0x20 ADD PUSH32 0x1471DD2D031A794968EAAF6A8E5551FBC8163C20617876438D535B2B383172E1 DUP2 MSTORE POP DUP2 MSTORE PUSH1 0x20 ADD PUSH1 0x40 MLOAD DUP1 PUSH1 0x40 ADD PUSH1 0x40 MSTORE DUP1 PUSH32 0xDDB36C33249944AC8BF7F0222F37712681D705BCE9E0EF786FB6283306A255D DUP2 MSTORE PUSH1 0x20 ADD PUSH32 0x40D0656B2BBA0B1B3C21822EA3FD5671359A1A04D76473B68217B4616F9559D DUP2 MSTORE POP DUP2 MSTORE PUSH1 0x20 ADD PUSH1 0x40 MLOAD DUP1 PUSH1 0x40 ADD PUSH1 0x40 MSTORE DUP1 PUSH32 0x24CFF40932A3DB30DE20C16B20E68497CB42C750483824C3EF371F4E9045C6BD DUP2 MSTORE PUSH1 0x20 ADD PUSH32 0x1F431DCCBA254912B6A795EE36DCD115094CB44367768ABDC27BBC5669EB8A32 DUP2 MSTORE POP DUP2 MSTORE POP DUP2 MSTORE PUSH1 0x20 ADD PUSH1 0x40 MLOAD DUP1 PUSH1 0xE0 ADD PUSH1 0x40 MSTORE DUP1 PUSH1 0x40 MLOAD DUP1 PUSH1 0x40 ADD PUSH1 0x40 MSTORE DUP1 PUSH32 0x3CF7157ABA9C6BE40A06864FA2C0E06F7178133D9C3768FF3982814946B0F7D DUP2 MSTORE PUSH1 0x20 ADD PUSH32 0x8E4F2655701B165858A2FC04D15297C282AEC942C4A521CBE687772A2A775AD DUP2 MSTORE POP DUP2 MSTORE PUSH1 0x20 ADD PUSH1 0x40 MLOAD DUP1 PUSH1 0x40 ADD PUSH1 0x40 MSTORE DUP1 PUSH32 0x10EAB11AF7F34E5CDB73B010A98D7F18C7410EEC5D8EB1B4526359F5AB246B2D DUP2 MSTORE PUSH1 0x20 ADD PUSH32 0x2727DFB72DE41BCD49E47C8940BFE75B600BD39467763BAECC6F8087130866D9 DUP2 MSTORE POP DUP2 MSTORE PUSH1 0x20 ADD PUSH1 0x40 MLOAD DUP1 PUSH1 0x40 ADD PUSH1 0x40 MSTORE DUP1 PUSH32 0x96440BCF7534FD07CA2A941AD8FB743C49C0A5684920EE13E992F3AB8342AF9 DUP2 MSTORE PUSH1 0x20 ADD PUSH32 0x200EECD036971149677FDD19A7F2DC2E2A33A460211994ADCE7F967DA2920B9D DUP2 MSTORE POP DUP2 MSTORE PUSH1 0x20 ADD PUSH1 0x40 MLOAD DUP1 PUSH1 0x40 ADD PUSH1 0x40 MSTORE DUP1 PUSH32 0x2EE692DEEA7671684657A2EE16FFB165DD3BFD3CB8AF86620B7D0FEEAAD66248 DUP2 MSTORE PUSH1 0x20 ADD PUSH32 0x328FEC7C2EC04F0A7375C917F31EE23AF341252C71051E8CD9A80CE9080121B DUP2 MSTORE POP DUP2 MSTORE PUSH1 0x20 ADD PUSH1 0x40 MLOAD DUP1 PUSH1 0x40 ADD PUSH1 0x40 MSTORE DUP1 PUSH32 0x1B8F18E1106FA4188030C6C00B7A9B76BC309FFADB11F47D5FF38BD616F06E60 DUP2 MSTORE PUSH1 0x20 ADD PUSH32 0x9ADB161ECC2264110216D13CD5DAD70D58DCC398F9431844F9FAEF1BAABEECE DUP2 MSTORE POP DUP2 MSTORE PUSH1 0x20 ADD PUSH1 0x40 MLOAD DUP1 PUSH1 0x40 ADD PUSH1 0x40 MSTORE DUP1 PUSH32 0x18F1F7AA58CECCA54D15B583367484DA5DFC809734621C5699E4F812131B2859 DUP2 MSTORE PUSH1 0x20 ADD PUSH32 0x2F73D9C341A4BB3A5737672B5E6191848505C5BA127370425286901BF628B438 DUP2 MSTORE POP DUP2 MSTORE PUSH1 0x20 ADD PUSH1 0x40 MLOAD DUP1 PUSH1 0x40 ADD PUSH1 0x40 MSTORE DUP1 PUSH32 0x2B869CFD2665DA2A22C29622642595EDD5BCDED7E84209A1A0CD0A07C2D0C743 DUP2 MSTORE PUSH1 0x20 ADD PUSH32 0x9D3DFE76C7B340C97705915C61F06591D27C5E3EC9E9A91582188298AAB2598 DUP2 MSTORE POP DUP2 MSTORE POP DUP2 MSTORE PUSH1 0x20 ADD PUSH1 0x40 MLOAD DUP1 PUSH1 0xE0 ADD PUSH1 0x40 MSTORE DUP1 PUSH1 0x40 MLOAD DUP1 PUSH1 0x40 ADD PUSH1 0x40 MSTORE DUP1 PUSH32 0x1A62DAC147FD2D28C728DD7692A3505C43FA3AC0D580ACDE5208AF76827A414 DUP2 MSTORE PUSH1 0x20 ADD PUSH32 0x1D088B6D1F7C61F16092A5E2EF4A1F9743DB839996D5E3E055B020D21C807A43 DUP2 MSTORE POP DUP2 MSTORE PUSH1 0x20 ADD PUSH1 0x40 MLOAD DUP1 PUSH1 0x40 ADD PUSH1 0x40 MSTORE DUP1 PUSH32 0x4B3B6AE3A5A0590CF6C632DD5B19FAD64B35508945E76465BAAB77EAB5A7544 DUP2 MSTORE PUSH1 0x20 ADD PUSH32 0x2E3A6B4C59E33E5D9F5F309887F89B55E69614D8AE0FDC337F658A880E4BB2E7 DUP2 MSTORE POP DUP2 MSTORE PUSH1 0x20 ADD PUSH1 0x40 MLOAD DUP1 PUSH1 0x40 ADD PUSH1 0x40 MSTORE DUP1 PUSH32 0x77DF97D4AD49AFC58E0990D3F4C43FB5A66DE4FDB6C149212DADD1120DA9DD1 DUP2 MSTORE PUSH1 0x20 ADD PUSH32 0x2E7590FDDECE695CF2E40C353691BBAF6E48A631B799DC51EA400DB7168FC6EE DUP2 MSTORE POP DUP2 MSTORE PUSH1 0x20 ADD PUSH1 0x40 MLOAD DUP1 PUSH1 0x40 ADD PUSH1 0x40 MSTORE DUP1 PUSH32 0x1742DAB9E730EAFB41B052F0F9452B449D3424442DF19E5E9CA46B1EB37EDE18 DUP2 MSTORE PUSH1 0x20 ADD PUSH32 0x1D3005DF367BEE452065F076925DF17570F53F8C90F66780D986343035CDBD97 DUP2 MSTORE POP DUP2 MSTORE PUSH1 0x20 ADD PUSH1 0x40 MLOAD DUP1 PUSH1 0x40 ADD PUSH1 0x40 MSTORE DUP1 PUSH32 0x23C00B1148EB39BF17C89E79BF445D07D112D956D3E1A07048FE1D937D000410 DUP2 MSTORE PUSH1 0x20 ADD PUSH32 0xD46B3410227AA67C7130DA647213A8C964536737735218DF087DB3C101CE349 DUP2 MSTORE POP DUP2 MSTORE PUSH1 0x20 ADD PUSH1 0x40 MLOAD DUP1 PUSH1 0x40 ADD PUSH1 0x40 MSTORE DUP1 PUSH32 0x16B7CAD8BBCC92747EA1B6D25279E35222F5F5887691FEEE05FE82E04F3665DC DUP2 MSTORE PUSH1 0x20 ADD PUSH32 0xD2ABB809FB2AD694B1688BC906EC63B5F6155F0D45939C0D2AB96A70BDA1665 DUP2 MSTORE POP DUP2 MSTORE PUSH1 0x20 ADD PUSH1 0x40 MLOAD DUP1 PUSH1 0x40 ADD PUSH1 0x40 MSTORE DUP1 PUSH32 0x2A230EBD4006758BADC83062C05A841F6467045EE5D4B5952EF2C6E786ED4BFF DUP2 MSTORE PUSH1 0x20 ADD PUSH32 0x2A742766BA7E97CF0D388821CBB1CA01D0102C3B7880E9C976B19C5E2A698F0B DUP2 MSTORE POP DUP2 MSTORE POP DUP2 MSTORE PUSH1 0x20 ADD PUSH1 0x40 MLOAD DUP1 PUSH1 0xE0 ADD PUSH1 0x40 MSTORE DUP1 PUSH1 0x40 MLOAD DUP1 PUSH1 0x40 ADD PUSH1 0x40 MSTORE DUP1 PUSH32 0xA1142B39CAC59D311FDA518C2D4EAADAF36319A0B1CB5624B52B11768062A19 DUP2 MSTORE PUSH1 0x20 ADD PUSH32 0x2538A481CEE0A6745650435DD283EBE8A0186824A30756D83B6AFDD7FA6186E8 DUP2 MSTORE POP DUP2 MSTORE PUSH1 0x20 ADD PUSH1 0x40 MLOAD DUP1 PUSH1 0x40 ADD PUSH1 0x40 MSTORE DUP1 PUSH32 0x73C0D6EF96D93468E746FE7A9688F3053D5C9A96C3A2B039B7096CA0A3A9CAE DUP2 MSTORE PUSH1 0x20 ADD PUSH32 0x1EE855A906702A4D58AF8E0A49C4DB6D58DA5F166AD7283223B079B96E97734 DUP2 MSTORE POP DUP2 MSTORE PUSH1 0x20 ADD PUSH1 0x40 MLOAD DUP1 PUSH1 0x40 ADD PUSH1 0x40 MSTORE DUP1 PUSH32 0x115EE58656B27D353EAF5E01DE11F58159D35750E4DF5753C25AD967A5883409 DUP2 MSTORE PUSH1 0x20 ADD PUSH32 0x19E20D0D752F4A8FEB8AA3184B57129077B63D6C7023F816F54D470BD51751BE DUP2 MSTORE POP DUP2 MSTORE PUSH1 0x20 ADD PUSH1 0x40 MLOAD DUP1 PUSH1 0x40 ADD PUSH1 0x40 MSTORE DUP1 PUSH32 0x66A9E5FBC3E8612B3401E42BEFC4B9F5E3428BF08EC91EF104CDE862E53C54A DUP2 MSTORE PUSH1 0x20 ADD PUSH32 0x90C13B76BC68D4307215F8025BBFA13E003ACCC57B6055B629F13F2E87383D9 DUP2 MSTORE POP DUP2 MSTORE PUSH1 0x20 ADD PUSH1 0x40 MLOAD DUP1 PUSH1 0x40 ADD PUSH1 0x40 MSTORE DUP1 PUSH32 0x28A2FB7C5E7425E4B49B1865AD6B43C8BA34C642F58AEE8DB5D352F93201A7AC DUP2 MSTORE PUSH1 0x20 ADD PUSH32 0x2010477774686EF83E8F2AF52B3B04795E145B0228CD6AF3E60C0EA87C87B1D0 DUP2 MSTORE POP DUP2 MSTORE PUSH1 0x20 ADD PUSH1 0x40 MLOAD DUP1 PUSH1 0x40 ADD PUSH1 0x40 MSTORE DUP1 PUSH32 0x6260E7C05CA5AD151092A548392246CB2D3CA6FBEAA07BA5AA629977702698D DUP2 MSTORE PUSH1 0x20 ADD PUSH32 0x7BCF63A827724040C9944CC4314D740CD02A1D7FDDD54AD6AA8DA63E83CA524 DUP2 MSTORE POP DUP2 MSTORE PUSH1 0x20 ADD PUSH1 0x40 MLOAD DUP1 PUSH1 0x40 ADD PUSH1 0x40 MSTORE DUP1 PUSH32 0x13A1F861A361A435D3C15AD8BE0F73AFE724F09A86F2F0BC8731889232A258ED DUP2 MSTORE PUSH1 0x20 ADD PUSH32 0x2A2EEAF8FB3EA2C877E411B9B541ABC46BE4B2782BFF6EC46157FE8D1F546B28 DUP2 MSTORE POP DUP2 MSTORE POP DUP2 MSTORE PUSH1 0x20 ADD PUSH1 0x40 MLOAD DUP1 PUSH1 0xE0 ADD PUSH1 0x40 MSTORE DUP1 PUSH1 0x40 MLOAD DUP1 PUSH1 0x40 ADD PUSH1 0x40 MSTORE DUP1 PUSH32 0x1008AD7B2099AE56DC0478B9B79DC31C9D9973352EE80A724EC1BE777D49E5EF DUP2 MSTORE PUSH1 0x20 ADD PUSH32 0x10CE43AF4007CB53217273748EFF14EA3894D61D16B4D25C7E4AE5C28EDC85CC DUP2 MSTORE POP DUP2 MSTORE PUSH1 0x20 ADD PUSH1 0x40 MLOAD DUP1 PUSH1 0x40 ADD PUSH1 0x40 MSTORE DUP1 PUSH31 0xF71C6A739CF1C46D111EA159ECFE61278F110BC41F61B4D87D10C8643AD3DC DUP2 MSTORE PUSH1 0x20 ADD PUSH32 0x28E6B34E8D433462F6FD110DDB1B39BAB64BFC4CD5AA802FB96A2D73970C336C DUP2 MSTORE POP DUP2 MSTORE PUSH1 0x20 ADD PUSH1 0x40 MLOAD DUP1 PUSH1 0x40 ADD PUSH1 0x40 MSTORE DUP1 PUSH32 0x28BDB5A19BBAC721CD1599254AE6278EBF250F1C5D569DC3128E21F11A5D3427 DUP2 MSTORE PUSH1 0x20 ADD PUSH32 0xBB76843462A16985E13A6DC0592851549070EA3293C187D63F0DF32F0DD6936 DUP2 MSTORE POP DUP2 MSTORE PUSH1 0x20 ADD PUSH1 0x40 MLOAD DUP1 PUSH1 0x40 ADD PUSH1 0x40 MSTORE DUP1 PUSH32 0x942698159A2EF1D9A9420193D83BF956081197E10AC7AB550EBD932AAF19E90 DUP2 MSTORE PUSH1 0x20 ADD PUSH32 0x60403214A5DD63E1F8AD5821A89EB3FD389856B2D9E6D3915F6A26DFDE89993 DUP2 MSTORE POP DUP2 MSTORE PUSH1 0x20 ADD PUSH1 0x40 MLOAD DUP1 PUSH1 0x40 ADD PUSH1 0x40 MSTORE DUP1 PUSH32 0x1D4EE42FEB438C818D15BADDE8D1BA7C615D85E6C9E93DF8605470D5760F7192 DUP2 MSTORE PUSH1 0x20 ADD PUSH32 0x17B47A9569D5EC3BDDAFDA249AC91E97070D549979262CF3692242CAA17C459B DUP2 MSTORE POP DUP2 MSTORE PUSH1 0x20 ADD PUSH1 0x40 MLOAD DUP1 PUSH1 0x40 ADD PUSH1 0x40 MSTORE DUP1 PUSH32 0x15B8453B386C5563CCE2A22AF5430B941BB1709202F58EF9C4A48413D9E499C1 DUP2 MSTORE PUSH1 0x20 ADD PUSH32 0x22D52AB21357018EB24CE7508C0D04130C1DDEA4A5136CB73EE58063BD8584AF DUP2 MSTORE POP DUP2 MSTORE PUSH1 0x20 ADD PUSH1 0x40 MLOAD DUP1 PUSH1 0x40 ADD PUSH1 0x40 MSTORE DUP1 PUSH32 0x2ECF342DEB9FE786CA4772C3A0B3CACAE3AB5D1942E0A08EB4696041D5763071 DUP2 MSTORE PUSH1 0x20 ADD PUSH32 0x1EB6D6DA821F70EB0B7B9372CFDDE917839D8977B90B5AD48F472B33AC648509 DUP2 MSTORE POP DUP2 MSTORE POP DUP2 MSTORE PUSH1 0x20 ADD PUSH1 0x40 MLOAD DUP1 PUSH1 0xE0 ADD PUSH1 0x40 MSTORE DUP1 PUSH1 0x40 MLOAD DUP1 PUSH1 0x40 ADD PUSH1 0x40 MSTORE DUP1 PUSH32 0x168E4FDDAC50A40D5BCFF39C7FA9207CD368444C0C01A86690A6645B52F3AA1F DUP2 MSTORE PUSH1 0x20 ADD PUSH32 0x2139A256456825DAA623957C4F2EA1A0D26F135769E450759142A7159B0A4476 DUP2 MSTORE POP DUP2 MSTORE PUSH1 0x20 ADD PUSH1 0x40 MLOAD DUP1 PUSH1 0x40 ADD PUSH1 0x40 MSTORE DUP1 PUSH32 0x28DEBA4ED0A3B79DBC6A7DAC67C07051F421904DE49DCD7AE91AAF1223BC6D63 DUP2 MSTORE PUSH1 0x20 ADD PUSH32 0x1C3976C9A490DAD50E601586279BB60F12416A8CC141710167FCDC0DC931BFFD DUP2 MSTORE POP DUP2 MSTORE PUSH1 0x20 ADD PUSH1 0x40 MLOAD DUP1 PUSH1 0x40 ADD PUSH1 0x40 MSTORE DUP1 PUSH32 0x335F514C2ACB9B255AAE85514122267CD7D16E374C6231A2C34417D34491254 DUP2 MSTORE PUSH1 0x20 ADD PUSH32 0x7FA1580C1CC3ED4F6D660C6F60F86AFEDD8A12FB90B2E8ED4F7E310C88B97F7 DUP2 MSTORE POP DUP2 MSTORE PUSH1 0x20 ADD PUSH1 0x40 MLOAD DUP1 PUSH1 0x40 ADD PUSH1 0x40 MSTORE DUP1 PUSH32 0x20B781DD0DB3B7980A4B3814128C86E597E1442D0FC9EB7F932A5229494D6B79 DUP2 MSTORE PUSH1 0x20 ADD PUSH32 0x17D1CEF436EB2F665670C7B34854E62C227043A7B111A539C0295518BBAB3CA9 DUP2 MSTORE POP DUP2 MSTORE PUSH1 0x20 ADD PUSH1 0x40 MLOAD DUP1 PUSH1 0x40 ADD PUSH1 0x40 MSTORE DUP1 PUSH32 0x260945445B4205F874AB7E203A18240E51C9D3C896EA300D40132B1C2F50299A DUP2 MSTORE PUSH1 0x20 ADD PUSH32 0x11087A8B76B0F957E1C482C909302916795F811A06866059E403689C01C903FB DUP2 MSTORE POP DUP2 MSTORE PUSH1 0x20 ADD PUSH1 0x40 MLOAD DUP1 PUSH1 0x40 ADD PUSH1 0x40 MSTORE DUP1 PUSH32 0x11D20FD81C0E5CF48BA1469CCB8AC99DCDC7CF746A6E70762A939D63DCC52DBF DUP2 MSTORE PUSH1 0x20 ADD PUSH32 0x2D447C5F134EFF527D7BCAACE88B3842C42B800D8DC049E0A6E72F5EFC14293D DUP2 MSTORE POP DUP2 MSTORE PUSH1 0x20 ADD PUSH1 0x40 MLOAD DUP1 PUSH1 0x40 ADD PUSH1 0x40 MSTORE DUP1 PUSH32 0x107CD54A1606A6A873BED4C1B76AF48975E66DCF6C127B4C799AD4FDD230B87C DUP2 MSTORE PUSH1 0x20 ADD PUSH32 0x1A51B81F6C07725EBCC56EBB1C482B99340EAA9BCB86CC09AED6F58A28E530B6 DUP2 MSTORE POP DUP2 MSTORE POP DUP2 MSTORE PUSH1 0x20 ADD PUSH1 0x40 MLOAD DUP1 PUSH1 0xE0 ADD PUSH1 0x40 MSTORE DUP1 PUSH1 0x40 MLOAD DUP1 PUSH1 0x40 ADD PUSH1 0x40 MSTORE DUP1 PUSH32 0x21026F2492115BC10AD0A5D50CF101474FB0C5E53B25612D8156989BB8CBBED6 DUP2 MSTORE PUSH1 0x20 ADD PUSH32 0x1E4048744F2E211FFA8CFAC1D2EFBAE21234BFAA15C8D640171182C9B386E8E2 DUP2 MSTORE POP DUP2 MSTORE PUSH1 0x20 ADD PUSH1 0x40 MLOAD DUP1 PUSH1 0x40 ADD PUSH1 0x40 MSTORE DUP1 PUSH32 0x295AED6C2486154603E450F3D49B39FEE1BF9FFC4BC4194F403A02D66E7954F6 DUP2 MSTORE PUSH1 0x20 ADD PUSH32 0x2F2045B5A78523C7892E775D7F8FE805563ACEBD5AB053745EA735AB7930AFA5 DUP2 MSTORE POP DUP2 MSTORE PUSH1 0x20 ADD PUSH1 0x40 MLOAD DUP1 PUSH1 0x40 ADD PUSH1 0x40 MSTORE DUP1 PUSH32 0x1BEB6FBFBC70FB2711BC7C187CF0EC4B63EF6651B02742C9FE71DE1AEF7FFDB1 DUP2 MSTORE PUSH1 0x20 ADD PUSH32 0x215E8105A1A572B106C2BB0D1F0170BBF8FFDA20957EA14B709A7F6CC778F966 DUP2 MSTORE POP DUP2 MSTORE PUSH1 0x20 ADD PUSH1 0x40 MLOAD DUP1 PUSH1 0x40 ADD PUSH1 0x40 MSTORE DUP1 PUSH32 0xE9404F55D91E9964E7B921158995A81097CF27B017273CC2C133107C6534837 DUP2 MSTORE PUSH1 0x20 ADD PUSH32 0x2902B31B20C04311298F9B90026980B7963A001834FA663EB83636EC5FDB7B6B DUP2 MSTORE POP DUP2 MSTORE PUSH1 0x20 ADD PUSH1 0x40 MLOAD DUP1 PUSH1 0x40 ADD PUSH1 0x40 MSTORE DUP1 PUSH32 0xDDD515B58AA44C26B377E2C82C83C7D75722131EE7139DDB18082E2DA8DDDA0 DUP2 MSTORE PUSH1 0x20 ADD PUSH31 0xC958A799E9A65DF6BD806E7BB76140D415CA61D1FFC2B2351B12E85553268A DUP2 MSTORE POP DUP2 MSTORE PUSH1 0x20 ADD PUSH1 0x40 MLOAD DUP1 PUSH1 0x40 ADD PUSH1 0x40 MSTORE DUP1 PUSH32 0x4ADB15295C975C172A9A508C71DEE5517223306CD091FB9881D0DCA5D57D1D2 DUP2 MSTORE PUSH1 0x20 ADD PUSH32 0x8DA6902B366D39B8A7EF07C831486AABBF834BBD07813BDCDB92BE7850B2CA6 DUP2 MSTORE POP DUP2 MSTORE PUSH1 0x20 ADD PUSH1 0x40 MLOAD DUP1 PUSH1 0x40 ADD PUSH1 0x40 MSTORE DUP1 PUSH32 0x94CE0BA5287BD96C37794306FE6B0C5541FC77F05AAB2B4B8A80564D086BFCC DUP2 MSTORE PUSH1 0x20 ADD PUSH32 0x2AD90CDEFDB6C12EDC35CF483E270516B0AD3ED872DAD6031EC705FBA888258B DUP2 MSTORE POP DUP2 MSTORE POP DUP2 MSTORE PUSH1 0x20 ADD PUSH1 0x40 MLOAD DUP1 PUSH1 0xE0 ADD PUSH1 0x40 MSTORE DUP1 PUSH1 0x40 MLOAD DUP1 PUSH1 0x40 ADD PUSH1 0x40 MSTORE DUP1 PUSH32 0x1B3A2DEB5F90E41493BD6ECA49124FFD998376CC19DF2A131F619A9297E76AB2 DUP2 MSTORE PUSH1 0x20 ADD PUSH32 0x29FEAD8CBC4C7D473DD6A1F39E066C1A3B065C3D02407B8D977A6F4DC528E544 DUP2 MSTORE POP DUP2 MSTORE PUSH1 0x20 ADD PUSH1 0x40 MLOAD DUP1 PUSH1 0x40 ADD PUSH1 0x40 MSTORE DUP1 PUSH32 0x27D69EF118055FCEB37561E935FA4927952116AC0C00FBB8D2131AB68E12D9B0 DUP2 MSTORE PUSH1 0x20 ADD PUSH32 0x1C17E9A456E1A74448A960DCFE32F84BC0FA84F1EA428F907F0AE9E3DB1E4F4D DUP2 MSTORE POP DUP2 MSTORE PUSH1 0x20 ADD PUSH1 0x40 MLOAD DUP1 PUSH1 0x40 ADD PUSH1 0x40 MSTORE DUP1 PUSH32 0x5BB401EA4577A1CF48CB24F6668AE5A9621B808D302044B53016F7F29FCE06B DUP2 MSTORE PUSH1 0x20 ADD PUSH32 0x1A31802B5590506650D4BDB3B20C9AE4AEC7A5E1430202EC52FBAA35C78B08A3 DUP2 MSTORE POP DUP2 MSTORE PUSH1 0x20 ADD PUSH1 0x40 MLOAD DUP1 PUSH1 0x40 ADD PUSH1 0x40 MSTORE DUP1 PUSH32 0x7664B2723C11DCCC1E71F59742B84568E6A5D1B7DF21CD86F02F976047A2DF6 DUP2 MSTORE PUSH1 0x20 ADD PUSH32 0x22D6D128FB4F49C32DAE5F249410AAF0B2E039A9FB0F8AEA8929DA4BBE0CF357 DUP2 MSTORE POP DUP2 MSTORE PUSH1 0x20 ADD PUSH1 0x40 MLOAD DUP1 PUSH1 0x40 ADD PUSH1 0x40 MSTORE DUP1 PUSH32 0x2D62D32C2AB7039C0294535B501330CC326AFFB6AC0C4D34A1971857FC5A5B15 DUP2 MSTORE PUSH1 0x20 ADD PUSH32 0x27DA035244E64180B7ABFD1EB92E132275274B72B09A52FC42AEBFB66E0068EB DUP2 MSTORE POP DUP2 MSTORE PUSH1 0x20 ADD PUSH1 0x40 MLOAD DUP1 PUSH1 0x40 ADD PUSH1 0x40 MSTORE DUP1 PUSH32 0x15AA7FB602DF2AEF2504640EBE99A0EB203F1891304B2B9635618CBFC9B56B34 DUP2 MSTORE PUSH1 0x20 ADD PUSH32 0xB0D0C477AFC716D17D46ACFA3DDA4638919EC8092570B87178955F2CAD9FDFB DUP2 MSTORE POP DUP2 MSTORE PUSH1 0x20 ADD PUSH1 0x40 MLOAD DUP1 PUSH1 0x40 ADD PUSH1 0x40 MSTORE DUP1 PUSH32 0x23C3983AC2B053FF6CAB78D798397F954174F60664BC127A0BABE5CB4E85A9DC DUP2 MSTORE PUSH1 0x20 ADD PUSH32 0x305E217ED6D494F993FA931A22615957DA6FD13BC9CAE958AD4D3A48C7CBBF87 DUP2 MSTORE POP DUP2 MSTORE POP DUP2 MSTORE POP PUSH1 0x0 SWAP1 PUSH1 0x11 PUSH3 0x2ADF SWAP3 SWAP2 SWAP1 PUSH3 0x2AF4 JUMP JUMPDEST POP CALLVALUE DUP1 ISZERO PUSH3 0x2AED JUMPI PUSH1 0x0 DUP1 REVERT JUMPDEST POP PUSH3 0x2C7E JUMP JUMPDEST DUP3 PUSH1 0x11 PUSH1 0xE MUL DUP2 ADD SWAP3 DUP3 ISZERO PUSH3 0x2B39 JUMPI SWAP2 PUSH1 0x20 MUL DUP3 ADD JUMPDEST DUP3 DUP2 GT ISZERO PUSH3 0x2B38 JUMPI DUP3 MLOAD DUP3 SWAP1 PUSH1 0x7 PUSH3 0x2B27 SWAP3 SWAP2 SWAP1 PUSH3 0x2B4C JUMP JUMPDEST POP SWAP2 PUSH1 0x20 ADD SWAP2 SWAP1 PUSH1 0xE ADD SWAP1 PUSH3 0x2B0B JUMP JUMPDEST JUMPDEST POP SWAP1 POP PUSH3 0x2B48 SWAP2 SWAP1 PUSH3 0x2BA4 JUMP JUMPDEST POP SWAP1 JUMP JUMPDEST DUP3 PUSH1 0x7 PUSH1 0x2 MUL DUP2 ADD SWAP3 DUP3 ISZERO PUSH3 0x2B91 JUMPI SWAP2 PUSH1 0x20 MUL DUP3 ADD JUMPDEST DUP3 DUP2 GT ISZERO PUSH3 0x2B90 JUMPI DUP3 MLOAD DUP3 SWAP1 PUSH1 0x2 PUSH3 0x2B7F SWAP3 SWAP2 SWAP1 PUSH3 0x2BCC JUMP JUMPDEST POP SWAP2 PUSH1 0x20 ADD SWAP2 SWAP1 PUSH1 0x2 ADD SWAP1 PUSH3 0x2B63 JUMP JUMPDEST JUMPDEST POP SWAP1 POP PUSH3 0x2BA0 SWAP2 SWAP1 PUSH3 0x2C11 JUMP JUMPDEST POP SWAP1 JUMP JUMPDEST JUMPDEST DUP1 DUP3 GT ISZERO PUSH3 0x2BC8 JUMPI PUSH1 0x0 DUP2 DUP2 PUSH3 0x2BBE SWAP2 SWAP1 PUSH3 0x2C39 JUMP JUMPDEST POP PUSH1 0xE ADD PUSH3 0x2BA5 JUMP JUMPDEST POP SWAP1 JUMP JUMPDEST DUP3 PUSH1 0x2 DUP2 ADD SWAP3 DUP3 ISZERO PUSH3 0x2BFE JUMPI SWAP2 PUSH1 0x20 MUL DUP3 ADD JUMPDEST DUP3 DUP2 GT ISZERO PUSH3 0x2BFD JUMPI DUP3 MLOAD DUP3 SSTORE SWAP2 PUSH1 0x20 ADD SWAP2 SWAP1 PUSH1 0x1 ADD SWAP1 PUSH3 0x2BE0 JUMP JUMPDEST JUMPDEST POP SWAP1 POP PUSH3 0x2C0D SWAP2 SWAP1 PUSH3 0x2C51 JUMP JUMPDEST POP SWAP1 JUMP JUMPDEST JUMPDEST DUP1 DUP3 GT ISZERO PUSH3 0x2C35 JUMPI PUSH1 0x0 DUP2 DUP2 PUSH3 0x2C2B SWAP2 SWAP1 PUSH3 0x2C70 JUMP JUMPDEST POP PUSH1 0x2 ADD PUSH3 0x2C12 JUMP JUMPDEST POP SWAP1 JUMP JUMPDEST POP DUP1 PUSH1 0x7 PUSH1 0x2 MUL ADD SWAP1 PUSH3 0x2C4E SWAP2 SWAP1 PUSH3 0x2C11 JUMP JUMPDEST POP JUMP JUMPDEST JUMPDEST DUP1 DUP3 GT ISZERO PUSH3 0x2C6C JUMPI PUSH1 0x0 DUP2 PUSH1 0x0 SWAP1 SSTORE POP PUSH1 0x1 ADD PUSH3 0x2C52 JUMP JUMPDEST POP SWAP1 JUMP JUMPDEST POP PUSH1 0x0 DUP2 SSTORE PUSH1 0x1 ADD PUSH1 0x0 SWAP1 SSTORE JUMP JUMPDEST PUSH2 0x20FD DUP1 PUSH3 0x2C8E PUSH1 0x0 CODECOPY PUSH1 0x0 RETURN INVALID PUSH1 0x80 PUSH1 0x40 MSTORE CALLVALUE DUP1 ISZERO PUSH2 0x10 JUMPI PUSH1 0x0 DUP1 REVERT JUMPDEST POP PUSH1 0x4 CALLDATASIZE LT PUSH2 0x2B JUMPI PUSH1 0x0 CALLDATALOAD PUSH1 0xE0 SHR DUP1 PUSH4 0x9ACA8F2A EQ PUSH2 0x30 JUMPI JUMPDEST PUSH1 0x0 DUP1 REVERT JUMPDEST PUSH2 0x4A PUSH1 0x4 DUP1 CALLDATASIZE SUB DUP2 ADD SWAP1 PUSH2 0x45 SWAP2 SWAP1 PUSH2 0x1B9D JUMP JUMPDEST PUSH2 0x4C JUMP JUMPDEST STOP JUMPDEST PUSH2 0x55 DUP5 PUSH2 0xCD9 JUMP JUMPDEST SWAP4 POP PUSH2 0x60 DUP4 PUSH2 0xCD9 JUMP JUMPDEST SWAP3 POP PUSH2 0x6A PUSH2 0x1A04 JUMP JUMPDEST PUSH1 0x40 MLOAD DUP1 PUSH1 0x40 ADD PUSH1 0x40 MSTORE DUP1 DUP5 PUSH1 0x0 PUSH1 0x8 DUP2 LT PUSH2 0xAF JUMPI PUSH32 0x4E487B7100000000000000000000000000000000000000000000000000000000 PUSH1 0x0 MSTORE PUSH1 0x32 PUSH1 0x4 MSTORE PUSH1 0x24 PUSH1 0x0 REVERT JUMPDEST PUSH1 0x20 MUL ADD CALLDATALOAD DUP2 MSTORE PUSH1 0x20 ADD DUP5 PUSH1 0x1 PUSH1 0x8 DUP2 LT PUSH2 0xF3 JUMPI PUSH32 0x4E487B7100000000000000000000000000000000000000000000000000000000 PUSH1 0x0 MSTORE PUSH1 0x32 PUSH1 0x4 MSTORE PUSH1 0x24 PUSH1 0x0 REVERT JUMPDEST PUSH1 0x20 MUL ADD CALLDATALOAD DUP2 MSTORE POP DUP2 PUSH1 0x0 ADD DUP2 SWAP1 MSTORE POP PUSH1 0x40 MLOAD DUP1 PUSH1 0x40 ADD PUSH1 0x40 MSTORE DUP1 PUSH1 0x40 MLOAD DUP1 PUSH1 0x40 ADD PUSH1 0x40 MSTORE DUP1 DUP7 PUSH1 0x2 PUSH1 0x8 DUP2 LT PUSH2 0x153 JUMPI PUSH32 0x4E487B7100000000000000000000000000000000000000000000000000000000 PUSH1 0x0 MSTORE PUSH1 0x32 PUSH1 0x4 MSTORE PUSH1 0x24 PUSH1 0x0 REVERT JUMPDEST PUSH1 0x20 MUL ADD CALLDATALOAD DUP2 MSTORE PUSH1 0x20 ADD DUP7 PUSH1 0x3 PUSH1 0x8 DUP2 LT PUSH2 0x197 JUMPI PUSH32 0x4E487B7100000000000000000000000000000000000000000000000000000000 PUSH1 0x0 MSTORE PUSH1 0x32 PUSH1 0x4 MSTORE PUSH1 0x24 PUSH1 0x0 REVERT JUMPDEST PUSH1 0x20 MUL ADD CALLDATALOAD DUP2 MSTORE POP DUP2 MSTORE PUSH1 0x20 ADD PUSH1 0x40 MLOAD DUP1 PUSH1 0x40 ADD PUSH1 0x40 MSTORE DUP1 DUP7 PUSH1 0x4 PUSH1 0x8 DUP2 LT PUSH2 0x1E9 JUMPI PUSH32 0x4E487B7100000000000000000000000000000000000000000000000000000000 PUSH1 0x0 MSTORE PUSH1 0x32 PUSH1 0x4 MSTORE PUSH1 0x24 PUSH1 0x0 REVERT JUMPDEST PUSH1 0x20 MUL ADD CALLDATALOAD DUP2 MSTORE PUSH1 0x20 ADD DUP7 PUSH1 0x5 PUSH1 0x8 DUP2 LT PUSH2 0x22D JUMPI PUSH32 0x4E487B7100000000000000000000000000000000000000000000000000000000 PUSH1 0x0 MSTORE PUSH1 0x32 PUSH1 0x4 MSTORE PUSH1 0x24 PUSH1 0x0 REVERT JUMPDEST PUSH1 0x20 MUL ADD CALLDATALOAD DUP2 MSTORE POP DUP2 MSTORE POP DUP2 PUSH1 0x20 ADD DUP2 SWAP1 MSTORE POP PUSH1 0x40 MLOAD DUP1 PUSH1 0x40 ADD PUSH1 0x40 MSTORE DUP1 DUP5 PUSH1 0x6 PUSH1 0x8 DUP2 LT PUSH2 0x285 JUMPI PUSH32 0x4E487B7100000000000000000000000000000000000000000000000000000000 PUSH1 0x0 MSTORE PUSH1 0x32 PUSH1 0x4 MSTORE PUSH1 0x24 PUSH1 0x0 REVERT JUMPDEST PUSH1 0x20 MUL ADD CALLDATALOAD DUP2 MSTORE PUSH1 0x20 ADD DUP5 PUSH1 0x7 PUSH1 0x8 DUP2 LT PUSH2 0x2C9 JUMPI PUSH32 0x4E487B7100000000000000000000000000000000000000000000000000000000 PUSH1 0x0 MSTORE PUSH1 0x32 PUSH1 0x4 MSTORE PUSH1 0x24 PUSH1 0x0 REVERT JUMPDEST PUSH1 0x20 MUL ADD CALLDATALOAD DUP2 MSTORE POP DUP2 PUSH1 0x40 ADD DUP2 SWAP1 MSTORE POP PUSH1 0x0 PUSH2 0x2F0 PUSH1 0x10 DUP5 PUSH2 0x2EB SWAP2 SWAP1 PUSH2 0x1FC8 JUMP JUMPDEST PUSH2 0xD10 JUMP JUMPDEST SWAP1 POP PUSH1 0x0 DUP2 PUSH1 0x80 ADD MLOAD PUSH1 0x0 DUP2 MLOAD DUP2 LT PUSH2 0x332 JUMPI PUSH32 0x4E487B7100000000000000000000000000000000000000000000000000000000 PUSH1 0x0 MSTORE PUSH1 0x32 PUSH1 0x4 MSTORE PUSH1 0x24 PUSH1 0x0 REVERT JUMPDEST PUSH1 0x20 MUL PUSH1 0x20 ADD ADD MLOAD SWAP1 POP PUSH20 0x0 PUSH4 0x18C77C95 DUP3 PUSH20 0x0 PUSH4 0x6E1B6990 DUP7 PUSH1 0x80 ADD MLOAD PUSH1 0x1 DUP2 MLOAD DUP2 LT PUSH2 0x3AF JUMPI PUSH32 0x4E487B7100000000000000000000000000000000000000000000000000000000 PUSH1 0x0 MSTORE PUSH1 0x32 PUSH1 0x4 MSTORE PUSH1 0x24 PUSH1 0x0 REVERT JUMPDEST PUSH1 0x20 MUL PUSH1 0x20 ADD ADD MLOAD DUP15 PUSH1 0x40 MLOAD DUP4 PUSH4 0xFFFFFFFF AND PUSH1 0xE0 SHL DUP2 MSTORE PUSH1 0x4 ADD PUSH2 0x3D5 SWAP3 SWAP2 SWAP1 PUSH2 0x1EDB JUMP JUMPDEST PUSH1 0x40 DUP1 MLOAD DUP1 DUP4 SUB DUP2 DUP7 DUP1 EXTCODESIZE ISZERO DUP1 ISZERO PUSH2 0x3EC JUMPI PUSH1 0x0 DUP1 REVERT JUMPDEST POP GAS DELEGATECALL ISZERO DUP1 ISZERO PUSH2 0x400 JUMPI RETURNDATASIZE PUSH1 0x0 DUP1 RETURNDATACOPY RETURNDATASIZE PUSH1 0x0 REVERT JUMPDEST POP POP POP POP PUSH1 0x40 MLOAD RETURNDATASIZE PUSH1 0x1F NOT PUSH1 0x1F DUP3 ADD AND DUP3 ADD DUP1 PUSH1 0x40 MSTORE POP DUP2 ADD SWAP1 PUSH2 0x424 SWAP2 SWAP1 PUSH2 0x1B74 JUMP JUMPDEST PUSH1 0x40 MLOAD DUP4 PUSH4 0xFFFFFFFF AND PUSH1 0xE0 SHL DUP2 MSTORE PUSH1 0x4 ADD PUSH2 0x441 SWAP3 SWAP2 SWAP1 PUSH2 0x1EB2 JUMP JUMPDEST PUSH1 0x40 DUP1 MLOAD DUP1 DUP4 SUB DUP2 DUP7 DUP1 EXTCODESIZE ISZERO DUP1 ISZERO PUSH2 0x458 JUMPI PUSH1 0x0 DUP1 REVERT JUMPDEST POP GAS DELEGATECALL ISZERO DUP1 ISZERO PUSH2 0x46C JUMPI RETURNDATASIZE PUSH1 0x0 DUP1 RETURNDATACOPY RETURNDATASIZE PUSH1 0x0 REVERT JUMPDEST POP POP POP POP PUSH1 0x40 MLOAD RETURNDATASIZE PUSH1 0x1F NOT PUSH1 0x1F DUP3 ADD AND DUP3 ADD DUP1 PUSH1 0x40 MSTORE POP DUP2 ADD SWAP1 PUSH2 0x490 SWAP2 SWAP1 PUSH2 0x1B74 JUMP JUMPDEST SWAP1 POP PUSH20 0x0 PUSH4 0x18C77C95 DUP3 PUSH20 0x0 PUSH4 0x6E1B6990 DUP7 PUSH1 0x80 ADD MLOAD PUSH1 0x2 DUP2 MLOAD DUP2 LT PUSH2 0x505 JUMPI PUSH32 0x4E487B7100000000000000000000000000000000000000000000000000000000 PUSH1 0x0 MSTORE PUSH1 0x32 PUSH1 0x4 MSTORE PUSH1 0x24 PUSH1 0x0 REVERT JUMPDEST PUSH1 0x20 MUL PUSH1 0x20 ADD ADD MLOAD DUP14 PUSH1 0x40 MLOAD DUP4 PUSH4 0xFFFFFFFF AND PUSH1 0xE0 SHL DUP2 MSTORE PUSH1 0x4 ADD PUSH2 0x52B SWAP3 SWAP2 SWAP1 PUSH2 0x1EDB JUMP JUMPDEST PUSH1 0x40 DUP1 MLOAD DUP1 DUP4 SUB DUP2 DUP7 DUP1 EXTCODESIZE ISZERO DUP1 ISZERO PUSH2 0x542 JUMPI PUSH1 0x0 DUP1 REVERT JUMPDEST POP GAS DELEGATECALL ISZERO DUP1 ISZERO PUSH2 0x556 JUMPI RETURNDATASIZE PUSH1 0x0 DUP1 RETURNDATACOPY RETURNDATASIZE PUSH1 0x0 REVERT JUMPDEST POP POP POP POP PUSH1 0x40 MLOAD RETURNDATASIZE PUSH1 0x1F NOT PUSH1 0x1F DUP3 ADD AND DUP3 ADD DUP1 PUSH1 0x40 MSTORE POP DUP2 ADD SWAP1 PUSH2 0x57A SWAP2 SWAP1 PUSH2 0x1B74 JUMP JUMPDEST PUSH1 0x40 MLOAD DUP4 PUSH4 0xFFFFFFFF AND PUSH1 0xE0 SHL DUP2 MSTORE PUSH1 0x4 ADD PUSH2 0x597 SWAP3 SWAP2 SWAP1 PUSH2 0x1EB2 JUMP JUMPDEST PUSH1 0x40 DUP1 MLOAD DUP1 DUP4 SUB DUP2 DUP7 DUP1 EXTCODESIZE ISZERO DUP1 ISZERO PUSH2 0x5AE JUMPI PUSH1 0x0 DUP1 REVERT JUMPDEST POP GAS DELEGATECALL ISZERO DUP1 ISZERO PUSH2 0x5C2 JUMPI RETURNDATASIZE PUSH1 0x0 DUP1 RETURNDATACOPY RETURNDATASIZE PUSH1 0x0 REVERT JUMPDEST POP POP POP POP PUSH1 0x40 MLOAD RETURNDATASIZE PUSH1 0x1F NOT PUSH1 0x1F DUP3 ADD AND DUP3 ADD DUP1 PUSH1 0x40 MSTORE POP DUP2 ADD SWAP1 PUSH2 0x5E6 SWAP2 SWAP1 PUSH2 0x1B74 JUMP JUMPDEST SWAP1 POP PUSH20 0x0 PUSH4 0x18C77C95 DUP3 PUSH20 0x0 PUSH4 0x6E1B6990 DUP7 PUSH1 0x80 ADD MLOAD PUSH1 0x3 DUP2 MLOAD DUP2 LT PUSH2 0x65B JUMPI PUSH32 0x4E487B7100000000000000000000000000000000000000000000000000000000 PUSH1 0x0 MSTORE PUSH1 0x32 PUSH1 0x4 MSTORE PUSH1 0x24 PUSH1 0x0 REVERT JUMPDEST PUSH1 0x20 MUL PUSH1 0x20 ADD ADD MLOAD DUP13 PUSH1 0x40 MLOAD DUP4 PUSH4 0xFFFFFFFF AND PUSH1 0xE0 SHL DUP2 MSTORE PUSH1 0x4 ADD PUSH2 0x681 SWAP3 SWAP2 SWAP1 PUSH2 0x1EDB JUMP JUMPDEST PUSH1 0x40 DUP1 MLOAD DUP1 DUP4 SUB DUP2 DUP7 DUP1 EXTCODESIZE ISZERO DUP1 ISZERO PUSH2 0x698 JUMPI PUSH1 0x0 DUP1 REVERT JUMPDEST POP GAS DELEGATECALL ISZERO DUP1 ISZERO PUSH2 0x6AC JUMPI RETURNDATASIZE PUSH1 0x0 DUP1 RETURNDATACOPY RETURNDATASIZE PUSH1 0x0 REVERT JUMPDEST POP POP POP POP PUSH1 0x40 MLOAD RETURNDATASIZE PUSH1 0x1F NOT PUSH1 0x1F DUP3 ADD AND DUP3 ADD DUP1 PUSH1 0x40 MSTORE POP DUP2 ADD SWAP1 PUSH2 0x6D0 SWAP2 SWAP1 PUSH2 0x1B74 JUMP JUMPDEST PUSH1 0x40 MLOAD DUP4 PUSH4 0xFFFFFFFF AND PUSH1 0xE0 SHL DUP2 MSTORE PUSH1 0x4 ADD PUSH2 0x6ED SWAP3 SWAP2 SWAP1 PUSH2 0x1EB2 JUMP JUMPDEST PUSH1 0x40 DUP1 MLOAD DUP1 DUP4 SUB DUP2 DUP7 DUP1 EXTCODESIZE ISZERO DUP1 ISZERO PUSH2 0x704 JUMPI PUSH1 0x0 DUP1 REVERT JUMPDEST POP GAS DELEGATECALL ISZERO DUP1 ISZERO PUSH2 0x718 JUMPI RETURNDATASIZE PUSH1 0x0 DUP1 RETURNDATACOPY RETURNDATASIZE PUSH1 0x0 REVERT JUMPDEST POP POP POP POP PUSH1 0x40 MLOAD RETURNDATASIZE PUSH1 0x1F NOT PUSH1 0x1F DUP3 ADD AND DUP3 ADD DUP1 PUSH1 0x40 MSTORE POP DUP2 ADD SWAP1 PUSH2 0x73C SWAP2 SWAP1 PUSH2 0x1B74 JUMP JUMPDEST SWAP1 POP PUSH20 0x0 PUSH4 0x18C77C95 DUP3 PUSH20 0x0 PUSH4 0x6E1B6990 DUP7 PUSH1 0x80 ADD MLOAD PUSH1 0x4 DUP2 MLOAD DUP2 LT PUSH2 0x7B1 JUMPI PUSH32 0x4E487B7100000000000000000000000000000000000000000000000000000000 PUSH1 0x0 MSTORE PUSH1 0x32 PUSH1 0x4 MSTORE PUSH1 0x24 PUSH1 0x0 REVERT JUMPDEST PUSH1 0x20 MUL PUSH1 0x20 ADD ADD MLOAD DUP12 PUSH1 0x40 MLOAD DUP4 PUSH4 0xFFFFFFFF AND PUSH1 0xE0 SHL DUP2 MSTORE PUSH1 0x4 ADD PUSH2 0x7D7 SWAP3 SWAP2 SWAP1 PUSH2 0x1EDB JUMP JUMPDEST PUSH1 0x40 DUP1 MLOAD DUP1 DUP4 SUB DUP2 DUP7 DUP1 EXTCODESIZE ISZERO DUP1 ISZERO PUSH2 0x7EE JUMPI PUSH1 0x0 DUP1 REVERT JUMPDEST POP GAS DELEGATECALL ISZERO DUP1 ISZERO PUSH2 0x802 JUMPI RETURNDATASIZE PUSH1 0x0 DUP1 RETURNDATACOPY RETURNDATASIZE PUSH1 0x0 REVERT JUMPDEST POP POP POP POP PUSH1 0x40 MLOAD RETURNDATASIZE PUSH1 0x1F NOT PUSH1 0x1F DUP3 ADD AND DUP3 ADD DUP1 PUSH1 0x40 MSTORE POP DUP2 ADD SWAP1 PUSH2 0x826 SWAP2 SWAP1 PUSH2 0x1B74 JUMP JUMPDEST PUSH1 0x40 MLOAD DUP4 PUSH4 0xFFFFFFFF AND PUSH1 0xE0 SHL DUP2 MSTORE PUSH1 0x4 ADD PUSH2 0x843 SWAP3 SWAP2 SWAP1 PUSH2 0x1EB2 JUMP JUMPDEST PUSH1 0x40 DUP1 MLOAD DUP1 DUP4 SUB DUP2 DUP7 DUP1 EXTCODESIZE ISZERO DUP1 ISZERO PUSH2 0x85A JUMPI PUSH1 0x0 DUP1 REVERT JUMPDEST POP GAS DELEGATECALL ISZERO DUP1 ISZERO PUSH2 0x86E JUMPI RETURNDATASIZE PUSH1 0x0 DUP1 RETURNDATACOPY RETURNDATASIZE PUSH1 0x0 REVERT JUMPDEST POP POP POP POP PUSH1 0x40 MLOAD RETURNDATASIZE PUSH1 0x1F NOT PUSH1 0x1F DUP3 ADD AND DUP3 ADD DUP1 PUSH1 0x40 MSTORE POP DUP2 ADD SWAP1 PUSH2 0x892 SWAP2 SWAP1 PUSH2 0x1B74 JUMP JUMPDEST SWAP1 POP PUSH1 0x0 PUSH1 0x4 PUSH8 0xFFFFFFFFFFFFFFFF DUP2 GT ISZERO PUSH2 0x8D7 JUMPI PUSH32 0x4E487B7100000000000000000000000000000000000000000000000000000000 PUSH1 0x0 MSTORE PUSH1 0x41 PUSH1 0x4 MSTORE PUSH1 0x24 PUSH1 0x0 REVERT JUMPDEST PUSH1 0x40 MLOAD SWAP1 DUP1 DUP3 MSTORE DUP1 PUSH1 0x20 MUL PUSH1 0x20 ADD DUP3 ADD PUSH1 0x40 MSTORE DUP1 ISZERO PUSH2 0x910 JUMPI DUP2 PUSH1 0x20 ADD JUMPDEST PUSH2 0x8FD PUSH2 0x1A37 JUMP JUMPDEST DUP2 MSTORE PUSH1 0x20 ADD SWAP1 PUSH1 0x1 SWAP1 SUB SWAP1 DUP2 PUSH2 0x8F5 JUMPI SWAP1 POP JUMPDEST POP SWAP1 POP PUSH1 0x0 PUSH1 0x4 PUSH8 0xFFFFFFFFFFFFFFFF DUP2 GT ISZERO PUSH2 0x956 JUMPI PUSH32 0x4E487B7100000000000000000000000000000000000000000000000000000000 PUSH1 0x0 MSTORE PUSH1 0x41 PUSH1 0x4 MSTORE PUSH1 0x24 PUSH1 0x0 REVERT JUMPDEST PUSH1 0x40 MLOAD SWAP1 DUP1 DUP3 MSTORE DUP1 PUSH1 0x20 MUL PUSH1 0x20 ADD DUP3 ADD PUSH1 0x40 MSTORE DUP1 ISZERO PUSH2 0x98F JUMPI DUP2 PUSH1 0x20 ADD JUMPDEST PUSH2 0x97C PUSH2 0x1A51 JUMP JUMPDEST DUP2 MSTORE PUSH1 0x20 ADD SWAP1 PUSH1 0x1 SWAP1 SUB SWAP1 DUP2 PUSH2 0x974 JUMPI SWAP1 POP JUMPDEST POP SWAP1 POP PUSH20 0x0 PUSH4 0xA6800775 DUP7 PUSH1 0x0 ADD MLOAD PUSH1 0x40 MLOAD DUP3 PUSH4 0xFFFFFFFF AND PUSH1 0xE0 SHL DUP2 MSTORE PUSH1 0x4 ADD PUSH2 0x9CD SWAP2 SWAP1 PUSH2 0x1E97 JUMP JUMPDEST PUSH1 0x40 DUP1 MLOAD DUP1 DUP4 SUB DUP2 DUP7 DUP1 EXTCODESIZE ISZERO DUP1 ISZERO PUSH2 0x9E4 JUMPI PUSH1 0x0 DUP1 REVERT JUMPDEST POP GAS DELEGATECALL ISZERO DUP1 ISZERO PUSH2 0x9F8 JUMPI RETURNDATASIZE PUSH1 0x0 DUP1 RETURNDATACOPY RETURNDATASIZE PUSH1 0x0 REVERT JUMPDEST POP POP POP POP PUSH1 0x40 MLOAD RETURNDATASIZE PUSH1 0x1F NOT PUSH1 0x1F DUP3 ADD AND DUP3 ADD DUP1 PUSH1 0x40 MSTORE POP DUP2 ADD SWAP1 PUSH2 0xA1C SWAP2 SWAP1 PUSH2 0x1B74 JUMP JUMPDEST DUP3 PUSH1 0x0 DUP2 MLOAD DUP2 LT PUSH2 0xA56 JUMPI PUSH32 0x4E487B7100000000000000000000000000000000000000000000000000000000 PUSH1 0x0 MSTORE PUSH1 0x32 PUSH1 0x4 MSTORE PUSH1 0x24 PUSH1 0x0 REVERT JUMPDEST PUSH1 0x20 MUL PUSH1 0x20 ADD ADD DUP2 SWAP1 MSTORE POP DUP5 PUSH1 0x20 ADD MLOAD DUP2 PUSH1 0x0 DUP2 MLOAD DUP2 LT PUSH2 0xAA0 JUMPI PUSH32 0x4E487B7100000000000000000000000000000000000000000000000000000000 PUSH1 0x0 MSTORE PUSH1 0x32 PUSH1 0x4 MSTORE PUSH1 0x24 PUSH1 0x0 REVERT JUMPDEST PUSH1 0x20 MUL PUSH1 0x20 ADD ADD DUP2 SWAP1 MSTORE POP DUP4 PUSH1 0x0 ADD MLOAD DUP3 PUSH1 0x1 DUP2 MLOAD DUP2 LT PUSH2 0xAEA JUMPI PUSH32 0x4E487B7100000000000000000000000000000000000000000000000000000000 PUSH1 0x0 MSTORE PUSH1 0x32 PUSH1 0x4 MSTORE PUSH1 0x24 PUSH1 0x0 REVERT JUMPDEST PUSH1 0x20 MUL PUSH1 0x20 ADD ADD DUP2 SWAP1 MSTORE POP DUP4 PUSH1 0x20 ADD MLOAD DUP2 PUSH1 0x1 DUP2 MLOAD DUP2 LT PUSH2 0xB34 JUMPI PUSH32 0x4E487B7100000000000000000000000000000000000000000000000000000000 PUSH1 0x0 MSTORE PUSH1 0x32 PUSH1 0x4 MSTORE PUSH1 0x24 PUSH1 0x0 REVERT JUMPDEST PUSH1 0x20 MUL PUSH1 0x20 ADD ADD DUP2 SWAP1 MSTORE POP DUP3 DUP3 PUSH1 0x2 DUP2 MLOAD DUP2 LT PUSH2 0xB7A JUMPI PUSH32 0x4E487B7100000000000000000000000000000000000000000000000000000000 PUSH1 0x0 MSTORE PUSH1 0x32 PUSH1 0x4 MSTORE PUSH1 0x24 PUSH1 0x0 REVERT JUMPDEST PUSH1 0x20 MUL PUSH1 0x20 ADD ADD DUP2 SWAP1 MSTORE POP DUP4 PUSH1 0x40 ADD MLOAD DUP2 PUSH1 0x2 DUP2 MLOAD DUP2 LT PUSH2 0xBC4 JUMPI PUSH32 0x4E487B7100000000000000000000000000000000000000000000000000000000 PUSH1 0x0 MSTORE PUSH1 0x32 PUSH1 0x4 MSTORE PUSH1 0x24 PUSH1 0x0 REVERT JUMPDEST PUSH1 0x20 MUL PUSH1 0x20 ADD ADD DUP2 SWAP1 MSTORE POP DUP5 PUSH1 0x40 ADD MLOAD DUP3 PUSH1 0x3 DUP2 MLOAD DUP2 LT PUSH2 0xC0E JUMPI PUSH32 0x4E487B7100000000000000000000000000000000000000000000000000000000 PUSH1 0x0 MSTORE PUSH1 0x32 PUSH1 0x4 MSTORE PUSH1 0x24 PUSH1 0x0 REVERT JUMPDEST PUSH1 0x20 MUL PUSH1 0x20 ADD ADD DUP2 SWAP1 MSTORE POP DUP4 PUSH1 0x60 ADD MLOAD DUP2 PUSH1 0x3 DUP2 MLOAD DUP2 LT PUSH2 0xC58 JUMPI PUSH32 0x4E487B7100000000000000000000000000000000000000000000000000000000 PUSH1 0x0 MSTORE PUSH1 0x32 PUSH1 0x4 MSTORE PUSH1 0x24 PUSH1 0x0 REVERT JUMPDEST PUSH1 0x20 MUL PUSH1 0x20 ADD ADD DUP2 SWAP1 MSTORE POP PUSH20 0x0 PUSH4 0x2F3ED539 DUP4 DUP4 PUSH1 0x40 MLOAD DUP4 PUSH4 0xFFFFFFFF AND PUSH1 0xE0 SHL DUP2 MSTORE PUSH1 0x4 ADD PUSH2 0xC9C SWAP3 SWAP2 SWAP1 PUSH2 0x1E60 JUMP JUMPDEST PUSH1 0x0 PUSH1 0x40 MLOAD DUP1 DUP4 SUB DUP2 DUP7 DUP1 EXTCODESIZE ISZERO DUP1 ISZERO PUSH2 0xCB4 JUMPI PUSH1 0x0 DUP1 REVERT JUMPDEST POP GAS DELEGATECALL ISZERO DUP1 ISZERO PUSH2 0xCC8 JUMPI RETURNDATASIZE PUSH1 0x0 DUP1 RETURNDATACOPY RETURNDATASIZE PUSH1 0x0 REVERT JUMPDEST POP POP POP POP POP POP POP POP POP POP POP POP POP POP POP JUMP JUMPDEST PUSH1 0x0 PUSH1 0x8 DUP3 PUSH1 0x40 MLOAD PUSH1 0x20 ADD PUSH2 0xCEE SWAP2 SWAP1 PUSH2 0x1E45 JUMP JUMPDEST PUSH1 0x40 MLOAD PUSH1 0x20 DUP2 DUP4 SUB SUB DUP2 MSTORE SWAP1 PUSH1 0x40 MSTORE DUP1 MLOAD SWAP1 PUSH1 0x20 ADD KECCAK256 PUSH1 0x0 SHR SWAP1 SHR SWAP1 POP SWAP2 SWAP1 POP JUMP JUMPDEST PUSH2 0xD18 PUSH2 0x1A77 JUMP JUMPDEST PUSH2 0xD20 PUSH2 0x1A77 JUMP JUMPDEST PUSH1 0x40 MLOAD DUP1 PUSH1 0x40 ADD PUSH1 0x40 MSTORE DUP1 PUSH32 0x2D4D9AA7E302D9DF41749D5507949D05DBEA33FBB16C643B22F599A2BE6DF2E2 DUP2 MSTORE PUSH1 0x20 ADD PUSH32 0x14BEDD503C37CEB061D8EC60209FE345CE89830A19230301F076CAFF004D1926 DUP2 MSTORE POP DUP2 PUSH1 0x0 ADD DUP2 SWAP1 MSTORE POP PUSH1 0x40 MLOAD DUP1 PUSH1 0x40 ADD PUSH1 0x40 MSTORE DUP1 PUSH1 0x40 MLOAD DUP1 PUSH1 0x40 ADD PUSH1 0x40 MSTORE DUP1 PUSH32 0x967032FCBF776D1AFC985F88877F182D38480A653F2DECAA9794CBC3BF3060C DUP2 MSTORE PUSH1 0x20 ADD PUSH32 0xE187847AD4C798374D0D6732BF501847DD68BC0E071241E0213BC7FC13DB7AB DUP2 MSTORE POP DUP2 MSTORE PUSH1 0x20 ADD PUSH1 0x40 MLOAD DUP1 PUSH1 0x40 ADD PUSH1 0x40 MSTORE DUP1 PUSH32 0x304CFBD1E08A704A99F5E847D93F8C3CAAFDDEC46B7A0D379DA69A4D112346A7 DUP2 MSTORE PUSH1 0x20 ADD PUSH32 0x1739C1B1A457A8C7313123D24D2F9192F896B7C63EEA05A9D57F06547AD0CEC8 DUP2 MSTORE POP DUP2 MSTORE POP DUP2 PUSH1 0x20 ADD DUP2 SWAP1 MSTORE POP PUSH1 0x40 MLOAD DUP1 PUSH1 0x40 ADD PUSH1 0x40 MSTORE DUP1 PUSH1 0x40 MLOAD DUP1 PUSH1 0x40 ADD PUSH1 0x40 MSTORE DUP1 PUSH32 0x198E9393920D483A7260BFB731FB5D25F1AA493335A9E71297E485B7AEF312C2 DUP2 MSTORE PUSH1 0x20 ADD PUSH32 0x1800DEEF121F1E76426A00665E5C4479674322D4F75EDADD46DEBD5CD992F6ED DUP2 MSTORE POP DUP2 MSTORE PUSH1 0x20 ADD PUSH1 0x40 MLOAD DUP1 PUSH1 0x40 ADD PUSH1 0x40 MSTORE DUP1 PUSH32 0x90689D0585FF075EC9E99AD690C3395BC4B313370B38EF355ACDADCD122975B DUP2 MSTORE PUSH1 0x20 ADD PUSH32 0x12C85EA5DB8C6DEB4AAB71808DCB408FE3D1E7690C43D37B4CE6CC0166FA7DAA DUP2 MSTORE POP DUP2 MSTORE POP DUP2 PUSH1 0x40 ADD DUP2 SWAP1 MSTORE POP PUSH1 0x40 MLOAD DUP1 PUSH1 0x40 ADD PUSH1 0x40 MSTORE DUP1 PUSH1 0x0 DUP6 PUSH1 0x11 DUP2 LT PUSH2 0xF4C JUMPI PUSH32 0x4E487B7100000000000000000000000000000000000000000000000000000000 PUSH1 0x0 MSTORE PUSH1 0x32 PUSH1 0x4 MSTORE PUSH1 0x24 PUSH1 0x0 REVERT JUMPDEST PUSH1 0xE MUL ADD PUSH1 0x0 PUSH1 0x7 DUP2 LT PUSH2 0xF89 JUMPI PUSH32 0x4E487B7100000000000000000000000000000000000000000000000000000000 PUSH1 0x0 MSTORE PUSH1 0x32 PUSH1 0x4 MSTORE PUSH1 0x24 PUSH1 0x0 REVERT JUMPDEST PUSH1 0x2 MUL ADD PUSH1 0x2 DUP1 PUSH1 0x20 MUL PUSH1 0x40 MLOAD SWAP1 DUP2 ADD PUSH1 0x40 MSTORE DUP1 SWAP3 SWAP2 SWAP1 DUP3 PUSH1 0x2 DUP1 ISZERO PUSH2 0xFC4 JUMPI PUSH1 0x20 MUL DUP3 ADD SWAP2 JUMPDEST DUP2 SLOAD DUP2 MSTORE PUSH1 0x20 ADD SWAP1 PUSH1 0x1 ADD SWAP1 DUP1 DUP4 GT PUSH2 0xFB0 JUMPI JUMPDEST POP POP POP POP POP DUP2 MSTORE PUSH1 0x20 ADD PUSH1 0x0 DUP6 PUSH1 0x11 DUP2 LT PUSH2 0x1008 JUMPI PUSH32 0x4E487B7100000000000000000000000000000000000000000000000000000000 PUSH1 0x0 MSTORE PUSH1 0x32 PUSH1 0x4 MSTORE PUSH1 0x24 PUSH1 0x0 REVERT JUMPDEST PUSH1 0xE MUL ADD PUSH1 0x1 PUSH1 0x7 DUP2 LT PUSH2 0x1045 JUMPI PUSH32 0x4E487B7100000000000000000000000000000000000000000000000000000000 PUSH1 0x0 MSTORE PUSH1 0x32 PUSH1 0x4 MSTORE PUSH1 0x24 PUSH1 0x0 REVERT JUMPDEST PUSH1 0x2 MUL ADD PUSH1 0x2 DUP1 PUSH1 0x20 MUL PUSH1 0x40 MLOAD SWAP1 DUP2 ADD PUSH1 0x40 MSTORE DUP1 SWAP3 SWAP2 SWAP1 DUP3 PUSH1 0x2 DUP1 ISZERO PUSH2 0x1080 JUMPI PUSH1 0x20 MUL DUP3 ADD SWAP2 JUMPDEST DUP2 SLOAD DUP2 MSTORE PUSH1 0x20 ADD SWAP1 PUSH1 0x1 ADD SWAP1 DUP1 DUP4 GT PUSH2 0x106C JUMPI JUMPDEST POP POP POP POP POP DUP2 MSTORE POP DUP2 PUSH1 0x60 ADD DUP2 SWAP1 MSTORE POP PUSH1 0x5 PUSH8 0xFFFFFFFFFFFFFFFF DUP2 GT ISZERO PUSH2 0x10D1 JUMPI PUSH32 0x4E487B7100000000000000000000000000000000000000000000000000000000 PUSH1 0x0 MSTORE PUSH1 0x41 PUSH1 0x4 MSTORE PUSH1 0x24 PUSH1 0x0 REVERT JUMPDEST PUSH1 0x40 MLOAD SWAP1 DUP1 DUP3 MSTORE DUP1 PUSH1 0x20 MUL PUSH1 0x20 ADD DUP3 ADD PUSH1 0x40 MSTORE DUP1 ISZERO PUSH2 0x110A JUMPI DUP2 PUSH1 0x20 ADD JUMPDEST PUSH2 0x10F7 PUSH2 0x1A37 JUMP JUMPDEST DUP2 MSTORE PUSH1 0x20 ADD SWAP1 PUSH1 0x1 SWAP1 SUB SWAP1 DUP2 PUSH2 0x10EF JUMPI SWAP1 POP JUMPDEST POP DUP2 PUSH1 0x80 ADD DUP2 SWAP1 MSTORE POP PUSH1 0x40 MLOAD DUP1 PUSH1 0x40 ADD PUSH1 0x40 MSTORE DUP1 PUSH1 0x0 DUP6 PUSH1 0x11 DUP2 LT PUSH2 0x1158 JUMPI PUSH32 0x4E487B7100000000000000000000000000000000000000000000000000000000 PUSH1 0x0 MSTORE PUSH1 0x32 PUSH1 0x4 MSTORE PUSH1 0x24 PUSH1 0x0 REVERT JUMPDEST PUSH1 0xE MUL ADD PUSH1 0x2 PUSH1 0x7 DUP2 LT PUSH2 0x1195 JUMPI PUSH32 0x4E487B7100000000000000000000000000000000000000000000000000000000 PUSH1 0x0 MSTORE PUSH1 0x32 PUSH1 0x4 MSTORE PUSH1 0x24 PUSH1 0x0 REVERT JUMPDEST PUSH1 0x2 MUL ADD PUSH1 0x0 PUSH1 0x2 DUP2 LT PUSH2 0x11D2 JUMPI PUSH32 0x4E487B7100000000000000000000000000000000000000000000000000000000 PUSH1 0x0 MSTORE PUSH1 0x32 PUSH1 0x4 MSTORE PUSH1 0x24 PUSH1 0x0 REVERT JUMPDEST ADD SLOAD DUP2 MSTORE PUSH1 0x20 ADD PUSH1 0x0 DUP6 PUSH1 0x11 DUP2 LT PUSH2 0x1213 JUMPI PUSH32 0x4E487B7100000000000000000000000000000000000000000000000000000000 PUSH1 0x0 MSTORE PUSH1 0x32 PUSH1 0x4 MSTORE PUSH1 0x24 PUSH1 0x0 REVERT JUMPDEST PUSH1 0xE MUL ADD PUSH1 0x2 PUSH1 0x7 DUP2 LT PUSH2 0x1250 JUMPI PUSH32 0x4E487B7100000000000000000000000000000000000000000000000000000000 PUSH1 0x0 MSTORE PUSH1 0x32 PUSH1 0x4 MSTORE PUSH1 0x24 PUSH1 0x0 REVERT JUMPDEST PUSH1 0x2 MUL ADD PUSH1 0x1 PUSH1 0x2 DUP2 LT PUSH2 0x128D JUMPI PUSH32 0x4E487B7100000000000000000000000000000000000000000000000000000000 PUSH1 0x0 MSTORE PUSH1 0x32 PUSH1 0x4 MSTORE PUSH1 0x24 PUSH1 0x0 REVERT JUMPDEST ADD SLOAD DUP2 MSTORE POP DUP2 PUSH1 0x80 ADD MLOAD PUSH1 0x0 DUP2 MLOAD DUP2 LT PUSH2 0x12D0 JUMPI PUSH32 0x4E487B7100000000000000000000000000000000000000000000000000000000 PUSH1 0x0 MSTORE PUSH1 0x32 PUSH1 0x4 MSTORE PUSH1 0x24 PUSH1 0x0 REVERT JUMPDEST PUSH1 0x20 MUL PUSH1 0x20 ADD ADD DUP2 SWAP1 MSTORE POP PUSH1 0x40 MLOAD DUP1 PUSH1 0x40 ADD PUSH1 0x40 MSTORE DUP1 PUSH1 0x0 DUP6 PUSH1 0x11 DUP2 LT PUSH2 0x1320 JUMPI PUSH32 0x4E487B7100000000000000000000000000000000000000000000000000000000 PUSH1 0x0 MSTORE PUSH1 0x32 PUSH1 0x4 MSTORE PUSH1 0x24 PUSH1 0x0 REVERT JUMPDEST PUSH1 0xE MUL ADD PUSH1 0x3 PUSH1 0x7 DUP2 LT PUSH2 0x135D JUMPI PUSH32 0x4E487B7100000000000000000000000000000000000000000000000000000000 PUSH1 0x0 MSTORE PUSH1 0x32 PUSH1 0x4 MSTORE PUSH1 0x24 PUSH1 0x0 REVERT JUMPDEST PUSH1 0x2 MUL ADD PUSH1 0x0 PUSH1 0x2 DUP2 LT PUSH2 0x139A JUMPI PUSH32 0x4E487B7100000000000000000000000000000000000000000000000000000000 PUSH1 0x0 MSTORE PUSH1 0x32 PUSH1 0x4 MSTORE PUSH1 0x24 PUSH1 0x0 REVERT JUMPDEST ADD SLOAD DUP2 MSTORE PUSH1 0x20 ADD PUSH1 0x0 DUP6 PUSH1 0x11 DUP2 LT PUSH2 0x13DB JUMPI PUSH32 0x4E487B7100000000000000000000000000000000000000000000000000000000 PUSH1 0x0 MSTORE PUSH1 0x32 PUSH1 0x4 MSTORE PUSH1 0x24 PUSH1 0x0 REVERT JUMPDEST PUSH1 0xE MUL ADD PUSH1 0x3 PUSH1 0x7 DUP2 LT PUSH2 0x1418 JUMPI PUSH32 0x4E487B7100000000000000000000000000000000000000000000000000000000 PUSH1 0x0 MSTORE PUSH1 0x32 PUSH1 0x4 MSTORE PUSH1 0x24 PUSH1 0x0 REVERT JUMPDEST PUSH1 0x2 MUL ADD PUSH1 0x1 PUSH1 0x2 DUP2 LT PUSH2 0x1455 JUMPI PUSH32 0x4E487B7100000000000000000000000000000000000000000000000000000000 PUSH1 0x0 MSTORE PUSH1 0x32 PUSH1 0x4 MSTORE PUSH1 0x24 PUSH1 0x0 REVERT JUMPDEST ADD SLOAD DUP2 MSTORE POP DUP2 PUSH1 0x80 ADD MLOAD PUSH1 0x1 DUP2 MLOAD DUP2 LT PUSH2 0x1498 JUMPI PUSH32 0x4E487B7100000000000000000000000000000000000000000000000000000000 PUSH1 0x0 MSTORE PUSH1 0x32 PUSH1 0x4 MSTORE PUSH1 0x24 PUSH1 0x0 REVERT JUMPDEST PUSH1 0x20 MUL PUSH1 0x20 ADD ADD DUP2 SWAP1 MSTORE POP PUSH1 0x40 MLOAD DUP1 PUSH1 0x40 ADD PUSH1 0x40 MSTORE DUP1 PUSH1 0x0 DUP6 PUSH1 0x11 DUP2 LT PUSH2 0x14E8 JUMPI PUSH32 0x4E487B7100000000000000000000000000000000000000000000000000000000 PUSH1 0x0 MSTORE PUSH1 0x32 PUSH1 0x4 MSTORE PUSH1 0x24 PUSH1 0x0 REVERT JUMPDEST PUSH1 0xE MUL ADD PUSH1 0x4 PUSH1 0x7 DUP2 LT PUSH2 0x1525 JUMPI PUSH32 0x4E487B7100000000000000000000000000000000000000000000000000000000 PUSH1 0x0 MSTORE PUSH1 0x32 PUSH1 0x4 MSTORE PUSH1 0x24 PUSH1 0x0 REVERT JUMPDEST PUSH1 0x2 MUL ADD PUSH1 0x0 PUSH1 0x2 DUP2 LT PUSH2 0x1562 JUMPI PUSH32 0x4E487B7100000000000000000000000000000000000000000000000000000000 PUSH1 0x0 MSTORE PUSH1 0x32 PUSH1 0x4 MSTORE PUSH1 0x24 PUSH1 0x0 REVERT JUMPDEST ADD SLOAD DUP2 MSTORE PUSH1 0x20 ADD PUSH1 0x0 DUP6 PUSH1 0x11 DUP2 LT PUSH2 0x15A3 JUMPI PUSH32 0x4E487B7100000000000000000000000000000000000000000000000000000000 PUSH1 0x0 MSTORE PUSH1 0x32 PUSH1 0x4 MSTORE PUSH1 0x24 PUSH1 0x0 REVERT JUMPDEST PUSH1 0xE MUL ADD PUSH1 0x4 PUSH1 0x7 DUP2 LT PUSH2 0x15E0 JUMPI PUSH32 0x4E487B7100000000000000000000000000000000000000000000000000000000 PUSH1 0x0 MSTORE PUSH1 0x32 PUSH1 0x4 MSTORE PUSH1 0x24 PUSH1 0x0 REVERT JUMPDEST PUSH1 0x2 MUL ADD PUSH1 0x1 PUSH1 0x2 DUP2 LT PUSH2 0x161D JUMPI PUSH32 0x4E487B7100000000000000000000000000000000000000000000000000000000 PUSH1 0x0 MSTORE PUSH1 0x32 PUSH1 0x4 MSTORE PUSH1 0x24 PUSH1 0x0 REVERT JUMPDEST ADD SLOAD DUP2 MSTORE POP DUP2 PUSH1 0x80 ADD MLOAD PUSH1 0x2 DUP2 MLOAD DUP2 LT PUSH2 0x1660 JUMPI PUSH32 0x4E487B7100000000000000000000000000000000000000000000000000000000 PUSH1 0x0 MSTORE PUSH1 0x32 PUSH1 0x4 MSTORE PUSH1 0x24 PUSH1 0x0 REVERT JUMPDEST PUSH1 0x20 MUL PUSH1 0x20 ADD ADD DUP2 SWAP1 MSTORE POP PUSH1 0x40 MLOAD DUP1 PUSH1 0x40 ADD PUSH1 0x40 MSTORE DUP1 PUSH1 0x0 DUP6 PUSH1 0x11 DUP2 LT PUSH2 0x16B0 JUMPI PUSH32 0x4E487B7100000000000000000000000000000000000000000000000000000000 PUSH1 0x0 MSTORE PUSH1 0x32 PUSH1 0x4 MSTORE PUSH1 0x24 PUSH1 0x0 REVERT JUMPDEST PUSH1 0xE MUL ADD PUSH1 0x5 PUSH1 0x7 DUP2 LT PUSH2 0x16ED JUMPI PUSH32 0x4E487B7100000000000000000000000000000000000000000000000000000000 PUSH1 0x0 MSTORE PUSH1 0x32 PUSH1 0x4 MSTORE PUSH1 0x24 PUSH1 0x0 REVERT JUMPDEST PUSH1 0x2 MUL ADD PUSH1 0x0 PUSH1 0x2 DUP2 LT PUSH2 0x172A JUMPI PUSH32 0x4E487B7100000000000000000000000000000000000000000000000000000000 PUSH1 0x0 MSTORE PUSH1 0x32 PUSH1 0x4 MSTORE PUSH1 0x24 PUSH1 0x0 REVERT JUMPDEST ADD SLOAD DUP2 MSTORE PUSH1 0x20 ADD PUSH1 0x0 DUP6 PUSH1 0x11 DUP2 LT PUSH2 0x176B JUMPI PUSH32 0x4E487B7100000000000000000000000000000000000000000000000000000000 PUSH1 0x0 MSTORE PUSH1 0x32 PUSH1 0x4 MSTORE PUSH1 0x24 PUSH1 0x0 REVERT JUMPDEST PUSH1 0xE MUL ADD PUSH1 0x5 PUSH1 0x7 DUP2 LT PUSH2 0x17A8 JUMPI PUSH32 0x4E487B7100000000000000000000000000000000000000000000000000000000 PUSH1 0x0 MSTORE PUSH1 0x32 PUSH1 0x4 MSTORE PUSH1 0x24 PUSH1 0x0 REVERT JUMPDEST PUSH1 0x2 MUL ADD PUSH1 0x1 PUSH1 0x2 DUP2 LT PUSH2 0x17E5 JUMPI PUSH32 0x4E487B7100000000000000000000000000000000000000000000000000000000 PUSH1 0x0 MSTORE PUSH1 0x32 PUSH1 0x4 MSTORE PUSH1 0x24 PUSH1 0x0 REVERT JUMPDEST ADD SLOAD DUP2 MSTORE POP DUP2 PUSH1 0x80 ADD MLOAD PUSH1 0x3 DUP2 MLOAD DUP2 LT PUSH2 0x1828 JUMPI PUSH32 0x4E487B7100000000000000000000000000000000000000000000000000000000 PUSH1 0x0 MSTORE PUSH1 0x32 PUSH1 0x4 MSTORE PUSH1 0x24 PUSH1 0x0 REVERT JUMPDEST PUSH1 0x20 MUL PUSH1 0x20 ADD ADD DUP2 SWAP1 MSTORE POP PUSH1 0x40 MLOAD DUP1 PUSH1 0x40 ADD PUSH1 0x40 MSTORE DUP1 PUSH1 0x0 DUP6 PUSH1 0x11 DUP2 LT PUSH2 0x1878 JUMPI PUSH32 0x4E487B7100000000000000000000000000000000000000000000000000000000 PUSH1 0x0 MSTORE PUSH1 0x32 PUSH1 0x4 MSTORE PUSH1 0x24 PUSH1 0x0 REVERT JUMPDEST PUSH1 0xE MUL ADD PUSH1 0x6 PUSH1 0x7 DUP2 LT PUSH2 0x18B5 JUMPI PUSH32 0x4E487B7100000000000000000000000000000000000000000000000000000000 PUSH1 0x0 MSTORE PUSH1 0x32 PUSH1 0x4 MSTORE PUSH1 0x24 PUSH1 0x0 REVERT JUMPDEST PUSH1 0x2 MUL ADD PUSH1 0x0 PUSH1 0x2 DUP2 LT PUSH2 0x18F2 JUMPI PUSH32 0x4E487B7100000000000000000000000000000000000000000000000000000000 PUSH1 0x0 MSTORE PUSH1 0x32 PUSH1 0x4 MSTORE PUSH1 0x24 PUSH1 0x0 REVERT JUMPDEST ADD SLOAD DUP2 MSTORE PUSH1 0x20 ADD PUSH1 0x0 DUP6 PUSH1 0x11 DUP2 LT PUSH2 0x1933 JUMPI PUSH32 0x4E487B7100000000000000000000000000000000000000000000000000000000 PUSH1 0x0 MSTORE PUSH1 0x32 PUSH1 0x4 MSTORE PUSH1 0x24 PUSH1 0x0 REVERT JUMPDEST PUSH1 0xE MUL ADD PUSH1 0x6 PUSH1 0x7 DUP2 LT PUSH2 0x1970 JUMPI PUSH32 0x4E487B7100000000000000000000000000000000000000000000000000000000 PUSH1 0x0 MSTORE PUSH1 0x32 PUSH1 0x4 MSTORE PUSH1 0x24 PUSH1 0x0 REVERT JUMPDEST PUSH1 0x2 MUL ADD PUSH1 0x1 PUSH1 0x2 DUP2 LT PUSH2 0x19AD JUMPI PUSH32 0x4E487B7100000000000000000000000000000000000000000000000000000000 PUSH1 0x0 MSTORE PUSH1 0x32 PUSH1 0x4 MSTORE PUSH1 0x24 PUSH1 0x0 REVERT JUMPDEST ADD SLOAD DUP2 MSTORE POP DUP2 PUSH1 0x80 ADD MLOAD PUSH1 0x4 DUP2 MLOAD DUP2 LT PUSH2 0x19F0 JUMPI PUSH32 0x4E487B7100000000000000000000000000000000000000000000000000000000 PUSH1 0x0 MSTORE PUSH1 0x32 PUSH1 0x4 MSTORE PUSH1 0x24 PUSH1 0x0 REVERT JUMPDEST PUSH1 0x20 MUL PUSH1 0x20 ADD ADD DUP2 SWAP1 MSTORE POP DUP1 SWAP2 POP POP SWAP2 SWAP1 POP JUMP JUMPDEST PUSH1 0x40 MLOAD DUP1 PUSH1 0x60 ADD PUSH1 0x40 MSTORE DUP1 PUSH2 0x1A17 PUSH2 0x1A37 JUMP JUMPDEST DUP2 MSTORE PUSH1 0x20 ADD PUSH2 0x1A24 PUSH2 0x1A51 JUMP JUMPDEST DUP2 MSTORE PUSH1 0x20 ADD PUSH2 0x1A31 PUSH2 0x1A37 JUMP JUMPDEST DUP2 MSTORE POP SWAP1 JUMP JUMPDEST PUSH1 0x40 MLOAD DUP1 PUSH1 0x40 ADD PUSH1 0x40 MSTORE DUP1 PUSH1 0x0 DUP2 MSTORE PUSH1 0x20 ADD PUSH1 0x0 DUP2 MSTORE POP SWAP1 JUMP JUMPDEST PUSH1 0x40 MLOAD DUP1 PUSH1 0x40 ADD PUSH1 0x40 MSTORE DUP1 PUSH2 0x1A64 PUSH2 0x1ABE JUMP JUMPDEST DUP2 MSTORE PUSH1 0x20 ADD PUSH2 0x1A71 PUSH2 0x1ABE JUMP JUMPDEST DUP2 MSTORE POP SWAP1 JUMP JUMPDEST PUSH1 0x40 MLOAD DUP1 PUSH1 0xA0 ADD PUSH1 0x40 MSTORE DUP1 PUSH2 0x1A8A PUSH2 0x1A37 JUMP JUMPDEST DUP2 MSTORE PUSH1 0x20 ADD PUSH2 0x1A97 PUSH2 0x1A51 JUMP JUMPDEST DUP2 MSTORE PUSH1 0x20 ADD PUSH2 0x1AA4 PUSH2 0x1A51 JUMP JUMPDEST DUP2 MSTORE PUSH1 0x20 ADD PUSH2 0x1AB1 PUSH2 0x1A51 JUMP JUMPDEST DUP2 MSTORE PUSH1 0x20 ADD PUSH1 0x60 DUP2 MSTORE POP SWAP1 JUMP JUMPDEST PUSH1 0x40 MLOAD DUP1 PUSH1 0x40 ADD PUSH1 0x40 MSTORE DUP1 PUSH1 0x2 SWAP1 PUSH1 0x20 DUP3 MUL DUP1 CALLDATASIZE DUP4 CALLDATACOPY DUP1 DUP3 ADD SWAP2 POP POP SWAP1 POP POP SWAP1 JUMP JUMPDEST PUSH1 0x0 DUP2 SWAP1 POP DUP3 PUSH1 0x20 PUSH1 0x8 MUL DUP3 ADD GT ISZERO PUSH2 0x1AF8 JUMPI PUSH1 0x0 DUP1 REVERT JUMPDEST SWAP3 SWAP2 POP POP JUMP JUMPDEST PUSH1 0x0 PUSH1 0x40 DUP3 DUP5 SUB SLT ISZERO PUSH2 0x1B10 JUMPI PUSH1 0x0 DUP1 REVERT JUMPDEST PUSH2 0x1B1A PUSH1 0x40 PUSH2 0x1F04 JUMP JUMPDEST SWAP1 POP PUSH1 0x0 PUSH2 0x1B2A DUP5 DUP3 DUP6 ADD PUSH2 0x1B5F JUMP JUMPDEST PUSH1 0x0 DUP4 ADD MSTORE POP PUSH1 0x20 PUSH2 0x1B3E DUP5 DUP3 DUP6 ADD PUSH2 0x1B5F JUMP JUMPDEST PUSH1 0x20 DUP4 ADD MSTORE POP SWAP3 SWAP2 POP POP JUMP JUMPDEST PUSH1 0x0 DUP2 CALLDATALOAD SWAP1 POP PUSH2 0x1B59 DUP2 PUSH2 0x20B0 JUMP JUMPDEST SWAP3 SWAP2 POP POP JUMP JUMPDEST PUSH1 0x0 DUP2 MLOAD SWAP1 POP PUSH2 0x1B6E DUP2 PUSH2 0x20B0 JUMP JUMPDEST SWAP3 SWAP2 POP POP JUMP JUMPDEST PUSH1 0x0 PUSH1 0x40 DUP3 DUP5 SUB SLT ISZERO PUSH2 0x1B86 JUMPI PUSH1 0x0 DUP1 REVERT JUMPDEST PUSH1 0x0 PUSH2 0x1B94 DUP5 DUP3 DUP6 ADD PUSH2 0x1AFE JUMP JUMPDEST SWAP2 POP POP SWAP3 SWAP2 POP POP JUMP JUMPDEST PUSH1 0x0 DUP1 PUSH1 0x0 DUP1 PUSH1 0x0 DUP1 PUSH2 0x1A0 DUP8 DUP10 SUB SLT ISZERO PUSH2 0x1BB7 JUMPI PUSH1 0x0 DUP1 REVERT JUMPDEST PUSH1 0x0 PUSH2 0x1BC5 DUP10 DUP3 DUP11 ADD PUSH2 0x1B4A JUMP JUMPDEST SWAP7 POP POP PUSH1 0x20 PUSH2 0x1BD6 DUP10 DUP3 DUP11 ADD PUSH2 0x1B4A JUMP JUMPDEST SWAP6 POP POP PUSH1 0x40 PUSH2 0x1BE7 DUP10 DUP3 DUP11 ADD PUSH2 0x1B4A JUMP JUMPDEST SWAP5 POP POP PUSH1 0x60 PUSH2 0x1BF8 DUP10 DUP3 DUP11 ADD PUSH2 0x1B4A JUMP JUMPDEST SWAP4 POP POP PUSH1 0x80 PUSH2 0x1C09 DUP10 DUP3 DUP11 ADD PUSH2 0x1AE0 JUMP JUMPDEST SWAP3 POP POP PUSH2 0x180 PUSH2 0x1C1B DUP10 DUP3 DUP11 ADD PUSH2 0x1B4A JUMP JUMPDEST SWAP2 POP POP SWAP3 SWAP6 POP SWAP3 SWAP6 POP SWAP3 SWAP6 JUMP JUMPDEST PUSH1 0x0 PUSH2 0x1C34 DUP4 DUP4 PUSH2 0x1DB2 JUMP JUMPDEST PUSH1 0x40 DUP4 ADD SWAP1 POP SWAP3 SWAP2 POP POP JUMP JUMPDEST PUSH1 0x0 PUSH2 0x1C4C DUP4 DUP4 PUSH2 0x1DE1 JUMP JUMPDEST PUSH1 0x80 DUP4 ADD SWAP1 POP SWAP3 SWAP2 POP POP JUMP JUMPDEST PUSH1 0x0 PUSH2 0x1C64 DUP4 DUP4 PUSH2 0x1E1F JUMP JUMPDEST PUSH1 0x20 DUP4 ADD SWAP1 POP SWAP3 SWAP2 POP POP JUMP JUMPDEST PUSH1 0x0 PUSH2 0x1C7B DUP3 PUSH2 0x1F53 JUMP JUMPDEST PUSH2 0x1C85 DUP2 DUP6 PUSH2 0x1F9B JUMP JUMPDEST SWAP4 POP PUSH2 0x1C90 DUP4 PUSH2 0x1F29 JUMP JUMPDEST DUP1 PUSH1 0x0 JUMPDEST DUP4 DUP2 LT ISZERO PUSH2 0x1CC1 JUMPI DUP2 MLOAD PUSH2 0x1CA8 DUP9 DUP3 PUSH2 0x1C28 JUMP JUMPDEST SWAP8 POP PUSH2 0x1CB3 DUP4 PUSH2 0x1F74 JUMP JUMPDEST SWAP3 POP POP PUSH1 0x1 DUP2 ADD SWAP1 POP PUSH2 0x1C94 JUMP JUMPDEST POP DUP6 SWAP4 POP POP POP POP SWAP3 SWAP2 POP POP JUMP JUMPDEST PUSH1 0x0 PUSH2 0x1CD9 DUP3 PUSH2 0x1F5E JUMP JUMPDEST PUSH2 0x1CE3 DUP2 DUP6 PUSH2 0x1FAC JUMP JUMPDEST SWAP4 POP PUSH2 0x1CEE DUP4 PUSH2 0x1F39 JUMP JUMPDEST DUP1 PUSH1 0x0 JUMPDEST DUP4 DUP2 LT ISZERO PUSH2 0x1D1F JUMPI DUP2 MLOAD PUSH2 0x1D06 DUP9 DUP3 PUSH2 0x1C40 JUMP JUMPDEST SWAP8 POP PUSH2 0x1D11 DUP4 PUSH2 0x1F81 JUMP JUMPDEST SWAP3 POP POP PUSH1 0x1 DUP2 ADD SWAP1 POP PUSH2 0x1CF2 JUMP JUMPDEST POP DUP6 SWAP4 POP POP POP POP SWAP3 SWAP2 POP POP JUMP JUMPDEST PUSH2 0x1D35 DUP2 PUSH2 0x1F69 JUMP JUMPDEST PUSH2 0x1D3F DUP2 DUP5 PUSH2 0x1FBD JUMP JUMPDEST SWAP3 POP PUSH2 0x1D4A DUP3 PUSH2 0x1F49 JUMP JUMPDEST DUP1 PUSH1 0x0 JUMPDEST DUP4 DUP2 LT ISZERO PUSH2 0x1D7B JUMPI DUP2 MLOAD PUSH2 0x1D62 DUP8 DUP3 PUSH2 0x1C58 JUMP JUMPDEST SWAP7 POP PUSH2 0x1D6D DUP4 PUSH2 0x1F8E JUMP JUMPDEST SWAP3 POP POP PUSH1 0x1 DUP2 ADD SWAP1 POP PUSH2 0x1D4E JUMP JUMPDEST POP POP POP POP POP POP JUMP JUMPDEST PUSH1 0x40 DUP3 ADD PUSH1 0x0 DUP3 ADD MLOAD PUSH2 0x1D99 PUSH1 0x0 DUP6 ADD DUP3 PUSH2 0x1E1F JUMP JUMPDEST POP PUSH1 0x20 DUP3 ADD MLOAD PUSH2 0x1DAC PUSH1 0x20 DUP6 ADD DUP3 PUSH2 0x1E1F JUMP JUMPDEST POP POP POP POP JUMP JUMPDEST PUSH1 0x40 DUP3 ADD PUSH1 0x0 DUP3 ADD MLOAD PUSH2 0x1DC8 PUSH1 0x0 DUP6 ADD DUP3 PUSH2 0x1E1F JUMP JUMPDEST POP PUSH1 0x20 DUP3 ADD MLOAD PUSH2 0x1DDB PUSH1 0x20 DUP6 ADD DUP3 PUSH2 0x1E1F JUMP JUMPDEST POP POP POP POP JUMP JUMPDEST PUSH1 0x80 DUP3 ADD PUSH1 0x0 DUP3 ADD MLOAD PUSH2 0x1DF7 PUSH1 0x0 DUP6 ADD DUP3 PUSH2 0x1D2C JUMP JUMPDEST POP PUSH1 0x20 DUP3 ADD MLOAD PUSH2 0x1E0A PUSH1 0x40 DUP6 ADD DUP3 PUSH2 0x1D2C JUMP JUMPDEST POP POP POP POP JUMP JUMPDEST PUSH2 0x1E19 DUP2 PUSH2 0x1FFC JUMP JUMPDEST DUP3 MSTORE POP POP JUMP JUMPDEST PUSH2 0x1E28 DUP2 PUSH2 0x1FFC JUMP JUMPDEST DUP3 MSTORE POP POP JUMP JUMPDEST PUSH2 0x1E3F PUSH2 0x1E3A DUP3 PUSH2 0x1FFC JUMP JUMPDEST PUSH2 0x2037 JUMP JUMPDEST DUP3 MSTORE POP POP JUMP JUMPDEST PUSH1 0x0 PUSH2 0x1E51 DUP3 DUP5 PUSH2 0x1E2E JUMP JUMPDEST PUSH1 0x20 DUP3 ADD SWAP2 POP DUP2 SWAP1 POP SWAP3 SWAP2 POP POP JUMP JUMPDEST PUSH1 0x0 PUSH1 0x40 DUP3 ADD SWAP1 POP DUP2 DUP2 SUB PUSH1 0x0 DUP4 ADD MSTORE PUSH2 0x1E7A DUP2 DUP6 PUSH2 0x1C70 JUMP JUMPDEST SWAP1 POP DUP2 DUP2 SUB PUSH1 0x20 DUP4 ADD MSTORE PUSH2 0x1E8E DUP2 DUP5 PUSH2 0x1CCE JUMP JUMPDEST SWAP1 POP SWAP4 SWAP3 POP POP POP JUMP JUMPDEST PUSH1 0x0 PUSH1 0x40 DUP3 ADD SWAP1 POP PUSH2 0x1EAC PUSH1 0x0 DUP4 ADD DUP5 PUSH2 0x1D83 JUMP JUMPDEST SWAP3 SWAP2 POP POP JUMP JUMPDEST PUSH1 0x0 PUSH1 0x80 DUP3 ADD SWAP1 POP PUSH2 0x1EC7 PUSH1 0x0 DUP4 ADD DUP6 PUSH2 0x1D83 JUMP JUMPDEST PUSH2 0x1ED4 PUSH1 0x40 DUP4 ADD DUP5 PUSH2 0x1D83 JUMP JUMPDEST SWAP4 SWAP3 POP POP POP JUMP JUMPDEST PUSH1 0x0 PUSH1 0x60 DUP3 ADD SWAP1 POP PUSH2 0x1EF0 PUSH1 0x0 DUP4 ADD DUP6 PUSH2 0x1D83 JUMP JUMPDEST PUSH2 0x1EFD PUSH1 0x40 DUP4 ADD DUP5 PUSH2 0x1E10 JUMP JUMPDEST SWAP4 SWAP3 POP POP POP JUMP JUMPDEST PUSH1 0x0 PUSH2 0x1F0E PUSH2 0x1F1F JUMP JUMPDEST SWAP1 POP PUSH2 0x1F1A DUP3 DUP3 PUSH2 0x2006 JUMP JUMPDEST SWAP2 SWAP1 POP JUMP JUMPDEST PUSH1 0x0 PUSH1 0x40 MLOAD SWAP1 POP SWAP1 JUMP JUMPDEST PUSH1 0x0 DUP2 SWAP1 POP PUSH1 0x20 DUP3 ADD SWAP1 POP SWAP2 SWAP1 POP JUMP JUMPDEST PUSH1 0x0 DUP2 SWAP1 POP PUSH1 0x20 DUP3 ADD SWAP1 POP SWAP2 SWAP1 POP JUMP JUMPDEST PUSH1 0x0 DUP2 SWAP1 POP SWAP2 SWAP1 POP JUMP JUMPDEST PUSH1 0x0 DUP2 MLOAD SWAP1 POP SWAP2 SWAP1 POP JUMP JUMPDEST PUSH1 0x0 DUP2 MLOAD SWAP1 POP SWAP2 SWAP1 POP JUMP JUMPDEST PUSH1 0x0 PUSH1 0x2 SWAP1 POP SWAP2 SWAP1 POP JUMP JUMPDEST PUSH1 0x0 PUSH1 0x20 DUP3 ADD SWAP1 POP SWAP2 SWAP1 POP JUMP JUMPDEST PUSH1 0x0 PUSH1 0x20 DUP3 ADD SWAP1 POP SWAP2 SWAP1 POP JUMP JUMPDEST PUSH1 0x0 PUSH1 0x20 DUP3 ADD SWAP1 POP SWAP2 SWAP1 POP JUMP JUMPDEST PUSH1 0x0 DUP3 DUP3 MSTORE PUSH1 0x20 DUP3 ADD SWAP1 POP SWAP3 SWAP2 POP POP JUMP JUMPDEST PUSH1 0x0 DUP3 DUP3 MSTORE PUSH1 0x20 DUP3 ADD SWAP1 POP SWAP3 SWAP2 POP POP JUMP JUMPDEST PUSH1 0x0 DUP2 SWAP1 POP SWAP3 SWAP2 POP POP JUMP JUMPDEST PUSH1 0x0 PUSH2 0x1FD3 DUP3 PUSH2 0x1FFC JUMP JUMPDEST SWAP2 POP PUSH2 0x1FDE DUP4 PUSH2 0x1FFC JUMP JUMPDEST SWAP3 POP DUP3 DUP3 LT ISZERO PUSH2 0x1FF1 JUMPI PUSH2 0x1FF0 PUSH2 0x2041 JUMP JUMPDEST JUMPDEST DUP3 DUP3 SUB SWAP1 POP SWAP3 SWAP2 POP POP JUMP JUMPDEST PUSH1 0x0 DUP2 SWAP1 POP SWAP2 SWAP1 POP JUMP JUMPDEST PUSH2 0x200F DUP3 PUSH2 0x209F JUMP JUMPDEST DUP2 ADD DUP2 DUP2 LT PUSH8 0xFFFFFFFFFFFFFFFF DUP3 GT OR ISZERO PUSH2 0x202E JUMPI PUSH2 0x202D PUSH2 0x2070 JUMP JUMPDEST JUMPDEST DUP1 PUSH1 0x40 MSTORE POP POP POP JUMP JUMPDEST PUSH1 0x0 DUP2 SWAP1 POP SWAP2 SWAP1 POP JUMP JUMPDEST PUSH32 0x4E487B7100000000000000000000000000000000000000000000000000000000 PUSH1 0x0 MSTORE PUSH1 0x11 PUSH1 0x4 MSTORE PUSH1 0x24 PUSH1 0x0 REVERT JUMPDEST PUSH32 0x4E487B7100000000000000000000000000000000000000000000000000000000 PUSH1 0x0 MSTORE PUSH1 0x41 PUSH1 0x4 MSTORE PUSH1 0x24 PUSH1 0x0 REVERT JUMPDEST PUSH1 0x0 PUSH1 0x1F NOT PUSH1 0x1F DUP4 ADD AND SWAP1 POP SWAP2 SWAP1 POP JUMP JUMPDEST PUSH2 0x20B9 DUP2 PUSH2 0x1FFC JUMP JUMPDEST DUP2 EQ PUSH2 0x20C4 JUMPI PUSH1 0x0 DUP1 REVERT JUMPDEST POP JUMP INVALID LOG2 PUSH5 0x6970667358 0x22 SLT KECCAK256 0xF6 GAS 0xA9 0xBA 0x29 CHAINID PUSH18 0x957DA541442243772DA21D134A1B1258556F 0xE3 0xA6 CREATE 0xA7 DIV LOG0 0x2A PUSH5 0x736F6C6343 STOP ADDMOD DIV STOP CALLER "},"methodIdentifiers":{"verifyProof(uint256,uint256,uint256,uint256,uint256[8],uint256)":"9aca8f2a"}}}}}