{"abi":[{"type":"function","name":"calculateKemenyYoungResult","inputs":[{"name":"returnData","type":"bytes","internalType":"bytes"}],"outputs":[{"name":"","type":"uint256[]","internalType":"uint256[]"}],"stateMutability":"pure"},{"type":"error","name":"CandidatesTie","inputs":[]},{"type":"error","name":"NoCandidates","inputs":[]},{"type":"error","name":"NoWinner","inputs":[]},{"type":"error","name":"VotesExhausted","inputs":[]}],"bytecode":{"object":"0x6080604052348015600e575f5ffd5b506108b98061001c5f395ff3fe608060405234801561000f575f5ffd5b5060043610610029575f3560e01c8063d51759901461002d575b5f5ffd5b61004061003b36600461061e565b610056565b60405161004d91906106b2565b60405180910390f35b60605f8280602001905181019061006d9190610717565b90506100788161007f565b9392505050565b80516060906002811015610096576100788161044d565b5f8167ffffffffffffffff8111156100b0576100b06105d9565b6040519080825280602002602001820160405280156100e357816020015b60608152602001906001900390816100ce5790505b5090505f5b82811015610281578267ffffffffffffffff811115610109576101096105d9565b604051908082528060200260200182016040528015610132578160200160208202803683370190505b508282815181106101455761014561082a565b60209081029190910101525f5b8381101561027857808214610270578581815181106101735761017361082a565b6020026020010151828151811061018c5761018c61082a565b60200260200101518683815181106101a6576101a661082a565b602002602001015182815181106101bf576101bf61082a565b602002602001015111610204578581815181106101de576101de61082a565b602002602001015182815181106101f7576101f761082a565b6020026020010151610238565b8582815181106102165761021661082a565b6020026020010151818151811061022f5761022f61082a565b60200260200101515b83838151811061024a5761024a61082a565b602002602001015182815181106102635761026361082a565b6020026020010181815250505b600101610152565b506001016100e8565b505f8267ffffffffffffffff81111561029c5761029c6105d9565b6040519080825280602002602001820160405280156102c5578160200160208202803683370190505b5090505f805b84811015610425575f8567ffffffffffffffff8111156102ed576102ed6105d9565b604051908082528060200260200182016040528015610316578160200160208202803683370190505b5090505f805b8781101561040b578084146104035786818151811061033d5761033d61082a565b602002602001015184815181106103565761035661082a565b60200260200101518785815181106103705761037061082a565b602002602001015182815181106103895761038961082a565b60200260200101511115610403578284815181106103a9576103a961082a565b6020026020010180518091906103be90610852565b815250508684815181106103d4576103d461082a565b602002602001015181815181106103ed576103ed61082a565b602002602001015182610400919061086a565b91505b60010161031c565b508381111561041b578093508194505b50506001016102cb565b505f5f610431846104b4565b9092509050610441818386610523565b98975050505050505050565b6060815f0361046f57604051638b9ae95f60e01b815260040160405180910390fd5b6040805160018082528183019092525f91602080830190803683370190505090505f815f815181106104a3576104a361082a565b602090810291909101015292915050565b80515f90819081908190815b81811015610517575f8782815181106104db576104db61082a565b60200260200101519050848111156104f9578094506001935061050e565b84810361050e578361050a81610852565b9450505b506001016104c0565b50919590945092505050565b60605f8467ffffffffffffffff81111561053f5761053f6105d9565b604051908082528060200260200182016040528015610568578160200160208202803683370190505b5083519091505f805b828110156105cd578686828151811061058c5761058c61082a565b6020026020010151036105c557808483815181106105ac576105ac61082a565b6020908102919091010152816105c181610852565b9250505b600101610571565b50919695505050505050565b634e487b7160e01b5f52604160045260245ffd5b604051601f8201601f1916810167ffffffffffffffff81118282101715610616576106166105d9565b604052919050565b5f6020828403121561062e575f5ffd5b813567ffffffffffffffff811115610644575f5ffd5b8201601f81018413610654575f5ffd5b803567ffffffffffffffff81111561066e5761066e6105d9565b610681601f8201601f19166020016105ed565b818152856020838501011115610695575f5ffd5b816020840160208301375f91810160200191909152949350505050565b602080825282518282018190525f918401906040840190835b818110156106e95783518352602093840193909201916001016106cb565b509095945050505050565b5f67ffffffffffffffff82111561070d5761070d6105d9565b5060051b60200190565b5f60208284031215610727575f5ffd5b815167ffffffffffffffff81111561073d575f5ffd5b8201601f8101841361074d575f5ffd5b805161076061075b826106f4565b6105ed565b8082825260208201915060208360051b850101925086831115610781575f5ffd5b602084015b8381101561081f57805167ffffffffffffffff8111156107a4575f5ffd5b8501603f810189136107b4575f5ffd5b60208101516107c561075b826106f4565b808282526020820191506020808460051b8601010192508b8311156107e8575f5ffd5b6040840193505b8284101561080a5783518252602093840193909101906107ef565b86525050602093840193919091019050610786565b509695505050505050565b634e487b7160e01b5f52603260045260245ffd5b634e487b7160e01b5f52601160045260245ffd5b5f600182016108635761086361083e565b5060010190565b8082018082111561087d5761087d61083e565b9291505056fea26469706673582212203d2c35ba5a36fdd2192d3690c9a342d91d6eeb44cc8be89fe0164daf31a8ff1e64736f6c634300081c0033","linkReferences":{}},"methodIdentifiers":{"calculateKemenyYoungResult(bytes)":"d5175990"},"id":15}