{
  "_format": "hh-sol-artifact-1",
  "contractName": "Election",
  "sourceName": "contracts/Election.sol",
  "abi": [
    {
      "inputs": [],
      "name": "AlreadyVoted",
      "type": "error"
    },
    {
      "inputs": [],
      "name": "ElectionInactive",
      "type": "error"
    },
    {
      "inputs": [],
      "name": "ElectionIncomplete",
      "type": "error"
    },
    {
      "inputs": [],
      "name": "GetVotes",
      "type": "error"
    },
    {
      "inputs": [],
      "name": "OwnerPermissioned",
      "type": "error"
    },
    {
      "anonymous": false,
      "inputs": [
        {
          "indexed": false,
          "internalType": "uint8",
          "name": "version",
          "type": "uint8"
        }
      ],
      "name": "Initialized",
      "type": "event"
    },
    {
      "inputs": [
        {
          "internalType": "string",
          "name": "_name",
          "type": "string"
        }
      ],
      "name": "addCandidate",
      "outputs": [],
      "stateMutability": "nonpayable",
      "type": "function"
    },
    {
      "inputs": [
        {
          "internalType": "uint256",
          "name": "",
          "type": "uint256"
        }
      ],
      "name": "candidates",
      "outputs": [
        {
          "internalType": "uint256",
          "name": "candidateID",
          "type": "uint256"
        },
        {
          "internalType": "string",
          "name": "name",
          "type": "string"
        }
      ],
      "stateMutability": "view",
      "type": "function"
    },
    {
      "inputs": [
        {
          "internalType": "address",
          "name": "user",
          "type": "address"
        },
        {
          "internalType": "uint256[]",
          "name": "_voteArr",
          "type": "uint256[]"
        }
      ],
      "name": "ccipVote",
      "outputs": [],
      "stateMutability": "nonpayable",
      "type": "function"
    },
    {
      "inputs": [],
      "name": "electionInfo",
      "outputs": [
        {
          "internalType": "uint256",
          "name": "startTime",
          "type": "uint256"
        },
        {
          "internalType": "uint256",
          "name": "endTime",
          "type": "uint256"
        },
        {
          "internalType": "string",
          "name": "name",
          "type": "string"
        },
        {
          "internalType": "string",
          "name": "description",
          "type": "string"
        }
      ],
      "stateMutability": "view",
      "type": "function"
    },
    {
      "inputs": [],
      "name": "factoryContract",
      "outputs": [
        {
          "internalType": "address",
          "name": "",
          "type": "address"
        }
      ],
      "stateMutability": "view",
      "type": "function"
    },
    {
      "inputs": [],
      "name": "getCandidateList",
      "outputs": [
        {
          "components": [
            {
              "internalType": "uint256",
              "name": "candidateID",
              "type": "uint256"
            },
            {
              "internalType": "string",
              "name": "name",
              "type": "string"
            }
          ],
          "internalType": "struct Election.Candidate[]",
          "name": "",
          "type": "tuple[]"
        }
      ],
      "stateMutability": "view",
      "type": "function"
    },
    {
      "inputs": [],
      "name": "getResult",
      "outputs": [
        {
          "internalType": "uint256",
          "name": "",
          "type": "uint256"
        }
      ],
      "stateMutability": "nonpayable",
      "type": "function"
    },
    {
      "inputs": [
        {
          "components": [
            {
              "internalType": "uint256",
              "name": "startTime",
              "type": "uint256"
            },
            {
              "internalType": "uint256",
              "name": "endTime",
              "type": "uint256"
            },
            {
              "internalType": "string",
              "name": "name",
              "type": "string"
            },
            {
              "internalType": "string",
              "name": "description",
              "type": "string"
            }
          ],
          "internalType": "struct Election.ElectionInfo",
          "name": "_electionInfo",
          "type": "tuple"
        },
        {
          "internalType": "uint256",
          "name": "_resultType",
          "type": "uint256"
        },
        {
          "internalType": "address",
          "name": "_ballot",
          "type": "address"
        },
        {
          "internalType": "address",
          "name": "_owner",
          "type": "address"
        },
        {
          "internalType": "address",
          "name": "_resultCalculator",
          "type": "address"
        }
      ],
      "name": "initialize",
      "outputs": [],
      "stateMutability": "nonpayable",
      "type": "function"
    },
    {
      "inputs": [],
      "name": "owner",
      "outputs": [
        {
          "internalType": "address",
          "name": "",
          "type": "address"
        }
      ],
      "stateMutability": "view",
      "type": "function"
    },
    {
      "inputs": [
        {
          "internalType": "uint256",
          "name": "_id",
          "type": "uint256"
        }
      ],
      "name": "removeCandidate",
      "outputs": [],
      "stateMutability": "nonpayable",
      "type": "function"
    },
    {
      "inputs": [],
      "name": "resultType",
      "outputs": [
        {
          "internalType": "uint256",
          "name": "",
          "type": "uint256"
        }
      ],
      "stateMutability": "view",
      "type": "function"
    },
    {
      "inputs": [
        {
          "internalType": "uint256[]",
          "name": "voteArr",
          "type": "uint256[]"
        }
      ],
      "name": "userVote",
      "outputs": [],
      "stateMutability": "nonpayable",
      "type": "function"
    },
    {
      "inputs": [
        {
          "internalType": "address",
          "name": "user",
          "type": "address"
        }
      ],
      "name": "userVoted",
      "outputs": [
        {
          "internalType": "bool",
          "name": "isVoted",
          "type": "bool"
        }
      ],
      "stateMutability": "view",
      "type": "function"
    },
    {
      "inputs": [],
      "name": "winner",
      "outputs": [
        {
          "internalType": "uint256",
          "name": "",
          "type": "uint256"
        }
      ],
      "stateMutability": "view",
      "type": "function"
    }
  ],
  "bytecode": "0x608060405234801561001057600080fd5b506122e8806100206000396000f3fe608060405234801561001057600080fd5b50600436106100ea5760003560e01c80636c74bf6d1161008c578063de11c94a11610066578063de11c94a14610239578063de29278914610257578063dfbf53ae14610275578063fdbc400614610293576100ea565b80636c74bf6d146101dc5780638da5cb5b146101fd578063c720990a1461021b576100ea565b8063462e91ec116100c8578063462e91ec1461016c578063510c2d0d146101885780636439684c146101a45780636a334fe3146101c0576100ea565b806309e9d7e2146100ef578063254fe7d71461010b5780633477ee2e1461013b575b600080fd5b610109600480360381019061010491906112cb565b6102b1565b005b61012560048036038101906101209190611356565b61041f565b604051610132919061139e565b60405180910390f35b610155600480360381019061015091906112cb565b61043f565b604051610163929190611458565b60405180910390f35b610186600480360381019061018191906114ed565b6104fb565b005b6101a2600480360381019061019d9190611678565b610637565b005b6101be60048036038101906101b99190611843565b6107a6565b005b6101da60048036038101906101d591906118da565b610a32565b005b6101e4610cb4565b6040516101f49493929190611923565b60405180910390f35b610205610de2565b6040516102129190611985565b60405180910390f35b610223610e08565b60405161023091906119a0565b60405180910390f35b610241610e0e565b60405161024e9190611985565b60405180910390f35b61025f610e34565b60405161026c91906119a0565b60405180910390f35b61027d611100565b60405161028a91906119a0565b60405180910390f35b61029b611106565b6040516102a89190611b13565b60405180910390f35b600760009054906101000a900473ffffffffffffffffffffffffffffffffffffffff1673ffffffffffffffffffffffffffffffffffffffff163373ffffffffffffffffffffffffffffffffffffffff1614610338576040517fa0acb8a400000000000000000000000000000000000000000000000000000000815260040160405180910390fd5b600c6001600c8054905061034c9190611b64565b8154811061035d5761035c611b98565b5b9060005260206000209060020201600c828154811061037f5761037e611b98565b5b906000526020600020906002020160008201548160000155600182018160010190816103ab9190611de9565b5090505080600c82815481106103c4576103c3611b98565b5b906000526020600020906002020160000181905550600c8054806103eb576103ea611ed1565b5b60019003818190600052602060002090600202016000808201600090556001820160006104189190611224565b5050905550565b60016020528060005260406000206000915054906101000a900460ff1681565b600c818154811061044f57600080fd5b906000526020600020906002020160009150905080600001549080600101805461047890611bf6565b80601f01602080910402602001604051908101604052809291908181526020018280546104a490611bf6565b80156104f15780601f106104c6576101008083540402835291602001916104f1565b820191906000526020600020905b8154815290600101906020018083116104d457829003601f168201915b5050505050905082565b600760009054906101000a900473ffffffffffffffffffffffffffffffffffffffff1673ffffffffffffffffffffffffffffffffffffffff163373ffffffffffffffffffffffffffffffffffffffff1614610582576040517fa0acb8a400000000000000000000000000000000000000000000000000000000815260040160405180910390fd5b60006040518060400160405280600c80549050815260200184848080601f016020809104026020016040519081016040528093929190818152602001838380828437600081840152601f19601f820116905080830192505050505050508152509050600c81908060018154018082558091505060019003906000526020600020906002020160009091909190915060008201518160000155602082015181600101908161062f9190611f00565b505050505050565b600660009054906101000a900473ffffffffffffffffffffffffffffffffffffffff1673ffffffffffffffffffffffffffffffffffffffff163373ffffffffffffffffffffffffffffffffffffffff16146106be576040517fa0acb8a400000000000000000000000000000000000000000000000000000000815260040160405180910390fd5b60018060008473ffffffffffffffffffffffffffffffffffffffff1673ffffffffffffffffffffffffffffffffffffffff16815260200190815260200160002060006101000a81548160ff021916908315150217905550600a60019054906101000a900473ffffffffffffffffffffffffffffffffffffffff1673ffffffffffffffffffffffffffffffffffffffff1663ce11f2bb826040518263ffffffff1660e01b81526004016107709190612081565b600060405180830381600087803b15801561078a57600080fd5b505af115801561079e573d6000803e3d6000fd5b505050505050565b60008060019054906101000a900460ff161590508080156107d75750600160008054906101000a900460ff1660ff16105b8061080457506107e630611201565b1580156108035750600160008054906101000a900460ff1660ff16145b5b610843576040517f08c379a000000000000000000000000000000000000000000000000000000000815260040161083a90612115565b60405180910390fd5b60016000806101000a81548160ff021916908360ff1602179055508015610880576001600060016101000a81548160ff0219169083151502179055505b856002600082015181600001556020820151816001015560408201518160020190816108ac9190611f00565b5060608201518160030190816108c29190611f00565b509050508460098190555082600760006101000a81548173ffffffffffffffffffffffffffffffffffffffff021916908373ffffffffffffffffffffffffffffffffffffffff16021790555033600660006101000a81548173ffffffffffffffffffffffffffffffffffffffff021916908373ffffffffffffffffffffffffffffffffffffffff16021790555083600a60016101000a81548173ffffffffffffffffffffffffffffffffffffffff021916908373ffffffffffffffffffffffffffffffffffffffff16021790555081600b60006101000a81548173ffffffffffffffffffffffffffffffffffffffff021916908373ffffffffffffffffffffffffffffffffffffffff1602179055508015610a2a5760008060016101000a81548160ff0219169083151502179055507f7f26b83ff96e1f2b6a682f133852f6798a09c465da95921460cefb38474024986001604051610a21919061217d565b60405180910390a15b505050505050565b600160003373ffffffffffffffffffffffffffffffffffffffff1673ffffffffffffffffffffffffffffffffffffffff16815260200190815260200160002060009054906101000a900460ff1615610ab6576040517f7c9a1cf900000000000000000000000000000000000000000000000000000000815260040160405180910390fd5b600260000154421080610acd575060026001015442115b15610b04576040517f715ef7af00000000000000000000000000000000000000000000000000000000815260040160405180910390fd5b60001515600a60009054906101000a900460ff16151503610bcd57600a60019054906101000a900473ffffffffffffffffffffffffffffffffffffffff1673ffffffffffffffffffffffffffffffffffffffff1663b7b0422d600c805490506040518263ffffffff1660e01b8152600401610b7f91906119a0565b600060405180830381600087803b158015610b9957600080fd5b505af1158015610bad573d6000803e3d6000fd5b505050506001600a60006101000a81548160ff0219169083151502179055505b600a60019054906101000a900473ffffffffffffffffffffffffffffffffffffffff1673ffffffffffffffffffffffffffffffffffffffff1663ce11f2bb826040518263ffffffff1660e01b8152600401610c289190612081565b600060405180830381600087803b158015610c4257600080fd5b505af1158015610c56573d6000803e3d6000fd5b5050505060018060003373ffffffffffffffffffffffffffffffffffffffff1673ffffffffffffffffffffffffffffffffffffffff16815260200190815260200160002060006101000a81548160ff02191690831515021790555050565b6002806000015490806001015490806002018054610cd190611bf6565b80601f0160208091040260200160405190810160405280929190818152602001828054610cfd90611bf6565b8015610d4a5780601f10610d1f57610100808354040283529160200191610d4a565b820191906000526020600020905b815481529060010190602001808311610d2d57829003601f168201915b505050505090806003018054610d5f90611bf6565b80601f0160208091040260200160405190810160405280929190818152602001828054610d8b90611bf6565b8015610dd85780601f10610dad57610100808354040283529160200191610dd8565b820191906000526020600020905b815481529060010190602001808311610dbb57829003601f168201915b5050505050905084565b600760009054906101000a900473ffffffffffffffffffffffffffffffffffffffff1681565b60095481565b600660009054906101000a900473ffffffffffffffffffffffffffffffffffffffff1681565b6000600760009054906101000a900473ffffffffffffffffffffffffffffffffffffffff1673ffffffffffffffffffffffffffffffffffffffff163373ffffffffffffffffffffffffffffffffffffffff1614610ebd576040517fa0acb8a400000000000000000000000000000000000000000000000000000000815260040160405180910390fd5b600260010154421015610efc576040517f69b8b9ab00000000000000000000000000000000000000000000000000000000815260040160405180910390fd5b60006040516024016040516020818303038152906040527f0dc96015000000000000000000000000000000000000000000000000000000007bffffffffffffffffffffffffffffffffffffffffffffffffffffffff19166020820180517bffffffffffffffffffffffffffffffffffffffffffffffffffffffff83818316178352505050509050600080600a60019054906101000a900473ffffffffffffffffffffffffffffffffffffffff1673ffffffffffffffffffffffffffffffffffffffff1683604051610fcd91906121df565b600060405180830381855afa9150503d8060008114611008576040519150601f19603f3d011682016040523d82523d6000602084013e61100d565b606091505b509150915081611049576040517f506e74f500000000000000000000000000000000000000000000000000000000815260040160405180910390fd5b6000600b60009054906101000a900473ffffffffffffffffffffffffffffffffffffffff1673ffffffffffffffffffffffffffffffffffffffff1663934150cc836009546040518363ffffffff1660e01b81526004016110aa929190612240565b6020604051808303816000875af11580156110c9573d6000803e3d6000fd5b505050506040513d601f19601f820116820180604052508101906110ed9190612285565b9050806008819055508094505050505090565b60085481565b6060600c805480602002602001604051908101604052809291908181526020016000905b828210156111f857838290600052602060002090600202016040518060400160405290816000820154815260200160018201805461116790611bf6565b80601f016020809104026020016040519081016040528092919081815260200182805461119390611bf6565b80156111e05780601f106111b5576101008083540402835291602001916111e0565b820191906000526020600020905b8154815290600101906020018083116111c357829003601f168201915b5050505050815250508152602001906001019061112a565b50505050905090565b6000808273ffffffffffffffffffffffffffffffffffffffff163b119050919050565b50805461123090611bf6565b6000825580601f106112425750611261565b601f0160209004906000526020600020908101906112609190611264565b5b50565b5b8082111561127d576000816000905550600101611265565b5090565b6000604051905090565b600080fd5b600080fd5b6000819050919050565b6112a881611295565b81146112b357600080fd5b50565b6000813590506112c58161129f565b92915050565b6000602082840312156112e1576112e061128b565b5b60006112ef848285016112b6565b91505092915050565b600073ffffffffffffffffffffffffffffffffffffffff82169050919050565b6000611323826112f8565b9050919050565b61133381611318565b811461133e57600080fd5b50565b6000813590506113508161132a565b92915050565b60006020828403121561136c5761136b61128b565b5b600061137a84828501611341565b91505092915050565b60008115159050919050565b61139881611383565b82525050565b60006020820190506113b3600083018461138f565b92915050565b6113c281611295565b82525050565b600081519050919050565b600082825260208201905092915050565b60005b838110156114025780820151818401526020810190506113e7565b60008484015250505050565b6000601f19601f8301169050919050565b600061142a826113c8565b61143481856113d3565b93506114448185602086016113e4565b61144d8161140e565b840191505092915050565b600060408201905061146d60008301856113b9565b818103602083015261147f818461141f565b90509392505050565b600080fd5b600080fd5b600080fd5b60008083601f8401126114ad576114ac611488565b5b8235905067ffffffffffffffff8111156114ca576114c961148d565b5b6020830191508360018202830111156114e6576114e5611492565b5b9250929050565b600080602083850312156115045761150361128b565b5b600083013567ffffffffffffffff81111561152257611521611290565b5b61152e85828601611497565b92509250509250929050565b7f4e487b7100000000000000000000000000000000000000000000000000000000600052604160045260246000fd5b6115728261140e565b810181811067ffffffffffffffff821117156115915761159061153a565b5b80604052505050565b60006115a4611281565b90506115b08282611569565b919050565b600067ffffffffffffffff8211156115d0576115cf61153a565b5b602082029050602081019050919050565b60006115f46115ef846115b5565b61159a565b9050808382526020820190506020840283018581111561161757611616611492565b5b835b81811015611640578061162c88826112b6565b845260208401935050602081019050611619565b5050509392505050565b600082601f83011261165f5761165e611488565b5b813561166f8482602086016115e1565b91505092915050565b6000806040838503121561168f5761168e61128b565b5b600061169d85828601611341565b925050602083013567ffffffffffffffff8111156116be576116bd611290565b5b6116ca8582860161164a565b9150509250929050565b600080fd5b600080fd5b600080fd5b600067ffffffffffffffff8211156116fe576116fd61153a565b5b6117078261140e565b9050602081019050919050565b82818337600083830152505050565b6000611736611731846116e3565b61159a565b905082815260208101848484011115611752576117516116de565b5b61175d848285611714565b509392505050565b600082601f83011261177a57611779611488565b5b813561178a848260208601611723565b91505092915050565b6000608082840312156117a9576117a86116d4565b5b6117b3608061159a565b905060006117c3848285016112b6565b60008301525060206117d7848285016112b6565b602083015250604082013567ffffffffffffffff8111156117fb576117fa6116d9565b5b61180784828501611765565b604083015250606082013567ffffffffffffffff81111561182b5761182a6116d9565b5b61183784828501611765565b60608301525092915050565b600080600080600060a0868803121561185f5761185e61128b565b5b600086013567ffffffffffffffff81111561187d5761187c611290565b5b61188988828901611793565b955050602061189a888289016112b6565b94505060406118ab88828901611341565b93505060606118bc88828901611341565b92505060806118cd88828901611341565b9150509295509295909350565b6000602082840312156118f0576118ef61128b565b5b600082013567ffffffffffffffff81111561190e5761190d611290565b5b61191a8482850161164a565b91505092915050565b600060808201905061193860008301876113b9565b61194560208301866113b9565b8181036040830152611957818561141f565b9050818103606083015261196b818461141f565b905095945050505050565b61197f81611318565b82525050565b600060208201905061199a6000830184611976565b92915050565b60006020820190506119b560008301846113b9565b92915050565b600081519050919050565b600082825260208201905092915050565b6000819050602082019050919050565b6119f081611295565b82525050565b600082825260208201905092915050565b6000611a12826113c8565b611a1c81856119f6565b9350611a2c8185602086016113e4565b611a358161140e565b840191505092915050565b6000604083016000830151611a5860008601826119e7565b5060208301518482036020860152611a708282611a07565b9150508091505092915050565b6000611a898383611a40565b905092915050565b6000602082019050919050565b6000611aa9826119bb565b611ab381856119c6565b935083602082028501611ac5856119d7565b8060005b85811015611b015784840389528151611ae28582611a7d565b9450611aed83611a91565b925060208a01995050600181019050611ac9565b50829750879550505050505092915050565b60006020820190508181036000830152611b2d8184611a9e565b905092915050565b7f4e487b7100000000000000000000000000000000000000000000000000000000600052601160045260246000fd5b6000611b6f82611295565b9150611b7a83611295565b9250828203905081811115611b9257611b91611b35565b5b92915050565b7f4e487b7100000000000000000000000000000000000000000000000000000000600052603260045260246000fd5b7f4e487b7100000000000000000000000000000000000000000000000000000000600052602260045260246000fd5b60006002820490506001821680611c0e57607f821691505b602082108103611c2157611c20611bc7565b5b50919050565b600081549050611c3681611bf6565b9050919050565b60008190508160005260206000209050919050565b60006020601f8301049050919050565b600082821b905092915050565b600060088302611c9f7fffffffffffffffffffffffffffffffffffffffffffffffffffffffffffffffff82611c62565b611ca98683611c62565b95508019841693508086168417925050509392505050565b6000819050919050565b6000611ce6611ce1611cdc84611295565b611cc1565b611295565b9050919050565b6000819050919050565b611d0083611ccb565b611d14611d0c82611ced565b848454611c6f565b825550505050565b600090565b611d29611d1c565b611d34818484611cf7565b505050565b5b81811015611d5857611d4d600082611d21565b600181019050611d3a565b5050565b601f821115611d9d57611d6e81611c3d565b611d7784611c52565b81016020851015611d86578190505b611d9a611d9285611c52565b830182611d39565b50505b505050565b600082821c905092915050565b6000611dc060001984600802611da2565b1980831691505092915050565b6000611dd98383611daf565b9150826002028217905092915050565b818103611df7575050611ecf565b611e0082611c27565b67ffffffffffffffff811115611e1957611e1861153a565b5b611e238254611bf6565b611e2e828285611d5c565b6000601f831160018114611e5d5760008415611e4b578287015490505b611e558582611dcd565b865550611ec8565b601f198416611e6b87611c3d565b9650611e7686611c3d565b60005b82811015611e9e57848901548255600182019150600185019450602081019050611e79565b86831015611ebb5784890154611eb7601f891682611daf565b8355505b6001600288020188555050505b5050505050505b565b7f4e487b7100000000000000000000000000000000000000000000000000000000600052603160045260246000fd5b611f09826113c8565b67ffffffffffffffff811115611f2257611f2161153a565b5b611f2c8254611bf6565b611f37828285611d5c565b600060209050601f831160018114611f6a5760008415611f58578287015190505b611f628582611dcd565b865550611fca565b601f198416611f7886611c3d565b60005b82811015611fa057848901518255600182019150602085019450602081019050611f7b565b86831015611fbd5784890151611fb9601f891682611daf565b8355505b6001600288020188555050505b505050505050565b600081519050919050565b600082825260208201905092915050565b6000819050602082019050919050565b600061200a83836119e7565b60208301905092915050565b6000602082019050919050565b600061202e82611fd2565b6120388185611fdd565b935061204383611fee565b8060005b8381101561207457815161205b8882611ffe565b975061206683612016565b925050600181019050612047565b5085935050505092915050565b6000602082019050818103600083015261209b8184612023565b905092915050565b7f496e697469616c697a61626c653a20636f6e747261637420697320616c72656160008201527f647920696e697469616c697a6564000000000000000000000000000000000000602082015250565b60006120ff602e836113d3565b915061210a826120a3565b604082019050919050565b6000602082019050818103600083015261212e816120f2565b9050919050565b6000819050919050565b600060ff82169050919050565b600061216761216261215d84612135565b611cc1565b61213f565b9050919050565b6121778161214c565b82525050565b6000602082019050612192600083018461216e565b92915050565b600081519050919050565b600081905092915050565b60006121b982612198565b6121c381856121a3565b93506121d38185602086016113e4565b80840191505092915050565b60006121eb82846121ae565b915081905092915050565b600082825260208201905092915050565b600061221282612198565b61221c81856121f6565b935061222c8185602086016113e4565b6122358161140e565b840191505092915050565b6000604082019050818103600083015261225a8185612207565b905061226960208301846113b9565b9392505050565b60008151905061227f8161129f565b92915050565b60006020828403121561229b5761229a61128b565b5b60006122a984828501612270565b9150509291505056fea26469706673582212203ff6063e5b6a058a77454691c8e6d45eaf012335a1d3a396a92cf998673c042e64736f6c63430008180033",
  "linkReferences": {},
  "deployedLinkReferences": {}
}