{
  "_format": "hh-sol-artifact-1",
  "contractName": "Election",
  "sourceName": "contracts/Election.sol",
  "abi": [
    {
      "inputs": [],
      "name": "OwnerPermissioned",
      "type": "error"
    },
    {
      "anonymous": false,
      "inputs": [
        {
          "indexed": false,
          "internalType": "uint8",
          "name": "version",
          "type": "uint8"
        }
      ],
      "name": "Initialized",
      "type": "event"
    },
    {
      "inputs": [
        {
          "internalType": "string",
          "name": "_name",
          "type": "string"
        }
      ],
      "name": "addCandidate",
      "outputs": [],
      "stateMutability": "nonpayable",
      "type": "function"
    },
    {
      "inputs": [
        {
          "internalType": "uint256",
          "name": "",
          "type": "uint256"
        }
      ],
      "name": "candidates",
      "outputs": [
        {
          "internalType": "uint256",
          "name": "candidateID",
          "type": "uint256"
        },
        {
          "internalType": "string",
          "name": "name",
          "type": "string"
        }
      ],
      "stateMutability": "view",
      "type": "function"
    },
    {
      "inputs": [
        {
          "internalType": "address",
          "name": "user",
          "type": "address"
        },
        {
          "internalType": "uint256[]",
          "name": "_voteArr",
          "type": "uint256[]"
        }
      ],
      "name": "ccipVote",
      "outputs": [],
      "stateMutability": "nonpayable",
      "type": "function"
    },
    {
      "inputs": [],
      "name": "electionInfo",
      "outputs": [
        {
          "internalType": "uint256",
          "name": "startTime",
          "type": "uint256"
        },
        {
          "internalType": "uint256",
          "name": "endTime",
          "type": "uint256"
        },
        {
          "internalType": "string",
          "name": "name",
          "type": "string"
        },
        {
          "internalType": "string",
          "name": "description",
          "type": "string"
        }
      ],
      "stateMutability": "view",
      "type": "function"
    },
    {
      "inputs": [],
      "name": "factoryContract",
      "outputs": [
        {
          "internalType": "address",
          "name": "",
          "type": "address"
        }
      ],
      "stateMutability": "view",
      "type": "function"
    },
    {
      "inputs": [],
      "name": "getCandidateList",
      "outputs": [
        {
          "components": [
            {
              "internalType": "uint256",
              "name": "candidateID",
              "type": "uint256"
            },
            {
              "internalType": "string",
              "name": "name",
              "type": "string"
            }
          ],
          "internalType": "struct Election.Candidate[]",
          "name": "",
          "type": "tuple[]"
        }
      ],
      "stateMutability": "view",
      "type": "function"
    },
    {
      "inputs": [],
      "name": "getResult",
      "outputs": [
        {
          "internalType": "uint256",
          "name": "",
          "type": "uint256"
        }
      ],
      "stateMutability": "nonpayable",
      "type": "function"
    },
    {
      "inputs": [
        {
          "components": [
            {
              "internalType": "uint256",
              "name": "startTime",
              "type": "uint256"
            },
            {
              "internalType": "uint256",
              "name": "endTime",
              "type": "uint256"
            },
            {
              "internalType": "string",
              "name": "name",
              "type": "string"
            },
            {
              "internalType": "string",
              "name": "description",
              "type": "string"
            }
          ],
          "internalType": "struct Election.ElectionInfo",
          "name": "_electionInfo",
          "type": "tuple"
        },
        {
          "internalType": "uint256",
          "name": "_resultType",
          "type": "uint256"
        },
        {
          "internalType": "address",
          "name": "_ballot",
          "type": "address"
        },
        {
          "internalType": "address",
          "name": "_owner",
          "type": "address"
        },
        {
          "internalType": "address",
          "name": "_resultCalculator",
          "type": "address"
        }
      ],
      "name": "initialize",
      "outputs": [],
      "stateMutability": "nonpayable",
      "type": "function"
    },
    {
      "inputs": [],
      "name": "owner",
      "outputs": [
        {
          "internalType": "address",
          "name": "",
          "type": "address"
        }
      ],
      "stateMutability": "view",
      "type": "function"
    },
    {
      "inputs": [
        {
          "internalType": "uint256",
          "name": "_id",
          "type": "uint256"
        }
      ],
      "name": "removeCandidate",
      "outputs": [],
      "stateMutability": "nonpayable",
      "type": "function"
    },
    {
      "inputs": [],
      "name": "resultType",
      "outputs": [
        {
          "internalType": "uint256",
          "name": "",
          "type": "uint256"
        }
      ],
      "stateMutability": "view",
      "type": "function"
    },
    {
      "inputs": [
        {
          "internalType": "uint256[]",
          "name": "voteArr",
          "type": "uint256[]"
        }
      ],
      "name": "userVote",
      "outputs": [],
      "stateMutability": "nonpayable",
      "type": "function"
    },
    {
      "inputs": [
        {
          "internalType": "address",
          "name": "user",
          "type": "address"
        }
      ],
      "name": "userVoted",
      "outputs": [
        {
          "internalType": "bool",
          "name": "isVoted",
          "type": "bool"
        }
      ],
      "stateMutability": "view",
      "type": "function"
    },
    {
      "inputs": [],
      "name": "winner",
      "outputs": [
        {
          "internalType": "uint256",
          "name": "",
          "type": "uint256"
        }
      ],
      "stateMutability": "view",
      "type": "function"
    }
  ],
  "bytecode": "0x608060405234801561001057600080fd5b50612483806100206000396000f3fe608060405234801561001057600080fd5b50600436106100ea5760003560e01c80636c74bf6d1161008c578063de11c94a11610066578063de11c94a14610239578063de29278914610257578063dfbf53ae14610275578063fdbc400614610293576100ea565b80636c74bf6d146101dc5780638da5cb5b146101fd578063c720990a1461021b576100ea565b8063462e91ec116100c8578063462e91ec1461016c578063510c2d0d146101885780636439684c146101a45780636a334fe3146101c0576100ea565b806309e9d7e2146100ef578063254fe7d71461010b5780633477ee2e1461013b575b600080fd5b610109600480360381019061010491906112b6565b6102b1565b005b61012560048036038101906101209190611341565b61041f565b6040516101329190611389565b60405180910390f35b610155600480360381019061015091906112b6565b61043f565b604051610163929190611443565b60405180910390f35b610186600480360381019061018191906114d8565b6104fb565b005b6101a2600480360381019061019d9190611663565b610637565b005b6101be60048036038101906101b9919061182e565b6107af565b005b6101da60048036038101906101d591906118c5565b610a3b565b005b6101e4610cd5565b6040516101f4949392919061190e565b60405180910390f35b610205610e03565b6040516102129190611970565b60405180910390f35b610223610e29565b604051610230919061198b565b60405180910390f35b610241610e2f565b60405161024e9190611970565b60405180910390f35b61025f610e55565b60405161026c919061198b565b60405180910390f35b61027d6110eb565b60405161028a919061198b565b60405180910390f35b61029b6110f1565b6040516102a89190611afe565b60405180910390f35b600760009054906101000a900473ffffffffffffffffffffffffffffffffffffffff1673ffffffffffffffffffffffffffffffffffffffff163373ffffffffffffffffffffffffffffffffffffffff1614610338576040517fa0acb8a400000000000000000000000000000000000000000000000000000000815260040160405180910390fd5b600c6001600c8054905061034c9190611b4f565b8154811061035d5761035c611b83565b5b9060005260206000209060020201600c828154811061037f5761037e611b83565b5b906000526020600020906002020160008201548160000155600182018160010190816103ab9190611dd4565b5090505080600c82815481106103c4576103c3611b83565b5b906000526020600020906002020160000181905550600c8054806103eb576103ea611ebc565b5b6001900381819060005260206000209060020201600080820160009055600182016000610418919061120f565b5050905550565b60016020528060005260406000206000915054906101000a900460ff1681565b600c818154811061044f57600080fd5b906000526020600020906002020160009150905080600001549080600101805461047890611be1565b80601f01602080910402602001604051908101604052809291908181526020018280546104a490611be1565b80156104f15780601f106104c6576101008083540402835291602001916104f1565b820191906000526020600020905b8154815290600101906020018083116104d457829003601f168201915b5050505050905082565b600760009054906101000a900473ffffffffffffffffffffffffffffffffffffffff1673ffffffffffffffffffffffffffffffffffffffff163373ffffffffffffffffffffffffffffffffffffffff1614610582576040517fa0acb8a400000000000000000000000000000000000000000000000000000000815260040160405180910390fd5b60006040518060400160405280600c80549050815260200184848080601f016020809104026020016040519081016040528093929190818152602001838380828437600081840152601f19601f820116905080830192505050505050508152509050600c81908060018154018082558091505060019003906000526020600020906002020160009091909190915060008201518160000155602082015181600101908161062f9190611eeb565b505050505050565b600660009054906101000a900473ffffffffffffffffffffffffffffffffffffffff1673ffffffffffffffffffffffffffffffffffffffff163373ffffffffffffffffffffffffffffffffffffffff16146106c7576040517f08c379a00000000000000000000000000000000000000000000000000000000081526004016106be90612009565b60405180910390fd5b60018060008473ffffffffffffffffffffffffffffffffffffffff1673ffffffffffffffffffffffffffffffffffffffff16815260200190815260200160002060006101000a81548160ff021916908315150217905550600a60019054906101000a900473ffffffffffffffffffffffffffffffffffffffff1673ffffffffffffffffffffffffffffffffffffffff1663ce11f2bb826040518263ffffffff1660e01b815260040161077991906120d8565b600060405180830381600087803b15801561079357600080fd5b505af11580156107a7573d6000803e3d6000fd5b505050505050565b60008060019054906101000a900460ff161590508080156107e05750600160008054906101000a900460ff1660ff16105b8061080d57506107ef306111ec565b15801561080c5750600160008054906101000a900460ff1660ff16145b5b61084c576040517f08c379a00000000000000000000000000000000000000000000000000000000081526004016108439061216c565b60405180910390fd5b60016000806101000a81548160ff021916908360ff1602179055508015610889576001600060016101000a81548160ff0219169083151502179055505b856002600082015181600001556020820151816001015560408201518160020190816108b59190611eeb565b5060608201518160030190816108cb9190611eeb565b509050508460098190555082600760006101000a81548173ffffffffffffffffffffffffffffffffffffffff021916908373ffffffffffffffffffffffffffffffffffffffff16021790555033600660006101000a81548173ffffffffffffffffffffffffffffffffffffffff021916908373ffffffffffffffffffffffffffffffffffffffff16021790555083600a60016101000a81548173ffffffffffffffffffffffffffffffffffffffff021916908373ffffffffffffffffffffffffffffffffffffffff16021790555081600b60006101000a81548173ffffffffffffffffffffffffffffffffffffffff021916908373ffffffffffffffffffffffffffffffffffffffff1602179055508015610a335760008060016101000a81548160ff0219169083151502179055507f7f26b83ff96e1f2b6a682f133852f6798a09c465da95921460cefb38474024986001604051610a2a91906121d4565b60405180910390a15b505050505050565b60001515600160003373ffffffffffffffffffffffffffffffffffffffff1673ffffffffffffffffffffffffffffffffffffffff16815260200190815260200160002060009054906101000a900460ff16151514610ace576040517f08c379a0000000000000000000000000000000000000000000000000000000008152600401610ac59061223b565b60405180910390fd5b60026000015442118015610ae6575060026001015442105b610b25576040517f08c379a0000000000000000000000000000000000000000000000000000000008152600401610b1c906122a7565b60405180910390fd5b60001515600a60009054906101000a900460ff16151503610bee57600a60019054906101000a900473ffffffffffffffffffffffffffffffffffffffff1673ffffffffffffffffffffffffffffffffffffffff1663b7b0422d600c805490506040518263ffffffff1660e01b8152600401610ba0919061198b565b600060405180830381600087803b158015610bba57600080fd5b505af1158015610bce573d6000803e3d6000fd5b505050506001600a60006101000a81548160ff0219169083151502179055505b600a60019054906101000a900473ffffffffffffffffffffffffffffffffffffffff1673ffffffffffffffffffffffffffffffffffffffff1663ce11f2bb826040518263ffffffff1660e01b8152600401610c4991906120d8565b600060405180830381600087803b158015610c6357600080fd5b505af1158015610c77573d6000803e3d6000fd5b5050505060018060003373ffffffffffffffffffffffffffffffffffffffff1673ffffffffffffffffffffffffffffffffffffffff16815260200190815260200160002060006101000a81548160ff02191690831515021790555050565b6002806000015490806001015490806002018054610cf290611be1565b80601f0160208091040260200160405190810160405280929190818152602001828054610d1e90611be1565b8015610d6b5780601f10610d4057610100808354040283529160200191610d6b565b820191906000526020600020905b815481529060010190602001808311610d4e57829003601f168201915b505050505090806003018054610d8090611be1565b80601f0160208091040260200160405190810160405280929190818152602001828054610dac90611be1565b8015610df95780601f10610dce57610100808354040283529160200191610df9565b820191906000526020600020905b815481529060010190602001808311610ddc57829003601f168201915b5050505050905084565b600760009054906101000a900473ffffffffffffffffffffffffffffffffffffffff1681565b60095481565b600660009054906101000a900473ffffffffffffffffffffffffffffffffffffffff1681565b6000600760009054906101000a900473ffffffffffffffffffffffffffffffffffffffff1673ffffffffffffffffffffffffffffffffffffffff163373ffffffffffffffffffffffffffffffffffffffff1614610ede576040517fa0acb8a400000000000000000000000000000000000000000000000000000000815260040160405180910390fd5b60006040516024016040516020818303038152906040527f0dc96015000000000000000000000000000000000000000000000000000000007bffffffffffffffffffffffffffffffffffffffffffffffffffffffff19166020820180517bffffffffffffffffffffffffffffffffffffffffffffffffffffffff83818316178352505050509050600080600a60019054906101000a900473ffffffffffffffffffffffffffffffffffffffff1673ffffffffffffffffffffffffffffffffffffffff1683604051610faf919061230e565b600060405180830381855afa9150503d8060008114610fea576040519150601f19603f3d011682016040523d82523d6000602084013e610fef565b606091505b509150915081611034576040517f08c379a000000000000000000000000000000000000000000000000000000000815260040161102b90612371565b60405180910390fd5b6000600b60009054906101000a900473ffffffffffffffffffffffffffffffffffffffff1673ffffffffffffffffffffffffffffffffffffffff1663934150cc836009546040518363ffffffff1660e01b81526004016110959291906123db565b6020604051808303816000875af11580156110b4573d6000803e3d6000fd5b505050506040513d601f19601f820116820180604052508101906110d89190612420565b9050806008819055508094505050505090565b60085481565b6060600c805480602002602001604051908101604052809291908181526020016000905b828210156111e357838290600052602060002090600202016040518060400160405290816000820154815260200160018201805461115290611be1565b80601f016020809104026020016040519081016040528092919081815260200182805461117e90611be1565b80156111cb5780601f106111a0576101008083540402835291602001916111cb565b820191906000526020600020905b8154815290600101906020018083116111ae57829003601f168201915b50505050508152505081526020019060010190611115565b50505050905090565b6000808273ffffffffffffffffffffffffffffffffffffffff163b119050919050565b50805461121b90611be1565b6000825580601f1061122d575061124c565b601f01602090049060005260206000209081019061124b919061124f565b5b50565b5b80821115611268576000816000905550600101611250565b5090565b6000604051905090565b600080fd5b600080fd5b6000819050919050565b61129381611280565b811461129e57600080fd5b50565b6000813590506112b08161128a565b92915050565b6000602082840312156112cc576112cb611276565b5b60006112da848285016112a1565b91505092915050565b600073ffffffffffffffffffffffffffffffffffffffff82169050919050565b600061130e826112e3565b9050919050565b61131e81611303565b811461132957600080fd5b50565b60008135905061133b81611315565b92915050565b60006020828403121561135757611356611276565b5b60006113658482850161132c565b91505092915050565b60008115159050919050565b6113838161136e565b82525050565b600060208201905061139e600083018461137a565b92915050565b6113ad81611280565b82525050565b600081519050919050565b600082825260208201905092915050565b60005b838110156113ed5780820151818401526020810190506113d2565b60008484015250505050565b6000601f19601f8301169050919050565b6000611415826113b3565b61141f81856113be565b935061142f8185602086016113cf565b611438816113f9565b840191505092915050565b600060408201905061145860008301856113a4565b818103602083015261146a818461140a565b90509392505050565b600080fd5b600080fd5b600080fd5b60008083601f84011261149857611497611473565b5b8235905067ffffffffffffffff8111156114b5576114b4611478565b5b6020830191508360018202830111156114d1576114d061147d565b5b9250929050565b600080602083850312156114ef576114ee611276565b5b600083013567ffffffffffffffff81111561150d5761150c61127b565b5b61151985828601611482565b92509250509250929050565b7f4e487b7100000000000000000000000000000000000000000000000000000000600052604160045260246000fd5b61155d826113f9565b810181811067ffffffffffffffff8211171561157c5761157b611525565b5b80604052505050565b600061158f61126c565b905061159b8282611554565b919050565b600067ffffffffffffffff8211156115bb576115ba611525565b5b602082029050602081019050919050565b60006115df6115da846115a0565b611585565b905080838252602082019050602084028301858111156116025761160161147d565b5b835b8181101561162b578061161788826112a1565b845260208401935050602081019050611604565b5050509392505050565b600082601f83011261164a57611649611473565b5b813561165a8482602086016115cc565b91505092915050565b6000806040838503121561167a57611679611276565b5b60006116888582860161132c565b925050602083013567ffffffffffffffff8111156116a9576116a861127b565b5b6116b585828601611635565b9150509250929050565b600080fd5b600080fd5b600080fd5b600067ffffffffffffffff8211156116e9576116e8611525565b5b6116f2826113f9565b9050602081019050919050565b82818337600083830152505050565b600061172161171c846116ce565b611585565b90508281526020810184848401111561173d5761173c6116c9565b5b6117488482856116ff565b509392505050565b600082601f83011261176557611764611473565b5b813561177584826020860161170e565b91505092915050565b600060808284031215611794576117936116bf565b5b61179e6080611585565b905060006117ae848285016112a1565b60008301525060206117c2848285016112a1565b602083015250604082013567ffffffffffffffff8111156117e6576117e56116c4565b5b6117f284828501611750565b604083015250606082013567ffffffffffffffff811115611816576118156116c4565b5b61182284828501611750565b60608301525092915050565b600080600080600060a0868803121561184a57611849611276565b5b600086013567ffffffffffffffff8111156118685761186761127b565b5b6118748882890161177e565b9550506020611885888289016112a1565b94505060406118968882890161132c565b93505060606118a78882890161132c565b92505060806118b88882890161132c565b9150509295509295909350565b6000602082840312156118db576118da611276565b5b600082013567ffffffffffffffff8111156118f9576118f861127b565b5b61190584828501611635565b91505092915050565b600060808201905061192360008301876113a4565b61193060208301866113a4565b8181036040830152611942818561140a565b90508181036060830152611956818461140a565b905095945050505050565b61196a81611303565b82525050565b60006020820190506119856000830184611961565b92915050565b60006020820190506119a060008301846113a4565b92915050565b600081519050919050565b600082825260208201905092915050565b6000819050602082019050919050565b6119db81611280565b82525050565b600082825260208201905092915050565b60006119fd826113b3565b611a0781856119e1565b9350611a178185602086016113cf565b611a20816113f9565b840191505092915050565b6000604083016000830151611a4360008601826119d2565b5060208301518482036020860152611a5b82826119f2565b9150508091505092915050565b6000611a748383611a2b565b905092915050565b6000602082019050919050565b6000611a94826119a6565b611a9e81856119b1565b935083602082028501611ab0856119c2565b8060005b85811015611aec5784840389528151611acd8582611a68565b9450611ad883611a7c565b925060208a01995050600181019050611ab4565b50829750879550505050505092915050565b60006020820190508181036000830152611b188184611a89565b905092915050565b7f4e487b7100000000000000000000000000000000000000000000000000000000600052601160045260246000fd5b6000611b5a82611280565b9150611b6583611280565b9250828203905081811115611b7d57611b7c611b20565b5b92915050565b7f4e487b7100000000000000000000000000000000000000000000000000000000600052603260045260246000fd5b7f4e487b7100000000000000000000000000000000000000000000000000000000600052602260045260246000fd5b60006002820490506001821680611bf957607f821691505b602082108103611c0c57611c0b611bb2565b5b50919050565b600081549050611c2181611be1565b9050919050565b60008190508160005260206000209050919050565b60006020601f8301049050919050565b600082821b905092915050565b600060088302611c8a7fffffffffffffffffffffffffffffffffffffffffffffffffffffffffffffffff82611c4d565b611c948683611c4d565b95508019841693508086168417925050509392505050565b6000819050919050565b6000611cd1611ccc611cc784611280565b611cac565b611280565b9050919050565b6000819050919050565b611ceb83611cb6565b611cff611cf782611cd8565b848454611c5a565b825550505050565b600090565b611d14611d07565b611d1f818484611ce2565b505050565b5b81811015611d4357611d38600082611d0c565b600181019050611d25565b5050565b601f821115611d8857611d5981611c28565b611d6284611c3d565b81016020851015611d71578190505b611d85611d7d85611c3d565b830182611d24565b50505b505050565b600082821c905092915050565b6000611dab60001984600802611d8d565b1980831691505092915050565b6000611dc48383611d9a565b9150826002028217905092915050565b818103611de2575050611eba565b611deb82611c12565b67ffffffffffffffff811115611e0457611e03611525565b5b611e0e8254611be1565b611e19828285611d47565b6000601f831160018114611e485760008415611e36578287015490505b611e408582611db8565b865550611eb3565b601f198416611e5687611c28565b9650611e6186611c28565b60005b82811015611e8957848901548255600182019150600185019450602081019050611e64565b86831015611ea65784890154611ea2601f891682611d9a565b8355505b6001600288020188555050505b5050505050505b565b7f4e487b7100000000000000000000000000000000000000000000000000000000600052603160045260246000fd5b611ef4826113b3565b67ffffffffffffffff811115611f0d57611f0c611525565b5b611f178254611be1565b611f22828285611d47565b600060209050601f831160018114611f555760008415611f43578287015190505b611f4d8582611db8565b865550611fb5565b601f198416611f6386611c28565b60005b82811015611f8b57848901518255600182019150602085019450602081019050611f66565b86831015611fa85784890151611fa4601f891682611d9a565b8355505b6001600288020188555050505b505050505050565b7f43616e6e6f742063616c6c000000000000000000000000000000000000000000600082015250565b6000611ff3600b836113be565b9150611ffe82611fbd565b602082019050919050565b6000602082019050818103600083015261202281611fe6565b9050919050565b600081519050919050565b600082825260208201905092915050565b6000819050602082019050919050565b600061206183836119d2565b60208301905092915050565b6000602082019050919050565b600061208582612029565b61208f8185612034565b935061209a83612045565b8060005b838110156120cb5781516120b28882612055565b97506120bd8361206d565b92505060018101905061209e565b5085935050505092915050565b600060208201905081810360008301526120f2818461207a565b905092915050565b7f496e697469616c697a61626c653a20636f6e747261637420697320616c72656160008201527f647920696e697469616c697a6564000000000000000000000000000000000000602082015250565b6000612156602e836113be565b9150612161826120fa565b604082019050919050565b6000602082019050818103600083015261218581612149565b9050919050565b6000819050919050565b600060ff82169050919050565b60006121be6121b96121b48461218c565b611cac565b612196565b9050919050565b6121ce816121a3565b82525050565b60006020820190506121e960008301846121c5565b92915050565b7f5573657220566f74656400000000000000000000000000000000000000000000600082015250565b6000612225600a836113be565b9150612230826121ef565b602082019050919050565b6000602082019050818103600083015261225481612218565b9050919050565b7f456c656374696f6e206e6f742061637469766500000000000000000000000000600082015250565b60006122916013836113be565b915061229c8261225b565b602082019050919050565b600060208201905081810360008301526122c081612284565b9050919050565b600081519050919050565b600081905092915050565b60006122e8826122c7565b6122f281856122d2565b93506123028185602086016113cf565b80840191505092915050565b600061231a82846122dd565b915081905092915050565b7f43616c6c20746f20676574566f746573206661696c6564000000000000000000600082015250565b600061235b6017836113be565b915061236682612325565b602082019050919050565b6000602082019050818103600083015261238a8161234e565b9050919050565b600082825260208201905092915050565b60006123ad826122c7565b6123b78185612391565b93506123c78185602086016113cf565b6123d0816113f9565b840191505092915050565b600060408201905081810360008301526123f581856123a2565b905061240460208301846113a4565b9392505050565b60008151905061241a8161128a565b92915050565b60006020828403121561243657612435611276565b5b60006124448482850161240b565b9150509291505056fea26469706673582212206ace5c71ea8d8d81a6a578f83e535b4e6c794fb97f461fe4dcb8d904032f99ae64736f6c63430008180033",
  "linkReferences": {},
  "deployedLinkReferences": {}
}