{
  "_format": "hh-sol-artifact-1",
  "contractName": "ScoreBallot",
  "sourceName": "contracts/ballots/ScoreBallot.sol",
  "abi": [
    {
      "inputs": [
        {
          "internalType": "address",
          "name": "_electionAddress",
          "type": "address"
        }
      ],
      "stateMutability": "nonpayable",
      "type": "constructor"
    },
    {
      "inputs": [
        {
          "internalType": "uint256",
          "name": "score",
          "type": "uint256"
        }
      ],
      "name": "InvalidScore",
      "type": "error"
    },
    {
      "inputs": [],
      "name": "OwnerPermissioned",
      "type": "error"
    },
    {
      "inputs": [],
      "name": "electionContract",
      "outputs": [
        {
          "internalType": "address",
          "name": "",
          "type": "address"
        }
      ],
      "stateMutability": "view",
      "type": "function"
    },
    {
      "inputs": [],
      "name": "getVotes",
      "outputs": [
        {
          "internalType": "uint256[]",
          "name": "",
          "type": "uint256[]"
        }
      ],
      "stateMutability": "view",
      "type": "function"
    },
    {
      "inputs": [
        {
          "internalType": "uint256",
          "name": "totalCandidate",
          "type": "uint256"
        }
      ],
      "name": "init",
      "outputs": [],
      "stateMutability": "nonpayable",
      "type": "function"
    },
    {
      "inputs": [],
      "name": "maxScore",
      "outputs": [
        {
          "internalType": "uint256",
          "name": "",
          "type": "uint256"
        }
      ],
      "stateMutability": "view",
      "type": "function"
    },
    {
      "inputs": [
        {
          "internalType": "uint256[]",
          "name": "voteArr",
          "type": "uint256[]"
        }
      ],
      "name": "vote",
      "outputs": [],
      "stateMutability": "nonpayable",
      "type": "function"
    }
  ],
  "bytecode": "0x608060405234801561001057600080fd5b50604051610aaa380380610aaa833981810160405281019061003291906100db565b806000806101000a81548173ffffffffffffffffffffffffffffffffffffffff021916908373ffffffffffffffffffffffffffffffffffffffff16021790555050610108565b600080fd5b600073ffffffffffffffffffffffffffffffffffffffff82169050919050565b60006100a88261007d565b9050919050565b6100b88161009d565b81146100c357600080fd5b50565b6000815190506100d5816100af565b92915050565b6000602082840312156100f1576100f0610078565b5b60006100ff848285016100c6565b91505092915050565b610993806101176000396000f3fe608060405234801561001057600080fd5b50600436106100575760003560e01c80630dc960151461005c5780639a1b4b381461007a578063b7b0422d14610098578063ce11f2bb146100b4578063e407bcbd146100d0575b600080fd5b6100646100ee565b6040516100719190610597565b60405180910390f35b6100826101cb565b60405161008f91906105c8565b60405180910390f35b6100b260048036038101906100ad9190610623565b6101d0565b005b6100ce60048036038101906100c991906107a9565b6102b7565b005b6100d8610441565b6040516100e59190610833565b60405180910390f35b606060008054906101000a900473ffffffffffffffffffffffffffffffffffffffff1673ffffffffffffffffffffffffffffffffffffffff163373ffffffffffffffffffffffffffffffffffffffff1614610175576040517fa0acb8a400000000000000000000000000000000000000000000000000000000815260040160405180910390fd5b60018054806020026020016040519081016040528092919081815260200182805480156101c157602002820191906000526020600020905b8154815260200190600101908083116101ad575b5050505050905090565b600a81565b60008054906101000a900473ffffffffffffffffffffffffffffffffffffffff1673ffffffffffffffffffffffffffffffffffffffff163373ffffffffffffffffffffffffffffffffffffffff1614610255576040517fa0acb8a400000000000000000000000000000000000000000000000000000000815260040160405180910390fd5b8067ffffffffffffffff81111561026f5761026e610666565b5b60405190808252806020026020018201604052801561029d5781602001602082028036833780820191505090505b50600190805190602001906102b3929190610465565b5050565b60008054906101000a900473ffffffffffffffffffffffffffffffffffffffff1673ffffffffffffffffffffffffffffffffffffffff163373ffffffffffffffffffffffffffffffffffffffff161461033c576040517fa0acb8a400000000000000000000000000000000000000000000000000000000815260040160405180910390fd5b6000600180549050905080825114610389576040517f08c379a0000000000000000000000000000000000000000000000000000000008152600401610380906108ab565b60405180910390fd5b60005b8181101561043c5760008382815181106103a9576103a86108cb565b5b60200260200101519050600a8111156103f957806040517f590e1cd60000000000000000000000000000000000000000000000000000000081526004016103f091906105c8565b60405180910390fd5b806001838154811061040e5761040d6108cb565b5b9060005260206000200160008282546104279190610929565b9250508190555050808060010191505061038c565b505050565b60008054906101000a900473ffffffffffffffffffffffffffffffffffffffff1681565b8280548282559060005260206000209081019282156104a1579160200282015b828111156104a0578251825591602001919060010190610485565b5b5090506104ae91906104b2565b5090565b5b808211156104cb5760008160009055506001016104b3565b5090565b600081519050919050565b600082825260208201905092915050565b6000819050602082019050919050565b6000819050919050565b61050e816104fb565b82525050565b60006105208383610505565b60208301905092915050565b6000602082019050919050565b6000610544826104cf565b61054e81856104da565b9350610559836104eb565b8060005b8381101561058a5781516105718882610514565b975061057c8361052c565b92505060018101905061055d565b5085935050505092915050565b600060208201905081810360008301526105b18184610539565b905092915050565b6105c2816104fb565b82525050565b60006020820190506105dd60008301846105b9565b92915050565b6000604051905090565b600080fd5b600080fd5b610600816104fb565b811461060b57600080fd5b50565b60008135905061061d816105f7565b92915050565b600060208284031215610639576106386105ed565b5b60006106478482850161060e565b91505092915050565b600080fd5b6000601f19601f8301169050919050565b7f4e487b7100000000000000000000000000000000000000000000000000000000600052604160045260246000fd5b61069e82610655565b810181811067ffffffffffffffff821117156106bd576106bc610666565b5b80604052505050565b60006106d06105e3565b90506106dc8282610695565b919050565b600067ffffffffffffffff8211156106fc576106fb610666565b5b602082029050602081019050919050565b600080fd5b6000610725610720846106e1565b6106c6565b905080838252602082019050602084028301858111156107485761074761070d565b5b835b81811015610771578061075d888261060e565b84526020840193505060208101905061074a565b5050509392505050565b600082601f8301126107905761078f610650565b5b81356107a0848260208601610712565b91505092915050565b6000602082840312156107bf576107be6105ed565b5b600082013567ffffffffffffffff8111156107dd576107dc6105f2565b5b6107e98482850161077b565b91505092915050565b600073ffffffffffffffffffffffffffffffffffffffff82169050919050565b600061081d826107f2565b9050919050565b61082d81610812565b82525050565b60006020820190506108486000830184610824565b92915050565b600082825260208201905092915050565b7f566f74657320646f6e2774206d61746368207468652063616e64696461746573600082015250565b600061089560208361084e565b91506108a08261085f565b602082019050919050565b600060208201905081810360008301526108c481610888565b9050919050565b7f4e487b7100000000000000000000000000000000000000000000000000000000600052603260045260246000fd5b7f4e487b7100000000000000000000000000000000000000000000000000000000600052601160045260246000fd5b6000610934826104fb565b915061093f836104fb565b9250828201905080821115610957576109566108fa565b5b9291505056fea26469706673582212201a4cfbbd4a909923f03d3726f152cf7a16167eaf5e0b752710987f6ec311527e64736f6c63430008180033",
  "linkReferences": {},
  "deployedLinkReferences": {}
}