{
  "_format": "hh-sol-artifact-1",
  "contractName": "GeneralResults",
  "sourceName": "contracts/facets/votingApp/resultCalculator/GeneralResults.sol",
  "abi": [
    {
      "inputs": [
        {
          "internalType": "contract Ballot",
          "name": "_ballot",
          "type": "address"
        },
        {
          "internalType": "uint256",
          "name": "_voterCount",
          "type": "uint256"
        }
      ],
      "name": "getResult",
      "outputs": [
        {
          "internalType": "uint256[]",
          "name": "",
          "type": "uint256[]"
        }
      ],
      "stateMutability": "nonpayable",
      "type": "function"
    }
  ],
  "bytecode": "0x608060405234801561001057600080fd5b5061097b806100206000396000f3fe608060405234801561001057600080fd5b506004361061002b5760003560e01c8063c8344a2014610030575b600080fd5b61004a60048036038101906100459190610535565b610060565b6040516100579190610633565b60405180910390f35b6060600067ffffffffffffffff81111561007d5761007c610655565b5b6040519080825280602002602001820160405280156100ab5781602001602082028036833780820191505090505b50600090805190602001906100c1929190610411565b5060008373ffffffffffffffffffffffffffffffffffffffff166306a49fce6040518163ffffffff1660e01b8152600401600060405180830381865afa15801561010f573d6000803e3d6000fd5b505050506040513d6000823e3d601f19601f8201168201806040525081019061013891906107c3565b905060008151905060008060005b838110156102b4578773ffffffffffffffffffffffffffffffffffffffff1663de2e19a086838151811061017d5761017c61080c565b5b602002602001015160016040518363ffffffff1660e01b81526004016101a492919061088f565b602060405180830381865afa1580156101c1573d6000803e3d6000fd5b505050506040513d601f19601f820116820180604052508101906101e591906108b8565b9150828211156101f3578192505b6002876102009190610914565b8311156102a757600085828151811061021c5761021b61080c565b5b60200260200101519080600181540180825580915050600190039060005260206000200160009091909190915055600080548060200260200160405190810160405280929190818152602001828054801561029657602002820191906000526020600020905b815481526020019060010190808311610282575b50505050509550505050505061040b565b8080600101915050610146565b600090505b838110156103b2578773ffffffffffffffffffffffffffffffffffffffff1663de2e19a08683815181106102f0576102ef61080c565b5b602002602001015160016040518363ffffffff1660e01b815260040161031792919061088f565b602060405180830381865afa158015610334573d6000803e3d6000fd5b505050506040513d601f19601f8201168201806040525081019061035891906108b8565b91508282036103a55760008582815181106103765761037561080c565b5b602002602001015190806001815401808255809150506001900390600052602060002001600090919091909150555b80806001019150506102b9565b60008054806020026020016040519081016040528092919081815260200182805480156103fe57602002820191906000526020600020905b8154815260200190600101908083116103ea575b5050505050955050505050505b92915050565b82805482825590600052602060002090810192821561044d579160200282015b8281111561044c578251825591602001919060010190610431565b5b50905061045a919061045e565b5090565b5b8082111561047757600081600090555060010161045f565b5090565b6000604051905090565b600080fd5b600080fd5b600073ffffffffffffffffffffffffffffffffffffffff82169050919050565b60006104ba8261048f565b9050919050565b60006104cc826104af565b9050919050565b6104dc816104c1565b81146104e757600080fd5b50565b6000813590506104f9816104d3565b92915050565b6000819050919050565b610512816104ff565b811461051d57600080fd5b50565b60008135905061052f81610509565b92915050565b6000806040838503121561054c5761054b610485565b5b600061055a858286016104ea565b925050602061056b85828601610520565b9150509250929050565b600081519050919050565b600082825260208201905092915050565b6000819050602082019050919050565b6105aa816104ff565b82525050565b60006105bc83836105a1565b60208301905092915050565b6000602082019050919050565b60006105e082610575565b6105ea8185610580565b93506105f583610591565b8060005b8381101561062657815161060d88826105b0565b9750610618836105c8565b9250506001810190506105f9565b5085935050505092915050565b6000602082019050818103600083015261064d81846105d5565b905092915050565b7f4e487b7100000000000000000000000000000000000000000000000000000000600052604160045260246000fd5b600080fd5b6000601f19601f8301169050919050565b6106a382610689565b810181811067ffffffffffffffff821117156106c2576106c1610655565b5b80604052505050565b60006106d561047b565b90506106e1828261069a565b919050565b600067ffffffffffffffff82111561070157610700610655565b5b602082029050602081019050919050565b600080fd5b60008151905061072681610509565b92915050565b600061073f61073a846106e6565b6106cb565b9050808382526020820190506020840283018581111561076257610761610712565b5b835b8181101561078b57806107778882610717565b845260208401935050602081019050610764565b5050509392505050565b600082601f8301126107aa576107a9610684565b5b81516107ba84826020860161072c565b91505092915050565b6000602082840312156107d9576107d8610485565b5b600082015167ffffffffffffffff8111156107f7576107f661048a565b5b61080384828501610795565b91505092915050565b7f4e487b7100000000000000000000000000000000000000000000000000000000600052603260045260246000fd5b610844816104ff565b82525050565b6000819050919050565b6000819050919050565b600061087961087461086f8461084a565b610854565b6104ff565b9050919050565b6108898161085e565b82525050565b60006040820190506108a4600083018561083b565b6108b16020830184610880565b9392505050565b6000602082840312156108ce576108cd610485565b5b60006108dc84828501610717565b91505092915050565b7f4e487b7100000000000000000000000000000000000000000000000000000000600052601260045260246000fd5b600061091f826104ff565b915061092a836104ff565b92508261093a576109396108e5565b5b82820490509291505056fea2646970667358221220557f502cd92091e22d90ebbea6ca01c168e5e6199a8046b9664eee3bb66e151e64736f6c63430008170033",
  "linkReferences": {},
  "deployedLinkReferences": {}
}