{
  "_format": "hh-sol-artifact-1",
  "contractName": "VotingProcess",
  "sourceName": "contracts/VotingProcess.sol",
  "abi": [
    {
      "inputs": [
        {
          "internalType": "uint256",
          "name": "_id",
          "type": "uint256"
        },
        {
          "internalType": "string",
          "name": "_name",
          "type": "string"
        },
        {
          "internalType": "string",
          "name": "_description",
          "type": "string"
        },
        {
          "internalType": "bytes[]",
          "name": "_proposals",
          "type": "bytes[]"
        },
        {
          "internalType": "uint256",
          "name": "_startDate",
          "type": "uint256"
        },
        {
          "internalType": "uint256",
          "name": "_endDate",
          "type": "uint256"
        }
      ],
      "stateMutability": "nonpayable",
      "type": "constructor"
    },
    {
      "inputs": [],
      "name": "description",
      "outputs": [
        {
          "internalType": "string",
          "name": "",
          "type": "string"
        }
      ],
      "stateMutability": "view",
      "type": "function"
    },
    {
      "inputs": [],
      "name": "getEndDate",
      "outputs": [
        {
          "internalType": "uint256",
          "name": "",
          "type": "uint256"
        }
      ],
      "stateMutability": "view",
      "type": "function"
    },
    {
      "inputs": [],
      "name": "getProposals",
      "outputs": [
        {
          "internalType": "bytes[]",
          "name": "",
          "type": "bytes[]"
        }
      ],
      "stateMutability": "view",
      "type": "function"
    },
    {
      "inputs": [],
      "name": "getStartDate",
      "outputs": [
        {
          "internalType": "uint256",
          "name": "",
          "type": "uint256"
        }
      ],
      "stateMutability": "view",
      "type": "function"
    },
    {
      "inputs": [],
      "name": "getStatus",
      "outputs": [
        {
          "internalType": "enum VotingProcess.Status",
          "name": "",
          "type": "uint8"
        }
      ],
      "stateMutability": "view",
      "type": "function"
    },
    {
      "inputs": [],
      "name": "getVotesPerProposal",
      "outputs": [
        {
          "components": [
            {
              "internalType": "bytes",
              "name": "proposal",
              "type": "bytes"
            },
            {
              "internalType": "uint256",
              "name": "numberOfVotes",
              "type": "uint256"
            }
          ],
          "internalType": "struct VotingProcess.VoteProposal[]",
          "name": "",
          "type": "tuple[]"
        }
      ],
      "stateMutability": "view",
      "type": "function"
    },
    {
      "inputs": [],
      "name": "getWinningProposal",
      "outputs": [
        {
          "components": [
            {
              "internalType": "bytes",
              "name": "proposal",
              "type": "bytes"
            },
            {
              "internalType": "uint256",
              "name": "numberOfVotes",
              "type": "uint256"
            }
          ],
          "internalType": "struct VotingProcess.VoteProposal",
          "name": "",
          "type": "tuple"
        }
      ],
      "stateMutability": "view",
      "type": "function"
    },
    {
      "inputs": [],
      "name": "id",
      "outputs": [
        {
          "internalType": "uint256",
          "name": "",
          "type": "uint256"
        }
      ],
      "stateMutability": "view",
      "type": "function"
    },
    {
      "inputs": [],
      "name": "name",
      "outputs": [
        {
          "internalType": "string",
          "name": "",
          "type": "string"
        }
      ],
      "stateMutability": "view",
      "type": "function"
    },
    {
      "inputs": [
        {
          "internalType": "uint256",
          "name": "",
          "type": "uint256"
        }
      ],
      "name": "proposals",
      "outputs": [
        {
          "internalType": "bytes",
          "name": "",
          "type": "bytes"
        }
      ],
      "stateMutability": "view",
      "type": "function"
    },
    {
      "inputs": [
        {
          "internalType": "bytes",
          "name": "signal",
          "type": "bytes"
        }
      ],
      "name": "vote",
      "outputs": [],
      "stateMutability": "nonpayable",
      "type": "function"
    },
    {
      "inputs": [
        {
          "internalType": "bytes",
          "name": "",
          "type": "bytes"
        }
      ],
      "name": "votesPerProposal",
      "outputs": [
        {
          "internalType": "uint256",
          "name": "",
          "type": "uint256"
        }
      ],
      "stateMutability": "view",
      "type": "function"
    }
  ],
  "bytecode": "0x60806040523480156200001157600080fd5b5060405162001074380380620010748339810160408190526200003491620002eb565b600086905584516200004e9060019060208801906200008f565b508351620000649060029060208701906200008f565b5082516200007a9060059060208601906200011e565b50600391909155600455506200047f92505050565b8280546200009d9062000442565b90600052602060002090601f016020900481019282620000c157600085556200010c565b82601f10620000dc57805160ff19168380011785556200010c565b828001600101855582156200010c579182015b828111156200010c578251825591602001919060010190620000ef565b506200011a9291506200017e565b5090565b82805482825590600052602060002090810192821562000170579160200282015b828111156200017057825180516200015f9184916020909101906200008f565b50916020019190600101906200013f565b506200011a92915062000195565b5b808211156200011a57600081556001016200017f565b808211156200011a576000620001ac8282620001b6565b5060010162000195565b508054620001c49062000442565b6000825580601f10620001d5575050565b601f016020900490600052602060002090810190620001f591906200017e565b50565b634e487b7160e01b600052604160045260246000fd5b604051601f8201601f191681016001600160401b0381118282101715620002395762000239620001f8565b604052919050565b60006001600160401b038311156200025d576200025d620001f8565b602062000273601f8501601f191682016200020e565b91508382528484840111156200028857600080fd5b60005b84811015620002a6578381015183820183015281016200028b565b84811115620002b85760008286850101525b50509392505050565b600082601f830112620002d357600080fd5b620002e48383516020850162000241565b9392505050565b60008060008060008060c087890312156200030557600080fd5b865160208801519096506001600160401b03808211156200032557600080fd5b620003338a838b01620002c1565b965060408901519150808211156200034a57600080fd5b620003588a838b01620002c1565b955060608901519150808211156200036f57600080fd5b818901915089601f8301126200038457600080fd5b815181811115620003995762000399620001f8565b8060051b620003ab602082016200020e565b9182526020818501810192908101908d841115620003c857600080fd5b6020860192505b838310156200042157825185811115620003e857600080fd5b8601603f81018f13620003fa57600080fd5b6200040e8f60208301516040840162000241565b83525060209283019290910190620003cf565b8098505050505050506080870151915060a087015190509295509295509295565b600181811c908216806200045757607f821691505b602082108114156200047957634e487b7160e01b600052602260045260246000fd5b50919050565b610be5806200048f6000396000f3fe608060405234801561001057600080fd5b50600436106100b45760003560e01c806378f305c61161007157806378f305c614610155578063a51346201461015d578063af640d0f14610172578063b13564881461017b578063bf7f3cfe14610183578063e9dc06141461019857600080fd5b8063013cf08b146100b957806302f6df8e146100e257806306fdde031461011b5780634e69d5601461012357806362564c48146101385780637284e4161461014d575b600080fd5b6100cc6100c73660046107d6565b6101ad565b6040516100d9919061084b565b60405180910390f35b61010d6100f036600461087b565b805160208183018101805160068252928201919093012091525481565b6040519081526020016100d9565b6100cc610259565b61012b610266565b6040516100d99190610942565b61014061028e565b6040516100d9919061096a565b6100cc610367565b60035461010d565b610165610374565b6040516100d991906109f5565b61010d60005481565b60045461010d565b61018b610590565b6040516100d99190610a08565b6101ab6101a636600461087b565b61072b565b005b600581815481106101bd57600080fd5b9060005260206000200160009150905080546101d890610a5d565b80601f016020809104026020016040519081016040528092919081815260200182805461020490610a5d565b80156102515780601f1061022657610100808354040283529160200191610251565b820191906000526020600020905b81548152906001019060200180831161023457829003601f168201915b505050505081565b600180546101d890610a5d565b60006003544210156102785750600190565b6004544210156102885750600090565b50600290565b60606005805480602002602001604051908101604052809291908181526020016000905b8282101561035e5783829060005260206000200180546102d190610a5d565b80601f01602080910402602001604051908101604052809291908181526020018280546102fd90610a5d565b801561034a5780601f1061031f5761010080835404028352916020019161034a565b820191906000526020600020905b81548152906001019060200180831161032d57829003601f168201915b5050505050815260200190600101906102b2565b50505050905090565b600280546101d890610a5d565b6040805180820190915260608152600060208201526002610393610266565b60028111156103a4576103a461092c565b146104105760405162461bcd60e51b815260206004820152603160248201527f526573756c747320617265206465636c61726564206f6e6c792061667465722060448201527074686520656c656374696f6e20656e647360781b60648201526084015b60405180910390fd5b600061042f604051806040016040528060608152602001600081525090565b600060208201525b60055482101561058a57806020015160066005848154811061045b5761045b610a98565b906000526020600020016040516104729190610aae565b9081526020016040518091039020541115610578576005828154811061049a5761049a610a98565b9060005260206000200180546104af90610a5d565b80601f01602080910402602001604051908101604052809291908181526020018280546104db90610a5d565b80156105285780601f106104fd57610100808354040283529160200191610528565b820191906000526020600020905b81548152906001019060200180831161050b57829003601f168201915b505050918352505060058054600691908490811061054857610548610a98565b9060005260206000200160405161055f9190610aae565b9081526020016040518091039020548160200181815250505b8161058281610b60565b925050610437565b92915050565b606060008060058054905067ffffffffffffffff8111156105b3576105b3610865565b6040519080825280602002602001820160405280156105f957816020015b6040805180820190915260608152600060208201528152602001906001900390816105d15790505b5090505b60055482101561058a5760405180604001604052806005848154811061062557610625610a98565b90600052602060002001805461063a90610a5d565b80601f016020809104026020016040519081016040528092919081815260200182805461066690610a5d565b80156106b35780601f10610688576101008083540402835291602001916106b3565b820191906000526020600020905b81548152906001019060200180831161069657829003601f168201915b505050505081526020016006600585815481106106d2576106d2610a98565b906000526020600020016040516106e99190610aae565b90815260200160405180910390205481525081838151811061070d5761070d610a98565b6020026020010181905250818061072390610b60565b9250506105fd565b6000610735610266565b60028111156107465761074661092c565b1461079f5760405162461bcd60e51b815260206004820152602360248201527f456c656374696f6e206e6565647320746f2062652061637469766520746f20766044820152626f746560e81b6064820152608401610407565b60016006826040516107b19190610b7b565b908152602001604051809103902060008282546107ce9190610b97565b909155505050565b6000602082840312156107e857600080fd5b5035919050565b60005b8381101561080a5781810151838201526020016107f2565b83811115610819576000848401525b50505050565b600081518084526108378160208601602086016107ef565b601f01601f19169290920160200192915050565b60208152600061085e602083018461081f565b9392505050565b634e487b7160e01b600052604160045260246000fd5b60006020828403121561088d57600080fd5b813567ffffffffffffffff808211156108a557600080fd5b818401915084601f8301126108b957600080fd5b8135818111156108cb576108cb610865565b604051601f8201601f19908116603f011681019083821181831017156108f3576108f3610865565b8160405282815287602084870101111561090c57600080fd5b826020860160208301376000928101602001929092525095945050505050565b634e487b7160e01b600052602160045260246000fd5b602081016003831061096457634e487b7160e01b600052602160045260246000fd5b91905290565b6000602080830181845280855180835260408601915060408160051b870101925083870160005b828110156109bf57603f198886030184526109ad85835161081f565b94509285019290850190600101610991565b5092979650505050505050565b60008151604084526109e1604085018261081f565b602093840151949093019390935250919050565b60208152600061085e60208301846109cc565b6000602080830181845280855180835260408601915060408160051b870101925083870160005b828110156109bf57603f19888603018452610a4b8583516109cc565b94509285019290850190600101610a2f565b600181811c90821680610a7157607f821691505b60208210811415610a9257634e487b7160e01b600052602260045260246000fd5b50919050565b634e487b7160e01b600052603260045260246000fd5b600080835481600182811c915080831680610aca57607f831692505b6020808410821415610aea57634e487b7160e01b86526022600452602486fd5b818015610afe5760018114610b0f57610b3c565b60ff19861689528489019650610b3c565b60008a81526020902060005b86811015610b345781548b820152908501908301610b1b565b505084890196505b509498975050505050505050565b634e487b7160e01b600052601160045260246000fd5b6000600019821415610b7457610b74610b4a565b5060010190565b60008251610b8d8184602087016107ef565b9190910192915050565b60008219821115610baa57610baa610b4a565b50019056fea2646970667358221220ed40e12ec8e2061ec9c20fb9284680d97a3507e21763a7aff988352afd96441c64736f6c63430008090033",
  "linkReferences": {},
  "deployedLinkReferences": {}
}