{
  "_format": "hh-sol-artifact-1",
  "contractName": "VotingProcess",
  "sourceName": "contracts/VotingProcess.sol",
  "abi": [
    {
      "inputs": [
        {
          "internalType": "uint256",
          "name": "_id",
          "type": "uint256"
        },
        {
          "internalType": "string",
          "name": "_name",
          "type": "string"
        },
        {
          "internalType": "string",
          "name": "_description",
          "type": "string"
        },
        {
          "internalType": "uint256",
          "name": "_startDate",
          "type": "uint256"
        },
        {
          "internalType": "uint256",
          "name": "_endDate",
          "type": "uint256"
        },
        {
          "internalType": "contract ParticipationProofs",
          "name": "_participationProofs",
          "type": "address"
        }
      ],
      "stateMutability": "nonpayable",
      "type": "constructor"
    },
    {
      "inputs": [
        {
          "internalType": "bytes",
          "name": "_proposal",
          "type": "bytes"
        }
      ],
      "name": "addProposal",
      "outputs": [],
      "stateMutability": "nonpayable",
      "type": "function"
    },
    {
      "inputs": [],
      "name": "description",
      "outputs": [
        {
          "internalType": "string",
          "name": "",
          "type": "string"
        }
      ],
      "stateMutability": "view",
      "type": "function"
    },
    {
      "inputs": [],
      "name": "getEndDate",
      "outputs": [
        {
          "internalType": "uint256",
          "name": "",
          "type": "uint256"
        }
      ],
      "stateMutability": "view",
      "type": "function"
    },
    {
      "inputs": [],
      "name": "getProposals",
      "outputs": [
        {
          "internalType": "bytes[]",
          "name": "",
          "type": "bytes[]"
        }
      ],
      "stateMutability": "view",
      "type": "function"
    },
    {
      "inputs": [],
      "name": "getStartDate",
      "outputs": [
        {
          "internalType": "uint256",
          "name": "",
          "type": "uint256"
        }
      ],
      "stateMutability": "view",
      "type": "function"
    },
    {
      "inputs": [],
      "name": "getStatus",
      "outputs": [
        {
          "internalType": "enum VotingProcess.Status",
          "name": "",
          "type": "uint8"
        }
      ],
      "stateMutability": "view",
      "type": "function"
    },
    {
      "inputs": [],
      "name": "getVotesPerProposal",
      "outputs": [
        {
          "components": [
            {
              "internalType": "bytes",
              "name": "proposal",
              "type": "bytes"
            },
            {
              "internalType": "uint256",
              "name": "numberOfVotes",
              "type": "uint256"
            }
          ],
          "internalType": "struct VotingProcess.VoteProposal[]",
          "name": "",
          "type": "tuple[]"
        }
      ],
      "stateMutability": "view",
      "type": "function"
    },
    {
      "inputs": [],
      "name": "getWinningProposal",
      "outputs": [
        {
          "components": [
            {
              "internalType": "bytes",
              "name": "proposal",
              "type": "bytes"
            },
            {
              "internalType": "uint256",
              "name": "numberOfVotes",
              "type": "uint256"
            }
          ],
          "internalType": "struct VotingProcess.VoteProposal",
          "name": "",
          "type": "tuple"
        }
      ],
      "stateMutability": "view",
      "type": "function"
    },
    {
      "inputs": [],
      "name": "id",
      "outputs": [
        {
          "internalType": "uint256",
          "name": "",
          "type": "uint256"
        }
      ],
      "stateMutability": "view",
      "type": "function"
    },
    {
      "inputs": [],
      "name": "name",
      "outputs": [
        {
          "internalType": "string",
          "name": "",
          "type": "string"
        }
      ],
      "stateMutability": "view",
      "type": "function"
    },
    {
      "inputs": [],
      "name": "participationProofs",
      "outputs": [
        {
          "internalType": "contract ParticipationProofs",
          "name": "",
          "type": "address"
        }
      ],
      "stateMutability": "view",
      "type": "function"
    },
    {
      "inputs": [
        {
          "internalType": "uint256",
          "name": "",
          "type": "uint256"
        }
      ],
      "name": "proposals",
      "outputs": [
        {
          "internalType": "bytes",
          "name": "",
          "type": "bytes"
        }
      ],
      "stateMutability": "view",
      "type": "function"
    },
    {
      "inputs": [
        {
          "internalType": "bytes",
          "name": "signal",
          "type": "bytes"
        }
      ],
      "name": "vote",
      "outputs": [],
      "stateMutability": "nonpayable",
      "type": "function"
    },
    {
      "inputs": [
        {
          "internalType": "bytes",
          "name": "",
          "type": "bytes"
        }
      ],
      "name": "votesPerProposal",
      "outputs": [
        {
          "internalType": "uint256",
          "name": "",
          "type": "uint256"
        }
      ],
      "stateMutability": "view",
      "type": "function"
    }
  ],
  "bytecode": "0x60806040523480156200001157600080fd5b5060405162001e5238038062001e528339818101604052810190620000379190620003cc565b85600081905550846001908051906020019062000056929190620000cb565b5083600290805190602001906200006f929190620000cb565b50826003819055508160048190555080600560006101000a81548173ffffffffffffffffffffffffffffffffffffffff021916908373ffffffffffffffffffffffffffffffffffffffff1602179055505050505050506200050b565b828054620000d990620004d5565b90600052602060002090601f016020900481019282620000fd576000855562000149565b82601f106200011857805160ff191683800117855562000149565b8280016001018555821562000149579182015b82811115620001485782518255916020019190600101906200012b565b5b5090506200015891906200015c565b5090565b5b80821115620001775760008160009055506001016200015d565b5090565b6000604051905090565b600080fd5b600080fd5b6000819050919050565b620001a4816200018f565b8114620001b057600080fd5b50565b600081519050620001c48162000199565b92915050565b600080fd5b600080fd5b6000601f19601f8301169050919050565b7f4e487b7100000000000000000000000000000000000000000000000000000000600052604160045260246000fd5b6200021f82620001d4565b810181811067ffffffffffffffff82111715620002415762000240620001e5565b5b80604052505050565b6000620002566200017b565b905062000264828262000214565b919050565b600067ffffffffffffffff821115620002875762000286620001e5565b5b6200029282620001d4565b9050602081019050919050565b60005b83811015620002bf578082015181840152602081019050620002a2565b83811115620002cf576000848401525b50505050565b6000620002ec620002e68462000269565b6200024a565b9050828152602081018484840111156200030b576200030a620001cf565b5b620003188482856200029f565b509392505050565b600082601f830112620003385762000337620001ca565b5b81516200034a848260208601620002d5565b91505092915050565b600073ffffffffffffffffffffffffffffffffffffffff82169050919050565b6000620003808262000353565b9050919050565b6000620003948262000373565b9050919050565b620003a68162000387565b8114620003b257600080fd5b50565b600081519050620003c6816200039b565b92915050565b60008060008060008060c08789031215620003ec57620003eb62000185565b5b6000620003fc89828a01620001b3565b965050602087015167ffffffffffffffff81111562000420576200041f6200018a565b5b6200042e89828a0162000320565b955050604087015167ffffffffffffffff8111156200045257620004516200018a565b5b6200046089828a0162000320565b94505060606200047389828a01620001b3565b93505060806200048689828a01620001b3565b92505060a06200049989828a01620003b5565b9150509295509295509295565b7f4e487b7100000000000000000000000000000000000000000000000000000000600052602260045260246000fd5b60006002820490506001821680620004ee57607f821691505b60208210811415620005055762000504620004a6565b5b50919050565b611937806200051b6000396000f3fe608060405234801561001057600080fd5b50600436106100ea5760003560e01c80637284e4161161008c578063af640d0f11610066578063af640d0f1461023d578063b13564881461025b578063bf7f3cfe14610279578063e9dc061414610297576100ea565b80637284e416146101e357806378f305c614610201578063a51346201461021f576100ea565b80634e69d560116100c85780634e69d5601461016d578063534376531461018b57806353b41f2c146101a757806362564c48146101c5576100ea565b8063013cf08b146100ef57806302f6df8e1461011f57806306fdde031461014f575b600080fd5b61010960048036038101906101049190610c6b565b6102b3565b6040516101169190610d31565b60405180910390f35b61013960048036038101906101349190610e88565b61035f565b6040516101469190610ee0565b60405180910390f35b61015761038d565b6040516101649190610f50565b60405180910390f35b61017561041b565b6040516101829190610fe9565b60405180910390f35b6101a560048036038101906101a09190610e88565b61044b565b005b6101af6104f8565b6040516101bc9190611083565b60405180910390f35b6101cd61051e565b6040516101da91906111aa565b60405180910390f35b6101eb6105f7565b6040516101f89190610f50565b60405180910390f35b610209610685565b6040516102169190610ee0565b60405180910390f35b61022761068f565b6040516102349190611218565b60405180910390f35b61024561087e565b6040516102529190610ee0565b60405180910390f35b610263610884565b6040516102709190610ee0565b60405180910390f35b61028161088e565b60405161028e9190611339565b60405180910390f35b6102b160048036038101906102ac9190610e88565b610a2b565b005b600681815481106102c357600080fd5b9060005260206000200160009150905080546102de9061138a565b80601f016020809104026020016040519081016040528092919081815260200182805461030a9061138a565b80156103575780601f1061032c57610100808354040283529160200191610357565b820191906000526020600020905b81548152906001019060200180831161033a57829003601f168201915b505050505081565b6007818051602081018201805184825260208301602085012081835280955050505050506000915090505481565b6001805461039a9061138a565b80601f01602080910402602001604051908101604052809291908181526020018280546103c69061138a565b80156104135780601f106103e857610100808354040283529160200191610413565b820191906000526020600020905b8154815290600101906020018083116103f657829003601f168201915b505050505081565b60006003544210156104305760019050610448565b6004544210156104435760009050610448565b600290505b90565b6001600281111561045f5761045e610f72565b5b61046761041b565b600281111561047957610478610f72565b5b146104b9576040517f08c379a00000000000000000000000000000000000000000000000000000000081526004016104b09061142e565b60405180910390fd5b6006819080600181540180825580915050600190039060005260206000200160009091909190915090805190602001906104f4929190610b64565b5050565b600560009054906101000a900473ffffffffffffffffffffffffffffffffffffffff1681565b60606006805480602002602001604051908101604052809291908181526020016000905b828210156105ee5783829060005260206000200180546105619061138a565b80601f016020809104026020016040519081016040528092919081815260200182805461058d9061138a565b80156105da5780601f106105af576101008083540402835291602001916105da565b820191906000526020600020905b8154815290600101906020018083116105bd57829003601f168201915b505050505081526020019060010190610542565b50505050905090565b600280546106049061138a565b80601f01602080910402602001604051908101604052809291908181526020018280546106309061138a565b801561067d5780601f106106525761010080835404028352916020019161067d565b820191906000526020600020905b81548152906001019060200180831161066057829003601f168201915b505050505081565b6000600354905090565b610697610bea565b6002808111156106aa576106a9610f72565b5b6106b261041b565b60028111156106c4576106c3610f72565b5b14610704576040517f08c379a00000000000000000000000000000000000000000000000000000000081526004016106fb906114c0565b60405180910390fd5b600061070e610bea565b60008160200181815250505b600680549050821015610876578060200151600760068481548110610742576107416114e0565b5b9060005260206000200160405161075991906115ae565b90815260200160405180910390205411156108635760068281548110610782576107816114e0565b5b9060005260206000200180546107979061138a565b80601f01602080910402602001604051908101604052809291908181526020018280546107c39061138a565b80156108105780601f106107e557610100808354040283529160200191610810565b820191906000526020600020905b8154815290600101906020018083116107f357829003601f168201915b50505050508160000181905250600760068381548110610833576108326114e0565b5b9060005260206000200160405161084a91906115ae565b9081526020016040518091039020548160200181815250505b818061086e906115f4565b92505061071a565b809250505090565b60005481565b6000600454905090565b606060008060068054905067ffffffffffffffff8111156108b2576108b1610d5d565b5b6040519080825280602002602001820160405280156108eb57816020015b6108d8610bea565b8152602001906001900390816108d05790505b5090505b600680549050821015610a235760405180604001604052806006848154811061091b5761091a6114e0565b5b9060005260206000200180546109309061138a565b80601f016020809104026020016040519081016040528092919081815260200182805461095c9061138a565b80156109a95780601f1061097e576101008083540402835291602001916109a9565b820191906000526020600020905b81548152906001019060200180831161098c57829003601f168201915b505050505081526020016007600685815481106109c9576109c86114e0565b5b906000526020600020016040516109e091906115ae565b908152602001604051809103902054815250818381518110610a0557610a046114e0565b5b60200260200101819052508180610a1b906115f4565b9250506108ef565b809250505090565b60006002811115610a3f57610a3e610f72565b5b610a4761041b565b6002811115610a5957610a58610f72565b5b14610a99576040517f08c379a0000000000000000000000000000000000000000000000000000000008152600401610a90906116af565b60405180910390fd5b6001600782604051610aab9190611700565b90815260200160405180910390206000828254610ac89190611717565b92505081905550600560009054906101000a900473ffffffffffffffffffffffffffffffffffffffff1673ffffffffffffffffffffffffffffffffffffffff16638a7d3d6c336006426040518463ffffffff1660e01b8152600401610b2f939291906118c3565b600060405180830381600087803b158015610b4957600080fd5b505af1158015610b5d573d6000803e3d6000fd5b5050505050565b828054610b709061138a565b90600052602060002090601f016020900481019282610b925760008555610bd9565b82601f10610bab57805160ff1916838001178555610bd9565b82800160010185558215610bd9579182015b82811115610bd8578251825591602001919060010190610bbd565b5b509050610be69190610c04565b5090565b604051806040016040528060608152602001600081525090565b5b80821115610c1d576000816000905550600101610c05565b5090565b6000604051905090565b600080fd5b600080fd5b6000819050919050565b610c4881610c35565b8114610c5357600080fd5b50565b600081359050610c6581610c3f565b92915050565b600060208284031215610c8157610c80610c2b565b5b6000610c8f84828501610c56565b91505092915050565b600081519050919050565b600082825260208201905092915050565b60005b83811015610cd2578082015181840152602081019050610cb7565b83811115610ce1576000848401525b50505050565b6000601f19601f8301169050919050565b6000610d0382610c98565b610d0d8185610ca3565b9350610d1d818560208601610cb4565b610d2681610ce7565b840191505092915050565b60006020820190508181036000830152610d4b8184610cf8565b905092915050565b600080fd5b600080fd5b7f4e487b7100000000000000000000000000000000000000000000000000000000600052604160045260246000fd5b610d9582610ce7565b810181811067ffffffffffffffff82111715610db457610db3610d5d565b5b80604052505050565b6000610dc7610c21565b9050610dd38282610d8c565b919050565b600067ffffffffffffffff821115610df357610df2610d5d565b5b610dfc82610ce7565b9050602081019050919050565b82818337600083830152505050565b6000610e2b610e2684610dd8565b610dbd565b905082815260208101848484011115610e4757610e46610d58565b5b610e52848285610e09565b509392505050565b600082601f830112610e6f57610e6e610d53565b5b8135610e7f848260208601610e18565b91505092915050565b600060208284031215610e9e57610e9d610c2b565b5b600082013567ffffffffffffffff811115610ebc57610ebb610c30565b5b610ec884828501610e5a565b91505092915050565b610eda81610c35565b82525050565b6000602082019050610ef56000830184610ed1565b92915050565b600081519050919050565b600082825260208201905092915050565b6000610f2282610efb565b610f2c8185610f06565b9350610f3c818560208601610cb4565b610f4581610ce7565b840191505092915050565b60006020820190508181036000830152610f6a8184610f17565b905092915050565b7f4e487b7100000000000000000000000000000000000000000000000000000000600052602160045260246000fd5b60038110610fb257610fb1610f72565b5b50565b6000819050610fc382610fa1565b919050565b6000610fd382610fb5565b9050919050565b610fe381610fc8565b82525050565b6000602082019050610ffe6000830184610fda565b92915050565b600073ffffffffffffffffffffffffffffffffffffffff82169050919050565b6000819050919050565b600061104961104461103f84611004565b611024565b611004565b9050919050565b600061105b8261102e565b9050919050565b600061106d82611050565b9050919050565b61107d81611062565b82525050565b60006020820190506110986000830184611074565b92915050565b600081519050919050565b600082825260208201905092915050565b6000819050602082019050919050565b600082825260208201905092915050565b60006110e682610c98565b6110f081856110ca565b9350611100818560208601610cb4565b61110981610ce7565b840191505092915050565b600061112083836110db565b905092915050565b6000602082019050919050565b60006111408261109e565b61114a81856110a9565b93508360208202850161115c856110ba565b8060005b8581101561119857848403895281516111798582611114565b945061118483611128565b925060208a01995050600181019050611160565b50829750879550505050505092915050565b600060208201905081810360008301526111c48184611135565b905092915050565b6111d581610c35565b82525050565b600060408301600083015184820360008601526111f882826110db565b915050602083015161120d60208601826111cc565b508091505092915050565b6000602082019050818103600083015261123281846111db565b905092915050565b600081519050919050565b600082825260208201905092915050565b6000819050602082019050919050565b6000604083016000830151848203600086015261128382826110db565b915050602083015161129860208601826111cc565b508091505092915050565b60006112af8383611266565b905092915050565b6000602082019050919050565b60006112cf8261123a565b6112d98185611245565b9350836020820285016112eb85611256565b8060005b85811015611327578484038952815161130885826112a3565b9450611313836112b7565b925060208a019950506001810190506112ef565b50829750879550505050505092915050565b6000602082019050818103600083015261135381846112c4565b905092915050565b7f4e487b7100000000000000000000000000000000000000000000000000000000600052602260045260246000fd5b600060028204905060018216806113a257607f821691505b602082108114156113b6576113b561135b565b5b50919050565b7f456c656374696f6e206e6565647320746f2062652070656e64696e6720746f2060008201527f6164642070726f706f73616c7300000000000000000000000000000000000000602082015250565b6000611418602d83610f06565b9150611423826113bc565b604082019050919050565b600060208201905081810360008301526114478161140b565b9050919050565b7f526573756c747320617265206465636c61726564206f6e6c792061667465722060008201527f74686520656c656374696f6e20656e6473000000000000000000000000000000602082015250565b60006114aa603183610f06565b91506114b58261144e565b604082019050919050565b600060208201905081810360008301526114d98161149d565b9050919050565b7f4e487b7100000000000000000000000000000000000000000000000000000000600052603260045260246000fd5b600081905092915050565b60008190508160005260206000209050919050565b6000815461153c8161138a565b611546818661150f565b945060018216600081146115615760018114611572576115a5565b60ff198316865281860193506115a5565b61157b8561151a565b60005b8381101561159d5781548189015260018201915060208101905061157e565b838801955050505b50505092915050565b60006115ba828461152f565b915081905092915050565b7f4e487b7100000000000000000000000000000000000000000000000000000000600052601160045260246000fd5b60006115ff82610c35565b91507fffffffffffffffffffffffffffffffffffffffffffffffffffffffffffffffff821415611632576116316115c5565b5b600182019050919050565b7f456c656374696f6e206e6565647320746f2062652061637469766520746f207660008201527f6f74650000000000000000000000000000000000000000000000000000000000602082015250565b6000611699602383610f06565b91506116a48261163d565b604082019050919050565b600060208201905081810360008301526116c88161168c565b9050919050565b60006116da82610c98565b6116e4818561150f565b93506116f4818560208601610cb4565b80840191505092915050565b600061170c82846116cf565b915081905092915050565b600061172282610c35565b915061172d83610c35565b9250827fffffffffffffffffffffffffffffffffffffffffffffffffffffffffffffffff03821115611762576117616115c5565b5b828201905092915050565b600061177882611004565b9050919050565b6117888161176d565b82525050565b600081549050919050565b60008190508160005260206000209050919050565b600081546117bb8161138a565b6117c581866110ca565b945060018216600081146117e057600181146117f257611825565b60ff1983168652602086019350611825565b6117fb8561151a565b60005b8381101561181d578154818901526001820191506020810190506117fe565b808801955050505b50505092915050565b600061183a83836117ae565b905092915050565b6000600182019050919050565b600061185a8261178e565b61186481856110a9565b93508360208202850161187685611799565b8060005b858110156118b157848403895281611892858261182e565b945061189d83611842565b925060208a0199505060018101905061187a565b50829750879550505050505092915050565b60006060820190506118d8600083018661177f565b81810360208301526118ea818561184f565b90506118f96040830184610ed1565b94935050505056fea2646970667358221220e658b6ec3ef84927f9f80d150b5530ea45c775d46c9ba7117abf557e8ba9cc1e64736f6c634300080a0033",
  "linkReferences": {},
  "deployedLinkReferences": {}
}