{
  "_format": "hh-sol-artifact-1",
  "contractName": "VotingProcess",
  "sourceName": "contracts/VotingProcess.sol",
  "abi": [
    {
      "inputs": [
        {
          "internalType": "uint256",
          "name": "_id",
          "type": "uint256"
        },
        {
          "internalType": "string",
          "name": "_name",
          "type": "string"
        },
        {
          "internalType": "string",
          "name": "_description",
          "type": "string"
        },
        {
          "internalType": "uint256",
          "name": "_startDate",
          "type": "uint256"
        },
        {
          "internalType": "uint256",
          "name": "_endDate",
          "type": "uint256"
        }
      ],
      "stateMutability": "nonpayable",
      "type": "constructor"
    },
    {
      "inputs": [
        {
          "internalType": "bytes",
          "name": "_proposal",
          "type": "bytes"
        }
      ],
      "name": "addProposal",
      "outputs": [],
      "stateMutability": "nonpayable",
      "type": "function"
    },
    {
      "inputs": [],
      "name": "description",
      "outputs": [
        {
          "internalType": "string",
          "name": "",
          "type": "string"
        }
      ],
      "stateMutability": "view",
      "type": "function"
    },
    {
      "inputs": [],
      "name": "getEndDate",
      "outputs": [
        {
          "internalType": "uint256",
          "name": "",
          "type": "uint256"
        }
      ],
      "stateMutability": "view",
      "type": "function"
    },
    {
      "inputs": [],
      "name": "getProposals",
      "outputs": [
        {
          "internalType": "bytes[]",
          "name": "",
          "type": "bytes[]"
        }
      ],
      "stateMutability": "view",
      "type": "function"
    },
    {
      "inputs": [],
      "name": "getStartDate",
      "outputs": [
        {
          "internalType": "uint256",
          "name": "",
          "type": "uint256"
        }
      ],
      "stateMutability": "view",
      "type": "function"
    },
    {
      "inputs": [],
      "name": "getStatus",
      "outputs": [
        {
          "internalType": "enum VotingProcess.Status",
          "name": "",
          "type": "uint8"
        }
      ],
      "stateMutability": "view",
      "type": "function"
    },
    {
      "inputs": [],
      "name": "getVotesPerProposal",
      "outputs": [
        {
          "components": [
            {
              "internalType": "bytes",
              "name": "proposal",
              "type": "bytes"
            },
            {
              "internalType": "uint256",
              "name": "numberOfVotes",
              "type": "uint256"
            }
          ],
          "internalType": "struct VotingProcess.VoteProposal[]",
          "name": "",
          "type": "tuple[]"
        }
      ],
      "stateMutability": "view",
      "type": "function"
    },
    {
      "inputs": [],
      "name": "getWinningProposal",
      "outputs": [
        {
          "components": [
            {
              "internalType": "bytes",
              "name": "proposal",
              "type": "bytes"
            },
            {
              "internalType": "uint256",
              "name": "numberOfVotes",
              "type": "uint256"
            }
          ],
          "internalType": "struct VotingProcess.VoteProposal",
          "name": "",
          "type": "tuple"
        }
      ],
      "stateMutability": "view",
      "type": "function"
    },
    {
      "inputs": [],
      "name": "id",
      "outputs": [
        {
          "internalType": "uint256",
          "name": "",
          "type": "uint256"
        }
      ],
      "stateMutability": "view",
      "type": "function"
    },
    {
      "inputs": [],
      "name": "name",
      "outputs": [
        {
          "internalType": "string",
          "name": "",
          "type": "string"
        }
      ],
      "stateMutability": "view",
      "type": "function"
    },
    {
      "inputs": [
        {
          "internalType": "uint256",
          "name": "",
          "type": "uint256"
        }
      ],
      "name": "proposals",
      "outputs": [
        {
          "internalType": "bytes",
          "name": "",
          "type": "bytes"
        }
      ],
      "stateMutability": "view",
      "type": "function"
    },
    {
      "inputs": [
        {
          "internalType": "bytes",
          "name": "signal",
          "type": "bytes"
        }
      ],
      "name": "vote",
      "outputs": [],
      "stateMutability": "nonpayable",
      "type": "function"
    },
    {
      "inputs": [
        {
          "internalType": "bytes",
          "name": "",
          "type": "bytes"
        }
      ],
      "name": "votesPerProposal",
      "outputs": [
        {
          "internalType": "uint256",
          "name": "",
          "type": "uint256"
        }
      ],
      "stateMutability": "view",
      "type": "function"
    }
  ],
  "bytecode": "0x60806040523480156200001157600080fd5b5060405162001a6438038062001a64833981810160405281019062000037919062000311565b8460008190555083600190805190602001906200005692919062000089565b5082600290805190602001906200006f92919062000089565b50816003819055508060048190555050505050506200043c565b828054620000979062000406565b90600052602060002090601f016020900481019282620000bb576000855562000107565b82601f10620000d657805160ff191683800117855562000107565b8280016001018555821562000107579182015b8281111562000106578251825591602001919060010190620000e9565b5b5090506200011691906200011a565b5090565b5b80821115620001355760008160009055506001016200011b565b5090565b6000604051905090565b600080fd5b600080fd5b6000819050919050565b62000162816200014d565b81146200016e57600080fd5b50565b600081519050620001828162000157565b92915050565b600080fd5b600080fd5b6000601f19601f8301169050919050565b7f4e487b7100000000000000000000000000000000000000000000000000000000600052604160045260246000fd5b620001dd8262000192565b810181811067ffffffffffffffff82111715620001ff57620001fe620001a3565b5b80604052505050565b60006200021462000139565b9050620002228282620001d2565b919050565b600067ffffffffffffffff821115620002455762000244620001a3565b5b620002508262000192565b9050602081019050919050565b60005b838110156200027d57808201518184015260208101905062000260565b838111156200028d576000848401525b50505050565b6000620002aa620002a48462000227565b62000208565b905082815260208101848484011115620002c957620002c86200018d565b5b620002d68482856200025d565b509392505050565b600082601f830112620002f657620002f562000188565b5b81516200030884826020860162000293565b91505092915050565b600080600080600060a0868803121562000330576200032f62000143565b5b6000620003408882890162000171565b955050602086015167ffffffffffffffff81111562000364576200036362000148565b5b6200037288828901620002de565b945050604086015167ffffffffffffffff81111562000396576200039562000148565b5b620003a488828901620002de565b9350506060620003b78882890162000171565b9250506080620003ca8882890162000171565b9150509295509295909350565b7f4e487b7100000000000000000000000000000000000000000000000000000000600052602260045260246000fd5b600060028204905060018216806200041f57607f821691505b60208210811415620004365762000435620003d7565b5b50919050565b611618806200044c6000396000f3fe608060405234801561001057600080fd5b50600436106100cf5760003560e01c80637284e4161161008c578063af640d0f11610066578063af640d0f14610204578063b135648814610222578063bf7f3cfe14610240578063e9dc06141461025e576100cf565b80637284e416146101aa57806378f305c6146101c8578063a5134620146101e6576100cf565b8063013cf08b146100d457806302f6df8e1461010457806306fdde03146101345780634e69d56014610152578063534376531461017057806362564c481461018c575b600080fd5b6100ee60048036038101906100e99190610b7a565b61027a565b6040516100fb9190610c40565b60405180910390f35b61011e60048036038101906101199190610d97565b610326565b60405161012b9190610def565b60405180910390f35b61013c610354565b6040516101499190610e5f565b60405180910390f35b61015a6103e2565b6040516101679190610ef8565b60405180910390f35b61018a60048036038101906101859190610d97565b610412565b005b6101946104bf565b6040516101a1919061101f565b60405180910390f35b6101b2610598565b6040516101bf9190610e5f565b60405180910390f35b6101d0610626565b6040516101dd9190610def565b60405180910390f35b6101ee610630565b6040516101fb919061108d565b60405180910390f35b61020c61081f565b6040516102199190610def565b60405180910390f35b61022a610825565b6040516102379190610def565b60405180910390f35b61024861082f565b60405161025591906111ae565b60405180910390f35b61027860048036038101906102739190610d97565b6109cc565b005b6005818154811061028a57600080fd5b9060005260206000200160009150905080546102a5906111ff565b80601f01602080910402602001604051908101604052809291908181526020018280546102d1906111ff565b801561031e5780601f106102f35761010080835404028352916020019161031e565b820191906000526020600020905b81548152906001019060200180831161030157829003601f168201915b505050505081565b6006818051602081018201805184825260208301602085012081835280955050505050506000915090505481565b60018054610361906111ff565b80601f016020809104026020016040519081016040528092919081815260200182805461038d906111ff565b80156103da5780601f106103af576101008083540402835291602001916103da565b820191906000526020600020905b8154815290600101906020018083116103bd57829003601f168201915b505050505081565b60006003544210156103f7576001905061040f565b60045442101561040a576000905061040f565b600290505b90565b6001600281111561042657610425610e81565b5b61042e6103e2565b60028111156104405761043f610e81565b5b14610480576040517f08c379a0000000000000000000000000000000000000000000000000000000008152600401610477906112a3565b60405180910390fd5b6005819080600181540180825580915050600190039060005260206000200160009091909190915090805190602001906104bb929190610a73565b5050565b60606005805480602002602001604051908101604052809291908181526020016000905b8282101561058f578382906000526020600020018054610502906111ff565b80601f016020809104026020016040519081016040528092919081815260200182805461052e906111ff565b801561057b5780601f106105505761010080835404028352916020019161057b565b820191906000526020600020905b81548152906001019060200180831161055e57829003601f168201915b5050505050815260200190600101906104e3565b50505050905090565b600280546105a5906111ff565b80601f01602080910402602001604051908101604052809291908181526020018280546105d1906111ff565b801561061e5780601f106105f35761010080835404028352916020019161061e565b820191906000526020600020905b81548152906001019060200180831161060157829003601f168201915b505050505081565b6000600354905090565b610638610af9565b60028081111561064b5761064a610e81565b5b6106536103e2565b600281111561066557610664610e81565b5b146106a5576040517f08c379a000000000000000000000000000000000000000000000000000000000815260040161069c90611335565b60405180910390fd5b60006106af610af9565b60008160200181815250505b6005805490508210156108175780602001516006600584815481106106e3576106e2611355565b5b906000526020600020016040516106fa9190611423565b9081526020016040518091039020541115610804576005828154811061072357610722611355565b5b906000526020600020018054610738906111ff565b80601f0160208091040260200160405190810160405280929190818152602001828054610764906111ff565b80156107b15780601f10610786576101008083540402835291602001916107b1565b820191906000526020600020905b81548152906001019060200180831161079457829003601f168201915b505050505081600001819052506006600583815481106107d4576107d3611355565b5b906000526020600020016040516107eb9190611423565b9081526020016040518091039020548160200181815250505b818061080f90611469565b9250506106bb565b809250505090565b60005481565b6000600454905090565b606060008060058054905067ffffffffffffffff81111561085357610852610c6c565b5b60405190808252806020026020018201604052801561088c57816020015b610879610af9565b8152602001906001900390816108715790505b5090505b6005805490508210156109c4576040518060400160405280600584815481106108bc576108bb611355565b5b9060005260206000200180546108d1906111ff565b80601f01602080910402602001604051908101604052809291908181526020018280546108fd906111ff565b801561094a5780601f1061091f5761010080835404028352916020019161094a565b820191906000526020600020905b81548152906001019060200180831161092d57829003601f168201915b5050505050815260200160066005858154811061096a57610969611355565b5b906000526020600020016040516109819190611423565b9081526020016040518091039020548152508183815181106109a6576109a5611355565b5b602002602001018190525081806109bc90611469565b925050610890565b809250505090565b600060028111156109e0576109df610e81565b5b6109e86103e2565b60028111156109fa576109f9610e81565b5b14610a3a576040517f08c379a0000000000000000000000000000000000000000000000000000000008152600401610a3190611524565b60405180910390fd5b6001600682604051610a4c9190611575565b90815260200160405180910390206000828254610a69919061158c565b9250508190555050565b828054610a7f906111ff565b90600052602060002090601f016020900481019282610aa15760008555610ae8565b82601f10610aba57805160ff1916838001178555610ae8565b82800160010185558215610ae8579182015b82811115610ae7578251825591602001919060010190610acc565b5b509050610af59190610b13565b5090565b604051806040016040528060608152602001600081525090565b5b80821115610b2c576000816000905550600101610b14565b5090565b6000604051905090565b600080fd5b600080fd5b6000819050919050565b610b5781610b44565b8114610b6257600080fd5b50565b600081359050610b7481610b4e565b92915050565b600060208284031215610b9057610b8f610b3a565b5b6000610b9e84828501610b65565b91505092915050565b600081519050919050565b600082825260208201905092915050565b60005b83811015610be1578082015181840152602081019050610bc6565b83811115610bf0576000848401525b50505050565b6000601f19601f8301169050919050565b6000610c1282610ba7565b610c1c8185610bb2565b9350610c2c818560208601610bc3565b610c3581610bf6565b840191505092915050565b60006020820190508181036000830152610c5a8184610c07565b905092915050565b600080fd5b600080fd5b7f4e487b7100000000000000000000000000000000000000000000000000000000600052604160045260246000fd5b610ca482610bf6565b810181811067ffffffffffffffff82111715610cc357610cc2610c6c565b5b80604052505050565b6000610cd6610b30565b9050610ce28282610c9b565b919050565b600067ffffffffffffffff821115610d0257610d01610c6c565b5b610d0b82610bf6565b9050602081019050919050565b82818337600083830152505050565b6000610d3a610d3584610ce7565b610ccc565b905082815260208101848484011115610d5657610d55610c67565b5b610d61848285610d18565b509392505050565b600082601f830112610d7e57610d7d610c62565b5b8135610d8e848260208601610d27565b91505092915050565b600060208284031215610dad57610dac610b3a565b5b600082013567ffffffffffffffff811115610dcb57610dca610b3f565b5b610dd784828501610d69565b91505092915050565b610de981610b44565b82525050565b6000602082019050610e046000830184610de0565b92915050565b600081519050919050565b600082825260208201905092915050565b6000610e3182610e0a565b610e3b8185610e15565b9350610e4b818560208601610bc3565b610e5481610bf6565b840191505092915050565b60006020820190508181036000830152610e798184610e26565b905092915050565b7f4e487b7100000000000000000000000000000000000000000000000000000000600052602160045260246000fd5b60038110610ec157610ec0610e81565b5b50565b6000819050610ed282610eb0565b919050565b6000610ee282610ec4565b9050919050565b610ef281610ed7565b82525050565b6000602082019050610f0d6000830184610ee9565b92915050565b600081519050919050565b600082825260208201905092915050565b6000819050602082019050919050565b600082825260208201905092915050565b6000610f5b82610ba7565b610f658185610f3f565b9350610f75818560208601610bc3565b610f7e81610bf6565b840191505092915050565b6000610f958383610f50565b905092915050565b6000602082019050919050565b6000610fb582610f13565b610fbf8185610f1e565b935083602082028501610fd185610f2f565b8060005b8581101561100d5784840389528151610fee8582610f89565b9450610ff983610f9d565b925060208a01995050600181019050610fd5565b50829750879550505050505092915050565b600060208201905081810360008301526110398184610faa565b905092915050565b61104a81610b44565b82525050565b6000604083016000830151848203600086015261106d8282610f50565b91505060208301516110826020860182611041565b508091505092915050565b600060208201905081810360008301526110a78184611050565b905092915050565b600081519050919050565b600082825260208201905092915050565b6000819050602082019050919050565b600060408301600083015184820360008601526110f88282610f50565b915050602083015161110d6020860182611041565b508091505092915050565b600061112483836110db565b905092915050565b6000602082019050919050565b6000611144826110af565b61114e81856110ba565b935083602082028501611160856110cb565b8060005b8581101561119c578484038952815161117d8582611118565b94506111888361112c565b925060208a01995050600181019050611164565b50829750879550505050505092915050565b600060208201905081810360008301526111c88184611139565b905092915050565b7f4e487b7100000000000000000000000000000000000000000000000000000000600052602260045260246000fd5b6000600282049050600182168061121757607f821691505b6020821081141561122b5761122a6111d0565b5b50919050565b7f456c656374696f6e206e6565647320746f2062652070656e64696e6720746f2060008201527f6164642070726f706f73616c7300000000000000000000000000000000000000602082015250565b600061128d602d83610e15565b915061129882611231565b604082019050919050565b600060208201905081810360008301526112bc81611280565b9050919050565b7f526573756c747320617265206465636c61726564206f6e6c792061667465722060008201527f74686520656c656374696f6e20656e6473000000000000000000000000000000602082015250565b600061131f603183610e15565b915061132a826112c3565b604082019050919050565b6000602082019050818103600083015261134e81611312565b9050919050565b7f4e487b7100000000000000000000000000000000000000000000000000000000600052603260045260246000fd5b600081905092915050565b60008190508160005260206000209050919050565b600081546113b1816111ff565b6113bb8186611384565b945060018216600081146113d657600181146113e75761141a565b60ff1983168652818601935061141a565b6113f08561138f565b60005b83811015611412578154818901526001820191506020810190506113f3565b838801955050505b50505092915050565b600061142f82846113a4565b915081905092915050565b7f4e487b7100000000000000000000000000000000000000000000000000000000600052601160045260246000fd5b600061147482610b44565b91507fffffffffffffffffffffffffffffffffffffffffffffffffffffffffffffffff8214156114a7576114a661143a565b5b600182019050919050565b7f456c656374696f6e206e6565647320746f2062652061637469766520746f207660008201527f6f74650000000000000000000000000000000000000000000000000000000000602082015250565b600061150e602383610e15565b9150611519826114b2565b604082019050919050565b6000602082019050818103600083015261153d81611501565b9050919050565b600061154f82610ba7565b6115598185611384565b9350611569818560208601610bc3565b80840191505092915050565b60006115818284611544565b915081905092915050565b600061159782610b44565b91506115a283610b44565b9250827fffffffffffffffffffffffffffffffffffffffffffffffffffffffffffffffff038211156115d7576115d661143a565b5b82820190509291505056fea26469706673582212202f56b9504ff7a5983cb1676d131216bbc446be716c527eabca0d714e89900d0e64736f6c634300080a0033",
  "linkReferences": {},
  "deployedLinkReferences": {}
}