{
  "_format": "hh-sol-artifact-1",
  "contractName": "VotingProcess",
  "sourceName": "contracts/VotingProcess.sol",
  "abi": [
    {
      "inputs": [
        {
          "internalType": "uint256",
          "name": "_id",
          "type": "uint256"
        },
        {
          "internalType": "string",
          "name": "_name",
          "type": "string"
        },
        {
          "internalType": "string",
          "name": "_description",
          "type": "string"
        },
        {
          "internalType": "bytes[]",
          "name": "_proposals",
          "type": "bytes[]"
        }
      ],
      "stateMutability": "nonpayable",
      "type": "constructor"
    },
    {
      "inputs": [],
      "name": "description",
      "outputs": [
        {
          "internalType": "string",
          "name": "",
          "type": "string"
        }
      ],
      "stateMutability": "view",
      "type": "function"
    },
    {
      "inputs": [],
      "name": "getProposals",
      "outputs": [
        {
          "internalType": "bytes[]",
          "name": "",
          "type": "bytes[]"
        }
      ],
      "stateMutability": "view",
      "type": "function"
    },
    {
      "inputs": [],
      "name": "getVotesPerProposal",
      "outputs": [
        {
          "components": [
            {
              "internalType": "bytes",
              "name": "proposal",
              "type": "bytes"
            },
            {
              "internalType": "uint256",
              "name": "numberOfVotes",
              "type": "uint256"
            }
          ],
          "internalType": "struct VotingProcess.VoteProposal[]",
          "name": "",
          "type": "tuple[]"
        }
      ],
      "stateMutability": "view",
      "type": "function"
    },
    {
      "inputs": [],
      "name": "id",
      "outputs": [
        {
          "internalType": "uint256",
          "name": "",
          "type": "uint256"
        }
      ],
      "stateMutability": "view",
      "type": "function"
    },
    {
      "inputs": [],
      "name": "name",
      "outputs": [
        {
          "internalType": "string",
          "name": "",
          "type": "string"
        }
      ],
      "stateMutability": "view",
      "type": "function"
    },
    {
      "inputs": [
        {
          "internalType": "uint256",
          "name": "",
          "type": "uint256"
        }
      ],
      "name": "proposals",
      "outputs": [
        {
          "internalType": "bytes",
          "name": "",
          "type": "bytes"
        }
      ],
      "stateMutability": "view",
      "type": "function"
    },
    {
      "inputs": [
        {
          "internalType": "bytes",
          "name": "signal",
          "type": "bytes"
        }
      ],
      "name": "vote",
      "outputs": [],
      "stateMutability": "nonpayable",
      "type": "function"
    },
    {
      "inputs": [
        {
          "internalType": "bytes",
          "name": "",
          "type": "bytes"
        }
      ],
      "name": "votesPerProposal",
      "outputs": [
        {
          "internalType": "uint256",
          "name": "",
          "type": "uint256"
        }
      ],
      "stateMutability": "view",
      "type": "function"
    }
  ],
  "bytecode": "0x60806040523480156200001157600080fd5b5060405162000ce038038062000ce08339810160408190526200003491620002e1565b600084905582516200004e90600190602086019062000085565b5081516200006490600290602085019062000085565b5080516200007a90600390602084019062000114565b50505050506200045c565b82805462000093906200041f565b90600052602060002090601f016020900481019282620000b7576000855562000102565b82601f10620000d257805160ff191683800117855562000102565b8280016001018555821562000102579182015b8281111562000102578251825591602001919060010190620000e5565b506200011092915062000174565b5090565b82805482825590600052602060002090810192821562000166579160200282015b828111156200016657825180516200015591849160209091019062000085565b509160200191906001019062000135565b50620001109291506200018b565b5b8082111562000110576000815560010162000175565b8082111562000110576000620001a28282620001ac565b506001016200018b565b508054620001ba906200041f565b6000825580601f10620001cb575050565b601f016020900490600052602060002090810190620001eb919062000174565b50565b634e487b7160e01b600052604160045260246000fd5b604051601f8201601f191681016001600160401b03811182821017156200022f576200022f620001ee565b604052919050565b60006001600160401b03831115620002535762000253620001ee565b602062000269601f8501601f1916820162000204565b91508382528484840111156200027e57600080fd5b60005b848110156200029c5783810151838201830152810162000281565b84811115620002ae5760008286850101525b50509392505050565b600082601f830112620002c957600080fd5b620002da8383516020850162000237565b9392505050565b60008060008060808587031215620002f857600080fd5b8451602080870151919550906001600160401b03808211156200031a57600080fd5b6200032889838a01620002b7565b95506040915081880151818111156200034057600080fd5b6200034e8a828b01620002b7565b9550506060880151818111156200036457600080fd5b8801601f81018a136200037657600080fd5b8051828111156200038b576200038b620001ee565b8060051b6200039c86820162000204565b918252828101860191868101908d841115620003b757600080fd5b87850192505b838310156200040d57825186811115620003d75760008081fd5b8501603f81018f13620003ea5760008081fd5b620003fc8f8a8301518a840162000237565b8352509187019190870190620003bd565b9a9d999c50979a505050505050505050565b600181811c908216806200043457607f821691505b602082108114156200045657634e487b7160e01b600052602260045260246000fd5b50919050565b610874806200046c6000396000f3fe608060405234801561001057600080fd5b50600436106100885760003560e01c80637284e4161161005b5780637284e4161461010c578063af640d0f14610114578063bf7f3cfe1461011d578063e9dc06141461013257600080fd5b8063013cf08b1461008d57806302f6df8e146100b657806306fdde03146100ef57806362564c48146100f7575b600080fd5b6100a061009b3660046104be565b610147565b6040516100ad9190610533565b60405180910390f35b6100e16100c4366004610563565b805160208183018101805160048252928201919093012091525481565b6040519081526020016100ad565b6100a06101f3565b6100ff610200565b6040516100ad9190610614565b6100a06102d9565b6100e160005481565b6101256102e6565b6040516100ad9190610676565b610145610140366004610563565b610487565b005b6003818154811061015757600080fd5b906000526020600020016000915090508054610172906106ec565b80601f016020809104026020016040519081016040528092919081815260200182805461019e906106ec565b80156101eb5780601f106101c0576101008083540402835291602001916101eb565b820191906000526020600020905b8154815290600101906020018083116101ce57829003601f168201915b505050505081565b60018054610172906106ec565b60606003805480602002602001604051908101604052809291908181526020016000905b828210156102d0578382906000526020600020018054610243906106ec565b80601f016020809104026020016040519081016040528092919081815260200182805461026f906106ec565b80156102bc5780601f10610291576101008083540402835291602001916102bc565b820191906000526020600020905b81548152906001019060200180831161029f57829003601f168201915b505050505081526020019060010190610224565b50505050905090565b60028054610172906106ec565b606060008060038054905067ffffffffffffffff8111156103095761030961054d565b60405190808252806020026020018201604052801561034f57816020015b6040805180820190915260608152600060208201528152602001906001900390816103275790505b5090505b6003548210156104815760405180604001604052806003848154811061037b5761037b610727565b906000526020600020018054610390906106ec565b80601f01602080910402602001604051908101604052809291908181526020018280546103bc906106ec565b80156104095780601f106103de57610100808354040283529160200191610409565b820191906000526020600020905b8154815290600101906020018083116103ec57829003601f168201915b5050505050815260200160046003858154811061042857610428610727565b9060005260206000200160405161043f919061073d565b90815260200160405180910390205481525081838151811061046357610463610727565b60200260200101819052508180610479906107ef565b925050610353565b92915050565b6001600482604051610499919061080a565b908152602001604051809103902060008282546104b69190610826565b909155505050565b6000602082840312156104d057600080fd5b5035919050565b60005b838110156104f25781810151838201526020016104da565b83811115610501576000848401525b50505050565b6000815180845261051f8160208601602086016104d7565b601f01601f19169290920160200192915050565b6020815260006105466020830184610507565b9392505050565b634e487b7160e01b600052604160045260246000fd5b60006020828403121561057557600080fd5b813567ffffffffffffffff8082111561058d57600080fd5b818401915084601f8301126105a157600080fd5b8135818111156105b3576105b361054d565b604051601f8201601f19908116603f011681019083821181831017156105db576105db61054d565b816040528281528760208487010111156105f457600080fd5b826020860160208301376000928101602001929092525095945050505050565b6000602080830181845280855180835260408601915060408160051b870101925083870160005b8281101561066957603f19888603018452610657858351610507565b9450928501929085019060010161063b565b5092979650505050505050565b60006020808301818452808551808352604092508286019150828160051b87010184880160005b838110156106de57888303603f19018552815180518785526106c188860182610507565b91890151948901949094529487019492509086019060010161069d565b509098975050505050505050565b600181811c9082168061070057607f821691505b6020821081141561072157634e487b7160e01b600052602260045260246000fd5b50919050565b634e487b7160e01b600052603260045260246000fd5b600080835481600182811c91508083168061075957607f831692505b602080841082141561077957634e487b7160e01b86526022600452602486fd5b81801561078d576001811461079e576107cb565b60ff198616895284890196506107cb565b60008a81526020902060005b868110156107c35781548b8201529085019083016107aa565b505084890196505b509498975050505050505050565b634e487b7160e01b600052601160045260246000fd5b6000600019821415610803576108036107d9565b5060010190565b6000825161081c8184602087016104d7565b9190910192915050565b60008219821115610839576108396107d9565b50019056fea2646970667358221220da9914e360f413e266ad26e2074adcf9f6ddb351ba7ce3790be0aa4309cc574564736f6c63430008090033",
  "linkReferences": {},
  "deployedLinkReferences": {}
}