{
  "_format": "hh-sol-artifact-1",
  "contractName": "OneVote",
  "sourceName": "contracts/OneVote.sol",
  "abi": [
    {
      "inputs": [
        {
          "internalType": "contract Semaphore",
          "name": "_semaphore",
          "type": "address"
        },
        {
          "internalType": "contract ParticipationProofs",
          "name": "_participationProofs",
          "type": "address"
        }
      ],
      "stateMutability": "nonpayable",
      "type": "constructor"
    },
    {
      "anonymous": false,
      "inputs": [
        {
          "indexed": true,
          "internalType": "uint256",
          "name": "identityCommitment",
          "type": "uint256"
        }
      ],
      "name": "IdentityCommitment",
      "type": "event"
    },
    {
      "anonymous": false,
      "inputs": [
        {
          "indexed": false,
          "internalType": "uint256",
          "name": "root",
          "type": "uint256"
        }
      ],
      "name": "Rooot",
      "type": "event"
    },
    {
      "anonymous": false,
      "inputs": [
        {
          "indexed": true,
          "internalType": "uint256",
          "name": "signalIndex",
          "type": "uint256"
        }
      ],
      "name": "SignalBroadcastByClient",
      "type": "event"
    },
    {
      "inputs": [
        {
          "internalType": "uint232",
          "name": "_externalNullifier",
          "type": "uint232"
        }
      ],
      "name": "addExternalNullifier",
      "outputs": [],
      "stateMutability": "nonpayable",
      "type": "function"
    },
    {
      "inputs": [
        {
          "internalType": "uint256",
          "name": "_processId",
          "type": "uint256"
        },
        {
          "internalType": "bytes",
          "name": "_proposal",
          "type": "bytes"
        }
      ],
      "name": "addProposal",
      "outputs": [],
      "stateMutability": "nonpayable",
      "type": "function"
    },
    {
      "inputs": [
        {
          "internalType": "string",
          "name": "_name",
          "type": "string"
        },
        {
          "internalType": "string",
          "name": "_description",
          "type": "string"
        },
        {
          "internalType": "uint256",
          "name": "_startDate",
          "type": "uint256"
        },
        {
          "internalType": "uint256",
          "name": "_endDate",
          "type": "uint256"
        }
      ],
      "name": "createVotingProcess",
      "outputs": [],
      "stateMutability": "nonpayable",
      "type": "function"
    },
    {
      "inputs": [
        {
          "internalType": "uint256",
          "name": "_leaf",
          "type": "uint256"
        }
      ],
      "name": "getAuthStatus",
      "outputs": [
        {
          "internalType": "bool",
          "name": "",
          "type": "bool"
        }
      ],
      "stateMutability": "view",
      "type": "function"
    },
    {
      "inputs": [
        {
          "internalType": "uint256",
          "name": "_index",
          "type": "uint256"
        }
      ],
      "name": "getExternalNullifierBySignalIndex",
      "outputs": [
        {
          "internalType": "uint256",
          "name": "",
          "type": "uint256"
        }
      ],
      "stateMutability": "view",
      "type": "function"
    },
    {
      "inputs": [
        {
          "internalType": "uint256",
          "name": "_index",
          "type": "uint256"
        }
      ],
      "name": "getIdentityCommitment",
      "outputs": [
        {
          "internalType": "uint256",
          "name": "",
          "type": "uint256"
        }
      ],
      "stateMutability": "view",
      "type": "function"
    },
    {
      "inputs": [],
      "name": "getIdentityCommitments",
      "outputs": [
        {
          "internalType": "uint256[]",
          "name": "",
          "type": "uint256[]"
        }
      ],
      "stateMutability": "view",
      "type": "function"
    },
    {
      "inputs": [],
      "name": "getNextSignalIndex",
      "outputs": [
        {
          "internalType": "uint256",
          "name": "",
          "type": "uint256"
        }
      ],
      "stateMutability": "view",
      "type": "function"
    },
    {
      "inputs": [
        {
          "internalType": "uint256",
          "name": "id",
          "type": "uint256"
        }
      ],
      "name": "getProcess",
      "outputs": [
        {
          "components": [
            {
              "internalType": "uint256",
              "name": "id",
              "type": "uint256"
            },
            {
              "internalType": "string",
              "name": "name",
              "type": "string"
            },
            {
              "internalType": "string",
              "name": "description",
              "type": "string"
            },
            {
              "internalType": "bytes[]",
              "name": "proposals",
              "type": "bytes[]"
            },
            {
              "internalType": "uint256",
              "name": "startDate",
              "type": "uint256"
            },
            {
              "internalType": "uint256",
              "name": "endDate",
              "type": "uint256"
            }
          ],
          "internalType": "struct OneVote.ProcessDTO",
          "name": "",
          "type": "tuple"
        }
      ],
      "stateMutability": "view",
      "type": "function"
    },
    {
      "inputs": [],
      "name": "getProcesses",
      "outputs": [
        {
          "components": [
            {
              "internalType": "uint256",
              "name": "id",
              "type": "uint256"
            },
            {
              "internalType": "string",
              "name": "name",
              "type": "string"
            },
            {
              "internalType": "string",
              "name": "description",
              "type": "string"
            },
            {
              "internalType": "bytes[]",
              "name": "proposals",
              "type": "bytes[]"
            },
            {
              "internalType": "uint256",
              "name": "startDate",
              "type": "uint256"
            },
            {
              "internalType": "uint256",
              "name": "endDate",
              "type": "uint256"
            }
          ],
          "internalType": "struct OneVote.ProcessDTO[]",
          "name": "",
          "type": "tuple[]"
        }
      ],
      "stateMutability": "view",
      "type": "function"
    },
    {
      "inputs": [
        {
          "internalType": "uint256",
          "name": "id",
          "type": "uint256"
        }
      ],
      "name": "getRootHistory",
      "outputs": [
        {
          "internalType": "bool",
          "name": "",
          "type": "bool"
        }
      ],
      "stateMutability": "view",
      "type": "function"
    },
    {
      "inputs": [],
      "name": "getRoots",
      "outputs": [
        {
          "internalType": "uint256[10]",
          "name": "",
          "type": "uint256[10]"
        }
      ],
      "stateMutability": "view",
      "type": "function"
    },
    {
      "inputs": [
        {
          "internalType": "uint256",
          "name": "_index",
          "type": "uint256"
        }
      ],
      "name": "getSignalBySignalIndex",
      "outputs": [
        {
          "internalType": "bytes",
          "name": "",
          "type": "bytes"
        }
      ],
      "stateMutability": "view",
      "type": "function"
    },
    {
      "inputs": [
        {
          "internalType": "uint256",
          "name": "",
          "type": "uint256"
        }
      ],
      "name": "identityCommitments",
      "outputs": [
        {
          "internalType": "uint256",
          "name": "",
          "type": "uint256"
        }
      ],
      "stateMutability": "view",
      "type": "function"
    },
    {
      "inputs": [
        {
          "internalType": "uint256",
          "name": "_leaf",
          "type": "uint256"
        }
      ],
      "name": "insertIdentityAsClient",
      "outputs": [],
      "stateMutability": "nonpayable",
      "type": "function"
    },
    {
      "inputs": [],
      "name": "nextSignalIndex",
      "outputs": [
        {
          "internalType": "uint256",
          "name": "",
          "type": "uint256"
        }
      ],
      "stateMutability": "view",
      "type": "function"
    },
    {
      "inputs": [],
      "name": "participationProofs",
      "outputs": [
        {
          "internalType": "contract ParticipationProofs",
          "name": "",
          "type": "address"
        }
      ],
      "stateMutability": "view",
      "type": "function"
    },
    {
      "inputs": [],
      "name": "semaphore",
      "outputs": [
        {
          "internalType": "contract Semaphore",
          "name": "",
          "type": "address"
        }
      ],
      "stateMutability": "view",
      "type": "function"
    },
    {
      "inputs": [
        {
          "internalType": "uint256",
          "name": "",
          "type": "uint256"
        }
      ],
      "name": "signalIndexToExternalNullifier",
      "outputs": [
        {
          "internalType": "uint256",
          "name": "",
          "type": "uint256"
        }
      ],
      "stateMutability": "view",
      "type": "function"
    },
    {
      "inputs": [
        {
          "internalType": "uint256",
          "name": "",
          "type": "uint256"
        }
      ],
      "name": "signalIndexToSignal",
      "outputs": [
        {
          "internalType": "bytes",
          "name": "",
          "type": "bytes"
        }
      ],
      "stateMutability": "view",
      "type": "function"
    },
    {
      "inputs": [
        {
          "internalType": "uint232",
          "name": "",
          "type": "uint232"
        },
        {
          "internalType": "uint256",
          "name": "",
          "type": "uint256"
        }
      ],
      "name": "signalsForNullifier",
      "outputs": [
        {
          "internalType": "bytes",
          "name": "",
          "type": "bytes"
        }
      ],
      "stateMutability": "view",
      "type": "function"
    },
    {
      "inputs": [
        {
          "internalType": "bytes",
          "name": "_signal",
          "type": "bytes"
        },
        {
          "internalType": "uint256[8]",
          "name": "_proof",
          "type": "uint256[8]"
        },
        {
          "internalType": "uint256",
          "name": "_root",
          "type": "uint256"
        },
        {
          "internalType": "uint256",
          "name": "_nullifiersHash",
          "type": "uint256"
        },
        {
          "internalType": "uint232",
          "name": "_externalNullifier",
          "type": "uint232"
        }
      ],
      "name": "vote",
      "outputs": [],
      "stateMutability": "nonpayable",
      "type": "function"
    },
    {
      "inputs": [
        {
          "internalType": "uint256",
          "name": "",
          "type": "uint256"
        }
      ],
      "name": "votingProcesses",
      "outputs": [
        {
          "internalType": "contract VotingProcess",
          "name": "",
          "type": "address"
        }
      ],
      "stateMutability": "view",
      "type": "function"
    }
  ],
  "bytecode": "0x608060405260006007553480156200001657600080fd5b5060405162004f3338038062004f3383398181016040528101906200003c919062000189565b81600860006101000a81548173ffffffffffffffffffffffffffffffffffffffff021916908373ffffffffffffffffffffffffffffffffffffffff16021790555080600960006101000a81548173ffffffffffffffffffffffffffffffffffffffff021916908373ffffffffffffffffffffffffffffffffffffffff1602179055505050620001d0565b600080fd5b600073ffffffffffffffffffffffffffffffffffffffff82169050919050565b6000620000f882620000cb565b9050919050565b60006200010c82620000eb565b9050919050565b6200011e81620000ff565b81146200012a57600080fd5b50565b6000815190506200013e8162000113565b92915050565b60006200015182620000eb565b9050919050565b620001638162000144565b81146200016f57600080fd5b50565b600081519050620001838162000158565b92915050565b60008060408385031215620001a357620001a2620000c6565b5b6000620001b3858286016200012d565b9250506020620001c68582860162000172565b9150509250929050565b614d5380620001e06000396000f3fe60806040523480156200001157600080fd5b50600436106200016c5760003560e01c80638d2d593b11620000d5578063c6cdfa6b1162000087578063c6cdfa6b1462000439578063cb7be8cf146200046f578063d0851a71146200048f578063e53a396014620004c5578063f9cdb5cd14620004e5578063ffac0046146200051b576200016c565b80638d2d593b14620003355780638fd0de571462000357578063911ca41e146200038d578063b30b483f14620003c3578063bde1061214620003f9578063c0374c681462000419576200016c565b8063539f38b2116200012f578063539f38b2146200024357806353b41f2c1462000263578063545b9cb114620002855780636e52b23914620002bb578063740afb7714620002dd5780637b5d25341462000313576200016c565b8063040c46ec146200017157806327acf71b14620001a757806335a5e06d14620001dd5780634056679014620001ff57806349b0b9101462000221575b600080fd5b6200018f6004803603810190620001899190620019c5565b62000551565b6040516200019e919062001a82565b60405180910390f35b620001c56004803603810190620001bf9190620019c5565b62000584565b604051620001d4919062001b43565b60405180910390f35b620001e76200062c565b604051620001f6919062001c22565b60405180910390f35b62000209620006d0565b60405162000218919062001ce3565b60405180910390f35b6200022b6200072a565b6040516200023a919062001d18565b60405180910390f35b6200026160048036038101906200025b919062001d8f565b62000734565b005b6200026d620007c8565b6040516200027c919062001de6565b60405180910390f35b620002a360048036038101906200029d9190620019c5565b620007ee565b604051620002b2919062001e20565b60405180910390f35b620002c562000818565b604051620002d491906200212f565b60405180910390f35b620002fb6004803603810190620002f59190620019c5565b62000cd5565b6040516200030a919062001d18565b60405180910390f35b6200031d62000cf2565b6040516200032c919062002178565b60405180910390f35b6200033f62000d18565b6040516200034e919062001d18565b60405180910390f35b6200037560048036038101906200036f9190620019c5565b62000d1e565b60405162000384919062001d18565b60405180910390f35b620003ab6004803603810190620003a59190620019c5565b62000d43565b604051620003ba919062001b43565b60405180910390f35b620003e16004803603810190620003db9190620019c5565b62000df0565b604051620003f0919062001d18565b60405180910390f35b620004176004803603810190620004119190620019c5565b62000e1b565b005b620004376004803603810190620004319190620022e6565b62000f43565b005b62000457600480360381019062000451919062002396565b62001031565b60405162000466919062001b43565b60405180910390f35b6200048d60048036038101906200048791906200255a565b620010f3565b005b620004ad6004803603810190620004a79190620019c5565b620013cd565b604051620004bc9190620026a8565b60405180910390f35b620004e36004803603810190620004dd9190620026cc565b620016f8565b005b620005036004803603810190620004fd9190620019c5565b6200179d565b60405162000512919062001d18565b60405180910390f35b620005396004803603810190620005339190620019c5565b620017b5565b60405162000548919062001e20565b60405180910390f35b60006020528060005260406000206000915054906101000a900473ffffffffffffffffffffffffffffffffffffffff1681565b60046020528060005260406000206000915090508054620005a59062002761565b80601f0160208091040260200160405190810160405280929190818152602001828054620005d39062002761565b8015620006245780601f10620005f85761010080835404028352916020019162000624565b820191906000526020600020905b8154815290600101906020018083116200060657829003601f168201915b505050505081565b620006366200185f565b600860009054906101000a900473ffffffffffffffffffffffffffffffffffffffff1673ffffffffffffffffffffffffffffffffffffffff166335a5e06d6040518163ffffffff1660e01b815260040161014060405180830381865afa158015620006a5573d6000803e3d6000fd5b505050506040513d601f19601f82011682018060405250810190620006cb919062002872565b905090565b606060038054806020026020016040519081016040528092919081815260200182805480156200072057602002820191906000526020600020905b8154815260200190600101908083116200070b575b5050505050905090565b6000600754905090565b600860009054906101000a900473ffffffffffffffffffffffffffffffffffffffff1673ffffffffffffffffffffffffffffffffffffffff1663539f38b2826040518263ffffffff1660e01b8152600401620007919190620028b6565b600060405180830381600087803b158015620007ac57600080fd5b505af1158015620007c1573d6000803e3d6000fd5b5050505050565b600960009054906101000a900473ffffffffffffffffffffffffffffffffffffffff1681565b60006001600083815260200190815260200160002060009054906101000a900460ff169050919050565b606060008060025467ffffffffffffffff8111156200083c576200083b6200219f565b5b6040519080825280602002602001820160405280156200087957816020015b6200086562001882565b8152602001906001900390816200085b5790505b5090505b60025482101562000ccd576040518060c0016040528060008085815260200190815260200160002060009054906101000a900473ffffffffffffffffffffffffffffffffffffffff1673ffffffffffffffffffffffffffffffffffffffff1663af640d0f6040518163ffffffff1660e01b8152600401602060405180830381865afa15801562000911573d6000803e3d6000fd5b505050506040513d601f19601f82011682018060405250810190620009379190620028d3565b815260200160008085815260200190815260200160002060009054906101000a900473ffffffffffffffffffffffffffffffffffffffff1673ffffffffffffffffffffffffffffffffffffffff166306fdde036040518163ffffffff1660e01b8152600401600060405180830381865afa158015620009ba573d6000803e3d6000fd5b505050506040513d6000823e3d601f19601f82011682018060405250810190620009e5919062002983565b815260200160008085815260200190815260200160002060009054906101000a900473ffffffffffffffffffffffffffffffffffffffff1673ffffffffffffffffffffffffffffffffffffffff16637284e4166040518163ffffffff1660e01b8152600401600060405180830381865afa15801562000a68573d6000803e3d6000fd5b505050506040513d6000823e3d601f19601f8201168201806040525081019062000a93919062002983565b815260200160008085815260200190815260200160002060009054906101000a900473ffffffffffffffffffffffffffffffffffffffff1673ffffffffffffffffffffffffffffffffffffffff166362564c486040518163ffffffff1660e01b8152600401600060405180830381865afa15801562000b16573d6000803e3d6000fd5b505050506040513d6000823e3d601f19601f8201168201806040525081019062000b41919062002b49565b815260200160008085815260200190815260200160002060009054906101000a900473ffffffffffffffffffffffffffffffffffffffff1673ffffffffffffffffffffffffffffffffffffffff166378f305c66040518163ffffffff1660e01b8152600401602060405180830381865afa15801562000bc4573d6000803e3d6000fd5b505050506040513d601f19601f8201168201806040525081019062000bea9190620028d3565b815260200160008085815260200190815260200160002060009054906101000a900473ffffffffffffffffffffffffffffffffffffffff1673ffffffffffffffffffffffffffffffffffffffff1663b13564886040518163ffffffff1660e01b8152600401602060405180830381865afa15801562000c6d573d6000803e3d6000fd5b505050506040513d601f19601f8201168201806040525081019062000c939190620028d3565b81525081838151811062000cac5762000cab62002b9a565b5b6020026020010181905250818062000cc49062002bf8565b9250506200087d565b809250505090565b600060056000838152602001908152602001600020549050919050565b600860009054906101000a900473ffffffffffffffffffffffffffffffffffffffff1681565b60075481565b6003818154811062000d2f57600080fd5b906000526020600020016000915090505481565b606060046000838152602001908152602001600020805462000d659062002761565b80601f016020809104026020016040519081016040528092919081815260200182805462000d939062002761565b801562000de45780601f1062000db85761010080835404028352916020019162000de4565b820191906000526020600020905b81548152906001019060200180831162000dc657829003601f168201915b50505050509050919050565b60006003828154811062000e095762000e0862002b9a565b5b90600052602060002001549050919050565b600860009054906101000a900473ffffffffffffffffffffffffffffffffffffffff1673ffffffffffffffffffffffffffffffffffffffff16636d80efca826040518263ffffffff1660e01b815260040162000e78919062001d18565b6020604051808303816000875af115801562000e98573d6000803e3d6000fd5b505050506040513d601f19601f8201168201806040525081019062000ebe9190620028d3565b506003819080600181540180825580915050600190039060005260206000200160009091909190915055600180600083815260200190815260200160002060006101000a81548160ff021916908315150217905550807f31d0d431762af1b333d4fef318e03efc7b702fe91dd1f0aa2c72e699bebcb48960405160405180910390a250565b600060025485858585600960009054906101000a900473ffffffffffffffffffffffffffffffffffffffff1660405162000f7d90620018b8565b62000f8e9695949392919062002c98565b604051809103906000f08015801562000fab573d6000803e3d6000fd5b50905062000fbb60025462000734565b80600080600254815260200190815260200160002060006101000a81548173ffffffffffffffffffffffffffffffffffffffff021916908373ffffffffffffffffffffffffffffffffffffffff16021790555060016002600082825462001023919062002d13565b925050819055505050505050565b600660205281600052604060002081815481106200104e57600080fd5b906000526020600020016000915091505080546200106c9062002761565b80601f01602080910402602001604051908101604052809291908181526020018280546200109a9062002761565b8015620010eb5780601f10620010bf57610100808354040283529160200191620010eb565b820191906000526020600020905b815481529060010190602001808311620010cd57829003601f168201915b505050505081565b6000600754905085600460006007548152602001908152602001600020908051906020019062001125929190620018c6565b50817cffffffffffffffffffffffffffffffffffffffffffffffffffffffffff166005600060075481526020019081526020016000208190555060066000837cffffffffffffffffffffffffffffffffffffffffffffffffffffffffff167cffffffffffffffffffffffffffffffffffffffffffffffffffffffffff16815260200190815260200160002086908060018154018082558091505060019003906000526020600020016000909190919091509080519060200190620011eb929190620018c6565b50600080837cffffffffffffffffffffffffffffffffffffffffffffffffffffffffff16815260200190815260200160002060009054906101000a900473ffffffffffffffffffffffffffffffffffffffff1673ffffffffffffffffffffffffffffffffffffffff1663e9dc0614876040518263ffffffff1660e01b815260040162001278919062001b43565b600060405180830381600087803b1580156200129357600080fd5b505af1158015620012a8573d6000803e3d6000fd5b5050505060076000815480929190620012c19062002bf8565b91905055507fc22cfa8a3523410b962de1755e11d5abcb562e0199fd322dda29198947f18c9384604051620012f7919062001d18565b60405180910390a1600860009054906101000a900473ffffffffffffffffffffffffffffffffffffffff1673ffffffffffffffffffffffffffffffffffffffff16630e57596f87878787876040518663ffffffff1660e01b81526004016200136495949392919062002e00565b600060405180830381600087803b1580156200137f57600080fd5b505af115801562001394573d6000803e3d6000fd5b50505050807faa676fd106f1023de6c9eafff9af5bc8e299b3493d3aa816a3278a15d055657b60405160405180910390a2505050505050565b620013d762001882565b600080600084815260200190815260200160002060009054906101000a900473ffffffffffffffffffffffffffffffffffffffff1690506040518060c001604052808273ffffffffffffffffffffffffffffffffffffffff1663af640d0f6040518163ffffffff1660e01b8152600401602060405180830381865afa15801562001465573d6000803e3d6000fd5b505050506040513d601f19601f820116820180604052508101906200148b9190620028d3565b81526020018273ffffffffffffffffffffffffffffffffffffffff166306fdde036040518163ffffffff1660e01b8152600401600060405180830381865afa158015620014dc573d6000803e3d6000fd5b505050506040513d6000823e3d601f19601f8201168201806040525081019062001507919062002983565b81526020018273ffffffffffffffffffffffffffffffffffffffff16637284e4166040518163ffffffff1660e01b8152600401600060405180830381865afa15801562001558573d6000803e3d6000fd5b505050506040513d6000823e3d601f19601f8201168201806040525081019062001583919062002983565b81526020018273ffffffffffffffffffffffffffffffffffffffff166362564c486040518163ffffffff1660e01b8152600401600060405180830381865afa158015620015d4573d6000803e3d6000fd5b505050506040513d6000823e3d601f19601f82011682018060405250810190620015ff919062002b49565b81526020018273ffffffffffffffffffffffffffffffffffffffff166378f305c66040518163ffffffff1660e01b8152600401602060405180830381865afa15801562001650573d6000803e3d6000fd5b505050506040513d601f19601f82011682018060405250810190620016769190620028d3565b81526020018273ffffffffffffffffffffffffffffffffffffffff1663b13564886040518163ffffffff1660e01b8152600401602060405180830381865afa158015620016c7573d6000803e3d6000fd5b505050506040513d601f19601f82011682018060405250810190620016ed9190620028d3565b815250915050919050565b60008083815260200190815260200160002060009054906101000a900473ffffffffffffffffffffffffffffffffffffffff1673ffffffffffffffffffffffffffffffffffffffff166353437653826040518263ffffffff1660e01b815260040162001765919062001b43565b600060405180830381600087803b1580156200178057600080fd5b505af115801562001795573d6000803e3d6000fd5b505050505050565b60056020528060005260406000206000915090505481565b6000600860009054906101000a900473ffffffffffffffffffffffffffffffffffffffff1673ffffffffffffffffffffffffffffffffffffffff1663f1c621ee836040518263ffffffff1660e01b815260040162001814919062001d18565b602060405180830381865afa15801562001832573d6000803e3d6000fd5b505050506040513d601f19601f8201168201806040525081019062001858919062002e99565b9050919050565b604051806101400160405280600a90602082028036833780820191505090505090565b6040518060c001604052806000815260200160608152602001606081526020016060815260200160008152602001600081525090565b611e528062002ecc83390190565b828054620018d49062002761565b90600052602060002090601f016020900481019282620018f8576000855562001944565b82601f106200191357805160ff191683800117855562001944565b8280016001018555821562001944579182015b828111156200194357825182559160200191906001019062001926565b5b50905062001953919062001957565b5090565b5b808211156200197257600081600090555060010162001958565b5090565b6000604051905090565b600080fd5b600080fd5b6000819050919050565b6200199f816200198a565b8114620019ab57600080fd5b50565b600081359050620019bf8162001994565b92915050565b600060208284031215620019de57620019dd62001980565b5b6000620019ee84828501620019ae565b91505092915050565b600073ffffffffffffffffffffffffffffffffffffffff82169050919050565b6000819050919050565b600062001a4262001a3c62001a3684620019f7565b62001a17565b620019f7565b9050919050565b600062001a568262001a21565b9050919050565b600062001a6a8262001a49565b9050919050565b62001a7c8162001a5d565b82525050565b600060208201905062001a99600083018462001a71565b92915050565b600081519050919050565b600082825260208201905092915050565b60005b8381101562001adb57808201518184015260208101905062001abe565b8381111562001aeb576000848401525b50505050565b6000601f19601f8301169050919050565b600062001b0f8262001a9f565b62001b1b818562001aaa565b935062001b2d81856020860162001abb565b62001b388162001af1565b840191505092915050565b6000602082019050818103600083015262001b5f818462001b02565b905092915050565b6000600a9050919050565b600081905092915050565b6000819050919050565b62001b92816200198a565b82525050565b600062001ba6838362001b87565b60208301905092915050565b6000602082019050919050565b62001bca8162001b67565b62001bd6818462001b72565b925062001be38262001b7d565b8060005b8381101562001c1a57815162001bfe878262001b98565b965062001c0b8362001bb2565b92505060018101905062001be7565b505050505050565b60006101408201905062001c3a600083018462001bbf565b92915050565b600081519050919050565b600082825260208201905092915050565b6000819050602082019050919050565b6000602082019050919050565b600062001c868262001c40565b62001c92818562001c4b565b935062001c9f8362001c5c565b8060005b8381101562001cd657815162001cba888262001b98565b975062001cc78362001c6c565b92505060018101905062001ca3565b5085935050505092915050565b6000602082019050818103600083015262001cff818462001c79565b905092915050565b62001d12816200198a565b82525050565b600060208201905062001d2f600083018462001d07565b92915050565b60007cffffffffffffffffffffffffffffffffffffffffffffffffffffffffff82169050919050565b62001d698162001d35565b811462001d7557600080fd5b50565b60008135905062001d898162001d5e565b92915050565b60006020828403121562001da85762001da762001980565b5b600062001db88482850162001d78565b91505092915050565b600062001dce8262001a49565b9050919050565b62001de08162001dc1565b82525050565b600060208201905062001dfd600083018462001dd5565b92915050565b60008115159050919050565b62001e1a8162001e03565b82525050565b600060208201905062001e37600083018462001e0f565b92915050565b600081519050919050565b600082825260208201905092915050565b6000819050602082019050919050565b600081519050919050565b600082825260208201905092915050565b600062001e928262001e69565b62001e9e818562001e74565b935062001eb081856020860162001abb565b62001ebb8162001af1565b840191505092915050565b600081519050919050565b600082825260208201905092915050565b6000819050602082019050919050565b600082825260208201905092915050565b600062001f108262001a9f565b62001f1c818562001ef2565b935062001f2e81856020860162001abb565b62001f398162001af1565b840191505092915050565b600062001f52838362001f03565b905092915050565b6000602082019050919050565b600062001f748262001ec6565b62001f80818562001ed1565b93508360208202850162001f948562001ee2565b8060005b8581101562001fd6578484038952815162001fb4858262001f44565b945062001fc18362001f5a565b925060208a0199505060018101905062001f98565b50829750879550505050505092915050565b600060c08301600083015162002002600086018262001b87565b50602083015184820360208601526200201c828262001e85565b9150506040830151848203604086015262002038828262001e85565b9150506060830151848203606086015262002054828262001f67565b91505060808301516200206b608086018262001b87565b5060a08301516200208060a086018262001b87565b508091505092915050565b600062002099838362001fe8565b905092915050565b6000602082019050919050565b6000620020bb8262001e3d565b620020c7818562001e48565b935083602082028501620020db8562001e59565b8060005b858110156200211d5784840389528151620020fb85826200208b565b94506200210883620020a1565b925060208a01995050600181019050620020df565b50829750879550505050505092915050565b600060208201905081810360008301526200214b8184620020ae565b905092915050565b6000620021608262001a49565b9050919050565b620021728162002153565b82525050565b60006020820190506200218f600083018462002167565b92915050565b600080fd5b600080fd5b7f4e487b7100000000000000000000000000000000000000000000000000000000600052604160045260246000fd5b620021d98262001af1565b810181811067ffffffffffffffff82111715620021fb57620021fa6200219f565b5b80604052505050565b60006200221062001976565b90506200221e8282620021ce565b919050565b600067ffffffffffffffff8211156200224157620022406200219f565b5b6200224c8262001af1565b9050602081019050919050565b82818337600083830152505050565b60006200227f620022798462002223565b62002204565b9050828152602081018484840111156200229e576200229d6200219a565b5b620022ab84828562002259565b509392505050565b600082601f830112620022cb57620022ca62002195565b5b8135620022dd84826020860162002268565b91505092915050565b6000806000806080858703121562002303576200230262001980565b5b600085013567ffffffffffffffff81111562002324576200232362001985565b5b6200233287828801620022b3565b945050602085013567ffffffffffffffff81111562002356576200235562001985565b5b6200236487828801620022b3565b93505060406200237787828801620019ae565b92505060606200238a87828801620019ae565b91505092959194509250565b60008060408385031215620023b057620023af62001980565b5b6000620023c08582860162001d78565b9250506020620023d385828601620019ae565b9150509250929050565b600067ffffffffffffffff821115620023fb57620023fa6200219f565b5b620024068262001af1565b9050602081019050919050565b60006200242a6200242484620023dd565b62002204565b9050828152602081018484840111156200244957620024486200219a565b5b6200245684828562002259565b509392505050565b600082601f83011262002476576200247562002195565b5b81356200248884826020860162002413565b91505092915050565b600067ffffffffffffffff821115620024af57620024ae6200219f565b5b602082029050919050565b600080fd5b6000620024d6620024d08462002491565b62002204565b90508060208402830185811115620024f357620024f2620024ba565b5b835b818110156200252057806200250b8882620019ae565b845260208401935050602081019050620024f5565b5050509392505050565b600082601f83011262002542576200254162002195565b5b600862002551848285620024bf565b91505092915050565b600080600080600061018086880312156200257a576200257962001980565b5b600086013567ffffffffffffffff8111156200259b576200259a62001985565b5b620025a9888289016200245e565b9550506020620025bc888289016200252a565b945050610120620025d088828901620019ae565b935050610140620025e488828901620019ae565b925050610160620025f88882890162001d78565b9150509295509295909350565b600060c0830160008301516200261f600086018262001b87565b506020830151848203602086015262002639828262001e85565b9150506040830151848203604086015262002655828262001e85565b9150506060830151848203606086015262002671828262001f67565b915050608083015162002688608086018262001b87565b5060a08301516200269d60a086018262001b87565b508091505092915050565b60006020820190508181036000830152620026c4818462002605565b905092915050565b60008060408385031215620026e657620026e562001980565b5b6000620026f685828601620019ae565b925050602083013567ffffffffffffffff8111156200271a576200271962001985565b5b62002728858286016200245e565b9150509250929050565b7f4e487b7100000000000000000000000000000000000000000000000000000000600052602260045260246000fd5b600060028204905060018216806200277a57607f821691505b6020821081141562002791576200279062002732565b5b50919050565b600067ffffffffffffffff821115620027b557620027b46200219f565b5b602082029050919050565b600081519050620027d18162001994565b92915050565b6000620027ee620027e88462002797565b62002204565b905080602084028301858111156200280b576200280a620024ba565b5b835b81811015620028385780620028238882620027c0565b8452602084019350506020810190506200280d565b5050509392505050565b600082601f8301126200285a576200285962002195565b5b600a62002869848285620027d7565b91505092915050565b600061014082840312156200288c576200288b62001980565b5b60006200289c8482850162002842565b91505092915050565b620028b08162001d35565b82525050565b6000602082019050620028cd6000830184620028a5565b92915050565b600060208284031215620028ec57620028eb62001980565b5b6000620028fc84828501620027c0565b91505092915050565b60006200291c620029168462002223565b62002204565b9050828152602081018484840111156200293b576200293a6200219a565b5b6200294884828562001abb565b509392505050565b600082601f83011262002968576200296762002195565b5b81516200297a84826020860162002905565b91505092915050565b6000602082840312156200299c576200299b62001980565b5b600082015167ffffffffffffffff811115620029bd57620029bc62001985565b5b620029cb8482850162002950565b91505092915050565b600067ffffffffffffffff821115620029f257620029f16200219f565b5b602082029050602081019050919050565b600062002a1a62002a1484620023dd565b62002204565b90508281526020810184848401111562002a395762002a386200219a565b5b62002a4684828562001abb565b509392505050565b600082601f83011262002a665762002a6562002195565b5b815162002a7884826020860162002a03565b91505092915050565b600062002a9862002a9284620029d4565b62002204565b9050808382526020820190506020840283018581111562002abe5762002abd620024ba565b5b835b8181101562002b0c57805167ffffffffffffffff81111562002ae75762002ae662002195565b5b80860162002af6898262002a4e565b8552602085019450505060208101905062002ac0565b5050509392505050565b600082601f83011262002b2e5762002b2d62002195565b5b815162002b4084826020860162002a81565b91505092915050565b60006020828403121562002b625762002b6162001980565b5b600082015167ffffffffffffffff81111562002b835762002b8262001985565b5b62002b918482850162002b16565b91505092915050565b7f4e487b7100000000000000000000000000000000000000000000000000000000600052603260045260246000fd5b7f4e487b7100000000000000000000000000000000000000000000000000000000600052601160045260246000fd5b600062002c05826200198a565b91507fffffffffffffffffffffffffffffffffffffffffffffffffffffffffffffffff82141562002c3b5762002c3a62002bc9565b5b600182019050919050565b600082825260208201905092915050565b600062002c648262001e69565b62002c70818562002c46565b935062002c8281856020860162001abb565b62002c8d8162001af1565b840191505092915050565b600060c08201905062002caf600083018962001d07565b818103602083015262002cc3818862002c57565b9050818103604083015262002cd9818762002c57565b905062002cea606083018662001d07565b62002cf9608083018562001d07565b62002d0860a083018462001dd5565b979650505050505050565b600062002d20826200198a565b915062002d2d836200198a565b9250827fffffffffffffffffffffffffffffffffffffffffffffffffffffffffffffffff0382111562002d655762002d6462002bc9565b5b828201905092915050565b600060089050919050565b600081905092915050565b6000819050919050565b6000602082019050919050565b62002da88162002d70565b62002db4818462002d7b565b925062002dc18262002d86565b8060005b8381101562002df857815162002ddc878262001b98565b965062002de98362002d90565b92505060018101905062002dc5565b505050505050565b600061018082019050818103600083015262002e1d818862001b02565b905062002e2e602083018762002d9d565b62002e3e61012083018662001d07565b62002e4e61014083018562001d07565b62002e5e610160830184620028a5565b9695505050505050565b62002e738162001e03565b811462002e7f57600080fd5b50565b60008151905062002e938162002e68565b92915050565b60006020828403121562002eb25762002eb162001980565b5b600062002ec28482850162002e82565b9150509291505056fe60806040523480156200001157600080fd5b5060405162001e5238038062001e528339818101604052810190620000379190620003cc565b85600081905550846001908051906020019062000056929190620000cb565b5083600290805190602001906200006f929190620000cb565b50826003819055508160048190555080600560006101000a81548173ffffffffffffffffffffffffffffffffffffffff021916908373ffffffffffffffffffffffffffffffffffffffff1602179055505050505050506200050b565b828054620000d990620004d5565b90600052602060002090601f016020900481019282620000fd576000855562000149565b82601f106200011857805160ff191683800117855562000149565b8280016001018555821562000149579182015b82811115620001485782518255916020019190600101906200012b565b5b5090506200015891906200015c565b5090565b5b80821115620001775760008160009055506001016200015d565b5090565b6000604051905090565b600080fd5b600080fd5b6000819050919050565b620001a4816200018f565b8114620001b057600080fd5b50565b600081519050620001c48162000199565b92915050565b600080fd5b600080fd5b6000601f19601f8301169050919050565b7f4e487b7100000000000000000000000000000000000000000000000000000000600052604160045260246000fd5b6200021f82620001d4565b810181811067ffffffffffffffff82111715620002415762000240620001e5565b5b80604052505050565b6000620002566200017b565b905062000264828262000214565b919050565b600067ffffffffffffffff821115620002875762000286620001e5565b5b6200029282620001d4565b9050602081019050919050565b60005b83811015620002bf578082015181840152602081019050620002a2565b83811115620002cf576000848401525b50505050565b6000620002ec620002e68462000269565b6200024a565b9050828152602081018484840111156200030b576200030a620001cf565b5b620003188482856200029f565b509392505050565b600082601f830112620003385762000337620001ca565b5b81516200034a848260208601620002d5565b91505092915050565b600073ffffffffffffffffffffffffffffffffffffffff82169050919050565b6000620003808262000353565b9050919050565b6000620003948262000373565b9050919050565b620003a68162000387565b8114620003b257600080fd5b50565b600081519050620003c6816200039b565b92915050565b60008060008060008060c08789031215620003ec57620003eb62000185565b5b6000620003fc89828a01620001b3565b965050602087015167ffffffffffffffff81111562000420576200041f6200018a565b5b6200042e89828a0162000320565b955050604087015167ffffffffffffffff8111156200045257620004516200018a565b5b6200046089828a0162000320565b94505060606200047389828a01620001b3565b93505060806200048689828a01620001b3565b92505060a06200049989828a01620003b5565b9150509295509295509295565b7f4e487b7100000000000000000000000000000000000000000000000000000000600052602260045260246000fd5b60006002820490506001821680620004ee57607f821691505b60208210811415620005055762000504620004a6565b5b50919050565b611937806200051b6000396000f3fe608060405234801561001057600080fd5b50600436106100ea5760003560e01c80637284e4161161008c578063af640d0f11610066578063af640d0f1461023d578063b13564881461025b578063bf7f3cfe14610279578063e9dc061414610297576100ea565b80637284e416146101e357806378f305c614610201578063a51346201461021f576100ea565b80634e69d560116100c85780634e69d5601461016d578063534376531461018b57806353b41f2c146101a757806362564c48146101c5576100ea565b8063013cf08b146100ef57806302f6df8e1461011f57806306fdde031461014f575b600080fd5b61010960048036038101906101049190610c6b565b6102b3565b6040516101169190610d31565b60405180910390f35b61013960048036038101906101349190610e88565b61035f565b6040516101469190610ee0565b60405180910390f35b61015761038d565b6040516101649190610f50565b60405180910390f35b61017561041b565b6040516101829190610fe9565b60405180910390f35b6101a560048036038101906101a09190610e88565b61044b565b005b6101af6104f8565b6040516101bc9190611083565b60405180910390f35b6101cd61051e565b6040516101da91906111aa565b60405180910390f35b6101eb6105f7565b6040516101f89190610f50565b60405180910390f35b610209610685565b6040516102169190610ee0565b60405180910390f35b61022761068f565b6040516102349190611218565b60405180910390f35b61024561087e565b6040516102529190610ee0565b60405180910390f35b610263610884565b6040516102709190610ee0565b60405180910390f35b61028161088e565b60405161028e9190611339565b60405180910390f35b6102b160048036038101906102ac9190610e88565b610a2b565b005b600681815481106102c357600080fd5b9060005260206000200160009150905080546102de9061138a565b80601f016020809104026020016040519081016040528092919081815260200182805461030a9061138a565b80156103575780601f1061032c57610100808354040283529160200191610357565b820191906000526020600020905b81548152906001019060200180831161033a57829003601f168201915b505050505081565b6007818051602081018201805184825260208301602085012081835280955050505050506000915090505481565b6001805461039a9061138a565b80601f01602080910402602001604051908101604052809291908181526020018280546103c69061138a565b80156104135780601f106103e857610100808354040283529160200191610413565b820191906000526020600020905b8154815290600101906020018083116103f657829003601f168201915b505050505081565b60006003544210156104305760019050610448565b6004544210156104435760009050610448565b600290505b90565b6001600281111561045f5761045e610f72565b5b61046761041b565b600281111561047957610478610f72565b5b146104b9576040517f08c379a00000000000000000000000000000000000000000000000000000000081526004016104b09061142e565b60405180910390fd5b6006819080600181540180825580915050600190039060005260206000200160009091909190915090805190602001906104f4929190610b64565b5050565b600560009054906101000a900473ffffffffffffffffffffffffffffffffffffffff1681565b60606006805480602002602001604051908101604052809291908181526020016000905b828210156105ee5783829060005260206000200180546105619061138a565b80601f016020809104026020016040519081016040528092919081815260200182805461058d9061138a565b80156105da5780601f106105af576101008083540402835291602001916105da565b820191906000526020600020905b8154815290600101906020018083116105bd57829003601f168201915b505050505081526020019060010190610542565b50505050905090565b600280546106049061138a565b80601f01602080910402602001604051908101604052809291908181526020018280546106309061138a565b801561067d5780601f106106525761010080835404028352916020019161067d565b820191906000526020600020905b81548152906001019060200180831161066057829003601f168201915b505050505081565b6000600354905090565b610697610bea565b6002808111156106aa576106a9610f72565b5b6106b261041b565b60028111156106c4576106c3610f72565b5b14610704576040517f08c379a00000000000000000000000000000000000000000000000000000000081526004016106fb906114c0565b60405180910390fd5b600061070e610bea565b60008160200181815250505b600680549050821015610876578060200151600760068481548110610742576107416114e0565b5b9060005260206000200160405161075991906115ae565b90815260200160405180910390205411156108635760068281548110610782576107816114e0565b5b9060005260206000200180546107979061138a565b80601f01602080910402602001604051908101604052809291908181526020018280546107c39061138a565b80156108105780601f106107e557610100808354040283529160200191610810565b820191906000526020600020905b8154815290600101906020018083116107f357829003601f168201915b50505050508160000181905250600760068381548110610833576108326114e0565b5b9060005260206000200160405161084a91906115ae565b9081526020016040518091039020548160200181815250505b818061086e906115f4565b92505061071a565b809250505090565b60005481565b6000600454905090565b606060008060068054905067ffffffffffffffff8111156108b2576108b1610d5d565b5b6040519080825280602002602001820160405280156108eb57816020015b6108d8610bea565b8152602001906001900390816108d05790505b5090505b600680549050821015610a235760405180604001604052806006848154811061091b5761091a6114e0565b5b9060005260206000200180546109309061138a565b80601f016020809104026020016040519081016040528092919081815260200182805461095c9061138a565b80156109a95780601f1061097e576101008083540402835291602001916109a9565b820191906000526020600020905b81548152906001019060200180831161098c57829003601f168201915b505050505081526020016007600685815481106109c9576109c86114e0565b5b906000526020600020016040516109e091906115ae565b908152602001604051809103902054815250818381518110610a0557610a046114e0565b5b60200260200101819052508180610a1b906115f4565b9250506108ef565b809250505090565b60006002811115610a3f57610a3e610f72565b5b610a4761041b565b6002811115610a5957610a58610f72565b5b14610a99576040517f08c379a0000000000000000000000000000000000000000000000000000000008152600401610a90906116af565b60405180910390fd5b6001600782604051610aab9190611700565b90815260200160405180910390206000828254610ac89190611717565b92505081905550600560009054906101000a900473ffffffffffffffffffffffffffffffffffffffff1673ffffffffffffffffffffffffffffffffffffffff16638a7d3d6c336006426040518463ffffffff1660e01b8152600401610b2f939291906118c3565b600060405180830381600087803b158015610b4957600080fd5b505af1158015610b5d573d6000803e3d6000fd5b5050505050565b828054610b709061138a565b90600052602060002090601f016020900481019282610b925760008555610bd9565b82601f10610bab57805160ff1916838001178555610bd9565b82800160010185558215610bd9579182015b82811115610bd8578251825591602001919060010190610bbd565b5b509050610be69190610c04565b5090565b604051806040016040528060608152602001600081525090565b5b80821115610c1d576000816000905550600101610c05565b5090565b6000604051905090565b600080fd5b600080fd5b6000819050919050565b610c4881610c35565b8114610c5357600080fd5b50565b600081359050610c6581610c3f565b92915050565b600060208284031215610c8157610c80610c2b565b5b6000610c8f84828501610c56565b91505092915050565b600081519050919050565b600082825260208201905092915050565b60005b83811015610cd2578082015181840152602081019050610cb7565b83811115610ce1576000848401525b50505050565b6000601f19601f8301169050919050565b6000610d0382610c98565b610d0d8185610ca3565b9350610d1d818560208601610cb4565b610d2681610ce7565b840191505092915050565b60006020820190508181036000830152610d4b8184610cf8565b905092915050565b600080fd5b600080fd5b7f4e487b7100000000000000000000000000000000000000000000000000000000600052604160045260246000fd5b610d9582610ce7565b810181811067ffffffffffffffff82111715610db457610db3610d5d565b5b80604052505050565b6000610dc7610c21565b9050610dd38282610d8c565b919050565b600067ffffffffffffffff821115610df357610df2610d5d565b5b610dfc82610ce7565b9050602081019050919050565b82818337600083830152505050565b6000610e2b610e2684610dd8565b610dbd565b905082815260208101848484011115610e4757610e46610d58565b5b610e52848285610e09565b509392505050565b600082601f830112610e6f57610e6e610d53565b5b8135610e7f848260208601610e18565b91505092915050565b600060208284031215610e9e57610e9d610c2b565b5b600082013567ffffffffffffffff811115610ebc57610ebb610c30565b5b610ec884828501610e5a565b91505092915050565b610eda81610c35565b82525050565b6000602082019050610ef56000830184610ed1565b92915050565b600081519050919050565b600082825260208201905092915050565b6000610f2282610efb565b610f2c8185610f06565b9350610f3c818560208601610cb4565b610f4581610ce7565b840191505092915050565b60006020820190508181036000830152610f6a8184610f17565b905092915050565b7f4e487b7100000000000000000000000000000000000000000000000000000000600052602160045260246000fd5b60038110610fb257610fb1610f72565b5b50565b6000819050610fc382610fa1565b919050565b6000610fd382610fb5565b9050919050565b610fe381610fc8565b82525050565b6000602082019050610ffe6000830184610fda565b92915050565b600073ffffffffffffffffffffffffffffffffffffffff82169050919050565b6000819050919050565b600061104961104461103f84611004565b611024565b611004565b9050919050565b600061105b8261102e565b9050919050565b600061106d82611050565b9050919050565b61107d81611062565b82525050565b60006020820190506110986000830184611074565b92915050565b600081519050919050565b600082825260208201905092915050565b6000819050602082019050919050565b600082825260208201905092915050565b60006110e682610c98565b6110f081856110ca565b9350611100818560208601610cb4565b61110981610ce7565b840191505092915050565b600061112083836110db565b905092915050565b6000602082019050919050565b60006111408261109e565b61114a81856110a9565b93508360208202850161115c856110ba565b8060005b8581101561119857848403895281516111798582611114565b945061118483611128565b925060208a01995050600181019050611160565b50829750879550505050505092915050565b600060208201905081810360008301526111c48184611135565b905092915050565b6111d581610c35565b82525050565b600060408301600083015184820360008601526111f882826110db565b915050602083015161120d60208601826111cc565b508091505092915050565b6000602082019050818103600083015261123281846111db565b905092915050565b600081519050919050565b600082825260208201905092915050565b6000819050602082019050919050565b6000604083016000830151848203600086015261128382826110db565b915050602083015161129860208601826111cc565b508091505092915050565b60006112af8383611266565b905092915050565b6000602082019050919050565b60006112cf8261123a565b6112d98185611245565b9350836020820285016112eb85611256565b8060005b85811015611327578484038952815161130885826112a3565b9450611313836112b7565b925060208a019950506001810190506112ef565b50829750879550505050505092915050565b6000602082019050818103600083015261135381846112c4565b905092915050565b7f4e487b7100000000000000000000000000000000000000000000000000000000600052602260045260246000fd5b600060028204905060018216806113a257607f821691505b602082108114156113b6576113b561135b565b5b50919050565b7f456c656374696f6e206e6565647320746f2062652070656e64696e6720746f2060008201527f6164642070726f706f73616c7300000000000000000000000000000000000000602082015250565b6000611418602d83610f06565b9150611423826113bc565b604082019050919050565b600060208201905081810360008301526114478161140b565b9050919050565b7f526573756c747320617265206465636c61726564206f6e6c792061667465722060008201527f74686520656c656374696f6e20656e6473000000000000000000000000000000602082015250565b60006114aa603183610f06565b91506114b58261144e565b604082019050919050565b600060208201905081810360008301526114d98161149d565b9050919050565b7f4e487b7100000000000000000000000000000000000000000000000000000000600052603260045260246000fd5b600081905092915050565b60008190508160005260206000209050919050565b6000815461153c8161138a565b611546818661150f565b945060018216600081146115615760018114611572576115a5565b60ff198316865281860193506115a5565b61157b8561151a565b60005b8381101561159d5781548189015260018201915060208101905061157e565b838801955050505b50505092915050565b60006115ba828461152f565b915081905092915050565b7f4e487b7100000000000000000000000000000000000000000000000000000000600052601160045260246000fd5b60006115ff82610c35565b91507fffffffffffffffffffffffffffffffffffffffffffffffffffffffffffffffff821415611632576116316115c5565b5b600182019050919050565b7f456c656374696f6e206e6565647320746f2062652061637469766520746f207660008201527f6f74650000000000000000000000000000000000000000000000000000000000602082015250565b6000611699602383610f06565b91506116a48261163d565b604082019050919050565b600060208201905081810360008301526116c88161168c565b9050919050565b60006116da82610c98565b6116e4818561150f565b93506116f4818560208601610cb4565b80840191505092915050565b600061170c82846116cf565b915081905092915050565b600061172282610c35565b915061172d83610c35565b9250827fffffffffffffffffffffffffffffffffffffffffffffffffffffffffffffffff03821115611762576117616115c5565b5b828201905092915050565b600061177882611004565b9050919050565b6117888161176d565b82525050565b600081549050919050565b60008190508160005260206000209050919050565b600081546117bb8161138a565b6117c581866110ca565b945060018216600081146117e057600181146117f257611825565b60ff1983168652602086019350611825565b6117fb8561151a565b60005b8381101561181d578154818901526001820191506020810190506117fe565b808801955050505b50505092915050565b600061183a83836117ae565b905092915050565b6000600182019050919050565b600061185a8261178e565b61186481856110a9565b93508360208202850161187685611799565b8060005b858110156118b157848403895281611892858261182e565b945061189d83611842565b925060208a0199505060018101905061187a565b50829750879550505050505092915050565b60006060820190506118d8600083018661177f565b81810360208301526118ea818561184f565b90506118f96040830184610ed1565b94935050505056fea2646970667358221220e658b6ec3ef84927f9f80d150b5530ea45c775d46c9ba7117abf557e8ba9cc1e64736f6c634300080a0033a26469706673582212208ebd4111382028e9d5ea1866295f740ddc488e91a293af1fa6fe19eafe63073264736f6c634300080a0033",
  "linkReferences": {},
  "deployedLinkReferences": {}
}