{
  "_format": "hh-sol-artifact-1",
  "contractName": "OneVote",
  "sourceName": "contracts/OneVote.sol",
  "abi": [
    {
      "inputs": [
        {
          "internalType": "contract Semaphore",
          "name": "_semaphore",
          "type": "address"
        }
      ],
      "stateMutability": "nonpayable",
      "type": "constructor"
    },
    {
      "anonymous": false,
      "inputs": [
        {
          "indexed": true,
          "internalType": "uint256",
          "name": "identityCommitment",
          "type": "uint256"
        }
      ],
      "name": "IdentityCommitment",
      "type": "event"
    },
    {
      "anonymous": false,
      "inputs": [
        {
          "indexed": false,
          "internalType": "uint256",
          "name": "root",
          "type": "uint256"
        }
      ],
      "name": "Rooot",
      "type": "event"
    },
    {
      "anonymous": false,
      "inputs": [
        {
          "indexed": true,
          "internalType": "uint256",
          "name": "signalIndex",
          "type": "uint256"
        }
      ],
      "name": "SignalBroadcastByClient",
      "type": "event"
    },
    {
      "inputs": [
        {
          "internalType": "uint232",
          "name": "_externalNullifier",
          "type": "uint232"
        }
      ],
      "name": "addExternalNullifier",
      "outputs": [],
      "stateMutability": "nonpayable",
      "type": "function"
    },
    {
      "inputs": [
        {
          "internalType": "uint256",
          "name": "_processId",
          "type": "uint256"
        },
        {
          "internalType": "bytes",
          "name": "_proposal",
          "type": "bytes"
        }
      ],
      "name": "addProposal",
      "outputs": [],
      "stateMutability": "nonpayable",
      "type": "function"
    },
    {
      "inputs": [
        {
          "internalType": "string",
          "name": "_name",
          "type": "string"
        },
        {
          "internalType": "string",
          "name": "_description",
          "type": "string"
        },
        {
          "internalType": "uint256",
          "name": "_startDate",
          "type": "uint256"
        },
        {
          "internalType": "uint256",
          "name": "_endDate",
          "type": "uint256"
        }
      ],
      "name": "createVotingProcess",
      "outputs": [],
      "stateMutability": "nonpayable",
      "type": "function"
    },
    {
      "inputs": [
        {
          "internalType": "uint256",
          "name": "_leaf",
          "type": "uint256"
        }
      ],
      "name": "getAuthStatus",
      "outputs": [
        {
          "internalType": "bool",
          "name": "",
          "type": "bool"
        }
      ],
      "stateMutability": "view",
      "type": "function"
    },
    {
      "inputs": [
        {
          "internalType": "uint256",
          "name": "_index",
          "type": "uint256"
        }
      ],
      "name": "getExternalNullifierBySignalIndex",
      "outputs": [
        {
          "internalType": "uint256",
          "name": "",
          "type": "uint256"
        }
      ],
      "stateMutability": "view",
      "type": "function"
    },
    {
      "inputs": [
        {
          "internalType": "uint256",
          "name": "_index",
          "type": "uint256"
        }
      ],
      "name": "getIdentityCommitment",
      "outputs": [
        {
          "internalType": "uint256",
          "name": "",
          "type": "uint256"
        }
      ],
      "stateMutability": "view",
      "type": "function"
    },
    {
      "inputs": [],
      "name": "getIdentityCommitments",
      "outputs": [
        {
          "internalType": "uint256[]",
          "name": "",
          "type": "uint256[]"
        }
      ],
      "stateMutability": "view",
      "type": "function"
    },
    {
      "inputs": [],
      "name": "getNextSignalIndex",
      "outputs": [
        {
          "internalType": "uint256",
          "name": "",
          "type": "uint256"
        }
      ],
      "stateMutability": "view",
      "type": "function"
    },
    {
      "inputs": [
        {
          "internalType": "uint256",
          "name": "id",
          "type": "uint256"
        }
      ],
      "name": "getProcess",
      "outputs": [
        {
          "components": [
            {
              "internalType": "uint256",
              "name": "id",
              "type": "uint256"
            },
            {
              "internalType": "string",
              "name": "name",
              "type": "string"
            },
            {
              "internalType": "string",
              "name": "description",
              "type": "string"
            },
            {
              "internalType": "bytes[]",
              "name": "proposals",
              "type": "bytes[]"
            },
            {
              "internalType": "uint256",
              "name": "startDate",
              "type": "uint256"
            },
            {
              "internalType": "uint256",
              "name": "endDate",
              "type": "uint256"
            }
          ],
          "internalType": "struct OneVote.ProcessDTO",
          "name": "",
          "type": "tuple"
        }
      ],
      "stateMutability": "view",
      "type": "function"
    },
    {
      "inputs": [],
      "name": "getProcesses",
      "outputs": [
        {
          "components": [
            {
              "internalType": "uint256",
              "name": "id",
              "type": "uint256"
            },
            {
              "internalType": "string",
              "name": "name",
              "type": "string"
            },
            {
              "internalType": "string",
              "name": "description",
              "type": "string"
            },
            {
              "internalType": "bytes[]",
              "name": "proposals",
              "type": "bytes[]"
            },
            {
              "internalType": "uint256",
              "name": "startDate",
              "type": "uint256"
            },
            {
              "internalType": "uint256",
              "name": "endDate",
              "type": "uint256"
            }
          ],
          "internalType": "struct OneVote.ProcessDTO[]",
          "name": "",
          "type": "tuple[]"
        }
      ],
      "stateMutability": "view",
      "type": "function"
    },
    {
      "inputs": [
        {
          "internalType": "uint256",
          "name": "id",
          "type": "uint256"
        }
      ],
      "name": "getRootHistory",
      "outputs": [
        {
          "internalType": "bool",
          "name": "",
          "type": "bool"
        }
      ],
      "stateMutability": "view",
      "type": "function"
    },
    {
      "inputs": [],
      "name": "getRoots",
      "outputs": [
        {
          "internalType": "uint256[10]",
          "name": "",
          "type": "uint256[10]"
        }
      ],
      "stateMutability": "view",
      "type": "function"
    },
    {
      "inputs": [
        {
          "internalType": "uint256",
          "name": "_index",
          "type": "uint256"
        }
      ],
      "name": "getSignalBySignalIndex",
      "outputs": [
        {
          "internalType": "bytes",
          "name": "",
          "type": "bytes"
        }
      ],
      "stateMutability": "view",
      "type": "function"
    },
    {
      "inputs": [
        {
          "internalType": "uint256",
          "name": "",
          "type": "uint256"
        }
      ],
      "name": "identityCommitments",
      "outputs": [
        {
          "internalType": "uint256",
          "name": "",
          "type": "uint256"
        }
      ],
      "stateMutability": "view",
      "type": "function"
    },
    {
      "inputs": [
        {
          "internalType": "uint256",
          "name": "_leaf",
          "type": "uint256"
        }
      ],
      "name": "insertIdentityAsClient",
      "outputs": [],
      "stateMutability": "nonpayable",
      "type": "function"
    },
    {
      "inputs": [],
      "name": "nextSignalIndex",
      "outputs": [
        {
          "internalType": "uint256",
          "name": "",
          "type": "uint256"
        }
      ],
      "stateMutability": "view",
      "type": "function"
    },
    {
      "inputs": [],
      "name": "semaphore",
      "outputs": [
        {
          "internalType": "contract Semaphore",
          "name": "",
          "type": "address"
        }
      ],
      "stateMutability": "view",
      "type": "function"
    },
    {
      "inputs": [
        {
          "internalType": "uint256",
          "name": "",
          "type": "uint256"
        }
      ],
      "name": "signalIndexToExternalNullifier",
      "outputs": [
        {
          "internalType": "uint256",
          "name": "",
          "type": "uint256"
        }
      ],
      "stateMutability": "view",
      "type": "function"
    },
    {
      "inputs": [
        {
          "internalType": "uint256",
          "name": "",
          "type": "uint256"
        }
      ],
      "name": "signalIndexToSignal",
      "outputs": [
        {
          "internalType": "bytes",
          "name": "",
          "type": "bytes"
        }
      ],
      "stateMutability": "view",
      "type": "function"
    },
    {
      "inputs": [
        {
          "internalType": "uint232",
          "name": "",
          "type": "uint232"
        },
        {
          "internalType": "uint256",
          "name": "",
          "type": "uint256"
        }
      ],
      "name": "signalsForNullifier",
      "outputs": [
        {
          "internalType": "bytes",
          "name": "",
          "type": "bytes"
        }
      ],
      "stateMutability": "view",
      "type": "function"
    },
    {
      "inputs": [
        {
          "internalType": "bytes",
          "name": "_signal",
          "type": "bytes"
        },
        {
          "internalType": "uint256[8]",
          "name": "_proof",
          "type": "uint256[8]"
        },
        {
          "internalType": "uint256",
          "name": "_root",
          "type": "uint256"
        },
        {
          "internalType": "uint256",
          "name": "_nullifiersHash",
          "type": "uint256"
        },
        {
          "internalType": "uint232",
          "name": "_externalNullifier",
          "type": "uint232"
        }
      ],
      "name": "vote",
      "outputs": [],
      "stateMutability": "nonpayable",
      "type": "function"
    },
    {
      "inputs": [
        {
          "internalType": "uint256",
          "name": "",
          "type": "uint256"
        }
      ],
      "name": "votingProcesses",
      "outputs": [
        {
          "internalType": "contract VotingProcess",
          "name": "",
          "type": "address"
        }
      ],
      "stateMutability": "view",
      "type": "function"
    }
  ],
  "bytecode": "0x608060405260006007553480156200001657600080fd5b50604051620049df380380620049df83398181016040528101906200003c919062000102565b80600860006101000a81548173ffffffffffffffffffffffffffffffffffffffff021916908373ffffffffffffffffffffffffffffffffffffffff1602179055505062000134565b600080fd5b600073ffffffffffffffffffffffffffffffffffffffff82169050919050565b6000620000b68262000089565b9050919050565b6000620000ca82620000a9565b9050919050565b620000dc81620000bd565b8114620000e857600080fd5b50565b600081519050620000fc81620000d1565b92915050565b6000602082840312156200011b576200011a62000084565b5b60006200012b84828501620000eb565b91505092915050565b61489b80620001446000396000f3fe60806040523480156200001157600080fd5b5060043610620001605760003560e01c80638fd0de5711620000c9578063c6cdfa6b1162000087578063c6cdfa6b146200040b578063cb7be8cf1462000441578063d0851a711462000461578063e53a39601462000497578063f9cdb5cd14620004b7578063ffac004614620004ed5762000160565b80638fd0de571462000329578063911ca41e146200035f578063b30b483f1462000395578063bde1061214620003cb578063c0374c6814620003eb5762000160565b8063539f38b21162000123578063539f38b21462000237578063545b9cb114620002575780636e52b239146200028d578063740afb7714620002af5780637b5d253414620002e55780638d2d593b14620003075762000160565b8063040c46ec146200016557806327acf71b146200019b57806335a5e06d14620001d15780634056679014620001f357806349b0b9101462000215575b600080fd5b6200018360048036038101906200017d91906200194d565b62000523565b60405162000192919062001a0a565b60405180910390f35b620001b96004803603810190620001b391906200194d565b62000556565b604051620001c8919062001acb565b60405180910390f35b620001db620005fe565b604051620001ea919062001baa565b60405180910390f35b620001fd620006a2565b6040516200020c919062001c6b565b60405180910390f35b6200021f620006fc565b6040516200022e919062001ca0565b60405180910390f35b6200025560048036038101906200024f919062001d17565b62000706565b005b6200027560048036038101906200026f91906200194d565b6200079a565b60405162000284919062001d66565b60405180910390f35b62000297620007c4565b604051620002a6919062002075565b60405180910390f35b620002cd6004803603810190620002c791906200194d565b62000c81565b604051620002dc919062001ca0565b60405180910390f35b620002ef62000c9e565b604051620002fe9190620020be565b60405180910390f35b6200031162000cc4565b60405162000320919062001ca0565b60405180910390f35b6200034760048036038101906200034191906200194d565b62000cca565b60405162000356919062001ca0565b60405180910390f35b6200037d60048036038101906200037791906200194d565b62000cef565b6040516200038c919062001acb565b60405180910390f35b620003b36004803603810190620003ad91906200194d565b62000d9c565b604051620003c2919062001ca0565b60405180910390f35b620003e96004803603810190620003e391906200194d565b62000dc7565b005b6200040960048036038101906200040391906200222c565b62000eef565b005b620004296004803603810190620004239190620022dc565b62000fb9565b60405162000438919062001acb565b60405180910390f35b6200045f6004803603810190620004599190620024a0565b6200107b565b005b6200047f60048036038101906200047991906200194d565b62001355565b6040516200048e9190620025ee565b60405180910390f35b620004b56004803603810190620004af919062002612565b62001680565b005b620004d56004803603810190620004cf91906200194d565b62001725565b604051620004e4919062001ca0565b60405180910390f35b6200050b60048036038101906200050591906200194d565b6200173d565b6040516200051a919062001d66565b60405180910390f35b60006020528060005260406000206000915054906101000a900473ffffffffffffffffffffffffffffffffffffffff1681565b600460205280600052604060002060009150905080546200057790620026a7565b80601f0160208091040260200160405190810160405280929190818152602001828054620005a590620026a7565b8015620005f65780601f10620005ca57610100808354040283529160200191620005f6565b820191906000526020600020905b815481529060010190602001808311620005d857829003601f168201915b505050505081565b62000608620017e7565b600860009054906101000a900473ffffffffffffffffffffffffffffffffffffffff1673ffffffffffffffffffffffffffffffffffffffff166335a5e06d6040518163ffffffff1660e01b815260040161014060405180830381865afa15801562000677573d6000803e3d6000fd5b505050506040513d601f19601f820116820180604052508101906200069d9190620027b8565b905090565b60606003805480602002602001604051908101604052809291908181526020018280548015620006f257602002820191906000526020600020905b815481526020019060010190808311620006dd575b5050505050905090565b6000600754905090565b600860009054906101000a900473ffffffffffffffffffffffffffffffffffffffff1673ffffffffffffffffffffffffffffffffffffffff1663539f38b2826040518263ffffffff1660e01b8152600401620007639190620027fc565b600060405180830381600087803b1580156200077e57600080fd5b505af115801562000793573d6000803e3d6000fd5b5050505050565b60006001600083815260200190815260200160002060009054906101000a900460ff169050919050565b606060008060025467ffffffffffffffff811115620007e857620007e7620020e5565b5b6040519080825280602002602001820160405280156200082557816020015b620008116200180a565b815260200190600190039081620008075790505b5090505b60025482101562000c79576040518060c0016040528060008085815260200190815260200160002060009054906101000a900473ffffffffffffffffffffffffffffffffffffffff1673ffffffffffffffffffffffffffffffffffffffff1663af640d0f6040518163ffffffff1660e01b8152600401602060405180830381865afa158015620008bd573d6000803e3d6000fd5b505050506040513d601f19601f82011682018060405250810190620008e3919062002819565b815260200160008085815260200190815260200160002060009054906101000a900473ffffffffffffffffffffffffffffffffffffffff1673ffffffffffffffffffffffffffffffffffffffff166306fdde036040518163ffffffff1660e01b8152600401600060405180830381865afa15801562000966573d6000803e3d6000fd5b505050506040513d6000823e3d601f19601f82011682018060405250810190620009919190620028c9565b815260200160008085815260200190815260200160002060009054906101000a900473ffffffffffffffffffffffffffffffffffffffff1673ffffffffffffffffffffffffffffffffffffffff16637284e4166040518163ffffffff1660e01b8152600401600060405180830381865afa15801562000a14573d6000803e3d6000fd5b505050506040513d6000823e3d601f19601f8201168201806040525081019062000a3f9190620028c9565b815260200160008085815260200190815260200160002060009054906101000a900473ffffffffffffffffffffffffffffffffffffffff1673ffffffffffffffffffffffffffffffffffffffff166362564c486040518163ffffffff1660e01b8152600401600060405180830381865afa15801562000ac2573d6000803e3d6000fd5b505050506040513d6000823e3d601f19601f8201168201806040525081019062000aed919062002a8f565b815260200160008085815260200190815260200160002060009054906101000a900473ffffffffffffffffffffffffffffffffffffffff1673ffffffffffffffffffffffffffffffffffffffff166378f305c66040518163ffffffff1660e01b8152600401602060405180830381865afa15801562000b70573d6000803e3d6000fd5b505050506040513d601f19601f8201168201806040525081019062000b96919062002819565b815260200160008085815260200190815260200160002060009054906101000a900473ffffffffffffffffffffffffffffffffffffffff1673ffffffffffffffffffffffffffffffffffffffff1663b13564886040518163ffffffff1660e01b8152600401602060405180830381865afa15801562000c19573d6000803e3d6000fd5b505050506040513d601f19601f8201168201806040525081019062000c3f919062002819565b81525081838151811062000c585762000c5762002ae0565b5b6020026020010181905250818062000c709062002b3e565b92505062000829565b809250505090565b600060056000838152602001908152602001600020549050919050565b600860009054906101000a900473ffffffffffffffffffffffffffffffffffffffff1681565b60075481565b6003818154811062000cdb57600080fd5b906000526020600020016000915090505481565b606060046000838152602001908152602001600020805462000d1190620026a7565b80601f016020809104026020016040519081016040528092919081815260200182805462000d3f90620026a7565b801562000d905780601f1062000d645761010080835404028352916020019162000d90565b820191906000526020600020905b81548152906001019060200180831162000d7257829003601f168201915b50505050509050919050565b60006003828154811062000db55762000db462002ae0565b5b90600052602060002001549050919050565b600860009054906101000a900473ffffffffffffffffffffffffffffffffffffffff1673ffffffffffffffffffffffffffffffffffffffff16636d80efca826040518263ffffffff1660e01b815260040162000e24919062001ca0565b6020604051808303816000875af115801562000e44573d6000803e3d6000fd5b505050506040513d601f19601f8201168201806040525081019062000e6a919062002819565b506003819080600181540180825580915050600190039060005260206000200160009091909190915055600180600083815260200190815260200160002060006101000a81548160ff021916908315150217905550807f31d0d431762af1b333d4fef318e03efc7b702fe91dd1f0aa2c72e699bebcb48960405160405180910390a250565b60006002548585858560405162000f069062001840565b62000f1695949392919062002bde565b604051809103906000f08015801562000f33573d6000803e3d6000fd5b50905062000f4360025462000706565b80600080600254815260200190815260200160002060006101000a81548173ffffffffffffffffffffffffffffffffffffffff021916908373ffffffffffffffffffffffffffffffffffffffff16021790555060016002600082825462000fab919062002c49565b925050819055505050505050565b6006602052816000526040600020818154811062000fd657600080fd5b9060005260206000200160009150915050805462000ff490620026a7565b80601f01602080910402602001604051908101604052809291908181526020018280546200102290620026a7565b8015620010735780601f10620010475761010080835404028352916020019162001073565b820191906000526020600020905b8154815290600101906020018083116200105557829003601f168201915b505050505081565b60006007549050856004600060075481526020019081526020016000209080519060200190620010ad9291906200184e565b50817cffffffffffffffffffffffffffffffffffffffffffffffffffffffffff166005600060075481526020019081526020016000208190555060066000837cffffffffffffffffffffffffffffffffffffffffffffffffffffffffff167cffffffffffffffffffffffffffffffffffffffffffffffffffffffffff16815260200190815260200160002086908060018154018082558091505060019003906000526020600020016000909190919091509080519060200190620011739291906200184e565b50600080837cffffffffffffffffffffffffffffffffffffffffffffffffffffffffff16815260200190815260200160002060009054906101000a900473ffffffffffffffffffffffffffffffffffffffff1673ffffffffffffffffffffffffffffffffffffffff1663e9dc0614876040518263ffffffff1660e01b815260040162001200919062001acb565b600060405180830381600087803b1580156200121b57600080fd5b505af115801562001230573d6000803e3d6000fd5b5050505060076000815480929190620012499062002b3e565b91905055507fc22cfa8a3523410b962de1755e11d5abcb562e0199fd322dda29198947f18c93846040516200127f919062001ca0565b60405180910390a1600860009054906101000a900473ffffffffffffffffffffffffffffffffffffffff1673ffffffffffffffffffffffffffffffffffffffff16630e57596f87878787876040518663ffffffff1660e01b8152600401620012ec95949392919062002d36565b600060405180830381600087803b1580156200130757600080fd5b505af11580156200131c573d6000803e3d6000fd5b50505050807faa676fd106f1023de6c9eafff9af5bc8e299b3493d3aa816a3278a15d055657b60405160405180910390a2505050505050565b6200135f6200180a565b600080600084815260200190815260200160002060009054906101000a900473ffffffffffffffffffffffffffffffffffffffff1690506040518060c001604052808273ffffffffffffffffffffffffffffffffffffffff1663af640d0f6040518163ffffffff1660e01b8152600401602060405180830381865afa158015620013ed573d6000803e3d6000fd5b505050506040513d601f19601f8201168201806040525081019062001413919062002819565b81526020018273ffffffffffffffffffffffffffffffffffffffff166306fdde036040518163ffffffff1660e01b8152600401600060405180830381865afa15801562001464573d6000803e3d6000fd5b505050506040513d6000823e3d601f19601f820116820180604052508101906200148f9190620028c9565b81526020018273ffffffffffffffffffffffffffffffffffffffff16637284e4166040518163ffffffff1660e01b8152600401600060405180830381865afa158015620014e0573d6000803e3d6000fd5b505050506040513d6000823e3d601f19601f820116820180604052508101906200150b9190620028c9565b81526020018273ffffffffffffffffffffffffffffffffffffffff166362564c486040518163ffffffff1660e01b8152600401600060405180830381865afa1580156200155c573d6000803e3d6000fd5b505050506040513d6000823e3d601f19601f8201168201806040525081019062001587919062002a8f565b81526020018273ffffffffffffffffffffffffffffffffffffffff166378f305c66040518163ffffffff1660e01b8152600401602060405180830381865afa158015620015d8573d6000803e3d6000fd5b505050506040513d601f19601f82011682018060405250810190620015fe919062002819565b81526020018273ffffffffffffffffffffffffffffffffffffffff1663b13564886040518163ffffffff1660e01b8152600401602060405180830381865afa1580156200164f573d6000803e3d6000fd5b505050506040513d601f19601f8201168201806040525081019062001675919062002819565b815250915050919050565b60008083815260200190815260200160002060009054906101000a900473ffffffffffffffffffffffffffffffffffffffff1673ffffffffffffffffffffffffffffffffffffffff166353437653826040518263ffffffff1660e01b8152600401620016ed919062001acb565b600060405180830381600087803b1580156200170857600080fd5b505af11580156200171d573d6000803e3d6000fd5b505050505050565b60056020528060005260406000206000915090505481565b6000600860009054906101000a900473ffffffffffffffffffffffffffffffffffffffff1673ffffffffffffffffffffffffffffffffffffffff1663f1c621ee836040518263ffffffff1660e01b81526004016200179c919062001ca0565b602060405180830381865afa158015620017ba573d6000803e3d6000fd5b505050506040513d601f19601f82011682018060405250810190620017e0919062002dcf565b9050919050565b604051806101400160405280600a90602082028036833780820191505090505090565b6040518060c001604052806000815260200160608152602001606081526020016060815260200160008152602001600081525090565b611a648062002e0283390190565b8280546200185c90620026a7565b90600052602060002090601f016020900481019282620018805760008555620018cc565b82601f106200189b57805160ff1916838001178555620018cc565b82800160010185558215620018cc579182015b82811115620018cb578251825591602001919060010190620018ae565b5b509050620018db9190620018df565b5090565b5b80821115620018fa576000816000905550600101620018e0565b5090565b6000604051905090565b600080fd5b600080fd5b6000819050919050565b620019278162001912565b81146200193357600080fd5b50565b60008135905062001947816200191c565b92915050565b60006020828403121562001966576200196562001908565b5b6000620019768482850162001936565b91505092915050565b600073ffffffffffffffffffffffffffffffffffffffff82169050919050565b6000819050919050565b6000620019ca620019c4620019be846200197f565b6200199f565b6200197f565b9050919050565b6000620019de82620019a9565b9050919050565b6000620019f282620019d1565b9050919050565b62001a0481620019e5565b82525050565b600060208201905062001a216000830184620019f9565b92915050565b600081519050919050565b600082825260208201905092915050565b60005b8381101562001a6357808201518184015260208101905062001a46565b8381111562001a73576000848401525b50505050565b6000601f19601f8301169050919050565b600062001a978262001a27565b62001aa3818562001a32565b935062001ab581856020860162001a43565b62001ac08162001a79565b840191505092915050565b6000602082019050818103600083015262001ae7818462001a8a565b905092915050565b6000600a9050919050565b600081905092915050565b6000819050919050565b62001b1a8162001912565b82525050565b600062001b2e838362001b0f565b60208301905092915050565b6000602082019050919050565b62001b528162001aef565b62001b5e818462001afa565b925062001b6b8262001b05565b8060005b8381101562001ba257815162001b86878262001b20565b965062001b938362001b3a565b92505060018101905062001b6f565b505050505050565b60006101408201905062001bc2600083018462001b47565b92915050565b600081519050919050565b600082825260208201905092915050565b6000819050602082019050919050565b6000602082019050919050565b600062001c0e8262001bc8565b62001c1a818562001bd3565b935062001c278362001be4565b8060005b8381101562001c5e57815162001c42888262001b20565b975062001c4f8362001bf4565b92505060018101905062001c2b565b5085935050505092915050565b6000602082019050818103600083015262001c87818462001c01565b905092915050565b62001c9a8162001912565b82525050565b600060208201905062001cb7600083018462001c8f565b92915050565b60007cffffffffffffffffffffffffffffffffffffffffffffffffffffffffff82169050919050565b62001cf18162001cbd565b811462001cfd57600080fd5b50565b60008135905062001d118162001ce6565b92915050565b60006020828403121562001d305762001d2f62001908565b5b600062001d408482850162001d00565b91505092915050565b60008115159050919050565b62001d608162001d49565b82525050565b600060208201905062001d7d600083018462001d55565b92915050565b600081519050919050565b600082825260208201905092915050565b6000819050602082019050919050565b600081519050919050565b600082825260208201905092915050565b600062001dd88262001daf565b62001de4818562001dba565b935062001df681856020860162001a43565b62001e018162001a79565b840191505092915050565b600081519050919050565b600082825260208201905092915050565b6000819050602082019050919050565b600082825260208201905092915050565b600062001e568262001a27565b62001e62818562001e38565b935062001e7481856020860162001a43565b62001e7f8162001a79565b840191505092915050565b600062001e98838362001e49565b905092915050565b6000602082019050919050565b600062001eba8262001e0c565b62001ec6818562001e17565b93508360208202850162001eda8562001e28565b8060005b8581101562001f1c578484038952815162001efa858262001e8a565b945062001f078362001ea0565b925060208a0199505060018101905062001ede565b50829750879550505050505092915050565b600060c08301600083015162001f48600086018262001b0f565b506020830151848203602086015262001f62828262001dcb565b9150506040830151848203604086015262001f7e828262001dcb565b9150506060830151848203606086015262001f9a828262001ead565b915050608083015162001fb1608086018262001b0f565b5060a083015162001fc660a086018262001b0f565b508091505092915050565b600062001fdf838362001f2e565b905092915050565b6000602082019050919050565b6000620020018262001d83565b6200200d818562001d8e565b935083602082028501620020218562001d9f565b8060005b8581101562002063578484038952815162002041858262001fd1565b94506200204e8362001fe7565b925060208a0199505060018101905062002025565b50829750879550505050505092915050565b6000602082019050818103600083015262002091818462001ff4565b905092915050565b6000620020a682620019d1565b9050919050565b620020b88162002099565b82525050565b6000602082019050620020d56000830184620020ad565b92915050565b600080fd5b600080fd5b7f4e487b7100000000000000000000000000000000000000000000000000000000600052604160045260246000fd5b6200211f8262001a79565b810181811067ffffffffffffffff82111715620021415762002140620020e5565b5b80604052505050565b600062002156620018fe565b905062002164828262002114565b919050565b600067ffffffffffffffff821115620021875762002186620020e5565b5b620021928262001a79565b9050602081019050919050565b82818337600083830152505050565b6000620021c5620021bf8462002169565b6200214a565b905082815260208101848484011115620021e457620021e3620020e0565b5b620021f18482856200219f565b509392505050565b600082601f830112620022115762002210620020db565b5b813562002223848260208601620021ae565b91505092915050565b6000806000806080858703121562002249576200224862001908565b5b600085013567ffffffffffffffff8111156200226a57620022696200190d565b5b6200227887828801620021f9565b945050602085013567ffffffffffffffff8111156200229c576200229b6200190d565b5b620022aa87828801620021f9565b9350506040620022bd8782880162001936565b9250506060620022d08782880162001936565b91505092959194509250565b60008060408385031215620022f657620022f562001908565b5b6000620023068582860162001d00565b9250506020620023198582860162001936565b9150509250929050565b600067ffffffffffffffff821115620023415762002340620020e5565b5b6200234c8262001a79565b9050602081019050919050565b6000620023706200236a8462002323565b6200214a565b9050828152602081018484840111156200238f576200238e620020e0565b5b6200239c8482856200219f565b509392505050565b600082601f830112620023bc57620023bb620020db565b5b8135620023ce84826020860162002359565b91505092915050565b600067ffffffffffffffff821115620023f557620023f4620020e5565b5b602082029050919050565b600080fd5b60006200241c6200241684620023d7565b6200214a565b9050806020840283018581111562002439576200243862002400565b5b835b8181101562002466578062002451888262001936565b8452602084019350506020810190506200243b565b5050509392505050565b600082601f830112620024885762002487620020db565b5b60086200249784828562002405565b91505092915050565b60008060008060006101808688031215620024c057620024bf62001908565b5b600086013567ffffffffffffffff811115620024e157620024e06200190d565b5b620024ef88828901620023a4565b9550506020620025028882890162002470565b945050610120620025168882890162001936565b9350506101406200252a8882890162001936565b9250506101606200253e8882890162001d00565b9150509295509295909350565b600060c08301600083015162002565600086018262001b0f565b50602083015184820360208601526200257f828262001dcb565b915050604083015184820360408601526200259b828262001dcb565b91505060608301518482036060860152620025b7828262001ead565b9150506080830151620025ce608086018262001b0f565b5060a0830151620025e360a086018262001b0f565b508091505092915050565b600060208201905081810360008301526200260a81846200254b565b905092915050565b600080604083850312156200262c576200262b62001908565b5b60006200263c8582860162001936565b925050602083013567ffffffffffffffff81111562002660576200265f6200190d565b5b6200266e85828601620023a4565b9150509250929050565b7f4e487b7100000000000000000000000000000000000000000000000000000000600052602260045260246000fd5b60006002820490506001821680620026c057607f821691505b60208210811415620026d757620026d662002678565b5b50919050565b600067ffffffffffffffff821115620026fb57620026fa620020e5565b5b602082029050919050565b60008151905062002717816200191c565b92915050565b6000620027346200272e84620026dd565b6200214a565b9050806020840283018581111562002751576200275062002400565b5b835b818110156200277e578062002769888262002706565b84526020840193505060208101905062002753565b5050509392505050565b600082601f830112620027a0576200279f620020db565b5b600a620027af8482856200271d565b91505092915050565b60006101408284031215620027d257620027d162001908565b5b6000620027e28482850162002788565b91505092915050565b620027f68162001cbd565b82525050565b6000602082019050620028136000830184620027eb565b92915050565b60006020828403121562002832576200283162001908565b5b6000620028428482850162002706565b91505092915050565b6000620028626200285c8462002169565b6200214a565b905082815260208101848484011115620028815762002880620020e0565b5b6200288e84828562001a43565b509392505050565b600082601f830112620028ae57620028ad620020db565b5b8151620028c08482602086016200284b565b91505092915050565b600060208284031215620028e257620028e162001908565b5b600082015167ffffffffffffffff8111156200290357620029026200190d565b5b620029118482850162002896565b91505092915050565b600067ffffffffffffffff821115620029385762002937620020e5565b5b602082029050602081019050919050565b6000620029606200295a8462002323565b6200214a565b9050828152602081018484840111156200297f576200297e620020e0565b5b6200298c84828562001a43565b509392505050565b600082601f830112620029ac57620029ab620020db565b5b8151620029be84826020860162002949565b91505092915050565b6000620029de620029d8846200291a565b6200214a565b9050808382526020820190506020840283018581111562002a045762002a0362002400565b5b835b8181101562002a5257805167ffffffffffffffff81111562002a2d5762002a2c620020db565b5b80860162002a3c898262002994565b8552602085019450505060208101905062002a06565b5050509392505050565b600082601f83011262002a745762002a73620020db565b5b815162002a86848260208601620029c7565b91505092915050565b60006020828403121562002aa85762002aa762001908565b5b600082015167ffffffffffffffff81111562002ac95762002ac86200190d565b5b62002ad78482850162002a5c565b91505092915050565b7f4e487b7100000000000000000000000000000000000000000000000000000000600052603260045260246000fd5b7f4e487b7100000000000000000000000000000000000000000000000000000000600052601160045260246000fd5b600062002b4b8262001912565b91507fffffffffffffffffffffffffffffffffffffffffffffffffffffffffffffffff82141562002b815762002b8062002b0f565b5b600182019050919050565b600082825260208201905092915050565b600062002baa8262001daf565b62002bb6818562002b8c565b935062002bc881856020860162001a43565b62002bd38162001a79565b840191505092915050565b600060a08201905062002bf5600083018862001c8f565b818103602083015262002c09818762002b9d565b9050818103604083015262002c1f818662002b9d565b905062002c30606083018562001c8f565b62002c3f608083018462001c8f565b9695505050505050565b600062002c568262001912565b915062002c638362001912565b9250827fffffffffffffffffffffffffffffffffffffffffffffffffffffffffffffffff0382111562002c9b5762002c9a62002b0f565b5b828201905092915050565b600060089050919050565b600081905092915050565b6000819050919050565b6000602082019050919050565b62002cde8162002ca6565b62002cea818462002cb1565b925062002cf78262002cbc565b8060005b8381101562002d2e57815162002d12878262001b20565b965062002d1f8362002cc6565b92505060018101905062002cfb565b505050505050565b600061018082019050818103600083015262002d53818862001a8a565b905062002d64602083018762002cd3565b62002d7461012083018662001c8f565b62002d8461014083018562001c8f565b62002d94610160830184620027eb565b9695505050505050565b62002da98162001d49565b811462002db557600080fd5b50565b60008151905062002dc98162002d9e565b92915050565b60006020828403121562002de85762002de762001908565b5b600062002df88482850162002db8565b9150509291505056fe60806040523480156200001157600080fd5b5060405162001a6438038062001a64833981810160405281019062000037919062000311565b8460008190555083600190805190602001906200005692919062000089565b5082600290805190602001906200006f92919062000089565b50816003819055508060048190555050505050506200043c565b828054620000979062000406565b90600052602060002090601f016020900481019282620000bb576000855562000107565b82601f10620000d657805160ff191683800117855562000107565b8280016001018555821562000107579182015b8281111562000106578251825591602001919060010190620000e9565b5b5090506200011691906200011a565b5090565b5b80821115620001355760008160009055506001016200011b565b5090565b6000604051905090565b600080fd5b600080fd5b6000819050919050565b62000162816200014d565b81146200016e57600080fd5b50565b600081519050620001828162000157565b92915050565b600080fd5b600080fd5b6000601f19601f8301169050919050565b7f4e487b7100000000000000000000000000000000000000000000000000000000600052604160045260246000fd5b620001dd8262000192565b810181811067ffffffffffffffff82111715620001ff57620001fe620001a3565b5b80604052505050565b60006200021462000139565b9050620002228282620001d2565b919050565b600067ffffffffffffffff821115620002455762000244620001a3565b5b620002508262000192565b9050602081019050919050565b60005b838110156200027d57808201518184015260208101905062000260565b838111156200028d576000848401525b50505050565b6000620002aa620002a48462000227565b62000208565b905082815260208101848484011115620002c957620002c86200018d565b5b620002d68482856200025d565b509392505050565b600082601f830112620002f657620002f562000188565b5b81516200030884826020860162000293565b91505092915050565b600080600080600060a0868803121562000330576200032f62000143565b5b6000620003408882890162000171565b955050602086015167ffffffffffffffff81111562000364576200036362000148565b5b6200037288828901620002de565b945050604086015167ffffffffffffffff81111562000396576200039562000148565b5b620003a488828901620002de565b9350506060620003b78882890162000171565b9250506080620003ca8882890162000171565b9150509295509295909350565b7f4e487b7100000000000000000000000000000000000000000000000000000000600052602260045260246000fd5b600060028204905060018216806200041f57607f821691505b60208210811415620004365762000435620003d7565b5b50919050565b611618806200044c6000396000f3fe608060405234801561001057600080fd5b50600436106100cf5760003560e01c80637284e4161161008c578063af640d0f11610066578063af640d0f14610204578063b135648814610222578063bf7f3cfe14610240578063e9dc06141461025e576100cf565b80637284e416146101aa57806378f305c6146101c8578063a5134620146101e6576100cf565b8063013cf08b146100d457806302f6df8e1461010457806306fdde03146101345780634e69d56014610152578063534376531461017057806362564c481461018c575b600080fd5b6100ee60048036038101906100e99190610b7a565b61027a565b6040516100fb9190610c40565b60405180910390f35b61011e60048036038101906101199190610d97565b610326565b60405161012b9190610def565b60405180910390f35b61013c610354565b6040516101499190610e5f565b60405180910390f35b61015a6103e2565b6040516101679190610ef8565b60405180910390f35b61018a60048036038101906101859190610d97565b610412565b005b6101946104bf565b6040516101a1919061101f565b60405180910390f35b6101b2610598565b6040516101bf9190610e5f565b60405180910390f35b6101d0610626565b6040516101dd9190610def565b60405180910390f35b6101ee610630565b6040516101fb919061108d565b60405180910390f35b61020c61081f565b6040516102199190610def565b60405180910390f35b61022a610825565b6040516102379190610def565b60405180910390f35b61024861082f565b60405161025591906111ae565b60405180910390f35b61027860048036038101906102739190610d97565b6109cc565b005b6005818154811061028a57600080fd5b9060005260206000200160009150905080546102a5906111ff565b80601f01602080910402602001604051908101604052809291908181526020018280546102d1906111ff565b801561031e5780601f106102f35761010080835404028352916020019161031e565b820191906000526020600020905b81548152906001019060200180831161030157829003601f168201915b505050505081565b6006818051602081018201805184825260208301602085012081835280955050505050506000915090505481565b60018054610361906111ff565b80601f016020809104026020016040519081016040528092919081815260200182805461038d906111ff565b80156103da5780601f106103af576101008083540402835291602001916103da565b820191906000526020600020905b8154815290600101906020018083116103bd57829003601f168201915b505050505081565b60006003544210156103f7576001905061040f565b60045442101561040a576000905061040f565b600290505b90565b6001600281111561042657610425610e81565b5b61042e6103e2565b60028111156104405761043f610e81565b5b14610480576040517f08c379a0000000000000000000000000000000000000000000000000000000008152600401610477906112a3565b60405180910390fd5b6005819080600181540180825580915050600190039060005260206000200160009091909190915090805190602001906104bb929190610a73565b5050565b60606005805480602002602001604051908101604052809291908181526020016000905b8282101561058f578382906000526020600020018054610502906111ff565b80601f016020809104026020016040519081016040528092919081815260200182805461052e906111ff565b801561057b5780601f106105505761010080835404028352916020019161057b565b820191906000526020600020905b81548152906001019060200180831161055e57829003601f168201915b5050505050815260200190600101906104e3565b50505050905090565b600280546105a5906111ff565b80601f01602080910402602001604051908101604052809291908181526020018280546105d1906111ff565b801561061e5780601f106105f35761010080835404028352916020019161061e565b820191906000526020600020905b81548152906001019060200180831161060157829003601f168201915b505050505081565b6000600354905090565b610638610af9565b60028081111561064b5761064a610e81565b5b6106536103e2565b600281111561066557610664610e81565b5b146106a5576040517f08c379a000000000000000000000000000000000000000000000000000000000815260040161069c90611335565b60405180910390fd5b60006106af610af9565b60008160200181815250505b6005805490508210156108175780602001516006600584815481106106e3576106e2611355565b5b906000526020600020016040516106fa9190611423565b9081526020016040518091039020541115610804576005828154811061072357610722611355565b5b906000526020600020018054610738906111ff565b80601f0160208091040260200160405190810160405280929190818152602001828054610764906111ff565b80156107b15780601f10610786576101008083540402835291602001916107b1565b820191906000526020600020905b81548152906001019060200180831161079457829003601f168201915b505050505081600001819052506006600583815481106107d4576107d3611355565b5b906000526020600020016040516107eb9190611423565b9081526020016040518091039020548160200181815250505b818061080f90611469565b9250506106bb565b809250505090565b60005481565b6000600454905090565b606060008060058054905067ffffffffffffffff81111561085357610852610c6c565b5b60405190808252806020026020018201604052801561088c57816020015b610879610af9565b8152602001906001900390816108715790505b5090505b6005805490508210156109c4576040518060400160405280600584815481106108bc576108bb611355565b5b9060005260206000200180546108d1906111ff565b80601f01602080910402602001604051908101604052809291908181526020018280546108fd906111ff565b801561094a5780601f1061091f5761010080835404028352916020019161094a565b820191906000526020600020905b81548152906001019060200180831161092d57829003601f168201915b5050505050815260200160066005858154811061096a57610969611355565b5b906000526020600020016040516109819190611423565b9081526020016040518091039020548152508183815181106109a6576109a5611355565b5b602002602001018190525081806109bc90611469565b925050610890565b809250505090565b600060028111156109e0576109df610e81565b5b6109e86103e2565b60028111156109fa576109f9610e81565b5b14610a3a576040517f08c379a0000000000000000000000000000000000000000000000000000000008152600401610a3190611524565b60405180910390fd5b6001600682604051610a4c9190611575565b90815260200160405180910390206000828254610a69919061158c565b9250508190555050565b828054610a7f906111ff565b90600052602060002090601f016020900481019282610aa15760008555610ae8565b82601f10610aba57805160ff1916838001178555610ae8565b82800160010185558215610ae8579182015b82811115610ae7578251825591602001919060010190610acc565b5b509050610af59190610b13565b5090565b604051806040016040528060608152602001600081525090565b5b80821115610b2c576000816000905550600101610b14565b5090565b6000604051905090565b600080fd5b600080fd5b6000819050919050565b610b5781610b44565b8114610b6257600080fd5b50565b600081359050610b7481610b4e565b92915050565b600060208284031215610b9057610b8f610b3a565b5b6000610b9e84828501610b65565b91505092915050565b600081519050919050565b600082825260208201905092915050565b60005b83811015610be1578082015181840152602081019050610bc6565b83811115610bf0576000848401525b50505050565b6000601f19601f8301169050919050565b6000610c1282610ba7565b610c1c8185610bb2565b9350610c2c818560208601610bc3565b610c3581610bf6565b840191505092915050565b60006020820190508181036000830152610c5a8184610c07565b905092915050565b600080fd5b600080fd5b7f4e487b7100000000000000000000000000000000000000000000000000000000600052604160045260246000fd5b610ca482610bf6565b810181811067ffffffffffffffff82111715610cc357610cc2610c6c565b5b80604052505050565b6000610cd6610b30565b9050610ce28282610c9b565b919050565b600067ffffffffffffffff821115610d0257610d01610c6c565b5b610d0b82610bf6565b9050602081019050919050565b82818337600083830152505050565b6000610d3a610d3584610ce7565b610ccc565b905082815260208101848484011115610d5657610d55610c67565b5b610d61848285610d18565b509392505050565b600082601f830112610d7e57610d7d610c62565b5b8135610d8e848260208601610d27565b91505092915050565b600060208284031215610dad57610dac610b3a565b5b600082013567ffffffffffffffff811115610dcb57610dca610b3f565b5b610dd784828501610d69565b91505092915050565b610de981610b44565b82525050565b6000602082019050610e046000830184610de0565b92915050565b600081519050919050565b600082825260208201905092915050565b6000610e3182610e0a565b610e3b8185610e15565b9350610e4b818560208601610bc3565b610e5481610bf6565b840191505092915050565b60006020820190508181036000830152610e798184610e26565b905092915050565b7f4e487b7100000000000000000000000000000000000000000000000000000000600052602160045260246000fd5b60038110610ec157610ec0610e81565b5b50565b6000819050610ed282610eb0565b919050565b6000610ee282610ec4565b9050919050565b610ef281610ed7565b82525050565b6000602082019050610f0d6000830184610ee9565b92915050565b600081519050919050565b600082825260208201905092915050565b6000819050602082019050919050565b600082825260208201905092915050565b6000610f5b82610ba7565b610f658185610f3f565b9350610f75818560208601610bc3565b610f7e81610bf6565b840191505092915050565b6000610f958383610f50565b905092915050565b6000602082019050919050565b6000610fb582610f13565b610fbf8185610f1e565b935083602082028501610fd185610f2f565b8060005b8581101561100d5784840389528151610fee8582610f89565b9450610ff983610f9d565b925060208a01995050600181019050610fd5565b50829750879550505050505092915050565b600060208201905081810360008301526110398184610faa565b905092915050565b61104a81610b44565b82525050565b6000604083016000830151848203600086015261106d8282610f50565b91505060208301516110826020860182611041565b508091505092915050565b600060208201905081810360008301526110a78184611050565b905092915050565b600081519050919050565b600082825260208201905092915050565b6000819050602082019050919050565b600060408301600083015184820360008601526110f88282610f50565b915050602083015161110d6020860182611041565b508091505092915050565b600061112483836110db565b905092915050565b6000602082019050919050565b6000611144826110af565b61114e81856110ba565b935083602082028501611160856110cb565b8060005b8581101561119c578484038952815161117d8582611118565b94506111888361112c565b925060208a01995050600181019050611164565b50829750879550505050505092915050565b600060208201905081810360008301526111c88184611139565b905092915050565b7f4e487b7100000000000000000000000000000000000000000000000000000000600052602260045260246000fd5b6000600282049050600182168061121757607f821691505b6020821081141561122b5761122a6111d0565b5b50919050565b7f456c656374696f6e206e6565647320746f2062652070656e64696e6720746f2060008201527f6164642070726f706f73616c7300000000000000000000000000000000000000602082015250565b600061128d602d83610e15565b915061129882611231565b604082019050919050565b600060208201905081810360008301526112bc81611280565b9050919050565b7f526573756c747320617265206465636c61726564206f6e6c792061667465722060008201527f74686520656c656374696f6e20656e6473000000000000000000000000000000602082015250565b600061131f603183610e15565b915061132a826112c3565b604082019050919050565b6000602082019050818103600083015261134e81611312565b9050919050565b7f4e487b7100000000000000000000000000000000000000000000000000000000600052603260045260246000fd5b600081905092915050565b60008190508160005260206000209050919050565b600081546113b1816111ff565b6113bb8186611384565b945060018216600081146113d657600181146113e75761141a565b60ff1983168652818601935061141a565b6113f08561138f565b60005b83811015611412578154818901526001820191506020810190506113f3565b838801955050505b50505092915050565b600061142f82846113a4565b915081905092915050565b7f4e487b7100000000000000000000000000000000000000000000000000000000600052601160045260246000fd5b600061147482610b44565b91507fffffffffffffffffffffffffffffffffffffffffffffffffffffffffffffffff8214156114a7576114a661143a565b5b600182019050919050565b7f456c656374696f6e206e6565647320746f2062652061637469766520746f207660008201527f6f74650000000000000000000000000000000000000000000000000000000000602082015250565b600061150e602383610e15565b9150611519826114b2565b604082019050919050565b6000602082019050818103600083015261153d81611501565b9050919050565b600061154f82610ba7565b6115598185611384565b9350611569818560208601610bc3565b80840191505092915050565b60006115818284611544565b915081905092915050565b600061159782610b44565b91506115a283610b44565b9250827fffffffffffffffffffffffffffffffffffffffffffffffffffffffffffffffff038211156115d7576115d661143a565b5b82820190509291505056fea26469706673582212202f56b9504ff7a5983cb1676d131216bbc446be716c527eabca0d714e89900d0e64736f6c634300080a0033a264697066735822122097b37c8b27ca42216c485b693fbd598784d03041d8fbb9523f8fcb11a41fb5a964736f6c634300080a0033",
  "linkReferences": {},
  "deployedLinkReferences": {}
}