{
  "_format": "hh-sol-artifact-1",
  "contractName": "OneVote",
  "sourceName": "contracts/OneVote.sol",
  "abi": [
    {
      "inputs": [
        {
          "internalType": "contract Semaphore",
          "name": "_semaphore",
          "type": "address"
        }
      ],
      "stateMutability": "nonpayable",
      "type": "constructor"
    },
    {
      "anonymous": false,
      "inputs": [
        {
          "indexed": true,
          "internalType": "uint256",
          "name": "identityCommitment",
          "type": "uint256"
        }
      ],
      "name": "IdentityCommitment",
      "type": "event"
    },
    {
      "anonymous": false,
      "inputs": [
        {
          "indexed": false,
          "internalType": "uint256",
          "name": "root",
          "type": "uint256"
        }
      ],
      "name": "Rooot",
      "type": "event"
    },
    {
      "anonymous": false,
      "inputs": [
        {
          "indexed": true,
          "internalType": "uint256",
          "name": "signalIndex",
          "type": "uint256"
        }
      ],
      "name": "SignalBroadcastByClient",
      "type": "event"
    },
    {
      "inputs": [
        {
          "internalType": "uint232",
          "name": "_externalNullifier",
          "type": "uint232"
        }
      ],
      "name": "addExternalNullifier",
      "outputs": [],
      "stateMutability": "nonpayable",
      "type": "function"
    },
    {
      "inputs": [
        {
          "internalType": "uint256",
          "name": "_processId",
          "type": "uint256"
        },
        {
          "internalType": "bytes",
          "name": "_proposal",
          "type": "bytes"
        }
      ],
      "name": "addProposal",
      "outputs": [],
      "stateMutability": "nonpayable",
      "type": "function"
    },
    {
      "inputs": [
        {
          "internalType": "string",
          "name": "_name",
          "type": "string"
        },
        {
          "internalType": "string",
          "name": "_description",
          "type": "string"
        },
        {
          "internalType": "uint256",
          "name": "_startDate",
          "type": "uint256"
        },
        {
          "internalType": "uint256",
          "name": "_endDate",
          "type": "uint256"
        }
      ],
      "name": "createVotingProcess",
      "outputs": [],
      "stateMutability": "nonpayable",
      "type": "function"
    },
    {
      "inputs": [
        {
          "internalType": "uint256",
          "name": "_leaf",
          "type": "uint256"
        }
      ],
      "name": "getAuthStatus",
      "outputs": [
        {
          "internalType": "bool",
          "name": "",
          "type": "bool"
        }
      ],
      "stateMutability": "view",
      "type": "function"
    },
    {
      "inputs": [
        {
          "internalType": "uint256",
          "name": "_index",
          "type": "uint256"
        }
      ],
      "name": "getExternalNullifierBySignalIndex",
      "outputs": [
        {
          "internalType": "uint256",
          "name": "",
          "type": "uint256"
        }
      ],
      "stateMutability": "view",
      "type": "function"
    },
    {
      "inputs": [
        {
          "internalType": "uint256",
          "name": "_index",
          "type": "uint256"
        }
      ],
      "name": "getIdentityCommitment",
      "outputs": [
        {
          "internalType": "uint256",
          "name": "",
          "type": "uint256"
        }
      ],
      "stateMutability": "view",
      "type": "function"
    },
    {
      "inputs": [],
      "name": "getIdentityCommitments",
      "outputs": [
        {
          "internalType": "uint256[]",
          "name": "",
          "type": "uint256[]"
        }
      ],
      "stateMutability": "view",
      "type": "function"
    },
    {
      "inputs": [],
      "name": "getNextSignalIndex",
      "outputs": [
        {
          "internalType": "uint256",
          "name": "",
          "type": "uint256"
        }
      ],
      "stateMutability": "view",
      "type": "function"
    },
    {
      "inputs": [
        {
          "internalType": "uint256",
          "name": "id",
          "type": "uint256"
        }
      ],
      "name": "getProcess",
      "outputs": [
        {
          "components": [
            {
              "internalType": "uint256",
              "name": "id",
              "type": "uint256"
            },
            {
              "internalType": "string",
              "name": "name",
              "type": "string"
            },
            {
              "internalType": "string",
              "name": "description",
              "type": "string"
            },
            {
              "internalType": "bytes[]",
              "name": "proposals",
              "type": "bytes[]"
            },
            {
              "internalType": "uint256",
              "name": "startDate",
              "type": "uint256"
            },
            {
              "internalType": "uint256",
              "name": "endDate",
              "type": "uint256"
            }
          ],
          "internalType": "struct OneVote.ProcessDTO",
          "name": "",
          "type": "tuple"
        }
      ],
      "stateMutability": "view",
      "type": "function"
    },
    {
      "inputs": [],
      "name": "getProcesses",
      "outputs": [
        {
          "components": [
            {
              "internalType": "uint256",
              "name": "id",
              "type": "uint256"
            },
            {
              "internalType": "string",
              "name": "name",
              "type": "string"
            },
            {
              "internalType": "string",
              "name": "description",
              "type": "string"
            },
            {
              "internalType": "bytes[]",
              "name": "proposals",
              "type": "bytes[]"
            },
            {
              "internalType": "uint256",
              "name": "startDate",
              "type": "uint256"
            },
            {
              "internalType": "uint256",
              "name": "endDate",
              "type": "uint256"
            }
          ],
          "internalType": "struct OneVote.ProcessDTO[]",
          "name": "",
          "type": "tuple[]"
        }
      ],
      "stateMutability": "view",
      "type": "function"
    },
    {
      "inputs": [
        {
          "internalType": "uint256",
          "name": "id",
          "type": "uint256"
        }
      ],
      "name": "getRootHistory",
      "outputs": [
        {
          "internalType": "bool",
          "name": "",
          "type": "bool"
        }
      ],
      "stateMutability": "view",
      "type": "function"
    },
    {
      "inputs": [],
      "name": "getRoots",
      "outputs": [
        {
          "internalType": "uint256[10]",
          "name": "",
          "type": "uint256[10]"
        }
      ],
      "stateMutability": "view",
      "type": "function"
    },
    {
      "inputs": [
        {
          "internalType": "uint256",
          "name": "_index",
          "type": "uint256"
        }
      ],
      "name": "getSignalBySignalIndex",
      "outputs": [
        {
          "internalType": "bytes",
          "name": "",
          "type": "bytes"
        }
      ],
      "stateMutability": "view",
      "type": "function"
    },
    {
      "inputs": [
        {
          "internalType": "uint256",
          "name": "",
          "type": "uint256"
        }
      ],
      "name": "identityCommitments",
      "outputs": [
        {
          "internalType": "uint256",
          "name": "",
          "type": "uint256"
        }
      ],
      "stateMutability": "view",
      "type": "function"
    },
    {
      "inputs": [
        {
          "internalType": "uint256",
          "name": "_leaf",
          "type": "uint256"
        }
      ],
      "name": "insertIdentityAsClient",
      "outputs": [],
      "stateMutability": "nonpayable",
      "type": "function"
    },
    {
      "inputs": [],
      "name": "nextSignalIndex",
      "outputs": [
        {
          "internalType": "uint256",
          "name": "",
          "type": "uint256"
        }
      ],
      "stateMutability": "view",
      "type": "function"
    },
    {
      "inputs": [],
      "name": "semaphore",
      "outputs": [
        {
          "internalType": "contract Semaphore",
          "name": "",
          "type": "address"
        }
      ],
      "stateMutability": "view",
      "type": "function"
    },
    {
      "inputs": [
        {
          "internalType": "uint256",
          "name": "",
          "type": "uint256"
        }
      ],
      "name": "signalIndexToExternalNullifier",
      "outputs": [
        {
          "internalType": "uint256",
          "name": "",
          "type": "uint256"
        }
      ],
      "stateMutability": "view",
      "type": "function"
    },
    {
      "inputs": [
        {
          "internalType": "uint256",
          "name": "",
          "type": "uint256"
        }
      ],
      "name": "signalIndexToSignal",
      "outputs": [
        {
          "internalType": "bytes",
          "name": "",
          "type": "bytes"
        }
      ],
      "stateMutability": "view",
      "type": "function"
    },
    {
      "inputs": [
        {
          "internalType": "uint232",
          "name": "",
          "type": "uint232"
        },
        {
          "internalType": "uint256",
          "name": "",
          "type": "uint256"
        }
      ],
      "name": "signalsForNullifier",
      "outputs": [
        {
          "internalType": "bytes",
          "name": "",
          "type": "bytes"
        }
      ],
      "stateMutability": "view",
      "type": "function"
    },
    {
      "inputs": [
        {
          "internalType": "bytes",
          "name": "_signal",
          "type": "bytes"
        },
        {
          "internalType": "uint256[8]",
          "name": "_proof",
          "type": "uint256[8]"
        },
        {
          "internalType": "uint256",
          "name": "_root",
          "type": "uint256"
        },
        {
          "internalType": "uint256",
          "name": "_nullifiersHash",
          "type": "uint256"
        },
        {
          "internalType": "uint232",
          "name": "_externalNullifier",
          "type": "uint232"
        }
      ],
      "name": "vote",
      "outputs": [],
      "stateMutability": "nonpayable",
      "type": "function"
    },
    {
      "inputs": [
        {
          "internalType": "uint256",
          "name": "",
          "type": "uint256"
        }
      ],
      "name": "votingProcesses",
      "outputs": [
        {
          "internalType": "contract VotingProcess",
          "name": "",
          "type": "address"
        }
      ],
      "stateMutability": "view",
      "type": "function"
    }
  ],
  "bytecode": "0x6080604052600060075534801561001557600080fd5b50604051612d87380380612d8783398101604081905261003491610059565b600880546001600160a01b0319166001600160a01b0392909216919091179055610089565b60006020828403121561006b57600080fd5b81516001600160a01b038116811461008257600080fd5b9392505050565b612cef806100986000396000f3fe60806040523480156200001157600080fd5b50600436106200015d5760003560e01c80638fd0de5711620000c7578063c6cdfa6b1162000086578063c6cdfa6b1462000333578063cb7be8cf146200034a578063d0851a711462000361578063e53a39601462000387578063f9cdb5cd146200039e578063ffac004614620003c157600080fd5b80638fd0de5714620002c0578063911ca41e14620002d7578063b30b483f14620002ee578063bde106121462000305578063c0374c68146200031c57600080fd5b8063539f38b21162000120578063539f38b21462000216578063545b9cb1146200022f5780636e52b2391462000266578063740afb77146200027f5780637b5d253414620002a25780638d2d593b14620002b657600080fd5b8063040c46ec146200016257806327acf71b14620001ab57806335a5e06d14620001d15780634056679014620001ea57806349b0b9101462000203575b600080fd5b6200018e62000173366004620013cd565b6000602081905290815260409020546001600160a01b031681565b6040516001600160a01b0390911681526020015b60405180910390f35b620001c2620001bc366004620013cd565b620003d8565b604051620001a2919062001448565b620001db6200047a565b604051620001a2919062001464565b620001f462000514565b604051620001a2919062001498565b6007545b604051908152602001620001a2565b6200022d62000227366004620014fb565b6200056e565b005b6200025562000240366004620013cd565b60009081526001602052604090205460ff1690565b6040519015158152602001620001a2565b62000270620005d9565b604051620001a29190620015d6565b6200020762000290366004620013cd565b60009081526005602052604090205490565b6008546200018e906001600160a01b031681565b6200020760075481565b62000207620002d1366004620013cd565b62000a16565b620001c2620002e8366004620013cd565b62000a38565b62000207620002ff366004620013cd565b62000ae2565b6200022d62000316366004620013cd565b62000b0c565b6200022d6200032d3660046200173a565b62000c05565b620001c262000344366004620017b5565b62000ca4565b6200022d6200035b366004620017e2565b62000cdf565b6200037862000372366004620013cd565b62000ebc565b604051620001a291906200189e565b6200022d62000398366004620018b3565b62001202565b62000207620003af366004620013cd565b60056020526000908152604090205481565b62000255620003d2366004620013cd565b62001279565b60046020526000908152604090208054620003f390620018fe565b80601f01602080910402602001604051908101604052809291908181526020018280546200042190620018fe565b8015620004725780601f10620004465761010080835404028352916020019162000472565b820191906000526020600020905b8154815290600101906020018083116200045457829003601f168201915b505050505081565b62000484620012fa565b600860009054906101000a90046001600160a01b03166001600160a01b03166335a5e06d6040518163ffffffff1660e01b81526004016101406040518083038186803b158015620004d457600080fd5b505afa158015620004e9573d6000803e3d6000fd5b505050506040513d601f19601f820116820180604052508101906200050f91906200193b565b905090565b606060038054806020026020016040519081016040528092919081815260200182805480156200056457602002820191906000526020600020905b8154815260200190600101908083116200054f575b5050505050905090565b6008546040516329cf9c5960e11b81526001600160e81b03831660048201526001600160a01b039091169063539f38b290602401600060405180830381600087803b158015620005bd57600080fd5b505af1158015620005d2573d6000803e3d6000fd5b5050505050565b606060008060025467ffffffffffffffff811115620005fc57620005fc6200163c565b6040519080825280602002602001820160405280156200066957816020015b620006556040518060c001604052806000815260200160608152602001606081526020016060815260200160008152602001600081525090565b8152602001906001900390816200061b5790505b5090505b60025482101562000a10576040805160c0810180835260008581526020818152908490205463af640d0f60e01b9092529251919283926001600160a01b039092169163af640d0f9160c48086019290818703018186803b158015620006d157600080fd5b505afa158015620006e6573d6000803e3d6000fd5b505050506040513d601f19601f820116820180604052508101906200070c9190620019c2565b81526000848152602081815260408083205481516306fdde0360e01b8152915192909401936001600160a01b0316926306fdde0392600480840193829003018186803b1580156200075c57600080fd5b505afa15801562000771573d6000803e3d6000fd5b505050506040513d6000823e601f3d908101601f191682016040526200079b919081019062001a12565b8152600084815260208181526040808320548151633942720b60e11b8152915192909401936001600160a01b031692637284e41692600480840193829003018186803b158015620007eb57600080fd5b505afa15801562000800573d6000803e3d6000fd5b505050506040513d6000823e601f3d908101601f191682016040526200082a919081019062001a12565b8152600084815260208181526040808320548151630c4ac98960e31b8152915192909401936001600160a01b0316926362564c4892600480840193829003018186803b1580156200087a57600080fd5b505afa1580156200088f573d6000803e3d6000fd5b505050506040513d6000823e601f3d908101601f19168201604052620008b9919081019062001a68565b815260008481526020818152604091829020548251633c7982e360e11b81529251938201936001600160a01b03909116926378f305c6926004808301939192829003018186803b1580156200090d57600080fd5b505afa15801562000922573d6000803e3d6000fd5b505050506040513d601f19601f82011682018060405250810190620009489190620019c2565b815260008481526020818152604091829020548251631626ac9160e31b81529251938201936001600160a01b039091169263b1356488926004808301939192829003018186803b1580156200099c57600080fd5b505afa158015620009b1573d6000803e3d6000fd5b505050506040513d601f19601f82011682018060405250810190620009d79190620019c2565b815250818381518110620009ef57620009ef62001b4f565b6020026020010181905250818062000a079062001b7b565b9250506200066d565b92915050565b6003818154811062000a2757600080fd5b600091825260209091200154905081565b600081815260046020526040902080546060919062000a5790620018fe565b80601f016020809104026020016040519081016040528092919081815260200182805462000a8590620018fe565b801562000ad65780601f1062000aaa5761010080835404028352916020019162000ad6565b820191906000526020600020905b81548152906001019060200180831162000ab857829003601f168201915b50505050509050919050565b60006003828154811062000afa5762000afa62001b4f565b90600052602060002001549050919050565b6008546040516336c077e560e11b8152600481018390526001600160a01b0390911690636d80efca90602401602060405180830381600087803b15801562000b5357600080fd5b505af115801562000b68573d6000803e3d6000fd5b505050506040513d601f19601f8201168201806040525081019062000b8e9190620019c2565b506003805460018181019092557fc2575a0e9e593c00f959f8c92f12db2869c3395a3b0502d05e2516446f71f85b01829055600082815260208290526040808220805460ff1916909317909255905182917f31d0d431762af1b333d4fef318e03efc7b702fe91dd1f0aa2c72e699bebcb48991a250565b60006002548585858560405162000c1c9062001319565b62000c2c95949392919062001b99565b604051809103906000f08015801562000c49573d6000803e3d6000fd5b50905062000c596002546200056e565b60028054600090815260208190526040812080546001600160a01b0319166001600160a01b0385161790558154600192919062000c9890849062001bdd565b90915550505050505050565b6006602052816000526040600020818154811062000cc157600080fd5b90600052602060002001600091509150508054620003f390620018fe565b6007546000818152600460209081526040909120875162000d039289019062001327565b5060075460009081526005602090815260408083206001600160e81b038616908190558352600682528220805460018101825590835291819020885162000d5293919091019189019062001327565b506001600160e81b03821660009081526020819052604090819020549051633a77018560e21b81526001600160a01b039091169063e9dc06149062000d9c90899060040162001448565b600060405180830381600087803b15801562000db757600080fd5b505af115801562000dcc573d6000803e3d6000fd5b50506007805492509050600062000de38362001b7b565b90915550506040518481527fc22cfa8a3523410b962de1755e11d5abcb562e0199fd322dda29198947f18c939060200160405180910390a1600854604051630e57596f60e01b81526001600160a01b0390911690630e57596f9062000e55908990899089908990899060040162001bf8565b600060405180830381600087803b15801562000e7057600080fd5b505af115801562000e85573d6000803e3d6000fd5b50506040518392507faa676fd106f1023de6c9eafff9af5bc8e299b3493d3aa816a3278a15d055657b9150600090a2505050505050565b62000ef66040518060c001604052806000815260200160608152602001606081526020016060815260200160008152602001600081525090565b6000828152602081815260409182902054825160c0810180855263af640d0f60e01b905292516001600160a01b0390911692918291849163af640d0f9160c4808601929190818703018186803b15801562000f5057600080fd5b505afa15801562000f65573d6000803e3d6000fd5b505050506040513d601f19601f8201168201806040525081019062000f8b9190620019c2565b8152602001826001600160a01b03166306fdde036040518163ffffffff1660e01b815260040160006040518083038186803b15801562000fca57600080fd5b505afa15801562000fdf573d6000803e3d6000fd5b505050506040513d6000823e601f3d908101601f1916820160405262001009919081019062001a12565b8152602001826001600160a01b0316637284e4166040518163ffffffff1660e01b815260040160006040518083038186803b1580156200104857600080fd5b505afa1580156200105d573d6000803e3d6000fd5b505050506040513d6000823e601f3d908101601f1916820160405262001087919081019062001a12565b8152602001826001600160a01b03166362564c486040518163ffffffff1660e01b815260040160006040518083038186803b158015620010c657600080fd5b505afa158015620010db573d6000803e3d6000fd5b505050506040513d6000823e601f3d908101601f1916820160405262001105919081019062001a68565b8152602001826001600160a01b03166378f305c66040518163ffffffff1660e01b815260040160206040518083038186803b1580156200114457600080fd5b505afa15801562001159573d6000803e3d6000fd5b505050506040513d601f19601f820116820180604052508101906200117f9190620019c2565b8152602001826001600160a01b031663b13564886040518163ffffffff1660e01b815260040160206040518083038186803b158015620011be57600080fd5b505afa158015620011d3573d6000803e3d6000fd5b505050506040513d601f19601f82011682018060405250810190620011f99190620019c2565b90529392505050565b60008281526020819052604090819020549051635343765360e01b81526001600160a01b03909116906353437653906200124190849060040162001448565b600060405180830381600087803b1580156200125c57600080fd5b505af115801562001271573d6000803e3d6000fd5b505050505050565b6008546040516378e310f760e11b8152600481018390526000916001600160a01b03169063f1c621ee9060240160206040518083038186803b158015620012bf57600080fd5b505afa158015620012d4573d6000803e3d6000fd5b505050506040513d601f19601f8201168201806040525081019062000a10919062001c65565b604051806101400160405280600a906020820280368337509192915050565b6110308062001c8a83390190565b8280546200133590620018fe565b90600052602060002090601f016020900481019282620013595760008555620013a4565b82601f106200137457805160ff1916838001178555620013a4565b82800160010185558215620013a4579182015b82811115620013a457825182559160200191906001019062001387565b50620013b2929150620013b6565b5090565b5b80821115620013b25760008155600101620013b7565b600060208284031215620013e057600080fd5b5035919050565b60005b8381101562001404578181015183820152602001620013ea565b8381111562001414576000848401525b50505050565b6000815180845262001434816020860160208601620013e7565b601f01601f19169290920160200192915050565b6020815260006200145d60208301846200141a565b9392505050565b6101408101818360005b600a8110156200148f5781518352602092830192909101906001016200146e565b50505092915050565b6020808252825182820181905260009190848201906040850190845b81811015620014d257835183529284019291840191600101620014b4565b50909695505050505050565b80356001600160e81b0381168114620014f657600080fd5b919050565b6000602082840312156200150e57600080fd5b6200145d82620014de565b80518252600060208083015160c0828601526200153a60c08601826200141a565b9050604084015185820360408701526200155582826200141a565b915050606084015185820360608701528181518084528484019150848160051b850101858401935060005b82811015620015b257601f198683030184526200159f8286516200141a565b9487019493870193915060010162001580565b50608088015160808a015260a088015160a08a015280965050505050505092915050565b6000602080830181845280855180835260408601915060408160051b870101925083870160005b828110156200162f57603f198886030184526200161c85835162001519565b94509285019290850190600101620015fd565b5092979650505050505050565b634e487b7160e01b600052604160045260246000fd5b604051610100810167ffffffffffffffff811182821017156200167957620016796200163c565b60405290565b604051601f8201601f1916810167ffffffffffffffff81118282101715620016ab57620016ab6200163c565b604052919050565b600067ffffffffffffffff821115620016d057620016d06200163c565b50601f01601f191660200190565b600082601f830112620016f057600080fd5b8135620017076200170182620016b3565b6200167f565b8181528460208386010111156200171d57600080fd5b816020850160208301376000918101602001919091529392505050565b600080600080608085870312156200175157600080fd5b843567ffffffffffffffff808211156200176a57600080fd5b6200177888838901620016de565b955060208701359150808211156200178f57600080fd5b506200179e87828801620016de565b949794965050505060408301359260600135919050565b60008060408385031215620017c957600080fd5b620017d483620014de565b946020939093013593505050565b60008060008060006101808688031215620017fc57600080fd5b853567ffffffffffffffff8111156200181457600080fd5b6200182288828901620016de565b955050602087603f8801126200183757600080fd5b6200184162001652565b8061012089018a8111156200185557600080fd5b838a015b8181101562001872578035845292840192840162001859565b5090965035945050506101408601359150620018926101608701620014de565b90509295509295909350565b6020815260006200145d602083018462001519565b60008060408385031215620018c757600080fd5b82359150602083013567ffffffffffffffff811115620018e657600080fd5b620018f485828601620016de565b9150509250929050565b600181811c908216806200191357607f821691505b602082108114156200193557634e487b7160e01b600052602260045260246000fd5b50919050565b60006101408083850312156200195057600080fd5b83601f8401126200196057600080fd5b60405181810181811067ffffffffffffffff821117156200198557620019856200163c565b6040529083019080858311156200199b57600080fd5b845b83811015620019b75780518252602091820191016200199d565b509095945050505050565b600060208284031215620019d557600080fd5b5051919050565b6000620019ed6200170184620016b3565b905082815283838301111562001a0257600080fd5b6200145d836020830184620013e7565b60006020828403121562001a2557600080fd5b815167ffffffffffffffff81111562001a3d57600080fd5b8201601f8101841362001a4f57600080fd5b62001a6084825160208401620019dc565b949350505050565b6000602080838503121562001a7c57600080fd5b825167ffffffffffffffff8082111562001a9557600080fd5b818501915085601f83011262001aaa57600080fd5b81518181111562001abf5762001abf6200163c565b8060051b62001ad08582016200167f565b918252838101850191858101908984111562001aeb57600080fd5b86860192505b8383101562001b425782518581111562001b0b5760008081fd5b8601603f81018b1362001b1e5760008081fd5b62001b318b8983015160408401620019dc565b835250918601919086019062001af1565b9998505050505050505050565b634e487b7160e01b600052603260045260246000fd5b634e487b7160e01b600052601160045260246000fd5b600060001982141562001b925762001b9262001b65565b5060010190565b85815260a06020820152600062001bb460a08301876200141a565b828103604084015262001bc881876200141a565b60608401959095525050608001529392505050565b6000821982111562001bf35762001bf362001b65565b500190565b600061018080835262001c0e818401896200141a565b91505060208083018760005b600881101562001c395781518352918301919083019060010162001c1a565b505050506101208201949094526101408101929092526001600160e81b03166101609091015292915050565b60006020828403121562001c7857600080fd5b815180151581146200145d57600080fdfe60806040523480156200001157600080fd5b5060405162001030380380620010308339810160408190526200003491620001eb565b600085905583516200004e90600190602087019062000078565b5082516200006490600290602086019062000078565b5060039190915560045550620002af915050565b828054620000869062000272565b90600052602060002090601f016020900481019282620000aa5760008555620000f5565b82601f10620000c557805160ff1916838001178555620000f5565b82800160010185558215620000f5579182015b82811115620000f5578251825591602001919060010190620000d8565b506200010392915062000107565b5090565b5b8082111562000103576000815560010162000108565b634e487b7160e01b600052604160045260246000fd5b600082601f8301126200014657600080fd5b81516001600160401b03808211156200016357620001636200011e565b604051601f8301601f19908116603f011681019082821181831017156200018e576200018e6200011e565b81604052838152602092508683858801011115620001ab57600080fd5b600091505b83821015620001cf5785820183015181830184015290820190620001b0565b83821115620001e15760008385830101525b9695505050505050565b600080600080600060a086880312156200020457600080fd5b855160208701519095506001600160401b03808211156200022457600080fd5b6200023289838a0162000134565b955060408801519150808211156200024957600080fd5b50620002588882890162000134565b606088015160809098015196999598509695949350505050565b600181811c908216806200028757607f821691505b60208210811415620002a957634e487b7160e01b600052602260045260246000fd5b50919050565b610d7180620002bf6000396000f3fe608060405234801561001057600080fd5b50600436106100cf5760003560e01c80637284e4161161008c578063af640d0f11610066578063af640d0f146101a2578063b1356488146101ab578063bf7f3cfe146101b3578063e9dc0614146101c857600080fd5b80637284e4161461017d57806378f305c614610185578063a51346201461018d57600080fd5b8063013cf08b146100d457806302f6df8e146100fd57806306fdde03146101365780634e69d5601461013e578063534376531461015357806362564c4814610168575b600080fd5b6100e76100e2366004610962565b6101db565b6040516100f491906109d7565b60405180910390f35b61012861010b366004610a07565b805160208183018101805160068252928201919093012091525481565b6040519081526020016100f4565b6100e7610287565b610146610294565b6040516100f49190610ace565b610166610161366004610a07565b6102bc565b005b610170610386565b6040516100f49190610af6565b6100e761045f565b600354610128565b61019561046c565b6040516100f49190610b81565b61012860005481565b600454610128565b6101bb610683565b6040516100f49190610b94565b6101666101d6366004610a07565b61081e565b600581815481106101eb57600080fd5b90600052602060002001600091509050805461020690610be9565b80601f016020809104026020016040519081016040528092919081815260200182805461023290610be9565b801561027f5780601f106102545761010080835404028352916020019161027f565b820191906000526020600020905b81548152906001019060200180831161026257829003601f168201915b505050505081565b6001805461020690610be9565b60006003544210156102a65750600190565b6004544210156102b65750600090565b50600290565b60016102c6610294565b60028111156102d7576102d7610ab8565b1461033f5760405162461bcd60e51b815260206004820152602d60248201527f456c656374696f6e206e6565647320746f2062652070656e64696e6720746f2060448201526c6164642070726f706f73616c7360981b60648201526084015b60405180910390fd5b600580546001810182556000919091528151610382917f036b6384b5eca791c62761152d0c79bb0604c104a5fb6f4eb0703f3154bb3db0019060208401906108c9565b5050565b60606005805480602002602001604051908101604052809291908181526020016000905b828210156104565783829060005260206000200180546103c990610be9565b80601f01602080910402602001604051908101604052809291908181526020018280546103f590610be9565b80156104425780601f1061041757610100808354040283529160200191610442565b820191906000526020600020905b81548152906001019060200180831161042557829003601f168201915b5050505050815260200190600101906103aa565b50505050905090565b6002805461020690610be9565b604080518082019091526060815260006020820152600261048b610294565b600281111561049c5761049c610ab8565b146105035760405162461bcd60e51b815260206004820152603160248201527f526573756c747320617265206465636c61726564206f6e6c792061667465722060448201527074686520656c656374696f6e20656e647360781b6064820152608401610336565b6000610522604051806040016040528060608152602001600081525090565b600060208201525b60055482101561067d57806020015160066005848154811061054e5761054e610c24565b906000526020600020016040516105659190610c3a565b908152602001604051809103902054111561066b576005828154811061058d5761058d610c24565b9060005260206000200180546105a290610be9565b80601f01602080910402602001604051908101604052809291908181526020018280546105ce90610be9565b801561061b5780601f106105f05761010080835404028352916020019161061b565b820191906000526020600020905b8154815290600101906020018083116105fe57829003601f168201915b505050918352505060058054600691908490811061063b5761063b610c24565b906000526020600020016040516106529190610c3a565b9081526020016040518091039020548160200181815250505b8161067581610cec565b92505061052a565b92915050565b606060008060058054905067ffffffffffffffff8111156106a6576106a66109f1565b6040519080825280602002602001820160405280156106ec57816020015b6040805180820190915260608152600060208201528152602001906001900390816106c45790505b5090505b60055482101561067d5760405180604001604052806005848154811061071857610718610c24565b90600052602060002001805461072d90610be9565b80601f016020809104026020016040519081016040528092919081815260200182805461075990610be9565b80156107a65780601f1061077b576101008083540402835291602001916107a6565b820191906000526020600020905b81548152906001019060200180831161078957829003601f168201915b505050505081526020016006600585815481106107c5576107c5610c24565b906000526020600020016040516107dc9190610c3a565b90815260200160405180910390205481525081838151811061080057610800610c24565b6020026020010181905250818061081690610cec565b9250506106f0565b6000610828610294565b600281111561083957610839610ab8565b146108925760405162461bcd60e51b815260206004820152602360248201527f456c656374696f6e206e6565647320746f2062652061637469766520746f20766044820152626f746560e81b6064820152608401610336565b60016006826040516108a49190610d07565b908152602001604051809103902060008282546108c19190610d23565b909155505050565b8280546108d590610be9565b90600052602060002090601f0160209004810192826108f7576000855561093d565b82601f1061091057805160ff191683800117855561093d565b8280016001018555821561093d579182015b8281111561093d578251825591602001919060010190610922565b5061094992915061094d565b5090565b5b80821115610949576000815560010161094e565b60006020828403121561097457600080fd5b5035919050565b60005b8381101561099657818101518382015260200161097e565b838111156109a5576000848401525b50505050565b600081518084526109c381602086016020860161097b565b601f01601f19169290920160200192915050565b6020815260006109ea60208301846109ab565b9392505050565b634e487b7160e01b600052604160045260246000fd5b600060208284031215610a1957600080fd5b813567ffffffffffffffff80821115610a3157600080fd5b818401915084601f830112610a4557600080fd5b813581811115610a5757610a576109f1565b604051601f8201601f19908116603f01168101908382118183101715610a7f57610a7f6109f1565b81604052828152876020848701011115610a9857600080fd5b826020860160208301376000928101602001929092525095945050505050565b634e487b7160e01b600052602160045260246000fd5b6020810160038310610af057634e487b7160e01b600052602160045260246000fd5b91905290565b6000602080830181845280855180835260408601915060408160051b870101925083870160005b82811015610b4b57603f19888603018452610b398583516109ab565b94509285019290850190600101610b1d565b5092979650505050505050565b6000815160408452610b6d60408501826109ab565b602093840151949093019390935250919050565b6020815260006109ea6020830184610b58565b6000602080830181845280855180835260408601915060408160051b870101925083870160005b82811015610b4b57603f19888603018452610bd7858351610b58565b94509285019290850190600101610bbb565b600181811c90821680610bfd57607f821691505b60208210811415610c1e57634e487b7160e01b600052602260045260246000fd5b50919050565b634e487b7160e01b600052603260045260246000fd5b600080835481600182811c915080831680610c5657607f831692505b6020808410821415610c7657634e487b7160e01b86526022600452602486fd5b818015610c8a5760018114610c9b57610cc8565b60ff19861689528489019650610cc8565b60008a81526020902060005b86811015610cc05781548b820152908501908301610ca7565b505084890196505b509498975050505050505050565b634e487b7160e01b600052601160045260246000fd5b6000600019821415610d0057610d00610cd6565b5060010190565b60008251610d1981846020870161097b565b9190910192915050565b60008219821115610d3657610d36610cd6565b50019056fea264697066735822122046a92cc987c01ad1789b4901f00ef9bbc104ba18930e4007d2948eba0449182d64736f6c63430008090033a264697066735822122040f90b4401182c90e4b23745e5785386f4a8e4f7ffd9fc9ba4b5776cb595fae064736f6c63430008090033",
  "linkReferences": {},
  "deployedLinkReferences": {}
}