{
  "_format": "hh-sol-artifact-1",
  "contractName": "OneVote",
  "sourceName": "contracts/OneVote.sol",
  "abi": [
    {
      "inputs": [
        {
          "internalType": "contract Semaphore",
          "name": "_semaphore",
          "type": "address"
        }
      ],
      "stateMutability": "nonpayable",
      "type": "constructor"
    },
    {
      "anonymous": false,
      "inputs": [
        {
          "indexed": true,
          "internalType": "uint256",
          "name": "identityCommitment",
          "type": "uint256"
        }
      ],
      "name": "IdentityCommitment",
      "type": "event"
    },
    {
      "anonymous": false,
      "inputs": [
        {
          "indexed": false,
          "internalType": "uint256",
          "name": "root",
          "type": "uint256"
        }
      ],
      "name": "Rooot",
      "type": "event"
    },
    {
      "anonymous": false,
      "inputs": [
        {
          "indexed": true,
          "internalType": "uint256",
          "name": "signalIndex",
          "type": "uint256"
        }
      ],
      "name": "SignalBroadcastByClient",
      "type": "event"
    },
    {
      "inputs": [
        {
          "internalType": "uint232",
          "name": "_externalNullifier",
          "type": "uint232"
        }
      ],
      "name": "addExternalNullifier",
      "outputs": [],
      "stateMutability": "nonpayable",
      "type": "function"
    },
    {
      "inputs": [
        {
          "internalType": "string",
          "name": "_name",
          "type": "string"
        },
        {
          "internalType": "string",
          "name": "_description",
          "type": "string"
        },
        {
          "internalType": "bytes[]",
          "name": "_proposals",
          "type": "bytes[]"
        },
        {
          "internalType": "uint256",
          "name": "_startDate",
          "type": "uint256"
        },
        {
          "internalType": "uint256",
          "name": "_endDate",
          "type": "uint256"
        }
      ],
      "name": "createVotingProcess",
      "outputs": [],
      "stateMutability": "nonpayable",
      "type": "function"
    },
    {
      "inputs": [
        {
          "internalType": "uint256",
          "name": "_leaf",
          "type": "uint256"
        }
      ],
      "name": "getAuthStatus",
      "outputs": [
        {
          "internalType": "bool",
          "name": "",
          "type": "bool"
        }
      ],
      "stateMutability": "view",
      "type": "function"
    },
    {
      "inputs": [
        {
          "internalType": "uint256",
          "name": "_index",
          "type": "uint256"
        }
      ],
      "name": "getExternalNullifierBySignalIndex",
      "outputs": [
        {
          "internalType": "uint256",
          "name": "",
          "type": "uint256"
        }
      ],
      "stateMutability": "view",
      "type": "function"
    },
    {
      "inputs": [
        {
          "internalType": "uint256",
          "name": "_index",
          "type": "uint256"
        }
      ],
      "name": "getIdentityCommitment",
      "outputs": [
        {
          "internalType": "uint256",
          "name": "",
          "type": "uint256"
        }
      ],
      "stateMutability": "view",
      "type": "function"
    },
    {
      "inputs": [],
      "name": "getIdentityCommitments",
      "outputs": [
        {
          "internalType": "uint256[]",
          "name": "",
          "type": "uint256[]"
        }
      ],
      "stateMutability": "view",
      "type": "function"
    },
    {
      "inputs": [],
      "name": "getNextSignalIndex",
      "outputs": [
        {
          "internalType": "uint256",
          "name": "",
          "type": "uint256"
        }
      ],
      "stateMutability": "view",
      "type": "function"
    },
    {
      "inputs": [
        {
          "internalType": "uint256",
          "name": "id",
          "type": "uint256"
        }
      ],
      "name": "getProcess",
      "outputs": [
        {
          "components": [
            {
              "internalType": "uint256",
              "name": "id",
              "type": "uint256"
            },
            {
              "internalType": "string",
              "name": "name",
              "type": "string"
            },
            {
              "internalType": "string",
              "name": "description",
              "type": "string"
            },
            {
              "internalType": "bytes[]",
              "name": "proposals",
              "type": "bytes[]"
            },
            {
              "internalType": "uint256",
              "name": "startDate",
              "type": "uint256"
            },
            {
              "internalType": "uint256",
              "name": "endDate",
              "type": "uint256"
            }
          ],
          "internalType": "struct OneVote.ProcessDTO",
          "name": "",
          "type": "tuple"
        }
      ],
      "stateMutability": "view",
      "type": "function"
    },
    {
      "inputs": [],
      "name": "getProcesses",
      "outputs": [
        {
          "components": [
            {
              "internalType": "uint256",
              "name": "id",
              "type": "uint256"
            },
            {
              "internalType": "string",
              "name": "name",
              "type": "string"
            },
            {
              "internalType": "string",
              "name": "description",
              "type": "string"
            },
            {
              "internalType": "bytes[]",
              "name": "proposals",
              "type": "bytes[]"
            },
            {
              "internalType": "uint256",
              "name": "startDate",
              "type": "uint256"
            },
            {
              "internalType": "uint256",
              "name": "endDate",
              "type": "uint256"
            }
          ],
          "internalType": "struct OneVote.ProcessDTO[]",
          "name": "",
          "type": "tuple[]"
        }
      ],
      "stateMutability": "view",
      "type": "function"
    },
    {
      "inputs": [
        {
          "internalType": "uint256",
          "name": "id",
          "type": "uint256"
        }
      ],
      "name": "getRootHistory",
      "outputs": [
        {
          "internalType": "bool",
          "name": "",
          "type": "bool"
        }
      ],
      "stateMutability": "view",
      "type": "function"
    },
    {
      "inputs": [],
      "name": "getRoots",
      "outputs": [
        {
          "internalType": "uint256[10]",
          "name": "",
          "type": "uint256[10]"
        }
      ],
      "stateMutability": "view",
      "type": "function"
    },
    {
      "inputs": [
        {
          "internalType": "uint256",
          "name": "_index",
          "type": "uint256"
        }
      ],
      "name": "getSignalBySignalIndex",
      "outputs": [
        {
          "internalType": "bytes",
          "name": "",
          "type": "bytes"
        }
      ],
      "stateMutability": "view",
      "type": "function"
    },
    {
      "inputs": [
        {
          "internalType": "uint256",
          "name": "",
          "type": "uint256"
        }
      ],
      "name": "identityCommitments",
      "outputs": [
        {
          "internalType": "uint256",
          "name": "",
          "type": "uint256"
        }
      ],
      "stateMutability": "view",
      "type": "function"
    },
    {
      "inputs": [
        {
          "internalType": "uint256",
          "name": "_leaf",
          "type": "uint256"
        }
      ],
      "name": "insertIdentityAsClient",
      "outputs": [],
      "stateMutability": "nonpayable",
      "type": "function"
    },
    {
      "inputs": [],
      "name": "nextSignalIndex",
      "outputs": [
        {
          "internalType": "uint256",
          "name": "",
          "type": "uint256"
        }
      ],
      "stateMutability": "view",
      "type": "function"
    },
    {
      "inputs": [],
      "name": "semaphore",
      "outputs": [
        {
          "internalType": "contract Semaphore",
          "name": "",
          "type": "address"
        }
      ],
      "stateMutability": "view",
      "type": "function"
    },
    {
      "inputs": [
        {
          "internalType": "uint256",
          "name": "",
          "type": "uint256"
        }
      ],
      "name": "signalIndexToExternalNullifier",
      "outputs": [
        {
          "internalType": "uint256",
          "name": "",
          "type": "uint256"
        }
      ],
      "stateMutability": "view",
      "type": "function"
    },
    {
      "inputs": [
        {
          "internalType": "uint256",
          "name": "",
          "type": "uint256"
        }
      ],
      "name": "signalIndexToSignal",
      "outputs": [
        {
          "internalType": "bytes",
          "name": "",
          "type": "bytes"
        }
      ],
      "stateMutability": "view",
      "type": "function"
    },
    {
      "inputs": [
        {
          "internalType": "uint232",
          "name": "",
          "type": "uint232"
        },
        {
          "internalType": "uint256",
          "name": "",
          "type": "uint256"
        }
      ],
      "name": "signalsForNullifier",
      "outputs": [
        {
          "internalType": "bytes",
          "name": "",
          "type": "bytes"
        }
      ],
      "stateMutability": "view",
      "type": "function"
    },
    {
      "inputs": [
        {
          "internalType": "bytes",
          "name": "_signal",
          "type": "bytes"
        },
        {
          "internalType": "uint256[8]",
          "name": "_proof",
          "type": "uint256[8]"
        },
        {
          "internalType": "uint256",
          "name": "_root",
          "type": "uint256"
        },
        {
          "internalType": "uint256",
          "name": "_nullifiersHash",
          "type": "uint256"
        },
        {
          "internalType": "uint232",
          "name": "_externalNullifier",
          "type": "uint232"
        }
      ],
      "name": "vote",
      "outputs": [],
      "stateMutability": "nonpayable",
      "type": "function"
    },
    {
      "inputs": [
        {
          "internalType": "uint256",
          "name": "",
          "type": "uint256"
        }
      ],
      "name": "votingProcesses",
      "outputs": [
        {
          "internalType": "contract VotingProcess",
          "name": "",
          "type": "address"
        }
      ],
      "stateMutability": "view",
      "type": "function"
    }
  ],
  "bytecode": "0x6080604052600060075534801561001557600080fd5b50604051612e2b380380612e2b83398101604081905261003491610059565b600880546001600160a01b0319166001600160a01b0392909216919091179055610089565b60006020828403121561006b57600080fd5b81516001600160a01b038116811461008257600080fd5b9392505050565b612d93806100986000396000f3fe60806040523480156200001157600080fd5b5060043610620001515760003560e01c80638d2d593b11620000c7578063bde106121162000086578063bde106121462000310578063c6cdfa6b1462000327578063cb7be8cf146200033e578063d0851a711462000355578063f9cdb5cd146200037b578063ffac0046146200039e57600080fd5b80638d2d593b14620002aa5780638e216d9f14620002b45780638fd0de5714620002cb578063911ca41e14620002e2578063b30b483f14620002f957600080fd5b8063539f38b21162000114578063539f38b2146200020a578063545b9cb114620002235780636e52b239146200025a578063740afb7714620002735780637b5d2534146200029657600080fd5b8063040c46ec146200015657806327acf71b146200019f57806335a5e06d14620001c55780634056679014620001de57806349b0b91014620001f7575b600080fd5b62000182620001673660046200139a565b6000602081905290815260409020546001600160a01b031681565b6040516001600160a01b0390911681526020015b60405180910390f35b620001b6620001b03660046200139a565b620003b5565b60405162000196919062001415565b620001cf62000457565b60405162000196919062001431565b620001e8620004f1565b60405162000196919062001465565b6007545b60405190815260200162000196565b620002216200021b366004620014c8565b6200054b565b005b62000249620002343660046200139a565b60009081526001602052604090205460ff1690565b604051901515815260200162000196565b62000264620005b6565b604051620001969190620015b8565b620001fb620002843660046200139a565b60009081526005602052604090205490565b60085462000182906001600160a01b031681565b620001fb60075481565b62000221620002c536600462001743565b620009f3565b620001fb620002dc3660046200139a565b62000af9565b620001b6620002f33660046200139a565b62000b1b565b620001fb6200030a3660046200139a565b62000bc5565b62000221620003213660046200139a565b62000bef565b620001b6620003383660046200185d565b62000ce8565b620002216200034f3660046200188a565b62000d23565b6200036c620003663660046200139a565b62000f00565b60405162000196919062001946565b620001fb6200038c3660046200139a565b60056020526000908152604090205481565b62000249620003af3660046200139a565b62001246565b60046020526000908152604090208054620003d0906200195b565b80601f0160208091040260200160405190810160405280929190818152602001828054620003fe906200195b565b80156200044f5780601f1062000423576101008083540402835291602001916200044f565b820191906000526020600020905b8154815290600101906020018083116200043157829003601f168201915b505050505081565b62000461620012c7565b600860009054906101000a90046001600160a01b03166001600160a01b03166335a5e06d6040518163ffffffff1660e01b81526004016101406040518083038186803b158015620004b157600080fd5b505afa158015620004c6573d6000803e3d6000fd5b505050506040513d601f19601f82011682018060405250810190620004ec919062001998565b905090565b606060038054806020026020016040519081016040528092919081815260200182805480156200054157602002820191906000526020600020905b8154815260200190600101908083116200052c575b5050505050905090565b6008546040516329cf9c5960e11b81526001600160e81b03831660048201526001600160a01b039091169063539f38b290602401600060405180830381600087803b1580156200059a57600080fd5b505af1158015620005af573d6000803e3d6000fd5b5050505050565b606060008060025467ffffffffffffffff811115620005d957620005d96200161e565b6040519080825280602002602001820160405280156200064657816020015b620006326040518060c001604052806000815260200160608152602001606081526020016060815260200160008152602001600081525090565b815260200190600190039081620005f85790505b5090505b600254821015620009ed576040805160c0810180835260008581526020818152908490205463af640d0f60e01b9092529251919283926001600160a01b039092169163af640d0f9160c48086019290818703018186803b158015620006ae57600080fd5b505afa158015620006c3573d6000803e3d6000fd5b505050506040513d601f19601f82011682018060405250810190620006e9919062001a1f565b81526000848152602081815260408083205481516306fdde0360e01b8152915192909401936001600160a01b0316926306fdde0392600480840193829003018186803b1580156200073957600080fd5b505afa1580156200074e573d6000803e3d6000fd5b505050506040513d6000823e601f3d908101601f1916820160405262000778919081019062001a6f565b8152600084815260208181526040808320548151633942720b60e11b8152915192909401936001600160a01b031692637284e41692600480840193829003018186803b158015620007c857600080fd5b505afa158015620007dd573d6000803e3d6000fd5b505050506040513d6000823e601f3d908101601f1916820160405262000807919081019062001a6f565b8152600084815260208181526040808320548151630c4ac98960e31b8152915192909401936001600160a01b0316926362564c4892600480840193829003018186803b1580156200085757600080fd5b505afa1580156200086c573d6000803e3d6000fd5b505050506040513d6000823e601f3d908101601f1916820160405262000896919081019062001ac5565b815260008481526020818152604091829020548251633c7982e360e11b81529251938201936001600160a01b03909116926378f305c6926004808301939192829003018186803b158015620008ea57600080fd5b505afa158015620008ff573d6000803e3d6000fd5b505050506040513d601f19601f8201168201806040525081019062000925919062001a1f565b815260008481526020818152604091829020548251631626ac9160e31b81529251938201936001600160a01b039091169263b1356488926004808301939192829003018186803b1580156200097957600080fd5b505afa1580156200098e573d6000803e3d6000fd5b505050506040513d601f19601f82011682018060405250810190620009b4919062001a1f565b815250818381518110620009cc57620009cc62001b98565b60200260200101819052508180620009e49062001bc4565b9250506200064a565b92915050565b600183511162000a575760405162461bcd60e51b815260206004820152602560248201527f5468657265206e65656420746f206265206174206c6561737420322070726f706044820152646f73616c7360d81b606482015260840160405180910390fd5b6000600254868686868660405162000a6f90620012e6565b62000a809695949392919062001be2565b604051809103906000f08015801562000a9d573d6000803e3d6000fd5b50905062000aad6002546200054b565b60028054600090815260208190526040812080546001600160a01b0319166001600160a01b0385161790558154600192919062000aec90849062001c3d565b9091555050505050505050565b6003818154811062000b0a57600080fd5b600091825260209091200154905081565b600081815260046020526040902080546060919062000b3a906200195b565b80601f016020809104026020016040519081016040528092919081815260200182805462000b68906200195b565b801562000bb95780601f1062000b8d5761010080835404028352916020019162000bb9565b820191906000526020600020905b81548152906001019060200180831162000b9b57829003601f168201915b50505050509050919050565b60006003828154811062000bdd5762000bdd62001b98565b90600052602060002001549050919050565b6008546040516336c077e560e11b8152600481018390526001600160a01b0390911690636d80efca90602401602060405180830381600087803b15801562000c3657600080fd5b505af115801562000c4b573d6000803e3d6000fd5b505050506040513d601f19601f8201168201806040525081019062000c71919062001a1f565b506003805460018181019092557fc2575a0e9e593c00f959f8c92f12db2869c3395a3b0502d05e2516446f71f85b01829055600082815260208290526040808220805460ff1916909317909255905182917f31d0d431762af1b333d4fef318e03efc7b702fe91dd1f0aa2c72e699bebcb48991a250565b6006602052816000526040600020818154811062000d0557600080fd5b90600052602060002001600091509150508054620003d0906200195b565b6007546000818152600460209081526040909120875162000d4792890190620012f4565b5060075460009081526005602090815260408083206001600160e81b038616908190558352600682528220805460018101825590835291819020885162000d96939190910191890190620012f4565b506001600160e81b03821660009081526020819052604090819020549051633a77018560e21b81526001600160a01b039091169063e9dc06149062000de090899060040162001415565b600060405180830381600087803b15801562000dfb57600080fd5b505af115801562000e10573d6000803e3d6000fd5b50506007805492509050600062000e278362001bc4565b90915550506040518481527fc22cfa8a3523410b962de1755e11d5abcb562e0199fd322dda29198947f18c939060200160405180910390a1600854604051630e57596f60e01b81526001600160a01b0390911690630e57596f9062000e99908990899089908990899060040162001c58565b600060405180830381600087803b15801562000eb457600080fd5b505af115801562000ec9573d6000803e3d6000fd5b50506040518392507faa676fd106f1023de6c9eafff9af5bc8e299b3493d3aa816a3278a15d055657b9150600090a2505050505050565b62000f3a6040518060c001604052806000815260200160608152602001606081526020016060815260200160008152602001600081525090565b6000828152602081815260409182902054825160c0810180855263af640d0f60e01b905292516001600160a01b0390911692918291849163af640d0f9160c4808601929190818703018186803b15801562000f9457600080fd5b505afa15801562000fa9573d6000803e3d6000fd5b505050506040513d601f19601f8201168201806040525081019062000fcf919062001a1f565b8152602001826001600160a01b03166306fdde036040518163ffffffff1660e01b815260040160006040518083038186803b1580156200100e57600080fd5b505afa15801562001023573d6000803e3d6000fd5b505050506040513d6000823e601f3d908101601f191682016040526200104d919081019062001a6f565b8152602001826001600160a01b0316637284e4166040518163ffffffff1660e01b815260040160006040518083038186803b1580156200108c57600080fd5b505afa158015620010a1573d6000803e3d6000fd5b505050506040513d6000823e601f3d908101601f19168201604052620010cb919081019062001a6f565b8152602001826001600160a01b03166362564c486040518163ffffffff1660e01b815260040160006040518083038186803b1580156200110a57600080fd5b505afa1580156200111f573d6000803e3d6000fd5b505050506040513d6000823e601f3d908101601f1916820160405262001149919081019062001ac5565b8152602001826001600160a01b03166378f305c66040518163ffffffff1660e01b815260040160206040518083038186803b1580156200118857600080fd5b505afa1580156200119d573d6000803e3d6000fd5b505050506040513d601f19601f82011682018060405250810190620011c3919062001a1f565b8152602001826001600160a01b031663b13564886040518163ffffffff1660e01b815260040160206040518083038186803b1580156200120257600080fd5b505afa15801562001217573d6000803e3d6000fd5b505050506040513d601f19601f820116820180604052508101906200123d919062001a1f565b90529392505050565b6008546040516378e310f760e11b8152600481018390526000916001600160a01b03169063f1c621ee9060240160206040518083038186803b1580156200128c57600080fd5b505afa158015620012a1573d6000803e3d6000fd5b505050506040513d601f19601f82011682018060405250810190620009ed919062001cc5565b604051806101400160405280600a906020820280368337509192915050565b6110748062001cea83390190565b82805462001302906200195b565b90600052602060002090601f01602090048101928262001326576000855562001371565b82601f106200134157805160ff191683800117855562001371565b8280016001018555821562001371579182015b828111156200137157825182559160200191906001019062001354565b506200137f92915062001383565b5090565b5b808211156200137f576000815560010162001384565b600060208284031215620013ad57600080fd5b5035919050565b60005b83811015620013d1578181015183820152602001620013b7565b83811115620013e1576000848401525b50505050565b6000815180845262001401816020860160208601620013b4565b601f01601f19169290920160200192915050565b6020815260006200142a6020830184620013e7565b9392505050565b6101408101818360005b600a8110156200145c5781518352602092830192909101906001016200143b565b50505092915050565b6020808252825182820181905260009190848201906040850190845b818110156200149f5783518352928401929184019160010162001481565b50909695505050505050565b80356001600160e81b0381168114620014c357600080fd5b919050565b600060208284031215620014db57600080fd5b6200142a82620014ab565b600081518084526020808501808196508360051b8101915082860160005b85811015620015325782840389526200151f848351620013e7565b9885019893509084019060010162001504565b5091979650505050505050565b805182526000602082015160c060208501526200156060c0850182620013e7565b9050604083015184820360408601526200157b8282620013e7565b91505060608301518482036060860152620015978282620014e6565b9150506080830151608085015260a083015160a08501528091505092915050565b6000602080830181845280855180835260408601915060408160051b870101925083870160005b828110156200161157603f19888603018452620015fe8583516200153f565b94509285019290850190600101620015df565b5092979650505050505050565b634e487b7160e01b600052604160045260246000fd5b604051610100810167ffffffffffffffff811182821017156200165b576200165b6200161e565b60405290565b604051601f8201601f1916810167ffffffffffffffff811182821017156200168d576200168d6200161e565b604052919050565b600067ffffffffffffffff821115620016b257620016b26200161e565b50601f01601f191660200190565b600082601f830112620016d257600080fd5b8135620016e9620016e38262001695565b62001661565b818152846020838601011115620016ff57600080fd5b816020850160208301376000918101602001919091529392505050565b600067ffffffffffffffff8211156200173957620017396200161e565b5060051b60200190565b600080600080600060a086880312156200175c57600080fd5b853567ffffffffffffffff808211156200177557600080fd5b6200178389838a01620016c0565b96506020915081880135818111156200179b57600080fd5b620017a98a828b01620016c0565b965050604088013581811115620017bf57600080fd5b8801601f81018a13620017d157600080fd5b8035620017e2620016e3826200171c565b81815260059190911b8201840190848101908c8311156200180257600080fd5b8584015b838110156200183f57803586811115620018205760008081fd5b620018308f8983890101620016c0565b84525091860191860162001806565b50999c989b5098996060810135995060800135979650505050505050565b600080604083850312156200187157600080fd5b6200187c83620014ab565b946020939093013593505050565b60008060008060006101808688031215620018a457600080fd5b853567ffffffffffffffff811115620018bc57600080fd5b620018ca88828901620016c0565b955050602087603f880112620018df57600080fd5b620018e962001634565b8061012089018a811115620018fd57600080fd5b838a015b818110156200191a578035845292840192840162001901565b50909650359450505061014086013591506200193a6101608701620014ab565b90509295509295909350565b6020815260006200142a60208301846200153f565b600181811c908216806200197057607f821691505b602082108114156200199257634e487b7160e01b600052602260045260246000fd5b50919050565b6000610140808385031215620019ad57600080fd5b83601f840112620019bd57600080fd5b60405181810181811067ffffffffffffffff82111715620019e257620019e26200161e565b604052908301908085831115620019f857600080fd5b845b8381101562001a14578051825260209182019101620019fa565b509095945050505050565b60006020828403121562001a3257600080fd5b5051919050565b600062001a4a620016e38462001695565b905082815283838301111562001a5f57600080fd5b6200142a836020830184620013b4565b60006020828403121562001a8257600080fd5b815167ffffffffffffffff81111562001a9a57600080fd5b8201601f8101841362001aac57600080fd5b62001abd8482516020840162001a39565b949350505050565b6000602080838503121562001ad957600080fd5b825167ffffffffffffffff8082111562001af257600080fd5b818501915085601f83011262001b0757600080fd5b815162001b18620016e3826200171c565b81815260059190911b8301840190848101908883111562001b3857600080fd5b8585015b8381101562001b8b5780518581111562001b565760008081fd5b8601603f81018b1362001b695760008081fd5b62001b7c8b898301516040840162001a39565b84525091860191860162001b3c565b5098975050505050505050565b634e487b7160e01b600052603260045260246000fd5b634e487b7160e01b600052601160045260246000fd5b600060001982141562001bdb5762001bdb62001bae565b5060010190565b86815260c06020820152600062001bfd60c0830188620013e7565b828103604084015262001c118188620013e7565b9050828103606084015262001c278187620014e6565b6080840195909552505060a00152949350505050565b6000821982111562001c535762001c5362001bae565b500190565b600061018080835262001c6e81840189620013e7565b91505060208083018760005b600881101562001c995781518352918301919083019060010162001c7a565b505050506101208201949094526101408101929092526001600160e81b03166101609091015292915050565b60006020828403121562001cd857600080fd5b815180151581146200142a57600080fdfe60806040523480156200001157600080fd5b5060405162001074380380620010748339810160408190526200003491620002eb565b600086905584516200004e9060019060208801906200008f565b508351620000649060029060208701906200008f565b5082516200007a9060059060208601906200011e565b50600391909155600455506200047f92505050565b8280546200009d9062000442565b90600052602060002090601f016020900481019282620000c157600085556200010c565b82601f10620000dc57805160ff19168380011785556200010c565b828001600101855582156200010c579182015b828111156200010c578251825591602001919060010190620000ef565b506200011a9291506200017e565b5090565b82805482825590600052602060002090810192821562000170579160200282015b828111156200017057825180516200015f9184916020909101906200008f565b50916020019190600101906200013f565b506200011a92915062000195565b5b808211156200011a57600081556001016200017f565b808211156200011a576000620001ac8282620001b6565b5060010162000195565b508054620001c49062000442565b6000825580601f10620001d5575050565b601f016020900490600052602060002090810190620001f591906200017e565b50565b634e487b7160e01b600052604160045260246000fd5b604051601f8201601f191681016001600160401b0381118282101715620002395762000239620001f8565b604052919050565b60006001600160401b038311156200025d576200025d620001f8565b602062000273601f8501601f191682016200020e565b91508382528484840111156200028857600080fd5b60005b84811015620002a6578381015183820183015281016200028b565b84811115620002b85760008286850101525b50509392505050565b600082601f830112620002d357600080fd5b620002e48383516020850162000241565b9392505050565b60008060008060008060c087890312156200030557600080fd5b865160208801519096506001600160401b03808211156200032557600080fd5b620003338a838b01620002c1565b965060408901519150808211156200034a57600080fd5b620003588a838b01620002c1565b955060608901519150808211156200036f57600080fd5b818901915089601f8301126200038457600080fd5b815181811115620003995762000399620001f8565b8060051b620003ab602082016200020e565b9182526020818501810192908101908d841115620003c857600080fd5b6020860192505b838310156200042157825185811115620003e857600080fd5b8601603f81018f13620003fa57600080fd5b6200040e8f60208301516040840162000241565b83525060209283019290910190620003cf565b8098505050505050506080870151915060a087015190509295509295509295565b600181811c908216806200045757607f821691505b602082108114156200047957634e487b7160e01b600052602260045260246000fd5b50919050565b610be5806200048f6000396000f3fe608060405234801561001057600080fd5b50600436106100b45760003560e01c806378f305c61161007157806378f305c614610155578063a51346201461015d578063af640d0f14610172578063b13564881461017b578063bf7f3cfe14610183578063e9dc06141461019857600080fd5b8063013cf08b146100b957806302f6df8e146100e257806306fdde031461011b5780634e69d5601461012357806362564c48146101385780637284e4161461014d575b600080fd5b6100cc6100c73660046107d6565b6101ad565b6040516100d9919061084b565b60405180910390f35b61010d6100f036600461087b565b805160208183018101805160068252928201919093012091525481565b6040519081526020016100d9565b6100cc610259565b61012b610266565b6040516100d99190610942565b61014061028e565b6040516100d9919061096a565b6100cc610367565b60035461010d565b610165610374565b6040516100d991906109f5565b61010d60005481565b60045461010d565b61018b610590565b6040516100d99190610a08565b6101ab6101a636600461087b565b61072b565b005b600581815481106101bd57600080fd5b9060005260206000200160009150905080546101d890610a5d565b80601f016020809104026020016040519081016040528092919081815260200182805461020490610a5d565b80156102515780601f1061022657610100808354040283529160200191610251565b820191906000526020600020905b81548152906001019060200180831161023457829003601f168201915b505050505081565b600180546101d890610a5d565b60006003544210156102785750600190565b6004544210156102885750600090565b50600290565b60606005805480602002602001604051908101604052809291908181526020016000905b8282101561035e5783829060005260206000200180546102d190610a5d565b80601f01602080910402602001604051908101604052809291908181526020018280546102fd90610a5d565b801561034a5780601f1061031f5761010080835404028352916020019161034a565b820191906000526020600020905b81548152906001019060200180831161032d57829003601f168201915b5050505050815260200190600101906102b2565b50505050905090565b600280546101d890610a5d565b6040805180820190915260608152600060208201526002610393610266565b60028111156103a4576103a461092c565b146104105760405162461bcd60e51b815260206004820152603160248201527f526573756c747320617265206465636c61726564206f6e6c792061667465722060448201527074686520656c656374696f6e20656e647360781b60648201526084015b60405180910390fd5b600061042f604051806040016040528060608152602001600081525090565b600060208201525b60055482101561058a57806020015160066005848154811061045b5761045b610a98565b906000526020600020016040516104729190610aae565b9081526020016040518091039020541115610578576005828154811061049a5761049a610a98565b9060005260206000200180546104af90610a5d565b80601f01602080910402602001604051908101604052809291908181526020018280546104db90610a5d565b80156105285780601f106104fd57610100808354040283529160200191610528565b820191906000526020600020905b81548152906001019060200180831161050b57829003601f168201915b505050918352505060058054600691908490811061054857610548610a98565b9060005260206000200160405161055f9190610aae565b9081526020016040518091039020548160200181815250505b8161058281610b60565b925050610437565b92915050565b606060008060058054905067ffffffffffffffff8111156105b3576105b3610865565b6040519080825280602002602001820160405280156105f957816020015b6040805180820190915260608152600060208201528152602001906001900390816105d15790505b5090505b60055482101561058a5760405180604001604052806005848154811061062557610625610a98565b90600052602060002001805461063a90610a5d565b80601f016020809104026020016040519081016040528092919081815260200182805461066690610a5d565b80156106b35780601f10610688576101008083540402835291602001916106b3565b820191906000526020600020905b81548152906001019060200180831161069657829003601f168201915b505050505081526020016006600585815481106106d2576106d2610a98565b906000526020600020016040516106e99190610aae565b90815260200160405180910390205481525081838151811061070d5761070d610a98565b6020026020010181905250818061072390610b60565b9250506105fd565b6000610735610266565b60028111156107465761074661092c565b1461079f5760405162461bcd60e51b815260206004820152602360248201527f456c656374696f6e206e6565647320746f2062652061637469766520746f20766044820152626f746560e81b6064820152608401610407565b60016006826040516107b19190610b7b565b908152602001604051809103902060008282546107ce9190610b97565b909155505050565b6000602082840312156107e857600080fd5b5035919050565b60005b8381101561080a5781810151838201526020016107f2565b83811115610819576000848401525b50505050565b600081518084526108378160208601602086016107ef565b601f01601f19169290920160200192915050565b60208152600061085e602083018461081f565b9392505050565b634e487b7160e01b600052604160045260246000fd5b60006020828403121561088d57600080fd5b813567ffffffffffffffff808211156108a557600080fd5b818401915084601f8301126108b957600080fd5b8135818111156108cb576108cb610865565b604051601f8201601f19908116603f011681019083821181831017156108f3576108f3610865565b8160405282815287602084870101111561090c57600080fd5b826020860160208301376000928101602001929092525095945050505050565b634e487b7160e01b600052602160045260246000fd5b602081016003831061096457634e487b7160e01b600052602160045260246000fd5b91905290565b6000602080830181845280855180835260408601915060408160051b870101925083870160005b828110156109bf57603f198886030184526109ad85835161081f565b94509285019290850190600101610991565b5092979650505050505050565b60008151604084526109e1604085018261081f565b602093840151949093019390935250919050565b60208152600061085e60208301846109cc565b6000602080830181845280855180835260408601915060408160051b870101925083870160005b828110156109bf57603f19888603018452610a4b8583516109cc565b94509285019290850190600101610a2f565b600181811c90821680610a7157607f821691505b60208210811415610a9257634e487b7160e01b600052602260045260246000fd5b50919050565b634e487b7160e01b600052603260045260246000fd5b600080835481600182811c915080831680610aca57607f831692505b6020808410821415610aea57634e487b7160e01b86526022600452602486fd5b818015610afe5760018114610b0f57610b3c565b60ff19861689528489019650610b3c565b60008a81526020902060005b86811015610b345781548b820152908501908301610b1b565b505084890196505b509498975050505050505050565b634e487b7160e01b600052601160045260246000fd5b6000600019821415610b7457610b74610b4a565b5060010190565b60008251610b8d8184602087016107ef565b9190910192915050565b60008219821115610baa57610baa610b4a565b50019056fea2646970667358221220ed40e12ec8e2061ec9c20fb9284680d97a3507e21763a7aff988352afd96441c64736f6c63430008090033a2646970667358221220c2381a2068932b5c6ad5e48ca7611553497f6bb4ea25245c32fb444a6097103664736f6c63430008090033",
  "linkReferences": {},
  "deployedLinkReferences": {}
}