{
  "_format": "hh-sol-artifact-1",
  "contractName": "OneVote",
  "sourceName": "contracts/OneVote.sol",
  "abi": [
    {
      "inputs": [
        {
          "internalType": "contract Semaphore",
          "name": "_semaphore",
          "type": "address"
        }
      ],
      "stateMutability": "nonpayable",
      "type": "constructor"
    },
    {
      "anonymous": false,
      "inputs": [
        {
          "indexed": true,
          "internalType": "uint256",
          "name": "identityCommitment",
          "type": "uint256"
        }
      ],
      "name": "IdentityCommitment",
      "type": "event"
    },
    {
      "anonymous": false,
      "inputs": [
        {
          "indexed": false,
          "internalType": "uint256",
          "name": "root",
          "type": "uint256"
        }
      ],
      "name": "Rooot",
      "type": "event"
    },
    {
      "anonymous": false,
      "inputs": [
        {
          "indexed": true,
          "internalType": "uint256",
          "name": "signalIndex",
          "type": "uint256"
        }
      ],
      "name": "SignalBroadcastByClient",
      "type": "event"
    },
    {
      "inputs": [
        {
          "internalType": "uint232",
          "name": "_externalNullifier",
          "type": "uint232"
        }
      ],
      "name": "addExternalNullifier",
      "outputs": [],
      "stateMutability": "nonpayable",
      "type": "function"
    },
    {
      "inputs": [
        {
          "internalType": "string",
          "name": "_name",
          "type": "string"
        },
        {
          "internalType": "string",
          "name": "_description",
          "type": "string"
        },
        {
          "internalType": "bytes[]",
          "name": "_proposals",
          "type": "bytes[]"
        }
      ],
      "name": "createVotingProcess",
      "outputs": [],
      "stateMutability": "nonpayable",
      "type": "function"
    },
    {
      "inputs": [
        {
          "internalType": "uint256",
          "name": "_index",
          "type": "uint256"
        }
      ],
      "name": "getExternalNullifierBySignalIndex",
      "outputs": [
        {
          "internalType": "uint256",
          "name": "",
          "type": "uint256"
        }
      ],
      "stateMutability": "view",
      "type": "function"
    },
    {
      "inputs": [
        {
          "internalType": "uint256",
          "name": "_index",
          "type": "uint256"
        }
      ],
      "name": "getIdentityCommitment",
      "outputs": [
        {
          "internalType": "uint256",
          "name": "",
          "type": "uint256"
        }
      ],
      "stateMutability": "view",
      "type": "function"
    },
    {
      "inputs": [],
      "name": "getIdentityCommitments",
      "outputs": [
        {
          "internalType": "uint256[]",
          "name": "",
          "type": "uint256[]"
        }
      ],
      "stateMutability": "view",
      "type": "function"
    },
    {
      "inputs": [],
      "name": "getNextSignalIndex",
      "outputs": [
        {
          "internalType": "uint256",
          "name": "",
          "type": "uint256"
        }
      ],
      "stateMutability": "view",
      "type": "function"
    },
    {
      "inputs": [
        {
          "internalType": "uint256",
          "name": "id",
          "type": "uint256"
        }
      ],
      "name": "getProcess",
      "outputs": [
        {
          "components": [
            {
              "internalType": "uint256",
              "name": "id",
              "type": "uint256"
            },
            {
              "internalType": "string",
              "name": "name",
              "type": "string"
            },
            {
              "internalType": "string",
              "name": "description",
              "type": "string"
            },
            {
              "internalType": "bytes[]",
              "name": "proposals",
              "type": "bytes[]"
            }
          ],
          "internalType": "struct OneVote.ProcessDTO",
          "name": "",
          "type": "tuple"
        }
      ],
      "stateMutability": "view",
      "type": "function"
    },
    {
      "inputs": [],
      "name": "getProcesses",
      "outputs": [
        {
          "components": [
            {
              "internalType": "uint256",
              "name": "id",
              "type": "uint256"
            },
            {
              "internalType": "string",
              "name": "name",
              "type": "string"
            },
            {
              "internalType": "string",
              "name": "description",
              "type": "string"
            },
            {
              "internalType": "bytes[]",
              "name": "proposals",
              "type": "bytes[]"
            }
          ],
          "internalType": "struct OneVote.ProcessDTO[]",
          "name": "",
          "type": "tuple[]"
        }
      ],
      "stateMutability": "view",
      "type": "function"
    },
    {
      "inputs": [
        {
          "internalType": "uint256",
          "name": "id",
          "type": "uint256"
        }
      ],
      "name": "getRootHistory",
      "outputs": [
        {
          "internalType": "bool",
          "name": "",
          "type": "bool"
        }
      ],
      "stateMutability": "view",
      "type": "function"
    },
    {
      "inputs": [],
      "name": "getRoots",
      "outputs": [
        {
          "internalType": "uint256[10]",
          "name": "",
          "type": "uint256[10]"
        }
      ],
      "stateMutability": "view",
      "type": "function"
    },
    {
      "inputs": [
        {
          "internalType": "uint256",
          "name": "_index",
          "type": "uint256"
        }
      ],
      "name": "getSignalBySignalIndex",
      "outputs": [
        {
          "internalType": "bytes",
          "name": "",
          "type": "bytes"
        }
      ],
      "stateMutability": "view",
      "type": "function"
    },
    {
      "inputs": [
        {
          "internalType": "uint256",
          "name": "",
          "type": "uint256"
        }
      ],
      "name": "identityCommitments",
      "outputs": [
        {
          "internalType": "uint256",
          "name": "",
          "type": "uint256"
        }
      ],
      "stateMutability": "view",
      "type": "function"
    },
    {
      "inputs": [
        {
          "internalType": "uint256",
          "name": "_leaf",
          "type": "uint256"
        }
      ],
      "name": "insertIdentityAsClient",
      "outputs": [],
      "stateMutability": "nonpayable",
      "type": "function"
    },
    {
      "inputs": [],
      "name": "nextSignalIndex",
      "outputs": [
        {
          "internalType": "uint256",
          "name": "",
          "type": "uint256"
        }
      ],
      "stateMutability": "view",
      "type": "function"
    },
    {
      "inputs": [],
      "name": "semaphore",
      "outputs": [
        {
          "internalType": "contract Semaphore",
          "name": "",
          "type": "address"
        }
      ],
      "stateMutability": "view",
      "type": "function"
    },
    {
      "inputs": [
        {
          "internalType": "uint256",
          "name": "",
          "type": "uint256"
        }
      ],
      "name": "signalIndexToExternalNullifier",
      "outputs": [
        {
          "internalType": "uint256",
          "name": "",
          "type": "uint256"
        }
      ],
      "stateMutability": "view",
      "type": "function"
    },
    {
      "inputs": [
        {
          "internalType": "uint256",
          "name": "",
          "type": "uint256"
        }
      ],
      "name": "signalIndexToSignal",
      "outputs": [
        {
          "internalType": "bytes",
          "name": "",
          "type": "bytes"
        }
      ],
      "stateMutability": "view",
      "type": "function"
    },
    {
      "inputs": [
        {
          "internalType": "uint232",
          "name": "",
          "type": "uint232"
        },
        {
          "internalType": "uint256",
          "name": "",
          "type": "uint256"
        }
      ],
      "name": "signalsForNullifier",
      "outputs": [
        {
          "internalType": "bytes",
          "name": "",
          "type": "bytes"
        }
      ],
      "stateMutability": "view",
      "type": "function"
    },
    {
      "inputs": [
        {
          "internalType": "bytes",
          "name": "_signal",
          "type": "bytes"
        },
        {
          "internalType": "uint256[8]",
          "name": "_proof",
          "type": "uint256[8]"
        },
        {
          "internalType": "uint256",
          "name": "_root",
          "type": "uint256"
        },
        {
          "internalType": "uint256",
          "name": "_nullifiersHash",
          "type": "uint256"
        },
        {
          "internalType": "uint232",
          "name": "_externalNullifier",
          "type": "uint232"
        }
      ],
      "name": "vote",
      "outputs": [],
      "stateMutability": "nonpayable",
      "type": "function"
    },
    {
      "inputs": [
        {
          "internalType": "uint256",
          "name": "",
          "type": "uint256"
        }
      ],
      "name": "votingProcesses",
      "outputs": [
        {
          "internalType": "contract VotingProcess",
          "name": "",
          "type": "address"
        }
      ],
      "stateMutability": "view",
      "type": "function"
    }
  ],
  "bytecode": "0x6080604052600060065534801561001557600080fd5b506040516127e53803806127e583398101604081905261003491610059565b600780546001600160a01b0319166001600160a01b0392909216919091179055610089565b60006020828403121561006b57600080fd5b81516001600160a01b038116811461008257600080fd5b9392505050565b61274d806100986000396000f3fe60806040523480156200001157600080fd5b5060043610620001455760003560e01c80638fd0de5711620000bb578063c9ed0198116200007a578063c9ed019814620002e4578063cb7be8cf14620002fb578063d0851a711462000312578063f9cdb5cd1462000338578063ffac0046146200035b57600080fd5b80638fd0de571462000271578063911ca41e1462000288578063b30b483f146200029f578063bde1061214620002b6578063c6cdfa6b14620002cd57600080fd5b8063539f38b21162000108578063539f38b214620001fe5780636e52b2391462000217578063740afb7714620002305780637b5d253414620002535780638d2d593b146200026757600080fd5b8063040c46ec146200014a57806327acf71b146200019357806335a5e06d14620001b95780634056679014620001d257806349b0b91014620001eb575b600080fd5b620001766200015b3660046200111b565b6000602081905290815260409020546001600160a01b031681565b6040516001600160a01b0390911681526020015b60405180910390f35b620001aa620001a43660046200111b565b62000383565b6040516200018a919062001196565b620001c362000425565b6040516200018a9190620011b2565b620001dc620004bf565b6040516200018a9190620011e6565b6006545b6040519081526020016200018a565b620002156200020f36600462001249565b62000519565b005b6200022162000584565b6040516200018a919062001321565b620001ef620002413660046200111b565b60009081526004602052604090205490565b60075462000176906001600160a01b031681565b620001ef60065481565b620001ef620002823660046200111b565b62000895565b620001aa620002993660046200111b565b620008b7565b620001ef620002b03660046200111b565b62000961565b62000215620002c73660046200111b565b6200098b565b620001aa620002de36600462001387565b62000a6d565b62000215620002f5366004620014d9565b62000aa8565b620002156200030c366004620015e3565b62000ba6565b62000329620003233660046200111b565b62000d83565b6040516200018a91906200169f565b620001ef620003493660046200111b565b60046020526000908152604090205481565b620003726200036c3660046200111b565b62000fc7565b60405190151581526020016200018a565b600360205260009081526040902080546200039e90620016b4565b80601f0160208091040260200160405190810160405280929190818152602001828054620003cc90620016b4565b80156200041d5780601f10620003f1576101008083540402835291602001916200041d565b820191906000526020600020905b815481529060010190602001808311620003ff57829003601f168201915b505050505081565b6200042f62001048565b600760009054906101000a90046001600160a01b03166001600160a01b03166335a5e06d6040518163ffffffff1660e01b81526004016101406040518083038186803b1580156200047f57600080fd5b505afa15801562000494573d6000803e3d6000fd5b505050506040513d601f19601f82011682018060405250810190620004ba9190620016f1565b905090565b606060028054806020026020016040519081016040528092919081815260200182805480156200050f57602002820191906000526020600020905b815481526020019060010190808311620004fa575b5050505050905090565b6007546040516329cf9c5960e11b81526001600160e81b03831660048201526001600160a01b039091169063539f38b290602401600060405180830381600087803b1580156200056857600080fd5b505af11580156200057d573d6000803e3d6000fd5b5050505050565b606060008060015467ffffffffffffffff811115620005a757620005a7620013b4565b6040519080825280602002602001820160405280156200060657816020015b620005f26040518060800160405280600081526020016060815260200160608152602001606081525090565b815260200190600190039081620005c65790505b5090505b6001548210156200088f57604080516080810180835260008581526020818152908490205463af640d0f60e01b9092529251919283926001600160a01b039092169163af640d0f9160848086019290818703018186803b1580156200066e57600080fd5b505afa15801562000683573d6000803e3d6000fd5b505050506040513d601f19601f82011682018060405250810190620006a9919062001778565b81526000848152602081815260408083205481516306fdde0360e01b8152915192909401936001600160a01b0316926306fdde0392600480840193829003018186803b158015620006f957600080fd5b505afa1580156200070e573d6000803e3d6000fd5b505050506040513d6000823e601f3d908101601f19168201604052620007389190810190620017c8565b8152600084815260208181526040808320548151633942720b60e11b8152915192909401936001600160a01b031692637284e41692600480840193829003018186803b1580156200078857600080fd5b505afa1580156200079d573d6000803e3d6000fd5b505050506040513d6000823e601f3d908101601f19168201604052620007c79190810190620017c8565b8152600084815260208181526040808320548151630c4ac98960e31b8152915192909401936001600160a01b0316926362564c4892600480840193829003018186803b1580156200081757600080fd5b505afa1580156200082c573d6000803e3d6000fd5b505050506040513d6000823e601f3d908101601f191682016040526200085691908101906200181e565b8152508183815181106200086e576200086e620018f1565b6020026020010181905250818062000886906200191d565b9250506200060a565b92915050565b60028181548110620008a657600080fd5b600091825260209091200154905081565b6000818152600360205260409020805460609190620008d690620016b4565b80601f01602080910402602001604051908101604052809291908181526020018280546200090490620016b4565b8015620009555780601f10620009295761010080835404028352916020019162000955565b820191906000526020600020905b8154815290600101906020018083116200093757829003601f168201915b50505050509050919050565b600060028281548110620009795762000979620018f1565b90600052602060002001549050919050565b6007546040516336c077e560e11b8152600481018390526001600160a01b0390911690636d80efca90602401602060405180830381600087803b158015620009d257600080fd5b505af1158015620009e7573d6000803e3d6000fd5b505050506040513d601f19601f8201168201806040525081019062000a0d919062001778565b506002805460018101825560009182527f405787fa12a823e0f2b7631cc41b3ba8828b3321ca811111fa75cd3aa3bb5ace0182905560405182917f31d0d431762af1b333d4fef318e03efc7b702fe91dd1f0aa2c72e699bebcb48991a250565b6005602052816000526040600020818154811062000a8a57600080fd5b906000526020600020016000915091505080546200039e90620016b4565b600181511162000b0c5760405162461bcd60e51b815260206004820152602560248201527f5468657265206e65656420746f206265206174206c6561737420322070726f706044820152646f73616c7360d81b606482015260840160405180910390fd5b600060015484848460405162000b229062001067565b62000b3194939291906200193b565b604051809103906000f08015801562000b4e573d6000803e3d6000fd5b50905062000b5e60015462000519565b60018054600090815260208190526040812080546001600160a01b0319166001600160a01b038516179055815482919062000b9b9083906200198b565b909155505050505050565b6006546000818152600360209081526040909120875162000bca9289019062001075565b5060065460009081526004602090815260408083206001600160e81b038616908190558352600582528220805460018101825590835291819020885162000c1993919091019189019062001075565b506001600160e81b03821660009081526020819052604090819020549051633a77018560e21b81526001600160a01b039091169063e9dc06149062000c6390899060040162001196565b600060405180830381600087803b15801562000c7e57600080fd5b505af115801562000c93573d6000803e3d6000fd5b50506006805492509050600062000caa836200191d565b90915550506040518481527fc22cfa8a3523410b962de1755e11d5abcb562e0199fd322dda29198947f18c939060200160405180910390a1600754604051630e57596f60e01b81526001600160a01b0390911690630e57596f9062000d1c9089908990899089908990600401620019a6565b600060405180830381600087803b15801562000d3757600080fd5b505af115801562000d4c573d6000803e3d6000fd5b50506040518392507faa676fd106f1023de6c9eafff9af5bc8e299b3493d3aa816a3278a15d055657b9150600090a2505050505050565b62000daf6040518060800160405280600081526020016060815260200160608152602001606081525090565b600082815260208181526040918290205482516080810180855263af640d0f60e01b905292516001600160a01b0390911692918291849163af640d0f916084808601929190818703018186803b15801562000e0957600080fd5b505afa15801562000e1e573d6000803e3d6000fd5b505050506040513d601f19601f8201168201806040525081019062000e44919062001778565b8152602001826001600160a01b03166306fdde036040518163ffffffff1660e01b815260040160006040518083038186803b15801562000e8357600080fd5b505afa15801562000e98573d6000803e3d6000fd5b505050506040513d6000823e601f3d908101601f1916820160405262000ec29190810190620017c8565b8152602001826001600160a01b0316637284e4166040518163ffffffff1660e01b815260040160006040518083038186803b15801562000f0157600080fd5b505afa15801562000f16573d6000803e3d6000fd5b505050506040513d6000823e601f3d908101601f1916820160405262000f409190810190620017c8565b8152602001826001600160a01b03166362564c486040518163ffffffff1660e01b815260040160006040518083038186803b15801562000f7f57600080fd5b505afa15801562000f94573d6000803e3d6000fd5b505050506040513d6000823e601f3d908101601f1916820160405262000fbe91908101906200181e565b90529392505050565b6007546040516378e310f760e11b8152600481018390526000916001600160a01b03169063f1c621ee9060240160206040518083038186803b1580156200100d57600080fd5b505afa15801562001022573d6000803e3d6000fd5b505050506040513d601f19601f820116820180604052508101906200088f919062001a13565b604051806101400160405280600a906020820280368337509192915050565b610ce08062001a3883390190565b8280546200108390620016b4565b90600052602060002090601f016020900481019282620010a75760008555620010f2565b82601f10620010c257805160ff1916838001178555620010f2565b82800160010185558215620010f2579182015b82811115620010f2578251825591602001919060010190620010d5565b506200110092915062001104565b5090565b5b8082111562001100576000815560010162001105565b6000602082840312156200112e57600080fd5b5035919050565b60005b838110156200115257818101518382015260200162001138565b8381111562001162576000848401525b50505050565b600081518084526200118281602086016020860162001135565b601f01601f19169290920160200192915050565b602081526000620011ab602083018462001168565b9392505050565b6101408101818360005b600a811015620011dd578151835260209283019290910190600101620011bc565b50505092915050565b6020808252825182820181905260009190848201906040850190845b81811015620012205783518352928401929184019160010162001202565b50909695505050505050565b80356001600160e81b03811681146200124457600080fd5b919050565b6000602082840312156200125c57600080fd5b620011ab826200122c565b600081518084526020808501808196508360051b8101915082860160005b85811015620012b3578284038952620012a084835162001168565b9885019893509084019060010162001285565b5091979650505050505050565b805182526000602082015160806020850152620012e1608085018262001168565b905060408301518482036040860152620012fc828262001168565b9150506060830151848203606086015262001318828262001267565b95945050505050565b6000602080830181845280855180835260408601915060408160051b870101925083870160005b828110156200137a57603f1988860301845262001367858351620012c0565b9450928501929085019060010162001348565b5092979650505050505050565b600080604083850312156200139b57600080fd5b620013a6836200122c565b946020939093013593505050565b634e487b7160e01b600052604160045260246000fd5b604051610100810167ffffffffffffffff81118282101715620013f157620013f1620013b4565b60405290565b604051601f8201601f1916810167ffffffffffffffff81118282101715620014235762001423620013b4565b604052919050565b600067ffffffffffffffff821115620014485762001448620013b4565b50601f01601f191660200190565b600082601f8301126200146857600080fd5b81356200147f62001479826200142b565b620013f7565b8181528460208386010111156200149557600080fd5b816020850160208301376000918101602001919091529392505050565b600067ffffffffffffffff821115620014cf57620014cf620013b4565b5060051b60200190565b600080600060608486031215620014ef57600080fd5b833567ffffffffffffffff808211156200150857600080fd5b620015168783880162001456565b94506020915081860135818111156200152e57600080fd5b6200153c8882890162001456565b9450506040860135818111156200155257600080fd5b8601601f810188136200156457600080fd5b8035620015756200147982620014b2565b81815260059190911b8201840190848101908a8311156200159557600080fd5b8584015b83811015620015d257803586811115620015b35760008081fd5b620015c38d898389010162001456565b84525091860191860162001599565b508096505050505050509250925092565b60008060008060006101808688031215620015fd57600080fd5b853567ffffffffffffffff8111156200161557600080fd5b620016238882890162001456565b955050602087603f8801126200163857600080fd5b62001642620013ca565b8061012089018a8111156200165657600080fd5b838a015b818110156200167357803584529284019284016200165a565b50909650359450505061014086013591506200169361016087016200122c565b90509295509295909350565b602081526000620011ab6020830184620012c0565b600181811c90821680620016c957607f821691505b60208210811415620016eb57634e487b7160e01b600052602260045260246000fd5b50919050565b60006101408083850312156200170657600080fd5b83601f8401126200171657600080fd5b60405181810181811067ffffffffffffffff821117156200173b576200173b620013b4565b6040529083019080858311156200175157600080fd5b845b838110156200176d57805182526020918201910162001753565b509095945050505050565b6000602082840312156200178b57600080fd5b5051919050565b6000620017a362001479846200142b565b9050828152838383011115620017b857600080fd5b620011ab83602083018462001135565b600060208284031215620017db57600080fd5b815167ffffffffffffffff811115620017f357600080fd5b8201601f810184136200180557600080fd5b620018168482516020840162001792565b949350505050565b600060208083850312156200183257600080fd5b825167ffffffffffffffff808211156200184b57600080fd5b818501915085601f8301126200186057600080fd5b8151620018716200147982620014b2565b81815260059190911b830184019084810190888311156200189157600080fd5b8585015b83811015620018e457805185811115620018af5760008081fd5b8601603f81018b13620018c25760008081fd5b620018d58b898301516040840162001792565b84525091860191860162001895565b5098975050505050505050565b634e487b7160e01b600052603260045260246000fd5b634e487b7160e01b600052601160045260246000fd5b600060001982141562001934576200193462001907565b5060010190565b84815260806020820152600062001956608083018662001168565b82810360408401526200196a818662001168565b9050828103606084015262001980818562001267565b979650505050505050565b60008219821115620019a157620019a162001907565b500190565b6000610180808352620019bc8184018962001168565b91505060208083018760005b6008811015620019e757815183529183019190830190600101620019c8565b505050506101208201949094526101408101929092526001600160e81b03166101609091015292915050565b60006020828403121562001a2657600080fd5b81518015158114620011ab57600080fdfe60806040523480156200001157600080fd5b5060405162000ce038038062000ce08339810160408190526200003491620002e1565b600084905582516200004e90600190602086019062000085565b5081516200006490600290602085019062000085565b5080516200007a90600390602084019062000114565b50505050506200045c565b82805462000093906200041f565b90600052602060002090601f016020900481019282620000b7576000855562000102565b82601f10620000d257805160ff191683800117855562000102565b8280016001018555821562000102579182015b8281111562000102578251825591602001919060010190620000e5565b506200011092915062000174565b5090565b82805482825590600052602060002090810192821562000166579160200282015b828111156200016657825180516200015591849160209091019062000085565b509160200191906001019062000135565b50620001109291506200018b565b5b8082111562000110576000815560010162000175565b8082111562000110576000620001a28282620001ac565b506001016200018b565b508054620001ba906200041f565b6000825580601f10620001cb575050565b601f016020900490600052602060002090810190620001eb919062000174565b50565b634e487b7160e01b600052604160045260246000fd5b604051601f8201601f191681016001600160401b03811182821017156200022f576200022f620001ee565b604052919050565b60006001600160401b03831115620002535762000253620001ee565b602062000269601f8501601f1916820162000204565b91508382528484840111156200027e57600080fd5b60005b848110156200029c5783810151838201830152810162000281565b84811115620002ae5760008286850101525b50509392505050565b600082601f830112620002c957600080fd5b620002da8383516020850162000237565b9392505050565b60008060008060808587031215620002f857600080fd5b8451602080870151919550906001600160401b03808211156200031a57600080fd5b6200032889838a01620002b7565b95506040915081880151818111156200034057600080fd5b6200034e8a828b01620002b7565b9550506060880151818111156200036457600080fd5b8801601f81018a136200037657600080fd5b8051828111156200038b576200038b620001ee565b8060051b6200039c86820162000204565b918252828101860191868101908d841115620003b757600080fd5b87850192505b838310156200040d57825186811115620003d75760008081fd5b8501603f81018f13620003ea5760008081fd5b620003fc8f8a8301518a840162000237565b8352509187019190870190620003bd565b9a9d999c50979a505050505050505050565b600181811c908216806200043457607f821691505b602082108114156200045657634e487b7160e01b600052602260045260246000fd5b50919050565b610874806200046c6000396000f3fe608060405234801561001057600080fd5b50600436106100885760003560e01c80637284e4161161005b5780637284e4161461010c578063af640d0f14610114578063bf7f3cfe1461011d578063e9dc06141461013257600080fd5b8063013cf08b1461008d57806302f6df8e146100b657806306fdde03146100ef57806362564c48146100f7575b600080fd5b6100a061009b3660046104be565b610147565b6040516100ad9190610533565b60405180910390f35b6100e16100c4366004610563565b805160208183018101805160048252928201919093012091525481565b6040519081526020016100ad565b6100a06101f3565b6100ff610200565b6040516100ad9190610614565b6100a06102d9565b6100e160005481565b6101256102e6565b6040516100ad9190610676565b610145610140366004610563565b610487565b005b6003818154811061015757600080fd5b906000526020600020016000915090508054610172906106ec565b80601f016020809104026020016040519081016040528092919081815260200182805461019e906106ec565b80156101eb5780601f106101c0576101008083540402835291602001916101eb565b820191906000526020600020905b8154815290600101906020018083116101ce57829003601f168201915b505050505081565b60018054610172906106ec565b60606003805480602002602001604051908101604052809291908181526020016000905b828210156102d0578382906000526020600020018054610243906106ec565b80601f016020809104026020016040519081016040528092919081815260200182805461026f906106ec565b80156102bc5780601f10610291576101008083540402835291602001916102bc565b820191906000526020600020905b81548152906001019060200180831161029f57829003601f168201915b505050505081526020019060010190610224565b50505050905090565b60028054610172906106ec565b606060008060038054905067ffffffffffffffff8111156103095761030961054d565b60405190808252806020026020018201604052801561034f57816020015b6040805180820190915260608152600060208201528152602001906001900390816103275790505b5090505b6003548210156104815760405180604001604052806003848154811061037b5761037b610727565b906000526020600020018054610390906106ec565b80601f01602080910402602001604051908101604052809291908181526020018280546103bc906106ec565b80156104095780601f106103de57610100808354040283529160200191610409565b820191906000526020600020905b8154815290600101906020018083116103ec57829003601f168201915b5050505050815260200160046003858154811061042857610428610727565b9060005260206000200160405161043f919061073d565b90815260200160405180910390205481525081838151811061046357610463610727565b60200260200101819052508180610479906107ef565b925050610353565b92915050565b6001600482604051610499919061080a565b908152602001604051809103902060008282546104b69190610826565b909155505050565b6000602082840312156104d057600080fd5b5035919050565b60005b838110156104f25781810151838201526020016104da565b83811115610501576000848401525b50505050565b6000815180845261051f8160208601602086016104d7565b601f01601f19169290920160200192915050565b6020815260006105466020830184610507565b9392505050565b634e487b7160e01b600052604160045260246000fd5b60006020828403121561057557600080fd5b813567ffffffffffffffff8082111561058d57600080fd5b818401915084601f8301126105a157600080fd5b8135818111156105b3576105b361054d565b604051601f8201601f19908116603f011681019083821181831017156105db576105db61054d565b816040528281528760208487010111156105f457600080fd5b826020860160208301376000928101602001929092525095945050505050565b6000602080830181845280855180835260408601915060408160051b870101925083870160005b8281101561066957603f19888603018452610657858351610507565b9450928501929085019060010161063b565b5092979650505050505050565b60006020808301818452808551808352604092508286019150828160051b87010184880160005b838110156106de57888303603f19018552815180518785526106c188860182610507565b91890151948901949094529487019492509086019060010161069d565b509098975050505050505050565b600181811c9082168061070057607f821691505b6020821081141561072157634e487b7160e01b600052602260045260246000fd5b50919050565b634e487b7160e01b600052603260045260246000fd5b600080835481600182811c91508083168061075957607f831692505b602080841082141561077957634e487b7160e01b86526022600452602486fd5b81801561078d576001811461079e576107cb565b60ff198616895284890196506107cb565b60008a81526020902060005b868110156107c35781548b8201529085019083016107aa565b505084890196505b509498975050505050505050565b634e487b7160e01b600052601160045260246000fd5b6000600019821415610803576108036107d9565b5060010190565b6000825161081c8184602087016104d7565b9190910192915050565b60008219821115610839576108396107d9565b50019056fea2646970667358221220da9914e360f413e266ad26e2074adcf9f6ddb351ba7ce3790be0aa4309cc574564736f6c63430008090033a26469706673582212205c8b4381696cc373e01f92c75b73bd7a8f328ce805c3c5d319dd9120b47637e964736f6c63430008090033",
  "linkReferences": {},
  "deployedLinkReferences": {}
}