{
  "_format": "hh-sol-artifact-1",
  "contractName": "ElectionFactory",
  "sourceName": "contracts/facets/ElectionFactory.sol",
  "abi": [
    {
      "inputs": [],
      "stateMutability": "nonpayable",
      "type": "constructor"
    },
    {
      "inputs": [
        {
          "components": [
            {
              "internalType": "uint256",
              "name": "electionID",
              "type": "uint256"
            },
            {
              "internalType": "string",
              "name": "name",
              "type": "string"
            },
            {
              "internalType": "string",
              "name": "description",
              "type": "string"
            },
            {
              "internalType": "uint256",
              "name": "startDate",
              "type": "uint256"
            },
            {
              "internalType": "uint256",
              "name": "endDate",
              "type": "uint256"
            },
            {
              "internalType": "bool",
              "name": "electionType",
              "type": "bool"
            }
          ],
          "internalType": "struct Election.ElectionInfo",
          "name": "_electionInfo",
          "type": "tuple"
        },
        {
          "internalType": "uint256",
          "name": "_ballotType",
          "type": "uint256"
        },
        {
          "internalType": "uint256",
          "name": "_resultCalculatorType",
          "type": "uint256"
        },
        {
          "internalType": "address",
          "name": "_electionOrganizer",
          "type": "address"
        },
        {
          "internalType": "address",
          "name": "_electionOrganizerContract",
          "type": "address"
        }
      ],
      "name": "getElectionFromFactory",
      "outputs": [],
      "stateMutability": "nonpayable",
      "type": "function"
    }
  ],
  "bytecode": "0x608060405234801561001057600080fd5b50336000806101000a81548173ffffffffffffffffffffffffffffffffffffffff021916908373ffffffffffffffffffffffffffffffffffffffff16021790555061417a806100606000396000f3fe60806040523480156200001157600080fd5b50600436106200002e5760003560e01c80639dc9faf21462000033575b600080fd5b6200005160048036038101906200004b9190620006d6565b62000053565b005b6000806200006062000322565b60000160009054906101000a900473ffffffffffffffffffffffffffffffffffffffff1690508073ffffffffffffffffffffffffffffffffffffffff166378782562876040518263ffffffff1660e01b8152600401620000c191906200078e565b600060405180830381600087803b158015620000dc57600080fd5b505af1158015620000f1573d6000803e3d6000fd5b505050508073ffffffffffffffffffffffffffffffffffffffff1663a9dda9c7876040518263ffffffff1660e01b81526004016200013091906200078e565b600060405180830381600087803b1580156200014b57600080fd5b505af115801562000160573d6000803e3d6000fd5b505050506000620001706200034f565b6040518060600160405290816000820160009054906101000a900473ffffffffffffffffffffffffffffffffffffffff1673ffffffffffffffffffffffffffffffffffffffff1673ffffffffffffffffffffffffffffffffffffffff1681526020016001820160009054906101000a900473ffffffffffffffffffffffffffffffffffffffff1673ffffffffffffffffffffffffffffffffffffffff1673ffffffffffffffffffffffffffffffffffffffff1681526020016002820160009054906101000a900473ffffffffffffffffffffffffffffffffffffffff1673ffffffffffffffffffffffffffffffffffffffff1673ffffffffffffffffffffffffffffffffffffffff16815250509050878160000151826020015187878b6040516200029b906200037c565b620002ac9695949392919062000993565b604051809103906000f080158015620002c9573d6000803e3d6000fd5b50925082620002d76200034f565b60020160006101000a81548173ffffffffffffffffffffffffffffffffffffffff021916908373ffffffffffffffffffffffffffffffffffffffff1602179055505050505050505050565b6000807fc20038518297e76c0e27a913ab03e5d4fd92b2579d428cf3b89f8c71add2acef90508091505090565b6000807f5b43f313088137496832405d64cc708765db93c8144d82f7a7f806ac22d5603b90508091505090565b61373d8062000a0883390190565b6000604051905090565b600080fd5b600080fd5b600080fd5b6000601f19601f8301169050919050565b7f4e487b7100000000000000000000000000000000000000000000000000000000600052604160045260246000fd5b620003ee82620003a3565b810181811067ffffffffffffffff8211171562000410576200040f620003b4565b5b80604052505050565b6000620004256200038a565b9050620004338282620003e3565b919050565b600080fd5b6000819050919050565b62000452816200043d565b81146200045e57600080fd5b50565b600081359050620004728162000447565b92915050565b600080fd5b600080fd5b600067ffffffffffffffff821115620004a0576200049f620003b4565b5b620004ab82620003a3565b9050602081019050919050565b82818337600083830152505050565b6000620004de620004d88462000482565b62000419565b905082815260208101848484011115620004fd57620004fc6200047d565b5b6200050a848285620004b8565b509392505050565b600082601f8301126200052a576200052962000478565b5b81356200053c848260208601620004c7565b91505092915050565b60008115159050919050565b6200055c8162000545565b81146200056857600080fd5b50565b6000813590506200057c8162000551565b92915050565b600060c082840312156200059b576200059a6200039e565b5b620005a760c062000419565b90506000620005b98482850162000461565b600083015250602082013567ffffffffffffffff811115620005e057620005df62000438565b5b620005ee8482850162000512565b602083015250604082013567ffffffffffffffff81111562000615576200061462000438565b5b620006238482850162000512565b6040830152506060620006398482850162000461565b60608301525060806200064f8482850162000461565b60808301525060a062000665848285016200056b565b60a08301525092915050565b600073ffffffffffffffffffffffffffffffffffffffff82169050919050565b60006200069e8262000671565b9050919050565b620006b08162000691565b8114620006bc57600080fd5b50565b600081359050620006d081620006a5565b92915050565b600080600080600060a08688031215620006f557620006f462000394565b5b600086013567ffffffffffffffff81111562000716576200071562000399565b5b620007248882890162000582565b9550506020620007378882890162000461565b94505060406200074a8882890162000461565b93505060606200075d88828901620006bf565b92505060806200077088828901620006bf565b9150509295509295909350565b62000788816200043d565b82525050565b6000602082019050620007a560008301846200077d565b92915050565b620007b6816200043d565b82525050565b600081519050919050565b600082825260208201905092915050565b60005b83811015620007f8578082015181840152602081019050620007db565b60008484015250505050565b60006200081182620007bc565b6200081d8185620007c7565b93506200082f818560208601620007d8565b6200083a81620003a3565b840191505092915050565b620008508162000545565b82525050565b600060c083016000830151620008706000860182620007ab565b50602083015184820360208601526200088a828262000804565b91505060408301518482036040860152620008a6828262000804565b9150506060830151620008bd6060860182620007ab565b506080830151620008d26080860182620007ab565b5060a0830151620008e760a086018262000845565b508091505092915050565b6000819050919050565b60006200091d62000917620009118462000671565b620008f2565b62000671565b9050919050565b60006200093182620008fc565b9050919050565b6000620009458262000924565b9050919050565b620009578162000938565b82525050565b60006200096a8262000924565b9050919050565b6200097c816200095d565b82525050565b6200098d8162000691565b82525050565b600060c0820190508181036000830152620009af818962000856565b9050620009c060208301886200094c565b620009cf604083018762000971565b620009de606083018662000982565b620009ed608083018562000982565b620009fc60a08301846200077d565b97965050505050505056fe60806040523480156200001157600080fd5b506040516200373d3803806200373d8339818101604052810190620000379190620005e0565b82600a60006101000a81548173ffffffffffffffffffffffffffffffffffffffff021916908373ffffffffffffffffffffffffffffffffffffffff16021790555081600b60006101000a81548173ffffffffffffffffffffffffffffffffffffffff021916908373ffffffffffffffffffffffffffffffffffffffff1602179055508560008082015181600001556020820151816001019081620000dc9190620008dc565b506040820151816002019081620000f49190620008dc565b50606082015181600301556080820151816004015560a08201518160050160006101000a81548160ff02191690831515021790555090505084600e60016101000a81548173ffffffffffffffffffffffffffffffffffffffff021916908373ffffffffffffffffffffffffffffffffffffffff16021790555083600f60006101000a81548173ffffffffffffffffffffffffffffffffffffffff021916908373ffffffffffffffffffffffffffffffffffffffff1602179055506103e86009819055506000600c819055506000600e60006101000a81548160ff02191690831515021790555080600d81905550505050505050620009c3565b6000604051905090565b600080fd5b600080fd5b600080fd5b6000601f19601f8301169050919050565b7f4e487b7100000000000000000000000000000000000000000000000000000000600052604160045260246000fd5b620002518262000206565b810181811067ffffffffffffffff8211171562000273576200027262000217565b5b80604052505050565b600062000288620001ed565b905062000296828262000246565b919050565b600080fd5b6000819050919050565b620002b581620002a0565b8114620002c157600080fd5b50565b600081519050620002d581620002aa565b92915050565b600080fd5b600080fd5b600067ffffffffffffffff82111562000303576200030262000217565b5b6200030e8262000206565b9050602081019050919050565b60005b838110156200033b5780820151818401526020810190506200031e565b60008484015250505050565b60006200035e6200035884620002e5565b6200027c565b9050828152602081018484840111156200037d576200037c620002e0565b5b6200038a8482856200031b565b509392505050565b600082601f830112620003aa57620003a9620002db565b5b8151620003bc84826020860162000347565b91505092915050565b60008115159050919050565b620003dc81620003c5565b8114620003e857600080fd5b50565b600081519050620003fc81620003d1565b92915050565b600060c082840312156200041b576200041a62000201565b5b6200042760c06200027c565b905060006200043984828501620002c4565b600083015250602082015167ffffffffffffffff81111562000460576200045f6200029b565b5b6200046e8482850162000392565b602083015250604082015167ffffffffffffffff8111156200049557620004946200029b565b5b620004a38482850162000392565b6040830152506060620004b984828501620002c4565b6060830152506080620004cf84828501620002c4565b60808301525060a0620004e584828501620003eb565b60a08301525092915050565b600073ffffffffffffffffffffffffffffffffffffffff82169050919050565b60006200051e82620004f1565b9050919050565b6000620005328262000511565b9050919050565b620005448162000525565b81146200055057600080fd5b50565b600081519050620005648162000539565b92915050565b6000620005778262000511565b9050919050565b62000589816200056a565b81146200059557600080fd5b50565b600081519050620005a9816200057e565b92915050565b620005ba8162000511565b8114620005c657600080fd5b50565b600081519050620005da81620005af565b92915050565b60008060008060008060c087890312156200060057620005ff620001f7565b5b600087015167ffffffffffffffff811115620006215762000620620001fc565b5b6200062f89828a0162000402565b96505060206200064289828a0162000553565b95505060406200065589828a0162000598565b94505060606200066889828a01620005c9565b93505060806200067b89828a01620005c9565b92505060a06200068e89828a01620002c4565b9150509295509295509295565b600081519050919050565b7f4e487b7100000000000000000000000000000000000000000000000000000000600052602260045260246000fd5b60006002820490506001821680620006ee57607f821691505b602082108103620007045762000703620006a6565b5b50919050565b60008190508160005260206000209050919050565b60006020601f8301049050919050565b600082821b905092915050565b6000600883026200076e7fffffffffffffffffffffffffffffffffffffffffffffffffffffffffffffffff826200072f565b6200077a86836200072f565b95508019841693508086168417925050509392505050565b6000819050919050565b6000620007bd620007b7620007b184620002a0565b62000792565b620002a0565b9050919050565b6000819050919050565b620007d9836200079c565b620007f1620007e882620007c4565b8484546200073c565b825550505050565b600090565b62000808620007f9565b62000815818484620007ce565b505050565b5b818110156200083d5762000831600082620007fe565b6001810190506200081b565b5050565b601f8211156200088c5762000856816200070a565b62000861846200071f565b8101602085101562000871578190505b6200088962000880856200071f565b8301826200081a565b50505b505050565b600082821c905092915050565b6000620008b16000198460080262000891565b1980831691505092915050565b6000620008cc83836200089e565b9150826002028217905092915050565b620008e7826200069b565b67ffffffffffffffff81111562000903576200090262000217565b5b6200090f8254620006d5565b6200091c82828562000841565b600060209050601f8311600181146200095457600084156200093f578287015190505b6200094b8582620008be565b865550620009bb565b601f19841662000964866200070a565b60005b828110156200098e5784890151825560018201915060208501945060208101905062000967565b86831015620009ae5784890151620009aa601f8916826200089e565b8355505b6001600288020188555050505b505050505050565b612d6a80620009d36000396000f3fe608060405234801561001057600080fd5b50600436106101165760003560e01c806382202396116100a2578063b976181b11610071578063b976181b146102bf578063de292789146102db578063df15c37e146102f9578063e04b1c0c14610317578063e29859e51461033557610116565b8063822023961461023757806386852dca146102675780639baec8b914610285578063a1818ac4146102a357610116565b8063273ffe86116100e9578063273ffe861461019157806330a56347146101ad57806337349a7d146101cb5780634e69d560146101e9578063521b0dcc1461020757610116565b806306a49fce1461011b57806311174a29146101395780631ca577141461015757806324fd983c14610175575b600080fd5b610123610353565b6040516101309190611744565b60405180910390f35b6101416104e0565b60405161014e9190611775565b60405180910390f35b61015f6104ea565b60405161016c9190611775565b60405180910390f35b61018f600480360381019061018a9190611905565b6104f4565b005b6101ab60048036038101906101a69190611a36565b6106aa565b005b6101b5610984565b6040516101c29190611775565b60405180910390f35b6101d361098e565b6040516101e09190611ac0565b60405180910390f35b6101f1610a48565b6040516101fe9190611b52565b60405180910390f35b610221600480360381019061021c9190611b99565b610a7d565b60405161022e9190611be1565b60405180910390f35b610251600480360381019061024c9190611bfc565b610b22565b60405161025e9190611c80565b60405180910390f35b61026f610c7d565b60405161027c9190611d41565b60405180910390f35b61028d610df4565b60405161029a9190611ac0565b60405180910390f35b6102bd60048036038101906102b89190611e2b565b610eae565b005b6102d960048036038101906102d49190611fb2565b61103c565b005b6102e36111ac565b6040516102f091906120aa565b60405180910390f35b6103016113ce565b60405161030e91906120aa565b60405180910390f35b61031f61147c565b60405161032c9190611ac0565b60405180910390f35b61033d6114a6565b60405161034a9190611be1565b60405180910390f35b60606006805480602002602001604051908101604052809291908181526020016000905b828210156104d75783829060005260206000209060030201604051806060016040529081600082015481526020016001820180546103b4906120fb565b80601f01602080910402602001604051908101604052809291908181526020018280546103e0906120fb565b801561042d5780601f106104025761010080835404028352916020019161042d565b820191906000526020600020905b81548152906001019060200180831161041057829003601f168201915b50505050508152602001600282018054610446906120fb565b80601f0160208091040260200160405190810160405280929190818152602001828054610472906120fb565b80156104bf5780601f10610494576101008083540402835291602001916104bf565b820191906000526020600020905b8154815290600101906020018083116104a257829003601f168201915b50505050508152505081526020019060010190610377565b50505050905090565b6000600c54905090565b6000600d54905090565b600b60009054906101000a900473ffffffffffffffffffffffffffffffffffffffff1673ffffffffffffffffffffffffffffffffffffffff163373ffffffffffffffffffffffffffffffffffffffff1614610584576040517f08c379a000000000000000000000000000000000000000000000000000000000815260040161057b906121af565b60405180910390fd5b6001600281111561059857610597611adb565b5b6105a0610a48565b60028111156105b2576105b1611adb565b5b146105f2576040517f08c379a00000000000000000000000000000000000000000000000000000000081526004016105e990612241565b60405180910390fd5b6000600680549050905080821061063e576040517f08c379a0000000000000000000000000000000000000000000000000000000008152600401610635906122ad565b60405180910390fd5b8360068381548110610653576106526122cd565b5b9060005260206000209060030201600101908161067091906124a8565b508260068381548110610686576106856122cd565b5b906000526020600020906003020160020190816106a391906124a8565b5050505050565b600b60009054906101000a900473ffffffffffffffffffffffffffffffffffffffff1673ffffffffffffffffffffffffffffffffffffffff163373ffffffffffffffffffffffffffffffffffffffff161461073a576040517f08c379a0000000000000000000000000000000000000000000000000000000008152600401610731906121af565b60405180910390fd5b6001600281111561074e5761074d611adb565b5b610756610a48565b600281111561076857610767611adb565b5b146107a8576040517f08c379a000000000000000000000000000000000000000000000000000000000815260040161079f90612241565b60405180910390fd5b600060016009546107b991906125a9565b905080826000018181525050600682908060018154018082558091505060019003906000526020600020906003020160009091909190915060008201518160000155602082015181600101908161081091906124a8565b50604082015181600201908161082691906124a8565b505050600e60019054906101000a900473ffffffffffffffffffffffffffffffffffffffff1673ffffffffffffffffffffffffffffffffffffffff1663e844d09783600001516040518263ffffffff1660e01b81526004016108889190611775565b600060405180830381600087803b1580156108a257600080fd5b505af11580156108b6573d6000803e3d6000fd5b505050508160086000846000015181526020019081526020016000206000820151816000015560208201518160010190816108f191906124a8565b50604082015181600201908161090791906124a8565b509050506009600081548092919061091e906125dd565b91905055507f4d9dd414a40890e16b7bd0ea98bdf9d5b55c3d20cfe4b18febda0d60fb32a60c30600e60019054906101000a900473ffffffffffffffffffffffffffffffffffffffff168460405161097893929190612625565b60405180910390a15050565b6000600954905090565b6000600a60009054906101000a900473ffffffffffffffffffffffffffffffffffffffff1673ffffffffffffffffffffffffffffffffffffffff163373ffffffffffffffffffffffffffffffffffffffff1614610a20576040517f08c379a0000000000000000000000000000000000000000000000000000000008152600401610a17906126d5565b60405180910390fd5b600f60009054906101000a900473ffffffffffffffffffffffffffffffffffffffff16905090565b60008060030154421015610a5f5760019050610a7a565b600060040154421015610a755760009050610a7a565b600290505b90565b6000600e60019054906101000a900473ffffffffffffffffffffffffffffffffffffffff1673ffffffffffffffffffffffffffffffffffffffff1663521b0dcc836040518263ffffffff1660e01b8152600401610ada9190611ac0565b602060405180830381865afa158015610af7573d6000803e3d6000fd5b505050506040513d601f19601f82011682018060405250810190610b1b919061270a565b9050919050565b610b2a6114bf565b6008600083815260200190815260200160002060405180606001604052908160008201548152602001600182018054610b62906120fb565b80601f0160208091040260200160405190810160405280929190818152602001828054610b8e906120fb565b8015610bdb5780601f10610bb057610100808354040283529160200191610bdb565b820191906000526020600020905b815481529060010190602001808311610bbe57829003601f168201915b50505050508152602001600282018054610bf4906120fb565b80601f0160208091040260200160405190810160405280929190818152602001828054610c20906120fb565b8015610c6d5780601f10610c4257610100808354040283529160200191610c6d565b820191906000526020600020905b815481529060010190602001808311610c5057829003601f168201915b5050505050815250509050919050565b610c856114e0565b60006040518060c001604052908160008201548152602001600182018054610cac906120fb565b80601f0160208091040260200160405190810160405280929190818152602001828054610cd8906120fb565b8015610d255780601f10610cfa57610100808354040283529160200191610d25565b820191906000526020600020905b815481529060010190602001808311610d0857829003601f168201915b50505050508152602001600282018054610d3e906120fb565b80601f0160208091040260200160405190810160405280929190818152602001828054610d6a906120fb565b8015610db75780601f10610d8c57610100808354040283529160200191610db7565b820191906000526020600020905b815481529060010190602001808311610d9a57829003601f168201915b5050505050815260200160038201548152602001600482015481526020016005820160009054906101000a900460ff161515151581525050905090565b6000600a60009054906101000a900473ffffffffffffffffffffffffffffffffffffffff1673ffffffffffffffffffffffffffffffffffffffff163373ffffffffffffffffffffffffffffffffffffffff1614610e86576040517f08c379a0000000000000000000000000000000000000000000000000000000008152600401610e7d906126d5565b60405180910390fd5b600e60019054906101000a900473ffffffffffffffffffffffffffffffffffffffff16905090565b60006002811115610ec257610ec1611adb565b5b610eca610a48565b6002811115610edc57610edb611adb565b5b14610f1c576040517f08c379a0000000000000000000000000000000000000000000000000000000008152600401610f13906127a9565b60405180910390fd5b600e60019054906101000a900473ffffffffffffffffffffffffffffffffffffffff1673ffffffffffffffffffffffffffffffffffffffff1663a1818ac4858585856040518563ffffffff1660e01b8152600401610f7d94939291906127c9565b600060405180830381600087803b158015610f9757600080fd5b505af1158015610fab573d6000803e3d6000fd5b50505050600c6000815480929190610fc2906125dd565b91905055507fd589db416dab4dff131e94610b2d02ce215ded85a2943a2ea59acd2153a85182600e60019054906101000a900473ffffffffffffffffffffffffffffffffffffffff16600860008681526020019081526020016000208460405161102e9392919061292c565b60405180910390a150505050565b600a60009054906101000a900473ffffffffffffffffffffffffffffffffffffffff1673ffffffffffffffffffffffffffffffffffffffff163373ffffffffffffffffffffffffffffffffffffffff16146110cc576040517f08c379a00000000000000000000000000000000000000000000000000000000081526004016110c3906126d5565b60405180910390fd5b600160028111156110e0576110df611adb565b5b6110e8610a48565b60028111156110fa576110f9611adb565b5b1461113a576040517f08c379a0000000000000000000000000000000000000000000000000000000008152600401611131906129dc565b60405180910390fd5b806000808201518160000155602082015181600101908161115b91906124a8565b50604082015181600201908161117191906124a8565b50606082015181600301556080820151816004015560a08201518160050160006101000a81548160ff02191690831515021790555090505050565b60606002808111156111c1576111c0611adb565b5b6111c9610a48565b60028111156111db576111da611adb565b5b1461121b576040517f08c379a000000000000000000000000000000000000000000000000000000000815260040161121290612a6e565b60405180910390fd5b60001515600e60009054906101000a900460ff161515036113c057600f60009054906101000a900473ffffffffffffffffffffffffffffffffffffffff1673ffffffffffffffffffffffffffffffffffffffff1663c8344a20600e60019054906101000a900473ffffffffffffffffffffffffffffffffffffffff16600c546040518363ffffffff1660e01b81526004016112b7929190612ae3565b6000604051808303816000875af11580156112d6573d6000803e3d6000fd5b505050506040513d6000823e3d601f19601f820116820180604052508101906112ff9190612bb8565b60079080519060200190611314929190611518565b506001600e60006101000a81548160ff0219169083151502179055507f28e5f582afeee46fd13ea548ad814f45b1d4a5159990336d5e66deb48a960e4c60076040516113609190612ca6565b60405180910390a160078054806020026020016040519081016040528092919081815260200182805480156113b457602002820191906000526020600020905b8154815260200190600101908083116113a0575b505050505090506113cb565b6113c86113ce565b90505b90565b606060011515600e60009054906101000a900460ff16151514611426576040517f08c379a000000000000000000000000000000000000000000000000000000000815260040161141d90612d14565b60405180910390fd5b600780548060200260200160405190810160405280929190818152602001828054801561147257602002820191906000526020600020905b81548152602001906001019080831161145e575b5050505050905090565b6000600a60009054906101000a900473ffffffffffffffffffffffffffffffffffffffff16905090565b60008060050160009054906101000a900460ff16905090565b60405180606001604052806000815260200160608152602001606081525090565b6040518060c0016040528060008152602001606081526020016060815260200160008152602001600081526020016000151581525090565b828054828255906000526020600020908101928215611554579160200282015b82811115611553578251825591602001919060010190611538565b5b5090506115619190611565565b5090565b5b8082111561157e576000816000905550600101611566565b5090565b600081519050919050565b600082825260208201905092915050565b6000819050602082019050919050565b6000819050919050565b6115c1816115ae565b82525050565b600081519050919050565b600082825260208201905092915050565b60005b838110156116015780820151818401526020810190506115e6565b60008484015250505050565b6000601f19601f8301169050919050565b6000611629826115c7565b61163381856115d2565b93506116438185602086016115e3565b61164c8161160d565b840191505092915050565b600060608301600083015161166f60008601826115b8565b5060208301518482036020860152611687828261161e565b915050604083015184820360408601526116a1828261161e565b9150508091505092915050565b60006116ba8383611657565b905092915050565b6000602082019050919050565b60006116da82611582565b6116e4818561158d565b9350836020820285016116f68561159e565b8060005b85811015611732578484038952815161171385826116ae565b945061171e836116c2565b925060208a019950506001810190506116fa565b50829750879550505050505092915050565b6000602082019050818103600083015261175e81846116cf565b905092915050565b61176f816115ae565b82525050565b600060208201905061178a6000830184611766565b92915050565b6000604051905090565b600080fd5b600080fd5b600080fd5b600080fd5b7f4e487b7100000000000000000000000000000000000000000000000000000000600052604160045260246000fd5b6117e68261160d565b810181811067ffffffffffffffff82111715611805576118046117ae565b5b80604052505050565b6000611818611790565b905061182482826117dd565b919050565b600067ffffffffffffffff821115611844576118436117ae565b5b61184d8261160d565b9050602081019050919050565b82818337600083830152505050565b600061187c61187784611829565b61180e565b905082815260208101848484011115611898576118976117a9565b5b6118a384828561185a565b509392505050565b600082601f8301126118c0576118bf6117a4565b5b81356118d0848260208601611869565b91505092915050565b6118e2816115ae565b81146118ed57600080fd5b50565b6000813590506118ff816118d9565b92915050565b60008060006060848603121561191e5761191d61179a565b5b600084013567ffffffffffffffff81111561193c5761193b61179f565b5b611948868287016118ab565b935050602084013567ffffffffffffffff8111156119695761196861179f565b5b611975868287016118ab565b9250506040611986868287016118f0565b9150509250925092565b600080fd5b600080fd5b6000606082840312156119b0576119af611990565b5b6119ba606061180e565b905060006119ca848285016118f0565b600083015250602082013567ffffffffffffffff8111156119ee576119ed611995565b5b6119fa848285016118ab565b602083015250604082013567ffffffffffffffff811115611a1e57611a1d611995565b5b611a2a848285016118ab565b60408301525092915050565b600060208284031215611a4c57611a4b61179a565b5b600082013567ffffffffffffffff811115611a6a57611a6961179f565b5b611a768482850161199a565b91505092915050565b600073ffffffffffffffffffffffffffffffffffffffff82169050919050565b6000611aaa82611a7f565b9050919050565b611aba81611a9f565b82525050565b6000602082019050611ad56000830184611ab1565b92915050565b7f4e487b7100000000000000000000000000000000000000000000000000000000600052602160045260246000fd5b60038110611b1b57611b1a611adb565b5b50565b6000819050611b2c82611b0a565b919050565b6000611b3c82611b1e565b9050919050565b611b4c81611b31565b82525050565b6000602082019050611b676000830184611b43565b92915050565b611b7681611a9f565b8114611b8157600080fd5b50565b600081359050611b9381611b6d565b92915050565b600060208284031215611baf57611bae61179a565b5b6000611bbd84828501611b84565b91505092915050565b60008115159050919050565b611bdb81611bc6565b82525050565b6000602082019050611bf66000830184611bd2565b92915050565b600060208284031215611c1257611c1161179a565b5b6000611c20848285016118f0565b91505092915050565b6000606083016000830151611c4160008601826115b8565b5060208301518482036020860152611c59828261161e565b91505060408301518482036040860152611c73828261161e565b9150508091505092915050565b60006020820190508181036000830152611c9a8184611c29565b905092915050565b611cab81611bc6565b82525050565b600060c083016000830151611cc960008601826115b8565b5060208301518482036020860152611ce1828261161e565b91505060408301518482036040860152611cfb828261161e565b9150506060830151611d1060608601826115b8565b506080830151611d2360808601826115b8565b5060a0830151611d3660a0860182611ca2565b508091505092915050565b60006020820190508181036000830152611d5b8184611cb1565b905092915050565b600067ffffffffffffffff821115611d7e57611d7d6117ae565b5b602082029050602081019050919050565b600080fd5b6000611da7611da284611d63565b61180e565b90508083825260208201905060208402830185811115611dca57611dc9611d8f565b5b835b81811015611df35780611ddf88826118f0565b845260208401935050602081019050611dcc565b5050509392505050565b600082601f830112611e1257611e116117a4565b5b8135611e22848260208601611d94565b91505092915050565b60008060008060808587031215611e4557611e4461179a565b5b6000611e5387828801611b84565b9450506020611e64878288016118f0565b9350506040611e75878288016118f0565b925050606085013567ffffffffffffffff811115611e9657611e9561179f565b5b611ea287828801611dfd565b91505092959194509250565b611eb781611bc6565b8114611ec257600080fd5b50565b600081359050611ed481611eae565b92915050565b600060c08284031215611ef057611eef611990565b5b611efa60c061180e565b90506000611f0a848285016118f0565b600083015250602082013567ffffffffffffffff811115611f2e57611f2d611995565b5b611f3a848285016118ab565b602083015250604082013567ffffffffffffffff811115611f5e57611f5d611995565b5b611f6a848285016118ab565b6040830152506060611f7e848285016118f0565b6060830152506080611f92848285016118f0565b60808301525060a0611fa684828501611ec5565b60a08301525092915050565b600060208284031215611fc857611fc761179a565b5b600082013567ffffffffffffffff811115611fe657611fe561179f565b5b611ff284828501611eda565b91505092915050565b600081519050919050565b600082825260208201905092915050565b6000819050602082019050919050565b600061203383836115b8565b60208301905092915050565b6000602082019050919050565b600061205782611ffb565b6120618185612006565b935061206c83612017565b8060005b8381101561209d5781516120848882612027565b975061208f8361203f565b925050600181019050612070565b5085935050505092915050565b600060208201905081810360008301526120c4818461204c565b905092915050565b7f4e487b7100000000000000000000000000000000000000000000000000000000600052602260045260246000fd5b6000600282049050600182168061211357607f821691505b602082108103612126576121256120cc565b5b50919050565b600082825260208201905092915050565b7f4d7573742062652063616c6c65642066726f6d2074686520656c656374696f6e60008201527f206f7267616e697a657220636f6e747261637400000000000000000000000000602082015250565b600061219960338361212c565b91506121a48261213d565b604082019050919050565b600060208201905081810360008301526121c88161218c565b9050919050565b7f43616e6e6f74206164642063616e6469646174657320616674657220656c656360008201527f74696f6e20686173207374617274656400000000000000000000000000000000602082015250565b600061222b60308361212c565b9150612236826121cf565b604082019050919050565b6000602082019050818103600083015261225a8161221e565b9050919050565b7f43616e646964617465206e6f7420666f756e6400000000000000000000000000600082015250565b600061229760138361212c565b91506122a282612261565b602082019050919050565b600060208201905081810360008301526122c68161228a565b9050919050565b7f4e487b7100000000000000000000000000000000000000000000000000000000600052603260045260246000fd5b60008190508160005260206000209050919050565b60006020601f8301049050919050565b600082821b905092915050565b60006008830261235e7fffffffffffffffffffffffffffffffffffffffffffffffffffffffffffffffff82612321565b6123688683612321565b95508019841693508086168417925050509392505050565b6000819050919050565b60006123a56123a061239b846115ae565b612380565b6115ae565b9050919050565b6000819050919050565b6123bf8361238a565b6123d36123cb826123ac565b84845461232e565b825550505050565b600090565b6123e86123db565b6123f38184846123b6565b505050565b5b818110156124175761240c6000826123e0565b6001810190506123f9565b5050565b601f82111561245c5761242d816122fc565b61243684612311565b81016020851015612445578190505b61245961245185612311565b8301826123f8565b50505b505050565b600082821c905092915050565b600061247f60001984600802612461565b1980831691505092915050565b6000612498838361246e565b9150826002028217905092915050565b6124b1826115c7565b67ffffffffffffffff8111156124ca576124c96117ae565b5b6124d482546120fb565b6124df82828561241b565b600060209050601f8311600181146125125760008415612500578287015190505b61250a858261248c565b865550612572565b601f198416612520866122fc565b60005b8281101561254857848901518255600182019150602085019450602081019050612523565b868310156125655784890151612561601f89168261246e565b8355505b6001600288020188555050505b505050505050565b7f4e487b7100000000000000000000000000000000000000000000000000000000600052601160045260246000fd5b60006125b4826115ae565b91506125bf836115ae565b92508282019050808211156125d7576125d661257a565b5b92915050565b60006125e8826115ae565b91507fffffffffffffffffffffffffffffffffffffffffffffffffffffffffffffffff820361261a5761261961257a565b5b600182019050919050565b600060608201905061263a6000830186611ab1565b6126476020830185611ab1565b81810360408301526126598184611c29565b9050949350505050565b7f43616c6c6572206d7573742062652074686520656c656374696f6e206f72676160008201527f6e697a6572000000000000000000000000000000000000000000000000000000602082015250565b60006126bf60258361212c565b91506126ca82612663565b604082019050919050565b600060208201905081810360008301526126ee816126b2565b9050919050565b60008151905061270481611eae565b92915050565b6000602082840312156127205761271f61179a565b5b600061272e848285016126f5565b91505092915050565b7f456c656374696f6e206e6565647320746f2062652061637469766520746f207660008201527f6f74650000000000000000000000000000000000000000000000000000000000602082015250565b600061279360238361212c565b915061279e82612737565b604082019050919050565b600060208201905081810360008301526127c281612786565b9050919050565b60006080820190506127de6000830187611ab1565b6127eb6020830186611766565b6127f86040830185611766565b818103606083015261280a818461204c565b905095945050505050565b60008160001c9050919050565b6000819050919050565b600061283f61283a83612815565b612822565b9050919050565b60008154612853816120fb565b61285d81866115d2565b94506001821660008114612878576001811461288e576128c1565b60ff1983168652811515602002860193506128c1565b612897856122fc565b60005b838110156128b95781548189015260018201915060208101905061289a565b808801955050505b50505092915050565b60006060830160008084015490506128e18161282c565b6128ee60008701826115b8565b506001840185830360208701526129058382612846565b92505060028401858303604087015261291e8382612846565b925050819250505092915050565b60006060820190506129416000830186611ab1565b818103602083015261295381856128ca565b90506129626040830184611766565b949350505050565b7f43616e6e6f742075706461746520656c656374696f6e20696e666f206166746560008201527f7220656c656374696f6e20686173207374617274656400000000000000000000602082015250565b60006129c660368361212c565b91506129d18261296a565b604082019050919050565b600060208201905081810360008301526129f5816129b9565b9050919050565b7f526573756c747320617265206465636c61726564206f6e6c792061667465722060008201527f74686520656c656374696f6e20656e6473000000000000000000000000000000602082015250565b6000612a5860318361212c565b9150612a63826129fc565b604082019050919050565b60006020820190508181036000830152612a8781612a4b565b9050919050565b6000612aa9612aa4612a9f84611a7f565b612380565b611a7f565b9050919050565b6000612abb82612a8e565b9050919050565b6000612acd82612ab0565b9050919050565b612add81612ac2565b82525050565b6000604082019050612af86000830185612ad4565b612b056020830184611766565b9392505050565b600081519050612b1b816118d9565b92915050565b6000612b34612b2f84611d63565b61180e565b90508083825260208201905060208402830185811115612b5757612b56611d8f565b5b835b81811015612b805780612b6c8882612b0c565b845260208401935050602081019050612b59565b5050509392505050565b600082601f830112612b9f57612b9e6117a4565b5b8151612baf848260208601612b21565b91505092915050565b600060208284031215612bce57612bcd61179a565b5b600082015167ffffffffffffffff811115612bec57612beb61179f565b5b612bf884828501612b8a565b91505092915050565b600081549050919050565b60008190508160005260206000209050919050565b6000612c2d825461282c565b9050919050565b6000600182019050919050565b6000612c4c82612c01565b612c568185612006565b9350612c6183612c0c565b8060005b83811015612c9957612c7682612c21565b612c808882612027565b9750612c8b83612c34565b925050600181019050612c65565b5085935050505092915050565b60006020820190508181036000830152612cc08184612c41565b905092915050565b7f526573756c7473206172656e2774206465636c61726564207965740000000000600082015250565b6000612cfe601b8361212c565b9150612d0982612cc8565b602082019050919050565b60006020820190508181036000830152612d2d81612cf1565b905091905056fea264697066735822122013208224d27994283917b0d2758120eeced419aac76674e9e9b9b7731734090164736f6c63430008170033a2646970667358221220a32556cc6871bc5a391881c5fc3528de86cd77b4e28154f68eebc0261a979ed764736f6c63430008170033",
  "linkReferences": {},
  "deployedLinkReferences": {}
}