{
  "_format": "hh-sol-artifact-1",
  "contractName": "GeneralBallot",
  "sourceName": "contracts/facets/votingApp/ballot/GeneralBallot.sol",
  "abi": [
    {
      "inputs": [
        {
          "internalType": "uint256",
          "name": "_candidate",
          "type": "uint256"
        }
      ],
      "name": "addCandidate",
      "outputs": [],
      "stateMutability": "nonpayable",
      "type": "function"
    },
    {
      "inputs": [],
      "name": "getCandidates",
      "outputs": [
        {
          "internalType": "uint256[]",
          "name": "",
          "type": "uint256[]"
        }
      ],
      "stateMutability": "view",
      "type": "function"
    },
    {
      "inputs": [],
      "name": "getVoteArr",
      "outputs": [
        {
          "internalType": "uint256[][]",
          "name": "",
          "type": "uint256[][]"
        }
      ],
      "stateMutability": "nonpayable",
      "type": "function"
    },
    {
      "inputs": [
        {
          "internalType": "uint256",
          "name": "_candidate",
          "type": "uint256"
        },
        {
          "internalType": "uint256",
          "name": "_weight",
          "type": "uint256"
        }
      ],
      "name": "getVoteCount",
      "outputs": [
        {
          "internalType": "uint256",
          "name": "",
          "type": "uint256"
        }
      ],
      "stateMutability": "view",
      "type": "function"
    },
    {
      "inputs": [
        {
          "internalType": "address",
          "name": "_voter",
          "type": "address"
        }
      ],
      "name": "getVoteStatus",
      "outputs": [
        {
          "internalType": "bool",
          "name": "",
          "type": "bool"
        }
      ],
      "stateMutability": "view",
      "type": "function"
    },
    {
      "inputs": [
        {
          "internalType": "address",
          "name": "_contractOwner",
          "type": "address"
        }
      ],
      "name": "initialize",
      "outputs": [],
      "stateMutability": "nonpayable",
      "type": "function"
    },
    {
      "inputs": [
        {
          "internalType": "address",
          "name": "_voter",
          "type": "address"
        },
        {
          "internalType": "uint256",
          "name": "_candidate",
          "type": "uint256"
        },
        {
          "internalType": "uint256",
          "name": "_weight",
          "type": "uint256"
        },
        {
          "internalType": "uint256[]",
          "name": "voteArr",
          "type": "uint256[]"
        }
      ],
      "name": "vote",
      "outputs": [],
      "stateMutability": "nonpayable",
      "type": "function"
    },
    {
      "inputs": [
        {
          "internalType": "uint256",
          "name": "",
          "type": "uint256"
        }
      ],
      "name": "votes",
      "outputs": [
        {
          "internalType": "uint256",
          "name": "",
          "type": "uint256"
        }
      ],
      "stateMutability": "view",
      "type": "function"
    }
  ],
  "bytecode": "0x608060405234801561001057600080fd5b50610d16806100206000396000f3fe608060405234801561001057600080fd5b50600436106100885760003560e01c8063afa524081161005b578063afa5240814610127578063c4d66de814610145578063de2e19a014610161578063e844d0971461019157610088565b806306a49fce1461008d578063521b0dcc146100ab5780635df81330146100db578063a1818ac41461010b575b600080fd5b6100956101ad565b6040516100a291906105f7565b60405180910390f35b6100c560048036038101906100c0919061068b565b610205565b6040516100d291906106d3565b60405180910390f35b6100f560048036038101906100f0919061071a565b61025b565b6040516101029190610756565b60405180910390f35b610125600480360381019061012091906108ca565b610273565b005b61012f610422565b60405161013c9190610a7e565b60405180910390f35b61015f600480360381019061015a919061068b565b61042c565b005b61017b60048036038101906101769190610aa0565b6104e1565b6040516101889190610756565b60405180910390f35b6101ab60048036038101906101a6919061071a565b610503565b005b606060008054806020026020016040519081016040528092919081815260200182805480156101fb57602002820191906000526020600020905b8154815260200190600101908083116101e7575b5050505050905090565b6000600160008373ffffffffffffffffffffffffffffffffffffffff1673ffffffffffffffffffffffffffffffffffffffff16815260200190815260200160002060009054906101000a900460ff169050919050565b60036020528060005260406000206000915090505481565b600260009054906101000a900473ffffffffffffffffffffffffffffffffffffffff1673ffffffffffffffffffffffffffffffffffffffff163373ffffffffffffffffffffffffffffffffffffffff1614610303576040517f08c379a00000000000000000000000000000000000000000000000000000000081526004016102fa90610b63565b60405180910390fd5b6001915060001515600160008673ffffffffffffffffffffffffffffffffffffffff1673ffffffffffffffffffffffffffffffffffffffff16815260200190815260200160002060009054906101000a900460ff1615151461039a576040517f08c379a000000000000000000000000000000000000000000000000000000000815260040161039190610bcf565b60405180910390fd5b60016003600085815260200190815260200160002060008282546103be9190610c1e565b9250508190555060018060008673ffffffffffffffffffffffffffffffffffffffff1673ffffffffffffffffffffffffffffffffffffffff16815260200190815260200160002060006101000a81548160ff02191690831515021790555050505050565b6060808091505090565b60001515600260149054906101000a900460ff16151514610482576040517f08c379a000000000000000000000000000000000000000000000000000000000815260040161047990610cc0565b60405180910390fd5b80600260006101000a81548173ffffffffffffffffffffffffffffffffffffffff021916908373ffffffffffffffffffffffffffffffffffffffff1602179055506001600260146101000a81548160ff02191690831515021790555050565b6000600191506003600084815260200190815260200160002054905092915050565b600081908060018154018082558091505060019003906000526020600020016000909190919091505550565b600081519050919050565b600082825260208201905092915050565b6000819050602082019050919050565b6000819050919050565b61056e8161055b565b82525050565b60006105808383610565565b60208301905092915050565b6000602082019050919050565b60006105a48261052f565b6105ae818561053a565b93506105b98361054b565b8060005b838110156105ea5781516105d18882610574565b97506105dc8361058c565b9250506001810190506105bd565b5085935050505092915050565b600060208201905081810360008301526106118184610599565b905092915050565b6000604051905090565b600080fd5b600080fd5b600073ffffffffffffffffffffffffffffffffffffffff82169050919050565b60006106588261062d565b9050919050565b6106688161064d565b811461067357600080fd5b50565b6000813590506106858161065f565b92915050565b6000602082840312156106a1576106a0610623565b5b60006106af84828501610676565b91505092915050565b60008115159050919050565b6106cd816106b8565b82525050565b60006020820190506106e860008301846106c4565b92915050565b6106f78161055b565b811461070257600080fd5b50565b600081359050610714816106ee565b92915050565b6000602082840312156107305761072f610623565b5b600061073e84828501610705565b91505092915050565b6107508161055b565b82525050565b600060208201905061076b6000830184610747565b92915050565b600080fd5b6000601f19601f8301169050919050565b7f4e487b7100000000000000000000000000000000000000000000000000000000600052604160045260246000fd5b6107bf82610776565b810181811067ffffffffffffffff821117156107de576107dd610787565b5b80604052505050565b60006107f1610619565b90506107fd82826107b6565b919050565b600067ffffffffffffffff82111561081d5761081c610787565b5b602082029050602081019050919050565b600080fd5b600061084661084184610802565b6107e7565b905080838252602082019050602084028301858111156108695761086861082e565b5b835b81811015610892578061087e8882610705565b84526020840193505060208101905061086b565b5050509392505050565b600082601f8301126108b1576108b0610771565b5b81356108c1848260208601610833565b91505092915050565b600080600080608085870312156108e4576108e3610623565b5b60006108f287828801610676565b945050602061090387828801610705565b935050604061091487828801610705565b925050606085013567ffffffffffffffff81111561093557610934610628565b5b6109418782880161089c565b91505092959194509250565b600081519050919050565b600082825260208201905092915050565b6000819050602082019050919050565b600082825260208201905092915050565b60006109958261052f565b61099f8185610979565b93506109aa8361054b565b8060005b838110156109db5781516109c28882610574565b97506109cd8361058c565b9250506001810190506109ae565b5085935050505092915050565b60006109f4838361098a565b905092915050565b6000602082019050919050565b6000610a148261094d565b610a1e8185610958565b935083602082028501610a3085610969565b8060005b85811015610a6c5784840389528151610a4d85826109e8565b9450610a58836109fc565b925060208a01995050600181019050610a34565b50829750879550505050505092915050565b60006020820190508181036000830152610a988184610a09565b905092915050565b60008060408385031215610ab757610ab6610623565b5b6000610ac585828601610705565b9250506020610ad685828601610705565b9150509250929050565b600082825260208201905092915050565b7f4d7573742062652063616c6c65642066726f6d2074686520656c656374696f6e60008201527f206f7267616e697a657220636f6e747261637400000000000000000000000000602082015250565b6000610b4d603383610ae0565b9150610b5882610af1565b604082019050919050565b60006020820190508181036000830152610b7c81610b40565b9050919050565b7f566f74657220616c726561647920766f74656400000000000000000000000000600082015250565b6000610bb9601383610ae0565b9150610bc482610b83565b602082019050919050565b60006020820190508181036000830152610be881610bac565b9050919050565b7f4e487b7100000000000000000000000000000000000000000000000000000000600052601160045260246000fd5b6000610c298261055b565b9150610c348361055b565b9250827fffffffffffffffffffffffffffffffffffffffffffffffffffffffffffffffff03821115610c6957610c68610bef565b5b828201905092915050565b7f416c726561647920496e697469616c697a656400000000000000000000000000600082015250565b6000610caa601383610ae0565b9150610cb582610c74565b602082019050919050565b60006020820190508181036000830152610cd981610c9d565b905091905056fea264697066735822122077ef66390c302040e2bdd72af146ed91ba140387123a0ce118e45aa6fa52fd8f64736f6c634300080a0033",
  "linkReferences": {},
  "deployedLinkReferences": {}
}