{"abi":[{"type":"function","name":"calculateGeneralResult","inputs":[{"name":"returnData","type":"bytes","internalType":"bytes"}],"outputs":[{"name":"","type":"uint256[]","internalType":"uint256[]"}],"stateMutability":"pure"},{"type":"function","name":"calculateIRVResult","inputs":[{"name":"returnData","type":"bytes","internalType":"bytes"}],"outputs":[{"name":"winners","type":"uint256[]","internalType":"uint256[]"}],"stateMutability":"pure"},{"type":"function","name":"calculateKemenyYoungResult","inputs":[{"name":"returnData","type":"bytes","internalType":"bytes"}],"outputs":[{"name":"","type":"uint256[]","internalType":"uint256[]"}],"stateMutability":"pure"},{"type":"function","name":"calculateMooreResult","inputs":[{"name":"returnData","type":"bytes","internalType":"bytes"}],"outputs":[{"name":"","type":"uint256[]","internalType":"uint256[]"}],"stateMutability":"pure"},{"type":"function","name":"calculateSchulzeResult","inputs":[{"name":"returnData","type":"bytes","internalType":"bytes"}],"outputs":[{"name":"","type":"uint256[]","internalType":"uint256[]"}],"stateMutability":"pure"},{"type":"function","name":"getResults","inputs":[{"name":"returnData","type":"bytes","internalType":"bytes"},{"name":"_resultType","type":"uint256","internalType":"uint256"}],"outputs":[{"name":"","type":"uint256[]","internalType":"uint256[]"}],"stateMutability":"pure"},{"type":"error","name":"CandidatesTie","inputs":[]},{"type":"error","name":"NoCandidates","inputs":[]},{"type":"error","name":"NoWinner","inputs":[]},{"type":"error","name":"VotesExhausted","inputs":[]}],"bytecode":{"object":"0x6080604052348015600e575f5ffd5b506119b68061001c5f395ff3fe608060405234801561000f575f5ffd5b5060043610610060575f3560e01c80631892513814610064578063934150cc1461008d578063af6de5a1146100a0578063b2265653146100b3578063d5175990146100c6578063dd582afb146100d9575b5f5ffd5b61007761007236600461159b565b6100ec565b604051610084919061162d565b60405180910390f35b61007761009b3660046116b3565b610117565b6100776100ae3660046116fa565b61024c565b6100776100c136600461159b565b6102c4565b6100776100d436600461159b565b6102e6565b6100776100e73660046116fa565b610308565b60605f82806020019051810190610103919061175a565b90505f61010f82610405565b949350505050565b606060038210156101335761012c848461024c565b9050610245565b816003036101795761012c84848080601f0160208091040260200160405190810160405280939291908181526020018383808284375f920191909152506102c492505050565b816004036101bf5761012c84848080601f0160208091040260200160405190810160405280939291908181526020018383808284375f920191909152506100ec92505050565b816005036101d15761012c848461024c565b816006036101e35761012c848461024c565b816007036102295761012c84848080601f0160208091040260200160405190810160405280939291908181526020018383808284375f920191909152506102e692505050565b8160080361023b5761012c8484610308565b61012c848461024c565b9392505050565b60605f61025b8385018561186b565b8051909150600281101561027b576102728161096f565b925050506102be565b5f80610286846109d6565b90925090505f8290036102ac57604051638b9ae95f60e01b815260040160405180910390fd5b6102b7818386610a45565b9450505050505b92915050565b60605f828060200190518101906102db919061175a565b905061024581610afa565b60605f828060200190518101906102fd919061175a565b905061024581610fe1565b60605f6103178385018561186b565b8051909150600281101561032e576102728161096f565b5f806060815b848110156103ed575f86828151811061034f5761034f6118fb565b602002602001015190506002866103669190611923565b8111156103bb57604080516001808252818301909252906020808301908036833701905050925081835f815181106103a0576103a06118fb565b602002602001018181525050829750505050505050506102be565b848111156103cf57809450600193506103e4565b8481036103e457836103e081611942565b9450505b50600101610334565b506103f9828487610a45565b98975050505050505050565b8051606090600281101561041c576102458161096f565b5f816001600160401b0381111561043557610435611557565b60405190808252806020026020018201604052801561046857816020015b60608152602001906001900390816104535790505b5090505f5b828110156104dc57826001600160401b0381111561048d5761048d611557565b6040519080825280602002602001820160405280156104b6578160200160208202803683370190505b508282815181106104c9576104c96118fb565b602090810291909101015260010161046d565b505f5b828110156105e0575f5b838110156105d7578082146105cf5785818151811061050a5761050a6118fb565b60200260200101518281518110610523576105236118fb565b602002602001015186838151811061053d5761053d6118fb565b60200260200101518281518110610556576105566118fb565b602002602001015111156105cf57858281518110610576576105766118fb565b6020026020010151818151811061058f5761058f6118fb565b60200260200101518383815181106105a9576105a96118fb565b602002602001015182815181106105c2576105c26118fb565b6020026020010181815250505b6001016104e9565b506001016104df565b505f5b82811015610820575f5b838110156108175780821461080f575f5b8481101561080d578083141580156106165750808214155b156108055783828151811061062d5761062d6118fb565b60200260200101518381518110610646576106466118fb565b6020026020010151848381518110610660576106606118fb565b60200260200101518281518110610679576106796118fb565b60200260200101511080156106f1575083838151811061069b5761069b6118fb565b602002602001015181815181106106b4576106b46118fb565b60200260200101518483815181106106ce576106ce6118fb565b602002602001015182815181106106e7576106e76118fb565b6020026020010151105b1561080557838381518110610708576107086118fb565b60200260200101518181518110610721576107216118fb565b602002602001015184838151811061073b5761073b6118fb565b60200260200101518481518110610754576107546118fb565b60200260200101511061079957838381518110610773576107736118fb565b6020026020010151818151811061078c5761078c6118fb565b60200260200101516107cd565b8382815181106107ab576107ab6118fb565b602002602001015183815181106107c4576107c46118fb565b60200260200101515b8483815181106107df576107df6118fb565b602002602001015182815181106107f8576107f86118fb565b6020026020010181815250505b6001016105fe565b505b6001016105ed565b506001016105e3565b505f8080846001600160401b0381111561083c5761083c611557565b604051908082528060200260200182016040528015610865578160200160208202803683370190505b5090505f5b85811015610958575f805b87811015610906578083146108fe57868181518110610896576108966118fb565b602002602001015183815181106108af576108af6118fb565b60200260200101518784815181106108c9576108c96118fb565b602002602001015182815181106108e2576108e26118fb565b602002602001015111156108fe576108fb60018361195a565b91505b600101610875565b508083838151811061091a5761091a6118fb565b6020026020010181815250508481111561093a578094506001935061094f565b84810361094f578361094b81611942565b9450505b5060010161086a565b50610964828483610a45565b979650505050505050565b6060815f0361099157604051638b9ae95f60e01b815260040160405180910390fd5b6040805160018082528183019092525f91602080830190803683370190505090505f815f815181106109c5576109c56118fb565b602090810291909101015292915050565b80515f90819081908190815b81811015610a39575f8782815181106109fd576109fd6118fb565b6020026020010151905084811115610a1b5780945060019350610a30565b848103610a305783610a2c81611942565b9450505b506001016109e2565b50919590945092505050565b60605f846001600160401b03811115610a6057610a60611557565b604051908082528060200260200182016040528015610a89578160200160208202803683370190505b5083519091505f805b82811015610aee5786868281518110610aad57610aad6118fb565b602002602001015103610ae65780848381518110610acd57610acd6118fb565b602090810291909101015281610ae281611942565b9250505b600101610a92565b50919695505050505050565b60605f825f81518110610b0f57610b0f6118fb565b60200260200101515190506002811015610b2c576102458161096f565b5f816001600160401b03811115610b4557610b45611557565b604051908082528060200260200182016040528015610b6e578160200160208202803683370190505b5090505f5b82811015610ba15780828281518110610b8e57610b8e6118fb565b6020908102919091010152600101610b73565b505b5f610bae858461139f565b90505f5b8151811015610c395760028651610bc99190611923565b828281518110610bdb57610bdb6118fb565b60200260200101511115610c3157604080516001808252818301909252906020808301908036833701905050945080855f81518110610c1c57610c1c6118fb565b60200260200101818152505050505050919050565b600101610bb2565b5084518060015f5b8451811015610d075783858281518110610c5d57610c5d6118fb565b6020026020010151108015610c8a57505f858281518110610c8057610c806118fb565b6020026020010151115b15610cb657848181518110610ca157610ca16118fb565b602002602001015193508092505f9150610cff565b83858281518110610cc957610cc96118fb565b6020026020010151148015610cf657505f858281518110610cec57610cec6118fb565b6020026020010151115b15610cff575f91505b600101610c41565b508015610e2c575f866001600160401b03811115610d2757610d27611557565b604051908082528060200260200182016040528015610d50578160200160208202803683370190505b5090505f805b8651811015610db4575f878281518110610d7257610d726118fb565b60200260200101511115610dac5780838381518110610d9357610d936118fb565b602090810291909101015281610da881611942565b9250505b600101610d56565b5060408051600280825260608201835290916020830190803683370190505098505f5b81811015610e1e57828181518110610df157610df16118fb565b60200260200101518a8281518110610e0b57610e0b6118fb565b6020908102919091010152600101610dd7565b505050505050505050919050565b5f5b8851811015610e7f57610e5a898281518110610e4c57610e4c6118fb565b602002602001015184611480565b898281518110610e6c57610e6c6118fb565b6020908102919091010152600101610e2e565b5060015f5b8951811015610ebf575f8a8281518110610ea057610ea06118fb565b6020026020010151511115610eb7575f9150610ebf565b600101610e84565b508015610fd7575f805b8751811015610f09578a51888281518110610ee657610ee66118fb565b602002602001015114610f015781610efd81611942565b9250505b600101610ec9565b50806001600160401b03811115610f2257610f22611557565b604051908082528060200260200182016040528015610f4b578160200160208202803683370190505b5098505f805b8851811015610fc8578b51898281518110610f6e57610f6e6118fb565b602002602001015114610fc057888181518110610f8d57610f8d6118fb565b60200260200101518b8381518110610fa757610fa76118fb565b602090810291909101015281610fbc81611942565b9250505b600101610f51565b50505050505050505050919050565b5050505050610ba3565b80516060906002811015610ff8576102458161096f565b5f816001600160401b0381111561101157611011611557565b60405190808252806020026020018201604052801561104457816020015b606081526020019060019003908161102f5790505b5090505f5b828110156111e157826001600160401b0381111561106957611069611557565b604051908082528060200260200182016040528015611092578160200160208202803683370190505b508282815181106110a5576110a56118fb565b60209081029190910101525f5b838110156111d8578082146111d0578581815181106110d3576110d36118fb565b602002602001015182815181106110ec576110ec6118fb565b6020026020010151868381518110611106576111066118fb565b6020026020010151828151811061111f5761111f6118fb565b6020026020010151116111645785818151811061113e5761113e6118fb565b60200260200101518281518110611157576111576118fb565b6020026020010151611198565b858281518110611176576111766118fb565b6020026020010151818151811061118f5761118f6118fb565b60200260200101515b8383815181106111aa576111aa6118fb565b602002602001015182815181106111c3576111c36118fb565b6020026020010181815250505b6001016110b2565b50600101611049565b505f826001600160401b038111156111fb576111fb611557565b604051908082528060200260200182016040528015611224578160200160208202803683370190505b5090505f805b84811015611383575f856001600160401b0381111561124b5761124b611557565b604051908082528060200260200182016040528015611274578160200160208202803683370190505b5090505f805b87811015611369578084146113615786818151811061129b5761129b6118fb565b602002602001015184815181106112b4576112b46118fb565b60200260200101518785815181106112ce576112ce6118fb565b602002602001015182815181106112e7576112e76118fb565b6020026020010151111561136157828481518110611307576113076118fb565b60200260200101805180919061131c90611942565b81525050868481518110611332576113326118fb565b6020026020010151818151811061134b5761134b6118fb565b60200260200101518261135e919061195a565b91505b60010161127a565b5083811115611379578093508194505b505060010161122a565b505f5f61138f846109d6565b90925090506103f9818386610a45565b60605f826001600160401b038111156113ba576113ba611557565b6040519080825280602002602001820160405280156113e3578160200160208202803683370190505b5090505f5b8451811015611478575f858281518110611404576114046118fb565b60200260200101515111156114705781858281518110611426576114266118fb565b60200260200101515f8151811061143f5761143f6118fb565b602002602001015181518110611457576114576118fb565b60200260200101805180919061146c90611942565b9052505b6001016113e8565b509392505050565b60605f60018451611491919061196d565b6001600160401b038111156114a8576114a8611557565b6040519080825280602002602001820160405280156114d1578160200160208202803683370190505b5090505f805b855181101561154d57848682815181106114f3576114f36118fb565b60200260200101511461154557858181518110611512576115126118fb565b602002602001015183838151811061152c5761152c6118fb565b60209081029190910101528161154181611942565b9250505b6001016114d7565b5090949350505050565b634e487b7160e01b5f52604160045260245ffd5b604051601f8201601f191681016001600160401b038111828210171561159357611593611557565b604052919050565b5f602082840312156115ab575f5ffd5b81356001600160401b038111156115c0575f5ffd5b8201601f810184136115d0575f5ffd5b80356001600160401b038111156115e9576115e9611557565b6115fc601f8201601f191660200161156b565b818152856020838501011115611610575f5ffd5b816020840160208301375f91810160200191909152949350505050565b602080825282518282018190525f918401906040840190835b81811015611664578351835260209384019390920191600101611646565b509095945050505050565b5f5f83601f84011261167f575f5ffd5b5081356001600160401b03811115611695575f5ffd5b6020830191508360208285010111156116ac575f5ffd5b9250929050565b5f5f5f604084860312156116c5575f5ffd5b83356001600160401b038111156116da575f5ffd5b6116e68682870161166f565b909790965060209590950135949350505050565b5f5f6020838503121561170b575f5ffd5b82356001600160401b03811115611720575f5ffd5b61172c8582860161166f565b90969095509350505050565b5f6001600160401b0382111561175057611750611557565b5060051b60200190565b5f6020828403121561176a575f5ffd5b81516001600160401b0381111561177f575f5ffd5b8201601f8101841361178f575f5ffd5b80516117a261179d82611738565b61156b565b8082825260208201915060208360051b8501019250868311156117c3575f5ffd5b602084015b838110156118605780516001600160401b038111156117e5575f5ffd5b8501603f810189136117f5575f5ffd5b602081015161180661179d82611738565b808282526020820191506020808460051b8601010192508b831115611829575f5ffd5b6040840193505b8284101561184b578351825260209384019390910190611830565b865250506020938401939190910190506117c8565b509695505050505050565b5f6020828403121561187b575f5ffd5b81356001600160401b03811115611890575f5ffd5b8201601f810184136118a0575f5ffd5b80356118ae61179d82611738565b8082825260208201915060208360051b8501019250868311156118cf575f5ffd5b6020840193505b828410156118f15783358252602093840193909101906118d6565b9695505050505050565b634e487b7160e01b5f52603260045260245ffd5b634e487b7160e01b5f52601160045260245ffd5b5f8261193d57634e487b7160e01b5f52601260045260245ffd5b500490565b5f600182016119535761195361190f565b5060010190565b808201808211156102be576102be61190f565b818103818111156102be576102be61190f56fea2646970667358221220209d33be0d386975eb6a6e4bad2e150a7c136c3ad49eb9ecfe39e27db8b5aefa64736f6c634300081c0033","linkReferences":{}},"methodIdentifiers":{"calculateGeneralResult(bytes)":"af6de5a1","calculateIRVResult(bytes)":"b2265653","calculateKemenyYoungResult(bytes)":"d5175990","calculateMooreResult(bytes)":"dd582afb","calculateSchulzeResult(bytes)":"18925138","getResults(bytes,uint256)":"934150cc"},"id":17}