{
  "_format": "hh-sol-artifact-1",
  "contractName": "BordaResult",
  "sourceName": "contracts/resultCalculator/BordaResult.sol",
  "abi": [
    {
      "inputs": [
        {
          "internalType": "uint256[][]",
          "name": "_votes",
          "type": "uint256[][]"
        },
        {
          "internalType": "uint256[]",
          "name": "_candidates",
          "type": "uint256[]"
        }
      ],
      "name": "borda",
      "outputs": [
        {
          "internalType": "uint256[]",
          "name": "",
          "type": "uint256[]"
        }
      ],
      "stateMutability": "nonpayable",
      "type": "function"
    },
    {
      "inputs": [
        {
          "internalType": "contract Ballot",
          "name": "_ballot",
          "type": "address"
        },
        {
          "internalType": "uint256",
          "name": "_voterCount",
          "type": "uint256"
        }
      ],
      "name": "getResult",
      "outputs": [
        {
          "internalType": "uint256[]",
          "name": "",
          "type": "uint256[]"
        }
      ],
      "stateMutability": "nonpayable",
      "type": "function"
    },
    {
      "inputs": [
        {
          "internalType": "uint256",
          "name": "",
          "type": "uint256"
        }
      ],
      "name": "winners",
      "outputs": [
        {
          "internalType": "uint256",
          "name": "",
          "type": "uint256"
        }
      ],
      "stateMutability": "view",
      "type": "function"
    }
  ],
  "bytecode": "0x608060405234801561001057600080fd5b506108c0806100206000396000f3fe608060405234801561001057600080fd5b50600436106100415760003560e01c8063a2fb117514610046578063c5071fd31461006c578063c8344a201461008c575b600080fd5b61005961005436600461048c565b61009f565b6040519081526020015b60405180910390f35b61007f61007a36600461057b565b6100c0565b604051610063919061064f565b61007f61009a366004610693565b610346565b600081815481106100af57600080fd5b600091825260209091200154905081565b60606000825167ffffffffffffffff8111156100de576100de6104a5565b604051908082528060200260200182016040528015610107578160200160208202803683370190505b50905060005b835181101561014757600082828151811061012a5761012a6106cb565b60209081029190910101526101406001826106f7565b905061010d565b5060005b84518110156101f95760005b84518110156101e657858281518110610172576101726106cb565b6020026020010151818151811061018b5761018b6106cb565b6020026020010151855160016101a191906106f7565b6101ab919061070f565b8382815181106101bd576101bd6106cb565b602002602001018181516101d191906106f7565b905250806101de81610726565b915050610157565b50806101f181610726565b91505061014b565b506000805b84518110156102ea578183828151811061021a5761021a6106cb565b6020026020010151141561025b57600080546001810182559080527f290decd9548b62a8d60345a988386fc84ba6bc95484008f6362f93160ef3e563018190555b8183828151811061026e5761026e6106cb565b602002602001015111156102d85782818151811061028e5761028e6106cb565b602002602001015191506000806102a59190610452565b600080546001810182559080527f290decd9548b62a8d60345a988386fc84ba6bc95484008f6362f93160ef3e563018190555b806102e281610726565b9150506101fe565b50600080548060200260200160405190810160405280929190818152602001828054801561033757602002820191906000526020600020905b815481526020019060010190808311610323575b50505050509250505092915050565b60606000836001600160a01b031663afa524086040518163ffffffff1660e01b8152600401600060405180830381600087803b15801561038557600080fd5b505af1158015610399573d6000803e3d6000fd5b505050506040513d6000823e601f3d908101601f191682016040526103c1919081019061079c565b90506000846001600160a01b03166306a49fce6040518163ffffffff1660e01b815260040160006040518083038186803b1580156103fe57600080fd5b505afa158015610412573d6000803e3d6000fd5b505050506040513d6000823e601f3d908101601f1916820160405261043a919081019061084d565b9050600061044883836100c0565b9695505050505050565b50805460008255906000526020600020908101906104709190610473565b50565b5b808211156104885760008155600101610474565b5090565b60006020828403121561049e57600080fd5b5035919050565b634e487b7160e01b600052604160045260246000fd5b604051601f8201601f1916810167ffffffffffffffff811182821017156104e4576104e46104a5565b604052919050565b600067ffffffffffffffff821115610506576105066104a5565b5060051b60200190565b600082601f83011261052157600080fd5b81356020610536610531836104ec565b6104bb565b82815260059290921b8401810191818101908684111561055557600080fd5b8286015b848110156105705780358352918301918301610559565b509695505050505050565b6000806040838503121561058e57600080fd5b823567ffffffffffffffff808211156105a657600080fd5b818501915085601f8301126105ba57600080fd5b813560206105ca610531836104ec565b82815260059290921b840181019181810190898411156105e957600080fd5b8286015b84811015610621578035868111156106055760008081fd5b6106138c86838b0101610510565b8452509183019183016105ed565b509650508601359250508082111561063857600080fd5b5061064585828601610510565b9150509250929050565b6020808252825182820181905260009190848201906040850190845b818110156106875783518352928401929184019160010161066b565b50909695505050505050565b600080604083850312156106a657600080fd5b82356001600160a01b03811681146106bd57600080fd5b946020939093013593505050565b634e487b7160e01b600052603260045260246000fd5b634e487b7160e01b600052601160045260246000fd5b6000821982111561070a5761070a6106e1565b500190565b600082821015610721576107216106e1565b500390565b600060001982141561073a5761073a6106e1565b5060010190565b600082601f83011261075257600080fd5b81516020610762610531836104ec565b82815260059290921b8401810191818101908684111561078157600080fd5b8286015b848110156105705780518352918301918301610785565b600060208083850312156107af57600080fd5b825167ffffffffffffffff808211156107c757600080fd5b818501915085601f8301126107db57600080fd5b81516107e9610531826104ec565b81815260059190911b8301840190848101908883111561080857600080fd5b8585015b83811015610840578051858111156108245760008081fd5b6108328b89838a0101610741565b84525091860191860161080c565b5098975050505050505050565b60006020828403121561085f57600080fd5b815167ffffffffffffffff81111561087657600080fd5b61088284828501610741565b94935050505056fea2646970667358221220debdfeaefc4ea64fd5b0b46bcefaf0b9c35417c2753e2ca26e49ed0bea72c8e764736f6c63430008090033",
  "linkReferences": {},
  "deployedLinkReferences": {}
}