{"abi":[{"type":"constructor","inputs":[{"name":"_router","type":"address","internalType":"address"},{"name":"_link","type":"address","internalType":"address"},{"name":"_electionFactory","type":"address","internalType":"address"}],"stateMutability":"nonpayable"},{"type":"function","name":"acceptOwnership","inputs":[],"outputs":[],"stateMutability":"nonpayable"},{"type":"function","name":"addElection","inputs":[{"name":"_election","type":"address","internalType":"address"}],"outputs":[],"stateMutability":"nonpayable"},{"type":"function","name":"electionApproved","inputs":[{"name":"election","type":"address","internalType":"address"}],"outputs":[{"name":"status","type":"bool","internalType":"bool"}],"stateMutability":"view"},{"type":"function","name":"getLinkBalance","inputs":[],"outputs":[{"name":"","type":"uint256","internalType":"uint256"}],"stateMutability":"view"},{"type":"function","name":"minTokens","inputs":[],"outputs":[{"name":"","type":"uint256","internalType":"uint256"}],"stateMutability":"view"},{"type":"function","name":"owner","inputs":[],"outputs":[{"name":"","type":"address","internalType":"address"}],"stateMutability":"view"},{"type":"function","name":"sendMessage","inputs":[{"name":"destinationChainSelector","type":"uint64","internalType":"uint64"},{"name":"_election","type":"address","internalType":"address"},{"name":"_voteArr","type":"uint256[]","internalType":"uint256[]"}],"outputs":[{"name":"messageId","type":"bytes32","internalType":"bytes32"}],"stateMutability":"nonpayable"},{"type":"function","name":"transferOwnership","inputs":[{"name":"to","type":"address","internalType":"address"}],"outputs":[],"stateMutability":"nonpayable"},{"type":"function","name":"updateElectionFactory","inputs":[{"name":"_newElectionFactory","type":"address","internalType":"address"}],"outputs":[],"stateMutability":"nonpayable"},{"type":"event","name":"MessageSent","inputs":[{"name":"messageId","type":"bytes32","indexed":true,"internalType":"bytes32"},{"name":"destinationChainSelector","type":"uint64","indexed":true,"internalType":"uint64"},{"name":"receiver","type":"address","indexed":false,"internalType":"address"},{"name":"text","type":"string","indexed":false,"internalType":"string"},{"name":"feeToken","type":"address","indexed":false,"internalType":"address"},{"name":"fees","type":"uint256","indexed":false,"internalType":"uint256"}],"anonymous":false},{"type":"event","name":"OwnershipTransferRequested","inputs":[{"name":"from","type":"address","indexed":true,"internalType":"address"},{"name":"to","type":"address","indexed":true,"internalType":"address"}],"anonymous":false},{"type":"event","name":"OwnershipTransferred","inputs":[{"name":"from","type":"address","indexed":true,"internalType":"address"},{"name":"to","type":"address","indexed":true,"internalType":"address"}],"anonymous":false},{"type":"error","name":"CCIPNotSupported","inputs":[]},{"type":"error","name":"InsufficientAllowance","inputs":[]},{"type":"error","name":"NotEnoughBalance","inputs":[{"name":"currentBalance","type":"uint256","internalType":"uint256"},{"name":"calculatedFees","type":"uint256","internalType":"uint256"}]}],"bytecode":{"object":"0x608060405234801561000f575f5ffd5b50604051610e5b380380610e5b83398101604081905261002e916101ba565b33805f816100835760405162461bcd60e51b815260206004820152601860248201527f43616e6e6f7420736574206f776e657220746f207a65726f000000000000000060448201526064015b60405180910390fd5b5f80546001600160a01b0319166001600160a01b03848116919091179091558116156100b2576100b2816100f7565b5050600280546001600160a01b039586166001600160a01b031991821617909155600480549486169482169490941790935550600380549190931691161790556101fa565b336001600160a01b0382160361014f5760405162461bcd60e51b815260206004820152601760248201527f43616e6e6f74207472616e7366657220746f2073656c66000000000000000000604482015260640161007a565b600180546001600160a01b0319166001600160a01b038381169182179092555f8054604051929316917fed8889f560326eb138920d842192f0eb3dd22b4f139c87a2c57538e05bae12789190a350565b80516001600160a01b03811681146101b5575f5ffd5b919050565b5f5f5f606084860312156101cc575f5ffd5b6101d58461019f565b92506101e36020850161019f565b91506101f16040850161019f565b90509250925092565b610c54806102075f395ff3fe608060405234801561000f575f5ffd5b5060043610610090575f3560e01c80639b47a915116100635780639b47a915146100e65780639d4c5451146100f9578063b768902514610109578063edfe359d1461011c578063f2fde38b1461014e575f5ffd5b806350c5f97514610094578063694b98ce146100af57806379ba5097146100c45780638da5cb5b146100cc575b5f5ffd5b61009c610161565b6040519081526020015b60405180910390f35b6100c26100bd3660046109ae565b6101d5565b005b6100c261031c565b5f546040516001600160a01b0390911681526020016100a6565b61009c6100f43660046109ce565b6103ca565b61009c68015af1d78b58c4000081565b6100c26101173660046109ae565b610859565b61013e61012a3660046109ae565b60056020525f908152604090205460ff1681565b60405190151581526020016100a6565b6100c261015c3660046109ae565b610883565b600480546040516370a0823160e01b815230928101929092525f916001600160a01b03909116906370a0823190602401602060405180830381865afa1580156101ac573d5f5f3e3d5ffd5b505050506040513d601f19601f820116820180604052508101906101d09190610a69565b905090565b60048054604051636eb1769f60e11b815233928101929092523060248301525f916001600160a01b039091169063dd62ed3e90604401602060405180830381865afa158015610226573d5f5f3e3d5ffd5b505050506040513d601f19601f8201168201806040525081019061024a9190610a69565b905068015af1d78b58c40000811015610276576040516313be252b60e01b815260040160405180910390fd5b600480546040516323b872dd60e01b8152339281019290925230602483015268015af1d78b58c4000060448301526001600160a01b0316906323b872dd906064016020604051808303815f875af11580156102d3573d5f5f3e3d5ffd5b505050506040513d601f19601f820116820180604052508101906102f79190610a80565b50506001600160a01b03165f908152600560205260409020805460ff19166001179055565b6001546001600160a01b031633146103745760405162461bcd60e51b815260206004820152601660248201527526bab9ba10313290383937b837b9b2b21037bbb732b960511b60448201526064015b60405180910390fd5b5f8054336001600160a01b0319808316821784556001805490911690556040516001600160a01b0390921692909183917f8be0079c531659141344cd1fd0a4f28419497f9722a3daafe3b4186f6b6457e091a350565b6001600160a01b0383165f9081526005602052604081205460ff16610402576040516335c385b760e21b815260040160405180910390fd5b5f6040518060600160405280866001600160a01b03168152602001336001600160a01b031681526020018585808060200260200160405190810160405280939291908181526020018383602002808284375f9201829052509390945250506040805160a081019091526003546001600160a01b031660c08201529293509190508060e081016040516020818303038152906040528152602001836040516020016104ac9190610a9f565b60408051601f1981840301815291905281526020015f60405190808252806020026020018201604052801561050657816020015b604080518082019091525f80825260208201528152602001906001900390816104e05790505b5081526004546001600160a01b031660208083019190915260408051808301825262030d4090819052815160248082019290925282518082039092018252604401825291820180516001600160e01b03166397a657c960e01b179052909101526002546040516320487ded60e01b81529192505f916001600160a01b03909116906320487ded9061059d908b908690600401610b3f565b602060405180830381865afa1580156105b8573d5f5f3e3d5ffd5b505050506040513d601f19601f820116820180604052508101906105dc9190610a69565b600480546040516370a0823160e01b815230928101929092529192506001600160a01b03909116906370a0823190602401602060405180830381865afa158015610628573d5f5f3e3d5ffd5b505050506040513d601f19601f8201168201806040525081019061064c9190610a69565b8111156106e257600480546040516370a0823160e01b815230928101929092526001600160a01b0316906370a0823190602401602060405180830381865afa15801561069a573d5f5f3e3d5ffd5b505050506040513d601f19601f820116820180604052508101906106be9190610a69565b604051634787a10360e11b815260048101919091526024810182905260440161036b565b6004805460025460405163095ea7b360e01b81526001600160a01b039182169381019390935260248301849052169063095ea7b3906044016020604051808303815f875af1158015610736573d5f5f3e3d5ffd5b505050506040513d601f19601f8201168201806040525081019061075a9190610a80565b506002546040516396f4e9f960e01b81526001600160a01b03909116906396f4e9f99061078d908b908690600401610b3f565b6020604051808303815f875af11580156107a9573d5f5f3e3d5ffd5b505050506040513d601f19601f820116820180604052508101906107cd9190610a69565b600354600454604080516001600160a01b03938416815260806020820181905260059082015264159bdd195960da1b60a082015292909116908201526060810183905290945067ffffffffffffffff89169085907fd36445359b3c6e26c120659aef090ce0f2eb005cf9af450d11aa1225609b4f4d9060c00160405180910390a3505050949350505050565b610861610897565b600380546001600160a01b0319166001600160a01b0392909216919091179055565b61088b610897565b610894816108eb565b50565b5f546001600160a01b031633146108e95760405162461bcd60e51b815260206004820152601660248201527527b7363c9031b0b63630b1363290313c9037bbb732b960511b604482015260640161036b565b565b336001600160a01b038216036109435760405162461bcd60e51b815260206004820152601760248201527f43616e6e6f74207472616e7366657220746f2073656c66000000000000000000604482015260640161036b565b600180546001600160a01b0319166001600160a01b038381169182179092555f8054604051929316917fed8889f560326eb138920d842192f0eb3dd22b4f139c87a2c57538e05bae12789190a350565b80356001600160a01b03811681146109a9575f5ffd5b919050565b5f602082840312156109be575f5ffd5b6109c782610993565b9392505050565b5f5f5f5f606085870312156109e1575f5ffd5b843567ffffffffffffffff811681146109f8575f5ffd5b9350610a0660208601610993565b9250604085013567ffffffffffffffff811115610a21575f5ffd5b8501601f81018713610a31575f5ffd5b803567ffffffffffffffff811115610a47575f5ffd5b8760208260051b8401011115610a5b575f5ffd5b949793965060200194505050565b5f60208284031215610a79575f5ffd5b5051919050565b5f60208284031215610a90575f5ffd5b815180151581146109c7575f5ffd5b602080825282516001600160a01b039081168383015283820151166040808401919091528301516060808401528051608084018190525f929190910190829060a08501905b80831015610b075783518252602082019150602084019350600183019250610ae4565b5095945050505050565b5f81518084528060208401602086015e5f602082860101526020601f19601f83011685010191505092915050565b67ffffffffffffffff83168152604060208201525f825160a06040840152610b6a60e0840182610b11565b90506020840151603f19848303016060850152610b878282610b11565b6040860151858203603f190160808701528051808352602091820194505f93509101905b80831015610be257835180516001600160a01b03168352602090810151818401529093019260019290920191604090910190610bab565b5060608601516001600160a01b031660a08601526080860151858203603f190160c08701529250610c138184610b11565b97965050505050505056fea2646970667358221220893f4d0c3facf858a18292813b4c86ce120eb3ed78d9e224dbbb6a2e9c15962364736f6c634300081c0033","linkReferences":{}},"methodIdentifiers":{"acceptOwnership()":"79ba5097","addElection(address)":"694b98ce","electionApproved(address)":"edfe359d","getLinkBalance()":"50c5f975","minTokens()":"9d4c5451","owner()":"8da5cb5b","sendMessage(uint64,address,uint256[])":"9b47a915","transferOwnership(address)":"f2fde38b","updateElectionFactory(address)":"b7689025"},"id":12}