{
  "_format": "hh-sol-artifact-1",
  "contractName": "ElectionOrganizer",
  "sourceName": "contracts/facets/ElectionOrganizer.sol",
  "abi": [
    {
      "anonymous": false,
      "inputs": [
        {
          "indexed": false,
          "internalType": "address",
          "name": "election",
          "type": "address"
        },
        {
          "components": [
            {
              "internalType": "uint256",
              "name": "candidateID",
              "type": "uint256"
            },
            {
              "internalType": "string",
              "name": "name",
              "type": "string"
            },
            {
              "internalType": "string",
              "name": "description",
              "type": "string"
            }
          ],
          "indexed": false,
          "internalType": "struct Election.Candidate",
          "name": "candidate",
          "type": "tuple"
        }
      ],
      "name": "CandidateAdded",
      "type": "event"
    },
    {
      "anonymous": false,
      "inputs": [
        {
          "indexed": false,
          "internalType": "address",
          "name": "election",
          "type": "address"
        }
      ],
      "name": "CreatedElection",
      "type": "event"
    },
    {
      "inputs": [
        {
          "internalType": "contract Election",
          "name": "_election",
          "type": "address"
        },
        {
          "components": [
            {
              "internalType": "uint256",
              "name": "candidateID",
              "type": "uint256"
            },
            {
              "internalType": "string",
              "name": "name",
              "type": "string"
            },
            {
              "internalType": "string",
              "name": "description",
              "type": "string"
            }
          ],
          "internalType": "struct Election.Candidate",
          "name": "_candidate",
          "type": "tuple"
        }
      ],
      "name": "addCandidate",
      "outputs": [],
      "stateMutability": "nonpayable",
      "type": "function"
    },
    {
      "inputs": [
        {
          "components": [
            {
              "internalType": "uint256",
              "name": "organizerID",
              "type": "uint256"
            },
            {
              "internalType": "string",
              "name": "name",
              "type": "string"
            },
            {
              "internalType": "address",
              "name": "publicAddress",
              "type": "address"
            }
          ],
          "internalType": "struct ElectionOrganizer.OrganizerInfo",
          "name": "_organizerInfo",
          "type": "tuple"
        }
      ],
      "name": "addElectionOrganizer",
      "outputs": [],
      "stateMutability": "nonpayable",
      "type": "function"
    },
    {
      "inputs": [
        {
          "internalType": "address",
          "name": "_addOrganizer",
          "type": "address"
        },
        {
          "internalType": "address",
          "name": "_election",
          "type": "address"
        }
      ],
      "name": "addOrganizerToInviteBasedElection",
      "outputs": [],
      "stateMutability": "nonpayable",
      "type": "function"
    },
    {
      "inputs": [
        {
          "components": [
            {
              "internalType": "uint256",
              "name": "electionID",
              "type": "uint256"
            },
            {
              "internalType": "string",
              "name": "name",
              "type": "string"
            },
            {
              "internalType": "string",
              "name": "description",
              "type": "string"
            },
            {
              "internalType": "uint256",
              "name": "startDate",
              "type": "uint256"
            },
            {
              "internalType": "uint256",
              "name": "endDate",
              "type": "uint256"
            },
            {
              "internalType": "bool",
              "name": "electionType",
              "type": "bool"
            }
          ],
          "internalType": "struct Election.ElectionInfo",
          "name": "_electionInfo",
          "type": "tuple"
        },
        {
          "internalType": "uint256",
          "name": "_ballotType",
          "type": "uint256"
        },
        {
          "internalType": "uint256",
          "name": "_resultCalculatorType",
          "type": "uint256"
        }
      ],
      "name": "createElection",
      "outputs": [],
      "stateMutability": "nonpayable",
      "type": "function"
    },
    {
      "inputs": [
        {
          "internalType": "address",
          "name": "_election",
          "type": "address"
        }
      ],
      "name": "deleteElection",
      "outputs": [],
      "stateMutability": "nonpayable",
      "type": "function"
    },
    {
      "inputs": [],
      "name": "electionOrganizerInit",
      "outputs": [],
      "stateMutability": "nonpayable",
      "type": "function"
    },
    {
      "inputs": [],
      "name": "getElectionFactory",
      "outputs": [
        {
          "internalType": "address",
          "name": "",
          "type": "address"
        }
      ],
      "stateMutability": "view",
      "type": "function"
    },
    {
      "inputs": [
        {
          "internalType": "address",
          "name": "_address",
          "type": "address"
        }
      ],
      "name": "getElectionOrganizerByAddress",
      "outputs": [
        {
          "components": [
            {
              "internalType": "uint256",
              "name": "organizerID",
              "type": "uint256"
            },
            {
              "internalType": "string",
              "name": "name",
              "type": "string"
            },
            {
              "internalType": "address",
              "name": "publicAddress",
              "type": "address"
            }
          ],
          "internalType": "struct ElectionOrganizer.OrganizerInfo",
          "name": "",
          "type": "tuple"
        }
      ],
      "stateMutability": "view",
      "type": "function"
    },
    {
      "inputs": [
        {
          "internalType": "uint256",
          "name": "_organizerID",
          "type": "uint256"
        }
      ],
      "name": "getElectionOrganizerByID",
      "outputs": [
        {
          "components": [
            {
              "internalType": "uint256",
              "name": "organizerID",
              "type": "uint256"
            },
            {
              "internalType": "string",
              "name": "name",
              "type": "string"
            },
            {
              "internalType": "address",
              "name": "publicAddress",
              "type": "address"
            }
          ],
          "internalType": "struct ElectionOrganizer.OrganizerInfo",
          "name": "",
          "type": "tuple"
        }
      ],
      "stateMutability": "view",
      "type": "function"
    },
    {
      "inputs": [],
      "name": "getElectionOrganizers",
      "outputs": [
        {
          "components": [
            {
              "internalType": "uint256",
              "name": "organizerID",
              "type": "uint256"
            },
            {
              "internalType": "string",
              "name": "name",
              "type": "string"
            },
            {
              "internalType": "address",
              "name": "publicAddress",
              "type": "address"
            }
          ],
          "internalType": "struct ElectionOrganizer.OrganizerInfo[]",
          "name": "",
          "type": "tuple[]"
        }
      ],
      "stateMutability": "view",
      "type": "function"
    },
    {
      "inputs": [
        {
          "internalType": "address",
          "name": "_election",
          "type": "address"
        }
      ],
      "name": "getElectionOwner",
      "outputs": [
        {
          "internalType": "address",
          "name": "",
          "type": "address"
        }
      ],
      "stateMutability": "view",
      "type": "function"
    },
    {
      "inputs": [],
      "name": "getElectionStorage",
      "outputs": [
        {
          "internalType": "address",
          "name": "",
          "type": "address"
        }
      ],
      "stateMutability": "view",
      "type": "function"
    },
    {
      "inputs": [
        {
          "internalType": "address",
          "name": "_organizer",
          "type": "address"
        }
      ],
      "name": "getInviteBasedElections",
      "outputs": [
        {
          "internalType": "address[]",
          "name": "",
          "type": "address[]"
        }
      ],
      "stateMutability": "view",
      "type": "function"
    },
    {
      "inputs": [],
      "name": "getOpenBasedElections",
      "outputs": [
        {
          "internalType": "address[]",
          "name": "",
          "type": "address[]"
        }
      ],
      "stateMutability": "view",
      "type": "function"
    },
    {
      "inputs": [
        {
          "internalType": "contract Election",
          "name": "_election",
          "type": "address"
        }
      ],
      "name": "getResult",
      "outputs": [
        {
          "internalType": "uint256[]",
          "name": "",
          "type": "uint256[]"
        }
      ],
      "stateMutability": "nonpayable",
      "type": "function"
    },
    {
      "inputs": [
        {
          "internalType": "contract Election",
          "name": "_election",
          "type": "address"
        },
        {
          "internalType": "string",
          "name": "_name",
          "type": "string"
        },
        {
          "internalType": "string",
          "name": "_description",
          "type": "string"
        },
        {
          "internalType": "uint256",
          "name": "index",
          "type": "uint256"
        }
      ],
      "name": "updateCandidateInfo",
      "outputs": [],
      "stateMutability": "nonpayable",
      "type": "function"
    }
  ],
  "bytecode": "0x6080604052606460035534801561001557600080fd5b50613e4f806100256000396000f3fe608060405234801561001057600080fd5b50600436106101005760003560e01c806379db9ffe11610097578063a8c0198711610066578063a8c0198714610285578063a95bc635146102a3578063ca99067a146102d3578063e5999c2b146102ef57610100565b806379db9ffe146102015780637d1659fa1461023157806388e96eb61461024d578063936a11671461026957610100565b806332fb68cd116100d357806332fb68cd1461016557806335b5082814610183578063446a37e0146101b3578063761db9fb146101e357610100565b80630249ff4d1461010557806315d4ffa0146101235780631d43d8ed1461013f578063326e0d2814610149575b600080fd5b61010d61031f565b60405161011a919061141a565b60405180910390f35b61013d6004803603810190610138919061167b565b610349565b005b6101476105a3565b005b610163600480360381019061015e919061179e565b61060e565b005b61016d610794565b60405161017a919061141a565b60405180910390f35b61019d600480360381019061019891906117fa565b6107c7565b6040516101aa919061141a565b60405180910390f35b6101cd60048036038101906101c89190611827565b61086c565b6040516101da9190611912565b60405180910390f35b6101eb6108eb565b6040516101f891906119f2565b60405180910390f35b61021b60048036038101906102169190611a14565b610988565b6040516102289190611b10565b60405180910390f35b61024b60048036038101906102469190611b32565b610aa7565b005b61026760048036038101906102629190611c82565b610b3a565b005b610283600480360381019061027e9190611cf1565b610e12565b005b61028d610f65565b60405161029a9190611ea2565b60405180910390f35b6102bd60048036038101906102b891906117fa565b6110b6565b6040516102ca9190611b10565b60405180910390f35b6102ed60048036038101906102e891906117fa565b611201565b005b610309600480360381019061030491906117fa565b611291565b60405161031691906119f2565b60405180910390f35b6000600560009054906101000a900473ffffffffffffffffffffffffffffffffffffffff16905090565b6000600160035461035a9190611ef3565b90508082600001818152505060008290806001815401808255809150506001900390600052602060002090600302016000909190919091506000820151816000015560208201518160010190816103b19190612133565b5060408201518160020160006101000a81548173ffffffffffffffffffffffffffffffffffffffff021916908373ffffffffffffffffffffffffffffffffffffffff16021790555050508160016000846040015173ffffffffffffffffffffffffffffffffffffffff1673ffffffffffffffffffffffffffffffffffffffff16815260200190815260200160002060008201518160000155602082015181600101908161045e9190612133565b5060408201518160020160006101000a81548173ffffffffffffffffffffffffffffffffffffffff021916908373ffffffffffffffffffffffffffffffffffffffff1602179055509050508160026000846000015181526020019081526020016000206000820151816000015560208201518160010190816104e09190612133565b5060408201518160020160006101000a81548173ffffffffffffffffffffffffffffffffffffffff021916908373ffffffffffffffffffffffffffffffffffffffff160217905550905050600160046000846040015173ffffffffffffffffffffffffffffffffffffffff1673ffffffffffffffffffffffffffffffffffffffff16815260200190815260200160002060006101000a81548160ff0219169083151502179055506003600081548092919061059a90612205565b91905055505050565b6040516105af90611395565b604051809103906000f0801580156105cb573d6000803e3d6000fd5b50600560006101000a81548173ffffffffffffffffffffffffffffffffffffffff021916908373ffffffffffffffffffffffffffffffffffffffff160217905550565b8173ffffffffffffffffffffffffffffffffffffffff1663e04b1c0c6040518163ffffffff1660e01b8152600401602060405180830381865afa158015610659573d6000803e3d6000fd5b505050506040513d601f19601f8201168201806040525081019061067d9190612262565b8073ffffffffffffffffffffffffffffffffffffffff163373ffffffffffffffffffffffffffffffffffffffff16146106eb576040517f08c379a00000000000000000000000000000000000000000000000000000000081526004016106e290612312565b60405180910390fd5b8273ffffffffffffffffffffffffffffffffffffffff1663273ffe86836040518263ffffffff1660e01b81526004016107249190612389565b600060405180830381600087803b15801561073e57600080fd5b505af1158015610752573d6000803e3d6000fd5b505050507fd0c201c1465de1cf8804d8aa806f3674abe49346aa6a18624a868dfa1410892183836040516107879291906123ab565b60405180910390a1505050565b600061079e61133b565b60000160009054906101000a900473ffffffffffffffffffffffffffffffffffffffff16905090565b6000600560009054906101000a900473ffffffffffffffffffffffffffffffffffffffff1673ffffffffffffffffffffffffffffffffffffffff166335b50828836040518263ffffffff1660e01b8152600401610824919061141a565b602060405180830381865afa158015610841573d6000803e3d6000fd5b505050506040513d601f19601f820116820180604052508101906108659190612262565b9050919050565b60608173ffffffffffffffffffffffffffffffffffffffff1663de2927896040518163ffffffff1660e01b81526004016000604051808303816000875af11580156108bb573d6000803e3d6000fd5b505050506040513d6000823e3d601f19601f820116820180604052508101906108e491906124b8565b9050919050565b6060600560009054906101000a900473ffffffffffffffffffffffffffffffffffffffff1673ffffffffffffffffffffffffffffffffffffffff1663761db9fb6040518163ffffffff1660e01b8152600401600060405180830381865afa15801561095a573d6000803e3d6000fd5b505050506040513d6000823e3d601f19601f8201168201806040525081019061098391906125c4565b905090565b6109906113a2565b60026000838152602001908152602001600020604051806060016040529081600082015481526020016001820180546109c890611f56565b80601f01602080910402602001604051908101604052809291908181526020018280546109f490611f56565b8015610a415780601f10610a1657610100808354040283529160200191610a41565b820191906000526020600020905b815481529060010190602001808311610a2457829003601f168201915b505050505081526020016002820160009054906101000a900473ffffffffffffffffffffffffffffffffffffffff1673ffffffffffffffffffffffffffffffffffffffff1673ffffffffffffffffffffffffffffffffffffffff16815250509050919050565b600560009054906101000a900473ffffffffffffffffffffffffffffffffffffffff1673ffffffffffffffffffffffffffffffffffffffff16637d1659fa83836040518363ffffffff1660e01b8152600401610b0492919061260d565b600060405180830381600087803b158015610b1e57600080fd5b505af1158015610b32573d6000803e3d6000fd5b505050505050565b600460003373ffffffffffffffffffffffffffffffffffffffff1673ffffffffffffffffffffffffffffffffffffffff16815260200190815260200160002060009054906101000a900460ff16610bc6576040517f08c379a0000000000000000000000000000000000000000000000000000000008152600401610bbd906126a8565b60405180910390fd5b6000610bd061133b565b60000160009054906101000a900473ffffffffffffffffffffffffffffffffffffffff16905060006001600560009054906101000a900473ffffffffffffffffffffffffffffffffffffffff1673ffffffffffffffffffffffffffffffffffffffff1663213785a06040518163ffffffff1660e01b8152600401602060405180830381865afa158015610c67573d6000803e3d6000fd5b505050506040513d601f19601f82011682018060405250810190610c8b91906126c8565b610c959190611ef3565b9050808560000181815250508173ffffffffffffffffffffffffffffffffffffffff16639dc9faf286868633306040518663ffffffff1660e01b8152600401610ce29594939291906127a3565b600060405180830381600087803b158015610cfc57600080fd5b505af1158015610d10573d6000803e3d6000fd5b505050506000610d1e611368565b60020160009054906101000a900473ffffffffffffffffffffffffffffffffffffffff169050600560009054906101000a900473ffffffffffffffffffffffffffffffffffffffff1673ffffffffffffffffffffffffffffffffffffffff166387b4e8d382336040518363ffffffff1660e01b8152600401610da192919061260d565b600060405180830381600087803b158015610dbb57600080fd5b505af1158015610dcf573d6000803e3d6000fd5b505050507f49fdfe60e25ebf09e8f8c20a8a10c828d9b82cecf7b04e1ecb59ae51f79f827781604051610e02919061141a565b60405180910390a1505050505050565b8373ffffffffffffffffffffffffffffffffffffffff1663e04b1c0c6040518163ffffffff1660e01b8152600401602060405180830381865afa158015610e5d573d6000803e3d6000fd5b505050506040513d601f19601f82011682018060405250810190610e819190612262565b8073ffffffffffffffffffffffffffffffffffffffff163373ffffffffffffffffffffffffffffffffffffffff1614610eef576040517f08c379a0000000000000000000000000000000000000000000000000000000008152600401610ee690612312565b60405180910390fd5b8473ffffffffffffffffffffffffffffffffffffffff166324fd983c8585856040518463ffffffff1660e01b8152600401610f2c93929190612836565b600060405180830381600087803b158015610f4657600080fd5b505af1158015610f5a573d6000803e3d6000fd5b505050505050505050565b60606000805480602002602001604051908101604052809291908181526020016000905b828210156110ad578382906000526020600020906003020160405180606001604052908160008201548152602001600182018054610fc690611f56565b80601f0160208091040260200160405190810160405280929190818152602001828054610ff290611f56565b801561103f5780601f106110145761010080835404028352916020019161103f565b820191906000526020600020905b81548152906001019060200180831161102257829003601f168201915b505050505081526020016002820160009054906101000a900473ffffffffffffffffffffffffffffffffffffffff1673ffffffffffffffffffffffffffffffffffffffff1673ffffffffffffffffffffffffffffffffffffffff168152505081526020019060010190610f89565b50505050905090565b6110be6113a2565b600160008373ffffffffffffffffffffffffffffffffffffffff1673ffffffffffffffffffffffffffffffffffffffff1681526020019081526020016000206040518060600160405290816000820154815260200160018201805461112290611f56565b80601f016020809104026020016040519081016040528092919081815260200182805461114e90611f56565b801561119b5780601f106111705761010080835404028352916020019161119b565b820191906000526020600020905b81548152906001019060200180831161117e57829003601f168201915b505050505081526020016002820160009054906101000a900473ffffffffffffffffffffffffffffffffffffffff1673ffffffffffffffffffffffffffffffffffffffff1673ffffffffffffffffffffffffffffffffffffffff16815250509050919050565b600560009054906101000a900473ffffffffffffffffffffffffffffffffffffffff1673ffffffffffffffffffffffffffffffffffffffff1663ca99067a826040518263ffffffff1660e01b815260040161125c919061141a565b600060405180830381600087803b15801561127657600080fd5b505af115801561128a573d6000803e3d6000fd5b5050505050565b6060600560009054906101000a900473ffffffffffffffffffffffffffffffffffffffff1673ffffffffffffffffffffffffffffffffffffffff1663e5999c2b836040518263ffffffff1660e01b81526004016112ee919061141a565b600060405180830381865afa15801561130b573d6000803e3d6000fd5b505050506040513d6000823e3d601f19601f8201168201806040525081019061133491906125c4565b9050919050565b6000807fc20038518297e76c0e27a913ab03e5d4fd92b2579d428cf3b89f8c71add2acef90508091505090565b6000807f5b43f313088137496832405d64cc708765db93c8144d82f7a7f806ac22d5603b90508091505090565b61159e8061287c83390190565b60405180606001604052806000815260200160608152602001600073ffffffffffffffffffffffffffffffffffffffff1681525090565b600073ffffffffffffffffffffffffffffffffffffffff82169050919050565b6000611404826113d9565b9050919050565b611414816113f9565b82525050565b600060208201905061142f600083018461140b565b92915050565b6000604051905090565b600080fd5b600080fd5b600080fd5b6000601f19601f8301169050919050565b7f4e487b7100000000000000000000000000000000000000000000000000000000600052604160045260246000fd5b6114978261144e565b810181811067ffffffffffffffff821117156114b6576114b561145f565b5b80604052505050565b60006114c9611435565b90506114d5828261148e565b919050565b600080fd5b6000819050919050565b6114f2816114df565b81146114fd57600080fd5b50565b60008135905061150f816114e9565b92915050565b600080fd5b600080fd5b600067ffffffffffffffff82111561153a5761153961145f565b5b6115438261144e565b9050602081019050919050565b82818337600083830152505050565b600061157261156d8461151f565b6114bf565b90508281526020810184848401111561158e5761158d61151a565b5b611599848285611550565b509392505050565b600082601f8301126115b6576115b5611515565b5b81356115c684826020860161155f565b91505092915050565b6115d8816113f9565b81146115e357600080fd5b50565b6000813590506115f5816115cf565b92915050565b60006060828403121561161157611610611449565b5b61161b60606114bf565b9050600061162b84828501611500565b600083015250602082013567ffffffffffffffff81111561164f5761164e6114da565b5b61165b848285016115a1565b602083015250604061166f848285016115e6565b60408301525092915050565b6000602082840312156116915761169061143f565b5b600082013567ffffffffffffffff8111156116af576116ae611444565b5b6116bb848285016115fb565b91505092915050565b60006116cf826113f9565b9050919050565b6116df816116c4565b81146116ea57600080fd5b50565b6000813590506116fc816116d6565b92915050565b60006060828403121561171857611717611449565b5b61172260606114bf565b9050600061173284828501611500565b600083015250602082013567ffffffffffffffff811115611756576117556114da565b5b611762848285016115a1565b602083015250604082013567ffffffffffffffff811115611786576117856114da565b5b611792848285016115a1565b60408301525092915050565b600080604083850312156117b5576117b461143f565b5b60006117c3858286016116ed565b925050602083013567ffffffffffffffff8111156117e4576117e3611444565b5b6117f085828601611702565b9150509250929050565b6000602082840312156118105761180f61143f565b5b600061181e848285016115e6565b91505092915050565b60006020828403121561183d5761183c61143f565b5b600061184b848285016116ed565b91505092915050565b600081519050919050565b600082825260208201905092915050565b6000819050602082019050919050565b611889816114df565b82525050565b600061189b8383611880565b60208301905092915050565b6000602082019050919050565b60006118bf82611854565b6118c9818561185f565b93506118d483611870565b8060005b838110156119055781516118ec888261188f565b97506118f7836118a7565b9250506001810190506118d8565b5085935050505092915050565b6000602082019050818103600083015261192c81846118b4565b905092915050565b600081519050919050565b600082825260208201905092915050565b6000819050602082019050919050565b611969816113f9565b82525050565b600061197b8383611960565b60208301905092915050565b6000602082019050919050565b600061199f82611934565b6119a9818561193f565b93506119b483611950565b8060005b838110156119e55781516119cc888261196f565b97506119d783611987565b9250506001810190506119b8565b5085935050505092915050565b60006020820190508181036000830152611a0c8184611994565b905092915050565b600060208284031215611a2a57611a2961143f565b5b6000611a3884828501611500565b91505092915050565b600081519050919050565b600082825260208201905092915050565b60005b83811015611a7b578082015181840152602081019050611a60565b60008484015250505050565b6000611a9282611a41565b611a9c8185611a4c565b9350611aac818560208601611a5d565b611ab58161144e565b840191505092915050565b6000606083016000830151611ad86000860182611880565b5060208301518482036020860152611af08282611a87565b9150506040830151611b056040860182611960565b508091505092915050565b60006020820190508181036000830152611b2a8184611ac0565b905092915050565b60008060408385031215611b4957611b4861143f565b5b6000611b57858286016115e6565b9250506020611b68858286016115e6565b9150509250929050565b60008115159050919050565b611b8781611b72565b8114611b9257600080fd5b50565b600081359050611ba481611b7e565b92915050565b600060c08284031215611bc057611bbf611449565b5b611bca60c06114bf565b90506000611bda84828501611500565b600083015250602082013567ffffffffffffffff811115611bfe57611bfd6114da565b5b611c0a848285016115a1565b602083015250604082013567ffffffffffffffff811115611c2e57611c2d6114da565b5b611c3a848285016115a1565b6040830152506060611c4e84828501611500565b6060830152506080611c6284828501611500565b60808301525060a0611c7684828501611b95565b60a08301525092915050565b600080600060608486031215611c9b57611c9a61143f565b5b600084013567ffffffffffffffff811115611cb957611cb8611444565b5b611cc586828701611baa565b9350506020611cd686828701611500565b9250506040611ce786828701611500565b9150509250925092565b60008060008060808587031215611d0b57611d0a61143f565b5b6000611d19878288016116ed565b945050602085013567ffffffffffffffff811115611d3a57611d39611444565b5b611d46878288016115a1565b935050604085013567ffffffffffffffff811115611d6757611d66611444565b5b611d73878288016115a1565b9250506060611d8487828801611500565b91505092959194509250565b600081519050919050565b600082825260208201905092915050565b6000819050602082019050919050565b6000606083016000830151611dd46000860182611880565b5060208301518482036020860152611dec8282611a87565b9150506040830151611e016040860182611960565b508091505092915050565b6000611e188383611dbc565b905092915050565b6000602082019050919050565b6000611e3882611d90565b611e428185611d9b565b935083602082028501611e5485611dac565b8060005b85811015611e905784840389528151611e718582611e0c565b9450611e7c83611e20565b925060208a01995050600181019050611e58565b50829750879550505050505092915050565b60006020820190508181036000830152611ebc8184611e2d565b905092915050565b7f4e487b7100000000000000000000000000000000000000000000000000000000600052601160045260246000fd5b6000611efe826114df565b9150611f09836114df565b9250828201905080821115611f2157611f20611ec4565b5b92915050565b7f4e487b7100000000000000000000000000000000000000000000000000000000600052602260045260246000fd5b60006002820490506001821680611f6e57607f821691505b602082108103611f8157611f80611f27565b5b50919050565b60008190508160005260206000209050919050565b60006020601f8301049050919050565b600082821b905092915050565b600060088302611fe97fffffffffffffffffffffffffffffffffffffffffffffffffffffffffffffffff82611fac565b611ff38683611fac565b95508019841693508086168417925050509392505050565b6000819050919050565b600061203061202b612026846114df565b61200b565b6114df565b9050919050565b6000819050919050565b61204a83612015565b61205e61205682612037565b848454611fb9565b825550505050565b600090565b612073612066565b61207e818484612041565b505050565b5b818110156120a25761209760008261206b565b600181019050612084565b5050565b601f8211156120e7576120b881611f87565b6120c184611f9c565b810160208510156120d0578190505b6120e46120dc85611f9c565b830182612083565b50505b505050565b600082821c905092915050565b600061210a600019846008026120ec565b1980831691505092915050565b600061212383836120f9565b9150826002028217905092915050565b61213c82611a41565b67ffffffffffffffff8111156121555761215461145f565b5b61215f8254611f56565b61216a8282856120a6565b600060209050601f83116001811461219d576000841561218b578287015190505b6121958582612117565b8655506121fd565b601f1984166121ab86611f87565b60005b828110156121d3578489015182556001820191506020850194506020810190506121ae565b868310156121f057848901516121ec601f8916826120f9565b8355505b6001600288020188555050505b505050505050565b6000612210826114df565b91507fffffffffffffffffffffffffffffffffffffffffffffffffffffffffffffffff820361224257612241611ec4565b5b600182019050919050565b60008151905061225c816115cf565b92915050565b6000602082840312156122785761227761143f565b5b60006122868482850161224d565b91505092915050565b600082825260208201905092915050565b7f4f6e6c792061636365737369626c652062792074686520636f72726573706f6e60008201527f64696e6720656c656374696f6e206f7267616e697a6572000000000000000000602082015250565b60006122fc60378361228f565b9150612307826122a0565b604082019050919050565b6000602082019050818103600083015261232b816122ef565b9050919050565b600060608301600083015161234a6000860182611880565b50602083015184820360208601526123628282611a87565b9150506040830151848203604086015261237c8282611a87565b9150508091505092915050565b600060208201905081810360008301526123a38184612332565b905092915050565b60006040820190506123c0600083018561140b565b81810360208301526123d28184612332565b90509392505050565b600067ffffffffffffffff8211156123f6576123f561145f565b5b602082029050602081019050919050565b600080fd5b60008151905061241b816114e9565b92915050565b600061243461242f846123db565b6114bf565b9050808382526020820190506020840283018581111561245757612456612407565b5b835b81811015612480578061246c888261240c565b845260208401935050602081019050612459565b5050509392505050565b600082601f83011261249f5761249e611515565b5b81516124af848260208601612421565b91505092915050565b6000602082840312156124ce576124cd61143f565b5b600082015167ffffffffffffffff8111156124ec576124eb611444565b5b6124f88482850161248a565b91505092915050565b600067ffffffffffffffff82111561251c5761251b61145f565b5b602082029050602081019050919050565b600061254061253b84612501565b6114bf565b9050808382526020820190506020840283018581111561256357612562612407565b5b835b8181101561258c5780612578888261224d565b845260208401935050602081019050612565565b5050509392505050565b600082601f8301126125ab576125aa611515565b5b81516125bb84826020860161252d565b91505092915050565b6000602082840312156125da576125d961143f565b5b600082015167ffffffffffffffff8111156125f8576125f7611444565b5b61260484828501612596565b91505092915050565b6000604082019050612622600083018561140b565b61262f602083018461140b565b9392505050565b7f4f6e6c792061636365737369626c65206279207573657273207265676973657460008201527f65726564206173206f7267616e697a6572730000000000000000000000000000602082015250565b600061269260328361228f565b915061269d82612636565b604082019050919050565b600060208201905081810360008301526126c181612685565b9050919050565b6000602082840312156126de576126dd61143f565b5b60006126ec8482850161240c565b91505092915050565b6126fe81611b72565b82525050565b600060c08301600083015161271c6000860182611880565b50602083015184820360208601526127348282611a87565b9150506040830151848203604086015261274e8282611a87565b91505060608301516127636060860182611880565b5060808301516127766080860182611880565b5060a083015161278960a08601826126f5565b508091505092915050565b61279d816114df565b82525050565b600060a08201905081810360008301526127bd8188612704565b90506127cc6020830187612794565b6127d96040830186612794565b6127e6606083018561140b565b6127f3608083018461140b565b9695505050505050565b600061280882611a41565b612812818561228f565b9350612822818560208601611a5d565b61282b8161144e565b840191505092915050565b6000606082019050818103600083015261285081866127fd565b9050818103602083015261286481856127fd565b90506128736040830184612794565b94935050505056fe608060405234801561001057600080fd5b5061157e806100206000396000f3fe608060405234801561001057600080fd5b50600436106100885760003560e01c80637d1659fa1161005b5780637d1659fa1461012957806387b4e8d314610145578063ca99067a14610161578063e5999c2b1461017d57610088565b8063213785a01461008d57806335b50828146100ab578063761db9fb146100db5780637a309b05146100f9575b600080fd5b6100956101ad565b6040516100a29190610c34565b60405180910390f35b6100c560048036038101906100c09190610cc1565b6101b7565b6040516100d29190610cfd565b60405180910390f35b6100e3610220565b6040516100f09190610dd6565b60405180910390f35b610113600480360381019061010e9190610f51565b6102ae565b6040516101209190610dd6565b60405180910390f35b610143600480360381019061013e9190610fad565b6102b6565b005b61015f600480360381019061015a9190610fad565b6104bf565b005b61017b60048036038101906101769190610cc1565b610786565b005b61019760048036038101906101929190610cc1565b610aa7565b6040516101a49190610dd6565b60405180910390f35b6000600554905090565b6000600460008373ffffffffffffffffffffffffffffffffffffffff1673ffffffffffffffffffffffffffffffffffffffff16815260200190815260200160002060009054906101000a900473ffffffffffffffffffffffffffffffffffffffff169050919050565b606060018054806020026020016040519081016040528092919081815260200182805480156102a457602002820191906000526020600020905b8160009054906101000a900473ffffffffffffffffffffffffffffffffffffffff1673ffffffffffffffffffffffffffffffffffffffff168152602001906001019080831161025a575b5050505050905090565b606092915050565b60001515600360008373ffffffffffffffffffffffffffffffffffffffff1673ffffffffffffffffffffffffffffffffffffffff16815260200190815260200160002060008473ffffffffffffffffffffffffffffffffffffffff1673ffffffffffffffffffffffffffffffffffffffff16815260200190815260200160002060009054906101000a900460ff16151514610386576040517f08c379a000000000000000000000000000000000000000000000000000000000815260040161037d90611070565b60405180910390fd5b6001600360008373ffffffffffffffffffffffffffffffffffffffff1673ffffffffffffffffffffffffffffffffffffffff16815260200190815260200160002060008473ffffffffffffffffffffffffffffffffffffffff1673ffffffffffffffffffffffffffffffffffffffff16815260200190815260200160002060006101000a81548160ff021916908315150217905550600260008373ffffffffffffffffffffffffffffffffffffffff1673ffffffffffffffffffffffffffffffffffffffff168152602001908152602001600020819080600181540180825580915050600190039060005260206000200160009091909190916101000a81548173ffffffffffffffffffffffffffffffffffffffff021916908373ffffffffffffffffffffffffffffffffffffffff1602179055505050565b6000829050600560008154809291906104d7906110bf565b919050555060008173ffffffffffffffffffffffffffffffffffffffff166386852dca6040518163ffffffff1660e01b8152600401600060405180830381865afa158015610529573d6000803e3d6000fd5b505050506040513d6000823e3d601f19601f82011682018060405250810190610552919061131d565b60a00151905060011515811515036105cc576001829080600181540180825580915050600190039060005260206000200160009091909190916101000a81548173ffffffffffffffffffffffffffffffffffffffff021916908373ffffffffffffffffffffffffffffffffffffffff160217905550610702565b600260008473ffffffffffffffffffffffffffffffffffffffff1673ffffffffffffffffffffffffffffffffffffffff168152602001908152602001600020829080600181540180825580915050600190039060005260206000200160009091909190916101000a81548173ffffffffffffffffffffffffffffffffffffffff021916908373ffffffffffffffffffffffffffffffffffffffff1602179055506001600360008673ffffffffffffffffffffffffffffffffffffffff1673ffffffffffffffffffffffffffffffffffffffff16815260200190815260200160002060008573ffffffffffffffffffffffffffffffffffffffff1673ffffffffffffffffffffffffffffffffffffffff16815260200190815260200160002060006101000a81548160ff0219169083151502179055505b82600460008673ffffffffffffffffffffffffffffffffffffffff1673ffffffffffffffffffffffffffffffffffffffff16815260200190815260200160002060006101000a81548173ffffffffffffffffffffffffffffffffffffffff021916908373ffffffffffffffffffffffffffffffffffffffff16021790555050505050565b60008190506001600281111561079f5761079e611366565b5b8173ffffffffffffffffffffffffffffffffffffffff16634e69d5606040518163ffffffff1660e01b8152600401602060405180830381865afa1580156107ea573d6000803e3d6000fd5b505050506040513d601f19601f8201168201806040525081019061080e91906113ba565b60028111156108205761081f611366565b5b14610860576040517f08c379a000000000000000000000000000000000000000000000000000000000815260040161085790611459565b60405180910390fd5b600060018054806020026020016040519081016040528092919081815260200182805480156108e457602002820191906000526020600020905b8160009054906101000a900473ffffffffffffffffffffffffffffffffffffffff1673ffffffffffffffffffffffffffffffffffffffff168152602001906001019080831161089a575b5050505050905060008151905060006001826109009190611479565b67ffffffffffffffff81111561091957610918610e0e565b5b6040519080825280602002602001820160405280156109475781602001602082028036833780820191505090505b50905060008060008091505b84821015610a46578773ffffffffffffffffffffffffffffffffffffffff16868381518110610985576109846114ad565b5b602002602001015173ffffffffffffffffffffffffffffffffffffffff1614610a23578582815181106109bb576109ba6114ad565b5b60200260200101518484815181106109d6576109d56114ad565b5b602002602001019073ffffffffffffffffffffffffffffffffffffffff16908173ffffffffffffffffffffffffffffffffffffffff16815250508280610a1b906110bf565b935050610a39565b6000151581151503610a385760009750600190505b5b8180600101925050610953565b80610a86576040517f08c379a0000000000000000000000000000000000000000000000000000000008152600401610a7d90611528565b60405180910390fd5b8360019080519060200190610a9c929190610b74565b505050505050505050565b6060600260008373ffffffffffffffffffffffffffffffffffffffff1673ffffffffffffffffffffffffffffffffffffffff168152602001908152602001600020805480602002602001604051908101604052809291908181526020018280548015610b6857602002820191906000526020600020905b8160009054906101000a900473ffffffffffffffffffffffffffffffffffffffff1673ffffffffffffffffffffffffffffffffffffffff1681526020019060010190808311610b1e575b50505050509050919050565b828054828255906000526020600020908101928215610bed579160200282015b82811115610bec5782518260006101000a81548173ffffffffffffffffffffffffffffffffffffffff021916908373ffffffffffffffffffffffffffffffffffffffff16021790555091602001919060010190610b94565b5b509050610bfa9190610bfe565b5090565b5b80821115610c17576000816000905550600101610bff565b5090565b6000819050919050565b610c2e81610c1b565b82525050565b6000602082019050610c496000830184610c25565b92915050565b6000604051905090565b600080fd5b600080fd5b600073ffffffffffffffffffffffffffffffffffffffff82169050919050565b6000610c8e82610c63565b9050919050565b610c9e81610c83565b8114610ca957600080fd5b50565b600081359050610cbb81610c95565b92915050565b600060208284031215610cd757610cd6610c59565b5b6000610ce584828501610cac565b91505092915050565b610cf781610c83565b82525050565b6000602082019050610d126000830184610cee565b92915050565b600081519050919050565b600082825260208201905092915050565b6000819050602082019050919050565b610d4d81610c83565b82525050565b6000610d5f8383610d44565b60208301905092915050565b6000602082019050919050565b6000610d8382610d18565b610d8d8185610d23565b9350610d9883610d34565b8060005b83811015610dc9578151610db08882610d53565b9750610dbb83610d6b565b925050600181019050610d9c565b5085935050505092915050565b60006020820190508181036000830152610df08184610d78565b905092915050565b600080fd5b6000601f19601f8301169050919050565b7f4e487b7100000000000000000000000000000000000000000000000000000000600052604160045260246000fd5b610e4682610dfd565b810181811067ffffffffffffffff82111715610e6557610e64610e0e565b5b80604052505050565b6000610e78610c4f565b9050610e848282610e3d565b919050565b600067ffffffffffffffff821115610ea457610ea3610e0e565b5b602082029050602081019050919050565b600080fd5b6000610ecd610ec884610e89565b610e6e565b90508083825260208201905060208402830185811115610ef057610eef610eb5565b5b835b81811015610f195780610f058882610cac565b845260208401935050602081019050610ef2565b5050509392505050565b600082601f830112610f3857610f37610df8565b5b8135610f48848260208601610eba565b91505092915050565b60008060408385031215610f6857610f67610c59565b5b600083013567ffffffffffffffff811115610f8657610f85610c5e565b5b610f9285828601610f23565b9250506020610fa385828601610cac565b9150509250929050565b60008060408385031215610fc457610fc3610c59565b5b6000610fd285828601610cac565b9250506020610fe385828601610cac565b9150509250929050565b600082825260208201905092915050565b7f4f7267616e697a657220616c726561647920616464656420746f20746869732060008201527f656c656374696f6e000000000000000000000000000000000000000000000000602082015250565b600061105a602883610fed565b915061106582610ffe565b604082019050919050565b600060208201905081810360008301526110898161104d565b9050919050565b7f4e487b7100000000000000000000000000000000000000000000000000000000600052601160045260246000fd5b60006110ca82610c1b565b91507fffffffffffffffffffffffffffffffffffffffffffffffffffffffffffffffff82036110fc576110fb611090565b5b600182019050919050565b600080fd5b600080fd5b61111a81610c1b565b811461112557600080fd5b50565b60008151905061113781611111565b92915050565b600080fd5b600067ffffffffffffffff82111561115d5761115c610e0e565b5b61116682610dfd565b9050602081019050919050565b60005b83811015611191578082015181840152602081019050611176565b60008484015250505050565b60006111b06111ab84611142565b610e6e565b9050828152602081018484840111156111cc576111cb61113d565b5b6111d7848285611173565b509392505050565b600082601f8301126111f4576111f3610df8565b5b815161120484826020860161119d565b91505092915050565b60008115159050919050565b6112228161120d565b811461122d57600080fd5b50565b60008151905061123f81611219565b92915050565b600060c0828403121561125b5761125a611107565b5b61126560c0610e6e565b9050600061127584828501611128565b600083015250602082015167ffffffffffffffff8111156112995761129861110c565b5b6112a5848285016111df565b602083015250604082015167ffffffffffffffff8111156112c9576112c861110c565b5b6112d5848285016111df565b60408301525060606112e984828501611128565b60608301525060806112fd84828501611128565b60808301525060a061131184828501611230565b60a08301525092915050565b60006020828403121561133357611332610c59565b5b600082015167ffffffffffffffff81111561135157611350610c5e565b5b61135d84828501611245565b91505092915050565b7f4e487b7100000000000000000000000000000000000000000000000000000000600052602160045260246000fd5b600381106113a257600080fd5b50565b6000815190506113b481611395565b92915050565b6000602082840312156113d0576113cf610c59565b5b60006113de848285016113a5565b91505092915050565b7f43616e6e6f742064656c65746520656c656374696f6e20616674657220656c6560008201527f6374696f6e206861732073746172746564000000000000000000000000000000602082015250565b6000611443603183610fed565b915061144e826113e7565b604082019050919050565b6000602082019050818103600083015261147281611436565b9050919050565b600061148482610c1b565b915061148f83610c1b565b92508282039050818111156114a7576114a6611090565b5b92915050565b7f4e487b7100000000000000000000000000000000000000000000000000000000600052603260045260246000fd5b7f456c656374696f6e206e6f7420666f756e640000000000000000000000000000600082015250565b6000611512601283610fed565b915061151d826114dc565b602082019050919050565b6000602082019050818103600083015261154181611505565b905091905056fea2646970667358221220a301b2e8580c82898b7b2ccb81007b1efbc10af73240d37d3ada3eec7241178664736f6c63430008170033a2646970667358221220c2cf2143c83b9a2eba8416a6c313dc004b11e32620b95fcb195beebe1eb3469464736f6c63430008170033",
  "linkReferences": {},
  "deployedLinkReferences": {}
}