{"abi":[{"type":"constructor","inputs":[{"name":"router","type":"address","internalType":"address"}],"stateMutability":"nonpayable"},{"type":"function","name":"addWhitelistedContract","inputs":[{"name":"_sourceChainSelector","type":"uint64","internalType":"uint64"},{"name":"_contractAddress","type":"address","internalType":"address"}],"outputs":[],"stateMutability":"nonpayable"},{"type":"function","name":"ccipReceive","inputs":[{"name":"message","type":"tuple","internalType":"struct Client.Any2EVMMessage","components":[{"name":"messageId","type":"bytes32","internalType":"bytes32"},{"name":"sourceChainSelector","type":"uint64","internalType":"uint64"},{"name":"sender","type":"bytes","internalType":"bytes"},{"name":"data","type":"bytes","internalType":"bytes"},{"name":"destTokenAmounts","type":"tuple[]","internalType":"struct Client.EVMTokenAmount[]","components":[{"name":"token","type":"address","internalType":"address"},{"name":"amount","type":"uint256","internalType":"uint256"}]}]}],"outputs":[],"stateMutability":"nonpayable"},{"type":"function","name":"createElection","inputs":[{"name":"_electionInfo","type":"tuple","internalType":"struct Election.ElectionInfo","components":[{"name":"startTime","type":"uint256","internalType":"uint256"},{"name":"endTime","type":"uint256","internalType":"uint256"},{"name":"name","type":"string","internalType":"string"},{"name":"description","type":"string","internalType":"string"}]},{"name":"_ballotType","type":"uint256","internalType":"uint256"},{"name":"_resultType","type":"uint256","internalType":"uint256"}],"outputs":[],"stateMutability":"nonpayable"},{"type":"function","name":"deleteElection","inputs":[{"name":"_electionId","type":"uint256","internalType":"uint256"}],"outputs":[],"stateMutability":"nonpayable"},{"type":"function","name":"electionCount","inputs":[],"outputs":[{"name":"","type":"uint256","internalType":"uint256"}],"stateMutability":"view"},{"type":"function","name":"factoryOwner","inputs":[],"outputs":[{"name":"","type":"address","internalType":"address"}],"stateMutability":"view"},{"type":"function","name":"getOpenElections","inputs":[],"outputs":[{"name":"","type":"address[]","internalType":"address[]"}],"stateMutability":"view"},{"type":"function","name":"getRouter","inputs":[],"outputs":[{"name":"","type":"address","internalType":"address"}],"stateMutability":"view"},{"type":"function","name":"openBasedElections","inputs":[{"name":"","type":"uint256","internalType":"uint256"}],"outputs":[{"name":"","type":"address","internalType":"address"}],"stateMutability":"view"},{"type":"function","name":"removeWhitelistedContract","inputs":[{"name":"_sourceChainSelector","type":"uint64","internalType":"uint64"}],"outputs":[],"stateMutability":"nonpayable"},{"type":"function","name":"supportsInterface","inputs":[{"name":"interfaceId","type":"bytes4","internalType":"bytes4"}],"outputs":[{"name":"","type":"bool","internalType":"bool"}],"stateMutability":"pure"},{"type":"event","name":"MessageReceived","inputs":[{"name":"messageId","type":"bytes32","indexed":true,"internalType":"bytes32"},{"name":"sourceChainSelector","type":"uint64","indexed":true,"internalType":"uint64"},{"name":"sender","type":"address","indexed":false,"internalType":"address"}],"anonymous":false},{"type":"error","name":"InvalidRouter","inputs":[{"name":"router","type":"address","internalType":"address"}]},{"type":"error","name":"NotWhitelistedSender","inputs":[]},{"type":"error","name":"OnlyOwner","inputs":[]},{"type":"error","name":"OwnerRestricted","inputs":[]}],"bytecode":{"object":"0x60e060405234801561000f575f5ffd5b50604051616e84380380616e8483398101604081905261002e91610151565b806001600160a01b03811661005c576040516335fdcccd60e21b81525f600482015260240160405180910390fd5b6001600160a01b0316608052600180546001600160a01b031916331790556040516100869061012a565b604051809103905ff08015801561009f573d5f5f3e3d5ffd5b506001600160a01b031660c0526040516100b890610137565b604051809103905ff0801580156100d1573d5f5f3e3d5ffd5b50600380546001600160a01b0319166001600160a01b03929092169190911790556040516100fe90610144565b604051809103905ff080158015610117573d5f5f3e3d5ffd5b506001600160a01b031660a0525061017e565b61194b8061116c83390190565b6129fb80612ab783390190565b6119d2806154b283390190565b5f60208284031215610161575f5ffd5b81516001600160a01b0381168114610177575f5ffd5b9392505050565b60805160a05160c051610fbd6101af5f395f61047201525f61054301525f818161017801526103b00152610fbd5ff3fe608060405234801561000f575f5ffd5b50600436106100a6575f3560e01c806385572ffb1161006e57806385572ffb1461013a578063997d28301461014d5780639e1aaea114610163578063b0f479a114610176578063e98d594c1461019c578063ef50da53146101af575f5ffd5b806301ffc9a7146100aa57806320de2ee6146100d25780634273601c146100fd57806363970f5614610110578063740c47d414610125575b5f5ffd5b6100bd6100b836600461085b565b6101c2565b60405190151581526020015b60405180910390f35b6100e56100e0366004610889565b6101f8565b6040516001600160a01b0390911681526020016100c9565b6001546100e5906001600160a01b031681565b610118610220565b6040516100c991906108a0565b610138610133366004610889565b610280565b005b6101386101483660046108eb565b6103a5565b6101555f5481565b6040519081526020016100c9565b61013861017136600461094b565b610409565b7f00000000000000000000000000000000000000000000000000000000000000006100e5565b6101386101aa366004610ac3565b61046c565b6101386101bd366004610b7b565b61061e565b5f6001600160e01b031982166385572ffb60e01b14806101f257506001600160e01b031982166301ffc9a760e01b145b92915050565b60028181548110610207575f80fd5b5f918252602090912001546001600160a01b0316905081565b6060600280548060200260200160405190810160405280929190818152602001828054801561027657602002820191905f5260205f20905b81546001600160a01b03168152600190910190602001808311610258575b5050505050905090565b5f818152600460205260409020546001600160a01b031633146102b657604051635fc483c560e01b815260040160405180910390fd5b6002545f906102c790600190610ba8565b905080821461035757600281815481106102e3576102e3610bbb565b5f91825260209091200154600280546001600160a01b03909216918490811061030e5761030e610bbb565b5f918252602080832090910180546001600160a01b039485166001600160a01b031991821617909155848352600490915260408083205486845292208054909116919092161790555b600280548061036857610368610bcf565b5f828152602080822083015f1990810180546001600160a01b03199081169091559301909355928352600490915260409091208054909116905550565b336001600160a01b037f000000000000000000000000000000000000000000000000000000000000000016146103f5576040516335fdcccd60e21b81523360048201526024015b60405180910390fd5b61040661040182610c9d565b61066f565b50565b6001546001600160a01b0316331461043457604051636a6388eb60e11b815260040160405180910390fd5b6001600160401b03919091165f90815260066020526040902080546001600160a01b0319166001600160a01b03909216919091179055565b5f6104967f000000000000000000000000000000000000000000000000000000000000000061075d565b6003546040516390b352f760e01b8152600481018690526001600160a01b0380841660248301529293505f92909116906390b352f7906044016020604051808303815f875af11580156104eb573d5f5f3e3d5ffd5b505050506040513d601f19601f8201168201806040525081019061050f9190610d4e565b5f546040516374bd159b60e11b815291925083916001600160a01b0383169163e97a2b369161056b918a91899190889033907f000000000000000000000000000000000000000000000000000000000000000090600401610d97565b5f604051808303815f87803b158015610582575f5ffd5b505af1158015610594573d5f5f3e3d5ffd5b50505f805492509050806105a783610e2f565b9091555050600280545f9081526004602052604081208054336001600160a01b0319918216179091558254600181018455929091527f405787fa12a823e0f2b7631cc41b3ba8828b3321ca811111fa75cd3aa3bb5ace90910180549091166001600160a01b03929092169190911790555050505050565b6001546001600160a01b0316331461064957604051636a6388eb60e11b815260040160405180910390fd5b6001600160401b03165f90815260066020526040902080546001600160a01b0319169055565b80604001518060200190518101906106879190610d4e565b6020808301516001600160401b03165f908152600690915260409020546001600160a01b039081169116146106cf57604051636bcd113d60e11b815260040160405180910390fd5b5f81606001518060200190518101906106e89190610e47565b90506106f3816107f4565b81602001516001600160401b0316825f01517fcde44b4f1d4a51abfed5cbe2b4ae24632539d99980c5988af6d4e2eb990c235a846040015180602001905181019061073e9190610d4e565b6040516001600160a01b03909116815260200160405180910390a35050565b5f763d602d80600a3d3981f3363d3d373d3d3d363d730000008260601b60e81c175f526e5af43d82803e903d91602b57fd5bf38260781b17602052603760095ff090506001600160a01b0381166107ef5760405162461bcd60e51b8152602060048201526016602482015275115490cc4c4d8dce8818dc99585d194819985a5b195960521b60448201526064016103ec565b919050565b80516020820151604080840151905163510c2d0d60e01b81526001600160a01b0384169263510c2d0d9261082a92600401610f32565b5f604051808303815f87803b158015610841575f5ffd5b505af1158015610853573d5f5f3e3d5ffd5b505050505050565b5f6020828403121561086b575f5ffd5b81356001600160e01b031981168114610882575f5ffd5b9392505050565b5f60208284031215610899575f5ffd5b5035919050565b602080825282518282018190525f918401906040840190835b818110156108e05783516001600160a01b03168352602093840193909201916001016108b9565b509095945050505050565b5f602082840312156108fb575f5ffd5b81356001600160401b03811115610910575f5ffd5b820160a08185031215610882575f5ffd5b80356001600160401b03811681146107ef575f5ffd5b6001600160a01b0381168114610406575f5ffd5b5f5f6040838503121561095c575f5ffd5b61096583610921565b9150602083013561097581610937565b809150509250929050565b634e487b7160e01b5f52604160045260245ffd5b604051608081016001600160401b03811182821017156109b6576109b6610980565b60405290565b604080519081016001600160401b03811182821017156109b6576109b6610980565b60405160a081016001600160401b03811182821017156109b6576109b6610980565b604051606081016001600160401b03811182821017156109b6576109b6610980565b604051601f8201601f191681016001600160401b0381118282101715610a4a57610a4a610980565b604052919050565b5f82601f830112610a61575f5ffd5b8135602083015f5f6001600160401b03841115610a8057610a80610980565b50601f8301601f1916602001610a9581610a22565b915050828152858383011115610aa9575f5ffd5b828260208301375f92810160200192909252509392505050565b5f5f5f60608486031215610ad5575f5ffd5b83356001600160401b03811115610aea575f5ffd5b840160808187031215610afb575f5ffd5b610b03610994565b813581526020808301359082015260408201356001600160401b03811115610b29575f5ffd5b610b3588828501610a52565b60408301525060608201356001600160401b03811115610b53575f5ffd5b610b5f88828501610a52565b6060830152509660208601359650604090950135949350505050565b5f60208284031215610b8b575f5ffd5b61088282610921565b634e487b7160e01b5f52601160045260245ffd5b818103818111156101f2576101f2610b94565b634e487b7160e01b5f52603260045260245ffd5b634e487b7160e01b5f52603160045260245ffd5b5f6001600160401b03821115610bfb57610bfb610980565b5060051b60200190565b5f82601f830112610c14575f5ffd5b8135610c27610c2282610be3565b610a22565b8082825260208201915060208360061b860101925085831115610c48575f5ffd5b602085015b83811015610c935760408188031215610c64575f5ffd5b610c6c6109bc565b8135610c7781610937565b8152602082810135818301529084529290920191604001610c4d565b5095945050505050565b5f60a08236031215610cad575f5ffd5b610cb56109de565b82358152610cc560208401610921565b602082015260408301356001600160401b03811115610ce2575f5ffd5b610cee36828601610a52565b60408301525060608301356001600160401b03811115610d0c575f5ffd5b610d1836828601610a52565b60608301525060808301356001600160401b03811115610d36575f5ffd5b610d4236828601610c05565b60808301525092915050565b5f60208284031215610d5e575f5ffd5b815161088281610937565b5f81518084528060208401602086015e5f602082860101526020601f19601f83011685010191505092915050565b60c08152865160c0820152602087015160e08201525f60408801516080610100840152610dc8610140840182610d69565b9050606089015160bf1984830301610120850152610de68282610d69565b602085018a9052604085018990526001600160a01b038881166060870152871660808601529250610e15915050565b6001600160a01b03831660a0830152979650505050505050565b5f60018201610e4057610e40610b94565b5060010190565b5f60208284031215610e57575f5ffd5b81516001600160401b03811115610e6c575f5ffd5b820160608185031215610e7d575f5ffd5b610e85610a00565b8151610e9081610937565b81526020820151610ea081610937565b602082015260408201516001600160401b03811115610ebd575f5ffd5b80830192505084601f830112610ed1575f5ffd5b8151610edf610c2282610be3565b8082825260208201915060208360051b860101925087831115610f00575f5ffd5b6020850194505b82851015610f22578451825260209485019490910190610f07565b6040840152509095945050505050565b6001600160a01b03831681526040602080830182905283519183018290525f91908401906060840190835b81811015610f7b578351835260209384019390920191600101610f5d565b5090969550505050505056fea264697066735822122090cbd88b293d50ef0ef70f267787870b7862617b322e6e8333a2dc016115720364736f6c634300081c00336080604052348015600e575f5ffd5b5061192f8061001c5f395ff3fe608060405234801561000f575f5ffd5b5060043610610111575f3560e01c80638da5cb5b1161009e578063de11c94a1161006e578063de11c94a14610248578063de2927891461025b578063df15c37e14610263578063e97a2b3614610278578063fdbc40061461028b575f5ffd5b80638da5cb5b146101f4578063965473bd1461021f578063a2fb11751461022c578063c720990a1461023f575f5ffd5b806326541b56116100e457806326541b56146101815780633477ee2e14610194578063510c2d0d146101b65780636a334fe3146101c95780636c74bf6d146101dc575f5ffd5b8063051364d41461011557806309e9d7e2146101315780630d15fd7714610146578063254fe7d71461014f575b5f5ffd5b61011e60095481565b6040519081526020015b60405180910390f35b61014461013f36600461107b565b6102a0565b005b61011e600b5481565b61017161015d3660046110ad565b60016020525f908152604090205460ff1681565b6040519015158152602001610128565b61014461018f366004611111565b6103d7565b6101a76101a236600461107b565b61053f565b604051610128939291906111a9565b6101446101c43660046112d5565b61067f565b6101446101d736600461131f565b610832565b6101e46109aa565b6040516101289493929190611358565b600754610207906001600160a01b031681565b6040516001600160a01b039091168152602001610128565b600c546101719060ff1681565b61011e61023a36600461107b565b610acf565b61011e600a5481565b600654610207906001600160a01b031681565b610144610aee565b61026b610c5f565b6040516101289190611393565b610144610286366004611440565b610cb5565b610293610e5f565b604051610128919061152e565b6007546001600160a01b031633146102cb5760405163282b2e2960e21b815260040160405180910390fd5b6002544211156102ee5760405163715ef7af60e01b815260040160405180910390fd5b600e80546102fe906001906115d6565b8154811061030e5761030e6115ef565b905f5260205f209060030201600e828154811061032d5761032d6115ef565b5f9182526020909120825460039092020190815560018082019061035390840182611687565b5060028181019061036690840182611687565b5090505080600e828154811061037e5761037e6115ef565b5f918252602090912060039091020155600e80548061039f5761039f61175e565b5f8281526020812060035f1990930192830201818155906103c36001830182610fe4565b6103d0600283015f610fe4565b5050905550565b6007546001600160a01b031633146104025760405163282b2e2960e21b815260040160405180910390fd5b6002544211156104255760405163715ef7af60e01b815260040160405180910390fd5b5f6040518060600160405280600e80549050815260200186868080601f0160208091040260200160405190810160405280939291908181526020018383808284375f92019190915250505090825250604080516020601f8701819004810282018101909252858152918101919086908690819084018382808284375f920182905250939094525050600e80546001810182559152825160039091027fbb7b4a454dc3493923482f07822329ed19e8244eff582cc204f8554c3620c3fd8101918255602084015193945084939192507fbb7b4a454dc3493923482f07822329ed19e8244eff582cc204f8554c3620c3fe01906105209082611772565b50604082015160028201906105359082611772565b5050505050505050565b600e818154811061054e575f80fd5b5f918252602090912060039091020180546001820180549193509061057290611603565b80601f016020809104026020016040519081016040528092919081815260200182805461059e90611603565b80156105e95780601f106105c0576101008083540402835291602001916105e9565b820191905f5260205f20905b8154815290600101906020018083116105cc57829003601f168201915b5050505050908060020180546105fe90611603565b80601f016020809104026020016040519081016040528092919081815260200182805461062a90611603565b80156106755780601f1061064c57610100808354040283529160200191610675565b820191905f5260205f20905b81548152906001019060200180831161065857829003601f168201915b5050505050905083565b600254421080610690575060035442115b156106ae5760405163715ef7af60e01b815260040160405180910390fd5b6001600160a01b0382165f9081526001602052604090205460ff16156106e757604051637c9a1cf960e01b815260040160405180910390fd5b600c54610100900460ff1615155f0361076c57600c54600e5460405163b7b0422d60e01b81526004810191909152620100009091046001600160a01b03169063b7b0422d906024015f604051808303815f87803b158015610746575f5ffd5b505af1158015610758573d5f5f3e3d5ffd5b5050600c805461ff00191661010017905550505b6006546001600160a01b031633146107975760405163282b2e2960e21b815260040160405180910390fd5b6001600160a01b038083165f90815260016020819052604091829020805460ff19169091179055600c54905163ce11f2bb60e01b8152620100009091049091169063ce11f2bb906107ec908490600401611393565b5f604051808303815f87803b158015610803575f5ffd5b505af1158015610815573d5f5f3e3d5ffd5b5050600b8054925090505f61082983611824565b91905055505050565b600254421080610843575060035442115b156108615760405163715ef7af60e01b815260040160405180910390fd5b335f9081526001602052604090205460ff161561089157604051637c9a1cf960e01b815260040160405180910390fd5b600c54610100900460ff1615155f0361091657600c54600e5460405163b7b0422d60e01b81526004810191909152620100009091046001600160a01b03169063b7b0422d906024015f604051808303815f87803b1580156108f0575f5ffd5b505af1158015610902573d5f5f3e3d5ffd5b5050600c805461ff00191661010017905550505b600c5460405163ce11f2bb60e01b8152620100009091046001600160a01b03169063ce11f2bb9061094b908490600401611393565b5f604051808303815f87803b158015610962575f5ffd5b505af1158015610974573d5f5f3e3d5ffd5b5050335f9081526001602081905260408220805460ff19169091179055600b8054935091506109a283611824565b919050555050565b6002805460035460048054929391926109c290611603565b80601f01602080910402602001604051908101604052809291908181526020018280546109ee90611603565b8015610a395780601f10610a1057610100808354040283529160200191610a39565b820191905f5260205f20905b815481529060010190602001808311610a1c57829003601f168201915b505050505090806003018054610a4e90611603565b80601f0160208091040260200160405190810160405280929190818152602001828054610a7a90611603565b8015610ac55780601f10610a9c57610100808354040283529160200191610ac5565b820191905f5260205f20905b815481529060010190602001808311610aa857829003601f168201915b5050505050905084565b60088181548110610ade575f80fd5b5f91825260209091200154905081565b600354421015610b11576040516369b8b9ab60e01b815260040160405180910390fd5b60408051600481526024810182526020810180516001600160e01b0316630dc9601560e01b179052600c54915190915f9182916001600160a01b03620100009091041690610b6090859061183c565b5f60405180830381855afa9150503d805f8114610b98576040519150601f19603f3d011682016040523d82523d5f602084013e610b9d565b606091505b509150915081610bc05760405163506e74f560e01b815260040160405180910390fd5b600d54600a546040516324d0543360e21b81525f926001600160a01b03169163934150cc91610bf3918691600401611852565b5f604051808303815f875af1158015610c0e573d5f5f3e3d5ffd5b505050506040513d5f823e601f3d908101601f19168201604052610c359190810190611873565b8051909150610c4b90600890602084019061101e565b5050600c805460ff19166001179055505050565b60606008805480602002602001604051908101604052809291908181526020018280548015610cab57602002820191905f5260205f20905b815481526020019060010190808311610c97575b5050505050905090565b5f54610100900460ff1615808015610cd357505f54600160ff909116105b80610cec5750303b158015610cec57505f5460ff166001145b610d535760405162461bcd60e51b815260206004820152602e60248201527f496e697469616c697a61626c653a20636f6e747261637420697320616c72656160448201526d191e481a5b9a5d1a585b1a5e995960921b606482015260840160405180910390fd5b5f805460ff191660011790558015610d74575f805461ff0019166101001790555b8651600290815560208801516003556040880151889190600490610d989082611772565b5060608201516003820190610dad9082611772565b505050600a8690556009859055600780546001600160a01b038086166001600160a01b03199283161790925560068054821633179055600c8054878416620100000262010000600160b01b0319909116179055600d8054928516929091169190911790558015610e56575f805461ff0019169055604051600181527f7f26b83ff96e1f2b6a682f133852f6798a09c465da95921460cefb38474024989060200160405180910390a15b50505050505050565b6060600e805480602002602001604051908101604052809291908181526020015f905b82821015610fdb578382905f5260205f2090600302016040518060600160405290815f8201548152602001600182018054610ebc90611603565b80601f0160208091040260200160405190810160405280929190818152602001828054610ee890611603565b8015610f335780601f10610f0a57610100808354040283529160200191610f33565b820191905f5260205f20905b815481529060010190602001808311610f1657829003601f168201915b50505050508152602001600282018054610f4c90611603565b80601f0160208091040260200160405190810160405280929190818152602001828054610f7890611603565b8015610fc35780601f10610f9a57610100808354040283529160200191610fc3565b820191905f5260205f20905b815481529060010190602001808311610fa657829003601f168201915b50505050508152505081526020019060010190610e82565b50505050905090565b508054610ff090611603565b5f825580601f10610fff575050565b601f0160209004905f5260205f209081019061101b9190611067565b50565b828054828255905f5260205f20908101928215611057579160200282015b8281111561105757825182559160200191906001019061103c565b50611063929150611067565b5090565b5b80821115611063575f8155600101611068565b5f6020828403121561108b575f5ffd5b5035919050565b80356001600160a01b03811681146110a8575f5ffd5b919050565b5f602082840312156110bd575f5ffd5b6110c682611092565b9392505050565b5f5f83601f8401126110dd575f5ffd5b5081356001600160401b038111156110f3575f5ffd5b60208301915083602082850101111561110a575f5ffd5b9250929050565b5f5f5f5f60408587031215611124575f5ffd5b84356001600160401b03811115611139575f5ffd5b611145878288016110cd565b90955093505060208501356001600160401b03811115611163575f5ffd5b61116f878288016110cd565b95989497509550505050565b5f81518084528060208401602086015e5f602082860101526020601f19601f83011685010191505092915050565b838152606060208201525f6111c1606083018561117b565b82810360408401526111d3818561117b565b9695505050505050565b634e487b7160e01b5f52604160045260245ffd5b604051608081016001600160401b0381118282101715611213576112136111dd565b60405290565b604051601f8201601f191681016001600160401b0381118282101715611241576112416111dd565b604052919050565b5f6001600160401b03821115611261576112616111dd565b5060051b60200190565b5f82601f83011261127a575f5ffd5b813561128d61128882611249565b611219565b8082825260208201915060208360051b8601019250858311156112ae575f5ffd5b602085015b838110156112cb5780358352602092830192016112b3565b5095945050505050565b5f5f604083850312156112e6575f5ffd5b6112ef83611092565b915060208301356001600160401b03811115611309575f5ffd5b6113158582860161126b565b9150509250929050565b5f6020828403121561132f575f5ffd5b81356001600160401b03811115611344575f5ffd5b6113508482850161126b565b949350505050565b848152836020820152608060408201525f611376608083018561117b565b8281036060840152611388818561117b565b979650505050505050565b602080825282518282018190525f918401906040840190835b818110156113ca5783518352602093840193909201916001016113ac565b509095945050505050565b5f82601f8301126113e4575f5ffd5b81356001600160401b038111156113fd576113fd6111dd565b611410601f8201601f1916602001611219565b818152846020838601011115611424575f5ffd5b816020850160208301375f918101602001919091529392505050565b5f5f5f5f5f5f60c08789031215611455575f5ffd5b86356001600160401b0381111561146a575f5ffd5b87016080818a03121561147b575f5ffd5b6114836111f1565b813581526020808301359082015260408201356001600160401b038111156114a9575f5ffd5b6114b58b8285016113d5565b60408301525060608201356001600160401b038111156114d3575f5ffd5b6114df8b8285016113d5565b60608381019190915291985050602089013596506040890135955061150691508801611092565b925061151460808801611092565b915061152260a08801611092565b90509295509295509295565b5f602082016020835280845180835260408501915060408160051b8601019250602086015f5b828110156115b657603f19878603018452815180518652602081015160606020880152611584606088018261117b565b905060408201519150868103604088015261159f818361117b565b965050506020938401939190910190600101611554565b50929695505050505050565b634e487b7160e01b5f52601160045260245ffd5b818103818111156115e9576115e96115c2565b92915050565b634e487b7160e01b5f52603260045260245ffd5b600181811c9082168061161757607f821691505b60208210810361163557634e487b7160e01b5f52602260045260245ffd5b50919050565b601f82111561168257805f5260205f20601f840160051c810160208510156116605750805b601f840160051c820191505b8181101561167f575f815560010161166c565b50505b505050565b818103611692575050565b61169c8254611603565b6001600160401b038111156116b3576116b36111dd565b6116c7816116c18454611603565b8461163b565b5f601f8211600181146116fb575f83156116e15750848201545b600184901b5f19600386901b1c198216175b85555061167f565b5f8581526020808220868352908220601f198616925b838110156117315782860154825560019586019590910190602001611711565b508583101561174e57818501545f19600388901b60f8161c191681555b5050505050600190811b01905550565b634e487b7160e01b5f52603160045260245ffd5b81516001600160401b0381111561178b5761178b6111dd565b611799816116c18454611603565b6020601f8211600181146117c9575f83156116e1575081850151600184901b5f19600386901b1c198216176116f3565b5f84815260208120601f198516915b828110156117f857878501518255602094850194600190920191016117d8565b508482101561181557868401515f19600387901b60f8161c191681555b50505050600190811b01905550565b5f60018201611835576118356115c2565b5060010190565b5f82518060208501845e5f920191825250919050565b604081525f611864604083018561117b565b90508260208301529392505050565b5f60208284031215611883575f5ffd5b81516001600160401b03811115611898575f5ffd5b8201601f810184136118a8575f5ffd5b80516118b661128882611249565b8082825260208201915060208360051b8501019250868311156118d7575f5ffd5b6020840193505b828410156111d35783518252602093840193909101906118de56fea2646970667358221220eca39e5815d5434f9a41f7a923c125a0829777d521d0a5f367aed62eb1c3ed0e64736f6c634300081c00336080604052348015600e575f5ffd5b506129df8061001c5f395ff3fe608060405234801561000f575f5ffd5b5060043610610029575f3560e01c806390b352f71461002d575b5f5ffd5b61004061003b3660046101d1565b61005c565b6040516001600160a01b03909116815260200160405180910390f35b5f826001036100a3578160405161007290610176565b6001600160a01b039091168152602001604051809103905ff08015801561009b573d5f5f3e3d5ffd5b509050610170565b826002036100b8578160405161007290610183565b826003036100cd578160405161007290610190565b826004036100e257816040516100729061019d565b826005036100f75781604051610072906101aa565b8260060361010c5781604051610072906101b7565b826007036101215781604051610072906101c4565b82600803610136578160405161007290610176565b8160405161014390610176565b6001600160a01b039091168152602001604051809103905ff08015801561016c573d5f5f3e3d5ffd5b5090505b92915050565b61052b8061020b83390190565b61051c8061073683390190565b6104ad80610c5283390190565b6106f3806110ff83390190565b61057e806117f283390190565b61054780611d7083390190565b6106f3806122b783390190565b5f5f604083850312156101e2575f5ffd5b8235915060208301356001600160a01b03811681146101ff575f5ffd5b80915050925092905056fe6080604052348015600e575f5ffd5b5060405161052b38038061052b833981016040819052602b91604e565b5f80546001600160a01b0319166001600160a01b03929092169190911790556079565b5f60208284031215605d575f5ffd5b81516001600160a01b03811681146072575f5ffd5b9392505050565b6104a5806100865f395ff3fe608060405234801561000f575f5ffd5b506004361061004a575f3560e01c80630dc960151461004e578063b7b0422d1461006c578063ce11f2bb14610081578063e407bcbd14610094575b5f5ffd5b6100566100be565b6040516100639190610302565b60405180910390f35b61007f61007a366004610344565b61013f565b005b61007f61008f36600461036f565b6101c9565b5f546100a6906001600160a01b031681565b6040516001600160a01b039091168152602001610063565b5f546060906001600160a01b031633146100eb5760405163282b2e2960e21b815260040160405180910390fd5b600280548060200260200160405190810160405280929190818152602001828054801561013557602002820191905f5260205f20905b815481526020019060010190808311610121575b5050505050905090565b5f546001600160a01b031633146101695760405163282b2e2960e21b815260040160405180910390fd5b60018190558067ffffffffffffffff8111156101875761018761035b565b6040519080825280602002602001820160405280156101b0578160200160208202803683370190505b5080516101c5916002916020909101906102a5565b5050565b5f546001600160a01b031633146101f35760405163282b2e2960e21b815260040160405180910390fd5b805160011461021557604051632a4ad57360e11b815260040160405180910390fd5b610237815f8151811061022a5761022a610437565b6020026020010151610280565b6002815f8151811061024b5761024b610437565b60200260200101518154811061026357610263610437565b5f91825260208220018054916102788361044b565b919050555050565b60015481106102a257604051632e43f5c560e11b815260040160405180910390fd5b50565b828054828255905f5260205f209081019282156102de579160200282015b828111156102de5782518255916020019190600101906102c3565b506102ea9291506102ee565b5090565b5b808211156102ea575f81556001016102ef565b602080825282518282018190525f918401906040840190835b8181101561033957835183526020938401939092019160010161031b565b509095945050505050565b5f60208284031215610354575f5ffd5b5035919050565b634e487b7160e01b5f52604160045260245ffd5b5f6020828403121561037f575f5ffd5b813567ffffffffffffffff811115610395575f5ffd5b8201601f810184136103a5575f5ffd5b803567ffffffffffffffff8111156103bf576103bf61035b565b8060051b604051601f19603f830116810181811067ffffffffffffffff821117156103ec576103ec61035b565b604052918252602081840181019290810187841115610409575f5ffd5b6020850194505b8385101561042c57843580825260209586019590935001610410565b509695505050505050565b634e487b7160e01b5f52603260045260245ffd5b5f6001820161046857634e487b7160e01b5f52601160045260245ffd5b506001019056fea2646970667358221220a7ccd1d1504959183bb19b80fdaa7a293952e4f99f9c4ef25dc23d5efd62b9b764736f6c634300081c00336080604052348015600e575f5ffd5b5060405161051c38038061051c833981016040819052602b91604e565b5f80546001600160a01b0319166001600160a01b03929092169190911790556079565b5f60208284031215605d575f5ffd5b81516001600160a01b03811681146072575f5ffd5b9392505050565b610496806100865f395ff3fe608060405234801561000f575f5ffd5b506004361061004a575f3560e01c80630dc960151461004e578063b7b0422d1461006c578063ce11f2bb14610081578063e407bcbd14610094575b5f5ffd5b6100566100be565b60405161006391906102d7565b60405180910390f35b61007f61007a366004610319565b61013f565b005b61007f61008f366004610344565b6101c4565b5f546100a6906001600160a01b031681565b6040516001600160a01b039091168152602001610063565b5f546060906001600160a01b031633146100eb5760405163282b2e2960e21b815260040160405180910390fd5b600180548060200260200160405190810160405280929190818152602001828054801561013557602002820191905f5260205f20905b815481526020019060010190808311610121575b5050505050905090565b5f546001600160a01b031633146101695760405163282b2e2960e21b815260040160405180910390fd5b8067ffffffffffffffff81111561018257610182610330565b6040519080825280602002602001820160405280156101ab578160200160208202803683370190505b5080516101c09160019160209091019061027a565b5050565b5f546001600160a01b031633146101ee5760405163282b2e2960e21b815260040160405180910390fd5b6001548151811461021257604051636e2ca24960e01b815260040160405180910390fd5b5f5b81811015610275576102268183610420565b600184838151811061023a5761023a610439565b60200260200101518154811061025257610252610439565b905f5260205f20015f828254610268919061044d565b9091555050600101610214565b505050565b828054828255905f5260205f209081019282156102b3579160200282015b828111156102b3578251825591602001919060010190610298565b506102bf9291506102c3565b5090565b5b808211156102bf575f81556001016102c4565b602080825282518282018190525f918401906040840190835b8181101561030e5783518352602093840193909201916001016102f0565b509095945050505050565b5f60208284031215610329575f5ffd5b5035919050565b634e487b7160e01b5f52604160045260245ffd5b5f60208284031215610354575f5ffd5b813567ffffffffffffffff81111561036a575f5ffd5b8201601f8101841361037a575f5ffd5b803567ffffffffffffffff81111561039457610394610330565b8060051b604051601f19603f830116810181811067ffffffffffffffff821117156103c1576103c1610330565b6040529182526020818401810192908101878411156103de575f5ffd5b6020850194505b83851015610401578435808252602095860195909350016103e5565b509695505050505050565b634e487b7160e01b5f52601160045260245ffd5b818103818111156104335761043361040c565b92915050565b634e487b7160e01b5f52603260045260245ffd5b808201808211156104335761043361040c56fea2646970667358221220f942de69d51ef36af80103aa1d54d061dbf68d9810230a3a0753b6b5c587858f64736f6c634300081c00336080604052348015600e575f5ffd5b506040516104ad3803806104ad833981016040819052602b91604e565b5f80546001600160a01b0319166001600160a01b03929092169190911790556079565b5f60208284031215605d575f5ffd5b81516001600160a01b03811681146072575f5ffd5b9392505050565b610427806100865f395ff3fe608060405234801561000f575f5ffd5b506004361061004a575f3560e01c80630dc960151461004e578063b7b0422d1461006c578063ce11f2bb14610081578063e407bcbd14610094575b5f5ffd5b6100566100be565b6040516100639190610272565b60405180910390f35b61007f61007a3660046102fe565b610153565b005b61007f61008f366004610329565b610182565b5f546100a6906001600160a01b031681565b6040516001600160a01b039091168152602001610063565b60606002805480602002602001604051908101604052809291908181526020015f905b8282101561014a575f8481526020908190208301805460408051828502810185019091528181529283018282801561013657602002820191905f5260205f20905b815481526020019060010190808311610122575b5050505050815260200190600101906100e1565b50505050905090565b5f546001600160a01b0316331461017d5760405163282b2e2960e21b815260040160405180910390fd5b600155565b5f546001600160a01b031633146101ac5760405163282b2e2960e21b815260040160405180910390fd5b8051600154146101cf57604051636e2ca24960e01b815260040160405180910390fd5b600280546001810182555f919091528151610211917f405787fa12a823e0f2b7631cc41b3ba8828b3321ca811111fa75cd3aa3bb5ace01906020840190610215565b5050565b828054828255905f5260205f2090810192821561024e579160200282015b8281111561024e578251825591602001919060010190610233565b5061025a92915061025e565b5090565b5b8082111561025a575f815560010161025f565b5f602082016020835280845180835260408501915060408160051b8601019250602086015f5b828110156102f257868503603f19018452815180518087526020918201918701905f5b818110156102d95783518352602093840193909201916001016102bb565b5090965050506020938401939190910190600101610298565b50929695505050505050565b5f6020828403121561030e575f5ffd5b5035919050565b634e487b7160e01b5f52604160045260245ffd5b5f60208284031215610339575f5ffd5b813567ffffffffffffffff81111561034f575f5ffd5b8201601f8101841361035f575f5ffd5b803567ffffffffffffffff81111561037957610379610315565b8060051b604051601f19603f830116810181811067ffffffffffffffff821117156103a6576103a6610315565b6040529182526020818401810192908101878411156103c3575f5ffd5b6020850194505b838510156103e6578435808252602095860195909350016103ca565b50969550505050505056fea26469706673582212206d793d1268478bbde311723904c2b7641bfa512279ced99e1a96105710cb066264736f6c634300081c00336080604052348015600e575f5ffd5b506040516106f33803806106f3833981016040819052602b91604e565b5f80546001600160a01b0319166001600160a01b03929092169190911790556079565b5f60208284031215605d575f5ffd5b81516001600160a01b03811681146072575f5ffd5b9392505050565b61066d806100865f395ff3fe608060405234801561000f575f5ffd5b506004361061004a575f3560e01c80630dc960151461004e578063b7b0422d1461006c578063ce11f2bb14610081578063e407bcbd14610094575b5f5ffd5b6100566100be565b604051610063919061047f565b60405180910390f35b61007f61007a36600461050b565b61017e565b005b61007f61008f366004610536565b610292565b5f546100a6906001600160a01b031681565b6040516001600160a01b039091168152602001610063565b5f546060906001600160a01b031633146100eb5760405163282b2e2960e21b815260040160405180910390fd5b6001805480602002602001604051908101604052809291908181526020015f905b82821015610175575f8481526020908190208301805460408051828502810185019091528181529283018282801561016157602002820191905f5260205f20905b81548152602001906001019080831161014d575b50505050508152602001906001019061010c565b50505050905090565b5f546001600160a01b031633146101a85760405163282b2e2960e21b815260040160405180910390fd5b8067ffffffffffffffff8111156101c1576101c1610522565b6040519080825280602002602001820160405280156101f457816020015b60608152602001906001900390816101df5790505b50805161020991600191602090910190610391565b505f5b8181101561028e578167ffffffffffffffff81111561022d5761022d610522565b604051908082528060200260200182016040528015610256578160200160208202803683370190505b506001828154811061026a5761026a6105fe565b905f5260205f200190805190602001906102859291906103ec565b5060010161020c565b5050565b5f546001600160a01b031633146102bc5760405163282b2e2960e21b815260040160405180910390fd5b600154815181146102e057604051636e2ca24960e01b815260040160405180910390fd5b5f5b8181101561038c575f6102f6826001610612565b90505b8281101561038357600180858481518110610316576103166105fe565b60200260200101518154811061032e5761032e6105fe565b905f5260205f2001858381518110610348576103486105fe565b602002602001015181548110610360576103606105fe565b905f5260205f20015f8282546103769190610612565b90915550506001016102f9565b506001016102e2565b505050565b828054828255905f5260205f209081019282156103dc579160200282015b828111156103dc57825180516103cc9184916020909101906103ec565b50916020019190600101906103af565b506103e8929150610431565b5090565b828054828255905f5260205f20908101928215610425579160200282015b8281111561042557825182559160200191906001019061040a565b506103e892915061044d565b808211156103e8575f6104448282610461565b50600101610431565b5b808211156103e8575f815560010161044e565b5080545f8255905f5260205f209081019061047c919061044d565b50565b5f602082016020835280845180835260408501915060408160051b8601019250602086015f5b828110156104ff57868503603f19018452815180518087526020918201918701905f5b818110156104e65783518352602093840193909201916001016104c8565b50909650505060209384019391909101906001016104a5565b50929695505050505050565b5f6020828403121561051b575f5ffd5b5035919050565b634e487b7160e01b5f52604160045260245ffd5b5f60208284031215610546575f5ffd5b813567ffffffffffffffff81111561055c575f5ffd5b8201601f8101841361056c575f5ffd5b803567ffffffffffffffff81111561058657610586610522565b8060051b604051601f19603f830116810181811067ffffffffffffffff821117156105b3576105b3610522565b6040529182526020818401810192908101878411156105d0575f5ffd5b6020850194505b838510156105f3578435808252602095860195909350016105d7565b509695505050505050565b634e487b7160e01b5f52603260045260245ffd5b8082018082111561063157634e487b7160e01b5f52601160045260245ffd5b9291505056fea2646970667358221220987c647d2e1b9388e52810974ec98759955085c1348d186dbacc5028c3ad5d1364736f6c634300081c00336080604052348015600e575f5ffd5b5060405161057e38038061057e833981016040819052602b91604e565b5f80546001600160a01b0319166001600160a01b03929092169190911790556079565b5f60208284031215605d575f5ffd5b81516001600160a01b03811681146072575f5ffd5b9392505050565b6104f8806100865f395ff3fe608060405234801561000f575f5ffd5b506004361061004a575f3560e01c80630dc960151461004e578063b7b0422d1461006c578063ce11f2bb14610081578063e407bcbd14610094575b5f5ffd5b6100566100be565b6040516100639190610339565b60405180910390f35b61007f61007a36600461037b565b61013f565b005b61007f61008f3660046103a6565b6101c4565b5f546100a6906001600160a01b031681565b6040516001600160a01b039091168152602001610063565b5f546060906001600160a01b031633146100eb5760405163282b2e2960e21b815260040160405180910390fd5b600180548060200260200160405190810160405280929190818152602001828054801561013557602002820191905f5260205f20905b815481526020019060010190808311610121575b5050505050905090565b5f546001600160a01b031633146101695760405163282b2e2960e21b815260040160405180910390fd5b8067ffffffffffffffff81111561018257610182610392565b6040519080825280602002602001820160405280156101ab578160200160208202803683370190505b5080516101c0916001916020909101906102dc565b5050565b5f546001600160a01b031633146101ee5760405163282b2e2960e21b815260040160405180910390fd5b6001548151811461021257604051636e2ca24960e01b815260040160405180910390fd5b61021b82610297565b6102385760405163fbf5d42360e01b815260040160405180910390fd5b5f5b81811015610292578281815181106102545761025461046e565b60200260200101516001828154811061026f5761026f61046e565b905f5260205f20015f8282546102859190610496565b909155505060010161023a565b505050565b5f6064815b83518110156102d4578381815181106102b7576102b761046e565b6020026020010151826102ca91906104af565b915060010161029c565b501592915050565b828054828255905f5260205f20908101928215610315579160200282015b828111156103155782518255916020019190600101906102fa565b50610321929150610325565b5090565b5b80821115610321575f8155600101610326565b602080825282518282018190525f918401906040840190835b81811015610370578351835260209384019390920191600101610352565b509095945050505050565b5f6020828403121561038b575f5ffd5b5035919050565b634e487b7160e01b5f52604160045260245ffd5b5f602082840312156103b6575f5ffd5b813567ffffffffffffffff8111156103cc575f5ffd5b8201601f810184136103dc575f5ffd5b803567ffffffffffffffff8111156103f6576103f6610392565b8060051b604051601f19603f830116810181811067ffffffffffffffff8211171561042357610423610392565b604052918252602081840181019290810187841115610440575f5ffd5b6020850194505b8385101561046357843580825260209586019590935001610447565b509695505050505050565b634e487b7160e01b5f52603260045260245ffd5b634e487b7160e01b5f52601160045260245ffd5b808201808211156104a9576104a9610482565b92915050565b818103818111156104a9576104a961048256fea26469706673582212202c9593ed3d391f65dfc0002da0cd825ae8ed5244fe3505f950c59350586cbf2564736f6c634300081c00336080604052348015600e575f5ffd5b50604051610547380380610547833981016040819052602b91604e565b5f80546001600160a01b0319166001600160a01b03929092169190911790556079565b5f60208284031215605d575f5ffd5b81516001600160a01b03811681146072575f5ffd5b9392505050565b6104c1806100865f395ff3fe608060405234801561000f575f5ffd5b5060043610610055575f3560e01c80630dc96015146100595780639a1b4b3814610077578063b7b0422d1461008d578063ce11f2bb146100a2578063e407bcbd146100b5575b5f5ffd5b6100616100df565b60405161006e919061031d565b60405180910390f35b61007f600a81565b60405190815260200161006e565b6100a061009b36600461035f565b610160565b005b6100a06100b036600461038a565b6101e5565b5f546100c7906001600160a01b031681565b6040516001600160a01b03909116815260200161006e565b5f546060906001600160a01b0316331461010c5760405163282b2e2960e21b815260040160405180910390fd5b600180548060200260200160405190810160405280929190818152602001828054801561015657602002820191905f5260205f20905b815481526020019060010190808311610142575b5050505050905090565b5f546001600160a01b0316331461018a5760405163282b2e2960e21b815260040160405180910390fd5b8067ffffffffffffffff8111156101a3576101a3610376565b6040519080825280602002602001820160405280156101cc578160200160208202803683370190505b5080516101e1916001916020909101906102c0565b5050565b5f546001600160a01b0316331461020f5760405163282b2e2960e21b815260040160405180910390fd5b6001548151811461023357604051636e2ca24960e01b815260040160405180910390fd5b5f5b818110156102bb575f83828151811061025057610250610452565b60200260200101519050600a81111561028357604051632c870e6b60e11b81526004810182905260240160405180910390fd5b806001838154811061029757610297610452565b905f5260205f20015f8282546102ad9190610466565b909155505050600101610235565b505050565b828054828255905f5260205f209081019282156102f9579160200282015b828111156102f95782518255916020019190600101906102de565b50610305929150610309565b5090565b5b80821115610305575f815560010161030a565b602080825282518282018190525f918401906040840190835b81811015610354578351835260209384019390920191600101610336565b509095945050505050565b5f6020828403121561036f575f5ffd5b5035919050565b634e487b7160e01b5f52604160045260245ffd5b5f6020828403121561039a575f5ffd5b813567ffffffffffffffff8111156103b0575f5ffd5b8201601f810184136103c0575f5ffd5b803567ffffffffffffffff8111156103da576103da610376565b8060051b604051601f19603f830116810181811067ffffffffffffffff8211171561040757610407610376565b604052918252602081840181019290810187841115610424575f5ffd5b6020850194505b838510156104475784358082526020958601959093500161042b565b509695505050505050565b634e487b7160e01b5f52603260045260245ffd5b8082018082111561048557634e487b7160e01b5f52601160045260245ffd5b9291505056fea26469706673582212203d4efea0005ddbf4621f0f23654208516d1c5836fd103a4f39aa361622c3e2f964736f6c634300081c00336080604052348015600e575f5ffd5b506040516106f33803806106f3833981016040819052602b91604e565b5f80546001600160a01b0319166001600160a01b03929092169190911790556079565b5f60208284031215605d575f5ffd5b81516001600160a01b03811681146072575f5ffd5b9392505050565b61066d806100865f395ff3fe608060405234801561000f575f5ffd5b506004361061004a575f3560e01c80630dc960151461004e578063b7b0422d1461006c578063ce11f2bb14610081578063e407bcbd14610094575b5f5ffd5b6100566100be565b604051610063919061047f565b60405180910390f35b61007f61007a36600461050b565b61017e565b005b61007f61008f366004610536565b610292565b5f546100a6906001600160a01b031681565b6040516001600160a01b039091168152602001610063565b5f546060906001600160a01b031633146100eb5760405163282b2e2960e21b815260040160405180910390fd5b6001805480602002602001604051908101604052809291908181526020015f905b82821015610175575f8481526020908190208301805460408051828502810185019091528181529283018282801561016157602002820191905f5260205f20905b81548152602001906001019080831161014d575b50505050508152602001906001019061010c565b50505050905090565b5f546001600160a01b031633146101a85760405163282b2e2960e21b815260040160405180910390fd5b8067ffffffffffffffff8111156101c1576101c1610522565b6040519080825280602002602001820160405280156101f457816020015b60608152602001906001900390816101df5790505b50805161020991600191602090910190610391565b505f5b8181101561028e578167ffffffffffffffff81111561022d5761022d610522565b604051908082528060200260200182016040528015610256578160200160208202803683370190505b506001828154811061026a5761026a6105fe565b905f5260205f200190805190602001906102859291906103ec565b5060010161020c565b5050565b5f546001600160a01b031633146102bc5760405163282b2e2960e21b815260040160405180910390fd5b600154815181146102e057604051636e2ca24960e01b815260040160405180910390fd5b5f5b8181101561038c575f6102f6826001610612565b90505b8281101561038357600180858481518110610316576103166105fe565b60200260200101518154811061032e5761032e6105fe565b905f5260205f2001858381518110610348576103486105fe565b602002602001015181548110610360576103606105fe565b905f5260205f20015f8282546103769190610612565b90915550506001016102f9565b506001016102e2565b505050565b828054828255905f5260205f209081019282156103dc579160200282015b828111156103dc57825180516103cc9184916020909101906103ec565b50916020019190600101906103af565b506103e8929150610431565b5090565b828054828255905f5260205f20908101928215610425579160200282015b8281111561042557825182559160200191906001019061040a565b506103e892915061044d565b808211156103e8575f6104448282610461565b50600101610431565b5b808211156103e8575f815560010161044e565b5080545f8255905f5260205f209081019061047c919061044d565b50565b5f602082016020835280845180835260408501915060408160051b8601019250602086015f5b828110156104ff57868503603f19018452815180518087526020918201918701905f5b818110156104e65783518352602093840193909201916001016104c8565b50909650505060209384019391909101906001016104a5565b50929695505050505050565b5f6020828403121561051b575f5ffd5b5035919050565b634e487b7160e01b5f52604160045260245ffd5b5f60208284031215610546575f5ffd5b813567ffffffffffffffff81111561055c575f5ffd5b8201601f8101841361056c575f5ffd5b803567ffffffffffffffff81111561058657610586610522565b8060051b604051601f19603f830116810181811067ffffffffffffffff821117156105b3576105b3610522565b6040529182526020818401810192908101878411156105d0575f5ffd5b6020850194505b838510156105f3578435808252602095860195909350016105d7565b509695505050505050565b634e487b7160e01b5f52603260045260245ffd5b8082018082111561063157634e487b7160e01b5f52601160045260245ffd5b9291505056fea264697066735822122052deee579ace28edcf29b363f30e604259facd930cefbc2473de701ee6dd06cc64736f6c634300081c0033a2646970667358221220f14df322e2097fef78de80ca724ecbcf24b2ea73e12256f90e9b0a819a9b0e6864736f6c634300081c00336080604052348015600e575f5ffd5b506119b68061001c5f395ff3fe608060405234801561000f575f5ffd5b5060043610610060575f3560e01c80631892513814610064578063934150cc1461008d578063af6de5a1146100a0578063b2265653146100b3578063d5175990146100c6578063dd582afb146100d9575b5f5ffd5b61007761007236600461159b565b6100ec565b604051610084919061162d565b60405180910390f35b61007761009b3660046116b3565b610117565b6100776100ae3660046116fa565b61024c565b6100776100c136600461159b565b6102c4565b6100776100d436600461159b565b6102e6565b6100776100e73660046116fa565b610308565b60605f82806020019051810190610103919061175a565b90505f61010f82610405565b949350505050565b606060038210156101335761012c848461024c565b9050610245565b816003036101795761012c84848080601f0160208091040260200160405190810160405280939291908181526020018383808284375f920191909152506102c492505050565b816004036101bf5761012c84848080601f0160208091040260200160405190810160405280939291908181526020018383808284375f920191909152506100ec92505050565b816005036101d15761012c848461024c565b816006036101e35761012c848461024c565b816007036102295761012c84848080601f0160208091040260200160405190810160405280939291908181526020018383808284375f920191909152506102e692505050565b8160080361023b5761012c8484610308565b61012c848461024c565b9392505050565b60605f61025b8385018561186b565b8051909150600281101561027b576102728161096f565b925050506102be565b5f80610286846109d6565b90925090505f8290036102ac57604051638b9ae95f60e01b815260040160405180910390fd5b6102b7818386610a45565b9450505050505b92915050565b60605f828060200190518101906102db919061175a565b905061024581610afa565b60605f828060200190518101906102fd919061175a565b905061024581610fe1565b60605f6103178385018561186b565b8051909150600281101561032e576102728161096f565b5f806060815b848110156103ed575f86828151811061034f5761034f6118fb565b602002602001015190506002866103669190611923565b8111156103bb57604080516001808252818301909252906020808301908036833701905050925081835f815181106103a0576103a06118fb565b602002602001018181525050829750505050505050506102be565b848111156103cf57809450600193506103e4565b8481036103e457836103e081611942565b9450505b50600101610334565b506103f9828487610a45565b98975050505050505050565b8051606090600281101561041c576102458161096f565b5f816001600160401b0381111561043557610435611557565b60405190808252806020026020018201604052801561046857816020015b60608152602001906001900390816104535790505b5090505f5b828110156104dc57826001600160401b0381111561048d5761048d611557565b6040519080825280602002602001820160405280156104b6578160200160208202803683370190505b508282815181106104c9576104c96118fb565b602090810291909101015260010161046d565b505f5b828110156105e0575f5b838110156105d7578082146105cf5785818151811061050a5761050a6118fb565b60200260200101518281518110610523576105236118fb565b602002602001015186838151811061053d5761053d6118fb565b60200260200101518281518110610556576105566118fb565b602002602001015111156105cf57858281518110610576576105766118fb565b6020026020010151818151811061058f5761058f6118fb565b60200260200101518383815181106105a9576105a96118fb565b602002602001015182815181106105c2576105c26118fb565b6020026020010181815250505b6001016104e9565b506001016104df565b505f5b82811015610820575f5b838110156108175780821461080f575f5b8481101561080d578083141580156106165750808214155b156108055783828151811061062d5761062d6118fb565b60200260200101518381518110610646576106466118fb565b6020026020010151848381518110610660576106606118fb565b60200260200101518281518110610679576106796118fb565b60200260200101511080156106f1575083838151811061069b5761069b6118fb565b602002602001015181815181106106b4576106b46118fb565b60200260200101518483815181106106ce576106ce6118fb565b602002602001015182815181106106e7576106e76118fb565b6020026020010151105b1561080557838381518110610708576107086118fb565b60200260200101518181518110610721576107216118fb565b602002602001015184838151811061073b5761073b6118fb565b60200260200101518481518110610754576107546118fb565b60200260200101511061079957838381518110610773576107736118fb565b6020026020010151818151811061078c5761078c6118fb565b60200260200101516107cd565b8382815181106107ab576107ab6118fb565b602002602001015183815181106107c4576107c46118fb565b60200260200101515b8483815181106107df576107df6118fb565b602002602001015182815181106107f8576107f86118fb565b6020026020010181815250505b6001016105fe565b505b6001016105ed565b506001016105e3565b505f8080846001600160401b0381111561083c5761083c611557565b604051908082528060200260200182016040528015610865578160200160208202803683370190505b5090505f5b85811015610958575f805b87811015610906578083146108fe57868181518110610896576108966118fb565b602002602001015183815181106108af576108af6118fb565b60200260200101518784815181106108c9576108c96118fb565b602002602001015182815181106108e2576108e26118fb565b602002602001015111156108fe576108fb60018361195a565b91505b600101610875565b508083838151811061091a5761091a6118fb565b6020026020010181815250508481111561093a578094506001935061094f565b84810361094f578361094b81611942565b9450505b5060010161086a565b50610964828483610a45565b979650505050505050565b6060815f0361099157604051638b9ae95f60e01b815260040160405180910390fd5b6040805160018082528183019092525f91602080830190803683370190505090505f815f815181106109c5576109c56118fb565b602090810291909101015292915050565b80515f90819081908190815b81811015610a39575f8782815181106109fd576109fd6118fb565b6020026020010151905084811115610a1b5780945060019350610a30565b848103610a305783610a2c81611942565b9450505b506001016109e2565b50919590945092505050565b60605f846001600160401b03811115610a6057610a60611557565b604051908082528060200260200182016040528015610a89578160200160208202803683370190505b5083519091505f805b82811015610aee5786868281518110610aad57610aad6118fb565b602002602001015103610ae65780848381518110610acd57610acd6118fb565b602090810291909101015281610ae281611942565b9250505b600101610a92565b50919695505050505050565b60605f825f81518110610b0f57610b0f6118fb565b60200260200101515190506002811015610b2c576102458161096f565b5f816001600160401b03811115610b4557610b45611557565b604051908082528060200260200182016040528015610b6e578160200160208202803683370190505b5090505f5b82811015610ba15780828281518110610b8e57610b8e6118fb565b6020908102919091010152600101610b73565b505b5f610bae858461139f565b90505f5b8151811015610c395760028651610bc99190611923565b828281518110610bdb57610bdb6118fb565b60200260200101511115610c3157604080516001808252818301909252906020808301908036833701905050945080855f81518110610c1c57610c1c6118fb565b60200260200101818152505050505050919050565b600101610bb2565b5084518060015f5b8451811015610d075783858281518110610c5d57610c5d6118fb565b6020026020010151108015610c8a57505f858281518110610c8057610c806118fb565b6020026020010151115b15610cb657848181518110610ca157610ca16118fb565b602002602001015193508092505f9150610cff565b83858281518110610cc957610cc96118fb565b6020026020010151148015610cf657505f858281518110610cec57610cec6118fb565b6020026020010151115b15610cff575f91505b600101610c41565b508015610e2c575f866001600160401b03811115610d2757610d27611557565b604051908082528060200260200182016040528015610d50578160200160208202803683370190505b5090505f805b8651811015610db4575f878281518110610d7257610d726118fb565b60200260200101511115610dac5780838381518110610d9357610d936118fb565b602090810291909101015281610da881611942565b9250505b600101610d56565b5060408051600280825260608201835290916020830190803683370190505098505f5b81811015610e1e57828181518110610df157610df16118fb565b60200260200101518a8281518110610e0b57610e0b6118fb565b6020908102919091010152600101610dd7565b505050505050505050919050565b5f5b8851811015610e7f57610e5a898281518110610e4c57610e4c6118fb565b602002602001015184611480565b898281518110610e6c57610e6c6118fb565b6020908102919091010152600101610e2e565b5060015f5b8951811015610ebf575f8a8281518110610ea057610ea06118fb565b6020026020010151511115610eb7575f9150610ebf565b600101610e84565b508015610fd7575f805b8751811015610f09578a51888281518110610ee657610ee66118fb565b602002602001015114610f015781610efd81611942565b9250505b600101610ec9565b50806001600160401b03811115610f2257610f22611557565b604051908082528060200260200182016040528015610f4b578160200160208202803683370190505b5098505f805b8851811015610fc8578b51898281518110610f6e57610f6e6118fb565b602002602001015114610fc057888181518110610f8d57610f8d6118fb565b60200260200101518b8381518110610fa757610fa76118fb565b602090810291909101015281610fbc81611942565b9250505b600101610f51565b50505050505050505050919050565b5050505050610ba3565b80516060906002811015610ff8576102458161096f565b5f816001600160401b0381111561101157611011611557565b60405190808252806020026020018201604052801561104457816020015b606081526020019060019003908161102f5790505b5090505f5b828110156111e157826001600160401b0381111561106957611069611557565b604051908082528060200260200182016040528015611092578160200160208202803683370190505b508282815181106110a5576110a56118fb565b60209081029190910101525f5b838110156111d8578082146111d0578581815181106110d3576110d36118fb565b602002602001015182815181106110ec576110ec6118fb565b6020026020010151868381518110611106576111066118fb565b6020026020010151828151811061111f5761111f6118fb565b6020026020010151116111645785818151811061113e5761113e6118fb565b60200260200101518281518110611157576111576118fb565b6020026020010151611198565b858281518110611176576111766118fb565b6020026020010151818151811061118f5761118f6118fb565b60200260200101515b8383815181106111aa576111aa6118fb565b602002602001015182815181106111c3576111c36118fb565b6020026020010181815250505b6001016110b2565b50600101611049565b505f826001600160401b038111156111fb576111fb611557565b604051908082528060200260200182016040528015611224578160200160208202803683370190505b5090505f805b84811015611383575f856001600160401b0381111561124b5761124b611557565b604051908082528060200260200182016040528015611274578160200160208202803683370190505b5090505f805b87811015611369578084146113615786818151811061129b5761129b6118fb565b602002602001015184815181106112b4576112b46118fb565b60200260200101518785815181106112ce576112ce6118fb565b602002602001015182815181106112e7576112e76118fb565b6020026020010151111561136157828481518110611307576113076118fb565b60200260200101805180919061131c90611942565b81525050868481518110611332576113326118fb565b6020026020010151818151811061134b5761134b6118fb565b60200260200101518261135e919061195a565b91505b60010161127a565b5083811115611379578093508194505b505060010161122a565b505f5f61138f846109d6565b90925090506103f9818386610a45565b60605f826001600160401b038111156113ba576113ba611557565b6040519080825280602002602001820160405280156113e3578160200160208202803683370190505b5090505f5b8451811015611478575f858281518110611404576114046118fb565b60200260200101515111156114705781858281518110611426576114266118fb565b60200260200101515f8151811061143f5761143f6118fb565b602002602001015181518110611457576114576118fb565b60200260200101805180919061146c90611942565b9052505b6001016113e8565b509392505050565b60605f60018451611491919061196d565b6001600160401b038111156114a8576114a8611557565b6040519080825280602002602001820160405280156114d1578160200160208202803683370190505b5090505f805b855181101561154d57848682815181106114f3576114f36118fb565b60200260200101511461154557858181518110611512576115126118fb565b602002602001015183838151811061152c5761152c6118fb565b60209081029190910101528161154181611942565b9250505b6001016114d7565b5090949350505050565b634e487b7160e01b5f52604160045260245ffd5b604051601f8201601f191681016001600160401b038111828210171561159357611593611557565b604052919050565b5f602082840312156115ab575f5ffd5b81356001600160401b038111156115c0575f5ffd5b8201601f810184136115d0575f5ffd5b80356001600160401b038111156115e9576115e9611557565b6115fc601f8201601f191660200161156b565b818152856020838501011115611610575f5ffd5b816020840160208301375f91810160200191909152949350505050565b602080825282518282018190525f918401906040840190835b81811015611664578351835260209384019390920191600101611646565b509095945050505050565b5f5f83601f84011261167f575f5ffd5b5081356001600160401b03811115611695575f5ffd5b6020830191508360208285010111156116ac575f5ffd5b9250929050565b5f5f5f604084860312156116c5575f5ffd5b83356001600160401b038111156116da575f5ffd5b6116e68682870161166f565b909790965060209590950135949350505050565b5f5f6020838503121561170b575f5ffd5b82356001600160401b03811115611720575f5ffd5b61172c8582860161166f565b90969095509350505050565b5f6001600160401b0382111561175057611750611557565b5060051b60200190565b5f6020828403121561176a575f5ffd5b81516001600160401b0381111561177f575f5ffd5b8201601f8101841361178f575f5ffd5b80516117a261179d82611738565b61156b565b8082825260208201915060208360051b8501019250868311156117c3575f5ffd5b602084015b838110156118605780516001600160401b038111156117e5575f5ffd5b8501603f810189136117f5575f5ffd5b602081015161180661179d82611738565b808282526020820191506020808460051b8601010192508b831115611829575f5ffd5b6040840193505b8284101561184b578351825260209384019390910190611830565b865250506020938401939190910190506117c8565b509695505050505050565b5f6020828403121561187b575f5ffd5b81356001600160401b03811115611890575f5ffd5b8201601f810184136118a0575f5ffd5b80356118ae61179d82611738565b8082825260208201915060208360051b8501019250868311156118cf575f5ffd5b6020840193505b828410156118f15783358252602093840193909101906118d6565b9695505050505050565b634e487b7160e01b5f52603260045260245ffd5b634e487b7160e01b5f52601160045260245ffd5b5f8261193d57634e487b7160e01b5f52601260045260245ffd5b500490565b5f600182016119535761195361190f565b5060010190565b808201808211156102be576102be61190f565b818103818111156102be576102be61190f56fea2646970667358221220209d33be0d386975eb6a6e4bad2e150a7c136c3ad49eb9ecfe39e27db8b5aefa64736f6c634300081c0033","linkReferences":{}},"methodIdentifiers":{"addWhitelistedContract(uint64,address)":"9e1aaea1","ccipReceive((bytes32,uint64,bytes,bytes,(address,uint256)[]))":"85572ffb","createElection((uint256,uint256,string,string),uint256,uint256)":"e98d594c","deleteElection(uint256)":"740c47d4","electionCount()":"997d2830","factoryOwner()":"4273601c","getOpenElections()":"63970f56","getRouter()":"b0f479a1","openBasedElections(uint256)":"20de2ee6","removeWhitelistedContract(uint64)":"ef50da53","supportsInterface(bytes4)":"01ffc9a7"},"id":1}