{
  "_format": "hh-sol-artifact-1",
  "contractName": "Election",
  "sourceName": "contracts/facets/Election.sol",
  "abi": [
    {
      "inputs": [
        {
          "components": [
            {
              "internalType": "uint256",
              "name": "electionID",
              "type": "uint256"
            },
            {
              "internalType": "string",
              "name": "name",
              "type": "string"
            },
            {
              "internalType": "string",
              "name": "description",
              "type": "string"
            },
            {
              "internalType": "uint256",
              "name": "startDate",
              "type": "uint256"
            },
            {
              "internalType": "uint256",
              "name": "endDate",
              "type": "uint256"
            },
            {
              "internalType": "bool",
              "name": "electionType",
              "type": "bool"
            }
          ],
          "internalType": "struct Election.ElectionInfo",
          "name": "_electionInfo",
          "type": "tuple"
        },
        {
          "internalType": "contract Ballot",
          "name": "_ballot",
          "type": "address"
        },
        {
          "internalType": "contract ResultCalculator",
          "name": "_resultCalculator",
          "type": "address"
        },
        {
          "internalType": "address",
          "name": "_electionOrganizer",
          "type": "address"
        },
        {
          "internalType": "address",
          "name": "_electionOrganizerContract",
          "type": "address"
        },
        {
          "internalType": "uint256",
          "name": "_ballotType",
          "type": "uint256"
        }
      ],
      "stateMutability": "nonpayable",
      "type": "constructor"
    },
    {
      "anonymous": false,
      "inputs": [
        {
          "indexed": false,
          "internalType": "address",
          "name": "election",
          "type": "address"
        },
        {
          "indexed": false,
          "internalType": "address",
          "name": "ballot",
          "type": "address"
        },
        {
          "components": [
            {
              "internalType": "uint256",
              "name": "candidateID",
              "type": "uint256"
            },
            {
              "internalType": "string",
              "name": "name",
              "type": "string"
            },
            {
              "internalType": "string",
              "name": "description",
              "type": "string"
            }
          ],
          "indexed": false,
          "internalType": "struct Election.Candidate",
          "name": "candidate",
          "type": "tuple"
        }
      ],
      "name": "CandidateAdded",
      "type": "event"
    },
    {
      "anonymous": false,
      "inputs": [
        {
          "indexed": false,
          "internalType": "uint256[]",
          "name": "winners",
          "type": "uint256[]"
        }
      ],
      "name": "ListWinners",
      "type": "event"
    },
    {
      "anonymous": false,
      "inputs": [
        {
          "indexed": false,
          "internalType": "address",
          "name": "ballot",
          "type": "address"
        },
        {
          "components": [
            {
              "internalType": "uint256",
              "name": "candidateID",
              "type": "uint256"
            },
            {
              "internalType": "string",
              "name": "name",
              "type": "string"
            },
            {
              "internalType": "string",
              "name": "description",
              "type": "string"
            }
          ],
          "indexed": false,
          "internalType": "struct Election.Candidate",
          "name": "candidate",
          "type": "tuple"
        },
        {
          "indexed": false,
          "internalType": "uint256",
          "name": "weight",
          "type": "uint256"
        }
      ],
      "name": "VoteCasted",
      "type": "event"
    },
    {
      "inputs": [
        {
          "components": [
            {
              "internalType": "uint256",
              "name": "candidateID",
              "type": "uint256"
            },
            {
              "internalType": "string",
              "name": "name",
              "type": "string"
            },
            {
              "internalType": "string",
              "name": "description",
              "type": "string"
            }
          ],
          "internalType": "struct Election.Candidate",
          "name": "_candidate",
          "type": "tuple"
        }
      ],
      "name": "addCandidate",
      "outputs": [],
      "stateMutability": "nonpayable",
      "type": "function"
    },
    {
      "inputs": [],
      "name": "getBallot",
      "outputs": [
        {
          "internalType": "address",
          "name": "",
          "type": "address"
        }
      ],
      "stateMutability": "view",
      "type": "function"
    },
    {
      "inputs": [],
      "name": "getBallotType",
      "outputs": [
        {
          "internalType": "uint256",
          "name": "",
          "type": "uint256"
        }
      ],
      "stateMutability": "view",
      "type": "function"
    },
    {
      "inputs": [
        {
          "internalType": "uint256",
          "name": "_candidateID",
          "type": "uint256"
        }
      ],
      "name": "getCandidateByID",
      "outputs": [
        {
          "components": [
            {
              "internalType": "uint256",
              "name": "candidateID",
              "type": "uint256"
            },
            {
              "internalType": "string",
              "name": "name",
              "type": "string"
            },
            {
              "internalType": "string",
              "name": "description",
              "type": "string"
            }
          ],
          "internalType": "struct Election.Candidate",
          "name": "",
          "type": "tuple"
        }
      ],
      "stateMutability": "view",
      "type": "function"
    },
    {
      "inputs": [],
      "name": "getCandidateCount",
      "outputs": [
        {
          "internalType": "uint256",
          "name": "",
          "type": "uint256"
        }
      ],
      "stateMutability": "view",
      "type": "function"
    },
    {
      "inputs": [],
      "name": "getCandidates",
      "outputs": [
        {
          "components": [
            {
              "internalType": "uint256",
              "name": "candidateID",
              "type": "uint256"
            },
            {
              "internalType": "string",
              "name": "name",
              "type": "string"
            },
            {
              "internalType": "string",
              "name": "description",
              "type": "string"
            }
          ],
          "internalType": "struct Election.Candidate[]",
          "name": "",
          "type": "tuple[]"
        }
      ],
      "stateMutability": "view",
      "type": "function"
    },
    {
      "inputs": [],
      "name": "getElectionInfo",
      "outputs": [
        {
          "components": [
            {
              "internalType": "uint256",
              "name": "electionID",
              "type": "uint256"
            },
            {
              "internalType": "string",
              "name": "name",
              "type": "string"
            },
            {
              "internalType": "string",
              "name": "description",
              "type": "string"
            },
            {
              "internalType": "uint256",
              "name": "startDate",
              "type": "uint256"
            },
            {
              "internalType": "uint256",
              "name": "endDate",
              "type": "uint256"
            },
            {
              "internalType": "bool",
              "name": "electionType",
              "type": "bool"
            }
          ],
          "internalType": "struct Election.ElectionInfo",
          "name": "",
          "type": "tuple"
        }
      ],
      "stateMutability": "view",
      "type": "function"
    },
    {
      "inputs": [],
      "name": "getElectionOrganizer",
      "outputs": [
        {
          "internalType": "address",
          "name": "",
          "type": "address"
        }
      ],
      "stateMutability": "view",
      "type": "function"
    },
    {
      "inputs": [],
      "name": "getElectionType",
      "outputs": [
        {
          "internalType": "bool",
          "name": "",
          "type": "bool"
        }
      ],
      "stateMutability": "view",
      "type": "function"
    },
    {
      "inputs": [],
      "name": "getResult",
      "outputs": [
        {
          "internalType": "uint256[]",
          "name": "",
          "type": "uint256[]"
        }
      ],
      "stateMutability": "nonpayable",
      "type": "function"
    },
    {
      "inputs": [],
      "name": "getResultCalculator",
      "outputs": [
        {
          "internalType": "address",
          "name": "",
          "type": "address"
        }
      ],
      "stateMutability": "view",
      "type": "function"
    },
    {
      "inputs": [],
      "name": "getStatus",
      "outputs": [
        {
          "internalType": "enum Election.Status",
          "name": "",
          "type": "uint8"
        }
      ],
      "stateMutability": "view",
      "type": "function"
    },
    {
      "inputs": [
        {
          "internalType": "address",
          "name": "_voter",
          "type": "address"
        }
      ],
      "name": "getVoteStatus",
      "outputs": [
        {
          "internalType": "bool",
          "name": "",
          "type": "bool"
        }
      ],
      "stateMutability": "view",
      "type": "function"
    },
    {
      "inputs": [],
      "name": "getVoterCount",
      "outputs": [
        {
          "internalType": "uint256",
          "name": "",
          "type": "uint256"
        }
      ],
      "stateMutability": "view",
      "type": "function"
    },
    {
      "inputs": [],
      "name": "getWinners",
      "outputs": [
        {
          "internalType": "uint256[]",
          "name": "",
          "type": "uint256[]"
        }
      ],
      "stateMutability": "view",
      "type": "function"
    },
    {
      "inputs": [
        {
          "internalType": "string",
          "name": "_name",
          "type": "string"
        },
        {
          "internalType": "string",
          "name": "_description",
          "type": "string"
        },
        {
          "internalType": "uint256",
          "name": "index",
          "type": "uint256"
        }
      ],
      "name": "updateCandidateInfo",
      "outputs": [],
      "stateMutability": "nonpayable",
      "type": "function"
    },
    {
      "inputs": [
        {
          "components": [
            {
              "internalType": "uint256",
              "name": "electionID",
              "type": "uint256"
            },
            {
              "internalType": "string",
              "name": "name",
              "type": "string"
            },
            {
              "internalType": "string",
              "name": "description",
              "type": "string"
            },
            {
              "internalType": "uint256",
              "name": "startDate",
              "type": "uint256"
            },
            {
              "internalType": "uint256",
              "name": "endDate",
              "type": "uint256"
            },
            {
              "internalType": "bool",
              "name": "electionType",
              "type": "bool"
            }
          ],
          "internalType": "struct Election.ElectionInfo",
          "name": "_electionInfo",
          "type": "tuple"
        }
      ],
      "name": "updateElectionInfo",
      "outputs": [],
      "stateMutability": "nonpayable",
      "type": "function"
    },
    {
      "inputs": [
        {
          "internalType": "address",
          "name": "_voter",
          "type": "address"
        },
        {
          "internalType": "uint256",
          "name": "_candidateID",
          "type": "uint256"
        },
        {
          "internalType": "uint256",
          "name": "weight",
          "type": "uint256"
        },
        {
          "internalType": "uint256[]",
          "name": "voteArr",
          "type": "uint256[]"
        }
      ],
      "name": "vote",
      "outputs": [],
      "stateMutability": "nonpayable",
      "type": "function"
    }
  ],
  "bytecode": "0x60806040523480156200001157600080fd5b5060405162003329380380620033298339818101604052810190620000379190620006a8565b82600a60006101000a81548173ffffffffffffffffffffffffffffffffffffffff021916908373ffffffffffffffffffffffffffffffffffffffff16021790555081600b60006101000a81548173ffffffffffffffffffffffffffffffffffffffff021916908373ffffffffffffffffffffffffffffffffffffffff1602179055508560008082015181600001556020820151816001019080519060200190620000e3929190620001fb565b50604082015181600201908051906020019062000102929190620001fb565b50606082015181600301556080820151816004015560a08201518160050160006101000a81548160ff02191690831515021790555090505084600e60016101000a81548173ffffffffffffffffffffffffffffffffffffffff021916908373ffffffffffffffffffffffffffffffffffffffff16021790555083600f60006101000a81548173ffffffffffffffffffffffffffffffffffffffff021916908373ffffffffffffffffffffffffffffffffffffffff1602179055506103e86009819055506000600c819055506000600e60006101000a81548160ff02191690831515021790555080600d81905550505050505050620007c8565b828054620002099062000792565b90600052602060002090601f0160209004810192826200022d576000855562000279565b82601f106200024857805160ff191683800117855562000279565b8280016001018555821562000279579182015b82811115620002785782518255916020019190600101906200025b565b5b5090506200028891906200028c565b5090565b5b80821115620002a75760008160009055506001016200028d565b5090565b6000604051905090565b600080fd5b600080fd5b600080fd5b6000601f19601f8301169050919050565b7f4e487b7100000000000000000000000000000000000000000000000000000000600052604160045260246000fd5b6200030f82620002c4565b810181811067ffffffffffffffff82111715620003315762000330620002d5565b5b80604052505050565b600062000346620002ab565b905062000354828262000304565b919050565b600080fd5b6000819050919050565b62000373816200035e565b81146200037f57600080fd5b50565b600081519050620003938162000368565b92915050565b600080fd5b600080fd5b600067ffffffffffffffff821115620003c157620003c0620002d5565b5b620003cc82620002c4565b9050602081019050919050565b60005b83811015620003f9578082015181840152602081019050620003dc565b8381111562000409576000848401525b50505050565b6000620004266200042084620003a3565b6200033a565b9050828152602081018484840111156200044557620004446200039e565b5b62000452848285620003d9565b509392505050565b600082601f83011262000472576200047162000399565b5b8151620004848482602086016200040f565b91505092915050565b60008115159050919050565b620004a4816200048d565b8114620004b057600080fd5b50565b600081519050620004c48162000499565b92915050565b600060c08284031215620004e357620004e2620002bf565b5b620004ef60c06200033a565b90506000620005018482850162000382565b600083015250602082015167ffffffffffffffff81111562000528576200052762000359565b5b62000536848285016200045a565b602083015250604082015167ffffffffffffffff8111156200055d576200055c62000359565b5b6200056b848285016200045a565b6040830152506060620005818482850162000382565b6060830152506080620005978482850162000382565b60808301525060a0620005ad84828501620004b3565b60a08301525092915050565b600073ffffffffffffffffffffffffffffffffffffffff82169050919050565b6000620005e682620005b9565b9050919050565b6000620005fa82620005d9565b9050919050565b6200060c81620005ed565b81146200061857600080fd5b50565b6000815190506200062c8162000601565b92915050565b60006200063f82620005d9565b9050919050565b620006518162000632565b81146200065d57600080fd5b50565b600081519050620006718162000646565b92915050565b6200068281620005d9565b81146200068e57600080fd5b50565b600081519050620006a28162000677565b92915050565b60008060008060008060c08789031215620006c857620006c7620002b5565b5b600087015167ffffffffffffffff811115620006e957620006e8620002ba565b5b620006f789828a01620004ca565b96505060206200070a89828a016200061b565b95505060406200071d89828a0162000660565b94505060606200073089828a0162000691565b93505060806200074389828a0162000691565b92505060a06200075689828a0162000382565b9150509295509295509295565b7f4e487b7100000000000000000000000000000000000000000000000000000000600052602260045260246000fd5b60006002820490506001821680620007ab57607f821691505b60208210811415620007c257620007c162000763565b5b50919050565b612b5180620007d86000396000f3fe608060405234801561001057600080fd5b50600436106101165760003560e01c806382202396116100a2578063b976181b11610071578063b976181b146102bf578063de292789146102db578063df15c37e146102f9578063e04b1c0c14610317578063e29859e51461033557610116565b8063822023961461023757806386852dca146102675780639baec8b914610285578063a1818ac4146102a357610116565b8063273ffe86116100e9578063273ffe861461019157806330a56347146101ad57806337349a7d146101cb5780634e69d560146101e9578063521b0dcc1461020757610116565b806306a49fce1461011b57806311174a29146101395780631ca577141461015757806324fd983c14610175575b600080fd5b610123610353565b60405161013091906117d6565b60405180910390f35b6101416104e0565b60405161014e9190611807565b60405180910390f35b61015f6104ea565b60405161016c9190611807565b60405180910390f35b61018f600480360381019061018a9190611997565b6104f4565b005b6101ab60048036038101906101a69190611ac8565b610682565b005b6101b5610978565b6040516101c29190611807565b60405180910390f35b6101d3610982565b6040516101e09190611b52565b60405180910390f35b6101f1610a3c565b6040516101fe9190611be4565b60405180910390f35b610221600480360381019061021c9190611c2b565b610a71565b60405161022e9190611c73565b60405180910390f35b610251600480360381019061024c9190611c8e565b610b16565b60405161025e9190611d12565b60405180910390f35b61026f610c71565b60405161027c9190611dd3565b60405180910390f35b61028d610de8565b60405161029a9190611b52565b60405180910390f35b6102bd60048036038101906102b89190611ebd565b610ea2565b005b6102d960048036038101906102d49190612044565b611030565b005b6102e36111ae565b6040516102f0919061213c565b60405180910390f35b6103016113d1565b60405161030e919061213c565b60405180910390f35b61031f61147f565b60405161032c9190611b52565b60405180910390f35b61033d6114a9565b60405161034a9190611c73565b60405180910390f35b60606006805480602002602001604051908101604052809291908181526020016000905b828210156104d75783829060005260206000209060030201604051806060016040529081600082015481526020016001820180546103b49061218d565b80601f01602080910402602001604051908101604052809291908181526020018280546103e09061218d565b801561042d5780601f106104025761010080835404028352916020019161042d565b820191906000526020600020905b81548152906001019060200180831161041057829003601f168201915b505050505081526020016002820180546104469061218d565b80601f01602080910402602001604051908101604052809291908181526020018280546104729061218d565b80156104bf5780601f10610494576101008083540402835291602001916104bf565b820191906000526020600020905b8154815290600101906020018083116104a257829003601f168201915b50505050508152505081526020019060010190610377565b50505050905090565b6000600c54905090565b6000600d54905090565b600b60009054906101000a900473ffffffffffffffffffffffffffffffffffffffff1673ffffffffffffffffffffffffffffffffffffffff163373ffffffffffffffffffffffffffffffffffffffff1614610584576040517f08c379a000000000000000000000000000000000000000000000000000000000815260040161057b90612242565b60405180910390fd5b6001600281111561059857610597611b6d565b5b6105a0610a3c565b60028111156105b2576105b1611b6d565b5b146105f2576040517f08c379a00000000000000000000000000000000000000000000000000000000081526004016105e9906122d4565b60405180910390fd5b6000600680549050905080821061060857600080fd5b836006838154811061061d5761061c6122f4565b5b906000526020600020906003020160010190805190602001906106419291906114c2565b508260068381548110610657576106566122f4565b5b9060005260206000209060030201600201908051906020019061067b9291906114c2565b5050505050565b600b60009054906101000a900473ffffffffffffffffffffffffffffffffffffffff1673ffffffffffffffffffffffffffffffffffffffff163373ffffffffffffffffffffffffffffffffffffffff1614610712576040517f08c379a000000000000000000000000000000000000000000000000000000000815260040161070990612242565b60405180910390fd5b6001600281111561072657610725611b6d565b5b61072e610a3c565b60028111156107405761073f611b6d565b5b14610780576040517f08c379a0000000000000000000000000000000000000000000000000000000008152600401610777906122d4565b60405180910390fd5b600060016009546107919190612352565b90508082600001818152505060068290806001815401808255809150506001900390600052602060002090600302016000909190919091506000820151816000015560208201518160010190805190602001906107ef9291906114c2565b50604082015181600201908051906020019061080c9291906114c2565b505050600e60019054906101000a900473ffffffffffffffffffffffffffffffffffffffff1673ffffffffffffffffffffffffffffffffffffffff1663e844d09783600001516040518263ffffffff1660e01b815260040161086e9190611807565b600060405180830381600087803b15801561088857600080fd5b505af115801561089c573d6000803e3d6000fd5b505050508160086000846000015181526020019081526020016000206000820151816000015560208201518160010190805190602001906108de9291906114c2565b5060408201518160020190805190602001906108fb9291906114c2565b5090505060096000815480929190610912906123a8565b91905055507f4d9dd414a40890e16b7bd0ea98bdf9d5b55c3d20cfe4b18febda0d60fb32a60c30600e60019054906101000a900473ffffffffffffffffffffffffffffffffffffffff168460405161096c939291906123f1565b60405180910390a15050565b6000600954905090565b6000600a60009054906101000a900473ffffffffffffffffffffffffffffffffffffffff1673ffffffffffffffffffffffffffffffffffffffff163373ffffffffffffffffffffffffffffffffffffffff1614610a14576040517f08c379a0000000000000000000000000000000000000000000000000000000008152600401610a0b906124a1565b60405180910390fd5b600f60009054906101000a900473ffffffffffffffffffffffffffffffffffffffff16905090565b60008060030154421015610a535760019050610a6e565b600060040154421015610a695760009050610a6e565b600290505b90565b6000600e60019054906101000a900473ffffffffffffffffffffffffffffffffffffffff1673ffffffffffffffffffffffffffffffffffffffff1663521b0dcc836040518263ffffffff1660e01b8152600401610ace9190611b52565b602060405180830381865afa158015610aeb573d6000803e3d6000fd5b505050506040513d601f19601f82011682018060405250810190610b0f91906124d6565b9050919050565b610b1e611548565b6008600083815260200190815260200160002060405180606001604052908160008201548152602001600182018054610b569061218d565b80601f0160208091040260200160405190810160405280929190818152602001828054610b829061218d565b8015610bcf5780601f10610ba457610100808354040283529160200191610bcf565b820191906000526020600020905b815481529060010190602001808311610bb257829003601f168201915b50505050508152602001600282018054610be89061218d565b80601f0160208091040260200160405190810160405280929190818152602001828054610c149061218d565b8015610c615780601f10610c3657610100808354040283529160200191610c61565b820191906000526020600020905b815481529060010190602001808311610c4457829003601f168201915b5050505050815250509050919050565b610c79611569565b60006040518060c001604052908160008201548152602001600182018054610ca09061218d565b80601f0160208091040260200160405190810160405280929190818152602001828054610ccc9061218d565b8015610d195780601f10610cee57610100808354040283529160200191610d19565b820191906000526020600020905b815481529060010190602001808311610cfc57829003601f168201915b50505050508152602001600282018054610d329061218d565b80601f0160208091040260200160405190810160405280929190818152602001828054610d5e9061218d565b8015610dab5780601f10610d8057610100808354040283529160200191610dab565b820191906000526020600020905b815481529060010190602001808311610d8e57829003601f168201915b5050505050815260200160038201548152602001600482015481526020016005820160009054906101000a900460ff161515151581525050905090565b6000600a60009054906101000a900473ffffffffffffffffffffffffffffffffffffffff1673ffffffffffffffffffffffffffffffffffffffff163373ffffffffffffffffffffffffffffffffffffffff1614610e7a576040517f08c379a0000000000000000000000000000000000000000000000000000000008152600401610e71906124a1565b60405180910390fd5b600e60019054906101000a900473ffffffffffffffffffffffffffffffffffffffff16905090565b60006002811115610eb657610eb5611b6d565b5b610ebe610a3c565b6002811115610ed057610ecf611b6d565b5b14610f10576040517f08c379a0000000000000000000000000000000000000000000000000000000008152600401610f0790612575565b60405180910390fd5b600e60019054906101000a900473ffffffffffffffffffffffffffffffffffffffff1673ffffffffffffffffffffffffffffffffffffffff1663a1818ac4858585856040518563ffffffff1660e01b8152600401610f719493929190612595565b600060405180830381600087803b158015610f8b57600080fd5b505af1158015610f9f573d6000803e3d6000fd5b50505050600c6000815480929190610fb6906123a8565b91905055507fd589db416dab4dff131e94610b2d02ce215ded85a2943a2ea59acd2153a85182600e60019054906101000a900473ffffffffffffffffffffffffffffffffffffffff16600860008681526020019081526020016000208460405161102293929190612709565b60405180910390a150505050565b600a60009054906101000a900473ffffffffffffffffffffffffffffffffffffffff1673ffffffffffffffffffffffffffffffffffffffff163373ffffffffffffffffffffffffffffffffffffffff16146110c0576040517f08c379a00000000000000000000000000000000000000000000000000000000081526004016110b7906124a1565b60405180910390fd5b600160028111156110d4576110d3611b6d565b5b6110dc610a3c565b60028111156110ee576110ed611b6d565b5b1461112e576040517f08c379a0000000000000000000000000000000000000000000000000000000008152600401611125906127b9565b60405180910390fd5b80600080820151816000015560208201518160010190805190602001906111569291906114c2565b5060408201518160020190805190602001906111739291906114c2565b50606082015181600301556080820151816004015560a08201518160050160006101000a81548160ff02191690831515021790555090505050565b60606002808111156111c3576111c2611b6d565b5b6111cb610a3c565b60028111156111dd576111dc611b6d565b5b1461121d576040517f08c379a00000000000000000000000000000000000000000000000000000000081526004016112149061284b565b60405180910390fd5b60001515600e60009054906101000a900460ff16151514156113c357600f60009054906101000a900473ffffffffffffffffffffffffffffffffffffffff1673ffffffffffffffffffffffffffffffffffffffff1663c8344a20600e60019054906101000a900473ffffffffffffffffffffffffffffffffffffffff16600c546040518363ffffffff1660e01b81526004016112ba9291906128ca565b6000604051808303816000875af11580156112d9573d6000803e3d6000fd5b505050506040513d6000823e3d601f19601f82011682018060405250810190611302919061299f565b600790805190602001906113179291906115a1565b506001600e60006101000a81548160ff0219169083151502179055507f28e5f582afeee46fd13ea548ad814f45b1d4a5159990336d5e66deb48a960e4c60076040516113639190612a8d565b60405180910390a160078054806020026020016040519081016040528092919081815260200182805480156113b757602002820191906000526020600020905b8154815260200190600101908083116113a3575b505050505090506113ce565b6113cb6113d1565b90505b90565b606060011515600e60009054906101000a900460ff16151514611429576040517f08c379a000000000000000000000000000000000000000000000000000000000815260040161142090612afb565b60405180910390fd5b600780548060200260200160405190810160405280929190818152602001828054801561147557602002820191906000526020600020905b815481526020019060010190808311611461575b5050505050905090565b6000600a60009054906101000a900473ffffffffffffffffffffffffffffffffffffffff16905090565b60008060050160009054906101000a900460ff16905090565b8280546114ce9061218d565b90600052602060002090601f0160209004810192826114f05760008555611537565b82601f1061150957805160ff1916838001178555611537565b82800160010185558215611537579182015b8281111561153657825182559160200191906001019061151b565b5b50905061154491906115ee565b5090565b60405180606001604052806000815260200160608152602001606081525090565b6040518060c0016040528060008152602001606081526020016060815260200160008152602001600081526020016000151581525090565b8280548282559060005260206000209081019282156115dd579160200282015b828111156115dc5782518255916020019190600101906115c1565b5b5090506115ea91906115ee565b5090565b5b808211156116075760008160009055506001016115ef565b5090565b600081519050919050565b600082825260208201905092915050565b6000819050602082019050919050565b6000819050919050565b61164a81611637565b82525050565b600081519050919050565b600082825260208201905092915050565b60005b8381101561168a57808201518184015260208101905061166f565b83811115611699576000848401525b50505050565b6000601f19601f8301169050919050565b60006116bb82611650565b6116c5818561165b565b93506116d581856020860161166c565b6116de8161169f565b840191505092915050565b60006060830160008301516117016000860182611641565b506020830151848203602086015261171982826116b0565b9150506040830151848203604086015261173382826116b0565b9150508091505092915050565b600061174c83836116e9565b905092915050565b6000602082019050919050565b600061176c8261160b565b6117768185611616565b93508360208202850161178885611627565b8060005b858110156117c457848403895281516117a58582611740565b94506117b083611754565b925060208a0199505060018101905061178c565b50829750879550505050505092915050565b600060208201905081810360008301526117f08184611761565b905092915050565b61180181611637565b82525050565b600060208201905061181c60008301846117f8565b92915050565b6000604051905090565b600080fd5b600080fd5b600080fd5b600080fd5b7f4e487b7100000000000000000000000000000000000000000000000000000000600052604160045260246000fd5b6118788261169f565b810181811067ffffffffffffffff8211171561189757611896611840565b5b80604052505050565b60006118aa611822565b90506118b6828261186f565b919050565b600067ffffffffffffffff8211156118d6576118d5611840565b5b6118df8261169f565b9050602081019050919050565b82818337600083830152505050565b600061190e611909846118bb565b6118a0565b90508281526020810184848401111561192a5761192961183b565b5b6119358482856118ec565b509392505050565b600082601f83011261195257611951611836565b5b81356119628482602086016118fb565b91505092915050565b61197481611637565b811461197f57600080fd5b50565b6000813590506119918161196b565b92915050565b6000806000606084860312156119b0576119af61182c565b5b600084013567ffffffffffffffff8111156119ce576119cd611831565b5b6119da8682870161193d565b935050602084013567ffffffffffffffff8111156119fb576119fa611831565b5b611a078682870161193d565b9250506040611a1886828701611982565b9150509250925092565b600080fd5b600080fd5b600060608284031215611a4257611a41611a22565b5b611a4c60606118a0565b90506000611a5c84828501611982565b600083015250602082013567ffffffffffffffff811115611a8057611a7f611a27565b5b611a8c8482850161193d565b602083015250604082013567ffffffffffffffff811115611ab057611aaf611a27565b5b611abc8482850161193d565b60408301525092915050565b600060208284031215611ade57611add61182c565b5b600082013567ffffffffffffffff811115611afc57611afb611831565b5b611b0884828501611a2c565b91505092915050565b600073ffffffffffffffffffffffffffffffffffffffff82169050919050565b6000611b3c82611b11565b9050919050565b611b4c81611b31565b82525050565b6000602082019050611b676000830184611b43565b92915050565b7f4e487b7100000000000000000000000000000000000000000000000000000000600052602160045260246000fd5b60038110611bad57611bac611b6d565b5b50565b6000819050611bbe82611b9c565b919050565b6000611bce82611bb0565b9050919050565b611bde81611bc3565b82525050565b6000602082019050611bf96000830184611bd5565b92915050565b611c0881611b31565b8114611c1357600080fd5b50565b600081359050611c2581611bff565b92915050565b600060208284031215611c4157611c4061182c565b5b6000611c4f84828501611c16565b91505092915050565b60008115159050919050565b611c6d81611c58565b82525050565b6000602082019050611c886000830184611c64565b92915050565b600060208284031215611ca457611ca361182c565b5b6000611cb284828501611982565b91505092915050565b6000606083016000830151611cd36000860182611641565b5060208301518482036020860152611ceb82826116b0565b91505060408301518482036040860152611d0582826116b0565b9150508091505092915050565b60006020820190508181036000830152611d2c8184611cbb565b905092915050565b611d3d81611c58565b82525050565b600060c083016000830151611d5b6000860182611641565b5060208301518482036020860152611d7382826116b0565b91505060408301518482036040860152611d8d82826116b0565b9150506060830151611da26060860182611641565b506080830151611db56080860182611641565b5060a0830151611dc860a0860182611d34565b508091505092915050565b60006020820190508181036000830152611ded8184611d43565b905092915050565b600067ffffffffffffffff821115611e1057611e0f611840565b5b602082029050602081019050919050565b600080fd5b6000611e39611e3484611df5565b6118a0565b90508083825260208201905060208402830185811115611e5c57611e5b611e21565b5b835b81811015611e855780611e718882611982565b845260208401935050602081019050611e5e565b5050509392505050565b600082601f830112611ea457611ea3611836565b5b8135611eb4848260208601611e26565b91505092915050565b60008060008060808587031215611ed757611ed661182c565b5b6000611ee587828801611c16565b9450506020611ef687828801611982565b9350506040611f0787828801611982565b925050606085013567ffffffffffffffff811115611f2857611f27611831565b5b611f3487828801611e8f565b91505092959194509250565b611f4981611c58565b8114611f5457600080fd5b50565b600081359050611f6681611f40565b92915050565b600060c08284031215611f8257611f81611a22565b5b611f8c60c06118a0565b90506000611f9c84828501611982565b600083015250602082013567ffffffffffffffff811115611fc057611fbf611a27565b5b611fcc8482850161193d565b602083015250604082013567ffffffffffffffff811115611ff057611fef611a27565b5b611ffc8482850161193d565b604083015250606061201084828501611982565b606083015250608061202484828501611982565b60808301525060a061203884828501611f57565b60a08301525092915050565b60006020828403121561205a5761205961182c565b5b600082013567ffffffffffffffff81111561207857612077611831565b5b61208484828501611f6c565b91505092915050565b600081519050919050565b600082825260208201905092915050565b6000819050602082019050919050565b60006120c58383611641565b60208301905092915050565b6000602082019050919050565b60006120e98261208d565b6120f38185612098565b93506120fe836120a9565b8060005b8381101561212f57815161211688826120b9565b9750612121836120d1565b925050600181019050612102565b5085935050505092915050565b6000602082019050818103600083015261215681846120de565b905092915050565b7f4e487b7100000000000000000000000000000000000000000000000000000000600052602260045260246000fd5b600060028204905060018216806121a557607f821691505b602082108114156121b9576121b861215e565b5b50919050565b600082825260208201905092915050565b7f4d7573742062652063616c6c65642066726f6d2074686520656c656374696f6e60008201527f206f7267616e697a657220636f6e747261637400000000000000000000000000602082015250565b600061222c6033836121bf565b9150612237826121d0565b604082019050919050565b6000602082019050818103600083015261225b8161221f565b9050919050565b7f43616e6e6f74206164642063616e6469646174657320616674657220656c656360008201527f74696f6e20686173207374617274656400000000000000000000000000000000602082015250565b60006122be6030836121bf565b91506122c982612262565b604082019050919050565b600060208201905081810360008301526122ed816122b1565b9050919050565b7f4e487b7100000000000000000000000000000000000000000000000000000000600052603260045260246000fd5b7f4e487b7100000000000000000000000000000000000000000000000000000000600052601160045260246000fd5b600061235d82611637565b915061236883611637565b9250827fffffffffffffffffffffffffffffffffffffffffffffffffffffffffffffffff0382111561239d5761239c612323565b5b828201905092915050565b60006123b382611637565b91507fffffffffffffffffffffffffffffffffffffffffffffffffffffffffffffffff8214156123e6576123e5612323565b5b600182019050919050565b60006060820190506124066000830186611b43565b6124136020830185611b43565b81810360408301526124258184611cbb565b9050949350505050565b7f43616c6c6572206d7573742062652074686520656c656374696f6e206f72676160008201527f6e697a6572000000000000000000000000000000000000000000000000000000602082015250565b600061248b6025836121bf565b91506124968261242f565b604082019050919050565b600060208201905081810360008301526124ba8161247e565b9050919050565b6000815190506124d081611f40565b92915050565b6000602082840312156124ec576124eb61182c565b5b60006124fa848285016124c1565b91505092915050565b7f456c656374696f6e206e6565647320746f2062652061637469766520746f207660008201527f6f74650000000000000000000000000000000000000000000000000000000000602082015250565b600061255f6023836121bf565b915061256a82612503565b604082019050919050565b6000602082019050818103600083015261258e81612552565b9050919050565b60006080820190506125aa6000830187611b43565b6125b760208301866117f8565b6125c460408301856117f8565b81810360608301526125d681846120de565b905095945050505050565b60008160001c9050919050565b6000819050919050565b600061260b612606836125e1565b6125ee565b9050919050565b60008190508160005260206000209050919050565b600081546126348161218d565b61263e818661165b565b94506001821660008114612659576001811461266b5761269e565b60ff198316865260208601935061269e565b61267485612612565b60005b8381101561269657815481890152600182019150602081019050612677565b808801955050505b50505092915050565b60006060830160008084015490506126be816125f8565b6126cb6000870182611641565b506001840185830360208701526126e28382612627565b9250506002840185830360408701526126fb8382612627565b925050819250505092915050565b600060608201905061271e6000830186611b43565b818103602083015261273081856126a7565b905061273f60408301846117f8565b949350505050565b7f43616e6e6f742075706461746520656c656374696f6e20696e666f206166746560008201527f7220656c656374696f6e20686173207374617274656400000000000000000000602082015250565b60006127a36036836121bf565b91506127ae82612747565b604082019050919050565b600060208201905081810360008301526127d281612796565b9050919050565b7f526573756c747320617265206465636c61726564206f6e6c792061667465722060008201527f74686520656c656374696f6e20656e6473000000000000000000000000000000602082015250565b60006128356031836121bf565b9150612840826127d9565b604082019050919050565b6000602082019050818103600083015261286481612828565b9050919050565b6000819050919050565b600061289061288b61288684611b11565b61286b565b611b11565b9050919050565b60006128a282612875565b9050919050565b60006128b482612897565b9050919050565b6128c4816128a9565b82525050565b60006040820190506128df60008301856128bb565b6128ec60208301846117f8565b9392505050565b6000815190506129028161196b565b92915050565b600061291b61291684611df5565b6118a0565b9050808382526020820190506020840283018581111561293e5761293d611e21565b5b835b81811015612967578061295388826128f3565b845260208401935050602081019050612940565b5050509392505050565b600082601f83011261298657612985611836565b5b8151612996848260208601612908565b91505092915050565b6000602082840312156129b5576129b461182c565b5b600082015167ffffffffffffffff8111156129d3576129d2611831565b5b6129df84828501612971565b91505092915050565b600081549050919050565b60008190508160005260206000209050919050565b6000612a1482546125f8565b9050919050565b6000600182019050919050565b6000612a33826129e8565b612a3d8185612098565b9350612a48836129f3565b8060005b83811015612a8057612a5d82612a08565b612a6788826120b9565b9750612a7283612a1b565b925050600181019050612a4c565b5085935050505092915050565b60006020820190508181036000830152612aa78184612a28565b905092915050565b7f526573756c7473206172656e2774206465636c61726564207965740000000000600082015250565b6000612ae5601b836121bf565b9150612af082612aaf565b602082019050919050565b60006020820190508181036000830152612b1481612ad8565b905091905056fea2646970667358221220f4ebb9cb8a9280f9126d8f1e338b05c7464b3e3e5fafaf5e7827b4fdda2e348b64736f6c634300080a0033",
  "linkReferences": {},
  "deployedLinkReferences": {}
}