{
  "_format": "hh-sol-artifact-1",
  "contractName": "GeneralBallot",
  "sourceName": "contracts/facets/votingApp/ballot/GeneralBallot.sol",
  "abi": [
    {
      "inputs": [
        {
          "internalType": "uint256",
          "name": "_candidate",
          "type": "uint256"
        }
      ],
      "name": "addCandidate",
      "outputs": [],
      "stateMutability": "nonpayable",
      "type": "function"
    },
    {
      "inputs": [],
      "name": "getCandidates",
      "outputs": [
        {
          "internalType": "uint256[]",
          "name": "",
          "type": "uint256[]"
        }
      ],
      "stateMutability": "view",
      "type": "function"
    },
    {
      "inputs": [],
      "name": "getVoteArr",
      "outputs": [
        {
          "internalType": "uint256[][]",
          "name": "",
          "type": "uint256[][]"
        }
      ],
      "stateMutability": "nonpayable",
      "type": "function"
    },
    {
      "inputs": [
        {
          "internalType": "uint256",
          "name": "_candidate",
          "type": "uint256"
        },
        {
          "internalType": "uint256",
          "name": "_weight",
          "type": "uint256"
        }
      ],
      "name": "getVoteCount",
      "outputs": [
        {
          "internalType": "uint256",
          "name": "",
          "type": "uint256"
        }
      ],
      "stateMutability": "view",
      "type": "function"
    },
    {
      "inputs": [
        {
          "internalType": "address",
          "name": "_voter",
          "type": "address"
        }
      ],
      "name": "getVoteStatus",
      "outputs": [
        {
          "internalType": "bool",
          "name": "",
          "type": "bool"
        }
      ],
      "stateMutability": "view",
      "type": "function"
    },
    {
      "inputs": [
        {
          "internalType": "address",
          "name": "_voter",
          "type": "address"
        },
        {
          "internalType": "uint256",
          "name": "_candidate",
          "type": "uint256"
        },
        {
          "internalType": "uint256",
          "name": "_weight",
          "type": "uint256"
        },
        {
          "internalType": "uint256[]",
          "name": "voteArr",
          "type": "uint256[]"
        }
      ],
      "name": "vote",
      "outputs": [],
      "stateMutability": "nonpayable",
      "type": "function"
    },
    {
      "inputs": [
        {
          "internalType": "uint256",
          "name": "",
          "type": "uint256"
        }
      ],
      "name": "votes",
      "outputs": [
        {
          "internalType": "uint256",
          "name": "",
          "type": "uint256"
        }
      ],
      "stateMutability": "view",
      "type": "function"
    }
  ],
  "bytecode": "0x608060405234801561001057600080fd5b5061099c806100206000396000f3fe608060405234801561001057600080fd5b506004361061007d5760003560e01c8063a1818ac41161005b578063a1818ac414610100578063afa524081461011c578063de2e19a01461013a578063e844d0971461016a5761007d565b806306a49fce14610082578063521b0dcc146100a05780635df81330146100d0575b600080fd5b61008a610186565b60405161009791906103f8565b60405180910390f35b6100ba60048036038101906100b5919061048c565b6101de565b6040516100c791906104d4565b60405180910390f35b6100ea60048036038101906100e5919061051b565b610234565b6040516100f79190610557565b60405180910390f35b61011a600480360381019061011591906106cb565b61024c565b005b6101246102d8565b604051610131919061087f565b60405180910390f35b610154600480360381019061014f91906108a1565b6102e2565b6040516101619190610557565b60405180910390f35b610184600480360381019061017f919061051b565b610304565b005b606060008054806020026020016040519081016040528092919081815260200182805480156101d457602002820191906000526020600020905b8154815260200190600101908083116101c0575b5050505050905090565b6000600160008373ffffffffffffffffffffffffffffffffffffffff1673ffffffffffffffffffffffffffffffffffffffff16815260200190815260200160002060009054906101000a900460ff169050919050565b60026020528060005260406000206000915090505481565b6001915060016002600085815260200190815260200160002060008282546102749190610910565b9250508190555060018060008673ffffffffffffffffffffffffffffffffffffffff1673ffffffffffffffffffffffffffffffffffffffff16815260200190815260200160002060006101000a81548160ff02191690831515021790555050505050565b6060808091505090565b6000600191506002600084815260200190815260200160002054905092915050565b600081908060018154018082558091505060019003906000526020600020016000909190919091505550565b600081519050919050565b600082825260208201905092915050565b6000819050602082019050919050565b6000819050919050565b61036f8161035c565b82525050565b60006103818383610366565b60208301905092915050565b6000602082019050919050565b60006103a582610330565b6103af818561033b565b93506103ba8361034c565b8060005b838110156103eb5781516103d28882610375565b97506103dd8361038d565b9250506001810190506103be565b5085935050505092915050565b60006020820190508181036000830152610412818461039a565b905092915050565b6000604051905090565b600080fd5b600080fd5b600073ffffffffffffffffffffffffffffffffffffffff82169050919050565b60006104598261042e565b9050919050565b6104698161044e565b811461047457600080fd5b50565b60008135905061048681610460565b92915050565b6000602082840312156104a2576104a1610424565b5b60006104b084828501610477565b91505092915050565b60008115159050919050565b6104ce816104b9565b82525050565b60006020820190506104e960008301846104c5565b92915050565b6104f88161035c565b811461050357600080fd5b50565b600081359050610515816104ef565b92915050565b60006020828403121561053157610530610424565b5b600061053f84828501610506565b91505092915050565b6105518161035c565b82525050565b600060208201905061056c6000830184610548565b92915050565b600080fd5b6000601f19601f8301169050919050565b7f4e487b7100000000000000000000000000000000000000000000000000000000600052604160045260246000fd5b6105c082610577565b810181811067ffffffffffffffff821117156105df576105de610588565b5b80604052505050565b60006105f261041a565b90506105fe82826105b7565b919050565b600067ffffffffffffffff82111561061e5761061d610588565b5b602082029050602081019050919050565b600080fd5b600061064761064284610603565b6105e8565b9050808382526020820190506020840283018581111561066a5761066961062f565b5b835b81811015610693578061067f8882610506565b84526020840193505060208101905061066c565b5050509392505050565b600082601f8301126106b2576106b1610572565b5b81356106c2848260208601610634565b91505092915050565b600080600080608085870312156106e5576106e4610424565b5b60006106f387828801610477565b945050602061070487828801610506565b935050604061071587828801610506565b925050606085013567ffffffffffffffff81111561073657610735610429565b5b6107428782880161069d565b91505092959194509250565b600081519050919050565b600082825260208201905092915050565b6000819050602082019050919050565b600082825260208201905092915050565b600061079682610330565b6107a0818561077a565b93506107ab8361034c565b8060005b838110156107dc5781516107c38882610375565b97506107ce8361038d565b9250506001810190506107af565b5085935050505092915050565b60006107f5838361078b565b905092915050565b6000602082019050919050565b60006108158261074e565b61081f8185610759565b9350836020820285016108318561076a565b8060005b8581101561086d578484038952815161084e85826107e9565b9450610859836107fd565b925060208a01995050600181019050610835565b50829750879550505050505092915050565b60006020820190508181036000830152610899818461080a565b905092915050565b600080604083850312156108b8576108b7610424565b5b60006108c685828601610506565b92505060206108d785828601610506565b9150509250929050565b7f4e487b7100000000000000000000000000000000000000000000000000000000600052601160045260246000fd5b600061091b8261035c565b91506109268361035c565b9250827fffffffffffffffffffffffffffffffffffffffffffffffffffffffffffffffff0382111561095b5761095a6108e1565b5b82820190509291505056fea264697066735822122031b862c4a6decc3d3c552b05713dbabb48458b93b0082777e18cff6b23b9d2d164736f6c634300080a0033",
  "linkReferences": {},
  "deployedLinkReferences": {}
}