{
  "_format": "hh-sol-artifact-1",
  "contractName": "ElectionStorage",
  "sourceName": "contracts/facets/votingApp/ElectionStorage.sol",
  "abi": [
    {
      "inputs": [
        {
          "internalType": "address",
          "name": "election",
          "type": "address"
        },
        {
          "internalType": "address",
          "name": "_organizer",
          "type": "address"
        }
      ],
      "name": "addElection",
      "outputs": [],
      "stateMutability": "nonpayable",
      "type": "function"
    },
    {
      "inputs": [
        {
          "internalType": "address",
          "name": "_addOrganizer",
          "type": "address"
        },
        {
          "internalType": "address",
          "name": "_election",
          "type": "address"
        }
      ],
      "name": "addOrganizerToInviteBasedElection",
      "outputs": [],
      "stateMutability": "nonpayable",
      "type": "function"
    },
    {
      "inputs": [
        {
          "internalType": "address",
          "name": "_election",
          "type": "address"
        }
      ],
      "name": "deleteElection",
      "outputs": [],
      "stateMutability": "nonpayable",
      "type": "function"
    },
    {
      "inputs": [],
      "name": "getElectionCount",
      "outputs": [
        {
          "internalType": "uint256",
          "name": "",
          "type": "uint256"
        }
      ],
      "stateMutability": "view",
      "type": "function"
    },
    {
      "inputs": [
        {
          "internalType": "address",
          "name": "_election",
          "type": "address"
        }
      ],
      "name": "getElectionOwner",
      "outputs": [
        {
          "internalType": "address",
          "name": "",
          "type": "address"
        }
      ],
      "stateMutability": "view",
      "type": "function"
    },
    {
      "inputs": [
        {
          "internalType": "address",
          "name": "_organizer",
          "type": "address"
        }
      ],
      "name": "getInviteBasedElections",
      "outputs": [
        {
          "internalType": "address[]",
          "name": "",
          "type": "address[]"
        }
      ],
      "stateMutability": "view",
      "type": "function"
    },
    {
      "inputs": [],
      "name": "getOpenBasedElections",
      "outputs": [
        {
          "internalType": "address[]",
          "name": "",
          "type": "address[]"
        }
      ],
      "stateMutability": "view",
      "type": "function"
    },
    {
      "inputs": [
        {
          "internalType": "address[]",
          "name": "_elections",
          "type": "address[]"
        },
        {
          "internalType": "address",
          "name": "_election",
          "type": "address"
        }
      ],
      "name": "removeElection",
      "outputs": [
        {
          "internalType": "address[]",
          "name": "",
          "type": "address[]"
        }
      ],
      "stateMutability": "pure",
      "type": "function"
    }
  ],
  "bytecode": "0x608060405234801561001057600080fd5b5061157e806100206000396000f3fe608060405234801561001057600080fd5b50600436106100885760003560e01c80637d1659fa1161005b5780637d1659fa1461012957806387b4e8d314610145578063ca99067a14610161578063e5999c2b1461017d57610088565b8063213785a01461008d57806335b50828146100ab578063761db9fb146100db5780637a309b05146100f9575b600080fd5b6100956101ad565b6040516100a29190610c34565b60405180910390f35b6100c560048036038101906100c09190610cc1565b6101b7565b6040516100d29190610cfd565b60405180910390f35b6100e3610220565b6040516100f09190610dd6565b60405180910390f35b610113600480360381019061010e9190610f51565b6102ae565b6040516101209190610dd6565b60405180910390f35b610143600480360381019061013e9190610fad565b6102b6565b005b61015f600480360381019061015a9190610fad565b6104bf565b005b61017b60048036038101906101769190610cc1565b610786565b005b61019760048036038101906101929190610cc1565b610aa7565b6040516101a49190610dd6565b60405180910390f35b6000600554905090565b6000600460008373ffffffffffffffffffffffffffffffffffffffff1673ffffffffffffffffffffffffffffffffffffffff16815260200190815260200160002060009054906101000a900473ffffffffffffffffffffffffffffffffffffffff169050919050565b606060018054806020026020016040519081016040528092919081815260200182805480156102a457602002820191906000526020600020905b8160009054906101000a900473ffffffffffffffffffffffffffffffffffffffff1673ffffffffffffffffffffffffffffffffffffffff168152602001906001019080831161025a575b5050505050905090565b606092915050565b60001515600360008373ffffffffffffffffffffffffffffffffffffffff1673ffffffffffffffffffffffffffffffffffffffff16815260200190815260200160002060008473ffffffffffffffffffffffffffffffffffffffff1673ffffffffffffffffffffffffffffffffffffffff16815260200190815260200160002060009054906101000a900460ff16151514610386576040517f08c379a000000000000000000000000000000000000000000000000000000000815260040161037d90611070565b60405180910390fd5b6001600360008373ffffffffffffffffffffffffffffffffffffffff1673ffffffffffffffffffffffffffffffffffffffff16815260200190815260200160002060008473ffffffffffffffffffffffffffffffffffffffff1673ffffffffffffffffffffffffffffffffffffffff16815260200190815260200160002060006101000a81548160ff021916908315150217905550600260008373ffffffffffffffffffffffffffffffffffffffff1673ffffffffffffffffffffffffffffffffffffffff168152602001908152602001600020819080600181540180825580915050600190039060005260206000200160009091909190916101000a81548173ffffffffffffffffffffffffffffffffffffffff021916908373ffffffffffffffffffffffffffffffffffffffff1602179055505050565b6000829050600560008154809291906104d7906110bf565b919050555060008173ffffffffffffffffffffffffffffffffffffffff166386852dca6040518163ffffffff1660e01b8152600401600060405180830381865afa158015610529573d6000803e3d6000fd5b505050506040513d6000823e3d601f19601f82011682018060405250810190610552919061131d565b60a00151905060011515811515036105cc576001829080600181540180825580915050600190039060005260206000200160009091909190916101000a81548173ffffffffffffffffffffffffffffffffffffffff021916908373ffffffffffffffffffffffffffffffffffffffff160217905550610702565b600260008473ffffffffffffffffffffffffffffffffffffffff1673ffffffffffffffffffffffffffffffffffffffff168152602001908152602001600020829080600181540180825580915050600190039060005260206000200160009091909190916101000a81548173ffffffffffffffffffffffffffffffffffffffff021916908373ffffffffffffffffffffffffffffffffffffffff1602179055506001600360008673ffffffffffffffffffffffffffffffffffffffff1673ffffffffffffffffffffffffffffffffffffffff16815260200190815260200160002060008573ffffffffffffffffffffffffffffffffffffffff1673ffffffffffffffffffffffffffffffffffffffff16815260200190815260200160002060006101000a81548160ff0219169083151502179055505b82600460008673ffffffffffffffffffffffffffffffffffffffff1673ffffffffffffffffffffffffffffffffffffffff16815260200190815260200160002060006101000a81548173ffffffffffffffffffffffffffffffffffffffff021916908373ffffffffffffffffffffffffffffffffffffffff16021790555050505050565b60008190506001600281111561079f5761079e611366565b5b8173ffffffffffffffffffffffffffffffffffffffff16634e69d5606040518163ffffffff1660e01b8152600401602060405180830381865afa1580156107ea573d6000803e3d6000fd5b505050506040513d601f19601f8201168201806040525081019061080e91906113ba565b60028111156108205761081f611366565b5b14610860576040517f08c379a000000000000000000000000000000000000000000000000000000000815260040161085790611459565b60405180910390fd5b600060018054806020026020016040519081016040528092919081815260200182805480156108e457602002820191906000526020600020905b8160009054906101000a900473ffffffffffffffffffffffffffffffffffffffff1673ffffffffffffffffffffffffffffffffffffffff168152602001906001019080831161089a575b5050505050905060008151905060006001826109009190611479565b67ffffffffffffffff81111561091957610918610e0e565b5b6040519080825280602002602001820160405280156109475781602001602082028036833780820191505090505b50905060008060008091505b84821015610a46578773ffffffffffffffffffffffffffffffffffffffff16868381518110610985576109846114ad565b5b602002602001015173ffffffffffffffffffffffffffffffffffffffff1614610a23578582815181106109bb576109ba6114ad565b5b60200260200101518484815181106109d6576109d56114ad565b5b602002602001019073ffffffffffffffffffffffffffffffffffffffff16908173ffffffffffffffffffffffffffffffffffffffff16815250508280610a1b906110bf565b935050610a39565b6000151581151503610a385760009750600190505b5b8180600101925050610953565b80610a86576040517f08c379a0000000000000000000000000000000000000000000000000000000008152600401610a7d90611528565b60405180910390fd5b8360019080519060200190610a9c929190610b74565b505050505050505050565b6060600260008373ffffffffffffffffffffffffffffffffffffffff1673ffffffffffffffffffffffffffffffffffffffff168152602001908152602001600020805480602002602001604051908101604052809291908181526020018280548015610b6857602002820191906000526020600020905b8160009054906101000a900473ffffffffffffffffffffffffffffffffffffffff1673ffffffffffffffffffffffffffffffffffffffff1681526020019060010190808311610b1e575b50505050509050919050565b828054828255906000526020600020908101928215610bed579160200282015b82811115610bec5782518260006101000a81548173ffffffffffffffffffffffffffffffffffffffff021916908373ffffffffffffffffffffffffffffffffffffffff16021790555091602001919060010190610b94565b5b509050610bfa9190610bfe565b5090565b5b80821115610c17576000816000905550600101610bff565b5090565b6000819050919050565b610c2e81610c1b565b82525050565b6000602082019050610c496000830184610c25565b92915050565b6000604051905090565b600080fd5b600080fd5b600073ffffffffffffffffffffffffffffffffffffffff82169050919050565b6000610c8e82610c63565b9050919050565b610c9e81610c83565b8114610ca957600080fd5b50565b600081359050610cbb81610c95565b92915050565b600060208284031215610cd757610cd6610c59565b5b6000610ce584828501610cac565b91505092915050565b610cf781610c83565b82525050565b6000602082019050610d126000830184610cee565b92915050565b600081519050919050565b600082825260208201905092915050565b6000819050602082019050919050565b610d4d81610c83565b82525050565b6000610d5f8383610d44565b60208301905092915050565b6000602082019050919050565b6000610d8382610d18565b610d8d8185610d23565b9350610d9883610d34565b8060005b83811015610dc9578151610db08882610d53565b9750610dbb83610d6b565b925050600181019050610d9c565b5085935050505092915050565b60006020820190508181036000830152610df08184610d78565b905092915050565b600080fd5b6000601f19601f8301169050919050565b7f4e487b7100000000000000000000000000000000000000000000000000000000600052604160045260246000fd5b610e4682610dfd565b810181811067ffffffffffffffff82111715610e6557610e64610e0e565b5b80604052505050565b6000610e78610c4f565b9050610e848282610e3d565b919050565b600067ffffffffffffffff821115610ea457610ea3610e0e565b5b602082029050602081019050919050565b600080fd5b6000610ecd610ec884610e89565b610e6e565b90508083825260208201905060208402830185811115610ef057610eef610eb5565b5b835b81811015610f195780610f058882610cac565b845260208401935050602081019050610ef2565b5050509392505050565b600082601f830112610f3857610f37610df8565b5b8135610f48848260208601610eba565b91505092915050565b60008060408385031215610f6857610f67610c59565b5b600083013567ffffffffffffffff811115610f8657610f85610c5e565b5b610f9285828601610f23565b9250506020610fa385828601610cac565b9150509250929050565b60008060408385031215610fc457610fc3610c59565b5b6000610fd285828601610cac565b9250506020610fe385828601610cac565b9150509250929050565b600082825260208201905092915050565b7f4f7267616e697a657220616c726561647920616464656420746f20746869732060008201527f656c656374696f6e000000000000000000000000000000000000000000000000602082015250565b600061105a602883610fed565b915061106582610ffe565b604082019050919050565b600060208201905081810360008301526110898161104d565b9050919050565b7f4e487b7100000000000000000000000000000000000000000000000000000000600052601160045260246000fd5b60006110ca82610c1b565b91507fffffffffffffffffffffffffffffffffffffffffffffffffffffffffffffffff82036110fc576110fb611090565b5b600182019050919050565b600080fd5b600080fd5b61111a81610c1b565b811461112557600080fd5b50565b60008151905061113781611111565b92915050565b600080fd5b600067ffffffffffffffff82111561115d5761115c610e0e565b5b61116682610dfd565b9050602081019050919050565b60005b83811015611191578082015181840152602081019050611176565b60008484015250505050565b60006111b06111ab84611142565b610e6e565b9050828152602081018484840111156111cc576111cb61113d565b5b6111d7848285611173565b509392505050565b600082601f8301126111f4576111f3610df8565b5b815161120484826020860161119d565b91505092915050565b60008115159050919050565b6112228161120d565b811461122d57600080fd5b50565b60008151905061123f81611219565b92915050565b600060c0828403121561125b5761125a611107565b5b61126560c0610e6e565b9050600061127584828501611128565b600083015250602082015167ffffffffffffffff8111156112995761129861110c565b5b6112a5848285016111df565b602083015250604082015167ffffffffffffffff8111156112c9576112c861110c565b5b6112d5848285016111df565b60408301525060606112e984828501611128565b60608301525060806112fd84828501611128565b60808301525060a061131184828501611230565b60a08301525092915050565b60006020828403121561133357611332610c59565b5b600082015167ffffffffffffffff81111561135157611350610c5e565b5b61135d84828501611245565b91505092915050565b7f4e487b7100000000000000000000000000000000000000000000000000000000600052602160045260246000fd5b600381106113a257600080fd5b50565b6000815190506113b481611395565b92915050565b6000602082840312156113d0576113cf610c59565b5b60006113de848285016113a5565b91505092915050565b7f43616e6e6f742064656c65746520656c656374696f6e20616674657220656c6560008201527f6374696f6e206861732073746172746564000000000000000000000000000000602082015250565b6000611443603183610fed565b915061144e826113e7565b604082019050919050565b6000602082019050818103600083015261147281611436565b9050919050565b600061148482610c1b565b915061148f83610c1b565b92508282039050818111156114a7576114a6611090565b5b92915050565b7f4e487b7100000000000000000000000000000000000000000000000000000000600052603260045260246000fd5b7f456c656374696f6e206e6f7420666f756e640000000000000000000000000000600082015250565b6000611512601283610fed565b915061151d826114dc565b602082019050919050565b6000602082019050818103600083015261154181611505565b905091905056fea2646970667358221220a27d1d825a98bd84de2ae67ba018e91ce58aa8112c59f70c42bd7bbd8601f8b664736f6c63430008170033",
  "linkReferences": {},
  "deployedLinkReferences": {}
}