{
  "_format": "hh-sol-artifact-1",
  "contractName": "GetResultCalculator",
  "sourceName": "contracts/facets/GetResultCalculator.sol",
  "abi": [
    {
      "inputs": [
        {
          "internalType": "uint256",
          "name": "_ballotType",
          "type": "uint256"
        }
      ],
      "name": "getNewResultCalculator",
      "outputs": [],
      "stateMutability": "nonpayable",
      "type": "function"
    }
  ],
  "bytecode": "0x608060405234801561001057600080fd5b5061539e806100206000396000f3fe608060405234801561001057600080fd5b506004361061002b5760003560e01c8063a9dda9c714610030575b600080fd5b61004a600480360381019061004591906104a1565b61004c565b005b60018114156100c25760405161006190610418565b604051809103906000f08015801561007d573d6000803e3d6000fd5b506000806101000a81548173ffffffffffffffffffffffffffffffffffffffff021916908373ffffffffffffffffffffffffffffffffffffffff16021790555061037e565b6002811415610138576040516100d790610425565b604051809103906000f0801580156100f3573d6000803e3d6000fd5b506000806101000a81548173ffffffffffffffffffffffffffffffffffffffff021916908373ffffffffffffffffffffffffffffffffffffffff16021790555061037d565b60048114156101ae5760405161014d90610432565b604051809103906000f080158015610169573d6000803e3d6000fd5b506000806101000a81548173ffffffffffffffffffffffffffffffffffffffff021916908373ffffffffffffffffffffffffffffffffffffffff16021790555061037c565b6005811415610224576040516101c39061043f565b604051809103906000f0801580156101df573d6000803e3d6000fd5b506000806101000a81548173ffffffffffffffffffffffffffffffffffffffff021916908373ffffffffffffffffffffffffffffffffffffffff16021790555061037b565b600481141561029a576040516102399061044c565b604051809103906000f080158015610255573d6000803e3d6000fd5b506000806101000a81548173ffffffffffffffffffffffffffffffffffffffff021916908373ffffffffffffffffffffffffffffffffffffffff16021790555061037a565b6004811415610310576040516102af90610459565b604051809103906000f0801580156102cb573d6000803e3d6000fd5b506000806101000a81548173ffffffffffffffffffffffffffffffffffffffff021916908373ffffffffffffffffffffffffffffffffffffffff160217905550610379565b60405161031c90610418565b604051809103906000f080158015610338573d6000803e3d6000fd5b506000806101000a81548173ffffffffffffffffffffffffffffffffffffffff021916908373ffffffffffffffffffffffffffffffffffffffff1602179055505b5b5b5b5b5b60008054906101000a900473ffffffffffffffffffffffffffffffffffffffff166103a76103eb565b60010160006101000a81548173ffffffffffffffffffffffffffffffffffffffff021916908373ffffffffffffffffffffffffffffffffffffffff16021790555050565b6000807f5b43f313088137496832405d64cc708765db93c8144d82f7a7f806ac22d5603b90508091505090565b610a20806104cf83390190565b610a8b80610eef83390190565b610d2e8061197a83390190565b610fcb806126a883390190565b61113d8061367383390190565b610bb9806147b083390190565b600080fd5b6000819050919050565b61047e8161046b565b811461048957600080fd5b50565b60008135905061049b81610475565b92915050565b6000602082840312156104b7576104b6610466565b5b60006104c58482850161048c565b9150509291505056fe608060405234801561001057600080fd5b50610a00806100206000396000f3fe608060405234801561001057600080fd5b506004361061002b5760003560e01c8063c8344a2014610030575b600080fd5b61004a60048036038101906100459190610542565b610060565b6040516100579190610640565b60405180910390f35b6060600067ffffffffffffffff81111561007d5761007c610662565b5b6040519080825280602002602001820160405280156100ab5781602001602082028036833780820191505090505b50600090805190602001906100c192919061041e565b5060008373ffffffffffffffffffffffffffffffffffffffff166306a49fce6040518163ffffffff1660e01b8152600401600060405180830381865afa15801561010f573d6000803e3d6000fd5b505050506040513d6000823e3d601f19601f8201168201806040525081019061013891906107d0565b905060008151905060008060005b838110156102ba578773ffffffffffffffffffffffffffffffffffffffff1663de2e19a086838151811061017d5761017c610819565b5b602002602001015160016040518363ffffffff1660e01b81526004016101a492919061089c565b602060405180830381865afa1580156101c1573d6000803e3d6000fd5b505050506040513d601f19601f820116820180604052508101906101e591906108c5565b9150828211156101f3578192505b6002876102009190610950565b8311156102a757600085828151811061021c5761021b610819565b5b60200260200101519080600181540180825580915050600190039060005260206000200160009091909190915055600080548060200260200160405190810160405280929190818152602001828054801561029657602002820191906000526020600020905b815481526020019060010190808311610282575b505050505095505050505050610418565b80806102b290610981565b915050610146565b600090505b838110156103bf578773ffffffffffffffffffffffffffffffffffffffff1663de2e19a08683815181106102f6576102f5610819565b5b602002602001015160016040518363ffffffff1660e01b815260040161031d92919061089c565b602060405180830381865afa15801561033a573d6000803e3d6000fd5b505050506040513d601f19601f8201168201806040525081019061035e91906108c5565b9150828214156103ac57600085828151811061037d5761037c610819565b5b602002602001015190806001815401808255809150506001900390600052602060002001600090919091909150555b80806103b790610981565b9150506102bf565b600080548060200260200160405190810160405280929190818152602001828054801561040b57602002820191906000526020600020905b8154815260200190600101908083116103f7575b5050505050955050505050505b92915050565b82805482825590600052602060002090810192821561045a579160200282015b8281111561045957825182559160200191906001019061043e565b5b509050610467919061046b565b5090565b5b8082111561048457600081600090555060010161046c565b5090565b6000604051905090565b600080fd5b600080fd5b600073ffffffffffffffffffffffffffffffffffffffff82169050919050565b60006104c78261049c565b9050919050565b60006104d9826104bc565b9050919050565b6104e9816104ce565b81146104f457600080fd5b50565b600081359050610506816104e0565b92915050565b6000819050919050565b61051f8161050c565b811461052a57600080fd5b50565b60008135905061053c81610516565b92915050565b6000806040838503121561055957610558610492565b5b6000610567858286016104f7565b92505060206105788582860161052d565b9150509250929050565b600081519050919050565b600082825260208201905092915050565b6000819050602082019050919050565b6105b78161050c565b82525050565b60006105c983836105ae565b60208301905092915050565b6000602082019050919050565b60006105ed82610582565b6105f7818561058d565b93506106028361059e565b8060005b8381101561063357815161061a88826105bd565b9750610625836105d5565b925050600181019050610606565b5085935050505092915050565b6000602082019050818103600083015261065a81846105e2565b905092915050565b7f4e487b7100000000000000000000000000000000000000000000000000000000600052604160045260246000fd5b600080fd5b6000601f19601f8301169050919050565b6106b082610696565b810181811067ffffffffffffffff821117156106cf576106ce610662565b5b80604052505050565b60006106e2610488565b90506106ee82826106a7565b919050565b600067ffffffffffffffff82111561070e5761070d610662565b5b602082029050602081019050919050565b600080fd5b60008151905061073381610516565b92915050565b600061074c610747846106f3565b6106d8565b9050808382526020820190506020840283018581111561076f5761076e61071f565b5b835b8181101561079857806107848882610724565b845260208401935050602081019050610771565b5050509392505050565b600082601f8301126107b7576107b6610691565b5b81516107c7848260208601610739565b91505092915050565b6000602082840312156107e6576107e5610492565b5b600082015167ffffffffffffffff81111561080457610803610497565b5b610810848285016107a2565b91505092915050565b7f4e487b7100000000000000000000000000000000000000000000000000000000600052603260045260246000fd5b6108518161050c565b82525050565b6000819050919050565b6000819050919050565b600061088661088161087c84610857565b610861565b61050c565b9050919050565b6108968161086b565b82525050565b60006040820190506108b16000830185610848565b6108be602083018461088d565b9392505050565b6000602082840312156108db576108da610492565b5b60006108e984828501610724565b91505092915050565b7f4e487b7100000000000000000000000000000000000000000000000000000000600052601260045260246000fd5b7f4e487b7100000000000000000000000000000000000000000000000000000000600052601160045260246000fd5b600061095b8261050c565b91506109668361050c565b925082610976576109756108f2565b5b828204905092915050565b600061098c8261050c565b91507fffffffffffffffffffffffffffffffffffffffffffffffffffffffffffffffff8214156109bf576109be610921565b5b60018201905091905056fea2646970667358221220fe9fcf19259934bd5d097e6d304d6b6c5827f1a169601eb4fdb0e44f5f650eef64736f6c634300080a0033608060405234801561001057600080fd5b50610a6b806100206000396000f3fe608060405234801561001057600080fd5b506004361061002b5760003560e01c8063c8344a2014610030575b600080fd5b61004a6004803603810190610045919061059c565b610060565b604051610057919061069a565b60405180910390f35b6060600067ffffffffffffffff81111561007d5761007c6106bc565b5b6040519080825280602002602001820160405280156100ab5781602001602082028036833780820191505090505b50600190805190602001906100c1929190610478565b5082600560006101000a81548173ffffffffffffffffffffffffffffffffffffffff021916908373ffffffffffffffffffffffffffffffffffffffff1602179055506002826101109190610749565b600481905550600560009054906101000a900473ffffffffffffffffffffffffffffffffffffffff1673ffffffffffffffffffffffffffffffffffffffff166306a49fce6040518163ffffffff1660e01b8152600401600060405180830381865afa158015610183573d6000803e3d6000fd5b505050506040513d6000823e3d601f19601f820116820180604052508101906101ac91906108b9565b600290805190602001906101c1929190610478565b50600280549050600381905550600080600191505b600354821015610227576101e9826102ab565b6101f16103e5565b905060045460008083815260200190815260200160002054111561021457610227565b818061021f90610902565b9250506101d6565b6001819080600181540180825580915050600190039060005260206000200160009091909190915055600180548060200260200160405190810160405280929190818152602001828054801561029c57602002820191906000526020600020905b815481526020019060010190808311610288575b50505050509250505092915050565b600080600091505b6003548210156103e057600560009054906101000a900473ffffffffffffffffffffffffffffffffffffffff1673ffffffffffffffffffffffffffffffffffffffff1663de2e19a06002848154811061030f5761030e61094b565b5b9060005260206000200154856040518363ffffffff1660e01b8152600401610338929190610989565b602060405180830381865afa158015610355573d6000803e3d6000fd5b505050506040513d601f19601f8201168201806040525081019061037991906109b2565b905082816103879190610749565b6000806002858154811061039e5761039d61094b565b5b9060005260206000200154815260200190815260200160002060008282546103c691906109df565b9250508190555081806103d890610902565b9250506102b3565b505050565b60008060008060008093505b60035484101561046e57600080600286815481106104125761041161094b565b5b906000526020600020015481526020019081526020016000205492508183111561045b578291506002848154811061044d5761044c61094b565b5b906000526020600020015490505b838061046690610902565b9450506103f1565b8094505050505090565b8280548282559060005260206000209081019282156104b4579160200282015b828111156104b3578251825591602001919060010190610498565b5b5090506104c191906104c5565b5090565b5b808211156104de5760008160009055506001016104c6565b5090565b6000604051905090565b600080fd5b600080fd5b600073ffffffffffffffffffffffffffffffffffffffff82169050919050565b6000610521826104f6565b9050919050565b600061053382610516565b9050919050565b61054381610528565b811461054e57600080fd5b50565b6000813590506105608161053a565b92915050565b6000819050919050565b61057981610566565b811461058457600080fd5b50565b60008135905061059681610570565b92915050565b600080604083850312156105b3576105b26104ec565b5b60006105c185828601610551565b92505060206105d285828601610587565b9150509250929050565b600081519050919050565b600082825260208201905092915050565b6000819050602082019050919050565b61061181610566565b82525050565b60006106238383610608565b60208301905092915050565b6000602082019050919050565b6000610647826105dc565b61065181856105e7565b935061065c836105f8565b8060005b8381101561068d5781516106748882610617565b975061067f8361062f565b925050600181019050610660565b5085935050505092915050565b600060208201905081810360008301526106b4818461063c565b905092915050565b7f4e487b7100000000000000000000000000000000000000000000000000000000600052604160045260246000fd5b7f4e487b7100000000000000000000000000000000000000000000000000000000600052601260045260246000fd5b7f4e487b7100000000000000000000000000000000000000000000000000000000600052601160045260246000fd5b600061075482610566565b915061075f83610566565b92508261076f5761076e6106eb565b5b828204905092915050565b600080fd5b6000601f19601f8301169050919050565b6107998261077f565b810181811067ffffffffffffffff821117156107b8576107b76106bc565b5b80604052505050565b60006107cb6104e2565b90506107d78282610790565b919050565b600067ffffffffffffffff8211156107f7576107f66106bc565b5b602082029050602081019050919050565b600080fd5b60008151905061081c81610570565b92915050565b6000610835610830846107dc565b6107c1565b9050808382526020820190506020840283018581111561085857610857610808565b5b835b81811015610881578061086d888261080d565b84526020840193505060208101905061085a565b5050509392505050565b600082601f8301126108a05761089f61077a565b5b81516108b0848260208601610822565b91505092915050565b6000602082840312156108cf576108ce6104ec565b5b600082015167ffffffffffffffff8111156108ed576108ec6104f1565b5b6108f98482850161088b565b91505092915050565b600061090d82610566565b91507fffffffffffffffffffffffffffffffffffffffffffffffffffffffffffffffff8214156109405761093f61071a565b5b600182019050919050565b7f4e487b7100000000000000000000000000000000000000000000000000000000600052603260045260246000fd5b61098381610566565b82525050565b600060408201905061099e600083018561097a565b6109ab602083018461097a565b9392505050565b6000602082840312156109c8576109c76104ec565b5b60006109d68482850161080d565b91505092915050565b60006109ea82610566565b91506109f583610566565b9250827fffffffffffffffffffffffffffffffffffffffffffffffffffffffffffffffff03821115610a2a57610a2961071a565b5b82820190509291505056fea26469706673582212205b9ed51349fd6e397700b175e8dbf046eb57f252e81915db737b35909a8bac4964736f6c634300080a0033608060405234801561001057600080fd5b50610d0e806100206000396000f3fe608060405234801561001057600080fd5b50600436106100415760003560e01c8063a2fb117514610046578063c5071fd314610076578063c8344a20146100a6575b600080fd5b610060600480360381019061005b919061051b565b6100d6565b60405161006d9190610557565b60405180910390f35b610090600480360381019061008b91906107ac565b6100fa565b60405161009d91906108e2565b60405180910390f35b6100c060048036038101906100bb9190610974565b610385565b6040516100cd91906108e2565b60405180910390f35b600081815481106100e657600080fd5b906000526020600020016000915090505481565b60606000825167ffffffffffffffff81111561011957610118610588565b5b6040519080825280602002602001820160405280156101475781602001602082028036833780820191505090505b50905060005b835181101561018b57600082828151811061016b5761016a6109b4565b5b6020026020010181815250506001816101849190610a12565b905061014d565b5060005b84518110156102465760005b8451811015610232578582815181106101b7576101b66109b4565b5b602002602001015181815181106101d1576101d06109b4565b5b6020026020010151600186516101e79190610a12565b6101f19190610a68565b838281518110610204576102036109b4565b5b602002602001018181516102189190610a12565b91508181525050808061022a90610a9c565b91505061019b565b50808061023e90610a9c565b91505061018f565b506000805b84518110156103295781838281518110610268576102676109b4565b5b602002602001015114156102a05760008190806001815401808255809150506001900390600052602060002001600090919091909150555b818382815181106102b4576102b36109b4565b5b60200260200101511115610316578281815181106102d5576102d46109b4565b5b602002602001015191506000806102ec9190610493565b60008190806001815401808255809150506001900390600052602060002001600090919091909150555b808061032190610a9c565b91505061024b565b50600080548060200260200160405190810160405280929190818152602001828054801561037657602002820191906000526020600020905b815481526020019060010190808311610362575b50505050509250505092915050565b606060008373ffffffffffffffffffffffffffffffffffffffff1663afa524086040518163ffffffff1660e01b81526004016000604051808303816000875af11580156103d6573d6000803e3d6000fd5b505050506040513d6000823e3d601f19601f820116820180604052508101906103ff9190610c46565b905060008473ffffffffffffffffffffffffffffffffffffffff166306a49fce6040518163ffffffff1660e01b8152600401600060405180830381865afa15801561044e573d6000803e3d6000fd5b505050506040513d6000823e3d601f19601f820116820180604052508101906104779190610c8f565b9050600061048583836100fa565b905080935050505092915050565b50805460008255906000526020600020908101906104b191906104b4565b50565b5b808211156104cd5760008160009055506001016104b5565b5090565b6000604051905090565b600080fd5b600080fd5b6000819050919050565b6104f8816104e5565b811461050357600080fd5b50565b600081359050610515816104ef565b92915050565b600060208284031215610531576105306104db565b5b600061053f84828501610506565b91505092915050565b610551816104e5565b82525050565b600060208201905061056c6000830184610548565b92915050565b600080fd5b6000601f19601f8301169050919050565b7f4e487b7100000000000000000000000000000000000000000000000000000000600052604160045260246000fd5b6105c082610577565b810181811067ffffffffffffffff821117156105df576105de610588565b5b80604052505050565b60006105f26104d1565b90506105fe82826105b7565b919050565b600067ffffffffffffffff82111561061e5761061d610588565b5b602082029050602081019050919050565b600080fd5b600067ffffffffffffffff82111561064f5761064e610588565b5b602082029050602081019050919050565b600061067361066e84610634565b6105e8565b905080838252602082019050602084028301858111156106965761069561062f565b5b835b818110156106bf57806106ab8882610506565b845260208401935050602081019050610698565b5050509392505050565b600082601f8301126106de576106dd610572565b5b81356106ee848260208601610660565b91505092915050565b600061070a61070584610603565b6105e8565b9050808382526020820190506020840283018581111561072d5761072c61062f565b5b835b8181101561077457803567ffffffffffffffff81111561075257610751610572565b5b80860161075f89826106c9565b8552602085019450505060208101905061072f565b5050509392505050565b600082601f83011261079357610792610572565b5b81356107a38482602086016106f7565b91505092915050565b600080604083850312156107c3576107c26104db565b5b600083013567ffffffffffffffff8111156107e1576107e06104e0565b5b6107ed8582860161077e565b925050602083013567ffffffffffffffff81111561080e5761080d6104e0565b5b61081a858286016106c9565b9150509250929050565b600081519050919050565b600082825260208201905092915050565b6000819050602082019050919050565b610859816104e5565b82525050565b600061086b8383610850565b60208301905092915050565b6000602082019050919050565b600061088f82610824565b610899818561082f565b93506108a483610840565b8060005b838110156108d55781516108bc888261085f565b97506108c783610877565b9250506001810190506108a8565b5085935050505092915050565b600060208201905081810360008301526108fc8184610884565b905092915050565b600073ffffffffffffffffffffffffffffffffffffffff82169050919050565b600061092f82610904565b9050919050565b600061094182610924565b9050919050565b61095181610936565b811461095c57600080fd5b50565b60008135905061096e81610948565b92915050565b6000806040838503121561098b5761098a6104db565b5b60006109998582860161095f565b92505060206109aa85828601610506565b9150509250929050565b7f4e487b7100000000000000000000000000000000000000000000000000000000600052603260045260246000fd5b7f4e487b7100000000000000000000000000000000000000000000000000000000600052601160045260246000fd5b6000610a1d826104e5565b9150610a28836104e5565b9250827fffffffffffffffffffffffffffffffffffffffffffffffffffffffffffffffff03821115610a5d57610a5c6109e3565b5b828201905092915050565b6000610a73826104e5565b9150610a7e836104e5565b925082821015610a9157610a906109e3565b5b828203905092915050565b6000610aa7826104e5565b91507fffffffffffffffffffffffffffffffffffffffffffffffffffffffffffffffff821415610ada57610ad96109e3565b5b600182019050919050565b600081519050610af4816104ef565b92915050565b6000610b0d610b0884610634565b6105e8565b90508083825260208201905060208402830185811115610b3057610b2f61062f565b5b835b81811015610b595780610b458882610ae5565b845260208401935050602081019050610b32565b5050509392505050565b600082601f830112610b7857610b77610572565b5b8151610b88848260208601610afa565b91505092915050565b6000610ba4610b9f84610603565b6105e8565b90508083825260208201905060208402830185811115610bc757610bc661062f565b5b835b81811015610c0e57805167ffffffffffffffff811115610bec57610beb610572565b5b808601610bf98982610b63565b85526020850194505050602081019050610bc9565b5050509392505050565b600082601f830112610c2d57610c2c610572565b5b8151610c3d848260208601610b91565b91505092915050565b600060208284031215610c5c57610c5b6104db565b5b600082015167ffffffffffffffff811115610c7a57610c796104e0565b5b610c8684828501610c18565b91505092915050565b600060208284031215610ca557610ca46104db565b5b600082015167ffffffffffffffff811115610cc357610cc26104e0565b5b610ccf84828501610b63565b9150509291505056fea2646970667358221220d2411afb0bab9cc60c9f8a39d0860922e020e6aa6f7edc5573bae1de368a41db64736f6c634300080a0033608060405234801561001057600080fd5b50610fab806100206000396000f3fe608060405234801561001057600080fd5b506004361061002b5760003560e01c8063c8344a2014610030575b600080fd5b61004a60048036038101906100459190610a99565b610060565b6040516100579190610b97565b60405180910390f35b606060008373ffffffffffffffffffffffffffffffffffffffff166306a49fce6040518163ffffffff1660e01b8152600401600060405180830381865afa1580156100af573d6000803e3d6000fd5b505050506040513d6000823e3d601f19601f820116820180604052508101906100d89190610d27565b905060008473ffffffffffffffffffffffffffffffffffffffff1663afa524086040518163ffffffff1660e01b81526004016000604051808303816000875af1158015610129573d6000803e3d6000fd5b505050506040513d6000823e3d601f19601f820116820180604052508101906101529190610e51565b90506000825190508067ffffffffffffffff81111561017457610173610bcf565b5b6040519080825280602002602001820160405280156101a25781602001602082028036833780820191505090505b50600090805190602001906101b8929190610975565b5060005b818110156101fc576103e8600082815481106101db576101da610e9a565b5b906000526020600020018190555080806101f490610ef8565b9150506101bc565b5060008167ffffffffffffffff81111561021957610218610bcf565b5b60405190808252806020026020018201604052801561024c57816020015b60608152602001906001900390816102375790505b50905060005b828110156102d4578267ffffffffffffffff81111561027457610273610bcf565b5b6040519080825280602002602001820160405280156102a25781602001602082028036833780820191505090505b508282815181106102b6576102b5610e9a565b5b602002602001018190525080806102cc90610ef8565b915050610252565b5060005b8281101561034d5760005b83811015610339576000838381518110610300576102ff610e9a565b5b6020026020010151828151811061031a57610319610e9a565b5b602002602001018181525050808061033190610ef8565b9150506102e3565b50808061034590610ef8565b9150506102d8565b5060005b828110156104b25760005b8381101561049e5780821461048b5784818151811061037e5761037d610e9a565b5b6020026020010151828151811061039857610397610e9a565b5b60200260200101518583815181106103b3576103b2610e9a565b5b602002602001015182815181106103cd576103cc610e9a565b5b6020026020010151111561044e578482815181106103ee576103ed610e9a565b5b6020026020010151818151811061040857610407610e9a565b5b602002602001015183838151811061042357610422610e9a565b5b6020026020010151828151811061043d5761043c610e9a565b5b60200260200101818152505061048a565b600083838151811061046357610462610e9a565b5b6020026020010151828151811061047d5761047c610e9a565b5b6020026020010181815250505b5b808061049690610ef8565b91505061035c565b5080806104aa90610ef8565b915050610351565b5060008060005b848110156106225760005b8581101561060e578082146105fb5760005b868110156105f9578083141580156104ee5750808214155b156105e6576000945061056986838151811061050d5761050c610e9a565b5b6020026020010151848151811061052757610526610e9a565b5b602002602001015187858151811061054257610541610e9a565b5b6020026020010151838151811061055c5761055b610e9a565b5b602002602001015161081a565b94506105a98587848151811061058257610581610e9a565b5b6020026020010151838151811061059c5761059b610e9a565b5b6020026020010151610833565b9350838683815181106105bf576105be610e9a565b5b602002602001015182815181106105d9576105d8610e9a565b5b6020026020010181815250505b80806105f190610ef8565b9150506104d6565b505b808061060690610ef8565b9150506104c4565b50808061061a90610ef8565b9150506104b9565b506000865167ffffffffffffffff8111156106405761063f610bcf565b5b60405190808252806020026020018201604052801561066e5781602001602082028036833780820191505090505b50905060005b87518110156106b25761271082828151811061069357610692610e9a565b5b60200260200101818152505080806106aa90610ef8565b915050610674565b5060005b858110156107af5760005b8681101561079b57808214610788578582815181106106e3576106e2610e9a565b5b602002602001015181815181106106fd576106fc610e9a565b5b602002602001015186828151811061071857610717610e9a565b5b6020026020010151838151811061073257610731610e9a565b5b6020026020010151111561078757600183838151811061075557610754610e9a565b5b60200260200101516107679190610f41565b83838151811061077a57610779610e9a565b5b6020026020010181815250505b5b808061079390610ef8565b9150506106c1565b5080806107a790610ef8565b9150506106b6565b506107ba818861084c565b600080548060200260200160405190810160405280929190818152602001828054801561080657602002820191906000526020600020905b8154815260200190600101908083116107f2575b505050505097505050505050505092915050565b6000818310610829578161082b565b825b905092915050565b60008183116108425781610844565b825b905092915050565b600067ffffffffffffffff81111561086757610866610bcf565b5b6040519080825280602002602001820160405280156108955781602001602082028036833780820191505090505b50600090805190602001906108ab929190610975565b506000805b825181101561090c57818482815181106108cd576108cc610e9a565b5b602002602001015111156108f9578381815181106108ee576108ed610e9a565b5b602002602001015191505b808061090490610ef8565b9150506108b0565b5060005b825181101561096f57600083828151811061092e5761092d610e9a565b5b60200260200101519080600181540180825580915050600190039060005260206000200160009091909190915055808061096790610ef8565b915050610910565b50505050565b8280548282559060005260206000209081019282156109b1579160200282015b828111156109b0578251825591602001919060010190610995565b5b5090506109be91906109c2565b5090565b5b808211156109db5760008160009055506001016109c3565b5090565b6000604051905090565b600080fd5b600080fd5b600073ffffffffffffffffffffffffffffffffffffffff82169050919050565b6000610a1e826109f3565b9050919050565b6000610a3082610a13565b9050919050565b610a4081610a25565b8114610a4b57600080fd5b50565b600081359050610a5d81610a37565b92915050565b6000819050919050565b610a7681610a63565b8114610a8157600080fd5b50565b600081359050610a9381610a6d565b92915050565b60008060408385031215610ab057610aaf6109e9565b5b6000610abe85828601610a4e565b9250506020610acf85828601610a84565b9150509250929050565b600081519050919050565b600082825260208201905092915050565b6000819050602082019050919050565b610b0e81610a63565b82525050565b6000610b208383610b05565b60208301905092915050565b6000602082019050919050565b6000610b4482610ad9565b610b4e8185610ae4565b9350610b5983610af5565b8060005b83811015610b8a578151610b718882610b14565b9750610b7c83610b2c565b925050600181019050610b5d565b5085935050505092915050565b60006020820190508181036000830152610bb18184610b39565b905092915050565b600080fd5b6000601f19601f8301169050919050565b7f4e487b7100000000000000000000000000000000000000000000000000000000600052604160045260246000fd5b610c0782610bbe565b810181811067ffffffffffffffff82111715610c2657610c25610bcf565b5b80604052505050565b6000610c396109df565b9050610c458282610bfe565b919050565b600067ffffffffffffffff821115610c6557610c64610bcf565b5b602082029050602081019050919050565b600080fd5b600081519050610c8a81610a6d565b92915050565b6000610ca3610c9e84610c4a565b610c2f565b90508083825260208201905060208402830185811115610cc657610cc5610c76565b5b835b81811015610cef5780610cdb8882610c7b565b845260208401935050602081019050610cc8565b5050509392505050565b600082601f830112610d0e57610d0d610bb9565b5b8151610d1e848260208601610c90565b91505092915050565b600060208284031215610d3d57610d3c6109e9565b5b600082015167ffffffffffffffff811115610d5b57610d5a6109ee565b5b610d6784828501610cf9565b91505092915050565b600067ffffffffffffffff821115610d8b57610d8a610bcf565b5b602082029050602081019050919050565b6000610daf610daa84610d70565b610c2f565b90508083825260208201905060208402830185811115610dd257610dd1610c76565b5b835b81811015610e1957805167ffffffffffffffff811115610df757610df6610bb9565b5b808601610e048982610cf9565b85526020850194505050602081019050610dd4565b5050509392505050565b600082601f830112610e3857610e37610bb9565b5b8151610e48848260208601610d9c565b91505092915050565b600060208284031215610e6757610e666109e9565b5b600082015167ffffffffffffffff811115610e8557610e846109ee565b5b610e9184828501610e23565b91505092915050565b7f4e487b7100000000000000000000000000000000000000000000000000000000600052603260045260246000fd5b7f4e487b7100000000000000000000000000000000000000000000000000000000600052601160045260246000fd5b6000610f0382610a63565b91507fffffffffffffffffffffffffffffffffffffffffffffffffffffffffffffffff821415610f3657610f35610ec9565b5b600182019050919050565b6000610f4c82610a63565b9150610f5783610a63565b925082821015610f6a57610f69610ec9565b5b82820390509291505056fea2646970667358221220dbda5075315d7b28700a83cb94ee87ef39c9b719fbdaec3afc96406f0e3d580f64736f6c634300080a0033608060405234801561001057600080fd5b5061111d806100206000396000f3fe608060405234801561001057600080fd5b506004361061002b5760003560e01c8063c8344a2014610030575b600080fd5b61004a60048036038101906100459190610b65565b610060565b6040516100579190610c63565b60405180910390f35b6060600067ffffffffffffffff81111561007d5761007c610c85565b5b6040519080825280602002602001820160405280156100ab5781602001602082028036833780820191505090505b50600290805190602001906100c1929190610a41565b5060008373ffffffffffffffffffffffffffffffffffffffff166306a49fce6040518163ffffffff1660e01b8152600401600060405180830381865afa15801561010f573d6000803e3d6000fd5b505050506040513d6000823e3d601f19601f820116820180604052508101906101389190610df3565b9050600081905060005b825181101561017f5760018282815181106101605761015f610e3c565b5b602002602001018181525050808061017790610e9a565b915050610142565b5060008573ffffffffffffffffffffffffffffffffffffffff1663afa524086040518163ffffffff1660e01b81526004016000604051808303816000875af11580156101cf573d6000803e3d6000fd5b505050506040513d6000823e3d601f19601f820116820180604052508101906101f89190610fc4565b90506000815190506000845190506000855190505b60008211156109e15760018214156103045760005b8181101561030257600186828151811061023f5761023e610e3c565b5b602002602001015114156102ef57600287828151811061026257610261610e3c565b5b6020026020010151908060018154018082558091505060019003906000526020600020016000909190919091505560028054806020026020016040519081016040528092919081815260200182805480156102dc57602002820191906000526020600020905b8154815260200190600101908083116102c8575b5050505050975050505050505050610a3b565b80806102fa90610e9a565b915050610222565b505b60005b8181101561038757600080600089848151811061032757610326610e3c565b5b602002602001015181526020019081526020016000208190555060006001600089848151811061035a57610359610e3c565b5b6020026020010151815260200190815260200160002081905550808061037f90610e9a565b915050610307565b50600060028751610398919061100d565b90506000805b838110156106465760018882815181106103bb576103ba610e3c565b5b602002602001015114156106335760005b868110156104e75760018882815181106103e9576103e8610e3c565b5b6020026020010151838151811061040357610402610e3c565b5b60200260200101511415610454576000808b848151811061042757610426610e3c565b5b60200260200101518152602001908152602001600020600081548092919061044e90610e9a565b91905055505b8588828151811061046857610467610e3c565b5b6020026020010151838151811061048257610481610e3c565b5b602002602001015114156104d457600160008b84815181106104a7576104a6610e3c565b5b6020026020010151815260200190815260200160002060008154809291906104ce90610e9a565b91905055505b80806104df90610e9a565b9150506103cc565b508560026000808c858151811061050157610500610e3c565b5b60200260200101518152602001908152602001600020546105229190611063565b11156105cc57600289828151811061053d5761053c610e3c565b5b6020026020010151908060018154018082558091505060019003906000526020600020016000909190919091505560028054806020026020016040519081016040528092919081815260200182805480156105b757602002820191906000526020600020905b8154815260200190600101908083116105a3575b50505050509950505050505050505050610a3b565b81600160008b84815181106105e4576105e3610e3c565b5b6020026020010151815260200190815260200160002054111561063257600160008a838151811061061857610617610e3c565b5b602002602001015181526020019081526020016000205491505b5b808061063e90610e9a565b91505061039e565b5060008060028851610658919061100d565b90506000805b868110156107945760018b828151811061067b5761067a610e3c565b5b602002602001015114156107815784600160008e84815181106106a1576106a0610e3c565b5b602002602001015181526020019081526020016000205414156106cd5783806106c990610e9a565b9450505b826000808e84815181106106e4576106e3610e3c565b5b6020026020010151815260200190815260200160002054101561073c576000808d838151811061071757610716610e3c565b5b6020026020010151815260200190815260200160002054925060019150809550610780565b826000808e848151811061075357610752610e3c565b5b6020026020010151815260200190815260200160002054141561077f57818061077b90610e9a565b9250505b5b5b808061078c90610e9a565b91505061065e565b50868114156108875760005b8b518110156108235760018b82815181106107be576107bd610e3c565b5b602002602001015114156108105760028c82815181106107e1576107e0610e3c565b5b602002602001015190806001815401808255809150506001900390600052602060002001600090919091909150555b808061081b90610e9a565b9150506107a0565b50600280548060200260200160405190810160405280929190818152602001828054801561087057602002820191906000526020600020905b81548152602001906001019080831161085c575b50505050509b505050505050505050505050610a3b565b60008a868151811061089c5761089b610e3c565b5b60200260200101818152505086806108b3906110bd565b97505060005b888110156109d65760008a82815181106108d6576108d5610e3c565b5b602002602001015187815181106108f0576108ef610e3c565b5b6020026020010151905060005b888110156109c15760018d828151811061091a57610919610e3c565b5b60200260200101511480156109625750818c848151811061093e5761093d610e3c565b5b6020026020010151828151811061095857610957610e3c565b5b6020026020010151115b156109ae578b838151811061097a57610979610e3c565b5b6020026020010151818151811061099457610993610e3c565b5b6020026020010180518091906109a9906110bd565b815250505b80806109b990610e9a565b9150506108fd565b505080806109ce90610e9a565b9150506108b9565b50505050505061020d565b6002805480602002602001604051908101604052809291908181526020018280548015610a2d57602002820191906000526020600020905b815481526020019060010190808311610a19575b505050505096505050505050505b92915050565b828054828255906000526020600020908101928215610a7d579160200282015b82811115610a7c578251825591602001919060010190610a61565b5b509050610a8a9190610a8e565b5090565b5b80821115610aa7576000816000905550600101610a8f565b5090565b6000604051905090565b600080fd5b600080fd5b600073ffffffffffffffffffffffffffffffffffffffff82169050919050565b6000610aea82610abf565b9050919050565b6000610afc82610adf565b9050919050565b610b0c81610af1565b8114610b1757600080fd5b50565b600081359050610b2981610b03565b92915050565b6000819050919050565b610b4281610b2f565b8114610b4d57600080fd5b50565b600081359050610b5f81610b39565b92915050565b60008060408385031215610b7c57610b7b610ab5565b5b6000610b8a85828601610b1a565b9250506020610b9b85828601610b50565b9150509250929050565b600081519050919050565b600082825260208201905092915050565b6000819050602082019050919050565b610bda81610b2f565b82525050565b6000610bec8383610bd1565b60208301905092915050565b6000602082019050919050565b6000610c1082610ba5565b610c1a8185610bb0565b9350610c2583610bc1565b8060005b83811015610c56578151610c3d8882610be0565b9750610c4883610bf8565b925050600181019050610c29565b5085935050505092915050565b60006020820190508181036000830152610c7d8184610c05565b905092915050565b7f4e487b7100000000000000000000000000000000000000000000000000000000600052604160045260246000fd5b600080fd5b6000601f19601f8301169050919050565b610cd382610cb9565b810181811067ffffffffffffffff82111715610cf257610cf1610c85565b5b80604052505050565b6000610d05610aab565b9050610d118282610cca565b919050565b600067ffffffffffffffff821115610d3157610d30610c85565b5b602082029050602081019050919050565b600080fd5b600081519050610d5681610b39565b92915050565b6000610d6f610d6a84610d16565b610cfb565b90508083825260208201905060208402830185811115610d9257610d91610d42565b5b835b81811015610dbb5780610da78882610d47565b845260208401935050602081019050610d94565b5050509392505050565b600082601f830112610dda57610dd9610cb4565b5b8151610dea848260208601610d5c565b91505092915050565b600060208284031215610e0957610e08610ab5565b5b600082015167ffffffffffffffff811115610e2757610e26610aba565b5b610e3384828501610dc5565b91505092915050565b7f4e487b7100000000000000000000000000000000000000000000000000000000600052603260045260246000fd5b7f4e487b7100000000000000000000000000000000000000000000000000000000600052601160045260246000fd5b6000610ea582610b2f565b91507fffffffffffffffffffffffffffffffffffffffffffffffffffffffffffffffff821415610ed857610ed7610e6b565b5b600182019050919050565b600067ffffffffffffffff821115610efe57610efd610c85565b5b602082029050602081019050919050565b6000610f22610f1d84610ee3565b610cfb565b90508083825260208201905060208402830185811115610f4557610f44610d42565b5b835b81811015610f8c57805167ffffffffffffffff811115610f6a57610f69610cb4565b5b808601610f778982610dc5565b85526020850194505050602081019050610f47565b5050509392505050565b600082601f830112610fab57610faa610cb4565b5b8151610fbb848260208601610f0f565b91505092915050565b600060208284031215610fda57610fd9610ab5565b5b600082015167ffffffffffffffff811115610ff857610ff7610aba565b5b61100484828501610f96565b91505092915050565b600061101882610b2f565b915061102383610b2f565b9250827fffffffffffffffffffffffffffffffffffffffffffffffffffffffffffffffff0382111561105857611057610e6b565b5b828201905092915050565b600061106e82610b2f565b915061107983610b2f565b9250817fffffffffffffffffffffffffffffffffffffffffffffffffffffffffffffffff04831182151516156110b2576110b1610e6b565b5b828202905092915050565b60006110c882610b2f565b915060008214156110dc576110db610e6b565b5b60018203905091905056fea2646970667358221220d90999861cbc700ae9844415e5478d53169a72cd4caaffb64dc9306e791f232264736f6c634300080a003360806040526103e860015534801561001657600080fd5b50610b93806100266000396000f3fe608060405234801561001057600080fd5b506004361061002b5760003560e01c8063c8344a2014610030575b600080fd5b61004a6004803603810190610045919061062b565b610060565b6040516100579190610729565b60405180910390f35b6060600067ffffffffffffffff81111561007d5761007c61074b565b5b6040519080825280602002602001820160405280156100ab5781602001602082028036833780820191505090505b50600090805190602001906100c1929190610507565b5060008373ffffffffffffffffffffffffffffffffffffffff166306a49fce6040518163ffffffff1660e01b8152600401600060405180830381865afa15801561010f573d6000803e3d6000fd5b505050506040513d6000823e3d601f19601f8201168201806040525081019061013891906108b9565b905060008473ffffffffffffffffffffffffffffffffffffffff1663afa524086040518163ffffffff1660e01b81526004016000604051808303816000875af1158015610189573d6000803e3d6000fd5b505050506040513d6000823e3d601f19601f820116820180604052508101906101b291906109e3565b905060008251905060008167ffffffffffffffff8111156101d6576101d561074b565b5b6040519080825280602002602001820160405280156102045781602001602082028036833780820191505090505b50905060005b82811015610245578082828151811061022657610225610a2c565b5b602002602001018181525050808061023d90610a8a565b91505061020a565b5061025f8382600060018661025a9190610ad3565b610336565b60005b828110156102d857846000828154811061027f5761027e610a2c565b5b90600052602060002001548151811061029b5761029a610a2c565b5b6020026020010151600082815481106102b7576102b6610a2c565b5b906000526020600020018190555080806102d090610a8a565b915050610262565b50600080548060200260200160405190810160405280929190818152602001828054801561032557602002820191906000526020600020905b815481526020019060010190808311610311575b505050505094505050505092915050565b80821415610432576000805b845181101561040357600060018261035a9190610b07565b90505b85518110156103ef578686828151811061037a57610379610a2c565b5b60200260200101518151811061039357610392610a2c565b5b60200260200101518683815181106103ae576103ad610a2c565b5b6020026020010151815181106103c7576103c6610a2c565b5b6020026020010151836103da9190610b07565b925080806103e790610a8a565b91505061035d565b5080806103fb90610a8a565b915050610342565b50600154811161042c578360009080519060200190610423929190610507565b50806001819055505b50610482565b60008290505b8181116104805761044a848483610488565b610462858560018661045c9190610b07565b85610336565b61046d848483610488565b808061047890610a8a565b915050610438565b505b50505050565b600083838151811061049d5761049c610a2c565b5b602002602001015190508382815181106104ba576104b9610a2c565b5b60200260200101518484815181106104d5576104d4610a2c565b5b602002602001018181525050808483815181106104f5576104f4610a2c565b5b60200260200101818152505050505050565b828054828255906000526020600020908101928215610543579160200282015b82811115610542578251825591602001919060010190610527565b5b5090506105509190610554565b5090565b5b8082111561056d576000816000905550600101610555565b5090565b6000604051905090565b600080fd5b600080fd5b600073ffffffffffffffffffffffffffffffffffffffff82169050919050565b60006105b082610585565b9050919050565b60006105c2826105a5565b9050919050565b6105d2816105b7565b81146105dd57600080fd5b50565b6000813590506105ef816105c9565b92915050565b6000819050919050565b610608816105f5565b811461061357600080fd5b50565b600081359050610625816105ff565b92915050565b600080604083850312156106425761064161057b565b5b6000610650858286016105e0565b925050602061066185828601610616565b9150509250929050565b600081519050919050565b600082825260208201905092915050565b6000819050602082019050919050565b6106a0816105f5565b82525050565b60006106b28383610697565b60208301905092915050565b6000602082019050919050565b60006106d68261066b565b6106e08185610676565b93506106eb83610687565b8060005b8381101561071c57815161070388826106a6565b975061070e836106be565b9250506001810190506106ef565b5085935050505092915050565b6000602082019050818103600083015261074381846106cb565b905092915050565b7f4e487b7100000000000000000000000000000000000000000000000000000000600052604160045260246000fd5b600080fd5b6000601f19601f8301169050919050565b6107998261077f565b810181811067ffffffffffffffff821117156107b8576107b761074b565b5b80604052505050565b60006107cb610571565b90506107d78282610790565b919050565b600067ffffffffffffffff8211156107f7576107f661074b565b5b602082029050602081019050919050565b600080fd5b60008151905061081c816105ff565b92915050565b6000610835610830846107dc565b6107c1565b9050808382526020820190506020840283018581111561085857610857610808565b5b835b81811015610881578061086d888261080d565b84526020840193505060208101905061085a565b5050509392505050565b600082601f8301126108a05761089f61077a565b5b81516108b0848260208601610822565b91505092915050565b6000602082840312156108cf576108ce61057b565b5b600082015167ffffffffffffffff8111156108ed576108ec610580565b5b6108f98482850161088b565b91505092915050565b600067ffffffffffffffff82111561091d5761091c61074b565b5b602082029050602081019050919050565b600061094161093c84610902565b6107c1565b9050808382526020820190506020840283018581111561096457610963610808565b5b835b818110156109ab57805167ffffffffffffffff8111156109895761098861077a565b5b808601610996898261088b565b85526020850194505050602081019050610966565b5050509392505050565b600082601f8301126109ca576109c961077a565b5b81516109da84826020860161092e565b91505092915050565b6000602082840312156109f9576109f861057b565b5b600082015167ffffffffffffffff811115610a1757610a16610580565b5b610a23848285016109b5565b91505092915050565b7f4e487b7100000000000000000000000000000000000000000000000000000000600052603260045260246000fd5b7f4e487b7100000000000000000000000000000000000000000000000000000000600052601160045260246000fd5b6000610a95826105f5565b91507fffffffffffffffffffffffffffffffffffffffffffffffffffffffffffffffff821415610ac857610ac7610a5b565b5b600182019050919050565b6000610ade826105f5565b9150610ae9836105f5565b925082821015610afc57610afb610a5b565b5b828203905092915050565b6000610b12826105f5565b9150610b1d836105f5565b9250827fffffffffffffffffffffffffffffffffffffffffffffffffffffffffffffffff03821115610b5257610b51610a5b565b5b82820190509291505056fea264697066735822122089f0857087c26fe3d483692a36a055d99854d5c43aa5ec786fb3579011e1df9764736f6c634300080a0033a2646970667358221220efbe9478ad8d3852eeb11a46a0e0b6e9807406e4e2014cf9b0dc1a2957b7a0da64736f6c634300080a0033",
  "linkReferences": {},
  "deployedLinkReferences": {}
}