{
  "_format": "hh-sol-artifact-1",
  "contractName": "Election",
  "sourceName": "contracts/facets/Election.sol",
  "abi": [
    {
      "inputs": [
        {
          "components": [
            {
              "internalType": "uint256",
              "name": "electionID",
              "type": "uint256"
            },
            {
              "internalType": "string",
              "name": "name",
              "type": "string"
            },
            {
              "internalType": "string",
              "name": "description",
              "type": "string"
            },
            {
              "internalType": "uint256",
              "name": "startDate",
              "type": "uint256"
            },
            {
              "internalType": "uint256",
              "name": "endDate",
              "type": "uint256"
            },
            {
              "internalType": "bool",
              "name": "electionType",
              "type": "bool"
            }
          ],
          "internalType": "struct Election.ElectionInfo",
          "name": "_electionInfo",
          "type": "tuple"
        },
        {
          "internalType": "contract Ballot",
          "name": "_ballot",
          "type": "address"
        },
        {
          "internalType": "contract ResultCalculator",
          "name": "_resultCalculator",
          "type": "address"
        },
        {
          "internalType": "address",
          "name": "_electionOrganizer",
          "type": "address"
        },
        {
          "internalType": "address",
          "name": "_electionOrganizerContract",
          "type": "address"
        },
        {
          "internalType": "uint256",
          "name": "_ballotType",
          "type": "uint256"
        },
        {
          "internalType": "address",
          "name": "_authentication",
          "type": "address"
        }
      ],
      "stateMutability": "nonpayable",
      "type": "constructor"
    },
    {
      "anonymous": false,
      "inputs": [
        {
          "indexed": false,
          "internalType": "address",
          "name": "election",
          "type": "address"
        },
        {
          "indexed": false,
          "internalType": "address",
          "name": "ballot",
          "type": "address"
        },
        {
          "components": [
            {
              "internalType": "uint256",
              "name": "candidateID",
              "type": "uint256"
            },
            {
              "internalType": "string",
              "name": "name",
              "type": "string"
            },
            {
              "internalType": "string",
              "name": "description",
              "type": "string"
            }
          ],
          "indexed": false,
          "internalType": "struct Election.Candidate",
          "name": "candidate",
          "type": "tuple"
        }
      ],
      "name": "CandidateAdded",
      "type": "event"
    },
    {
      "anonymous": false,
      "inputs": [
        {
          "indexed": false,
          "internalType": "uint256[]",
          "name": "winners",
          "type": "uint256[]"
        }
      ],
      "name": "ListWinners",
      "type": "event"
    },
    {
      "anonymous": false,
      "inputs": [
        {
          "indexed": false,
          "internalType": "address",
          "name": "ballot",
          "type": "address"
        },
        {
          "components": [
            {
              "internalType": "uint256",
              "name": "candidateID",
              "type": "uint256"
            },
            {
              "internalType": "string",
              "name": "name",
              "type": "string"
            },
            {
              "internalType": "string",
              "name": "description",
              "type": "string"
            }
          ],
          "indexed": false,
          "internalType": "struct Election.Candidate",
          "name": "candidate",
          "type": "tuple"
        },
        {
          "indexed": false,
          "internalType": "uint256",
          "name": "weight",
          "type": "uint256"
        }
      ],
      "name": "VoteCasted",
      "type": "event"
    },
    {
      "inputs": [
        {
          "components": [
            {
              "internalType": "uint256",
              "name": "candidateID",
              "type": "uint256"
            },
            {
              "internalType": "string",
              "name": "name",
              "type": "string"
            },
            {
              "internalType": "string",
              "name": "description",
              "type": "string"
            }
          ],
          "internalType": "struct Election.Candidate",
          "name": "_candidate",
          "type": "tuple"
        }
      ],
      "name": "addCandidate",
      "outputs": [],
      "stateMutability": "nonpayable",
      "type": "function"
    },
    {
      "inputs": [],
      "name": "authentication",
      "outputs": [
        {
          "internalType": "contract Authentication",
          "name": "",
          "type": "address"
        }
      ],
      "stateMutability": "view",
      "type": "function"
    },
    {
      "inputs": [],
      "name": "getBallot",
      "outputs": [
        {
          "internalType": "address",
          "name": "",
          "type": "address"
        }
      ],
      "stateMutability": "view",
      "type": "function"
    },
    {
      "inputs": [],
      "name": "getBallotType",
      "outputs": [
        {
          "internalType": "uint256",
          "name": "",
          "type": "uint256"
        }
      ],
      "stateMutability": "view",
      "type": "function"
    },
    {
      "inputs": [
        {
          "internalType": "uint256",
          "name": "_candidateID",
          "type": "uint256"
        }
      ],
      "name": "getCandidateByID",
      "outputs": [
        {
          "components": [
            {
              "internalType": "uint256",
              "name": "candidateID",
              "type": "uint256"
            },
            {
              "internalType": "string",
              "name": "name",
              "type": "string"
            },
            {
              "internalType": "string",
              "name": "description",
              "type": "string"
            }
          ],
          "internalType": "struct Election.Candidate",
          "name": "",
          "type": "tuple"
        }
      ],
      "stateMutability": "view",
      "type": "function"
    },
    {
      "inputs": [],
      "name": "getCandidateCount",
      "outputs": [
        {
          "internalType": "uint256",
          "name": "",
          "type": "uint256"
        }
      ],
      "stateMutability": "view",
      "type": "function"
    },
    {
      "inputs": [],
      "name": "getCandidates",
      "outputs": [
        {
          "components": [
            {
              "internalType": "uint256",
              "name": "candidateID",
              "type": "uint256"
            },
            {
              "internalType": "string",
              "name": "name",
              "type": "string"
            },
            {
              "internalType": "string",
              "name": "description",
              "type": "string"
            }
          ],
          "internalType": "struct Election.Candidate[]",
          "name": "",
          "type": "tuple[]"
        }
      ],
      "stateMutability": "view",
      "type": "function"
    },
    {
      "inputs": [],
      "name": "getElectionInfo",
      "outputs": [
        {
          "components": [
            {
              "internalType": "uint256",
              "name": "electionID",
              "type": "uint256"
            },
            {
              "internalType": "string",
              "name": "name",
              "type": "string"
            },
            {
              "internalType": "string",
              "name": "description",
              "type": "string"
            },
            {
              "internalType": "uint256",
              "name": "startDate",
              "type": "uint256"
            },
            {
              "internalType": "uint256",
              "name": "endDate",
              "type": "uint256"
            },
            {
              "internalType": "bool",
              "name": "electionType",
              "type": "bool"
            }
          ],
          "internalType": "struct Election.ElectionInfo",
          "name": "",
          "type": "tuple"
        }
      ],
      "stateMutability": "view",
      "type": "function"
    },
    {
      "inputs": [],
      "name": "getElectionOrganizer",
      "outputs": [
        {
          "internalType": "address",
          "name": "",
          "type": "address"
        }
      ],
      "stateMutability": "view",
      "type": "function"
    },
    {
      "inputs": [],
      "name": "getElectionType",
      "outputs": [
        {
          "internalType": "bool",
          "name": "",
          "type": "bool"
        }
      ],
      "stateMutability": "view",
      "type": "function"
    },
    {
      "inputs": [],
      "name": "getResult",
      "outputs": [
        {
          "internalType": "uint256[]",
          "name": "",
          "type": "uint256[]"
        }
      ],
      "stateMutability": "nonpayable",
      "type": "function"
    },
    {
      "inputs": [],
      "name": "getResultCalculator",
      "outputs": [
        {
          "internalType": "address",
          "name": "",
          "type": "address"
        }
      ],
      "stateMutability": "view",
      "type": "function"
    },
    {
      "inputs": [],
      "name": "getStatus",
      "outputs": [
        {
          "internalType": "enum Election.Status",
          "name": "",
          "type": "uint8"
        }
      ],
      "stateMutability": "view",
      "type": "function"
    },
    {
      "inputs": [
        {
          "internalType": "address",
          "name": "_voter",
          "type": "address"
        }
      ],
      "name": "getVoteStatus",
      "outputs": [
        {
          "internalType": "bool",
          "name": "",
          "type": "bool"
        }
      ],
      "stateMutability": "view",
      "type": "function"
    },
    {
      "inputs": [],
      "name": "getVoterCount",
      "outputs": [
        {
          "internalType": "uint256",
          "name": "",
          "type": "uint256"
        }
      ],
      "stateMutability": "view",
      "type": "function"
    },
    {
      "inputs": [],
      "name": "getWinners",
      "outputs": [
        {
          "internalType": "uint256[]",
          "name": "",
          "type": "uint256[]"
        }
      ],
      "stateMutability": "view",
      "type": "function"
    },
    {
      "inputs": [
        {
          "internalType": "string",
          "name": "_name",
          "type": "string"
        },
        {
          "internalType": "string",
          "name": "_description",
          "type": "string"
        },
        {
          "internalType": "uint256",
          "name": "index",
          "type": "uint256"
        }
      ],
      "name": "updateCandidateInfo",
      "outputs": [],
      "stateMutability": "nonpayable",
      "type": "function"
    },
    {
      "inputs": [
        {
          "components": [
            {
              "internalType": "uint256",
              "name": "electionID",
              "type": "uint256"
            },
            {
              "internalType": "string",
              "name": "name",
              "type": "string"
            },
            {
              "internalType": "string",
              "name": "description",
              "type": "string"
            },
            {
              "internalType": "uint256",
              "name": "startDate",
              "type": "uint256"
            },
            {
              "internalType": "uint256",
              "name": "endDate",
              "type": "uint256"
            },
            {
              "internalType": "bool",
              "name": "electionType",
              "type": "bool"
            }
          ],
          "internalType": "struct Election.ElectionInfo",
          "name": "_electionInfo",
          "type": "tuple"
        }
      ],
      "name": "updateElectionInfo",
      "outputs": [],
      "stateMutability": "nonpayable",
      "type": "function"
    },
    {
      "inputs": [
        {
          "internalType": "uint256",
          "name": "_candidateID",
          "type": "uint256"
        },
        {
          "internalType": "uint256",
          "name": "weight",
          "type": "uint256"
        },
        {
          "internalType": "uint256[]",
          "name": "voteArr",
          "type": "uint256[]"
        }
      ],
      "name": "vote",
      "outputs": [],
      "stateMutability": "nonpayable",
      "type": "function"
    }
  ],
  "bytecode": "0x60806040523480156200001157600080fd5b50604051620035b2380380620035b283398181016040528101906200003791906200077b565b83600b60006101000a81548173ffffffffffffffffffffffffffffffffffffffff021916908373ffffffffffffffffffffffffffffffffffffffff16021790555082600c60006101000a81548173ffffffffffffffffffffffffffffffffffffffff021916908373ffffffffffffffffffffffffffffffffffffffff1602179055508660008082015181600001556020820151816001019080519060200190620000e3929190620002ce565b50604082015181600201908051906020019062000102929190620002ce565b50606082015181600301556080820151816004015560a08201518160050160006101000a81548160ff02191690831515021790555090505085600f60016101000a81548173ffffffffffffffffffffffffffffffffffffffff021916908373ffffffffffffffffffffffffffffffffffffffff16021790555084601060006101000a81548173ffffffffffffffffffffffffffffffffffffffff021916908373ffffffffffffffffffffffffffffffffffffffff1602179055506103e8600a819055506000600d819055506000600f60006101000a81548160ff02191690831515021790555081600e8190555080600660006101000a81548173ffffffffffffffffffffffffffffffffffffffff021916908373ffffffffffffffffffffffffffffffffffffffff160217905550600f60019054906101000a900473ffffffffffffffffffffffffffffffffffffffff1673ffffffffffffffffffffffffffffffffffffffff1663c4d66de8306040518263ffffffff1660e01b81526004016200028d91906200085e565b600060405180830381600087803b158015620002a857600080fd5b505af1158015620002bd573d6000803e3d6000fd5b5050505050505050505050620008e0565b828054620002dc90620008aa565b90600052602060002090601f0160209004810192826200030057600085556200034c565b82601f106200031b57805160ff19168380011785556200034c565b828001600101855582156200034c579182015b828111156200034b5782518255916020019190600101906200032e565b5b5090506200035b91906200035f565b5090565b5b808211156200037a57600081600090555060010162000360565b5090565b6000604051905090565b600080fd5b600080fd5b600080fd5b6000601f19601f8301169050919050565b7f4e487b7100000000000000000000000000000000000000000000000000000000600052604160045260246000fd5b620003e28262000397565b810181811067ffffffffffffffff82111715620004045762000403620003a8565b5b80604052505050565b6000620004196200037e565b9050620004278282620003d7565b919050565b600080fd5b6000819050919050565b620004468162000431565b81146200045257600080fd5b50565b60008151905062000466816200043b565b92915050565b600080fd5b600080fd5b600067ffffffffffffffff821115620004945762000493620003a8565b5b6200049f8262000397565b9050602081019050919050565b60005b83811015620004cc578082015181840152602081019050620004af565b83811115620004dc576000848401525b50505050565b6000620004f9620004f38462000476565b6200040d565b90508281526020810184848401111562000518576200051762000471565b5b62000525848285620004ac565b509392505050565b600082601f8301126200054557620005446200046c565b5b815162000557848260208601620004e2565b91505092915050565b60008115159050919050565b620005778162000560565b81146200058357600080fd5b50565b60008151905062000597816200056c565b92915050565b600060c08284031215620005b657620005b562000392565b5b620005c260c06200040d565b90506000620005d48482850162000455565b600083015250602082015167ffffffffffffffff811115620005fb57620005fa6200042c565b5b62000609848285016200052d565b602083015250604082015167ffffffffffffffff81111562000630576200062f6200042c565b5b6200063e848285016200052d565b6040830152506060620006548482850162000455565b60608301525060806200066a8482850162000455565b60808301525060a0620006808482850162000586565b60a08301525092915050565b600073ffffffffffffffffffffffffffffffffffffffff82169050919050565b6000620006b9826200068c565b9050919050565b6000620006cd82620006ac565b9050919050565b620006df81620006c0565b8114620006eb57600080fd5b50565b600081519050620006ff81620006d4565b92915050565b60006200071282620006ac565b9050919050565b620007248162000705565b81146200073057600080fd5b50565b600081519050620007448162000719565b92915050565b6200075581620006ac565b81146200076157600080fd5b50565b60008151905062000775816200074a565b92915050565b600080600080600080600060e0888a0312156200079d576200079c62000388565b5b600088015167ffffffffffffffff811115620007be57620007bd6200038d565b5b620007cc8a828b016200059d565b9750506020620007df8a828b01620006ee565b9650506040620007f28a828b0162000733565b9550506060620008058a828b0162000764565b9450506080620008188a828b0162000764565b93505060a06200082b8a828b0162000455565b92505060c06200083e8a828b0162000764565b91505092959891949750929550565b6200085881620006ac565b82525050565b60006020820190506200087560008301846200084d565b92915050565b7f4e487b7100000000000000000000000000000000000000000000000000000000600052602260045260246000fd5b60006002820490506001821680620008c357607f821691505b60208210811415620008da57620008d96200087b565b5b50919050565b612cc280620008f06000396000f3fe608060405234801561001057600080fd5b50600436106101215760003560e01c806382202396116100ad578063de29278911610071578063de292789146102e8578063df15c37e14610306578063e04b1c0c14610324578063e1349bd714610342578063e29859e51461035e57610121565b8063822023961461024257806386852dca146102725780639baec8b914610290578063b976181b146102ae578063b996c170146102ca57610121565b8063273ffe86116100f4578063273ffe861461019c57806330a56347146101b857806337349a7d146101d65780634e69d560146101f4578063521b0dcc1461021257610121565b806306a49fce1461012657806311174a29146101445780631ca577141461016257806324fd983c14610180575b600080fd5b61012e61037c565b60405161013b91906118d9565b60405180910390f35b61014c610509565b604051610159919061190a565b60405180910390f35b61016a610513565b604051610177919061190a565b60405180910390f35b61019a60048036038101906101959190611a9a565b61051d565b005b6101b660048036038101906101b19190611bcb565b6106e1565b005b6101c06109d7565b6040516101cd919061190a565b60405180910390f35b6101de6109e1565b6040516101eb9190611c55565b60405180910390f35b6101fc610a9b565b6040516102099190611ce7565b60405180910390f35b61022c60048036038101906102279190611d2e565b610ad0565b6040516102399190611d76565b60405180910390f35b61025c60048036038101906102579190611d91565b610b75565b6040516102699190611e15565b60405180910390f35b61027a610cd0565b6040516102879190611ed6565b60405180910390f35b610298610e47565b6040516102a59190611c55565b60405180910390f35b6102c860048036038101906102c39190611ffc565b610f01565b005b6102d261107f565b6040516102df91906120a4565b60405180910390f35b6102f06110a5565b6040516102fd919061216e565b60405180910390f35b61030e6112c8565b60405161031b919061216e565b60405180910390f35b61032c611376565b6040516103399190611c55565b60405180910390f35b61035c60048036038101906103579190612258565b6113a0565b005b610366611507565b6040516103739190611d76565b60405180910390f35b60606007805480602002602001604051908101604052809291908181526020016000905b828210156105005783829060005260206000209060030201604051806060016040529081600082015481526020016001820180546103dd906122f6565b80601f0160208091040260200160405190810160405280929190818152602001828054610409906122f6565b80156104565780601f1061042b57610100808354040283529160200191610456565b820191906000526020600020905b81548152906001019060200180831161043957829003601f168201915b5050505050815260200160028201805461046f906122f6565b80601f016020809104026020016040519081016040528092919081815260200182805461049b906122f6565b80156104e85780601f106104bd576101008083540402835291602001916104e8565b820191906000526020600020905b8154815290600101906020018083116104cb57829003601f168201915b505050505081525050815260200190600101906103a0565b50505050905090565b6000600d54905090565b6000600e54905090565b600c60009054906101000a900473ffffffffffffffffffffffffffffffffffffffff1673ffffffffffffffffffffffffffffffffffffffff163373ffffffffffffffffffffffffffffffffffffffff16146105ad576040517f08c379a00000000000000000000000000000000000000000000000000000000081526004016105a4906123ab565b60405180910390fd5b600160028111156105c1576105c0611c70565b5b6105c9610a9b565b60028111156105db576105da611c70565b5b1461061b576040517f08c379a00000000000000000000000000000000000000000000000000000000081526004016106129061243d565b60405180910390fd5b60006007805490509050808210610667576040517f08c379a000000000000000000000000000000000000000000000000000000000815260040161065e906124a9565b60405180910390fd5b836007838154811061067c5761067b6124c9565b5b906000526020600020906003020160010190805190602001906106a09291906115c5565b5082600783815481106106b6576106b56124c9565b5b906000526020600020906003020160020190805190602001906106da9291906115c5565b5050505050565b600c60009054906101000a900473ffffffffffffffffffffffffffffffffffffffff1673ffffffffffffffffffffffffffffffffffffffff163373ffffffffffffffffffffffffffffffffffffffff1614610771576040517f08c379a0000000000000000000000000000000000000000000000000000000008152600401610768906123ab565b60405180910390fd5b6001600281111561078557610784611c70565b5b61078d610a9b565b600281111561079f5761079e611c70565b5b146107df576040517f08c379a00000000000000000000000000000000000000000000000000000000081526004016107d69061243d565b60405180910390fd5b60006001600a546107f09190612527565b905080826000018181525050600782908060018154018082558091505060019003906000526020600020906003020160009091909190915060008201518160000155602082015181600101908051906020019061084e9291906115c5565b50604082015181600201908051906020019061086b9291906115c5565b505050600f60019054906101000a900473ffffffffffffffffffffffffffffffffffffffff1673ffffffffffffffffffffffffffffffffffffffff1663e844d09783600001516040518263ffffffff1660e01b81526004016108cd919061190a565b600060405180830381600087803b1580156108e757600080fd5b505af11580156108fb573d6000803e3d6000fd5b5050505081600960008460000151815260200190815260200160002060008201518160000155602082015181600101908051906020019061093d9291906115c5565b50604082015181600201908051906020019061095a9291906115c5565b50905050600a60008154809291906109719061257d565b91905055507f4d9dd414a40890e16b7bd0ea98bdf9d5b55c3d20cfe4b18febda0d60fb32a60c30600f60019054906101000a900473ffffffffffffffffffffffffffffffffffffffff16846040516109cb939291906125c6565b60405180910390a15050565b6000600a54905090565b6000600b60009054906101000a900473ffffffffffffffffffffffffffffffffffffffff1673ffffffffffffffffffffffffffffffffffffffff163373ffffffffffffffffffffffffffffffffffffffff1614610a73576040517f08c379a0000000000000000000000000000000000000000000000000000000008152600401610a6a90612676565b60405180910390fd5b601060009054906101000a900473ffffffffffffffffffffffffffffffffffffffff16905090565b60008060030154421015610ab25760019050610acd565b600060040154421015610ac85760009050610acd565b600290505b90565b6000600f60019054906101000a900473ffffffffffffffffffffffffffffffffffffffff1673ffffffffffffffffffffffffffffffffffffffff1663521b0dcc836040518263ffffffff1660e01b8152600401610b2d9190611c55565b602060405180830381865afa158015610b4a573d6000803e3d6000fd5b505050506040513d601f19601f82011682018060405250810190610b6e91906126ab565b9050919050565b610b7d61164b565b6009600083815260200190815260200160002060405180606001604052908160008201548152602001600182018054610bb5906122f6565b80601f0160208091040260200160405190810160405280929190818152602001828054610be1906122f6565b8015610c2e5780601f10610c0357610100808354040283529160200191610c2e565b820191906000526020600020905b815481529060010190602001808311610c1157829003601f168201915b50505050508152602001600282018054610c47906122f6565b80601f0160208091040260200160405190810160405280929190818152602001828054610c73906122f6565b8015610cc05780601f10610c9557610100808354040283529160200191610cc0565b820191906000526020600020905b815481529060010190602001808311610ca357829003601f168201915b5050505050815250509050919050565b610cd861166c565b60006040518060c001604052908160008201548152602001600182018054610cff906122f6565b80601f0160208091040260200160405190810160405280929190818152602001828054610d2b906122f6565b8015610d785780601f10610d4d57610100808354040283529160200191610d78565b820191906000526020600020905b815481529060010190602001808311610d5b57829003601f168201915b50505050508152602001600282018054610d91906122f6565b80601f0160208091040260200160405190810160405280929190818152602001828054610dbd906122f6565b8015610e0a5780601f10610ddf57610100808354040283529160200191610e0a565b820191906000526020600020905b815481529060010190602001808311610ded57829003601f168201915b5050505050815260200160038201548152602001600482015481526020016005820160009054906101000a900460ff161515151581525050905090565b6000600b60009054906101000a900473ffffffffffffffffffffffffffffffffffffffff1673ffffffffffffffffffffffffffffffffffffffff163373ffffffffffffffffffffffffffffffffffffffff1614610ed9576040517f08c379a0000000000000000000000000000000000000000000000000000000008152600401610ed090612676565b60405180910390fd5b600f60019054906101000a900473ffffffffffffffffffffffffffffffffffffffff16905090565b600b60009054906101000a900473ffffffffffffffffffffffffffffffffffffffff1673ffffffffffffffffffffffffffffffffffffffff163373ffffffffffffffffffffffffffffffffffffffff1614610f91576040517f08c379a0000000000000000000000000000000000000000000000000000000008152600401610f8890612676565b60405180910390fd5b60016002811115610fa557610fa4611c70565b5b610fad610a9b565b6002811115610fbf57610fbe611c70565b5b14610fff576040517f08c379a0000000000000000000000000000000000000000000000000000000008152600401610ff69061274a565b60405180910390fd5b80600080820151816000015560208201518160010190805190602001906110279291906115c5565b5060408201518160020190805190602001906110449291906115c5565b50606082015181600301556080820151816004015560a08201518160050160006101000a81548160ff02191690831515021790555090505050565b600660009054906101000a900473ffffffffffffffffffffffffffffffffffffffff1681565b60606002808111156110ba576110b9611c70565b5b6110c2610a9b565b60028111156110d4576110d3611c70565b5b14611114576040517f08c379a000000000000000000000000000000000000000000000000000000000815260040161110b906127dc565b60405180910390fd5b60001515600f60009054906101000a900460ff16151514156112ba57601060009054906101000a900473ffffffffffffffffffffffffffffffffffffffff1673ffffffffffffffffffffffffffffffffffffffff1663c8344a20600f60019054906101000a900473ffffffffffffffffffffffffffffffffffffffff16600d546040518363ffffffff1660e01b81526004016111b192919061281d565b6000604051808303816000875af11580156111d0573d6000803e3d6000fd5b505050506040513d6000823e3d601f19601f820116820180604052508101906111f991906128f2565b6008908051906020019061120e9291906116a4565b506001600f60006101000a81548160ff0219169083151502179055507f28e5f582afeee46fd13ea548ad814f45b1d4a5159990336d5e66deb48a960e4c600860405161125a9190612a11565b60405180910390a160088054806020026020016040519081016040528092919081815260200182805480156112ae57602002820191906000526020600020905b81548152602001906001019080831161129a575b505050505090506112c5565b6112c26112c8565b90505b90565b606060011515600f60009054906101000a900460ff16151514611320576040517f08c379a000000000000000000000000000000000000000000000000000000000815260040161131790612a7f565b60405180910390fd5b600880548060200260200160405190810160405280929190818152602001828054801561136c57602002820191906000526020600020905b815481526020019060010190808311611358575b5050505050905090565b6000600b60009054906101000a900473ffffffffffffffffffffffffffffffffffffffff16905090565b6113a933611520565b6113e8576040517f08c379a00000000000000000000000000000000000000000000000000000000081526004016113df90612aeb565b60405180910390fd5b600f60019054906101000a900473ffffffffffffffffffffffffffffffffffffffff1673ffffffffffffffffffffffffffffffffffffffff1663a1818ac4338585856040518563ffffffff1660e01b81526004016114499493929190612b0b565b600060405180830381600087803b15801561146357600080fd5b505af1158015611477573d6000803e3d6000fd5b50505050600d600081548092919061148e9061257d565b91905055507fd589db416dab4dff131e94610b2d02ce215ded85a2943a2ea59acd2153a85182600f60019054906101000a900473ffffffffffffffffffffffffffffffffffffffff1660096000868152602001908152602001600020846040516114fa93929190612c4e565b60405180910390a1505050565b60008060050160009054906101000a900460ff16905090565b6000600660009054906101000a900473ffffffffffffffffffffffffffffffffffffffff1673ffffffffffffffffffffffffffffffffffffffff166314bde88e836040518263ffffffff1660e01b815260040161157d9190611c55565b602060405180830381865afa15801561159a573d6000803e3d6000fd5b505050506040513d601f19601f820116820180604052508101906115be91906126ab565b9050919050565b8280546115d1906122f6565b90600052602060002090601f0160209004810192826115f3576000855561163a565b82601f1061160c57805160ff191683800117855561163a565b8280016001018555821561163a579182015b8281111561163957825182559160200191906001019061161e565b5b50905061164791906116f1565b5090565b60405180606001604052806000815260200160608152602001606081525090565b6040518060c0016040528060008152602001606081526020016060815260200160008152602001600081526020016000151581525090565b8280548282559060005260206000209081019282156116e0579160200282015b828111156116df5782518255916020019190600101906116c4565b5b5090506116ed91906116f1565b5090565b5b8082111561170a5760008160009055506001016116f2565b5090565b600081519050919050565b600082825260208201905092915050565b6000819050602082019050919050565b6000819050919050565b61174d8161173a565b82525050565b600081519050919050565b600082825260208201905092915050565b60005b8381101561178d578082015181840152602081019050611772565b8381111561179c576000848401525b50505050565b6000601f19601f8301169050919050565b60006117be82611753565b6117c8818561175e565b93506117d881856020860161176f565b6117e1816117a2565b840191505092915050565b60006060830160008301516118046000860182611744565b506020830151848203602086015261181c82826117b3565b9150506040830151848203604086015261183682826117b3565b9150508091505092915050565b600061184f83836117ec565b905092915050565b6000602082019050919050565b600061186f8261170e565b6118798185611719565b93508360208202850161188b8561172a565b8060005b858110156118c757848403895281516118a88582611843565b94506118b383611857565b925060208a0199505060018101905061188f565b50829750879550505050505092915050565b600060208201905081810360008301526118f38184611864565b905092915050565b6119048161173a565b82525050565b600060208201905061191f60008301846118fb565b92915050565b6000604051905090565b600080fd5b600080fd5b600080fd5b600080fd5b7f4e487b7100000000000000000000000000000000000000000000000000000000600052604160045260246000fd5b61197b826117a2565b810181811067ffffffffffffffff8211171561199a57611999611943565b5b80604052505050565b60006119ad611925565b90506119b98282611972565b919050565b600067ffffffffffffffff8211156119d9576119d8611943565b5b6119e2826117a2565b9050602081019050919050565b82818337600083830152505050565b6000611a11611a0c846119be565b6119a3565b905082815260208101848484011115611a2d57611a2c61193e565b5b611a388482856119ef565b509392505050565b600082601f830112611a5557611a54611939565b5b8135611a658482602086016119fe565b91505092915050565b611a778161173a565b8114611a8257600080fd5b50565b600081359050611a9481611a6e565b92915050565b600080600060608486031215611ab357611ab261192f565b5b600084013567ffffffffffffffff811115611ad157611ad0611934565b5b611add86828701611a40565b935050602084013567ffffffffffffffff811115611afe57611afd611934565b5b611b0a86828701611a40565b9250506040611b1b86828701611a85565b9150509250925092565b600080fd5b600080fd5b600060608284031215611b4557611b44611b25565b5b611b4f60606119a3565b90506000611b5f84828501611a85565b600083015250602082013567ffffffffffffffff811115611b8357611b82611b2a565b5b611b8f84828501611a40565b602083015250604082013567ffffffffffffffff811115611bb357611bb2611b2a565b5b611bbf84828501611a40565b60408301525092915050565b600060208284031215611be157611be061192f565b5b600082013567ffffffffffffffff811115611bff57611bfe611934565b5b611c0b84828501611b2f565b91505092915050565b600073ffffffffffffffffffffffffffffffffffffffff82169050919050565b6000611c3f82611c14565b9050919050565b611c4f81611c34565b82525050565b6000602082019050611c6a6000830184611c46565b92915050565b7f4e487b7100000000000000000000000000000000000000000000000000000000600052602160045260246000fd5b60038110611cb057611caf611c70565b5b50565b6000819050611cc182611c9f565b919050565b6000611cd182611cb3565b9050919050565b611ce181611cc6565b82525050565b6000602082019050611cfc6000830184611cd8565b92915050565b611d0b81611c34565b8114611d1657600080fd5b50565b600081359050611d2881611d02565b92915050565b600060208284031215611d4457611d4361192f565b5b6000611d5284828501611d19565b91505092915050565b60008115159050919050565b611d7081611d5b565b82525050565b6000602082019050611d8b6000830184611d67565b92915050565b600060208284031215611da757611da661192f565b5b6000611db584828501611a85565b91505092915050565b6000606083016000830151611dd66000860182611744565b5060208301518482036020860152611dee82826117b3565b91505060408301518482036040860152611e0882826117b3565b9150508091505092915050565b60006020820190508181036000830152611e2f8184611dbe565b905092915050565b611e4081611d5b565b82525050565b600060c083016000830151611e5e6000860182611744565b5060208301518482036020860152611e7682826117b3565b91505060408301518482036040860152611e9082826117b3565b9150506060830151611ea56060860182611744565b506080830151611eb86080860182611744565b5060a0830151611ecb60a0860182611e37565b508091505092915050565b60006020820190508181036000830152611ef08184611e46565b905092915050565b611f0181611d5b565b8114611f0c57600080fd5b50565b600081359050611f1e81611ef8565b92915050565b600060c08284031215611f3a57611f39611b25565b5b611f4460c06119a3565b90506000611f5484828501611a85565b600083015250602082013567ffffffffffffffff811115611f7857611f77611b2a565b5b611f8484828501611a40565b602083015250604082013567ffffffffffffffff811115611fa857611fa7611b2a565b5b611fb484828501611a40565b6040830152506060611fc884828501611a85565b6060830152506080611fdc84828501611a85565b60808301525060a0611ff084828501611f0f565b60a08301525092915050565b6000602082840312156120125761201161192f565b5b600082013567ffffffffffffffff8111156120305761202f611934565b5b61203c84828501611f24565b91505092915050565b6000819050919050565b600061206a61206561206084611c14565b612045565b611c14565b9050919050565b600061207c8261204f565b9050919050565b600061208e82612071565b9050919050565b61209e81612083565b82525050565b60006020820190506120b96000830184612095565b92915050565b600081519050919050565b600082825260208201905092915050565b6000819050602082019050919050565b60006120f78383611744565b60208301905092915050565b6000602082019050919050565b600061211b826120bf565b61212581856120ca565b9350612130836120db565b8060005b8381101561216157815161214888826120eb565b975061215383612103565b925050600181019050612134565b5085935050505092915050565b600060208201905081810360008301526121888184612110565b905092915050565b600067ffffffffffffffff8211156121ab576121aa611943565b5b602082029050602081019050919050565b600080fd5b60006121d46121cf84612190565b6119a3565b905080838252602082019050602084028301858111156121f7576121f66121bc565b5b835b81811015612220578061220c8882611a85565b8452602084019350506020810190506121f9565b5050509392505050565b600082601f83011261223f5761223e611939565b5b813561224f8482602086016121c1565b91505092915050565b6000806000606084860312156122715761227061192f565b5b600061227f86828701611a85565b935050602061229086828701611a85565b925050604084013567ffffffffffffffff8111156122b1576122b0611934565b5b6122bd8682870161222a565b9150509250925092565b7f4e487b7100000000000000000000000000000000000000000000000000000000600052602260045260246000fd5b6000600282049050600182168061230e57607f821691505b60208210811415612322576123216122c7565b5b50919050565b600082825260208201905092915050565b7f4d7573742062652063616c6c65642066726f6d2074686520656c656374696f6e60008201527f206f7267616e697a657220636f6e747261637400000000000000000000000000602082015250565b6000612395603383612328565b91506123a082612339565b604082019050919050565b600060208201905081810360008301526123c481612388565b9050919050565b7f43616e6e6f74206164642063616e6469646174657320616674657220656c656360008201527f74696f6e20686173207374617274656400000000000000000000000000000000602082015250565b6000612427603083612328565b9150612432826123cb565b604082019050919050565b600060208201905081810360008301526124568161241a565b9050919050565b7f43616e646964617465206e6f7420666f756e6400000000000000000000000000600082015250565b6000612493601383612328565b915061249e8261245d565b602082019050919050565b600060208201905081810360008301526124c281612486565b9050919050565b7f4e487b7100000000000000000000000000000000000000000000000000000000600052603260045260246000fd5b7f4e487b7100000000000000000000000000000000000000000000000000000000600052601160045260246000fd5b60006125328261173a565b915061253d8361173a565b9250827fffffffffffffffffffffffffffffffffffffffffffffffffffffffffffffffff03821115612572576125716124f8565b5b828201905092915050565b60006125888261173a565b91507fffffffffffffffffffffffffffffffffffffffffffffffffffffffffffffffff8214156125bb576125ba6124f8565b5b600182019050919050565b60006060820190506125db6000830186611c46565b6125e86020830185611c46565b81810360408301526125fa8184611dbe565b9050949350505050565b7f43616c6c6572206d7573742062652074686520656c656374696f6e206f72676160008201527f6e697a6572000000000000000000000000000000000000000000000000000000602082015250565b6000612660602583612328565b915061266b82612604565b604082019050919050565b6000602082019050818103600083015261268f81612653565b9050919050565b6000815190506126a581611ef8565b92915050565b6000602082840312156126c1576126c061192f565b5b60006126cf84828501612696565b91505092915050565b7f43616e6e6f742075706461746520656c656374696f6e20696e666f206166746560008201527f7220656c656374696f6e20686173207374617274656400000000000000000000602082015250565b6000612734603683612328565b915061273f826126d8565b604082019050919050565b6000602082019050818103600083015261276381612727565b9050919050565b7f526573756c747320617265206465636c61726564206f6e6c792061667465722060008201527f74686520656c656374696f6e20656e6473000000000000000000000000000000602082015250565b60006127c6603183612328565b91506127d18261276a565b604082019050919050565b600060208201905081810360008301526127f5816127b9565b9050919050565b600061280782612071565b9050919050565b612817816127fc565b82525050565b6000604082019050612832600083018561280e565b61283f60208301846118fb565b9392505050565b60008151905061285581611a6e565b92915050565b600061286e61286984612190565b6119a3565b90508083825260208201905060208402830185811115612891576128906121bc565b5b835b818110156128ba57806128a68882612846565b845260208401935050602081019050612893565b5050509392505050565b600082601f8301126128d9576128d8611939565b5b81516128e984826020860161285b565b91505092915050565b6000602082840312156129085761290761192f565b5b600082015167ffffffffffffffff81111561292657612925611934565b5b612932848285016128c4565b91505092915050565b600081549050919050565b60008190508160005260206000209050919050565b60008160001c9050919050565b6000819050919050565b60006129856129808361295b565b612968565b9050919050565b60006129988254612972565b9050919050565b6000600182019050919050565b60006129b78261293b565b6129c181856120ca565b93506129cc83612946565b8060005b83811015612a04576129e18261298c565b6129eb88826120eb565b97506129f68361299f565b9250506001810190506129d0565b5085935050505092915050565b60006020820190508181036000830152612a2b81846129ac565b905092915050565b7f526573756c7473206172656e2774206465636c61726564207965740000000000600082015250565b6000612a69601b83612328565b9150612a7482612a33565b602082019050919050565b60006020820190508181036000830152612a9881612a5c565b9050919050565b7f55736572204e6f742041757468656e7469636174656400000000000000000000600082015250565b6000612ad5601683612328565b9150612ae082612a9f565b602082019050919050565b60006020820190508181036000830152612b0481612ac8565b9050919050565b6000608082019050612b206000830187611c46565b612b2d60208301866118fb565b612b3a60408301856118fb565b8181036060830152612b4c8184612110565b905095945050505050565b60008190508160005260206000209050919050565b60008154612b79816122f6565b612b83818661175e565b94506001821660008114612b9e5760018114612bb057612be3565b60ff1983168652602086019350612be3565b612bb985612b57565b60005b83811015612bdb57815481890152600182019150602081019050612bbc565b808801955050505b50505092915050565b6000606083016000808401549050612c0381612972565b612c106000870182611744565b50600184018583036020870152612c278382612b6c565b925050600284018583036040870152612c408382612b6c565b925050819250505092915050565b6000606082019050612c636000830186611c46565b8181036020830152612c758185612bec565b9050612c8460408301846118fb565b94935050505056fea2646970667358221220cf192bb9387c64b1da4470888afc0c221fee173c8f3b90280bbacdd6ecea6bde64736f6c634300080a0033",
  "linkReferences": {},
  "deployedLinkReferences": {}
}