{
  "_format": "hh-sol-artifact-1",
  "contractName": "MiMC",
  "sourceName": "contracts/MiMC.sol",
  "abi": [
    {
      "inputs": [
        {
          "internalType": "uint256",
          "name": "in_xL",
          "type": "uint256"
        },
        {
          "internalType": "uint256",
          "name": "in_xR",
          "type": "uint256"
        }
      ],
      "name": "MiMCSponge",
      "outputs": [
        {
          "internalType": "uint256",
          "name": "xL",
          "type": "uint256"
        },
        {
          "internalType": "uint256",
          "name": "xR",
          "type": "uint256"
        }
      ],
      "stateMutability": "pure",
      "type": "function"
    }
  ],
  "bytecode": "0x61015e610053600b82828239805160001a607314610046577f4e487b7100000000000000000000000000000000000000000000000000000000600052600060045260246000fd5b30600052607381538281f3fe73000000000000000000000000000000000000000030146080604052600436106100355760003560e01c8063f47d33b51461003a575b600080fd5b610054600480360381019061004f91906100b0565b61006b565b6040516100629291906100ff565b60405180910390f35b6000809250929050565b600080fd5b6000819050919050565b61008d8161007a565b811461009857600080fd5b50565b6000813590506100aa81610084565b92915050565b600080604083850312156100c7576100c6610075565b5b60006100d58582860161009b565b92505060206100e68582860161009b565b9150509250929050565b6100f98161007a565b82525050565b600060408201905061011460008301856100f0565b61012160208301846100f0565b939250505056fea2646970667358221220cd41a825e6a7c967bed12ccfb3c7adc7ecbef68971e4e96e2e6fd98a1cd4a21364736f6c634300080a0033",
  "linkReferences": {},
  "deployedLinkReferences": {}
}