{
  "contractName": "Authentication",
  "abi": [
    {
      "inputs": [
        {
          "internalType": "address",
          "name": "_user",
          "type": "address"
        }
      ],
      "name": "getAuthStatus",
      "outputs": [
        {
          "internalType": "bool",
          "name": "",
          "type": "bool"
        }
      ],
      "stateMutability": "view",
      "type": "function"
    }
  ],
  "bytecode": "0x608060405234801561001057600080fd5b506101a8806100206000396000f3fe608060405234801561001057600080fd5b506004361061002b5760003560e01c806314bde88e14610030575b600080fd5b61004a600480360381019061004591906100ca565b610060565b6040516100579190610102565b60405180910390f35b60008060008373ffffffffffffffffffffffffffffffffffffffff1673ffffffffffffffffffffffffffffffffffffffff16815260200190815260200160002060009054906101000a900460ff169050919050565b6000813590506100c48161015b565b92915050565b6000602082840312156100dc57600080fd5b60006100ea848285016100b5565b91505092915050565b6100fc8161012f565b82525050565b600060208201905061011760008301846100f3565b92915050565b60006101288261013b565b9050919050565b60008115159050919050565b600073ffffffffffffffffffffffffffffffffffffffff82169050919050565b6101648161011d565b811461016f57600080fd5b5056fea2646970667358221220fa7634e794077cdcf55fee357eeb767bdf4e67bd19f3e802f2260738cee07ca764736f6c63430008000033",
  "immutableReferences": {},
  "source": "// SPDX-License-Identifier: UNLICENSED\npragma solidity >=0.8.0;\nimport './ElectionOrganizer.sol';\n\ncontract Authentication {\n\n    /*\n        This contract would be to register users on the app.\n        Essentially it authenticates a public address to be an election organizer, who can:\n            -> who can initiate elections\n            -> see election statistics            \n    */\n\n    // Tells if a user is authenticated or not;\n    mapping(address => bool)userAuthStatus;\n\n    function getAuthStatus(address _user) public view returns(bool) {\n        return userAuthStatus[_user];\n    }\n\n}\n",
  "sourcePath": "/Users/rajranjan/gitProjects/agora-blockchain/server/contracts/Authentication.sol",
  "compiler": {
    "name": "solc",
    "version": "0.8.0+commit.c7dfd78e.Emscripten.clang"
  },
  "schemaVersion": "3.4.5",
  "updatedAt": "2022-08-22T18:37:34.008Z",
  "devdoc": {
    "kind": "dev",
    "methods": {},
    "version": 1
  },
  "userdoc": {
    "kind": "user",
    "methods": {},
    "version": 1
  }
}