{
  "contractName": "BordaResult",
  "abi": [
    {
      "inputs": [
        {
          "internalType": "uint256",
          "name": "",
          "type": "uint256"
        }
      ],
      "name": "winners",
      "outputs": [
        {
          "internalType": "uint256",
          "name": "",
          "type": "uint256"
        }
      ],
      "stateMutability": "view",
      "type": "function"
    },
    {
      "inputs": [
        {
          "internalType": "uint256[][]",
          "name": "_votes",
          "type": "uint256[][]"
        },
        {
          "internalType": "uint256[]",
          "name": "_candidates",
          "type": "uint256[]"
        }
      ],
      "name": "borda",
      "outputs": [
        {
          "internalType": "uint256[]",
          "name": "",
          "type": "uint256[]"
        }
      ],
      "stateMutability": "nonpayable",
      "type": "function"
    },
    {
      "inputs": [
        {
          "internalType": "contract Ballot",
          "name": "_ballot",
          "type": "address"
        },
        {
          "internalType": "uint256",
          "name": "_voterCount",
          "type": "uint256"
        }
      ],
      "name": "getResult",
      "outputs": [
        {
          "internalType": "uint256[]",
          "name": "",
          "type": "uint256[]"
        }
      ],
      "stateMutability": "nonpayable",
      "type": "function"
    }
  ],
  "bytecode": "0x608060405234801561001057600080fd5b50610d61806100206000396000f3fe608060405234801561001057600080fd5b50600436106100415760003560e01c8063a2fb117514610046578063c5071fd314610076578063c8344a20146100a6575b600080fd5b610060600480360381019061005b91906109c2565b6100d6565b60405161006d9190610aa1565b60405180910390f35b610090600480360381019061008b91906108d9565b6100fa565b60405161009d9190610a7f565b60405180910390f35b6100c060048036038101906100bb9190610986565b6104b5565b6040516100cd9190610a7f565b60405180910390f35b600081815481106100e657600080fd5b906000526020600020016000915090505481565b60606000825167ffffffffffffffff81111561013f577f4e487b7100000000000000000000000000000000000000000000000000000000600052604160045260246000fd5b60405190808252806020026020018201604052801561016d5781602001602082028036833780820191505090505b50905060005b83518110156101d75760008282815181106101b7577f4e487b7100000000000000000000000000000000000000000000000000000000600052603260045260246000fd5b6020026020010181815250506001816101d09190610b7e565b9050610173565b5060005b84518110156103045760005b84518110156102f057858281518110610229577f4e487b7100000000000000000000000000000000000000000000000000000000600052603260045260246000fd5b60200260200101518181518110610269577f4e487b7100000000000000000000000000000000000000000000000000000000600052603260045260246000fd5b60200260200101516001865161027f9190610b7e565b6102899190610bd4565b8382815181106102c2577f4e487b7100000000000000000000000000000000000000000000000000000000600052603260045260246000fd5b602002602001018181516102d69190610b7e565b9150818152505080806102e890610c56565b9150506101e7565b5080806102fc90610c56565b9150506101db565b506000805b8451811015610459578183828151811061034c577f4e487b7100000000000000000000000000000000000000000000000000000000600052603260045260246000fd5b602002602001015114156103845760008190806001815401808255809150506001900390600052602060002001600090919091909150555b818382815181106103be577f4e487b7100000000000000000000000000000000000000000000000000000000600052603260045260246000fd5b6020026020010151111561044657828181518110610405577f4e487b7100000000000000000000000000000000000000000000000000000000600052603260045260246000fd5b6020026020010151915060008061041c91906105e1565b60008190806001815401808255809150506001900390600052602060002001600090919091909150555b808061045190610c56565b915050610309565b5060008054806020026020016040519081016040528092919081815260200182805480156104a657602002820191906000526020600020905b815481526020019060010190808311610492575b50505050509250505092915050565b606060008373ffffffffffffffffffffffffffffffffffffffff1663afa524086040518163ffffffff1660e01b8152600401600060405180830381600087803b15801561050157600080fd5b505af1158015610515573d6000803e3d6000fd5b505050506040513d6000823e3d601f19601f8201168201806040525081019061053e9190610898565b905060008473ffffffffffffffffffffffffffffffffffffffff166306a49fce6040518163ffffffff1660e01b815260040160006040518083038186803b15801561058857600080fd5b505afa15801561059c573d6000803e3d6000fd5b505050506040513d6000823e3d601f19601f820116820180604052508101906105c59190610945565b905060006105d383836100fa565b905080935050505092915050565b50805460008255906000526020600020908101906105ff9190610602565b50565b5b8082111561061b576000816000905550600101610603565b5090565b600061063261062d84610aed565b610abc565b9050808382526020820190508260005b8581101561067257813585016106588882610805565b845260208401935060208301925050600181019050610642565b5050509392505050565b600061068f61068a84610aed565b610abc565b9050808382526020820190508260005b858110156106cf57815185016106b5888261082f565b84526020840193506020830192505060018101905061069f565b5050509392505050565b60006106ec6106e784610b19565b610abc565b9050808382526020820190508285602086028201111561070b57600080fd5b60005b8581101561073b5781610721888261086e565b84526020840193506020830192505060018101905061070e565b5050509392505050565b600061075861075384610b19565b610abc565b9050808382526020820190508285602086028201111561077757600080fd5b60005b858110156107a7578161078d8882610883565b84526020840193506020830192505060018101905061077a565b5050509392505050565b600082601f8301126107c257600080fd5b81356107d284826020860161061f565b91505092915050565b600082601f8301126107ec57600080fd5b81516107fc84826020860161067c565b91505092915050565b600082601f83011261081657600080fd5b81356108268482602086016106d9565b91505092915050565b600082601f83011261084057600080fd5b8151610850848260208601610745565b91505092915050565b60008135905061086881610cfd565b92915050565b60008135905061087d81610d14565b92915050565b60008151905061089281610d14565b92915050565b6000602082840312156108aa57600080fd5b600082015167ffffffffffffffff8111156108c457600080fd5b6108d0848285016107db565b91505092915050565b600080604083850312156108ec57600080fd5b600083013567ffffffffffffffff81111561090657600080fd5b610912858286016107b1565b925050602083013567ffffffffffffffff81111561092f57600080fd5b61093b85828601610805565b9150509250929050565b60006020828403121561095757600080fd5b600082015167ffffffffffffffff81111561097157600080fd5b61097d8482850161082f565b91505092915050565b6000806040838503121561099957600080fd5b60006109a785828601610859565b92505060206109b88582860161086e565b9150509250929050565b6000602082840312156109d457600080fd5b60006109e28482850161086e565b91505092915050565b60006109f78383610a61565b60208301905092915050565b6000610a0e82610b55565b610a188185610b6d565b9350610a2383610b45565b8060005b83811015610a54578151610a3b88826109eb565b9750610a4683610b60565b925050600181019050610a27565b5085935050505092915050565b610a6a81610c4c565b82525050565b610a7981610c4c565b82525050565b60006020820190508181036000830152610a998184610a03565b905092915050565b6000602082019050610ab66000830184610a70565b92915050565b6000604051905081810181811067ffffffffffffffff82111715610ae357610ae2610cce565b5b8060405250919050565b600067ffffffffffffffff821115610b0857610b07610cce565b5b602082029050602081019050919050565b600067ffffffffffffffff821115610b3457610b33610cce565b5b602082029050602081019050919050565b6000819050602082019050919050565b600081519050919050565b6000602082019050919050565b600082825260208201905092915050565b6000610b8982610c4c565b9150610b9483610c4c565b9250827fffffffffffffffffffffffffffffffffffffffffffffffffffffffffffffffff03821115610bc957610bc8610c9f565b5b828201905092915050565b6000610bdf82610c4c565b9150610bea83610c4c565b925082821015610bfd57610bfc610c9f565b5b828203905092915050565b6000610c1382610c2c565b9050919050565b6000610c2582610c08565b9050919050565b600073ffffffffffffffffffffffffffffffffffffffff82169050919050565b6000819050919050565b6000610c6182610c4c565b91507fffffffffffffffffffffffffffffffffffffffffffffffffffffffffffffffff821415610c9457610c93610c9f565b5b600182019050919050565b7f4e487b7100000000000000000000000000000000000000000000000000000000600052601160045260246000fd5b7f4e487b7100000000000000000000000000000000000000000000000000000000600052604160045260246000fd5b610d0681610c1a565b8114610d1157600080fd5b50565b610d1d81610c4c565b8114610d2857600080fd5b5056fea2646970667358221220bec1b76642477bb0a557e2eae2ee679a4e585ced49890e09d5e0a85a2b803f5b64736f6c63430008000033",
  "immutableReferences": {},
  "source": "// SPDX-License-Identifier: UNLICENSED\npragma solidity >=0.8.0;\n\nimport './ResultCalculator.sol';\nimport '../ballot/Ballot.sol';\n\n\ncontract BordaResult is  ResultCalculator{\n        uint[] public winners;\n\n        function borda(uint[][] memory _votes, uint[] memory _candidates) public returns (uint[] memory) {\n            uint256[] memory tally = new uint256[](_candidates.length);\n            for (uint i = 0; i < _candidates.length; i+=1) {\n            tally[i] = 0;\n        }\n        for (uint i = 0; i < _votes.length; i++) {\n            for (uint j = 0; j < _candidates.length; j++) {\n            tally[j] += _candidates.length + 1 - _votes[i][j];\n            }\n        }\n\n        uint threshold = 0;\n\n        for (uint i = 0; i < _candidates.length; i++) {\n            if (tally[i] == threshold) {\n            winners.push(i);\n        }\n        if (tally[i] > threshold) {\n            threshold = tally[i];\n            delete winners;\n            winners.push(i);\n            }\n        }\n            return winners;\n    }\n    function getResult(Ballot _ballot, uint _voterCount)external override returns(uint[] memory) {\n      \n       uint[][] memory _votes =  _ballot.getVoteArr();\n       uint [] memory _candidates  = _ballot.getCandidates();\n         uint [] memory  arr  = borda(_votes,_candidates) ;\n\n\n\n        return  arr;\n    }\n}",
  "sourcePath": "/Users/harsh/Desktop/projects/agora-blockchain/server/contracts/resultCalculator/BordaResult.sol",
  "compiler": {
    "name": "solc",
    "version": "0.8.0+commit.c7dfd78e.Emscripten.clang"
  },
  "schemaVersion": "3.4.12",
  "updatedAt": "2023-03-29T13:24:49.488Z",
  "devdoc": {
    "kind": "dev",
    "methods": {},
    "version": 1
  },
  "userdoc": {
    "kind": "user",
    "methods": {},
    "version": 1
  }
}