{
  "contractName": "BrightID",
  "abi": [
    {
      "inputs": [
        {
          "internalType": "uint256",
          "name": "",
          "type": "uint256"
        }
      ],
      "name": "verifiedUsers",
      "outputs": [
        {
          "internalType": "address",
          "name": "",
          "type": "address"
        }
      ],
      "stateMutability": "view",
      "type": "function"
    },
    {
      "inputs": [
        {
          "internalType": "address[]",
          "name": "addrs",
          "type": "address[]"
        },
        {
          "internalType": "uint256",
          "name": "timestamp",
          "type": "uint256"
        },
        {
          "internalType": "uint8",
          "name": "v",
          "type": "uint8"
        },
        {
          "internalType": "bytes32",
          "name": "r",
          "type": "bytes32"
        },
        {
          "internalType": "bytes32",
          "name": "s",
          "type": "bytes32"
        }
      ],
      "name": "verify",
      "outputs": [],
      "stateMutability": "nonpayable",
      "type": "function"
    },
    {
      "inputs": [],
      "name": "getVerifiers",
      "outputs": [
        {
          "internalType": "address[]",
          "name": "",
          "type": "address[]"
        }
      ],
      "stateMutability": "view",
      "type": "function"
    }
  ],
  "bytecode": "0x60806040527f736e617073686f7400000000000000000000000000000000000000000000000060015573b1d71f62bee34e9fc349234c201090c33bcdf6db600260006101000a81548173ffffffffffffffffffffffffffffffffffffffff021916908373ffffffffffffffffffffffffffffffffffffffff16021790555034801561008957600080fd5b5061093a806100996000396000f3fe608060405234801561001057600080fd5b50600436106100415760003560e01c80630213c0c51461004657806307763ec314610062578063a935e76614610092575b600080fd5b610060600480360381019061005b9190610428565b6100b0565b005b61007c600480360381019061007791906104b7565b610271565b60405161008991906106be565b60405180910390f35b61009a6102b0565b6040516100a791906106d9565b60405180910390f35b600060015486866040516020016100c993929190610685565b60405160208183030381529060405280519060200120905060006001828686866040516000815260200160405260405161010694939291906106fb565b6020604051602081039080840390855afa158015610128573d6000803e3d6000fd5b505050602060405103519050600260009054906101000a900473ffffffffffffffffffffffffffffffffffffffff1673ffffffffffffffffffffffffffffffffffffffff168173ffffffffffffffffffffffffffffffffffffffff16146101c4576040517f08c379a00000000000000000000000000000000000000000000000000000000081526004016101bb90610740565b60405180910390fd5b600087600081518110610200577f4e487b7100000000000000000000000000000000000000000000000000000000600052603260045260246000fd5b60200260200101519080600181540180825580915050600190039060005260206000200160009091909190916101000a81548173ffffffffffffffffffffffffffffffffffffffff021916908373ffffffffffffffffffffffffffffffffffffffff16021790555050505050505050565b6000818154811061028157600080fd5b906000526020600020016000915054906101000a900473ffffffffffffffffffffffffffffffffffffffff1681565b6060600080548060200260200160405190810160405280929190818152602001828054801561033457602002820191906000526020600020905b8160009054906101000a900473ffffffffffffffffffffffffffffffffffffffff1673ffffffffffffffffffffffffffffffffffffffff16815260200190600101908083116102ea575b5050505050905090565b600061035161034c84610791565b610760565b9050808382526020820190508285602086028201111561037057600080fd5b60005b858110156103a0578161038688826103aa565b845260208401935060208301925050600181019050610373565b5050509392505050565b6000813590506103b9816108a8565b92915050565b600082601f8301126103d057600080fd5b81356103e084826020860161033e565b91505092915050565b6000813590506103f8816108bf565b92915050565b60008135905061040d816108d6565b92915050565b600081359050610422816108ed565b92915050565b600080600080600060a0868803121561044057600080fd5b600086013567ffffffffffffffff81111561045a57600080fd5b610466888289016103bf565b9550506020610477888289016103fe565b945050604061048888828901610413565b9350506060610499888289016103e9565b92505060806104aa888289016103e9565b9150509295509295909350565b6000602082840312156104c957600080fd5b60006104d7848285016103fe565b91505092915050565b60006104ec8383610510565b60208301905092915050565b6000610504838361052e565b60208301905092915050565b61051981610812565b82525050565b61052881610812565b82525050565b61053781610812565b82525050565b6000610548826107cd565b61055281856107e5565b935061055d836107bd565b8060005b8381101561058e57815161057588826104e0565b9750610580836107d8565b925050600181019050610561565b5085935050505092915050565b60006105a6826107cd565b6105b081856107f6565b93506105bb836107bd565b8060005b838110156105ec5781516105d388826104f8565b97506105de836107d8565b9250506001810190506105bf565b5085935050505092915050565b61060281610824565b82525050565b61061961061482610824565b610865565b82525050565b600061062c600e83610801565b91507f4e6f7420617574686f72697a65640000000000000000000000000000000000006000830152602082019050919050565b61067061066b8261084e565b61086f565b82525050565b61067f81610858565b82525050565b60006106918286610608565b6020820191506106a1828561059b565b91506106ad828461065f565b602082019150819050949350505050565b60006020820190506106d3600083018461051f565b92915050565b600060208201905081810360008301526106f3818461053d565b905092915050565b600060808201905061071060008301876105f9565b61071d6020830186610676565b61072a60408301856105f9565b61073760608301846105f9565b95945050505050565b600060208201905081810360008301526107598161061f565b9050919050565b6000604051905081810181811067ffffffffffffffff8211171561078757610786610879565b5b8060405250919050565b600067ffffffffffffffff8211156107ac576107ab610879565b5b602082029050602081019050919050565b6000819050602082019050919050565b600081519050919050565b6000602082019050919050565b600082825260208201905092915050565b600081905092915050565b600082825260208201905092915050565b600061081d8261082e565b9050919050565b6000819050919050565b600073ffffffffffffffffffffffffffffffffffffffff82169050919050565b6000819050919050565b600060ff82169050919050565b6000819050919050565b6000819050919050565b7f4e487b7100000000000000000000000000000000000000000000000000000000600052604160045260246000fd5b6108b181610812565b81146108bc57600080fd5b50565b6108c881610824565b81146108d357600080fd5b50565b6108df8161084e565b81146108ea57600080fd5b50565b6108f681610858565b811461090157600080fd5b5056fea26469706673582212204d09c701461228be5c9f85ac8f64fde6917dca037a314f448a0e8073d0e304b464736f6c63430008000033",
  "immutableReferences": {},
  "source": "// SPDX-License-Identifier: UNLICENSED\npragma solidity >=0.8.0;\n\ncontract BrightID {\n    address[] public verifiedUsers;\n\n    //BrightID\n    bytes32 app = \"snapshot\";\n    address authorizedSigners = 0xb1d71F62bEe34E9Fc349234C201090c33BCdF6DB;\n\n    function verify(\n        address[] memory addrs,\n        uint256 timestamp,\n        uint8 v,\n        bytes32 r,\n        bytes32 s\n    ) public {\n        bytes32 message = keccak256(abi.encodePacked(app, addrs, timestamp));\n        address signer = ecrecover(message, v, r, s);\n        require(signer == authorizedSigners, \"Not authorized\");\n        verifiedUsers.push(addrs[0]);\n    }\n\n    function getVerifiers() public view returns (address[] memory) {\n        return verifiedUsers;\n    }\n}\n",
  "sourcePath": "/Users/harsh/Desktop/projects/agora-blockchain/server/contracts/BrightID.sol",
  "compiler": {
    "name": "solc",
    "version": "0.8.0+commit.c7dfd78e.Emscripten.clang"
  },
  "schemaVersion": "3.4.12",
  "updatedAt": "2023-02-26T09:28:41.405Z",
  "devdoc": {
    "kind": "dev",
    "methods": {},
    "version": 1
  },
  "userdoc": {
    "kind": "user",
    "methods": {},
    "version": 1
  }
}