{
  "contractName": "ElectionOrganizer",
  "abi": [
    {
      "inputs": [],
      "stateMutability": "nonpayable",
      "type": "constructor"
    },
    {
      "anonymous": false,
      "inputs": [
        {
          "indexed": false,
          "internalType": "address",
          "name": "election",
          "type": "address"
        },
        {
          "components": [
            {
              "internalType": "uint256",
              "name": "candidateID",
              "type": "uint256"
            },
            {
              "internalType": "string",
              "name": "name",
              "type": "string"
            },
            {
              "internalType": "string",
              "name": "description",
              "type": "string"
            }
          ],
          "indexed": false,
          "internalType": "struct Election.Candidate",
          "name": "candidate",
          "type": "tuple"
        }
      ],
      "name": "CandidateAdded",
      "type": "event"
    },
    {
      "anonymous": false,
      "inputs": [
        {
          "indexed": false,
          "internalType": "address",
          "name": "election",
          "type": "address"
        }
      ],
      "name": "CreatedElection",
      "type": "event"
    },
    {
      "inputs": [],
      "name": "getElectionStorage",
      "outputs": [
        {
          "internalType": "address",
          "name": "",
          "type": "address"
        }
      ],
      "stateMutability": "view",
      "type": "function"
    },
    {
      "inputs": [],
      "name": "getElectionFactory",
      "outputs": [
        {
          "internalType": "address",
          "name": "",
          "type": "address"
        }
      ],
      "stateMutability": "view",
      "type": "function"
    },
    {
      "inputs": [
        {
          "components": [
            {
              "internalType": "uint256",
              "name": "organizerID",
              "type": "uint256"
            },
            {
              "internalType": "string",
              "name": "name",
              "type": "string"
            },
            {
              "internalType": "address",
              "name": "publicAddress",
              "type": "address"
            }
          ],
          "internalType": "struct ElectionOrganizer.OrganizerInfo",
          "name": "_organizerInfo",
          "type": "tuple"
        }
      ],
      "name": "addElectionOrganizer",
      "outputs": [],
      "stateMutability": "nonpayable",
      "type": "function"
    },
    {
      "inputs": [],
      "name": "getElectionOrganizers",
      "outputs": [
        {
          "components": [
            {
              "internalType": "uint256",
              "name": "organizerID",
              "type": "uint256"
            },
            {
              "internalType": "string",
              "name": "name",
              "type": "string"
            },
            {
              "internalType": "address",
              "name": "publicAddress",
              "type": "address"
            }
          ],
          "internalType": "struct ElectionOrganizer.OrganizerInfo[]",
          "name": "",
          "type": "tuple[]"
        }
      ],
      "stateMutability": "view",
      "type": "function"
    },
    {
      "inputs": [
        {
          "internalType": "uint256",
          "name": "_organizerID",
          "type": "uint256"
        }
      ],
      "name": "getElectionOrganizerByID",
      "outputs": [
        {
          "components": [
            {
              "internalType": "uint256",
              "name": "organizerID",
              "type": "uint256"
            },
            {
              "internalType": "string",
              "name": "name",
              "type": "string"
            },
            {
              "internalType": "address",
              "name": "publicAddress",
              "type": "address"
            }
          ],
          "internalType": "struct ElectionOrganizer.OrganizerInfo",
          "name": "",
          "type": "tuple"
        }
      ],
      "stateMutability": "view",
      "type": "function"
    },
    {
      "inputs": [
        {
          "internalType": "address",
          "name": "_address",
          "type": "address"
        }
      ],
      "name": "getElectionOrganizerByAddress",
      "outputs": [
        {
          "components": [
            {
              "internalType": "uint256",
              "name": "organizerID",
              "type": "uint256"
            },
            {
              "internalType": "string",
              "name": "name",
              "type": "string"
            },
            {
              "internalType": "address",
              "name": "publicAddress",
              "type": "address"
            }
          ],
          "internalType": "struct ElectionOrganizer.OrganizerInfo",
          "name": "",
          "type": "tuple"
        }
      ],
      "stateMutability": "view",
      "type": "function"
    },
    {
      "inputs": [
        {
          "components": [
            {
              "internalType": "uint256",
              "name": "electionID",
              "type": "uint256"
            },
            {
              "internalType": "string",
              "name": "name",
              "type": "string"
            },
            {
              "internalType": "string",
              "name": "description",
              "type": "string"
            },
            {
              "internalType": "uint256",
              "name": "startDate",
              "type": "uint256"
            },
            {
              "internalType": "uint256",
              "name": "endDate",
              "type": "uint256"
            }
          ],
          "internalType": "struct Election.ElectionInfo",
          "name": "_electionInfo",
          "type": "tuple"
        },
        {
          "internalType": "uint256",
          "name": "_ballotType",
          "type": "uint256"
        },
        {
          "internalType": "uint256",
          "name": "_resultCalculatorType",
          "type": "uint256"
        }
      ],
      "name": "createElection",
      "outputs": [],
      "stateMutability": "nonpayable",
      "type": "function"
    },
    {
      "inputs": [],
      "name": "getElections",
      "outputs": [
        {
          "internalType": "address[]",
          "name": "",
          "type": "address[]"
        }
      ],
      "stateMutability": "view",
      "type": "function"
    },
    {
      "inputs": [
        {
          "internalType": "uint256",
          "name": "_electionID",
          "type": "uint256"
        }
      ],
      "name": "getElectionByID",
      "outputs": [
        {
          "internalType": "address",
          "name": "",
          "type": "address"
        }
      ],
      "stateMutability": "view",
      "type": "function"
    },
    {
      "inputs": [],
      "name": "getElectionsOfOrganizer",
      "outputs": [
        {
          "internalType": "address[]",
          "name": "",
          "type": "address[]"
        }
      ],
      "stateMutability": "view",
      "type": "function"
    },
    {
      "inputs": [
        {
          "internalType": "contract Election",
          "name": "_election",
          "type": "address"
        },
        {
          "components": [
            {
              "internalType": "uint256",
              "name": "candidateID",
              "type": "uint256"
            },
            {
              "internalType": "string",
              "name": "name",
              "type": "string"
            },
            {
              "internalType": "string",
              "name": "description",
              "type": "string"
            }
          ],
          "internalType": "struct Election.Candidate",
          "name": "_candidate",
          "type": "tuple"
        }
      ],
      "name": "addCandidate",
      "outputs": [],
      "stateMutability": "nonpayable",
      "type": "function"
    },
    {
      "inputs": [
        {
          "internalType": "contract Election",
          "name": "_election",
          "type": "address"
        }
      ],
      "name": "getResult",
      "outputs": [
        {
          "internalType": "uint256[]",
          "name": "",
          "type": "uint256[]"
        }
      ],
      "stateMutability": "nonpayable",
      "type": "function"
    }
  ],
  "bytecode": "0x60806040523480156200001157600080fd5b5060646003819055506040516200002890620000f8565b604051809103906000f08015801562000045573d6000803e3d6000fd5b50600560006101000a81548173ffffffffffffffffffffffffffffffffffffffff021916908373ffffffffffffffffffffffffffffffffffffffff160217905550604051620000949062000106565b604051809103906000f080158015620000b1573d6000803e3d6000fd5b50600660006101000a81548173ffffffffffffffffffffffffffffffffffffffff021916908373ffffffffffffffffffffffffffffffffffffffff16021790555062000114565b610a51806200226583390190565b617ed68062002cb683390190565b61214180620001246000396000f3fe608060405234801561001057600080fd5b50600436106100b45760003560e01c8063446a37e011610071578063446a37e01461017b57806379db9ffe146101ab5780637f934bdb146101db5780639f3a7f52146101f7578063a8c0198714610215578063a95bc63514610233576100b4565b80630249ff4d146100b957806315d4ffa0146100d757806325fb97a9146100f3578063326e0d281461012357806332fb68cd1461013f57806339d8a4511461015d575b600080fd5b6100c1610263565b6040516100ce9190611b3f565b60405180910390f35b6100f160048036038101906100ec9190611673565b61028d565b005b61010d600480360381019061010891906116b4565b6104fc565b60405161011a9190611b3f565b60405180910390f35b61013d600480360381019061013891906115b8565b6105b0565b005b610147610745565b6040516101549190611b3f565b60405180910390f35b61016561076f565b6040516101729190611b8a565b60405180910390f35b61019560048036038101906101909190611566565b610826565b6040516101a29190611bce565b60405180910390f35b6101c560048036038101906101c091906116b4565b6108b4565b6040516101d29190611cd5565b60405180910390f35b6101f560048036038101906101f0919061160c565b6109d3565b005b6101ff610c9e565b60405161020c9190611b8a565b60405180910390f35b61021d610d4a565b60405161022a9190611bac565b60405180910390f35b61024d60048036038101906102489190611492565b610e9b565b60405161025a9190611cd5565b60405180910390f35b6000600560009054906101000a900473ffffffffffffffffffffffffffffffffffffffff16905090565b6000600160035461029e9190611ea3565b90508082600001818152505060008290806001815401808255809150506001900390600052602060002090600302016000909190919091506000820151816000015560208201518160010190805190602001906102fc929190610fe6565b5060408201518160020160006101000a81548173ffffffffffffffffffffffffffffffffffffffff021916908373ffffffffffffffffffffffffffffffffffffffff16021790555050508160016000846040015173ffffffffffffffffffffffffffffffffffffffff1673ffffffffffffffffffffffffffffffffffffffff1681526020019081526020016000206000820151816000015560208201518160010190805190602001906103b0929190610fe6565b5060408201518160020160006101000a81548173ffffffffffffffffffffffffffffffffffffffff021916908373ffffffffffffffffffffffffffffffffffffffff160217905550905050816002600084600001518152602001908152602001600020600082015181600001556020820151816001019080519060200190610439929190610fe6565b5060408201518160020160006101000a81548173ffffffffffffffffffffffffffffffffffffffff021916908373ffffffffffffffffffffffffffffffffffffffff160217905550905050600160046000846040015173ffffffffffffffffffffffffffffffffffffffff1673ffffffffffffffffffffffffffffffffffffffff16815260200190815260200160002060006101000a81548160ff021916908315150217905550600360008154809291906104f390611fdf565b91905055505050565b6000600560009054906101000a900473ffffffffffffffffffffffffffffffffffffffff1673ffffffffffffffffffffffffffffffffffffffff166325fb97a9836040518263ffffffff1660e01b81526004016105599190611cf7565b60206040518083038186803b15801561057157600080fd5b505afa158015610585573d6000803e3d6000fd5b505050506040513d601f19601f820116820180604052508101906105a991906114bb565b9050919050565b8173ffffffffffffffffffffffffffffffffffffffff1663e04b1c0c6040518163ffffffff1660e01b815260040160206040518083038186803b1580156105f657600080fd5b505afa15801561060a573d6000803e3d6000fd5b505050506040513d601f19601f8201168201806040525081019061062e91906114bb565b8073ffffffffffffffffffffffffffffffffffffffff163373ffffffffffffffffffffffffffffffffffffffff161461069c576040517f08c379a000000000000000000000000000000000000000000000000000000000815260040161069390611c39565b60405180910390fd5b8273ffffffffffffffffffffffffffffffffffffffff1663273ffe86836040518263ffffffff1660e01b81526004016106d59190611c59565b600060405180830381600087803b1580156106ef57600080fd5b505af1158015610703573d6000803e3d6000fd5b505050507fd0c201c1465de1cf8804d8aa806f3674abe49346aa6a18624a868dfa141089218383604051610738929190611b5a565b60405180910390a1505050565b6000600660009054906101000a900473ffffffffffffffffffffffffffffffffffffffff16905090565b6060600560009054906101000a900473ffffffffffffffffffffffffffffffffffffffff1673ffffffffffffffffffffffffffffffffffffffff166364372f73336040518263ffffffff1660e01b81526004016107cc9190611b3f565b60006040518083038186803b1580156107e457600080fd5b505afa1580156107f8573d6000803e3d6000fd5b505050506040513d6000823e3d601f19601f8201168201806040525081019061082191906114e4565b905090565b60608173ffffffffffffffffffffffffffffffffffffffff1663de2927896040518163ffffffff1660e01b8152600401600060405180830381600087803b15801561087057600080fd5b505af1158015610884573d6000803e3d6000fd5b505050506040513d6000823e3d601f19601f820116820180604052508101906108ad9190611525565b9050919050565b6108bc61106c565b60026000838152602001908152602001600020604051806060016040529081600082015481526020016001820180546108f490611fad565b80601f016020809104026020016040519081016040528092919081815260200182805461092090611fad565b801561096d5780601f106109425761010080835404028352916020019161096d565b820191906000526020600020905b81548152906001019060200180831161095057829003601f168201915b505050505081526020016002820160009054906101000a900473ffffffffffffffffffffffffffffffffffffffff1673ffffffffffffffffffffffffffffffffffffffff1673ffffffffffffffffffffffffffffffffffffffff16815250509050919050565b600460003373ffffffffffffffffffffffffffffffffffffffff1673ffffffffffffffffffffffffffffffffffffffff16815260200190815260200160002060009054906101000a900460ff16610a5f576040517f08c379a0000000000000000000000000000000000000000000000000000000008152600401610a5690611c19565b60405180910390fd5b6000806001600560009054906101000a900473ffffffffffffffffffffffffffffffffffffffff1673ffffffffffffffffffffffffffffffffffffffff1663213785a06040518163ffffffff1660e01b815260040160206040518083038186803b158015610acc57600080fd5b505afa158015610ae0573d6000803e3d6000fd5b505050506040513d601f19601f82011682018060405250810190610b0491906116dd565b610b0e9190611ea3565b905080856000018181525050600660009054906101000a900473ffffffffffffffffffffffffffffffffffffffff1673ffffffffffffffffffffffffffffffffffffffff16631140fc1986868633306040518663ffffffff1660e01b8152600401610b7d959493929190611c7b565b602060405180830381600087803b158015610b9757600080fd5b505af1158015610bab573d6000803e3d6000fd5b505050506040513d601f19601f82011682018060405250810190610bcf919061158f565b9150600560009054906101000a900473ffffffffffffffffffffffffffffffffffffffff1673ffffffffffffffffffffffffffffffffffffffff166387b4e8d383336040518363ffffffff1660e01b8152600401610c2e929190611bf0565b600060405180830381600087803b158015610c4857600080fd5b505af1158015610c5c573d6000803e3d6000fd5b505050507f49fdfe60e25ebf09e8f8c20a8a10c828d9b82cecf7b04e1ecb59ae51f79f827782604051610c8f9190611b3f565b60405180910390a15050505050565b6060600560009054906101000a900473ffffffffffffffffffffffffffffffffffffffff1673ffffffffffffffffffffffffffffffffffffffff16639f3a7f526040518163ffffffff1660e01b815260040160006040518083038186803b158015610d0857600080fd5b505afa158015610d1c573d6000803e3d6000fd5b505050506040513d6000823e3d601f19601f82011682018060405250810190610d4591906114e4565b905090565b60606000805480602002602001604051908101604052809291908181526020016000905b82821015610e92578382906000526020600020906003020160405180606001604052908160008201548152602001600182018054610dab90611fad565b80601f0160208091040260200160405190810160405280929190818152602001828054610dd790611fad565b8015610e245780601f10610df957610100808354040283529160200191610e24565b820191906000526020600020905b815481529060010190602001808311610e0757829003601f168201915b505050505081526020016002820160009054906101000a900473ffffffffffffffffffffffffffffffffffffffff1673ffffffffffffffffffffffffffffffffffffffff1673ffffffffffffffffffffffffffffffffffffffff168152505081526020019060010190610d6e565b50505050905090565b610ea361106c565b600160008373ffffffffffffffffffffffffffffffffffffffff1673ffffffffffffffffffffffffffffffffffffffff16815260200190815260200160002060405180606001604052908160008201548152602001600182018054610f0790611fad565b80601f0160208091040260200160405190810160405280929190818152602001828054610f3390611fad565b8015610f805780601f10610f5557610100808354040283529160200191610f80565b820191906000526020600020905b815481529060010190602001808311610f6357829003601f168201915b505050505081526020016002820160009054906101000a900473ffffffffffffffffffffffffffffffffffffffff1673ffffffffffffffffffffffffffffffffffffffff1673ffffffffffffffffffffffffffffffffffffffff16815250509050919050565b828054610ff290611fad565b90600052602060002090601f016020900481019282611014576000855561105b565b82601f1061102d57805160ff191683800117855561105b565b8280016001018555821561105b579182015b8281111561105a57825182559160200191906001019061103f565b5b50905061106891906110a3565b5090565b60405180606001604052806000815260200160608152602001600073ffffffffffffffffffffffffffffffffffffffff1681525090565b5b808211156110bc5760008160009055506001016110a4565b5090565b60006110d36110ce84611d43565b611d12565b905080838252602082019050828560208602820111156110f257600080fd5b60005b85811015611122578161110888826111eb565b8452602084019350602083019250506001810190506110f5565b5050509392505050565b600061113f61113a84611d6f565b611d12565b9050808382526020820190508285602086028201111561115e57600080fd5b60005b8581101561118e5781611174888261147d565b845260208401935060208301925050600181019050611161565b5050509392505050565b60006111ab6111a684611d9b565b611d12565b9050828152602081018484840111156111c357600080fd5b6111ce848285611f6b565b509392505050565b6000813590506111e5816120c6565b92915050565b6000815190506111fa816120c6565b92915050565b600082601f83011261121157600080fd5b81516112218482602086016110c0565b91505092915050565b600082601f83011261123b57600080fd5b815161124b84826020860161112c565b91505092915050565b600081359050611263816120dd565b92915050565b600081519050611278816120dd565b92915050565b600082601f83011261128f57600080fd5b813561129f848260208601611198565b91505092915050565b6000606082840312156112ba57600080fd5b6112c46060611d12565b905060006112d484828501611468565b600083015250602082013567ffffffffffffffff8111156112f457600080fd5b6113008482850161127e565b602083015250604082013567ffffffffffffffff81111561132057600080fd5b61132c8482850161127e565b60408301525092915050565b600060a0828403121561134a57600080fd5b61135460a0611d12565b9050600061136484828501611468565b600083015250602082013567ffffffffffffffff81111561138457600080fd5b6113908482850161127e565b602083015250604082013567ffffffffffffffff8111156113b057600080fd5b6113bc8482850161127e565b60408301525060606113d084828501611468565b60608301525060806113e484828501611468565b60808301525092915050565b60006060828403121561140257600080fd5b61140c6060611d12565b9050600061141c84828501611468565b600083015250602082013567ffffffffffffffff81111561143c57600080fd5b6114488482850161127e565b602083015250604061145c848285016111d6565b60408301525092915050565b600081359050611477816120f4565b92915050565b60008151905061148c816120f4565b92915050565b6000602082840312156114a457600080fd5b60006114b2848285016111d6565b91505092915050565b6000602082840312156114cd57600080fd5b60006114db848285016111eb565b91505092915050565b6000602082840312156114f657600080fd5b600082015167ffffffffffffffff81111561151057600080fd5b61151c84828501611200565b91505092915050565b60006020828403121561153757600080fd5b600082015167ffffffffffffffff81111561155157600080fd5b61155d8482850161122a565b91505092915050565b60006020828403121561157857600080fd5b600061158684828501611254565b91505092915050565b6000602082840312156115a157600080fd5b60006115af84828501611269565b91505092915050565b600080604083850312156115cb57600080fd5b60006115d985828601611254565b925050602083013567ffffffffffffffff8111156115f657600080fd5b611602858286016112a8565b9150509250929050565b60008060006060848603121561162157600080fd5b600084013567ffffffffffffffff81111561163b57600080fd5b61164786828701611338565b935050602061165886828701611468565b925050604061166986828701611468565b9150509250925092565b60006020828403121561168557600080fd5b600082013567ffffffffffffffff81111561169f57600080fd5b6116ab848285016113f0565b91505092915050565b6000602082840312156116c657600080fd5b60006116d484828501611468565b91505092915050565b6000602082840312156116ef57600080fd5b60006116fd8482850161147d565b91505092915050565b6000611712838361174a565b60208301905092915050565b600061172a8383611a81565b905092915050565b600061173e8383611b21565b60208301905092915050565b61175381611ef9565b82525050565b61176281611ef9565b82525050565b600061177382611dfb565b61177d8185611e4e565b935061178883611dcb565b8060005b838110156117b95781516117a08882611706565b97506117ab83611e27565b92505060018101905061178c565b5085935050505092915050565b60006117d182611e06565b6117db8185611e5f565b9350836020820285016117ed85611ddb565b8060005b85811015611829578484038952815161180a858261171e565b945061181583611e34565b925060208a019950506001810190506117f1565b50829750879550505050505092915050565b600061184682611e11565b6118508185611e70565b935061185b83611deb565b8060005b8381101561188c5781516118738882611732565b975061187e83611e41565b92505060018101905061185f565b5085935050505092915050565b6118a281611f47565b82525050565b60006118b382611e1c565b6118bd8185611e81565b93506118cd818560208601611f7a565b6118d6816120b5565b840191505092915050565b60006118ee603283611e92565b91507f4f6e6c792061636365737369626c65206279207573657273207265676973657460008301527f65726564206173206f7267616e697a65727300000000000000000000000000006020830152604082019050919050565b6000611954603783611e92565b91507f4f6e6c792061636365737369626c652062792074686520636f72726573706f6e60008301527f64696e6720656c656374696f6e206f7267616e697a65720000000000000000006020830152604082019050919050565b60006060830160008301516119c56000860182611b21565b50602083015184820360208601526119dd82826118a8565b915050604083015184820360408601526119f782826118a8565b9150508091505092915050565b600060a083016000830151611a1c6000860182611b21565b5060208301518482036020860152611a3482826118a8565b91505060408301518482036040860152611a4e82826118a8565b9150506060830151611a636060860182611b21565b506080830151611a766080860182611b21565b508091505092915050565b6000606083016000830151611a996000860182611b21565b5060208301518482036020860152611ab182826118a8565b9150506040830151611ac6604086018261174a565b508091505092915050565b6000606083016000830151611ae96000860182611b21565b5060208301518482036020860152611b0182826118a8565b9150506040830151611b16604086018261174a565b508091505092915050565b611b2a81611f3d565b82525050565b611b3981611f3d565b82525050565b6000602082019050611b546000830184611759565b92915050565b6000604082019050611b6f6000830185611759565b8181036020830152611b8181846119ad565b90509392505050565b60006020820190508181036000830152611ba48184611768565b905092915050565b60006020820190508181036000830152611bc681846117c6565b905092915050565b60006020820190508181036000830152611be8818461183b565b905092915050565b6000604082019050611c056000830185611899565b611c126020830184611759565b9392505050565b60006020820190508181036000830152611c32816118e1565b9050919050565b60006020820190508181036000830152611c5281611947565b9050919050565b60006020820190508181036000830152611c7381846119ad565b905092915050565b600060a0820190508181036000830152611c958188611a04565b9050611ca46020830187611b30565b611cb16040830186611b30565b611cbe6060830185611759565b611ccb6080830184611759565b9695505050505050565b60006020820190508181036000830152611cef8184611ad1565b905092915050565b6000602082019050611d0c6000830184611b30565b92915050565b6000604051905081810181811067ffffffffffffffff82111715611d3957611d38612086565b5b8060405250919050565b600067ffffffffffffffff821115611d5e57611d5d612086565b5b602082029050602081019050919050565b600067ffffffffffffffff821115611d8a57611d89612086565b5b602082029050602081019050919050565b600067ffffffffffffffff821115611db657611db5612086565b5b601f19601f8301169050602081019050919050565b6000819050602082019050919050565b6000819050602082019050919050565b6000819050602082019050919050565b600081519050919050565b600081519050919050565b600081519050919050565b600081519050919050565b6000602082019050919050565b6000602082019050919050565b6000602082019050919050565b600082825260208201905092915050565b600082825260208201905092915050565b600082825260208201905092915050565b600082825260208201905092915050565b600082825260208201905092915050565b6000611eae82611f3d565b9150611eb983611f3d565b9250827fffffffffffffffffffffffffffffffffffffffffffffffffffffffffffffffff03821115611eee57611eed612028565b5b828201905092915050565b6000611f0482611f1d565b9050919050565b6000611f1682611ef9565b9050919050565b600073ffffffffffffffffffffffffffffffffffffffff82169050919050565b6000819050919050565b6000611f5282611f59565b9050919050565b6000611f6482611f1d565b9050919050565b82818337600083830152505050565b60005b83811015611f98578082015181840152602081019050611f7d565b83811115611fa7576000848401525b50505050565b60006002820490506001821680611fc557607f821691505b60208210811415611fd957611fd8612057565b5b50919050565b6000611fea82611f3d565b91507fffffffffffffffffffffffffffffffffffffffffffffffffffffffffffffffff82141561201d5761201c612028565b5b600182019050919050565b7f4e487b7100000000000000000000000000000000000000000000000000000000600052601160045260246000fd5b7f4e487b7100000000000000000000000000000000000000000000000000000000600052602260045260246000fd5b7f4e487b7100000000000000000000000000000000000000000000000000000000600052604160045260246000fd5b6000601f19601f8301169050919050565b6120cf81611ef9565b81146120da57600080fd5b50565b6120e681611f0b565b81146120f157600080fd5b50565b6120fd81611f3d565b811461210857600080fd5b5056fea26469706673582212207524105badf8f26dded5b6c9f1c1083d0f93fe1c9b470ea055e4fe212f5a280464736f6c63430008000033608060405234801561001057600080fd5b506103e8600481905550610a28806100296000396000f3fe608060405234801561001057600080fd5b50600436106100575760003560e01c8063213785a01461005c57806325fb97a91461007a57806364372f73146100aa57806387b4e8d3146100da5780639f3a7f52146100f6575b600080fd5b610064610114565b60405161007191906107d0565b60405180910390f35b610094600480360381019061008f91906106c7565b61011e565b6040516100a19190610793565b60405180910390f35b6100c460048036038101906100bf9190610621565b61015b565b6040516100d191906107ae565b60405180910390f35b6100f460048036038101906100ef919061064a565b610228565b005b6100fe61041f565b60405161010b91906107ae565b60405180910390f35b6000600454905090565b60006003600083815260200190815260200160002060009054906101000a900473ffffffffffffffffffffffffffffffffffffffff169050919050565b6060600260008373ffffffffffffffffffffffffffffffffffffffff1673ffffffffffffffffffffffffffffffffffffffff16815260200190815260200160002080548060200260200160405190810160405280929190818152602001828054801561021c57602002820191906000526020600020905b8160009054906101000a900473ffffffffffffffffffffffffffffffffffffffff1673ffffffffffffffffffffffffffffffffffffffff16815260200190600101908083116101d2575b50505050509050919050565b6004600081548092919061023b90610906565b91905055506000829080600181540180825580915050600190039060005260206000200160009091909190916101000a81548173ffffffffffffffffffffffffffffffffffffffff021916908373ffffffffffffffffffffffffffffffffffffffff160217905550600260008273ffffffffffffffffffffffffffffffffffffffff1673ffffffffffffffffffffffffffffffffffffffff168152602001908152602001600020829080600181540180825580915050600190039060005260206000200160009091909190916101000a81548173ffffffffffffffffffffffffffffffffffffffff021916908373ffffffffffffffffffffffffffffffffffffffff16021790555081600360008473ffffffffffffffffffffffffffffffffffffffff166386852dca6040518163ffffffff1660e01b815260040160006040518083038186803b15801561038e57600080fd5b505afa1580156103a2573d6000803e3d6000fd5b505050506040513d6000823e3d601f19601f820116820180604052508101906103cb9190610686565b60000151815260200190815260200160002060006101000a81548173ffffffffffffffffffffffffffffffffffffffff021916908373ffffffffffffffffffffffffffffffffffffffff1602179055505050565b606060008054806020026020016040519081016040528092919081815260200182805480156104a357602002820191906000526020600020905b8160009054906101000a900473ffffffffffffffffffffffffffffffffffffffff1673ffffffffffffffffffffffffffffffffffffffff1681526020019060010190808311610459575b5050505050905090565b60006104c06104bb8461081c565b6107eb565b9050828152602081018484840111156104d857600080fd5b6104e38482856108d3565b509392505050565b6000813590506104fa816109ad565b92915050565b60008135905061050f816109c4565b92915050565b600082601f83011261052657600080fd5b81516105368482602086016104ad565b91505092915050565b600060a0828403121561055157600080fd5b61055b60a06107eb565b9050600061056b8482850161060c565b600083015250602082015167ffffffffffffffff81111561058b57600080fd5b61059784828501610515565b602083015250604082015167ffffffffffffffff8111156105b757600080fd5b6105c384828501610515565b60408301525060606105d78482850161060c565b60608301525060806105eb8482850161060c565b60808301525092915050565b600081359050610606816109db565b92915050565b60008151905061061b816109db565b92915050565b60006020828403121561063357600080fd5b6000610641848285016104eb565b91505092915050565b6000806040838503121561065d57600080fd5b600061066b85828601610500565b925050602061067c858286016104eb565b9150509250929050565b60006020828403121561069857600080fd5b600082015167ffffffffffffffff8111156106b257600080fd5b6106be8482850161053f565b91505092915050565b6000602082840312156106d957600080fd5b60006106e7848285016105f7565b91505092915050565b60006106fc8383610708565b60208301905092915050565b61071181610885565b82525050565b61072081610885565b82525050565b60006107318261085c565b61073b8185610874565b93506107468361084c565b8060005b8381101561077757815161075e88826106f0565b975061076983610867565b92505060018101905061074a565b5085935050505092915050565b61078d816108c9565b82525050565b60006020820190506107a86000830184610717565b92915050565b600060208201905081810360008301526107c88184610726565b905092915050565b60006020820190506107e56000830184610784565b92915050565b6000604051905081810181811067ffffffffffffffff821117156108125761081161097e565b5b8060405250919050565b600067ffffffffffffffff8211156108375761083661097e565b5b601f19601f8301169050602081019050919050565b6000819050602082019050919050565b600081519050919050565b6000602082019050919050565b600082825260208201905092915050565b6000610890826108a9565b9050919050565b60006108a282610885565b9050919050565b600073ffffffffffffffffffffffffffffffffffffffff82169050919050565b6000819050919050565b60005b838110156108f15780820151818401526020810190506108d6565b83811115610900576000848401525b50505050565b6000610911826108c9565b91507fffffffffffffffffffffffffffffffffffffffffffffffffffffffffffffffff8214156109445761094361094f565b5b600182019050919050565b7f4e487b7100000000000000000000000000000000000000000000000000000000600052601160045260246000fd5b7f4e487b7100000000000000000000000000000000000000000000000000000000600052604160045260246000fd5b6109b681610885565b81146109c157600080fd5b50565b6109cd81610897565b81146109d857600080fd5b50565b6109e4816108c9565b81146109ef57600080fd5b5056fea264697066735822122047182686d074670e1b0a761b83e6fb4e7623583e1b5e425d1d61e66c5ccb4e7364736f6c63430008000033608060405234801561001057600080fd5b5033600260006101000a81548173ffffffffffffffffffffffffffffffffffffffff021916908373ffffffffffffffffffffffffffffffffffffffff160217905550617e75806100616000396000f3fe60806040523480156200001157600080fd5b50600436106200002e5760003560e01c80631140fc191462000033575b600080fd5b6200005160048036038101906200004b91906200087e565b62000069565b60405162000060919062000a9e565b60405180910390f35b6000600260009054906101000a900473ffffffffffffffffffffffffffffffffffffffff1673ffffffffffffffffffffffffffffffffffffffff163373ffffffffffffffffffffffffffffffffffffffff1614620000fe576040517f08c379a0000000000000000000000000000000000000000000000000000000008152600401620000f59062000abb565b60405180910390fd5b60006200010b86620001ab565b50620001188686620003c5565b508660008054906101000a900473ffffffffffffffffffffffffffffffffffffffff16600160009054906101000a900473ffffffffffffffffffffffffffffffffffffffff1686866040516200016e90620006b5565b6200017e95949392919062000add565b604051809103906000f0801580156200019b573d6000803e3d6000fd5b5090508091505095945050505050565b600060018214156200022857604051620001c590620006c3565b604051809103906000f080158015620001e2573d6000803e3d6000fd5b506000806101000a81548173ffffffffffffffffffffffffffffffffffffffff021916908373ffffffffffffffffffffffffffffffffffffffff1602179055506200039d565b6002821415620002a3576040516200024090620006d1565b604051809103906000f0801580156200025d573d6000803e3d6000fd5b506000806101000a81548173ffffffffffffffffffffffffffffffffffffffff021916908373ffffffffffffffffffffffffffffffffffffffff1602179055506200039c565b6003821415620002b3576200039b565b60048214156200032e57604051620002cb90620006df565b604051809103906000f080158015620002e8573d6000803e3d6000fd5b506000806101000a81548173ffffffffffffffffffffffffffffffffffffffff021916908373ffffffffffffffffffffffffffffffffffffffff1602179055506200039a565b6040516200033c90620006c3565b604051809103906000f08015801562000359573d6000803e3d6000fd5b506000806101000a81548173ffffffffffffffffffffffffffffffffffffffff021916908373ffffffffffffffffffffffffffffffffffffffff1602179055505b5b5b5b60008054906101000a900473ffffffffffffffffffffffffffffffffffffffff169050919050565b60006001831415620003e257620003dc826200046c565b62000441565b6002831415620003fd57620003f78262000558565b62000440565b60038314156200041857620004128262000644565b6200043f565b600483141562000432576200042c62000647565b6200043e565b6200043d826200046c565b5b5b5b5b600160009054906101000a900473ffffffffffffffffffffffffffffffffffffffff16905092915050565b6001811415620004e8576040516200048490620006ed565b604051809103906000f080158015620004a1573d6000803e3d6000fd5b50600160006101000a81548173ffffffffffffffffffffffffffffffffffffffff021916908373ffffffffffffffffffffffffffffffffffffffff16021790555062000555565b604051620004f690620006ed565b604051809103906000f08015801562000513573d6000803e3d6000fd5b50600160006101000a81548173ffffffffffffffffffffffffffffffffffffffff021916908373ffffffffffffffffffffffffffffffffffffffff1602179055505b50565b6001811415620005d4576040516200057090620006fb565b604051809103906000f0801580156200058d573d6000803e3d6000fd5b50600160006101000a81548173ffffffffffffffffffffffffffffffffffffffff021916908373ffffffffffffffffffffffffffffffffffffffff16021790555062000641565b604051620005e290620006fb565b604051809103906000f080158015620005ff573d6000803e3d6000fd5b50600160006101000a81548173ffffffffffffffffffffffffffffffffffffffff021916908373ffffffffffffffffffffffffffffffffffffffff1602179055505b50565b50565b604051620006559062000709565b604051809103906000f08015801562000672573d6000803e3d6000fd5b50600160006101000a81548173ffffffffffffffffffffffffffffffffffffffff021916908373ffffffffffffffffffffffffffffffffffffffff160217905550565b612b878062000d4583390190565b61095d80620038cc83390190565b610d5b806200422983390190565b610c018062004f8483390190565b610a5d8062005b8583390190565b610add80620065e283390190565b610d8180620070bf83390190565b60006200072e620007288462000b75565b62000b41565b9050828152602081018484840111156200074757600080fd5b6200075484828562000c8b565b509392505050565b6000813590506200076d8162000d10565b92915050565b600082601f8301126200078557600080fd5b81356200079784826020860162000717565b91505092915050565b600060a08284031215620007b357600080fd5b620007bf60a062000b41565b90506000620007d18482850162000867565b600083015250602082013567ffffffffffffffff811115620007f257600080fd5b620008008482850162000773565b602083015250604082013567ffffffffffffffff8111156200082157600080fd5b6200082f8482850162000773565b6040830152506060620008458482850162000867565b60608301525060806200085b8482850162000867565b60808301525092915050565b600081359050620008788162000d2a565b92915050565b600080600080600060a086880312156200089757600080fd5b600086013567ffffffffffffffff811115620008b257600080fd5b620008c088828901620007a0565b9550506020620008d38882890162000867565b9450506040620008e68882890162000867565b9350506060620008f9888289016200075c565b92505060806200090c888289016200075c565b9150509295509295909350565b620009248162000bd5565b82525050565b620009358162000c13565b82525050565b620009468162000c3b565b82525050565b620009578162000c63565b82525050565b60006200096a8262000ba8565b62000976818562000bb3565b93506200098881856020860162000c9a565b620009938162000cff565b840191505092915050565b6000620009ad60338362000bc4565b91507f4d7573742062652063616c6c65642066726f6d2074686520656c656374696f6e60008301527f206f7267616e697a657220636f6e7472616374000000000000000000000000006020830152604082019050919050565b600060a08301600083015162000a20600086018262000a8d565b506020830151848203602086015262000a3a82826200095d565b9150506040830151848203604086015262000a5682826200095d565b915050606083015162000a6d606086018262000a8d565b50608083015162000a82608086018262000a8d565b508091505092915050565b62000a988162000c09565b82525050565b600060208201905062000ab560008301846200093b565b92915050565b6000602082019050818103600083015262000ad6816200099e565b9050919050565b600060a082019050818103600083015262000af9818862000a06565b905062000b0a60208301876200092a565b62000b1960408301866200094c565b62000b28606083018562000919565b62000b37608083018462000919565b9695505050505050565b6000604051905081810181811067ffffffffffffffff8211171562000b6b5762000b6a62000cd0565b5b8060405250919050565b600067ffffffffffffffff82111562000b935762000b9262000cd0565b5b601f19601f8301169050602081019050919050565b600081519050919050565b600082825260208201905092915050565b600082825260208201905092915050565b600062000be28262000be9565b9050919050565b600073ffffffffffffffffffffffffffffffffffffffff82169050919050565b6000819050919050565b600062000c208262000c27565b9050919050565b600062000c348262000be9565b9050919050565b600062000c488262000c4f565b9050919050565b600062000c5c8262000be9565b9050919050565b600062000c708262000c77565b9050919050565b600062000c848262000be9565b9050919050565b82818337600083830152505050565b60005b8381101562000cba57808201518184015260208101905062000c9d565b8381111562000cca576000848401525b50505050565b7f4e487b7100000000000000000000000000000000000000000000000000000000600052604160045260246000fd5b6000601f19601f8301169050919050565b62000d1b8162000bd5565b811462000d2757600080fd5b50565b62000d358162000c09565b811462000d4157600080fd5b5056fe60806040523480156200001157600080fd5b5060405162002b8738038062002b87833981810160405281019062000037919062000418565b81600960006101000a81548173ffffffffffffffffffffffffffffffffffffffff021916908373ffffffffffffffffffffffffffffffffffffffff16021790555080600a60006101000a81548173ffffffffffffffffffffffffffffffffffffffff021916908373ffffffffffffffffffffffffffffffffffffffff1602179055508460008082015181600001556020820151816001019080519060200190620000e3929190620001d3565b50604082015181600201908051906020019062000102929190620001d3565b50606082015181600301556080820151816004015590505083600c60016101000a81548173ffffffffffffffffffffffffffffffffffffffff021916908373ffffffffffffffffffffffffffffffffffffffff16021790555082600d60006101000a81548173ffffffffffffffffffffffffffffffffffffffff021916908373ffffffffffffffffffffffffffffffffffffffff1602179055506103e86008819055506000600b819055506000600c60006101000a81548160ff0219169083151502179055505050505050620006b2565b828054620001e190620005b6565b90600052602060002090601f01602090048101928262000205576000855562000251565b82601f106200022057805160ff191683800117855562000251565b8280016001018555821562000251579182015b828111156200025057825182559160200191906001019062000233565b5b50905062000260919062000264565b5090565b5b808211156200027f57600081600090555060010162000265565b5090565b60006200029a6200029484620004e7565b620004b3565b905082815260208101848484011115620002b357600080fd5b620002c084828562000580565b509392505050565b600081519050620002d9816200064a565b92915050565b600081519050620002f08162000664565b92915050565b60008151905062000307816200067e565b92915050565b600082601f8301126200031f57600080fd5b81516200033184826020860162000283565b91505092915050565b600060a082840312156200034d57600080fd5b6200035960a0620004b3565b905060006200036b8482850162000401565b600083015250602082015167ffffffffffffffff8111156200038c57600080fd5b6200039a848285016200030d565b602083015250604082015167ffffffffffffffff811115620003bb57600080fd5b620003c9848285016200030d565b6040830152506060620003df8482850162000401565b6060830152506080620003f58482850162000401565b60808301525092915050565b600081519050620004128162000698565b92915050565b600080600080600060a086880312156200043157600080fd5b600086015167ffffffffffffffff8111156200044c57600080fd5b6200045a888289016200033a565b95505060206200046d88828901620002df565b94505060406200048088828901620002f6565b93505060606200049388828901620002c8565b9250506080620004a688828901620002c8565b9150509295509295909350565b6000604051905081810181811067ffffffffffffffff82111715620004dd57620004dc6200061b565b5b8060405250919050565b600067ffffffffffffffff8211156200050557620005046200061b565b5b601f19601f8301169050602081019050919050565b6000620005278262000556565b9050919050565b60006200053b826200051a565b9050919050565b60006200054f826200051a565b9050919050565b600073ffffffffffffffffffffffffffffffffffffffff82169050919050565b6000819050919050565b60005b83811015620005a057808201518184015260208101905062000583565b83811115620005b0576000848401525b50505050565b60006002820490506001821680620005cf57607f821691505b60208210811415620005e657620005e5620005ec565b5b50919050565b7f4e487b7100000000000000000000000000000000000000000000000000000000600052602260045260246000fd5b7f4e487b7100000000000000000000000000000000000000000000000000000000600052604160045260246000fd5b62000655816200051a565b81146200066157600080fd5b50565b6200066f816200052e565b81146200067b57600080fd5b50565b620006898162000542565b81146200069557600080fd5b50565b620006a38162000576565b8114620006af57600080fd5b50565b6124c580620006c26000396000f3fe608060405234801561001057600080fd5b50600436106100ea5760003560e01c8063822023961161008c578063a1818ac411610066578063a1818ac41461023d578063de29278914610259578063df15c37e14610277578063e04b1c0c14610295576100ea565b806382202396146101d157806386852dca146102015780639baec8b91461021f576100ea565b806330a56347116100c857806330a563471461014757806337349a7d146101655780634e69d56014610183578063521b0dcc146101a1576100ea565b806306a49fce146100ef57806311174a291461010d578063273ffe861461012b575b600080fd5b6100f76102b3565b6040516101049190611e2f565b60405180910390f35b610115610440565b6040516101229190611ff8565b60405180910390f35b610145600480360381019061014091906116a0565b61044a565b005b61014f61078c565b60405161015c9190611ff8565b60405180910390f35b61016d610796565b60405161017a9190611d4c565b60405180910390f35b61018b610850565b6040516101989190611ed9565b60405180910390f35b6101bb60048036038101906101b69190611592565b610885565b6040516101c89190611e95565b60405180910390f35b6101eb60048036038101906101e691906116e1565b610939565b6040516101f89190611fb4565b60405180910390f35b610209610a94565b6040516102169190611fd6565b60405180910390f35b610227610bf0565b6040516102349190611d4c565b60405180910390f35b610257600480360381019061025291906115bb565b610caa565b005b610261610e84565b60405161026e9190611e51565b60405180910390f35b61027f611102565b60405161028c9190611e51565b60405180910390f35b61029d6111b0565b6040516102aa9190611d4c565b60405180910390f35b60606005805480602002602001604051908101604052809291908181526020016000905b82821015610437578382906000526020600020906003020160405180606001604052908160008201548152602001600182018054610314906122b4565b80601f0160208091040260200160405190810160405280929190818152602001828054610340906122b4565b801561038d5780601f106103625761010080835404028352916020019161038d565b820191906000526020600020905b81548152906001019060200180831161037057829003601f168201915b505050505081526020016002820180546103a6906122b4565b80601f01602080910402602001604051908101604052809291908181526020018280546103d2906122b4565b801561041f5780601f106103f45761010080835404028352916020019161041f565b820191906000526020600020905b81548152906001019060200180831161040257829003601f168201915b505050505081525050815260200190600101906102d7565b50505050905090565b6000600b54905090565b600a60009054906101000a900473ffffffffffffffffffffffffffffffffffffffff1673ffffffffffffffffffffffffffffffffffffffff163373ffffffffffffffffffffffffffffffffffffffff16146104da576040517f08c379a00000000000000000000000000000000000000000000000000000000081526004016104d190611f34565b60405180910390fd5b60016002811115610514577f4e487b7100000000000000000000000000000000000000000000000000000000600052602160045260246000fd5b61051c610850565b6002811115610554577f4e487b7100000000000000000000000000000000000000000000000000000000600052602160045260246000fd5b14610594576040517f08c379a000000000000000000000000000000000000000000000000000000000815260040161058b90611f94565b60405180910390fd5b600060016008546105a59190612181565b90508082600001818152505060058290806001815401808255809150506001900390600052602060002090600302016000909190919091506000820151816000015560208201518160010190805190602001906106039291906111da565b5060408201518160020190805190602001906106209291906111da565b505050600c60019054906101000a900473ffffffffffffffffffffffffffffffffffffffff1673ffffffffffffffffffffffffffffffffffffffff1663e844d09783600001516040518263ffffffff1660e01b81526004016106829190611ff8565b600060405180830381600087803b15801561069c57600080fd5b505af11580156106b0573d6000803e3d6000fd5b505050508160076000846000015181526020019081526020016000206000820151816000015560208201518160010190805190602001906106f29291906111da565b50604082015181600201908051906020019061070f9291906111da565b509050506008600081548092919061072690612300565b91905055507f4d9dd414a40890e16b7bd0ea98bdf9d5b55c3d20cfe4b18febda0d60fb32a60c30600c60019054906101000a900473ffffffffffffffffffffffffffffffffffffffff168460405161078093929190611d67565b60405180910390a15050565b6000600854905090565b6000600960009054906101000a900473ffffffffffffffffffffffffffffffffffffffff1673ffffffffffffffffffffffffffffffffffffffff163373ffffffffffffffffffffffffffffffffffffffff1614610828576040517f08c379a000000000000000000000000000000000000000000000000000000000815260040161081f90611f14565b60405180910390fd5b600d60009054906101000a900473ffffffffffffffffffffffffffffffffffffffff16905090565b600080600301544210156108675760019050610882565b60006004015442101561087d5760009050610882565b600290505b90565b6000600c60019054906101000a900473ffffffffffffffffffffffffffffffffffffffff1673ffffffffffffffffffffffffffffffffffffffff1663521b0dcc836040518263ffffffff1660e01b81526004016108e29190611d4c565b60206040518083038186803b1580156108fa57600080fd5b505afa15801561090e573d6000803e3d6000fd5b505050506040513d601f19601f820116820180604052508101906109329190611677565b9050919050565b610941611260565b6007600083815260200190815260200160002060405180606001604052908160008201548152602001600182018054610979906122b4565b80601f01602080910402602001604051908101604052809291908181526020018280546109a5906122b4565b80156109f25780601f106109c7576101008083540402835291602001916109f2565b820191906000526020600020905b8154815290600101906020018083116109d557829003601f168201915b50505050508152602001600282018054610a0b906122b4565b80601f0160208091040260200160405190810160405280929190818152602001828054610a37906122b4565b8015610a845780601f10610a5957610100808354040283529160200191610a84565b820191906000526020600020905b815481529060010190602001808311610a6757829003601f168201915b5050505050815250509050919050565b610a9c611281565b60006040518060a001604052908160008201548152602001600182018054610ac3906122b4565b80601f0160208091040260200160405190810160405280929190818152602001828054610aef906122b4565b8015610b3c5780601f10610b1157610100808354040283529160200191610b3c565b820191906000526020600020905b815481529060010190602001808311610b1f57829003601f168201915b50505050508152602001600282018054610b55906122b4565b80601f0160208091040260200160405190810160405280929190818152602001828054610b81906122b4565b8015610bce5780601f10610ba357610100808354040283529160200191610bce565b820191906000526020600020905b815481529060010190602001808311610bb157829003601f168201915b5050505050815260200160038201548152602001600482015481525050905090565b6000600960009054906101000a900473ffffffffffffffffffffffffffffffffffffffff1673ffffffffffffffffffffffffffffffffffffffff163373ffffffffffffffffffffffffffffffffffffffff1614610c82576040517f08c379a0000000000000000000000000000000000000000000000000000000008152600401610c7990611f14565b60405180910390fd5b600c60019054906101000a900473ffffffffffffffffffffffffffffffffffffffff16905090565b60006002811115610ce4577f4e487b7100000000000000000000000000000000000000000000000000000000600052602160045260246000fd5b610cec610850565b6002811115610d24577f4e487b7100000000000000000000000000000000000000000000000000000000600052602160045260246000fd5b14610d64576040517f08c379a0000000000000000000000000000000000000000000000000000000008152600401610d5b90611f54565b60405180910390fd5b600c60019054906101000a900473ffffffffffffffffffffffffffffffffffffffff1673ffffffffffffffffffffffffffffffffffffffff1663a1818ac4858585856040518563ffffffff1660e01b8152600401610dc59493929190611de3565b600060405180830381600087803b158015610ddf57600080fd5b505af1158015610df3573d6000803e3d6000fd5b50505050600b6000815480929190610e0a90612300565b91905055507fd589db416dab4dff131e94610b2d02ce215ded85a2943a2ea59acd2153a85182600c60019054906101000a900473ffffffffffffffffffffffffffffffffffffffff166007600086815260200190815260200160002084604051610e7693929190611da5565b60405180910390a150505050565b6060600280811115610ebf577f4e487b7100000000000000000000000000000000000000000000000000000000600052602160045260246000fd5b610ec7610850565b6002811115610eff577f4e487b7100000000000000000000000000000000000000000000000000000000600052602160045260246000fd5b14610f3f576040517f08c379a0000000000000000000000000000000000000000000000000000000008152600401610f3690611f74565b60405180910390fd5b60001515600c60009054906101000a900460ff16151514156110f457600d60009054906101000a900473ffffffffffffffffffffffffffffffffffffffff1673ffffffffffffffffffffffffffffffffffffffff1663c8344a20600c60019054906101000a900473ffffffffffffffffffffffffffffffffffffffff16600b546040518363ffffffff1660e01b8152600401610fdc929190611eb0565b600060405180830381600087803b158015610ff657600080fd5b505af115801561100a573d6000803e3d6000fd5b505050506040513d6000823e3d601f19601f820116820180604052508101906110339190611636565b600690805190602001906110489291906112b0565b506001600c60006101000a81548160ff0219169083151502179055507f28e5f582afeee46fd13ea548ad814f45b1d4a5159990336d5e66deb48a960e4c60066040516110949190611e73565b60405180910390a160068054806020026020016040519081016040528092919081815260200182805480156110e857602002820191906000526020600020905b8154815260200190600101908083116110d4575b505050505090506110ff565b6110fc611102565b90505b90565b606060011515600c60009054906101000a900460ff1615151461115a576040517f08c379a000000000000000000000000000000000000000000000000000000000815260040161115190611ef4565b60405180910390fd5b60068054806020026020016040519081016040528092919081815260200182805480156111a657602002820191906000526020600020905b815481526020019060010190808311611192575b5050505050905090565b6000600960009054906101000a900473ffffffffffffffffffffffffffffffffffffffff16905090565b8280546111e6906122b4565b90600052602060002090601f016020900481019282611208576000855561124f565b82601f1061122157805160ff191683800117855561124f565b8280016001018555821561124f579182015b8281111561124e578251825591602001919060010190611233565b5b50905061125c91906112fd565b5090565b60405180606001604052806000815260200160608152602001606081525090565b6040518060a0016040528060008152602001606081526020016060815260200160008152602001600081525090565b8280548282559060005260206000209081019282156112ec579160200282015b828111156112eb5782518255916020019190600101906112d0565b5b5090506112f991906112fd565b5090565b5b808211156113165760008160009055506001016112fe565b5090565b600061132d61132884612044565b612013565b9050808382526020820190508285602086028201111561134c57600080fd5b60005b8581101561137c57816113628882611568565b84526020840193506020830192505060018101905061134f565b5050509392505050565b600061139961139484612044565b612013565b905080838252602082019050828560208602820111156113b857600080fd5b60005b858110156113e857816113ce888261157d565b8452602084019350602083019250506001810190506113bb565b5050509392505050565b600061140561140084612070565b612013565b90508281526020810184848401111561141d57600080fd5b611428848285612272565b509392505050565b60008135905061143f8161244a565b92915050565b600082601f83011261145657600080fd5b813561146684826020860161131a565b91505092915050565b600082601f83011261148057600080fd5b8151611490848260208601611386565b91505092915050565b6000815190506114a881612461565b92915050565b600082601f8301126114bf57600080fd5b81356114cf8482602086016113f2565b91505092915050565b6000606082840312156114ea57600080fd5b6114f46060612013565b9050600061150484828501611568565b600083015250602082013567ffffffffffffffff81111561152457600080fd5b611530848285016114ae565b602083015250604082013567ffffffffffffffff81111561155057600080fd5b61155c848285016114ae565b60408301525092915050565b60008135905061157781612478565b92915050565b60008151905061158c81612478565b92915050565b6000602082840312156115a457600080fd5b60006115b284828501611430565b91505092915050565b600080600080608085870312156115d157600080fd5b60006115df87828801611430565b94505060206115f087828801611568565b935050604061160187828801611568565b925050606085013567ffffffffffffffff81111561161e57600080fd5b61162a87828801611445565b91505092959194509250565b60006020828403121561164857600080fd5b600082015167ffffffffffffffff81111561166257600080fd5b61166e8482850161146f565b91505092915050565b60006020828403121561168957600080fd5b600061169784828501611499565b91505092915050565b6000602082840312156116b257600080fd5b600082013567ffffffffffffffff8111156116cc57600080fd5b6116d8848285016114d8565b91505092915050565b6000602082840312156116f357600080fd5b600061170184828501611568565b91505092915050565b60006117168383611ba1565b905092915050565b600061172a8383611d2e565b60208301905092915050565b61173f816121e1565b82525050565b6000611750826120ea565b61175a818561213d565b93508360208202850161176c856120a0565b8060005b858110156117a85784840389528151611789858261170a565b945061179483612116565b925060208a01995050600181019050611770565b50829750879550505050505092915050565b60006117c5826120f5565b6117cf818561214e565b93506117da836120b0565b8060005b8381101561180b5781516117f2888261171e565b97506117fd83612123565b9250506001810190506117de565b5085935050505092915050565b600061182382612100565b61182d818561214e565b9350611838836120c0565b8060005b838110156118705761184d82612405565b611857888261171e565b975061186283612130565b92505060018101905061183c565b5085935050505092915050565b611886816121f3565b82525050565b6118958161223c565b82525050565b6118a481612260565b82525050565b60006118b58261210b565b6118bf818561215f565b93506118cf818560208601612281565b6118d881612418565b840191505092915050565b600081546118f0816122b4565b6118fa818661215f565b9450600182166000811461191557600181146119275761195a565b60ff198316865260208601935061195a565b611930856120d5565b60005b8381101561195257815481890152600182019150602081019050611933565b808801955050505b50505092915050565b6000611970601b83612170565b91507f526573756c7473206172656e2774206465636c617265642079657400000000006000830152602082019050919050565b60006119b0602583612170565b91507f43616c6c6572206d7573742062652074686520656c656374696f6e206f72676160008301527f6e697a65720000000000000000000000000000000000000000000000000000006020830152604082019050919050565b6000611a16603383612170565b91507f4d7573742062652063616c6c65642066726f6d2074686520656c656374696f6e60008301527f206f7267616e697a657220636f6e7472616374000000000000000000000000006020830152604082019050919050565b6000611a7c602383612170565b91507f456c656374696f6e206e6565647320746f2062652061637469766520746f207660008301527f6f746500000000000000000000000000000000000000000000000000000000006020830152604082019050919050565b6000611ae2603183612170565b91507f526573756c747320617265206465636c61726564206f6e6c792061667465722060008301527f74686520656c656374696f6e20656e64730000000000000000000000000000006020830152604082019050919050565b6000611b48603083612170565b91507f43616e6e6f74206164642063616e6469646174657320616674657220656c656360008301527f74696f6e206861732073746172746564000000000000000000000000000000006020830152604082019050919050565b6000606083016000830151611bb96000860182611d2e565b5060208301518482036020860152611bd182826118aa565b91505060408301518482036040860152611beb82826118aa565b9150508091505092915050565b6000606083016000830151611c106000860182611d2e565b5060208301518482036020860152611c2882826118aa565b91505060408301518482036040860152611c4282826118aa565b9150508091505092915050565b6000606083016000808401549050611c66816122e6565b611c736000870182611d2e565b50600184018583036020870152611c8a83826118e3565b925050600284018583036040870152611ca383826118e3565b925050819250505092915050565b600060a083016000830151611cc96000860182611d2e565b5060208301518482036020860152611ce182826118aa565b91505060408301518482036040860152611cfb82826118aa565b9150506060830151611d106060860182611d2e565b506080830151611d236080860182611d2e565b508091505092915050565b611d3781612232565b82525050565b611d4681612232565b82525050565b6000602082019050611d616000830184611736565b92915050565b6000606082019050611d7c6000830186611736565b611d896020830185611736565b8181036040830152611d9b8184611bf8565b9050949350505050565b6000606082019050611dba6000830186611736565b8181036020830152611dcc8185611c4f565b9050611ddb6040830184611d3d565b949350505050565b6000608082019050611df86000830187611736565b611e056020830186611d3d565b611e126040830185611d3d565b8181036060830152611e2481846117ba565b905095945050505050565b60006020820190508181036000830152611e498184611745565b905092915050565b60006020820190508181036000830152611e6b81846117ba565b905092915050565b60006020820190508181036000830152611e8d8184611818565b905092915050565b6000602082019050611eaa600083018461187d565b92915050565b6000604082019050611ec5600083018561188c565b611ed26020830184611d3d565b9392505050565b6000602082019050611eee600083018461189b565b92915050565b60006020820190508181036000830152611f0d81611963565b9050919050565b60006020820190508181036000830152611f2d816119a3565b9050919050565b60006020820190508181036000830152611f4d81611a09565b9050919050565b60006020820190508181036000830152611f6d81611a6f565b9050919050565b60006020820190508181036000830152611f8d81611ad5565b9050919050565b60006020820190508181036000830152611fad81611b3b565b9050919050565b60006020820190508181036000830152611fce8184611bf8565b905092915050565b60006020820190508181036000830152611ff08184611cb1565b905092915050565b600060208201905061200d6000830184611d3d565b92915050565b6000604051905081810181811067ffffffffffffffff8211171561203a576120396123d6565b5b8060405250919050565b600067ffffffffffffffff82111561205f5761205e6123d6565b5b602082029050602081019050919050565b600067ffffffffffffffff82111561208b5761208a6123d6565b5b601f19601f8301169050602081019050919050565b6000819050602082019050919050565b6000819050602082019050919050565b60008190508160005260206000209050919050565b60008190508160005260206000209050919050565b600081519050919050565b600081519050919050565b600081549050919050565b600081519050919050565b6000602082019050919050565b6000602082019050919050565b6000600182019050919050565b600082825260208201905092915050565b600082825260208201905092915050565b600082825260208201905092915050565b600082825260208201905092915050565b600061218c82612232565b915061219783612232565b9250827fffffffffffffffffffffffffffffffffffffffffffffffffffffffffffffffff038211156121cc576121cb612349565b5b828201905092915050565b6000819050919050565b60006121ec82612212565b9050919050565b60008115159050919050565b600081905061220d82612436565b919050565b600073ffffffffffffffffffffffffffffffffffffffff82169050919050565b6000819050919050565b60006122478261224e565b9050919050565b600061225982612212565b9050919050565b600061226b826121ff565b9050919050565b82818337600083830152505050565b60005b8381101561229f578082015181840152602081019050612284565b838111156122ae576000848401525b50505050565b600060028204905060018216806122cc57607f821691505b602082108114156122e0576122df6123a7565b5b50919050565b60006122f96122f483612429565b6121d7565b9050919050565b600061230b82612232565b91507fffffffffffffffffffffffffffffffffffffffffffffffffffffffffffffffff82141561233e5761233d612349565b5b600182019050919050565b7f4e487b7100000000000000000000000000000000000000000000000000000000600052601160045260246000fd5b7f4e487b7100000000000000000000000000000000000000000000000000000000600052602160045260246000fd5b7f4e487b7100000000000000000000000000000000000000000000000000000000600052602260045260246000fd5b7f4e487b7100000000000000000000000000000000000000000000000000000000600052604160045260246000fd5b600061241182546122e6565b9050919050565b6000601f19601f8301169050919050565b60008160001c9050919050565b6003811061244757612446612378565b5b50565b612453816121e1565b811461245e57600080fd5b50565b61246a816121f3565b811461247557600080fd5b50565b61248181612232565b811461248c57600080fd5b5056fea2646970667358221220e8fe9b894e5d3231ab48bd65ad61b370689c15b24305a62973190101a0eee17d64736f6c63430008000033608060405234801561001057600080fd5b5061093d806100206000396000f3fe608060405234801561001057600080fd5b506004361061007d5760003560e01c8063a1818ac41161005b578063a1818ac414610100578063afa524081461011c578063de2e19a01461013a578063e844d0971461016a5761007d565b806306a49fce14610082578063521b0dcc146100a05780635df81330146100d0575b600080fd5b61008a610186565b60405161009791906106a5565b60405180910390f35b6100ba60048036038101906100b591906103f0565b6101de565b6040516100c791906106c7565b60405180910390f35b6100ea60048036038101906100e59190610494565b610234565b6040516100f791906106e2565b60405180910390f35b61011a60048036038101906101159190610419565b61024c565b005b6101246102d8565b6040516101319190610683565b60405180910390f35b610154600480360381019061014f91906104bd565b6102e2565b60405161016191906106e2565b60405180910390f35b610184600480360381019061017f9190610494565b610304565b005b606060008054806020026020016040519081016040528092919081815260200182805480156101d457602002820191906000526020600020905b8154815260200190600101908083116101c0575b5050505050905090565b6000600160008373ffffffffffffffffffffffffffffffffffffffff1673ffffffffffffffffffffffffffffffffffffffff16815260200190815260200160002060009054906101000a900460ff169050919050565b60026020528060005260406000206000915090505481565b60019150600160026000858152602001908152602001600020600082825461027491906107dd565b9250508190555060018060008673ffffffffffffffffffffffffffffffffffffffff1673ffffffffffffffffffffffffffffffffffffffff16815260200190815260200160002060006101000a81548160ff02191690831515021790555050505050565b6060808091505090565b6000600191506002600084815260200190815260200160002054905092915050565b600081908060018154018082558091505060019003906000526020600020016000909190919091505550565b600061034361033e8461072e565b6106fd565b9050808382526020820190508285602086028201111561036257600080fd5b60005b85811015610392578161037888826103db565b845260208401935060208301925050600181019050610365565b5050509392505050565b6000813590506103ab816108d9565b92915050565b600082601f8301126103c257600080fd5b81356103d2848260208601610330565b91505092915050565b6000813590506103ea816108f0565b92915050565b60006020828403121561040257600080fd5b60006104108482850161039c565b91505092915050565b6000806000806080858703121561042f57600080fd5b600061043d8782880161039c565b945050602061044e878288016103db565b935050604061045f878288016103db565b925050606085013567ffffffffffffffff81111561047c57600080fd5b610488878288016103b1565b91505092959194509250565b6000602082840312156104a657600080fd5b60006104b4848285016103db565b91505092915050565b600080604083850312156104d057600080fd5b60006104de858286016103db565b92505060206104ef858286016103db565b9150509250929050565b6000610505838361059a565b905092915050565b60006105198383610665565b60208301905092915050565b60006105308261077a565b61053a81856107aa565b93508360208202850161054c8561075a565b8060005b85811015610588578484038952815161056985826104f9565b945061057483610790565b925060208a01995050600181019050610550565b50829750879550505050505092915050565b60006105a582610785565b6105af81856107bb565b93506105ba8361076a565b8060005b838110156105eb5781516105d2888261050d565b97506105dd8361079d565b9250506001810190506105be565b5085935050505092915050565b600061060382610785565b61060d81856107cc565b93506106188361076a565b8060005b83811015610649578151610630888261050d565b975061063b8361079d565b92505060018101905061061c565b5085935050505092915050565b61065f81610845565b82525050565b61066e81610871565b82525050565b61067d81610871565b82525050565b6000602082019050818103600083015261069d8184610525565b905092915050565b600060208201905081810360008301526106bf81846105f8565b905092915050565b60006020820190506106dc6000830184610656565b92915050565b60006020820190506106f76000830184610674565b92915050565b6000604051905081810181811067ffffffffffffffff82111715610724576107236108aa565b5b8060405250919050565b600067ffffffffffffffff821115610749576107486108aa565b5b602082029050602081019050919050565b6000819050602082019050919050565b6000819050602082019050919050565b600081519050919050565b600081519050919050565b6000602082019050919050565b6000602082019050919050565b600082825260208201905092915050565b600082825260208201905092915050565b600082825260208201905092915050565b60006107e882610871565b91506107f383610871565b9250827fffffffffffffffffffffffffffffffffffffffffffffffffffffffffffffffff038211156108285761082761087b565b5b828201905092915050565b600061083e82610851565b9050919050565b60008115159050919050565b600073ffffffffffffffffffffffffffffffffffffffff82169050919050565b6000819050919050565b7f4e487b7100000000000000000000000000000000000000000000000000000000600052601160045260246000fd5b7f4e487b7100000000000000000000000000000000000000000000000000000000600052604160045260246000fd5b6108e281610833565b81146108ed57600080fd5b50565b6108f981610871565b811461090457600080fd5b5056fea2646970667358221220307a7a8c27c392f29fc94434909bb587642ebef00ed5ca93e80d826e8766b69664736f6c63430008000033608060405234801561001057600080fd5b50610d3b806100206000396000f3fe608060405234801561001057600080fd5b50600436106100625760003560e01c806306a49fce14610067578063521b0dcc14610085578063a1818ac4146100b5578063afa52408146100d1578063de2e19a0146100ef578063e844d0971461011f575b600080fd5b61006f61013b565b60405161007c9190610a32565b60405180910390f35b61009f600480360381019061009a9190610671565b610193565b6040516100ac9190610a54565b60405180910390f35b6100cf60048036038101906100ca919061069a565b6101e9565b005b6100d961054c565b6040516100e69190610a10565b60405180910390f35b6101096004803603810190610104919061073e565b610556565b6040516101169190610acf565b60405180910390f35b61013960048036038101906101349190610715565b610585565b005b6060600080548060200260200160405190810160405280929190818152602001828054801561018957602002820191906000526020600020905b815481526020019060010190808311610175575b5050505050905090565b6000600160008373ffffffffffffffffffffffffffffffffffffffff1673ffffffffffffffffffffffffffffffffffffffff16815260200190815260200160002060009054906101000a900460ff169050919050565b60001515600160008673ffffffffffffffffffffffffffffffffffffffff1673ffffffffffffffffffffffffffffffffffffffff16815260200190815260200160002060009054906101000a900460ff1615151461027c576040517f08c379a000000000000000000000000000000000000000000000000000000000815260040161027390610aaf565b60405180910390fd5b60001515600360008673ffffffffffffffffffffffffffffffffffffffff1673ffffffffffffffffffffffffffffffffffffffff168152602001908152602001600020600085815260200190815260200160002060009054906101000a900460ff16151514610320576040517f08c379a000000000000000000000000000000000000000000000000000000000815260040161031790610a6f565b60405180910390fd5b600080549050600460008673ffffffffffffffffffffffffffffffffffffffff1673ffffffffffffffffffffffffffffffffffffffff16815260200190815260200160002054106103a6576040517f08c379a000000000000000000000000000000000000000000000000000000000815260040161039d90610a8f565b60405180910390fd5b600160026000848152602001908152602001600020600085815260200190815260200160002060008282546103db9190610bdb565b925050819055506001600460008673ffffffffffffffffffffffffffffffffffffffff1673ffffffffffffffffffffffffffffffffffffffff16815260200190815260200160002060008282546104329190610bdb565b925050819055506001600360008673ffffffffffffffffffffffffffffffffffffffff1673ffffffffffffffffffffffffffffffffffffffff168152602001908152602001600020600085815260200190815260200160002060006101000a81548160ff021916908315150217905550600080549050600460008673ffffffffffffffffffffffffffffffffffffffff1673ffffffffffffffffffffffffffffffffffffffff1681526020019081526020016000205414156105465760018060008673ffffffffffffffffffffffffffffffffffffffff1673ffffffffffffffffffffffffffffffffffffffff16815260200190815260200160002060006101000a81548160ff0219169083151502179055505b50505050565b6060808091505090565b600060026000838152602001908152602001600020600084815260200190815260200160002054905092915050565b600081908060018154018082558091505060019003906000526020600020016000909190919091505550565b60006105c46105bf84610b1b565b610aea565b905080838252602082019050828560208602820111156105e357600080fd5b60005b8581101561061357816105f9888261065c565b8452602084019350602083019250506001810190506105e6565b5050509392505050565b60008135905061062c81610cd7565b92915050565b600082601f83011261064357600080fd5b81356106538482602086016105b1565b91505092915050565b60008135905061066b81610cee565b92915050565b60006020828403121561068357600080fd5b60006106918482850161061d565b91505092915050565b600080600080608085870312156106b057600080fd5b60006106be8782880161061d565b94505060206106cf8782880161065c565b93505060406106e08782880161065c565b925050606085013567ffffffffffffffff8111156106fd57600080fd5b61070987828801610632565b91505092959194509250565b60006020828403121561072757600080fd5b60006107358482850161065c565b91505092915050565b6000806040838503121561075157600080fd5b600061075f8582860161065c565b92505060206107708582860161065c565b9150509250929050565b6000610786838361081b565b905092915050565b600061079a83836109f2565b60208301905092915050565b60006107b182610b67565b6107bb8185610b97565b9350836020820285016107cd85610b47565b8060005b8581101561080957848403895281516107ea858261077a565b94506107f583610b7d565b925060208a019950506001810190506107d1565b50829750879550505050505092915050565b600061082682610b72565b6108308185610ba8565b935061083b83610b57565b8060005b8381101561086c578151610853888261078e565b975061085e83610b8a565b92505060018101905061083f565b5085935050505092915050565b600061088482610b72565b61088e8185610bb9565b935061089983610b57565b8060005b838110156108ca5781516108b1888261078e565b97506108bc83610b8a565b92505060018101905061089d565b5085935050505092915050565b6108e081610c43565b82525050565b60006108f3602683610bca565b91507f566f74657220616c726561647920766f74656420666f7220746869732063616e60008301527f64696461746500000000000000000000000000000000000000000000000000006020830152604082019050919050565b6000610959602183610bca565b91507f4d617820766f74657320616c72656164792063617374656420627920766f746560008301527f72000000000000000000000000000000000000000000000000000000000000006020830152604082019050919050565b60006109bf601383610bca565b91507f566f74657220616c726561647920766f746564000000000000000000000000006000830152602082019050919050565b6109fb81610c6f565b82525050565b610a0a81610c6f565b82525050565b60006020820190508181036000830152610a2a81846107a6565b905092915050565b60006020820190508181036000830152610a4c8184610879565b905092915050565b6000602082019050610a6960008301846108d7565b92915050565b60006020820190508181036000830152610a88816108e6565b9050919050565b60006020820190508181036000830152610aa88161094c565b9050919050565b60006020820190508181036000830152610ac8816109b2565b9050919050565b6000602082019050610ae46000830184610a01565b92915050565b6000604051905081810181811067ffffffffffffffff82111715610b1157610b10610ca8565b5b8060405250919050565b600067ffffffffffffffff821115610b3657610b35610ca8565b5b602082029050602081019050919050565b6000819050602082019050919050565b6000819050602082019050919050565b600081519050919050565b600081519050919050565b6000602082019050919050565b6000602082019050919050565b600082825260208201905092915050565b600082825260208201905092915050565b600082825260208201905092915050565b600082825260208201905092915050565b6000610be682610c6f565b9150610bf183610c6f565b9250827fffffffffffffffffffffffffffffffffffffffffffffffffffffffffffffffff03821115610c2657610c25610c79565b5b828201905092915050565b6000610c3c82610c4f565b9050919050565b60008115159050919050565b600073ffffffffffffffffffffffffffffffffffffffff82169050919050565b6000819050919050565b7f4e487b7100000000000000000000000000000000000000000000000000000000600052601160045260246000fd5b7f4e487b7100000000000000000000000000000000000000000000000000000000600052604160045260246000fd5b610ce081610c31565b8114610ceb57600080fd5b50565b610cf781610c6f565b8114610d0257600080fd5b5056fea2646970667358221220388ce702ec6f6582ad41fd8cdcc4bb1a2e78b98ad454730f3a75fe264f9f41d664736f6c63430008000033608060405234801561001057600080fd5b50610be1806100206000396000f3fe608060405234801561001057600080fd5b50600436106100625760003560e01c806306a49fce14610067578063521b0dcc14610085578063a1818ac4146100b5578063afa52408146100d1578063de2e19a0146100ef578063e844d0971461011f575b600080fd5b61006f61013b565b60405161007c9190610918565b60405180910390f35b61009f600480360381019061009a9190610623565b610193565b6040516100ac919061093a565b60405180910390f35b6100cf60048036038101906100ca919061064c565b6101e9565b005b6100d9610422565b6040516100e691906108f6565b60405180910390f35b610109600480360381019061010491906106f0565b6104c1565b6040516101169190610975565b60405180910390f35b610139600480360381019061013491906106c7565b6104cd565b005b6060600080548060200260200160405190810160405280929190818152602001828054801561018957602002820191906000526020600020905b815481526020019060010190808311610175575b5050505050905090565b6000600160008373ffffffffffffffffffffffffffffffffffffffff1673ffffffffffffffffffffffffffffffffffffffff16815260200190815260200160002060009054906101000a900460ff169050919050565b60001515600160008673ffffffffffffffffffffffffffffffffffffffff1673ffffffffffffffffffffffffffffffffffffffff16815260200190815260200160002060009054906101000a900460ff1615151461027c576040517f08c379a000000000000000000000000000000000000000000000000000000000815260040161027390610955565b60405180910390fd5b6002819080600181540180825580915050600190039060005260206000200160009091909190915090805190602001906102b79291906104f9565b506001600460008673ffffffffffffffffffffffffffffffffffffffff1673ffffffffffffffffffffffffffffffffffffffff16815260200190815260200160002060008282546103089190610a81565b925050819055506001600360008673ffffffffffffffffffffffffffffffffffffffff1673ffffffffffffffffffffffffffffffffffffffff168152602001908152602001600020600085815260200190815260200160002060006101000a81548160ff021916908315150217905550600080549050600460008673ffffffffffffffffffffffffffffffffffffffff1673ffffffffffffffffffffffffffffffffffffffff16815260200190815260200160002054141561041c5760018060008673ffffffffffffffffffffffffffffffffffffffff1673ffffffffffffffffffffffffffffffffffffffff16815260200190815260200160002060006101000a81548160ff0219169083151502179055505b50505050565b60606002805480602002602001604051908101604052809291908181526020016000905b828210156104b8578382906000526020600020018054806020026020016040519081016040528092919081815260200182805480156104a457602002820191906000526020600020905b815481526020019060010190808311610490575b505050505081526020019060010190610446565b50505050905090565b60006001905092915050565b600081908060018154018082558091505060019003906000526020600020016000909190919091505550565b828054828255906000526020600020908101928215610535579160200282015b82811115610534578251825591602001919060010190610519565b5b5090506105429190610546565b5090565b5b8082111561055f576000816000905550600101610547565b5090565b6000610576610571846109c1565b610990565b9050808382526020820190508285602086028201111561059557600080fd5b60005b858110156105c557816105ab888261060e565b845260208401935060208301925050600181019050610598565b5050509392505050565b6000813590506105de81610b7d565b92915050565b600082601f8301126105f557600080fd5b8135610605848260208601610563565b91505092915050565b60008135905061061d81610b94565b92915050565b60006020828403121561063557600080fd5b6000610643848285016105cf565b91505092915050565b6000806000806080858703121561066257600080fd5b6000610670878288016105cf565b94505060206106818782880161060e565b93505060406106928782880161060e565b925050606085013567ffffffffffffffff8111156106af57600080fd5b6106bb878288016105e4565b91505092959194509250565b6000602082840312156106d957600080fd5b60006106e78482850161060e565b91505092915050565b6000806040838503121561070357600080fd5b60006107118582860161060e565b92505060206107228582860161060e565b9150509250929050565b600061073883836107cd565b905092915050565b600061074c83836108d8565b60208301905092915050565b600061076382610a0d565b61076d8185610a3d565b93508360208202850161077f856109ed565b8060005b858110156107bb578484038952815161079c858261072c565b94506107a783610a23565b925060208a01995050600181019050610783565b50829750879550505050505092915050565b60006107d882610a18565b6107e28185610a4e565b93506107ed836109fd565b8060005b8381101561081e5781516108058882610740565b975061081083610a30565b9250506001810190506107f1565b5085935050505092915050565b600061083682610a18565b6108408185610a5f565b935061084b836109fd565b8060005b8381101561087c5781516108638882610740565b975061086e83610a30565b92505060018101905061084f565b5085935050505092915050565b61089281610ae9565b82525050565b60006108a5601383610a70565b91507f566f74657220616c726561647920766f746564000000000000000000000000006000830152602082019050919050565b6108e181610b15565b82525050565b6108f081610b15565b82525050565b600060208201905081810360008301526109108184610758565b905092915050565b60006020820190508181036000830152610932818461082b565b905092915050565b600060208201905061094f6000830184610889565b92915050565b6000602082019050818103600083015261096e81610898565b9050919050565b600060208201905061098a60008301846108e7565b92915050565b6000604051905081810181811067ffffffffffffffff821117156109b7576109b6610b4e565b5b8060405250919050565b600067ffffffffffffffff8211156109dc576109db610b4e565b5b602082029050602081019050919050565b6000819050602082019050919050565b6000819050602082019050919050565b600081519050919050565b600081519050919050565b6000602082019050919050565b6000602082019050919050565b600082825260208201905092915050565b600082825260208201905092915050565b600082825260208201905092915050565b600082825260208201905092915050565b6000610a8c82610b15565b9150610a9783610b15565b9250827fffffffffffffffffffffffffffffffffffffffffffffffffffffffffffffffff03821115610acc57610acb610b1f565b5b828201905092915050565b6000610ae282610af5565b9050919050565b60008115159050919050565b600073ffffffffffffffffffffffffffffffffffffffff82169050919050565b6000819050919050565b7f4e487b7100000000000000000000000000000000000000000000000000000000600052601160045260246000fd5b7f4e487b7100000000000000000000000000000000000000000000000000000000600052604160045260246000fd5b610b8681610ad7565b8114610b9157600080fd5b50565b610b9d81610b15565b8114610ba857600080fd5b5056fea2646970667358221220f89f57170ac523179eb4daed2fb01812e3ddf81f11db0b11408eb7a1826245e464736f6c63430008000033608060405234801561001057600080fd5b50610a3d806100206000396000f3fe608060405234801561001057600080fd5b506004361061002b5760003560e01c8063c8344a2014610030575b600080fd5b61004a60048036038101906100459190610689565b610060565b6040516100579190610791565b60405180910390f35b6060600067ffffffffffffffff8111156100a3577f4e487b7100000000000000000000000000000000000000000000000000000000600052604160045260246000fd5b6040519080825280602002602001820160405280156100d15781602001602082028036833780820191505090505b50600090805190602001906100e7929190610509565b5060008373ffffffffffffffffffffffffffffffffffffffff166306a49fce6040518163ffffffff1660e01b815260040160006040518083038186803b15801561013057600080fd5b505afa158015610144573d6000803e3d6000fd5b505050506040513d6000823e3d601f19601f8201168201806040525081019061016d9190610648565b905060008151905060008060005b8381101561034a578773ffffffffffffffffffffffffffffffffffffffff1663de2e19a08683815181106101d8577f4e487b7100000000000000000000000000000000000000000000000000000000600052603260045260246000fd5b602002602001015160016040518363ffffffff1660e01b81526004016101ff9291906107b3565b60206040518083038186803b15801561021757600080fd5b505afa15801561022b573d6000803e3d6000fd5b505050506040513d601f19601f8201168201806040525081019061024f91906106c5565b91508282111561025d578192505b60028761026a9190610872565b8311156103375760008582815181106102ac577f4e487b7100000000000000000000000000000000000000000000000000000000600052603260045260246000fd5b60200260200101519080600181540180825580915050600190039060005260206000200160009091909190915055600080548060200260200160405190810160405280929190818152602001828054801561032657602002820191906000526020600020905b815481526020019060010190808311610312575b505050505095505050505050610503565b808061034290610903565b91505061017b565b600090505b838110156104aa578773ffffffffffffffffffffffffffffffffffffffff1663de2e19a08683815181106103ac577f4e487b7100000000000000000000000000000000000000000000000000000000600052603260045260246000fd5b602002602001015160016040518363ffffffff1660e01b81526004016103d39291906107b3565b60206040518083038186803b1580156103eb57600080fd5b505afa1580156103ff573d6000803e3d6000fd5b505050506040513d601f19601f8201168201806040525081019061042391906106c5565b915082821415610497576000858281518110610468577f4e487b7100000000000000000000000000000000000000000000000000000000600052603260045260246000fd5b602002602001015190806001815401808255809150506001900390600052602060002001600090919091909150555b80806104a290610903565b91505061034f565b60008054806020026020016040519081016040528092919081815260200182805480156104f657602002820191906000526020600020905b8154815260200190600101908083116104e2575b5050505050955050505050505b92915050565b828054828255906000526020600020908101928215610545579160200282015b82811115610544578251825591602001919060010190610529565b5b5090506105529190610556565b5090565b5b8082111561056f576000816000905550600101610557565b5090565b60006105866105818461080d565b6107dc565b905080838252602082019050828560208602820111156105a557600080fd5b60005b858110156105d557816105bb8882610633565b8452602084019350602083019250506001810190506105a8565b5050509392505050565b600082601f8301126105f057600080fd5b8151610600848260208601610573565b91505092915050565b600081359050610618816109d9565b92915050565b60008135905061062d816109f0565b92915050565b600081519050610642816109f0565b92915050565b60006020828403121561065a57600080fd5b600082015167ffffffffffffffff81111561067457600080fd5b610680848285016105df565b91505092915050565b6000806040838503121561069c57600080fd5b60006106aa85828601610609565b92505060206106bb8582860161061e565b9150509250929050565b6000602082840312156106d757600080fd5b60006106e584828501610633565b91505092915050565b60006106fa8383610773565b60208301905092915050565b600061071182610849565b61071b8185610861565b935061072683610839565b8060005b8381101561075757815161073e88826106ee565b975061074983610854565b92505060018101905061072a565b5085935050505092915050565b61076d816108f1565b82525050565b61077c816108e7565b82525050565b61078b816108e7565b82525050565b600060208201905081810360008301526107ab8184610706565b905092915050565b60006040820190506107c86000830185610782565b6107d56020830184610764565b9392505050565b6000604051905081810181811067ffffffffffffffff82111715610803576108026109aa565b5b8060405250919050565b600067ffffffffffffffff821115610828576108276109aa565b5b602082029050602081019050919050565b6000819050602082019050919050565b600081519050919050565b6000602082019050919050565b600082825260208201905092915050565b600061087d826108e7565b9150610888836108e7565b9250826108985761089761097b565b5b828204905092915050565b60006108ae826108c7565b9050919050565b60006108c0826108a3565b9050919050565b600073ffffffffffffffffffffffffffffffffffffffff82169050919050565b6000819050919050565b60006108fc826108e7565b9050919050565b600061090e826108e7565b91507fffffffffffffffffffffffffffffffffffffffffffffffffffffffffffffffff8214156109415761094061094c565b5b600182019050919050565b7f4e487b7100000000000000000000000000000000000000000000000000000000600052601160045260246000fd5b7f4e487b7100000000000000000000000000000000000000000000000000000000600052601260045260246000fd5b7f4e487b7100000000000000000000000000000000000000000000000000000000600052604160045260246000fd5b6109e2816108b5565b81146109ed57600080fd5b50565b6109f9816108e7565b8114610a0457600080fd5b5056fea2646970667358221220cae97eb2d36feda6b5f0193d4493846cc0a3c454db16267c8173559085497bef64736f6c63430008000033608060405234801561001057600080fd5b50610abd806100206000396000f3fe608060405234801561001057600080fd5b506004361061002b5760003560e01c8063c8344a2014610030575b600080fd5b61004a600480360381019061004591906106d4565b610060565b60405161005791906107cd565b60405180910390f35b6060600067ffffffffffffffff8111156100a3577f4e487b7100000000000000000000000000000000000000000000000000000000600052604160045260246000fd5b6040519080825280602002602001820160405280156100d15781602001602082028036833780820191505090505b50600190805190602001906100e7929190610554565b5082600560006101000a81548173ffffffffffffffffffffffffffffffffffffffff021916908373ffffffffffffffffffffffffffffffffffffffff1602179055506002826101369190610904565b600481905550600560009054906101000a900473ffffffffffffffffffffffffffffffffffffffff1673ffffffffffffffffffffffffffffffffffffffff166306a49fce6040518163ffffffff1660e01b815260040160006040518083038186803b1580156101a457600080fd5b505afa1580156101b8573d6000803e3d6000fd5b505050506040513d6000823e3d601f19601f820116820180604052508101906101e19190610693565b600290805190602001906101f6929190610554565b50600280549050600381905550600080600191505b60035482101561025c5761021e826102e0565b610226610475565b90506004546000808381526020019081526020016000205411156102495761025c565b818061025490610983565b92505061020b565b600181908060018154018082558091505060019003906000526020600020016000909190919091505560018054806020026020016040519081016040528092919081815260200182805480156102d157602002820191906000526020600020905b8154815260200190600101908083116102bd575b50505050509250505092915050565b600080600091505b60035482101561047057600560009054906101000a900473ffffffffffffffffffffffffffffffffffffffff1673ffffffffffffffffffffffffffffffffffffffff1663de2e19a06002848154811061036a577f4e487b7100000000000000000000000000000000000000000000000000000000600052603260045260246000fd5b9060005260206000200154856040518363ffffffff1660e01b81526004016103939291906107ef565b60206040518083038186803b1580156103ab57600080fd5b505afa1580156103bf573d6000803e3d6000fd5b505050506040513d601f19601f820116820180604052508101906103e39190610710565b905082816103f19190610904565b6000806002858154811061042e577f4e487b7100000000000000000000000000000000000000000000000000000000600052603260045260246000fd5b90600052602060002001548152602001908152602001600020600082825461045691906108ae565b92505081905550818061046890610983565b9250506102e8565b505050565b60008060008060008093505b60035484101561054a57600080600286815481106104c8577f4e487b7100000000000000000000000000000000000000000000000000000000600052603260045260246000fd5b90600052602060002001548152602001908152602001600020549250818311156105375782915060028481548110610529577f4e487b7100000000000000000000000000000000000000000000000000000000600052603260045260246000fd5b906000526020600020015490505b838061054290610983565b945050610481565b8094505050505090565b828054828255906000526020600020908101928215610590579160200282015b8281111561058f578251825591602001919060010190610574565b5b50905061059d91906105a1565b5090565b5b808211156105ba5760008160009055506001016105a2565b5090565b60006105d16105cc84610849565b610818565b905080838252602082019050828560208602820111156105f057600080fd5b60005b858110156106205781610606888261067e565b8452602084019350602083019250506001810190506105f3565b5050509392505050565b600082601f83011261063b57600080fd5b815161064b8482602086016105be565b91505092915050565b60008135905061066381610a59565b92915050565b60008135905061067881610a70565b92915050565b60008151905061068d81610a70565b92915050565b6000602082840312156106a557600080fd5b600082015167ffffffffffffffff8111156106bf57600080fd5b6106cb8482850161062a565b91505092915050565b600080604083850312156106e757600080fd5b60006106f585828601610654565b925050602061070685828601610669565b9150509250929050565b60006020828403121561072257600080fd5b60006107308482850161067e565b91505092915050565b600061074583836107af565b60208301905092915050565b600061075c82610885565b610766818561089d565b935061077183610875565b8060005b838110156107a25781516107898882610739565b975061079483610890565b925050600181019050610775565b5085935050505092915050565b6107b881610979565b82525050565b6107c781610979565b82525050565b600060208201905081810360008301526107e78184610751565b905092915050565b600060408201905061080460008301856107be565b61081160208301846107be565b9392505050565b6000604051905081810181811067ffffffffffffffff8211171561083f5761083e610a2a565b5b8060405250919050565b600067ffffffffffffffff82111561086457610863610a2a565b5b602082029050602081019050919050565b6000819050602082019050919050565b600081519050919050565b6000602082019050919050565b600082825260208201905092915050565b60006108b982610979565b91506108c483610979565b9250827fffffffffffffffffffffffffffffffffffffffffffffffffffffffffffffffff038211156108f9576108f86109cc565b5b828201905092915050565b600061090f82610979565b915061091a83610979565b92508261092a576109296109fb565b5b828204905092915050565b600061094082610959565b9050919050565b600061095282610935565b9050919050565b600073ffffffffffffffffffffffffffffffffffffffff82169050919050565b6000819050919050565b600061098e82610979565b91507fffffffffffffffffffffffffffffffffffffffffffffffffffffffffffffffff8214156109c1576109c06109cc565b5b600182019050919050565b7f4e487b7100000000000000000000000000000000000000000000000000000000600052601160045260246000fd5b7f4e487b7100000000000000000000000000000000000000000000000000000000600052601260045260246000fd5b7f4e487b7100000000000000000000000000000000000000000000000000000000600052604160045260246000fd5b610a6281610947565b8114610a6d57600080fd5b50565b610a7981610979565b8114610a8457600080fd5b5056fea2646970667358221220234b6d73a60f4a4c9622efe4186ae0bfece645f03bbc0062e8a1ee76416a80c064736f6c63430008000033608060405234801561001057600080fd5b50610d61806100206000396000f3fe608060405234801561001057600080fd5b50600436106100415760003560e01c8063a2fb117514610046578063c5071fd314610076578063c8344a20146100a6575b600080fd5b610060600480360381019061005b91906109c2565b6100d6565b60405161006d9190610aa1565b60405180910390f35b610090600480360381019061008b91906108d9565b6100fa565b60405161009d9190610a7f565b60405180910390f35b6100c060048036038101906100bb9190610986565b6104b5565b6040516100cd9190610a7f565b60405180910390f35b600081815481106100e657600080fd5b906000526020600020016000915090505481565b60606000825167ffffffffffffffff81111561013f577f4e487b7100000000000000000000000000000000000000000000000000000000600052604160045260246000fd5b60405190808252806020026020018201604052801561016d5781602001602082028036833780820191505090505b50905060005b83518110156101d75760008282815181106101b7577f4e487b7100000000000000000000000000000000000000000000000000000000600052603260045260246000fd5b6020026020010181815250506001816101d09190610b7e565b9050610173565b5060005b84518110156103045760005b84518110156102f057858281518110610229577f4e487b7100000000000000000000000000000000000000000000000000000000600052603260045260246000fd5b60200260200101518181518110610269577f4e487b7100000000000000000000000000000000000000000000000000000000600052603260045260246000fd5b60200260200101516001865161027f9190610b7e565b6102899190610bd4565b8382815181106102c2577f4e487b7100000000000000000000000000000000000000000000000000000000600052603260045260246000fd5b602002602001018181516102d69190610b7e565b9150818152505080806102e890610c56565b9150506101e7565b5080806102fc90610c56565b9150506101db565b506000805b8451811015610459578183828151811061034c577f4e487b7100000000000000000000000000000000000000000000000000000000600052603260045260246000fd5b602002602001015114156103845760008190806001815401808255809150506001900390600052602060002001600090919091909150555b818382815181106103be577f4e487b7100000000000000000000000000000000000000000000000000000000600052603260045260246000fd5b6020026020010151111561044657828181518110610405577f4e487b7100000000000000000000000000000000000000000000000000000000600052603260045260246000fd5b6020026020010151915060008061041c91906105e1565b60008190806001815401808255809150506001900390600052602060002001600090919091909150555b808061045190610c56565b915050610309565b5060008054806020026020016040519081016040528092919081815260200182805480156104a657602002820191906000526020600020905b815481526020019060010190808311610492575b50505050509250505092915050565b606060008373ffffffffffffffffffffffffffffffffffffffff1663afa524086040518163ffffffff1660e01b8152600401600060405180830381600087803b15801561050157600080fd5b505af1158015610515573d6000803e3d6000fd5b505050506040513d6000823e3d601f19601f8201168201806040525081019061053e9190610898565b905060008473ffffffffffffffffffffffffffffffffffffffff166306a49fce6040518163ffffffff1660e01b815260040160006040518083038186803b15801561058857600080fd5b505afa15801561059c573d6000803e3d6000fd5b505050506040513d6000823e3d601f19601f820116820180604052508101906105c59190610945565b905060006105d383836100fa565b905080935050505092915050565b50805460008255906000526020600020908101906105ff9190610602565b50565b5b8082111561061b576000816000905550600101610603565b5090565b600061063261062d84610aed565b610abc565b9050808382526020820190508260005b8581101561067257813585016106588882610805565b845260208401935060208301925050600181019050610642565b5050509392505050565b600061068f61068a84610aed565b610abc565b9050808382526020820190508260005b858110156106cf57815185016106b5888261082f565b84526020840193506020830192505060018101905061069f565b5050509392505050565b60006106ec6106e784610b19565b610abc565b9050808382526020820190508285602086028201111561070b57600080fd5b60005b8581101561073b5781610721888261086e565b84526020840193506020830192505060018101905061070e565b5050509392505050565b600061075861075384610b19565b610abc565b9050808382526020820190508285602086028201111561077757600080fd5b60005b858110156107a7578161078d8882610883565b84526020840193506020830192505060018101905061077a565b5050509392505050565b600082601f8301126107c257600080fd5b81356107d284826020860161061f565b91505092915050565b600082601f8301126107ec57600080fd5b81516107fc84826020860161067c565b91505092915050565b600082601f83011261081657600080fd5b81356108268482602086016106d9565b91505092915050565b600082601f83011261084057600080fd5b8151610850848260208601610745565b91505092915050565b60008135905061086881610cfd565b92915050565b60008135905061087d81610d14565b92915050565b60008151905061089281610d14565b92915050565b6000602082840312156108aa57600080fd5b600082015167ffffffffffffffff8111156108c457600080fd5b6108d0848285016107db565b91505092915050565b600080604083850312156108ec57600080fd5b600083013567ffffffffffffffff81111561090657600080fd5b610912858286016107b1565b925050602083013567ffffffffffffffff81111561092f57600080fd5b61093b85828601610805565b9150509250929050565b60006020828403121561095757600080fd5b600082015167ffffffffffffffff81111561097157600080fd5b61097d8482850161082f565b91505092915050565b6000806040838503121561099957600080fd5b60006109a785828601610859565b92505060206109b88582860161086e565b9150509250929050565b6000602082840312156109d457600080fd5b60006109e28482850161086e565b91505092915050565b60006109f78383610a61565b60208301905092915050565b6000610a0e82610b55565b610a188185610b6d565b9350610a2383610b45565b8060005b83811015610a54578151610a3b88826109eb565b9750610a4683610b60565b925050600181019050610a27565b5085935050505092915050565b610a6a81610c4c565b82525050565b610a7981610c4c565b82525050565b60006020820190508181036000830152610a998184610a03565b905092915050565b6000602082019050610ab66000830184610a70565b92915050565b6000604051905081810181811067ffffffffffffffff82111715610ae357610ae2610cce565b5b8060405250919050565b600067ffffffffffffffff821115610b0857610b07610cce565b5b602082029050602081019050919050565b600067ffffffffffffffff821115610b3457610b33610cce565b5b602082029050602081019050919050565b6000819050602082019050919050565b600081519050919050565b6000602082019050919050565b600082825260208201905092915050565b6000610b8982610c4c565b9150610b9483610c4c565b9250827fffffffffffffffffffffffffffffffffffffffffffffffffffffffffffffffff03821115610bc957610bc8610c9f565b5b828201905092915050565b6000610bdf82610c4c565b9150610bea83610c4c565b925082821015610bfd57610bfc610c9f565b5b828203905092915050565b6000610c1382610c2c565b9050919050565b6000610c2582610c08565b9050919050565b600073ffffffffffffffffffffffffffffffffffffffff82169050919050565b6000819050919050565b6000610c6182610c4c565b91507fffffffffffffffffffffffffffffffffffffffffffffffffffffffffffffffff821415610c9457610c93610c9f565b5b600182019050919050565b7f4e487b7100000000000000000000000000000000000000000000000000000000600052601160045260246000fd5b7f4e487b7100000000000000000000000000000000000000000000000000000000600052604160045260246000fd5b610d0681610c1a565b8114610d1157600080fd5b50565b610d1d81610c4c565b8114610d2857600080fd5b5056fea2646970667358221220bec1b76642477bb0a557e2eae2ee679a4e585ced49890e09d5e0a85a2b803f5b64736f6c63430008000033a2646970667358221220fa2318ef9b033375a6da0741ad4d270d6286f4d5aa58837f23760a8803913eca64736f6c63430008000033",
  "immutableReferences": {},
  "source": "// SPDX-License-Identifier: UNLICENSED\npragma solidity >=0.8.0;\n\nimport './Election.sol';\nimport './ElectionStorage.sol';\nimport './ElectionFactory.sol';\n\ncontract ElectionOrganizer {\n\n    // ------------------------------------------------------------------------------------------------------\n    //                                              STATE\n    // ------------------------------------------------------------------------------------------------------\n    \n    struct OrganizerInfo{\n        uint organizerID;\n        string name;\n        address publicAddress;\n    }\n    OrganizerInfo[] organizers;\n    mapping(address => OrganizerInfo) organizerWithAddress;\n    mapping(uint => OrganizerInfo) organizerWithID;\n    uint organizerCount;\n\n    mapping(address => bool) organizerAuthStatus;\n\n    // ------------------------------------------------------------------------------------------------------\n    //                                          DEPENDENCIES\n    // ------------------------------------------------------------------------------------------------------\n\n    ElectionStorage electionStorage;\n    ElectionFactory electionFactory;\n\n    // ------------------------------------------------------------------------------------------------------\n    //                                              EVENTS\n    // ------------------------------------------------------------------------------------------------------\n\n    event CreatedElection(address election);\n    event CandidateAdded(address election, Election.Candidate candidate);\n\n    // ------------------------------------------------------------------------------------------------------\n    //                                            MODIFIERS\n    // ------------------------------------------------------------------------------------------------------\n\n    modifier onlyOrganizer() {\n        require(organizerAuthStatus[msg.sender],\"Only accessible by users regisetered as organizers\");\n        _;\n    }\n\n    modifier onlyCorrespondingOrganizer(address _organizer) {\n        require(msg.sender == _organizer, \"Only accessible by the corresponding election organizer\");\n        _;\n    }\n\n    // ------------------------------------------------------------------------------------------------------\n    //                                            CONSTRUCTOR\n    // ------------------------------------------------------------------------------------------------------\n\n    constructor() {\n        organizerCount = 100;\n        electionStorage = new ElectionStorage();\n        electionFactory = new ElectionFactory();\n    }\n\n    // ------------------------------------------------------------------------------------------------------\n    //                                            FUNCTIONS\n    // ------------------------------------------------------------------------------------------------------\n\n    function getElectionStorage() public view returns(address) {\n        return address(electionStorage);\n    }\n\n    function getElectionFactory() public view returns(address) {\n        return address(electionFactory);\n    }\n\n    function addElectionOrganizer(OrganizerInfo memory _organizerInfo) external {\n        uint id = organizerCount + 1;\n        _organizerInfo.organizerID = id;\n        organizers.push(_organizerInfo);\n        organizerWithAddress[_organizerInfo.publicAddress] = _organizerInfo;\n        organizerWithID[_organizerInfo.organizerID] = _organizerInfo;\n        organizerAuthStatus[_organizerInfo.publicAddress] = true;\n        organizerCount++;\n    }\n\n    function getElectionOrganizers() public view returns(OrganizerInfo[] memory) {\n        return organizers;\n    }\n    \n    function getElectionOrganizerByID(uint _organizerID) public view returns(OrganizerInfo memory) {\n        return organizerWithID[_organizerID];\n    }\n\n    function getElectionOrganizerByAddress(address _address) public view returns(OrganizerInfo memory) {\n        return organizerWithAddress[_address];\n    }\n\n    function createElection(Election.ElectionInfo memory _electionInfo,uint _ballotType, uint _resultCalculatorType) public onlyOrganizer {\n        Election election;\n        uint id = electionStorage.getElectionCount() + 1;\n        _electionInfo.electionID = id;\n        election = electionFactory.getElection(_electionInfo, _ballotType, _resultCalculatorType, msg.sender, address(this));\n        // save in ElectionStorage\n        electionStorage.addElection(election,msg.sender);\n        emit CreatedElection(address(election));\n    }\n\n    function getElections() public view returns(address[] memory) {\n        return electionStorage.getElections();\n    }\n\n    function getElectionByID(uint _electionID) public view returns(address) {\n        return electionStorage.getElectionByID(_electionID);\n    }\n    \n    // function getElectionByStatus(uint _status) public view returns(Election) {\n    //     return electionStorage.getElectionByStatus(_status);\n    // }\n\n    function getElectionsOfOrganizer() public view returns(address[] memory) {\n        return electionStorage.getElectionsOfOrganizer(msg.sender);\n    }\n\n    function addCandidate(Election _election, Election.Candidate memory _candidate)public onlyCorrespondingOrganizer(_election.getElectionOrganizer()) {\n        _election.addCandidate(_candidate);\n        emit CandidateAdded(address(_election),_candidate);\n    }\n    \n    function getResult(Election _election) public returns(uint[] memory) {\n        return _election.getResult();\n    }\n    \n}",
  "sourcePath": "/Users/harsh/Desktop/projects/agora-blockchain/server/contracts/ElectionOrganizer.sol",
  "compiler": {
    "name": "solc",
    "version": "0.8.0+commit.c7dfd78e.Emscripten.clang"
  },
  "schemaVersion": "3.4.12",
  "updatedAt": "2023-03-29T13:24:49.440Z",
  "devdoc": {
    "kind": "dev",
    "methods": {},
    "version": 1
  },
  "userdoc": {
    "kind": "user",
    "methods": {},
    "version": 1
  }
}