{
  "contractName": "Election",
  "abi": [
    {
      "inputs": [
        {
          "components": [
            {
              "internalType": "uint256",
              "name": "electionID",
              "type": "uint256"
            },
            {
              "internalType": "string",
              "name": "name",
              "type": "string"
            },
            {
              "internalType": "string",
              "name": "description",
              "type": "string"
            },
            {
              "internalType": "uint256",
              "name": "startDate",
              "type": "uint256"
            },
            {
              "internalType": "uint256",
              "name": "endDate",
              "type": "uint256"
            }
          ],
          "internalType": "struct Election.ElectionInfo",
          "name": "_electionInfo",
          "type": "tuple"
        },
        {
          "internalType": "contract Ballot",
          "name": "_ballot",
          "type": "address"
        },
        {
          "internalType": "contract ResultCalculator",
          "name": "_resultCalculator",
          "type": "address"
        },
        {
          "internalType": "address",
          "name": "_electionOrganizer",
          "type": "address"
        },
        {
          "internalType": "address",
          "name": "_electionOrganizerContract",
          "type": "address"
        }
      ],
      "stateMutability": "nonpayable",
      "type": "constructor"
    },
    {
      "anonymous": false,
      "inputs": [
        {
          "indexed": false,
          "internalType": "address",
          "name": "election",
          "type": "address"
        },
        {
          "indexed": false,
          "internalType": "address",
          "name": "ballot",
          "type": "address"
        },
        {
          "components": [
            {
              "internalType": "uint256",
              "name": "candidateID",
              "type": "uint256"
            },
            {
              "internalType": "string",
              "name": "name",
              "type": "string"
            },
            {
              "internalType": "string",
              "name": "description",
              "type": "string"
            }
          ],
          "indexed": false,
          "internalType": "struct Election.Candidate",
          "name": "candidate",
          "type": "tuple"
        }
      ],
      "name": "CandidateAdded",
      "type": "event"
    },
    {
      "anonymous": false,
      "inputs": [
        {
          "indexed": false,
          "internalType": "uint256[]",
          "name": "winners",
          "type": "uint256[]"
        }
      ],
      "name": "ListWinners",
      "type": "event"
    },
    {
      "anonymous": false,
      "inputs": [
        {
          "indexed": false,
          "internalType": "address",
          "name": "ballot",
          "type": "address"
        },
        {
          "components": [
            {
              "internalType": "uint256",
              "name": "candidateID",
              "type": "uint256"
            },
            {
              "internalType": "string",
              "name": "name",
              "type": "string"
            },
            {
              "internalType": "string",
              "name": "description",
              "type": "string"
            }
          ],
          "indexed": false,
          "internalType": "struct Election.Candidate",
          "name": "candidate",
          "type": "tuple"
        },
        {
          "indexed": false,
          "internalType": "uint256",
          "name": "weight",
          "type": "uint256"
        }
      ],
      "name": "VoteCasted",
      "type": "event"
    },
    {
      "inputs": [],
      "name": "getStatus",
      "outputs": [
        {
          "internalType": "enum Election.Status",
          "name": "",
          "type": "uint8"
        }
      ],
      "stateMutability": "view",
      "type": "function"
    },
    {
      "inputs": [],
      "name": "getBallot",
      "outputs": [
        {
          "internalType": "address",
          "name": "",
          "type": "address"
        }
      ],
      "stateMutability": "view",
      "type": "function"
    },
    {
      "inputs": [],
      "name": "getResultCalculator",
      "outputs": [
        {
          "internalType": "address",
          "name": "",
          "type": "address"
        }
      ],
      "stateMutability": "view",
      "type": "function"
    },
    {
      "inputs": [],
      "name": "getElectionInfo",
      "outputs": [
        {
          "components": [
            {
              "internalType": "uint256",
              "name": "electionID",
              "type": "uint256"
            },
            {
              "internalType": "string",
              "name": "name",
              "type": "string"
            },
            {
              "internalType": "string",
              "name": "description",
              "type": "string"
            },
            {
              "internalType": "uint256",
              "name": "startDate",
              "type": "uint256"
            },
            {
              "internalType": "uint256",
              "name": "endDate",
              "type": "uint256"
            }
          ],
          "internalType": "struct Election.ElectionInfo",
          "name": "",
          "type": "tuple"
        }
      ],
      "stateMutability": "view",
      "type": "function"
    },
    {
      "inputs": [],
      "name": "getElectionOrganizer",
      "outputs": [
        {
          "internalType": "address",
          "name": "",
          "type": "address"
        }
      ],
      "stateMutability": "view",
      "type": "function"
    },
    {
      "inputs": [
        {
          "components": [
            {
              "internalType": "uint256",
              "name": "candidateID",
              "type": "uint256"
            },
            {
              "internalType": "string",
              "name": "name",
              "type": "string"
            },
            {
              "internalType": "string",
              "name": "description",
              "type": "string"
            }
          ],
          "internalType": "struct Election.Candidate",
          "name": "_candidate",
          "type": "tuple"
        }
      ],
      "name": "addCandidate",
      "outputs": [],
      "stateMutability": "nonpayable",
      "type": "function"
    },
    {
      "inputs": [],
      "name": "getCandidateCount",
      "outputs": [
        {
          "internalType": "uint256",
          "name": "",
          "type": "uint256"
        }
      ],
      "stateMutability": "view",
      "type": "function"
    },
    {
      "inputs": [],
      "name": "getCandidates",
      "outputs": [
        {
          "components": [
            {
              "internalType": "uint256",
              "name": "candidateID",
              "type": "uint256"
            },
            {
              "internalType": "string",
              "name": "name",
              "type": "string"
            },
            {
              "internalType": "string",
              "name": "description",
              "type": "string"
            }
          ],
          "internalType": "struct Election.Candidate[]",
          "name": "",
          "type": "tuple[]"
        }
      ],
      "stateMutability": "view",
      "type": "function"
    },
    {
      "inputs": [
        {
          "internalType": "uint256",
          "name": "_candidateID",
          "type": "uint256"
        }
      ],
      "name": "getCandidateByID",
      "outputs": [
        {
          "components": [
            {
              "internalType": "uint256",
              "name": "candidateID",
              "type": "uint256"
            },
            {
              "internalType": "string",
              "name": "name",
              "type": "string"
            },
            {
              "internalType": "string",
              "name": "description",
              "type": "string"
            }
          ],
          "internalType": "struct Election.Candidate",
          "name": "",
          "type": "tuple"
        }
      ],
      "stateMutability": "view",
      "type": "function"
    },
    {
      "inputs": [],
      "name": "getVoterCount",
      "outputs": [
        {
          "internalType": "uint256",
          "name": "",
          "type": "uint256"
        }
      ],
      "stateMutability": "view",
      "type": "function"
    },
    {
      "inputs": [
        {
          "internalType": "address",
          "name": "_voter",
          "type": "address"
        }
      ],
      "name": "getVoteStatus",
      "outputs": [
        {
          "internalType": "bool",
          "name": "",
          "type": "bool"
        }
      ],
      "stateMutability": "view",
      "type": "function"
    },
    {
      "inputs": [],
      "name": "getWinners",
      "outputs": [
        {
          "internalType": "uint256[]",
          "name": "",
          "type": "uint256[]"
        }
      ],
      "stateMutability": "view",
      "type": "function"
    },
    {
      "inputs": [
        {
          "internalType": "address",
          "name": "_voter",
          "type": "address"
        },
        {
          "internalType": "uint256",
          "name": "_candidateID",
          "type": "uint256"
        },
        {
          "internalType": "uint256",
          "name": "weight",
          "type": "uint256"
        }
      ],
      "name": "vote",
      "outputs": [],
      "stateMutability": "nonpayable",
      "type": "function"
    },
    {
      "inputs": [],
      "name": "getResult",
      "outputs": [
        {
          "internalType": "uint256[]",
          "name": "",
          "type": "uint256[]"
        }
      ],
      "stateMutability": "nonpayable",
      "type": "function"
    }
  ],
  "bytecode": "0x60806040523480156200001157600080fd5b5060405162002aad38038062002aad833981810160405281019062000037919062000418565b81600960006101000a81548173ffffffffffffffffffffffffffffffffffffffff021916908373ffffffffffffffffffffffffffffffffffffffff16021790555080600a60006101000a81548173ffffffffffffffffffffffffffffffffffffffff021916908373ffffffffffffffffffffffffffffffffffffffff1602179055508460008082015181600001556020820151816001019080519060200190620000e3929190620001d3565b50604082015181600201908051906020019062000102929190620001d3565b50606082015181600301556080820151816004015590505083600c60016101000a81548173ffffffffffffffffffffffffffffffffffffffff021916908373ffffffffffffffffffffffffffffffffffffffff16021790555082600d60006101000a81548173ffffffffffffffffffffffffffffffffffffffff021916908373ffffffffffffffffffffffffffffffffffffffff1602179055506103e86008819055506000600b819055506000600c60006101000a81548160ff0219169083151502179055505050505050620006b2565b828054620001e190620005b6565b90600052602060002090601f01602090048101928262000205576000855562000251565b82601f106200022057805160ff191683800117855562000251565b8280016001018555821562000251579182015b828111156200025057825182559160200191906001019062000233565b5b50905062000260919062000264565b5090565b5b808211156200027f57600081600090555060010162000265565b5090565b60006200029a6200029484620004e7565b620004b3565b905082815260208101848484011115620002b357600080fd5b620002c084828562000580565b509392505050565b600081519050620002d9816200064a565b92915050565b600081519050620002f08162000664565b92915050565b60008151905062000307816200067e565b92915050565b600082601f8301126200031f57600080fd5b81516200033184826020860162000283565b91505092915050565b600060a082840312156200034d57600080fd5b6200035960a0620004b3565b905060006200036b8482850162000401565b600083015250602082015167ffffffffffffffff8111156200038c57600080fd5b6200039a848285016200030d565b602083015250604082015167ffffffffffffffff811115620003bb57600080fd5b620003c9848285016200030d565b6040830152506060620003df8482850162000401565b6060830152506080620003f58482850162000401565b60808301525092915050565b600081519050620004128162000698565b92915050565b600080600080600060a086880312156200043157600080fd5b600086015167ffffffffffffffff8111156200044c57600080fd5b6200045a888289016200033a565b95505060206200046d88828901620002df565b94505060406200048088828901620002f6565b93505060606200049388828901620002c8565b9250506080620004a688828901620002c8565b9150509295509295909350565b6000604051905081810181811067ffffffffffffffff82111715620004dd57620004dc6200061b565b5b8060405250919050565b600067ffffffffffffffff8211156200050557620005046200061b565b5b601f19601f8301169050602081019050919050565b6000620005278262000556565b9050919050565b60006200053b826200051a565b9050919050565b60006200054f826200051a565b9050919050565b600073ffffffffffffffffffffffffffffffffffffffff82169050919050565b6000819050919050565b60005b83811015620005a057808201518184015260208101905062000583565b83811115620005b0576000848401525b50505050565b60006002820490506001821680620005cf57607f821691505b60208210811415620005e657620005e5620005ec565b5b50919050565b7f4e487b7100000000000000000000000000000000000000000000000000000000600052602260045260246000fd5b7f4e487b7100000000000000000000000000000000000000000000000000000000600052604160045260246000fd5b62000655816200051a565b81146200066157600080fd5b50565b6200066f816200052e565b81146200067b57600080fd5b50565b620006898162000542565b81146200069557600080fd5b50565b620006a38162000576565b8114620006af57600080fd5b50565b6123eb80620006c26000396000f3fe608060405234801561001057600080fd5b50600436106100ea5760003560e01c8063521b0dcc1161008c5780639baec8b9116100665780639baec8b91461023b578063de29278914610259578063df15c37e14610277578063e04b1c0c14610295576100ea565b8063521b0dcc146101bd57806382202396146101ed57806386852dca1461021d576100ea565b80632a4a1b73116100c85780632a4a1b731461014757806330a563471461016357806337349a7d146101815780634e69d5601461019f576100ea565b806306a49fce146100ef57806311174a291461010d578063273ffe861461012b575b600080fd5b6100f76102b3565b6040516101049190611d55565b60405180910390f35b610115610440565b6040516101229190611f1e565b60405180910390f35b610145600480360381019061014091906115db565b61044a565b005b610161600480360381019061015c9190611522565b61078c565b005b61016b610963565b6040516101789190611f1e565b60405180910390f35b61018961096d565b6040516101969190611c87565b60405180910390f35b6101a7610a27565b6040516101b49190611dff565b60405180910390f35b6101d760048036038101906101d291906114f9565b610a5c565b6040516101e49190611dbb565b60405180910390f35b6102076004803603810190610202919061161c565b610b10565b6040516102149190611eda565b60405180910390f35b610225610c6b565b6040516102329190611efc565b60405180910390f35b610243610dc7565b6040516102509190611c87565b60405180910390f35b610261610e81565b60405161026e9190611d77565b60405180910390f35b61027f6110ff565b60405161028c9190611d77565b60405180910390f35b61029d6111ad565b6040516102aa9190611c87565b60405180910390f35b60606005805480602002602001604051908101604052809291908181526020016000905b82821015610437578382906000526020600020906003020160405180606001604052908160008201548152602001600182018054610314906121da565b80601f0160208091040260200160405190810160405280929190818152602001828054610340906121da565b801561038d5780601f106103625761010080835404028352916020019161038d565b820191906000526020600020905b81548152906001019060200180831161037057829003601f168201915b505050505081526020016002820180546103a6906121da565b80601f01602080910402602001604051908101604052809291908181526020018280546103d2906121da565b801561041f5780601f106103f45761010080835404028352916020019161041f565b820191906000526020600020905b81548152906001019060200180831161040257829003601f168201915b505050505081525050815260200190600101906102d7565b50505050905090565b6000600b54905090565b600a60009054906101000a900473ffffffffffffffffffffffffffffffffffffffff1673ffffffffffffffffffffffffffffffffffffffff163373ffffffffffffffffffffffffffffffffffffffff16146104da576040517f08c379a00000000000000000000000000000000000000000000000000000000081526004016104d190611e5a565b60405180910390fd5b60016002811115610514577f4e487b7100000000000000000000000000000000000000000000000000000000600052602160045260246000fd5b61051c610a27565b6002811115610554577f4e487b7100000000000000000000000000000000000000000000000000000000600052602160045260246000fd5b14610594576040517f08c379a000000000000000000000000000000000000000000000000000000000815260040161058b90611eba565b60405180910390fd5b600060016008546105a591906120a7565b90508082600001818152505060058290806001815401808255809150506001900390600052602060002090600302016000909190919091506000820151816000015560208201518160010190805190602001906106039291906111d7565b5060408201518160020190805190602001906106209291906111d7565b505050600c60019054906101000a900473ffffffffffffffffffffffffffffffffffffffff1673ffffffffffffffffffffffffffffffffffffffff1663e844d09783600001516040518263ffffffff1660e01b81526004016106829190611f1e565b600060405180830381600087803b15801561069c57600080fd5b505af11580156106b0573d6000803e3d6000fd5b505050508160076000846000015181526020019081526020016000206000820151816000015560208201518160010190805190602001906106f29291906111d7565b50604082015181600201908051906020019061070f9291906111d7565b509050506008600081548092919061072690612226565b91905055507f4d9dd414a40890e16b7bd0ea98bdf9d5b55c3d20cfe4b18febda0d60fb32a60c30600c60019054906101000a900473ffffffffffffffffffffffffffffffffffffffff168460405161078093929190611ca2565b60405180910390a15050565b600060028111156107c6577f4e487b7100000000000000000000000000000000000000000000000000000000600052602160045260246000fd5b6107ce610a27565b6002811115610806577f4e487b7100000000000000000000000000000000000000000000000000000000600052602160045260246000fd5b14610846576040517f08c379a000000000000000000000000000000000000000000000000000000000815260040161083d90611e7a565b60405180910390fd5b600c60019054906101000a900473ffffffffffffffffffffffffffffffffffffffff1673ffffffffffffffffffffffffffffffffffffffff16632a4a1b738484846040518463ffffffff1660e01b81526004016108a593929190611d1e565b600060405180830381600087803b1580156108bf57600080fd5b505af11580156108d3573d6000803e3d6000fd5b50505050600b60008154809291906108ea90612226565b91905055507fd589db416dab4dff131e94610b2d02ce215ded85a2943a2ea59acd2153a85182600c60019054906101000a900473ffffffffffffffffffffffffffffffffffffffff16600760008581526020019081526020016000208360405161095693929190611ce0565b60405180910390a1505050565b6000600854905090565b6000600960009054906101000a900473ffffffffffffffffffffffffffffffffffffffff1673ffffffffffffffffffffffffffffffffffffffff163373ffffffffffffffffffffffffffffffffffffffff16146109ff576040517f08c379a00000000000000000000000000000000000000000000000000000000081526004016109f690611e3a565b60405180910390fd5b600d60009054906101000a900473ffffffffffffffffffffffffffffffffffffffff16905090565b60008060030154421015610a3e5760019050610a59565b600060040154421015610a545760009050610a59565b600290505b90565b6000600c60019054906101000a900473ffffffffffffffffffffffffffffffffffffffff1673ffffffffffffffffffffffffffffffffffffffff1663521b0dcc836040518263ffffffff1660e01b8152600401610ab99190611c87565b60206040518083038186803b158015610ad157600080fd5b505afa158015610ae5573d6000803e3d6000fd5b505050506040513d601f19601f82011682018060405250810190610b0991906115b2565b9050919050565b610b1861125d565b6007600083815260200190815260200160002060405180606001604052908160008201548152602001600182018054610b50906121da565b80601f0160208091040260200160405190810160405280929190818152602001828054610b7c906121da565b8015610bc95780601f10610b9e57610100808354040283529160200191610bc9565b820191906000526020600020905b815481529060010190602001808311610bac57829003601f168201915b50505050508152602001600282018054610be2906121da565b80601f0160208091040260200160405190810160405280929190818152602001828054610c0e906121da565b8015610c5b5780601f10610c3057610100808354040283529160200191610c5b565b820191906000526020600020905b815481529060010190602001808311610c3e57829003601f168201915b5050505050815250509050919050565b610c7361127e565b60006040518060a001604052908160008201548152602001600182018054610c9a906121da565b80601f0160208091040260200160405190810160405280929190818152602001828054610cc6906121da565b8015610d135780601f10610ce857610100808354040283529160200191610d13565b820191906000526020600020905b815481529060010190602001808311610cf657829003601f168201915b50505050508152602001600282018054610d2c906121da565b80601f0160208091040260200160405190810160405280929190818152602001828054610d58906121da565b8015610da55780601f10610d7a57610100808354040283529160200191610da5565b820191906000526020600020905b815481529060010190602001808311610d8857829003601f168201915b5050505050815260200160038201548152602001600482015481525050905090565b6000600960009054906101000a900473ffffffffffffffffffffffffffffffffffffffff1673ffffffffffffffffffffffffffffffffffffffff163373ffffffffffffffffffffffffffffffffffffffff1614610e59576040517f08c379a0000000000000000000000000000000000000000000000000000000008152600401610e5090611e3a565b60405180910390fd5b600c60019054906101000a900473ffffffffffffffffffffffffffffffffffffffff16905090565b6060600280811115610ebc577f4e487b7100000000000000000000000000000000000000000000000000000000600052602160045260246000fd5b610ec4610a27565b6002811115610efc577f4e487b7100000000000000000000000000000000000000000000000000000000600052602160045260246000fd5b14610f3c576040517f08c379a0000000000000000000000000000000000000000000000000000000008152600401610f3390611e9a565b60405180910390fd5b60001515600c60009054906101000a900460ff16151514156110f157600d60009054906101000a900473ffffffffffffffffffffffffffffffffffffffff1673ffffffffffffffffffffffffffffffffffffffff1663c8344a20600c60019054906101000a900473ffffffffffffffffffffffffffffffffffffffff16600b546040518363ffffffff1660e01b8152600401610fd9929190611dd6565b600060405180830381600087803b158015610ff357600080fd5b505af1158015611007573d6000803e3d6000fd5b505050506040513d6000823e3d601f19601f820116820180604052508101906110309190611571565b600690805190602001906110459291906112ad565b506001600c60006101000a81548160ff0219169083151502179055507f28e5f582afeee46fd13ea548ad814f45b1d4a5159990336d5e66deb48a960e4c60066040516110919190611d99565b60405180910390a160068054806020026020016040519081016040528092919081815260200182805480156110e557602002820191906000526020600020905b8154815260200190600101908083116110d1575b505050505090506110fc565b6110f96110ff565b90505b90565b606060011515600c60009054906101000a900460ff16151514611157576040517f08c379a000000000000000000000000000000000000000000000000000000000815260040161114e90611e1a565b60405180910390fd5b60068054806020026020016040519081016040528092919081815260200182805480156111a357602002820191906000526020600020905b81548152602001906001019080831161118f575b5050505050905090565b6000600960009054906101000a900473ffffffffffffffffffffffffffffffffffffffff16905090565b8280546111e3906121da565b90600052602060002090601f016020900481019282611205576000855561124c565b82601f1061121e57805160ff191683800117855561124c565b8280016001018555821561124c579182015b8281111561124b578251825591602001919060010190611230565b5b50905061125991906112fa565b5090565b60405180606001604052806000815260200160608152602001606081525090565b6040518060a0016040528060008152602001606081526020016060815260200160008152602001600081525090565b8280548282559060005260206000209081019282156112e9579160200282015b828111156112e85782518255916020019190600101906112cd565b5b5090506112f691906112fa565b5090565b5b808211156113135760008160009055506001016112fb565b5090565b600061132a61132584611f6a565b611f39565b9050808382526020820190508285602086028201111561134957600080fd5b60005b85811015611379578161135f88826114e4565b84526020840193506020830192505060018101905061134c565b5050509392505050565b600061139661139184611f96565b611f39565b9050828152602081018484840111156113ae57600080fd5b6113b9848285612198565b509392505050565b6000813590506113d081612370565b92915050565b600082601f8301126113e757600080fd5b81516113f7848260208601611317565b91505092915050565b60008151905061140f81612387565b92915050565b600082601f83011261142657600080fd5b8135611436848260208601611383565b91505092915050565b60006060828403121561145157600080fd5b61145b6060611f39565b9050600061146b848285016114cf565b600083015250602082013567ffffffffffffffff81111561148b57600080fd5b61149784828501611415565b602083015250604082013567ffffffffffffffff8111156114b757600080fd5b6114c384828501611415565b60408301525092915050565b6000813590506114de8161239e565b92915050565b6000815190506114f38161239e565b92915050565b60006020828403121561150b57600080fd5b6000611519848285016113c1565b91505092915050565b60008060006060848603121561153757600080fd5b6000611545868287016113c1565b9350506020611556868287016114cf565b9250506040611567868287016114cf565b9150509250925092565b60006020828403121561158357600080fd5b600082015167ffffffffffffffff81111561159d57600080fd5b6115a9848285016113d6565b91505092915050565b6000602082840312156115c457600080fd5b60006115d284828501611400565b91505092915050565b6000602082840312156115ed57600080fd5b600082013567ffffffffffffffff81111561160757600080fd5b6116138482850161143f565b91505092915050565b60006020828403121561162e57600080fd5b600061163c848285016114cf565b91505092915050565b60006116518383611adc565b905092915050565b60006116658383611c69565b60208301905092915050565b61167a81612107565b82525050565b600061168b82612010565b6116958185612063565b9350836020820285016116a785611fc6565b8060005b858110156116e357848403895281516116c48582611645565b94506116cf8361203c565b925060208a019950506001810190506116ab565b50829750879550505050505092915050565b60006117008261201b565b61170a8185612074565b935061171583611fd6565b8060005b8381101561174657815161172d8882611659565b975061173883612049565b925050600181019050611719565b5085935050505092915050565b600061175e82612026565b6117688185612074565b935061177383611fe6565b8060005b838110156117ab576117888261232b565b6117928882611659565b975061179d83612056565b925050600181019050611777565b5085935050505092915050565b6117c181612119565b82525050565b6117d081612162565b82525050565b6117df81612186565b82525050565b60006117f082612031565b6117fa8185612085565b935061180a8185602086016121a7565b6118138161233e565b840191505092915050565b6000815461182b816121da565b6118358186612085565b94506001821660008114611850576001811461186257611895565b60ff1983168652602086019350611895565b61186b85611ffb565b60005b8381101561188d5781548189015260018201915060208101905061186e565b808801955050505b50505092915050565b60006118ab601b83612096565b91507f526573756c7473206172656e2774206465636c617265642079657400000000006000830152602082019050919050565b60006118eb602583612096565b91507f43616c6c6572206d7573742062652074686520656c656374696f6e206f72676160008301527f6e697a65720000000000000000000000000000000000000000000000000000006020830152604082019050919050565b6000611951603383612096565b91507f4d7573742062652063616c6c65642066726f6d2074686520656c656374696f6e60008301527f206f7267616e697a657220636f6e7472616374000000000000000000000000006020830152604082019050919050565b60006119b7602383612096565b91507f456c656374696f6e206e6565647320746f2062652061637469766520746f207660008301527f6f746500000000000000000000000000000000000000000000000000000000006020830152604082019050919050565b6000611a1d603183612096565b91507f526573756c747320617265206465636c61726564206f6e6c792061667465722060008301527f74686520656c656374696f6e20656e64730000000000000000000000000000006020830152604082019050919050565b6000611a83603083612096565b91507f43616e6e6f74206164642063616e6469646174657320616674657220656c656360008301527f74696f6e206861732073746172746564000000000000000000000000000000006020830152604082019050919050565b6000606083016000830151611af46000860182611c69565b5060208301518482036020860152611b0c82826117e5565b91505060408301518482036040860152611b2682826117e5565b9150508091505092915050565b6000606083016000830151611b4b6000860182611c69565b5060208301518482036020860152611b6382826117e5565b91505060408301518482036040860152611b7d82826117e5565b9150508091505092915050565b6000606083016000808401549050611ba18161220c565b611bae6000870182611c69565b50600184018583036020870152611bc5838261181e565b925050600284018583036040870152611bde838261181e565b925050819250505092915050565b600060a083016000830151611c046000860182611c69565b5060208301518482036020860152611c1c82826117e5565b91505060408301518482036040860152611c3682826117e5565b9150506060830151611c4b6060860182611c69565b506080830151611c5e6080860182611c69565b508091505092915050565b611c7281612158565b82525050565b611c8181612158565b82525050565b6000602082019050611c9c6000830184611671565b92915050565b6000606082019050611cb76000830186611671565b611cc46020830185611671565b8181036040830152611cd68184611b33565b9050949350505050565b6000606082019050611cf56000830186611671565b8181036020830152611d078185611b8a565b9050611d166040830184611c78565b949350505050565b6000606082019050611d336000830186611671565b611d406020830185611c78565b611d4d6040830184611c78565b949350505050565b60006020820190508181036000830152611d6f8184611680565b905092915050565b60006020820190508181036000830152611d9181846116f5565b905092915050565b60006020820190508181036000830152611db38184611753565b905092915050565b6000602082019050611dd060008301846117b8565b92915050565b6000604082019050611deb60008301856117c7565b611df86020830184611c78565b9392505050565b6000602082019050611e1460008301846117d6565b92915050565b60006020820190508181036000830152611e338161189e565b9050919050565b60006020820190508181036000830152611e53816118de565b9050919050565b60006020820190508181036000830152611e7381611944565b9050919050565b60006020820190508181036000830152611e93816119aa565b9050919050565b60006020820190508181036000830152611eb381611a10565b9050919050565b60006020820190508181036000830152611ed381611a76565b9050919050565b60006020820190508181036000830152611ef48184611b33565b905092915050565b60006020820190508181036000830152611f168184611bec565b905092915050565b6000602082019050611f336000830184611c78565b92915050565b6000604051905081810181811067ffffffffffffffff82111715611f6057611f5f6122fc565b5b8060405250919050565b600067ffffffffffffffff821115611f8557611f846122fc565b5b602082029050602081019050919050565b600067ffffffffffffffff821115611fb157611fb06122fc565b5b601f19601f8301169050602081019050919050565b6000819050602082019050919050565b6000819050602082019050919050565b60008190508160005260206000209050919050565b60008190508160005260206000209050919050565b600081519050919050565b600081519050919050565b600081549050919050565b600081519050919050565b6000602082019050919050565b6000602082019050919050565b6000600182019050919050565b600082825260208201905092915050565b600082825260208201905092915050565b600082825260208201905092915050565b600082825260208201905092915050565b60006120b282612158565b91506120bd83612158565b9250827fffffffffffffffffffffffffffffffffffffffffffffffffffffffffffffffff038211156120f2576120f161226f565b5b828201905092915050565b6000819050919050565b600061211282612138565b9050919050565b60008115159050919050565b60008190506121338261235c565b919050565b600073ffffffffffffffffffffffffffffffffffffffff82169050919050565b6000819050919050565b600061216d82612174565b9050919050565b600061217f82612138565b9050919050565b600061219182612125565b9050919050565b82818337600083830152505050565b60005b838110156121c55780820151818401526020810190506121aa565b838111156121d4576000848401525b50505050565b600060028204905060018216806121f257607f821691505b60208210811415612206576122056122cd565b5b50919050565b600061221f61221a8361234f565b6120fd565b9050919050565b600061223182612158565b91507fffffffffffffffffffffffffffffffffffffffffffffffffffffffffffffffff8214156122645761226361226f565b5b600182019050919050565b7f4e487b7100000000000000000000000000000000000000000000000000000000600052601160045260246000fd5b7f4e487b7100000000000000000000000000000000000000000000000000000000600052602160045260246000fd5b7f4e487b7100000000000000000000000000000000000000000000000000000000600052602260045260246000fd5b7f4e487b7100000000000000000000000000000000000000000000000000000000600052604160045260246000fd5b6000612337825461220c565b9050919050565b6000601f19601f8301169050919050565b60008160001c9050919050565b6003811061236d5761236c61229e565b5b50565b61237981612107565b811461238457600080fd5b50565b61239081612119565b811461239b57600080fd5b50565b6123a781612158565b81146123b257600080fd5b5056fea2646970667358221220c81c34309efa174f61f7927c7841f89cc55e75752018bbcbf1fcd4da29d1cbba64736f6c63430008000033",
  "immutableReferences": {},
  "source": "// SPDX-License-Identifier: UNLICENSED\npragma solidity >=0.8.0;\n\nimport './ballot/Ballot.sol';\nimport './resultCalculator/ResultCalculator.sol';\n\n\ncontract Election {\n\n    // ------------------------------------------------------------------------------------------------------\n    //                                              STATE\n    // ------------------------------------------------------------------------------------------------------\n\n    struct ElectionInfo {\n        uint electionID;\n        string name;\n        string description;\n        uint startDate;\n        uint endDate;\n        // Election type: 0 for invite based 1 for open\n        // bool electionType;\n    }\n    ElectionInfo electionInfo;\n\n    struct Candidate {\n        uint candidateID;\n        string name;\n        string description;\n    }\n    Candidate[] candidates;\n    uint[] winners;\n    mapping(uint=>Candidate)candidateWithID;\n    uint candidateCount;\n\n    address electionOrganizer;\n    address electionOrganizerContract;\n\n    uint voterCount;\n\n    enum Status {\n        active,\n        pending,\n        closed\n    }\n\n    bool resultDeclared;\n\n    // ------------------------------------------------------------------------------------------------------\n    //                                          DEPENEDENCIES\n    // ------------------------------------------------------------------------------------------------------\n    \n    Ballot ballot;\n    ResultCalculator resultCalculator;\n\n    // ------------------------------------------------------------------------------------------------------\n    //                                              EVENTS\n    // ------------------------------------------------------------------------------------------------------\n\n    event CandidateAdded(address election, address ballot, Candidate candidate);\n    event VoteCasted(address ballot, Candidate candidate, uint weight);\n    event ListWinners(uint[] winners);\n\n    // ------------------------------------------------------------------------------------------------------\n    //                                            MODIFIERS\n    // ------------------------------------------------------------------------------------------------------\n\n    modifier onlyOrganizerContract() {\n        require(msg.sender == electionOrganizerContract,\"Must be called from the election organizer contract\");\n        _;\n    }    \n\n    modifier onlyOrganizer() {\n        require(msg.sender == electionOrganizer,\"Caller must be the election organizer\");\n        _;\n    }\n\n    \n    // ------------------------------------------------------------------------------------------------------\n    //                                            CONSTRUCTOR\n    // ------------------------------------------------------------------------------------------------------\n\n    constructor(ElectionInfo memory _electionInfo, Ballot _ballot, ResultCalculator _resultCalculator,address _electionOrganizer, address _electionOrganizerContract) {\n        \n        electionOrganizer = _electionOrganizer;\n        electionOrganizerContract = _electionOrganizerContract;\n        electionInfo = _electionInfo;\n        ballot = _ballot;\n        resultCalculator = _resultCalculator;\n        // if(block.timestamp < _electionInfo.startDate) {\n        //     status = Status.pending;\n        // } else {\n        //     status = Status.active;\n        // }\n        candidateCount = 1000;\n        voterCount = 0;\n        resultDeclared = false;\n\n    }\n\n    // ------------------------------------------------------------------------------------------------------\n    //                                            FUNCTIONS\n    // ------------------------------------------------------------------------------------------------------\n\n    function getStatus() public view returns (Status) {\n\n        if(block.timestamp < electionInfo.startDate) {\n            return Status.pending;\n        } \n        \n        else if(block.timestamp < electionInfo.endDate) {\n            return Status.active;\n        } \n        \n        else {\n            return Status.closed;\n        }\n    }\n\n\n    // Authentication\n    // function isAuthenticated(Voter _voter) public returns(bool){}\n\n    function getBallot() public onlyOrganizer view returns(address) {\n        return address(ballot);\n    }\n\n    function getResultCalculator() public onlyOrganizer view returns(address) {\n        return address(resultCalculator);\n    }\n\n    function getElectionInfo() public view returns(ElectionInfo memory){\n        return electionInfo;\n    }\n\n    function getElectionOrganizer() public view returns (address) {\n        return electionOrganizer;\n    }\n    \n    //Add candidate to election as well as ballot\n    function addCandidate(Candidate memory _candidate) external onlyOrganizerContract {\n        require(getStatus() == Status.pending,\"Cannot add candidates after election has started\");\n        uint id = candidateCount + 1;\n        _candidate.candidateID = id;\n        candidates.push(_candidate);\n        ballot.addCandidate(_candidate.candidateID);\n        candidateWithID[_candidate.candidateID]=_candidate;\n        candidateCount++;\n        emit CandidateAdded(address(this),address(ballot),_candidate);\n    }\n    \n    function getCandidateCount() public view returns(uint) {\n        return candidateCount;\n    }\n\n    function getCandidates() public view returns (Candidate[] memory) {\n        return candidates;\n    }\n\n    function getCandidateByID(uint _candidateID) public view returns (Candidate memory) {\n        return candidateWithID[_candidateID];\n    }\n\n    function getVoterCount() external view returns(uint){\n        return voterCount;\n    }\n\n    function getVoteStatus(address _voter) external view returns(bool){\n        return ballot.getVoteStatus(_voter);\n    }\n\n    // only after election ends\n    function getWinners() public view returns(uint[] memory) {\n        require(resultDeclared == true,\"Results aren't declared yet\");\n        return winners;\n    }\n    \n    // Performs vote in ballot and updates voterCount\n    /*\n        In invite based elections, a condidition to check if voter is authenticated\n\n    */\n    function vote(address _voter, uint _candidateID, uint weight) external {\n        require(getStatus() == Status.active, \"Election needs to be active to vote\");\n        // if (electionInfo.electionType==0) {\n        //     require(isAuthenticated(msg.Sender),\"Voter must be authenticated to cast vote\");\n        // }\n        ballot.vote(_voter,_candidateID, weight);\n        voterCount++;\n        emit VoteCasted(address(ballot),candidateWithID[_candidateID],weight);\n    }\n\n    // function getTimeStamps()public;\n    //                  ->this can be depracated, since time stamps are easily available from ElectionInfo\n    \n\n    function getResult() external returns(uint[] memory){\n        require(getStatus() == Status.closed, \"Results are declared only after the election ends\");\n        if (resultDeclared == false) {\n            winners = resultCalculator.getResult(ballot, voterCount);\n            resultDeclared = true;\n            emit ListWinners(winners);\n            return winners;\n        }\n        else {\n            return getWinners();\n        }\n    }\n\n}",
  "sourcePath": "/Users/harsh/Desktop/projects/agora-blockchain/server/contracts/Election.sol",
  "compiler": {
    "name": "solc",
    "version": "0.8.0+commit.c7dfd78e.Emscripten.clang"
  },
  "schemaVersion": "3.4.12",
  "updatedAt": "2023-02-26T09:28:41.411Z",
  "devdoc": {
    "kind": "dev",
    "methods": {},
    "version": 1
  },
  "userdoc": {
    "kind": "user",
    "methods": {},
    "version": 1
  }
}