{
  "contractName": "ElectionFactory",
  "abi": [
    {
      "inputs": [],
      "stateMutability": "nonpayable",
      "type": "constructor"
    },
    {
      "inputs": [
        {
          "components": [
            {
              "internalType": "uint256",
              "name": "electionID",
              "type": "uint256"
            },
            {
              "internalType": "string",
              "name": "name",
              "type": "string"
            },
            {
              "internalType": "string",
              "name": "description",
              "type": "string"
            },
            {
              "internalType": "uint256",
              "name": "startDate",
              "type": "uint256"
            },
            {
              "internalType": "uint256",
              "name": "endDate",
              "type": "uint256"
            }
          ],
          "internalType": "struct Election.ElectionInfo",
          "name": "_electionInfo",
          "type": "tuple"
        },
        {
          "internalType": "uint256",
          "name": "_ballotType",
          "type": "uint256"
        },
        {
          "internalType": "uint256",
          "name": "_resultCalculatorType",
          "type": "uint256"
        },
        {
          "internalType": "address",
          "name": "_electionOrganizer",
          "type": "address"
        },
        {
          "internalType": "address",
          "name": "_electionOrganizerContract",
          "type": "address"
        }
      ],
      "name": "getElection",
      "outputs": [
        {
          "internalType": "contract Election",
          "name": "",
          "type": "address"
        }
      ],
      "stateMutability": "nonpayable",
      "type": "function"
    }
  ],
  "bytecode": "0x608060405234801561001057600080fd5b5033600260006101000a81548173ffffffffffffffffffffffffffffffffffffffff021916908373ffffffffffffffffffffffffffffffffffffffff160217905550615d3e806100616000396000f3fe60806040523480156200001157600080fd5b50600436106200002e5760003560e01c80631140fc191462000033575b600080fd5b6200005160048036038101906200004b91906200075d565b62000069565b6040516200006091906200097d565b60405180910390f35b6000600260009054906101000a900473ffffffffffffffffffffffffffffffffffffffff1673ffffffffffffffffffffffffffffffffffffffff163373ffffffffffffffffffffffffffffffffffffffff1614620000fe576040517f08c379a0000000000000000000000000000000000000000000000000000000008152600401620000f5906200099a565b60405180910390fd5b60006200010b86620001ab565b5062000118868662000349565b508660008054906101000a900473ffffffffffffffffffffffffffffffffffffffff16600160009054906101000a900473ffffffffffffffffffffffffffffffffffffffff1686866040516200016e90620005b0565b6200017e959493929190620009bc565b604051809103906000f0801580156200019b573d6000803e3d6000fd5b5090508091505095945050505050565b600060018214156200022857604051620001c590620005be565b604051809103906000f080158015620001e2573d6000803e3d6000fd5b506000806101000a81548173ffffffffffffffffffffffffffffffffffffffff021916908373ffffffffffffffffffffffffffffffffffffffff16021790555062000321565b6002821415620002a3576040516200024090620005cc565b604051809103906000f0801580156200025d573d6000803e3d6000fd5b506000806101000a81548173ffffffffffffffffffffffffffffffffffffffff021916908373ffffffffffffffffffffffffffffffffffffffff16021790555062000320565b6003821415620002b3576200031f565b604051620002c190620005be565b604051809103906000f080158015620002de573d6000803e3d6000fd5b506000806101000a81548173ffffffffffffffffffffffffffffffffffffffff021916908373ffffffffffffffffffffffffffffffffffffffff1602179055505b5b5b60008054906101000a900473ffffffffffffffffffffffffffffffffffffffff169050919050565b6000600183141562000366576200036082620003d5565b620003aa565b600283141562000381576200037b82620004c1565b620003a9565b60038314156200039c576200039682620005ad565b620003a8565b620003a782620003d5565b5b5b5b600160009054906101000a900473ffffffffffffffffffffffffffffffffffffffff16905092915050565b60018114156200045157604051620003ed90620005da565b604051809103906000f0801580156200040a573d6000803e3d6000fd5b50600160006101000a81548173ffffffffffffffffffffffffffffffffffffffff021916908373ffffffffffffffffffffffffffffffffffffffff160217905550620004be565b6040516200045f90620005da565b604051809103906000f0801580156200047c573d6000803e3d6000fd5b50600160006101000a81548173ffffffffffffffffffffffffffffffffffffffff021916908373ffffffffffffffffffffffffffffffffffffffff1602179055505b50565b60018114156200053d57604051620004d990620005e8565b604051809103906000f080158015620004f6573d6000803e3d6000fd5b50600160006101000a81548173ffffffffffffffffffffffffffffffffffffffff021916908373ffffffffffffffffffffffffffffffffffffffff160217905550620005aa565b6040516200054b90620005e8565b604051809103906000f08015801562000568573d6000803e3d6000fd5b50600160006101000a81548173ffffffffffffffffffffffffffffffffffffffff021916908373ffffffffffffffffffffffffffffffffffffffff1602179055505b50565b50565b612aad8062000c2483390190565b61067880620036d183390190565b610a868062003d4983390190565b610a5d80620047cf83390190565b610add806200522c83390190565b60006200060d620006078462000a54565b62000a20565b9050828152602081018484840111156200062657600080fd5b6200063384828562000b6a565b509392505050565b6000813590506200064c8162000bef565b92915050565b600082601f8301126200066457600080fd5b813562000676848260208601620005f6565b91505092915050565b600060a082840312156200069257600080fd5b6200069e60a062000a20565b90506000620006b08482850162000746565b600083015250602082013567ffffffffffffffff811115620006d157600080fd5b620006df8482850162000652565b602083015250604082013567ffffffffffffffff8111156200070057600080fd5b6200070e8482850162000652565b6040830152506060620007248482850162000746565b60608301525060806200073a8482850162000746565b60808301525092915050565b600081359050620007578162000c09565b92915050565b600080600080600060a086880312156200077657600080fd5b600086013567ffffffffffffffff8111156200079157600080fd5b6200079f888289016200067f565b9550506020620007b28882890162000746565b9450506040620007c58882890162000746565b9350506060620007d8888289016200063b565b9250506080620007eb888289016200063b565b9150509295509295909350565b620008038162000ab4565b82525050565b620008148162000af2565b82525050565b620008258162000b1a565b82525050565b620008368162000b42565b82525050565b6000620008498262000a87565b62000855818562000a92565b93506200086781856020860162000b79565b620008728162000bde565b840191505092915050565b60006200088c60338362000aa3565b91507f4d7573742062652063616c6c65642066726f6d2074686520656c656374696f6e60008301527f206f7267616e697a657220636f6e7472616374000000000000000000000000006020830152604082019050919050565b600060a083016000830151620008ff60008601826200096c565b50602083015184820360208601526200091982826200083c565b915050604083015184820360408601526200093582826200083c565b91505060608301516200094c60608601826200096c565b5060808301516200096160808601826200096c565b508091505092915050565b620009778162000ae8565b82525050565b60006020820190506200099460008301846200081a565b92915050565b60006020820190508181036000830152620009b5816200087d565b9050919050565b600060a0820190508181036000830152620009d88188620008e5565b9050620009e9602083018762000809565b620009f860408301866200082b565b62000a076060830185620007f8565b62000a166080830184620007f8565b9695505050505050565b6000604051905081810181811067ffffffffffffffff8211171562000a4a5762000a4962000baf565b5b8060405250919050565b600067ffffffffffffffff82111562000a725762000a7162000baf565b5b601f19601f8301169050602081019050919050565b600081519050919050565b600082825260208201905092915050565b600082825260208201905092915050565b600062000ac18262000ac8565b9050919050565b600073ffffffffffffffffffffffffffffffffffffffff82169050919050565b6000819050919050565b600062000aff8262000b06565b9050919050565b600062000b138262000ac8565b9050919050565b600062000b278262000b2e565b9050919050565b600062000b3b8262000ac8565b9050919050565b600062000b4f8262000b56565b9050919050565b600062000b638262000ac8565b9050919050565b82818337600083830152505050565b60005b8381101562000b9957808201518184015260208101905062000b7c565b8381111562000ba9576000848401525b50505050565b7f4e487b7100000000000000000000000000000000000000000000000000000000600052604160045260246000fd5b6000601f19601f8301169050919050565b62000bfa8162000ab4565b811462000c0657600080fd5b50565b62000c148162000ae8565b811462000c2057600080fd5b5056fe60806040523480156200001157600080fd5b5060405162002aad38038062002aad833981810160405281019062000037919062000418565b81600960006101000a81548173ffffffffffffffffffffffffffffffffffffffff021916908373ffffffffffffffffffffffffffffffffffffffff16021790555080600a60006101000a81548173ffffffffffffffffffffffffffffffffffffffff021916908373ffffffffffffffffffffffffffffffffffffffff1602179055508460008082015181600001556020820151816001019080519060200190620000e3929190620001d3565b50604082015181600201908051906020019062000102929190620001d3565b50606082015181600301556080820151816004015590505083600c60016101000a81548173ffffffffffffffffffffffffffffffffffffffff021916908373ffffffffffffffffffffffffffffffffffffffff16021790555082600d60006101000a81548173ffffffffffffffffffffffffffffffffffffffff021916908373ffffffffffffffffffffffffffffffffffffffff1602179055506103e86008819055506000600b819055506000600c60006101000a81548160ff0219169083151502179055505050505050620006b2565b828054620001e190620005b6565b90600052602060002090601f01602090048101928262000205576000855562000251565b82601f106200022057805160ff191683800117855562000251565b8280016001018555821562000251579182015b828111156200025057825182559160200191906001019062000233565b5b50905062000260919062000264565b5090565b5b808211156200027f57600081600090555060010162000265565b5090565b60006200029a6200029484620004e7565b620004b3565b905082815260208101848484011115620002b357600080fd5b620002c084828562000580565b509392505050565b600081519050620002d9816200064a565b92915050565b600081519050620002f08162000664565b92915050565b60008151905062000307816200067e565b92915050565b600082601f8301126200031f57600080fd5b81516200033184826020860162000283565b91505092915050565b600060a082840312156200034d57600080fd5b6200035960a0620004b3565b905060006200036b8482850162000401565b600083015250602082015167ffffffffffffffff8111156200038c57600080fd5b6200039a848285016200030d565b602083015250604082015167ffffffffffffffff811115620003bb57600080fd5b620003c9848285016200030d565b6040830152506060620003df8482850162000401565b6060830152506080620003f58482850162000401565b60808301525092915050565b600081519050620004128162000698565b92915050565b600080600080600060a086880312156200043157600080fd5b600086015167ffffffffffffffff8111156200044c57600080fd5b6200045a888289016200033a565b95505060206200046d88828901620002df565b94505060406200048088828901620002f6565b93505060606200049388828901620002c8565b9250506080620004a688828901620002c8565b9150509295509295909350565b6000604051905081810181811067ffffffffffffffff82111715620004dd57620004dc6200061b565b5b8060405250919050565b600067ffffffffffffffff8211156200050557620005046200061b565b5b601f19601f8301169050602081019050919050565b6000620005278262000556565b9050919050565b60006200053b826200051a565b9050919050565b60006200054f826200051a565b9050919050565b600073ffffffffffffffffffffffffffffffffffffffff82169050919050565b6000819050919050565b60005b83811015620005a057808201518184015260208101905062000583565b83811115620005b0576000848401525b50505050565b60006002820490506001821680620005cf57607f821691505b60208210811415620005e657620005e5620005ec565b5b50919050565b7f4e487b7100000000000000000000000000000000000000000000000000000000600052602260045260246000fd5b7f4e487b7100000000000000000000000000000000000000000000000000000000600052604160045260246000fd5b62000655816200051a565b81146200066157600080fd5b50565b6200066f816200052e565b81146200067b57600080fd5b50565b620006898162000542565b81146200069557600080fd5b50565b620006a38162000576565b8114620006af57600080fd5b50565b6123eb80620006c26000396000f3fe608060405234801561001057600080fd5b50600436106100ea5760003560e01c8063521b0dcc1161008c5780639baec8b9116100665780639baec8b91461023b578063de29278914610259578063df15c37e14610277578063e04b1c0c14610295576100ea565b8063521b0dcc146101bd57806382202396146101ed57806386852dca1461021d576100ea565b80632a4a1b73116100c85780632a4a1b731461014757806330a563471461016357806337349a7d146101815780634e69d5601461019f576100ea565b806306a49fce146100ef57806311174a291461010d578063273ffe861461012b575b600080fd5b6100f76102b3565b6040516101049190611d55565b60405180910390f35b610115610440565b6040516101229190611f1e565b60405180910390f35b610145600480360381019061014091906115db565b61044a565b005b610161600480360381019061015c9190611522565b61078c565b005b61016b610963565b6040516101789190611f1e565b60405180910390f35b61018961096d565b6040516101969190611c87565b60405180910390f35b6101a7610a27565b6040516101b49190611dff565b60405180910390f35b6101d760048036038101906101d291906114f9565b610a5c565b6040516101e49190611dbb565b60405180910390f35b6102076004803603810190610202919061161c565b610b10565b6040516102149190611eda565b60405180910390f35b610225610c6b565b6040516102329190611efc565b60405180910390f35b610243610dc7565b6040516102509190611c87565b60405180910390f35b610261610e81565b60405161026e9190611d77565b60405180910390f35b61027f6110ff565b60405161028c9190611d77565b60405180910390f35b61029d6111ad565b6040516102aa9190611c87565b60405180910390f35b60606005805480602002602001604051908101604052809291908181526020016000905b82821015610437578382906000526020600020906003020160405180606001604052908160008201548152602001600182018054610314906121da565b80601f0160208091040260200160405190810160405280929190818152602001828054610340906121da565b801561038d5780601f106103625761010080835404028352916020019161038d565b820191906000526020600020905b81548152906001019060200180831161037057829003601f168201915b505050505081526020016002820180546103a6906121da565b80601f01602080910402602001604051908101604052809291908181526020018280546103d2906121da565b801561041f5780601f106103f45761010080835404028352916020019161041f565b820191906000526020600020905b81548152906001019060200180831161040257829003601f168201915b505050505081525050815260200190600101906102d7565b50505050905090565b6000600b54905090565b600a60009054906101000a900473ffffffffffffffffffffffffffffffffffffffff1673ffffffffffffffffffffffffffffffffffffffff163373ffffffffffffffffffffffffffffffffffffffff16146104da576040517f08c379a00000000000000000000000000000000000000000000000000000000081526004016104d190611e5a565b60405180910390fd5b60016002811115610514577f4e487b7100000000000000000000000000000000000000000000000000000000600052602160045260246000fd5b61051c610a27565b6002811115610554577f4e487b7100000000000000000000000000000000000000000000000000000000600052602160045260246000fd5b14610594576040517f08c379a000000000000000000000000000000000000000000000000000000000815260040161058b90611eba565b60405180910390fd5b600060016008546105a591906120a7565b90508082600001818152505060058290806001815401808255809150506001900390600052602060002090600302016000909190919091506000820151816000015560208201518160010190805190602001906106039291906111d7565b5060408201518160020190805190602001906106209291906111d7565b505050600c60019054906101000a900473ffffffffffffffffffffffffffffffffffffffff1673ffffffffffffffffffffffffffffffffffffffff1663e844d09783600001516040518263ffffffff1660e01b81526004016106829190611f1e565b600060405180830381600087803b15801561069c57600080fd5b505af11580156106b0573d6000803e3d6000fd5b505050508160076000846000015181526020019081526020016000206000820151816000015560208201518160010190805190602001906106f29291906111d7565b50604082015181600201908051906020019061070f9291906111d7565b509050506008600081548092919061072690612226565b91905055507f4d9dd414a40890e16b7bd0ea98bdf9d5b55c3d20cfe4b18febda0d60fb32a60c30600c60019054906101000a900473ffffffffffffffffffffffffffffffffffffffff168460405161078093929190611ca2565b60405180910390a15050565b600060028111156107c6577f4e487b7100000000000000000000000000000000000000000000000000000000600052602160045260246000fd5b6107ce610a27565b6002811115610806577f4e487b7100000000000000000000000000000000000000000000000000000000600052602160045260246000fd5b14610846576040517f08c379a000000000000000000000000000000000000000000000000000000000815260040161083d90611e7a565b60405180910390fd5b600c60019054906101000a900473ffffffffffffffffffffffffffffffffffffffff1673ffffffffffffffffffffffffffffffffffffffff16632a4a1b738484846040518463ffffffff1660e01b81526004016108a593929190611d1e565b600060405180830381600087803b1580156108bf57600080fd5b505af11580156108d3573d6000803e3d6000fd5b50505050600b60008154809291906108ea90612226565b91905055507fd589db416dab4dff131e94610b2d02ce215ded85a2943a2ea59acd2153a85182600c60019054906101000a900473ffffffffffffffffffffffffffffffffffffffff16600760008581526020019081526020016000208360405161095693929190611ce0565b60405180910390a1505050565b6000600854905090565b6000600960009054906101000a900473ffffffffffffffffffffffffffffffffffffffff1673ffffffffffffffffffffffffffffffffffffffff163373ffffffffffffffffffffffffffffffffffffffff16146109ff576040517f08c379a00000000000000000000000000000000000000000000000000000000081526004016109f690611e3a565b60405180910390fd5b600d60009054906101000a900473ffffffffffffffffffffffffffffffffffffffff16905090565b60008060030154421015610a3e5760019050610a59565b600060040154421015610a545760009050610a59565b600290505b90565b6000600c60019054906101000a900473ffffffffffffffffffffffffffffffffffffffff1673ffffffffffffffffffffffffffffffffffffffff1663521b0dcc836040518263ffffffff1660e01b8152600401610ab99190611c87565b60206040518083038186803b158015610ad157600080fd5b505afa158015610ae5573d6000803e3d6000fd5b505050506040513d601f19601f82011682018060405250810190610b0991906115b2565b9050919050565b610b1861125d565b6007600083815260200190815260200160002060405180606001604052908160008201548152602001600182018054610b50906121da565b80601f0160208091040260200160405190810160405280929190818152602001828054610b7c906121da565b8015610bc95780601f10610b9e57610100808354040283529160200191610bc9565b820191906000526020600020905b815481529060010190602001808311610bac57829003601f168201915b50505050508152602001600282018054610be2906121da565b80601f0160208091040260200160405190810160405280929190818152602001828054610c0e906121da565b8015610c5b5780601f10610c3057610100808354040283529160200191610c5b565b820191906000526020600020905b815481529060010190602001808311610c3e57829003601f168201915b5050505050815250509050919050565b610c7361127e565b60006040518060a001604052908160008201548152602001600182018054610c9a906121da565b80601f0160208091040260200160405190810160405280929190818152602001828054610cc6906121da565b8015610d135780601f10610ce857610100808354040283529160200191610d13565b820191906000526020600020905b815481529060010190602001808311610cf657829003601f168201915b50505050508152602001600282018054610d2c906121da565b80601f0160208091040260200160405190810160405280929190818152602001828054610d58906121da565b8015610da55780601f10610d7a57610100808354040283529160200191610da5565b820191906000526020600020905b815481529060010190602001808311610d8857829003601f168201915b5050505050815260200160038201548152602001600482015481525050905090565b6000600960009054906101000a900473ffffffffffffffffffffffffffffffffffffffff1673ffffffffffffffffffffffffffffffffffffffff163373ffffffffffffffffffffffffffffffffffffffff1614610e59576040517f08c379a0000000000000000000000000000000000000000000000000000000008152600401610e5090611e3a565b60405180910390fd5b600c60019054906101000a900473ffffffffffffffffffffffffffffffffffffffff16905090565b6060600280811115610ebc577f4e487b7100000000000000000000000000000000000000000000000000000000600052602160045260246000fd5b610ec4610a27565b6002811115610efc577f4e487b7100000000000000000000000000000000000000000000000000000000600052602160045260246000fd5b14610f3c576040517f08c379a0000000000000000000000000000000000000000000000000000000008152600401610f3390611e9a565b60405180910390fd5b60001515600c60009054906101000a900460ff16151514156110f157600d60009054906101000a900473ffffffffffffffffffffffffffffffffffffffff1673ffffffffffffffffffffffffffffffffffffffff1663c8344a20600c60019054906101000a900473ffffffffffffffffffffffffffffffffffffffff16600b546040518363ffffffff1660e01b8152600401610fd9929190611dd6565b600060405180830381600087803b158015610ff357600080fd5b505af1158015611007573d6000803e3d6000fd5b505050506040513d6000823e3d601f19601f820116820180604052508101906110309190611571565b600690805190602001906110459291906112ad565b506001600c60006101000a81548160ff0219169083151502179055507f28e5f582afeee46fd13ea548ad814f45b1d4a5159990336d5e66deb48a960e4c60066040516110919190611d99565b60405180910390a160068054806020026020016040519081016040528092919081815260200182805480156110e557602002820191906000526020600020905b8154815260200190600101908083116110d1575b505050505090506110fc565b6110f96110ff565b90505b90565b606060011515600c60009054906101000a900460ff16151514611157576040517f08c379a000000000000000000000000000000000000000000000000000000000815260040161114e90611e1a565b60405180910390fd5b60068054806020026020016040519081016040528092919081815260200182805480156111a357602002820191906000526020600020905b81548152602001906001019080831161118f575b5050505050905090565b6000600960009054906101000a900473ffffffffffffffffffffffffffffffffffffffff16905090565b8280546111e3906121da565b90600052602060002090601f016020900481019282611205576000855561124c565b82601f1061121e57805160ff191683800117855561124c565b8280016001018555821561124c579182015b8281111561124b578251825591602001919060010190611230565b5b50905061125991906112fa565b5090565b60405180606001604052806000815260200160608152602001606081525090565b6040518060a0016040528060008152602001606081526020016060815260200160008152602001600081525090565b8280548282559060005260206000209081019282156112e9579160200282015b828111156112e85782518255916020019190600101906112cd565b5b5090506112f691906112fa565b5090565b5b808211156113135760008160009055506001016112fb565b5090565b600061132a61132584611f6a565b611f39565b9050808382526020820190508285602086028201111561134957600080fd5b60005b85811015611379578161135f88826114e4565b84526020840193506020830192505060018101905061134c565b5050509392505050565b600061139661139184611f96565b611f39565b9050828152602081018484840111156113ae57600080fd5b6113b9848285612198565b509392505050565b6000813590506113d081612370565b92915050565b600082601f8301126113e757600080fd5b81516113f7848260208601611317565b91505092915050565b60008151905061140f81612387565b92915050565b600082601f83011261142657600080fd5b8135611436848260208601611383565b91505092915050565b60006060828403121561145157600080fd5b61145b6060611f39565b9050600061146b848285016114cf565b600083015250602082013567ffffffffffffffff81111561148b57600080fd5b61149784828501611415565b602083015250604082013567ffffffffffffffff8111156114b757600080fd5b6114c384828501611415565b60408301525092915050565b6000813590506114de8161239e565b92915050565b6000815190506114f38161239e565b92915050565b60006020828403121561150b57600080fd5b6000611519848285016113c1565b91505092915050565b60008060006060848603121561153757600080fd5b6000611545868287016113c1565b9350506020611556868287016114cf565b9250506040611567868287016114cf565b9150509250925092565b60006020828403121561158357600080fd5b600082015167ffffffffffffffff81111561159d57600080fd5b6115a9848285016113d6565b91505092915050565b6000602082840312156115c457600080fd5b60006115d284828501611400565b91505092915050565b6000602082840312156115ed57600080fd5b600082013567ffffffffffffffff81111561160757600080fd5b6116138482850161143f565b91505092915050565b60006020828403121561162e57600080fd5b600061163c848285016114cf565b91505092915050565b60006116518383611adc565b905092915050565b60006116658383611c69565b60208301905092915050565b61167a81612107565b82525050565b600061168b82612010565b6116958185612063565b9350836020820285016116a785611fc6565b8060005b858110156116e357848403895281516116c48582611645565b94506116cf8361203c565b925060208a019950506001810190506116ab565b50829750879550505050505092915050565b60006117008261201b565b61170a8185612074565b935061171583611fd6565b8060005b8381101561174657815161172d8882611659565b975061173883612049565b925050600181019050611719565b5085935050505092915050565b600061175e82612026565b6117688185612074565b935061177383611fe6565b8060005b838110156117ab576117888261232b565b6117928882611659565b975061179d83612056565b925050600181019050611777565b5085935050505092915050565b6117c181612119565b82525050565b6117d081612162565b82525050565b6117df81612186565b82525050565b60006117f082612031565b6117fa8185612085565b935061180a8185602086016121a7565b6118138161233e565b840191505092915050565b6000815461182b816121da565b6118358186612085565b94506001821660008114611850576001811461186257611895565b60ff1983168652602086019350611895565b61186b85611ffb565b60005b8381101561188d5781548189015260018201915060208101905061186e565b808801955050505b50505092915050565b60006118ab601b83612096565b91507f526573756c7473206172656e2774206465636c617265642079657400000000006000830152602082019050919050565b60006118eb602583612096565b91507f43616c6c6572206d7573742062652074686520656c656374696f6e206f72676160008301527f6e697a65720000000000000000000000000000000000000000000000000000006020830152604082019050919050565b6000611951603383612096565b91507f4d7573742062652063616c6c65642066726f6d2074686520656c656374696f6e60008301527f206f7267616e697a657220636f6e7472616374000000000000000000000000006020830152604082019050919050565b60006119b7602383612096565b91507f456c656374696f6e206e6565647320746f2062652061637469766520746f207660008301527f6f746500000000000000000000000000000000000000000000000000000000006020830152604082019050919050565b6000611a1d603183612096565b91507f526573756c747320617265206465636c61726564206f6e6c792061667465722060008301527f74686520656c656374696f6e20656e64730000000000000000000000000000006020830152604082019050919050565b6000611a83603083612096565b91507f43616e6e6f74206164642063616e6469646174657320616674657220656c656360008301527f74696f6e206861732073746172746564000000000000000000000000000000006020830152604082019050919050565b6000606083016000830151611af46000860182611c69565b5060208301518482036020860152611b0c82826117e5565b91505060408301518482036040860152611b2682826117e5565b9150508091505092915050565b6000606083016000830151611b4b6000860182611c69565b5060208301518482036020860152611b6382826117e5565b91505060408301518482036040860152611b7d82826117e5565b9150508091505092915050565b6000606083016000808401549050611ba18161220c565b611bae6000870182611c69565b50600184018583036020870152611bc5838261181e565b925050600284018583036040870152611bde838261181e565b925050819250505092915050565b600060a083016000830151611c046000860182611c69565b5060208301518482036020860152611c1c82826117e5565b91505060408301518482036040860152611c3682826117e5565b9150506060830151611c4b6060860182611c69565b506080830151611c5e6080860182611c69565b508091505092915050565b611c7281612158565b82525050565b611c8181612158565b82525050565b6000602082019050611c9c6000830184611671565b92915050565b6000606082019050611cb76000830186611671565b611cc46020830185611671565b8181036040830152611cd68184611b33565b9050949350505050565b6000606082019050611cf56000830186611671565b8181036020830152611d078185611b8a565b9050611d166040830184611c78565b949350505050565b6000606082019050611d336000830186611671565b611d406020830185611c78565b611d4d6040830184611c78565b949350505050565b60006020820190508181036000830152611d6f8184611680565b905092915050565b60006020820190508181036000830152611d9181846116f5565b905092915050565b60006020820190508181036000830152611db38184611753565b905092915050565b6000602082019050611dd060008301846117b8565b92915050565b6000604082019050611deb60008301856117c7565b611df86020830184611c78565b9392505050565b6000602082019050611e1460008301846117d6565b92915050565b60006020820190508181036000830152611e338161189e565b9050919050565b60006020820190508181036000830152611e53816118de565b9050919050565b60006020820190508181036000830152611e7381611944565b9050919050565b60006020820190508181036000830152611e93816119aa565b9050919050565b60006020820190508181036000830152611eb381611a10565b9050919050565b60006020820190508181036000830152611ed381611a76565b9050919050565b60006020820190508181036000830152611ef48184611b33565b905092915050565b60006020820190508181036000830152611f168184611bec565b905092915050565b6000602082019050611f336000830184611c78565b92915050565b6000604051905081810181811067ffffffffffffffff82111715611f6057611f5f6122fc565b5b8060405250919050565b600067ffffffffffffffff821115611f8557611f846122fc565b5b602082029050602081019050919050565b600067ffffffffffffffff821115611fb157611fb06122fc565b5b601f19601f8301169050602081019050919050565b6000819050602082019050919050565b6000819050602082019050919050565b60008190508160005260206000209050919050565b60008190508160005260206000209050919050565b600081519050919050565b600081519050919050565b600081549050919050565b600081519050919050565b6000602082019050919050565b6000602082019050919050565b6000600182019050919050565b600082825260208201905092915050565b600082825260208201905092915050565b600082825260208201905092915050565b600082825260208201905092915050565b60006120b282612158565b91506120bd83612158565b9250827fffffffffffffffffffffffffffffffffffffffffffffffffffffffffffffffff038211156120f2576120f161226f565b5b828201905092915050565b6000819050919050565b600061211282612138565b9050919050565b60008115159050919050565b60008190506121338261235c565b919050565b600073ffffffffffffffffffffffffffffffffffffffff82169050919050565b6000819050919050565b600061216d82612174565b9050919050565b600061217f82612138565b9050919050565b600061219182612125565b9050919050565b82818337600083830152505050565b60005b838110156121c55780820151818401526020810190506121aa565b838111156121d4576000848401525b50505050565b600060028204905060018216806121f257607f821691505b60208210811415612206576122056122cd565b5b50919050565b600061221f61221a8361234f565b6120fd565b9050919050565b600061223182612158565b91507fffffffffffffffffffffffffffffffffffffffffffffffffffffffffffffffff8214156122645761226361226f565b5b600182019050919050565b7f4e487b7100000000000000000000000000000000000000000000000000000000600052601160045260246000fd5b7f4e487b7100000000000000000000000000000000000000000000000000000000600052602160045260246000fd5b7f4e487b7100000000000000000000000000000000000000000000000000000000600052602260045260246000fd5b7f4e487b7100000000000000000000000000000000000000000000000000000000600052604160045260246000fd5b6000612337825461220c565b9050919050565b6000601f19601f8301169050919050565b60008160001c9050919050565b6003811061236d5761236c61229e565b5b50565b61237981612107565b811461238457600080fd5b50565b61239081612119565b811461239b57600080fd5b50565b6123a781612158565b81146123b257600080fd5b5056fea2646970667358221220c81c34309efa174f61f7927c7841f89cc55e75752018bbcbf1fcd4da29d1cbba64736f6c63430008000033608060405234801561001057600080fd5b50610658806100206000396000f3fe608060405234801561001057600080fd5b50600436106100625760003560e01c806306a49fce146100675780632a4a1b7314610085578063521b0dcc146100a15780635df81330146100d1578063de2e19a014610101578063e844d09714610131575b600080fd5b61006f61014d565b60405161007c9190610496565b60405180910390f35b61009f600480360381019061009a919061033f565b6101a5565b005b6100bb60048036038101906100b69190610316565b610230565b6040516100c891906104b8565b60405180910390f35b6100eb60048036038101906100e6919061038e565b610286565b6040516100f891906104d3565b60405180910390f35b61011b600480360381019061011691906103b7565b61029e565b60405161012891906104d3565b60405180910390f35b61014b6004803603810190610146919061038e565b6102c0565b005b6060600080548060200260200160405190810160405280929190818152602001828054801561019b57602002820191906000526020600020905b815481526020019060010190808311610187575b5050505050905090565b6001905060016002600084815260200190815260200160002060008282546101cd9190610527565b9250508190555060018060008573ffffffffffffffffffffffffffffffffffffffff1673ffffffffffffffffffffffffffffffffffffffff16815260200190815260200160002060006101000a81548160ff021916908315150217905550505050565b6000600160008373ffffffffffffffffffffffffffffffffffffffff1673ffffffffffffffffffffffffffffffffffffffff16815260200190815260200160002060009054906101000a900460ff169050919050565b60026020528060005260406000206000915090505481565b6000600191506002600084815260200190815260200160002054905092915050565b600081908060018154018082558091505060019003906000526020600020016000909190919091505550565b6000813590506102fb816105f4565b92915050565b6000813590506103108161060b565b92915050565b60006020828403121561032857600080fd5b6000610336848285016102ec565b91505092915050565b60008060006060848603121561035457600080fd5b6000610362868287016102ec565b935050602061037386828701610301565b925050604061038486828701610301565b9150509250925092565b6000602082840312156103a057600080fd5b60006103ae84828501610301565b91505092915050565b600080604083850312156103ca57600080fd5b60006103d885828601610301565b92505060206103e985828601610301565b9150509250929050565b60006103ff8383610478565b60208301905092915050565b6000610416826104fe565b6104208185610516565b935061042b836104ee565b8060005b8381101561045c57815161044388826103f3565b975061044e83610509565b92505060018101905061042f565b5085935050505092915050565b6104728161058f565b82525050565b610481816105bb565b82525050565b610490816105bb565b82525050565b600060208201905081810360008301526104b0818461040b565b905092915050565b60006020820190506104cd6000830184610469565b92915050565b60006020820190506104e86000830184610487565b92915050565b6000819050602082019050919050565b600081519050919050565b6000602082019050919050565b600082825260208201905092915050565b6000610532826105bb565b915061053d836105bb565b9250827fffffffffffffffffffffffffffffffffffffffffffffffffffffffffffffffff03821115610572576105716105c5565b5b828201905092915050565b60006105888261059b565b9050919050565b60008115159050919050565b600073ffffffffffffffffffffffffffffffffffffffff82169050919050565b6000819050919050565b7f4e487b7100000000000000000000000000000000000000000000000000000000600052601160045260246000fd5b6105fd8161057d565b811461060857600080fd5b50565b610614816105bb565b811461061f57600080fd5b5056fea26469706673582212204907229ac702c15490933add30e8caadedee1ddd4da1392e87741041f5aee6f964736f6c63430008000033608060405234801561001057600080fd5b50610a66806100206000396000f3fe608060405234801561001057600080fd5b50600436106100575760003560e01c806306a49fce1461005c5780632a4a1b731461007a578063521b0dcc14610096578063de2e19a0146100c6578063e844d097146100f6575b600080fd5b610064610112565b6040516100719190610833565b60405180910390f35b610094600480360381019061008f91906105d0565b61016a565b005b6100b060048036038101906100ab91906105a7565b6104cc565b6040516100bd9190610855565b60405180910390f35b6100e060048036038101906100db9190610648565b610522565b6040516100ed91906108d0565b60405180910390f35b610110600480360381019061010b919061061f565b610551565b005b6060600080548060200260200160405190810160405280929190818152602001828054801561016057602002820191906000526020600020905b81548152602001906001019080831161014c575b5050505050905090565b60001515600160008573ffffffffffffffffffffffffffffffffffffffff1673ffffffffffffffffffffffffffffffffffffffff16815260200190815260200160002060009054906101000a900460ff161515146101fd576040517f08c379a00000000000000000000000000000000000000000000000000000000081526004016101f4906108b0565b60405180910390fd5b60001515600360008573ffffffffffffffffffffffffffffffffffffffff1673ffffffffffffffffffffffffffffffffffffffff168152602001908152602001600020600084815260200190815260200160002060009054906101000a900460ff161515146102a1576040517f08c379a000000000000000000000000000000000000000000000000000000000815260040161029890610870565b60405180910390fd5b600080549050600460008573ffffffffffffffffffffffffffffffffffffffff1673ffffffffffffffffffffffffffffffffffffffff1681526020019081526020016000205410610327576040517f08c379a000000000000000000000000000000000000000000000000000000000815260040161031e90610890565b60405180910390fd5b6001600260008381526020019081526020016000206000848152602001908152602001600020600082825461035c9190610935565b925050819055506001600460008573ffffffffffffffffffffffffffffffffffffffff1673ffffffffffffffffffffffffffffffffffffffff16815260200190815260200160002060008282546103b39190610935565b925050819055506001600360008573ffffffffffffffffffffffffffffffffffffffff1673ffffffffffffffffffffffffffffffffffffffff168152602001908152602001600020600084815260200190815260200160002060006101000a81548160ff021916908315150217905550600080549050600460008573ffffffffffffffffffffffffffffffffffffffff1673ffffffffffffffffffffffffffffffffffffffff1681526020019081526020016000205414156104c75760018060008573ffffffffffffffffffffffffffffffffffffffff1673ffffffffffffffffffffffffffffffffffffffff16815260200190815260200160002060006101000a81548160ff0219169083151502179055505b505050565b6000600160008373ffffffffffffffffffffffffffffffffffffffff1673ffffffffffffffffffffffffffffffffffffffff16815260200190815260200160002060009054906101000a900460ff169050919050565b600060026000838152602001908152602001600020600084815260200190815260200160002054905092915050565b600081908060018154018082558091505060019003906000526020600020016000909190919091505550565b60008135905061058c81610a02565b92915050565b6000813590506105a181610a19565b92915050565b6000602082840312156105b957600080fd5b60006105c78482850161057d565b91505092915050565b6000806000606084860312156105e557600080fd5b60006105f38682870161057d565b935050602061060486828701610592565b925050604061061586828701610592565b9150509250925092565b60006020828403121561063157600080fd5b600061063f84828501610592565b91505092915050565b6000806040838503121561065b57600080fd5b600061066985828601610592565b925050602061067a85828601610592565b9150509250929050565b60006106908383610815565b60208301905092915050565b60006106a7826108fb565b6106b18185610913565b93506106bc836108eb565b8060005b838110156106ed5781516106d48882610684565b97506106df83610906565b9250506001810190506106c0565b5085935050505092915050565b6107038161099d565b82525050565b6000610716602683610924565b91507f566f74657220616c726561647920766f74656420666f7220746869732063616e60008301527f64696461746500000000000000000000000000000000000000000000000000006020830152604082019050919050565b600061077c602183610924565b91507f4d617820766f74657320616c72656164792063617374656420627920766f746560008301527f72000000000000000000000000000000000000000000000000000000000000006020830152604082019050919050565b60006107e2601383610924565b91507f566f74657220616c726561647920766f746564000000000000000000000000006000830152602082019050919050565b61081e816109c9565b82525050565b61082d816109c9565b82525050565b6000602082019050818103600083015261084d818461069c565b905092915050565b600060208201905061086a60008301846106fa565b92915050565b6000602082019050818103600083015261088981610709565b9050919050565b600060208201905081810360008301526108a98161076f565b9050919050565b600060208201905081810360008301526108c9816107d5565b9050919050565b60006020820190506108e56000830184610824565b92915050565b6000819050602082019050919050565b600081519050919050565b6000602082019050919050565b600082825260208201905092915050565b600082825260208201905092915050565b6000610940826109c9565b915061094b836109c9565b9250827fffffffffffffffffffffffffffffffffffffffffffffffffffffffffffffffff038211156109805761097f6109d3565b5b828201905092915050565b6000610996826109a9565b9050919050565b60008115159050919050565b600073ffffffffffffffffffffffffffffffffffffffff82169050919050565b6000819050919050565b7f4e487b7100000000000000000000000000000000000000000000000000000000600052601160045260246000fd5b610a0b8161098b565b8114610a1657600080fd5b50565b610a22816109c9565b8114610a2d57600080fd5b5056fea26469706673582212202eb9be9eb4e0054ebeda6fb7327e275f00526242e10ce765b6ae106f241b66f464736f6c63430008000033608060405234801561001057600080fd5b50610a3d806100206000396000f3fe608060405234801561001057600080fd5b506004361061002b5760003560e01c8063c8344a2014610030575b600080fd5b61004a60048036038101906100459190610689565b610060565b6040516100579190610791565b60405180910390f35b6060600067ffffffffffffffff8111156100a3577f4e487b7100000000000000000000000000000000000000000000000000000000600052604160045260246000fd5b6040519080825280602002602001820160405280156100d15781602001602082028036833780820191505090505b50600090805190602001906100e7929190610509565b5060008373ffffffffffffffffffffffffffffffffffffffff166306a49fce6040518163ffffffff1660e01b815260040160006040518083038186803b15801561013057600080fd5b505afa158015610144573d6000803e3d6000fd5b505050506040513d6000823e3d601f19601f8201168201806040525081019061016d9190610648565b905060008151905060008060005b8381101561034a578773ffffffffffffffffffffffffffffffffffffffff1663de2e19a08683815181106101d8577f4e487b7100000000000000000000000000000000000000000000000000000000600052603260045260246000fd5b602002602001015160016040518363ffffffff1660e01b81526004016101ff9291906107b3565b60206040518083038186803b15801561021757600080fd5b505afa15801561022b573d6000803e3d6000fd5b505050506040513d601f19601f8201168201806040525081019061024f91906106c5565b91508282111561025d578192505b60028761026a9190610872565b8311156103375760008582815181106102ac577f4e487b7100000000000000000000000000000000000000000000000000000000600052603260045260246000fd5b60200260200101519080600181540180825580915050600190039060005260206000200160009091909190915055600080548060200260200160405190810160405280929190818152602001828054801561032657602002820191906000526020600020905b815481526020019060010190808311610312575b505050505095505050505050610503565b808061034290610903565b91505061017b565b600090505b838110156104aa578773ffffffffffffffffffffffffffffffffffffffff1663de2e19a08683815181106103ac577f4e487b7100000000000000000000000000000000000000000000000000000000600052603260045260246000fd5b602002602001015160016040518363ffffffff1660e01b81526004016103d39291906107b3565b60206040518083038186803b1580156103eb57600080fd5b505afa1580156103ff573d6000803e3d6000fd5b505050506040513d601f19601f8201168201806040525081019061042391906106c5565b915082821415610497576000858281518110610468577f4e487b7100000000000000000000000000000000000000000000000000000000600052603260045260246000fd5b602002602001015190806001815401808255809150506001900390600052602060002001600090919091909150555b80806104a290610903565b91505061034f565b60008054806020026020016040519081016040528092919081815260200182805480156104f657602002820191906000526020600020905b8154815260200190600101908083116104e2575b5050505050955050505050505b92915050565b828054828255906000526020600020908101928215610545579160200282015b82811115610544578251825591602001919060010190610529565b5b5090506105529190610556565b5090565b5b8082111561056f576000816000905550600101610557565b5090565b60006105866105818461080d565b6107dc565b905080838252602082019050828560208602820111156105a557600080fd5b60005b858110156105d557816105bb8882610633565b8452602084019350602083019250506001810190506105a8565b5050509392505050565b600082601f8301126105f057600080fd5b8151610600848260208601610573565b91505092915050565b600081359050610618816109d9565b92915050565b60008135905061062d816109f0565b92915050565b600081519050610642816109f0565b92915050565b60006020828403121561065a57600080fd5b600082015167ffffffffffffffff81111561067457600080fd5b610680848285016105df565b91505092915050565b6000806040838503121561069c57600080fd5b60006106aa85828601610609565b92505060206106bb8582860161061e565b9150509250929050565b6000602082840312156106d757600080fd5b60006106e584828501610633565b91505092915050565b60006106fa8383610773565b60208301905092915050565b600061071182610849565b61071b8185610861565b935061072683610839565b8060005b8381101561075757815161073e88826106ee565b975061074983610854565b92505060018101905061072a565b5085935050505092915050565b61076d816108f1565b82525050565b61077c816108e7565b82525050565b61078b816108e7565b82525050565b600060208201905081810360008301526107ab8184610706565b905092915050565b60006040820190506107c86000830185610782565b6107d56020830184610764565b9392505050565b6000604051905081810181811067ffffffffffffffff82111715610803576108026109aa565b5b8060405250919050565b600067ffffffffffffffff821115610828576108276109aa565b5b602082029050602081019050919050565b6000819050602082019050919050565b600081519050919050565b6000602082019050919050565b600082825260208201905092915050565b600061087d826108e7565b9150610888836108e7565b9250826108985761089761097b565b5b828204905092915050565b60006108ae826108c7565b9050919050565b60006108c0826108a3565b9050919050565b600073ffffffffffffffffffffffffffffffffffffffff82169050919050565b6000819050919050565b60006108fc826108e7565b9050919050565b600061090e826108e7565b91507fffffffffffffffffffffffffffffffffffffffffffffffffffffffffffffffff8214156109415761094061094c565b5b600182019050919050565b7f4e487b7100000000000000000000000000000000000000000000000000000000600052601160045260246000fd5b7f4e487b7100000000000000000000000000000000000000000000000000000000600052601260045260246000fd5b7f4e487b7100000000000000000000000000000000000000000000000000000000600052604160045260246000fd5b6109e2816108b5565b81146109ed57600080fd5b50565b6109f9816108e7565b8114610a0457600080fd5b5056fea2646970667358221220f01bc954780c97112a10c6f276a3e10f2706e55039c6208ebc295d53d33fd5c964736f6c63430008000033608060405234801561001057600080fd5b50610abd806100206000396000f3fe608060405234801561001057600080fd5b506004361061002b5760003560e01c8063c8344a2014610030575b600080fd5b61004a600480360381019061004591906106d4565b610060565b60405161005791906107cd565b60405180910390f35b6060600067ffffffffffffffff8111156100a3577f4e487b7100000000000000000000000000000000000000000000000000000000600052604160045260246000fd5b6040519080825280602002602001820160405280156100d15781602001602082028036833780820191505090505b50600190805190602001906100e7929190610554565b5082600560006101000a81548173ffffffffffffffffffffffffffffffffffffffff021916908373ffffffffffffffffffffffffffffffffffffffff1602179055506002826101369190610904565b600481905550600560009054906101000a900473ffffffffffffffffffffffffffffffffffffffff1673ffffffffffffffffffffffffffffffffffffffff166306a49fce6040518163ffffffff1660e01b815260040160006040518083038186803b1580156101a457600080fd5b505afa1580156101b8573d6000803e3d6000fd5b505050506040513d6000823e3d601f19601f820116820180604052508101906101e19190610693565b600290805190602001906101f6929190610554565b50600280549050600381905550600080600191505b60035482101561025c5761021e826102e0565b610226610475565b90506004546000808381526020019081526020016000205411156102495761025c565b818061025490610983565b92505061020b565b600181908060018154018082558091505060019003906000526020600020016000909190919091505560018054806020026020016040519081016040528092919081815260200182805480156102d157602002820191906000526020600020905b8154815260200190600101908083116102bd575b50505050509250505092915050565b600080600091505b60035482101561047057600560009054906101000a900473ffffffffffffffffffffffffffffffffffffffff1673ffffffffffffffffffffffffffffffffffffffff1663de2e19a06002848154811061036a577f4e487b7100000000000000000000000000000000000000000000000000000000600052603260045260246000fd5b9060005260206000200154856040518363ffffffff1660e01b81526004016103939291906107ef565b60206040518083038186803b1580156103ab57600080fd5b505afa1580156103bf573d6000803e3d6000fd5b505050506040513d601f19601f820116820180604052508101906103e39190610710565b905082816103f19190610904565b6000806002858154811061042e577f4e487b7100000000000000000000000000000000000000000000000000000000600052603260045260246000fd5b90600052602060002001548152602001908152602001600020600082825461045691906108ae565b92505081905550818061046890610983565b9250506102e8565b505050565b60008060008060008093505b60035484101561054a57600080600286815481106104c8577f4e487b7100000000000000000000000000000000000000000000000000000000600052603260045260246000fd5b90600052602060002001548152602001908152602001600020549250818311156105375782915060028481548110610529577f4e487b7100000000000000000000000000000000000000000000000000000000600052603260045260246000fd5b906000526020600020015490505b838061054290610983565b945050610481565b8094505050505090565b828054828255906000526020600020908101928215610590579160200282015b8281111561058f578251825591602001919060010190610574565b5b50905061059d91906105a1565b5090565b5b808211156105ba5760008160009055506001016105a2565b5090565b60006105d16105cc84610849565b610818565b905080838252602082019050828560208602820111156105f057600080fd5b60005b858110156106205781610606888261067e565b8452602084019350602083019250506001810190506105f3565b5050509392505050565b600082601f83011261063b57600080fd5b815161064b8482602086016105be565b91505092915050565b60008135905061066381610a59565b92915050565b60008135905061067881610a70565b92915050565b60008151905061068d81610a70565b92915050565b6000602082840312156106a557600080fd5b600082015167ffffffffffffffff8111156106bf57600080fd5b6106cb8482850161062a565b91505092915050565b600080604083850312156106e757600080fd5b60006106f585828601610654565b925050602061070685828601610669565b9150509250929050565b60006020828403121561072257600080fd5b60006107308482850161067e565b91505092915050565b600061074583836107af565b60208301905092915050565b600061075c82610885565b610766818561089d565b935061077183610875565b8060005b838110156107a25781516107898882610739565b975061079483610890565b925050600181019050610775565b5085935050505092915050565b6107b881610979565b82525050565b6107c781610979565b82525050565b600060208201905081810360008301526107e78184610751565b905092915050565b600060408201905061080460008301856107be565b61081160208301846107be565b9392505050565b6000604051905081810181811067ffffffffffffffff8211171561083f5761083e610a2a565b5b8060405250919050565b600067ffffffffffffffff82111561086457610863610a2a565b5b602082029050602081019050919050565b6000819050602082019050919050565b600081519050919050565b6000602082019050919050565b600082825260208201905092915050565b60006108b982610979565b91506108c483610979565b9250827fffffffffffffffffffffffffffffffffffffffffffffffffffffffffffffffff038211156108f9576108f86109cc565b5b828201905092915050565b600061090f82610979565b915061091a83610979565b92508261092a576109296109fb565b5b828204905092915050565b600061094082610959565b9050919050565b600061095282610935565b9050919050565b600073ffffffffffffffffffffffffffffffffffffffff82169050919050565b6000819050919050565b600061098e82610979565b91507fffffffffffffffffffffffffffffffffffffffffffffffffffffffffffffffff8214156109c1576109c06109cc565b5b600182019050919050565b7f4e487b7100000000000000000000000000000000000000000000000000000000600052601160045260246000fd5b7f4e487b7100000000000000000000000000000000000000000000000000000000600052601260045260246000fd5b7f4e487b7100000000000000000000000000000000000000000000000000000000600052604160045260246000fd5b610a6281610947565b8114610a6d57600080fd5b50565b610a7981610979565b8114610a8457600080fd5b5056fea264697066735822122068cf1695d04e6c55165b9f9d2c98ceb4a7f32a3757d53558055568d6ab98334264736f6c63430008000033a264697066735822122083910d5063338bfcf24b854ce404de5a085dac18e30b4a76aa375ca35b70ab1f64736f6c63430008000033",
  "immutableReferences": {},
  "source": "// SPDX-License-Identifier: UNLICENSED\npragma solidity >=0.8.0;\n\nimport './Election.sol';\n\n// Import Ballots\nimport './ballot/Ballot.sol';\nimport './ballot/GeneralBallot.sol';\nimport './ballot/PreferenceBallot.sol';\n// import './ballot/ScoreBallot.sol';\n// New Ballots here\n\n//Import ResultCalculators\nimport './resultCalculator/ResultCalculator.sol';\nimport './resultCalculator/GeneralResults.sol';\nimport './resultCalculator/Oklahoma.sol';\n// New ResultCalculators here\n\ncontract ElectionFactory {\n\n    // ------------------------------------------------------------------------------------------------------\n    //                                          DEPENDENCIES\n    // ------------------------------------------------------------------------------------------------------\n\n    Ballot ballot;\n    ResultCalculator resultCalculator;\n\n    // ------------------------------------------------------------------------------------------------------\n    //                                              STATE\n    // ------------------------------------------------------------------------------------------------------\n\n    address electionOrganizerContract;\n\n    // ------------------------------------------------------------------------------------------------------\n    //                                            MODIFIERS\n    // ------------------------------------------------------------------------------------------------------\n\n    modifier onlyOrganizerContract() {\n        require(msg.sender == electionOrganizerContract,\"Must be called from the election organizer contract\");\n        _;\n    }  \n\n    // ------------------------------------------------------------------------------------------------------\n    //                                            CONSTRUCTOR\n    // ------------------------------------------------------------------------------------------------------\n\n    constructor() {\n        electionOrganizerContract = msg.sender;\n    }\n\n    /*\n        Each ballot has specific result calculation algorithms\n        So the algorithms specific to the ballots are indexed from 1\n         \n            For GeneralBallot, say there are algorithms: GeneralResults and Moore\n            GeneralResults would be 1\n            Moore would be 2\n\n            For PreferenceBallot, now Oklahoma would be 1 again\n\n        Ballot Types and ResultCalcultors\n\n            1 : GeneralBallot\n                1 : GeneralResults\n                2 : Moore\n            \n            2 : PreferenceBallot\n                1 : Oklahoma\n            \n            3 : ScoreBallot\n\n            // add new Ballots and ResultCalculators here\n    */\n\n    // ------------------------------------------------------------------------------------------------------\n    //                                            FUNCTIONS\n    // ------------------------------------------------------------------------------------------------------\n\n    function getElection(Election.ElectionInfo memory _electionInfo, uint _ballotType, uint _resultCalculatorType, address _electionOrganizer, address _electionOrganizerContract) external onlyOrganizerContract returns(Election) {\n        Election election;\n        getBallot(_ballotType);\n        getResultCalculator(_ballotType, _resultCalculatorType);\n        election = new Election(_electionInfo,ballot,resultCalculator,_electionOrganizer,_electionOrganizerContract);\n        return election;\n    }\n\n    function getBallot(uint _ballotType) internal returns(Ballot) {\n        /*\n            1: GenralBallot\n            2: PreferenceBallot\n            3: ScoreBallot\n            // new Ballots\n            default: GeneralBallot\n        */\n        if (_ballotType == 1) {\n            ballot = new GeneralBallot();\n        }\n        else if (_ballotType == 2) {\n            ballot = new PreferenceBallot();\n        }\n        else if (_ballotType == 3) {\n            // ballot = new ScoreBallot();\n        }\n        // New Ballots here\n        else {\n            ballot = new GeneralBallot();\n        }\n\n        return ballot;\n    }\n\n    function getResultCalculator(uint _ballotType, uint _resultCalculatorType) internal returns(ResultCalculator) {\n        // GeneralBallot\n        if (_ballotType == 1) {\n            getGeneralResultCalculator(_resultCalculatorType);\n        }\n        // PreferenceBallot\n        else if (_ballotType == 2) {\n            getPreferenceResultCalculator(_resultCalculatorType);\n        }\n        // ScoreBallot\n        else if (_ballotType == 3) {\n            getScoreResultCalculator(_resultCalculatorType);\n        }\n        // New Ballots here\n        else {\n            getGeneralResultCalculator(_resultCalculatorType);\n        }\n\n        return resultCalculator;\n    }\n\n    // ResultCalculator for GeneralBallot\n    function getGeneralResultCalculator(uint _generalResultCalculatorType) internal {\n        if (_generalResultCalculatorType == 1) {\n            resultCalculator = new GeneralResults();\n        }\n        // new ResultCalculator for GeneralBallot here\n        else {\n            resultCalculator = new GeneralResults();\n        }\n    }\n\n    // ResultCalculator for PreferenceBallot\n    function getPreferenceResultCalculator(uint _preferenceResultCalculatorType) internal {\n        if (_preferenceResultCalculatorType == 1) {\n            resultCalculator = new Oklahoma();\n        }\n        // new ResultCalculator for PreferenceBallot here\n        else {\n            resultCalculator = new Oklahoma();\n        }\n    }\n\n    // ResultCalculator for ScoreBallot\n    function getScoreResultCalculator(uint _scoreResultCalculatorType) internal {\n        // if (_scoreResultCalculatorType == 1) {\n        //     resultCalculator = new ScoreResults();\n        // }\n        // // new ResultCalculator for ScoreBallot here\n        // else {\n        //     resultCalculator = new ScoreResults();\n        // }\n    }\n\n    // New ResultCalculators here\n\n}",
  "sourcePath": "/Users/harsh/Desktop/projects/agora-blockchain/server/contracts/ElectionFactory.sol",
  "compiler": {
    "name": "solc",
    "version": "0.8.0+commit.c7dfd78e.Emscripten.clang"
  },
  "schemaVersion": "3.4.12",
  "updatedAt": "2023-02-26T09:28:41.418Z",
  "devdoc": {
    "kind": "dev",
    "methods": {},
    "version": 1
  },
  "userdoc": {
    "kind": "user",
    "methods": {},
    "version": 1
  }
}