{
  "contractName": "ElectionOrganizer",
  "abi": [
    {
      "anonymous": false,
      "inputs": [
        {
          "indexed": false,
          "internalType": "address",
          "name": "election",
          "type": "address"
        },
        {
          "components": [
            {
              "internalType": "uint256",
              "name": "candidateID",
              "type": "uint256"
            },
            {
              "internalType": "string",
              "name": "name",
              "type": "string"
            }
          ],
          "indexed": false,
          "internalType": "struct Election.Candidate",
          "name": "candidate",
          "type": "tuple"
        }
      ],
      "name": "CandidateAdded",
      "type": "event"
    },
    {
      "anonymous": false,
      "inputs": [
        {
          "indexed": false,
          "internalType": "address",
          "name": "election",
          "type": "address"
        }
      ],
      "name": "CreatedElection",
      "type": "event"
    },
    {
      "inputs": [
        {
          "components": [
            {
              "internalType": "uint256",
              "name": "organizerID",
              "type": "uint256"
            },
            {
              "internalType": "string",
              "name": "name",
              "type": "string"
            },
            {
              "internalType": "address",
              "name": "publicAddress",
              "type": "address"
            }
          ],
          "internalType": "struct ElectionOrganizer.OrganizerInfo",
          "name": "_organizerInfo",
          "type": "tuple"
        },
        {
          "internalType": "address",
          "name": "_organizer",
          "type": "address"
        }
      ],
      "name": "addOrganizer",
      "outputs": [],
      "stateMutability": "nonpayable",
      "type": "function"
    },
    {
      "inputs": [
        {
          "components": [
            {
              "internalType": "uint256",
              "name": "electionID",
              "type": "uint256"
            },
            {
              "internalType": "string",
              "name": "name",
              "type": "string"
            },
            {
              "internalType": "string",
              "name": "description",
              "type": "string"
            },
            {
              "internalType": "uint256",
              "name": "startDate",
              "type": "uint256"
            },
            {
              "internalType": "uint256",
              "name": "endDate",
              "type": "uint256"
            }
          ],
          "internalType": "struct Election.ElectionInfo",
          "name": "_electionInfo",
          "type": "tuple"
        },
        {
          "internalType": "contract Ballot",
          "name": "_ballot",
          "type": "address"
        },
        {
          "internalType": "contract ResultCalculator",
          "name": "_resultCalculator",
          "type": "address"
        }
      ],
      "name": "createElection",
      "outputs": [],
      "stateMutability": "nonpayable",
      "type": "function"
    },
    {
      "inputs": [
        {
          "internalType": "contract Election",
          "name": "_election",
          "type": "address"
        },
        {
          "components": [
            {
              "internalType": "uint256",
              "name": "candidateID",
              "type": "uint256"
            },
            {
              "internalType": "string",
              "name": "name",
              "type": "string"
            }
          ],
          "internalType": "struct Election.Candidate",
          "name": "_candidate",
          "type": "tuple"
        }
      ],
      "name": "addCandidate",
      "outputs": [],
      "stateMutability": "nonpayable",
      "type": "function"
    },
    {
      "inputs": [
        {
          "internalType": "contract Election",
          "name": "_election",
          "type": "address"
        }
      ],
      "name": "getResult",
      "outputs": [],
      "stateMutability": "nonpayable",
      "type": "function"
    }
  ],
  "bytecode": "0x608060405234801561001057600080fd5b506131d3806100206000396000f3fe60806040523480156200001157600080fd5b5060043610620000525760003560e01c8063446a37e014620000575780635118161b14620000775780635b1aad001462000097578063b16b14b714620000b7575b600080fd5b6200007560048036038101906200006f91906200067a565b620000d7565b005b6200009560048036038101906200008f91906200076f565b6200013c565b005b620000b56004803603810190620000af919062000700565b620001f2565b005b620000d56004803603810190620000cf9190620006a6565b62000274565b005b8073ffffffffffffffffffffffffffffffffffffffff1663de2927896040518163ffffffff1660e01b8152600401600060405180830381600087803b1580156200012057600080fd5b505af115801562000135573d6000803e3d6000fd5b5050505050565b816000808373ffffffffffffffffffffffffffffffffffffffff1673ffffffffffffffffffffffffffffffffffffffff168152602001908152602001600020600082015181600001556020820151816001019080519060200190620001a392919062000322565b5060408201518160020160006101000a81548173ffffffffffffffffffffffffffffffffffffffff021916908373ffffffffffffffffffffffffffffffffffffffff1602179055509050505050565b6000838383336040516200020690620003b3565b6200021594939291906200098b565b604051809103906000f08015801562000232573d6000803e3d6000fd5b5090507f49fdfe60e25ebf09e8f8c20a8a10c828d9b82cecf7b04e1ecb59ae51f79f82778160405162000266919062000916565b60405180910390a150505050565b8173ffffffffffffffffffffffffffffffffffffffff16631c6c741b826040518263ffffffff1660e01b8152600401620002af919062000967565b600060405180830381600087803b158015620002ca57600080fd5b505af1158015620002df573d6000803e3d6000fd5b505050507f07771d3b5b09cc4582322e65d05740a706298222c7a823cff620ebf6e1b5420b82826040516200031692919062000933565b60405180910390a15050565b828054620003309062000b71565b90600052602060002090601f016020900481019282620003545760008555620003a0565b82601f106200036f57805160ff1916838001178555620003a0565b82800160010185558215620003a0579182015b828111156200039f57825182559160200191906001019062000382565b5b509050620003af9190620003c1565b5090565b6125058062000c9983390190565b5b80821115620003dc576000816000905550600101620003c2565b5090565b6000620003f7620003f18462000a13565b620009df565b9050828152602081018484840111156200041057600080fd5b6200041d84828562000b2c565b509392505050565b600081359050620004368162000c16565b92915050565b6000813590506200044d8162000c30565b92915050565b600081359050620004648162000c4a565b92915050565b6000813590506200047b8162000c64565b92915050565b600082601f8301126200049357600080fd5b8135620004a5848260208601620003e0565b91505092915050565b600060408284031215620004c157600080fd5b620004cd6040620009df565b90506000620004df8482850162000663565b600083015250602082013567ffffffffffffffff8111156200050057600080fd5b6200050e8482850162000481565b60208301525092915050565b600060a082840312156200052d57600080fd5b6200053960a0620009df565b905060006200054b8482850162000663565b600083015250602082013567ffffffffffffffff8111156200056c57600080fd5b6200057a8482850162000481565b602083015250604082013567ffffffffffffffff8111156200059b57600080fd5b620005a98482850162000481565b6040830152506060620005bf8482850162000663565b6060830152506080620005d58482850162000663565b60808301525092915050565b600060608284031215620005f457600080fd5b620006006060620009df565b90506000620006128482850162000663565b600083015250602082013567ffffffffffffffff8111156200063357600080fd5b620006418482850162000481565b6020830152506040620006578482850162000425565b60408301525092915050565b600081359050620006748162000c7e565b92915050565b6000602082840312156200068d57600080fd5b60006200069d8482850162000453565b91505092915050565b60008060408385031215620006ba57600080fd5b6000620006ca8582860162000453565b925050602083013567ffffffffffffffff811115620006e857600080fd5b620006f685828601620004ae565b9150509250929050565b6000806000606084860312156200071657600080fd5b600084013567ffffffffffffffff8111156200073157600080fd5b6200073f868287016200051a565b935050602062000752868287016200043c565b925050604062000765868287016200046a565b9150509250925092565b600080604083850312156200078357600080fd5b600083013567ffffffffffffffff8111156200079e57600080fd5b620007ac85828601620005e1565b9250506020620007bf8582860162000425565b9150509250929050565b620007d48162000a62565b82525050565b620007e58162000adc565b82525050565b620007f68162000b04565b82525050565b6000620008098262000a46565b62000815818562000a51565b93506200082781856020860162000b3b565b620008328162000c05565b840191505092915050565b600060408301600083015162000857600086018262000905565b5060208301518482036020860152620008718282620007fc565b9150508091505092915050565b600060a08301600083015162000898600086018262000905565b5060208301518482036020860152620008b28282620007fc565b91505060408301518482036040860152620008ce8282620007fc565b9150506060830151620008e5606086018262000905565b506080830151620008fa608086018262000905565b508091505092915050565b620009108162000ad2565b82525050565b60006020820190506200092d6000830184620007c9565b92915050565b60006040820190506200094a6000830185620007c9565b81810360208301526200095e81846200083d565b90509392505050565b600060208201905081810360008301526200098381846200083d565b905092915050565b60006080820190508181036000830152620009a781876200087e565b9050620009b86020830186620007da565b620009c76040830185620007eb565b620009d66060830184620007c9565b95945050505050565b6000604051905081810181811067ffffffffffffffff8211171562000a095762000a0862000bd6565b5b8060405250919050565b600067ffffffffffffffff82111562000a315762000a3062000bd6565b5b601f19601f8301169050602081019050919050565b600081519050919050565b600082825260208201905092915050565b600062000a6f8262000ab2565b9050919050565b600062000a838262000a62565b9050919050565b600062000a978262000a62565b9050919050565b600062000aab8262000a62565b9050919050565b600073ffffffffffffffffffffffffffffffffffffffff82169050919050565b6000819050919050565b600062000ae98262000af0565b9050919050565b600062000afd8262000ab2565b9050919050565b600062000b118262000b18565b9050919050565b600062000b258262000ab2565b9050919050565b82818337600083830152505050565b60005b8381101562000b5b57808201518184015260208101905062000b3e565b8381111562000b6b576000848401525b50505050565b6000600282049050600182168062000b8a57607f821691505b6020821081141562000ba15762000ba062000ba7565b5b50919050565b7f4e487b7100000000000000000000000000000000000000000000000000000000600052602260045260246000fd5b7f4e487b7100000000000000000000000000000000000000000000000000000000600052604160045260246000fd5b6000601f19601f8301169050919050565b62000c218162000a62565b811462000c2d57600080fd5b50565b62000c3b8162000a76565b811462000c4757600080fd5b50565b62000c558162000a8a565b811462000c6157600080fd5b50565b62000c6f8162000a9e565b811462000c7b57600080fd5b50565b62000c898162000ad2565b811462000c9557600080fd5b5056fe60806040523480156200001157600080fd5b50604051620025053803806200250583398181016040528101906200003791906200046a565b80600a60006101000a81548173ffffffffffffffffffffffffffffffffffffffff021916908373ffffffffffffffffffffffffffffffffffffffff1602179055508360008082015181600001556020820151816001019080519060200190620000a292919062000225565b506040820151816002019080519060200190620000c192919062000225565b50606082015181600301556080820151816004015590505082600c60016101000a81548173ffffffffffffffffffffffffffffffffffffffff021916908373ffffffffffffffffffffffffffffffffffffffff16021790555081600d60006101000a81548173ffffffffffffffffffffffffffffffffffffffff021916908373ffffffffffffffffffffffffffffffffffffffff1602179055508360600151421015620001c0576001600c60006101000a81548160ff02191690836002811115620001b5577f4e487b7100000000000000000000000000000000000000000000000000000000600052602160045260246000fd5b021790555062000213565b6000600c60006101000a81548160ff021916908360028111156200020d577f4e487b7100000000000000000000000000000000000000000000000000000000600052602160045260246000fd5b02179055505b6000600b8190555050505050620006ee565b8280546200023390620005f2565b90600052602060002090601f016020900481019282620002575760008555620002a3565b82601f106200027257805160ff1916838001178555620002a3565b82800160010185558215620002a3579182015b82811115620002a257825182559160200191906001019062000285565b5b509050620002b29190620002b6565b5090565b5b80821115620002d1576000816000905550600101620002b7565b5090565b6000620002ec620002e68462000523565b620004ef565b9050828152602081018484840111156200030557600080fd5b62000312848285620005bc565b509392505050565b6000815190506200032b8162000686565b92915050565b6000815190506200034281620006a0565b92915050565b6000815190506200035981620006ba565b92915050565b600082601f8301126200037157600080fd5b815162000383848260208601620002d5565b91505092915050565b600060a082840312156200039f57600080fd5b620003ab60a0620004ef565b90506000620003bd8482850162000453565b600083015250602082015167ffffffffffffffff811115620003de57600080fd5b620003ec848285016200035f565b602083015250604082015167ffffffffffffffff8111156200040d57600080fd5b6200041b848285016200035f565b6040830152506060620004318482850162000453565b6060830152506080620004478482850162000453565b60808301525092915050565b6000815190506200046481620006d4565b92915050565b600080600080608085870312156200048157600080fd5b600085015167ffffffffffffffff8111156200049c57600080fd5b620004aa878288016200038c565b9450506020620004bd8782880162000331565b9350506040620004d08782880162000348565b9250506060620004e3878288016200031a565b91505092959194509250565b6000604051905081810181811067ffffffffffffffff8211171562000519576200051862000657565b5b8060405250919050565b600067ffffffffffffffff82111562000541576200054062000657565b5b601f19601f8301169050602081019050919050565b6000620005638262000592565b9050919050565b6000620005778262000556565b9050919050565b60006200058b8262000556565b9050919050565b600073ffffffffffffffffffffffffffffffffffffffff82169050919050565b6000819050919050565b60005b83811015620005dc578082015181840152602081019050620005bf565b83811115620005ec576000848401525b50505050565b600060028204905060018216806200060b57607f821691505b6020821081141562000622576200062162000628565b5b50919050565b7f4e487b7100000000000000000000000000000000000000000000000000000000600052602260045260246000fd5b7f4e487b7100000000000000000000000000000000000000000000000000000000600052604160045260246000fd5b620006918162000556565b81146200069d57600080fd5b50565b620006ab816200056a565b8114620006b757600080fd5b50565b620006c5816200057e565b8114620006d157600080fd5b50565b620006df81620005b2565b8114620006eb57600080fd5b50565b611e0780620006fe6000396000f3fe608060405234801561001057600080fd5b50600436106100b45760003560e01c8063521b0dcc11610071578063521b0dcc146101695780636c74bf6d1461019957806386852dca146101bb578063ac3910a2146101d9578063de292789146101f7578063df15c37e14610201576100b4565b806306a49fce146100b957806311174a29146100d75780631c6c741b146100f55780632a4a1b73146101115780632e134f851461012d5780634e69d5601461014b575b600080fd5b6100c161021f565b6040516100ce91906117e1565b60405180910390f35b6100df61031a565b6040516100ec919061191e565b60405180910390f35b61010f600480360381019061010a9190611201565b610324565b005b61012b60048036038101906101269190611148565b610569565b005b610135610686565b60405161014291906118a6565b60405180910390f35b6101536106ac565b60405161016091906118c1565b60405180910390f35b610183600480360381019061017e919061111f565b6106e1565b6040516101909190611847565b60405180910390f35b6101a1610795565b6040516101b2959493929190611939565b60405180910390f35b6101c36108c9565b6040516101d091906118fc565b60405180910390f35b6101e1610a25565b6040516101ee9190611862565b60405180910390f35b6101ff610a4b565b005b610209610cd5565b6040516102169190611825565b60405180910390f35b60606005805480602002602001604051908101604052809291908181526020016000905b8282101561031157838290600052602060002090600202016040518060400160405290816000820154815260200160018201805461028090611c09565b80601f01602080910402602001604051908101604052809291908181526020018280546102ac90611c09565b80156102f95780601f106102ce576101008083540402835291602001916102f9565b820191906000526020600020905b8154815290600101906020018083116102dc57829003601f168201915b50505050508152505081526020019060010190610243565b50505050905090565b6000600b54905090565b600a60009054906101000a900473ffffffffffffffffffffffffffffffffffffffff1673ffffffffffffffffffffffffffffffffffffffff163373ffffffffffffffffffffffffffffffffffffffff16146103b4576040517f08c379a00000000000000000000000000000000000000000000000000000000081526004016103ab906118dc565b60405180910390fd5b6005819080600181540180825580915050600190039060005260206000209060020201600090919091909150600082015181600001556020820151816001019080519060200190610406929190610dbd565b505050600c60019054906101000a900473ffffffffffffffffffffffffffffffffffffffff1673ffffffffffffffffffffffffffffffffffffffff1663e844d09782600001516040518263ffffffff1660e01b8152600401610468919061191e565b600060405180830381600087803b15801561048257600080fd5b505af1158015610496573d6000803e3d6000fd5b505050508060096000836000015181526020019081526020016000206000820151816000015560208201518160010190805190602001906104d8929190610dbd565b509050506007816000015190806001815401808255809150506001900390600052602060002001600090919091909150557f1c2b84eccbb3b596139db436612c5ee0c320cd95fdfa80251a91eb699e75b80130600c60019054906101000a900473ffffffffffffffffffffffffffffffffffffffff168360405161055e9392919061172e565b60405180910390a150565b600c60019054906101000a900473ffffffffffffffffffffffffffffffffffffffff1673ffffffffffffffffffffffffffffffffffffffff16632a4a1b738484846040518463ffffffff1660e01b81526004016105c8939291906117aa565b600060405180830381600087803b1580156105e257600080fd5b505af11580156105f6573d6000803e3d6000fd5b50505050600b600081548092919061060d90611c55565b91905055507f89116e9980fb92d511e6fb40f617f5cf0b58cf040ea472df506add052418021a600c60019054906101000a900473ffffffffffffffffffffffffffffffffffffffff1660096000858152602001908152602001600020836040516106799392919061176c565b60405180910390a1505050565b600d60009054906101000a900473ffffffffffffffffffffffffffffffffffffffff1681565b600080600301544210156106c357600190506106de565b6000600401544210156106d957600090506106de565b600290505b90565b6000600c60019054906101000a900473ffffffffffffffffffffffffffffffffffffffff1673ffffffffffffffffffffffffffffffffffffffff1663521b0dcc836040518263ffffffff1660e01b815260040161073e9190611713565b60206040518083038186803b15801561075657600080fd5b505afa15801561076a573d6000803e3d6000fd5b505050506040513d601f19601f8201168201806040525081019061078e91906111d8565b9050919050565b60008060000154908060010180546107ac90611c09565b80601f01602080910402602001604051908101604052809291908181526020018280546107d890611c09565b80156108255780601f106107fa57610100808354040283529160200191610825565b820191906000526020600020905b81548152906001019060200180831161080857829003601f168201915b50505050509080600201805461083a90611c09565b80601f016020809104026020016040519081016040528092919081815260200182805461086690611c09565b80156108b35780601f10610888576101008083540402835291602001916108b3565b820191906000526020600020905b81548152906001019060200180831161089657829003601f168201915b5050505050908060030154908060040154905085565b6108d1610e43565b60006040518060a0016040529081600082015481526020016001820180546108f890611c09565b80601f016020809104026020016040519081016040528092919081815260200182805461092490611c09565b80156109715780601f1061094657610100808354040283529160200191610971565b820191906000526020600020905b81548152906001019060200180831161095457829003601f168201915b5050505050815260200160028201805461098a90611c09565b80601f01602080910402602001604051908101604052809291908181526020018280546109b690611c09565b8015610a035780601f106109d857610100808354040283529160200191610a03565b820191906000526020600020905b8154815290600101906020018083116109e657829003601f168201915b5050505050815260200160038201548152602001600482015481525050905090565b600c60019054906101000a900473ffffffffffffffffffffffffffffffffffffffff1681565b600a60009054906101000a900473ffffffffffffffffffffffffffffffffffffffff1673ffffffffffffffffffffffffffffffffffffffff163373ffffffffffffffffffffffffffffffffffffffff1614610adb576040517f08c379a0000000000000000000000000000000000000000000000000000000008152600401610ad2906118dc565b60405180910390fd5b600d60009054906101000a900473ffffffffffffffffffffffffffffffffffffffff1673ffffffffffffffffffffffffffffffffffffffff1663c8344a20600c60019054906101000a900473ffffffffffffffffffffffffffffffffffffffff16600b546040518363ffffffff1660e01b8152600401610b5c92919061187d565b600060405180830381600087803b158015610b7657600080fd5b505af1158015610b8a573d6000803e3d6000fd5b505050506040513d6000823e3d601f19601f82011682018060405250810190610bb39190611197565b60089080519060200190610bc8929190610e72565b5060005b600580549050811015610c9a5760066009600060088481548110610c19577f4e487b7100000000000000000000000000000000000000000000000000000000600052603260045260246000fd5b906000526020600020015481526020019081526020016000209080600181540180825580915050600190039060005260206000209060020201600090919091909150600082015481600001556001820181600101908054610c7990611c09565b610c84929190610ebf565b5050508080610c9290611c55565b915050610bcc565b507fdd4046340a3ebf10dbe18f1fbbf3ae91016308db118938cafcc3557ae4ff78ad6006604051610ccb9190611803565b60405180910390a1565b6060600a60009054906101000a900473ffffffffffffffffffffffffffffffffffffffff1673ffffffffffffffffffffffffffffffffffffffff163373ffffffffffffffffffffffffffffffffffffffff1614610d67576040517f08c379a0000000000000000000000000000000000000000000000000000000008152600401610d5e906118dc565b60405180910390fd5b6008805480602002602001604051908101604052809291908181526020018280548015610db357602002820191906000526020600020905b815481526020019060010190808311610d9f575b5050505050905090565b828054610dc990611c09565b90600052602060002090601f016020900481019282610deb5760008555610e32565b82601f10610e0457805160ff1916838001178555610e32565b82800160010185558215610e32579182015b82811115610e31578251825591602001919060010190610e16565b5b509050610e3f9190610f4c565b5090565b6040518060a0016040528060008152602001606081526020016060815260200160008152602001600081525090565b828054828255906000526020600020908101928215610eae579160200282015b82811115610ead578251825591602001919060010190610e92565b5b509050610ebb9190610f4c565b5090565b828054610ecb90611c09565b90600052602060002090601f016020900481019282610eed5760008555610f3b565b82601f10610efe5780548555610f3b565b82800160010185558215610f3b57600052602060002091601f016020900482015b82811115610f3a578254825591600101919060010190610f1f565b5b509050610f489190610f4c565b5090565b5b80821115610f65576000816000905550600101610f4d565b5090565b6000610f7c610f77846119cb565b61199a565b90508083825260208201905082856020860282011115610f9b57600080fd5b60005b85811015610fcb5781610fb1888261110a565b845260208401935060208301925050600181019050610f9e565b5050509392505050565b6000610fe8610fe3846119f7565b61199a565b90508281526020810184848401111561100057600080fd5b61100b848285611bc7565b509392505050565b60008135905061102281611d8c565b92915050565b600082601f83011261103957600080fd5b8151611049848260208601610f69565b91505092915050565b60008151905061106181611da3565b92915050565b600082601f83011261107857600080fd5b8135611088848260208601610fd5565b91505092915050565b6000604082840312156110a357600080fd5b6110ad604061199a565b905060006110bd848285016110f5565b600083015250602082013567ffffffffffffffff8111156110dd57600080fd5b6110e984828501611067565b60208301525092915050565b60008135905061110481611dba565b92915050565b60008151905061111981611dba565b92915050565b60006020828403121561113157600080fd5b600061113f84828501611013565b91505092915050565b60008060006060848603121561115d57600080fd5b600061116b86828701611013565b935050602061117c868287016110f5565b925050604061118d868287016110f5565b9150509250925092565b6000602082840312156111a957600080fd5b600082015167ffffffffffffffff8111156111c357600080fd5b6111cf84828501611028565b91505092915050565b6000602082840312156111ea57600080fd5b60006111f884828501611052565b91505092915050565b60006020828403121561121357600080fd5b600082013567ffffffffffffffff81111561122d57600080fd5b61123984828501611091565b91505092915050565b600061124e838361156c565b905092915050565b600061126283836115e6565b905092915050565b600061127683836116f5565b60208301905092915050565b61128b81611b12565b82525050565b600061129c82611a71565b6112a68185611ac4565b9350836020820285016112b885611a27565b8060005b858110156112f457848403895281516112d58582611242565b94506112e083611a9d565b925060208a019950506001810190506112bc565b50829750879550505050505092915050565b600061131182611a7c565b61131b8185611ac4565b93508360208202850161132d85611a37565b8060005b85811015611368578484038952816113498582611256565b945061135483611aaa565b925060208a01995050600181019050611331565b50829750879550505050505092915050565b600061138582611a87565b61138f8185611ad5565b935061139a83611a4c565b8060005b838110156113cb5781516113b2888261126a565b97506113bd83611ab7565b92505060018101905061139e565b5085935050505092915050565b6113e181611b24565b82525050565b6113f081611b6d565b82525050565b6113ff81611b91565b82525050565b61140e81611bb5565b82525050565b600061141f82611a92565b6114298185611ae6565b9350611439818560208601611bd6565b61144281611d5a565b840191505092915050565b600061145882611a92565b6114628185611af7565b9350611472818560208601611bd6565b61147b81611d5a565b840191505092915050565b6000815461149381611c09565b61149d8186611ae6565b945060018216600081146114b857600181146114ca576114fd565b60ff19831686526020860193506114fd565b6114d385611a5c565b60005b838110156114f5578154818901526001820191506020810190506114d6565b808801955050505b50505092915050565b6000611513602583611af7565b91507f43616c6c6572206d7573742062652074686520656c656374696f6e206f72676160008301527f6e697a65720000000000000000000000000000000000000000000000000000006020830152604082019050919050565b600060408301600083015161158460008601826116f5565b506020830151848203602086015261159c8282611414565b9150508091505092915050565b60006040830160008301516115c160008601826116f5565b50602083015184820360208601526115d98282611414565b9150508091505092915050565b60006040830160008084015490506115fd81611c3b565b61160a60008701826116f5565b506001840185830360208701526116218382611486565b925050819250505092915050565b600060408301600080840154905061164681611c3b565b61165360008701826116f5565b5060018401858303602087015261166a8382611486565b925050819250505092915050565b600060a08301600083015161169060008601826116f5565b50602083015184820360208601526116a88282611414565b915050604083015184820360408601526116c28282611414565b91505060608301516116d760608601826116f5565b5060808301516116ea60808601826116f5565b508091505092915050565b6116fe81611b63565b82525050565b61170d81611b63565b82525050565b60006020820190506117286000830184611282565b92915050565b60006060820190506117436000830186611282565b6117506020830185611282565b818103604083015261176281846115a9565b9050949350505050565b60006060820190506117816000830186611282565b8181036020830152611793818561162f565b90506117a26040830184611704565b949350505050565b60006060820190506117bf6000830186611282565b6117cc6020830185611704565b6117d96040830184611704565b949350505050565b600060208201905081810360008301526117fb8184611291565b905092915050565b6000602082019050818103600083015261181d8184611306565b905092915050565b6000602082019050818103600083015261183f818461137a565b905092915050565b600060208201905061185c60008301846113d8565b92915050565b600060208201905061187760008301846113e7565b92915050565b600060408201905061189260008301856113e7565b61189f6020830184611704565b9392505050565b60006020820190506118bb60008301846113f6565b92915050565b60006020820190506118d66000830184611405565b92915050565b600060208201905081810360008301526118f581611506565b9050919050565b600060208201905081810360008301526119168184611678565b905092915050565b60006020820190506119336000830184611704565b92915050565b600060a08201905061194e6000830188611704565b8181036020830152611960818761144d565b90508181036040830152611974818661144d565b90506119836060830185611704565b6119906080830184611704565b9695505050505050565b6000604051905081810181811067ffffffffffffffff821117156119c1576119c0611d2b565b5b8060405250919050565b600067ffffffffffffffff8211156119e6576119e5611d2b565b5b602082029050602081019050919050565b600067ffffffffffffffff821115611a1257611a11611d2b565b5b601f19601f8301169050602081019050919050565b6000819050602082019050919050565b60008190508160005260206000209050919050565b6000819050602082019050919050565b60008190508160005260206000209050919050565b600081519050919050565b600081549050919050565b600081519050919050565b600081519050919050565b6000602082019050919050565b6000600282019050919050565b6000602082019050919050565b600082825260208201905092915050565b600082825260208201905092915050565b600082825260208201905092915050565b600082825260208201905092915050565b6000819050919050565b6000611b1d82611b43565b9050919050565b60008115159050919050565b6000819050611b3e82611d78565b919050565b600073ffffffffffffffffffffffffffffffffffffffff82169050919050565b6000819050919050565b6000611b7882611b7f565b9050919050565b6000611b8a82611b43565b9050919050565b6000611b9c82611ba3565b9050919050565b6000611bae82611b43565b9050919050565b6000611bc082611b30565b9050919050565b82818337600083830152505050565b60005b83811015611bf4578082015181840152602081019050611bd9565b83811115611c03576000848401525b50505050565b60006002820490506001821680611c2157607f821691505b60208210811415611c3557611c34611cfc565b5b50919050565b6000611c4e611c4983611d6b565b611b08565b9050919050565b6000611c6082611b63565b91507fffffffffffffffffffffffffffffffffffffffffffffffffffffffffffffffff821415611c9357611c92611c9e565b5b600182019050919050565b7f4e487b7100000000000000000000000000000000000000000000000000000000600052601160045260246000fd5b7f4e487b7100000000000000000000000000000000000000000000000000000000600052602160045260246000fd5b7f4e487b7100000000000000000000000000000000000000000000000000000000600052602260045260246000fd5b7f4e487b7100000000000000000000000000000000000000000000000000000000600052604160045260246000fd5b6000601f19601f8301169050919050565b60008160001c9050919050565b60038110611d8957611d88611ccd565b5b50565b611d9581611b12565b8114611da057600080fd5b50565b611dac81611b24565b8114611db757600080fd5b50565b611dc381611b63565b8114611dce57600080fd5b5056fea26469706673582212205422f2046f6854577162c67f6900b66945de0a587d18122f7d99430fa0e63c0364736f6c63430008000033a2646970667358221220b2dcfdf88917a0d82527c078f2a4dc56f77c7a777ad34096fe64a24fb516ebc864736f6c63430008000033",
  "immutableReferences": {},
  "source": "// SPDX-License-Identifier: UNLICENSED\npragma solidity >=0.8.0;\nimport './Election.sol';\nimport './ballot/Ballot.sol';\nimport './ElectionStorage.sol';\n\ncontract ElectionOrganizer {\n    \n    struct OrganizerInfo{\n        uint organizerID;\n        string name;\n        address publicAddress;\n    }\n\n    mapping(address => OrganizerInfo)organizers;\n\n    event CreatedElection(address election);\n    event CandidateAdded(address election, Election.Candidate candidate);\n\n    function addOrganizer(OrganizerInfo memory _organizerInfo, address _organizer) public {\n        organizers[_organizer] = _organizerInfo;\n    }\n\n\n    function createElection(Election.ElectionInfo memory _electionInfo,Ballot _ballot, ResultCalculator _resultCalculator)public{\n\n        Election election = new Election(_electionInfo,_ballot,_resultCalculator,msg.sender);\n        emit CreatedElection(address(election));\n        // save in ElectionStorage\n    }\n    \n    function addCandidate(Election _election,Election.Candidate memory _candidate)public{\n        _election.addCandidate(_candidate);\n        emit CandidateAdded(address(_election),_candidate);\n    }\n    \n    function getResult(Election _election)public{\n        _election.getResult();\n        // emit ResultsDeclared(address(_election),_election.getWinners());\n    }\n    \n}",
  "sourcePath": "/Users/rajranjan/gitProjects/agora-blockchain/server/contracts/ElectionOrganizer.sol",
  "compiler": {
    "name": "solc",
    "version": "0.8.0+commit.c7dfd78e.Emscripten.clang"
  },
  "schemaVersion": "3.4.5",
  "updatedAt": "2022-08-22T18:37:35.956Z",
  "networkType": "ethereum",
  "devdoc": {
    "kind": "dev",
    "methods": {},
    "version": 1
  },
  "userdoc": {
    "kind": "user",
    "methods": {},
    "version": 1
  }
}