{
  "contractName": "ElectionStorage",
  "abi": [
    {
      "inputs": [
        {
          "internalType": "contract Election",
          "name": "_contract",
          "type": "address"
        }
      ],
      "name": "addContract",
      "outputs": [],
      "stateMutability": "nonpayable",
      "type": "function"
    }
  ],
  "bytecode": "0x608060405234801561001057600080fd5b50610181806100206000396000f3fe608060405234801561001057600080fd5b506004361061002b5760003560e01c80635f539d6914610030575b600080fd5b61004a600480360381019061004591906100c7565b61004c565b005b6000819080600181540180825580915050600190039060005260206000200160009091909190916101000a81548173ffffffffffffffffffffffffffffffffffffffff021916908373ffffffffffffffffffffffffffffffffffffffff16021790555050565b6000813590506100c181610134565b92915050565b6000602082840312156100d957600080fd5b60006100e7848285016100b2565b91505092915050565b60006100fb82610114565b9050919050565b600061010d826100f0565b9050919050565b600073ffffffffffffffffffffffffffffffffffffffff82169050919050565b61013d81610102565b811461014857600080fd5b5056fea2646970667358221220b6404c8f984b61ce081072a7c157d1690919ebd999390e504c5a263c8f3784fe64736f6c63430008000033",
  "immutableReferences": {},
  "source": "// SPDX-License-Identifier: UNLICENSED\npragma solidity >=0.8.0;\nimport './Election.sol';\n\ncontract ElectionStorage {\n    Election[] contracts;\n    mapping(Election.Status=>Election[]) activeElections;\n    mapping(address=>Election[]) addressToElections;  // change name\n    function addContract(Election _contract)public{\n        contracts.push(_contract);\n    }\n}",
  "sourcePath": "/Users/rajranjan/gitProjects/agora-blockchain/server/contracts/ElectionStorage.sol",
  "compiler": {
    "name": "solc",
    "version": "0.8.0+commit.c7dfd78e.Emscripten.clang"
  },
  "schemaVersion": "3.4.5",
  "updatedAt": "2022-08-22T18:37:34.022Z",
  "devdoc": {
    "kind": "dev",
    "methods": {},
    "version": 1
  },
  "userdoc": {
    "kind": "user",
    "methods": {},
    "version": 1
  }
}