{
  "contractName": "Election",
  "abi": [
    {
      "inputs": [
        {
          "internalType": "uint256",
          "name": "_id",
          "type": "uint256"
        },
        {
          "internalType": "string[]",
          "name": "_nda",
          "type": "string[]"
        },
        {
          "internalType": "uint256[]",
          "name": "_se",
          "type": "uint256[]"
        },
        {
          "internalType": "address",
          "name": "_electionOrganiser",
          "type": "address"
        }
      ],
      "stateMutability": "nonpayable",
      "type": "constructor"
    },
    {
      "inputs": [
        {
          "internalType": "uint256",
          "name": "",
          "type": "uint256"
        }
      ],
      "name": "candidates",
      "outputs": [
        {
          "internalType": "uint256",
          "name": "id",
          "type": "uint256"
        },
        {
          "internalType": "string",
          "name": "name",
          "type": "string"
        },
        {
          "internalType": "string",
          "name": "about",
          "type": "string"
        },
        {
          "internalType": "uint256",
          "name": "voteCount",
          "type": "uint256"
        }
      ],
      "stateMutability": "view",
      "type": "function"
    },
    {
      "inputs": [],
      "name": "candidatesCount",
      "outputs": [
        {
          "internalType": "uint256",
          "name": "",
          "type": "uint256"
        }
      ],
      "stateMutability": "view",
      "type": "function"
    },
    {
      "inputs": [],
      "name": "electionInfo",
      "outputs": [
        {
          "internalType": "uint256",
          "name": "id",
          "type": "uint256"
        },
        {
          "internalType": "string",
          "name": "name",
          "type": "string"
        },
        {
          "internalType": "string",
          "name": "description",
          "type": "string"
        },
        {
          "internalType": "string",
          "name": "algorithm",
          "type": "string"
        },
        {
          "internalType": "uint256",
          "name": "sdate",
          "type": "uint256"
        },
        {
          "internalType": "uint256",
          "name": "edate",
          "type": "uint256"
        },
        {
          "internalType": "uint256",
          "name": "voterCount",
          "type": "uint256"
        },
        {
          "internalType": "address",
          "name": "electionOrganiser",
          "type": "address"
        }
      ],
      "stateMutability": "view",
      "type": "function"
    },
    {
      "inputs": [],
      "name": "status",
      "outputs": [
        {
          "internalType": "enum Election.Status",
          "name": "",
          "type": "uint8"
        }
      ],
      "stateMutability": "view",
      "type": "function"
    },
    {
      "inputs": [
        {
          "internalType": "address",
          "name": "",
          "type": "address"
        }
      ],
      "name": "voters",
      "outputs": [
        {
          "internalType": "bool",
          "name": "",
          "type": "bool"
        }
      ],
      "stateMutability": "view",
      "type": "function"
    },
    {
      "inputs": [],
      "name": "getTimestamps",
      "outputs": [
        {
          "internalType": "uint256[2]",
          "name": "",
          "type": "uint256[2]"
        }
      ],
      "stateMutability": "view",
      "type": "function"
    },
    {
      "inputs": [],
      "name": "getStatus",
      "outputs": [
        {
          "internalType": "enum Election.Status",
          "name": "",
          "type": "uint8"
        }
      ],
      "stateMutability": "view",
      "type": "function"
    },
    {
      "inputs": [
        {
          "internalType": "string",
          "name": "_name",
          "type": "string"
        },
        {
          "internalType": "string",
          "name": "_about",
          "type": "string"
        }
      ],
      "name": "addCandidate",
      "outputs": [],
      "stateMutability": "nonpayable",
      "type": "function"
    },
    {
      "inputs": [
        {
          "internalType": "uint256",
          "name": "_candidate",
          "type": "uint256"
        }
      ],
      "name": "vote",
      "outputs": [],
      "stateMutability": "nonpayable",
      "type": "function"
    },
    {
      "inputs": [],
      "name": "getWinnerDetails",
      "outputs": [
        {
          "components": [
            {
              "internalType": "uint256",
              "name": "id",
              "type": "uint256"
            },
            {
              "internalType": "string",
              "name": "name",
              "type": "string"
            },
            {
              "internalType": "string",
              "name": "about",
              "type": "string"
            },
            {
              "internalType": "uint256",
              "name": "voteCount",
              "type": "uint256"
            }
          ],
          "internalType": "struct Election.Candidate[]",
          "name": "",
          "type": "tuple[]"
        }
      ],
      "stateMutability": "view",
      "type": "function"
    },
    {
      "inputs": [],
      "name": "getElectionDetails",
      "outputs": [
        {
          "components": [
            {
              "components": [
                {
                  "internalType": "uint256",
                  "name": "id",
                  "type": "uint256"
                },
                {
                  "internalType": "string",
                  "name": "name",
                  "type": "string"
                },
                {
                  "internalType": "string",
                  "name": "description",
                  "type": "string"
                },
                {
                  "internalType": "string",
                  "name": "algorithm",
                  "type": "string"
                },
                {
                  "internalType": "uint256",
                  "name": "sdate",
                  "type": "uint256"
                },
                {
                  "internalType": "uint256",
                  "name": "edate",
                  "type": "uint256"
                },
                {
                  "internalType": "uint256",
                  "name": "voterCount",
                  "type": "uint256"
                },
                {
                  "internalType": "address",
                  "name": "electionOrganiser",
                  "type": "address"
                }
              ],
              "internalType": "struct Election.ElectionInfo",
              "name": "info",
              "type": "tuple"
            },
            {
              "components": [
                {
                  "internalType": "uint256",
                  "name": "id",
                  "type": "uint256"
                },
                {
                  "internalType": "string",
                  "name": "name",
                  "type": "string"
                },
                {
                  "internalType": "string",
                  "name": "about",
                  "type": "string"
                },
                {
                  "internalType": "uint256",
                  "name": "voteCount",
                  "type": "uint256"
                }
              ],
              "internalType": "struct Election.Candidate[]",
              "name": "candidate",
              "type": "tuple[]"
            }
          ],
          "internalType": "struct Election.ElectionDetail",
          "name": "",
          "type": "tuple"
        }
      ],
      "stateMutability": "view",
      "type": "function"
    }
  ],
  "bytecode": "0x60806040526000600b553480156200001657600080fd5b5060405162002cc338038062002cc383398181016040528101906200003c91906200062b565b6040518061010001604052808581526020018460008151811062000089577f4e487b7100000000000000000000000000000000000000000000000000000000600052603260045260246000fd5b6020026020010151815260200184600181518110620000d1577f4e487b7100000000000000000000000000000000000000000000000000000000600052603260045260246000fd5b602002602001015181526020018460028151811062000119577f4e487b7100000000000000000000000000000000000000000000000000000000600052603260045260246000fd5b602002602001015181526020018360008151811062000161577f4e487b7100000000000000000000000000000000000000000000000000000000600052603260045260246000fd5b6020026020010151815260200183600181518110620001a9577f4e487b7100000000000000000000000000000000000000000000000000000000600052603260045260246000fd5b60200260200101518152602001600081526020018273ffffffffffffffffffffffffffffffffffffffff168152506000808201518160000155602082015181600101908051906020019062000200929190620003a7565b5060408201518160020190805190602001906200021f929190620003a7565b5060608201518160030190805190602001906200023e929190620003a7565b506080820151816004015560a0820151816005015560c0820151816006015560e08201518160070160006101000a81548173ffffffffffffffffffffffffffffffffffffffff021916908373ffffffffffffffffffffffffffffffffffffffff16021790555090505081600081518110620002e2577f4e487b7100000000000000000000000000000000000000000000000000000000600052603260045260246000fd5b60200260200101514210156200034a576001600860006101000a81548160ff021916908360028111156200033f577f4e487b7100000000000000000000000000000000000000000000000000000000600052602160045260246000fd5b02179055506200039d565b6000600860006101000a81548160ff0219169083600281111562000397577f4e487b7100000000000000000000000000000000000000000000000000000000600052602160045260246000fd5b02179055505b50505050620008ca565b828054620003b59062000802565b90600052602060002090601f016020900481019282620003d9576000855562000425565b82601f10620003f457805160ff191683800117855562000425565b8280016001018555821562000425579182015b828111156200042457825182559160200191906001019062000407565b5b50905062000434919062000438565b5090565b5b808211156200045357600081600090555060010162000439565b5090565b60006200046e6200046884620006fd565b620006c9565b9050808382526020820190508260005b85811015620004b25781518501620004978882620005e7565b8452602084019350602083019250506001810190506200047e565b5050509392505050565b6000620004d3620004cd846200072c565b620006c9565b90508083825260208201905082856020860282011115620004f357600080fd5b60005b858110156200052757816200050c888262000614565b845260208401935060208301925050600181019050620004f6565b5050509392505050565b60006200054862000542846200075b565b620006c9565b9050828152602081018484840111156200056157600080fd5b6200056e848285620007cc565b509392505050565b600081519050620005878162000896565b92915050565b600082601f8301126200059f57600080fd5b8151620005b184826020860162000457565b91505092915050565b600082601f830112620005cc57600080fd5b8151620005de848260208601620004bc565b91505092915050565b600082601f830112620005f957600080fd5b81516200060b84826020860162000531565b91505092915050565b6000815190506200062581620008b0565b92915050565b600080600080608085870312156200064257600080fd5b6000620006528782880162000614565b945050602085015167ffffffffffffffff8111156200067057600080fd5b6200067e878288016200058d565b935050604085015167ffffffffffffffff8111156200069c57600080fd5b620006aa87828801620005ba565b9250506060620006bd8782880162000576565b91505092959194509250565b6000604051905081810181811067ffffffffffffffff82111715620006f357620006f262000867565b5b8060405250919050565b600067ffffffffffffffff8211156200071b576200071a62000867565b5b602082029050602081019050919050565b600067ffffffffffffffff8211156200074a576200074962000867565b5b602082029050602081019050919050565b600067ffffffffffffffff82111562000779576200077862000867565b5b601f19601f8301169050602081019050919050565b60006200079b82620007a2565b9050919050565b600073ffffffffffffffffffffffffffffffffffffffff82169050919050565b6000819050919050565b60005b83811015620007ec578082015181840152602081019050620007cf565b83811115620007fc576000848401525b50505050565b600060028204905060018216806200081b57607f821691505b6020821081141562000832576200083162000838565b5b50919050565b7f4e487b7100000000000000000000000000000000000000000000000000000000600052602260045260246000fd5b7f4e487b7100000000000000000000000000000000000000000000000000000000600052604160045260246000fd5b620008a1816200078e565b8114620008ad57600080fd5b50565b620008bb81620007c2565b8114620008c757600080fd5b50565b6123e980620008da6000396000f3fe608060405234801561001057600080fd5b50600436106100a95760003560e01c80634e69d560116100715780634e69d5601461015557806359abbfe4146101735780636c74bf6d14610191578063a3ec138d146101b6578063ec39335f146101e6578063ed836bc314610204576100a9565b80630121b93f146100ae578063200d2ed2146100ca57806326541b56146100e85780632d35a8a2146101045780633477ee2e14610122575b600080fd5b6100c860048036038101906100c391906117ff565b610222565b005b6100d261054c565b6040516100df9190611e57565b60405180910390f35b61010260048036038101906100fd9190611793565b61055f565b005b61010c6106f5565b6040516101199190611f74565b60405180910390f35b61013c600480360381019061013791906117ff565b6106fb565b60405161014c9493929190612022565b60405180910390f35b61015d61084b565b60405161016a9190611e57565b60405180910390f35b61017b610880565b6040516101889190611e21565b60405180910390f35b610199610937565b6040516101ad989796959493929190611f8f565b60405180910390f35b6101d060048036038101906101cb919061176a565b610b25565b6040516101dd9190611e3c565b60405180910390f35b6101ee610b45565b6040516101fb9190611dff565b60405180910390f35b61020c611178565b6040516102199190611f52565b60405180910390f35b600a60003373ffffffffffffffffffffffffffffffffffffffff1673ffffffffffffffffffffffffffffffffffffffff16815260200190815260200160002060009054906101000a900460ff16156102af576040517f08c379a00000000000000000000000000000000000000000000000000000000081526004016102a690611f12565b60405180910390fd5b600b54811080156102c1575060008110155b610300576040517f08c379a00000000000000000000000000000000000000000000000000000000081526004016102f790611ef2565b60405180910390fd5b600280811115610339577f4e487b7100000000000000000000000000000000000000000000000000000000600052602160045260246000fd5b61034161084b565b6002811115610379577f4e487b7100000000000000000000000000000000000000000000000000000000600052602160045260246000fd5b14156103ba576040517f08c379a00000000000000000000000000000000000000000000000000000000081526004016103b190611eb2565b60405180910390fd5b600160028111156103f4577f4e487b7100000000000000000000000000000000000000000000000000000000600052602160045260246000fd5b6103fc61084b565b6002811115610434577f4e487b7100000000000000000000000000000000000000000000000000000000600052602160045260246000fd5b1415610475576040517f08c379a000000000000000000000000000000000000000000000000000000000815260040161046c90611f32565b60405180910390fd5b6001600a60003373ffffffffffffffffffffffffffffffffffffffff1673ffffffffffffffffffffffffffffffffffffffff16815260200190815260200160002060006101000a81548160ff02191690831515021790555060098181548110610507577f4e487b7100000000000000000000000000000000000000000000000000000000600052603260045260246000fd5b906000526020600020906004020160030160008154809291906105299061225b565b9190505550600060060160008154809291906105449061225b565b919050555050565b600860009054906101000a900460ff1681565b600060070160009054906101000a900473ffffffffffffffffffffffffffffffffffffffff1673ffffffffffffffffffffffffffffffffffffffff163373ffffffffffffffffffffffffffffffffffffffff16146105f2576040517f08c379a00000000000000000000000000000000000000000000000000000000081526004016105e990611ed2565b60405180910390fd5b60006005015442111561063a576040517f08c379a000000000000000000000000000000000000000000000000000000000815260040161063190611e72565b60405180910390fd5b60096040518060800160405280600b548152602001848152602001838152602001600081525090806001815401808255809150506001900390600052602060002090600402016000909190919091506000820151816000015560208201518160010190805190602001906106af929190611570565b5060408201518160020190805190602001906106cc929190611570565b50606082015181600301555050600b60008154809291906106ec9061225b565b91905055505050565b600b5481565b6009818154811061070b57600080fd5b906000526020600020906004020160009150905080600001549080600101805461073490612229565b80601f016020809104026020016040519081016040528092919081815260200182805461076090612229565b80156107ad5780601f10610782576101008083540402835291602001916107ad565b820191906000526020600020905b81548152906001019060200180831161079057829003601f168201915b5050505050908060020180546107c290612229565b80601f01602080910402602001604051908101604052809291908181526020018280546107ee90612229565b801561083b5780601f106108105761010080835404028352916020019161083b565b820191906000526020600020905b81548152906001019060200180831161081e57829003601f168201915b5050505050908060030154905084565b60008060040154421015610862576001905061087d565b600060050154421015610878576000905061087d565b600290505b90565b6108886115f6565b60006040518060400160405280600081526020016000815250905042816000600281106108de577f4e487b7100000000000000000000000000000000000000000000000000000000600052603260045260246000fd5b60200201818152505060006004015481600160028110610927577f4e487b7100000000000000000000000000000000000000000000000000000000600052603260045260246000fd5b6020020181815250508091505090565b600080600001549080600101805461094e90612229565b80601f016020809104026020016040519081016040528092919081815260200182805461097a90612229565b80156109c75780601f1061099c576101008083540402835291602001916109c7565b820191906000526020600020905b8154815290600101906020018083116109aa57829003601f168201915b5050505050908060020180546109dc90612229565b80601f0160208091040260200160405190810160405280929190818152602001828054610a0890612229565b8015610a555780601f10610a2a57610100808354040283529160200191610a55565b820191906000526020600020905b815481529060010190602001808311610a3857829003601f168201915b505050505090806003018054610a6a90612229565b80601f0160208091040260200160405190810160405280929190818152602001828054610a9690612229565b8015610ae35780601f10610ab857610100808354040283529160200191610ae3565b820191906000526020600020905b815481529060010190602001808311610ac657829003601f168201915b5050505050908060040154908060050154908060060154908060070160009054906101000a900473ffffffffffffffffffffffffffffffffffffffff16905088565b600a6020528060005260406000206000915054906101000a900460ff1681565b60606000600501544211610b8e576040517f08c379a0000000000000000000000000000000000000000000000000000000008152600401610b8590611e92565b60405180910390fd5b600060098054905067ffffffffffffffff811115610bd5577f4e487b7100000000000000000000000000000000000000000000000000000000600052604160045260246000fd5b604051908082528060200260200182016040528015610c0e57816020015b610bfb611618565b815260200190600190039081610bf35790505b50905060008060005b600b5481101561116e578260098281548110610c5c577f4e487b7100000000000000000000000000000000000000000000000000000000600052603260045260246000fd5b9060005260206000209060040201600301541115610f295760098181548110610cae577f4e487b7100000000000000000000000000000000000000000000000000000000600052603260045260246000fd5b906000526020600020906004020160030154925060098054905067ffffffffffffffff811115610d07577f4e487b7100000000000000000000000000000000000000000000000000000000600052604160045260246000fd5b604051908082528060200260200182016040528015610d4057816020015b610d2d611618565b815260200190600190039081610d255790505b5093506000915060098181548110610d81577f4e487b7100000000000000000000000000000000000000000000000000000000600052603260045260246000fd5b906000526020600020906004020160405180608001604052908160008201548152602001600182018054610db490612229565b80601f0160208091040260200160405190810160405280929190818152602001828054610de090612229565b8015610e2d5780601f10610e0257610100808354040283529160200191610e2d565b820191906000526020600020905b815481529060010190602001808311610e1057829003601f168201915b50505050508152602001600282018054610e4690612229565b80601f0160208091040260200160405190810160405280929190818152602001828054610e7290612229565b8015610ebf5780601f10610e9457610100808354040283529160200191610ebf565b820191906000526020600020905b815481529060010190602001808311610ea257829003601f168201915b50505050508152602001600382015481525050848381518110610f0b577f4e487b7100000000000000000000000000000000000000000000000000000000600052603260045260246000fd5b60200260200101819052508180610f219061225b565b92505061115b565b8260098281548110610f64577f4e487b7100000000000000000000000000000000000000000000000000000000600052603260045260246000fd5b906000526020600020906004020160030154141561115a5760098181548110610fb6577f4e487b7100000000000000000000000000000000000000000000000000000000600052603260045260246000fd5b906000526020600020906004020160405180608001604052908160008201548152602001600182018054610fe990612229565b80601f016020809104026020016040519081016040528092919081815260200182805461101590612229565b80156110625780601f1061103757610100808354040283529160200191611062565b820191906000526020600020905b81548152906001019060200180831161104557829003601f168201915b5050505050815260200160028201805461107b90612229565b80601f01602080910402602001604051908101604052809291908181526020018280546110a790612229565b80156110f45780601f106110c9576101008083540402835291602001916110f4565b820191906000526020600020905b8154815290600101906020018083116110d757829003601f168201915b50505050508152602001600382015481525050848381518110611140577f4e487b7100000000000000000000000000000000000000000000000000000000600052603260045260246000fd5b602002602001018190525081806111569061225b565b9250505b5b80806111669061225b565b915050610c17565b5082935050505090565b611180611640565b60006040518060400160405280600060405180610100016040529081600082015481526020016001820180546111b590612229565b80601f01602080910402602001604051908101604052809291908181526020018280546111e190612229565b801561122e5780601f106112035761010080835404028352916020019161122e565b820191906000526020600020905b81548152906001019060200180831161121157829003601f168201915b5050505050815260200160028201805461124790612229565b80601f016020809104026020016040519081016040528092919081815260200182805461127390612229565b80156112c05780601f10611295576101008083540402835291602001916112c0565b820191906000526020600020905b8154815290600101906020018083116112a357829003601f168201915b505050505081526020016003820180546112d990612229565b80601f016020809104026020016040519081016040528092919081815260200182805461130590612229565b80156113525780601f1061132757610100808354040283529160200191611352565b820191906000526020600020905b81548152906001019060200180831161133557829003601f168201915b505050505081526020016004820154815260200160058201548152602001600682015481526020016007820160009054906101000a900473ffffffffffffffffffffffffffffffffffffffff1673ffffffffffffffffffffffffffffffffffffffff1673ffffffffffffffffffffffffffffffffffffffff168152505081526020016009805480602002602001604051908101604052809291908181526020016000905b8282101561156057838290600052602060002090600402016040518060800160405290816000820154815260200160018201805461143390612229565b80601f016020809104026020016040519081016040528092919081815260200182805461145f90612229565b80156114ac5780601f10611481576101008083540402835291602001916114ac565b820191906000526020600020905b81548152906001019060200180831161148f57829003601f168201915b505050505081526020016002820180546114c590612229565b80601f01602080910402602001604051908101604052809291908181526020018280546114f190612229565b801561153e5780601f106115135761010080835404028352916020019161153e565b820191906000526020600020905b81548152906001019060200180831161152157829003601f168201915b50505050508152602001600382015481525050815260200190600101906113f6565b5050505081525090508091505090565b82805461157c90612229565b90600052602060002090601f01602090048101928261159e57600085556115e5565b82601f106115b757805160ff19168380011785556115e5565b828001600101855582156115e5579182015b828111156115e45782518255916020019190600101906115c9565b5b5090506115f29190611660565b5090565b6040518060400160405280600290602082028036833780820191505090505090565b6040518060800160405280600081526020016060815260200160608152602001600081525090565b604051806040016040528061165361167d565b8152602001606081525090565b5b80821115611679576000816000905550600101611661565b5090565b60405180610100016040528060008152602001606081526020016060815260200160608152602001600081526020016000815260200160008152602001600073ffffffffffffffffffffffffffffffffffffffff1681525090565b60006116eb6116e6846120a6565b612075565b90508281526020810184848401111561170357600080fd5b61170e8482856121e7565b509392505050565b60008135905061172581612385565b92915050565b600082601f83011261173c57600080fd5b813561174c8482602086016116d8565b91505092915050565b6000813590506117648161239c565b92915050565b60006020828403121561177c57600080fd5b600061178a84828501611716565b91505092915050565b600080604083850312156117a657600080fd5b600083013567ffffffffffffffff8111156117c057600080fd5b6117cc8582860161172b565b925050602083013567ffffffffffffffff8111156117e957600080fd5b6117f58582860161172b565b9150509250929050565b60006020828403121561181157600080fd5b600061181f84828501611755565b91505092915050565b60006118348383611c75565b905092915050565b60006118488383611de1565b60208301905092915050565b61185d8161217a565b82525050565b61186c8161217a565b82525050565b600061187d826120f0565b611887818561212b565b935083602082028501611899856120d6565b8060005b858110156118d557848403895281516118b68582611828565b94506118c183612111565b925060208a0199505060018101905061189d565b50829750879550505050505092915050565b60006118f2826120f0565b6118fc818561213c565b93508360208202850161190e856120d6565b8060005b8581101561194a578484038952815161192b8582611828565b945061193683612111565b925060208a01995050600181019050611912565b50829750879550505050505092915050565b611965816120fb565b61196f818461214d565b925061197a826120e6565b8060005b838110156119ab578151611992878261183c565b965061199d8361211e565b92505060018101905061197e565b505050505050565b6119bc8161218c565b82525050565b6119cb816121d5565b82525050565b60006119dc82612106565b6119e68185612158565b93506119f68185602086016121f6565b6119ff81612360565b840191505092915050565b6000611a1582612106565b611a1f8185612169565b9350611a2f8185602086016121f6565b611a3881612360565b840191505092915050565b6000611a50603883612169565b91507f43616e646964617465732063616e206f6e6c792062652061646465642062656660008301527f6f726520656c656374696f6e20686173207374617274656400000000000000006020830152604082019050919050565b6000611ab6603183612169565b91507f526573756c74732063616e206f6e6c79206265206465636c617265642061667460008301527f657220656c656374696f6e20656e64732e0000000000000000000000000000006020830152604082019050919050565b6000611b1c600f83612169565b91507f456c656374696f6e20636c6f73656400000000000000000000000000000000006000830152602082019050919050565b6000611b5c602183612169565b91507f4f6e6c79206f7267616e697365722063616e206164642063616e64696461746560008301527f73000000000000000000000000000000000000000000000000000000000000006020830152604082019050919050565b6000611bc2601a83612169565b91507f496e76616c69642063616e64696461746520746f20566f7465210000000000006000830152602082019050919050565b6000611c02601883612169565b91507f566f7465722068617320616c726561647920566f7465642100000000000000006000830152602082019050919050565b6000611c42601883612169565b91507f456c656374696f6e206e6f7420796574207374617274656400000000000000006000830152602082019050919050565b6000608083016000830151611c8d6000860182611de1565b5060208301518482036020860152611ca582826119d1565b91505060408301518482036040860152611cbf82826119d1565b9150506060830151611cd46060860182611de1565b508091505092915050565b60006040830160008301518482036000860152611cfc8282611d23565b91505060208301518482036020860152611d168282611872565b9150508091505092915050565b600061010083016000830151611d3c6000860182611de1565b5060208301518482036020860152611d5482826119d1565b91505060408301518482036040860152611d6e82826119d1565b91505060608301518482036060860152611d8882826119d1565b9150506080830151611d9d6080860182611de1565b5060a0830151611db060a0860182611de1565b5060c0830151611dc360c0860182611de1565b5060e0830151611dd660e0860182611854565b508091505092915050565b611dea816121cb565b82525050565b611df9816121cb565b82525050565b60006020820190508181036000830152611e1981846118e7565b905092915050565b6000604082019050611e36600083018461195c565b92915050565b6000602082019050611e5160008301846119b3565b92915050565b6000602082019050611e6c60008301846119c2565b92915050565b60006020820190508181036000830152611e8b81611a43565b9050919050565b60006020820190508181036000830152611eab81611aa9565b9050919050565b60006020820190508181036000830152611ecb81611b0f565b9050919050565b60006020820190508181036000830152611eeb81611b4f565b9050919050565b60006020820190508181036000830152611f0b81611bb5565b9050919050565b60006020820190508181036000830152611f2b81611bf5565b9050919050565b60006020820190508181036000830152611f4b81611c35565b9050919050565b60006020820190508181036000830152611f6c8184611cdf565b905092915050565b6000602082019050611f896000830184611df0565b92915050565b600061010082019050611fa5600083018b611df0565b8181036020830152611fb7818a611a0a565b90508181036040830152611fcb8189611a0a565b90508181036060830152611fdf8188611a0a565b9050611fee6080830187611df0565b611ffb60a0830186611df0565b61200860c0830185611df0565b61201560e0830184611863565b9998505050505050505050565b60006080820190506120376000830187611df0565b81810360208301526120498186611a0a565b9050818103604083015261205d8185611a0a565b905061206c6060830184611df0565b95945050505050565b6000604051905081810181811067ffffffffffffffff8211171561209c5761209b612331565b5b8060405250919050565b600067ffffffffffffffff8211156120c1576120c0612331565b5b601f19601f8301169050602081019050919050565b6000819050602082019050919050565b6000819050919050565b600081519050919050565b600060029050919050565b600081519050919050565b6000602082019050919050565b6000602082019050919050565b600082825260208201905092915050565b600082825260208201905092915050565b600081905092915050565b600082825260208201905092915050565b600082825260208201905092915050565b6000612185826121ab565b9050919050565b60008115159050919050565b60008190506121a682612371565b919050565b600073ffffffffffffffffffffffffffffffffffffffff82169050919050565b6000819050919050565b60006121e082612198565b9050919050565b82818337600083830152505050565b60005b838110156122145780820151818401526020810190506121f9565b83811115612223576000848401525b50505050565b6000600282049050600182168061224157607f821691505b6020821081141561225557612254612302565b5b50919050565b6000612266826121cb565b91507fffffffffffffffffffffffffffffffffffffffffffffffffffffffffffffffff821415612299576122986122a4565b5b600182019050919050565b7f4e487b7100000000000000000000000000000000000000000000000000000000600052601160045260246000fd5b7f4e487b7100000000000000000000000000000000000000000000000000000000600052602160045260246000fd5b7f4e487b7100000000000000000000000000000000000000000000000000000000600052602260045260246000fd5b7f4e487b7100000000000000000000000000000000000000000000000000000000600052604160045260246000fd5b6000601f19601f8301169050919050565b60038110612382576123816122d3565b5b50565b61238e8161217a565b811461239957600080fd5b50565b6123a5816121cb565b81146123b057600080fd5b5056fea2646970667358221220e502ef771c3ac5eb8728f034ee9bddd2b11e5a6530830b06f05dd2da515c0d3f64736f6c63430008000033",
  "immutableReferences": {},
  "source": "// SPDX-License-Identifier: UNLICENSED\r\npragma solidity >=0.8.0;\r\n\r\ncontract Election {\r\n    // Election details\r\n    struct ElectionInfo {\r\n        uint id;\r\n        string name;\r\n        string description;\r\n        string algorithm;\r\n        uint sdate;\r\n        uint edate;\r\n        uint voterCount;\r\n        address electionOrganiser;\r\n    }\r\n\r\n    ElectionInfo public electionInfo;\r\n\r\n    // Enum for election status\r\n    enum Status {active, pending, closed}\r\n    Status public status;\r\n\r\n    // Structure to store candidate details and vote count\r\n    struct Candidate {\r\n        uint id;\r\n        string name;\r\n        string about;\r\n        uint voteCount;\r\n    }\r\n\r\n    struct ElectionDetail {\r\n        ElectionInfo info;\r\n        Candidate[] candidate;\r\n    }\r\n\r\n    // Mapping for candidates and voters\r\n    Candidate[] public candidates;\r\n    mapping(address => bool) public voters;\r\n\r\n    // To keep account of candidate id\r\n    uint public candidatesCount = 0;\r\n\r\n    // Iniitializing election contract\r\n    constructor (uint _id, string[] memory _nda, uint[] memory _se, address _electionOrganiser) {\r\n        electionInfo = ElectionInfo(_id, _nda[0], _nda[1], _nda[2], _se[0], _se[1], 0, _electionOrganiser);\r\n        if(block.timestamp < _se[0]) {\r\n            status = Status.pending;\r\n        } else {\r\n            status = Status.active;\r\n        }\r\n    }\r\n\r\n    function getTimestamps() public view returns (uint[2] memory) {\r\n        uint[2] memory result = [uint256(0), uint256(0)];\r\n        result[0] = block.timestamp;\r\n        result[1] = electionInfo.sdate;\r\n        return result;\r\n    }\r\n\r\n    // To get status of election\r\n    function getStatus() public view returns (Status) {\r\n        if(block.timestamp < electionInfo.sdate) {\r\n            return Status.pending;\r\n        } else if(block.timestamp < electionInfo.edate) {\r\n            return Status.active;\r\n        } else {\r\n            return Status.closed;\r\n        }\r\n    }\r\n\r\n    // Adding candidates before election started (only by organiser)\r\n    function addCandidate(string memory _name, string memory _about) public {\r\n        require(msg.sender == electionInfo.electionOrganiser, \"Only organiser can add candidates\");\r\n        require(block.timestamp <= electionInfo.edate, \"Candidates can only be added before election has started\");\r\n        candidates.push(Candidate(candidatesCount, _name, _about, 0));\r\n        candidatesCount++;\r\n    }\r\n\r\n    // Casting votes (only when election is active)\r\n    function vote(uint _candidate) public {\r\n        require(!voters[msg.sender], \"Voter has already Voted!\");\r\n        require(_candidate < candidatesCount && _candidate >= 0, \"Invalid candidate to Vote!\");\r\n        require(getStatus() != Status.closed, \"Election closed\");\r\n        require(getStatus() != Status.pending, \"Election not yet started\");\r\n        voters[msg.sender] = true;\r\n        candidates[_candidate].voteCount++;\r\n        electionInfo.voterCount++;\r\n    }\r\n\r\n    // Get winner details\r\n    function getWinnerDetails() public view returns (Candidate[] memory) {\r\n        require(block.timestamp > electionInfo.edate, \"Results can only be declared after election ends.\");\r\n        Candidate[] memory winnerDetails = new Candidate[](candidates.length);\r\n        uint maxVote = 0;\r\n        uint winnerCount = 0;\r\n        for(uint i = 0; i < candidatesCount; i++) {\r\n            if(candidates[i].voteCount > maxVote) {\r\n                // Remove existing winners if new max vote is found\r\n                maxVote = candidates[i].voteCount;\r\n                winnerDetails = new Candidate[](candidates.length);\r\n                winnerCount = 0;\r\n                winnerDetails[winnerCount] = candidates[i];\r\n                winnerCount++;\r\n            } else if(candidates[i].voteCount == maxVote) {\r\n                // Push to existing winner array if same max vote is found\r\n                winnerDetails[winnerCount] = candidates[i];\r\n                winnerCount++;\r\n            }\r\n        }\r\n        return winnerDetails;\r\n    }\r\n\r\n    function getElectionDetails() public view returns (ElectionDetail memory) {\r\n        ElectionDetail memory electionDetail = ElectionDetail(electionInfo, candidates);\r\n        return electionDetail; \r\n    }\r\n}",
  "sourcePath": "C:\\Users\\Kailash\\Desktop\\AOSSIE\\agora-blockchain\\server\\contracts\\Election.sol",
  "compiler": {
    "name": "solc",
    "version": "0.8.0+commit.c7dfd78e.Emscripten.clang"
  },
  "schemaVersion": "3.4.3",
  "updatedAt": "2021-12-21T22:36:47.701Z",
  "devdoc": {
    "kind": "dev",
    "methods": {},
    "version": 1
  },
  "userdoc": {
    "kind": "user",
    "methods": {},
    "version": 1
  }
}