{
  "contractName": "GeneralBallot",
  "abi": [
    {
      "inputs": [
        {
          "internalType": "uint256",
          "name": "_candidate",
          "type": "uint256"
        }
      ],
      "name": "addCandidate",
      "outputs": [],
      "stateMutability": "nonpayable",
      "type": "function"
    },
    {
      "inputs": [],
      "name": "getCandidates",
      "outputs": [
        {
          "internalType": "uint256[]",
          "name": "",
          "type": "uint256[]"
        }
      ],
      "stateMutability": "view",
      "type": "function"
    },
    {
      "inputs": [
        {
          "internalType": "address",
          "name": "_voter",
          "type": "address"
        }
      ],
      "name": "getVoteStatus",
      "outputs": [
        {
          "internalType": "bool",
          "name": "",
          "type": "bool"
        }
      ],
      "stateMutability": "view",
      "type": "function"
    },
    {
      "inputs": [
        {
          "internalType": "uint256",
          "name": "",
          "type": "uint256"
        }
      ],
      "name": "votes",
      "outputs": [
        {
          "internalType": "uint256",
          "name": "",
          "type": "uint256"
        }
      ],
      "stateMutability": "view",
      "type": "function"
    },
    {
      "inputs": [
        {
          "internalType": "address",
          "name": "_voter",
          "type": "address"
        },
        {
          "internalType": "uint256",
          "name": "_candidate",
          "type": "uint256"
        },
        {
          "internalType": "uint256",
          "name": "_weight",
          "type": "uint256"
        }
      ],
      "name": "vote",
      "outputs": [],
      "stateMutability": "nonpayable",
      "type": "function"
    },
    {
      "inputs": [
        {
          "internalType": "uint256",
          "name": "_candidate",
          "type": "uint256"
        },
        {
          "internalType": "uint256",
          "name": "_weight",
          "type": "uint256"
        }
      ],
      "name": "getVoteCount",
      "outputs": [
        {
          "internalType": "uint256",
          "name": "",
          "type": "uint256"
        }
      ],
      "stateMutability": "view",
      "type": "function"
    }
  ],
  "bytecode": "0x608060405234801561001057600080fd5b50610658806100206000396000f3fe608060405234801561001057600080fd5b50600436106100625760003560e01c806306a49fce146100675780632a4a1b7314610085578063521b0dcc146100a15780635df81330146100d1578063de2e19a014610101578063e844d09714610131575b600080fd5b61006f61014d565b60405161007c9190610496565b60405180910390f35b61009f600480360381019061009a919061033f565b6101a5565b005b6100bb60048036038101906100b69190610316565b610230565b6040516100c891906104b8565b60405180910390f35b6100eb60048036038101906100e6919061038e565b610286565b6040516100f891906104d3565b60405180910390f35b61011b600480360381019061011691906103b7565b61029e565b60405161012891906104d3565b60405180910390f35b61014b6004803603810190610146919061038e565b6102c0565b005b6060600080548060200260200160405190810160405280929190818152602001828054801561019b57602002820191906000526020600020905b815481526020019060010190808311610187575b5050505050905090565b6001905060016002600084815260200190815260200160002060008282546101cd9190610527565b9250508190555060018060008573ffffffffffffffffffffffffffffffffffffffff1673ffffffffffffffffffffffffffffffffffffffff16815260200190815260200160002060006101000a81548160ff021916908315150217905550505050565b6000600160008373ffffffffffffffffffffffffffffffffffffffff1673ffffffffffffffffffffffffffffffffffffffff16815260200190815260200160002060009054906101000a900460ff169050919050565b60026020528060005260406000206000915090505481565b6000600191506002600084815260200190815260200160002054905092915050565b600081908060018154018082558091505060019003906000526020600020016000909190919091505550565b6000813590506102fb816105f4565b92915050565b6000813590506103108161060b565b92915050565b60006020828403121561032857600080fd5b6000610336848285016102ec565b91505092915050565b60008060006060848603121561035457600080fd5b6000610362868287016102ec565b935050602061037386828701610301565b925050604061038486828701610301565b9150509250925092565b6000602082840312156103a057600080fd5b60006103ae84828501610301565b91505092915050565b600080604083850312156103ca57600080fd5b60006103d885828601610301565b92505060206103e985828601610301565b9150509250929050565b60006103ff8383610478565b60208301905092915050565b6000610416826104fe565b6104208185610516565b935061042b836104ee565b8060005b8381101561045c57815161044388826103f3565b975061044e83610509565b92505060018101905061042f565b5085935050505092915050565b6104728161058f565b82525050565b610481816105bb565b82525050565b610490816105bb565b82525050565b600060208201905081810360008301526104b0818461040b565b905092915050565b60006020820190506104cd6000830184610469565b92915050565b60006020820190506104e86000830184610487565b92915050565b6000819050602082019050919050565b600081519050919050565b6000602082019050919050565b600082825260208201905092915050565b6000610532826105bb565b915061053d836105bb565b9250827fffffffffffffffffffffffffffffffffffffffffffffffffffffffffffffffff03821115610572576105716105c5565b5b828201905092915050565b60006105888261059b565b9050919050565b60008115159050919050565b600073ffffffffffffffffffffffffffffffffffffffff82169050919050565b6000819050919050565b7f4e487b7100000000000000000000000000000000000000000000000000000000600052601160045260246000fd5b6105fd8161057d565b811461060857600080fd5b50565b610614816105bb565b811461061f57600080fd5b5056fea2646970667358221220b3450ce1e390b91fb768ca8f5f7f7101b527158a3cbd81bad3d3221dea6b1fbf64736f6c63430008000033",
  "immutableReferences": {},
  "source": "// SPDX-License-Identifier: UNLICENSED\npragma solidity >=0.8.0;\nimport './Ballot.sol';\nimport '../Election.sol';\n\ncontract GeneralBallot is Ballot {\n\n    // candidateID => vote count\n    mapping(uint=>uint) public votes;\n\n    function vote(address _voter, uint _candidate, uint _weight)public override{\n        _weight = 1;\n        votes[_candidate]+=1;\n        voteStatus[_voter] = true;\n    }    \n\n    function getVoteCount(uint _candidate, uint _weight)public override view returns(uint){\n        _weight = 1; \n        return votes[_candidate];\n    }\n    \n}",
  "sourcePath": "/Users/rajranjan/gitProjects/agora-blockchain/server/contracts/ballot/GeneralBallot.sol",
  "compiler": {
    "name": "solc",
    "version": "0.8.0+commit.c7dfd78e.Emscripten.clang"
  },
  "schemaVersion": "3.4.5",
  "updatedAt": "2022-08-22T18:37:34.026Z",
  "devdoc": {
    "kind": "dev",
    "methods": {},
    "version": 1
  },
  "userdoc": {
    "kind": "user",
    "methods": {},
    "version": 1
  }
}