{
  "contractName": "MainContract",
  "abi": [
    {
      "anonymous": false,
      "inputs": [
        {
          "components": [
            {
              "internalType": "address",
              "name": "publicAddress",
              "type": "address"
            },
            {
              "internalType": "address",
              "name": "contractAddress",
              "type": "address"
            }
          ],
          "indexed": false,
          "internalType": "struct MainContract.UserAuth",
          "name": "user",
          "type": "tuple"
        }
      ],
      "name": "userCreated",
      "type": "event"
    },
    {
      "inputs": [
        {
          "internalType": "uint256",
          "name": "",
          "type": "uint256"
        }
      ],
      "name": "Users",
      "outputs": [
        {
          "internalType": "address",
          "name": "publicAddress",
          "type": "address"
        },
        {
          "internalType": "address",
          "name": "contractAddress",
          "type": "address"
        }
      ],
      "stateMutability": "view",
      "type": "function",
      "constant": true
    },
    {
      "inputs": [],
      "name": "userId",
      "outputs": [
        {
          "internalType": "uint256",
          "name": "",
          "type": "uint256"
        }
      ],
      "stateMutability": "view",
      "type": "function",
      "constant": true
    },
    {
      "inputs": [
        {
          "internalType": "address",
          "name": "_publicAddress",
          "type": "address"
        }
      ],
      "name": "isRegistered",
      "outputs": [
        {
          "internalType": "uint256[2]",
          "name": "",
          "type": "uint256[2]"
        }
      ],
      "stateMutability": "view",
      "type": "function",
      "constant": true
    },
    {
      "inputs": [
        {
          "internalType": "string",
          "name": "name",
          "type": "string"
        }
      ],
      "name": "createUser",
      "outputs": [],
      "stateMutability": "nonpayable",
      "type": "function"
    }
  ],
  "bytecode": "0x60806040526000805534801561001457600080fd5b50615003806100246000396000f3fe60806040523480156200001157600080fd5b5060043610620000525760003560e01c80631e98fd1c1462000057578063507ffba5146200008e5780635897591914620000ae578063c3c5a54714620000d0575b600080fd5b6200007560048036038101906200006f919062000626565b62000106565b60405162000085929190620007e5565b60405180910390f35b620000ac6004803603810190620000a69190620005e1565b6200016a565b005b620000b86200038a565b604051620000c791906200086e565b60405180910390f35b620000ee6004803603810190620000e89190620005b5565b62000390565b604051620000fd919062000812565b60405180910390f35b60016020528060005260406000206000915090508060000160009054906101000a900473ffffffffffffffffffffffffffffffffffffffff16908060010160009054906101000a900473ffffffffffffffffffffffffffffffffffffffff16905082565b6000620001773362000390565b600060028110620001b1577f4e487b7100000000000000000000000000000000000000000000000000000000600052603260045260246000fd5b602002015114620001f9576040517f08c379a0000000000000000000000000000000000000000000000000000000008152600401620001f0906200082f565b60405180910390fd5b6000805482336040516200020d90620004e5565b6200021b939291906200088b565b604051809103906000f08015801562000238573d6000803e3d6000fd5b50905060405180604001604052803373ffffffffffffffffffffffffffffffffffffffff1681526020018273ffffffffffffffffffffffffffffffffffffffff16815250600160008054815260200190815260200160002060008201518160000160006101000a81548173ffffffffffffffffffffffffffffffffffffffff021916908373ffffffffffffffffffffffffffffffffffffffff16021790555060208201518160010160006101000a81548173ffffffffffffffffffffffffffffffffffffffff021916908373ffffffffffffffffffffffffffffffffffffffff1602179055509050507fcf745f4391eeae7befc523d065754bfa7205cddc7cb1d00e1b7c583196be4626600160008054815260200190815260200160002060405162000365919062000851565b60405180910390a1600080815480929190620003819062000a40565b91905055505050565b60005481565b6200039a620004f3565b60006040518060400160405280600081526020016000815250905060005b600054811015620004da576001600082815260200190815260200160002060000160009054906101000a900473ffffffffffffffffffffffffffffffffffffffff1673ffffffffffffffffffffffffffffffffffffffff168473ffffffffffffffffffffffffffffffffffffffff161415620004c4576001826000600281106200046b577f4e487b7100000000000000000000000000000000000000000000000000000000600052603260045260246000fd5b6020020181815250508082600160028110620004b0577f4e487b7100000000000000000000000000000000000000000000000000000000600052603260045260246000fd5b6020020181815250508192505050620004e0565b8080620004d19062000a40565b915050620003b8565b50809150505b919050565b61448f8062000b3f83390190565b6040518060400160405280600290602082028036833780820191505090505090565b60006200052c620005268462000903565b620008cf565b9050828152602081018484840111156200054557600080fd5b62000552848285620009dd565b509392505050565b6000813590506200056b8162000b0a565b92915050565b600082601f8301126200058357600080fd5b81356200059584826020860162000515565b91505092915050565b600081359050620005af8162000b24565b92915050565b600060208284031215620005c857600080fd5b6000620005d8848285016200055a565b91505092915050565b600060208284031215620005f457600080fd5b600082013567ffffffffffffffff8111156200060f57600080fd5b6200061d8482850162000571565b91505092915050565b6000602082840312156200063957600080fd5b600062000649848285016200059e565b91505092915050565b6000620006608383620007c3565b60208301905092915050565b62000677816200099f565b82525050565b62000688816200099f565b82525050565b620006998162000940565b620006a5818462000963565b9250620006b28262000936565b8060005b83811015620006e9578151620006cd878262000652565b9650620006da8362000956565b925050600181019050620006b6565b505050505050565b6000620006fe826200094b565b6200070a81856200096e565b93506200071c818560208601620009ec565b620007278162000aec565b840191505092915050565b6000620007416018836200096e565b91507f5573657220616c726561647920726567697374657265642100000000000000006000830152602082019050919050565b6040820160008083015490506200078b8162000a22565b6200079a60008601826200066c565b5060018301549050620007ad8162000a22565b620007bc60208601826200066c565b5050505050565b620007ce81620009d3565b82525050565b620007df81620009d3565b82525050565b6000604082019050620007fc60008301856200067d565b6200080b60208301846200067d565b9392505050565b60006040820190506200082960008301846200068e565b92915050565b600060208201905081810360008301526200084a8162000732565b9050919050565b600060408201905062000868600083018462000774565b92915050565b6000602082019050620008856000830184620007d4565b92915050565b6000606082019050620008a26000830186620007d4565b8181036020830152620008b68185620006f1565b9050620008c760408301846200067d565b949350505050565b6000604051905081810181811067ffffffffffffffff82111715620008f957620008f862000abd565b5b8060405250919050565b600067ffffffffffffffff82111562000921576200092062000abd565b5b601f19601f8301169050602081019050919050565b6000819050919050565b600060029050919050565b600081519050919050565b6000602082019050919050565b600081905092915050565b600082825260208201905092915050565b600073ffffffffffffffffffffffffffffffffffffffff82169050919050565b6000620009ac82620009b3565b9050919050565b600073ffffffffffffffffffffffffffffffffffffffff82169050919050565b6000819050919050565b82818337600083830152505050565b60005b8381101562000a0c578082015181840152602081019050620009ef565b8381111562000a1c576000848401525b50505050565b600062000a3962000a338362000afd565b6200097f565b9050919050565b600062000a4d82620009d3565b91507fffffffffffffffffffffffffffffffffffffffffffffffffffffffffffffffff82141562000a835762000a8262000a8e565b5b600182019050919050565b7f4e487b7100000000000000000000000000000000000000000000000000000000600052601160045260246000fd5b7f4e487b7100000000000000000000000000000000000000000000000000000000600052604160045260246000fd5b6000601f19601f8301169050919050565b60008160001c9050919050565b62000b15816200099f565b811462000b2157600080fd5b50565b62000b2f81620009d3565b811462000b3b57600080fd5b5056fe608060405260006003553480156200001657600080fd5b506040516200448f3803806200448f83398181016040528101906200003c91906200023a565b60405180606001604052808481526020018381526020018273ffffffffffffffffffffffffffffffffffffffff168152506000808201518160000155602082015181600101908051906020019062000096929190620000ea565b5060408201518160020160006101000a81548173ffffffffffffffffffffffffffffffffffffffff021916908373ffffffffffffffffffffffffffffffffffffffff1602179055509050505050506200044c565b828054620000f89062000384565b90600052602060002090601f0160209004810192826200011c576000855562000168565b82601f106200013757805160ff191683800117855562000168565b8280016001018555821562000168579182015b82811115620001675782518255916020019190600101906200014a565b5b5090506200017791906200017b565b5090565b5b80821115620001965760008160009055506001016200017c565b5090565b6000620001b1620001ab84620002dd565b620002a9565b905082815260208101848484011115620001ca57600080fd5b620001d78482856200034e565b509392505050565b600081519050620001f08162000418565b92915050565b600082601f8301126200020857600080fd5b81516200021a8482602086016200019a565b91505092915050565b600081519050620002348162000432565b92915050565b6000806000606084860312156200025057600080fd5b6000620002608682870162000223565b935050602084015167ffffffffffffffff8111156200027e57600080fd5b6200028c86828701620001f6565b92505060406200029f86828701620001df565b9150509250925092565b6000604051905081810181811067ffffffffffffffff82111715620002d357620002d2620003e9565b5b8060405250919050565b600067ffffffffffffffff821115620002fb57620002fa620003e9565b5b601f19601f8301169050602081019050919050565b60006200031d8262000324565b9050919050565b600073ffffffffffffffffffffffffffffffffffffffff82169050919050565b6000819050919050565b60005b838110156200036e57808201518184015260208101905062000351565b838111156200037e576000848401525b50505050565b600060028204905060018216806200039d57607f821691505b60208210811415620003b457620003b3620003ba565b5b50919050565b7f4e487b7100000000000000000000000000000000000000000000000000000000600052602260045260246000fd5b7f4e487b7100000000000000000000000000000000000000000000000000000000600052604160045260246000fd5b620004238162000310565b81146200042f57600080fd5b50565b6200043d8162000344565b81146200044957600080fd5b50565b614033806200045c6000396000f3fe60806040523480156200001157600080fd5b50600436106200006a5760003560e01c8063051364d4146200006f5780631e9598e2146200009157806336bd6e6914620000c7578063370158ea14620000e7578063372d6b27146200010b5780635a9b0b89146200012d575b600080fd5b620000796200014f565b60405162000088919062000eed565b60405180910390f35b620000af6004803603810190620000a9919062000b9b565b62000155565b604051620000be919062000e66565b60405180910390f35b620000e56004803603810190620000df919062000afc565b62000188565b005b620000f162000344565b604051620001029392919062000f65565b60405180910390f35b620001156200040c565b60405162000124919062000e83565b60405180910390f35b62000137620007cd565b60405162000146919062000ec9565b60405180910390f35b60035481565b60046020528060005260406000206000915054906101000a900473ffffffffffffffffffffffffffffffffffffffff1681565b600060020160009054906101000a900473ffffffffffffffffffffffffffffffffffffffff1673ffffffffffffffffffffffffffffffffffffffff163373ffffffffffffffffffffffffffffffffffffffff16146200021e576040517f08c379a0000000000000000000000000000000000000000000000000000000008152600401620002159062000ea7565b60405180910390fd5b60006003548383336040516200023490620008e3565b62000243949392919062000f0a565b604051809103906000f08015801562000260573d6000803e3d6000fd5b5090508060046000600354815260200190815260200160002060006101000a81548173ffffffffffffffffffffffffffffffffffffffff021916908373ffffffffffffffffffffffffffffffffffffffff1602179055507fe9b71bf7b5d1081a430668b09908d2cf4ff6a2abec613a9d70d9829bcf40ccfc60046000600354815260200190815260200160002060009054906101000a900473ffffffffffffffffffffffffffffffffffffffff166040516200031d919062000e66565b60405180910390a1600360008154809291906200033a9062001223565b9190505550505050565b60008060000154908060010180546200035d90620011ed565b80601f01602080910402602001604051908101604052809291908181526020018280546200038b90620011ed565b8015620003dc5780601f10620003b057610100808354040283529160200191620003dc565b820191906000526020600020905b815481529060010190602001808311620003be57829003601f168201915b5050505050908060020160009054906101000a900473ffffffffffffffffffffffffffffffffffffffff16905083565b60606000600467ffffffffffffffff81111562000452577f4e487b7100000000000000000000000000000000000000000000000000000000600052604160045260246000fd5b604051908082528060200260200182016040528015620004815781602001602082028036833780820191505090505b50905060035481600081518110620004c2577f4e487b7100000000000000000000000000000000000000000000000000000000600052603260045260246000fd5b60200260200101818152505060005b600354811015620007c55760006004600083815260200190815260200160002060009054906101000a900473ffffffffffffffffffffffffffffffffffffffff16905060008173ffffffffffffffffffffffffffffffffffffffff16634e69d5606040518163ffffffff1660e01b815260040160206040518083038186803b1580156200055d57600080fd5b505afa15801562000572573d6000803e3d6000fd5b505050506040513d601f19601f8201168201806040525081019062000598919062000b6f565b905060006002811115620005d5577f4e487b7100000000000000000000000000000000000000000000000000000000600052602160045260246000fd5b8160028111156200060f577f4e487b7100000000000000000000000000000000000000000000000000000000600052602160045260246000fd5b1415620006765760018460018151811062000653577f4e487b7100000000000000000000000000000000000000000000000000000000600052603260045260246000fd5b602002602001018181516200066991906200110d565b91508181525050620007ad565b600280811115620006b0577f4e487b7100000000000000000000000000000000000000000000000000000000600052602160045260246000fd5b816002811115620006ea577f4e487b7100000000000000000000000000000000000000000000000000000000600052602160045260246000fd5b141562000751576001846002815181106200072e577f4e487b7100000000000000000000000000000000000000000000000000000000600052603260045260246000fd5b602002602001018181516200074491906200110d565b91508181525050620007ac565b6001846003815181106200078e577f4e487b7100000000000000000000000000000000000000000000000000000000600052603260045260246000fd5b60200260200101818151620007a491906200110d565b915081815250505b5b50508080620007bc9062001223565b915050620004d1565b508091505090565b620007d7620008f1565b6000604051806060016040529081600082015481526020016001820180546200080090620011ed565b80601f01602080910402602001604051908101604052809291908181526020018280546200082e90620011ed565b80156200087f5780601f1062000853576101008083540402835291602001916200087f565b820191906000526020600020905b8154815290600101906020018083116200086157829003601f168201915b505050505081526020016002820160009054906101000a900473ffffffffffffffffffffffffffffffffffffffff1673ffffffffffffffffffffffffffffffffffffffff1673ffffffffffffffffffffffffffffffffffffffff1681525050905090565b612cc3806200133b83390190565b60405180606001604052806000815260200160608152602001600073ffffffffffffffffffffffffffffffffffffffff1681525090565b60006200093f620009398462000fdd565b62000fa9565b9050808382526020820190508260005b8581101562000983578135850162000968888262000ab8565b8452602084019350602083019250506001810190506200094f565b5050509392505050565b6000620009a46200099e846200100c565b62000fa9565b90508083825260208201905082856020860282011115620009c457600080fd5b60005b85811015620009f85781620009dd888262000ae5565b845260208401935060208301925050600181019050620009c7565b5050509392505050565b600062000a1962000a13846200103b565b62000fa9565b90508281526020810184848401111562000a3257600080fd5b62000a3f848285620011a8565b509392505050565b600082601f83011262000a5957600080fd5b813562000a6b84826020860162000928565b91505092915050565b600082601f83011262000a8657600080fd5b813562000a988482602086016200098d565b91505092915050565b60008151905062000ab2816200130f565b92915050565b600082601f83011262000aca57600080fd5b813562000adc84826020860162000a02565b91505092915050565b60008135905062000af68162001320565b92915050565b6000806040838503121562000b1057600080fd5b600083013567ffffffffffffffff81111562000b2b57600080fd5b62000b398582860162000a47565b925050602083013567ffffffffffffffff81111562000b5757600080fd5b62000b658582860162000a74565b9150509250929050565b60006020828403121562000b8257600080fd5b600062000b928482850162000aa1565b91505092915050565b60006020828403121562000bae57600080fd5b600062000bbe8482850162000ae5565b91505092915050565b600062000bd5838362000d04565b905092915050565b600062000beb838362000e44565b60208301905092915050565b62000c02816200116a565b82525050565b62000c13816200116a565b82525050565b600062000c26826200108e565b62000c328185620010c9565b93508360208202850162000c46856200106e565b8060005b8581101562000c88578484038952815162000c66858262000bc7565b945062000c7383620010af565b925060208a0199505060018101905062000c4a565b50829750879550505050505092915050565b600062000ca78262001099565b62000cb38185620010da565b935062000cc0836200107e565b8060005b8381101562000cf757815162000cdb888262000bdd565b975062000ce883620010bc565b92505060018101905062000cc4565b5085935050505092915050565b600062000d1182620010a4565b62000d1d8185620010eb565b935062000d2f818560208601620011b7565b62000d3a81620012fe565b840191505092915050565b600062000d5282620010a4565b62000d5e8185620010fc565b935062000d70818560208601620011b7565b62000d7b81620012fe565b840191505092915050565b600062000d95602c83620010fc565b91507f43616e27742063726561746520656c656374696f6e207573696e67206f74686560008301527f72277320636f6e747261637400000000000000000000000000000000000000006020830152604082019050919050565b600060608301600083015162000e08600086018262000e44565b506020830151848203602086015262000e22828262000d04565b915050604083015162000e39604086018262000bf7565b508091505092915050565b62000e4f816200119e565b82525050565b62000e60816200119e565b82525050565b600060208201905062000e7d600083018462000c08565b92915050565b6000602082019050818103600083015262000e9f818462000c9a565b905092915050565b6000602082019050818103600083015262000ec28162000d86565b9050919050565b6000602082019050818103600083015262000ee5818462000dee565b905092915050565b600060208201905062000f04600083018462000e55565b92915050565b600060808201905062000f21600083018762000e55565b818103602083015262000f35818662000c19565b9050818103604083015262000f4b818562000c9a565b905062000f5c606083018462000c08565b95945050505050565b600060608201905062000f7c600083018662000e55565b818103602083015262000f90818562000d45565b905062000fa1604083018462000c08565b949350505050565b6000604051905081810181811067ffffffffffffffff8211171562000fd35762000fd2620012cf565b5b8060405250919050565b600067ffffffffffffffff82111562000ffb5762000ffa620012cf565b5b602082029050602081019050919050565b600067ffffffffffffffff8211156200102a5762001029620012cf565b5b602082029050602081019050919050565b600067ffffffffffffffff821115620010595762001058620012cf565b5b601f19601f8301169050602081019050919050565b6000819050602082019050919050565b6000819050602082019050919050565b600081519050919050565b600081519050919050565b600081519050919050565b6000602082019050919050565b6000602082019050919050565b600082825260208201905092915050565b600082825260208201905092915050565b600082825260208201905092915050565b600082825260208201905092915050565b60006200111a826200119e565b915062001127836200119e565b9250827fffffffffffffffffffffffffffffffffffffffffffffffffffffffffffffffff038211156200115f576200115e62001271565b5b828201905092915050565b600062001177826200117e565b9050919050565b600073ffffffffffffffffffffffffffffffffffffffff82169050919050565b6000819050919050565b82818337600083830152505050565b60005b83811015620011d7578082015181840152602081019050620011ba565b83811115620011e7576000848401525b50505050565b600060028204905060018216806200120657607f821691505b602082108114156200121d576200121c620012a0565b5b50919050565b600062001230826200119e565b91507fffffffffffffffffffffffffffffffffffffffffffffffffffffffffffffffff82141562001266576200126562001271565b5b600182019050919050565b7f4e487b7100000000000000000000000000000000000000000000000000000000600052601160045260246000fd5b7f4e487b7100000000000000000000000000000000000000000000000000000000600052602260045260246000fd5b7f4e487b7100000000000000000000000000000000000000000000000000000000600052604160045260246000fd5b6000601f19601f8301169050919050565b600381106200131d57600080fd5b50565b6200132b816200119e565b81146200133757600080fd5b5056fe60806040526000600b553480156200001657600080fd5b5060405162002cc338038062002cc383398181016040528101906200003c91906200062b565b6040518061010001604052808581526020018460008151811062000089577f4e487b7100000000000000000000000000000000000000000000000000000000600052603260045260246000fd5b6020026020010151815260200184600181518110620000d1577f4e487b7100000000000000000000000000000000000000000000000000000000600052603260045260246000fd5b602002602001015181526020018460028151811062000119577f4e487b7100000000000000000000000000000000000000000000000000000000600052603260045260246000fd5b602002602001015181526020018360008151811062000161577f4e487b7100000000000000000000000000000000000000000000000000000000600052603260045260246000fd5b6020026020010151815260200183600181518110620001a9577f4e487b7100000000000000000000000000000000000000000000000000000000600052603260045260246000fd5b60200260200101518152602001600081526020018273ffffffffffffffffffffffffffffffffffffffff168152506000808201518160000155602082015181600101908051906020019062000200929190620003a7565b5060408201518160020190805190602001906200021f929190620003a7565b5060608201518160030190805190602001906200023e929190620003a7565b506080820151816004015560a0820151816005015560c0820151816006015560e08201518160070160006101000a81548173ffffffffffffffffffffffffffffffffffffffff021916908373ffffffffffffffffffffffffffffffffffffffff16021790555090505081600081518110620002e2577f4e487b7100000000000000000000000000000000000000000000000000000000600052603260045260246000fd5b60200260200101514210156200034a576001600860006101000a81548160ff021916908360028111156200033f577f4e487b7100000000000000000000000000000000000000000000000000000000600052602160045260246000fd5b02179055506200039d565b6000600860006101000a81548160ff0219169083600281111562000397577f4e487b7100000000000000000000000000000000000000000000000000000000600052602160045260246000fd5b02179055505b50505050620008ca565b828054620003b59062000802565b90600052602060002090601f016020900481019282620003d9576000855562000425565b82601f10620003f457805160ff191683800117855562000425565b8280016001018555821562000425579182015b828111156200042457825182559160200191906001019062000407565b5b50905062000434919062000438565b5090565b5b808211156200045357600081600090555060010162000439565b5090565b60006200046e6200046884620006fd565b620006c9565b9050808382526020820190508260005b85811015620004b25781518501620004978882620005e7565b8452602084019350602083019250506001810190506200047e565b5050509392505050565b6000620004d3620004cd846200072c565b620006c9565b90508083825260208201905082856020860282011115620004f357600080fd5b60005b858110156200052757816200050c888262000614565b845260208401935060208301925050600181019050620004f6565b5050509392505050565b60006200054862000542846200075b565b620006c9565b9050828152602081018484840111156200056157600080fd5b6200056e848285620007cc565b509392505050565b600081519050620005878162000896565b92915050565b600082601f8301126200059f57600080fd5b8151620005b184826020860162000457565b91505092915050565b600082601f830112620005cc57600080fd5b8151620005de848260208601620004bc565b91505092915050565b600082601f830112620005f957600080fd5b81516200060b84826020860162000531565b91505092915050565b6000815190506200062581620008b0565b92915050565b600080600080608085870312156200064257600080fd5b6000620006528782880162000614565b945050602085015167ffffffffffffffff8111156200067057600080fd5b6200067e878288016200058d565b935050604085015167ffffffffffffffff8111156200069c57600080fd5b620006aa87828801620005ba565b9250506060620006bd8782880162000576565b91505092959194509250565b6000604051905081810181811067ffffffffffffffff82111715620006f357620006f262000867565b5b8060405250919050565b600067ffffffffffffffff8211156200071b576200071a62000867565b5b602082029050602081019050919050565b600067ffffffffffffffff8211156200074a576200074962000867565b5b602082029050602081019050919050565b600067ffffffffffffffff82111562000779576200077862000867565b5b601f19601f8301169050602081019050919050565b60006200079b82620007a2565b9050919050565b600073ffffffffffffffffffffffffffffffffffffffff82169050919050565b6000819050919050565b60005b83811015620007ec578082015181840152602081019050620007cf565b83811115620007fc576000848401525b50505050565b600060028204905060018216806200081b57607f821691505b6020821081141562000832576200083162000838565b5b50919050565b7f4e487b7100000000000000000000000000000000000000000000000000000000600052602260045260246000fd5b7f4e487b7100000000000000000000000000000000000000000000000000000000600052604160045260246000fd5b620008a1816200078e565b8114620008ad57600080fd5b50565b620008bb81620007c2565b8114620008c757600080fd5b50565b6123e980620008da6000396000f3fe608060405234801561001057600080fd5b50600436106100a95760003560e01c80634e69d560116100715780634e69d5601461015557806359abbfe4146101735780636c74bf6d14610191578063a3ec138d146101b6578063ec39335f146101e6578063ed836bc314610204576100a9565b80630121b93f146100ae578063200d2ed2146100ca57806326541b56146100e85780632d35a8a2146101045780633477ee2e14610122575b600080fd5b6100c860048036038101906100c391906117ff565b610222565b005b6100d261054c565b6040516100df9190611e57565b60405180910390f35b61010260048036038101906100fd9190611793565b61055f565b005b61010c6106f5565b6040516101199190611f74565b60405180910390f35b61013c600480360381019061013791906117ff565b6106fb565b60405161014c9493929190612022565b60405180910390f35b61015d61084b565b60405161016a9190611e57565b60405180910390f35b61017b610880565b6040516101889190611e21565b60405180910390f35b610199610937565b6040516101ad989796959493929190611f8f565b60405180910390f35b6101d060048036038101906101cb919061176a565b610b25565b6040516101dd9190611e3c565b60405180910390f35b6101ee610b45565b6040516101fb9190611dff565b60405180910390f35b61020c611178565b6040516102199190611f52565b60405180910390f35b600a60003373ffffffffffffffffffffffffffffffffffffffff1673ffffffffffffffffffffffffffffffffffffffff16815260200190815260200160002060009054906101000a900460ff16156102af576040517f08c379a00000000000000000000000000000000000000000000000000000000081526004016102a690611f12565b60405180910390fd5b600b54811080156102c1575060008110155b610300576040517f08c379a00000000000000000000000000000000000000000000000000000000081526004016102f790611ef2565b60405180910390fd5b600280811115610339577f4e487b7100000000000000000000000000000000000000000000000000000000600052602160045260246000fd5b61034161084b565b6002811115610379577f4e487b7100000000000000000000000000000000000000000000000000000000600052602160045260246000fd5b14156103ba576040517f08c379a00000000000000000000000000000000000000000000000000000000081526004016103b190611eb2565b60405180910390fd5b600160028111156103f4577f4e487b7100000000000000000000000000000000000000000000000000000000600052602160045260246000fd5b6103fc61084b565b6002811115610434577f4e487b7100000000000000000000000000000000000000000000000000000000600052602160045260246000fd5b1415610475576040517f08c379a000000000000000000000000000000000000000000000000000000000815260040161046c90611f32565b60405180910390fd5b6001600a60003373ffffffffffffffffffffffffffffffffffffffff1673ffffffffffffffffffffffffffffffffffffffff16815260200190815260200160002060006101000a81548160ff02191690831515021790555060098181548110610507577f4e487b7100000000000000000000000000000000000000000000000000000000600052603260045260246000fd5b906000526020600020906004020160030160008154809291906105299061225b565b9190505550600060060160008154809291906105449061225b565b919050555050565b600860009054906101000a900460ff1681565b600060070160009054906101000a900473ffffffffffffffffffffffffffffffffffffffff1673ffffffffffffffffffffffffffffffffffffffff163373ffffffffffffffffffffffffffffffffffffffff16146105f2576040517f08c379a00000000000000000000000000000000000000000000000000000000081526004016105e990611ed2565b60405180910390fd5b60006005015442111561063a576040517f08c379a000000000000000000000000000000000000000000000000000000000815260040161063190611e72565b60405180910390fd5b60096040518060800160405280600b548152602001848152602001838152602001600081525090806001815401808255809150506001900390600052602060002090600402016000909190919091506000820151816000015560208201518160010190805190602001906106af929190611570565b5060408201518160020190805190602001906106cc929190611570565b50606082015181600301555050600b60008154809291906106ec9061225b565b91905055505050565b600b5481565b6009818154811061070b57600080fd5b906000526020600020906004020160009150905080600001549080600101805461073490612229565b80601f016020809104026020016040519081016040528092919081815260200182805461076090612229565b80156107ad5780601f10610782576101008083540402835291602001916107ad565b820191906000526020600020905b81548152906001019060200180831161079057829003601f168201915b5050505050908060020180546107c290612229565b80601f01602080910402602001604051908101604052809291908181526020018280546107ee90612229565b801561083b5780601f106108105761010080835404028352916020019161083b565b820191906000526020600020905b81548152906001019060200180831161081e57829003601f168201915b5050505050908060030154905084565b60008060040154421015610862576001905061087d565b600060050154421015610878576000905061087d565b600290505b90565b6108886115f6565b60006040518060400160405280600081526020016000815250905042816000600281106108de577f4e487b7100000000000000000000000000000000000000000000000000000000600052603260045260246000fd5b60200201818152505060006004015481600160028110610927577f4e487b7100000000000000000000000000000000000000000000000000000000600052603260045260246000fd5b6020020181815250508091505090565b600080600001549080600101805461094e90612229565b80601f016020809104026020016040519081016040528092919081815260200182805461097a90612229565b80156109c75780601f1061099c576101008083540402835291602001916109c7565b820191906000526020600020905b8154815290600101906020018083116109aa57829003601f168201915b5050505050908060020180546109dc90612229565b80601f0160208091040260200160405190810160405280929190818152602001828054610a0890612229565b8015610a555780601f10610a2a57610100808354040283529160200191610a55565b820191906000526020600020905b815481529060010190602001808311610a3857829003601f168201915b505050505090806003018054610a6a90612229565b80601f0160208091040260200160405190810160405280929190818152602001828054610a9690612229565b8015610ae35780601f10610ab857610100808354040283529160200191610ae3565b820191906000526020600020905b815481529060010190602001808311610ac657829003601f168201915b5050505050908060040154908060050154908060060154908060070160009054906101000a900473ffffffffffffffffffffffffffffffffffffffff16905088565b600a6020528060005260406000206000915054906101000a900460ff1681565b60606000600501544211610b8e576040517f08c379a0000000000000000000000000000000000000000000000000000000008152600401610b8590611e92565b60405180910390fd5b600060098054905067ffffffffffffffff811115610bd5577f4e487b7100000000000000000000000000000000000000000000000000000000600052604160045260246000fd5b604051908082528060200260200182016040528015610c0e57816020015b610bfb611618565b815260200190600190039081610bf35790505b50905060008060005b600b5481101561116e578260098281548110610c5c577f4e487b7100000000000000000000000000000000000000000000000000000000600052603260045260246000fd5b9060005260206000209060040201600301541115610f295760098181548110610cae577f4e487b7100000000000000000000000000000000000000000000000000000000600052603260045260246000fd5b906000526020600020906004020160030154925060098054905067ffffffffffffffff811115610d07577f4e487b7100000000000000000000000000000000000000000000000000000000600052604160045260246000fd5b604051908082528060200260200182016040528015610d4057816020015b610d2d611618565b815260200190600190039081610d255790505b5093506000915060098181548110610d81577f4e487b7100000000000000000000000000000000000000000000000000000000600052603260045260246000fd5b906000526020600020906004020160405180608001604052908160008201548152602001600182018054610db490612229565b80601f0160208091040260200160405190810160405280929190818152602001828054610de090612229565b8015610e2d5780601f10610e0257610100808354040283529160200191610e2d565b820191906000526020600020905b815481529060010190602001808311610e1057829003601f168201915b50505050508152602001600282018054610e4690612229565b80601f0160208091040260200160405190810160405280929190818152602001828054610e7290612229565b8015610ebf5780601f10610e9457610100808354040283529160200191610ebf565b820191906000526020600020905b815481529060010190602001808311610ea257829003601f168201915b50505050508152602001600382015481525050848381518110610f0b577f4e487b7100000000000000000000000000000000000000000000000000000000600052603260045260246000fd5b60200260200101819052508180610f219061225b565b92505061115b565b8260098281548110610f64577f4e487b7100000000000000000000000000000000000000000000000000000000600052603260045260246000fd5b906000526020600020906004020160030154141561115a5760098181548110610fb6577f4e487b7100000000000000000000000000000000000000000000000000000000600052603260045260246000fd5b906000526020600020906004020160405180608001604052908160008201548152602001600182018054610fe990612229565b80601f016020809104026020016040519081016040528092919081815260200182805461101590612229565b80156110625780601f1061103757610100808354040283529160200191611062565b820191906000526020600020905b81548152906001019060200180831161104557829003601f168201915b5050505050815260200160028201805461107b90612229565b80601f01602080910402602001604051908101604052809291908181526020018280546110a790612229565b80156110f45780601f106110c9576101008083540402835291602001916110f4565b820191906000526020600020905b8154815290600101906020018083116110d757829003601f168201915b50505050508152602001600382015481525050848381518110611140577f4e487b7100000000000000000000000000000000000000000000000000000000600052603260045260246000fd5b602002602001018190525081806111569061225b565b9250505b5b80806111669061225b565b915050610c17565b5082935050505090565b611180611640565b60006040518060400160405280600060405180610100016040529081600082015481526020016001820180546111b590612229565b80601f01602080910402602001604051908101604052809291908181526020018280546111e190612229565b801561122e5780601f106112035761010080835404028352916020019161122e565b820191906000526020600020905b81548152906001019060200180831161121157829003601f168201915b5050505050815260200160028201805461124790612229565b80601f016020809104026020016040519081016040528092919081815260200182805461127390612229565b80156112c05780601f10611295576101008083540402835291602001916112c0565b820191906000526020600020905b8154815290600101906020018083116112a357829003601f168201915b505050505081526020016003820180546112d990612229565b80601f016020809104026020016040519081016040528092919081815260200182805461130590612229565b80156113525780601f1061132757610100808354040283529160200191611352565b820191906000526020600020905b81548152906001019060200180831161133557829003601f168201915b505050505081526020016004820154815260200160058201548152602001600682015481526020016007820160009054906101000a900473ffffffffffffffffffffffffffffffffffffffff1673ffffffffffffffffffffffffffffffffffffffff1673ffffffffffffffffffffffffffffffffffffffff168152505081526020016009805480602002602001604051908101604052809291908181526020016000905b8282101561156057838290600052602060002090600402016040518060800160405290816000820154815260200160018201805461143390612229565b80601f016020809104026020016040519081016040528092919081815260200182805461145f90612229565b80156114ac5780601f10611481576101008083540402835291602001916114ac565b820191906000526020600020905b81548152906001019060200180831161148f57829003601f168201915b505050505081526020016002820180546114c590612229565b80601f01602080910402602001604051908101604052809291908181526020018280546114f190612229565b801561153e5780601f106115135761010080835404028352916020019161153e565b820191906000526020600020905b81548152906001019060200180831161152157829003601f168201915b50505050508152602001600382015481525050815260200190600101906113f6565b5050505081525090508091505090565b82805461157c90612229565b90600052602060002090601f01602090048101928261159e57600085556115e5565b82601f106115b757805160ff19168380011785556115e5565b828001600101855582156115e5579182015b828111156115e45782518255916020019190600101906115c9565b5b5090506115f29190611660565b5090565b6040518060400160405280600290602082028036833780820191505090505090565b6040518060800160405280600081526020016060815260200160608152602001600081525090565b604051806040016040528061165361167d565b8152602001606081525090565b5b80821115611679576000816000905550600101611661565b5090565b60405180610100016040528060008152602001606081526020016060815260200160608152602001600081526020016000815260200160008152602001600073ffffffffffffffffffffffffffffffffffffffff1681525090565b60006116eb6116e6846120a6565b612075565b90508281526020810184848401111561170357600080fd5b61170e8482856121e7565b509392505050565b60008135905061172581612385565b92915050565b600082601f83011261173c57600080fd5b813561174c8482602086016116d8565b91505092915050565b6000813590506117648161239c565b92915050565b60006020828403121561177c57600080fd5b600061178a84828501611716565b91505092915050565b600080604083850312156117a657600080fd5b600083013567ffffffffffffffff8111156117c057600080fd5b6117cc8582860161172b565b925050602083013567ffffffffffffffff8111156117e957600080fd5b6117f58582860161172b565b9150509250929050565b60006020828403121561181157600080fd5b600061181f84828501611755565b91505092915050565b60006118348383611c75565b905092915050565b60006118488383611de1565b60208301905092915050565b61185d8161217a565b82525050565b61186c8161217a565b82525050565b600061187d826120f0565b611887818561212b565b935083602082028501611899856120d6565b8060005b858110156118d557848403895281516118b68582611828565b94506118c183612111565b925060208a0199505060018101905061189d565b50829750879550505050505092915050565b60006118f2826120f0565b6118fc818561213c565b93508360208202850161190e856120d6565b8060005b8581101561194a578484038952815161192b8582611828565b945061193683612111565b925060208a01995050600181019050611912565b50829750879550505050505092915050565b611965816120fb565b61196f818461214d565b925061197a826120e6565b8060005b838110156119ab578151611992878261183c565b965061199d8361211e565b92505060018101905061197e565b505050505050565b6119bc8161218c565b82525050565b6119cb816121d5565b82525050565b60006119dc82612106565b6119e68185612158565b93506119f68185602086016121f6565b6119ff81612360565b840191505092915050565b6000611a1582612106565b611a1f8185612169565b9350611a2f8185602086016121f6565b611a3881612360565b840191505092915050565b6000611a50603883612169565b91507f43616e646964617465732063616e206f6e6c792062652061646465642062656660008301527f6f726520656c656374696f6e20686173207374617274656400000000000000006020830152604082019050919050565b6000611ab6603183612169565b91507f526573756c74732063616e206f6e6c79206265206465636c617265642061667460008301527f657220656c656374696f6e20656e64732e0000000000000000000000000000006020830152604082019050919050565b6000611b1c600f83612169565b91507f456c656374696f6e20636c6f73656400000000000000000000000000000000006000830152602082019050919050565b6000611b5c602183612169565b91507f4f6e6c79206f7267616e697365722063616e206164642063616e64696461746560008301527f73000000000000000000000000000000000000000000000000000000000000006020830152604082019050919050565b6000611bc2601a83612169565b91507f496e76616c69642063616e64696461746520746f20566f7465210000000000006000830152602082019050919050565b6000611c02601883612169565b91507f566f7465722068617320616c726561647920566f7465642100000000000000006000830152602082019050919050565b6000611c42601883612169565b91507f456c656374696f6e206e6f7420796574207374617274656400000000000000006000830152602082019050919050565b6000608083016000830151611c8d6000860182611de1565b5060208301518482036020860152611ca582826119d1565b91505060408301518482036040860152611cbf82826119d1565b9150506060830151611cd46060860182611de1565b508091505092915050565b60006040830160008301518482036000860152611cfc8282611d23565b91505060208301518482036020860152611d168282611872565b9150508091505092915050565b600061010083016000830151611d3c6000860182611de1565b5060208301518482036020860152611d5482826119d1565b91505060408301518482036040860152611d6e82826119d1565b91505060608301518482036060860152611d8882826119d1565b9150506080830151611d9d6080860182611de1565b5060a0830151611db060a0860182611de1565b5060c0830151611dc360c0860182611de1565b5060e0830151611dd660e0860182611854565b508091505092915050565b611dea816121cb565b82525050565b611df9816121cb565b82525050565b60006020820190508181036000830152611e1981846118e7565b905092915050565b6000604082019050611e36600083018461195c565b92915050565b6000602082019050611e5160008301846119b3565b92915050565b6000602082019050611e6c60008301846119c2565b92915050565b60006020820190508181036000830152611e8b81611a43565b9050919050565b60006020820190508181036000830152611eab81611aa9565b9050919050565b60006020820190508181036000830152611ecb81611b0f565b9050919050565b60006020820190508181036000830152611eeb81611b4f565b9050919050565b60006020820190508181036000830152611f0b81611bb5565b9050919050565b60006020820190508181036000830152611f2b81611bf5565b9050919050565b60006020820190508181036000830152611f4b81611c35565b9050919050565b60006020820190508181036000830152611f6c8184611cdf565b905092915050565b6000602082019050611f896000830184611df0565b92915050565b600061010082019050611fa5600083018b611df0565b8181036020830152611fb7818a611a0a565b90508181036040830152611fcb8189611a0a565b90508181036060830152611fdf8188611a0a565b9050611fee6080830187611df0565b611ffb60a0830186611df0565b61200860c0830185611df0565b61201560e0830184611863565b9998505050505050505050565b60006080820190506120376000830187611df0565b81810360208301526120498186611a0a565b9050818103604083015261205d8185611a0a565b905061206c6060830184611df0565b95945050505050565b6000604051905081810181811067ffffffffffffffff8211171561209c5761209b612331565b5b8060405250919050565b600067ffffffffffffffff8211156120c1576120c0612331565b5b601f19601f8301169050602081019050919050565b6000819050602082019050919050565b6000819050919050565b600081519050919050565b600060029050919050565b600081519050919050565b6000602082019050919050565b6000602082019050919050565b600082825260208201905092915050565b600082825260208201905092915050565b600081905092915050565b600082825260208201905092915050565b600082825260208201905092915050565b6000612185826121ab565b9050919050565b60008115159050919050565b60008190506121a682612371565b919050565b600073ffffffffffffffffffffffffffffffffffffffff82169050919050565b6000819050919050565b60006121e082612198565b9050919050565b82818337600083830152505050565b60005b838110156122145780820151818401526020810190506121f9565b83811115612223576000848401525b50505050565b6000600282049050600182168061224157607f821691505b6020821081141561225557612254612302565b5b50919050565b6000612266826121cb565b91507fffffffffffffffffffffffffffffffffffffffffffffffffffffffffffffffff821415612299576122986122a4565b5b600182019050919050565b7f4e487b7100000000000000000000000000000000000000000000000000000000600052601160045260246000fd5b7f4e487b7100000000000000000000000000000000000000000000000000000000600052602160045260246000fd5b7f4e487b7100000000000000000000000000000000000000000000000000000000600052602260045260246000fd5b7f4e487b7100000000000000000000000000000000000000000000000000000000600052604160045260246000fd5b6000601f19601f8301169050919050565b60038110612382576123816122d3565b5b50565b61238e8161217a565b811461239957600080fd5b50565b6123a5816121cb565b81146123b057600080fd5b5056fea2646970667358221220e502ef771c3ac5eb8728f034ee9bddd2b11e5a6530830b06f05dd2da515c0d3f64736f6c63430008000033a264697066735822122075336b2a4516a48a85e44d2cafb3b761f353923f2fd40efc00bc63b25cd865f864736f6c63430008000033a2646970667358221220d3440ac48a5d2351d755a2a08a43a276a594895de43d5bfd33e35be6eb875dfe64736f6c63430008000033",
  "immutableReferences": {},
  "source": "// SPDX-License-Identifier: UNLICENSED\r\npragma solidity >=0.8.0;\r\n\r\nimport './User.sol';\r\n\r\ncontract MainContract {\r\n    uint public userId = 0;\r\n    struct UserAuth {\r\n        address publicAddress;\r\n        address contractAddress;\r\n    }\r\n    mapping (uint => UserAuth) public Users;\r\n\r\n    event userCreated(UserAuth user);\r\n\r\n    // Public function to check the registration of users (public address)\r\n    function isRegistered(address _publicAddress) public view returns (uint256[2] memory) {\r\n        uint256[2] memory result = [uint256(0), uint256(0)];\r\n        for(uint i = 0; i < userId; i++) {\r\n            if(_publicAddress == Users[i].publicAddress) {\r\n                result[0] = 1;\r\n                result[1] = i;\r\n                return result;\r\n            }\r\n        }\r\n        return result;\r\n    }\r\n\r\n    function createUser (string memory name) public {\r\n        require((isRegistered(msg.sender))[0] == 0, \"User already registered!\");\r\n        User user = new User(userId, name, msg.sender);\r\n        Users[userId] = UserAuth(msg.sender, address(user));\r\n        emit userCreated(Users[userId]);\r\n        userId++;\r\n    }\r\n}\r\n",
  "sourcePath": "C:\\Users\\Kailash\\Desktop\\AOSSIE\\agora-blockchain\\server\\contracts\\MainContract.sol",
  "compiler": {
    "name": "solc",
    "version": "0.8.0+commit.c7dfd78e.Emscripten.clang"
  },
  "schemaVersion": "3.4.3",
  "updatedAt": "2021-12-21T22:36:52.746Z",
  "networkType": "ethereum",
  "devdoc": {
    "kind": "dev",
    "methods": {},
    "version": 1
  },
  "userdoc": {
    "kind": "user",
    "methods": {},
    "version": 1
  }
}