{
  "contractName": "PreferenceBallot",
  "abi": [
    {
      "inputs": [
        {
          "internalType": "uint256",
          "name": "_candidate",
          "type": "uint256"
        }
      ],
      "name": "addCandidate",
      "outputs": [],
      "stateMutability": "nonpayable",
      "type": "function"
    },
    {
      "inputs": [],
      "name": "getCandidates",
      "outputs": [
        {
          "internalType": "uint256[]",
          "name": "",
          "type": "uint256[]"
        }
      ],
      "stateMutability": "view",
      "type": "function"
    },
    {
      "inputs": [
        {
          "internalType": "address",
          "name": "_voter",
          "type": "address"
        }
      ],
      "name": "getVoteStatus",
      "outputs": [
        {
          "internalType": "bool",
          "name": "",
          "type": "bool"
        }
      ],
      "stateMutability": "view",
      "type": "function"
    },
    {
      "inputs": [
        {
          "internalType": "address",
          "name": "_voter",
          "type": "address"
        },
        {
          "internalType": "uint256",
          "name": "_candidate",
          "type": "uint256"
        },
        {
          "internalType": "uint256",
          "name": "_preference",
          "type": "uint256"
        },
        {
          "internalType": "uint256[]",
          "name": "voteArr",
          "type": "uint256[]"
        }
      ],
      "name": "vote",
      "outputs": [],
      "stateMutability": "nonpayable",
      "type": "function"
    },
    {
      "inputs": [
        {
          "internalType": "uint256",
          "name": "_candidate",
          "type": "uint256"
        },
        {
          "internalType": "uint256",
          "name": "_preference",
          "type": "uint256"
        }
      ],
      "name": "getVoteCount",
      "outputs": [
        {
          "internalType": "uint256",
          "name": "",
          "type": "uint256"
        }
      ],
      "stateMutability": "view",
      "type": "function"
    },
    {
      "inputs": [],
      "name": "getVoteArr",
      "outputs": [
        {
          "internalType": "uint256[][]",
          "name": "",
          "type": "uint256[][]"
        }
      ],
      "stateMutability": "nonpayable",
      "type": "function"
    }
  ],
  "bytecode": "0x608060405234801561001057600080fd5b50610d3b806100206000396000f3fe608060405234801561001057600080fd5b50600436106100625760003560e01c806306a49fce14610067578063521b0dcc14610085578063a1818ac4146100b5578063afa52408146100d1578063de2e19a0146100ef578063e844d0971461011f575b600080fd5b61006f61013b565b60405161007c9190610a32565b60405180910390f35b61009f600480360381019061009a9190610671565b610193565b6040516100ac9190610a54565b60405180910390f35b6100cf60048036038101906100ca919061069a565b6101e9565b005b6100d961054c565b6040516100e69190610a10565b60405180910390f35b6101096004803603810190610104919061073e565b610556565b6040516101169190610acf565b60405180910390f35b61013960048036038101906101349190610715565b610585565b005b6060600080548060200260200160405190810160405280929190818152602001828054801561018957602002820191906000526020600020905b815481526020019060010190808311610175575b5050505050905090565b6000600160008373ffffffffffffffffffffffffffffffffffffffff1673ffffffffffffffffffffffffffffffffffffffff16815260200190815260200160002060009054906101000a900460ff169050919050565b60001515600160008673ffffffffffffffffffffffffffffffffffffffff1673ffffffffffffffffffffffffffffffffffffffff16815260200190815260200160002060009054906101000a900460ff1615151461027c576040517f08c379a000000000000000000000000000000000000000000000000000000000815260040161027390610aaf565b60405180910390fd5b60001515600360008673ffffffffffffffffffffffffffffffffffffffff1673ffffffffffffffffffffffffffffffffffffffff168152602001908152602001600020600085815260200190815260200160002060009054906101000a900460ff16151514610320576040517f08c379a000000000000000000000000000000000000000000000000000000000815260040161031790610a6f565b60405180910390fd5b600080549050600460008673ffffffffffffffffffffffffffffffffffffffff1673ffffffffffffffffffffffffffffffffffffffff16815260200190815260200160002054106103a6576040517f08c379a000000000000000000000000000000000000000000000000000000000815260040161039d90610a8f565b60405180910390fd5b600160026000848152602001908152602001600020600085815260200190815260200160002060008282546103db9190610bdb565b925050819055506001600460008673ffffffffffffffffffffffffffffffffffffffff1673ffffffffffffffffffffffffffffffffffffffff16815260200190815260200160002060008282546104329190610bdb565b925050819055506001600360008673ffffffffffffffffffffffffffffffffffffffff1673ffffffffffffffffffffffffffffffffffffffff168152602001908152602001600020600085815260200190815260200160002060006101000a81548160ff021916908315150217905550600080549050600460008673ffffffffffffffffffffffffffffffffffffffff1673ffffffffffffffffffffffffffffffffffffffff1681526020019081526020016000205414156105465760018060008673ffffffffffffffffffffffffffffffffffffffff1673ffffffffffffffffffffffffffffffffffffffff16815260200190815260200160002060006101000a81548160ff0219169083151502179055505b50505050565b6060808091505090565b600060026000838152602001908152602001600020600084815260200190815260200160002054905092915050565b600081908060018154018082558091505060019003906000526020600020016000909190919091505550565b60006105c46105bf84610b1b565b610aea565b905080838252602082019050828560208602820111156105e357600080fd5b60005b8581101561061357816105f9888261065c565b8452602084019350602083019250506001810190506105e6565b5050509392505050565b60008135905061062c81610cd7565b92915050565b600082601f83011261064357600080fd5b81356106538482602086016105b1565b91505092915050565b60008135905061066b81610cee565b92915050565b60006020828403121561068357600080fd5b60006106918482850161061d565b91505092915050565b600080600080608085870312156106b057600080fd5b60006106be8782880161061d565b94505060206106cf8782880161065c565b93505060406106e08782880161065c565b925050606085013567ffffffffffffffff8111156106fd57600080fd5b61070987828801610632565b91505092959194509250565b60006020828403121561072757600080fd5b60006107358482850161065c565b91505092915050565b6000806040838503121561075157600080fd5b600061075f8582860161065c565b92505060206107708582860161065c565b9150509250929050565b6000610786838361081b565b905092915050565b600061079a83836109f2565b60208301905092915050565b60006107b182610b67565b6107bb8185610b97565b9350836020820285016107cd85610b47565b8060005b8581101561080957848403895281516107ea858261077a565b94506107f583610b7d565b925060208a019950506001810190506107d1565b50829750879550505050505092915050565b600061082682610b72565b6108308185610ba8565b935061083b83610b57565b8060005b8381101561086c578151610853888261078e565b975061085e83610b8a565b92505060018101905061083f565b5085935050505092915050565b600061088482610b72565b61088e8185610bb9565b935061089983610b57565b8060005b838110156108ca5781516108b1888261078e565b97506108bc83610b8a565b92505060018101905061089d565b5085935050505092915050565b6108e081610c43565b82525050565b60006108f3602683610bca565b91507f566f74657220616c726561647920766f74656420666f7220746869732063616e60008301527f64696461746500000000000000000000000000000000000000000000000000006020830152604082019050919050565b6000610959602183610bca565b91507f4d617820766f74657320616c72656164792063617374656420627920766f746560008301527f72000000000000000000000000000000000000000000000000000000000000006020830152604082019050919050565b60006109bf601383610bca565b91507f566f74657220616c726561647920766f746564000000000000000000000000006000830152602082019050919050565b6109fb81610c6f565b82525050565b610a0a81610c6f565b82525050565b60006020820190508181036000830152610a2a81846107a6565b905092915050565b60006020820190508181036000830152610a4c8184610879565b905092915050565b6000602082019050610a6960008301846108d7565b92915050565b60006020820190508181036000830152610a88816108e6565b9050919050565b60006020820190508181036000830152610aa88161094c565b9050919050565b60006020820190508181036000830152610ac8816109b2565b9050919050565b6000602082019050610ae46000830184610a01565b92915050565b6000604051905081810181811067ffffffffffffffff82111715610b1157610b10610ca8565b5b8060405250919050565b600067ffffffffffffffff821115610b3657610b35610ca8565b5b602082029050602081019050919050565b6000819050602082019050919050565b6000819050602082019050919050565b600081519050919050565b600081519050919050565b6000602082019050919050565b6000602082019050919050565b600082825260208201905092915050565b600082825260208201905092915050565b600082825260208201905092915050565b600082825260208201905092915050565b6000610be682610c6f565b9150610bf183610c6f565b9250827fffffffffffffffffffffffffffffffffffffffffffffffffffffffffffffffff03821115610c2657610c25610c79565b5b828201905092915050565b6000610c3c82610c4f565b9050919050565b60008115159050919050565b600073ffffffffffffffffffffffffffffffffffffffff82169050919050565b6000819050919050565b7f4e487b7100000000000000000000000000000000000000000000000000000000600052601160045260246000fd5b7f4e487b7100000000000000000000000000000000000000000000000000000000600052604160045260246000fd5b610ce081610c31565b8114610ceb57600080fd5b50565b610cf781610c6f565b8114610d0257600080fd5b5056fea2646970667358221220388ce702ec6f6582ad41fd8cdcc4bb1a2e78b98ad454730f3a75fe264f9f41d664736f6c63430008000033",
  "immutableReferences": {},
  "source": "// SPDX-License-Identifier: UNLICENSED\npragma solidity >=0.8.0;\nimport './Ballot.sol';\nimport '../Election.sol';\n\n/*\n    Each voter gives preferences to, or ranks the candidates.\n    Each vote has a weight - the preference\n*/\n\ncontract PreferenceBallot is Ballot{\n\n    // ------------------------------------------------------------------------------------------------------\n    //                                              STATE\n    // ------------------------------------------------------------------------------------------------------\n\n    // preference => (candidateID => vote count)\n    // gives the number of votes of a candidate in each preference\n    mapping (uint=> mapping (uint => uint)) votes;\n\n    // voter => (candidateID => vote status)\n    mapping (address => mapping (uint => bool))voterCandidateVoteStatus;\n    \n    mapping (address => uint)voterVoteCount;\n\n    // ------------------------------------------------------------------------------------------------------\n    //                                            FUNCTIONS\n    // ------------------------------------------------------------------------------------------------------\n    \n    function vote(address _voter, uint _candidate, uint _preference,uint[] memory voteArr) external  override{\n        require(voteStatus[_voter]==false,\"Voter already voted\");\n        require(voterCandidateVoteStatus[_voter][_candidate]==false,\"Voter already voted for this candidate\");\n        require(voterVoteCount[_voter]<candidates.length,\"Max votes already casted by voter\");\n        \n        votes[_preference][_candidate]+=1;\n\n        voterVoteCount[_voter]+=1;\n        voterCandidateVoteStatus[_voter][_candidate]=true;\n        if(voterVoteCount[_voter]==candidates.length) {\n            voteStatus[_voter]=true;\n        }\n    }\n    \n    function getVoteCount(uint _candidate, uint _preference) external  override view returns(uint){\n        return votes[_preference][_candidate];\n    }\n    \n    function getVoteArr() external override returns(uint[][] memory  ){\n        uint [][] memory arr;\n        return arr;\n    }\n}",
  "sourcePath": "/Users/harsh/Desktop/projects/agora-blockchain/server/contracts/ballot/PreferenceBallot.sol",
  "compiler": {
    "name": "solc",
    "version": "0.8.0+commit.c7dfd78e.Emscripten.clang"
  },
  "schemaVersion": "3.4.12",
  "updatedAt": "2023-03-29T13:24:49.479Z",
  "devdoc": {
    "kind": "dev",
    "methods": {},
    "version": 1
  },
  "userdoc": {
    "kind": "user",
    "methods": {},
    "version": 1
  }
}