{
  "contractName": "Voter",
  "abi": [
    {
      "anonymous": false,
      "inputs": [
        {
          "indexed": false,
          "internalType": "address",
          "name": "election",
          "type": "address"
        },
        {
          "indexed": false,
          "internalType": "uint256",
          "name": "canidateID",
          "type": "uint256"
        },
        {
          "indexed": false,
          "internalType": "uint256",
          "name": "weight",
          "type": "uint256"
        }
      ],
      "name": "VoteCasted",
      "type": "event"
    },
    {
      "inputs": [
        {
          "internalType": "contract Election",
          "name": "_election",
          "type": "address"
        },
        {
          "internalType": "uint256",
          "name": "_candidateID",
          "type": "uint256"
        },
        {
          "internalType": "uint256",
          "name": "_weight",
          "type": "uint256"
        }
      ],
      "name": "castVote",
      "outputs": [],
      "stateMutability": "nonpayable",
      "type": "function"
    }
  ],
  "bytecode": "0x608060405234801561001057600080fd5b50610437806100206000396000f3fe608060405234801561001057600080fd5b506004361061002b5760003560e01c8063cab2d76e14610030575b600080fd5b61004a60048036038101906100459190610232565b61004c565b005b600015158373ffffffffffffffffffffffffffffffffffffffff1663521b0dcc336040518263ffffffff1660e01b815260040161008991906102df565b60206040518083038186803b1580156100a157600080fd5b505afa1580156100b5573d6000803e3d6000fd5b505050506040513d601f19601f820116820180604052508101906100d99190610209565b15151461011b576040517f08c379a000000000000000000000000000000000000000000000000000000000815260040161011290610331565b60405180910390fd5b8273ffffffffffffffffffffffffffffffffffffffff16632a4a1b733384846040518463ffffffff1660e01b8152600401610158939291906102fa565b600060405180830381600087803b15801561017257600080fd5b505af1158015610186573d6000803e3d6000fd5b505050507fcb87df07b1c304492bd875a5c8b98672eca500939412809ea229afef1d7451888383836040516101bd939291906102fa565b60405180910390a1505050565b6000815190506101d9816103bc565b92915050565b6000813590506101ee816103d3565b92915050565b600081359050610203816103ea565b92915050565b60006020828403121561021b57600080fd5b6000610229848285016101ca565b91505092915050565b60008060006060848603121561024757600080fd5b6000610255868287016101df565b9350506020610266868287016101f4565b9250506040610277868287016101f4565b9150509250925092565b61028a81610362565b82525050565b600061029d600d83610351565b91507f416c726561647920766f746564000000000000000000000000000000000000006000830152602082019050919050565b6102d9816103b2565b82525050565b60006020820190506102f46000830184610281565b92915050565b600060608201905061030f6000830186610281565b61031c60208301856102d0565b61032960408301846102d0565b949350505050565b6000602082019050818103600083015261034a81610290565b9050919050565b600082825260208201905092915050565b600061036d82610392565b9050919050565b60008115159050919050565b600061038b82610362565b9050919050565b600073ffffffffffffffffffffffffffffffffffffffff82169050919050565b6000819050919050565b6103c581610374565b81146103d057600080fd5b50565b6103dc81610380565b81146103e757600080fd5b50565b6103f3816103b2565b81146103fe57600080fd5b5056fea2646970667358221220d0a687c3adc6b7ae4842f2b99f70d27fe610a99a14b0fc822582c9d3573a788764736f6c63430008000033",
  "immutableReferences": {},
  "source": "// SPDX-License-Identifier: UNLICENSED\npragma solidity >=0.8.0;\nimport './Election.sol';\n\ncontract Voter{\n    \n    // ------------------------------------------------------------------------------------------------------\n    //                                              STATE\n    // ------------------------------------------------------------------------------------------------------\n\n    address voter;\n    \n    event VoteCasted(address election, uint canidateID, uint weight);\n\n    // ------------------------------------------------------------------------------------------------------\n    //                                            FUNCTIONS\n    // ------------------------------------------------------------------------------------------------------\n\n    function castVote(Election _election,uint _candidateID, uint _weight) public {\n        require(_election.getVoteStatus(msg.sender)==false,\"Already voted\");\n        _election.vote(msg.sender,_candidateID, _weight);\n        emit VoteCasted(address(_election),_candidateID,_weight);\n\n        /* \n            Based on the type of ballot, the vote status of the voter should be set:\n                For GeneralBallot, after one vote\n                For other Ballots, after all votes have been submitted\n        */\n\n    }\n\n}",
  "sourcePath": "/Users/harsh/Desktop/projects/agora-blockchain/server/contracts/Voter.sol",
  "compiler": {
    "name": "solc",
    "version": "0.8.0+commit.c7dfd78e.Emscripten.clang"
  },
  "schemaVersion": "3.4.12",
  "updatedAt": "2023-02-26T09:28:41.429Z",
  "devdoc": {
    "kind": "dev",
    "methods": {},
    "version": 1
  },
  "userdoc": {
    "kind": "user",
    "methods": {},
    "version": 1
  }
}