{
  "_format": "hh-sol-artifact-1",
  "contractName": "SemaphoreVerifier",
  "sourceName": "@semaphore-protocol/contracts/base/SemaphoreVerifier.sol",
  "abi": [
    {
      "inputs": [
        {
          "internalType": "uint256",
          "name": "merkleTreeRoot",
          "type": "uint256"
        },
        {
          "internalType": "uint256",
          "name": "nullifierHash",
          "type": "uint256"
        },
        {
          "internalType": "uint256",
          "name": "signal",
          "type": "uint256"
        },
        {
          "internalType": "uint256",
          "name": "externalNullifier",
          "type": "uint256"
        },
        {
          "internalType": "uint256[8]",
          "name": "proof",
          "type": "uint256[8]"
        },
        {
          "internalType": "uint256",
          "name": "merkleTreeDepth",
          "type": "uint256"
        }
      ],
      "name": "verifyProof",
      "outputs": [],
      "stateMutability": "view",
      "type": "function"
    }
  ],
  "bytecode": "0x60806040526040518061022001604052806040518060e0016040528060405180604001604052807f1da3fc88726dcb210b80123bb09b40a86a57eb1cec7f3bfc89f91fe20622d85481526020017f23e9c269ed42423dbc44ce369cb78b342abe93731dc033216dadcb06c724aef0815250815260200160405180604001604052807f1a0c25b74f55683ebd0f8be53e188563362403cde2dad828ed917a8497ec367e81526020017f22af2404c15a320d0d67ee7c997eb497cea0208f443a620b9921f4a19402cfbe815250815260200160405180604001604052807f0457d05481ef2e919c3babe640b224438ac736c190b616070505bc66eb0a334881526020017f04b9e760240ab0439ff305c89eede1c06e7e4a3a250d3fce09eaa12e43c2a610815250815260200160405180604001604052807f2b4399f1079da135eff8211a2684b3fc5bbd79204198a7a537ed0c20a58c3e1681526020017f19bbb4d125a0c826783c15728d6cf28f267ffbf330c197d39bd6c664b9ba2836815250815260200160405180604001604052807f0bc177b0557e29966e89a33ca900b78647df9e344b65a6a12055eaef2b67536181526020017f012aefa5250fc5e72896094908c0f111ece72eda1b36ddbc8185fa1c2eaa6310815250815260200160405180604001604052807f20ddcfb90110e0e1ea7af6934ee1c67408af27964f44780c982426a9d988856b81526020017f0711dfbe9c6fab32ebbba6a258c2e97b91becc667aac1a357cb9a275264fe0f8815250815260200160405180604001604052807f0f2c85fbd7696d73949bc294dd362953ff7eccf67a075b84193d082839c3614b81526020017f21384f8b567278eaff9c8240269e5f739e530540be8312ec617183c572ab7e9181525081525081526020016040518060e0016040528060405180604001604052807f228dd06c5de709e7b53f38a850876a16f1b1437acd5f2dfda9ce83fb59189be381526020017f1e0b7dd795bbd17d04ca4b8aadd5a4a86f146e9f16ddff7519a72fea86796558815250815260200160405180604001604052807f1958ea13532b11ab4e211c7aa631c5eb6ed2a34d97fdc39fc39cd73bd35f11a581526020017f23621187ade6b9c56f2962955e72b4843b51481cbdec3cfb5ab4b948c56fd4aa815250815260200160405180604001604052807f2754771b51f24b62a15d2c53a6a1cc408fcc7a623b3e7f9823d52d629f5a765e81526020017f0917ae814c9db420f2ca2c678dcdc58adbd41c938041719c1b50c64ec72c8b10815250815260200160405180604001604052807f0758371f3dff3ee4c7c68d8c36f2e04254b9a4f7446521c75a30bdee9dc6fd7381526020017ed7a7adc8c0c2a3fb09602aa14d3fa1764d15bdb150fd0f03ee69b3b60cb61c815250815260200160405180604001604052807f1367f89c851a9003e69384b623a614d3afa8d2fc51f5cb5abafc67e442baa96081526020017f1a5c8221479bd8a8d50a74dd46d9e6f6cbe2cb6768a2429223f747a2f00685b6815250815260200160405180604001604052807f2240e05d565c404d5abb2f425a8fb849793bf671dae88e4f2567a617119bbe8d81526020017f0df676ebd848824af90c8f9bae101c3e0c687ee8facb7f2279f506a5881d929c815250815260200160405180604001604052807f07b289755dcdc3a38163bce0f2b12f0e3c046735d27a534c9941cf6683e7db1581526020017f2c69a3fee54303f17d8994afdac6e460545928a676307d5124c489b516e518dc81525081525081526020016040518060e0016040528060405180604001604052807f1461627fb9791e5a96fce79d89fca07b82d7556c84a3d4414367740957c7da4481526020017f2b97d05ca1d20d9abdec2e593937665b71c126735a9b7e601940c3f2758bda2b815250815260200160405180604001604052807f24f5d230612998286ea5e1f999d5bc8c4a635ee9864099913b6657633c7c4b4481526020017f28491d3fa0c8200cd31c9e3be4e423939a16a865d455bc00e411cff8787f7539815250815260200160405180604001604052807f0a5f594ba7d550aca92b125cbc6c6b564139e3fd5c5937f3bd5220df88554a0f81526020017f145a4c9d47805092bcebcd7e8c39b0f32b10f534475fd3a448cd6177f56de784815250815260200160405180604001604052807f23b4e079081aa0ab98aaf8a230318cf6e9c97bba977f6b3065a58a82483f663081526020017f2cc2af3f384010f2ac7435166856fb959625d567c92ce9ac20073d063e0e94e3815250815260200160405180604001604052807f0d67d70ad74db3b2eafec2ca2c819816e487d1fa29a15ca213f38a46a77c7d8081526020017f285e1aa325995fa12936d0eea843c4b0dd0ac6db5510826f9b585c1680632563815250815260200160405180604001604052807f165a04ef5bee8a96c8119c31502842aa34d60394793b8f937def7459b04d713581526020017f093ac34388aa5f6d55d8270e5a66328a04990230698de2326ab6e0495464816d815250815260200160405180604001604052807f27e79d515fe3439ddf81a8549902b5e9042e201c6769b8910a18dafed11d574881526020017f014ee84f3f0eeefd5ab1f81da564af7864d6204e9ccbfff66916a85d13e6fa4a81525081525081526020016040518060e0016040528060405180604001604052807f08d529aaca586b844314f80edfb1784260646108b75c158ce3f088c188bc802e81526020017f234536b6213200b2b44aebffcf0b574a2d0f4f2b47ef98db4b4431cfefc3bf22815250815260200160405180604001604052807f2e556c221fa59c978e78e9bba38e8947b59ef785b5e31ec8cf90e613787fb79381526020017f059469a2c10792ee9f1573148667562f175586470cea1dbb54bed106ef361b34815250815260200160405180604001604052807f15d64dac8e74c233b7859722356fc14c262242ae306c20f060880dbd9baa452e81526020017f2c28232f85d16cdd157a841cd7795ae537f6769d6b30fd18e9e03060246cc03c815250815260200160405180604001604052807f0dfb95a3e8c20cf8a70021ad12080f778abc60508bfe088803fdd53c46b4202c81526020017f224c92fd97d25de5d97901b9046ee6a5788dddf425cdba5d6e8ecf6ea83248c8815250815260200160405180604001604052807f1923f2f39f07d16e03562b8f1efed58073a457af74aa02179ced725e015b682c81526020017f19fe61c672e47a96a72333d6a66b7d8447ed8838fda18031d49370f0b7667607815250815260200160405180604001604052807f1d5da06c3e0fcfbe6c9e08f3f0eb1aa56b2927d65f2517bd5adbdab0609bc7d781526020017f03dc485cb2654fa526804696fae41fed451342bbfbcee7cc006f4f2271514d73815250815260200160405180604001604052807f11ac6ab06bbe07af99a7b46a2e5b3b9b80f5a57b64298f686c8660e36ea8bf3681526020017f0b66b9cf601565d1ea0341acb52c80d0114f7cf805b0d2a94848782bcd9c285b81525081525081526020016040518060e0016040528060405180604001604052807f29f41c6e0e30802e2749bfb0729810876f3423e6f24829ad3e30adb1934f1c8a81526020017f030e7a5f70bb5daa6e18d80d6d447e772efb0bb7fb9d0ffcd54fc5a48af1286d815250815260200160405180604001604052807f0ea726b117e48cda8bce2349405f006a84cdd3dcfba12efc990df25970a27b6d81526020017f30364cd4f8a293b1a04f0153548d3e01baad091c69097ca4e9f26be63e4095b5815250815260200160405180604001604052807f2c097b31a897227a6f64c9fc31d9a8fc421b0d8b8207f92532b464e431e61db881526020017f0fcf6d89d77d5123a43dfb23efb9c929c28c148ca82c794057864b8e66903c54815250815260200160405180604001604052807f0186dae5999acfe2cda6fa7a157ae726afda7c6f57b00ea0aa6c2c23bf83838881526020017f2f078608f710c45b60d23716c58e106d8c7a1c6db28119defffc413e074f8716815250815260200160405180604001604052807f2464c1784bda2cbfb51e5ab87cf7eb2764ad81f7038152bdbbb07d404b49aa3781526020017f0638b273e4ee33e03e42ca6c7de1ea7043dbdcaa48661864de644d91c6b4821f815250815260200160405180604001604052807f098ce8b5289ef791db34b68b9e0043ab7bf25306d83a9f0ce74396b8a69c57bb81526020017f1ec6f7a81748f3d2c2b87610d747ca72045ac1530e226f00710630d41aad7e26815250815260200160405180604001604052807f07dbf682cc528d3ff763fa576d05db50e023921728119ef66f880b6adae01cbe81526020017f0d287dcd9318207576eaa871e7b3308f613d9df7865059cdbc9f66fdef342dc681525081525081526020016040518060e0016040528060405180604001604052807f086d48f63f5c71cf5d49053014fd136b4f528a67c3d2500dc0359017376ef9e981526020017f13f83d45b3aa4ec86d3b9871cf43ccd7633306b29af07e7c70b13a212501b9c8815250815260200160405180604001604052807f240e3efc96e362bb9412aad60ae0ec25d4fced28aac3aa803e7287d3b6d425eb81526020017f1b7b1edff9f984c2ea43d3aab2487e863a4dee1c266fa2fc05f2a53bba124cb5815250815260200160405180604001604052807f14fdea340c7d5e62f830e244237c704e516d90f29a5e71f45928e97bb160376881526020017f1a0d3b9393c5595d11f31f2cb0b38834d26debc568a0b36e26fa93b6b05f70d3815250815260200160405180604001604052807f10b7fcb32afd1649ac4560aff9047bc52972befd38a21b870c0519719afee22a81526020017f27b1c713b71efa1eae72c81675ac78c578fa7ac8718cbd58d84fbe432f3d6783815250815260200160405180604001604052807f2ac10655edcd4c74305d2d323239400baf8541470936b2e1ac77167e31e8a9e281526020017e15b63038e94a1d4d5a85c7a666875e7f693a922ea2723a3e39f256b240f607815250815260200160405180604001604052807f2ed2a0a894b904559562fb1643c8b69a743e39a15455d6c6a0d668b32147934181526020017f15a2ed81d1ac5a1383524fd4daf70220034a6f40d643da7b79f9a20cab1895b0815250815260200160405180604001604052807f190cd68f815b152eb0c8474be622c18a56d2e518bf6ddbb929af7d50a2cedab981526020017f034b50d36d6b6dc03d6e6eb0f731eb1dd5df2f6300a760eab888e859f45f387581525081525081526020016040518060e0016040528060405180604001604052807f14f8ae76e209b3857222b80044dfc5baaafcf6e30497fac6910d74db4f99cbc481526020017f26f83f4984eb300f438c191ac9c7cefa55e22cb19fc1c29cc690eb0b03c70116815250815260200160405180604001604052807f1b658d7292b467a21e49116237813440d88a76fa6ef89db931e09b17ed0be44981526020017f29e759b830c254718fea4dfbbe6b17edc38e4b5a43d343eeb473f9894496b79f815250815260200160405180604001604052807f302dad4ea4d062effd18ec15d4a252b5881e1423a26ec6c859ec09ddc44496b581526020017f188664ee38c3f83423eb8c75ebc54d7ba95d5a728a3f7186fb4eb96e0702f7df815250815260200160405180604001604052807f14d2ec2fcb446a46ea217305921bbaed7b89d6059a3a044dba8dd6943b0379f481526020017f239ff36e4d70fee9088c5e61e7b5974d9726f6c554266bb26608973532913e60815250815260200160405180604001604052807f2c56b0e10ffbd7514c0c3e402662681881f06cf50ff9338a73b6f1e5f74ccf0581526020017f20e451924e71fb82d8f77683821fb35996645442b49e4a801b99256e51e66c79815250815260200160405180604001604052807f0951b7de5b62bfa1727fc51f791f0e8c9f5a89012fdcf10426bbb9f422ea6eb081526020017f0b8dc77891aa39b647a3e3044c7c2fdd27e06c4aa55c4e54b9a3cf4c4096edd9815250815260200160405180604001604052807f0dd1830feaf2cd658f56300da9a0a5a8cf324a1ed720c283c86bd37f7484090b81526020017f034140e7667ae5210cf863a7c8975117172af40f2d45e635e5b9f5042be9ba1981525081525081526020016040518060e0016040528060405180604001604052807f15bc113f408c7e7a786363979ae9279915708775076e86a44495064804663e1581526020017f19393ee4d81d952e8bf375888005c8314c87c632eebabd7a8d55940b0f7a66f5815250815260200160405180604001604052807f1a1f001347928a9a21ea414ccc67c3d1590dc29d437d68fc3ab020efb6ada72a81526020017f2c265c6b30a34bd323024f87bf2cd5a269e77c50c75e5ea317280785f91eb67c815250815260200160405180604001604052807f06bcd0efa27998d5f0daffaad7d6a98e3d0fe589e261f9b30c09169ef488479281526020017f2cc0792f40378327989245d05e386fcff9a2a9aa285746043cb3f621ae2f04fb815250815260200160405180604001604052807f0d306d920f3cc9d08dbd4549ebb3dd8d5fa10bd2c0a6663cd08e62915734865181526020017f2d3df68c9b28bf980dfea7683eba674a0415a26017ac2bef27176b88ca57f936815250815260200160405180604001604052807f24b61ef328570152ff83827a0f379f6c542398f3d1bc542c2bc34edd031e294f81526020017f1b03be64a67b3976e58415dcd6b353b32be9b0bad35d2d18b296453a28d985a4815250815260200160405180604001604052807f036cb3be4f36d6f5b34d8808b1e3e2ccb3fb1e3fd249eea06b1cc6761320b08c81526020017f16fa67f812376a8ac79a40970332c6ec7ced15f9539334fe642164284775e1f4815250815260200160405180604001604052807f23c611b7426b5dbce2f272a6046db21be35abadd4293876ecf50d58c5f17b2ae81526020017f1b1f0f9654e7d10b58ddaea64e20abee44f52bdd0cb58123b69c9011b497e0dd81525081525081526020016040518060e0016040528060405180604001604052807f213db2bdfb128fec0e98d364b9109caf26d66cacbbc808535af07af00200acc681526020017f164ec2e66021720a0d70b0cc70597ed748f0af9b080f5e789a821de5b0a91a1a815250815260200160405180604001604052807f2f2f2c0cc9d9b911a348466a4749c3a49d2629c9dde430ec9474f2bb06fc7f2f81526020017f173b3259b29d0e0c0176e2424bee65405bdd1e611bb933c19f5bfed931aab21e815250815260200160405180604001604052807f2b501c6317c16d185d7797db4b8735388ab31aa4d5d022502dce7c0fa5f30e3b81526020017f05e94a656be4a2f9128583762dc9e007d450315e71ef4d6cf82e64ee74325562815250815260200160405180604001604052807f1da680138dd3bdd851d6edcb441a137301ca1902c6c50036b27153520aee7fb481526020017f25fc89274231e8228cba90e52607039681d60f5d6b3a07fb429d116f53a4443d815250815260200160405180604001604052807f2a5036a81225c106605e7233124414ca2359360b60f19da736e6b4ebcfc9ce5481526020017f1f939f972ad716e18a465e4c5ec3669976b77364106a0cd73418ba058b7884cd815250815260200160405180604001604052807f2c9f9c6dfd0aa6e591235ad81a9923fe056846ca742e53af6a571ec00519d9b581526020017f0b8c60480c49dcfad4a82226600a9569494567e627301779e35b9bf8e0fe43d3815250815260200160405180604001604052807f1b447eb43a748829489de9e667c53a3053498f9adaa59b0bedcc7c8b463f515481526020017f085fb2aea389c48f2e7d17242f64b5bc3506cdf55b20bf9395da0e2f749bb09e81525081525081526020016040518060e0016040528060405180604001604052807f22c048af0497a1f7d9822f8b3edb498f614b85ce744ffe3e6ff58119d161854281526020017e18987c19177ca3ef0a85089090a97d608e3a9648b25d4ae1f673c134c591e0815250815260200160405180604001604052807f18d7d7154f3e946f1d5930f5c95f3b76bf39cfd3cc0266d8e9565df8e1ce608381526020017f097ba0c470041aaa08b64e9bf5a1bfe568d9a7689a7c597bc5c87fd9acc1c0ae815250815260200160405180604001604052807f29141df1097c02a70ac3504a99ee5e8bfbea03aae01a3c2ab86ebe0cb9265f5f81526020017f2d5bbfef49b2e4745d3a349dd67a035cfd4ce9313d3a20911376b21ec05e8b37815250815260200160405180604001604052807f2c4ef818e2918b7c272380c498e5c402928e4598adf31db243b591362011587e81526020017f0dfcbeee8258030ee712429f77d640767a137fd809bd80027218d6719c14fe7f815250815260200160405180604001604052807f1d55f8c7220cc6989034a2259e5764a0687c9410421fa5408174906d1511d83e81526020017f1471dd2d031a794968eaaf6a8e5551fbc8163c20617876438d535b2b383172e1815250815260200160405180604001604052807f0ddb36c33249944ac8bf7f0222f37712681d705bce9e0ef786fb6283306a255d81526020017f040d0656b2bba0b1b3c21822ea3fd5671359a1a04d76473b68217b4616f9559d815250815260200160405180604001604052807f24cff40932a3db30de20c16b20e68497cb42c750483824c3ef371f4e9045c6bd81526020017f1f431dccba254912b6a795ee36dcd115094cb44367768abdc27bbc5669eb8a3281525081525081526020016040518060e0016040528060405180604001604052807f03cf7157aba9c6be40a06864fa2c0e06f7178133d9c3768ff3982814946b0f7d81526020017f08e4f2655701b165858a2fc04d15297c282aec942c4a521cbe687772a2a775ad815250815260200160405180604001604052807f10eab11af7f34e5cdb73b010a98d7f18c7410eec5d8eb1b4526359f5ab246b2d81526020017f2727dfb72de41bcd49e47c8940bfe75b600bd39467763baecc6f8087130866d9815250815260200160405180604001604052807f096440bcf7534fd07ca2a941ad8fb743c49c0a5684920ee13e992f3ab8342af981526020017f200eecd036971149677fdd19a7f2dc2e2a33a460211994adce7f967da2920b9d815250815260200160405180604001604052807f2ee692deea7671684657a2ee16ffb165dd3bfd3cb8af86620b7d0feeaad6624881526020017f0328fec7c2ec04f0a7375c917f31ee23af341252c71051e8cd9a80ce9080121b815250815260200160405180604001604052807f1b8f18e1106fa4188030c6c00b7a9b76bc309ffadb11f47d5ff38bd616f06e6081526020017f09adb161ecc2264110216d13cd5dad70d58dcc398f9431844f9faef1baabeece815250815260200160405180604001604052807f18f1f7aa58cecca54d15b583367484da5dfc809734621c5699e4f812131b285981526020017f2f73d9c341a4bb3a5737672b5e6191848505c5ba127370425286901bf628b438815250815260200160405180604001604052807f2b869cfd2665da2a22c29622642595edd5bcded7e84209a1a0cd0a07c2d0c74381526020017f09d3dfe76c7b340c97705915c61f06591d27c5e3ec9e9a91582188298aab259881525081525081526020016040518060e0016040528060405180604001604052807f01a62dac147fd2d28c728dd7692a3505c43fa3ac0d580acde5208af76827a41481526020017f1d088b6d1f7c61f16092a5e2ef4a1f9743db839996d5e3e055b020d21c807a43815250815260200160405180604001604052807f04b3b6ae3a5a0590cf6c632dd5b19fad64b35508945e76465baab77eab5a754481526020017f2e3a6b4c59e33e5d9f5f309887f89b55e69614d8ae0fdc337f658a880e4bb2e7815250815260200160405180604001604052807f077df97d4ad49afc58e0990d3f4c43fb5a66de4fdb6c149212dadd1120da9dd181526020017f2e7590fddece695cf2e40c353691bbaf6e48a631b799dc51ea400db7168fc6ee815250815260200160405180604001604052807f1742dab9e730eafb41b052f0f9452b449d3424442df19e5e9ca46b1eb37ede1881526020017f1d3005df367bee452065f076925df17570f53f8c90f66780d986343035cdbd97815250815260200160405180604001604052807f23c00b1148eb39bf17c89e79bf445d07d112d956d3e1a07048fe1d937d00041081526020017f0d46b3410227aa67c7130da647213a8c964536737735218df087db3c101ce349815250815260200160405180604001604052807f16b7cad8bbcc92747ea1b6d25279e35222f5f5887691feee05fe82e04f3665dc81526020017f0d2abb809fb2ad694b1688bc906ec63b5f6155f0d45939c0d2ab96a70bda1665815250815260200160405180604001604052807f2a230ebd4006758badc83062c05a841f6467045ee5d4b5952ef2c6e786ed4bff81526020017f2a742766ba7e97cf0d388821cbb1ca01d0102c3b7880e9c976b19c5e2a698f0b81525081525081526020016040518060e0016040528060405180604001604052807f0a1142b39cac59d311fda518c2d4eaadaf36319a0b1cb5624b52b11768062a1981526020017f2538a481cee0a6745650435dd283ebe8a0186824a30756d83b6afdd7fa6186e8815250815260200160405180604001604052807f073c0d6ef96d93468e746fe7a9688f3053d5c9a96c3a2b039b7096ca0a3a9cae81526020017f01ee855a906702a4d58af8e0a49c4db6d58da5f166ad7283223b079b96e97734815250815260200160405180604001604052807f115ee58656b27d353eaf5e01de11f58159d35750e4df5753c25ad967a588340981526020017f19e20d0d752f4a8feb8aa3184b57129077b63d6c7023f816f54d470bd51751be815250815260200160405180604001604052807f066a9e5fbc3e8612b3401e42befc4b9f5e3428bf08ec91ef104cde862e53c54a81526020017f090c13b76bc68d4307215f8025bbfa13e003accc57b6055b629f13f2e87383d9815250815260200160405180604001604052807f28a2fb7c5e7425e4b49b1865ad6b43c8ba34c642f58aee8db5d352f93201a7ac81526020017f2010477774686ef83e8f2af52b3b04795e145b0228cd6af3e60c0ea87c87b1d0815250815260200160405180604001604052807f06260e7c05ca5ad151092a548392246cb2d3ca6fbeaa07ba5aa629977702698d81526020017f07bcf63a827724040c9944cc4314d740cd02a1d7fddd54ad6aa8da63e83ca524815250815260200160405180604001604052807f13a1f861a361a435d3c15ad8be0f73afe724f09a86f2f0bc8731889232a258ed81526020017f2a2eeaf8fb3ea2c877e411b9b541abc46be4b2782bff6ec46157fe8d1f546b2881525081525081526020016040518060e0016040528060405180604001604052807f1008ad7b2099ae56dc0478b9b79dc31c9d9973352ee80a724ec1be777d49e5ef81526020017f10ce43af4007cb53217273748eff14ea3894d61d16b4d25c7e4ae5c28edc85cc815250815260200160405180604001604052807ef71c6a739cf1c46d111ea159ecfe61278f110bc41f61b4d87d10c8643ad3dc81526020017f28e6b34e8d433462f6fd110ddb1b39bab64bfc4cd5aa802fb96a2d73970c336c815250815260200160405180604001604052807f28bdb5a19bbac721cd1599254ae6278ebf250f1c5d569dc3128e21f11a5d342781526020017f0bb76843462a16985e13a6dc0592851549070ea3293c187d63f0df32f0dd6936815250815260200160405180604001604052807f0942698159a2ef1d9a9420193d83bf956081197e10ac7ab550ebd932aaf19e9081526020017f060403214a5dd63e1f8ad5821a89eb3fd389856b2d9e6d3915f6a26dfde89993815250815260200160405180604001604052807f1d4ee42feb438c818d15badde8d1ba7c615d85e6c9e93df8605470d5760f719281526020017f17b47a9569d5ec3bddafda249ac91e97070d549979262cf3692242caa17c459b815250815260200160405180604001604052807f15b8453b386c5563cce2a22af5430b941bb1709202f58ef9c4a48413d9e499c181526020017f22d52ab21357018eb24ce7508c0d04130c1ddea4a5136cb73ee58063bd8584af815250815260200160405180604001604052807f2ecf342deb9fe786ca4772c3a0b3cacae3ab5d1942e0a08eb4696041d576307181526020017f1eb6d6da821f70eb0b7b9372cfdde917839d8977b90b5ad48f472b33ac64850981525081525081526020016040518060e0016040528060405180604001604052807f168e4fddac50a40d5bcff39c7fa9207cd368444c0c01a86690a6645b52f3aa1f81526020017f2139a256456825daa623957c4f2ea1a0d26f135769e450759142a7159b0a4476815250815260200160405180604001604052807f28deba4ed0a3b79dbc6a7dac67c07051f421904de49dcd7ae91aaf1223bc6d6381526020017f1c3976c9a490dad50e601586279bb60f12416a8cc141710167fcdc0dc931bffd815250815260200160405180604001604052807f0335f514c2acb9b255aae85514122267cd7d16e374c6231a2c34417d3449125481526020017f07fa1580c1cc3ed4f6d660c6f60f86afedd8a12fb90b2e8ed4f7e310c88b97f7815250815260200160405180604001604052807f20b781dd0db3b7980a4b3814128c86e597e1442d0fc9eb7f932a5229494d6b7981526020017f17d1cef436eb2f665670c7b34854e62c227043a7b111a539c0295518bbab3ca9815250815260200160405180604001604052807f260945445b4205f874ab7e203a18240e51c9d3c896ea300d40132b1c2f50299a81526020017f11087a8b76b0f957e1c482c909302916795f811a06866059e403689c01c903fb815250815260200160405180604001604052807f11d20fd81c0e5cf48ba1469ccb8ac99dcdc7cf746a6e70762a939d63dcc52dbf81526020017f2d447c5f134eff527d7bcaace88b3842c42b800d8dc049e0a6e72f5efc14293d815250815260200160405180604001604052807f107cd54a1606a6a873bed4c1b76af48975e66dcf6c127b4c799ad4fdd230b87c81526020017f1a51b81f6c07725ebcc56ebb1c482b99340eaa9bcb86cc09aed6f58a28e530b681525081525081526020016040518060e0016040528060405180604001604052807f21026f2492115bc10ad0a5d50cf101474fb0c5e53b25612d8156989bb8cbbed681526020017f1e4048744f2e211ffa8cfac1d2efbae21234bfaa15c8d640171182c9b386e8e2815250815260200160405180604001604052807f295aed6c2486154603e450f3d49b39fee1bf9ffc4bc4194f403a02d66e7954f681526020017f2f2045b5a78523c7892e775d7f8fe805563acebd5ab053745ea735ab7930afa5815250815260200160405180604001604052807f1beb6fbfbc70fb2711bc7c187cf0ec4b63ef6651b02742c9fe71de1aef7ffdb181526020017f215e8105a1a572b106c2bb0d1f0170bbf8ffda20957ea14b709a7f6cc778f966815250815260200160405180604001604052807f0e9404f55d91e9964e7b921158995a81097cf27b017273cc2c133107c653483781526020017f2902b31b20c04311298f9b90026980b7963a001834fa663eb83636ec5fdb7b6b815250815260200160405180604001604052807f0ddd515b58aa44c26b377e2c82c83c7d75722131ee7139ddb18082e2da8ddda081526020017ec958a799e9a65df6bd806e7bb76140d415ca61d1ffc2b2351b12e85553268a815250815260200160405180604001604052807f04adb15295c975c172a9a508c71dee5517223306cd091fb9881d0dca5d57d1d281526020017f08da6902b366d39b8a7ef07c831486aabbf834bbd07813bdcdb92be7850b2ca6815250815260200160405180604001604052807f094ce0ba5287bd96c37794306fe6b0c5541fc77f05aab2b4b8a80564d086bfcc81526020017f2ad90cdefdb6c12edc35cf483e270516b0ad3ed872dad6031ec705fba888258b81525081525081526020016040518060e0016040528060405180604001604052807f1b3a2deb5f90e41493bd6eca49124ffd998376cc19df2a131f619a9297e76ab281526020017f29fead8cbc4c7d473dd6a1f39e066c1a3b065c3d02407b8d977a6f4dc528e544815250815260200160405180604001604052807f27d69ef118055fceb37561e935fa4927952116ac0c00fbb8d2131ab68e12d9b081526020017f1c17e9a456e1a74448a960dcfe32f84bc0fa84f1ea428f907f0ae9e3db1e4f4d815250815260200160405180604001604052807f05bb401ea4577a1cf48cb24f6668ae5a9621b808d302044b53016f7f29fce06b81526020017f1a31802b5590506650d4bdb3b20c9ae4aec7a5e1430202ec52fbaa35c78b08a3815250815260200160405180604001604052807f07664b2723c11dccc1e71f59742b84568e6a5d1b7df21cd86f02f976047a2df681526020017f22d6d128fb4f49c32dae5f249410aaf0b2e039a9fb0f8aea8929da4bbe0cf357815250815260200160405180604001604052807f2d62d32c2ab7039c0294535b501330cc326affb6ac0c4d34a1971857fc5a5b1581526020017f27da035244e64180b7abfd1eb92e132275274b72b09a52fc42aebfb66e0068eb815250815260200160405180604001604052807f15aa7fb602df2aef2504640ebe99a0eb203f1891304b2b9635618cbfc9b56b3481526020017f0b0d0c477afc716d17d46acfa3dda4638919ec8092570b87178955f2cad9fdfb815250815260200160405180604001604052807f23c3983ac2b053ff6cab78d798397f954174f60664bc127a0babe5cb4e85a9dc81526020017f305e217ed6d494f993fa931a22615957da6fd13bc9cae958ad4d3a48c7cbbf87815250815250815250600090601162002adf92919062002af4565b5034801562002aed57600080fd5b5062002c7e565b826011600e02810192821562002b39579160200282015b8281111562002b385782518290600762002b2792919062002b4c565b50916020019190600e019062002b0b565b5b50905062002b48919062002ba4565b5090565b826007600202810192821562002b91579160200282015b8281111562002b905782518290600262002b7f92919062002bcc565b509160200191906002019062002b63565b5b50905062002ba0919062002c11565b5090565b5b8082111562002bc8576000818162002bbe919062002c39565b50600e0162002ba5565b5090565b826002810192821562002bfe579160200282015b8281111562002bfd57825182559160200191906001019062002be0565b5b50905062002c0d919062002c51565b5090565b5b8082111562002c35576000818162002c2b919062002c70565b5060020162002c12565b5090565b50806007600202019062002c4e919062002c11565b50565b5b8082111562002c6c57600081600090555060010162002c52565b5090565b506000815560010160009055565b6120fd8062002c8e6000396000f3fe608060405234801561001057600080fd5b506004361061002b5760003560e01c80639aca8f2a14610030575b600080fd5b61004a60048036038101906100459190611b9d565b61004c565b005b61005584610cd9565b935061006083610cd9565b925061006a611a04565b6040518060400160405280846000600881106100af577f4e487b7100000000000000000000000000000000000000000000000000000000600052603260045260246000fd5b60200201358152602001846001600881106100f3577f4e487b7100000000000000000000000000000000000000000000000000000000600052603260045260246000fd5b602002013581525081600001819052506040518060400160405280604051806040016040528086600260088110610153577f4e487b7100000000000000000000000000000000000000000000000000000000600052603260045260246000fd5b6020020135815260200186600360088110610197577f4e487b7100000000000000000000000000000000000000000000000000000000600052603260045260246000fd5b602002013581525081526020016040518060400160405280866004600881106101e9577f4e487b7100000000000000000000000000000000000000000000000000000000600052603260045260246000fd5b602002013581526020018660056008811061022d577f4e487b7100000000000000000000000000000000000000000000000000000000600052603260045260246000fd5b60200201358152508152508160200181905250604051806040016040528084600660088110610285577f4e487b7100000000000000000000000000000000000000000000000000000000600052603260045260246000fd5b60200201358152602001846007600881106102c9577f4e487b7100000000000000000000000000000000000000000000000000000000600052603260045260246000fd5b6020020135815250816040018190525060006102f06010846102eb9190611fc8565b610d10565b905060008160800151600081518110610332577f4e487b7100000000000000000000000000000000000000000000000000000000600052603260045260246000fd5b6020026020010151905073__$7534fe6764511721068472f39fd8abea4a$__6318c77c958273__$7534fe6764511721068472f39fd8abea4a$__636e1b699086608001516001815181106103af577f4e487b7100000000000000000000000000000000000000000000000000000000600052603260045260246000fd5b60200260200101518e6040518363ffffffff1660e01b81526004016103d5929190611edb565b604080518083038186803b1580156103ec57600080fd5b505af4158015610400573d6000803e3d6000fd5b505050506040513d601f19601f820116820180604052508101906104249190611b74565b6040518363ffffffff1660e01b8152600401610441929190611eb2565b604080518083038186803b15801561045857600080fd5b505af415801561046c573d6000803e3d6000fd5b505050506040513d601f19601f820116820180604052508101906104909190611b74565b905073__$7534fe6764511721068472f39fd8abea4a$__6318c77c958273__$7534fe6764511721068472f39fd8abea4a$__636e1b69908660800151600281518110610505577f4e487b7100000000000000000000000000000000000000000000000000000000600052603260045260246000fd5b60200260200101518d6040518363ffffffff1660e01b815260040161052b929190611edb565b604080518083038186803b15801561054257600080fd5b505af4158015610556573d6000803e3d6000fd5b505050506040513d601f19601f8201168201806040525081019061057a9190611b74565b6040518363ffffffff1660e01b8152600401610597929190611eb2565b604080518083038186803b1580156105ae57600080fd5b505af41580156105c2573d6000803e3d6000fd5b505050506040513d601f19601f820116820180604052508101906105e69190611b74565b905073__$7534fe6764511721068472f39fd8abea4a$__6318c77c958273__$7534fe6764511721068472f39fd8abea4a$__636e1b6990866080015160038151811061065b577f4e487b7100000000000000000000000000000000000000000000000000000000600052603260045260246000fd5b60200260200101518c6040518363ffffffff1660e01b8152600401610681929190611edb565b604080518083038186803b15801561069857600080fd5b505af41580156106ac573d6000803e3d6000fd5b505050506040513d601f19601f820116820180604052508101906106d09190611b74565b6040518363ffffffff1660e01b81526004016106ed929190611eb2565b604080518083038186803b15801561070457600080fd5b505af4158015610718573d6000803e3d6000fd5b505050506040513d601f19601f8201168201806040525081019061073c9190611b74565b905073__$7534fe6764511721068472f39fd8abea4a$__6318c77c958273__$7534fe6764511721068472f39fd8abea4a$__636e1b699086608001516004815181106107b1577f4e487b7100000000000000000000000000000000000000000000000000000000600052603260045260246000fd5b60200260200101518b6040518363ffffffff1660e01b81526004016107d7929190611edb565b604080518083038186803b1580156107ee57600080fd5b505af4158015610802573d6000803e3d6000fd5b505050506040513d601f19601f820116820180604052508101906108269190611b74565b6040518363ffffffff1660e01b8152600401610843929190611eb2565b604080518083038186803b15801561085a57600080fd5b505af415801561086e573d6000803e3d6000fd5b505050506040513d601f19601f820116820180604052508101906108929190611b74565b90506000600467ffffffffffffffff8111156108d7577f4e487b7100000000000000000000000000000000000000000000000000000000600052604160045260246000fd5b60405190808252806020026020018201604052801561091057816020015b6108fd611a37565b8152602001906001900390816108f55790505b5090506000600467ffffffffffffffff811115610956577f4e487b7100000000000000000000000000000000000000000000000000000000600052604160045260246000fd5b60405190808252806020026020018201604052801561098f57816020015b61097c611a51565b8152602001906001900390816109745790505b50905073__$7534fe6764511721068472f39fd8abea4a$__63a680077586600001516040518263ffffffff1660e01b81526004016109cd9190611e97565b604080518083038186803b1580156109e457600080fd5b505af41580156109f8573d6000803e3d6000fd5b505050506040513d601f19601f82011682018060405250810190610a1c9190611b74565b82600081518110610a56577f4e487b7100000000000000000000000000000000000000000000000000000000600052603260045260246000fd5b6020026020010181905250846020015181600081518110610aa0577f4e487b7100000000000000000000000000000000000000000000000000000000600052603260045260246000fd5b6020026020010181905250836000015182600181518110610aea577f4e487b7100000000000000000000000000000000000000000000000000000000600052603260045260246000fd5b6020026020010181905250836020015181600181518110610b34577f4e487b7100000000000000000000000000000000000000000000000000000000600052603260045260246000fd5b60200260200101819052508282600281518110610b7a577f4e487b7100000000000000000000000000000000000000000000000000000000600052603260045260246000fd5b6020026020010181905250836040015181600281518110610bc4577f4e487b7100000000000000000000000000000000000000000000000000000000600052603260045260246000fd5b6020026020010181905250846040015182600381518110610c0e577f4e487b7100000000000000000000000000000000000000000000000000000000600052603260045260246000fd5b6020026020010181905250836060015181600381518110610c58577f4e487b7100000000000000000000000000000000000000000000000000000000600052603260045260246000fd5b602002602001018190525073__$7534fe6764511721068472f39fd8abea4a$__632f3ed53983836040518363ffffffff1660e01b8152600401610c9c929190611e60565b60006040518083038186803b158015610cb457600080fd5b505af4158015610cc8573d6000803e3d6000fd5b505050505050505050505050505050565b6000600882604051602001610cee9190611e45565b6040516020818303038152906040528051906020012060001c901c9050919050565b610d18611a77565b610d20611a77565b60405180604001604052807f2d4d9aa7e302d9df41749d5507949d05dbea33fbb16c643b22f599a2be6df2e281526020017f14bedd503c37ceb061d8ec60209fe345ce89830a19230301f076caff004d19268152508160000181905250604051806040016040528060405180604001604052807f0967032fcbf776d1afc985f88877f182d38480a653f2decaa9794cbc3bf3060c81526020017f0e187847ad4c798374d0d6732bf501847dd68bc0e071241e0213bc7fc13db7ab815250815260200160405180604001604052807f304cfbd1e08a704a99f5e847d93f8c3caafddec46b7a0d379da69a4d112346a781526020017f1739c1b1a457a8c7313123d24d2f9192f896b7c63eea05a9d57f06547ad0cec88152508152508160200181905250604051806040016040528060405180604001604052807f198e9393920d483a7260bfb731fb5d25f1aa493335a9e71297e485b7aef312c281526020017f1800deef121f1e76426a00665e5c4479674322d4f75edadd46debd5cd992f6ed815250815260200160405180604001604052807f090689d0585ff075ec9e99ad690c3395bc4b313370b38ef355acdadcd122975b81526020017f12c85ea5db8c6deb4aab71808dcb408fe3d1e7690c43d37b4ce6cc0166fa7daa8152508152508160400181905250604051806040016040528060008560118110610f4c577f4e487b7100000000000000000000000000000000000000000000000000000000600052603260045260246000fd5b600e0201600060078110610f89577f4e487b7100000000000000000000000000000000000000000000000000000000600052603260045260246000fd5b60020201600280602002604051908101604052809291908260028015610fc4576020028201915b815481526020019060010190808311610fb0575b5050505050815260200160008560118110611008577f4e487b7100000000000000000000000000000000000000000000000000000000600052603260045260246000fd5b600e0201600160078110611045577f4e487b7100000000000000000000000000000000000000000000000000000000600052603260045260246000fd5b60020201600280602002604051908101604052809291908260028015611080576020028201915b81548152602001906001019080831161106c575b50505050508152508160600181905250600567ffffffffffffffff8111156110d1577f4e487b7100000000000000000000000000000000000000000000000000000000600052604160045260246000fd5b60405190808252806020026020018201604052801561110a57816020015b6110f7611a37565b8152602001906001900390816110ef5790505b508160800181905250604051806040016040528060008560118110611158577f4e487b7100000000000000000000000000000000000000000000000000000000600052603260045260246000fd5b600e0201600260078110611195577f4e487b7100000000000000000000000000000000000000000000000000000000600052603260045260246000fd5b600202016000600281106111d2577f4e487b7100000000000000000000000000000000000000000000000000000000600052603260045260246000fd5b0154815260200160008560118110611213577f4e487b7100000000000000000000000000000000000000000000000000000000600052603260045260246000fd5b600e0201600260078110611250577f4e487b7100000000000000000000000000000000000000000000000000000000600052603260045260246000fd5b6002020160016002811061128d577f4e487b7100000000000000000000000000000000000000000000000000000000600052603260045260246000fd5b015481525081608001516000815181106112d0577f4e487b7100000000000000000000000000000000000000000000000000000000600052603260045260246000fd5b6020026020010181905250604051806040016040528060008560118110611320577f4e487b7100000000000000000000000000000000000000000000000000000000600052603260045260246000fd5b600e020160036007811061135d577f4e487b7100000000000000000000000000000000000000000000000000000000600052603260045260246000fd5b6002020160006002811061139a577f4e487b7100000000000000000000000000000000000000000000000000000000600052603260045260246000fd5b01548152602001600085601181106113db577f4e487b7100000000000000000000000000000000000000000000000000000000600052603260045260246000fd5b600e0201600360078110611418577f4e487b7100000000000000000000000000000000000000000000000000000000600052603260045260246000fd5b60020201600160028110611455577f4e487b7100000000000000000000000000000000000000000000000000000000600052603260045260246000fd5b01548152508160800151600181518110611498577f4e487b7100000000000000000000000000000000000000000000000000000000600052603260045260246000fd5b60200260200101819052506040518060400160405280600085601181106114e8577f4e487b7100000000000000000000000000000000000000000000000000000000600052603260045260246000fd5b600e0201600460078110611525577f4e487b7100000000000000000000000000000000000000000000000000000000600052603260045260246000fd5b60020201600060028110611562577f4e487b7100000000000000000000000000000000000000000000000000000000600052603260045260246000fd5b01548152602001600085601181106115a3577f4e487b7100000000000000000000000000000000000000000000000000000000600052603260045260246000fd5b600e02016004600781106115e0577f4e487b7100000000000000000000000000000000000000000000000000000000600052603260045260246000fd5b6002020160016002811061161d577f4e487b7100000000000000000000000000000000000000000000000000000000600052603260045260246000fd5b01548152508160800151600281518110611660577f4e487b7100000000000000000000000000000000000000000000000000000000600052603260045260246000fd5b60200260200101819052506040518060400160405280600085601181106116b0577f4e487b7100000000000000000000000000000000000000000000000000000000600052603260045260246000fd5b600e02016005600781106116ed577f4e487b7100000000000000000000000000000000000000000000000000000000600052603260045260246000fd5b6002020160006002811061172a577f4e487b7100000000000000000000000000000000000000000000000000000000600052603260045260246000fd5b015481526020016000856011811061176b577f4e487b7100000000000000000000000000000000000000000000000000000000600052603260045260246000fd5b600e02016005600781106117a8577f4e487b7100000000000000000000000000000000000000000000000000000000600052603260045260246000fd5b600202016001600281106117e5577f4e487b7100000000000000000000000000000000000000000000000000000000600052603260045260246000fd5b01548152508160800151600381518110611828577f4e487b7100000000000000000000000000000000000000000000000000000000600052603260045260246000fd5b6020026020010181905250604051806040016040528060008560118110611878577f4e487b7100000000000000000000000000000000000000000000000000000000600052603260045260246000fd5b600e02016006600781106118b5577f4e487b7100000000000000000000000000000000000000000000000000000000600052603260045260246000fd5b600202016000600281106118f2577f4e487b7100000000000000000000000000000000000000000000000000000000600052603260045260246000fd5b0154815260200160008560118110611933577f4e487b7100000000000000000000000000000000000000000000000000000000600052603260045260246000fd5b600e0201600660078110611970577f4e487b7100000000000000000000000000000000000000000000000000000000600052603260045260246000fd5b600202016001600281106119ad577f4e487b7100000000000000000000000000000000000000000000000000000000600052603260045260246000fd5b015481525081608001516004815181106119f0577f4e487b7100000000000000000000000000000000000000000000000000000000600052603260045260246000fd5b602002602001018190525080915050919050565b6040518060600160405280611a17611a37565b8152602001611a24611a51565b8152602001611a31611a37565b81525090565b604051806040016040528060008152602001600081525090565b6040518060400160405280611a64611abe565b8152602001611a71611abe565b81525090565b6040518060a00160405280611a8a611a37565b8152602001611a97611a51565b8152602001611aa4611a51565b8152602001611ab1611a51565b8152602001606081525090565b6040518060400160405280600290602082028036833780820191505090505090565b600081905082602060080282011115611af857600080fd5b92915050565b600060408284031215611b1057600080fd5b611b1a6040611f04565b90506000611b2a84828501611b5f565b6000830152506020611b3e84828501611b5f565b60208301525092915050565b600081359050611b59816120b0565b92915050565b600081519050611b6e816120b0565b92915050565b600060408284031215611b8657600080fd5b6000611b9484828501611afe565b91505092915050565b6000806000806000806101a08789031215611bb757600080fd5b6000611bc589828a01611b4a565b9650506020611bd689828a01611b4a565b9550506040611be789828a01611b4a565b9450506060611bf889828a01611b4a565b9350506080611c0989828a01611ae0565b925050610180611c1b89828a01611b4a565b9150509295509295509295565b6000611c348383611db2565b60408301905092915050565b6000611c4c8383611de1565b60808301905092915050565b6000611c648383611e1f565b60208301905092915050565b6000611c7b82611f53565b611c858185611f9b565b9350611c9083611f29565b8060005b83811015611cc1578151611ca88882611c28565b9750611cb383611f74565b925050600181019050611c94565b5085935050505092915050565b6000611cd982611f5e565b611ce38185611fac565b9350611cee83611f39565b8060005b83811015611d1f578151611d068882611c40565b9750611d1183611f81565b925050600181019050611cf2565b5085935050505092915050565b611d3581611f69565b611d3f8184611fbd565b9250611d4a82611f49565b8060005b83811015611d7b578151611d628782611c58565b9650611d6d83611f8e565b925050600181019050611d4e565b505050505050565b604082016000820151611d996000850182611e1f565b506020820151611dac6020850182611e1f565b50505050565b604082016000820151611dc86000850182611e1f565b506020820151611ddb6020850182611e1f565b50505050565b608082016000820151611df76000850182611d2c565b506020820151611e0a6040850182611d2c565b50505050565b611e1981611ffc565b82525050565b611e2881611ffc565b82525050565b611e3f611e3a82611ffc565b612037565b82525050565b6000611e518284611e2e565b60208201915081905092915050565b60006040820190508181036000830152611e7a8185611c70565b90508181036020830152611e8e8184611cce565b90509392505050565b6000604082019050611eac6000830184611d83565b92915050565b6000608082019050611ec76000830185611d83565b611ed46040830184611d83565b9392505050565b6000606082019050611ef06000830185611d83565b611efd6040830184611e10565b9392505050565b6000611f0e611f1f565b9050611f1a8282612006565b919050565b6000604051905090565b6000819050602082019050919050565b6000819050602082019050919050565b6000819050919050565b600081519050919050565b600081519050919050565b600060029050919050565b6000602082019050919050565b6000602082019050919050565b6000602082019050919050565b600082825260208201905092915050565b600082825260208201905092915050565b600081905092915050565b6000611fd382611ffc565b9150611fde83611ffc565b925082821015611ff157611ff0612041565b5b828203905092915050565b6000819050919050565b61200f8261209f565b810181811067ffffffffffffffff8211171561202e5761202d612070565b5b80604052505050565b6000819050919050565b7f4e487b7100000000000000000000000000000000000000000000000000000000600052601160045260246000fd5b7f4e487b7100000000000000000000000000000000000000000000000000000000600052604160045260246000fd5b6000601f19601f8301169050919050565b6120b981611ffc565b81146120c457600080fd5b5056fea2646970667358221220f65aa9ba294671957da541442243772da21d134a1b1258556fe3a6f0a704a02a64736f6c63430008040033",
  "linkReferences": {
    "@semaphore-protocol/contracts/base/Pairing.sol": {
      "Pairing": [
        {
          "length": 20,
          "start": 12236
        },
        {
          "length": 20,
          "start": 12263
        },
        {
          "length": 20,
          "start": 12578
        },
        {
          "length": 20,
          "start": 12605
        },
        {
          "length": 20,
          "start": 12920
        },
        {
          "length": 20,
          "start": 12947
        },
        {
          "length": 20,
          "start": 13262
        },
        {
          "length": 20,
          "start": 13289
        },
        {
          "length": 20,
          "start": 13858
        },
        {
          "length": 20,
          "start": 14579
        }
      ]
    }
  },
  "deployedLinkReferences": {
    "@semaphore-protocol/contracts/base/Pairing.sol": {
      "Pairing": [
        {
          "length": 20,
          "start": 830
        },
        {
          "length": 20,
          "start": 857
        },
        {
          "length": 20,
          "start": 1172
        },
        {
          "length": 20,
          "start": 1199
        },
        {
          "length": 20,
          "start": 1514
        },
        {
          "length": 20,
          "start": 1541
        },
        {
          "length": 20,
          "start": 1856
        },
        {
          "length": 20,
          "start": 1883
        },
        {
          "length": 20,
          "start": 2452
        },
        {
          "length": 20,
          "start": 3173
        }
      ]
    }
  }
}