{
  "_format": "hh-sol-artifact-1",
  "contractName": "MiMC",
  "sourceName": "contracts/MiMC.sol",
  "abi": [
    {
      "inputs": [
        {
          "internalType": "uint256",
          "name": "in_xL",
          "type": "uint256"
        },
        {
          "internalType": "uint256",
          "name": "in_xR",
          "type": "uint256"
        }
      ],
      "name": "MiMCSponge",
      "outputs": [
        {
          "internalType": "uint256",
          "name": "xL",
          "type": "uint256"
        },
        {
          "internalType": "uint256",
          "name": "xR",
          "type": "uint256"
        }
      ],
      "stateMutability": "pure",
      "type": "function"
    }
  ],
  "bytecode": "0x60bc610039600b82828239805160001a60731461002c57634e487b7160e01b600052600060045260246000fd5b30600052607381538281f3fe730000000000000000000000000000000000000000301460806040526004361060335760003560e01c8063f47d33b5146038575b600080fd5b604c60433660046065565b50600091829150565b6040805192835260208301919091520160405180910390f35b60008060408385031215607757600080fd5b5050803592602090910135915056fea2646970667358221220708f075b0af2eb46a27122bf1aa32b34deb6b042596c1fcaf945caef8913fda164736f6c63430008090033",
  "linkReferences": {},
  "deployedLinkReferences": {}
}