{
  "_format": "hh-sol-artifact-1",
  "contractName": "BordaBallot",
  "sourceName": "contracts/facets/votingApp/ballot/BordaBallot.sol",
  "abi": [
    {
      "inputs": [
        {
          "internalType": "uint256",
          "name": "_candidate",
          "type": "uint256"
        }
      ],
      "name": "addCandidate",
      "outputs": [],
      "stateMutability": "nonpayable",
      "type": "function"
    },
    {
      "inputs": [],
      "name": "getCandidates",
      "outputs": [
        {
          "internalType": "uint256[]",
          "name": "",
          "type": "uint256[]"
        }
      ],
      "stateMutability": "view",
      "type": "function"
    },
    {
      "inputs": [],
      "name": "getVoteArr",
      "outputs": [
        {
          "internalType": "uint256[][]",
          "name": "",
          "type": "uint256[][]"
        }
      ],
      "stateMutability": "nonpayable",
      "type": "function"
    },
    {
      "inputs": [
        {
          "internalType": "uint256",
          "name": "_candidate",
          "type": "uint256"
        },
        {
          "internalType": "uint256",
          "name": "_preference",
          "type": "uint256"
        }
      ],
      "name": "getVoteCount",
      "outputs": [
        {
          "internalType": "uint256",
          "name": "",
          "type": "uint256"
        }
      ],
      "stateMutability": "view",
      "type": "function"
    },
    {
      "inputs": [
        {
          "internalType": "address",
          "name": "_voter",
          "type": "address"
        }
      ],
      "name": "getVoteStatus",
      "outputs": [
        {
          "internalType": "bool",
          "name": "",
          "type": "bool"
        }
      ],
      "stateMutability": "view",
      "type": "function"
    },
    {
      "inputs": [
        {
          "internalType": "address",
          "name": "_contractOwner",
          "type": "address"
        }
      ],
      "name": "initialize",
      "outputs": [],
      "stateMutability": "nonpayable",
      "type": "function"
    },
    {
      "inputs": [
        {
          "internalType": "address",
          "name": "_voter",
          "type": "address"
        },
        {
          "internalType": "uint256",
          "name": "_candidate",
          "type": "uint256"
        },
        {
          "internalType": "uint256",
          "name": "_preference",
          "type": "uint256"
        },
        {
          "internalType": "uint256[]",
          "name": "voteArr",
          "type": "uint256[]"
        }
      ],
      "name": "vote",
      "outputs": [],
      "stateMutability": "nonpayable",
      "type": "function"
    }
  ],
  "bytecode": "0x608060405234801561001057600080fd5b50610ec6806100206000396000f3fe608060405234801561001057600080fd5b506004361061007d5760003560e01c8063afa524081161005b578063afa52408146100ec578063c4d66de81461010a578063de2e19a014610126578063e844d097146101565761007d565b806306a49fce14610082578063521b0dcc146100a0578063a1818ac4146100d0575b600080fd5b61008a610172565b60405161009791906107a7565b60405180910390f35b6100ba60048036038101906100b5919061083b565b6101ca565b6040516100c79190610883565b60405180910390f35b6100ea60048036038101906100e59190610a23565b610220565b005b6100f46104e9565b6040516101019190610bd7565b60405180910390f35b610124600480360381019061011f919061083b565b610588565b005b610140600480360381019061013b9190610bf9565b61063d565b60405161014d9190610c48565b60405180910390f35b610170600480360381019061016b9190610c63565b610649565b005b606060008054806020026020016040519081016040528092919081815260200182805480156101c057602002820191906000526020600020905b8154815260200190600101908083116101ac575b5050505050905090565b6000600160008373ffffffffffffffffffffffffffffffffffffffff1673ffffffffffffffffffffffffffffffffffffffff16815260200190815260200160002060009054906101000a900460ff169050919050565b600260009054906101000a900473ffffffffffffffffffffffffffffffffffffffff1673ffffffffffffffffffffffffffffffffffffffff163373ffffffffffffffffffffffffffffffffffffffff16146102b0576040517f08c379a00000000000000000000000000000000000000000000000000000000081526004016102a790610d13565b60405180910390fd5b60001515600160008673ffffffffffffffffffffffffffffffffffffffff1673ffffffffffffffffffffffffffffffffffffffff16815260200190815260200160002060009054906101000a900460ff16151514610343576040517f08c379a000000000000000000000000000000000000000000000000000000000815260040161033a90610d7f565b60405180910390fd5b60038190806001815401808255809150506001900390600052602060002001600090919091909150908051906020019061037e929190610675565b506001600560008673ffffffffffffffffffffffffffffffffffffffff1673ffffffffffffffffffffffffffffffffffffffff16815260200190815260200160002060008282546103cf9190610dce565b925050819055506001600460008673ffffffffffffffffffffffffffffffffffffffff1673ffffffffffffffffffffffffffffffffffffffff168152602001908152602001600020600085815260200190815260200160002060006101000a81548160ff021916908315150217905550600080549050600560008673ffffffffffffffffffffffffffffffffffffffff1673ffffffffffffffffffffffffffffffffffffffff1681526020019081526020016000205414156104e35760018060008673ffffffffffffffffffffffffffffffffffffffff1673ffffffffffffffffffffffffffffffffffffffff16815260200190815260200160002060006101000a81548160ff0219169083151502179055505b50505050565b60606003805480602002602001604051908101604052809291908181526020016000905b8282101561057f5783829060005260206000200180548060200260200160405190810160405280929190818152602001828054801561056b57602002820191906000526020600020905b815481526020019060010190808311610557575b50505050508152602001906001019061050d565b50505050905090565b60001515600260149054906101000a900460ff161515146105de576040517f08c379a00000000000000000000000000000000000000000000000000000000081526004016105d590610e70565b60405180910390fd5b80600260006101000a81548173ffffffffffffffffffffffffffffffffffffffff021916908373ffffffffffffffffffffffffffffffffffffffff1602179055506001600260146101000a81548160ff02191690831515021790555050565b60006001905092915050565b600081908060018154018082558091505060019003906000526020600020016000909190919091505550565b8280548282559060005260206000209081019282156106b1579160200282015b828111156106b0578251825591602001919060010190610695565b5b5090506106be91906106c2565b5090565b5b808211156106db5760008160009055506001016106c3565b5090565b600081519050919050565b600082825260208201905092915050565b6000819050602082019050919050565b6000819050919050565b61071e8161070b565b82525050565b60006107308383610715565b60208301905092915050565b6000602082019050919050565b6000610754826106df565b61075e81856106ea565b9350610769836106fb565b8060005b8381101561079a5781516107818882610724565b975061078c8361073c565b92505060018101905061076d565b5085935050505092915050565b600060208201905081810360008301526107c18184610749565b905092915050565b6000604051905090565b600080fd5b600080fd5b600073ffffffffffffffffffffffffffffffffffffffff82169050919050565b6000610808826107dd565b9050919050565b610818816107fd565b811461082357600080fd5b50565b6000813590506108358161080f565b92915050565b600060208284031215610851576108506107d3565b5b600061085f84828501610826565b91505092915050565b60008115159050919050565b61087d81610868565b82525050565b60006020820190506108986000830184610874565b92915050565b6108a78161070b565b81146108b257600080fd5b50565b6000813590506108c48161089e565b92915050565b600080fd5b6000601f19601f8301169050919050565b7f4e487b7100000000000000000000000000000000000000000000000000000000600052604160045260246000fd5b610918826108cf565b810181811067ffffffffffffffff82111715610937576109366108e0565b5b80604052505050565b600061094a6107c9565b9050610956828261090f565b919050565b600067ffffffffffffffff821115610976576109756108e0565b5b602082029050602081019050919050565b600080fd5b600061099f61099a8461095b565b610940565b905080838252602082019050602084028301858111156109c2576109c1610987565b5b835b818110156109eb57806109d788826108b5565b8452602084019350506020810190506109c4565b5050509392505050565b600082601f830112610a0a57610a096108ca565b5b8135610a1a84826020860161098c565b91505092915050565b60008060008060808587031215610a3d57610a3c6107d3565b5b6000610a4b87828801610826565b9450506020610a5c878288016108b5565b9350506040610a6d878288016108b5565b925050606085013567ffffffffffffffff811115610a8e57610a8d6107d8565b5b610a9a878288016109f5565b91505092959194509250565b600081519050919050565b600082825260208201905092915050565b6000819050602082019050919050565b600082825260208201905092915050565b6000610aee826106df565b610af88185610ad2565b9350610b03836106fb565b8060005b83811015610b34578151610b1b8882610724565b9750610b268361073c565b925050600181019050610b07565b5085935050505092915050565b6000610b4d8383610ae3565b905092915050565b6000602082019050919050565b6000610b6d82610aa6565b610b778185610ab1565b935083602082028501610b8985610ac2565b8060005b85811015610bc55784840389528151610ba68582610b41565b9450610bb183610b55565b925060208a01995050600181019050610b8d565b50829750879550505050505092915050565b60006020820190508181036000830152610bf18184610b62565b905092915050565b60008060408385031215610c1057610c0f6107d3565b5b6000610c1e858286016108b5565b9250506020610c2f858286016108b5565b9150509250929050565b610c428161070b565b82525050565b6000602082019050610c5d6000830184610c39565b92915050565b600060208284031215610c7957610c786107d3565b5b6000610c87848285016108b5565b91505092915050565b600082825260208201905092915050565b7f4d7573742062652063616c6c65642066726f6d2074686520656c656374696f6e60008201527f206f7267616e697a657220636f6e747261637400000000000000000000000000602082015250565b6000610cfd603383610c90565b9150610d0882610ca1565b604082019050919050565b60006020820190508181036000830152610d2c81610cf0565b9050919050565b7f566f74657220616c726561647920766f74656400000000000000000000000000600082015250565b6000610d69601383610c90565b9150610d7482610d33565b602082019050919050565b60006020820190508181036000830152610d9881610d5c565b9050919050565b7f4e487b7100000000000000000000000000000000000000000000000000000000600052601160045260246000fd5b6000610dd98261070b565b9150610de48361070b565b9250827fffffffffffffffffffffffffffffffffffffffffffffffffffffffffffffffff03821115610e1957610e18610d9f565b5b828201905092915050565b7f416c726561647920496e697469616c697a656400000000000000000000000000600082015250565b6000610e5a601383610c90565b9150610e6582610e24565b602082019050919050565b60006020820190508181036000830152610e8981610e4d565b905091905056fea26469706673582212209bb2bbe8ee94c9bb4812eef2c437972ce8eca3c17bf56acec59e6ba8cdb9231d64736f6c634300080a0033",
  "linkReferences": {},
  "deployedLinkReferences": {}
}