{
  "_format": "hh-sol-artifact-1",
  "contractName": "BallotGenerator",
  "sourceName": "contracts/ballots/BallotGenerator.sol",
  "abi": [
    {
      "inputs": [
        {
          "internalType": "uint256",
          "name": "_ballotType",
          "type": "uint256"
        },
        {
          "internalType": "address",
          "name": "_electionAddress",
          "type": "address"
        }
      ],
      "name": "generateBallot",
      "outputs": [
        {
          "internalType": "address",
          "name": "",
          "type": "address"
        }
      ],
      "stateMutability": "nonpayable",
      "type": "function"
    }
  ],
  "bytecode": "0x608060405234801561001057600080fd5b5061567d806100206000396000f3fe608060405234801561001057600080fd5b506004361061002b5760003560e01c806390b352f714610030575b600080fd5b61004a600480360381019061004591906103b8565b610060565b6040516100579190610407565b60405180910390f35b6000600183036100a55781604051610077906102b7565b6100819190610407565b604051809103906000f08015801561009d573d6000803e3d6000fd5b5090506102b1565b600283036100e857816040516100ba906102c4565b6100c49190610407565b604051809103906000f0801580156100e0573d6000803e3d6000fd5b5090506102b1565b6003830361012b57816040516100fd906102d1565b6101079190610407565b604051809103906000f080158015610123573d6000803e3d6000fd5b5090506102b1565b6004830361016e5781604051610140906102de565b61014a9190610407565b604051809103906000f080158015610166573d6000803e3d6000fd5b5090506102b1565b600583036101b15781604051610183906102eb565b61018d9190610407565b604051809103906000f0801580156101a9573d6000803e3d6000fd5b5090506102b1565b600683036101f457816040516101c6906102f8565b6101d09190610407565b604051809103906000f0801580156101ec573d6000803e3d6000fd5b5090506102b1565b60078303610237578160405161020990610305565b6102139190610407565b604051809103906000f08015801561022f573d6000803e3d6000fd5b5090506102b1565b6008830361027a578160405161024c90610312565b6102569190610407565b604051809103906000f080158015610272573d6000803e3d6000fd5b5090506102b1565b81604051610287906102b7565b6102919190610407565b604051809103906000f0801580156102ad573d6000803e3d6000fd5b5090505b92915050565b6109da8061042383390190565b6109cb80610dfd83390190565b6108e5806117c883390190565b6108e5806120ad83390190565b610a488061299283390190565b610a24806133da83390190565b610c2580613dfe83390190565b610c2580614a2383390190565b600080fd5b6000819050919050565b61033781610324565b811461034257600080fd5b50565b6000813590506103548161032e565b92915050565b600073ffffffffffffffffffffffffffffffffffffffff82169050919050565b60006103858261035a565b9050919050565b6103958161037a565b81146103a057600080fd5b50565b6000813590506103b28161038c565b92915050565b600080604083850312156103cf576103ce61031f565b5b60006103dd85828601610345565b92505060206103ee858286016103a3565b9150509250929050565b6104018161037a565b82525050565b600060208201905061041c60008301846103f8565b9291505056fe608060405234801561001057600080fd5b506040516109da3803806109da833981810160405281019061003291906100db565b806000806101000a81548173ffffffffffffffffffffffffffffffffffffffff021916908373ffffffffffffffffffffffffffffffffffffffff16021790555050610108565b600080fd5b600073ffffffffffffffffffffffffffffffffffffffff82169050919050565b60006100a88261007d565b9050919050565b6100b88161009d565b81146100c357600080fd5b50565b6000815190506100d5816100af565b92915050565b6000602082840312156100f1576100f0610078565b5b60006100ff848285016100c6565b91505092915050565b6108c3806101176000396000f3fe608060405234801561001057600080fd5b506004361061004c5760003560e01c80630dc9601514610051578063b7b0422d1461006f578063ce11f2bb1461008b578063e407bcbd146100a7575b600080fd5b6100596100c5565b604051610066919061055a565b60405180910390f35b610089600480360381019061008491906105bc565b6101a2565b005b6100a560048036038101906100a09190610742565b610290565b005b6100af6103c6565b6040516100bc91906107cc565b60405180910390f35b606060008054906101000a900473ffffffffffffffffffffffffffffffffffffffff1673ffffffffffffffffffffffffffffffffffffffff163373ffffffffffffffffffffffffffffffffffffffff161461014c576040517fa0acb8a400000000000000000000000000000000000000000000000000000000815260040160405180910390fd5b600280548060200260200160405190810160405280929190818152602001828054801561019857602002820191906000526020600020905b815481526020019060010190808311610184575b5050505050905090565b60008054906101000a900473ffffffffffffffffffffffffffffffffffffffff1673ffffffffffffffffffffffffffffffffffffffff163373ffffffffffffffffffffffffffffffffffffffff1614610227576040517fa0acb8a400000000000000000000000000000000000000000000000000000000815260040160405180910390fd5b806001819055508067ffffffffffffffff811115610248576102476105ff565b5b6040519080825280602002602001820160405280156102765781602001602082028036833780820191505090505b506002908051906020019061028c929190610428565b5050565b60008054906101000a900473ffffffffffffffffffffffffffffffffffffffff1673ffffffffffffffffffffffffffffffffffffffff163373ffffffffffffffffffffffffffffffffffffffff1614610315576040517fa0acb8a400000000000000000000000000000000000000000000000000000000815260040160405180910390fd5b6001815114610350576040517f5495aae600000000000000000000000000000000000000000000000000000000815260040160405180910390fd5b61037481600081518110610367576103666107e7565b5b60200260200101516103ea565b60028160008151811061038a576103896107e7565b5b6020026020010151815481106103a3576103a26107e7565b5b9060005260206000200160008154809291906103be90610845565b919050555050565b60008054906101000a900473ffffffffffffffffffffffffffffffffffffffff1681565b6001548110610425576040517f5c87eb8a00000000000000000000000000000000000000000000000000000000815260040160405180910390fd5b50565b828054828255906000526020600020908101928215610464579160200282015b82811115610463578251825591602001919060010190610448565b5b5090506104719190610475565b5090565b5b8082111561048e576000816000905550600101610476565b5090565b600081519050919050565b600082825260208201905092915050565b6000819050602082019050919050565b6000819050919050565b6104d1816104be565b82525050565b60006104e383836104c8565b60208301905092915050565b6000602082019050919050565b600061050782610492565b610511818561049d565b935061051c836104ae565b8060005b8381101561054d57815161053488826104d7565b975061053f836104ef565b925050600181019050610520565b5085935050505092915050565b6000602082019050818103600083015261057481846104fc565b905092915050565b6000604051905090565b600080fd5b600080fd5b610599816104be565b81146105a457600080fd5b50565b6000813590506105b681610590565b92915050565b6000602082840312156105d2576105d1610586565b5b60006105e0848285016105a7565b91505092915050565b600080fd5b6000601f19601f8301169050919050565b7f4e487b7100000000000000000000000000000000000000000000000000000000600052604160045260246000fd5b610637826105ee565b810181811067ffffffffffffffff82111715610656576106556105ff565b5b80604052505050565b600061066961057c565b9050610675828261062e565b919050565b600067ffffffffffffffff821115610695576106946105ff565b5b602082029050602081019050919050565b600080fd5b60006106be6106b98461067a565b61065f565b905080838252602082019050602084028301858111156106e1576106e06106a6565b5b835b8181101561070a57806106f688826105a7565b8452602084019350506020810190506106e3565b5050509392505050565b600082601f830112610729576107286105e9565b5b81356107398482602086016106ab565b91505092915050565b60006020828403121561075857610757610586565b5b600082013567ffffffffffffffff8111156107765761077561058b565b5b61078284828501610714565b91505092915050565b600073ffffffffffffffffffffffffffffffffffffffff82169050919050565b60006107b68261078b565b9050919050565b6107c6816107ab565b82525050565b60006020820190506107e160008301846107bd565b92915050565b7f4e487b7100000000000000000000000000000000000000000000000000000000600052603260045260246000fd5b7f4e487b7100000000000000000000000000000000000000000000000000000000600052601160045260246000fd5b6000610850826104be565b91507fffffffffffffffffffffffffffffffffffffffffffffffffffffffffffffffff820361088257610881610816565b5b60018201905091905056fea264697066735822122033138643efbc4d660fa7ed30e57204c83eb97dcf81c3378b79592b18d192eb7264736f6c63430008180033608060405234801561001057600080fd5b506040516109cb3803806109cb833981810160405281019061003291906100db565b806000806101000a81548173ffffffffffffffffffffffffffffffffffffffff021916908373ffffffffffffffffffffffffffffffffffffffff16021790555050610108565b600080fd5b600073ffffffffffffffffffffffffffffffffffffffff82169050919050565b60006100a88261007d565b9050919050565b6100b88161009d565b81146100c357600080fd5b50565b6000815190506100d5816100af565b92915050565b6000602082840312156100f1576100f0610078565b5b60006100ff848285016100c6565b91505092915050565b6108b4806101176000396000f3fe608060405234801561001057600080fd5b506004361061004c5760003560e01c80630dc9601514610051578063b7b0422d1461006f578063ce11f2bb1461008b578063e407bcbd146100a7575b600080fd5b6100596100c5565b604051610066919061052b565b60405180910390f35b6100896004803603810190610084919061058d565b6101a2565b005b6100a560048036038101906100a09190610713565b610289565b005b6100af6103d5565b6040516100bc919061079d565b60405180910390f35b606060008054906101000a900473ffffffffffffffffffffffffffffffffffffffff1673ffffffffffffffffffffffffffffffffffffffff163373ffffffffffffffffffffffffffffffffffffffff161461014c576040517fa0acb8a400000000000000000000000000000000000000000000000000000000815260040160405180910390fd5b600180548060200260200160405190810160405280929190818152602001828054801561019857602002820191906000526020600020905b815481526020019060010190808311610184575b5050505050905090565b60008054906101000a900473ffffffffffffffffffffffffffffffffffffffff1673ffffffffffffffffffffffffffffffffffffffff163373ffffffffffffffffffffffffffffffffffffffff1614610227576040517fa0acb8a400000000000000000000000000000000000000000000000000000000815260040160405180910390fd5b8067ffffffffffffffff811115610241576102406105d0565b5b60405190808252806020026020018201604052801561026f5781602001602082028036833780820191505090505b50600190805190602001906102859291906103f9565b5050565b60008054906101000a900473ffffffffffffffffffffffffffffffffffffffff1673ffffffffffffffffffffffffffffffffffffffff163373ffffffffffffffffffffffffffffffffffffffff161461030e576040517fa0acb8a400000000000000000000000000000000000000000000000000000000815260040160405180910390fd5b6000600180549050905080825114610352576040517f6e2ca24900000000000000000000000000000000000000000000000000000000815260040160405180910390fd5b60005b818110156103d0576001818361036b91906107e7565b61037591906107e7565b600184838151811061038a5761038961081b565b5b6020026020010151815481106103a3576103a261081b565b5b9060005260206000200160008282546103bc919061084a565b925050819055508080600101915050610355565b505050565b60008054906101000a900473ffffffffffffffffffffffffffffffffffffffff1681565b828054828255906000526020600020908101928215610435579160200282015b82811115610434578251825591602001919060010190610419565b5b5090506104429190610446565b5090565b5b8082111561045f576000816000905550600101610447565b5090565b600081519050919050565b600082825260208201905092915050565b6000819050602082019050919050565b6000819050919050565b6104a28161048f565b82525050565b60006104b48383610499565b60208301905092915050565b6000602082019050919050565b60006104d882610463565b6104e2818561046e565b93506104ed8361047f565b8060005b8381101561051e57815161050588826104a8565b9750610510836104c0565b9250506001810190506104f1565b5085935050505092915050565b6000602082019050818103600083015261054581846104cd565b905092915050565b6000604051905090565b600080fd5b600080fd5b61056a8161048f565b811461057557600080fd5b50565b60008135905061058781610561565b92915050565b6000602082840312156105a3576105a2610557565b5b60006105b184828501610578565b91505092915050565b600080fd5b6000601f19601f8301169050919050565b7f4e487b7100000000000000000000000000000000000000000000000000000000600052604160045260246000fd5b610608826105bf565b810181811067ffffffffffffffff82111715610627576106266105d0565b5b80604052505050565b600061063a61054d565b905061064682826105ff565b919050565b600067ffffffffffffffff821115610666576106656105d0565b5b602082029050602081019050919050565b600080fd5b600061068f61068a8461064b565b610630565b905080838252602082019050602084028301858111156106b2576106b1610677565b5b835b818110156106db57806106c78882610578565b8452602084019350506020810190506106b4565b5050509392505050565b600082601f8301126106fa576106f96105ba565b5b813561070a84826020860161067c565b91505092915050565b60006020828403121561072957610728610557565b5b600082013567ffffffffffffffff8111156107475761074661055c565b5b610753848285016106e5565b91505092915050565b600073ffffffffffffffffffffffffffffffffffffffff82169050919050565b60006107878261075c565b9050919050565b6107978161077c565b82525050565b60006020820190506107b2600083018461078e565b92915050565b7f4e487b7100000000000000000000000000000000000000000000000000000000600052601160045260246000fd5b60006107f28261048f565b91506107fd8361048f565b9250828203905081811115610815576108146107b8565b5b92915050565b7f4e487b7100000000000000000000000000000000000000000000000000000000600052603260045260246000fd5b60006108558261048f565b91506108608361048f565b9250828201905080821115610878576108776107b8565b5b9291505056fea26469706673582212209ce7a582caad837934ab0a380eb4fd1a78276b2c7a9fe4c3eeacdf81e0773cd864736f6c63430008180033608060405234801561001057600080fd5b506040516108e53803806108e5833981810160405281019061003291906100db565b806000806101000a81548173ffffffffffffffffffffffffffffffffffffffff021916908373ffffffffffffffffffffffffffffffffffffffff16021790555050610108565b600080fd5b600073ffffffffffffffffffffffffffffffffffffffff82169050919050565b60006100a88261007d565b9050919050565b6100b88161009d565b81146100c357600080fd5b50565b6000815190506100d5816100af565b92915050565b6000602082840312156100f1576100f0610078565b5b60006100ff848285016100c6565b91505092915050565b6107ce806101176000396000f3fe608060405234801561001057600080fd5b506004361061004c5760003560e01c80630dc9601514610051578063b7b0422d1461006f578063ce11f2bb1461008b578063e407bcbd146100a7575b600080fd5b6100596100c5565b604051610066919061050b565b60405180910390f35b6100896004803603810190610084919061056d565b610164565b005b6100a560048036038101906100a091906106f3565b6101f3565b005b6100af6102f3565b6040516100bc919061077d565b60405180910390f35b60606002805480602002602001604051908101604052809291908181526020016000905b8282101561015b5783829060005260206000200180548060200260200160405190810160405280929190818152602001828054801561014757602002820191906000526020600020905b815481526020019060010190808311610133575b5050505050815260200190600101906100e9565b50505050905090565b60008054906101000a900473ffffffffffffffffffffffffffffffffffffffff1673ffffffffffffffffffffffffffffffffffffffff163373ffffffffffffffffffffffffffffffffffffffff16146101e9576040517fa0acb8a400000000000000000000000000000000000000000000000000000000815260040160405180910390fd5b8060018190555050565b60008054906101000a900473ffffffffffffffffffffffffffffffffffffffff1673ffffffffffffffffffffffffffffffffffffffff163373ffffffffffffffffffffffffffffffffffffffff1614610278576040517fa0acb8a400000000000000000000000000000000000000000000000000000000815260040160405180910390fd5b8051600154146102b4576040517f6e2ca24900000000000000000000000000000000000000000000000000000000815260040160405180910390fd5b6002819080600181540180825580915050600190039060005260206000200160009091909190915090805190602001906102ef929190610317565b5050565b60008054906101000a900473ffffffffffffffffffffffffffffffffffffffff1681565b828054828255906000526020600020908101928215610353579160200282015b82811115610352578251825591602001919060010190610337565b5b5090506103609190610364565b5090565b5b8082111561037d576000816000905550600101610365565b5090565b600081519050919050565b600082825260208201905092915050565b6000819050602082019050919050565b600081519050919050565b600082825260208201905092915050565b6000819050602082019050919050565b6000819050919050565b6103ec816103d9565b82525050565b60006103fe83836103e3565b60208301905092915050565b6000602082019050919050565b6000610422826103ad565b61042c81856103b8565b9350610437836103c9565b8060005b8381101561046857815161044f88826103f2565b975061045a8361040a565b92505060018101905061043b565b5085935050505092915050565b60006104818383610417565b905092915050565b6000602082019050919050565b60006104a182610381565b6104ab818561038c565b9350836020820285016104bd8561039d565b8060005b858110156104f957848403895281516104da8582610475565b94506104e583610489565b925060208a019950506001810190506104c1565b50829750879550505050505092915050565b600060208201905081810360008301526105258184610496565b905092915050565b6000604051905090565b600080fd5b600080fd5b61054a816103d9565b811461055557600080fd5b50565b60008135905061056781610541565b92915050565b60006020828403121561058357610582610537565b5b600061059184828501610558565b91505092915050565b600080fd5b6000601f19601f8301169050919050565b7f4e487b7100000000000000000000000000000000000000000000000000000000600052604160045260246000fd5b6105e88261059f565b810181811067ffffffffffffffff82111715610607576106066105b0565b5b80604052505050565b600061061a61052d565b905061062682826105df565b919050565b600067ffffffffffffffff821115610646576106456105b0565b5b602082029050602081019050919050565b600080fd5b600061066f61066a8461062b565b610610565b9050808382526020820190506020840283018581111561069257610691610657565b5b835b818110156106bb57806106a78882610558565b845260208401935050602081019050610694565b5050509392505050565b600082601f8301126106da576106d961059a565b5b81356106ea84826020860161065c565b91505092915050565b60006020828403121561070957610708610537565b5b600082013567ffffffffffffffff8111156107275761072661053c565b5b610733848285016106c5565b91505092915050565b600073ffffffffffffffffffffffffffffffffffffffff82169050919050565b60006107678261073c565b9050919050565b6107778161075c565b82525050565b6000602082019050610792600083018461076e565b9291505056fea2646970667358221220ec9e9b8271cb458c0f7efab37789db8b8a59451eaa819d2a23a3dbc29e39df9064736f6c63430008180033608060405234801561001057600080fd5b506040516108e53803806108e5833981810160405281019061003291906100db565b806000806101000a81548173ffffffffffffffffffffffffffffffffffffffff021916908373ffffffffffffffffffffffffffffffffffffffff16021790555050610108565b600080fd5b600073ffffffffffffffffffffffffffffffffffffffff82169050919050565b60006100a88261007d565b9050919050565b6100b88161009d565b81146100c357600080fd5b50565b6000815190506100d5816100af565b92915050565b6000602082840312156100f1576100f0610078565b5b60006100ff848285016100c6565b91505092915050565b6107ce806101176000396000f3fe608060405234801561001057600080fd5b506004361061004c5760003560e01c80630dc9601514610051578063b7b0422d1461006f578063ce11f2bb1461008b578063e407bcbd146100a7575b600080fd5b6100596100c5565b604051610066919061050b565b60405180910390f35b6100896004803603810190610084919061056d565b610164565b005b6100a560048036038101906100a091906106f3565b6101f3565b005b6100af6102f3565b6040516100bc919061077d565b60405180910390f35b60606002805480602002602001604051908101604052809291908181526020016000905b8282101561015b5783829060005260206000200180548060200260200160405190810160405280929190818152602001828054801561014757602002820191906000526020600020905b815481526020019060010190808311610133575b5050505050815260200190600101906100e9565b50505050905090565b60008054906101000a900473ffffffffffffffffffffffffffffffffffffffff1673ffffffffffffffffffffffffffffffffffffffff163373ffffffffffffffffffffffffffffffffffffffff16146101e9576040517fa0acb8a400000000000000000000000000000000000000000000000000000000815260040160405180910390fd5b8060018190555050565b60008054906101000a900473ffffffffffffffffffffffffffffffffffffffff1673ffffffffffffffffffffffffffffffffffffffff163373ffffffffffffffffffffffffffffffffffffffff1614610278576040517fa0acb8a400000000000000000000000000000000000000000000000000000000815260040160405180910390fd5b8051600154146102b4576040517f6e2ca24900000000000000000000000000000000000000000000000000000000815260040160405180910390fd5b6002819080600181540180825580915050600190039060005260206000200160009091909190915090805190602001906102ef929190610317565b5050565b60008054906101000a900473ffffffffffffffffffffffffffffffffffffffff1681565b828054828255906000526020600020908101928215610353579160200282015b82811115610352578251825591602001919060010190610337565b5b5090506103609190610364565b5090565b5b8082111561037d576000816000905550600101610365565b5090565b600081519050919050565b600082825260208201905092915050565b6000819050602082019050919050565b600081519050919050565b600082825260208201905092915050565b6000819050602082019050919050565b6000819050919050565b6103ec816103d9565b82525050565b60006103fe83836103e3565b60208301905092915050565b6000602082019050919050565b6000610422826103ad565b61042c81856103b8565b9350610437836103c9565b8060005b8381101561046857815161044f88826103f2565b975061045a8361040a565b92505060018101905061043b565b5085935050505092915050565b60006104818383610417565b905092915050565b6000602082019050919050565b60006104a182610381565b6104ab818561038c565b9350836020820285016104bd8561039d565b8060005b858110156104f957848403895281516104da8582610475565b94506104e583610489565b925060208a019950506001810190506104c1565b50829750879550505050505092915050565b600060208201905081810360008301526105258184610496565b905092915050565b6000604051905090565b600080fd5b600080fd5b61054a816103d9565b811461055557600080fd5b50565b60008135905061056781610541565b92915050565b60006020828403121561058357610582610537565b5b600061059184828501610558565b91505092915050565b600080fd5b6000601f19601f8301169050919050565b7f4e487b7100000000000000000000000000000000000000000000000000000000600052604160045260246000fd5b6105e88261059f565b810181811067ffffffffffffffff82111715610607576106066105b0565b5b80604052505050565b600061061a61052d565b905061062682826105df565b919050565b600067ffffffffffffffff821115610646576106456105b0565b5b602082029050602081019050919050565b600080fd5b600061066f61066a8461062b565b610610565b9050808382526020820190506020840283018581111561069257610691610657565b5b835b818110156106bb57806106a78882610558565b845260208401935050602081019050610694565b5050509392505050565b600082601f8301126106da576106d961059a565b5b81356106ea84826020860161065c565b91505092915050565b60006020828403121561070957610708610537565b5b600082013567ffffffffffffffff8111156107275761072661053c565b5b610733848285016106c5565b91505092915050565b600073ffffffffffffffffffffffffffffffffffffffff82169050919050565b60006107678261073c565b9050919050565b6107778161075c565b82525050565b6000602082019050610792600083018461076e565b9291505056fea2646970667358221220a8c75688431ebabe58882e9849b990d44d89c1686715912bca7b2321e7af26f364736f6c63430008180033608060405234801561001057600080fd5b50604051610a48380380610a48833981810160405281019061003291906100db565b806000806101000a81548173ffffffffffffffffffffffffffffffffffffffff021916908373ffffffffffffffffffffffffffffffffffffffff16021790555050610108565b600080fd5b600073ffffffffffffffffffffffffffffffffffffffff82169050919050565b60006100a88261007d565b9050919050565b6100b88161009d565b81146100c357600080fd5b50565b6000815190506100d5816100af565b92915050565b6000602082840312156100f1576100f0610078565b5b60006100ff848285016100c6565b91505092915050565b610931806101176000396000f3fe608060405234801561001057600080fd5b506004361061004c5760003560e01c80630dc9601514610051578063b7b0422d1461006f578063ce11f2bb1461008b578063e407bcbd146100a7575b600080fd5b6100596100c5565b60405161006691906105a8565b60405180910390f35b6100896004803603810190610084919061060a565b6101a2565b005b6100a560048036038101906100a09190610790565b610289565b005b6100af6103fd565b6040516100bc919061081a565b60405180910390f35b606060008054906101000a900473ffffffffffffffffffffffffffffffffffffffff1673ffffffffffffffffffffffffffffffffffffffff163373ffffffffffffffffffffffffffffffffffffffff161461014c576040517fa0acb8a400000000000000000000000000000000000000000000000000000000815260040160405180910390fd5b600180548060200260200160405190810160405280929190818152602001828054801561019857602002820191906000526020600020905b815481526020019060010190808311610184575b5050505050905090565b60008054906101000a900473ffffffffffffffffffffffffffffffffffffffff1673ffffffffffffffffffffffffffffffffffffffff163373ffffffffffffffffffffffffffffffffffffffff1614610227576040517fa0acb8a400000000000000000000000000000000000000000000000000000000815260040160405180910390fd5b8067ffffffffffffffff8111156102415761024061064d565b5b60405190808252806020026020018201604052801561026f5781602001602082028036833780820191505090505b5060019080519060200190610285929190610476565b5050565b60008054906101000a900473ffffffffffffffffffffffffffffffffffffffff1673ffffffffffffffffffffffffffffffffffffffff163373ffffffffffffffffffffffffffffffffffffffff161461030e576040517fa0acb8a400000000000000000000000000000000000000000000000000000000815260040160405180910390fd5b6000600180549050905080825114610352576040517f6e2ca24900000000000000000000000000000000000000000000000000000000815260040160405180910390fd5b61035b82610421565b610391576040517ffbf5d42300000000000000000000000000000000000000000000000000000000815260040160405180910390fd5b60005b818110156103f8578281815181106103af576103ae610835565b5b6020026020010151600182815481106103cb576103ca610835565b5b9060005260206000200160008282546103e49190610893565b925050819055508080600101915050610394565b505050565b60008054906101000a900473ffffffffffffffffffffffffffffffffffffffff1681565b6000806064905060005b83518110156104695783818151811061044757610446610835565b5b60200260200101518261045a91906108c7565b9150808060010191505061042b565b5060008114915050919050565b8280548282559060005260206000209081019282156104b2579160200282015b828111156104b1578251825591602001919060010190610496565b5b5090506104bf91906104c3565b5090565b5b808211156104dc5760008160009055506001016104c4565b5090565b600081519050919050565b600082825260208201905092915050565b6000819050602082019050919050565b6000819050919050565b61051f8161050c565b82525050565b60006105318383610516565b60208301905092915050565b6000602082019050919050565b6000610555826104e0565b61055f81856104eb565b935061056a836104fc565b8060005b8381101561059b5781516105828882610525565b975061058d8361053d565b92505060018101905061056e565b5085935050505092915050565b600060208201905081810360008301526105c2818461054a565b905092915050565b6000604051905090565b600080fd5b600080fd5b6105e78161050c565b81146105f257600080fd5b50565b600081359050610604816105de565b92915050565b6000602082840312156106205761061f6105d4565b5b600061062e848285016105f5565b91505092915050565b600080fd5b6000601f19601f8301169050919050565b7f4e487b7100000000000000000000000000000000000000000000000000000000600052604160045260246000fd5b6106858261063c565b810181811067ffffffffffffffff821117156106a4576106a361064d565b5b80604052505050565b60006106b76105ca565b90506106c3828261067c565b919050565b600067ffffffffffffffff8211156106e3576106e261064d565b5b602082029050602081019050919050565b600080fd5b600061070c610707846106c8565b6106ad565b9050808382526020820190506020840283018581111561072f5761072e6106f4565b5b835b81811015610758578061074488826105f5565b845260208401935050602081019050610731565b5050509392505050565b600082601f83011261077757610776610637565b5b81356107878482602086016106f9565b91505092915050565b6000602082840312156107a6576107a56105d4565b5b600082013567ffffffffffffffff8111156107c4576107c36105d9565b5b6107d084828501610762565b91505092915050565b600073ffffffffffffffffffffffffffffffffffffffff82169050919050565b6000610804826107d9565b9050919050565b610814816107f9565b82525050565b600060208201905061082f600083018461080b565b92915050565b7f4e487b7100000000000000000000000000000000000000000000000000000000600052603260045260246000fd5b7f4e487b7100000000000000000000000000000000000000000000000000000000600052601160045260246000fd5b600061089e8261050c565b91506108a98361050c565b92508282019050808211156108c1576108c0610864565b5b92915050565b60006108d28261050c565b91506108dd8361050c565b92508282039050818111156108f5576108f4610864565b5b9291505056fea2646970667358221220db1edb10cfba4679ecb53e7a0fbc29d23cc717cff1cbd3b09b9fd21a58cca15e64736f6c63430008180033608060405234801561001057600080fd5b50604051610a24380380610a24833981810160405281019061003291906100db565b806000806101000a81548173ffffffffffffffffffffffffffffffffffffffff021916908373ffffffffffffffffffffffffffffffffffffffff16021790555050610108565b600080fd5b600073ffffffffffffffffffffffffffffffffffffffff82169050919050565b60006100a88261007d565b9050919050565b6100b88161009d565b81146100c357600080fd5b50565b6000815190506100d5816100af565b92915050565b6000602082840312156100f1576100f0610078565b5b60006100ff848285016100c6565b91505092915050565b61090d806101176000396000f3fe608060405234801561001057600080fd5b50600436106100575760003560e01c80630dc960151461005c5780639a1b4b381461007a578063b7b0422d14610098578063ce11f2bb146100b4578063e407bcbd146100d0575b600080fd5b6100646100ee565b604051610071919061058e565b60405180910390f35b6100826101cb565b60405161008f91906105bf565b60405180910390f35b6100b260048036038101906100ad919061061a565b6101d0565b005b6100ce60048036038101906100c991906107a0565b6102b7565b005b6100d8610438565b6040516100e5919061082a565b60405180910390f35b606060008054906101000a900473ffffffffffffffffffffffffffffffffffffffff1673ffffffffffffffffffffffffffffffffffffffff163373ffffffffffffffffffffffffffffffffffffffff1614610175576040517fa0acb8a400000000000000000000000000000000000000000000000000000000815260040160405180910390fd5b60018054806020026020016040519081016040528092919081815260200182805480156101c157602002820191906000526020600020905b8154815260200190600101908083116101ad575b5050505050905090565b600a81565b60008054906101000a900473ffffffffffffffffffffffffffffffffffffffff1673ffffffffffffffffffffffffffffffffffffffff163373ffffffffffffffffffffffffffffffffffffffff1614610255576040517fa0acb8a400000000000000000000000000000000000000000000000000000000815260040160405180910390fd5b8067ffffffffffffffff81111561026f5761026e61065d565b5b60405190808252806020026020018201604052801561029d5781602001602082028036833780820191505090505b50600190805190602001906102b392919061045c565b5050565b60008054906101000a900473ffffffffffffffffffffffffffffffffffffffff1673ffffffffffffffffffffffffffffffffffffffff163373ffffffffffffffffffffffffffffffffffffffff161461033c576040517fa0acb8a400000000000000000000000000000000000000000000000000000000815260040160405180910390fd5b6000600180549050905080825114610380576040517f6e2ca24900000000000000000000000000000000000000000000000000000000815260040160405180910390fd5b60005b818110156104335760008382815181106103a05761039f610845565b5b60200260200101519050600a8111156103f057806040517f590e1cd60000000000000000000000000000000000000000000000000000000081526004016103e791906105bf565b60405180910390fd5b806001838154811061040557610404610845565b5b90600052602060002001600082825461041e91906108a3565b92505081905550508080600101915050610383565b505050565b60008054906101000a900473ffffffffffffffffffffffffffffffffffffffff1681565b828054828255906000526020600020908101928215610498579160200282015b8281111561049757825182559160200191906001019061047c565b5b5090506104a591906104a9565b5090565b5b808211156104c25760008160009055506001016104aa565b5090565b600081519050919050565b600082825260208201905092915050565b6000819050602082019050919050565b6000819050919050565b610505816104f2565b82525050565b600061051783836104fc565b60208301905092915050565b6000602082019050919050565b600061053b826104c6565b61054581856104d1565b9350610550836104e2565b8060005b83811015610581578151610568888261050b565b975061057383610523565b925050600181019050610554565b5085935050505092915050565b600060208201905081810360008301526105a88184610530565b905092915050565b6105b9816104f2565b82525050565b60006020820190506105d460008301846105b0565b92915050565b6000604051905090565b600080fd5b600080fd5b6105f7816104f2565b811461060257600080fd5b50565b600081359050610614816105ee565b92915050565b6000602082840312156106305761062f6105e4565b5b600061063e84828501610605565b91505092915050565b600080fd5b6000601f19601f8301169050919050565b7f4e487b7100000000000000000000000000000000000000000000000000000000600052604160045260246000fd5b6106958261064c565b810181811067ffffffffffffffff821117156106b4576106b361065d565b5b80604052505050565b60006106c76105da565b90506106d3828261068c565b919050565b600067ffffffffffffffff8211156106f3576106f261065d565b5b602082029050602081019050919050565b600080fd5b600061071c610717846106d8565b6106bd565b9050808382526020820190506020840283018581111561073f5761073e610704565b5b835b8181101561076857806107548882610605565b845260208401935050602081019050610741565b5050509392505050565b600082601f83011261078757610786610647565b5b8135610797848260208601610709565b91505092915050565b6000602082840312156107b6576107b56105e4565b5b600082013567ffffffffffffffff8111156107d4576107d36105e9565b5b6107e084828501610772565b91505092915050565b600073ffffffffffffffffffffffffffffffffffffffff82169050919050565b6000610814826107e9565b9050919050565b61082481610809565b82525050565b600060208201905061083f600083018461081b565b92915050565b7f4e487b7100000000000000000000000000000000000000000000000000000000600052603260045260246000fd5b7f4e487b7100000000000000000000000000000000000000000000000000000000600052601160045260246000fd5b60006108ae826104f2565b91506108b9836104f2565b92508282019050808211156108d1576108d0610874565b5b9291505056fea2646970667358221220af94e1b83e71bf50fcc6492f1e8ff6550ca14b7a620994b88fa66928d9c34c0264736f6c63430008180033608060405234801561001057600080fd5b50604051610c25380380610c25833981810160405281019061003291906100db565b806000806101000a81548173ffffffffffffffffffffffffffffffffffffffff021916908373ffffffffffffffffffffffffffffffffffffffff16021790555050610108565b600080fd5b600073ffffffffffffffffffffffffffffffffffffffff82169050919050565b60006100a88261007d565b9050919050565b6100b88161009d565b81146100c357600080fd5b50565b6000815190506100d5816100af565b92915050565b6000602082840312156100f1576100f0610078565b5b60006100ff848285016100c6565b91505092915050565b610b0e806101176000396000f3fe608060405234801561001057600080fd5b506004361061004c5760003560e01c80630dc9601514610051578063b7b0422d1461006f578063ce11f2bb1461008b578063e407bcbd146100a7575b600080fd5b6100596100c5565b60405161006691906107b9565b60405180910390f35b6100896004803603810190610084919061081b565b6101e9565b005b6100a560048036038101906100a091906109a1565b610369565b005b6100af6104fc565b6040516100bc9190610a2b565b60405180910390f35b606060008054906101000a900473ffffffffffffffffffffffffffffffffffffffff1673ffffffffffffffffffffffffffffffffffffffff163373ffffffffffffffffffffffffffffffffffffffff161461014c576040517fa0acb8a400000000000000000000000000000000000000000000000000000000815260040160405180910390fd5b6001805480602002602001604051908101604052809291908181526020016000905b828210156101e0578382906000526020600020018054806020026020016040519081016040528092919081815260200182805480156101cc57602002820191906000526020600020905b8154815260200190600101908083116101b8575b50505050508152602001906001019061016e565b50505050905090565b60008054906101000a900473ffffffffffffffffffffffffffffffffffffffff1673ffffffffffffffffffffffffffffffffffffffff163373ffffffffffffffffffffffffffffffffffffffff161461026e576040517fa0acb8a400000000000000000000000000000000000000000000000000000000815260040160405180910390fd5b8067ffffffffffffffff8111156102885761028761085e565b5b6040519080825280602002602001820160405280156102bb57816020015b60608152602001906001900390816102a65790505b50600190805190602001906102d1929190610520565b5060005b81811015610365578167ffffffffffffffff8111156102f7576102f661085e565b5b6040519080825280602002602001820160405280156103255781602001602082028036833780820191505090505b506001828154811061033a57610339610a46565b5b906000526020600020019080519060200190610357929190610580565b5080806001019150506102d5565b5050565b60008054906101000a900473ffffffffffffffffffffffffffffffffffffffff1673ffffffffffffffffffffffffffffffffffffffff163373ffffffffffffffffffffffffffffffffffffffff16146103ee576040517fa0acb8a400000000000000000000000000000000000000000000000000000000815260040160405180910390fd5b6000600180549050905080825114610432576040517f6e2ca24900000000000000000000000000000000000000000000000000000000815260040160405180910390fd5b60005b818110156104f757600060018261044c9190610aa4565b90505b828110156104e95760018085848151811061046d5761046c610a46565b5b60200260200101518154811061048657610485610a46565b5b906000526020600020018583815181106104a3576104a2610a46565b5b6020026020010151815481106104bc576104bb610a46565b5b9060005260206000200160008282546104d59190610aa4565b92505081905550808060010191505061044f565b508080600101915050610435565b505050565b60008054906101000a900473ffffffffffffffffffffffffffffffffffffffff1681565b82805482825590600052602060002090810192821561056f579160200282015b8281111561056e57825182908051906020019061055e929190610580565b5091602001919060010190610540565b5b50905061057c91906105cd565b5090565b8280548282559060005260206000209081019282156105bc579160200282015b828111156105bb5782518255916020019190600101906105a0565b5b5090506105c991906105f1565b5090565b5b808211156105ed57600081816105e4919061060e565b506001016105ce565b5090565b5b8082111561060a5760008160009055506001016105f2565b5090565b508054600082559060005260206000209081019061062c91906105f1565b50565b600081519050919050565b600082825260208201905092915050565b6000819050602082019050919050565b600081519050919050565b600082825260208201905092915050565b6000819050602082019050919050565b6000819050919050565b61069a81610687565b82525050565b60006106ac8383610691565b60208301905092915050565b6000602082019050919050565b60006106d08261065b565b6106da8185610666565b93506106e583610677565b8060005b838110156107165781516106fd88826106a0565b9750610708836106b8565b9250506001810190506106e9565b5085935050505092915050565b600061072f83836106c5565b905092915050565b6000602082019050919050565b600061074f8261062f565b610759818561063a565b93508360208202850161076b8561064b565b8060005b858110156107a757848403895281516107888582610723565b945061079383610737565b925060208a0199505060018101905061076f565b50829750879550505050505092915050565b600060208201905081810360008301526107d38184610744565b905092915050565b6000604051905090565b600080fd5b600080fd5b6107f881610687565b811461080357600080fd5b50565b600081359050610815816107ef565b92915050565b600060208284031215610831576108306107e5565b5b600061083f84828501610806565b91505092915050565b600080fd5b6000601f19601f8301169050919050565b7f4e487b7100000000000000000000000000000000000000000000000000000000600052604160045260246000fd5b6108968261084d565b810181811067ffffffffffffffff821117156108b5576108b461085e565b5b80604052505050565b60006108c86107db565b90506108d4828261088d565b919050565b600067ffffffffffffffff8211156108f4576108f361085e565b5b602082029050602081019050919050565b600080fd5b600061091d610918846108d9565b6108be565b905080838252602082019050602084028301858111156109405761093f610905565b5b835b8181101561096957806109558882610806565b845260208401935050602081019050610942565b5050509392505050565b600082601f83011261098857610987610848565b5b813561099884826020860161090a565b91505092915050565b6000602082840312156109b7576109b66107e5565b5b600082013567ffffffffffffffff8111156109d5576109d46107ea565b5b6109e184828501610973565b91505092915050565b600073ffffffffffffffffffffffffffffffffffffffff82169050919050565b6000610a15826109ea565b9050919050565b610a2581610a0a565b82525050565b6000602082019050610a406000830184610a1c565b92915050565b7f4e487b7100000000000000000000000000000000000000000000000000000000600052603260045260246000fd5b7f4e487b7100000000000000000000000000000000000000000000000000000000600052601160045260246000fd5b6000610aaf82610687565b9150610aba83610687565b9250828201905080821115610ad257610ad1610a75565b5b9291505056fea264697066735822122076cd2ad110c581ad6ae461f1534885b41ff89377a60f029ce034bcb2e6d88cd364736f6c63430008180033608060405234801561001057600080fd5b50604051610c25380380610c25833981810160405281019061003291906100db565b806000806101000a81548173ffffffffffffffffffffffffffffffffffffffff021916908373ffffffffffffffffffffffffffffffffffffffff16021790555050610108565b600080fd5b600073ffffffffffffffffffffffffffffffffffffffff82169050919050565b60006100a88261007d565b9050919050565b6100b88161009d565b81146100c357600080fd5b50565b6000815190506100d5816100af565b92915050565b6000602082840312156100f1576100f0610078565b5b60006100ff848285016100c6565b91505092915050565b610b0e806101176000396000f3fe608060405234801561001057600080fd5b506004361061004c5760003560e01c80630dc9601514610051578063b7b0422d1461006f578063ce11f2bb1461008b578063e407bcbd146100a7575b600080fd5b6100596100c5565b60405161006691906107b9565b60405180910390f35b6100896004803603810190610084919061081b565b6101e9565b005b6100a560048036038101906100a091906109a1565b610369565b005b6100af6104fc565b6040516100bc9190610a2b565b60405180910390f35b606060008054906101000a900473ffffffffffffffffffffffffffffffffffffffff1673ffffffffffffffffffffffffffffffffffffffff163373ffffffffffffffffffffffffffffffffffffffff161461014c576040517fa0acb8a400000000000000000000000000000000000000000000000000000000815260040160405180910390fd5b6001805480602002602001604051908101604052809291908181526020016000905b828210156101e0578382906000526020600020018054806020026020016040519081016040528092919081815260200182805480156101cc57602002820191906000526020600020905b8154815260200190600101908083116101b8575b50505050508152602001906001019061016e565b50505050905090565b60008054906101000a900473ffffffffffffffffffffffffffffffffffffffff1673ffffffffffffffffffffffffffffffffffffffff163373ffffffffffffffffffffffffffffffffffffffff161461026e576040517fa0acb8a400000000000000000000000000000000000000000000000000000000815260040160405180910390fd5b8067ffffffffffffffff8111156102885761028761085e565b5b6040519080825280602002602001820160405280156102bb57816020015b60608152602001906001900390816102a65790505b50600190805190602001906102d1929190610520565b5060005b81811015610365578167ffffffffffffffff8111156102f7576102f661085e565b5b6040519080825280602002602001820160405280156103255781602001602082028036833780820191505090505b506001828154811061033a57610339610a46565b5b906000526020600020019080519060200190610357929190610580565b5080806001019150506102d5565b5050565b60008054906101000a900473ffffffffffffffffffffffffffffffffffffffff1673ffffffffffffffffffffffffffffffffffffffff163373ffffffffffffffffffffffffffffffffffffffff16146103ee576040517fa0acb8a400000000000000000000000000000000000000000000000000000000815260040160405180910390fd5b6000600180549050905080825114610432576040517f6e2ca24900000000000000000000000000000000000000000000000000000000815260040160405180910390fd5b60005b818110156104f757600060018261044c9190610aa4565b90505b828110156104e95760018085848151811061046d5761046c610a46565b5b60200260200101518154811061048657610485610a46565b5b906000526020600020018583815181106104a3576104a2610a46565b5b6020026020010151815481106104bc576104bb610a46565b5b9060005260206000200160008282546104d59190610aa4565b92505081905550808060010191505061044f565b508080600101915050610435565b505050565b60008054906101000a900473ffffffffffffffffffffffffffffffffffffffff1681565b82805482825590600052602060002090810192821561056f579160200282015b8281111561056e57825182908051906020019061055e929190610580565b5091602001919060010190610540565b5b50905061057c91906105cd565b5090565b8280548282559060005260206000209081019282156105bc579160200282015b828111156105bb5782518255916020019190600101906105a0565b5b5090506105c991906105f1565b5090565b5b808211156105ed57600081816105e4919061060e565b506001016105ce565b5090565b5b8082111561060a5760008160009055506001016105f2565b5090565b508054600082559060005260206000209081019061062c91906105f1565b50565b600081519050919050565b600082825260208201905092915050565b6000819050602082019050919050565b600081519050919050565b600082825260208201905092915050565b6000819050602082019050919050565b6000819050919050565b61069a81610687565b82525050565b60006106ac8383610691565b60208301905092915050565b6000602082019050919050565b60006106d08261065b565b6106da8185610666565b93506106e583610677565b8060005b838110156107165781516106fd88826106a0565b9750610708836106b8565b9250506001810190506106e9565b5085935050505092915050565b600061072f83836106c5565b905092915050565b6000602082019050919050565b600061074f8261062f565b610759818561063a565b93508360208202850161076b8561064b565b8060005b858110156107a757848403895281516107888582610723565b945061079383610737565b925060208a0199505060018101905061076f565b50829750879550505050505092915050565b600060208201905081810360008301526107d38184610744565b905092915050565b6000604051905090565b600080fd5b600080fd5b6107f881610687565b811461080357600080fd5b50565b600081359050610815816107ef565b92915050565b600060208284031215610831576108306107e5565b5b600061083f84828501610806565b91505092915050565b600080fd5b6000601f19601f8301169050919050565b7f4e487b7100000000000000000000000000000000000000000000000000000000600052604160045260246000fd5b6108968261084d565b810181811067ffffffffffffffff821117156108b5576108b461085e565b5b80604052505050565b60006108c86107db565b90506108d4828261088d565b919050565b600067ffffffffffffffff8211156108f4576108f361085e565b5b602082029050602081019050919050565b600080fd5b600061091d610918846108d9565b6108be565b905080838252602082019050602084028301858111156109405761093f610905565b5b835b8181101561096957806109558882610806565b845260208401935050602081019050610942565b5050509392505050565b600082601f83011261098857610987610848565b5b813561099884826020860161090a565b91505092915050565b6000602082840312156109b7576109b66107e5565b5b600082013567ffffffffffffffff8111156109d5576109d46107ea565b5b6109e184828501610973565b91505092915050565b600073ffffffffffffffffffffffffffffffffffffffff82169050919050565b6000610a15826109ea565b9050919050565b610a2581610a0a565b82525050565b6000602082019050610a406000830184610a1c565b92915050565b7f4e487b7100000000000000000000000000000000000000000000000000000000600052603260045260246000fd5b7f4e487b7100000000000000000000000000000000000000000000000000000000600052601160045260246000fd5b6000610aaf82610687565b9150610aba83610687565b9250828201905080821115610ad257610ad1610a75565b5b9291505056fea26469706673582212204223a76dcf7ffc7e904fcc3733a8a7dc5e130855cb256408b822147c90aa046264736f6c63430008180033a2646970667358221220d3a8bd68b06376dbabccc5187169e1960537d03e4aef6db3799fd420961dbd2364736f6c63430008180033",
  "linkReferences": {},
  "deployedLinkReferences": {}
}