{
  "_format": "hh-sol-artifact-1",
  "contractName": "ElectionFactory",
  "sourceName": "contracts/ElectionFactory.sol",
  "abi": [
    {
      "inputs": [
        {
          "internalType": "address",
          "name": "router",
          "type": "address"
        }
      ],
      "stateMutability": "nonpayable",
      "type": "constructor"
    },
    {
      "inputs": [
        {
          "internalType": "address",
          "name": "router",
          "type": "address"
        }
      ],
      "name": "InvalidRouter",
      "type": "error"
    },
    {
      "inputs": [],
      "name": "NotWhitelistedSender",
      "type": "error"
    },
    {
      "inputs": [],
      "name": "OnlyOwner",
      "type": "error"
    },
    {
      "inputs": [],
      "name": "OwnerRestricted",
      "type": "error"
    },
    {
      "anonymous": false,
      "inputs": [
        {
          "indexed": true,
          "internalType": "bytes32",
          "name": "messageId",
          "type": "bytes32"
        },
        {
          "indexed": true,
          "internalType": "uint64",
          "name": "sourceChainSelector",
          "type": "uint64"
        },
        {
          "indexed": false,
          "internalType": "address",
          "name": "sender",
          "type": "address"
        }
      ],
      "name": "MessageReceived",
      "type": "event"
    },
    {
      "inputs": [
        {
          "internalType": "uint64",
          "name": "_sourceChainSelector",
          "type": "uint64"
        },
        {
          "internalType": "address",
          "name": "_contractAddress",
          "type": "address"
        }
      ],
      "name": "addWhitelistedContract",
      "outputs": [],
      "stateMutability": "nonpayable",
      "type": "function"
    },
    {
      "inputs": [
        {
          "components": [
            {
              "internalType": "bytes32",
              "name": "messageId",
              "type": "bytes32"
            },
            {
              "internalType": "uint64",
              "name": "sourceChainSelector",
              "type": "uint64"
            },
            {
              "internalType": "bytes",
              "name": "sender",
              "type": "bytes"
            },
            {
              "internalType": "bytes",
              "name": "data",
              "type": "bytes"
            },
            {
              "components": [
                {
                  "internalType": "address",
                  "name": "token",
                  "type": "address"
                },
                {
                  "internalType": "uint256",
                  "name": "amount",
                  "type": "uint256"
                }
              ],
              "internalType": "struct Client.EVMTokenAmount[]",
              "name": "destTokenAmounts",
              "type": "tuple[]"
            }
          ],
          "internalType": "struct Client.Any2EVMMessage",
          "name": "message",
          "type": "tuple"
        }
      ],
      "name": "ccipReceive",
      "outputs": [],
      "stateMutability": "nonpayable",
      "type": "function"
    },
    {
      "inputs": [
        {
          "components": [
            {
              "internalType": "uint256",
              "name": "startTime",
              "type": "uint256"
            },
            {
              "internalType": "uint256",
              "name": "endTime",
              "type": "uint256"
            },
            {
              "internalType": "string",
              "name": "name",
              "type": "string"
            },
            {
              "internalType": "string",
              "name": "description",
              "type": "string"
            }
          ],
          "internalType": "struct Election.ElectionInfo",
          "name": "_electionInfo",
          "type": "tuple"
        },
        {
          "internalType": "uint256",
          "name": "_ballotType",
          "type": "uint256"
        },
        {
          "internalType": "uint256",
          "name": "_resultType",
          "type": "uint256"
        }
      ],
      "name": "createElection",
      "outputs": [],
      "stateMutability": "nonpayable",
      "type": "function"
    },
    {
      "inputs": [
        {
          "internalType": "uint256",
          "name": "_electionId",
          "type": "uint256"
        }
      ],
      "name": "deleteElection",
      "outputs": [],
      "stateMutability": "nonpayable",
      "type": "function"
    },
    {
      "inputs": [],
      "name": "factoryOwner",
      "outputs": [
        {
          "internalType": "address",
          "name": "",
          "type": "address"
        }
      ],
      "stateMutability": "view",
      "type": "function"
    },
    {
      "inputs": [],
      "name": "getOpenElections",
      "outputs": [
        {
          "internalType": "address[]",
          "name": "",
          "type": "address[]"
        }
      ],
      "stateMutability": "view",
      "type": "function"
    },
    {
      "inputs": [],
      "name": "getRouter",
      "outputs": [
        {
          "internalType": "address",
          "name": "",
          "type": "address"
        }
      ],
      "stateMutability": "view",
      "type": "function"
    },
    {
      "inputs": [
        {
          "internalType": "uint256",
          "name": "",
          "type": "uint256"
        }
      ],
      "name": "openBasedElections",
      "outputs": [
        {
          "internalType": "address",
          "name": "",
          "type": "address"
        }
      ],
      "stateMutability": "view",
      "type": "function"
    },
    {
      "inputs": [
        {
          "internalType": "uint64",
          "name": "_sourceChainSelector",
          "type": "uint64"
        }
      ],
      "name": "removeWhitelistedContract",
      "outputs": [],
      "stateMutability": "nonpayable",
      "type": "function"
    },
    {
      "inputs": [
        {
          "internalType": "bytes4",
          "name": "interfaceId",
          "type": "bytes4"
        }
      ],
      "name": "supportsInterface",
      "outputs": [
        {
          "internalType": "bool",
          "name": "",
          "type": "bool"
        }
      ],
      "stateMutability": "pure",
      "type": "function"
    }
  ],
  "bytecode": "0x60e06040523480156200001157600080fd5b506040516200bfc83803806200bfc88339818101604052810190620000379190620002e7565b80600073ffffffffffffffffffffffffffffffffffffffff168173ffffffffffffffffffffffffffffffffffffffff1603620000ad5760006040517fd7f73334000000000000000000000000000000000000000000000000000000008152600401620000a491906200032a565b60405180910390fd5b8073ffffffffffffffffffffffffffffffffffffffff1660808173ffffffffffffffffffffffffffffffffffffffff168152505050336000806101000a81548173ffffffffffffffffffffffffffffffffffffffff021916908373ffffffffffffffffffffffffffffffffffffffff160217905550604051620001309062000253565b604051809103906000f0801580156200014d573d6000803e3d6000fd5b5073ffffffffffffffffffffffffffffffffffffffff1660c08173ffffffffffffffffffffffffffffffffffffffff16815250506040516200018f9062000261565b604051809103906000f080158015620001ac573d6000803e3d6000fd5b50600260006101000a81548173ffffffffffffffffffffffffffffffffffffffff021916908373ffffffffffffffffffffffffffffffffffffffff160217905550604051620001fb906200026f565b604051809103906000f08015801562000218573d6000803e3d6000fd5b5073ffffffffffffffffffffffffffffffffffffffff1660a08173ffffffffffffffffffffffffffffffffffffffff16815250505062000347565b6124a3806200208e83390190565b615c9f806200453183390190565b611df8806200a1d083390190565b600080fd5b600073ffffffffffffffffffffffffffffffffffffffff82169050919050565b6000620002af8262000282565b9050919050565b620002c181620002a2565b8114620002cd57600080fd5b50565b600081519050620002e181620002b6565b92915050565b6000602082840312156200030057620002ff6200027d565b5b60006200031084828501620002d0565b91505092915050565b6200032481620002a2565b82525050565b600060208201905062000341600083018462000319565b92915050565b60805160a05160c051611d106200037e60003960006107c5015260006108b6015260008181610604015261079a0152611d106000f3fe608060405234801561001057600080fd5b506004361061009e5760003560e01c806385572ffb1161006657806385572ffb1461015b5780639e1aaea114610177578063b0f479a114610193578063e98d594c146101b1578063ef50da53146101cd5761009e565b806301ffc9a7146100a357806320de2ee6146100d35780634273601c1461010357806363970f5614610121578063740c47d41461013f575b600080fd5b6100bd60048036038101906100b89190610dd2565b6101e9565b6040516100ca9190610e1a565b60405180910390f35b6100ed60048036038101906100e89190610e6b565b6102bb565b6040516100fa9190610ed9565b60405180910390f35b61010b6102fa565b6040516101189190610ed9565b60405180910390f35b61012961031e565b6040516101369190610fb2565b60405180910390f35b61015960048036038101906101549190610e6b565b6103ac565b005b61017560048036038101906101709190610ff8565b610602565b005b610191600480360381019061018c91906110ad565b6106a7565b005b61019b610796565b6040516101a89190610ed9565b60405180910390f35b6101cb60048036038101906101c691906112ed565b6107be565b005b6101e760048036038101906101e2919061135c565b6109e9565b005b60007f85572ffb000000000000000000000000000000000000000000000000000000007bffffffffffffffffffffffffffffffffffffffffffffffffffffffff1916827bffffffffffffffffffffffffffffffffffffffffffffffffffffffff191614806102b457507f01ffc9a7000000000000000000000000000000000000000000000000000000007bffffffffffffffffffffffffffffffffffffffffffffffffffffffff1916827bffffffffffffffffffffffffffffffffffffffffffffffffffffffff1916145b9050919050565b600181815481106102cb57600080fd5b906000526020600020016000915054906101000a900473ffffffffffffffffffffffffffffffffffffffff1681565b60008054906101000a900473ffffffffffffffffffffffffffffffffffffffff1681565b606060018054806020026020016040519081016040528092919081815260200182805480156103a257602002820191906000526020600020905b8160009054906101000a900473ffffffffffffffffffffffffffffffffffffffff1673ffffffffffffffffffffffffffffffffffffffff1681526020019060010190808311610358575b5050505050905090565b3373ffffffffffffffffffffffffffffffffffffffff166003600083815260200190815260200160002060009054906101000a900473ffffffffffffffffffffffffffffffffffffffff1673ffffffffffffffffffffffffffffffffffffffff1614610444576040517f5fc483c500000000000000000000000000000000000000000000000000000000815260040160405180910390fd5b60006001808054905061045791906113b8565b90508082146105815760018181548110610474576104736113ec565b5b9060005260206000200160009054906101000a900473ffffffffffffffffffffffffffffffffffffffff16600183815481106104b3576104b26113ec565b5b9060005260206000200160006101000a81548173ffffffffffffffffffffffffffffffffffffffff021916908373ffffffffffffffffffffffffffffffffffffffff1602179055506003600082815260200190815260200160002060009054906101000a900473ffffffffffffffffffffffffffffffffffffffff166003600084815260200190815260200160002060006101000a81548173ffffffffffffffffffffffffffffffffffffffff021916908373ffffffffffffffffffffffffffffffffffffffff1602179055505b60018054806105935761059261141b565b5b6001900381819060005260206000200160006101000a81549073ffffffffffffffffffffffffffffffffffffffff021916905590556003600082815260200190815260200160002060006101000a81549073ffffffffffffffffffffffffffffffffffffffff02191690555050565b7f000000000000000000000000000000000000000000000000000000000000000073ffffffffffffffffffffffffffffffffffffffff163373ffffffffffffffffffffffffffffffffffffffff161461069257336040517fd7f733340000000000000000000000000000000000000000000000000000000081526004016106899190610ed9565b60405180910390fd5b6106a48161069f90611719565b610ad8565b50565b60008054906101000a900473ffffffffffffffffffffffffffffffffffffffff1673ffffffffffffffffffffffffffffffffffffffff163373ffffffffffffffffffffffffffffffffffffffff161461072c576040517fd4c711d600000000000000000000000000000000000000000000000000000000815260040160405180910390fd5b80600460008467ffffffffffffffff1667ffffffffffffffff16815260200190815260200160002060006101000a81548173ffffffffffffffffffffffffffffffffffffffff021916908373ffffffffffffffffffffffffffffffffffffffff1602179055505050565b60007f0000000000000000000000000000000000000000000000000000000000000000905090565b60006107e97f0000000000000000000000000000000000000000000000000000000000000000610c2a565b90506000600260009054906101000a900473ffffffffffffffffffffffffffffffffffffffff1673ffffffffffffffffffffffffffffffffffffffff166390b352f785846040518363ffffffff1660e01b815260040161084a92919061173b565b6020604051808303816000875af1158015610869573d6000803e3d6000fd5b505050506040513d601f19601f8201168201806040525081019061088d9190611779565b905060008290508073ffffffffffffffffffffffffffffffffffffffff16636439684c878685337f00000000000000000000000000000000000000000000000000000000000000006040518663ffffffff1660e01b81526004016108f595949392919061189e565b600060405180830381600087803b15801561090f57600080fd5b505af1158015610923573d6000803e3d6000fd5b505050503360036000600180549050815260200190815260200160002060006101000a81548173ffffffffffffffffffffffffffffffffffffffff021916908373ffffffffffffffffffffffffffffffffffffffff1602179055506001819080600181540180825580915050600190039060005260206000200160009091909190916101000a81548173ffffffffffffffffffffffffffffffffffffffff021916908373ffffffffffffffffffffffffffffffffffffffff160217905550505050505050565b60008054906101000a900473ffffffffffffffffffffffffffffffffffffffff1673ffffffffffffffffffffffffffffffffffffffff163373ffffffffffffffffffffffffffffffffffffffff1614610a6e576040517fd4c711d600000000000000000000000000000000000000000000000000000000815260040160405180910390fd5b6000600460008367ffffffffffffffff1667ffffffffffffffff16815260200190815260200160002060006101000a81548173ffffffffffffffffffffffffffffffffffffffff021916908373ffffffffffffffffffffffffffffffffffffffff16021790555050565b8060400151806020019051810190610af09190611936565b73ffffffffffffffffffffffffffffffffffffffff1660046000836020015167ffffffffffffffff1667ffffffffffffffff16815260200190815260200160002060009054906101000a900473ffffffffffffffffffffffffffffffffffffffff1673ffffffffffffffffffffffffffffffffffffffff1614610b9f576040517fd79a227a00000000000000000000000000000000000000000000000000000000815260040160405180910390fd5b60008160600151806020019051810190610bb99190611abb565b9050610bc481610ce4565b816020015167ffffffffffffffff1682600001517fcde44b4f1d4a51abfed5cbe2b4ae24632539d99980c5988af6d4e2eb990c235a8460400151806020019051810190610c119190611936565b604051610c1e9190611b63565b60405180910390a35050565b6000763d602d80600a3d3981f3363d3d373d3d3d363d730000008260601b60e81c176000526e5af43d82803e903d91602b57fd5bf38260781b17602052603760096000f09050600073ffffffffffffffffffffffffffffffffffffffff168173ffffffffffffffffffffffffffffffffffffffff1603610cdf576040517f08c379a0000000000000000000000000000000000000000000000000000000008152600401610cd690611bdb565b60405180910390fd5b919050565b6000816000015190508073ffffffffffffffffffffffffffffffffffffffff1663510c2d0d836020015184604001516040518363ffffffff1660e01b8152600401610d30929190611caa565b600060405180830381600087803b158015610d4a57600080fd5b505af1158015610d5e573d6000803e3d6000fd5b505050505050565b6000604051905090565b600080fd5b600080fd5b60007fffffffff0000000000000000000000000000000000000000000000000000000082169050919050565b610daf81610d7a565b8114610dba57600080fd5b50565b600081359050610dcc81610da6565b92915050565b600060208284031215610de857610de7610d70565b5b6000610df684828501610dbd565b91505092915050565b60008115159050919050565b610e1481610dff565b82525050565b6000602082019050610e2f6000830184610e0b565b92915050565b6000819050919050565b610e4881610e35565b8114610e5357600080fd5b50565b600081359050610e6581610e3f565b92915050565b600060208284031215610e8157610e80610d70565b5b6000610e8f84828501610e56565b91505092915050565b600073ffffffffffffffffffffffffffffffffffffffff82169050919050565b6000610ec382610e98565b9050919050565b610ed381610eb8565b82525050565b6000602082019050610eee6000830184610eca565b92915050565b600081519050919050565b600082825260208201905092915050565b6000819050602082019050919050565b610f2981610eb8565b82525050565b6000610f3b8383610f20565b60208301905092915050565b6000602082019050919050565b6000610f5f82610ef4565b610f698185610eff565b9350610f7483610f10565b8060005b83811015610fa5578151610f8c8882610f2f565b9750610f9783610f47565b925050600181019050610f78565b5085935050505092915050565b60006020820190508181036000830152610fcc8184610f54565b905092915050565b600080fd5b600060a08284031215610fef57610fee610fd4565b5b81905092915050565b60006020828403121561100e5761100d610d70565b5b600082013567ffffffffffffffff81111561102c5761102b610d75565b5b61103884828501610fd9565b91505092915050565b600067ffffffffffffffff82169050919050565b61105e81611041565b811461106957600080fd5b50565b60008135905061107b81611055565b92915050565b61108a81610eb8565b811461109557600080fd5b50565b6000813590506110a781611081565b92915050565b600080604083850312156110c4576110c3610d70565b5b60006110d28582860161106c565b92505060206110e385828601611098565b9150509250929050565b600080fd5b6000601f19601f8301169050919050565b7f4e487b7100000000000000000000000000000000000000000000000000000000600052604160045260246000fd5b61113b826110f2565b810181811067ffffffffffffffff8211171561115a57611159611103565b5b80604052505050565b600061116d610d66565b90506111798282611132565b919050565b600080fd5b600080fd5b600080fd5b600067ffffffffffffffff8211156111a8576111a7611103565b5b6111b1826110f2565b9050602081019050919050565b82818337600083830152505050565b60006111e06111db8461118d565b611163565b9050828152602081018484840111156111fc576111fb611188565b5b6112078482856111be565b509392505050565b600082601f83011261122457611223611183565b5b81356112348482602086016111cd565b91505092915050565b600060808284031215611253576112526110ed565b5b61125d6080611163565b9050600061126d84828501610e56565b600083015250602061128184828501610e56565b602083015250604082013567ffffffffffffffff8111156112a5576112a461117e565b5b6112b18482850161120f565b604083015250606082013567ffffffffffffffff8111156112d5576112d461117e565b5b6112e18482850161120f565b60608301525092915050565b60008060006060848603121561130657611305610d70565b5b600084013567ffffffffffffffff81111561132457611323610d75565b5b6113308682870161123d565b935050602061134186828701610e56565b925050604061135286828701610e56565b9150509250925092565b60006020828403121561137257611371610d70565b5b60006113808482850161106c565b91505092915050565b7f4e487b7100000000000000000000000000000000000000000000000000000000600052601160045260246000fd5b60006113c382610e35565b91506113ce83610e35565b92508282039050818111156113e6576113e5611389565b5b92915050565b7f4e487b7100000000000000000000000000000000000000000000000000000000600052603260045260246000fd5b7f4e487b7100000000000000000000000000000000000000000000000000000000600052603160045260246000fd5b6000819050919050565b61145d8161144a565b811461146857600080fd5b50565b60008135905061147a81611454565b92915050565b600067ffffffffffffffff82111561149b5761149a611103565b5b6114a4826110f2565b9050602081019050919050565b60006114c46114bf84611480565b611163565b9050828152602081018484840111156114e0576114df611188565b5b6114eb8482856111be565b509392505050565b600082601f83011261150857611507611183565b5b81356115188482602086016114b1565b91505092915050565b600067ffffffffffffffff82111561153c5761153b611103565b5b602082029050602081019050919050565b600080fd5b600060408284031215611568576115676110ed565b5b6115726040611163565b9050600061158284828501611098565b600083015250602061159684828501610e56565b60208301525092915050565b60006115b56115b084611521565b611163565b905080838252602082019050604084028301858111156115d8576115d761154d565b5b835b8181101561160157806115ed8882611552565b8452602084019350506040810190506115da565b5050509392505050565b600082601f8301126116205761161f611183565b5b81356116308482602086016115a2565b91505092915050565b600060a0828403121561164f5761164e6110ed565b5b61165960a0611163565b905060006116698482850161146b565b600083015250602061167d8482850161106c565b602083015250604082013567ffffffffffffffff8111156116a1576116a061117e565b5b6116ad848285016114f3565b604083015250606082013567ffffffffffffffff8111156116d1576116d061117e565b5b6116dd848285016114f3565b606083015250608082013567ffffffffffffffff8111156117015761170061117e565b5b61170d8482850161160b565b60808301525092915050565b60006117253683611639565b9050919050565b61173581610e35565b82525050565b6000604082019050611750600083018561172c565b61175d6020830184610eca565b9392505050565b60008151905061177381611081565b92915050565b60006020828403121561178f5761178e610d70565b5b600061179d84828501611764565b91505092915050565b6117af81610e35565b82525050565b600081519050919050565b600082825260208201905092915050565b60005b838110156117ef5780820151818401526020810190506117d4565b60008484015250505050565b6000611806826117b5565b61181081856117c0565b93506118208185602086016117d1565b611829816110f2565b840191505092915050565b600060808301600083015161184c60008601826117a6565b50602083015161185f60208601826117a6565b506040830151848203604086015261187782826117fb565b9150506060830151848203606086015261189182826117fb565b9150508091505092915050565b600060a08201905081810360008301526118b88188611834565b90506118c7602083018761172c565b6118d46040830186610eca565b6118e16060830185610eca565b6118ee6080830184610eca565b9695505050505050565b600061190382610e98565b9050919050565b611913816118f8565b811461191e57600080fd5b50565b6000815190506119308161190a565b92915050565b60006020828403121561194c5761194b610d70565b5b600061195a84828501611921565b91505092915050565b600067ffffffffffffffff82111561197e5761197d611103565b5b602082029050602081019050919050565b60008151905061199e81610e3f565b92915050565b60006119b76119b284611963565b611163565b905080838252602082019050602084028301858111156119da576119d961154d565b5b835b81811015611a0357806119ef888261198f565b8452602084019350506020810190506119dc565b5050509392505050565b600082601f830112611a2257611a21611183565b5b8151611a328482602086016119a4565b91505092915050565b600060608284031215611a5157611a506110ed565b5b611a5b6060611163565b90506000611a6b84828501611764565b6000830152506020611a7f84828501611764565b602083015250604082015167ffffffffffffffff811115611aa357611aa261117e565b5b611aaf84828501611a0d565b60408301525092915050565b600060208284031215611ad157611ad0610d70565b5b600082015167ffffffffffffffff811115611aef57611aee610d75565b5b611afb84828501611a3b565b91505092915050565b6000819050919050565b6000611b29611b24611b1f84610e98565b611b04565b610e98565b9050919050565b6000611b3b82611b0e565b9050919050565b6000611b4d82611b30565b9050919050565b611b5d81611b42565b82525050565b6000602082019050611b786000830184611b54565b92915050565b600082825260208201905092915050565b7f455243313136373a20637265617465206661696c656400000000000000000000600082015250565b6000611bc5601683611b7e565b9150611bd082611b8f565b602082019050919050565b60006020820190508181036000830152611bf481611bb8565b9050919050565b600081519050919050565b600082825260208201905092915050565b6000819050602082019050919050565b6000611c3383836117a6565b60208301905092915050565b6000602082019050919050565b6000611c5782611bfb565b611c618185611c06565b9350611c6c83611c17565b8060005b83811015611c9d578151611c848882611c27565b9750611c8f83611c3f565b925050600181019050611c70565b5085935050505092915050565b6000604082019050611cbf6000830185610eca565b8181036020830152611cd18184611c4c565b9050939250505056fea264697066735822122039f6d46e34b1093638ea712bd6dc49549e2d60e5fac930774efc027da1bfe42464736f6c63430008180033608060405234801561001057600080fd5b50612483806100206000396000f3fe608060405234801561001057600080fd5b50600436106100ea5760003560e01c80636c74bf6d1161008c578063de11c94a11610066578063de11c94a14610239578063de29278914610257578063dfbf53ae14610275578063fdbc400614610293576100ea565b80636c74bf6d146101dc5780638da5cb5b146101fd578063c720990a1461021b576100ea565b8063462e91ec116100c8578063462e91ec1461016c578063510c2d0d146101885780636439684c146101a45780636a334fe3146101c0576100ea565b806309e9d7e2146100ef578063254fe7d71461010b5780633477ee2e1461013b575b600080fd5b610109600480360381019061010491906112b6565b6102b1565b005b61012560048036038101906101209190611341565b61041f565b6040516101329190611389565b60405180910390f35b610155600480360381019061015091906112b6565b61043f565b604051610163929190611443565b60405180910390f35b610186600480360381019061018191906114d8565b6104fb565b005b6101a2600480360381019061019d9190611663565b610637565b005b6101be60048036038101906101b9919061182e565b6107af565b005b6101da60048036038101906101d591906118c5565b610a3b565b005b6101e4610cd5565b6040516101f4949392919061190e565b60405180910390f35b610205610e03565b6040516102129190611970565b60405180910390f35b610223610e29565b604051610230919061198b565b60405180910390f35b610241610e2f565b60405161024e9190611970565b60405180910390f35b61025f610e55565b60405161026c919061198b565b60405180910390f35b61027d6110eb565b60405161028a919061198b565b60405180910390f35b61029b6110f1565b6040516102a89190611afe565b60405180910390f35b600760009054906101000a900473ffffffffffffffffffffffffffffffffffffffff1673ffffffffffffffffffffffffffffffffffffffff163373ffffffffffffffffffffffffffffffffffffffff1614610338576040517fa0acb8a400000000000000000000000000000000000000000000000000000000815260040160405180910390fd5b600c6001600c8054905061034c9190611b4f565b8154811061035d5761035c611b83565b5b9060005260206000209060020201600c828154811061037f5761037e611b83565b5b906000526020600020906002020160008201548160000155600182018160010190816103ab9190611dd4565b5090505080600c82815481106103c4576103c3611b83565b5b906000526020600020906002020160000181905550600c8054806103eb576103ea611ebc565b5b6001900381819060005260206000209060020201600080820160009055600182016000610418919061120f565b5050905550565b60016020528060005260406000206000915054906101000a900460ff1681565b600c818154811061044f57600080fd5b906000526020600020906002020160009150905080600001549080600101805461047890611be1565b80601f01602080910402602001604051908101604052809291908181526020018280546104a490611be1565b80156104f15780601f106104c6576101008083540402835291602001916104f1565b820191906000526020600020905b8154815290600101906020018083116104d457829003601f168201915b5050505050905082565b600760009054906101000a900473ffffffffffffffffffffffffffffffffffffffff1673ffffffffffffffffffffffffffffffffffffffff163373ffffffffffffffffffffffffffffffffffffffff1614610582576040517fa0acb8a400000000000000000000000000000000000000000000000000000000815260040160405180910390fd5b60006040518060400160405280600c80549050815260200184848080601f016020809104026020016040519081016040528093929190818152602001838380828437600081840152601f19601f820116905080830192505050505050508152509050600c81908060018154018082558091505060019003906000526020600020906002020160009091909190915060008201518160000155602082015181600101908161062f9190611eeb565b505050505050565b600660009054906101000a900473ffffffffffffffffffffffffffffffffffffffff1673ffffffffffffffffffffffffffffffffffffffff163373ffffffffffffffffffffffffffffffffffffffff16146106c7576040517f08c379a00000000000000000000000000000000000000000000000000000000081526004016106be90612009565b60405180910390fd5b60018060008473ffffffffffffffffffffffffffffffffffffffff1673ffffffffffffffffffffffffffffffffffffffff16815260200190815260200160002060006101000a81548160ff021916908315150217905550600a60019054906101000a900473ffffffffffffffffffffffffffffffffffffffff1673ffffffffffffffffffffffffffffffffffffffff1663ce11f2bb826040518263ffffffff1660e01b815260040161077991906120d8565b600060405180830381600087803b15801561079357600080fd5b505af11580156107a7573d6000803e3d6000fd5b505050505050565b60008060019054906101000a900460ff161590508080156107e05750600160008054906101000a900460ff1660ff16105b8061080d57506107ef306111ec565b15801561080c5750600160008054906101000a900460ff1660ff16145b5b61084c576040517f08c379a00000000000000000000000000000000000000000000000000000000081526004016108439061216c565b60405180910390fd5b60016000806101000a81548160ff021916908360ff1602179055508015610889576001600060016101000a81548160ff0219169083151502179055505b856002600082015181600001556020820151816001015560408201518160020190816108b59190611eeb565b5060608201518160030190816108cb9190611eeb565b509050508460098190555082600760006101000a81548173ffffffffffffffffffffffffffffffffffffffff021916908373ffffffffffffffffffffffffffffffffffffffff16021790555033600660006101000a81548173ffffffffffffffffffffffffffffffffffffffff021916908373ffffffffffffffffffffffffffffffffffffffff16021790555083600a60016101000a81548173ffffffffffffffffffffffffffffffffffffffff021916908373ffffffffffffffffffffffffffffffffffffffff16021790555081600b60006101000a81548173ffffffffffffffffffffffffffffffffffffffff021916908373ffffffffffffffffffffffffffffffffffffffff1602179055508015610a335760008060016101000a81548160ff0219169083151502179055507f7f26b83ff96e1f2b6a682f133852f6798a09c465da95921460cefb38474024986001604051610a2a91906121d4565b60405180910390a15b505050505050565b60001515600160003373ffffffffffffffffffffffffffffffffffffffff1673ffffffffffffffffffffffffffffffffffffffff16815260200190815260200160002060009054906101000a900460ff16151514610ace576040517f08c379a0000000000000000000000000000000000000000000000000000000008152600401610ac59061223b565b60405180910390fd5b60026000015442118015610ae6575060026001015442105b610b25576040517f08c379a0000000000000000000000000000000000000000000000000000000008152600401610b1c906122a7565b60405180910390fd5b60001515600a60009054906101000a900460ff16151503610bee57600a60019054906101000a900473ffffffffffffffffffffffffffffffffffffffff1673ffffffffffffffffffffffffffffffffffffffff1663b7b0422d600c805490506040518263ffffffff1660e01b8152600401610ba0919061198b565b600060405180830381600087803b158015610bba57600080fd5b505af1158015610bce573d6000803e3d6000fd5b505050506001600a60006101000a81548160ff0219169083151502179055505b600a60019054906101000a900473ffffffffffffffffffffffffffffffffffffffff1673ffffffffffffffffffffffffffffffffffffffff1663ce11f2bb826040518263ffffffff1660e01b8152600401610c4991906120d8565b600060405180830381600087803b158015610c6357600080fd5b505af1158015610c77573d6000803e3d6000fd5b5050505060018060003373ffffffffffffffffffffffffffffffffffffffff1673ffffffffffffffffffffffffffffffffffffffff16815260200190815260200160002060006101000a81548160ff02191690831515021790555050565b6002806000015490806001015490806002018054610cf290611be1565b80601f0160208091040260200160405190810160405280929190818152602001828054610d1e90611be1565b8015610d6b5780601f10610d4057610100808354040283529160200191610d6b565b820191906000526020600020905b815481529060010190602001808311610d4e57829003601f168201915b505050505090806003018054610d8090611be1565b80601f0160208091040260200160405190810160405280929190818152602001828054610dac90611be1565b8015610df95780601f10610dce57610100808354040283529160200191610df9565b820191906000526020600020905b815481529060010190602001808311610ddc57829003601f168201915b5050505050905084565b600760009054906101000a900473ffffffffffffffffffffffffffffffffffffffff1681565b60095481565b600660009054906101000a900473ffffffffffffffffffffffffffffffffffffffff1681565b6000600760009054906101000a900473ffffffffffffffffffffffffffffffffffffffff1673ffffffffffffffffffffffffffffffffffffffff163373ffffffffffffffffffffffffffffffffffffffff1614610ede576040517fa0acb8a400000000000000000000000000000000000000000000000000000000815260040160405180910390fd5b60006040516024016040516020818303038152906040527f0dc96015000000000000000000000000000000000000000000000000000000007bffffffffffffffffffffffffffffffffffffffffffffffffffffffff19166020820180517bffffffffffffffffffffffffffffffffffffffffffffffffffffffff83818316178352505050509050600080600a60019054906101000a900473ffffffffffffffffffffffffffffffffffffffff1673ffffffffffffffffffffffffffffffffffffffff1683604051610faf919061230e565b600060405180830381855afa9150503d8060008114610fea576040519150601f19603f3d011682016040523d82523d6000602084013e610fef565b606091505b509150915081611034576040517f08c379a000000000000000000000000000000000000000000000000000000000815260040161102b90612371565b60405180910390fd5b6000600b60009054906101000a900473ffffffffffffffffffffffffffffffffffffffff1673ffffffffffffffffffffffffffffffffffffffff1663934150cc836009546040518363ffffffff1660e01b81526004016110959291906123db565b6020604051808303816000875af11580156110b4573d6000803e3d6000fd5b505050506040513d601f19601f820116820180604052508101906110d89190612420565b9050806008819055508094505050505090565b60085481565b6060600c805480602002602001604051908101604052809291908181526020016000905b828210156111e357838290600052602060002090600202016040518060400160405290816000820154815260200160018201805461115290611be1565b80601f016020809104026020016040519081016040528092919081815260200182805461117e90611be1565b80156111cb5780601f106111a0576101008083540402835291602001916111cb565b820191906000526020600020905b8154815290600101906020018083116111ae57829003601f168201915b50505050508152505081526020019060010190611115565b50505050905090565b6000808273ffffffffffffffffffffffffffffffffffffffff163b119050919050565b50805461121b90611be1565b6000825580601f1061122d575061124c565b601f01602090049060005260206000209081019061124b919061124f565b5b50565b5b80821115611268576000816000905550600101611250565b5090565b6000604051905090565b600080fd5b600080fd5b6000819050919050565b61129381611280565b811461129e57600080fd5b50565b6000813590506112b08161128a565b92915050565b6000602082840312156112cc576112cb611276565b5b60006112da848285016112a1565b91505092915050565b600073ffffffffffffffffffffffffffffffffffffffff82169050919050565b600061130e826112e3565b9050919050565b61131e81611303565b811461132957600080fd5b50565b60008135905061133b81611315565b92915050565b60006020828403121561135757611356611276565b5b60006113658482850161132c565b91505092915050565b60008115159050919050565b6113838161136e565b82525050565b600060208201905061139e600083018461137a565b92915050565b6113ad81611280565b82525050565b600081519050919050565b600082825260208201905092915050565b60005b838110156113ed5780820151818401526020810190506113d2565b60008484015250505050565b6000601f19601f8301169050919050565b6000611415826113b3565b61141f81856113be565b935061142f8185602086016113cf565b611438816113f9565b840191505092915050565b600060408201905061145860008301856113a4565b818103602083015261146a818461140a565b90509392505050565b600080fd5b600080fd5b600080fd5b60008083601f84011261149857611497611473565b5b8235905067ffffffffffffffff8111156114b5576114b4611478565b5b6020830191508360018202830111156114d1576114d061147d565b5b9250929050565b600080602083850312156114ef576114ee611276565b5b600083013567ffffffffffffffff81111561150d5761150c61127b565b5b61151985828601611482565b92509250509250929050565b7f4e487b7100000000000000000000000000000000000000000000000000000000600052604160045260246000fd5b61155d826113f9565b810181811067ffffffffffffffff8211171561157c5761157b611525565b5b80604052505050565b600061158f61126c565b905061159b8282611554565b919050565b600067ffffffffffffffff8211156115bb576115ba611525565b5b602082029050602081019050919050565b60006115df6115da846115a0565b611585565b905080838252602082019050602084028301858111156116025761160161147d565b5b835b8181101561162b578061161788826112a1565b845260208401935050602081019050611604565b5050509392505050565b600082601f83011261164a57611649611473565b5b813561165a8482602086016115cc565b91505092915050565b6000806040838503121561167a57611679611276565b5b60006116888582860161132c565b925050602083013567ffffffffffffffff8111156116a9576116a861127b565b5b6116b585828601611635565b9150509250929050565b600080fd5b600080fd5b600080fd5b600067ffffffffffffffff8211156116e9576116e8611525565b5b6116f2826113f9565b9050602081019050919050565b82818337600083830152505050565b600061172161171c846116ce565b611585565b90508281526020810184848401111561173d5761173c6116c9565b5b6117488482856116ff565b509392505050565b600082601f83011261176557611764611473565b5b813561177584826020860161170e565b91505092915050565b600060808284031215611794576117936116bf565b5b61179e6080611585565b905060006117ae848285016112a1565b60008301525060206117c2848285016112a1565b602083015250604082013567ffffffffffffffff8111156117e6576117e56116c4565b5b6117f284828501611750565b604083015250606082013567ffffffffffffffff811115611816576118156116c4565b5b61182284828501611750565b60608301525092915050565b600080600080600060a0868803121561184a57611849611276565b5b600086013567ffffffffffffffff8111156118685761186761127b565b5b6118748882890161177e565b9550506020611885888289016112a1565b94505060406118968882890161132c565b93505060606118a78882890161132c565b92505060806118b88882890161132c565b9150509295509295909350565b6000602082840312156118db576118da611276565b5b600082013567ffffffffffffffff8111156118f9576118f861127b565b5b61190584828501611635565b91505092915050565b600060808201905061192360008301876113a4565b61193060208301866113a4565b8181036040830152611942818561140a565b90508181036060830152611956818461140a565b905095945050505050565b61196a81611303565b82525050565b60006020820190506119856000830184611961565b92915050565b60006020820190506119a060008301846113a4565b92915050565b600081519050919050565b600082825260208201905092915050565b6000819050602082019050919050565b6119db81611280565b82525050565b600082825260208201905092915050565b60006119fd826113b3565b611a0781856119e1565b9350611a178185602086016113cf565b611a20816113f9565b840191505092915050565b6000604083016000830151611a4360008601826119d2565b5060208301518482036020860152611a5b82826119f2565b9150508091505092915050565b6000611a748383611a2b565b905092915050565b6000602082019050919050565b6000611a94826119a6565b611a9e81856119b1565b935083602082028501611ab0856119c2565b8060005b85811015611aec5784840389528151611acd8582611a68565b9450611ad883611a7c565b925060208a01995050600181019050611ab4565b50829750879550505050505092915050565b60006020820190508181036000830152611b188184611a89565b905092915050565b7f4e487b7100000000000000000000000000000000000000000000000000000000600052601160045260246000fd5b6000611b5a82611280565b9150611b6583611280565b9250828203905081811115611b7d57611b7c611b20565b5b92915050565b7f4e487b7100000000000000000000000000000000000000000000000000000000600052603260045260246000fd5b7f4e487b7100000000000000000000000000000000000000000000000000000000600052602260045260246000fd5b60006002820490506001821680611bf957607f821691505b602082108103611c0c57611c0b611bb2565b5b50919050565b600081549050611c2181611be1565b9050919050565b60008190508160005260206000209050919050565b60006020601f8301049050919050565b600082821b905092915050565b600060088302611c8a7fffffffffffffffffffffffffffffffffffffffffffffffffffffffffffffffff82611c4d565b611c948683611c4d565b95508019841693508086168417925050509392505050565b6000819050919050565b6000611cd1611ccc611cc784611280565b611cac565b611280565b9050919050565b6000819050919050565b611ceb83611cb6565b611cff611cf782611cd8565b848454611c5a565b825550505050565b600090565b611d14611d07565b611d1f818484611ce2565b505050565b5b81811015611d4357611d38600082611d0c565b600181019050611d25565b5050565b601f821115611d8857611d5981611c28565b611d6284611c3d565b81016020851015611d71578190505b611d85611d7d85611c3d565b830182611d24565b50505b505050565b600082821c905092915050565b6000611dab60001984600802611d8d565b1980831691505092915050565b6000611dc48383611d9a565b9150826002028217905092915050565b818103611de2575050611eba565b611deb82611c12565b67ffffffffffffffff811115611e0457611e03611525565b5b611e0e8254611be1565b611e19828285611d47565b6000601f831160018114611e485760008415611e36578287015490505b611e408582611db8565b865550611eb3565b601f198416611e5687611c28565b9650611e6186611c28565b60005b82811015611e8957848901548255600182019150600185019450602081019050611e64565b86831015611ea65784890154611ea2601f891682611d9a565b8355505b6001600288020188555050505b5050505050505b565b7f4e487b7100000000000000000000000000000000000000000000000000000000600052603160045260246000fd5b611ef4826113b3565b67ffffffffffffffff811115611f0d57611f0c611525565b5b611f178254611be1565b611f22828285611d47565b600060209050601f831160018114611f555760008415611f43578287015190505b611f4d8582611db8565b865550611fb5565b601f198416611f6386611c28565b60005b82811015611f8b57848901518255600182019150602085019450602081019050611f66565b86831015611fa85784890151611fa4601f891682611d9a565b8355505b6001600288020188555050505b505050505050565b7f43616e6e6f742063616c6c000000000000000000000000000000000000000000600082015250565b6000611ff3600b836113be565b9150611ffe82611fbd565b602082019050919050565b6000602082019050818103600083015261202281611fe6565b9050919050565b600081519050919050565b600082825260208201905092915050565b6000819050602082019050919050565b600061206183836119d2565b60208301905092915050565b6000602082019050919050565b600061208582612029565b61208f8185612034565b935061209a83612045565b8060005b838110156120cb5781516120b28882612055565b97506120bd8361206d565b92505060018101905061209e565b5085935050505092915050565b600060208201905081810360008301526120f2818461207a565b905092915050565b7f496e697469616c697a61626c653a20636f6e747261637420697320616c72656160008201527f647920696e697469616c697a6564000000000000000000000000000000000000602082015250565b6000612156602e836113be565b9150612161826120fa565b604082019050919050565b6000602082019050818103600083015261218581612149565b9050919050565b6000819050919050565b600060ff82169050919050565b60006121be6121b96121b48461218c565b611cac565b612196565b9050919050565b6121ce816121a3565b82525050565b60006020820190506121e960008301846121c5565b92915050565b7f5573657220566f74656400000000000000000000000000000000000000000000600082015250565b6000612225600a836113be565b9150612230826121ef565b602082019050919050565b6000602082019050818103600083015261225481612218565b9050919050565b7f456c656374696f6e206e6f742061637469766500000000000000000000000000600082015250565b60006122916013836113be565b915061229c8261225b565b602082019050919050565b600060208201905081810360008301526122c081612284565b9050919050565b600081519050919050565b600081905092915050565b60006122e8826122c7565b6122f281856122d2565b93506123028185602086016113cf565b80840191505092915050565b600061231a82846122dd565b915081905092915050565b7f43616c6c20746f20676574566f746573206661696c6564000000000000000000600082015250565b600061235b6017836113be565b915061236682612325565b602082019050919050565b6000602082019050818103600083015261238a8161234e565b9050919050565b600082825260208201905092915050565b60006123ad826122c7565b6123b78185612391565b93506123c78185602086016113cf565b6123d0816113f9565b840191505092915050565b600060408201905081810360008301526123f581856123a2565b905061240460208301846113a4565b9392505050565b60008151905061241a8161128a565b92915050565b60006020828403121561243657612435611276565b5b60006124448482850161240b565b9150509291505056fea26469706673582212206ace5c71ea8d8d81a6a578f83e535b4e6c794fb97f461fe4dcb8d904032f99ae64736f6c63430008180033608060405234801561001057600080fd5b50615c7f806100206000396000f3fe608060405234801561001057600080fd5b506004361061002b5760003560e01c806390b352f714610030575b600080fd5b61004a600480360381019061004591906103b8565b610060565b6040516100579190610407565b60405180910390f35b6000600183036100a55781604051610077906102b7565b6100819190610407565b604051809103906000f08015801561009d573d6000803e3d6000fd5b5090506102b1565b600283036100e857816040516100ba906102c4565b6100c49190610407565b604051809103906000f0801580156100e0573d6000803e3d6000fd5b5090506102b1565b6003830361012b57816040516100fd906102d1565b6101079190610407565b604051809103906000f080158015610123573d6000803e3d6000fd5b5090506102b1565b6004830361016e5781604051610140906102de565b61014a9190610407565b604051809103906000f080158015610166573d6000803e3d6000fd5b5090506102b1565b600583036101b15781604051610183906102eb565b61018d9190610407565b604051809103906000f0801580156101a9573d6000803e3d6000fd5b5090506102b1565b600683036101f457816040516101c6906102f8565b6101d09190610407565b604051809103906000f0801580156101ec573d6000803e3d6000fd5b5090506102b1565b60078303610237578160405161020990610305565b6102139190610407565b604051809103906000f08015801561022f573d6000803e3d6000fd5b5090506102b1565b6008830361027a578160405161024c90610312565b6102569190610407565b604051809103906000f080158015610272573d6000803e3d6000fd5b5090506102b1565b81604051610287906102b7565b6102919190610407565b604051809103906000f0801580156102ad573d6000803e3d6000fd5b5090505b92915050565b6109da8061042383390190565b610c3480610dfd83390190565b61096b80611a3183390190565b61096b8061239c83390190565b610b4380612d0783390190565b610aaa8061384a83390190565b610cab806142f483390190565b610cab80614f9f83390190565b600080fd5b6000819050919050565b61033781610324565b811461034257600080fd5b50565b6000813590506103548161032e565b92915050565b600073ffffffffffffffffffffffffffffffffffffffff82169050919050565b60006103858261035a565b9050919050565b6103958161037a565b81146103a057600080fd5b50565b6000813590506103b28161038c565b92915050565b600080604083850312156103cf576103ce61031f565b5b60006103dd85828601610345565b92505060206103ee858286016103a3565b9150509250929050565b6104018161037a565b82525050565b600060208201905061041c60008301846103f8565b9291505056fe608060405234801561001057600080fd5b506040516109da3803806109da833981810160405281019061003291906100db565b806000806101000a81548173ffffffffffffffffffffffffffffffffffffffff021916908373ffffffffffffffffffffffffffffffffffffffff16021790555050610108565b600080fd5b600073ffffffffffffffffffffffffffffffffffffffff82169050919050565b60006100a88261007d565b9050919050565b6100b88161009d565b81146100c357600080fd5b50565b6000815190506100d5816100af565b92915050565b6000602082840312156100f1576100f0610078565b5b60006100ff848285016100c6565b91505092915050565b6108c3806101176000396000f3fe608060405234801561001057600080fd5b506004361061004c5760003560e01c80630dc9601514610051578063b7b0422d1461006f578063ce11f2bb1461008b578063e407bcbd146100a7575b600080fd5b6100596100c5565b604051610066919061055a565b60405180910390f35b610089600480360381019061008491906105bc565b6101a2565b005b6100a560048036038101906100a09190610742565b610290565b005b6100af6103c6565b6040516100bc91906107cc565b60405180910390f35b606060008054906101000a900473ffffffffffffffffffffffffffffffffffffffff1673ffffffffffffffffffffffffffffffffffffffff163373ffffffffffffffffffffffffffffffffffffffff161461014c576040517fa0acb8a400000000000000000000000000000000000000000000000000000000815260040160405180910390fd5b600280548060200260200160405190810160405280929190818152602001828054801561019857602002820191906000526020600020905b815481526020019060010190808311610184575b5050505050905090565b60008054906101000a900473ffffffffffffffffffffffffffffffffffffffff1673ffffffffffffffffffffffffffffffffffffffff163373ffffffffffffffffffffffffffffffffffffffff1614610227576040517fa0acb8a400000000000000000000000000000000000000000000000000000000815260040160405180910390fd5b806001819055508067ffffffffffffffff811115610248576102476105ff565b5b6040519080825280602002602001820160405280156102765781602001602082028036833780820191505090505b506002908051906020019061028c929190610428565b5050565b60008054906101000a900473ffffffffffffffffffffffffffffffffffffffff1673ffffffffffffffffffffffffffffffffffffffff163373ffffffffffffffffffffffffffffffffffffffff1614610315576040517fa0acb8a400000000000000000000000000000000000000000000000000000000815260040160405180910390fd5b6001815114610350576040517f5495aae600000000000000000000000000000000000000000000000000000000815260040160405180910390fd5b61037481600081518110610367576103666107e7565b5b60200260200101516103ea565b60028160008151811061038a576103896107e7565b5b6020026020010151815481106103a3576103a26107e7565b5b9060005260206000200160008154809291906103be90610845565b919050555050565b60008054906101000a900473ffffffffffffffffffffffffffffffffffffffff1681565b6001548110610425576040517f5c87eb8a00000000000000000000000000000000000000000000000000000000815260040160405180910390fd5b50565b828054828255906000526020600020908101928215610464579160200282015b82811115610463578251825591602001919060010190610448565b5b5090506104719190610475565b5090565b5b8082111561048e576000816000905550600101610476565b5090565b600081519050919050565b600082825260208201905092915050565b6000819050602082019050919050565b6000819050919050565b6104d1816104be565b82525050565b60006104e383836104c8565b60208301905092915050565b6000602082019050919050565b600061050782610492565b610511818561049d565b935061051c836104ae565b8060005b8381101561054d57815161053488826104d7565b975061053f836104ef565b925050600181019050610520565b5085935050505092915050565b6000602082019050818103600083015261057481846104fc565b905092915050565b6000604051905090565b600080fd5b600080fd5b610599816104be565b81146105a457600080fd5b50565b6000813590506105b681610590565b92915050565b6000602082840312156105d2576105d1610586565b5b60006105e0848285016105a7565b91505092915050565b600080fd5b6000601f19601f8301169050919050565b7f4e487b7100000000000000000000000000000000000000000000000000000000600052604160045260246000fd5b610637826105ee565b810181811067ffffffffffffffff82111715610656576106556105ff565b5b80604052505050565b600061066961057c565b9050610675828261062e565b919050565b600067ffffffffffffffff821115610695576106946105ff565b5b602082029050602081019050919050565b600080fd5b60006106be6106b98461067a565b61065f565b905080838252602082019050602084028301858111156106e1576106e06106a6565b5b835b8181101561070a57806106f688826105a7565b8452602084019350506020810190506106e3565b5050509392505050565b600082601f830112610729576107286105e9565b5b81356107398482602086016106ab565b91505092915050565b60006020828403121561075857610757610586565b5b600082013567ffffffffffffffff8111156107765761077561058b565b5b61078284828501610714565b91505092915050565b600073ffffffffffffffffffffffffffffffffffffffff82169050919050565b60006107b68261078b565b9050919050565b6107c6816107ab565b82525050565b60006020820190506107e160008301846107bd565b92915050565b7f4e487b7100000000000000000000000000000000000000000000000000000000600052603260045260246000fd5b7f4e487b7100000000000000000000000000000000000000000000000000000000600052601160045260246000fd5b6000610850826104be565b91507fffffffffffffffffffffffffffffffffffffffffffffffffffffffffffffffff820361088257610881610816565b5b60018201905091905056fea264697066735822122033138643efbc4d660fa7ed30e57204c83eb97dcf81c3378b79592b18d192eb7264736f6c63430008180033608060405234801561001057600080fd5b50604051610c34380380610c34833981810160405281019061003291906100db565b806000806101000a81548173ffffffffffffffffffffffffffffffffffffffff021916908373ffffffffffffffffffffffffffffffffffffffff16021790555050610108565b600080fd5b600073ffffffffffffffffffffffffffffffffffffffff82169050919050565b60006100a88261007d565b9050919050565b6100b88161009d565b81146100c357600080fd5b50565b6000815190506100d5816100af565b92915050565b6000602082840312156100f1576100f0610078565b5b60006100ff848285016100c6565b91505092915050565b610b1d806101176000396000f3fe608060405234801561001057600080fd5b506004361061004c5760003560e01c80630dc9601514610051578063b7b0422d1461006f578063ce11f2bb1461008b578063e407bcbd146100a7575b600080fd5b6100596100c5565b6040516100669190610609565b60405180910390f35b6100896004803603810190610084919061066b565b6101a2565b005b6100a560048036038101906100a091906107f1565b610289565b005b6100af610426565b6040516100bc919061087b565b60405180910390f35b606060008054906101000a900473ffffffffffffffffffffffffffffffffffffffff1673ffffffffffffffffffffffffffffffffffffffff163373ffffffffffffffffffffffffffffffffffffffff161461014c576040517fa0acb8a400000000000000000000000000000000000000000000000000000000815260040160405180910390fd5b600180548060200260200160405190810160405280929190818152602001828054801561019857602002820191906000526020600020905b815481526020019060010190808311610184575b5050505050905090565b60008054906101000a900473ffffffffffffffffffffffffffffffffffffffff1673ffffffffffffffffffffffffffffffffffffffff163373ffffffffffffffffffffffffffffffffffffffff1614610227576040517fa0acb8a400000000000000000000000000000000000000000000000000000000815260040160405180910390fd5b8067ffffffffffffffff811115610241576102406106ae565b5b60405190808252806020026020018201604052801561026f5781602001602082028036833780820191505090505b50600190805190602001906102859291906104d7565b5050565b60008054906101000a900473ffffffffffffffffffffffffffffffffffffffff1673ffffffffffffffffffffffffffffffffffffffff163373ffffffffffffffffffffffffffffffffffffffff161461030e576040517fa0acb8a400000000000000000000000000000000000000000000000000000000815260040160405180910390fd5b600060018054905090508082511461035b576040517f08c379a0000000000000000000000000000000000000000000000000000000008152600401610352906108f3565b60405180910390fd5b6103648261044a565b6103a3576040517f08c379a000000000000000000000000000000000000000000000000000000000815260040161039a9061095f565b60405180910390fd5b60005b8181101561042157600181836103bc91906109ae565b6103c691906109ae565b60018483815181106103db576103da6109e2565b5b6020026020010151815481106103f4576103f36109e2565b5b90600052602060002001600082825461040d9190610a11565b9250508190555080806001019150506103a6565b505050565b60008054906101000a900473ffffffffffffffffffffffffffffffffffffffff1681565b600080600180549050905060008160026001846104679190610a11565b846104729190610a45565b61047c9190610ab6565b61048691906109ae565b905060005b84518110156104c9578481815181106104a7576104a66109e2565b5b6020026020010151826104ba91906109ae565b9150808060010191505061048b565b506000811492505050919050565b828054828255906000526020600020908101928215610513579160200282015b828111156105125782518255916020019190600101906104f7565b5b5090506105209190610524565b5090565b5b8082111561053d576000816000905550600101610525565b5090565b600081519050919050565b600082825260208201905092915050565b6000819050602082019050919050565b6000819050919050565b6105808161056d565b82525050565b60006105928383610577565b60208301905092915050565b6000602082019050919050565b60006105b682610541565b6105c0818561054c565b93506105cb8361055d565b8060005b838110156105fc5781516105e38882610586565b97506105ee8361059e565b9250506001810190506105cf565b5085935050505092915050565b6000602082019050818103600083015261062381846105ab565b905092915050565b6000604051905090565b600080fd5b600080fd5b6106488161056d565b811461065357600080fd5b50565b6000813590506106658161063f565b92915050565b60006020828403121561068157610680610635565b5b600061068f84828501610656565b91505092915050565b600080fd5b6000601f19601f8301169050919050565b7f4e487b7100000000000000000000000000000000000000000000000000000000600052604160045260246000fd5b6106e68261069d565b810181811067ffffffffffffffff82111715610705576107046106ae565b5b80604052505050565b600061071861062b565b905061072482826106dd565b919050565b600067ffffffffffffffff821115610744576107436106ae565b5b602082029050602081019050919050565b600080fd5b600061076d61076884610729565b61070e565b905080838252602082019050602084028301858111156107905761078f610755565b5b835b818110156107b957806107a58882610656565b845260208401935050602081019050610792565b5050509392505050565b600082601f8301126107d8576107d7610698565b5b81356107e884826020860161075a565b91505092915050565b60006020828403121561080757610806610635565b5b600082013567ffffffffffffffff8111156108255761082461063a565b5b610831848285016107c3565b91505092915050565b600073ffffffffffffffffffffffffffffffffffffffff82169050919050565b60006108658261083a565b9050919050565b6108758161085a565b82525050565b6000602082019050610890600083018461086c565b92915050565b600082825260208201905092915050565b7f566f74657320646f6e2774206d61746368207468652063616e64696461746573600082015250565b60006108dd602083610896565b91506108e8826108a7565b602082019050919050565b6000602082019050818103600083015261090c816108d0565b9050919050565b7f496e636f7272656374206372656469747320676976656e000000000000000000600082015250565b6000610949601783610896565b915061095482610913565b602082019050919050565b600060208201905081810360008301526109788161093c565b9050919050565b7f4e487b7100000000000000000000000000000000000000000000000000000000600052601160045260246000fd5b60006109b98261056d565b91506109c48361056d565b92508282039050818111156109dc576109db61097f565b5b92915050565b7f4e487b7100000000000000000000000000000000000000000000000000000000600052603260045260246000fd5b6000610a1c8261056d565b9150610a278361056d565b9250828201905080821115610a3f57610a3e61097f565b5b92915050565b6000610a508261056d565b9150610a5b8361056d565b9250828202610a698161056d565b91508282048414831517610a8057610a7f61097f565b5b5092915050565b7f4e487b7100000000000000000000000000000000000000000000000000000000600052601260045260246000fd5b6000610ac18261056d565b9150610acc8361056d565b925082610adc57610adb610a87565b5b82820490509291505056fea2646970667358221220c8f69cd15b14e49c79e05d257d5fb22e9772d7a7c6c3cdf484289763f869bc6f64736f6c63430008180033608060405234801561001057600080fd5b5060405161096b38038061096b833981810160405281019061003291906100db565b806000806101000a81548173ffffffffffffffffffffffffffffffffffffffff021916908373ffffffffffffffffffffffffffffffffffffffff16021790555050610108565b600080fd5b600073ffffffffffffffffffffffffffffffffffffffff82169050919050565b60006100a88261007d565b9050919050565b6100b88161009d565b81146100c357600080fd5b50565b6000815190506100d5816100af565b92915050565b6000602082840312156100f1576100f0610078565b5b60006100ff848285016100c6565b91505092915050565b610854806101176000396000f3fe608060405234801561001057600080fd5b506004361061004c5760003560e01c80630dc9601514610051578063b7b0422d1461006f578063ce11f2bb1461008b578063e407bcbd146100a7575b600080fd5b6100596100c5565b6040516100669190610514565b60405180910390f35b61008960048036038101906100849190610576565b610164565b005b6100a560048036038101906100a091906106fc565b6101f3565b005b6100af6102fc565b6040516100bc9190610786565b60405180910390f35b60606002805480602002602001604051908101604052809291908181526020016000905b8282101561015b5783829060005260206000200180548060200260200160405190810160405280929190818152602001828054801561014757602002820191906000526020600020905b815481526020019060010190808311610133575b5050505050815260200190600101906100e9565b50505050905090565b60008054906101000a900473ffffffffffffffffffffffffffffffffffffffff1673ffffffffffffffffffffffffffffffffffffffff163373ffffffffffffffffffffffffffffffffffffffff16146101e9576040517fa0acb8a400000000000000000000000000000000000000000000000000000000815260040160405180910390fd5b8060018190555050565b60008054906101000a900473ffffffffffffffffffffffffffffffffffffffff1673ffffffffffffffffffffffffffffffffffffffff163373ffffffffffffffffffffffffffffffffffffffff1614610278576040517fa0acb8a400000000000000000000000000000000000000000000000000000000815260040160405180910390fd5b8051600154146102bd576040517f08c379a00000000000000000000000000000000000000000000000000000000081526004016102b4906107fe565b60405180910390fd5b6002819080600181540180825580915050600190039060005260206000200160009091909190915090805190602001906102f8929190610320565b5050565b60008054906101000a900473ffffffffffffffffffffffffffffffffffffffff1681565b82805482825590600052602060002090810192821561035c579160200282015b8281111561035b578251825591602001919060010190610340565b5b509050610369919061036d565b5090565b5b8082111561038657600081600090555060010161036e565b5090565b600081519050919050565b600082825260208201905092915050565b6000819050602082019050919050565b600081519050919050565b600082825260208201905092915050565b6000819050602082019050919050565b6000819050919050565b6103f5816103e2565b82525050565b600061040783836103ec565b60208301905092915050565b6000602082019050919050565b600061042b826103b6565b61043581856103c1565b9350610440836103d2565b8060005b8381101561047157815161045888826103fb565b975061046383610413565b925050600181019050610444565b5085935050505092915050565b600061048a8383610420565b905092915050565b6000602082019050919050565b60006104aa8261038a565b6104b48185610395565b9350836020820285016104c6856103a6565b8060005b8581101561050257848403895281516104e3858261047e565b94506104ee83610492565b925060208a019950506001810190506104ca565b50829750879550505050505092915050565b6000602082019050818103600083015261052e818461049f565b905092915050565b6000604051905090565b600080fd5b600080fd5b610553816103e2565b811461055e57600080fd5b50565b6000813590506105708161054a565b92915050565b60006020828403121561058c5761058b610540565b5b600061059a84828501610561565b91505092915050565b600080fd5b6000601f19601f8301169050919050565b7f4e487b7100000000000000000000000000000000000000000000000000000000600052604160045260246000fd5b6105f1826105a8565b810181811067ffffffffffffffff821117156106105761060f6105b9565b5b80604052505050565b6000610623610536565b905061062f82826105e8565b919050565b600067ffffffffffffffff82111561064f5761064e6105b9565b5b602082029050602081019050919050565b600080fd5b600061067861067384610634565b610619565b9050808382526020820190506020840283018581111561069b5761069a610660565b5b835b818110156106c457806106b08882610561565b84526020840193505060208101905061069d565b5050509392505050565b600082601f8301126106e3576106e26105a3565b5b81356106f3848260208601610665565b91505092915050565b60006020828403121561071257610711610540565b5b600082013567ffffffffffffffff8111156107305761072f610545565b5b61073c848285016106ce565b91505092915050565b600073ffffffffffffffffffffffffffffffffffffffff82169050919050565b600061077082610745565b9050919050565b61078081610765565b82525050565b600060208201905061079b6000830184610777565b92915050565b600082825260208201905092915050565b7f566f74657320646f6e2774206d61746368207468652063616e64696461746573600082015250565b60006107e86020836107a1565b91506107f3826107b2565b602082019050919050565b60006020820190508181036000830152610817816107db565b905091905056fea264697066735822122093616028de35cffaf211301875169734d61c6f04f5fd6783b17eb10ca10909f964736f6c63430008180033608060405234801561001057600080fd5b5060405161096b38038061096b833981810160405281019061003291906100db565b806000806101000a81548173ffffffffffffffffffffffffffffffffffffffff021916908373ffffffffffffffffffffffffffffffffffffffff16021790555050610108565b600080fd5b600073ffffffffffffffffffffffffffffffffffffffff82169050919050565b60006100a88261007d565b9050919050565b6100b88161009d565b81146100c357600080fd5b50565b6000815190506100d5816100af565b92915050565b6000602082840312156100f1576100f0610078565b5b60006100ff848285016100c6565b91505092915050565b610854806101176000396000f3fe608060405234801561001057600080fd5b506004361061004c5760003560e01c80630dc9601514610051578063b7b0422d1461006f578063ce11f2bb1461008b578063e407bcbd146100a7575b600080fd5b6100596100c5565b6040516100669190610514565b60405180910390f35b61008960048036038101906100849190610576565b610164565b005b6100a560048036038101906100a091906106fc565b6101f3565b005b6100af6102fc565b6040516100bc9190610786565b60405180910390f35b60606002805480602002602001604051908101604052809291908181526020016000905b8282101561015b5783829060005260206000200180548060200260200160405190810160405280929190818152602001828054801561014757602002820191906000526020600020905b815481526020019060010190808311610133575b5050505050815260200190600101906100e9565b50505050905090565b60008054906101000a900473ffffffffffffffffffffffffffffffffffffffff1673ffffffffffffffffffffffffffffffffffffffff163373ffffffffffffffffffffffffffffffffffffffff16146101e9576040517fa0acb8a400000000000000000000000000000000000000000000000000000000815260040160405180910390fd5b8060018190555050565b60008054906101000a900473ffffffffffffffffffffffffffffffffffffffff1673ffffffffffffffffffffffffffffffffffffffff163373ffffffffffffffffffffffffffffffffffffffff1614610278576040517fa0acb8a400000000000000000000000000000000000000000000000000000000815260040160405180910390fd5b8051600154146102bd576040517f08c379a00000000000000000000000000000000000000000000000000000000081526004016102b4906107fe565b60405180910390fd5b6002819080600181540180825580915050600190039060005260206000200160009091909190915090805190602001906102f8929190610320565b5050565b60008054906101000a900473ffffffffffffffffffffffffffffffffffffffff1681565b82805482825590600052602060002090810192821561035c579160200282015b8281111561035b578251825591602001919060010190610340565b5b509050610369919061036d565b5090565b5b8082111561038657600081600090555060010161036e565b5090565b600081519050919050565b600082825260208201905092915050565b6000819050602082019050919050565b600081519050919050565b600082825260208201905092915050565b6000819050602082019050919050565b6000819050919050565b6103f5816103e2565b82525050565b600061040783836103ec565b60208301905092915050565b6000602082019050919050565b600061042b826103b6565b61043581856103c1565b9350610440836103d2565b8060005b8381101561047157815161045888826103fb565b975061046383610413565b925050600181019050610444565b5085935050505092915050565b600061048a8383610420565b905092915050565b6000602082019050919050565b60006104aa8261038a565b6104b48185610395565b9350836020820285016104c6856103a6565b8060005b8581101561050257848403895281516104e3858261047e565b94506104ee83610492565b925060208a019950506001810190506104ca565b50829750879550505050505092915050565b6000602082019050818103600083015261052e818461049f565b905092915050565b6000604051905090565b600080fd5b600080fd5b610553816103e2565b811461055e57600080fd5b50565b6000813590506105708161054a565b92915050565b60006020828403121561058c5761058b610540565b5b600061059a84828501610561565b91505092915050565b600080fd5b6000601f19601f8301169050919050565b7f4e487b7100000000000000000000000000000000000000000000000000000000600052604160045260246000fd5b6105f1826105a8565b810181811067ffffffffffffffff821117156106105761060f6105b9565b5b80604052505050565b6000610623610536565b905061062f82826105e8565b919050565b600067ffffffffffffffff82111561064f5761064e6105b9565b5b602082029050602081019050919050565b600080fd5b600061067861067384610634565b610619565b9050808382526020820190506020840283018581111561069b5761069a610660565b5b835b818110156106c457806106b08882610561565b84526020840193505060208101905061069d565b5050509392505050565b600082601f8301126106e3576106e26105a3565b5b81356106f3848260208601610665565b91505092915050565b60006020828403121561071257610711610540565b5b600082013567ffffffffffffffff8111156107305761072f610545565b5b61073c848285016106ce565b91505092915050565b600073ffffffffffffffffffffffffffffffffffffffff82169050919050565b600061077082610745565b9050919050565b61078081610765565b82525050565b600060208201905061079b6000830184610777565b92915050565b600082825260208201905092915050565b7f566f74657320646f6e2774206d61746368207468652063616e64696461746573600082015250565b60006107e86020836107a1565b91506107f3826107b2565b602082019050919050565b60006020820190508181036000830152610817816107db565b905091905056fea264697066735822122080c22a5fa184363ccf760ff4060c8bf40c8947bdc30e96ceae2073d0582ffc1864736f6c63430008180033608060405234801561001057600080fd5b50604051610b43380380610b43833981810160405281019061003291906100db565b806000806101000a81548173ffffffffffffffffffffffffffffffffffffffff021916908373ffffffffffffffffffffffffffffffffffffffff16021790555050610108565b600080fd5b600073ffffffffffffffffffffffffffffffffffffffff82169050919050565b60006100a88261007d565b9050919050565b6100b88161009d565b81146100c357600080fd5b50565b6000815190506100d5816100af565b92915050565b6000602082840312156100f1576100f0610078565b5b60006100ff848285016100c6565b91505092915050565b610a2c806101176000396000f3fe608060405234801561001057600080fd5b506004361061004c5760003560e01c80630dc9601514610051578063b7b0422d1461006f578063ce11f2bb1461008b578063e407bcbd146100a7575b600080fd5b6100596100c5565b60405161006691906105ba565b60405180910390f35b6100896004803603810190610084919061061c565b6101a2565b005b6100a560048036038101906100a091906107a2565b610289565b005b6100af61040f565b6040516100bc919061082c565b60405180910390f35b606060008054906101000a900473ffffffffffffffffffffffffffffffffffffffff1673ffffffffffffffffffffffffffffffffffffffff163373ffffffffffffffffffffffffffffffffffffffff161461014c576040517fa0acb8a400000000000000000000000000000000000000000000000000000000815260040160405180910390fd5b600180548060200260200160405190810160405280929190818152602001828054801561019857602002820191906000526020600020905b815481526020019060010190808311610184575b5050505050905090565b60008054906101000a900473ffffffffffffffffffffffffffffffffffffffff1673ffffffffffffffffffffffffffffffffffffffff163373ffffffffffffffffffffffffffffffffffffffff1614610227576040517fa0acb8a400000000000000000000000000000000000000000000000000000000815260040160405180910390fd5b8067ffffffffffffffff8111156102415761024061065f565b5b60405190808252806020026020018201604052801561026f5781602001602082028036833780820191505090505b5060019080519060200190610285929190610488565b5050565b60008054906101000a900473ffffffffffffffffffffffffffffffffffffffff1673ffffffffffffffffffffffffffffffffffffffff163373ffffffffffffffffffffffffffffffffffffffff161461030e576040517fa0acb8a400000000000000000000000000000000000000000000000000000000815260040160405180910390fd5b600060018054905090508082511461035b576040517f08c379a0000000000000000000000000000000000000000000000000000000008152600401610352906108a4565b60405180910390fd5b61036482610433565b6103a3576040517f08c379a000000000000000000000000000000000000000000000000000000000815260040161039a90610910565b60405180910390fd5b60005b8181101561040a578281815181106103c1576103c0610930565b5b6020026020010151600182815481106103dd576103dc610930565b5b9060005260206000200160008282546103f6919061098e565b9250508190555080806001019150506103a6565b505050565b60008054906101000a900473ffffffffffffffffffffffffffffffffffffffff1681565b6000806064905060005b835181101561047b5783818151811061045957610458610930565b5b60200260200101518261046c91906109c2565b9150808060010191505061043d565b5060008114915050919050565b8280548282559060005260206000209081019282156104c4579160200282015b828111156104c35782518255916020019190600101906104a8565b5b5090506104d191906104d5565b5090565b5b808211156104ee5760008160009055506001016104d6565b5090565b600081519050919050565b600082825260208201905092915050565b6000819050602082019050919050565b6000819050919050565b6105318161051e565b82525050565b60006105438383610528565b60208301905092915050565b6000602082019050919050565b6000610567826104f2565b61057181856104fd565b935061057c8361050e565b8060005b838110156105ad5781516105948882610537565b975061059f8361054f565b925050600181019050610580565b5085935050505092915050565b600060208201905081810360008301526105d4818461055c565b905092915050565b6000604051905090565b600080fd5b600080fd5b6105f98161051e565b811461060457600080fd5b50565b600081359050610616816105f0565b92915050565b600060208284031215610632576106316105e6565b5b600061064084828501610607565b91505092915050565b600080fd5b6000601f19601f8301169050919050565b7f4e487b7100000000000000000000000000000000000000000000000000000000600052604160045260246000fd5b6106978261064e565b810181811067ffffffffffffffff821117156106b6576106b561065f565b5b80604052505050565b60006106c96105dc565b90506106d5828261068e565b919050565b600067ffffffffffffffff8211156106f5576106f461065f565b5b602082029050602081019050919050565b600080fd5b600061071e610719846106da565b6106bf565b9050808382526020820190506020840283018581111561074157610740610706565b5b835b8181101561076a57806107568882610607565b845260208401935050602081019050610743565b5050509392505050565b600082601f83011261078957610788610649565b5b813561079984826020860161070b565b91505092915050565b6000602082840312156107b8576107b76105e6565b5b600082013567ffffffffffffffff8111156107d6576107d56105eb565b5b6107e284828501610774565b91505092915050565b600073ffffffffffffffffffffffffffffffffffffffff82169050919050565b6000610816826107eb565b9050919050565b6108268161080b565b82525050565b6000602082019050610841600083018461081d565b92915050565b600082825260208201905092915050565b7f566f74657320646f6e2774206d61746368207468652063616e64696461746573600082015250565b600061088e602083610847565b915061089982610858565b602082019050919050565b600060208201905081810360008301526108bd81610881565b9050919050565b7f496e636f7272656374206372656469747320676976656e000000000000000000600082015250565b60006108fa601783610847565b9150610905826108c4565b602082019050919050565b60006020820190508181036000830152610929816108ed565b9050919050565b7f4e487b7100000000000000000000000000000000000000000000000000000000600052603260045260246000fd5b7f4e487b7100000000000000000000000000000000000000000000000000000000600052601160045260246000fd5b60006109998261051e565b91506109a48361051e565b92508282019050808211156109bc576109bb61095f565b5b92915050565b60006109cd8261051e565b91506109d88361051e565b92508282039050818111156109f0576109ef61095f565b5b9291505056fea2646970667358221220def5c954015b9c9a89cd1d635c9bcb7cb51d9baa51826039f36a91066b0b017964736f6c63430008180033608060405234801561001057600080fd5b50604051610aaa380380610aaa833981810160405281019061003291906100db565b806000806101000a81548173ffffffffffffffffffffffffffffffffffffffff021916908373ffffffffffffffffffffffffffffffffffffffff16021790555050610108565b600080fd5b600073ffffffffffffffffffffffffffffffffffffffff82169050919050565b60006100a88261007d565b9050919050565b6100b88161009d565b81146100c357600080fd5b50565b6000815190506100d5816100af565b92915050565b6000602082840312156100f1576100f0610078565b5b60006100ff848285016100c6565b91505092915050565b610993806101176000396000f3fe608060405234801561001057600080fd5b50600436106100575760003560e01c80630dc960151461005c5780639a1b4b381461007a578063b7b0422d14610098578063ce11f2bb146100b4578063e407bcbd146100d0575b600080fd5b6100646100ee565b6040516100719190610597565b60405180910390f35b6100826101cb565b60405161008f91906105c8565b60405180910390f35b6100b260048036038101906100ad9190610623565b6101d0565b005b6100ce60048036038101906100c991906107a9565b6102b7565b005b6100d8610441565b6040516100e59190610833565b60405180910390f35b606060008054906101000a900473ffffffffffffffffffffffffffffffffffffffff1673ffffffffffffffffffffffffffffffffffffffff163373ffffffffffffffffffffffffffffffffffffffff1614610175576040517fa0acb8a400000000000000000000000000000000000000000000000000000000815260040160405180910390fd5b60018054806020026020016040519081016040528092919081815260200182805480156101c157602002820191906000526020600020905b8154815260200190600101908083116101ad575b5050505050905090565b600a81565b60008054906101000a900473ffffffffffffffffffffffffffffffffffffffff1673ffffffffffffffffffffffffffffffffffffffff163373ffffffffffffffffffffffffffffffffffffffff1614610255576040517fa0acb8a400000000000000000000000000000000000000000000000000000000815260040160405180910390fd5b8067ffffffffffffffff81111561026f5761026e610666565b5b60405190808252806020026020018201604052801561029d5781602001602082028036833780820191505090505b50600190805190602001906102b3929190610465565b5050565b60008054906101000a900473ffffffffffffffffffffffffffffffffffffffff1673ffffffffffffffffffffffffffffffffffffffff163373ffffffffffffffffffffffffffffffffffffffff161461033c576040517fa0acb8a400000000000000000000000000000000000000000000000000000000815260040160405180910390fd5b6000600180549050905080825114610389576040517f08c379a0000000000000000000000000000000000000000000000000000000008152600401610380906108ab565b60405180910390fd5b60005b8181101561043c5760008382815181106103a9576103a86108cb565b5b60200260200101519050600a8111156103f957806040517f590e1cd60000000000000000000000000000000000000000000000000000000081526004016103f091906105c8565b60405180910390fd5b806001838154811061040e5761040d6108cb565b5b9060005260206000200160008282546104279190610929565b9250508190555050808060010191505061038c565b505050565b60008054906101000a900473ffffffffffffffffffffffffffffffffffffffff1681565b8280548282559060005260206000209081019282156104a1579160200282015b828111156104a0578251825591602001919060010190610485565b5b5090506104ae91906104b2565b5090565b5b808211156104cb5760008160009055506001016104b3565b5090565b600081519050919050565b600082825260208201905092915050565b6000819050602082019050919050565b6000819050919050565b61050e816104fb565b82525050565b60006105208383610505565b60208301905092915050565b6000602082019050919050565b6000610544826104cf565b61054e81856104da565b9350610559836104eb565b8060005b8381101561058a5781516105718882610514565b975061057c8361052c565b92505060018101905061055d565b5085935050505092915050565b600060208201905081810360008301526105b18184610539565b905092915050565b6105c2816104fb565b82525050565b60006020820190506105dd60008301846105b9565b92915050565b6000604051905090565b600080fd5b600080fd5b610600816104fb565b811461060b57600080fd5b50565b60008135905061061d816105f7565b92915050565b600060208284031215610639576106386105ed565b5b60006106478482850161060e565b91505092915050565b600080fd5b6000601f19601f8301169050919050565b7f4e487b7100000000000000000000000000000000000000000000000000000000600052604160045260246000fd5b61069e82610655565b810181811067ffffffffffffffff821117156106bd576106bc610666565b5b80604052505050565b60006106d06105e3565b90506106dc8282610695565b919050565b600067ffffffffffffffff8211156106fc576106fb610666565b5b602082029050602081019050919050565b600080fd5b6000610725610720846106e1565b6106c6565b905080838252602082019050602084028301858111156107485761074761070d565b5b835b81811015610771578061075d888261060e565b84526020840193505060208101905061074a565b5050509392505050565b600082601f8301126107905761078f610650565b5b81356107a0848260208601610712565b91505092915050565b6000602082840312156107bf576107be6105ed565b5b600082013567ffffffffffffffff8111156107dd576107dc6105f2565b5b6107e98482850161077b565b91505092915050565b600073ffffffffffffffffffffffffffffffffffffffff82169050919050565b600061081d826107f2565b9050919050565b61082d81610812565b82525050565b60006020820190506108486000830184610824565b92915050565b600082825260208201905092915050565b7f566f74657320646f6e2774206d61746368207468652063616e64696461746573600082015250565b600061089560208361084e565b91506108a08261085f565b602082019050919050565b600060208201905081810360008301526108c481610888565b9050919050565b7f4e487b7100000000000000000000000000000000000000000000000000000000600052603260045260246000fd5b7f4e487b7100000000000000000000000000000000000000000000000000000000600052601160045260246000fd5b6000610934826104fb565b915061093f836104fb565b9250828201905080821115610957576109566108fa565b5b9291505056fea26469706673582212201a4cfbbd4a909923f03d3726f152cf7a16167eaf5e0b752710987f6ec311527e64736f6c63430008180033608060405234801561001057600080fd5b50604051610cab380380610cab833981810160405281019061003291906100db565b806000806101000a81548173ffffffffffffffffffffffffffffffffffffffff021916908373ffffffffffffffffffffffffffffffffffffffff16021790555050610108565b600080fd5b600073ffffffffffffffffffffffffffffffffffffffff82169050919050565b60006100a88261007d565b9050919050565b6100b88161009d565b81146100c357600080fd5b50565b6000815190506100d5816100af565b92915050565b6000602082840312156100f1576100f0610078565b5b60006100ff848285016100c6565b91505092915050565b610b94806101176000396000f3fe608060405234801561001057600080fd5b506004361061004c5760003560e01c80630dc9601514610051578063b7b0422d1461006f578063ce11f2bb1461008b578063e407bcbd146100a7575b600080fd5b6100596100c5565b60405161006691906107c2565b60405180910390f35b61008960048036038101906100849190610824565b6101e9565b005b6100a560048036038101906100a091906109aa565b610369565b005b6100af610505565b6040516100bc9190610a34565b60405180910390f35b606060008054906101000a900473ffffffffffffffffffffffffffffffffffffffff1673ffffffffffffffffffffffffffffffffffffffff163373ffffffffffffffffffffffffffffffffffffffff161461014c576040517fa0acb8a400000000000000000000000000000000000000000000000000000000815260040160405180910390fd5b6001805480602002602001604051908101604052809291908181526020016000905b828210156101e0578382906000526020600020018054806020026020016040519081016040528092919081815260200182805480156101cc57602002820191906000526020600020905b8154815260200190600101908083116101b8575b50505050508152602001906001019061016e565b50505050905090565b60008054906101000a900473ffffffffffffffffffffffffffffffffffffffff1673ffffffffffffffffffffffffffffffffffffffff163373ffffffffffffffffffffffffffffffffffffffff161461026e576040517fa0acb8a400000000000000000000000000000000000000000000000000000000815260040160405180910390fd5b8067ffffffffffffffff81111561028857610287610867565b5b6040519080825280602002602001820160405280156102bb57816020015b60608152602001906001900390816102a65790505b50600190805190602001906102d1929190610529565b5060005b81811015610365578167ffffffffffffffff8111156102f7576102f6610867565b5b6040519080825280602002602001820160405280156103255781602001602082028036833780820191505090505b506001828154811061033a57610339610a4f565b5b906000526020600020019080519060200190610357929190610589565b5080806001019150506102d5565b5050565b60008054906101000a900473ffffffffffffffffffffffffffffffffffffffff1673ffffffffffffffffffffffffffffffffffffffff163373ffffffffffffffffffffffffffffffffffffffff16146103ee576040517fa0acb8a400000000000000000000000000000000000000000000000000000000815260040160405180910390fd5b600060018054905090508082511461043b576040517f08c379a000000000000000000000000000000000000000000000000000000000815260040161043290610adb565b60405180910390fd5b60005b818110156105005760006001826104559190610b2a565b90505b828110156104f25760018085848151811061047657610475610a4f565b5b60200260200101518154811061048f5761048e610a4f565b5b906000526020600020018583815181106104ac576104ab610a4f565b5b6020026020010151815481106104c5576104c4610a4f565b5b9060005260206000200160008282546104de9190610b2a565b925050819055508080600101915050610458565b50808060010191505061043e565b505050565b60008054906101000a900473ffffffffffffffffffffffffffffffffffffffff1681565b828054828255906000526020600020908101928215610578579160200282015b82811115610577578251829080519060200190610567929190610589565b5091602001919060010190610549565b5b50905061058591906105d6565b5090565b8280548282559060005260206000209081019282156105c5579160200282015b828111156105c45782518255916020019190600101906105a9565b5b5090506105d291906105fa565b5090565b5b808211156105f657600081816105ed9190610617565b506001016105d7565b5090565b5b808211156106135760008160009055506001016105fb565b5090565b508054600082559060005260206000209081019061063591906105fa565b50565b600081519050919050565b600082825260208201905092915050565b6000819050602082019050919050565b600081519050919050565b600082825260208201905092915050565b6000819050602082019050919050565b6000819050919050565b6106a381610690565b82525050565b60006106b5838361069a565b60208301905092915050565b6000602082019050919050565b60006106d982610664565b6106e3818561066f565b93506106ee83610680565b8060005b8381101561071f57815161070688826106a9565b9750610711836106c1565b9250506001810190506106f2565b5085935050505092915050565b600061073883836106ce565b905092915050565b6000602082019050919050565b600061075882610638565b6107628185610643565b93508360208202850161077485610654565b8060005b858110156107b05784840389528151610791858261072c565b945061079c83610740565b925060208a01995050600181019050610778565b50829750879550505050505092915050565b600060208201905081810360008301526107dc818461074d565b905092915050565b6000604051905090565b600080fd5b600080fd5b61080181610690565b811461080c57600080fd5b50565b60008135905061081e816107f8565b92915050565b60006020828403121561083a576108396107ee565b5b60006108488482850161080f565b91505092915050565b600080fd5b6000601f19601f8301169050919050565b7f4e487b7100000000000000000000000000000000000000000000000000000000600052604160045260246000fd5b61089f82610856565b810181811067ffffffffffffffff821117156108be576108bd610867565b5b80604052505050565b60006108d16107e4565b90506108dd8282610896565b919050565b600067ffffffffffffffff8211156108fd576108fc610867565b5b602082029050602081019050919050565b600080fd5b6000610926610921846108e2565b6108c7565b905080838252602082019050602084028301858111156109495761094861090e565b5b835b81811015610972578061095e888261080f565b84526020840193505060208101905061094b565b5050509392505050565b600082601f83011261099157610990610851565b5b81356109a1848260208601610913565b91505092915050565b6000602082840312156109c0576109bf6107ee565b5b600082013567ffffffffffffffff8111156109de576109dd6107f3565b5b6109ea8482850161097c565b91505092915050565b600073ffffffffffffffffffffffffffffffffffffffff82169050919050565b6000610a1e826109f3565b9050919050565b610a2e81610a13565b82525050565b6000602082019050610a496000830184610a25565b92915050565b7f4e487b7100000000000000000000000000000000000000000000000000000000600052603260045260246000fd5b600082825260208201905092915050565b7f566f74657320646f6e2774206d61746368207468652063616e64696461746573600082015250565b6000610ac5602083610a7e565b9150610ad082610a8f565b602082019050919050565b60006020820190508181036000830152610af481610ab8565b9050919050565b7f4e487b7100000000000000000000000000000000000000000000000000000000600052601160045260246000fd5b6000610b3582610690565b9150610b4083610690565b9250828201905080821115610b5857610b57610afb565b5b9291505056fea264697066735822122007240ee703cf992bb3ad5038d1a7d96be76bb3dd01ef5f1567e4e7bf3b21f7cb64736f6c63430008180033608060405234801561001057600080fd5b50604051610cab380380610cab833981810160405281019061003291906100db565b806000806101000a81548173ffffffffffffffffffffffffffffffffffffffff021916908373ffffffffffffffffffffffffffffffffffffffff16021790555050610108565b600080fd5b600073ffffffffffffffffffffffffffffffffffffffff82169050919050565b60006100a88261007d565b9050919050565b6100b88161009d565b81146100c357600080fd5b50565b6000815190506100d5816100af565b92915050565b6000602082840312156100f1576100f0610078565b5b60006100ff848285016100c6565b91505092915050565b610b94806101176000396000f3fe608060405234801561001057600080fd5b506004361061004c5760003560e01c80630dc9601514610051578063b7b0422d1461006f578063ce11f2bb1461008b578063e407bcbd146100a7575b600080fd5b6100596100c5565b60405161006691906107c2565b60405180910390f35b61008960048036038101906100849190610824565b6101e9565b005b6100a560048036038101906100a091906109aa565b610369565b005b6100af610505565b6040516100bc9190610a34565b60405180910390f35b606060008054906101000a900473ffffffffffffffffffffffffffffffffffffffff1673ffffffffffffffffffffffffffffffffffffffff163373ffffffffffffffffffffffffffffffffffffffff161461014c576040517fa0acb8a400000000000000000000000000000000000000000000000000000000815260040160405180910390fd5b6001805480602002602001604051908101604052809291908181526020016000905b828210156101e0578382906000526020600020018054806020026020016040519081016040528092919081815260200182805480156101cc57602002820191906000526020600020905b8154815260200190600101908083116101b8575b50505050508152602001906001019061016e565b50505050905090565b60008054906101000a900473ffffffffffffffffffffffffffffffffffffffff1673ffffffffffffffffffffffffffffffffffffffff163373ffffffffffffffffffffffffffffffffffffffff161461026e576040517fa0acb8a400000000000000000000000000000000000000000000000000000000815260040160405180910390fd5b8067ffffffffffffffff81111561028857610287610867565b5b6040519080825280602002602001820160405280156102bb57816020015b60608152602001906001900390816102a65790505b50600190805190602001906102d1929190610529565b5060005b81811015610365578167ffffffffffffffff8111156102f7576102f6610867565b5b6040519080825280602002602001820160405280156103255781602001602082028036833780820191505090505b506001828154811061033a57610339610a4f565b5b906000526020600020019080519060200190610357929190610589565b5080806001019150506102d5565b5050565b60008054906101000a900473ffffffffffffffffffffffffffffffffffffffff1673ffffffffffffffffffffffffffffffffffffffff163373ffffffffffffffffffffffffffffffffffffffff16146103ee576040517fa0acb8a400000000000000000000000000000000000000000000000000000000815260040160405180910390fd5b600060018054905090508082511461043b576040517f08c379a000000000000000000000000000000000000000000000000000000000815260040161043290610adb565b60405180910390fd5b60005b818110156105005760006001826104559190610b2a565b90505b828110156104f25760018085848151811061047657610475610a4f565b5b60200260200101518154811061048f5761048e610a4f565b5b906000526020600020018583815181106104ac576104ab610a4f565b5b6020026020010151815481106104c5576104c4610a4f565b5b9060005260206000200160008282546104de9190610b2a565b925050819055508080600101915050610458565b50808060010191505061043e565b505050565b60008054906101000a900473ffffffffffffffffffffffffffffffffffffffff1681565b828054828255906000526020600020908101928215610578579160200282015b82811115610577578251829080519060200190610567929190610589565b5091602001919060010190610549565b5b50905061058591906105d6565b5090565b8280548282559060005260206000209081019282156105c5579160200282015b828111156105c45782518255916020019190600101906105a9565b5b5090506105d291906105fa565b5090565b5b808211156105f657600081816105ed9190610617565b506001016105d7565b5090565b5b808211156106135760008160009055506001016105fb565b5090565b508054600082559060005260206000209081019061063591906105fa565b50565b600081519050919050565b600082825260208201905092915050565b6000819050602082019050919050565b600081519050919050565b600082825260208201905092915050565b6000819050602082019050919050565b6000819050919050565b6106a381610690565b82525050565b60006106b5838361069a565b60208301905092915050565b6000602082019050919050565b60006106d982610664565b6106e3818561066f565b93506106ee83610680565b8060005b8381101561071f57815161070688826106a9565b9750610711836106c1565b9250506001810190506106f2565b5085935050505092915050565b600061073883836106ce565b905092915050565b6000602082019050919050565b600061075882610638565b6107628185610643565b93508360208202850161077485610654565b8060005b858110156107b05784840389528151610791858261072c565b945061079c83610740565b925060208a01995050600181019050610778565b50829750879550505050505092915050565b600060208201905081810360008301526107dc818461074d565b905092915050565b6000604051905090565b600080fd5b600080fd5b61080181610690565b811461080c57600080fd5b50565b60008135905061081e816107f8565b92915050565b60006020828403121561083a576108396107ee565b5b60006108488482850161080f565b91505092915050565b600080fd5b6000601f19601f8301169050919050565b7f4e487b7100000000000000000000000000000000000000000000000000000000600052604160045260246000fd5b61089f82610856565b810181811067ffffffffffffffff821117156108be576108bd610867565b5b80604052505050565b60006108d16107e4565b90506108dd8282610896565b919050565b600067ffffffffffffffff8211156108fd576108fc610867565b5b602082029050602081019050919050565b600080fd5b6000610926610921846108e2565b6108c7565b905080838252602082019050602084028301858111156109495761094861090e565b5b835b81811015610972578061095e888261080f565b84526020840193505060208101905061094b565b5050509392505050565b600082601f83011261099157610990610851565b5b81356109a1848260208601610913565b91505092915050565b6000602082840312156109c0576109bf6107ee565b5b600082013567ffffffffffffffff8111156109de576109dd6107f3565b5b6109ea8482850161097c565b91505092915050565b600073ffffffffffffffffffffffffffffffffffffffff82169050919050565b6000610a1e826109f3565b9050919050565b610a2e81610a13565b82525050565b6000602082019050610a496000830184610a25565b92915050565b7f4e487b7100000000000000000000000000000000000000000000000000000000600052603260045260246000fd5b600082825260208201905092915050565b7f566f74657320646f6e2774206d61746368207468652063616e64696461746573600082015250565b6000610ac5602083610a7e565b9150610ad082610a8f565b602082019050919050565b60006020820190508181036000830152610af481610ab8565b9050919050565b7f4e487b7100000000000000000000000000000000000000000000000000000000600052601160045260246000fd5b6000610b3582610690565b9150610b4083610690565b9250828201905080821115610b5857610b57610afb565b5b9291505056fea26469706673582212207aa91e8ffd839f6b783a014090c58b0c2a2b62cd647522dcac6a688052069a5764736f6c63430008180033a26469706673582212209d291243a8e25a6d11b43c29d5dcc5c23150c0c8c6507b47a2fec0d234d42b7d64736f6c63430008180033608060405234801561001057600080fd5b50611dd8806100206000396000f3fe608060405234801561001057600080fd5b50600436106100625760003560e01c80631557be75146100675780631892513814610097578063934150cc146100c7578063af6de5a1146100f7578063b226565314610127578063d517599014610157575b600080fd5b610081600480360381019061007c919061179c565b610187565b60405161008e91906117fe565b60405180910390f35b6100b160048036038101906100ac919061179c565b6101b7565b6040516100be91906117fe565b60405180910390f35b6100e160048036038101906100dc91906118a5565b6101e7565b6040516100ee91906117fe565b60405180910390f35b610111600480360381019061010c9190611905565b6103b9565b60405161011e91906117fe565b60405180910390f35b610141600480360381019061013c919061179c565b610463565b60405161014e91906117fe565b60405180910390f35b610171600480360381019061016c919061179c565b610493565b60405161017e91906117fe565b60405180910390f35b6000808280602001905181019061019e9190611b0b565b905060006101ab826104c3565b90508092505050919050565b600080828060200190518101906101ce9190611b0b565b905060006101db82610709565b90508092505050919050565b60006003821015610203576101fc84846103b9565b90506103b2565b6003820361025f5761025884848080601f016020809104026020016040519081016040528093929190818152602001838380828437600081840152601f19601f82011690508083019250505050505050610463565b90506103b2565b600482036102bb576102b484848080601f016020809104026020016040519081016040528093929190818152602001838380828437600081840152601f19601f82011690508083019250505050505050610187565b90506103b2565b600582036102d4576102cd84846103b9565b90506103b2565b600682036102ed576102e684846103b9565b90506103b2565b600782036103495761034284848080601f016020809104026020016040519081016040528093929190818152602001838380828437600081840152601f19601f82011690508083019250505050505050610493565b90506103b2565b600882036103a55761039e84848080601f016020809104026020016040519081016040528093929190818152602001838380828437600081840152601f19601f820116905080830192505050505050506101b7565b90506103b2565b6103af84846103b9565b90505b9392505050565b60008083838101906103cb9190611beb565b90506000808251905060005b835181101561041c5760008482815181106103f5576103f4611c34565b5b602002602001015190508381111561040e578093508192505b5080806001019150506103d7565b5082518103610457576040517f8b9ae95f00000000000000000000000000000000000000000000000000000000815260040160405180910390fd5b80935050505092915050565b6000808280602001905181019061047a9190611b0b565b9050600061048782610cc7565b90508092505050919050565b600080828060200190518101906104aa9190611b0b565b905060006104b782610fde565b90508092505050919050565b600080826000815181106104da576104d9611c34565b5b60200260200101515190506000810361051f576040517fe504190400000000000000000000000000000000000000000000000000000000815260040160405180910390fd5b60008167ffffffffffffffff81111561053b5761053a611671565b5b6040519080825280602002602001820160405280156105695781602001602082028036833780820191505090505b50905060005b84518110156106335760005b85828151811061058e5761058d611c34565b5b60200260200101515181101561062557600181856105ac9190611c92565b6105b69190611c92565b838784815181106105ca576105c9611c34565b5b602002602001015183815181106105e4576105e3611c34565b5b6020026020010151815181106105fd576105fc611c34565b5b602002602001018181516106119190611cc6565b91508181525050808060010191505061057b565b50808060010191505061056f565b506000806000805b84518110156106c3578385828151811061065857610657611c34565b5b6020026020010151111561068f5784818151811061067957610678611c34565b5b60200260200101519350809250600091506106b6565b838582815181106106a3576106a2611c34565b5b6020026020010151036106b557600191505b5b808060010191505061063b565b5080156106fc576040517fac5997c700000000000000000000000000000000000000000000000000000000815260040160405180910390fd5b8195505050505050919050565b600080825190506000810361074a576040517fe504190400000000000000000000000000000000000000000000000000000000815260040160405180910390fd5b60008167ffffffffffffffff81111561076657610765611671565b5b60405190808252806020026020018201604052801561079957816020015b60608152602001906001900390816107845790505b50905060005b8281101561081b578267ffffffffffffffff8111156107c1576107c0611671565b5b6040519080825280602002602001820160405280156107ef5781602001602082028036833780820191505090505b5082828151811061080357610802611c34565b5b6020026020010181905250808060010191505061079f565b5060005b828110156109345760005b83811015610926578082146109195785818151811061084c5761084b611c34565b5b6020026020010151828151811061086657610865611c34565b5b602002602001015186838151811061088157610880611c34565b5b6020026020010151828151811061089b5761089a611c34565b5b60200260200101511115610918578582815181106108bc576108bb611c34565b5b602002602001015181815181106108d6576108d5611c34565b5b60200260200101518383815181106108f1576108f0611c34565b5b6020026020010151828151811061090b5761090a611c34565b5b6020026020010181815250505b5b808060010191505061082a565b50808060010191505061081f565b5060005b82811015610b995760005b83811015610b8b57808214610b7e5760005b84811015610b7c5780831415801561096d5750808214155b15610b6f5783828151811061098557610984611c34565b5b6020026020010151838151811061099f5761099e611c34565b5b60200260200101518483815181106109ba576109b9611c34565b5b602002602001015182815181106109d4576109d3611c34565b5b6020026020010151108015610a5057508383815181106109f7576109f6611c34565b5b60200260200101518181518110610a1157610a10611c34565b5b6020026020010151848381518110610a2c57610a2b611c34565b5b60200260200101518281518110610a4657610a45611c34565b5b6020026020010151105b15610b6e57838381518110610a6857610a67611c34565b5b60200260200101518181518110610a8257610a81611c34565b5b6020026020010151848381518110610a9d57610a9c611c34565b5b60200260200101518481518110610ab757610ab6611c34565b5b602002602001015110610afe57838381518110610ad757610ad6611c34565b5b60200260200101518181518110610af157610af0611c34565b5b6020026020010151610b34565b838281518110610b1157610b10611c34565b5b60200260200101518381518110610b2b57610b2a611c34565b5b60200260200101515b848381518110610b4757610b46611c34565b5b60200260200101518281518110610b6157610b60611c34565b5b6020026020010181815250505b5b8080600101915050610955565b505b8080600101915050610943565b508080600101915050610938565b50600080806000905060005b85811015610c81576000805b87811015610c4e57808314610c4157868181518110610bd357610bd2611c34565b5b60200260200101518381518110610bed57610bec611c34565b5b6020026020010151878481518110610c0857610c07611c34565b5b60200260200101518281518110610c2257610c21611c34565b5b60200260200101511115610c4057600182610c3d9190611cc6565b91505b5b8080600101915050610bb1565b5084811115610c665780945081935060009250610c73565b848103610c7257600192505b5b508080600101915050610ba5565b508015610cba576040517fac5997c700000000000000000000000000000000000000000000000000000000815260040160405180910390fd5b8195505050505050919050565b60008082600081518110610cde57610cdd611c34565b5b602002602001015151905060008103610d23576040517fe504190400000000000000000000000000000000000000000000000000000000815260040160405180910390fd5b5b600115610fa7576000610d37848361145d565b905060005b8151811015610d8c5760028551610d539190611d29565b828281518110610d6657610d65611c34565b5b60200260200101511115610d7f57809350505050610fd9565b8080600101915050610d3c565b5060008451905060008551905060006001905060005b8451811015610e775783858281518110610dbf57610dbe611c34565b5b6020026020010151108015610dee57506000858281518110610de457610de3611c34565b5b6020026020010151115b15610e1c57848181518110610e0657610e05611c34565b5b6020026020010151935080925060009150610e6a565b83858281518110610e3057610e2f611c34565b5b6020026020010151148015610e5f57506000858281518110610e5557610e54611c34565b5b6020026020010151115b15610e6957600091505b5b8080600101915050610da2565b50600285148015610e855750805b15610ebc576040517fac5997c700000000000000000000000000000000000000000000000000000000815260040160405180910390fd5b60005b8751811015610f1757610eec888281518110610ede57610edd611c34565b5b602002602001015184611556565b888281518110610eff57610efe611c34565b5b60200260200101819052508080600101915050610ebf565b5060006001905060005b8851811015610f64576000898281518110610f3f57610f3e611c34565b5b6020026020010151511115610f575760009150610f64565b8080600101915050610f21565b508015610f9d576040517fd7b4628c00000000000000000000000000000000000000000000000000000000815260040160405180910390fd5b5050505050610d24565b6040517f8b9ae95f00000000000000000000000000000000000000000000000000000000815260040160405180910390fd5b919050565b600080825190506000810361101f576040517fe504190400000000000000000000000000000000000000000000000000000000815260040160405180910390fd5b60008167ffffffffffffffff81111561103b5761103a611671565b5b60405190808252806020026020018201604052801561106e57816020015b60608152602001906001900390816110595790505b50905060005b82811015611229578267ffffffffffffffff81111561109657611095611671565b5b6040519080825280602002602001820160405280156110c45781602001602082028036833780820191505090505b508282815181106110d8576110d7611c34565b5b602002602001018190525060005b8381101561121b5780821461120e5785818151811061110857611107611c34565b5b6020026020010151828151811061112257611121611c34565b5b602002602001015186838151811061113d5761113c611c34565b5b6020026020010151828151811061115757611156611c34565b5b60200260200101511161119e5785818151811061117757611176611c34565b5b6020026020010151828151811061119157611190611c34565b5b60200260200101516111d4565b8582815181106111b1576111b0611c34565b5b602002602001015181815181106111cb576111ca611c34565b5b60200260200101515b8383815181106111e7576111e6611c34565b5b6020026020010151828151811061120157611200611c34565b5b6020026020010181815250505b80806001019150506110e6565b508080600101915050611074565b5060008267ffffffffffffffff81111561124657611245611671565b5b6040519080825280602002602001820160405280156112745781602001602082028036833780820191505090505b5090506000805b848110156113ef5760008567ffffffffffffffff81111561129f5761129e611671565b5b6040519080825280602002602001820160405280156112cd5781602001602082028036833780820191505090505b5090506000805b878110156113d0578084146113c3578681815181106112f6576112f5611c34565b5b602002602001015184815181106113105761130f611c34565b5b602002602001015187858151811061132b5761132a611c34565b5b6020026020010151828151811061134557611344611c34565b5b602002602001015111156113c25782848151811061136657611365611c34565b5b60200260200101805180919061137b90611d5a565b8152505086848151811061139257611391611c34565b5b602002602001015181815181106113ac576113ab611c34565b5b6020026020010151826113bf9190611cc6565b91505b5b80806001019150506112d4565b50838111156113e0578093508194505b5050808060010191505061127b565b5060008060005b8681101561144e578185828151811061141257611411611c34565b5b602002602001015111156114415784818151811061143357611432611c34565b5b602002602001015191508092505b80806001019150506113f6565b50819650505050505050919050565b606060008267ffffffffffffffff81111561147b5761147a611671565b5b6040519080825280602002602001820160405280156114a95781602001602082028036833780820191505090505b50905060005b845181101561154b5760008582815181106114cd576114cc611c34565b5b602002602001015151111561153e57818582815181106114f0576114ef611c34565b5b602002602001015160008151811061150b5761150a611c34565b5b60200260200101518151811061152457611523611c34565b5b60200260200101805180919061153990611d5a565b815250505b80806001019150506114af565b508091505092915050565b60606000600184516115689190611c92565b67ffffffffffffffff81111561158157611580611671565b5b6040519080825280602002602001820160405280156115af5781602001602082028036833780820191505090505b5090506000805b855181101561163657848682815181106115d3576115d2611c34565b5b602002602001015114611629578581815181106115f3576115f2611c34565b5b602002602001015183838151811061160e5761160d611c34565b5b602002602001018181525050818061162590611d5a565b9250505b80806001019150506115b6565b50819250505092915050565b6000604051905090565b600080fd5b600080fd5b600080fd5b600080fd5b6000601f19601f8301169050919050565b7f4e487b7100000000000000000000000000000000000000000000000000000000600052604160045260246000fd5b6116a982611660565b810181811067ffffffffffffffff821117156116c8576116c7611671565b5b80604052505050565b60006116db611642565b90506116e782826116a0565b919050565b600067ffffffffffffffff82111561170757611706611671565b5b61171082611660565b9050602081019050919050565b82818337600083830152505050565b600061173f61173a846116ec565b6116d1565b90508281526020810184848401111561175b5761175a61165b565b5b61176684828561171d565b509392505050565b600082601f83011261178357611782611656565b5b813561179384826020860161172c565b91505092915050565b6000602082840312156117b2576117b161164c565b5b600082013567ffffffffffffffff8111156117d0576117cf611651565b5b6117dc8482850161176e565b91505092915050565b6000819050919050565b6117f8816117e5565b82525050565b600060208201905061181360008301846117ef565b92915050565b600080fd5b600080fd5b60008083601f84011261183957611838611656565b5b8235905067ffffffffffffffff81111561185657611855611819565b5b6020830191508360018202830111156118725761187161181e565b5b9250929050565b611882816117e5565b811461188d57600080fd5b50565b60008135905061189f81611879565b92915050565b6000806000604084860312156118be576118bd61164c565b5b600084013567ffffffffffffffff8111156118dc576118db611651565b5b6118e886828701611823565b935093505060206118fb86828701611890565b9150509250925092565b6000806020838503121561191c5761191b61164c565b5b600083013567ffffffffffffffff81111561193a57611939611651565b5b61194685828601611823565b92509250509250929050565b600067ffffffffffffffff82111561196d5761196c611671565b5b602082029050602081019050919050565b600067ffffffffffffffff82111561199957611998611671565b5b602082029050602081019050919050565b6000815190506119b981611879565b92915050565b60006119d26119cd8461197e565b6116d1565b905080838252602082019050602084028301858111156119f5576119f461181e565b5b835b81811015611a1e5780611a0a88826119aa565b8452602084019350506020810190506119f7565b5050509392505050565b600082601f830112611a3d57611a3c611656565b5b8151611a4d8482602086016119bf565b91505092915050565b6000611a69611a6484611952565b6116d1565b90508083825260208201905060208402830185811115611a8c57611a8b61181e565b5b835b81811015611ad357805167ffffffffffffffff811115611ab157611ab0611656565b5b808601611abe8982611a28565b85526020850194505050602081019050611a8e565b5050509392505050565b600082601f830112611af257611af1611656565b5b8151611b02848260208601611a56565b91505092915050565b600060208284031215611b2157611b2061164c565b5b600082015167ffffffffffffffff811115611b3f57611b3e611651565b5b611b4b84828501611add565b91505092915050565b6000611b67611b628461197e565b6116d1565b90508083825260208201905060208402830185811115611b8a57611b8961181e565b5b835b81811015611bb35780611b9f8882611890565b845260208401935050602081019050611b8c565b5050509392505050565b600082601f830112611bd257611bd1611656565b5b8135611be2848260208601611b54565b91505092915050565b600060208284031215611c0157611c0061164c565b5b600082013567ffffffffffffffff811115611c1f57611c1e611651565b5b611c2b84828501611bbd565b91505092915050565b7f4e487b7100000000000000000000000000000000000000000000000000000000600052603260045260246000fd5b7f4e487b7100000000000000000000000000000000000000000000000000000000600052601160045260246000fd5b6000611c9d826117e5565b9150611ca8836117e5565b9250828203905081811115611cc057611cbf611c63565b5b92915050565b6000611cd1826117e5565b9150611cdc836117e5565b9250828201905080821115611cf457611cf3611c63565b5b92915050565b7f4e487b7100000000000000000000000000000000000000000000000000000000600052601260045260246000fd5b6000611d34826117e5565b9150611d3f836117e5565b925082611d4f57611d4e611cfa565b5b828204905092915050565b6000611d65826117e5565b91507fffffffffffffffffffffffffffffffffffffffffffffffffffffffffffffffff8203611d9757611d96611c63565b5b60018201905091905056fea2646970667358221220faa1d2c85684997fd0ca27c7314e86d071715df30ebbb96bde0360de085a66b964736f6c63430008180033",
  "linkReferences": {},
  "deployedLinkReferences": {}
}