{
  "_format": "hh-sol-artifact-1",
  "contractName": "GetBallot",
  "sourceName": "contracts/facets/votingApp/GetBallot.sol",
  "abi": [
    {
      "inputs": [
        {
          "internalType": "uint256",
          "name": "_ballotType",
          "type": "uint256"
        }
      ],
      "name": "getBallot",
      "outputs": [
        {
          "internalType": "contract Ballot",
          "name": "",
          "type": "address"
        }
      ],
      "stateMutability": "nonpayable",
      "type": "function"
    }
  ],
  "bytecode": "0x608060405234801561001057600080fd5b506127cb806100206000396000f3fe608060405234801561001057600080fd5b506004361061002b5760003560e01c8063f9d5ee7514610030575b600080fd5b61004a600480360381019061004591906102c8565b610060565b6040516100579190610374565b60405180910390f35b600060018214156100d85760405161007790610266565b604051809103906000f080158015610093573d6000803e3d6000fd5b506000806101000a81548173ffffffffffffffffffffffffffffffffffffffff021916908373ffffffffffffffffffffffffffffffffffffffff16021790555061023e565b600282141561014e576040516100ed90610273565b604051809103906000f080158015610109573d6000803e3d6000fd5b506000806101000a81548173ffffffffffffffffffffffffffffffffffffffff021916908373ffffffffffffffffffffffffffffffffffffffff16021790555061023d565b600382141561015c5761023c565b60048214156101d25760405161017190610280565b604051809103906000f08015801561018d573d6000803e3d6000fd5b506000806101000a81548173ffffffffffffffffffffffffffffffffffffffff021916908373ffffffffffffffffffffffffffffffffffffffff16021790555061023b565b6040516101de90610266565b604051809103906000f0801580156101fa573d6000803e3d6000fd5b506000806101000a81548173ffffffffffffffffffffffffffffffffffffffff021916908373ffffffffffffffffffffffffffffffffffffffff1602179055505b5b5b5b60008054906101000a900473ffffffffffffffffffffffffffffffffffffffff169050919050565b6109bc8061039083390190565b610dde80610d4c83390190565b610c6c80611b2a83390190565b600080fd5b6000819050919050565b6102a581610292565b81146102b057600080fd5b50565b6000813590506102c28161029c565b92915050565b6000602082840312156102de576102dd61028d565b5b60006102ec848285016102b3565b91505092915050565b600073ffffffffffffffffffffffffffffffffffffffff82169050919050565b6000819050919050565b600061033a610335610330846102f5565b610315565b6102f5565b9050919050565b600061034c8261031f565b9050919050565b600061035e82610341565b9050919050565b61036e81610353565b82525050565b60006020820190506103896000830184610365565b9291505056fe608060405234801561001057600080fd5b5061099c806100206000396000f3fe608060405234801561001057600080fd5b506004361061007d5760003560e01c8063a1818ac41161005b578063a1818ac414610100578063afa524081461011c578063de2e19a01461013a578063e844d0971461016a5761007d565b806306a49fce14610082578063521b0dcc146100a05780635df81330146100d0575b600080fd5b61008a610186565b60405161009791906103f8565b60405180910390f35b6100ba60048036038101906100b5919061048c565b6101de565b6040516100c791906104d4565b60405180910390f35b6100ea60048036038101906100e5919061051b565b610234565b6040516100f79190610557565b60405180910390f35b61011a600480360381019061011591906106cb565b61024c565b005b6101246102d8565b604051610131919061087f565b60405180910390f35b610154600480360381019061014f91906108a1565b6102e2565b6040516101619190610557565b60405180910390f35b610184600480360381019061017f919061051b565b610304565b005b606060008054806020026020016040519081016040528092919081815260200182805480156101d457602002820191906000526020600020905b8154815260200190600101908083116101c0575b5050505050905090565b6000600160008373ffffffffffffffffffffffffffffffffffffffff1673ffffffffffffffffffffffffffffffffffffffff16815260200190815260200160002060009054906101000a900460ff169050919050565b60026020528060005260406000206000915090505481565b6001915060016002600085815260200190815260200160002060008282546102749190610910565b9250508190555060018060008673ffffffffffffffffffffffffffffffffffffffff1673ffffffffffffffffffffffffffffffffffffffff16815260200190815260200160002060006101000a81548160ff02191690831515021790555050505050565b6060808091505090565b6000600191506002600084815260200190815260200160002054905092915050565b600081908060018154018082558091505060019003906000526020600020016000909190919091505550565b600081519050919050565b600082825260208201905092915050565b6000819050602082019050919050565b6000819050919050565b61036f8161035c565b82525050565b60006103818383610366565b60208301905092915050565b6000602082019050919050565b60006103a582610330565b6103af818561033b565b93506103ba8361034c565b8060005b838110156103eb5781516103d28882610375565b97506103dd8361038d565b9250506001810190506103be565b5085935050505092915050565b60006020820190508181036000830152610412818461039a565b905092915050565b6000604051905090565b600080fd5b600080fd5b600073ffffffffffffffffffffffffffffffffffffffff82169050919050565b60006104598261042e565b9050919050565b6104698161044e565b811461047457600080fd5b50565b60008135905061048681610460565b92915050565b6000602082840312156104a2576104a1610424565b5b60006104b084828501610477565b91505092915050565b60008115159050919050565b6104ce816104b9565b82525050565b60006020820190506104e960008301846104c5565b92915050565b6104f88161035c565b811461050357600080fd5b50565b600081359050610515816104ef565b92915050565b60006020828403121561053157610530610424565b5b600061053f84828501610506565b91505092915050565b6105518161035c565b82525050565b600060208201905061056c6000830184610548565b92915050565b600080fd5b6000601f19601f8301169050919050565b7f4e487b7100000000000000000000000000000000000000000000000000000000600052604160045260246000fd5b6105c082610577565b810181811067ffffffffffffffff821117156105df576105de610588565b5b80604052505050565b60006105f261041a565b90506105fe82826105b7565b919050565b600067ffffffffffffffff82111561061e5761061d610588565b5b602082029050602081019050919050565b600080fd5b600061064761064284610603565b6105e8565b9050808382526020820190506020840283018581111561066a5761066961062f565b5b835b81811015610693578061067f8882610506565b84526020840193505060208101905061066c565b5050509392505050565b600082601f8301126106b2576106b1610572565b5b81356106c2848260208601610634565b91505092915050565b600080600080608085870312156106e5576106e4610424565b5b60006106f387828801610477565b945050602061070487828801610506565b935050604061071587828801610506565b925050606085013567ffffffffffffffff81111561073657610735610429565b5b6107428782880161069d565b91505092959194509250565b600081519050919050565b600082825260208201905092915050565b6000819050602082019050919050565b600082825260208201905092915050565b600061079682610330565b6107a0818561077a565b93506107ab8361034c565b8060005b838110156107dc5781516107c38882610375565b97506107ce8361038d565b9250506001810190506107af565b5085935050505092915050565b60006107f5838361078b565b905092915050565b6000602082019050919050565b60006108158261074e565b61081f8185610759565b9350836020820285016108318561076a565b8060005b8581101561086d578484038952815161084e85826107e9565b9450610859836107fd565b925060208a01995050600181019050610835565b50829750879550505050505092915050565b60006020820190508181036000830152610899818461080a565b905092915050565b600080604083850312156108b8576108b7610424565b5b60006108c685828601610506565b92505060206108d785828601610506565b9150509250929050565b7f4e487b7100000000000000000000000000000000000000000000000000000000600052601160045260246000fd5b600061091b8261035c565b91506109268361035c565b9250827fffffffffffffffffffffffffffffffffffffffffffffffffffffffffffffffff0382111561095b5761095a6108e1565b5b82820190509291505056fea264697066735822122031b862c4a6decc3d3c552b05713dbabb48458b93b0082777e18cff6b23b9d2d164736f6c634300080a0033608060405234801561001057600080fd5b50610dbe806100206000396000f3fe608060405234801561001057600080fd5b50600436106100625760003560e01c806306a49fce14610067578063521b0dcc14610085578063a1818ac4146100b5578063afa52408146100d1578063de2e19a0146100ef578063e844d0971461011f575b600080fd5b61006f61013b565b60405161007c9190610679565b60405180910390f35b61009f600480360381019061009a919061070d565b610193565b6040516100ac9190610755565b60405180910390f35b6100cf60048036038101906100ca91906108f5565b6101e9565b005b6100d961054c565b6040516100e69190610aa9565b60405180910390f35b61010960048036038101906101049190610acb565b610556565b6040516101169190610b1a565b60405180910390f35b61013960048036038101906101349190610b35565b610585565b005b6060600080548060200260200160405190810160405280929190818152602001828054801561018957602002820191906000526020600020905b815481526020019060010190808311610175575b5050505050905090565b6000600160008373ffffffffffffffffffffffffffffffffffffffff1673ffffffffffffffffffffffffffffffffffffffff16815260200190815260200160002060009054906101000a900460ff169050919050565b60001515600160008673ffffffffffffffffffffffffffffffffffffffff1673ffffffffffffffffffffffffffffffffffffffff16815260200190815260200160002060009054906101000a900460ff1615151461027c576040517f08c379a000000000000000000000000000000000000000000000000000000000815260040161027390610bbf565b60405180910390fd5b60001515600360008673ffffffffffffffffffffffffffffffffffffffff1673ffffffffffffffffffffffffffffffffffffffff168152602001908152602001600020600085815260200190815260200160002060009054906101000a900460ff16151514610320576040517f08c379a000000000000000000000000000000000000000000000000000000000815260040161031790610c51565b60405180910390fd5b600080549050600460008673ffffffffffffffffffffffffffffffffffffffff1673ffffffffffffffffffffffffffffffffffffffff16815260200190815260200160002054106103a6576040517f08c379a000000000000000000000000000000000000000000000000000000000815260040161039d90610ce3565b60405180910390fd5b600160026000848152602001908152602001600020600085815260200190815260200160002060008282546103db9190610d32565b925050819055506001600460008673ffffffffffffffffffffffffffffffffffffffff1673ffffffffffffffffffffffffffffffffffffffff16815260200190815260200160002060008282546104329190610d32565b925050819055506001600360008673ffffffffffffffffffffffffffffffffffffffff1673ffffffffffffffffffffffffffffffffffffffff168152602001908152602001600020600085815260200190815260200160002060006101000a81548160ff021916908315150217905550600080549050600460008673ffffffffffffffffffffffffffffffffffffffff1673ffffffffffffffffffffffffffffffffffffffff1681526020019081526020016000205414156105465760018060008673ffffffffffffffffffffffffffffffffffffffff1673ffffffffffffffffffffffffffffffffffffffff16815260200190815260200160002060006101000a81548160ff0219169083151502179055505b50505050565b6060808091505090565b600060026000838152602001908152602001600020600084815260200190815260200160002054905092915050565b600081908060018154018082558091505060019003906000526020600020016000909190919091505550565b600081519050919050565b600082825260208201905092915050565b6000819050602082019050919050565b6000819050919050565b6105f0816105dd565b82525050565b600061060283836105e7565b60208301905092915050565b6000602082019050919050565b6000610626826105b1565b61063081856105bc565b935061063b836105cd565b8060005b8381101561066c57815161065388826105f6565b975061065e8361060e565b92505060018101905061063f565b5085935050505092915050565b60006020820190508181036000830152610693818461061b565b905092915050565b6000604051905090565b600080fd5b600080fd5b600073ffffffffffffffffffffffffffffffffffffffff82169050919050565b60006106da826106af565b9050919050565b6106ea816106cf565b81146106f557600080fd5b50565b600081359050610707816106e1565b92915050565b600060208284031215610723576107226106a5565b5b6000610731848285016106f8565b91505092915050565b60008115159050919050565b61074f8161073a565b82525050565b600060208201905061076a6000830184610746565b92915050565b610779816105dd565b811461078457600080fd5b50565b60008135905061079681610770565b92915050565b600080fd5b6000601f19601f8301169050919050565b7f4e487b7100000000000000000000000000000000000000000000000000000000600052604160045260246000fd5b6107ea826107a1565b810181811067ffffffffffffffff82111715610809576108086107b2565b5b80604052505050565b600061081c61069b565b905061082882826107e1565b919050565b600067ffffffffffffffff821115610848576108476107b2565b5b602082029050602081019050919050565b600080fd5b600061087161086c8461082d565b610812565b9050808382526020820190506020840283018581111561089457610893610859565b5b835b818110156108bd57806108a98882610787565b845260208401935050602081019050610896565b5050509392505050565b600082601f8301126108dc576108db61079c565b5b81356108ec84826020860161085e565b91505092915050565b6000806000806080858703121561090f5761090e6106a5565b5b600061091d878288016106f8565b945050602061092e87828801610787565b935050604061093f87828801610787565b925050606085013567ffffffffffffffff8111156109605761095f6106aa565b5b61096c878288016108c7565b91505092959194509250565b600081519050919050565b600082825260208201905092915050565b6000819050602082019050919050565b600082825260208201905092915050565b60006109c0826105b1565b6109ca81856109a4565b93506109d5836105cd565b8060005b83811015610a065781516109ed88826105f6565b97506109f88361060e565b9250506001810190506109d9565b5085935050505092915050565b6000610a1f83836109b5565b905092915050565b6000602082019050919050565b6000610a3f82610978565b610a498185610983565b935083602082028501610a5b85610994565b8060005b85811015610a975784840389528151610a788582610a13565b9450610a8383610a27565b925060208a01995050600181019050610a5f565b50829750879550505050505092915050565b60006020820190508181036000830152610ac38184610a34565b905092915050565b60008060408385031215610ae257610ae16106a5565b5b6000610af085828601610787565b9250506020610b0185828601610787565b9150509250929050565b610b14816105dd565b82525050565b6000602082019050610b2f6000830184610b0b565b92915050565b600060208284031215610b4b57610b4a6106a5565b5b6000610b5984828501610787565b91505092915050565b600082825260208201905092915050565b7f566f74657220616c726561647920766f74656400000000000000000000000000600082015250565b6000610ba9601383610b62565b9150610bb482610b73565b602082019050919050565b60006020820190508181036000830152610bd881610b9c565b9050919050565b7f566f74657220616c726561647920766f74656420666f7220746869732063616e60008201527f6469646174650000000000000000000000000000000000000000000000000000602082015250565b6000610c3b602683610b62565b9150610c4682610bdf565b604082019050919050565b60006020820190508181036000830152610c6a81610c2e565b9050919050565b7f4d617820766f74657320616c72656164792063617374656420627920766f746560008201527f7200000000000000000000000000000000000000000000000000000000000000602082015250565b6000610ccd602183610b62565b9150610cd882610c71565b604082019050919050565b60006020820190508181036000830152610cfc81610cc0565b9050919050565b7f4e487b7100000000000000000000000000000000000000000000000000000000600052601160045260246000fd5b6000610d3d826105dd565b9150610d48836105dd565b9250827fffffffffffffffffffffffffffffffffffffffffffffffffffffffffffffffff03821115610d7d57610d7c610d03565b5b82820190509291505056fea2646970667358221220175350967493426043f6f3e273f66530c4bda1af612229ef72466b72f88a067664736f6c634300080a0033608060405234801561001057600080fd5b50610c4c806100206000396000f3fe608060405234801561001057600080fd5b50600436106100625760003560e01c806306a49fce14610067578063521b0dcc14610085578063a1818ac4146100b5578063afa52408146100d1578063de2e19a0146100ef578063e844d0971461011f575b600080fd5b61006f61013b565b60405161007c919061062b565b60405180910390f35b61009f600480360381019061009a91906106bf565b610193565b6040516100ac9190610707565b60405180910390f35b6100cf60048036038101906100ca91906108a7565b6101e9565b005b6100d9610422565b6040516100e69190610a5b565b60405180910390f35b61010960048036038101906101049190610a7d565b6104c1565b6040516101169190610acc565b60405180910390f35b61013960048036038101906101349190610ae7565b6104cd565b005b6060600080548060200260200160405190810160405280929190818152602001828054801561018957602002820191906000526020600020905b815481526020019060010190808311610175575b5050505050905090565b6000600160008373ffffffffffffffffffffffffffffffffffffffff1673ffffffffffffffffffffffffffffffffffffffff16815260200190815260200160002060009054906101000a900460ff169050919050565b60001515600160008673ffffffffffffffffffffffffffffffffffffffff1673ffffffffffffffffffffffffffffffffffffffff16815260200190815260200160002060009054906101000a900460ff1615151461027c576040517f08c379a000000000000000000000000000000000000000000000000000000000815260040161027390610b71565b60405180910390fd5b6002819080600181540180825580915050600190039060005260206000200160009091909190915090805190602001906102b79291906104f9565b506001600460008673ffffffffffffffffffffffffffffffffffffffff1673ffffffffffffffffffffffffffffffffffffffff16815260200190815260200160002060008282546103089190610bc0565b925050819055506001600360008673ffffffffffffffffffffffffffffffffffffffff1673ffffffffffffffffffffffffffffffffffffffff168152602001908152602001600020600085815260200190815260200160002060006101000a81548160ff021916908315150217905550600080549050600460008673ffffffffffffffffffffffffffffffffffffffff1673ffffffffffffffffffffffffffffffffffffffff16815260200190815260200160002054141561041c5760018060008673ffffffffffffffffffffffffffffffffffffffff1673ffffffffffffffffffffffffffffffffffffffff16815260200190815260200160002060006101000a81548160ff0219169083151502179055505b50505050565b60606002805480602002602001604051908101604052809291908181526020016000905b828210156104b8578382906000526020600020018054806020026020016040519081016040528092919081815260200182805480156104a457602002820191906000526020600020905b815481526020019060010190808311610490575b505050505081526020019060010190610446565b50505050905090565b60006001905092915050565b600081908060018154018082558091505060019003906000526020600020016000909190919091505550565b828054828255906000526020600020908101928215610535579160200282015b82811115610534578251825591602001919060010190610519565b5b5090506105429190610546565b5090565b5b8082111561055f576000816000905550600101610547565b5090565b600081519050919050565b600082825260208201905092915050565b6000819050602082019050919050565b6000819050919050565b6105a28161058f565b82525050565b60006105b48383610599565b60208301905092915050565b6000602082019050919050565b60006105d882610563565b6105e2818561056e565b93506105ed8361057f565b8060005b8381101561061e57815161060588826105a8565b9750610610836105c0565b9250506001810190506105f1565b5085935050505092915050565b6000602082019050818103600083015261064581846105cd565b905092915050565b6000604051905090565b600080fd5b600080fd5b600073ffffffffffffffffffffffffffffffffffffffff82169050919050565b600061068c82610661565b9050919050565b61069c81610681565b81146106a757600080fd5b50565b6000813590506106b981610693565b92915050565b6000602082840312156106d5576106d4610657565b5b60006106e3848285016106aa565b91505092915050565b60008115159050919050565b610701816106ec565b82525050565b600060208201905061071c60008301846106f8565b92915050565b61072b8161058f565b811461073657600080fd5b50565b60008135905061074881610722565b92915050565b600080fd5b6000601f19601f8301169050919050565b7f4e487b7100000000000000000000000000000000000000000000000000000000600052604160045260246000fd5b61079c82610753565b810181811067ffffffffffffffff821117156107bb576107ba610764565b5b80604052505050565b60006107ce61064d565b90506107da8282610793565b919050565b600067ffffffffffffffff8211156107fa576107f9610764565b5b602082029050602081019050919050565b600080fd5b600061082361081e846107df565b6107c4565b905080838252602082019050602084028301858111156108465761084561080b565b5b835b8181101561086f578061085b8882610739565b845260208401935050602081019050610848565b5050509392505050565b600082601f83011261088e5761088d61074e565b5b813561089e848260208601610810565b91505092915050565b600080600080608085870312156108c1576108c0610657565b5b60006108cf878288016106aa565b94505060206108e087828801610739565b93505060406108f187828801610739565b925050606085013567ffffffffffffffff8111156109125761091161065c565b5b61091e87828801610879565b91505092959194509250565b600081519050919050565b600082825260208201905092915050565b6000819050602082019050919050565b600082825260208201905092915050565b600061097282610563565b61097c8185610956565b93506109878361057f565b8060005b838110156109b857815161099f88826105a8565b97506109aa836105c0565b92505060018101905061098b565b5085935050505092915050565b60006109d18383610967565b905092915050565b6000602082019050919050565b60006109f18261092a565b6109fb8185610935565b935083602082028501610a0d85610946565b8060005b85811015610a495784840389528151610a2a85826109c5565b9450610a35836109d9565b925060208a01995050600181019050610a11565b50829750879550505050505092915050565b60006020820190508181036000830152610a7581846109e6565b905092915050565b60008060408385031215610a9457610a93610657565b5b6000610aa285828601610739565b9250506020610ab385828601610739565b9150509250929050565b610ac68161058f565b82525050565b6000602082019050610ae16000830184610abd565b92915050565b600060208284031215610afd57610afc610657565b5b6000610b0b84828501610739565b91505092915050565b600082825260208201905092915050565b7f566f74657220616c726561647920766f74656400000000000000000000000000600082015250565b6000610b5b601383610b14565b9150610b6682610b25565b602082019050919050565b60006020820190508181036000830152610b8a81610b4e565b9050919050565b7f4e487b7100000000000000000000000000000000000000000000000000000000600052601160045260246000fd5b6000610bcb8261058f565b9150610bd68361058f565b9250827fffffffffffffffffffffffffffffffffffffffffffffffffffffffffffffffff03821115610c0b57610c0a610b91565b5b82820190509291505056fea2646970667358221220362c2fd06a4fd7c1e31b41fe4da6bc3e4f2d044fd0410115293ecff11ca85ac264736f6c634300080a0033a2646970667358221220ab0aed027f958d536a65f5acb4b3bcbd9dc3a867d4a5d1172caec407a2d7141664736f6c634300080a0033",
  "linkReferences": {},
  "deployedLinkReferences": {}
}