{
  "_format": "hh-sol-artifact-1",
  "contractName": "GetBallot",
  "sourceName": "contracts/facets/GetBallot.sol",
  "abi": [
    {
      "inputs": [
        {
          "internalType": "uint256",
          "name": "_ballotType",
          "type": "uint256"
        }
      ],
      "name": "getNewBallot",
      "outputs": [],
      "stateMutability": "nonpayable",
      "type": "function"
    }
  ],
  "bytecode": "0x608060405234801561001057600080fd5b50615e64806100206000396000f3fe608060405234801561001057600080fd5b506004361061002b5760003560e01c80637878256214610030575b600080fd5b61004a600480360381019061004591906104b0565b61004c565b005b60018114156100c25760405161006190610427565b604051809103906000f08015801561007d573d6000803e3d6000fd5b506000806101000a81548173ffffffffffffffffffffffffffffffffffffffff021916908373ffffffffffffffffffffffffffffffffffffffff16021790555061038d565b6002811415610138576040516100d790610434565b604051809103906000f0801580156100f3573d6000803e3d6000fd5b506000806101000a81548173ffffffffffffffffffffffffffffffffffffffff021916908373ffffffffffffffffffffffffffffffffffffffff16021790555061038c565b60038114156101465761038b565b60048114156101bc5760405161015b90610441565b604051809103906000f080158015610177573d6000803e3d6000fd5b506000806101000a81548173ffffffffffffffffffffffffffffffffffffffff021916908373ffffffffffffffffffffffffffffffffffffffff16021790555061038a565b6005811415610232576040516101d19061044e565b604051809103906000f0801580156101ed573d6000803e3d6000fd5b506000806101000a81548173ffffffffffffffffffffffffffffffffffffffff021916908373ffffffffffffffffffffffffffffffffffffffff160217905550610389565b60068114156102a8576040516102479061045b565b604051809103906000f080158015610263573d6000803e3d6000fd5b506000806101000a81548173ffffffffffffffffffffffffffffffffffffffff021916908373ffffffffffffffffffffffffffffffffffffffff160217905550610388565b600781141561031e576040516102bd90610468565b604051809103906000f0801580156102d9573d6000803e3d6000fd5b506000806101000a81548173ffffffffffffffffffffffffffffffffffffffff021916908373ffffffffffffffffffffffffffffffffffffffff160217905550610387565b60405161032a90610427565b604051809103906000f080158015610346573d6000803e3d6000fd5b506000806101000a81548173ffffffffffffffffffffffffffffffffffffffff021916908373ffffffffffffffffffffffffffffffffffffffff1602179055505b5b5b5b5b5b5b60008054906101000a900473ffffffffffffffffffffffffffffffffffffffff166103b66103fa565b60000160006101000a81548173ffffffffffffffffffffffffffffffffffffffff021916908373ffffffffffffffffffffffffffffffffffffffff16021790555050565b6000807f5b43f313088137496832405d64cc708765db93c8144d82f7a7f806ac22d5603b90508091505090565b610d36806104de83390190565b6110588061121483390190565b610ee68061226c83390190565b6110748061315283390190565b610cc3806141c683390190565b610fa680614e8983390190565b600080fd5b6000819050919050565b61048d8161047a565b811461049857600080fd5b50565b6000813590506104aa81610484565b92915050565b6000602082840312156104c6576104c5610475565b5b60006104d48482850161049b565b9150509291505056fe608060405234801561001057600080fd5b50610d16806100206000396000f3fe608060405234801561001057600080fd5b50600436106100885760003560e01c8063afa524081161005b578063afa5240814610127578063c4d66de814610145578063de2e19a014610161578063e844d0971461019157610088565b806306a49fce1461008d578063521b0dcc146100ab5780635df81330146100db578063a1818ac41461010b575b600080fd5b6100956101ad565b6040516100a291906105f7565b60405180910390f35b6100c560048036038101906100c0919061068b565b610205565b6040516100d291906106d3565b60405180910390f35b6100f560048036038101906100f0919061071a565b61025b565b6040516101029190610756565b60405180910390f35b610125600480360381019061012091906108ca565b610273565b005b61012f610422565b60405161013c9190610a7e565b60405180910390f35b61015f600480360381019061015a919061068b565b61042c565b005b61017b60048036038101906101769190610aa0565b6104e1565b6040516101889190610756565b60405180910390f35b6101ab60048036038101906101a6919061071a565b610503565b005b606060008054806020026020016040519081016040528092919081815260200182805480156101fb57602002820191906000526020600020905b8154815260200190600101908083116101e7575b5050505050905090565b6000600160008373ffffffffffffffffffffffffffffffffffffffff1673ffffffffffffffffffffffffffffffffffffffff16815260200190815260200160002060009054906101000a900460ff169050919050565b60036020528060005260406000206000915090505481565b600260009054906101000a900473ffffffffffffffffffffffffffffffffffffffff1673ffffffffffffffffffffffffffffffffffffffff163373ffffffffffffffffffffffffffffffffffffffff1614610303576040517f08c379a00000000000000000000000000000000000000000000000000000000081526004016102fa90610b63565b60405180910390fd5b6001915060001515600160008673ffffffffffffffffffffffffffffffffffffffff1673ffffffffffffffffffffffffffffffffffffffff16815260200190815260200160002060009054906101000a900460ff1615151461039a576040517f08c379a000000000000000000000000000000000000000000000000000000000815260040161039190610bcf565b60405180910390fd5b60016003600085815260200190815260200160002060008282546103be9190610c1e565b9250508190555060018060008673ffffffffffffffffffffffffffffffffffffffff1673ffffffffffffffffffffffffffffffffffffffff16815260200190815260200160002060006101000a81548160ff02191690831515021790555050505050565b6060808091505090565b60001515600260149054906101000a900460ff16151514610482576040517f08c379a000000000000000000000000000000000000000000000000000000000815260040161047990610cc0565b60405180910390fd5b80600260006101000a81548173ffffffffffffffffffffffffffffffffffffffff021916908373ffffffffffffffffffffffffffffffffffffffff1602179055506001600260146101000a81548160ff02191690831515021790555050565b6000600191506003600084815260200190815260200160002054905092915050565b600081908060018154018082558091505060019003906000526020600020016000909190919091505550565b600081519050919050565b600082825260208201905092915050565b6000819050602082019050919050565b6000819050919050565b61056e8161055b565b82525050565b60006105808383610565565b60208301905092915050565b6000602082019050919050565b60006105a48261052f565b6105ae818561053a565b93506105b98361054b565b8060005b838110156105ea5781516105d18882610574565b97506105dc8361058c565b9250506001810190506105bd565b5085935050505092915050565b600060208201905081810360008301526106118184610599565b905092915050565b6000604051905090565b600080fd5b600080fd5b600073ffffffffffffffffffffffffffffffffffffffff82169050919050565b60006106588261062d565b9050919050565b6106688161064d565b811461067357600080fd5b50565b6000813590506106858161065f565b92915050565b6000602082840312156106a1576106a0610623565b5b60006106af84828501610676565b91505092915050565b60008115159050919050565b6106cd816106b8565b82525050565b60006020820190506106e860008301846106c4565b92915050565b6106f78161055b565b811461070257600080fd5b50565b600081359050610714816106ee565b92915050565b6000602082840312156107305761072f610623565b5b600061073e84828501610705565b91505092915050565b6107508161055b565b82525050565b600060208201905061076b6000830184610747565b92915050565b600080fd5b6000601f19601f8301169050919050565b7f4e487b7100000000000000000000000000000000000000000000000000000000600052604160045260246000fd5b6107bf82610776565b810181811067ffffffffffffffff821117156107de576107dd610787565b5b80604052505050565b60006107f1610619565b90506107fd82826107b6565b919050565b600067ffffffffffffffff82111561081d5761081c610787565b5b602082029050602081019050919050565b600080fd5b600061084661084184610802565b6107e7565b905080838252602082019050602084028301858111156108695761086861082e565b5b835b81811015610892578061087e8882610705565b84526020840193505060208101905061086b565b5050509392505050565b600082601f8301126108b1576108b0610771565b5b81356108c1848260208601610833565b91505092915050565b600080600080608085870312156108e4576108e3610623565b5b60006108f287828801610676565b945050602061090387828801610705565b935050604061091487828801610705565b925050606085013567ffffffffffffffff81111561093557610934610628565b5b6109418782880161089c565b91505092959194509250565b600081519050919050565b600082825260208201905092915050565b6000819050602082019050919050565b600082825260208201905092915050565b60006109958261052f565b61099f8185610979565b93506109aa8361054b565b8060005b838110156109db5781516109c28882610574565b97506109cd8361058c565b9250506001810190506109ae565b5085935050505092915050565b60006109f4838361098a565b905092915050565b6000602082019050919050565b6000610a148261094d565b610a1e8185610958565b935083602082028501610a3085610969565b8060005b85811015610a6c5784840389528151610a4d85826109e8565b9450610a58836109fc565b925060208a01995050600181019050610a34565b50829750879550505050505092915050565b60006020820190508181036000830152610a988184610a09565b905092915050565b60008060408385031215610ab757610ab6610623565b5b6000610ac585828601610705565b9250506020610ad685828601610705565b9150509250929050565b600082825260208201905092915050565b7f4d7573742062652063616c6c65642066726f6d2074686520656c656374696f6e60008201527f206f7267616e697a657220636f6e747261637400000000000000000000000000602082015250565b6000610b4d603383610ae0565b9150610b5882610af1565b604082019050919050565b60006020820190508181036000830152610b7c81610b40565b9050919050565b7f566f74657220616c726561647920766f74656400000000000000000000000000600082015250565b6000610bb9601383610ae0565b9150610bc482610b83565b602082019050919050565b60006020820190508181036000830152610be881610bac565b9050919050565b7f4e487b7100000000000000000000000000000000000000000000000000000000600052601160045260246000fd5b6000610c298261055b565b9150610c348361055b565b9250827fffffffffffffffffffffffffffffffffffffffffffffffffffffffffffffffff03821115610c6957610c68610bef565b5b828201905092915050565b7f416c726561647920496e697469616c697a656400000000000000000000000000600082015250565b6000610caa601383610ae0565b9150610cb582610c74565b602082019050919050565b60006020820190508181036000830152610cd981610c9d565b905091905056fea264697066735822122077ef66390c302040e2bdd72af146ed91ba140387123a0ce118e45aa6fa52fd8f64736f6c634300080a0033608060405234801561001057600080fd5b50611038806100206000396000f3fe608060405234801561001057600080fd5b506004361061007d5760003560e01c8063afa524081161005b578063afa52408146100ec578063c4d66de81461010a578063de2e19a014610126578063e844d097146101565761007d565b806306a49fce14610082578063521b0dcc146100a0578063a1818ac4146100d0575b600080fd5b61008a610172565b60405161009791906107f5565b60405180910390f35b6100ba60048036038101906100b59190610889565b6101ca565b6040516100c791906108d1565b60405180910390f35b6100ea60048036038101906100e59190610a71565b610220565b005b6100f4610613565b6040516101019190610c25565b60405180910390f35b610124600480360381019061011f9190610889565b61061d565b005b610140600480360381019061013b9190610c47565b6106d2565b60405161014d9190610c96565b60405180910390f35b610170600480360381019061016b9190610cb1565b610701565b005b606060008054806020026020016040519081016040528092919081815260200182805480156101c057602002820191906000526020600020905b8154815260200190600101908083116101ac575b5050505050905090565b6000600160008373ffffffffffffffffffffffffffffffffffffffff1673ffffffffffffffffffffffffffffffffffffffff16815260200190815260200160002060009054906101000a900460ff169050919050565b600260009054906101000a900473ffffffffffffffffffffffffffffffffffffffff1673ffffffffffffffffffffffffffffffffffffffff163373ffffffffffffffffffffffffffffffffffffffff16146102b0576040517f08c379a00000000000000000000000000000000000000000000000000000000081526004016102a790610d61565b60405180910390fd5b60001515600160008673ffffffffffffffffffffffffffffffffffffffff1673ffffffffffffffffffffffffffffffffffffffff16815260200190815260200160002060009054906101000a900460ff16151514610343576040517f08c379a000000000000000000000000000000000000000000000000000000000815260040161033a90610dcd565b60405180910390fd5b60001515600460008673ffffffffffffffffffffffffffffffffffffffff1673ffffffffffffffffffffffffffffffffffffffff168152602001908152602001600020600085815260200190815260200160002060009054906101000a900460ff161515146103e7576040517f08c379a00000000000000000000000000000000000000000000000000000000081526004016103de90610e5f565b60405180910390fd5b600080549050600560008673ffffffffffffffffffffffffffffffffffffffff1673ffffffffffffffffffffffffffffffffffffffff168152602001908152602001600020541061046d576040517f08c379a000000000000000000000000000000000000000000000000000000000815260040161046490610ef1565b60405180910390fd5b600160036000848152602001908152602001600020600085815260200190815260200160002060008282546104a29190610f40565b925050819055506001600560008673ffffffffffffffffffffffffffffffffffffffff1673ffffffffffffffffffffffffffffffffffffffff16815260200190815260200160002060008282546104f99190610f40565b925050819055506001600460008673ffffffffffffffffffffffffffffffffffffffff1673ffffffffffffffffffffffffffffffffffffffff168152602001908152602001600020600085815260200190815260200160002060006101000a81548160ff021916908315150217905550600080549050600560008673ffffffffffffffffffffffffffffffffffffffff1673ffffffffffffffffffffffffffffffffffffffff16815260200190815260200160002054141561060d5760018060008673ffffffffffffffffffffffffffffffffffffffff1673ffffffffffffffffffffffffffffffffffffffff16815260200190815260200160002060006101000a81548160ff0219169083151502179055505b50505050565b6060808091505090565b60001515600260149054906101000a900460ff16151514610673576040517f08c379a000000000000000000000000000000000000000000000000000000000815260040161066a90610fe2565b60405180910390fd5b80600260006101000a81548173ffffffffffffffffffffffffffffffffffffffff021916908373ffffffffffffffffffffffffffffffffffffffff1602179055506001600260146101000a81548160ff02191690831515021790555050565b600060036000838152602001908152602001600020600084815260200190815260200160002054905092915050565b600081908060018154018082558091505060019003906000526020600020016000909190919091505550565b600081519050919050565b600082825260208201905092915050565b6000819050602082019050919050565b6000819050919050565b61076c81610759565b82525050565b600061077e8383610763565b60208301905092915050565b6000602082019050919050565b60006107a28261072d565b6107ac8185610738565b93506107b783610749565b8060005b838110156107e85781516107cf8882610772565b97506107da8361078a565b9250506001810190506107bb565b5085935050505092915050565b6000602082019050818103600083015261080f8184610797565b905092915050565b6000604051905090565b600080fd5b600080fd5b600073ffffffffffffffffffffffffffffffffffffffff82169050919050565b60006108568261082b565b9050919050565b6108668161084b565b811461087157600080fd5b50565b6000813590506108838161085d565b92915050565b60006020828403121561089f5761089e610821565b5b60006108ad84828501610874565b91505092915050565b60008115159050919050565b6108cb816108b6565b82525050565b60006020820190506108e660008301846108c2565b92915050565b6108f581610759565b811461090057600080fd5b50565b600081359050610912816108ec565b92915050565b600080fd5b6000601f19601f8301169050919050565b7f4e487b7100000000000000000000000000000000000000000000000000000000600052604160045260246000fd5b6109668261091d565b810181811067ffffffffffffffff821117156109855761098461092e565b5b80604052505050565b6000610998610817565b90506109a4828261095d565b919050565b600067ffffffffffffffff8211156109c4576109c361092e565b5b602082029050602081019050919050565b600080fd5b60006109ed6109e8846109a9565b61098e565b90508083825260208201905060208402830185811115610a1057610a0f6109d5565b5b835b81811015610a395780610a258882610903565b845260208401935050602081019050610a12565b5050509392505050565b600082601f830112610a5857610a57610918565b5b8135610a688482602086016109da565b91505092915050565b60008060008060808587031215610a8b57610a8a610821565b5b6000610a9987828801610874565b9450506020610aaa87828801610903565b9350506040610abb87828801610903565b925050606085013567ffffffffffffffff811115610adc57610adb610826565b5b610ae887828801610a43565b91505092959194509250565b600081519050919050565b600082825260208201905092915050565b6000819050602082019050919050565b600082825260208201905092915050565b6000610b3c8261072d565b610b468185610b20565b9350610b5183610749565b8060005b83811015610b82578151610b698882610772565b9750610b748361078a565b925050600181019050610b55565b5085935050505092915050565b6000610b9b8383610b31565b905092915050565b6000602082019050919050565b6000610bbb82610af4565b610bc58185610aff565b935083602082028501610bd785610b10565b8060005b85811015610c135784840389528151610bf48582610b8f565b9450610bff83610ba3565b925060208a01995050600181019050610bdb565b50829750879550505050505092915050565b60006020820190508181036000830152610c3f8184610bb0565b905092915050565b60008060408385031215610c5e57610c5d610821565b5b6000610c6c85828601610903565b9250506020610c7d85828601610903565b9150509250929050565b610c9081610759565b82525050565b6000602082019050610cab6000830184610c87565b92915050565b600060208284031215610cc757610cc6610821565b5b6000610cd584828501610903565b91505092915050565b600082825260208201905092915050565b7f4d7573742062652063616c6c65642066726f6d2074686520656c656374696f6e60008201527f206f7267616e697a657220636f6e747261637400000000000000000000000000602082015250565b6000610d4b603383610cde565b9150610d5682610cef565b604082019050919050565b60006020820190508181036000830152610d7a81610d3e565b9050919050565b7f566f74657220616c726561647920766f74656400000000000000000000000000600082015250565b6000610db7601383610cde565b9150610dc282610d81565b602082019050919050565b60006020820190508181036000830152610de681610daa565b9050919050565b7f566f74657220616c726561647920766f74656420666f7220746869732063616e60008201527f6469646174650000000000000000000000000000000000000000000000000000602082015250565b6000610e49602683610cde565b9150610e5482610ded565b604082019050919050565b60006020820190508181036000830152610e7881610e3c565b9050919050565b7f4d617820766f74657320616c72656164792063617374656420627920766f746560008201527f7200000000000000000000000000000000000000000000000000000000000000602082015250565b6000610edb602183610cde565b9150610ee682610e7f565b604082019050919050565b60006020820190508181036000830152610f0a81610ece565b9050919050565b7f4e487b7100000000000000000000000000000000000000000000000000000000600052601160045260246000fd5b6000610f4b82610759565b9150610f5683610759565b9250827fffffffffffffffffffffffffffffffffffffffffffffffffffffffffffffffff03821115610f8b57610f8a610f11565b5b828201905092915050565b7f416c726561647920496e697469616c697a656400000000000000000000000000600082015250565b6000610fcc601383610cde565b9150610fd782610f96565b602082019050919050565b60006020820190508181036000830152610ffb81610fbf565b905091905056fea2646970667358221220bd1ef47179ac39687cf2b4ef9f4ddb02a4c86b571e67cc07c0aac1f5af75156a64736f6c634300080a0033608060405234801561001057600080fd5b50610ec6806100206000396000f3fe608060405234801561001057600080fd5b506004361061007d5760003560e01c8063afa524081161005b578063afa52408146100ec578063c4d66de81461010a578063de2e19a014610126578063e844d097146101565761007d565b806306a49fce14610082578063521b0dcc146100a0578063a1818ac4146100d0575b600080fd5b61008a610172565b60405161009791906107a7565b60405180910390f35b6100ba60048036038101906100b5919061083b565b6101ca565b6040516100c79190610883565b60405180910390f35b6100ea60048036038101906100e59190610a23565b610220565b005b6100f46104e9565b6040516101019190610bd7565b60405180910390f35b610124600480360381019061011f919061083b565b610588565b005b610140600480360381019061013b9190610bf9565b61063d565b60405161014d9190610c48565b60405180910390f35b610170600480360381019061016b9190610c63565b610649565b005b606060008054806020026020016040519081016040528092919081815260200182805480156101c057602002820191906000526020600020905b8154815260200190600101908083116101ac575b5050505050905090565b6000600160008373ffffffffffffffffffffffffffffffffffffffff1673ffffffffffffffffffffffffffffffffffffffff16815260200190815260200160002060009054906101000a900460ff169050919050565b600260009054906101000a900473ffffffffffffffffffffffffffffffffffffffff1673ffffffffffffffffffffffffffffffffffffffff163373ffffffffffffffffffffffffffffffffffffffff16146102b0576040517f08c379a00000000000000000000000000000000000000000000000000000000081526004016102a790610d13565b60405180910390fd5b60001515600160008673ffffffffffffffffffffffffffffffffffffffff1673ffffffffffffffffffffffffffffffffffffffff16815260200190815260200160002060009054906101000a900460ff16151514610343576040517f08c379a000000000000000000000000000000000000000000000000000000000815260040161033a90610d7f565b60405180910390fd5b60038190806001815401808255809150506001900390600052602060002001600090919091909150908051906020019061037e929190610675565b506001600560008673ffffffffffffffffffffffffffffffffffffffff1673ffffffffffffffffffffffffffffffffffffffff16815260200190815260200160002060008282546103cf9190610dce565b925050819055506001600460008673ffffffffffffffffffffffffffffffffffffffff1673ffffffffffffffffffffffffffffffffffffffff168152602001908152602001600020600085815260200190815260200160002060006101000a81548160ff021916908315150217905550600080549050600560008673ffffffffffffffffffffffffffffffffffffffff1673ffffffffffffffffffffffffffffffffffffffff1681526020019081526020016000205414156104e35760018060008673ffffffffffffffffffffffffffffffffffffffff1673ffffffffffffffffffffffffffffffffffffffff16815260200190815260200160002060006101000a81548160ff0219169083151502179055505b50505050565b60606003805480602002602001604051908101604052809291908181526020016000905b8282101561057f5783829060005260206000200180548060200260200160405190810160405280929190818152602001828054801561056b57602002820191906000526020600020905b815481526020019060010190808311610557575b50505050508152602001906001019061050d565b50505050905090565b60001515600260149054906101000a900460ff161515146105de576040517f08c379a00000000000000000000000000000000000000000000000000000000081526004016105d590610e70565b60405180910390fd5b80600260006101000a81548173ffffffffffffffffffffffffffffffffffffffff021916908373ffffffffffffffffffffffffffffffffffffffff1602179055506001600260146101000a81548160ff02191690831515021790555050565b60006001905092915050565b600081908060018154018082558091505060019003906000526020600020016000909190919091505550565b8280548282559060005260206000209081019282156106b1579160200282015b828111156106b0578251825591602001919060010190610695565b5b5090506106be91906106c2565b5090565b5b808211156106db5760008160009055506001016106c3565b5090565b600081519050919050565b600082825260208201905092915050565b6000819050602082019050919050565b6000819050919050565b61071e8161070b565b82525050565b60006107308383610715565b60208301905092915050565b6000602082019050919050565b6000610754826106df565b61075e81856106ea565b9350610769836106fb565b8060005b8381101561079a5781516107818882610724565b975061078c8361073c565b92505060018101905061076d565b5085935050505092915050565b600060208201905081810360008301526107c18184610749565b905092915050565b6000604051905090565b600080fd5b600080fd5b600073ffffffffffffffffffffffffffffffffffffffff82169050919050565b6000610808826107dd565b9050919050565b610818816107fd565b811461082357600080fd5b50565b6000813590506108358161080f565b92915050565b600060208284031215610851576108506107d3565b5b600061085f84828501610826565b91505092915050565b60008115159050919050565b61087d81610868565b82525050565b60006020820190506108986000830184610874565b92915050565b6108a78161070b565b81146108b257600080fd5b50565b6000813590506108c48161089e565b92915050565b600080fd5b6000601f19601f8301169050919050565b7f4e487b7100000000000000000000000000000000000000000000000000000000600052604160045260246000fd5b610918826108cf565b810181811067ffffffffffffffff82111715610937576109366108e0565b5b80604052505050565b600061094a6107c9565b9050610956828261090f565b919050565b600067ffffffffffffffff821115610976576109756108e0565b5b602082029050602081019050919050565b600080fd5b600061099f61099a8461095b565b610940565b905080838252602082019050602084028301858111156109c2576109c1610987565b5b835b818110156109eb57806109d788826108b5565b8452602084019350506020810190506109c4565b5050509392505050565b600082601f830112610a0a57610a096108ca565b5b8135610a1a84826020860161098c565b91505092915050565b60008060008060808587031215610a3d57610a3c6107d3565b5b6000610a4b87828801610826565b9450506020610a5c878288016108b5565b9350506040610a6d878288016108b5565b925050606085013567ffffffffffffffff811115610a8e57610a8d6107d8565b5b610a9a878288016109f5565b91505092959194509250565b600081519050919050565b600082825260208201905092915050565b6000819050602082019050919050565b600082825260208201905092915050565b6000610aee826106df565b610af88185610ad2565b9350610b03836106fb565b8060005b83811015610b34578151610b1b8882610724565b9750610b268361073c565b925050600181019050610b07565b5085935050505092915050565b6000610b4d8383610ae3565b905092915050565b6000602082019050919050565b6000610b6d82610aa6565b610b778185610ab1565b935083602082028501610b8985610ac2565b8060005b85811015610bc55784840389528151610ba68582610b41565b9450610bb183610b55565b925060208a01995050600181019050610b8d565b50829750879550505050505092915050565b60006020820190508181036000830152610bf18184610b62565b905092915050565b60008060408385031215610c1057610c0f6107d3565b5b6000610c1e858286016108b5565b9250506020610c2f858286016108b5565b9150509250929050565b610c428161070b565b82525050565b6000602082019050610c5d6000830184610c39565b92915050565b600060208284031215610c7957610c786107d3565b5b6000610c87848285016108b5565b91505092915050565b600082825260208201905092915050565b7f4d7573742062652063616c6c65642066726f6d2074686520656c656374696f6e60008201527f206f7267616e697a657220636f6e747261637400000000000000000000000000602082015250565b6000610cfd603383610c90565b9150610d0882610ca1565b604082019050919050565b60006020820190508181036000830152610d2c81610cf0565b9050919050565b7f566f74657220616c726561647920766f74656400000000000000000000000000600082015250565b6000610d69601383610c90565b9150610d7482610d33565b602082019050919050565b60006020820190508181036000830152610d9881610d5c565b9050919050565b7f4e487b7100000000000000000000000000000000000000000000000000000000600052601160045260246000fd5b6000610dd98261070b565b9150610de48361070b565b9250827fffffffffffffffffffffffffffffffffffffffffffffffffffffffffffffffff03821115610e1957610e18610d9f565b5b828201905092915050565b7f416c726561647920496e697469616c697a656400000000000000000000000000600082015250565b6000610e5a601383610c90565b9150610e6582610e24565b602082019050919050565b60006020820190508181036000830152610e8981610e4d565b905091905056fea26469706673582212209bb2bbe8ee94c9bb4812eef2c437972ce8eca3c17bf56acec59e6ba8cdb9231d64736f6c634300080a0033608060405234801561001057600080fd5b50611054806100206000396000f3fe608060405234801561001057600080fd5b506004361061007d5760003560e01c8063afa524081161005b578063afa52408146100ec578063c4d66de81461010a578063de2e19a014610126578063e844d097146101565761007d565b806306a49fce14610082578063521b0dcc146100a0578063a1818ac4146100d0575b600080fd5b61008a610172565b60405161009791906108bd565b60405180910390f35b6100ba60048036038101906100b59190610951565b6101ca565b6040516100c79190610999565b60405180910390f35b6100ea60048036038101906100e59190610b39565b610220565b005b6100f46105c5565b6040516101019190610ced565b60405180910390f35b610124600480360381019061011f9190610951565b610664565b005b610140600480360381019061013b9190610d0f565b610719565b60405161014d9190610d5e565b60405180910390f35b610170600480360381019061016b9190610d79565b61075f565b005b606060008054806020026020016040519081016040528092919081815260200182805480156101c057602002820191906000526020600020905b8154815260200190600101908083116101ac575b5050505050905090565b6000600160008373ffffffffffffffffffffffffffffffffffffffff1673ffffffffffffffffffffffffffffffffffffffff16815260200190815260200160002060009054906101000a900460ff169050919050565b600260009054906101000a900473ffffffffffffffffffffffffffffffffffffffff1673ffffffffffffffffffffffffffffffffffffffff163373ffffffffffffffffffffffffffffffffffffffff16146102b0576040517f08c379a00000000000000000000000000000000000000000000000000000000081526004016102a790610e29565b60405180910390fd5b60001515600160008673ffffffffffffffffffffffffffffffffffffffff1673ffffffffffffffffffffffffffffffffffffffff16815260200190815260200160002060009054906101000a900460ff16151514610343576040517f08c379a000000000000000000000000000000000000000000000000000000000815260040161033a90610e95565b60405180910390fd5b600081519050600060038054905014156103fb5760005b818110156103f95760038267ffffffffffffffff81111561037e5761037d6109f6565b5b6040519080825280602002602001820160405280156103ac5781602001602082028036833780820191505090505b509080600181540180825580915050600190039060005260206000200160009091909190915090805190602001906103e592919061078b565b5080806103f190610ee4565b91505061035a565b505b60005b818110156105665760006001826104159190610f2d565b90505b828110156105525783818151811061043357610432610f83565b5b602002602001015184838151811061044e5761044d610f83565b5b602002602001015111156104b157600382815481106104705761046f610f83565b5b90600052602060002001818154811061048c5761048b610f83565b5b9060005260206000200160008154809291906104a790610ee4565b919050555061053f565b8381815181106104c4576104c3610f83565b5b60200260200101518483815181106104df576104de610f83565b5b6020026020010151101561053e576003818154811061050157610500610f83565b5b90600052602060002001828154811061051d5761051c610f83565b5b90600052602060002001600081548092919061053890610ee4565b91905055505b5b808061054a90610ee4565b915050610418565b50808061055e90610ee4565b9150506103fe565b5060018060008773ffffffffffffffffffffffffffffffffffffffff1673ffffffffffffffffffffffffffffffffffffffff16815260200190815260200160002060006101000a81548160ff0219169083151502179055505050505050565b60606003805480602002602001604051908101604052809291908181526020016000905b8282101561065b5783829060005260206000200180548060200260200160405190810160405280929190818152602001828054801561064757602002820191906000526020600020905b815481526020019060010190808311610633575b5050505050815260200190600101906105e9565b50505050905090565b60001515600260149054906101000a900460ff161515146106ba576040517f08c379a00000000000000000000000000000000000000000000000000000000081526004016106b190610ffe565b60405180910390fd5b80600260006101000a81548173ffffffffffffffffffffffffffffffffffffffff021916908373ffffffffffffffffffffffffffffffffffffffff1602179055506001600260146101000a81548160ff02191690831515021790555050565b60006003838154811061072f5761072e610f83565b5b9060005260206000200160018154811061074c5761074b610f83565b5b9060005260206000200154905092915050565b600081908060018154018082558091505060019003906000526020600020016000909190919091505550565b8280548282559060005260206000209081019282156107c7579160200282015b828111156107c65782518255916020019190600101906107ab565b5b5090506107d491906107d8565b5090565b5b808211156107f15760008160009055506001016107d9565b5090565b600081519050919050565b600082825260208201905092915050565b6000819050602082019050919050565b6000819050919050565b61083481610821565b82525050565b6000610846838361082b565b60208301905092915050565b6000602082019050919050565b600061086a826107f5565b6108748185610800565b935061087f83610811565b8060005b838110156108b0578151610897888261083a565b97506108a283610852565b925050600181019050610883565b5085935050505092915050565b600060208201905081810360008301526108d7818461085f565b905092915050565b6000604051905090565b600080fd5b600080fd5b600073ffffffffffffffffffffffffffffffffffffffff82169050919050565b600061091e826108f3565b9050919050565b61092e81610913565b811461093957600080fd5b50565b60008135905061094b81610925565b92915050565b600060208284031215610967576109666108e9565b5b60006109758482850161093c565b91505092915050565b60008115159050919050565b6109938161097e565b82525050565b60006020820190506109ae600083018461098a565b92915050565b6109bd81610821565b81146109c857600080fd5b50565b6000813590506109da816109b4565b92915050565b600080fd5b6000601f19601f8301169050919050565b7f4e487b7100000000000000000000000000000000000000000000000000000000600052604160045260246000fd5b610a2e826109e5565b810181811067ffffffffffffffff82111715610a4d57610a4c6109f6565b5b80604052505050565b6000610a606108df565b9050610a6c8282610a25565b919050565b600067ffffffffffffffff821115610a8c57610a8b6109f6565b5b602082029050602081019050919050565b600080fd5b6000610ab5610ab084610a71565b610a56565b90508083825260208201905060208402830185811115610ad857610ad7610a9d565b5b835b81811015610b015780610aed88826109cb565b845260208401935050602081019050610ada565b5050509392505050565b600082601f830112610b2057610b1f6109e0565b5b8135610b30848260208601610aa2565b91505092915050565b60008060008060808587031215610b5357610b526108e9565b5b6000610b618782880161093c565b9450506020610b72878288016109cb565b9350506040610b83878288016109cb565b925050606085013567ffffffffffffffff811115610ba457610ba36108ee565b5b610bb087828801610b0b565b91505092959194509250565b600081519050919050565b600082825260208201905092915050565b6000819050602082019050919050565b600082825260208201905092915050565b6000610c04826107f5565b610c0e8185610be8565b9350610c1983610811565b8060005b83811015610c4a578151610c31888261083a565b9750610c3c83610852565b925050600181019050610c1d565b5085935050505092915050565b6000610c638383610bf9565b905092915050565b6000602082019050919050565b6000610c8382610bbc565b610c8d8185610bc7565b935083602082028501610c9f85610bd8565b8060005b85811015610cdb5784840389528151610cbc8582610c57565b9450610cc783610c6b565b925060208a01995050600181019050610ca3565b50829750879550505050505092915050565b60006020820190508181036000830152610d078184610c78565b905092915050565b60008060408385031215610d2657610d256108e9565b5b6000610d34858286016109cb565b9250506020610d45858286016109cb565b9150509250929050565b610d5881610821565b82525050565b6000602082019050610d736000830184610d4f565b92915050565b600060208284031215610d8f57610d8e6108e9565b5b6000610d9d848285016109cb565b91505092915050565b600082825260208201905092915050565b7f4d7573742062652063616c6c65642066726f6d2074686520656c656374696f6e60008201527f206f7267616e697a657220636f6e747261637400000000000000000000000000602082015250565b6000610e13603383610da6565b9150610e1e82610db7565b604082019050919050565b60006020820190508181036000830152610e4281610e06565b9050919050565b7f566f74657220616c726561647920766f74656400000000000000000000000000600082015250565b6000610e7f601383610da6565b9150610e8a82610e49565b602082019050919050565b60006020820190508181036000830152610eae81610e72565b9050919050565b7f4e487b7100000000000000000000000000000000000000000000000000000000600052601160045260246000fd5b6000610eef82610821565b91507fffffffffffffffffffffffffffffffffffffffffffffffffffffffffffffffff821415610f2257610f21610eb5565b5b600182019050919050565b6000610f3882610821565b9150610f4383610821565b9250827fffffffffffffffffffffffffffffffffffffffffffffffffffffffffffffffff03821115610f7857610f77610eb5565b5b828201905092915050565b7f4e487b7100000000000000000000000000000000000000000000000000000000600052603260045260246000fd5b7f416c726561647920496e697469616c697a656400000000000000000000000000600082015250565b6000610fe8601383610da6565b9150610ff382610fb2565b602082019050919050565b6000602082019050818103600083015261101781610fdb565b905091905056fea26469706673582212207c7603904130ac321b39928480ccd9460e9965fc48f33ab7712d58db172340d164736f6c634300080a0033608060405234801561001057600080fd5b50610ca3806100206000396000f3fe608060405234801561001057600080fd5b506004361061007d5760003560e01c8063afa524081161005b578063afa52408146100ec578063c4d66de81461010a578063de2e19a014610126578063e844d097146101565761007d565b806306a49fce14610082578063521b0dcc146100a0578063a1818ac4146100d0575b600080fd5b61008a610172565b6040516100979190610609565b60405180910390f35b6100ba60048036038101906100b5919061069d565b6101ca565b6040516100c791906106e5565b60405180910390f35b6100ea60048036038101906100e59190610885565b610220565b005b6100f46103dc565b6040516101019190610a39565b60405180910390f35b610124600480360381019061011f919061069d565b6103e6565b005b610140600480360381019061013b9190610a5b565b61049b565b60405161014d9190610aaa565b60405180910390f35b610170600480360381019061016b9190610ac5565b6104ab565b005b606060008054806020026020016040519081016040528092919081815260200182805480156101c057602002820191906000526020600020905b8154815260200190600101908083116101ac575b5050505050905090565b6000600160008373ffffffffffffffffffffffffffffffffffffffff1673ffffffffffffffffffffffffffffffffffffffff16815260200190815260200160002060009054906101000a900460ff169050919050565b600260009054906101000a900473ffffffffffffffffffffffffffffffffffffffff1673ffffffffffffffffffffffffffffffffffffffff163373ffffffffffffffffffffffffffffffffffffffff16146102b0576040517f08c379a00000000000000000000000000000000000000000000000000000000081526004016102a790610b75565b60405180910390fd5b60001515600160008673ffffffffffffffffffffffffffffffffffffffff1673ffffffffffffffffffffffffffffffffffffffff16815260200190815260200160002060009054906101000a900460ff16151514610343576040517f08c379a000000000000000000000000000000000000000000000000000000000815260040161033a90610be1565b60405180910390fd5b60038190806001815401808255809150506001900390600052602060002001600090919091909150908051906020019061037e9291906104d7565b5060018060008673ffffffffffffffffffffffffffffffffffffffff1673ffffffffffffffffffffffffffffffffffffffff16815260200190815260200160002060006101000a81548160ff02191690831515021790555050505050565b6060808091505090565b60001515600260149054906101000a900460ff1615151461043c576040517f08c379a000000000000000000000000000000000000000000000000000000000815260040161043390610c4d565b60405180910390fd5b80600260006101000a81548173ffffffffffffffffffffffffffffffffffffffff021916908373ffffffffffffffffffffffffffffffffffffffff1602179055506001600260146101000a81548160ff02191690831515021790555050565b6000600191506001905092915050565b600081908060018154018082558091505060019003906000526020600020016000909190919091505550565b828054828255906000526020600020908101928215610513579160200282015b828111156105125782518255916020019190600101906104f7565b5b5090506105209190610524565b5090565b5b8082111561053d576000816000905550600101610525565b5090565b600081519050919050565b600082825260208201905092915050565b6000819050602082019050919050565b6000819050919050565b6105808161056d565b82525050565b60006105928383610577565b60208301905092915050565b6000602082019050919050565b60006105b682610541565b6105c0818561054c565b93506105cb8361055d565b8060005b838110156105fc5781516105e38882610586565b97506105ee8361059e565b9250506001810190506105cf565b5085935050505092915050565b6000602082019050818103600083015261062381846105ab565b905092915050565b6000604051905090565b600080fd5b600080fd5b600073ffffffffffffffffffffffffffffffffffffffff82169050919050565b600061066a8261063f565b9050919050565b61067a8161065f565b811461068557600080fd5b50565b60008135905061069781610671565b92915050565b6000602082840312156106b3576106b2610635565b5b60006106c184828501610688565b91505092915050565b60008115159050919050565b6106df816106ca565b82525050565b60006020820190506106fa60008301846106d6565b92915050565b6107098161056d565b811461071457600080fd5b50565b60008135905061072681610700565b92915050565b600080fd5b6000601f19601f8301169050919050565b7f4e487b7100000000000000000000000000000000000000000000000000000000600052604160045260246000fd5b61077a82610731565b810181811067ffffffffffffffff8211171561079957610798610742565b5b80604052505050565b60006107ac61062b565b90506107b88282610771565b919050565b600067ffffffffffffffff8211156107d8576107d7610742565b5b602082029050602081019050919050565b600080fd5b60006108016107fc846107bd565b6107a2565b90508083825260208201905060208402830185811115610824576108236107e9565b5b835b8181101561084d57806108398882610717565b845260208401935050602081019050610826565b5050509392505050565b600082601f83011261086c5761086b61072c565b5b813561087c8482602086016107ee565b91505092915050565b6000806000806080858703121561089f5761089e610635565b5b60006108ad87828801610688565b94505060206108be87828801610717565b93505060406108cf87828801610717565b925050606085013567ffffffffffffffff8111156108f0576108ef61063a565b5b6108fc87828801610857565b91505092959194509250565b600081519050919050565b600082825260208201905092915050565b6000819050602082019050919050565b600082825260208201905092915050565b600061095082610541565b61095a8185610934565b93506109658361055d565b8060005b8381101561099657815161097d8882610586565b97506109888361059e565b925050600181019050610969565b5085935050505092915050565b60006109af8383610945565b905092915050565b6000602082019050919050565b60006109cf82610908565b6109d98185610913565b9350836020820285016109eb85610924565b8060005b85811015610a275784840389528151610a0885826109a3565b9450610a13836109b7565b925060208a019950506001810190506109ef565b50829750879550505050505092915050565b60006020820190508181036000830152610a5381846109c4565b905092915050565b60008060408385031215610a7257610a71610635565b5b6000610a8085828601610717565b9250506020610a9185828601610717565b9150509250929050565b610aa48161056d565b82525050565b6000602082019050610abf6000830184610a9b565b92915050565b600060208284031215610adb57610ada610635565b5b6000610ae984828501610717565b91505092915050565b600082825260208201905092915050565b7f4d7573742062652063616c6c65642066726f6d2074686520656c656374696f6e60008201527f206f7267616e697a657220636f6e747261637400000000000000000000000000602082015250565b6000610b5f603383610af2565b9150610b6a82610b03565b604082019050919050565b60006020820190508181036000830152610b8e81610b52565b9050919050565b7f566f74657220616c726561647920766f74656400000000000000000000000000600082015250565b6000610bcb601383610af2565b9150610bd682610b95565b602082019050919050565b60006020820190508181036000830152610bfa81610bbe565b9050919050565b7f416c726561647920496e697469616c697a656400000000000000000000000000600082015250565b6000610c37601383610af2565b9150610c4282610c01565b602082019050919050565b60006020820190508181036000830152610c6681610c2a565b905091905056fea264697066735822122078f2f4506a231c64deb1ce1dce6baa17b8845247e51bf3332e17a1b6e8a5c6f364736f6c634300080a0033608060405234801561001057600080fd5b50610f86806100206000396000f3fe608060405234801561001057600080fd5b506004361061007d5760003560e01c8063afa524081161005b578063afa52408146100ec578063c4d66de81461010a578063de2e19a014610126578063e844d097146101565761007d565b806306a49fce14610082578063521b0dcc146100a0578063a1818ac4146100d0575b600080fd5b61008a610172565b60405161009791906107ef565b60405180910390f35b6100ba60048036038101906100b59190610883565b6101ca565b6040516100c791906108cb565b60405180910390f35b6100ea60048036038101906100e59190610a6b565b610220565b005b6100f4610531565b6040516101019190610c1f565b60405180910390f35b610124600480360381019061011f9190610883565b6105d0565b005b610140600480360381019061013b9190610c41565b610685565b60405161014d9190610c90565b60405180910390f35b610170600480360381019061016b9190610cab565b610691565b005b606060008054806020026020016040519081016040528092919081815260200182805480156101c057602002820191906000526020600020905b8154815260200190600101908083116101ac575b5050505050905090565b6000600160008373ffffffffffffffffffffffffffffffffffffffff1673ffffffffffffffffffffffffffffffffffffffff16815260200190815260200160002060009054906101000a900460ff169050919050565b600260009054906101000a900473ffffffffffffffffffffffffffffffffffffffff1673ffffffffffffffffffffffffffffffffffffffff163373ffffffffffffffffffffffffffffffffffffffff16146102b0576040517f08c379a00000000000000000000000000000000000000000000000000000000081526004016102a790610d5b565b60405180910390fd5b60001515600160008673ffffffffffffffffffffffffffffffffffffffff1673ffffffffffffffffffffffffffffffffffffffff16815260200190815260200160002060009054906101000a900460ff16151514610343576040517f08c379a000000000000000000000000000000000000000000000000000000000815260040161033a90610dc7565b60405180910390fd5b600081519050600060038054905014156104015760005b818110156103ff5760008267ffffffffffffffff81111561037e5761037d610928565b5b6040519080825280602002602001820160405280156103ac5781602001602082028036833780820191505090505b5090506003819080600181540180825580915050600190039060005260206000200160009091909190915090805190602001906103ea9291906106bd565b505080806103f790610e16565b91505061035a565b505b60005b818110156104d257600060018261041b9190610e5f565b90505b828110156104be5784600385848151811061043c5761043b610eb5565b5b60200260200101518154811061045557610454610eb5565b5b9060005260206000200185838151811061047257610471610eb5565b5b60200260200101518154811061048b5761048a610eb5565b5b9060005260206000200160008282546104a49190610e5f565b9250508190555080806104b690610e16565b91505061041e565b5080806104ca90610e16565b915050610404565b5060018060008773ffffffffffffffffffffffffffffffffffffffff1673ffffffffffffffffffffffffffffffffffffffff16815260200190815260200160002060006101000a81548160ff0219169083151502179055505050505050565b60606003805480602002602001604051908101604052809291908181526020016000905b828210156105c7578382906000526020600020018054806020026020016040519081016040528092919081815260200182805480156105b357602002820191906000526020600020905b81548152602001906001019080831161059f575b505050505081526020019060010190610555565b50505050905090565b60001515600260149054906101000a900460ff16151514610626576040517f08c379a000000000000000000000000000000000000000000000000000000000815260040161061d90610f30565b60405180910390fd5b80600260006101000a81548173ffffffffffffffffffffffffffffffffffffffff021916908373ffffffffffffffffffffffffffffffffffffffff1602179055506001600260146101000a81548160ff02191690831515021790555050565b60006001905092915050565b600081908060018154018082558091505060019003906000526020600020016000909190919091505550565b8280548282559060005260206000209081019282156106f9579160200282015b828111156106f85782518255916020019190600101906106dd565b5b509050610706919061070a565b5090565b5b8082111561072357600081600090555060010161070b565b5090565b600081519050919050565b600082825260208201905092915050565b6000819050602082019050919050565b6000819050919050565b61076681610753565b82525050565b6000610778838361075d565b60208301905092915050565b6000602082019050919050565b600061079c82610727565b6107a68185610732565b93506107b183610743565b8060005b838110156107e25781516107c9888261076c565b97506107d483610784565b9250506001810190506107b5565b5085935050505092915050565b600060208201905081810360008301526108098184610791565b905092915050565b6000604051905090565b600080fd5b600080fd5b600073ffffffffffffffffffffffffffffffffffffffff82169050919050565b600061085082610825565b9050919050565b61086081610845565b811461086b57600080fd5b50565b60008135905061087d81610857565b92915050565b6000602082840312156108995761089861081b565b5b60006108a78482850161086e565b91505092915050565b60008115159050919050565b6108c5816108b0565b82525050565b60006020820190506108e060008301846108bc565b92915050565b6108ef81610753565b81146108fa57600080fd5b50565b60008135905061090c816108e6565b92915050565b600080fd5b6000601f19601f8301169050919050565b7f4e487b7100000000000000000000000000000000000000000000000000000000600052604160045260246000fd5b61096082610917565b810181811067ffffffffffffffff8211171561097f5761097e610928565b5b80604052505050565b6000610992610811565b905061099e8282610957565b919050565b600067ffffffffffffffff8211156109be576109bd610928565b5b602082029050602081019050919050565b600080fd5b60006109e76109e2846109a3565b610988565b90508083825260208201905060208402830185811115610a0a57610a096109cf565b5b835b81811015610a335780610a1f88826108fd565b845260208401935050602081019050610a0c565b5050509392505050565b600082601f830112610a5257610a51610912565b5b8135610a628482602086016109d4565b91505092915050565b60008060008060808587031215610a8557610a8461081b565b5b6000610a938782880161086e565b9450506020610aa4878288016108fd565b9350506040610ab5878288016108fd565b925050606085013567ffffffffffffffff811115610ad657610ad5610820565b5b610ae287828801610a3d565b91505092959194509250565b600081519050919050565b600082825260208201905092915050565b6000819050602082019050919050565b600082825260208201905092915050565b6000610b3682610727565b610b408185610b1a565b9350610b4b83610743565b8060005b83811015610b7c578151610b63888261076c565b9750610b6e83610784565b925050600181019050610b4f565b5085935050505092915050565b6000610b958383610b2b565b905092915050565b6000602082019050919050565b6000610bb582610aee565b610bbf8185610af9565b935083602082028501610bd185610b0a565b8060005b85811015610c0d5784840389528151610bee8582610b89565b9450610bf983610b9d565b925060208a01995050600181019050610bd5565b50829750879550505050505092915050565b60006020820190508181036000830152610c398184610baa565b905092915050565b60008060408385031215610c5857610c5761081b565b5b6000610c66858286016108fd565b9250506020610c77858286016108fd565b9150509250929050565b610c8a81610753565b82525050565b6000602082019050610ca56000830184610c81565b92915050565b600060208284031215610cc157610cc061081b565b5b6000610ccf848285016108fd565b91505092915050565b600082825260208201905092915050565b7f4d7573742062652063616c6c65642066726f6d2074686520656c656374696f6e60008201527f206f7267616e697a657220636f6e747261637400000000000000000000000000602082015250565b6000610d45603383610cd8565b9150610d5082610ce9565b604082019050919050565b60006020820190508181036000830152610d7481610d38565b9050919050565b7f566f74657220616c726561647920766f74656400000000000000000000000000600082015250565b6000610db1601383610cd8565b9150610dbc82610d7b565b602082019050919050565b60006020820190508181036000830152610de081610da4565b9050919050565b7f4e487b7100000000000000000000000000000000000000000000000000000000600052601160045260246000fd5b6000610e2182610753565b91507fffffffffffffffffffffffffffffffffffffffffffffffffffffffffffffffff821415610e5457610e53610de7565b5b600182019050919050565b6000610e6a82610753565b9150610e7583610753565b9250827fffffffffffffffffffffffffffffffffffffffffffffffffffffffffffffffff03821115610eaa57610ea9610de7565b5b828201905092915050565b7f4e487b7100000000000000000000000000000000000000000000000000000000600052603260045260246000fd5b7f416c726561647920496e697469616c697a656400000000000000000000000000600082015250565b6000610f1a601383610cd8565b9150610f2582610ee4565b602082019050919050565b60006020820190508181036000830152610f4981610f0d565b905091905056fea26469706673582212205fbf3b278577e74c11c86f309638cf717b58fc1b4fea0791d3ae94d82fa4debf64736f6c634300080a0033a264697066735822122083fbb20235cf8f353967d02f8066be42ee8c12d2bb7d3821a70669b53be06cb064736f6c634300080a0033",
  "linkReferences": {},
  "deployedLinkReferences": {}
}