{
  "_format": "hh-sol-artifact-1",
  "contractName": "ElectionStorage",
  "sourceName": "contracts/facets/votingApp/ElectionStorage.sol",
  "abi": [
    {
      "inputs": [
        {
          "internalType": "address",
          "name": "election",
          "type": "address"
        },
        {
          "internalType": "address",
          "name": "_organizer",
          "type": "address"
        }
      ],
      "name": "addElection",
      "outputs": [],
      "stateMutability": "nonpayable",
      "type": "function"
    },
    {
      "inputs": [
        {
          "internalType": "address",
          "name": "_addOrganizer",
          "type": "address"
        },
        {
          "internalType": "address",
          "name": "_election",
          "type": "address"
        }
      ],
      "name": "addOrganizerToInviteBasedElection",
      "outputs": [],
      "stateMutability": "nonpayable",
      "type": "function"
    },
    {
      "inputs": [
        {
          "internalType": "address",
          "name": "_election",
          "type": "address"
        }
      ],
      "name": "deleteElection",
      "outputs": [],
      "stateMutability": "nonpayable",
      "type": "function"
    },
    {
      "inputs": [],
      "name": "getElectionCount",
      "outputs": [
        {
          "internalType": "uint256",
          "name": "",
          "type": "uint256"
        }
      ],
      "stateMutability": "view",
      "type": "function"
    },
    {
      "inputs": [
        {
          "internalType": "address",
          "name": "_election",
          "type": "address"
        }
      ],
      "name": "getElectionOwner",
      "outputs": [
        {
          "internalType": "address",
          "name": "",
          "type": "address"
        }
      ],
      "stateMutability": "view",
      "type": "function"
    },
    {
      "inputs": [
        {
          "internalType": "address",
          "name": "_organizer",
          "type": "address"
        }
      ],
      "name": "getInviteBasedElections",
      "outputs": [
        {
          "internalType": "address[]",
          "name": "",
          "type": "address[]"
        }
      ],
      "stateMutability": "view",
      "type": "function"
    },
    {
      "inputs": [],
      "name": "getOpenBasedElections",
      "outputs": [
        {
          "internalType": "address[]",
          "name": "",
          "type": "address[]"
        }
      ],
      "stateMutability": "view",
      "type": "function"
    },
    {
      "inputs": [
        {
          "internalType": "address[]",
          "name": "_elections",
          "type": "address[]"
        },
        {
          "internalType": "address",
          "name": "_election",
          "type": "address"
        }
      ],
      "name": "removeElection",
      "outputs": [
        {
          "internalType": "address[]",
          "name": "",
          "type": "address[]"
        }
      ],
      "stateMutability": "pure",
      "type": "function"
    }
  ],
  "bytecode": "0x608060405234801561001057600080fd5b50611672806100206000396000f3fe608060405234801561001057600080fd5b50600436106100885760003560e01c80637d1659fa1161005b5780637d1659fa1461012957806387b4e8d314610145578063ca99067a14610161578063e5999c2b1461017d57610088565b8063213785a01461008d57806335b50828146100ab578063761db9fb146100db5780637a309b05146100f9575b600080fd5b6100956101ad565b6040516100a29190610cb2565b60405180910390f35b6100c560048036038101906100c09190610d3f565b6101b7565b6040516100d29190610d7b565b60405180910390f35b6100e3610220565b6040516100f09190610e54565b60405180910390f35b610113600480360381019061010e9190610fcf565b6102ae565b6040516101209190610e54565b60405180910390f35b610143600480360381019061013e919061102b565b6102b6565b005b61015f600480360381019061015a919061102b565b6104bf565b005b61017b60048036038101906101769190610d3f565b610787565b005b61019760048036038101906101929190610d3f565b610b25565b6040516101a49190610e54565b60405180910390f35b6000600554905090565b6000600460008373ffffffffffffffffffffffffffffffffffffffff1673ffffffffffffffffffffffffffffffffffffffff16815260200190815260200160002060009054906101000a900473ffffffffffffffffffffffffffffffffffffffff169050919050565b606060018054806020026020016040519081016040528092919081815260200182805480156102a457602002820191906000526020600020905b8160009054906101000a900473ffffffffffffffffffffffffffffffffffffffff1673ffffffffffffffffffffffffffffffffffffffff168152602001906001019080831161025a575b5050505050905090565b606092915050565b60001515600360008373ffffffffffffffffffffffffffffffffffffffff1673ffffffffffffffffffffffffffffffffffffffff16815260200190815260200160002060008473ffffffffffffffffffffffffffffffffffffffff1673ffffffffffffffffffffffffffffffffffffffff16815260200190815260200160002060009054906101000a900460ff16151514610386576040517f08c379a000000000000000000000000000000000000000000000000000000000815260040161037d906110ee565b60405180910390fd5b6001600360008373ffffffffffffffffffffffffffffffffffffffff1673ffffffffffffffffffffffffffffffffffffffff16815260200190815260200160002060008473ffffffffffffffffffffffffffffffffffffffff1673ffffffffffffffffffffffffffffffffffffffff16815260200190815260200160002060006101000a81548160ff021916908315150217905550600260008373ffffffffffffffffffffffffffffffffffffffff1673ffffffffffffffffffffffffffffffffffffffff168152602001908152602001600020819080600181540180825580915050600190039060005260206000200160009091909190916101000a81548173ffffffffffffffffffffffffffffffffffffffff021916908373ffffffffffffffffffffffffffffffffffffffff1602179055505050565b6000829050600560008154809291906104d79061113d565b919050555060008173ffffffffffffffffffffffffffffffffffffffff166386852dca6040518163ffffffff1660e01b8152600401600060405180830381865afa158015610529573d6000803e3d6000fd5b505050506040513d6000823e3d601f19601f8201168201806040525081019061055291906113a5565b60a0015190506001151581151514156105cd576001829080600181540180825580915050600190039060005260206000200160009091909190916101000a81548173ffffffffffffffffffffffffffffffffffffffff021916908373ffffffffffffffffffffffffffffffffffffffff160217905550610703565b600260008473ffffffffffffffffffffffffffffffffffffffff1673ffffffffffffffffffffffffffffffffffffffff168152602001908152602001600020829080600181540180825580915050600190039060005260206000200160009091909190916101000a81548173ffffffffffffffffffffffffffffffffffffffff021916908373ffffffffffffffffffffffffffffffffffffffff1602179055506001600360008673ffffffffffffffffffffffffffffffffffffffff1673ffffffffffffffffffffffffffffffffffffffff16815260200190815260200160002060008573ffffffffffffffffffffffffffffffffffffffff1673ffffffffffffffffffffffffffffffffffffffff16815260200190815260200160002060006101000a81548160ff0219169083151502179055505b82600460008673ffffffffffffffffffffffffffffffffffffffff1673ffffffffffffffffffffffffffffffffffffffff16815260200190815260200160002060006101000a81548173ffffffffffffffffffffffffffffffffffffffff021916908373ffffffffffffffffffffffffffffffffffffffff16021790555050505050565b3373ffffffffffffffffffffffffffffffffffffffff166107a7826101b7565b73ffffffffffffffffffffffffffffffffffffffff16146107fd576040517f08c379a00000000000000000000000000000000000000000000000000000000081526004016107f49061143a565b60405180910390fd5b6000819050600160028111156108165761081561145a565b5b8173ffffffffffffffffffffffffffffffffffffffff16634e69d5606040518163ffffffff1660e01b8152600401602060405180830381865afa158015610861573d6000803e3d6000fd5b505050506040513d601f19601f8201168201806040525081019061088591906114ae565b60028111156108975761089661145a565b5b146108d7576040517f08c379a00000000000000000000000000000000000000000000000000000000081526004016108ce9061154d565b60405180910390fd5b6000600180548060200260200160405190810160405280929190818152602001828054801561095b57602002820191906000526020600020905b8160009054906101000a900473ffffffffffffffffffffffffffffffffffffffff1673ffffffffffffffffffffffffffffffffffffffff1681526020019060010190808311610911575b505050505090506000815190506000600182610977919061156d565b67ffffffffffffffff8111156109905761098f610e8c565b5b6040519080825280602002602001820160405280156109be5781602001602082028036833780820191505090505b50905060008060008091505b84821015610ac4578773ffffffffffffffffffffffffffffffffffffffff168683815181106109fc576109fb6115a1565b5b602002602001015173ffffffffffffffffffffffffffffffffffffffff1614610a9a57858281518110610a3257610a316115a1565b5b6020026020010151848481518110610a4d57610a4c6115a1565b5b602002602001019073ffffffffffffffffffffffffffffffffffffffff16908173ffffffffffffffffffffffffffffffffffffffff16815250508280610a929061113d565b935050610ab1565b600015158115151415610ab05760009750600190505b5b8180610abc9061113d565b9250506109ca565b80610b04576040517f08c379a0000000000000000000000000000000000000000000000000000000008152600401610afb9061161c565b60405180910390fd5b8360019080519060200190610b1a929190610bf2565b505050505050505050565b6060600260008373ffffffffffffffffffffffffffffffffffffffff1673ffffffffffffffffffffffffffffffffffffffff168152602001908152602001600020805480602002602001604051908101604052809291908181526020018280548015610be657602002820191906000526020600020905b8160009054906101000a900473ffffffffffffffffffffffffffffffffffffffff1673ffffffffffffffffffffffffffffffffffffffff1681526020019060010190808311610b9c575b50505050509050919050565b828054828255906000526020600020908101928215610c6b579160200282015b82811115610c6a5782518260006101000a81548173ffffffffffffffffffffffffffffffffffffffff021916908373ffffffffffffffffffffffffffffffffffffffff16021790555091602001919060010190610c12565b5b509050610c789190610c7c565b5090565b5b80821115610c95576000816000905550600101610c7d565b5090565b6000819050919050565b610cac81610c99565b82525050565b6000602082019050610cc76000830184610ca3565b92915050565b6000604051905090565b600080fd5b600080fd5b600073ffffffffffffffffffffffffffffffffffffffff82169050919050565b6000610d0c82610ce1565b9050919050565b610d1c81610d01565b8114610d2757600080fd5b50565b600081359050610d3981610d13565b92915050565b600060208284031215610d5557610d54610cd7565b5b6000610d6384828501610d2a565b91505092915050565b610d7581610d01565b82525050565b6000602082019050610d906000830184610d6c565b92915050565b600081519050919050565b600082825260208201905092915050565b6000819050602082019050919050565b610dcb81610d01565b82525050565b6000610ddd8383610dc2565b60208301905092915050565b6000602082019050919050565b6000610e0182610d96565b610e0b8185610da1565b9350610e1683610db2565b8060005b83811015610e47578151610e2e8882610dd1565b9750610e3983610de9565b925050600181019050610e1a565b5085935050505092915050565b60006020820190508181036000830152610e6e8184610df6565b905092915050565b600080fd5b6000601f19601f8301169050919050565b7f4e487b7100000000000000000000000000000000000000000000000000000000600052604160045260246000fd5b610ec482610e7b565b810181811067ffffffffffffffff82111715610ee357610ee2610e8c565b5b80604052505050565b6000610ef6610ccd565b9050610f028282610ebb565b919050565b600067ffffffffffffffff821115610f2257610f21610e8c565b5b602082029050602081019050919050565b600080fd5b6000610f4b610f4684610f07565b610eec565b90508083825260208201905060208402830185811115610f6e57610f6d610f33565b5b835b81811015610f975780610f838882610d2a565b845260208401935050602081019050610f70565b5050509392505050565b600082601f830112610fb657610fb5610e76565b5b8135610fc6848260208601610f38565b91505092915050565b60008060408385031215610fe657610fe5610cd7565b5b600083013567ffffffffffffffff81111561100457611003610cdc565b5b61101085828601610fa1565b925050602061102185828601610d2a565b9150509250929050565b6000806040838503121561104257611041610cd7565b5b600061105085828601610d2a565b925050602061106185828601610d2a565b9150509250929050565b600082825260208201905092915050565b7f4f7267616e697a657220616c726561647920616464656420746f20746869732060008201527f656c656374696f6e000000000000000000000000000000000000000000000000602082015250565b60006110d860288361106b565b91506110e38261107c565b604082019050919050565b60006020820190508181036000830152611107816110cb565b9050919050565b7f4e487b7100000000000000000000000000000000000000000000000000000000600052601160045260246000fd5b600061114882610c99565b91507fffffffffffffffffffffffffffffffffffffffffffffffffffffffffffffffff82141561117b5761117a61110e565b5b600182019050919050565b600080fd5b600080fd5b61119981610c99565b81146111a457600080fd5b50565b6000815190506111b681611190565b92915050565b600080fd5b600067ffffffffffffffff8211156111dc576111db610e8c565b5b6111e582610e7b565b9050602081019050919050565b60005b838110156112105780820151818401526020810190506111f5565b8381111561121f576000848401525b50505050565b6000611238611233846111c1565b610eec565b905082815260208101848484011115611254576112536111bc565b5b61125f8482856111f2565b509392505050565b600082601f83011261127c5761127b610e76565b5b815161128c848260208601611225565b91505092915050565b60008115159050919050565b6112aa81611295565b81146112b557600080fd5b50565b6000815190506112c7816112a1565b92915050565b600060c082840312156112e3576112e2611186565b5b6112ed60c0610eec565b905060006112fd848285016111a7565b600083015250602082015167ffffffffffffffff8111156113215761132061118b565b5b61132d84828501611267565b602083015250604082015167ffffffffffffffff8111156113515761135061118b565b5b61135d84828501611267565b6040830152506060611371848285016111a7565b6060830152506080611385848285016111a7565b60808301525060a0611399848285016112b8565b60a08301525092915050565b6000602082840312156113bb576113ba610cd7565b5b600082015167ffffffffffffffff8111156113d9576113d8610cdc565b5b6113e5848285016112cd565b91505092915050565b7f4f6e6c79204f776e65722043616e2044656c65746520456c656374696f6e0000600082015250565b6000611424601e8361106b565b915061142f826113ee565b602082019050919050565b6000602082019050818103600083015261145381611417565b9050919050565b7f4e487b7100000000000000000000000000000000000000000000000000000000600052602160045260246000fd5b6003811061149657600080fd5b50565b6000815190506114a881611489565b92915050565b6000602082840312156114c4576114c3610cd7565b5b60006114d284828501611499565b91505092915050565b7f43616e6e6f742064656c65746520656c656374696f6e20616674657220656c6560008201527f6374696f6e206861732073746172746564000000000000000000000000000000602082015250565b600061153760318361106b565b9150611542826114db565b604082019050919050565b600060208201905081810360008301526115668161152a565b9050919050565b600061157882610c99565b915061158383610c99565b9250828210156115965761159561110e565b5b828203905092915050565b7f4e487b7100000000000000000000000000000000000000000000000000000000600052603260045260246000fd5b7f456c656374696f6e206e6f7420666f756e640000000000000000000000000000600082015250565b600061160660128361106b565b9150611611826115d0565b602082019050919050565b60006020820190508181036000830152611635816115f9565b905091905056fea264697066735822122043c5f83a3bafff04c8998c93cf4355cdb76e01e8624f1426fd77910a4d6827ff64736f6c634300080a0033",
  "linkReferences": {},
  "deployedLinkReferences": {}
}