{
  "_format": "hh-sol-artifact-1",
  "contractName": "ElectionOrganizer",
  "sourceName": "contracts/facets/ElectionOrganizer.sol",
  "abi": [
    {
      "anonymous": false,
      "inputs": [
        {
          "indexed": false,
          "internalType": "address",
          "name": "election",
          "type": "address"
        },
        {
          "components": [
            {
              "internalType": "uint256",
              "name": "candidateID",
              "type": "uint256"
            },
            {
              "internalType": "string",
              "name": "name",
              "type": "string"
            },
            {
              "internalType": "string",
              "name": "description",
              "type": "string"
            }
          ],
          "indexed": false,
          "internalType": "struct Election.Candidate",
          "name": "candidate",
          "type": "tuple"
        }
      ],
      "name": "CandidateAdded",
      "type": "event"
    },
    {
      "anonymous": false,
      "inputs": [
        {
          "indexed": false,
          "internalType": "address",
          "name": "election",
          "type": "address"
        }
      ],
      "name": "CreatedElection",
      "type": "event"
    },
    {
      "inputs": [
        {
          "internalType": "contract Election",
          "name": "_election",
          "type": "address"
        },
        {
          "components": [
            {
              "internalType": "uint256",
              "name": "candidateID",
              "type": "uint256"
            },
            {
              "internalType": "string",
              "name": "name",
              "type": "string"
            },
            {
              "internalType": "string",
              "name": "description",
              "type": "string"
            }
          ],
          "internalType": "struct Election.Candidate",
          "name": "_candidate",
          "type": "tuple"
        }
      ],
      "name": "addCandidate",
      "outputs": [],
      "stateMutability": "nonpayable",
      "type": "function"
    },
    {
      "inputs": [
        {
          "components": [
            {
              "internalType": "uint256",
              "name": "organizerID",
              "type": "uint256"
            },
            {
              "internalType": "string",
              "name": "name",
              "type": "string"
            },
            {
              "internalType": "address",
              "name": "publicAddress",
              "type": "address"
            }
          ],
          "internalType": "struct ElectionOrganizer.OrganizerInfo",
          "name": "_organizerInfo",
          "type": "tuple"
        }
      ],
      "name": "addElectionOrganizer",
      "outputs": [],
      "stateMutability": "nonpayable",
      "type": "function"
    },
    {
      "inputs": [
        {
          "internalType": "address",
          "name": "_organizerPublicAddress",
          "type": "address"
        },
        {
          "internalType": "address",
          "name": "_election",
          "type": "address"
        }
      ],
      "name": "addOrganizerToInviteBasedElection",
      "outputs": [],
      "stateMutability": "nonpayable",
      "type": "function"
    },
    {
      "inputs": [
        {
          "components": [
            {
              "internalType": "uint256",
              "name": "electionID",
              "type": "uint256"
            },
            {
              "internalType": "string",
              "name": "name",
              "type": "string"
            },
            {
              "internalType": "string",
              "name": "description",
              "type": "string"
            },
            {
              "internalType": "uint256",
              "name": "startDate",
              "type": "uint256"
            },
            {
              "internalType": "uint256",
              "name": "endDate",
              "type": "uint256"
            },
            {
              "internalType": "bool",
              "name": "electionType",
              "type": "bool"
            }
          ],
          "internalType": "struct Election.ElectionInfo",
          "name": "_electionInfo",
          "type": "tuple"
        },
        {
          "internalType": "uint256",
          "name": "_ballotType",
          "type": "uint256"
        },
        {
          "internalType": "uint256",
          "name": "_resultCalculatorType",
          "type": "uint256"
        }
      ],
      "name": "createElection",
      "outputs": [],
      "stateMutability": "nonpayable",
      "type": "function"
    },
    {
      "inputs": [],
      "name": "electionOrganizerInit",
      "outputs": [],
      "stateMutability": "nonpayable",
      "type": "function"
    },
    {
      "inputs": [],
      "name": "getElectionFactory",
      "outputs": [
        {
          "internalType": "address",
          "name": "",
          "type": "address"
        }
      ],
      "stateMutability": "view",
      "type": "function"
    },
    {
      "inputs": [
        {
          "internalType": "address",
          "name": "_address",
          "type": "address"
        }
      ],
      "name": "getElectionOrganizerByAddress",
      "outputs": [
        {
          "components": [
            {
              "internalType": "uint256",
              "name": "organizerID",
              "type": "uint256"
            },
            {
              "internalType": "string",
              "name": "name",
              "type": "string"
            },
            {
              "internalType": "address",
              "name": "publicAddress",
              "type": "address"
            }
          ],
          "internalType": "struct ElectionOrganizer.OrganizerInfo",
          "name": "",
          "type": "tuple"
        }
      ],
      "stateMutability": "view",
      "type": "function"
    },
    {
      "inputs": [
        {
          "internalType": "uint256",
          "name": "_organizerID",
          "type": "uint256"
        }
      ],
      "name": "getElectionOrganizerByID",
      "outputs": [
        {
          "components": [
            {
              "internalType": "uint256",
              "name": "organizerID",
              "type": "uint256"
            },
            {
              "internalType": "string",
              "name": "name",
              "type": "string"
            },
            {
              "internalType": "address",
              "name": "publicAddress",
              "type": "address"
            }
          ],
          "internalType": "struct ElectionOrganizer.OrganizerInfo",
          "name": "",
          "type": "tuple"
        }
      ],
      "stateMutability": "view",
      "type": "function"
    },
    {
      "inputs": [],
      "name": "getElectionOrganizers",
      "outputs": [
        {
          "components": [
            {
              "internalType": "uint256",
              "name": "organizerID",
              "type": "uint256"
            },
            {
              "internalType": "string",
              "name": "name",
              "type": "string"
            },
            {
              "internalType": "address",
              "name": "publicAddress",
              "type": "address"
            }
          ],
          "internalType": "struct ElectionOrganizer.OrganizerInfo[]",
          "name": "",
          "type": "tuple[]"
        }
      ],
      "stateMutability": "view",
      "type": "function"
    },
    {
      "inputs": [],
      "name": "getElectionStorage",
      "outputs": [
        {
          "internalType": "address",
          "name": "",
          "type": "address"
        }
      ],
      "stateMutability": "view",
      "type": "function"
    },
    {
      "inputs": [
        {
          "internalType": "address",
          "name": "_organizer",
          "type": "address"
        }
      ],
      "name": "getInviteBasedElections",
      "outputs": [
        {
          "internalType": "address[]",
          "name": "",
          "type": "address[]"
        }
      ],
      "stateMutability": "view",
      "type": "function"
    },
    {
      "inputs": [],
      "name": "getOpenBasedElections",
      "outputs": [
        {
          "internalType": "address[]",
          "name": "",
          "type": "address[]"
        }
      ],
      "stateMutability": "view",
      "type": "function"
    },
    {
      "inputs": [
        {
          "internalType": "contract Election",
          "name": "_election",
          "type": "address"
        }
      ],
      "name": "getResult",
      "outputs": [
        {
          "internalType": "uint256[]",
          "name": "",
          "type": "uint256[]"
        }
      ],
      "stateMutability": "nonpayable",
      "type": "function"
    },
    {
      "inputs": [
        {
          "internalType": "contract Election",
          "name": "_election",
          "type": "address"
        },
        {
          "internalType": "string",
          "name": "_name",
          "type": "string"
        },
        {
          "internalType": "string",
          "name": "_description",
          "type": "string"
        },
        {
          "internalType": "uint256",
          "name": "index",
          "type": "uint256"
        }
      ],
      "name": "updateCandidateInfo",
      "outputs": [],
      "stateMutability": "nonpayable",
      "type": "function"
    }
  ],
  "bytecode": "0x6080604052606460035534801561001557600080fd5b506131f6806100256000396000f3fe608060405234801561001057600080fd5b50600436106100ea5760003560e01c806379db9ffe1161008c578063936a116711610066578063936a116714610223578063a8c019871461023f578063a95bc6351461025d578063e5999c2b1461028d576100ea565b806379db9ffe146101bb5780637d1659fa146101eb57806388e96eb614610207576100ea565b8063326e0d28116100c8578063326e0d281461013357806332fb68cd1461014f578063446a37e01461016d578063761db9fb1461019d576100ea565b80630249ff4d146100ef57806315d4ffa01461010d5780631d43d8ed14610129575b600080fd5b6100f76102bd565b604051610104919061133b565b60405180910390f35b6101276004803603810190610122919061159c565b6102e7565b005b610131610556565b005b61014d600480360381019061014891906116bf565b6105c1565b005b610157610747565b604051610164919061133b565b60405180910390f35b6101876004803603810190610182919061171b565b61077a565b6040516101949190611806565b60405180910390f35b6101a56107f9565b6040516101b291906118e6565b60405180910390f35b6101d560048036038101906101d09190611908565b610896565b6040516101e29190611a0d565b60405180910390f35b61020560048036038101906102009190611a2f565b6109b5565b005b610221600480360381019061021c9190611b7f565b610a48565b005b61023d60048036038101906102389190611bee565b610d20565b005b610247610e73565b6040516102549190611d9f565b60405180910390f35b61027760048036038101906102729190611dc1565b610fc4565b6040516102849190611a0d565b60405180910390f35b6102a760048036038101906102a29190611dc1565b61110f565b6040516102b491906118e6565b60405180910390f35b6000600560009054906101000a900473ffffffffffffffffffffffffffffffffffffffff16905090565b600060016003546102f89190611e1d565b9050808260000181815250506000829080600181540180825580915050600190039060005260206000209060030201600090919091909150600082015181600001556020820151816001019080519060200190610356929190611213565b5060408201518160020160006101000a81548173ffffffffffffffffffffffffffffffffffffffff021916908373ffffffffffffffffffffffffffffffffffffffff16021790555050508160016000846040015173ffffffffffffffffffffffffffffffffffffffff1673ffffffffffffffffffffffffffffffffffffffff16815260200190815260200160002060008201518160000155602082015181600101908051906020019061040a929190611213565b5060408201518160020160006101000a81548173ffffffffffffffffffffffffffffffffffffffff021916908373ffffffffffffffffffffffffffffffffffffffff160217905550905050816002600084600001518152602001908152602001600020600082015181600001556020820151816001019080519060200190610493929190611213565b5060408201518160020160006101000a81548173ffffffffffffffffffffffffffffffffffffffff021916908373ffffffffffffffffffffffffffffffffffffffff160217905550905050600160046000846040015173ffffffffffffffffffffffffffffffffffffffff1673ffffffffffffffffffffffffffffffffffffffff16815260200190815260200160002060006101000a81548160ff0219169083151502179055506003600081548092919061054d90611e73565b91905055505050565b60405161056290611299565b604051809103906000f08015801561057e573d6000803e3d6000fd5b50600560006101000a81548173ffffffffffffffffffffffffffffffffffffffff021916908373ffffffffffffffffffffffffffffffffffffffff160217905550565b8173ffffffffffffffffffffffffffffffffffffffff1663e04b1c0c6040518163ffffffff1660e01b8152600401602060405180830381865afa15801561060c573d6000803e3d6000fd5b505050506040513d601f19601f820116820180604052508101906106309190611ed1565b8073ffffffffffffffffffffffffffffffffffffffff163373ffffffffffffffffffffffffffffffffffffffff161461069e576040517f08c379a000000000000000000000000000000000000000000000000000000000815260040161069590611f81565b60405180910390fd5b8273ffffffffffffffffffffffffffffffffffffffff1663273ffe86836040518263ffffffff1660e01b81526004016106d79190611ff8565b600060405180830381600087803b1580156106f157600080fd5b505af1158015610705573d6000803e3d6000fd5b505050507fd0c201c1465de1cf8804d8aa806f3674abe49346aa6a18624a868dfa14108921838360405161073a92919061201a565b60405180910390a1505050565b60006107516111b9565b60000160009054906101000a900473ffffffffffffffffffffffffffffffffffffffff16905090565b60608173ffffffffffffffffffffffffffffffffffffffff1663de2927896040518163ffffffff1660e01b81526004016000604051808303816000875af11580156107c9573d6000803e3d6000fd5b505050506040513d6000823e3d601f19601f820116820180604052508101906107f29190612127565b9050919050565b6060600560009054906101000a900473ffffffffffffffffffffffffffffffffffffffff1673ffffffffffffffffffffffffffffffffffffffff1663761db9fb6040518163ffffffff1660e01b8152600401600060405180830381865afa158015610868573d6000803e3d6000fd5b505050506040513d6000823e3d601f19601f820116820180604052508101906108919190612233565b905090565b61089e6112a6565b60026000838152602001908152602001600020604051806060016040529081600082015481526020016001820180546108d6906122ab565b80601f0160208091040260200160405190810160405280929190818152602001828054610902906122ab565b801561094f5780601f106109245761010080835404028352916020019161094f565b820191906000526020600020905b81548152906001019060200180831161093257829003601f168201915b505050505081526020016002820160009054906101000a900473ffffffffffffffffffffffffffffffffffffffff1673ffffffffffffffffffffffffffffffffffffffff1673ffffffffffffffffffffffffffffffffffffffff16815250509050919050565b600560009054906101000a900473ffffffffffffffffffffffffffffffffffffffff1673ffffffffffffffffffffffffffffffffffffffff16637d1659fa83836040518363ffffffff1660e01b8152600401610a129291906122dd565b600060405180830381600087803b158015610a2c57600080fd5b505af1158015610a40573d6000803e3d6000fd5b505050505050565b600460003373ffffffffffffffffffffffffffffffffffffffff1673ffffffffffffffffffffffffffffffffffffffff16815260200190815260200160002060009054906101000a900460ff16610ad4576040517f08c379a0000000000000000000000000000000000000000000000000000000008152600401610acb90612378565b60405180910390fd5b6000610ade6111b9565b60000160009054906101000a900473ffffffffffffffffffffffffffffffffffffffff16905060006001600560009054906101000a900473ffffffffffffffffffffffffffffffffffffffff1673ffffffffffffffffffffffffffffffffffffffff1663213785a06040518163ffffffff1660e01b8152600401602060405180830381865afa158015610b75573d6000803e3d6000fd5b505050506040513d601f19601f82011682018060405250810190610b999190612398565b610ba39190611e1d565b9050808560000181815250508173ffffffffffffffffffffffffffffffffffffffff16639dc9faf286868633306040518663ffffffff1660e01b8152600401610bf0959493929190612473565b600060405180830381600087803b158015610c0a57600080fd5b505af1158015610c1e573d6000803e3d6000fd5b505050506000610c2c6111e6565b60020160009054906101000a900473ffffffffffffffffffffffffffffffffffffffff169050600560009054906101000a900473ffffffffffffffffffffffffffffffffffffffff1673ffffffffffffffffffffffffffffffffffffffff166387b4e8d382336040518363ffffffff1660e01b8152600401610caf9291906122dd565b600060405180830381600087803b158015610cc957600080fd5b505af1158015610cdd573d6000803e3d6000fd5b505050507f49fdfe60e25ebf09e8f8c20a8a10c828d9b82cecf7b04e1ecb59ae51f79f827781604051610d10919061133b565b60405180910390a1505050505050565b8373ffffffffffffffffffffffffffffffffffffffff1663e04b1c0c6040518163ffffffff1660e01b8152600401602060405180830381865afa158015610d6b573d6000803e3d6000fd5b505050506040513d601f19601f82011682018060405250810190610d8f9190611ed1565b8073ffffffffffffffffffffffffffffffffffffffff163373ffffffffffffffffffffffffffffffffffffffff1614610dfd576040517f08c379a0000000000000000000000000000000000000000000000000000000008152600401610df490611f81565b60405180910390fd5b8473ffffffffffffffffffffffffffffffffffffffff166324fd983c8585856040518463ffffffff1660e01b8152600401610e3a93929190612506565b600060405180830381600087803b158015610e5457600080fd5b505af1158015610e68573d6000803e3d6000fd5b505050505050505050565b60606000805480602002602001604051908101604052809291908181526020016000905b82821015610fbb578382906000526020600020906003020160405180606001604052908160008201548152602001600182018054610ed4906122ab565b80601f0160208091040260200160405190810160405280929190818152602001828054610f00906122ab565b8015610f4d5780601f10610f2257610100808354040283529160200191610f4d565b820191906000526020600020905b815481529060010190602001808311610f3057829003601f168201915b505050505081526020016002820160009054906101000a900473ffffffffffffffffffffffffffffffffffffffff1673ffffffffffffffffffffffffffffffffffffffff1673ffffffffffffffffffffffffffffffffffffffff168152505081526020019060010190610e97565b50505050905090565b610fcc6112a6565b600160008373ffffffffffffffffffffffffffffffffffffffff1673ffffffffffffffffffffffffffffffffffffffff16815260200190815260200160002060405180606001604052908160008201548152602001600182018054611030906122ab565b80601f016020809104026020016040519081016040528092919081815260200182805461105c906122ab565b80156110a95780601f1061107e576101008083540402835291602001916110a9565b820191906000526020600020905b81548152906001019060200180831161108c57829003601f168201915b505050505081526020016002820160009054906101000a900473ffffffffffffffffffffffffffffffffffffffff1673ffffffffffffffffffffffffffffffffffffffff1673ffffffffffffffffffffffffffffffffffffffff16815250509050919050565b6060600560009054906101000a900473ffffffffffffffffffffffffffffffffffffffff1673ffffffffffffffffffffffffffffffffffffffff1663e5999c2b836040518263ffffffff1660e01b815260040161116c919061133b565b600060405180830381865afa158015611189573d6000803e3d6000fd5b505050506040513d6000823e3d601f19601f820116820180604052508101906111b29190612233565b9050919050565b6000807fc20038518297e76c0e27a913ab03e5d4fd92b2579d428cf3b89f8c71add2acef90508091505090565b6000807f5b43f313088137496832405d64cc708765db93c8144d82f7a7f806ac22d5603b90508091505090565b82805461121f906122ab565b90600052602060002090601f0160209004810192826112415760008555611288565b82601f1061125a57805160ff1916838001178555611288565b82800160010185558215611288579182015b8281111561128757825182559160200191906001019061126c565b5b50905061129591906112dd565b5090565b610c758061254c83390190565b60405180606001604052806000815260200160608152602001600073ffffffffffffffffffffffffffffffffffffffff1681525090565b5b808211156112f65760008160009055506001016112de565b5090565b600073ffffffffffffffffffffffffffffffffffffffff82169050919050565b6000611325826112fa565b9050919050565b6113358161131a565b82525050565b6000602082019050611350600083018461132c565b92915050565b6000604051905090565b600080fd5b600080fd5b600080fd5b6000601f19601f8301169050919050565b7f4e487b7100000000000000000000000000000000000000000000000000000000600052604160045260246000fd5b6113b88261136f565b810181811067ffffffffffffffff821117156113d7576113d6611380565b5b80604052505050565b60006113ea611356565b90506113f682826113af565b919050565b600080fd5b6000819050919050565b61141381611400565b811461141e57600080fd5b50565b6000813590506114308161140a565b92915050565b600080fd5b600080fd5b600067ffffffffffffffff82111561145b5761145a611380565b5b6114648261136f565b9050602081019050919050565b82818337600083830152505050565b600061149361148e84611440565b6113e0565b9050828152602081018484840111156114af576114ae61143b565b5b6114ba848285611471565b509392505050565b600082601f8301126114d7576114d6611436565b5b81356114e7848260208601611480565b91505092915050565b6114f98161131a565b811461150457600080fd5b50565b600081359050611516816114f0565b92915050565b6000606082840312156115325761153161136a565b5b61153c60606113e0565b9050600061154c84828501611421565b600083015250602082013567ffffffffffffffff8111156115705761156f6113fb565b5b61157c848285016114c2565b602083015250604061159084828501611507565b60408301525092915050565b6000602082840312156115b2576115b1611360565b5b600082013567ffffffffffffffff8111156115d0576115cf611365565b5b6115dc8482850161151c565b91505092915050565b60006115f08261131a565b9050919050565b611600816115e5565b811461160b57600080fd5b50565b60008135905061161d816115f7565b92915050565b6000606082840312156116395761163861136a565b5b61164360606113e0565b9050600061165384828501611421565b600083015250602082013567ffffffffffffffff811115611677576116766113fb565b5b611683848285016114c2565b602083015250604082013567ffffffffffffffff8111156116a7576116a66113fb565b5b6116b3848285016114c2565b60408301525092915050565b600080604083850312156116d6576116d5611360565b5b60006116e48582860161160e565b925050602083013567ffffffffffffffff81111561170557611704611365565b5b61171185828601611623565b9150509250929050565b60006020828403121561173157611730611360565b5b600061173f8482850161160e565b91505092915050565b600081519050919050565b600082825260208201905092915050565b6000819050602082019050919050565b61177d81611400565b82525050565b600061178f8383611774565b60208301905092915050565b6000602082019050919050565b60006117b382611748565b6117bd8185611753565b93506117c883611764565b8060005b838110156117f95781516117e08882611783565b97506117eb8361179b565b9250506001810190506117cc565b5085935050505092915050565b6000602082019050818103600083015261182081846117a8565b905092915050565b600081519050919050565b600082825260208201905092915050565b6000819050602082019050919050565b61185d8161131a565b82525050565b600061186f8383611854565b60208301905092915050565b6000602082019050919050565b600061189382611828565b61189d8185611833565b93506118a883611844565b8060005b838110156118d95781516118c08882611863565b97506118cb8361187b565b9250506001810190506118ac565b5085935050505092915050565b600060208201905081810360008301526119008184611888565b905092915050565b60006020828403121561191e5761191d611360565b5b600061192c84828501611421565b91505092915050565b600081519050919050565b600082825260208201905092915050565b60005b8381101561196f578082015181840152602081019050611954565b8381111561197e576000848401525b50505050565b600061198f82611935565b6119998185611940565b93506119a9818560208601611951565b6119b28161136f565b840191505092915050565b60006060830160008301516119d56000860182611774565b50602083015184820360208601526119ed8282611984565b9150506040830151611a026040860182611854565b508091505092915050565b60006020820190508181036000830152611a2781846119bd565b905092915050565b60008060408385031215611a4657611a45611360565b5b6000611a5485828601611507565b9250506020611a6585828601611507565b9150509250929050565b60008115159050919050565b611a8481611a6f565b8114611a8f57600080fd5b50565b600081359050611aa181611a7b565b92915050565b600060c08284031215611abd57611abc61136a565b5b611ac760c06113e0565b90506000611ad784828501611421565b600083015250602082013567ffffffffffffffff811115611afb57611afa6113fb565b5b611b07848285016114c2565b602083015250604082013567ffffffffffffffff811115611b2b57611b2a6113fb565b5b611b37848285016114c2565b6040830152506060611b4b84828501611421565b6060830152506080611b5f84828501611421565b60808301525060a0611b7384828501611a92565b60a08301525092915050565b600080600060608486031215611b9857611b97611360565b5b600084013567ffffffffffffffff811115611bb657611bb5611365565b5b611bc286828701611aa7565b9350506020611bd386828701611421565b9250506040611be486828701611421565b9150509250925092565b60008060008060808587031215611c0857611c07611360565b5b6000611c168782880161160e565b945050602085013567ffffffffffffffff811115611c3757611c36611365565b5b611c43878288016114c2565b935050604085013567ffffffffffffffff811115611c6457611c63611365565b5b611c70878288016114c2565b9250506060611c8187828801611421565b91505092959194509250565b600081519050919050565b600082825260208201905092915050565b6000819050602082019050919050565b6000606083016000830151611cd16000860182611774565b5060208301518482036020860152611ce98282611984565b9150506040830151611cfe6040860182611854565b508091505092915050565b6000611d158383611cb9565b905092915050565b6000602082019050919050565b6000611d3582611c8d565b611d3f8185611c98565b935083602082028501611d5185611ca9565b8060005b85811015611d8d5784840389528151611d6e8582611d09565b9450611d7983611d1d565b925060208a01995050600181019050611d55565b50829750879550505050505092915050565b60006020820190508181036000830152611db98184611d2a565b905092915050565b600060208284031215611dd757611dd6611360565b5b6000611de584828501611507565b91505092915050565b7f4e487b7100000000000000000000000000000000000000000000000000000000600052601160045260246000fd5b6000611e2882611400565b9150611e3383611400565b9250827fffffffffffffffffffffffffffffffffffffffffffffffffffffffffffffffff03821115611e6857611e67611dee565b5b828201905092915050565b6000611e7e82611400565b91507fffffffffffffffffffffffffffffffffffffffffffffffffffffffffffffffff821415611eb157611eb0611dee565b5b600182019050919050565b600081519050611ecb816114f0565b92915050565b600060208284031215611ee757611ee6611360565b5b6000611ef584828501611ebc565b91505092915050565b600082825260208201905092915050565b7f4f6e6c792061636365737369626c652062792074686520636f72726573706f6e60008201527f64696e6720656c656374696f6e206f7267616e697a6572000000000000000000602082015250565b6000611f6b603783611efe565b9150611f7682611f0f565b604082019050919050565b60006020820190508181036000830152611f9a81611f5e565b9050919050565b6000606083016000830151611fb96000860182611774565b5060208301518482036020860152611fd18282611984565b91505060408301518482036040860152611feb8282611984565b9150508091505092915050565b600060208201905081810360008301526120128184611fa1565b905092915050565b600060408201905061202f600083018561132c565b81810360208301526120418184611fa1565b90509392505050565b600067ffffffffffffffff82111561206557612064611380565b5b602082029050602081019050919050565b600080fd5b60008151905061208a8161140a565b92915050565b60006120a361209e8461204a565b6113e0565b905080838252602082019050602084028301858111156120c6576120c5612076565b5b835b818110156120ef57806120db888261207b565b8452602084019350506020810190506120c8565b5050509392505050565b600082601f83011261210e5761210d611436565b5b815161211e848260208601612090565b91505092915050565b60006020828403121561213d5761213c611360565b5b600082015167ffffffffffffffff81111561215b5761215a611365565b5b612167848285016120f9565b91505092915050565b600067ffffffffffffffff82111561218b5761218a611380565b5b602082029050602081019050919050565b60006121af6121aa84612170565b6113e0565b905080838252602082019050602084028301858111156121d2576121d1612076565b5b835b818110156121fb57806121e78882611ebc565b8452602084019350506020810190506121d4565b5050509392505050565b600082601f83011261221a57612219611436565b5b815161222a84826020860161219c565b91505092915050565b60006020828403121561224957612248611360565b5b600082015167ffffffffffffffff81111561226757612266611365565b5b61227384828501612205565b91505092915050565b7f4e487b7100000000000000000000000000000000000000000000000000000000600052602260045260246000fd5b600060028204905060018216806122c357607f821691505b602082108114156122d7576122d661227c565b5b50919050565b60006040820190506122f2600083018561132c565b6122ff602083018461132c565b9392505050565b7f4f6e6c792061636365737369626c65206279207573657273207265676973657460008201527f65726564206173206f7267616e697a6572730000000000000000000000000000602082015250565b6000612362603283611efe565b915061236d82612306565b604082019050919050565b6000602082019050818103600083015261239181612355565b9050919050565b6000602082840312156123ae576123ad611360565b5b60006123bc8482850161207b565b91505092915050565b6123ce81611a6f565b82525050565b600060c0830160008301516123ec6000860182611774565b50602083015184820360208601526124048282611984565b9150506040830151848203604086015261241e8282611984565b91505060608301516124336060860182611774565b5060808301516124466080860182611774565b5060a083015161245960a08601826123c5565b508091505092915050565b61246d81611400565b82525050565b600060a082019050818103600083015261248d81886123d4565b905061249c6020830187612464565b6124a96040830186612464565b6124b6606083018561132c565b6124c3608083018461132c565b9695505050505050565b60006124d882611935565b6124e28185611efe565b93506124f2818560208601611951565b6124fb8161136f565b840191505092915050565b6000606082019050818103600083015261252081866124cd565b9050818103602083015261253481856124cd565b90506125436040830184612464565b94935050505056fe608060405234801561001057600080fd5b50610c55806100206000396000f3fe608060405234801561001057600080fd5b50600436106100575760003560e01c8063213785a01461005c578063761db9fb1461007a5780637d1659fa1461009857806387b4e8d3146100b4578063e5999c2b146100d0575b600080fd5b610064610100565b6040516100719190610631565b60405180910390f35b61008261010a565b60405161008f919061073c565b60405180910390f35b6100b260048036038101906100ad919061079e565b610198565b005b6100ce60048036038101906100c9919061079e565b610301565b005b6100ea60048036038101906100e591906107de565b61054b565b6040516100f7919061073c565b60405180910390f35b6000600454905090565b6060600180548060200260200160405190810160405280929190818152602001828054801561018e57602002820191906000526020600020905b8160009054906101000a900473ffffffffffffffffffffffffffffffffffffffff1673ffffffffffffffffffffffffffffffffffffffff1681526020019060010190808311610144575b5050505050905090565b60001515600360008373ffffffffffffffffffffffffffffffffffffffff1673ffffffffffffffffffffffffffffffffffffffff16815260200190815260200160002060008473ffffffffffffffffffffffffffffffffffffffff1673ffffffffffffffffffffffffffffffffffffffff16815260200190815260200160002060009054906101000a900460ff16151514610268576040517f08c379a000000000000000000000000000000000000000000000000000000000815260040161025f9061088e565b60405180910390fd5b6001600360008373ffffffffffffffffffffffffffffffffffffffff1673ffffffffffffffffffffffffffffffffffffffff16815260200190815260200160002060008473ffffffffffffffffffffffffffffffffffffffff1673ffffffffffffffffffffffffffffffffffffffff16815260200190815260200160002060006101000a81548160ff0219169083151502179055505050565b600082905060046000815480929190610319906108dd565b919050555060008173ffffffffffffffffffffffffffffffffffffffff166386852dca6040518163ffffffff1660e01b8152600401600060405180830381865afa15801561036b573d6000803e3d6000fd5b505050506040513d6000823e3d601f19601f820116820180604052508101906103949190610bd6565b60a00151905060011515811515141561040f576001829080600181540180825580915050600190039060005260206000200160009091909190916101000a81548173ffffffffffffffffffffffffffffffffffffffff021916908373ffffffffffffffffffffffffffffffffffffffff160217905550610545565b600260008473ffffffffffffffffffffffffffffffffffffffff1673ffffffffffffffffffffffffffffffffffffffff168152602001908152602001600020829080600181540180825580915050600190039060005260206000200160009091909190916101000a81548173ffffffffffffffffffffffffffffffffffffffff021916908373ffffffffffffffffffffffffffffffffffffffff1602179055506001600360008673ffffffffffffffffffffffffffffffffffffffff1673ffffffffffffffffffffffffffffffffffffffff16815260200190815260200160002060008573ffffffffffffffffffffffffffffffffffffffff1673ffffffffffffffffffffffffffffffffffffffff16815260200190815260200160002060006101000a81548160ff0219169083151502179055505b50505050565b6060600260008373ffffffffffffffffffffffffffffffffffffffff1673ffffffffffffffffffffffffffffffffffffffff16815260200190815260200160002080548060200260200160405190810160405280929190818152602001828054801561060c57602002820191906000526020600020905b8160009054906101000a900473ffffffffffffffffffffffffffffffffffffffff1673ffffffffffffffffffffffffffffffffffffffff16815260200190600101908083116105c2575b50505050509050919050565b6000819050919050565b61062b81610618565b82525050565b60006020820190506106466000830184610622565b92915050565b600081519050919050565b600082825260208201905092915050565b6000819050602082019050919050565b600073ffffffffffffffffffffffffffffffffffffffff82169050919050565b60006106a382610678565b9050919050565b6106b381610698565b82525050565b60006106c583836106aa565b60208301905092915050565b6000602082019050919050565b60006106e98261064c565b6106f38185610657565b93506106fe83610668565b8060005b8381101561072f57815161071688826106b9565b9750610721836106d1565b925050600181019050610702565b5085935050505092915050565b6000602082019050818103600083015261075681846106de565b905092915050565b6000604051905090565b600080fd5b600080fd5b61077b81610698565b811461078657600080fd5b50565b60008135905061079881610772565b92915050565b600080604083850312156107b5576107b4610768565b5b60006107c385828601610789565b92505060206107d485828601610789565b9150509250929050565b6000602082840312156107f4576107f3610768565b5b600061080284828501610789565b91505092915050565b600082825260208201905092915050565b7f4f7267616e697a657220616c726561647920616464656420746f20746869732060008201527f656c656374696f6e000000000000000000000000000000000000000000000000602082015250565b600061087860288361080b565b91506108838261081c565b604082019050919050565b600060208201905081810360008301526108a78161086b565b9050919050565b7f4e487b7100000000000000000000000000000000000000000000000000000000600052601160045260246000fd5b60006108e882610618565b91507fffffffffffffffffffffffffffffffffffffffffffffffffffffffffffffffff82141561091b5761091a6108ae565b5b600182019050919050565b600080fd5b6000601f19601f8301169050919050565b7f4e487b7100000000000000000000000000000000000000000000000000000000600052604160045260246000fd5b6109748261092b565b810181811067ffffffffffffffff821117156109935761099261093c565b5b80604052505050565b60006109a661075e565b90506109b2828261096b565b919050565b600080fd5b6109c581610618565b81146109d057600080fd5b50565b6000815190506109e2816109bc565b92915050565b600080fd5b600080fd5b600067ffffffffffffffff821115610a0d57610a0c61093c565b5b610a168261092b565b9050602081019050919050565b60005b83811015610a41578082015181840152602081019050610a26565b83811115610a50576000848401525b50505050565b6000610a69610a64846109f2565b61099c565b905082815260208101848484011115610a8557610a846109ed565b5b610a90848285610a23565b509392505050565b600082601f830112610aad57610aac6109e8565b5b8151610abd848260208601610a56565b91505092915050565b60008115159050919050565b610adb81610ac6565b8114610ae657600080fd5b50565b600081519050610af881610ad2565b92915050565b600060c08284031215610b1457610b13610926565b5b610b1e60c061099c565b90506000610b2e848285016109d3565b600083015250602082015167ffffffffffffffff811115610b5257610b516109b7565b5b610b5e84828501610a98565b602083015250604082015167ffffffffffffffff811115610b8257610b816109b7565b5b610b8e84828501610a98565b6040830152506060610ba2848285016109d3565b6060830152506080610bb6848285016109d3565b60808301525060a0610bca84828501610ae9565b60a08301525092915050565b600060208284031215610bec57610beb610768565b5b600082015167ffffffffffffffff811115610c0a57610c0961076d565b5b610c1684828501610afe565b9150509291505056fea2646970667358221220663042fefed2e3160b7966fba8dc1b163709f438457b97ffb331281615b7770164736f6c634300080a0033a2646970667358221220eb235fcf7426f25a4e6d7494f6e2d8cab3ab5928604775eedcf9a9852c4eb69164736f6c634300080a0033",
  "linkReferences": {},
  "deployedLinkReferences": {}
}