{
  "_format": "hh-sol-artifact-1",
  "contractName": "ElectionOrganizer",
  "sourceName": "contracts/facets/ElectionOrganizer.sol",
  "abi": [
    {
      "anonymous": false,
      "inputs": [
        {
          "indexed": false,
          "internalType": "address",
          "name": "election",
          "type": "address"
        },
        {
          "components": [
            {
              "internalType": "uint256",
              "name": "candidateID",
              "type": "uint256"
            },
            {
              "internalType": "string",
              "name": "name",
              "type": "string"
            },
            {
              "internalType": "string",
              "name": "description",
              "type": "string"
            }
          ],
          "indexed": false,
          "internalType": "struct Election.Candidate",
          "name": "candidate",
          "type": "tuple"
        }
      ],
      "name": "CandidateAdded",
      "type": "event"
    },
    {
      "anonymous": false,
      "inputs": [
        {
          "indexed": false,
          "internalType": "address",
          "name": "election",
          "type": "address"
        }
      ],
      "name": "CreatedElection",
      "type": "event"
    },
    {
      "inputs": [
        {
          "internalType": "contract Election",
          "name": "_election",
          "type": "address"
        },
        {
          "components": [
            {
              "internalType": "uint256",
              "name": "candidateID",
              "type": "uint256"
            },
            {
              "internalType": "string",
              "name": "name",
              "type": "string"
            },
            {
              "internalType": "string",
              "name": "description",
              "type": "string"
            }
          ],
          "internalType": "struct Election.Candidate",
          "name": "_candidate",
          "type": "tuple"
        }
      ],
      "name": "addCandidate",
      "outputs": [],
      "stateMutability": "nonpayable",
      "type": "function"
    },
    {
      "inputs": [
        {
          "components": [
            {
              "internalType": "uint256",
              "name": "organizerID",
              "type": "uint256"
            },
            {
              "internalType": "string",
              "name": "name",
              "type": "string"
            },
            {
              "internalType": "address",
              "name": "publicAddress",
              "type": "address"
            }
          ],
          "internalType": "struct ElectionOrganizer.OrganizerInfo",
          "name": "_organizerInfo",
          "type": "tuple"
        }
      ],
      "name": "addElectionOrganizer",
      "outputs": [],
      "stateMutability": "nonpayable",
      "type": "function"
    },
    {
      "inputs": [
        {
          "components": [
            {
              "internalType": "uint256",
              "name": "electionID",
              "type": "uint256"
            },
            {
              "internalType": "string",
              "name": "name",
              "type": "string"
            },
            {
              "internalType": "string",
              "name": "description",
              "type": "string"
            },
            {
              "internalType": "uint256",
              "name": "startDate",
              "type": "uint256"
            },
            {
              "internalType": "uint256",
              "name": "endDate",
              "type": "uint256"
            }
          ],
          "internalType": "struct Election.ElectionInfo",
          "name": "_electionInfo",
          "type": "tuple"
        },
        {
          "internalType": "uint256",
          "name": "_ballotType",
          "type": "uint256"
        },
        {
          "internalType": "uint256",
          "name": "_resultCalculatorType",
          "type": "uint256"
        }
      ],
      "name": "createElection",
      "outputs": [
        {
          "internalType": "address",
          "name": "",
          "type": "address"
        }
      ],
      "stateMutability": "nonpayable",
      "type": "function"
    },
    {
      "inputs": [],
      "name": "electionOrganizerInit",
      "outputs": [],
      "stateMutability": "nonpayable",
      "type": "function"
    },
    {
      "inputs": [
        {
          "internalType": "uint256",
          "name": "_electionID",
          "type": "uint256"
        }
      ],
      "name": "getElectionByID",
      "outputs": [
        {
          "internalType": "address",
          "name": "",
          "type": "address"
        }
      ],
      "stateMutability": "view",
      "type": "function"
    },
    {
      "inputs": [],
      "name": "getElectionFactory",
      "outputs": [
        {
          "internalType": "address",
          "name": "",
          "type": "address"
        }
      ],
      "stateMutability": "view",
      "type": "function"
    },
    {
      "inputs": [
        {
          "internalType": "address",
          "name": "_address",
          "type": "address"
        }
      ],
      "name": "getElectionOrganizerByAddress",
      "outputs": [
        {
          "components": [
            {
              "internalType": "uint256",
              "name": "organizerID",
              "type": "uint256"
            },
            {
              "internalType": "string",
              "name": "name",
              "type": "string"
            },
            {
              "internalType": "address",
              "name": "publicAddress",
              "type": "address"
            }
          ],
          "internalType": "struct ElectionOrganizer.OrganizerInfo",
          "name": "",
          "type": "tuple"
        }
      ],
      "stateMutability": "view",
      "type": "function"
    },
    {
      "inputs": [
        {
          "internalType": "uint256",
          "name": "_organizerID",
          "type": "uint256"
        }
      ],
      "name": "getElectionOrganizerByID",
      "outputs": [
        {
          "components": [
            {
              "internalType": "uint256",
              "name": "organizerID",
              "type": "uint256"
            },
            {
              "internalType": "string",
              "name": "name",
              "type": "string"
            },
            {
              "internalType": "address",
              "name": "publicAddress",
              "type": "address"
            }
          ],
          "internalType": "struct ElectionOrganizer.OrganizerInfo",
          "name": "",
          "type": "tuple"
        }
      ],
      "stateMutability": "view",
      "type": "function"
    },
    {
      "inputs": [],
      "name": "getElectionOrganizers",
      "outputs": [
        {
          "components": [
            {
              "internalType": "uint256",
              "name": "organizerID",
              "type": "uint256"
            },
            {
              "internalType": "string",
              "name": "name",
              "type": "string"
            },
            {
              "internalType": "address",
              "name": "publicAddress",
              "type": "address"
            }
          ],
          "internalType": "struct ElectionOrganizer.OrganizerInfo[]",
          "name": "",
          "type": "tuple[]"
        }
      ],
      "stateMutability": "view",
      "type": "function"
    },
    {
      "inputs": [],
      "name": "getElectionStorage",
      "outputs": [
        {
          "internalType": "address",
          "name": "",
          "type": "address"
        }
      ],
      "stateMutability": "view",
      "type": "function"
    },
    {
      "inputs": [],
      "name": "getElections",
      "outputs": [
        {
          "internalType": "address[]",
          "name": "",
          "type": "address[]"
        }
      ],
      "stateMutability": "view",
      "type": "function"
    },
    {
      "inputs": [],
      "name": "getElectionsOfOrganizer",
      "outputs": [
        {
          "internalType": "address[]",
          "name": "",
          "type": "address[]"
        }
      ],
      "stateMutability": "view",
      "type": "function"
    },
    {
      "inputs": [
        {
          "internalType": "contract Election",
          "name": "_election",
          "type": "address"
        }
      ],
      "name": "getResult",
      "outputs": [
        {
          "internalType": "uint256[]",
          "name": "",
          "type": "uint256[]"
        }
      ],
      "stateMutability": "nonpayable",
      "type": "function"
    }
  ],
  "bytecode": "0x6080604052606460035534801561001557600080fd5b50612cef806100256000396000f3fe608060405234801561001057600080fd5b50600436106100cf5760003560e01c806339d8a4511161008c5780637f934bdb116100665780637f934bdb146102005780639f3a7f5214610230578063a8c019871461024e578063a95bc6351461026c576100cf565b806339d8a45114610182578063446a37e0146101a057806379db9ffe146101d0576100cf565b80630249ff4d146100d457806315d4ffa0146100f25780631d43d8ed1461010e57806325fb97a914610118578063326e0d281461014857806332fb68cd14610164575b600080fd5b6100dc61029c565b6040516100e991906111db565b60405180910390f35b61010c6004803603810190610107919061143c565b6102c6565b005b610116610535565b005b610132600480360381019061012d9190611485565b6105a0565b60405161013f91906111db565b60405180910390f35b610162600480360381019061015d919061158c565b610645565b005b61016c6107cb565b60405161017991906111db565b60405180910390f35b61018a6107fe565b60405161019791906116a6565b60405180910390f35b6101ba60048036038101906101b591906116c8565b6108a6565b6040516101c791906117b3565b60405180910390f35b6101ea60048036038101906101e59190611485565b610925565b6040516101f791906118ad565b60405180910390f35b61021a60048036038101906102159190611993565b610a44565b60405161022791906111db565b60405180910390f35b610238610d20565b60405161024591906116a6565b60405180910390f35b610256610dbd565b6040516102639190611b14565b60405180910390f35b61028660048036038101906102819190611b36565b610f0e565b60405161029391906118ad565b60405180910390f35b6000600560009054906101000a900473ffffffffffffffffffffffffffffffffffffffff16905090565b600060016003546102d79190611b92565b90508082600001818152505060008290806001815401808255809150506001900390600052602060002090600302016000909190919091506000820151816000015560208201518160010190805190602001906103359291906110b3565b5060408201518160020160006101000a81548173ffffffffffffffffffffffffffffffffffffffff021916908373ffffffffffffffffffffffffffffffffffffffff16021790555050508160016000846040015173ffffffffffffffffffffffffffffffffffffffff1673ffffffffffffffffffffffffffffffffffffffff1681526020019081526020016000206000820151816000015560208201518160010190805190602001906103e99291906110b3565b5060408201518160020160006101000a81548173ffffffffffffffffffffffffffffffffffffffff021916908373ffffffffffffffffffffffffffffffffffffffff1602179055509050508160026000846000015181526020019081526020016000206000820151816000015560208201518160010190805190602001906104729291906110b3565b5060408201518160020160006101000a81548173ffffffffffffffffffffffffffffffffffffffff021916908373ffffffffffffffffffffffffffffffffffffffff160217905550905050600160046000846040015173ffffffffffffffffffffffffffffffffffffffff1673ffffffffffffffffffffffffffffffffffffffff16815260200190815260200160002060006101000a81548160ff0219169083151502179055506003600081548092919061052c90611be8565b91905055505050565b60405161054190611139565b604051809103906000f08015801561055d573d6000803e3d6000fd5b50600560006101000a81548173ffffffffffffffffffffffffffffffffffffffff021916908373ffffffffffffffffffffffffffffffffffffffff160217905550565b6000600560009054906101000a900473ffffffffffffffffffffffffffffffffffffffff1673ffffffffffffffffffffffffffffffffffffffff166325fb97a9836040518263ffffffff1660e01b81526004016105fd9190611c40565b602060405180830381865afa15801561061a573d6000803e3d6000fd5b505050506040513d601f19601f8201168201806040525081019061063e9190611c70565b9050919050565b8173ffffffffffffffffffffffffffffffffffffffff1663e04b1c0c6040518163ffffffff1660e01b8152600401602060405180830381865afa158015610690573d6000803e3d6000fd5b505050506040513d601f19601f820116820180604052508101906106b49190611c70565b8073ffffffffffffffffffffffffffffffffffffffff163373ffffffffffffffffffffffffffffffffffffffff1614610722576040517f08c379a000000000000000000000000000000000000000000000000000000000815260040161071990611d20565b60405180910390fd5b8273ffffffffffffffffffffffffffffffffffffffff1663273ffe86836040518263ffffffff1660e01b815260040161075b9190611d97565b600060405180830381600087803b15801561077557600080fd5b505af1158015610789573d6000803e3d6000fd5b505050507fd0c201c1465de1cf8804d8aa806f3674abe49346aa6a18624a868dfa1410892183836040516107be929190611db9565b60405180910390a1505050565b60006107d5611059565b60000160009054906101000a900473ffffffffffffffffffffffffffffffffffffffff16905090565b6060600560009054906101000a900473ffffffffffffffffffffffffffffffffffffffff1673ffffffffffffffffffffffffffffffffffffffff166364372f73336040518263ffffffff1660e01b815260040161085b91906111db565b600060405180830381865afa158015610878573d6000803e3d6000fd5b505050506040513d6000823e3d601f19601f820116820180604052508101906108a19190611eb1565b905090565b60608173ffffffffffffffffffffffffffffffffffffffff1663de2927896040518163ffffffff1660e01b81526004016000604051808303816000875af11580156108f5573d6000803e3d6000fd5b505050506040513d6000823e3d601f19601f8201168201806040525081019061091e9190611fd2565b9050919050565b61092d611146565b60026000838152602001908152602001600020604051806060016040529081600082015481526020016001820180546109659061204a565b80601f01602080910402602001604051908101604052809291908181526020018280546109919061204a565b80156109de5780601f106109b3576101008083540402835291602001916109de565b820191906000526020600020905b8154815290600101906020018083116109c157829003601f168201915b505050505081526020016002820160009054906101000a900473ffffffffffffffffffffffffffffffffffffffff1673ffffffffffffffffffffffffffffffffffffffff1673ffffffffffffffffffffffffffffffffffffffff16815250509050919050565b6000600460003373ffffffffffffffffffffffffffffffffffffffff1673ffffffffffffffffffffffffffffffffffffffff16815260200190815260200160002060009054906101000a900460ff16610ad2576040517f08c379a0000000000000000000000000000000000000000000000000000000008152600401610ac9906120ee565b60405180910390fd5b6000610adc611059565b60000160009054906101000a900473ffffffffffffffffffffffffffffffffffffffff16905060006001600560009054906101000a900473ffffffffffffffffffffffffffffffffffffffff1673ffffffffffffffffffffffffffffffffffffffff1663213785a06040518163ffffffff1660e01b8152600401602060405180830381865afa158015610b73573d6000803e3d6000fd5b505050506040513d601f19601f82011682018060405250810190610b97919061210e565b610ba19190611b92565b9050808660000181815250508173ffffffffffffffffffffffffffffffffffffffff16639727e64587878733306040518663ffffffff1660e01b8152600401610bee9594939291906121b8565b600060405180830381600087803b158015610c0857600080fd5b505af1158015610c1c573d6000803e3d6000fd5b505050506000610c2a611086565b60020160009054906101000a900473ffffffffffffffffffffffffffffffffffffffff169050600560009054906101000a900473ffffffffffffffffffffffffffffffffffffffff1673ffffffffffffffffffffffffffffffffffffffff166387b4e8d382336040518363ffffffff1660e01b8152600401610cad929190612212565b600060405180830381600087803b158015610cc757600080fd5b505af1158015610cdb573d6000803e3d6000fd5b505050507f49fdfe60e25ebf09e8f8c20a8a10c828d9b82cecf7b04e1ecb59ae51f79f827781604051610d0e91906111db565b60405180910390a15050509392505050565b6060600560009054906101000a900473ffffffffffffffffffffffffffffffffffffffff1673ffffffffffffffffffffffffffffffffffffffff16639f3a7f526040518163ffffffff1660e01b8152600401600060405180830381865afa158015610d8f573d6000803e3d6000fd5b505050506040513d6000823e3d601f19601f82011682018060405250810190610db89190611eb1565b905090565b60606000805480602002602001604051908101604052809291908181526020016000905b82821015610f05578382906000526020600020906003020160405180606001604052908160008201548152602001600182018054610e1e9061204a565b80601f0160208091040260200160405190810160405280929190818152602001828054610e4a9061204a565b8015610e975780601f10610e6c57610100808354040283529160200191610e97565b820191906000526020600020905b815481529060010190602001808311610e7a57829003601f168201915b505050505081526020016002820160009054906101000a900473ffffffffffffffffffffffffffffffffffffffff1673ffffffffffffffffffffffffffffffffffffffff1673ffffffffffffffffffffffffffffffffffffffff168152505081526020019060010190610de1565b50505050905090565b610f16611146565b600160008373ffffffffffffffffffffffffffffffffffffffff1673ffffffffffffffffffffffffffffffffffffffff16815260200190815260200160002060405180606001604052908160008201548152602001600182018054610f7a9061204a565b80601f0160208091040260200160405190810160405280929190818152602001828054610fa69061204a565b8015610ff35780601f10610fc857610100808354040283529160200191610ff3565b820191906000526020600020905b815481529060010190602001808311610fd657829003601f168201915b505050505081526020016002820160009054906101000a900473ffffffffffffffffffffffffffffffffffffffff1673ffffffffffffffffffffffffffffffffffffffff1673ffffffffffffffffffffffffffffffffffffffff16815250509050919050565b6000807fc20038518297e76c0e27a913ab03e5d4fd92b2579d428cf3b89f8c71add2acef90508091505090565b6000807f5b43f313088137496832405d64cc708765db93c8144d82f7a7f806ac22d5603b90508091505090565b8280546110bf9061204a565b90600052602060002090601f0160209004810192826110e15760008555611128565b82601f106110fa57805160ff1916838001178555611128565b82800160010185558215611128579182015b8281111561112757825182559160200191906001019061110c565b5b509050611135919061117d565b5090565b610a7e8061223c83390190565b60405180606001604052806000815260200160608152602001600073ffffffffffffffffffffffffffffffffffffffff1681525090565b5b8082111561119657600081600090555060010161117e565b5090565b600073ffffffffffffffffffffffffffffffffffffffff82169050919050565b60006111c58261119a565b9050919050565b6111d5816111ba565b82525050565b60006020820190506111f060008301846111cc565b92915050565b6000604051905090565b600080fd5b600080fd5b600080fd5b6000601f19601f8301169050919050565b7f4e487b7100000000000000000000000000000000000000000000000000000000600052604160045260246000fd5b6112588261120f565b810181811067ffffffffffffffff8211171561127757611276611220565b5b80604052505050565b600061128a6111f6565b9050611296828261124f565b919050565b600080fd5b6000819050919050565b6112b3816112a0565b81146112be57600080fd5b50565b6000813590506112d0816112aa565b92915050565b600080fd5b600080fd5b600067ffffffffffffffff8211156112fb576112fa611220565b5b6113048261120f565b9050602081019050919050565b82818337600083830152505050565b600061133361132e846112e0565b611280565b90508281526020810184848401111561134f5761134e6112db565b5b61135a848285611311565b509392505050565b600082601f830112611377576113766112d6565b5b8135611387848260208601611320565b91505092915050565b611399816111ba565b81146113a457600080fd5b50565b6000813590506113b681611390565b92915050565b6000606082840312156113d2576113d161120a565b5b6113dc6060611280565b905060006113ec848285016112c1565b600083015250602082013567ffffffffffffffff8111156114105761140f61129b565b5b61141c84828501611362565b6020830152506040611430848285016113a7565b60408301525092915050565b60006020828403121561145257611451611200565b5b600082013567ffffffffffffffff8111156114705761146f611205565b5b61147c848285016113bc565b91505092915050565b60006020828403121561149b5761149a611200565b5b60006114a9848285016112c1565b91505092915050565b60006114bd826111ba565b9050919050565b6114cd816114b2565b81146114d857600080fd5b50565b6000813590506114ea816114c4565b92915050565b6000606082840312156115065761150561120a565b5b6115106060611280565b90506000611520848285016112c1565b600083015250602082013567ffffffffffffffff8111156115445761154361129b565b5b61155084828501611362565b602083015250604082013567ffffffffffffffff8111156115745761157361129b565b5b61158084828501611362565b60408301525092915050565b600080604083850312156115a3576115a2611200565b5b60006115b1858286016114db565b925050602083013567ffffffffffffffff8111156115d2576115d1611205565b5b6115de858286016114f0565b9150509250929050565b600081519050919050565b600082825260208201905092915050565b6000819050602082019050919050565b61161d816111ba565b82525050565b600061162f8383611614565b60208301905092915050565b6000602082019050919050565b6000611653826115e8565b61165d81856115f3565b935061166883611604565b8060005b838110156116995781516116808882611623565b975061168b8361163b565b92505060018101905061166c565b5085935050505092915050565b600060208201905081810360008301526116c08184611648565b905092915050565b6000602082840312156116de576116dd611200565b5b60006116ec848285016114db565b91505092915050565b600081519050919050565b600082825260208201905092915050565b6000819050602082019050919050565b61172a816112a0565b82525050565b600061173c8383611721565b60208301905092915050565b6000602082019050919050565b6000611760826116f5565b61176a8185611700565b935061177583611711565b8060005b838110156117a657815161178d8882611730565b975061179883611748565b925050600181019050611779565b5085935050505092915050565b600060208201905081810360008301526117cd8184611755565b905092915050565b600081519050919050565b600082825260208201905092915050565b60005b8381101561180f5780820151818401526020810190506117f4565b8381111561181e576000848401525b50505050565b600061182f826117d5565b61183981856117e0565b93506118498185602086016117f1565b6118528161120f565b840191505092915050565b60006060830160008301516118756000860182611721565b506020830151848203602086015261188d8282611824565b91505060408301516118a26040860182611614565b508091505092915050565b600060208201905081810360008301526118c7818461185d565b905092915050565b600060a082840312156118e5576118e461120a565b5b6118ef60a0611280565b905060006118ff848285016112c1565b600083015250602082013567ffffffffffffffff8111156119235761192261129b565b5b61192f84828501611362565b602083015250604082013567ffffffffffffffff8111156119535761195261129b565b5b61195f84828501611362565b6040830152506060611973848285016112c1565b6060830152506080611987848285016112c1565b60808301525092915050565b6000806000606084860312156119ac576119ab611200565b5b600084013567ffffffffffffffff8111156119ca576119c9611205565b5b6119d6868287016118cf565b93505060206119e7868287016112c1565b92505060406119f8868287016112c1565b9150509250925092565b600081519050919050565b600082825260208201905092915050565b6000819050602082019050919050565b6000606083016000830151611a466000860182611721565b5060208301518482036020860152611a5e8282611824565b9150506040830151611a736040860182611614565b508091505092915050565b6000611a8a8383611a2e565b905092915050565b6000602082019050919050565b6000611aaa82611a02565b611ab48185611a0d565b935083602082028501611ac685611a1e565b8060005b85811015611b025784840389528151611ae38582611a7e565b9450611aee83611a92565b925060208a01995050600181019050611aca565b50829750879550505050505092915050565b60006020820190508181036000830152611b2e8184611a9f565b905092915050565b600060208284031215611b4c57611b4b611200565b5b6000611b5a848285016113a7565b91505092915050565b7f4e487b7100000000000000000000000000000000000000000000000000000000600052601160045260246000fd5b6000611b9d826112a0565b9150611ba8836112a0565b9250827fffffffffffffffffffffffffffffffffffffffffffffffffffffffffffffffff03821115611bdd57611bdc611b63565b5b828201905092915050565b6000611bf3826112a0565b91507fffffffffffffffffffffffffffffffffffffffffffffffffffffffffffffffff821415611c2657611c25611b63565b5b600182019050919050565b611c3a816112a0565b82525050565b6000602082019050611c556000830184611c31565b92915050565b600081519050611c6a81611390565b92915050565b600060208284031215611c8657611c85611200565b5b6000611c9484828501611c5b565b91505092915050565b600082825260208201905092915050565b7f4f6e6c792061636365737369626c652062792074686520636f72726573706f6e60008201527f64696e6720656c656374696f6e206f7267616e697a6572000000000000000000602082015250565b6000611d0a603783611c9d565b9150611d1582611cae565b604082019050919050565b60006020820190508181036000830152611d3981611cfd565b9050919050565b6000606083016000830151611d586000860182611721565b5060208301518482036020860152611d708282611824565b91505060408301518482036040860152611d8a8282611824565b9150508091505092915050565b60006020820190508181036000830152611db18184611d40565b905092915050565b6000604082019050611dce60008301856111cc565b8181036020830152611de08184611d40565b90509392505050565b600067ffffffffffffffff821115611e0457611e03611220565b5b602082029050602081019050919050565b600080fd5b6000611e2d611e2884611de9565b611280565b90508083825260208201905060208402830185811115611e5057611e4f611e15565b5b835b81811015611e795780611e658882611c5b565b845260208401935050602081019050611e52565b5050509392505050565b600082601f830112611e9857611e976112d6565b5b8151611ea8848260208601611e1a565b91505092915050565b600060208284031215611ec757611ec6611200565b5b600082015167ffffffffffffffff811115611ee557611ee4611205565b5b611ef184828501611e83565b91505092915050565b600067ffffffffffffffff821115611f1557611f14611220565b5b602082029050602081019050919050565b600081519050611f35816112aa565b92915050565b6000611f4e611f4984611efa565b611280565b90508083825260208201905060208402830185811115611f7157611f70611e15565b5b835b81811015611f9a5780611f868882611f26565b845260208401935050602081019050611f73565b5050509392505050565b600082601f830112611fb957611fb86112d6565b5b8151611fc9848260208601611f3b565b91505092915050565b600060208284031215611fe857611fe7611200565b5b600082015167ffffffffffffffff81111561200657612005611205565b5b61201284828501611fa4565b91505092915050565b7f4e487b7100000000000000000000000000000000000000000000000000000000600052602260045260246000fd5b6000600282049050600182168061206257607f821691505b602082108114156120765761207561201b565b5b50919050565b7f4f6e6c792061636365737369626c65206279207573657273207265676973657460008201527f65726564206173206f7267616e697a6572730000000000000000000000000000602082015250565b60006120d8603283611c9d565b91506120e38261207c565b604082019050919050565b60006020820190508181036000830152612107816120cb565b9050919050565b60006020828403121561212457612123611200565b5b600061213284828501611f26565b91505092915050565b600060a0830160008301516121536000860182611721565b506020830151848203602086015261216b8282611824565b915050604083015184820360408601526121858282611824565b915050606083015161219a6060860182611721565b5060808301516121ad6080860182611721565b508091505092915050565b600060a08201905081810360008301526121d2818861213b565b90506121e16020830187611c31565b6121ee6040830186611c31565b6121fb60608301856111cc565b61220860808301846111cc565b9695505050505050565b600060408201905061222760008301856111cc565b61223460208301846111cc565b939250505056fe608060405234801561001057600080fd5b50610a5e806100206000396000f3fe608060405234801561001057600080fd5b50600436106100575760003560e01c8063213785a01461005c57806325fb97a91461007a57806364372f73146100aa57806387b4e8d3146100da5780639f3a7f52146100f6575b600080fd5b610064610114565b60405161007191906104bd565b60405180910390f35b610094600480360381019061008f9190610518565b61011e565b6040516100a19190610586565b60405180910390f35b6100c460048036038101906100bf91906105cd565b61015b565b6040516100d191906106b8565b60405180910390f35b6100f460048036038101906100ef91906106da565b610228565b005b6100fe610416565b60405161010b91906106b8565b60405180910390f35b6000600454905090565b60006003600083815260200190815260200160002060009054906101000a900473ffffffffffffffffffffffffffffffffffffffff169050919050565b6060600260008373ffffffffffffffffffffffffffffffffffffffff1673ffffffffffffffffffffffffffffffffffffffff16815260200190815260200160002080548060200260200160405190810160405280929190818152602001828054801561021c57602002820191906000526020600020905b8160009054906101000a900473ffffffffffffffffffffffffffffffffffffffff1673ffffffffffffffffffffffffffffffffffffffff16815260200190600101908083116101d2575b50505050509050919050565b60008290506004600081548092919061024090610749565b91905055506000819080600181540180825580915050600190039060005260206000200160009091909190916101000a81548173ffffffffffffffffffffffffffffffffffffffff021916908373ffffffffffffffffffffffffffffffffffffffff160217905550600260008373ffffffffffffffffffffffffffffffffffffffff1673ffffffffffffffffffffffffffffffffffffffff168152602001908152602001600020819080600181540180825580915050600190039060005260206000200160009091909190916101000a81548173ffffffffffffffffffffffffffffffffffffffff021916908373ffffffffffffffffffffffffffffffffffffffff16021790555080600360008373ffffffffffffffffffffffffffffffffffffffff166386852dca6040518163ffffffff1660e01b8152600401600060405180830381865afa158015610398573d6000803e3d6000fd5b505050506040513d6000823e3d601f19601f820116820180604052508101906103c191906109df565b60000151815260200190815260200160002060006101000a81548173ffffffffffffffffffffffffffffffffffffffff021916908373ffffffffffffffffffffffffffffffffffffffff160217905550505050565b6060600080548060200260200160405190810160405280929190818152602001828054801561049a57602002820191906000526020600020905b8160009054906101000a900473ffffffffffffffffffffffffffffffffffffffff1673ffffffffffffffffffffffffffffffffffffffff1681526020019060010190808311610450575b5050505050905090565b6000819050919050565b6104b7816104a4565b82525050565b60006020820190506104d260008301846104ae565b92915050565b6000604051905090565b600080fd5b600080fd5b6104f5816104a4565b811461050057600080fd5b50565b600081359050610512816104ec565b92915050565b60006020828403121561052e5761052d6104e2565b5b600061053c84828501610503565b91505092915050565b600073ffffffffffffffffffffffffffffffffffffffff82169050919050565b600061057082610545565b9050919050565b61058081610565565b82525050565b600060208201905061059b6000830184610577565b92915050565b6105aa81610565565b81146105b557600080fd5b50565b6000813590506105c7816105a1565b92915050565b6000602082840312156105e3576105e26104e2565b5b60006105f1848285016105b8565b91505092915050565b600081519050919050565b600082825260208201905092915050565b6000819050602082019050919050565b61062f81610565565b82525050565b60006106418383610626565b60208301905092915050565b6000602082019050919050565b6000610665826105fa565b61066f8185610605565b935061067a83610616565b8060005b838110156106ab5781516106928882610635565b975061069d8361064d565b92505060018101905061067e565b5085935050505092915050565b600060208201905081810360008301526106d2818461065a565b905092915050565b600080604083850312156106f1576106f06104e2565b5b60006106ff858286016105b8565b9250506020610710858286016105b8565b9150509250929050565b7f4e487b7100000000000000000000000000000000000000000000000000000000600052601160045260246000fd5b6000610754826104a4565b91507fffffffffffffffffffffffffffffffffffffffffffffffffffffffffffffffff8214156107875761078661071a565b5b600182019050919050565b600080fd5b6000601f19601f8301169050919050565b7f4e487b7100000000000000000000000000000000000000000000000000000000600052604160045260246000fd5b6107e082610797565b810181811067ffffffffffffffff821117156107ff576107fe6107a8565b5b80604052505050565b60006108126104d8565b905061081e82826107d7565b919050565b600080fd5b600081519050610837816104ec565b92915050565b600080fd5b600080fd5b600067ffffffffffffffff821115610862576108616107a8565b5b61086b82610797565b9050602081019050919050565b60005b8381101561089657808201518184015260208101905061087b565b838111156108a5576000848401525b50505050565b60006108be6108b984610847565b610808565b9050828152602081018484840111156108da576108d9610842565b5b6108e5848285610878565b509392505050565b600082601f8301126109025761090161083d565b5b81516109128482602086016108ab565b91505092915050565b600060a0828403121561093157610930610792565b5b61093b60a0610808565b9050600061094b84828501610828565b600083015250602082015167ffffffffffffffff81111561096f5761096e610823565b5b61097b848285016108ed565b602083015250604082015167ffffffffffffffff81111561099f5761099e610823565b5b6109ab848285016108ed565b60408301525060606109bf84828501610828565b60608301525060806109d384828501610828565b60808301525092915050565b6000602082840312156109f5576109f46104e2565b5b600082015167ffffffffffffffff811115610a1357610a126104e7565b5b610a1f8482850161091b565b9150509291505056fea264697066735822122043ce00e11d51ee84c3134e9def08c97af8e0226ead7c56ccd9439d59708f649b64736f6c634300080a0033a264697066735822122010420fabbd44a8d864d1a79b2d3fa6fef499d20264f6331aa59fcc08c8d63eaa64736f6c634300080a0033",
  "linkReferences": {},
  "deployedLinkReferences": {}
}