{
  "_format": "hh-sol-artifact-1",
  "contractName": "ElectionOrganizer",
  "sourceName": "contracts/facets/ElectionOrganizer.sol",
  "abi": [
    {
      "anonymous": false,
      "inputs": [
        {
          "indexed": false,
          "internalType": "address",
          "name": "election",
          "type": "address"
        },
        {
          "components": [
            {
              "internalType": "uint256",
              "name": "candidateID",
              "type": "uint256"
            },
            {
              "internalType": "string",
              "name": "name",
              "type": "string"
            },
            {
              "internalType": "string",
              "name": "description",
              "type": "string"
            }
          ],
          "indexed": false,
          "internalType": "struct Election.Candidate",
          "name": "candidate",
          "type": "tuple"
        }
      ],
      "name": "CandidateAdded",
      "type": "event"
    },
    {
      "anonymous": false,
      "inputs": [
        {
          "indexed": false,
          "internalType": "address",
          "name": "election",
          "type": "address"
        }
      ],
      "name": "CreatedElection",
      "type": "event"
    },
    {
      "inputs": [
        {
          "internalType": "contract Election",
          "name": "_election",
          "type": "address"
        },
        {
          "components": [
            {
              "internalType": "uint256",
              "name": "candidateID",
              "type": "uint256"
            },
            {
              "internalType": "string",
              "name": "name",
              "type": "string"
            },
            {
              "internalType": "string",
              "name": "description",
              "type": "string"
            }
          ],
          "internalType": "struct Election.Candidate",
          "name": "_candidate",
          "type": "tuple"
        }
      ],
      "name": "addCandidate",
      "outputs": [],
      "stateMutability": "nonpayable",
      "type": "function"
    },
    {
      "inputs": [
        {
          "components": [
            {
              "internalType": "uint256",
              "name": "organizerID",
              "type": "uint256"
            },
            {
              "internalType": "string",
              "name": "name",
              "type": "string"
            },
            {
              "internalType": "address",
              "name": "publicAddress",
              "type": "address"
            }
          ],
          "internalType": "struct ElectionOrganizer.OrganizerInfo",
          "name": "_organizerInfo",
          "type": "tuple"
        }
      ],
      "name": "addElectionOrganizer",
      "outputs": [],
      "stateMutability": "nonpayable",
      "type": "function"
    },
    {
      "inputs": [
        {
          "internalType": "address",
          "name": "_addOrganizer",
          "type": "address"
        },
        {
          "internalType": "address",
          "name": "_election",
          "type": "address"
        }
      ],
      "name": "addOrganizerToInviteBasedElection",
      "outputs": [],
      "stateMutability": "nonpayable",
      "type": "function"
    },
    {
      "inputs": [
        {
          "components": [
            {
              "internalType": "uint256",
              "name": "electionID",
              "type": "uint256"
            },
            {
              "internalType": "string",
              "name": "name",
              "type": "string"
            },
            {
              "internalType": "string",
              "name": "description",
              "type": "string"
            },
            {
              "internalType": "uint256",
              "name": "startDate",
              "type": "uint256"
            },
            {
              "internalType": "uint256",
              "name": "endDate",
              "type": "uint256"
            },
            {
              "internalType": "bool",
              "name": "electionType",
              "type": "bool"
            }
          ],
          "internalType": "struct Election.ElectionInfo",
          "name": "_electionInfo",
          "type": "tuple"
        },
        {
          "internalType": "uint256",
          "name": "_ballotType",
          "type": "uint256"
        },
        {
          "internalType": "uint256",
          "name": "_resultCalculatorType",
          "type": "uint256"
        }
      ],
      "name": "createElection",
      "outputs": [],
      "stateMutability": "nonpayable",
      "type": "function"
    },
    {
      "inputs": [
        {
          "internalType": "address",
          "name": "_election",
          "type": "address"
        }
      ],
      "name": "deleteElection",
      "outputs": [],
      "stateMutability": "nonpayable",
      "type": "function"
    },
    {
      "inputs": [],
      "name": "electionOrganizerInit",
      "outputs": [],
      "stateMutability": "nonpayable",
      "type": "function"
    },
    {
      "inputs": [],
      "name": "getElectionFactory",
      "outputs": [
        {
          "internalType": "address",
          "name": "",
          "type": "address"
        }
      ],
      "stateMutability": "view",
      "type": "function"
    },
    {
      "inputs": [
        {
          "internalType": "address",
          "name": "_address",
          "type": "address"
        }
      ],
      "name": "getElectionOrganizerByAddress",
      "outputs": [
        {
          "components": [
            {
              "internalType": "uint256",
              "name": "organizerID",
              "type": "uint256"
            },
            {
              "internalType": "string",
              "name": "name",
              "type": "string"
            },
            {
              "internalType": "address",
              "name": "publicAddress",
              "type": "address"
            }
          ],
          "internalType": "struct ElectionOrganizer.OrganizerInfo",
          "name": "",
          "type": "tuple"
        }
      ],
      "stateMutability": "view",
      "type": "function"
    },
    {
      "inputs": [
        {
          "internalType": "uint256",
          "name": "_organizerID",
          "type": "uint256"
        }
      ],
      "name": "getElectionOrganizerByID",
      "outputs": [
        {
          "components": [
            {
              "internalType": "uint256",
              "name": "organizerID",
              "type": "uint256"
            },
            {
              "internalType": "string",
              "name": "name",
              "type": "string"
            },
            {
              "internalType": "address",
              "name": "publicAddress",
              "type": "address"
            }
          ],
          "internalType": "struct ElectionOrganizer.OrganizerInfo",
          "name": "",
          "type": "tuple"
        }
      ],
      "stateMutability": "view",
      "type": "function"
    },
    {
      "inputs": [],
      "name": "getElectionOrganizers",
      "outputs": [
        {
          "components": [
            {
              "internalType": "uint256",
              "name": "organizerID",
              "type": "uint256"
            },
            {
              "internalType": "string",
              "name": "name",
              "type": "string"
            },
            {
              "internalType": "address",
              "name": "publicAddress",
              "type": "address"
            }
          ],
          "internalType": "struct ElectionOrganizer.OrganizerInfo[]",
          "name": "",
          "type": "tuple[]"
        }
      ],
      "stateMutability": "view",
      "type": "function"
    },
    {
      "inputs": [
        {
          "internalType": "address",
          "name": "_election",
          "type": "address"
        }
      ],
      "name": "getElectionOwner",
      "outputs": [
        {
          "internalType": "address",
          "name": "",
          "type": "address"
        }
      ],
      "stateMutability": "view",
      "type": "function"
    },
    {
      "inputs": [],
      "name": "getElectionStorage",
      "outputs": [
        {
          "internalType": "address",
          "name": "",
          "type": "address"
        }
      ],
      "stateMutability": "view",
      "type": "function"
    },
    {
      "inputs": [
        {
          "internalType": "address",
          "name": "_organizer",
          "type": "address"
        }
      ],
      "name": "getInviteBasedElections",
      "outputs": [
        {
          "internalType": "address[]",
          "name": "",
          "type": "address[]"
        }
      ],
      "stateMutability": "view",
      "type": "function"
    },
    {
      "inputs": [],
      "name": "getOpenBasedElections",
      "outputs": [
        {
          "internalType": "address[]",
          "name": "",
          "type": "address[]"
        }
      ],
      "stateMutability": "view",
      "type": "function"
    },
    {
      "inputs": [
        {
          "internalType": "contract Election",
          "name": "_election",
          "type": "address"
        }
      ],
      "name": "getResult",
      "outputs": [
        {
          "internalType": "uint256[]",
          "name": "",
          "type": "uint256[]"
        }
      ],
      "stateMutability": "nonpayable",
      "type": "function"
    },
    {
      "inputs": [
        {
          "internalType": "contract Election",
          "name": "_election",
          "type": "address"
        },
        {
          "internalType": "string",
          "name": "_name",
          "type": "string"
        },
        {
          "internalType": "string",
          "name": "_description",
          "type": "string"
        },
        {
          "internalType": "uint256",
          "name": "index",
          "type": "uint256"
        }
      ],
      "name": "updateCandidateInfo",
      "outputs": [],
      "stateMutability": "nonpayable",
      "type": "function"
    }
  ],
  "bytecode": "0x6080604052606460035534801561001557600080fd5b50613cc8806100256000396000f3fe608060405234801561001057600080fd5b50600436106101005760003560e01c806379db9ffe11610097578063a8c0198711610066578063a8c0198714610285578063a95bc635146102a3578063ca99067a146102d3578063e5999c2b146102ef57610100565b806379db9ffe146102015780637d1659fa1461023157806388e96eb61461024d578063936a11671461026957610100565b806332fb68cd116100d357806332fb68cd1461016557806335b5082814610183578063446a37e0146101b3578063761db9fb146101e357610100565b80630249ff4d1461010557806315d4ffa0146101235780631d43d8ed1461013f578063326e0d2814610149575b600080fd5b61010d61031f565b60405161011a91906114d2565b60405180910390f35b61013d60048036038101906101389190611733565b610349565b005b6101476105b8565b005b610163600480360381019061015e9190611856565b610623565b005b61016d6107a9565b60405161017a91906114d2565b60405180910390f35b61019d600480360381019061019891906118b2565b6107dc565b6040516101aa91906114d2565b60405180910390f35b6101cd60048036038101906101c891906118df565b610881565b6040516101da91906119ca565b60405180910390f35b6101eb610900565b6040516101f89190611aaa565b60405180910390f35b61021b60048036038101906102169190611acc565b61099d565b6040516102289190611bd1565b60405180910390f35b61024b60048036038101906102469190611bf3565b610abc565b005b61026760048036038101906102629190611d43565b610b4f565b005b610283600480360381019061027e9190611db2565b610e27565b005b61028d610f7a565b60405161029a9190611f63565b60405180910390f35b6102bd60048036038101906102b891906118b2565b6110cb565b6040516102ca9190611bd1565b60405180910390f35b6102ed60048036038101906102e891906118b2565b611216565b005b610309600480360381019061030491906118b2565b6112a6565b6040516103169190611aaa565b60405180910390f35b6000600560009054906101000a900473ffffffffffffffffffffffffffffffffffffffff16905090565b6000600160035461035a9190611fb4565b90508082600001818152505060008290806001815401808255809150506001900390600052602060002090600302016000909190919091506000820151816000015560208201518160010190805190602001906103b89291906113aa565b5060408201518160020160006101000a81548173ffffffffffffffffffffffffffffffffffffffff021916908373ffffffffffffffffffffffffffffffffffffffff16021790555050508160016000846040015173ffffffffffffffffffffffffffffffffffffffff1673ffffffffffffffffffffffffffffffffffffffff16815260200190815260200160002060008201518160000155602082015181600101908051906020019061046c9291906113aa565b5060408201518160020160006101000a81548173ffffffffffffffffffffffffffffffffffffffff021916908373ffffffffffffffffffffffffffffffffffffffff1602179055509050508160026000846000015181526020019081526020016000206000820151816000015560208201518160010190805190602001906104f59291906113aa565b5060408201518160020160006101000a81548173ffffffffffffffffffffffffffffffffffffffff021916908373ffffffffffffffffffffffffffffffffffffffff160217905550905050600160046000846040015173ffffffffffffffffffffffffffffffffffffffff1673ffffffffffffffffffffffffffffffffffffffff16815260200190815260200160002060006101000a81548160ff021916908315150217905550600360008154809291906105af9061200a565b91905055505050565b6040516105c490611430565b604051809103906000f0801580156105e0573d6000803e3d6000fd5b50600560006101000a81548173ffffffffffffffffffffffffffffffffffffffff021916908373ffffffffffffffffffffffffffffffffffffffff160217905550565b8173ffffffffffffffffffffffffffffffffffffffff1663e04b1c0c6040518163ffffffff1660e01b8152600401602060405180830381865afa15801561066e573d6000803e3d6000fd5b505050506040513d601f19601f820116820180604052508101906106929190612068565b8073ffffffffffffffffffffffffffffffffffffffff163373ffffffffffffffffffffffffffffffffffffffff1614610700576040517f08c379a00000000000000000000000000000000000000000000000000000000081526004016106f790612118565b60405180910390fd5b8273ffffffffffffffffffffffffffffffffffffffff1663273ffe86836040518263ffffffff1660e01b8152600401610739919061218f565b600060405180830381600087803b15801561075357600080fd5b505af1158015610767573d6000803e3d6000fd5b505050507fd0c201c1465de1cf8804d8aa806f3674abe49346aa6a18624a868dfa14108921838360405161079c9291906121b1565b60405180910390a1505050565b60006107b3611350565b60000160009054906101000a900473ffffffffffffffffffffffffffffffffffffffff16905090565b6000600560009054906101000a900473ffffffffffffffffffffffffffffffffffffffff1673ffffffffffffffffffffffffffffffffffffffff166335b50828836040518263ffffffff1660e01b815260040161083991906114d2565b602060405180830381865afa158015610856573d6000803e3d6000fd5b505050506040513d601f19601f8201168201806040525081019061087a9190612068565b9050919050565b60608173ffffffffffffffffffffffffffffffffffffffff1663de2927896040518163ffffffff1660e01b81526004016000604051808303816000875af11580156108d0573d6000803e3d6000fd5b505050506040513d6000823e3d601f19601f820116820180604052508101906108f991906122be565b9050919050565b6060600560009054906101000a900473ffffffffffffffffffffffffffffffffffffffff1673ffffffffffffffffffffffffffffffffffffffff1663761db9fb6040518163ffffffff1660e01b8152600401600060405180830381865afa15801561096f573d6000803e3d6000fd5b505050506040513d6000823e3d601f19601f8201168201806040525081019061099891906123ca565b905090565b6109a561143d565b60026000838152602001908152602001600020604051806060016040529081600082015481526020016001820180546109dd90612442565b80601f0160208091040260200160405190810160405280929190818152602001828054610a0990612442565b8015610a565780601f10610a2b57610100808354040283529160200191610a56565b820191906000526020600020905b815481529060010190602001808311610a3957829003601f168201915b505050505081526020016002820160009054906101000a900473ffffffffffffffffffffffffffffffffffffffff1673ffffffffffffffffffffffffffffffffffffffff1673ffffffffffffffffffffffffffffffffffffffff16815250509050919050565b600560009054906101000a900473ffffffffffffffffffffffffffffffffffffffff1673ffffffffffffffffffffffffffffffffffffffff16637d1659fa83836040518363ffffffff1660e01b8152600401610b19929190612474565b600060405180830381600087803b158015610b3357600080fd5b505af1158015610b47573d6000803e3d6000fd5b505050505050565b600460003373ffffffffffffffffffffffffffffffffffffffff1673ffffffffffffffffffffffffffffffffffffffff16815260200190815260200160002060009054906101000a900460ff16610bdb576040517f08c379a0000000000000000000000000000000000000000000000000000000008152600401610bd29061250f565b60405180910390fd5b6000610be5611350565b60000160009054906101000a900473ffffffffffffffffffffffffffffffffffffffff16905060006001600560009054906101000a900473ffffffffffffffffffffffffffffffffffffffff1673ffffffffffffffffffffffffffffffffffffffff1663213785a06040518163ffffffff1660e01b8152600401602060405180830381865afa158015610c7c573d6000803e3d6000fd5b505050506040513d601f19601f82011682018060405250810190610ca0919061252f565b610caa9190611fb4565b9050808560000181815250508173ffffffffffffffffffffffffffffffffffffffff16639dc9faf286868633306040518663ffffffff1660e01b8152600401610cf795949392919061260a565b600060405180830381600087803b158015610d1157600080fd5b505af1158015610d25573d6000803e3d6000fd5b505050506000610d3361137d565b60020160009054906101000a900473ffffffffffffffffffffffffffffffffffffffff169050600560009054906101000a900473ffffffffffffffffffffffffffffffffffffffff1673ffffffffffffffffffffffffffffffffffffffff166387b4e8d382336040518363ffffffff1660e01b8152600401610db6929190612474565b600060405180830381600087803b158015610dd057600080fd5b505af1158015610de4573d6000803e3d6000fd5b505050507f49fdfe60e25ebf09e8f8c20a8a10c828d9b82cecf7b04e1ecb59ae51f79f827781604051610e1791906114d2565b60405180910390a1505050505050565b8373ffffffffffffffffffffffffffffffffffffffff1663e04b1c0c6040518163ffffffff1660e01b8152600401602060405180830381865afa158015610e72573d6000803e3d6000fd5b505050506040513d601f19601f82011682018060405250810190610e969190612068565b8073ffffffffffffffffffffffffffffffffffffffff163373ffffffffffffffffffffffffffffffffffffffff1614610f04576040517f08c379a0000000000000000000000000000000000000000000000000000000008152600401610efb90612118565b60405180910390fd5b8473ffffffffffffffffffffffffffffffffffffffff166324fd983c8585856040518463ffffffff1660e01b8152600401610f419392919061269d565b600060405180830381600087803b158015610f5b57600080fd5b505af1158015610f6f573d6000803e3d6000fd5b505050505050505050565b60606000805480602002602001604051908101604052809291908181526020016000905b828210156110c2578382906000526020600020906003020160405180606001604052908160008201548152602001600182018054610fdb90612442565b80601f016020809104026020016040519081016040528092919081815260200182805461100790612442565b80156110545780601f1061102957610100808354040283529160200191611054565b820191906000526020600020905b81548152906001019060200180831161103757829003601f168201915b505050505081526020016002820160009054906101000a900473ffffffffffffffffffffffffffffffffffffffff1673ffffffffffffffffffffffffffffffffffffffff1673ffffffffffffffffffffffffffffffffffffffff168152505081526020019060010190610f9e565b50505050905090565b6110d361143d565b600160008373ffffffffffffffffffffffffffffffffffffffff1673ffffffffffffffffffffffffffffffffffffffff1681526020019081526020016000206040518060600160405290816000820154815260200160018201805461113790612442565b80601f016020809104026020016040519081016040528092919081815260200182805461116390612442565b80156111b05780601f10611185576101008083540402835291602001916111b0565b820191906000526020600020905b81548152906001019060200180831161119357829003601f168201915b505050505081526020016002820160009054906101000a900473ffffffffffffffffffffffffffffffffffffffff1673ffffffffffffffffffffffffffffffffffffffff1673ffffffffffffffffffffffffffffffffffffffff16815250509050919050565b600560009054906101000a900473ffffffffffffffffffffffffffffffffffffffff1673ffffffffffffffffffffffffffffffffffffffff1663ca99067a826040518263ffffffff1660e01b815260040161127191906114d2565b600060405180830381600087803b15801561128b57600080fd5b505af115801561129f573d6000803e3d6000fd5b5050505050565b6060600560009054906101000a900473ffffffffffffffffffffffffffffffffffffffff1673ffffffffffffffffffffffffffffffffffffffff1663e5999c2b836040518263ffffffff1660e01b815260040161130391906114d2565b600060405180830381865afa158015611320573d6000803e3d6000fd5b505050506040513d6000823e3d601f19601f8201168201806040525081019061134991906123ca565b9050919050565b6000807fc20038518297e76c0e27a913ab03e5d4fd92b2579d428cf3b89f8c71add2acef90508091505090565b6000807f5b43f313088137496832405d64cc708765db93c8144d82f7a7f806ac22d5603b90508091505090565b8280546113b690612442565b90600052602060002090601f0160209004810192826113d8576000855561141f565b82601f106113f157805160ff191683800117855561141f565b8280016001018555821561141f579182015b8281111561141e578251825591602001919060010190611403565b5b50905061142c9190611474565b5090565b6115b0806126e383390190565b60405180606001604052806000815260200160608152602001600073ffffffffffffffffffffffffffffffffffffffff1681525090565b5b8082111561148d576000816000905550600101611475565b5090565b600073ffffffffffffffffffffffffffffffffffffffff82169050919050565b60006114bc82611491565b9050919050565b6114cc816114b1565b82525050565b60006020820190506114e760008301846114c3565b92915050565b6000604051905090565b600080fd5b600080fd5b600080fd5b6000601f19601f8301169050919050565b7f4e487b7100000000000000000000000000000000000000000000000000000000600052604160045260246000fd5b61154f82611506565b810181811067ffffffffffffffff8211171561156e5761156d611517565b5b80604052505050565b60006115816114ed565b905061158d8282611546565b919050565b600080fd5b6000819050919050565b6115aa81611597565b81146115b557600080fd5b50565b6000813590506115c7816115a1565b92915050565b600080fd5b600080fd5b600067ffffffffffffffff8211156115f2576115f1611517565b5b6115fb82611506565b9050602081019050919050565b82818337600083830152505050565b600061162a611625846115d7565b611577565b905082815260208101848484011115611646576116456115d2565b5b611651848285611608565b509392505050565b600082601f83011261166e5761166d6115cd565b5b813561167e848260208601611617565b91505092915050565b611690816114b1565b811461169b57600080fd5b50565b6000813590506116ad81611687565b92915050565b6000606082840312156116c9576116c8611501565b5b6116d36060611577565b905060006116e3848285016115b8565b600083015250602082013567ffffffffffffffff81111561170757611706611592565b5b61171384828501611659565b60208301525060406117278482850161169e565b60408301525092915050565b600060208284031215611749576117486114f7565b5b600082013567ffffffffffffffff811115611767576117666114fc565b5b611773848285016116b3565b91505092915050565b6000611787826114b1565b9050919050565b6117978161177c565b81146117a257600080fd5b50565b6000813590506117b48161178e565b92915050565b6000606082840312156117d0576117cf611501565b5b6117da6060611577565b905060006117ea848285016115b8565b600083015250602082013567ffffffffffffffff81111561180e5761180d611592565b5b61181a84828501611659565b602083015250604082013567ffffffffffffffff81111561183e5761183d611592565b5b61184a84828501611659565b60408301525092915050565b6000806040838503121561186d5761186c6114f7565b5b600061187b858286016117a5565b925050602083013567ffffffffffffffff81111561189c5761189b6114fc565b5b6118a8858286016117ba565b9150509250929050565b6000602082840312156118c8576118c76114f7565b5b60006118d68482850161169e565b91505092915050565b6000602082840312156118f5576118f46114f7565b5b6000611903848285016117a5565b91505092915050565b600081519050919050565b600082825260208201905092915050565b6000819050602082019050919050565b61194181611597565b82525050565b60006119538383611938565b60208301905092915050565b6000602082019050919050565b60006119778261190c565b6119818185611917565b935061198c83611928565b8060005b838110156119bd5781516119a48882611947565b97506119af8361195f565b925050600181019050611990565b5085935050505092915050565b600060208201905081810360008301526119e4818461196c565b905092915050565b600081519050919050565b600082825260208201905092915050565b6000819050602082019050919050565b611a21816114b1565b82525050565b6000611a338383611a18565b60208301905092915050565b6000602082019050919050565b6000611a57826119ec565b611a6181856119f7565b9350611a6c83611a08565b8060005b83811015611a9d578151611a848882611a27565b9750611a8f83611a3f565b925050600181019050611a70565b5085935050505092915050565b60006020820190508181036000830152611ac48184611a4c565b905092915050565b600060208284031215611ae257611ae16114f7565b5b6000611af0848285016115b8565b91505092915050565b600081519050919050565b600082825260208201905092915050565b60005b83811015611b33578082015181840152602081019050611b18565b83811115611b42576000848401525b50505050565b6000611b5382611af9565b611b5d8185611b04565b9350611b6d818560208601611b15565b611b7681611506565b840191505092915050565b6000606083016000830151611b996000860182611938565b5060208301518482036020860152611bb18282611b48565b9150506040830151611bc66040860182611a18565b508091505092915050565b60006020820190508181036000830152611beb8184611b81565b905092915050565b60008060408385031215611c0a57611c096114f7565b5b6000611c188582860161169e565b9250506020611c298582860161169e565b9150509250929050565b60008115159050919050565b611c4881611c33565b8114611c5357600080fd5b50565b600081359050611c6581611c3f565b92915050565b600060c08284031215611c8157611c80611501565b5b611c8b60c0611577565b90506000611c9b848285016115b8565b600083015250602082013567ffffffffffffffff811115611cbf57611cbe611592565b5b611ccb84828501611659565b602083015250604082013567ffffffffffffffff811115611cef57611cee611592565b5b611cfb84828501611659565b6040830152506060611d0f848285016115b8565b6060830152506080611d23848285016115b8565b60808301525060a0611d3784828501611c56565b60a08301525092915050565b600080600060608486031215611d5c57611d5b6114f7565b5b600084013567ffffffffffffffff811115611d7a57611d796114fc565b5b611d8686828701611c6b565b9350506020611d97868287016115b8565b9250506040611da8868287016115b8565b9150509250925092565b60008060008060808587031215611dcc57611dcb6114f7565b5b6000611dda878288016117a5565b945050602085013567ffffffffffffffff811115611dfb57611dfa6114fc565b5b611e0787828801611659565b935050604085013567ffffffffffffffff811115611e2857611e276114fc565b5b611e3487828801611659565b9250506060611e45878288016115b8565b91505092959194509250565b600081519050919050565b600082825260208201905092915050565b6000819050602082019050919050565b6000606083016000830151611e956000860182611938565b5060208301518482036020860152611ead8282611b48565b9150506040830151611ec26040860182611a18565b508091505092915050565b6000611ed98383611e7d565b905092915050565b6000602082019050919050565b6000611ef982611e51565b611f038185611e5c565b935083602082028501611f1585611e6d565b8060005b85811015611f515784840389528151611f328582611ecd565b9450611f3d83611ee1565b925060208a01995050600181019050611f19565b50829750879550505050505092915050565b60006020820190508181036000830152611f7d8184611eee565b905092915050565b7f4e487b7100000000000000000000000000000000000000000000000000000000600052601160045260246000fd5b6000611fbf82611597565b9150611fca83611597565b9250827fffffffffffffffffffffffffffffffffffffffffffffffffffffffffffffffff03821115611fff57611ffe611f85565b5b828201905092915050565b600061201582611597565b91507fffffffffffffffffffffffffffffffffffffffffffffffffffffffffffffffff82141561204857612047611f85565b5b600182019050919050565b60008151905061206281611687565b92915050565b60006020828403121561207e5761207d6114f7565b5b600061208c84828501612053565b91505092915050565b600082825260208201905092915050565b7f4f6e6c792061636365737369626c652062792074686520636f72726573706f6e60008201527f64696e6720656c656374696f6e206f7267616e697a6572000000000000000000602082015250565b6000612102603783612095565b915061210d826120a6565b604082019050919050565b60006020820190508181036000830152612131816120f5565b9050919050565b60006060830160008301516121506000860182611938565b50602083015184820360208601526121688282611b48565b915050604083015184820360408601526121828282611b48565b9150508091505092915050565b600060208201905081810360008301526121a98184612138565b905092915050565b60006040820190506121c660008301856114c3565b81810360208301526121d88184612138565b90509392505050565b600067ffffffffffffffff8211156121fc576121fb611517565b5b602082029050602081019050919050565b600080fd5b600081519050612221816115a1565b92915050565b600061223a612235846121e1565b611577565b9050808382526020820190506020840283018581111561225d5761225c61220d565b5b835b8181101561228657806122728882612212565b84526020840193505060208101905061225f565b5050509392505050565b600082601f8301126122a5576122a46115cd565b5b81516122b5848260208601612227565b91505092915050565b6000602082840312156122d4576122d36114f7565b5b600082015167ffffffffffffffff8111156122f2576122f16114fc565b5b6122fe84828501612290565b91505092915050565b600067ffffffffffffffff82111561232257612321611517565b5b602082029050602081019050919050565b600061234661234184612307565b611577565b905080838252602082019050602084028301858111156123695761236861220d565b5b835b81811015612392578061237e8882612053565b84526020840193505060208101905061236b565b5050509392505050565b600082601f8301126123b1576123b06115cd565b5b81516123c1848260208601612333565b91505092915050565b6000602082840312156123e0576123df6114f7565b5b600082015167ffffffffffffffff8111156123fe576123fd6114fc565b5b61240a8482850161239c565b91505092915050565b7f4e487b7100000000000000000000000000000000000000000000000000000000600052602260045260246000fd5b6000600282049050600182168061245a57607f821691505b6020821081141561246e5761246d612413565b5b50919050565b600060408201905061248960008301856114c3565b61249660208301846114c3565b9392505050565b7f4f6e6c792061636365737369626c65206279207573657273207265676973657460008201527f65726564206173206f7267616e697a6572730000000000000000000000000000602082015250565b60006124f9603283612095565b91506125048261249d565b604082019050919050565b60006020820190508181036000830152612528816124ec565b9050919050565b600060208284031215612545576125446114f7565b5b600061255384828501612212565b91505092915050565b61256581611c33565b82525050565b600060c0830160008301516125836000860182611938565b506020830151848203602086015261259b8282611b48565b915050604083015184820360408601526125b58282611b48565b91505060608301516125ca6060860182611938565b5060808301516125dd6080860182611938565b5060a08301516125f060a086018261255c565b508091505092915050565b61260481611597565b82525050565b600060a0820190508181036000830152612624818861256b565b905061263360208301876125fb565b61264060408301866125fb565b61264d60608301856114c3565b61265a60808301846114c3565b9695505050505050565b600061266f82611af9565b6126798185612095565b9350612689818560208601611b15565b61269281611506565b840191505092915050565b600060608201905081810360008301526126b78186612664565b905081810360208301526126cb8185612664565b90506126da60408301846125fb565b94935050505056fe608060405234801561001057600080fd5b50611590806100206000396000f3fe608060405234801561001057600080fd5b50600436106100885760003560e01c80637d1659fa1161005b5780637d1659fa1461012957806387b4e8d314610145578063ca99067a14610161578063e5999c2b1461017d57610088565b8063213785a01461008d57806335b50828146100ab578063761db9fb146100db5780637a309b05146100f9575b600080fd5b6100956101ad565b6040516100a29190610c3c565b60405180910390f35b6100c560048036038101906100c09190610cc9565b6101b7565b6040516100d29190610d05565b60405180910390f35b6100e3610220565b6040516100f09190610dde565b60405180910390f35b610113600480360381019061010e9190610f59565b6102ae565b6040516101209190610dde565b60405180910390f35b610143600480360381019061013e9190610fb5565b6102b6565b005b61015f600480360381019061015a9190610fb5565b6104bf565b005b61017b60048036038101906101769190610cc9565b610787565b005b61019760048036038101906101929190610cc9565b610aaf565b6040516101a49190610dde565b60405180910390f35b6000600554905090565b6000600460008373ffffffffffffffffffffffffffffffffffffffff1673ffffffffffffffffffffffffffffffffffffffff16815260200190815260200160002060009054906101000a900473ffffffffffffffffffffffffffffffffffffffff169050919050565b606060018054806020026020016040519081016040528092919081815260200182805480156102a457602002820191906000526020600020905b8160009054906101000a900473ffffffffffffffffffffffffffffffffffffffff1673ffffffffffffffffffffffffffffffffffffffff168152602001906001019080831161025a575b5050505050905090565b606092915050565b60001515600360008373ffffffffffffffffffffffffffffffffffffffff1673ffffffffffffffffffffffffffffffffffffffff16815260200190815260200160002060008473ffffffffffffffffffffffffffffffffffffffff1673ffffffffffffffffffffffffffffffffffffffff16815260200190815260200160002060009054906101000a900460ff16151514610386576040517f08c379a000000000000000000000000000000000000000000000000000000000815260040161037d90611078565b60405180910390fd5b6001600360008373ffffffffffffffffffffffffffffffffffffffff1673ffffffffffffffffffffffffffffffffffffffff16815260200190815260200160002060008473ffffffffffffffffffffffffffffffffffffffff1673ffffffffffffffffffffffffffffffffffffffff16815260200190815260200160002060006101000a81548160ff021916908315150217905550600260008373ffffffffffffffffffffffffffffffffffffffff1673ffffffffffffffffffffffffffffffffffffffff168152602001908152602001600020819080600181540180825580915050600190039060005260206000200160009091909190916101000a81548173ffffffffffffffffffffffffffffffffffffffff021916908373ffffffffffffffffffffffffffffffffffffffff1602179055505050565b6000829050600560008154809291906104d7906110c7565b919050555060008173ffffffffffffffffffffffffffffffffffffffff166386852dca6040518163ffffffff1660e01b8152600401600060405180830381865afa158015610529573d6000803e3d6000fd5b505050506040513d6000823e3d601f19601f82011682018060405250810190610552919061132f565b60a0015190506001151581151514156105cd576001829080600181540180825580915050600190039060005260206000200160009091909190916101000a81548173ffffffffffffffffffffffffffffffffffffffff021916908373ffffffffffffffffffffffffffffffffffffffff160217905550610703565b600260008473ffffffffffffffffffffffffffffffffffffffff1673ffffffffffffffffffffffffffffffffffffffff168152602001908152602001600020829080600181540180825580915050600190039060005260206000200160009091909190916101000a81548173ffffffffffffffffffffffffffffffffffffffff021916908373ffffffffffffffffffffffffffffffffffffffff1602179055506001600360008673ffffffffffffffffffffffffffffffffffffffff1673ffffffffffffffffffffffffffffffffffffffff16815260200190815260200160002060008573ffffffffffffffffffffffffffffffffffffffff1673ffffffffffffffffffffffffffffffffffffffff16815260200190815260200160002060006101000a81548160ff0219169083151502179055505b82600460008673ffffffffffffffffffffffffffffffffffffffff1673ffffffffffffffffffffffffffffffffffffffff16815260200190815260200160002060006101000a81548173ffffffffffffffffffffffffffffffffffffffff021916908373ffffffffffffffffffffffffffffffffffffffff16021790555050505050565b6000819050600160028111156107a05761079f611378565b5b8173ffffffffffffffffffffffffffffffffffffffff16634e69d5606040518163ffffffff1660e01b8152600401602060405180830381865afa1580156107eb573d6000803e3d6000fd5b505050506040513d601f19601f8201168201806040525081019061080f91906113cc565b600281111561082157610820611378565b5b14610861576040517f08c379a00000000000000000000000000000000000000000000000000000000081526004016108589061146b565b60405180910390fd5b600060018054806020026020016040519081016040528092919081815260200182805480156108e557602002820191906000526020600020905b8160009054906101000a900473ffffffffffffffffffffffffffffffffffffffff1673ffffffffffffffffffffffffffffffffffffffff168152602001906001019080831161089b575b505050505090506000815190506000600182610901919061148b565b67ffffffffffffffff81111561091a57610919610e16565b5b6040519080825280602002602001820160405280156109485781602001602082028036833780820191505090505b50905060008060008091505b84821015610a4e578773ffffffffffffffffffffffffffffffffffffffff16868381518110610986576109856114bf565b5b602002602001015173ffffffffffffffffffffffffffffffffffffffff1614610a24578582815181106109bc576109bb6114bf565b5b60200260200101518484815181106109d7576109d66114bf565b5b602002602001019073ffffffffffffffffffffffffffffffffffffffff16908173ffffffffffffffffffffffffffffffffffffffff16815250508280610a1c906110c7565b935050610a3b565b600015158115151415610a3a5760009750600190505b5b8180610a46906110c7565b925050610954565b80610a8e576040517f08c379a0000000000000000000000000000000000000000000000000000000008152600401610a859061153a565b60405180910390fd5b8360019080519060200190610aa4929190610b7c565b505050505050505050565b6060600260008373ffffffffffffffffffffffffffffffffffffffff1673ffffffffffffffffffffffffffffffffffffffff168152602001908152602001600020805480602002602001604051908101604052809291908181526020018280548015610b7057602002820191906000526020600020905b8160009054906101000a900473ffffffffffffffffffffffffffffffffffffffff1673ffffffffffffffffffffffffffffffffffffffff1681526020019060010190808311610b26575b50505050509050919050565b828054828255906000526020600020908101928215610bf5579160200282015b82811115610bf45782518260006101000a81548173ffffffffffffffffffffffffffffffffffffffff021916908373ffffffffffffffffffffffffffffffffffffffff16021790555091602001919060010190610b9c565b5b509050610c029190610c06565b5090565b5b80821115610c1f576000816000905550600101610c07565b5090565b6000819050919050565b610c3681610c23565b82525050565b6000602082019050610c516000830184610c2d565b92915050565b6000604051905090565b600080fd5b600080fd5b600073ffffffffffffffffffffffffffffffffffffffff82169050919050565b6000610c9682610c6b565b9050919050565b610ca681610c8b565b8114610cb157600080fd5b50565b600081359050610cc381610c9d565b92915050565b600060208284031215610cdf57610cde610c61565b5b6000610ced84828501610cb4565b91505092915050565b610cff81610c8b565b82525050565b6000602082019050610d1a6000830184610cf6565b92915050565b600081519050919050565b600082825260208201905092915050565b6000819050602082019050919050565b610d5581610c8b565b82525050565b6000610d678383610d4c565b60208301905092915050565b6000602082019050919050565b6000610d8b82610d20565b610d958185610d2b565b9350610da083610d3c565b8060005b83811015610dd1578151610db88882610d5b565b9750610dc383610d73565b925050600181019050610da4565b5085935050505092915050565b60006020820190508181036000830152610df88184610d80565b905092915050565b600080fd5b6000601f19601f8301169050919050565b7f4e487b7100000000000000000000000000000000000000000000000000000000600052604160045260246000fd5b610e4e82610e05565b810181811067ffffffffffffffff82111715610e6d57610e6c610e16565b5b80604052505050565b6000610e80610c57565b9050610e8c8282610e45565b919050565b600067ffffffffffffffff821115610eac57610eab610e16565b5b602082029050602081019050919050565b600080fd5b6000610ed5610ed084610e91565b610e76565b90508083825260208201905060208402830185811115610ef857610ef7610ebd565b5b835b81811015610f215780610f0d8882610cb4565b845260208401935050602081019050610efa565b5050509392505050565b600082601f830112610f4057610f3f610e00565b5b8135610f50848260208601610ec2565b91505092915050565b60008060408385031215610f7057610f6f610c61565b5b600083013567ffffffffffffffff811115610f8e57610f8d610c66565b5b610f9a85828601610f2b565b9250506020610fab85828601610cb4565b9150509250929050565b60008060408385031215610fcc57610fcb610c61565b5b6000610fda85828601610cb4565b9250506020610feb85828601610cb4565b9150509250929050565b600082825260208201905092915050565b7f4f7267616e697a657220616c726561647920616464656420746f20746869732060008201527f656c656374696f6e000000000000000000000000000000000000000000000000602082015250565b6000611062602883610ff5565b915061106d82611006565b604082019050919050565b6000602082019050818103600083015261109181611055565b9050919050565b7f4e487b7100000000000000000000000000000000000000000000000000000000600052601160045260246000fd5b60006110d282610c23565b91507fffffffffffffffffffffffffffffffffffffffffffffffffffffffffffffffff82141561110557611104611098565b5b600182019050919050565b600080fd5b600080fd5b61112381610c23565b811461112e57600080fd5b50565b6000815190506111408161111a565b92915050565b600080fd5b600067ffffffffffffffff82111561116657611165610e16565b5b61116f82610e05565b9050602081019050919050565b60005b8381101561119a57808201518184015260208101905061117f565b838111156111a9576000848401525b50505050565b60006111c26111bd8461114b565b610e76565b9050828152602081018484840111156111de576111dd611146565b5b6111e984828561117c565b509392505050565b600082601f83011261120657611205610e00565b5b81516112168482602086016111af565b91505092915050565b60008115159050919050565b6112348161121f565b811461123f57600080fd5b50565b6000815190506112518161122b565b92915050565b600060c0828403121561126d5761126c611110565b5b61127760c0610e76565b9050600061128784828501611131565b600083015250602082015167ffffffffffffffff8111156112ab576112aa611115565b5b6112b7848285016111f1565b602083015250604082015167ffffffffffffffff8111156112db576112da611115565b5b6112e7848285016111f1565b60408301525060606112fb84828501611131565b606083015250608061130f84828501611131565b60808301525060a061132384828501611242565b60a08301525092915050565b60006020828403121561134557611344610c61565b5b600082015167ffffffffffffffff81111561136357611362610c66565b5b61136f84828501611257565b91505092915050565b7f4e487b7100000000000000000000000000000000000000000000000000000000600052602160045260246000fd5b600381106113b457600080fd5b50565b6000815190506113c6816113a7565b92915050565b6000602082840312156113e2576113e1610c61565b5b60006113f0848285016113b7565b91505092915050565b7f43616e6e6f742064656c65746520656c656374696f6e20616674657220656c6560008201527f6374696f6e206861732073746172746564000000000000000000000000000000602082015250565b6000611455603183610ff5565b9150611460826113f9565b604082019050919050565b6000602082019050818103600083015261148481611448565b9050919050565b600061149682610c23565b91506114a183610c23565b9250828210156114b4576114b3611098565b5b828203905092915050565b7f4e487b7100000000000000000000000000000000000000000000000000000000600052603260045260246000fd5b7f456c656374696f6e206e6f7420666f756e640000000000000000000000000000600082015250565b6000611524601283610ff5565b915061152f826114ee565b602082019050919050565b6000602082019050818103600083015261155381611517565b905091905056fea2646970667358221220b568cef784a8178df078a323ef694793d1ed430172ebce35d1130607e44941d064736f6c634300080a0033a2646970667358221220133ffc5751f14a6a5250031ed4a1a55fe6d24761cd73d51d36294aa15dce9a1664736f6c634300080a0033",
  "linkReferences": {},
  "deployedLinkReferences": {}
}