{
  "_format": "hh-sol-artifact-1",
  "contractName": "Authentication",
  "sourceName": "contracts/Authentication.sol",
  "abi": [
    {
      "inputs": [],
      "stateMutability": "nonpayable",
      "type": "constructor"
    },
    {
      "inputs": [
        {
          "components": [
            {
              "internalType": "uint256",
              "name": "organizerID",
              "type": "uint256"
            },
            {
              "internalType": "string",
              "name": "name",
              "type": "string"
            },
            {
              "internalType": "address",
              "name": "publicAddress",
              "type": "address"
            }
          ],
          "internalType": "struct ElectionOrganizer.OrganizerInfo",
          "name": "_organizerInfo",
          "type": "tuple"
        }
      ],
      "name": "createUser",
      "outputs": [],
      "stateMutability": "nonpayable",
      "type": "function"
    },
    {
      "inputs": [
        {
          "internalType": "address",
          "name": "_user",
          "type": "address"
        }
      ],
      "name": "getAuthStatus",
      "outputs": [
        {
          "internalType": "bool",
          "name": "",
          "type": "bool"
        }
      ],
      "stateMutability": "view",
      "type": "function"
    },
    {
      "inputs": [],
      "name": "getElectionOrganizerContract",
      "outputs": [
        {
          "internalType": "address",
          "name": "",
          "type": "address"
        }
      ],
      "stateMutability": "view",
      "type": "function"
    },
    {
      "inputs": [],
      "name": "getVoterContract",
      "outputs": [
        {
          "internalType": "address",
          "name": "",
          "type": "address"
        }
      ],
      "stateMutability": "view",
      "type": "function"
    }
  ],
  "bytecode": "0x608060405234801561001057600080fd5b5060405161001d906100a8565b604051809103906000f080158015610039573d6000803e3d6000fd5b50600180546001600160a01b0319166001600160a01b0392909216919091179055604051610066906100b5565b604051809103906000f080158015610082573d6000803e3d6000fd5b50600280546001600160a01b0319166001600160a01b03929092169190911790556100c2565b616574806104dc83390190565b61039c80616a5083390190565b61040b806100d16000396000f3fe608060405234801561001057600080fd5b506004361061004c5760003560e01c806314bde88e14610051578063378d47e9146100925780639b05e4b9146100b7578063bba92b2b146100cc575b600080fd5b61007d61005f3660046101ec565b6001600160a01b031660009081526020819052604090205460ff1690565b60405190151581526020015b60405180910390f35b6001546001600160a01b03165b6040516001600160a01b039091168152602001610089565b6100ca6100c536600461027e565b6100dd565b005b6002546001600160a01b031661009f565b6040808201516001600160a01b031660009081526020819052205460ff161561014c5760405162461bcd60e51b815260206004820152601760248201527f5573657220616c72656164792072656769737465726564000000000000000000604482015260640160405180910390fd5b6040808201516001600160a01b0390811660009081526020819052829020805460ff1916600190811790915554915162aea7fd60e51b81529116906315d4ffa09061019b908490600401610357565b600060405180830381600087803b1580156101b557600080fd5b505af11580156101c9573d6000803e3d6000fd5b5050505050565b80356001600160a01b03811681146101e757600080fd5b919050565b6000602082840312156101fe57600080fd5b610207826101d0565b9392505050565b634e487b7160e01b600052604160045260246000fd5b6040516060810167ffffffffffffffff811182821017156102475761024761020e565b60405290565b604051601f8201601f1916810167ffffffffffffffff811182821017156102765761027661020e565b604052919050565b6000602080838503121561029157600080fd5b823567ffffffffffffffff808211156102a957600080fd5b90840190606082870312156102bd57600080fd5b6102c5610224565b8235815283830135828111156102da57600080fd5b8301601f810188136102eb57600080fd5b8035838111156102fd576102fd61020e565b61030f601f8201601f1916870161024d565b9350808452888682840101111561032557600080fd5b8086830187860137600086828601015250508184820152610348604084016101d0565b60408201529695505050505050565b600060208083528351818401528084015160606040850152805180608086015260005b818110156103965782810184015186820160a00152830161037a565b818111156103a857600060a083880101525b5060408601516001600160a01b03811660608701529250601f01601f19169390930160a00194935050505056fea26469706673582212209bcf795337a7e3c8fb75d2d5270a1a9a0aa62af7ccfeefb8bc7805729226a38c64736f6c63430008090033608060405234801561001057600080fd5b506064600355604051610022906100ad565b604051809103906000f08015801561003e573d6000803e3d6000fd5b50600580546001600160a01b0319166001600160a01b039290921691909117905560405161006b906100bb565b604051809103906000f080158015610087573d6000803e3d6000fd5b50600680546001600160a01b0319166001600160a01b03929092169190911790556100c9565b61060a806200151783390190565b614a538062001b2183390190565b61143e80620000d96000396000f3fe608060405234801561001057600080fd5b50600436106100b45760003560e01c8063446a37e011610071578063446a37e01461014457806379db9ffe146101645780637f934bdb146101845780639f3a7f5214610197578063a8c019871461019f578063a95bc635146101b457600080fd5b80630249ff4d146100b957806315d4ffa0146100e357806325fb97a9146100f8578063326e0d281461010b57806332fb68cd1461011e57806339d8a4511461012f575b600080fd5b6005546001600160a01b03165b6040516001600160a01b0390911681526020015b60405180910390f35b6100f66100f1366004610d29565b6101c7565b005b6100c6610106366004610db7565b61035d565b6100f6610119366004610dd0565b6103e0565b6006546001600160a01b03166100c6565b610137610570565b6040516100da9190610e80565b610157610152366004610ecd565b6105f5565b6040516100da9190610ef1565b610177610172366004610db7565b61066e565b6040516100da9190610fb2565b6100f6610192366004610fc5565b610770565b6101376109b7565b6101a76109fc565b6040516100da9190611089565b6101776101c2366004610ecd565b610b0d565b600060035460016101d89190611101565b80835260008054600181018255908052835160039091027f290decd9548b62a8d60345a988386fc84ba6bc95484008f6362f93160ef3e563810191825560208086015180519495508694610253937f290decd9548b62a8d60345a988386fc84ba6bc95484008f6362f93160ef3e56401929190910190610b75565b5060409182015160029190910180546001600160a01b0319166001600160a01b0392831617905583820151166000908152600160208181529290912084518155828501518051869492936102ac93908501920190610b75565b50604091820151600291820180546001600160a01b0319166001600160a01b0390921691909117905583516000908152602091825291909120835181558184015180518593610302926001850192910190610b75565b5060409182015160029190910180546001600160a01b0319166001600160a01b03928316179055838201511660009081526004602052908120805460ff19166001179055600380549161035483611119565b91905055505050565b6005546040516325fb97a960e01b8152600481018390526000916001600160a01b0316906325fb97a99060240160206040518083038186803b1580156103a257600080fd5b505afa1580156103b6573d6000803e3d6000fd5b505050506040513d601f19601f820116820180604052508101906103da9190611134565b92915050565b816001600160a01b031663e04b1c0c6040518163ffffffff1660e01b815260040160206040518083038186803b15801561041957600080fd5b505afa15801561042d573d6000803e3d6000fd5b505050506040513d601f19601f820116820180604052508101906104519190611134565b336001600160a01b038216146104d45760405162461bcd60e51b815260206004820152603760248201527f4f6e6c792061636365737369626c652062792074686520636f72726573706f6e60448201527f64696e6720656c656374696f6e206f7267616e697a657200000000000000000060648201526084015b60405180910390fd5b60405163139fff4360e11b81526001600160a01b0384169063273ffe8690610500908590600401611192565b600060405180830381600087803b15801561051a57600080fd5b505af115801561052e573d6000803e3d6000fd5b505050507fd0c201c1465de1cf8804d8aa806f3674abe49346aa6a18624a868dfa1410892183836040516105639291906111a5565b60405180910390a1505050565b6005546040516364372f7360e01b81523360048201526060916001600160a01b0316906364372f739060240160006040518083038186803b1580156105b457600080fd5b505afa1580156105c8573d6000803e3d6000fd5b505050506040513d6000823e601f3d908101601f191682016040526105f091908101906111f5565b905090565b6060816001600160a01b031663de2927896040518163ffffffff1660e01b8152600401600060405180830381600087803b15801561063257600080fd5b505af1158015610646573d6000803e3d6000fd5b505050506040513d6000823e601f3d908101601f191682016040526103da9190810190611294565b61069b6040518060600160405280600081526020016060815260200160006001600160a01b031681525090565b60026000838152602001908152602001600020604051806060016040529081600082015481526020016001820180546106d39061131a565b80601f01602080910402602001604051908101604052809291908181526020018280546106ff9061131a565b801561074c5780601f106107215761010080835404028352916020019161074c565b820191906000526020600020905b81548152906001019060200180831161072f57829003601f168201915b5050509183525050600291909101546001600160a01b031660209091015292915050565b3360009081526004602052604090205460ff166107ea5760405162461bcd60e51b815260206004820152603260248201527f4f6e6c792061636365737369626c65206279207573657273207265676973657460448201527165726564206173206f7267616e697a65727360701b60648201526084016104cb565b600080600560009054906101000a90046001600160a01b03166001600160a01b031663213785a06040518163ffffffff1660e01b815260040160206040518083038186803b15801561083b57600080fd5b505afa15801561084f573d6000803e3d6000fd5b505050506040513d601f19601f820116820180604052508101906108739190611355565b61087e906001611101565b808652600654604051631140fc1960e01b81529192506001600160a01b031690631140fc19906108ba908890889088903390309060040161136e565b602060405180830381600087803b1580156108d457600080fd5b505af11580156108e8573d6000803e3d6000fd5b505050506040513d601f19601f8201168201806040525081019061090c9190611134565b6005546040516387b4e8d360e01b81526001600160a01b0380841660048301523360248301529294509116906387b4e8d390604401600060405180830381600087803b15801561095b57600080fd5b505af115801561096f573d6000803e3d6000fd5b50506040516001600160a01b03851681527f49fdfe60e25ebf09e8f8c20a8a10c828d9b82cecf7b04e1ecb59ae51f79f82779250602001905060405180910390a15050505050565b60055460408051634f9d3fa960e11b815290516060926001600160a01b031691639f3a7f52916004808301926000929190829003018186803b1580156105b457600080fd5b60606000805480602002602001604051908101604052809291908181526020016000905b82821015610b04578382906000526020600020906003020160405180606001604052908160008201548152602001600182018054610a5d9061131a565b80601f0160208091040260200160405190810160405280929190818152602001828054610a899061131a565b8015610ad65780601f10610aab57610100808354040283529160200191610ad6565b820191906000526020600020905b815481529060010190602001808311610ab957829003601f168201915b5050509183525050600291909101546001600160a01b03166020918201529082526001929092019101610a20565b50505050905090565b610b3a6040518060600160405280600081526020016060815260200160006001600160a01b031681525090565b6001600160a01b038216600090815260016020818152604092839020835160608101909452805484529182018054918401916106d39061131a565b828054610b819061131a565b90600052602060002090601f016020900481019282610ba35760008555610be9565b82601f10610bbc57805160ff1916838001178555610be9565b82800160010185558215610be9579182015b82811115610be9578251825591602001919060010190610bce565b50610bf5929150610bf9565b5090565b5b80821115610bf55760008155600101610bfa565b634e487b7160e01b600052604160045260246000fd5b6040516060810167ffffffffffffffff81118282101715610c4757610c47610c0e565b60405290565b60405160a0810167ffffffffffffffff81118282101715610c4757610c47610c0e565b604051601f8201601f1916810167ffffffffffffffff81118282101715610c9957610c99610c0e565b604052919050565b600082601f830112610cb257600080fd5b813567ffffffffffffffff811115610ccc57610ccc610c0e565b610cdf601f8201601f1916602001610c70565b818152846020838601011115610cf457600080fd5b816020850160208301376000918101602001919091529392505050565b6001600160a01b0381168114610d2657600080fd5b50565b600060208284031215610d3b57600080fd5b813567ffffffffffffffff80821115610d5357600080fd5b9083019060608286031215610d6757600080fd5b610d6f610c24565b82358152602083013582811115610d8557600080fd5b610d9187828601610ca1565b60208301525060408301359250610da783610d11565b6040810192909252509392505050565b600060208284031215610dc957600080fd5b5035919050565b60008060408385031215610de357600080fd5b8235610dee81610d11565b9150602083013567ffffffffffffffff80821115610e0b57600080fd5b9084019060608287031215610e1f57600080fd5b610e27610c24565b82358152602083013582811115610e3d57600080fd5b610e4988828601610ca1565b602083015250604083013582811115610e6157600080fd5b610e6d88828601610ca1565b6040830152508093505050509250929050565b6020808252825182820181905260009190848201906040850190845b81811015610ec15783516001600160a01b031683529284019291840191600101610e9c565b50909695505050505050565b600060208284031215610edf57600080fd5b8135610eea81610d11565b9392505050565b6020808252825182820181905260009190848201906040850190845b81811015610ec157835183529284019291840191600101610f0d565b6000815180845260005b81811015610f4f57602081850181015186830182015201610f33565b81811115610f61576000602083870101525b50601f01601f19169290920160200192915050565b805182526000602082015160606020850152610f956060850182610f29565b6040938401516001600160a01b0316949093019390935250919050565b602081526000610eea6020830184610f76565b600080600060608486031215610fda57600080fd5b833567ffffffffffffffff80821115610ff257600080fd5b9085019060a0828803121561100657600080fd5b61100e610c4d565b8235815260208301358281111561102457600080fd5b61103089828601610ca1565b60208301525060408301358281111561104857600080fd5b61105489828601610ca1565b604083015250606083013560608201526080830135608082015280955050505060208401359150604084013590509250925092565b6000602080830181845280855180835260408601915060408160051b870101925083870160005b828110156110de57603f198886030184526110cc858351610f76565b945092850192908501906001016110b0565b5092979650505050505050565b634e487b7160e01b600052601160045260246000fd5b60008219821115611114576111146110eb565b500190565b600060001982141561112d5761112d6110eb565b5060010190565b60006020828403121561114657600080fd5b8151610eea81610d11565b8051825260006020820151606060208501526111706060850182610f29565b9050604083015184820360408601526111898282610f29565b95945050505050565b602081526000610eea6020830184611151565b6001600160a01b03831681526040602082018190526000906111c990830184611151565b949350505050565b600067ffffffffffffffff8211156111eb576111eb610c0e565b5060051b60200190565b6000602080838503121561120857600080fd5b825167ffffffffffffffff81111561121f57600080fd5b8301601f8101851361123057600080fd5b805161124361123e826111d1565b610c70565b81815260059190911b8201830190838101908783111561126257600080fd5b928401925b8284101561128957835161127a81610d11565b82529284019290840190611267565b979650505050505050565b600060208083850312156112a757600080fd5b825167ffffffffffffffff8111156112be57600080fd5b8301601f810185136112cf57600080fd5b80516112dd61123e826111d1565b81815260059190911b820183019083810190878311156112fc57600080fd5b928401925b8284101561128957835182529284019290840190611301565b600181811c9082168061132e57607f821691505b6020821081141561134f57634e487b7160e01b600052602260045260246000fd5b50919050565b60006020828403121561136757600080fd5b5051919050565b60a08152855160a08201526000602087015160a060c0840152611395610140840182610f29565b90506040880151609f198483030160e08501526113b28282610f29565b915050606088015161010084015260808801516101208401528091505085602083015284604083015260018060a01b03841660608301526113fe60808301846001600160a01b03169052565b969550505050505056fea2646970667358221220fc5d7dff2327a37dbb878906e7a3665586a45f66c371e32a875272f03e568f8764736f6c63430008090033608060405234801561001057600080fd5b506103e86004556105e4806100266000396000f3fe608060405234801561001057600080fd5b50600436106100575760003560e01c8063213785a01461005c57806325fb97a91461007257806364372f73146100b357806387b4e8d3146100d35780639f3a7f52146100e8575b600080fd5b6004546040519081526020015b60405180910390f35b61009b6100803660046102fc565b6000908152600360205260409020546001600160a01b031690565b6040516001600160a01b039091168152602001610069565b6100c66100c136600461032d565b6100f0565b6040516100699190610351565b6100e66100e136600461039e565b610166565b005b6100c661029a565b6001600160a01b03811660009081526002602090815260409182902080548351818402810184019094528084526060939283018282801561015a57602002820191906000526020600020905b81546001600160a01b0316815260019091019060200180831161013c575b50505050509050919050565b60048054906000610176836103d7565b909155505060008054600181810183557f290decd9548b62a8d60345a988386fc84ba6bc95484008f6362f93160ef3e56390910180546001600160a01b038087166001600160a01b0319928316811790935585168452600260209081526040808620805495860181558652908520909301805490911682179055815163434296e560e11b8152915185936003939092916386852dca916004808201928692909190829003018186803b15801561022b57600080fd5b505afa15801561023f573d6000803e3d6000fd5b505050506040513d6000823e601f3d908101601f1916820160405261026791908101906104fc565b518152602081019190915260400160002080546001600160a01b0319166001600160a01b03929092169190911790555050565b606060008054806020026020016040519081016040528092919081815260200182805480156102f257602002820191906000526020600020905b81546001600160a01b031681526001909101906020018083116102d4575b5050505050905090565b60006020828403121561030e57600080fd5b5035919050565b6001600160a01b038116811461032a57600080fd5b50565b60006020828403121561033f57600080fd5b813561034a81610315565b9392505050565b6020808252825182820181905260009190848201906040850190845b818110156103925783516001600160a01b03168352928401929184019160010161036d565b50909695505050505050565b600080604083850312156103b157600080fd5b82356103bc81610315565b915060208301356103cc81610315565b809150509250929050565b60006000198214156103f957634e487b7160e01b600052601160045260246000fd5b5060010190565b634e487b7160e01b600052604160045260246000fd5b60405160a0810167ffffffffffffffff8111828210171561043957610439610400565b60405290565b604051601f8201601f1916810167ffffffffffffffff8111828210171561046857610468610400565b604052919050565b600082601f83011261048157600080fd5b815167ffffffffffffffff81111561049b5761049b610400565b60206104af601f8301601f1916820161043f565b82815285828487010111156104c357600080fd5b60005b838110156104e15785810183015182820184015282016104c6565b838111156104f25760008385840101525b5095945050505050565b60006020828403121561050e57600080fd5b815167ffffffffffffffff8082111561052657600080fd5b9083019060a0828603121561053a57600080fd5b610542610416565b8251815260208301518281111561055857600080fd5b61056487828601610470565b60208301525060408301518281111561057c57600080fd5b61058887828601610470565b60408301525060608301516060820152608083015160808201528093505050509291505056fea264697066735822122057d9464a1d3c555f7aaeb308a1cee3a99d9a5a7d8f74a93f9362187cef9710fc64736f6c63430008090033608060405234801561001057600080fd5b50600280546001600160a01b03191633179055614a21806100326000396000f3fe60806040523480156200001157600080fd5b50600436106200002e5760003560e01c80631140fc191462000033575b600080fd5b6200004a6200004436600462000501565b62000066565b6040516001600160a01b03909116815260200160405180910390f35b6002546000906001600160a01b03163314620000e45760405162461bcd60e51b815260206004820152603360248201527f4d7573742062652063616c6c65642066726f6d2074686520656c656374696f6e604482015272081bdc99d85b9a5e995c8818dbdb9d1c9858dd606a1b606482015260840160405180910390fd5b6000620000f18662000160565b50620000fe86866200025c565b5060005460015460405189926001600160a01b03908116921690879087906200012790620003ab565b6200013795949392919062000646565b604051809103906000f08015801562000154573d6000803e3d6000fd5b50979650505050505050565b60008160011415620001be576040516200017a90620003b9565b604051809103906000f08015801562000197573d6000803e3d6000fd5b50600080546001600160a01b0319166001600160a01b03929092169190911790556200024b565b8160021415620001d6576040516200017a90620003c7565b8160031415620001e6576200024b565b8160041415620001fe576040516200017a90620003d5565b6040516200020c90620003b9565b604051809103906000f08015801562000229573d6000803e3d6000fd5b50600080546001600160a01b0319166001600160a01b03929092169190911790555b50506000546001600160a01b031690565b6000826001141562000279576200027382620002d0565b620002bd565b82600214156200028e57620002738262000337565b82600314156200029e57620002bd565b8260041415620002b257620002736200035d565b620002bd82620002d0565b506001546001600160a01b031692915050565b80600114156200032957604051620002e890620003e3565b604051809103906000f08015801562000305573d6000803e3d6000fd5b50600180546001600160a01b0319166001600160a01b039290921691909117905550565b604051620002e890620003e3565b80600114156200034f57604051620002e890620003f1565b604051620002e890620003f1565b6040516200036b90620003ff565b604051809103906000f08015801562000388573d6000803e3d6000fd5b50600180546001600160a01b0319166001600160a01b0392909216919091179055565b611b5a80620006ef83390190565b6104f5806200224983390190565b610694806200273e83390190565b61069e8062002dd283390190565b610639806200347083390190565b6106638062003aa983390190565b6108e0806200410c83390190565b634e487b7160e01b600052604160045260246000fd5b60405160a0810167ffffffffffffffff811182821017156200044957620004496200040d565b60405290565b600082601f8301126200046157600080fd5b813567ffffffffffffffff808211156200047f576200047f6200040d565b604051601f8301601f19908116603f01168101908282118183101715620004aa57620004aa6200040d565b81604052838152866020858801011115620004c457600080fd5b836020870160208301376000602085830101528094505050505092915050565b80356001600160a01b0381168114620004fc57600080fd5b919050565b600080600080600060a086880312156200051a57600080fd5b853567ffffffffffffffff808211156200053357600080fd5b9087019060a0828a0312156200054857600080fd5b6200055262000423565b823581526020830135828111156200056957600080fd5b620005778b8286016200044f565b6020830152506040830135828111156200059057600080fd5b6200059e8b8286016200044f565b60408301525060608301356060820152608083013560808201528097505050506020860135935060408601359250620005da60608701620004e4565b9150620005ea60808701620004e4565b90509295509295909350565b6000815180845260005b818110156200061e5760208185018101518683018201520162000600565b8181111562000631576000602083870101525b50601f01601f19169290920160200192915050565b60a08152855160a08201526000602087015160a060c08401526200066f610140840182620005f6565b90506040880151609f198483030160e08501526200068e8282620005f6565b60608a015161010086015260808a01516101208601526001600160a01b038981166020870152881660408601529250620006c6915050565b6001600160a01b03841660608301526001600160a01b0383166080830152969550505050505056fe60806040523480156200001157600080fd5b5060405162001b5a38038062001b5a8339810160408190526200003491620002d8565b600980546001600160a01b038085166001600160a01b031992831617909255600a80549284169290911691909117905584516000908155602080870151805188939262000087926001929101906200010c565b5060408201518051620000a59160028401916020909101906200010c565b50606082015160038201556080909101516004909101555050600c8054600d80546001600160a01b0319166001600160a01b039485161790556103e86008556000600b556001600160a81b031916610100939092169290920260ff1916179055506200041b565b8280546200011a90620003de565b90600052602060002090601f0160209004810192826200013e576000855562000189565b82601f106200015957805160ff191683800117855562000189565b8280016001018555821562000189579182015b82811115620001895782518255916020019190600101906200016c565b50620001979291506200019b565b5090565b5b808211156200019757600081556001016200019c565b634e487b7160e01b600052604160045260246000fd5b60405160a081016001600160401b0381118282101715620001ed57620001ed620001b2565b60405290565b604051601f8201601f191681016001600160401b03811182821017156200021e576200021e620001b2565b604052919050565b600082601f8301126200023857600080fd5b81516001600160401b03811115620002545762000254620001b2565b60206200026a601f8301601f19168201620001f3565b82815285828487010111156200027f57600080fd5b60005b838110156200029f57858101830151828201840152820162000282565b83811115620002b15760008385840101525b5095945050505050565b80516001600160a01b0381168114620002d357600080fd5b919050565b600080600080600060a08688031215620002f157600080fd5b85516001600160401b03808211156200030957600080fd5b9087019060a0828a0312156200031e57600080fd5b62000328620001c8565b825181526020830151828111156200033f57600080fd5b6200034d8b82860162000226565b6020830152506040830151828111156200036657600080fd5b620003748b82860162000226565b6040830152506060830151606082015260808301516080820152809750505050620003a260208701620002bb565b9350620003b260408701620002bb565b9250620003c260608701620002bb565b9150620003d260808701620002bb565b90509295509295909350565b600181811c90821680620003f357607f821691505b602082108114156200041557634e487b7160e01b600052602260045260246000fd5b50919050565b61172f806200042b6000396000f3fe608060405234801561001057600080fd5b50600436106100ea5760003560e01c8063822023961161008c578063a1818ac411610066578063a1818ac4146101d1578063de292789146101e4578063df15c37e146101f9578063e04b1c0c1461020157600080fd5b8063822023961461019457806386852dca146101b45780639baec8b9146101c957600080fd5b806330a56347116100c857806330a563471461013457806337349a7d1461013c5780634e69d5601461015c578063521b0dcc1461017157600080fd5b806306a49fce146100ef57806311174a291461010d578063273ffe861461011f575b600080fd5b6100f7610212565b6040516101049190610fd5565b60405180910390f35b600b545b604051908152602001610104565b61013261012d3660046110ee565b61039f565b005b600854610111565b610144610664565b6040516001600160a01b039091168152602001610104565b6101646106a1565b60405161010491906111b5565b61018461017f3660046111f9565b6106ca565b6040519015158152602001610104565b6101a76101a236600461121b565b610753565b6040516101049190611234565b6101bc6108ca565b6040516101049190611247565b610144610a4d565b6101326101df3660046112cf565b610a8f565b6101ec610be5565b60405161010491906113c4565b6101ec610dc6565b6009546001600160a01b0316610144565b60606005805480602002602001604051908101604052809291908181526020016000905b82821015610396578382906000526020600020906003020160405180606001604052908160008201548152602001600182018054610273906113d7565b80601f016020809104026020016040519081016040528092919081815260200182805461029f906113d7565b80156102ec5780601f106102c1576101008083540402835291602001916102ec565b820191906000526020600020905b8154815290600101906020018083116102cf57829003601f168201915b50505050508152602001600282018054610305906113d7565b80601f0160208091040260200160405190810160405280929190818152602001828054610331906113d7565b801561037e5780601f106103535761010080835404028352916020019161037e565b820191906000526020600020905b81548152906001019060200180831161036157829003601f168201915b50505050508152505081526020019060010190610236565b50505050905090565b600a546001600160a01b0316331461041a5760405162461bcd60e51b815260206004820152603360248201527f4d7573742062652063616c6c65642066726f6d2074686520656c656374696f6e604482015272081bdc99d85b9a5e995c8818dbdb9d1c9858dd606a1b60648201526084015b60405180910390fd5b60016104246106a1565b60028111156104355761043561119f565b1461049b5760405162461bcd60e51b815260206004820152603060248201527f43616e6e6f74206164642063616e6469646174657320616674657220656c656360448201526f1d1a5bdb881a185cc81cdd185c9d195960821b6064820152608401610411565b600060085460016104ac9190611428565b80835260058054600181018255600091909152835160039091027f036b6384b5eca791c62761152d0c79bb0604c104a5fb6f4eb0703f3154bb3db081019182556020808601518051949550869461052a937f036b6384b5eca791c62761152d0c79bb0604c104a5fb6f4eb0703f3154bb3db101929190910190610e74565b5060408201518051610546916002840191602090910190610e74565b5050600c54835160405163e844d09760e01b815260048101919091526101009091046001600160a01b0316915063e844d09790602401600060405180830381600087803b15801561059657600080fd5b505af11580156105aa573d6000803e3d6000fd5b505083516000908152600760209081526040909120855181558186015180518795509193506105e0926001850192910190610e74565b50604082015180516105fc916002840191602090910190610e74565b5050600880549150600061060f83611440565b9091555050600c546040517f4d9dd414a40890e16b7bd0ea98bdf9d5b55c3d20cfe4b18febda0d60fb32a60c9161065891309161010090046001600160a01b031690869061145b565b60405180910390a15050565b6009546000906001600160a01b031633146106915760405162461bcd60e51b815260040161041190611487565b50600d546001600160a01b031690565b6003546000904210156106b45750600190565b6004544210156106c45750600090565b50600290565b600c54604051631486c37360e21b81526001600160a01b0383811660048301526000926101009004169063521b0dcc9060240160206040518083038186803b15801561071557600080fd5b505afa158015610729573d6000803e3d6000fd5b505050506040513d601f19601f8201168201806040525081019061074d91906114cc565b92915050565b61077760405180606001604052806000815260200160608152602001606081525090565b60076000838152602001908152602001600020604051806060016040529081600082015481526020016001820180546107af906113d7565b80601f01602080910402602001604051908101604052809291908181526020018280546107db906113d7565b80156108285780601f106107fd57610100808354040283529160200191610828565b820191906000526020600020905b81548152906001019060200180831161080b57829003601f168201915b50505050508152602001600282018054610841906113d7565b80601f016020809104026020016040519081016040528092919081815260200182805461086d906113d7565b80156108ba5780601f1061088f576101008083540402835291602001916108ba565b820191906000526020600020905b81548152906001019060200180831161089d57829003601f168201915b5050505050815250509050919050565b6108fc6040518060a0016040528060008152602001606081526020016060815260200160008152602001600081525090565b6040805160a0810190915260008054825260018054602084019190610920906113d7565b80601f016020809104026020016040519081016040528092919081815260200182805461094c906113d7565b80156109995780601f1061096e57610100808354040283529160200191610999565b820191906000526020600020905b81548152906001019060200180831161097c57829003601f168201915b505050505081526020016002820180546109b2906113d7565b80601f01602080910402602001604051908101604052809291908181526020018280546109de906113d7565b8015610a2b5780601f10610a0057610100808354040283529160200191610a2b565b820191906000526020600020905b815481529060010190602001808311610a0e57829003601f168201915b5050505050815260200160038201548152602001600482015481525050905090565b6009546000906001600160a01b03163314610a7a5760405162461bcd60e51b815260040161041190611487565b50600c5461010090046001600160a01b031690565b6000610a996106a1565b6002811115610aaa57610aaa61119f565b14610b035760405162461bcd60e51b815260206004820152602360248201527f456c656374696f6e206e6565647320746f2062652061637469766520746f20766044820152626f746560e81b6064820152608401610411565b600c5460405163286062b160e21b81526101009091046001600160a01b03169063a1818ac490610b3d9087908790879087906004016114ee565b600060405180830381600087803b158015610b5757600080fd5b505af1158015610b6b573d6000803e3d6000fd5b5050600b8054925090506000610b8083611440565b9091555050600c546000848152600760205260409081902090517fd589db416dab4dff131e94610b2d02ce215ded85a2943a2ea59acd2153a8518292610bd7926101009091046001600160a01b03169186906115c5565b60405180910390a150505050565b60606002610bf16106a1565b6002811115610c0257610c0261119f565b14610c695760405162461bcd60e51b815260206004820152603160248201527f526573756c747320617265206465636c61726564206f6e6c792061667465722060448201527074686520656c656374696f6e20656e647360781b6064820152608401610411565b600c5460ff16610db957600d54600c54600b54604051630641a25160e51b81526001600160a01b0361010090930483166004820152602481019190915291169063c8344a2090604401600060405180830381600087803b158015610ccc57600080fd5b505af1158015610ce0573d6000803e3d6000fd5b505050506040513d6000823e601f3d908101601f19168201604052610d089190810190611621565b8051610d1c91600691602090910190610ef8565b50600c805460ff191660011790556040517f28e5f582afeee46fd13ea548ad814f45b1d4a5159990336d5e66deb48a960e4c90610d5b906006906116b2565b60405180910390a16006805480602002602001604051908101604052809291908181526020018280548015610daf57602002820191906000526020600020905b815481526020019060010190808311610d9b575b5050505050905090565b610dc1610dc6565b905090565b600c5460609060ff161515600114610e205760405162461bcd60e51b815260206004820152601b60248201527f526573756c7473206172656e2774206465636c617265642079657400000000006044820152606401610411565b6006805480602002602001604051908101604052809291908181526020018280548015610daf5760200282019190600052602060002090815481526020019060010190808311610d9b575050505050905090565b828054610e80906113d7565b90600052602060002090601f016020900481019282610ea25760008555610ee8565b82601f10610ebb57805160ff1916838001178555610ee8565b82800160010185558215610ee8579182015b82811115610ee8578251825591602001919060010190610ecd565b50610ef4929150610f32565b5090565b828054828255906000526020600020908101928215610ee85791602002820182811115610ee8578251825591602001919060010190610ecd565b5b80821115610ef45760008155600101610f33565b6000815180845260005b81811015610f6d57602081850181015186830182015201610f51565b81811115610f7f576000602083870101525b50601f01601f19169290920160200192915050565b805182526000602082015160606020850152610fb36060850182610f47565b905060408301518482036040860152610fcc8282610f47565b95945050505050565b6000602080830181845280855180835260408601915060408160051b870101925083870160005b8281101561102a57603f19888603018452611018858351610f94565b94509285019290850190600101610ffc565b5092979650505050505050565b634e487b7160e01b600052604160045260246000fd5b604051601f8201601f1916810167ffffffffffffffff8111828210171561107657611076611037565b604052919050565b600082601f83011261108f57600080fd5b813567ffffffffffffffff8111156110a9576110a9611037565b6110bc601f8201601f191660200161104d565b8181528460208386010111156110d157600080fd5b816020850160208301376000918101602001919091529392505050565b60006020828403121561110057600080fd5b813567ffffffffffffffff8082111561111857600080fd5b908301906060828603121561112c57600080fd5b60405160608101818110838211171561114757611147611037565b6040528235815260208301358281111561116057600080fd5b61116c8782860161107e565b60208301525060408301358281111561118457600080fd5b6111908782860161107e565b60408301525095945050505050565b634e487b7160e01b600052602160045260246000fd5b60208101600383106111d757634e487b7160e01b600052602160045260246000fd5b91905290565b80356001600160a01b03811681146111f457600080fd5b919050565b60006020828403121561120b57600080fd5b611214826111dd565b9392505050565b60006020828403121561122d57600080fd5b5035919050565b6020815260006112146020830184610f94565b60208152815160208201526000602083015160a0604084015261126d60c0840182610f47565b90506040840151601f1984830301606085015261128a8282610f47565b91505060608401516080840152608084015160a08401528091505092915050565b600067ffffffffffffffff8211156112c5576112c5611037565b5060051b60200190565b600080600080608085870312156112e557600080fd5b6112ee856111dd565b9350602080860135935060408601359250606086013567ffffffffffffffff81111561131957600080fd5b8601601f8101881361132a57600080fd5b803561133d611338826112ab565b61104d565b81815260059190911b8201830190838101908a83111561135c57600080fd5b928401925b8284101561137a57833582529284019290840190611361565b979a9699509497505050505050565b600081518084526020808501945080840160005b838110156113b95781518752958201959082019060010161139d565b509495945050505050565b6020815260006112146020830184611389565b600181811c908216806113eb57607f821691505b6020821081141561140c57634e487b7160e01b600052602260045260246000fd5b50919050565b634e487b7160e01b600052601160045260246000fd5b6000821982111561143b5761143b611412565b500190565b600060001982141561145457611454611412565b5060010190565b6001600160a01b03848116825283166020820152606060408201819052600090610fcc90830184610f94565b60208082526025908201527f43616c6c6572206d7573742062652074686520656c656374696f6e206f7267616040820152643734bd32b960d91b606082015260800190565b6000602082840312156114de57600080fd5b8151801515811461121457600080fd5b60018060a01b038516815283602082015282604082015260806060820152600061151b6080830184611389565b9695505050505050565b8054600090600181811c908083168061153f57607f831692505b602080841082141561156157634e487b7160e01b600052602260045260246000fd5b8388526020880182801561157c576001811461158d576115b8565b60ff198716825282820197506115b8565b60008981526020902060005b878110156115b257815484820152908601908401611599565b83019850505b5050505050505092915050565b6001600160a01b0384168152606060208201819052835481830152608082015260006115f760c0830160018601611525565b828103605f190160a08401526116108160028701611525565b915050826040830152949350505050565b6000602080838503121561163457600080fd5b825167ffffffffffffffff81111561164b57600080fd5b8301601f8101851361165c57600080fd5b805161166a611338826112ab565b81815260059190911b8201830190838101908783111561168957600080fd5b928401925b828410156116a75783518252928401929084019061168e565b979650505050505050565b6020808252825482820181905260008481528281209092916040850190845b818110156116ed578354835260019384019392850192016116d1565b5090969550505050505056fea26469706673582212204d08e300b26b12537bf775f067b04ba7b1d4b442b764a41fa7cb431e4658da0164736f6c63430008090033608060405234801561001057600080fd5b506104d5806100206000396000f3fe608060405234801561001057600080fd5b506004361061007d5760003560e01c8063a1818ac41161005b578063a1818ac41461010a578063afa524081461011f578063de2e19a01461012e578063e844d0971461014f57600080fd5b806306a49fce14610082578063521b0dcc146100a05780635df81330146100dc575b600080fd5b61008a61018f565b604051610097919061023a565b60405180910390f35b6100cc6100ae36600461029a565b6001600160a01b031660009081526001602052604090205460ff1690565b6040519015158152602001610097565b6100fc6100ea3660046102bc565b60026020526000908152604090205481565b604051908152602001610097565b61011d6101183660046102eb565b6101e7565b005b606060405161009791906103cd565b6100fc61013c366004610457565b5060009081526002602052604090205490565b61011d61015d3660046102bc565b600080546001810182559080527f290decd9548b62a8d60345a988386fc84ba6bc95484008f6362f93160ef3e5630155565b606060008054806020026020016040519081016040528092919081815260200182805480156101dd57602002820191906000526020600020905b8154815260200190600101908083116101c9575b5050505050905090565b6000838152600260205260408120805460019450849290610209908490610479565b9091555050506001600160a01b039092166000908152600160208190526040909120805460ff191690911790555050565b6020808252825182820181905260009190848201906040850190845b8181101561027257835183529284019291840191600101610256565b50909695505050505050565b80356001600160a01b038116811461029557600080fd5b919050565b6000602082840312156102ac57600080fd5b6102b58261027e565b9392505050565b6000602082840312156102ce57600080fd5b5035919050565b634e487b7160e01b600052604160045260246000fd5b6000806000806080858703121561030157600080fd5b61030a8561027e565b9350602080860135935060408601359250606086013567ffffffffffffffff8082111561033657600080fd5b818801915088601f83011261034a57600080fd5b81358181111561035c5761035c6102d5565b8060051b604051601f19603f83011681018181108582111715610381576103816102d5565b60405291825284820192508381018501918b83111561039f57600080fd5b938501935b828510156103bd578435845293850193928501926103a4565b989b979a50959850505050505050565b6000602080830181845280855180835260408601915060408160051b87010192508387016000805b8381101561044957888603603f19018552825180518088529088019088880190845b818110156104335783518352928a0192918a0191600101610417565b50909750505093860193918601916001016103f5565b509398975050505050505050565b6000806040838503121561046a57600080fd5b50508035926020909101359150565b6000821982111561049a57634e487b7160e01b600052601160045260246000fd5b50019056fea264697066735822122019c29c0babd80905d5fd3abe97fb406bf23419ef92933e48541004db5dcbf35564736f6c63430008090033608060405234801561001057600080fd5b50610674806100206000396000f3fe608060405234801561001057600080fd5b50600436106100625760003560e01c806306a49fce14610067578063521b0dcc14610085578063a1818ac4146100c1578063afa52408146100d6578063de2e19a0146100e5578063e844d0971461011d575b600080fd5b61006f61015d565b60405161007c91906103d9565b60405180910390f35b6100b1610093366004610439565b6001600160a01b031660009081526001602052604090205460ff1690565b604051901515815260200161007c565b6100d46100cf366004610471565b6101b5565b005b606060405161007c9190610553565b61010f6100f33660046105dd565b6000908152600260209081526040808320938352929052205490565b60405190815260200161007c565b6100d461012b3660046105ff565b600080546001810182559080527f290decd9548b62a8d60345a988386fc84ba6bc95484008f6362f93160ef3e5630155565b606060008054806020026020016040519081016040528092919081815260200182805480156101ab57602002820191906000526020600020905b815481526020019060010190808311610197575b5050505050905090565b6001600160a01b03841660009081526001602052604090205460ff16156102195760405162461bcd60e51b8152602060048201526013602482015272159bdd195c88185b1c9958591e481d9bdd1959606a1b60448201526064015b60405180910390fd5b6001600160a01b038416600090815260036020908152604080832086845290915290205460ff161561029c5760405162461bcd60e51b815260206004820152602660248201527f566f74657220616c726561647920766f74656420666f7220746869732063616e60448201526564696461746560d01b6064820152608401610210565b600080546001600160a01b038616825260046020526040909120541061030e5760405162461bcd60e51b815260206004820152602160248201527f4d617820766f74657320616c72656164792063617374656420627920766f74656044820152603960f91b6064820152608401610210565b60008281526002602090815260408083208684529091528120805460019290610338908490610618565b90915550506001600160a01b0384166000908152600460205260408120805460019290610366908490610618565b90915550506001600160a01b03841660008181526003602090815260408083208784528252808320805460ff191660011790558254938352600490915290205414156103d3576001600160a01b0384166000908152600160208190526040909120805460ff191690911790555b50505050565b6020808252825182820181905260009190848201906040850190845b81811015610411578351835292840192918401916001016103f5565b50909695505050505050565b80356001600160a01b038116811461043457600080fd5b919050565b60006020828403121561044b57600080fd5b6104548261041d565b9392505050565b634e487b7160e01b600052604160045260246000fd5b6000806000806080858703121561048757600080fd5b6104908561041d565b9350602080860135935060408601359250606086013567ffffffffffffffff808211156104bc57600080fd5b818801915088601f8301126104d057600080fd5b8135818111156104e2576104e261045b565b8060051b604051601f19603f830116810181811085821117156105075761050761045b565b60405291825284820192508381018501918b83111561052557600080fd5b938501935b828510156105435784358452938501939285019261052a565b989b979a50959850505050505050565b6000602080830181845280855180835260408601915060408160051b87010192508387016000805b838110156105cf57888603603f19018552825180518088529088019088880190845b818110156105b95783518352928a0192918a019160010161059d565b509097505050938601939186019160010161057b565b509398975050505050505050565b600080604083850312156105f057600080fd5b50508035926020909101359150565b60006020828403121561061157600080fd5b5035919050565b6000821982111561063957634e487b7160e01b600052601160045260246000fd5b50019056fea2646970667358221220d9bc33e2fa07dcea1e9cd7b07f48e86f8e1f74b2b3888857f79b17e5b8eef59364736f6c63430008090033608060405234801561001057600080fd5b5061067e806100206000396000f3fe608060405234801561001057600080fd5b50600436106100625760003560e01c806306a49fce14610067578063521b0dcc14610085578063a1818ac4146100c1578063afa52408146100d6578063de2e19a0146100eb578063e844d0971461010f575b600080fd5b61006f61014f565b60405161007c91906103e3565b60405180910390f35b6100b1610093366004610443565b6001600160a01b031660009081526001602052604090205460ff1690565b604051901515815260200161007c565b6100d46100cf36600461047b565b6101a7565b005b6100de6102ea565b60405161007c919061055d565b6101016100f93660046105e7565b600192915050565b60405190815260200161007c565b6100d461011d366004610609565b600080546001810182559080527f290decd9548b62a8d60345a988386fc84ba6bc95484008f6362f93160ef3e5630155565b6060600080548060200260200160405190810160405280929190818152602001828054801561019d57602002820191906000526020600020905b815481526020019060010190808311610189575b5050505050905090565b6001600160a01b03841660009081526001602052604090205460ff161561020a5760405162461bcd60e51b8152602060048201526013602482015272159bdd195c88185b1c9958591e481d9bdd1959606a1b604482015260640160405180910390fd5b60028054600181018255600091909152815161024d917f405787fa12a823e0f2b7631cc41b3ba8828b3321ca811111fa75cd3aa3bb5ace01906020840190610383565b506001600160a01b0384166000908152600460205260408120805460019290610277908490610622565b90915550506001600160a01b03841660008181526003602090815260408083208784528252808320805460ff191660011790558254938352600490915290205414156102e4576001600160a01b0384166000908152600160208190526040909120805460ff191690911790555b50505050565b60606002805480602002602001604051908101604052809291908181526020016000905b8282101561037a5760008481526020908190208301805460408051828502810185019091528181529283018282801561036657602002820191906000526020600020905b815481526020019060010190808311610352575b50505050508152602001906001019061030e565b50505050905090565b8280548282559060005260206000209081019282156103be579160200282015b828111156103be5782518255916020019190600101906103a3565b506103ca9291506103ce565b5090565b5b808211156103ca57600081556001016103cf565b6020808252825182820181905260009190848201906040850190845b8181101561041b578351835292840192918401916001016103ff565b50909695505050505050565b80356001600160a01b038116811461043e57600080fd5b919050565b60006020828403121561045557600080fd5b61045e82610427565b9392505050565b634e487b7160e01b600052604160045260246000fd5b6000806000806080858703121561049157600080fd5b61049a85610427565b9350602080860135935060408601359250606086013567ffffffffffffffff808211156104c657600080fd5b818801915088601f8301126104da57600080fd5b8135818111156104ec576104ec610465565b8060051b604051601f19603f8301168101818110858211171561051157610511610465565b60405291825284820192508381018501918b83111561052f57600080fd5b938501935b8285101561054d57843584529385019392850192610534565b989b979a50959850505050505050565b6000602080830181845280855180835260408601915060408160051b87010192508387016000805b838110156105d957888603603f19018552825180518088529088019088880190845b818110156105c35783518352928a0192918a01916001016105a7565b5090975050509386019391860191600101610585565b509398975050505050505050565b600080604083850312156105fa57600080fd5b50508035926020909101359150565b60006020828403121561061b57600080fd5b5035919050565b6000821982111561064357634e487b7160e01b600052601160045260246000fd5b50019056fea26469706673582212207170af497cdd307ea7677dbf1976506120d2397778ef69e98a70f62db4c345dd64736f6c63430008090033608060405234801561001057600080fd5b50610619806100206000396000f3fe608060405234801561001057600080fd5b506004361061002b5760003560e01c8063c8344a2014610030575b600080fd5b61004361003e366004610419565b610059565b6040516100509190610451565b60405180910390f35b6040805160008082526020820192839052905160609261007992916103b9565b506000836001600160a01b03166306a49fce6040518163ffffffff1660e01b815260040160006040518083038186803b1580156100b557600080fd5b505afa1580156100c9573d6000803e3d6000fd5b505050506040513d6000823e601f3d908101601f191682016040526100f191908101906104ab565b8051909150600080805b8381101561025d57876001600160a01b031663de2e19a086838151811061012457610124610569565b602002602001015160016040518363ffffffff1660e01b8152600401610154929190918252602082015260400190565b60206040518083038186803b15801561016c57600080fd5b505afa158015610180573d6000803e3d6000fd5b505050506040513d601f19601f820116820180604052508101906101a4919061057f565b9150828211156101b2578192505b6101bd600288610598565b83111561024b5760008582815181106101d8576101d8610569565b60209081029190910181015182546001810184556000938452828420015581546040805182840281018401909152818152929183018282801561023a57602002820191906000526020600020905b815481526020019060010190808311610226575b5050505050955050505050506103b3565b80610255816105ba565b9150506100fb565b5060005b8381101561035a57876001600160a01b031663de2e19a086838151811061028a5761028a610569565b602002602001015160016040518363ffffffff1660e01b81526004016102ba929190918252602082015260400190565b60206040518083038186803b1580156102d257600080fd5b505afa1580156102e6573d6000803e3d6000fd5b505050506040513d601f19601f8201168201806040525081019061030a919061057f565b91508282141561034857600085828151811061032857610328610569565b602090810291909101810151825460018101845560009384529190922001555b80610352816105ba565b915050610261565b60008054806020026020016040519081016040528092919081815260200182805480156103a657602002820191906000526020600020905b815481526020019060010190808311610392575b5050505050955050505050505b92915050565b8280548282559060005260206000209081019282156103f4579160200282015b828111156103f45782518255916020019190600101906103d9565b50610400929150610404565b5090565b5b808211156104005760008155600101610405565b6000806040838503121561042c57600080fd5b82356001600160a01b038116811461044357600080fd5b946020939093013593505050565b6020808252825182820181905260009190848201906040850190845b818110156104895783518352928401929184019160010161046d565b50909695505050505050565b634e487b7160e01b600052604160045260246000fd5b600060208083850312156104be57600080fd5b825167ffffffffffffffff808211156104d657600080fd5b818501915085601f8301126104ea57600080fd5b8151818111156104fc576104fc610495565b8060051b604051601f19603f8301168101818110858211171561052157610521610495565b60405291825284820192508381018501918883111561053f57600080fd5b938501935b8285101561055d57845184529385019392850192610544565b98975050505050505050565b634e487b7160e01b600052603260045260246000fd5b60006020828403121561059157600080fd5b5051919050565b6000826105b557634e487b7160e01b600052601260045260246000fd5b500490565b60006000198214156105dc57634e487b7160e01b600052601160045260246000fd5b506001019056fea2646970667358221220e72aba8bb614927cb6590ace793d2449d9bf14cd802181044426fa919ba0f92864736f6c63430008090033608060405234801561001057600080fd5b50610643806100206000396000f3fe608060405234801561001057600080fd5b506004361061002b5760003560e01c8063c8344a2014610030575b600080fd5b61004361003e366004610423565b610059565b604051610050919061045b565b60405180910390f35b604080516000815260208101918290525160609161007a91600191906103c3565b50600580546001600160a01b0319166001600160a01b0385161790556100a16002836104cb565b6004908155600554604080516303524fe760e11b815290516001600160a01b03909216926306a49fce928282019260009290829003018186803b1580156100e757600080fd5b505afa1580156100fb573d6000803e3d6000fd5b505050506040513d6000823e601f3d908101601f1916820160405261012391908101906104ed565b8051610137916002916020909101906103c3565b50600254600355600160005b6003548210156101905761015682610219565b61015e61033a565b600454600082815260208190526040902054919250101561017e57610190565b81610188816105ab565b925050610143565b60018054808201825560008290527fb10e2d527612073b26eecdfd717e6a320cf44b4afac2b0732d9fcbe2b7fa0cf60182905580546040805160208381028201810190925282815292919083018282801561020a57602002820191906000526020600020905b8154815260200190600101908083116101f6575b50505050509250505092915050565b6000805b60035482101561033557600554600280546001600160a01b039092169163de2e19a0919085908110610251576102516105c6565b9060005260206000200154856040518363ffffffff1660e01b8152600401610283929190918252602082015260400190565b60206040518083038186803b15801561029b57600080fd5b505afa1580156102af573d6000803e3d6000fd5b505050506040513d601f19601f820116820180604052508101906102d391906105dc565b90506102df83826104cb565b600080600285815481106102f5576102f56105c6565b90600052602060002001548152602001908152602001600020600082825461031d91906105f5565b9091555082905061032d816105ab565b92505061021d565b505050565b6000808080805b6003548410156103bb5760008060028681548110610361576103616105c6565b90600052602060002001548152602001908152602001600020549250818311156103a9578291506002848154811061039b5761039b6105c6565b906000526020600020015490505b836103b3816105ab565b945050610341565b949350505050565b8280548282559060005260206000209081019282156103fe579160200282015b828111156103fe5782518255916020019190600101906103e3565b5061040a92915061040e565b5090565b5b8082111561040a576000815560010161040f565b6000806040838503121561043657600080fd5b82356001600160a01b038116811461044d57600080fd5b946020939093013593505050565b6020808252825182820181905260009190848201906040850190845b8181101561049357835183529284019291840191600101610477565b50909695505050505050565b634e487b7160e01b600052604160045260246000fd5b634e487b7160e01b600052601160045260246000fd5b6000826104e857634e487b7160e01b600052601260045260246000fd5b500490565b6000602080838503121561050057600080fd5b825167ffffffffffffffff8082111561051857600080fd5b818501915085601f83011261052c57600080fd5b81518181111561053e5761053e61049f565b8060051b604051601f19603f830116810181811085821117156105635761056361049f565b60405291825284820192508381018501918883111561058157600080fd5b938501935b8285101561059f57845184529385019392850192610586565b98975050505050505050565b60006000198214156105bf576105bf6104b5565b5060010190565b634e487b7160e01b600052603260045260246000fd5b6000602082840312156105ee57600080fd5b5051919050565b60008219821115610608576106086104b5565b50019056fea2646970667358221220ecda3d0e5a895404f702b77314363c16fc815a4e8d875a766e8959886944917864736f6c63430008090033608060405234801561001057600080fd5b506108c0806100206000396000f3fe608060405234801561001057600080fd5b50600436106100415760003560e01c8063a2fb117514610046578063c5071fd31461006c578063c8344a201461008c575b600080fd5b61005961005436600461048c565b61009f565b6040519081526020015b60405180910390f35b61007f61007a36600461057b565b6100c0565b604051610063919061064f565b61007f61009a366004610693565b610346565b600081815481106100af57600080fd5b600091825260209091200154905081565b60606000825167ffffffffffffffff8111156100de576100de6104a5565b604051908082528060200260200182016040528015610107578160200160208202803683370190505b50905060005b835181101561014757600082828151811061012a5761012a6106cb565b60209081029190910101526101406001826106f7565b905061010d565b5060005b84518110156101f95760005b84518110156101e657858281518110610172576101726106cb565b6020026020010151818151811061018b5761018b6106cb565b6020026020010151855160016101a191906106f7565b6101ab919061070f565b8382815181106101bd576101bd6106cb565b602002602001018181516101d191906106f7565b905250806101de81610726565b915050610157565b50806101f181610726565b91505061014b565b506000805b84518110156102ea578183828151811061021a5761021a6106cb565b6020026020010151141561025b57600080546001810182559080527f290decd9548b62a8d60345a988386fc84ba6bc95484008f6362f93160ef3e563018190555b8183828151811061026e5761026e6106cb565b602002602001015111156102d85782818151811061028e5761028e6106cb565b602002602001015191506000806102a59190610452565b600080546001810182559080527f290decd9548b62a8d60345a988386fc84ba6bc95484008f6362f93160ef3e563018190555b806102e281610726565b9150506101fe565b50600080548060200260200160405190810160405280929190818152602001828054801561033757602002820191906000526020600020905b815481526020019060010190808311610323575b50505050509250505092915050565b60606000836001600160a01b031663afa524086040518163ffffffff1660e01b8152600401600060405180830381600087803b15801561038557600080fd5b505af1158015610399573d6000803e3d6000fd5b505050506040513d6000823e601f3d908101601f191682016040526103c1919081019061079c565b90506000846001600160a01b03166306a49fce6040518163ffffffff1660e01b815260040160006040518083038186803b1580156103fe57600080fd5b505afa158015610412573d6000803e3d6000fd5b505050506040513d6000823e601f3d908101601f1916820160405261043a919081019061084d565b9050600061044883836100c0565b9695505050505050565b50805460008255906000526020600020908101906104709190610473565b50565b5b808211156104885760008155600101610474565b5090565b60006020828403121561049e57600080fd5b5035919050565b634e487b7160e01b600052604160045260246000fd5b604051601f8201601f1916810167ffffffffffffffff811182821017156104e4576104e46104a5565b604052919050565b600067ffffffffffffffff821115610506576105066104a5565b5060051b60200190565b600082601f83011261052157600080fd5b81356020610536610531836104ec565b6104bb565b82815260059290921b8401810191818101908684111561055557600080fd5b8286015b848110156105705780358352918301918301610559565b509695505050505050565b6000806040838503121561058e57600080fd5b823567ffffffffffffffff808211156105a657600080fd5b818501915085601f8301126105ba57600080fd5b813560206105ca610531836104ec565b82815260059290921b840181019181810190898411156105e957600080fd5b8286015b84811015610621578035868111156106055760008081fd5b6106138c86838b0101610510565b8452509183019183016105ed565b509650508601359250508082111561063857600080fd5b5061064585828601610510565b9150509250929050565b6020808252825182820181905260009190848201906040850190845b818110156106875783518352928401929184019160010161066b565b50909695505050505050565b600080604083850312156106a657600080fd5b82356001600160a01b03811681146106bd57600080fd5b946020939093013593505050565b634e487b7160e01b600052603260045260246000fd5b634e487b7160e01b600052601160045260246000fd5b6000821982111561070a5761070a6106e1565b500190565b600082821015610721576107216106e1565b500390565b600060001982141561073a5761073a6106e1565b5060010190565b600082601f83011261075257600080fd5b81516020610762610531836104ec565b82815260059290921b8401810191818101908684111561078157600080fd5b8286015b848110156105705780518352918301918301610785565b600060208083850312156107af57600080fd5b825167ffffffffffffffff808211156107c757600080fd5b818501915085601f8301126107db57600080fd5b81516107e9610531826104ec565b81815260059190911b8301840190848101908883111561080857600080fd5b8585015b83811015610840578051858111156108245760008081fd5b6108328b89838a0101610741565b84525091860191860161080c565b5098975050505050505050565b60006020828403121561085f57600080fd5b815167ffffffffffffffff81111561087657600080fd5b61088284828501610741565b94935050505056fea26469706673582212200223365e5b48f5ac46eaca8476051f02fa2f457e1f707710d5760567956096e464736f6c63430008090033a2646970667358221220454a4ad871b5936d8ca0007e1f8ce151af0f71d36739daed38521c0eef3c066664736f6c63430008090033608060405234801561001057600080fd5b5061037c806100206000396000f3fe608060405234801561001057600080fd5b506004361061002b5760003560e01c8063d52d3c7414610030575b600080fd5b61004361003e3660046101c8565b610045565b005b604051631486c37360e21b81523360048201526001600160a01b0385169063521b0dcc9060240160206040518083038186803b15801561008457600080fd5b505afa158015610098573d6000803e3d6000fd5b505050506040513d601f19601f820116820180604052508101906100bc91906102b8565b156100fd5760405162461bcd60e51b815260206004820152600d60248201526c105b1c9958591e481d9bdd1959609a1b604482015260640160405180910390fd5b60405163286062b160e21b81526001600160a01b0385169063a1818ac49061012f9033908790879087906004016102e1565b600060405180830381600087803b15801561014957600080fd5b505af115801561015d573d6000803e3d6000fd5b5050604080516001600160a01b0388168152602081018790529081018590527fcb87df07b1c304492bd875a5c8b98672eca500939412809ea229afef1d7451889250606001905060405180910390a150505050565b634e487b7160e01b600052604160045260246000fd5b600080600080608085870312156101de57600080fd5b84356001600160a01b03811681146101f557600080fd5b9350602085810135935060408601359250606086013567ffffffffffffffff8082111561022157600080fd5b818801915088601f83011261023557600080fd5b813581811115610247576102476101b2565b8060051b604051601f19603f8301168101818110858211171561026c5761026c6101b2565b60405291825284820192508381018501918b83111561028a57600080fd5b938501935b828510156102a85784358452938501939285019261028f565b989b979a50959850505050505050565b6000602082840312156102ca57600080fd5b815180151581146102da57600080fd5b9392505050565b6001600160a01b038516815260208082018590526040820184905260806060830181905283519083018190526000918481019160a0850190845b818110156103375784518352938301939183019160010161031b565b5090999850505050505050505056fea2646970667358221220074fe7d7403bc7553b0334df033b4e56c58bf418fa1eb692d95375947516efda64736f6c63430008090033",
  "linkReferences": {},
  "deployedLinkReferences": {}
}