{
  "_format": "hh-sol-artifact-1",
  "contractName": "SemaphoreClient",
  "sourceName": "contracts/SemaphoreClient.sol",
  "abi": [
    {
      "inputs": [
        {
          "internalType": "contract Semaphore",
          "name": "_semaphore",
          "type": "address"
        }
      ],
      "stateMutability": "nonpayable",
      "type": "constructor"
    },
    {
      "anonymous": false,
      "inputs": [
        {
          "indexed": true,
          "internalType": "uint256",
          "name": "signalIndex",
          "type": "uint256"
        }
      ],
      "name": "SignalBroadcastByClient",
      "type": "event"
    },
    {
      "inputs": [
        {
          "internalType": "uint232",
          "name": "_externalNullifier",
          "type": "uint232"
        }
      ],
      "name": "addExternalNullifier",
      "outputs": [],
      "stateMutability": "nonpayable",
      "type": "function"
    },
    {
      "inputs": [
        {
          "internalType": "bytes",
          "name": "_signal",
          "type": "bytes"
        },
        {
          "internalType": "uint256[8]",
          "name": "_proof",
          "type": "uint256[8]"
        },
        {
          "internalType": "uint256",
          "name": "_root",
          "type": "uint256"
        },
        {
          "internalType": "uint256",
          "name": "_nullifiersHash",
          "type": "uint256"
        },
        {
          "internalType": "uint232",
          "name": "_externalNullifier",
          "type": "uint232"
        }
      ],
      "name": "broadcastSignal",
      "outputs": [],
      "stateMutability": "nonpayable",
      "type": "function"
    },
    {
      "inputs": [
        {
          "internalType": "uint256",
          "name": "_index",
          "type": "uint256"
        }
      ],
      "name": "getExternalNullifierBySignalIndex",
      "outputs": [
        {
          "internalType": "uint256",
          "name": "",
          "type": "uint256"
        }
      ],
      "stateMutability": "view",
      "type": "function"
    },
    {
      "inputs": [
        {
          "internalType": "uint256",
          "name": "_index",
          "type": "uint256"
        }
      ],
      "name": "getIdentityCommitment",
      "outputs": [
        {
          "internalType": "uint256",
          "name": "",
          "type": "uint256"
        }
      ],
      "stateMutability": "view",
      "type": "function"
    },
    {
      "inputs": [],
      "name": "getIdentityCommitments",
      "outputs": [
        {
          "internalType": "uint256[]",
          "name": "",
          "type": "uint256[]"
        }
      ],
      "stateMutability": "view",
      "type": "function"
    },
    {
      "inputs": [],
      "name": "getNextSignalIndex",
      "outputs": [
        {
          "internalType": "uint256",
          "name": "",
          "type": "uint256"
        }
      ],
      "stateMutability": "view",
      "type": "function"
    },
    {
      "inputs": [
        {
          "internalType": "uint256",
          "name": "_index",
          "type": "uint256"
        }
      ],
      "name": "getSignalByIndex",
      "outputs": [
        {
          "internalType": "bytes",
          "name": "",
          "type": "bytes"
        }
      ],
      "stateMutability": "view",
      "type": "function"
    },
    {
      "inputs": [
        {
          "internalType": "uint256",
          "name": "",
          "type": "uint256"
        }
      ],
      "name": "identityCommitments",
      "outputs": [
        {
          "internalType": "uint256",
          "name": "",
          "type": "uint256"
        }
      ],
      "stateMutability": "view",
      "type": "function"
    },
    {
      "inputs": [
        {
          "internalType": "uint256",
          "name": "_leaf",
          "type": "uint256"
        }
      ],
      "name": "insertIdentityAsClient",
      "outputs": [],
      "stateMutability": "nonpayable",
      "type": "function"
    },
    {
      "inputs": [],
      "name": "nextSignalIndex",
      "outputs": [
        {
          "internalType": "uint256",
          "name": "",
          "type": "uint256"
        }
      ],
      "stateMutability": "view",
      "type": "function"
    },
    {
      "inputs": [],
      "name": "semaphore",
      "outputs": [
        {
          "internalType": "contract Semaphore",
          "name": "",
          "type": "address"
        }
      ],
      "stateMutability": "view",
      "type": "function"
    },
    {
      "inputs": [
        {
          "internalType": "uint256",
          "name": "",
          "type": "uint256"
        }
      ],
      "name": "signalIndexToExternalNullifier",
      "outputs": [
        {
          "internalType": "uint256",
          "name": "",
          "type": "uint256"
        }
      ],
      "stateMutability": "view",
      "type": "function"
    },
    {
      "inputs": [
        {
          "internalType": "uint256",
          "name": "",
          "type": "uint256"
        }
      ],
      "name": "signalIndexToSignal",
      "outputs": [
        {
          "internalType": "bytes",
          "name": "",
          "type": "bytes"
        }
      ],
      "stateMutability": "view",
      "type": "function"
    }
  ],
  "bytecode": "0x608060405260006003553480156200001657600080fd5b506040516200120b3803806200120b83398181016040528101906200003c919062000102565b80600460006101000a81548173ffffffffffffffffffffffffffffffffffffffff021916908373ffffffffffffffffffffffffffffffffffffffff1602179055505062000134565b600080fd5b600073ffffffffffffffffffffffffffffffffffffffff82169050919050565b6000620000b68262000089565b9050919050565b6000620000ca82620000a9565b9050919050565b620000dc81620000bd565b8114620000e857600080fd5b50565b600081519050620000fc81620000d1565b92915050565b6000602082840312156200011b576200011a62000084565b5b60006200012b84828501620000eb565b91505092915050565b6110c780620001446000396000f3fe608060405234801561001057600080fd5b50600436106100cf5760003560e01c80637b5d25341161008c578063b30b483f11610066578063b30b483f14610214578063bde1061214610244578063c1fcb08014610260578063f9cdb5cd14610290576100cf565b80637b5d2534146101a85780638d2d593b146101c65780638fd0de57146101e4576100cf565b80630e57596f146100d457806327acf71b146100f0578063405667901461012057806349b0b9101461013e578063539f38b21461015c578063740afb7714610178575b600080fd5b6100ee60048036038101906100e99190610af8565b6102c0565b005b61010a60048036038101906101059190610b93565b61040c565b6040516101179190610c48565b60405180910390f35b6101286104ac565b6040516101359190610d28565b60405180910390f35b610146610504565b6040516101539190610d59565b60405180910390f35b61017660048036038101906101719190610d74565b61050e565b005b610192600480360381019061018d9190610b93565b61059e565b60405161019f9190610d59565b60405180910390f35b6101b06105bb565b6040516101bd9190610e20565b60405180910390f35b6101ce6105e1565b6040516101db9190610d59565b60405180910390f35b6101fe60048036038101906101f99190610b93565b6105e7565b60405161020b9190610d59565b60405180910390f35b61022e60048036038101906102299190610b93565b61060b565b60405161023b9190610d59565b60405180910390f35b61025e60048036038101906102599190610b93565b610632565b005b61027a60048036038101906102759190610b93565b6106fd565b6040516102879190610c48565b60405180910390f35b6102aa60048036038101906102a59190610b93565b6107a2565b6040516102b79190610d59565b60405180910390f35b600060035490508560016000600354815260200190815260200160002090805190602001906102f09291906107ba565b50817cffffffffffffffffffffffffffffffffffffffffffffffffffffffffff16600260006003548152602001908152602001600020819055506003600081548092919061033d90610e6a565b9190505550600460009054906101000a900473ffffffffffffffffffffffffffffffffffffffff1673ffffffffffffffffffffffffffffffffffffffff16630e57596f87878787876040518663ffffffff1660e01b81526004016103a5959493929190610f46565b600060405180830381600087803b1580156103bf57600080fd5b505af11580156103d3573d6000803e3d6000fd5b50505050807faa676fd106f1023de6c9eafff9af5bc8e299b3493d3aa816a3278a15d055657b60405160405180910390a2505050505050565b6001602052806000526040600020600091509050805461042b90610fd3565b80601f016020809104026020016040519081016040528092919081815260200182805461045790610fd3565b80156104a45780601f10610479576101008083540402835291602001916104a4565b820191906000526020600020905b81548152906001019060200180831161048757829003601f168201915b505050505081565b606060008054806020026020016040519081016040528092919081815260200182805480156104fa57602002820191906000526020600020905b8154815260200190600101908083116104e6575b5050505050905090565b6000600354905090565b600460009054906101000a900473ffffffffffffffffffffffffffffffffffffffff1673ffffffffffffffffffffffffffffffffffffffff1663539f38b2826040518263ffffffff1660e01b81526004016105699190611005565b600060405180830381600087803b15801561058357600080fd5b505af1158015610597573d6000803e3d6000fd5b5050505050565b600060026000838152602001908152602001600020549050919050565b600460009054906101000a900473ffffffffffffffffffffffffffffffffffffffff1681565b60035481565b600081815481106105f757600080fd5b906000526020600020016000915090505481565b60008082815481106106205761061f611020565b5b90600052602060002001549050919050565b600460009054906101000a900473ffffffffffffffffffffffffffffffffffffffff1673ffffffffffffffffffffffffffffffffffffffff16636d80efca826040518263ffffffff1660e01b815260040161068d9190610d59565b6020604051808303816000875af11580156106ac573d6000803e3d6000fd5b505050506040513d601f19601f820116820180604052508101906106d09190611064565b50600081908060018154018082558091505060019003906000526020600020016000909190919091505550565b606060016000838152602001908152602001600020805461071d90610fd3565b80601f016020809104026020016040519081016040528092919081815260200182805461074990610fd3565b80156107965780601f1061076b57610100808354040283529160200191610796565b820191906000526020600020905b81548152906001019060200180831161077957829003601f168201915b50505050509050919050565b60026020528060005260406000206000915090505481565b8280546107c690610fd3565b90600052602060002090601f0160209004810192826107e8576000855561082f565b82601f1061080157805160ff191683800117855561082f565b8280016001018555821561082f579182015b8281111561082e578251825591602001919060010190610813565b5b50905061083c9190610840565b5090565b5b80821115610859576000816000905550600101610841565b5090565b6000604051905090565b600080fd5b600080fd5b600080fd5b600080fd5b6000601f19601f8301169050919050565b7f4e487b7100000000000000000000000000000000000000000000000000000000600052604160045260246000fd5b6108c48261087b565b810181811067ffffffffffffffff821117156108e3576108e261088c565b5b80604052505050565b60006108f661085d565b905061090282826108bb565b919050565b600067ffffffffffffffff8211156109225761092161088c565b5b61092b8261087b565b9050602081019050919050565b82818337600083830152505050565b600061095a61095584610907565b6108ec565b90508281526020810184848401111561097657610975610876565b5b610981848285610938565b509392505050565b600082601f83011261099e5761099d610871565b5b81356109ae848260208601610947565b91505092915050565b600067ffffffffffffffff8211156109d2576109d161088c565b5b602082029050919050565b600080fd5b6000819050919050565b6109f5816109e2565b8114610a0057600080fd5b50565b600081359050610a12816109ec565b92915050565b6000610a2b610a26846109b7565b6108ec565b90508060208402830185811115610a4557610a446109dd565b5b835b81811015610a6e5780610a5a8882610a03565b845260208401935050602081019050610a47565b5050509392505050565b600082601f830112610a8d57610a8c610871565b5b6008610a9a848285610a18565b91505092915050565b60007cffffffffffffffffffffffffffffffffffffffffffffffffffffffffff82169050919050565b610ad581610aa3565b8114610ae057600080fd5b50565b600081359050610af281610acc565b92915050565b60008060008060006101808688031215610b1557610b14610867565b5b600086013567ffffffffffffffff811115610b3357610b3261086c565b5b610b3f88828901610989565b9550506020610b5088828901610a78565b945050610120610b6288828901610a03565b935050610140610b7488828901610a03565b925050610160610b8688828901610ae3565b9150509295509295909350565b600060208284031215610ba957610ba8610867565b5b6000610bb784828501610a03565b91505092915050565b600081519050919050565b600082825260208201905092915050565b60005b83811015610bfa578082015181840152602081019050610bdf565b83811115610c09576000848401525b50505050565b6000610c1a82610bc0565b610c248185610bcb565b9350610c34818560208601610bdc565b610c3d8161087b565b840191505092915050565b60006020820190508181036000830152610c628184610c0f565b905092915050565b600081519050919050565b600082825260208201905092915050565b6000819050602082019050919050565b610c9f816109e2565b82525050565b6000610cb18383610c96565b60208301905092915050565b6000602082019050919050565b6000610cd582610c6a565b610cdf8185610c75565b9350610cea83610c86565b8060005b83811015610d1b578151610d028882610ca5565b9750610d0d83610cbd565b925050600181019050610cee565b5085935050505092915050565b60006020820190508181036000830152610d428184610cca565b905092915050565b610d53816109e2565b82525050565b6000602082019050610d6e6000830184610d4a565b92915050565b600060208284031215610d8a57610d89610867565b5b6000610d9884828501610ae3565b91505092915050565b600073ffffffffffffffffffffffffffffffffffffffff82169050919050565b6000819050919050565b6000610de6610de1610ddc84610da1565b610dc1565b610da1565b9050919050565b6000610df882610dcb565b9050919050565b6000610e0a82610ded565b9050919050565b610e1a81610dff565b82525050565b6000602082019050610e356000830184610e11565b92915050565b7f4e487b7100000000000000000000000000000000000000000000000000000000600052601160045260246000fd5b6000610e75826109e2565b91507fffffffffffffffffffffffffffffffffffffffffffffffffffffffffffffffff821415610ea857610ea7610e3b565b5b600182019050919050565b600060089050919050565b600081905092915050565b6000819050919050565b6000602082019050919050565b610ee981610eb3565b610ef38184610ebe565b9250610efe82610ec9565b8060005b83811015610f2f578151610f168782610ca5565b9650610f2183610ed3565b925050600181019050610f02565b505050505050565b610f4081610aa3565b82525050565b6000610180820190508181036000830152610f618188610c0f565b9050610f706020830187610ee0565b610f7e610120830186610d4a565b610f8c610140830185610d4a565b610f9a610160830184610f37565b9695505050505050565b7f4e487b7100000000000000000000000000000000000000000000000000000000600052602260045260246000fd5b60006002820490506001821680610feb57607f821691505b60208210811415610fff57610ffe610fa4565b5b50919050565b600060208201905061101a6000830184610f37565b92915050565b7f4e487b7100000000000000000000000000000000000000000000000000000000600052603260045260246000fd5b60008151905061105e816109ec565b92915050565b60006020828403121561107a57611079610867565b5b60006110888482850161104f565b9150509291505056fea264697066735822122042db97fc20c0e54d99270197b6138f683eacd6766da2c748110f387f8755f66d64736f6c634300080a0033",
  "linkReferences": {},
  "deployedLinkReferences": {}
}