{
  "_format": "hh-sol-artifact-1",
  "contractName": "SemaphoreClient",
  "sourceName": "contracts/SemaphoreClient.sol",
  "abi": [
    {
      "inputs": [
        {
          "internalType": "contract Semaphore",
          "name": "_semaphore",
          "type": "address"
        }
      ],
      "stateMutability": "nonpayable",
      "type": "constructor"
    },
    {
      "anonymous": false,
      "inputs": [
        {
          "indexed": true,
          "internalType": "uint256",
          "name": "signalIndex",
          "type": "uint256"
        }
      ],
      "name": "SignalBroadcastByClient",
      "type": "event"
    },
    {
      "inputs": [
        {
          "internalType": "uint232",
          "name": "_externalNullifier",
          "type": "uint232"
        }
      ],
      "name": "addExternalNullifier",
      "outputs": [],
      "stateMutability": "nonpayable",
      "type": "function"
    },
    {
      "inputs": [
        {
          "internalType": "bytes",
          "name": "_signal",
          "type": "bytes"
        },
        {
          "internalType": "uint256[8]",
          "name": "_proof",
          "type": "uint256[8]"
        },
        {
          "internalType": "uint256",
          "name": "_root",
          "type": "uint256"
        },
        {
          "internalType": "uint256",
          "name": "_nullifiersHash",
          "type": "uint256"
        },
        {
          "internalType": "uint232",
          "name": "_externalNullifier",
          "type": "uint232"
        }
      ],
      "name": "broadcastSignal",
      "outputs": [],
      "stateMutability": "nonpayable",
      "type": "function"
    },
    {
      "inputs": [
        {
          "internalType": "uint256",
          "name": "_index",
          "type": "uint256"
        }
      ],
      "name": "getExternalNullifierBySignalIndex",
      "outputs": [
        {
          "internalType": "uint256",
          "name": "",
          "type": "uint256"
        }
      ],
      "stateMutability": "view",
      "type": "function"
    },
    {
      "inputs": [
        {
          "internalType": "uint256",
          "name": "_index",
          "type": "uint256"
        }
      ],
      "name": "getIdentityCommitment",
      "outputs": [
        {
          "internalType": "uint256",
          "name": "",
          "type": "uint256"
        }
      ],
      "stateMutability": "view",
      "type": "function"
    },
    {
      "inputs": [],
      "name": "getIdentityCommitments",
      "outputs": [
        {
          "internalType": "uint256[]",
          "name": "",
          "type": "uint256[]"
        }
      ],
      "stateMutability": "view",
      "type": "function"
    },
    {
      "inputs": [],
      "name": "getNextSignalIndex",
      "outputs": [
        {
          "internalType": "uint256",
          "name": "",
          "type": "uint256"
        }
      ],
      "stateMutability": "view",
      "type": "function"
    },
    {
      "inputs": [
        {
          "internalType": "uint256",
          "name": "_index",
          "type": "uint256"
        }
      ],
      "name": "getSignalByIndex",
      "outputs": [
        {
          "internalType": "bytes",
          "name": "",
          "type": "bytes"
        }
      ],
      "stateMutability": "view",
      "type": "function"
    },
    {
      "inputs": [
        {
          "internalType": "uint256",
          "name": "",
          "type": "uint256"
        }
      ],
      "name": "identityCommitments",
      "outputs": [
        {
          "internalType": "uint256",
          "name": "",
          "type": "uint256"
        }
      ],
      "stateMutability": "view",
      "type": "function"
    },
    {
      "inputs": [
        {
          "internalType": "uint256",
          "name": "_leaf",
          "type": "uint256"
        }
      ],
      "name": "insertIdentityAsClient",
      "outputs": [],
      "stateMutability": "nonpayable",
      "type": "function"
    },
    {
      "inputs": [],
      "name": "nextSignalIndex",
      "outputs": [
        {
          "internalType": "uint256",
          "name": "",
          "type": "uint256"
        }
      ],
      "stateMutability": "view",
      "type": "function"
    },
    {
      "inputs": [],
      "name": "semaphore",
      "outputs": [
        {
          "internalType": "contract Semaphore",
          "name": "",
          "type": "address"
        }
      ],
      "stateMutability": "view",
      "type": "function"
    },
    {
      "inputs": [
        {
          "internalType": "uint256",
          "name": "",
          "type": "uint256"
        }
      ],
      "name": "signalIndexToExternalNullifier",
      "outputs": [
        {
          "internalType": "uint256",
          "name": "",
          "type": "uint256"
        }
      ],
      "stateMutability": "view",
      "type": "function"
    },
    {
      "inputs": [
        {
          "internalType": "uint256",
          "name": "",
          "type": "uint256"
        }
      ],
      "name": "signalIndexToSignal",
      "outputs": [
        {
          "internalType": "bytes",
          "name": "",
          "type": "bytes"
        }
      ],
      "stateMutability": "view",
      "type": "function"
    }
  ],
  "bytecode": "0x6080604052600060035534801561001557600080fd5b50604051610ad1380380610ad183398101604081905261003491610059565b600480546001600160a01b0319166001600160a01b0392909216919091179055610089565b60006020828403121561006b57600080fd5b81516001600160a01b038116811461008257600080fd5b9392505050565b610a39806100986000396000f3fe608060405234801561001057600080fd5b50600436106100cf5760003560e01c80637b5d25341161008c578063b30b483f11610066578063b30b483f146101b3578063bde10612146101c6578063c1fcb080146101d9578063f9cdb5cd146101ec57600080fd5b80637b5d25341461016c5780638d2d593b146101975780638fd0de57146101a057600080fd5b80630e57596f146100d457806327acf71b146100e9578063405667901461011257806349b0b91014610127578063539f38b214610139578063740afb771461014c575b600080fd5b6100e76100e2366004610759565b61020c565b005b6100fc6100f7366004610828565b6102fb565b604051610109919061088e565b60405180910390f35b61011a610395565b60405161010991906108a8565b6003545b604051908152602001610109565b6100e76101473660046108ec565b6103ed565b61012b61015a366004610828565b60009081526002602052604090205490565b60045461017f906001600160a01b031681565b6040516001600160a01b039091168152602001610109565b61012b60035481565b61012b6101ae366004610828565b610457565b61012b6101c1366004610828565b610478565b6100e76101d4366004610828565b61049e565b6100fc6101e7366004610828565b61054d565b61012b6101fa366004610828565b60026020526000908152604090205481565b6003546000818152600160209081526040909120875161022e928901906105ef565b506003805460009081526002602052604081206001600160e81b03851690558154919061025a83610907565b909155505060048054604051630e57596f60e01b81526001600160a01b0390911691630e57596f91610296918a918a918a918a918a9101610930565b600060405180830381600087803b1580156102b057600080fd5b505af11580156102c4573d6000803e3d6000fd5b50506040518392507faa676fd106f1023de6c9eafff9af5bc8e299b3493d3aa816a3278a15d055657b9150600090a2505050505050565b6001602052600090815260409020805461031490610999565b80601f016020809104026020016040519081016040528092919081815260200182805461034090610999565b801561038d5780601f106103625761010080835404028352916020019161038d565b820191906000526020600020905b81548152906001019060200180831161037057829003601f168201915b505050505081565b606060008054806020026020016040519081016040528092919081815260200182805480156103e357602002820191906000526020600020905b8154815260200190600101908083116103cf575b5050505050905090565b600480546040516329cf9c5960e11b81526001600160e81b038416928101929092526001600160a01b03169063539f38b290602401600060405180830381600087803b15801561043c57600080fd5b505af1158015610450573d6000803e3d6000fd5b5050505050565b6000818154811061046757600080fd5b600091825260209091200154905081565b600080828154811061048c5761048c6109d4565b90600052602060002001549050919050565b600480546040516336c077e560e11b81529182018390526001600160a01b031690636d80efca90602401602060405180830381600087803b1580156104e257600080fd5b505af11580156104f6573d6000803e3d6000fd5b505050506040513d601f19601f8201168201806040525081019061051a91906109ea565b50600080546001810182559080527f290decd9548b62a8d60345a988386fc84ba6bc95484008f6362f93160ef3e5630155565b600081815260016020526040902080546060919061056a90610999565b80601f016020809104026020016040519081016040528092919081815260200182805461059690610999565b80156105e35780601f106105b8576101008083540402835291602001916105e3565b820191906000526020600020905b8154815290600101906020018083116105c657829003601f168201915b50505050509050919050565b8280546105fb90610999565b90600052602060002090601f01602090048101928261061d5760008555610663565b82601f1061063657805160ff1916838001178555610663565b82800160010185558215610663579182015b82811115610663578251825591602001919060010190610648565b5061066f929150610673565b5090565b5b8082111561066f5760008155600101610674565b634e487b7160e01b600052604160045260246000fd5b604051601f8201601f1916810167ffffffffffffffff811182821017156106c7576106c7610688565b604052919050565b600082601f8301126106e057600080fd5b60405161010080820182811067ffffffffffffffff8211171561070557610705610688565b6040528301818582111561071857600080fd5b845b8281101561073257803582526020918201910161071a565b509195945050505050565b80356001600160e81b038116811461075457600080fd5b919050565b6000806000806000610180868803121561077257600080fd5b853567ffffffffffffffff8082111561078a57600080fd5b818801915088601f83011261079e57600080fd5b81356020828211156107b2576107b2610688565b6107c4601f8301601f1916820161069e565b92508183528a818386010111156107da57600080fd5b818185018285013760008183850101528298506107f98b828c016106cf565b9750505050506101208601359250610140860135915061081c610160870161073d565b90509295509295909350565b60006020828403121561083a57600080fd5b5035919050565b6000815180845260005b818110156108675760208185018101518683018201520161084b565b81811115610879576000602083870101525b50601f01601f19169290920160200192915050565b6020815260006108a16020830184610841565b9392505050565b6020808252825182820181905260009190848201906040850190845b818110156108e0578351835292840192918401916001016108c4565b50909695505050505050565b6000602082840312156108fe57600080fd5b6108a18261073d565b600060001982141561092957634e487b7160e01b600052601160045260246000fd5b5060010190565b600061018080835261094481840189610841565b91505060208083018760005b600881101561096d57815183529183019190830190600101610950565b505050506101208201949094526101408101929092526001600160e81b03166101609091015292915050565b600181811c908216806109ad57607f821691505b602082108114156109ce57634e487b7160e01b600052602260045260246000fd5b50919050565b634e487b7160e01b600052603260045260246000fd5b6000602082840312156109fc57600080fd5b505191905056fea2646970667358221220cd78cb5b10f3a5d61035af86b1382e80f4f42872950f7e5b00d5e4e9a7ca6d3064736f6c63430008090033",
  "linkReferences": {},
  "deployedLinkReferences": {}
}