{
  "_format": "hh-sol-artifact-1",
  "contractName": "IRV",
  "sourceName": "contracts/facets/votingApp/ballot/InstantRunOff.sol",
  "abi": [
    {
      "inputs": [
        {
          "internalType": "uint256",
          "name": "_candidate",
          "type": "uint256"
        }
      ],
      "name": "addCandidate",
      "outputs": [],
      "stateMutability": "nonpayable",
      "type": "function"
    },
    {
      "inputs": [],
      "name": "getCandidates",
      "outputs": [
        {
          "internalType": "uint256[]",
          "name": "",
          "type": "uint256[]"
        }
      ],
      "stateMutability": "view",
      "type": "function"
    },
    {
      "inputs": [],
      "name": "getVoteArr",
      "outputs": [
        {
          "internalType": "uint256[][]",
          "name": "",
          "type": "uint256[][]"
        }
      ],
      "stateMutability": "pure",
      "type": "function"
    },
    {
      "inputs": [
        {
          "internalType": "uint256",
          "name": "_candidate",
          "type": "uint256"
        },
        {
          "internalType": "uint256",
          "name": "_weight",
          "type": "uint256"
        }
      ],
      "name": "getVoteCount",
      "outputs": [
        {
          "internalType": "uint256",
          "name": "",
          "type": "uint256"
        }
      ],
      "stateMutability": "pure",
      "type": "function"
    },
    {
      "inputs": [
        {
          "internalType": "address",
          "name": "_voter",
          "type": "address"
        }
      ],
      "name": "getVoteStatus",
      "outputs": [
        {
          "internalType": "bool",
          "name": "",
          "type": "bool"
        }
      ],
      "stateMutability": "view",
      "type": "function"
    },
    {
      "inputs": [
        {
          "internalType": "address",
          "name": "_contractOwner",
          "type": "address"
        }
      ],
      "name": "initialize",
      "outputs": [],
      "stateMutability": "nonpayable",
      "type": "function"
    },
    {
      "inputs": [
        {
          "internalType": "address",
          "name": "_voter",
          "type": "address"
        },
        {
          "internalType": "uint256",
          "name": "_candidate",
          "type": "uint256"
        },
        {
          "internalType": "uint256",
          "name": "_score",
          "type": "uint256"
        },
        {
          "internalType": "uint256[]",
          "name": "voteArr",
          "type": "uint256[]"
        }
      ],
      "name": "vote",
      "outputs": [],
      "stateMutability": "nonpayable",
      "type": "function"
    }
  ],
  "bytecode": "0x608060405234801561001057600080fd5b50610ca3806100206000396000f3fe608060405234801561001057600080fd5b506004361061007d5760003560e01c8063afa524081161005b578063afa52408146100ec578063c4d66de81461010a578063de2e19a014610126578063e844d097146101565761007d565b806306a49fce14610082578063521b0dcc146100a0578063a1818ac4146100d0575b600080fd5b61008a610172565b6040516100979190610609565b60405180910390f35b6100ba60048036038101906100b5919061069d565b6101ca565b6040516100c791906106e5565b60405180910390f35b6100ea60048036038101906100e59190610885565b610220565b005b6100f46103dc565b6040516101019190610a39565b60405180910390f35b610124600480360381019061011f919061069d565b6103e6565b005b610140600480360381019061013b9190610a5b565b61049b565b60405161014d9190610aaa565b60405180910390f35b610170600480360381019061016b9190610ac5565b6104ab565b005b606060008054806020026020016040519081016040528092919081815260200182805480156101c057602002820191906000526020600020905b8154815260200190600101908083116101ac575b5050505050905090565b6000600160008373ffffffffffffffffffffffffffffffffffffffff1673ffffffffffffffffffffffffffffffffffffffff16815260200190815260200160002060009054906101000a900460ff169050919050565b600260009054906101000a900473ffffffffffffffffffffffffffffffffffffffff1673ffffffffffffffffffffffffffffffffffffffff163373ffffffffffffffffffffffffffffffffffffffff16146102b0576040517f08c379a00000000000000000000000000000000000000000000000000000000081526004016102a790610b75565b60405180910390fd5b60001515600160008673ffffffffffffffffffffffffffffffffffffffff1673ffffffffffffffffffffffffffffffffffffffff16815260200190815260200160002060009054906101000a900460ff16151514610343576040517f08c379a000000000000000000000000000000000000000000000000000000000815260040161033a90610be1565b60405180910390fd5b60038190806001815401808255809150506001900390600052602060002001600090919091909150908051906020019061037e9291906104d7565b5060018060008673ffffffffffffffffffffffffffffffffffffffff1673ffffffffffffffffffffffffffffffffffffffff16815260200190815260200160002060006101000a81548160ff02191690831515021790555050505050565b6060808091505090565b60001515600260149054906101000a900460ff1615151461043c576040517f08c379a000000000000000000000000000000000000000000000000000000000815260040161043390610c4d565b60405180910390fd5b80600260006101000a81548173ffffffffffffffffffffffffffffffffffffffff021916908373ffffffffffffffffffffffffffffffffffffffff1602179055506001600260146101000a81548160ff02191690831515021790555050565b6000600191506001905092915050565b600081908060018154018082558091505060019003906000526020600020016000909190919091505550565b828054828255906000526020600020908101928215610513579160200282015b828111156105125782518255916020019190600101906104f7565b5b5090506105209190610524565b5090565b5b8082111561053d576000816000905550600101610525565b5090565b600081519050919050565b600082825260208201905092915050565b6000819050602082019050919050565b6000819050919050565b6105808161056d565b82525050565b60006105928383610577565b60208301905092915050565b6000602082019050919050565b60006105b682610541565b6105c0818561054c565b93506105cb8361055d565b8060005b838110156105fc5781516105e38882610586565b97506105ee8361059e565b9250506001810190506105cf565b5085935050505092915050565b6000602082019050818103600083015261062381846105ab565b905092915050565b6000604051905090565b600080fd5b600080fd5b600073ffffffffffffffffffffffffffffffffffffffff82169050919050565b600061066a8261063f565b9050919050565b61067a8161065f565b811461068557600080fd5b50565b60008135905061069781610671565b92915050565b6000602082840312156106b3576106b2610635565b5b60006106c184828501610688565b91505092915050565b60008115159050919050565b6106df816106ca565b82525050565b60006020820190506106fa60008301846106d6565b92915050565b6107098161056d565b811461071457600080fd5b50565b60008135905061072681610700565b92915050565b600080fd5b6000601f19601f8301169050919050565b7f4e487b7100000000000000000000000000000000000000000000000000000000600052604160045260246000fd5b61077a82610731565b810181811067ffffffffffffffff8211171561079957610798610742565b5b80604052505050565b60006107ac61062b565b90506107b88282610771565b919050565b600067ffffffffffffffff8211156107d8576107d7610742565b5b602082029050602081019050919050565b600080fd5b60006108016107fc846107bd565b6107a2565b90508083825260208201905060208402830185811115610824576108236107e9565b5b835b8181101561084d57806108398882610717565b845260208401935050602081019050610826565b5050509392505050565b600082601f83011261086c5761086b61072c565b5b813561087c8482602086016107ee565b91505092915050565b6000806000806080858703121561089f5761089e610635565b5b60006108ad87828801610688565b94505060206108be87828801610717565b93505060406108cf87828801610717565b925050606085013567ffffffffffffffff8111156108f0576108ef61063a565b5b6108fc87828801610857565b91505092959194509250565b600081519050919050565b600082825260208201905092915050565b6000819050602082019050919050565b600082825260208201905092915050565b600061095082610541565b61095a8185610934565b93506109658361055d565b8060005b8381101561099657815161097d8882610586565b97506109888361059e565b925050600181019050610969565b5085935050505092915050565b60006109af8383610945565b905092915050565b6000602082019050919050565b60006109cf82610908565b6109d98185610913565b9350836020820285016109eb85610924565b8060005b85811015610a275784840389528151610a0885826109a3565b9450610a13836109b7565b925060208a019950506001810190506109ef565b50829750879550505050505092915050565b60006020820190508181036000830152610a5381846109c4565b905092915050565b60008060408385031215610a7257610a71610635565b5b6000610a8085828601610717565b9250506020610a9185828601610717565b9150509250929050565b610aa48161056d565b82525050565b6000602082019050610abf6000830184610a9b565b92915050565b600060208284031215610adb57610ada610635565b5b6000610ae984828501610717565b91505092915050565b600082825260208201905092915050565b7f4d7573742062652063616c6c65642066726f6d2074686520656c656374696f6e60008201527f206f7267616e697a657220636f6e747261637400000000000000000000000000602082015250565b6000610b5f603383610af2565b9150610b6a82610b03565b604082019050919050565b60006020820190508181036000830152610b8e81610b52565b9050919050565b7f566f74657220616c726561647920766f74656400000000000000000000000000600082015250565b6000610bcb601383610af2565b9150610bd682610b95565b602082019050919050565b60006020820190508181036000830152610bfa81610bbe565b9050919050565b7f416c726561647920496e697469616c697a656400000000000000000000000000600082015250565b6000610c37601383610af2565b9150610c4282610c01565b602082019050919050565b60006020820190508181036000830152610c6681610c2a565b905091905056fea264697066735822122078f2f4506a231c64deb1ce1dce6baa17b8845247e51bf3332e17a1b6e8a5c6f364736f6c634300080a0033",
  "linkReferences": {},
  "deployedLinkReferences": {}
}