{
  "_format": "hh-sol-artifact-1",
  "contractName": "GetResultCalculator",
  "sourceName": "contracts/facets/GetResultCalculator.sol",
  "abi": [
    {
      "inputs": [
        {
          "internalType": "uint256",
          "name": "_ballotType",
          "type": "uint256"
        }
      ],
      "name": "getNewResultCalculator",
      "outputs": [],
      "stateMutability": "nonpayable",
      "type": "function"
    }
  ],
  "bytecode": "0x608060405234801561001057600080fd5b506150bd806100206000396000f3fe608060405234801561001057600080fd5b506004361061002b5760003560e01c8063a9dda9c714610030575b600080fd5b61004a6004803603810190610045919061049b565b61004c565b005b600181036100c15760405161006090610412565b604051809103906000f08015801561007c573d6000803e3d6000fd5b506000806101000a81548173ffffffffffffffffffffffffffffffffffffffff021916908373ffffffffffffffffffffffffffffffffffffffff160217905550610378565b60028103610136576040516100d59061041f565b604051809103906000f0801580156100f1573d6000803e3d6000fd5b506000806101000a81548173ffffffffffffffffffffffffffffffffffffffff021916908373ffffffffffffffffffffffffffffffffffffffff160217905550610377565b600481036101ab5760405161014a9061042c565b604051809103906000f080158015610166573d6000803e3d6000fd5b506000806101000a81548173ffffffffffffffffffffffffffffffffffffffff021916908373ffffffffffffffffffffffffffffffffffffffff160217905550610376565b60058103610220576040516101bf90610439565b604051809103906000f0801580156101db573d6000803e3d6000fd5b506000806101000a81548173ffffffffffffffffffffffffffffffffffffffff021916908373ffffffffffffffffffffffffffffffffffffffff160217905550610375565b600481036102955760405161023490610446565b604051809103906000f080158015610250573d6000803e3d6000fd5b506000806101000a81548173ffffffffffffffffffffffffffffffffffffffff021916908373ffffffffffffffffffffffffffffffffffffffff160217905550610374565b6004810361030a576040516102a990610453565b604051809103906000f0801580156102c5573d6000803e3d6000fd5b506000806101000a81548173ffffffffffffffffffffffffffffffffffffffff021916908373ffffffffffffffffffffffffffffffffffffffff160217905550610373565b60405161031690610412565b604051809103906000f080158015610332573d6000803e3d6000fd5b506000806101000a81548173ffffffffffffffffffffffffffffffffffffffff021916908373ffffffffffffffffffffffffffffffffffffffff1602179055505b5b5b5b5b5b60008054906101000a900473ffffffffffffffffffffffffffffffffffffffff166103a16103e5565b60010160006101000a81548173ffffffffffffffffffffffffffffffffffffffff021916908373ffffffffffffffffffffffffffffffffffffffff16021790555050565b6000807f5b43f313088137496832405d64cc708765db93c8144d82f7a7f806ac22d5603b90508091505090565b61099b806104c983390190565b610a0880610e6483390190565b610cb08061186c83390190565b610f2e8061251c83390190565b6110c18061344a83390190565b610b7d8061450b83390190565b600080fd5b6000819050919050565b61047881610465565b811461048357600080fd5b50565b6000813590506104958161046f565b92915050565b6000602082840312156104b1576104b0610460565b5b60006104bf84828501610486565b9150509291505056fe608060405234801561001057600080fd5b5061097b806100206000396000f3fe608060405234801561001057600080fd5b506004361061002b5760003560e01c8063c8344a2014610030575b600080fd5b61004a60048036038101906100459190610535565b610060565b6040516100579190610633565b60405180910390f35b6060600067ffffffffffffffff81111561007d5761007c610655565b5b6040519080825280602002602001820160405280156100ab5781602001602082028036833780820191505090505b50600090805190602001906100c1929190610411565b5060008373ffffffffffffffffffffffffffffffffffffffff166306a49fce6040518163ffffffff1660e01b8152600401600060405180830381865afa15801561010f573d6000803e3d6000fd5b505050506040513d6000823e3d601f19601f8201168201806040525081019061013891906107c3565b905060008151905060008060005b838110156102b4578773ffffffffffffffffffffffffffffffffffffffff1663de2e19a086838151811061017d5761017c61080c565b5b602002602001015160016040518363ffffffff1660e01b81526004016101a492919061088f565b602060405180830381865afa1580156101c1573d6000803e3d6000fd5b505050506040513d601f19601f820116820180604052508101906101e591906108b8565b9150828211156101f3578192505b6002876102009190610914565b8311156102a757600085828151811061021c5761021b61080c565b5b60200260200101519080600181540180825580915050600190039060005260206000200160009091909190915055600080548060200260200160405190810160405280929190818152602001828054801561029657602002820191906000526020600020905b815481526020019060010190808311610282575b50505050509550505050505061040b565b8080600101915050610146565b600090505b838110156103b2578773ffffffffffffffffffffffffffffffffffffffff1663de2e19a08683815181106102f0576102ef61080c565b5b602002602001015160016040518363ffffffff1660e01b815260040161031792919061088f565b602060405180830381865afa158015610334573d6000803e3d6000fd5b505050506040513d601f19601f8201168201806040525081019061035891906108b8565b91508282036103a55760008582815181106103765761037561080c565b5b602002602001015190806001815401808255809150506001900390600052602060002001600090919091909150555b80806001019150506102b9565b60008054806020026020016040519081016040528092919081815260200182805480156103fe57602002820191906000526020600020905b8154815260200190600101908083116103ea575b5050505050955050505050505b92915050565b82805482825590600052602060002090810192821561044d579160200282015b8281111561044c578251825591602001919060010190610431565b5b50905061045a919061045e565b5090565b5b8082111561047757600081600090555060010161045f565b5090565b6000604051905090565b600080fd5b600080fd5b600073ffffffffffffffffffffffffffffffffffffffff82169050919050565b60006104ba8261048f565b9050919050565b60006104cc826104af565b9050919050565b6104dc816104c1565b81146104e757600080fd5b50565b6000813590506104f9816104d3565b92915050565b6000819050919050565b610512816104ff565b811461051d57600080fd5b50565b60008135905061052f81610509565b92915050565b6000806040838503121561054c5761054b610485565b5b600061055a858286016104ea565b925050602061056b85828601610520565b9150509250929050565b600081519050919050565b600082825260208201905092915050565b6000819050602082019050919050565b6105aa816104ff565b82525050565b60006105bc83836105a1565b60208301905092915050565b6000602082019050919050565b60006105e082610575565b6105ea8185610580565b93506105f583610591565b8060005b8381101561062657815161060d88826105b0565b9750610618836105c8565b9250506001810190506105f9565b5085935050505092915050565b6000602082019050818103600083015261064d81846105d5565b905092915050565b7f4e487b7100000000000000000000000000000000000000000000000000000000600052604160045260246000fd5b600080fd5b6000601f19601f8301169050919050565b6106a382610689565b810181811067ffffffffffffffff821117156106c2576106c1610655565b5b80604052505050565b60006106d561047b565b90506106e1828261069a565b919050565b600067ffffffffffffffff82111561070157610700610655565b5b602082029050602081019050919050565b600080fd5b60008151905061072681610509565b92915050565b600061073f61073a846106e6565b6106cb565b9050808382526020820190506020840283018581111561076257610761610712565b5b835b8181101561078b57806107778882610717565b845260208401935050602081019050610764565b5050509392505050565b600082601f8301126107aa576107a9610684565b5b81516107ba84826020860161072c565b91505092915050565b6000602082840312156107d9576107d8610485565b5b600082015167ffffffffffffffff8111156107f7576107f661048a565b5b61080384828501610795565b91505092915050565b7f4e487b7100000000000000000000000000000000000000000000000000000000600052603260045260246000fd5b610844816104ff565b82525050565b6000819050919050565b6000819050919050565b600061087961087461086f8461084a565b610854565b6104ff565b9050919050565b6108898161085e565b82525050565b60006040820190506108a4600083018561083b565b6108b16020830184610880565b9392505050565b6000602082840312156108ce576108cd610485565b5b60006108dc84828501610717565b91505092915050565b7f4e487b7100000000000000000000000000000000000000000000000000000000600052601260045260246000fd5b600061091f826104ff565b915061092a836104ff565b92508261093a576109396108e5565b5b82820490509291505056fea2646970667358221220557f502cd92091e22d90ebbea6ca01c168e5e6199a8046b9664eee3bb66e151e64736f6c63430008170033608060405234801561001057600080fd5b506109e8806100206000396000f3fe608060405234801561001057600080fd5b506004361061002b5760003560e01c8063c8344a2014610030575b600080fd5b61004a60048036038101906100459190610584565b610060565b6040516100579190610682565b60405180910390f35b6060600067ffffffffffffffff81111561007d5761007c6106a4565b5b6040519080825280602002602001820160405280156100ab5781602001602082028036833780820191505090505b50600190805190602001906100c1929190610460565b5082600560006101000a81548173ffffffffffffffffffffffffffffffffffffffff021916908373ffffffffffffffffffffffffffffffffffffffff1602179055506002826101109190610731565b600481905550600560009054906101000a900473ffffffffffffffffffffffffffffffffffffffff1673ffffffffffffffffffffffffffffffffffffffff166306a49fce6040518163ffffffff1660e01b8152600401600060405180830381865afa158015610183573d6000803e3d6000fd5b505050506040513d6000823e3d601f19601f820116820180604052508101906101ac91906108a1565b600290805190602001906101c1929190610460565b50600280549050600381905550600080600191505b60035482101561021b576101e98261029f565b6101f16103d3565b9050600454600080838152602001908152602001600020541161021b5781806001019250506101d6565b6001819080600181540180825580915050600190039060005260206000200160009091909190915055600180548060200260200160405190810160405280929190818152602001828054801561029057602002820191906000526020600020905b81548152602001906001019080831161027c575b50505050509250505092915050565b600080600091505b6003548210156103ce57600560009054906101000a900473ffffffffffffffffffffffffffffffffffffffff1673ffffffffffffffffffffffffffffffffffffffff1663de2e19a060028481548110610303576103026108ea565b5b9060005260206000200154856040518363ffffffff1660e01b815260040161032c929190610928565b602060405180830381865afa158015610349573d6000803e3d6000fd5b505050506040513d601f19601f8201168201806040525081019061036d9190610951565b9050828161037b9190610731565b60008060028581548110610392576103916108ea565b5b9060005260206000200154815260200190815260200160002060008282546103ba919061097e565b9250508190555081806001019250506102a7565b505050565b60008060008060008093505b6003548410156104565760008060028681548110610400576103ff6108ea565b5b9060005260206000200154815260200190815260200160002054925081831115610449578291506002848154811061043b5761043a6108ea565b5b906000526020600020015490505b83806001019450506103df565b8094505050505090565b82805482825590600052602060002090810192821561049c579160200282015b8281111561049b578251825591602001919060010190610480565b5b5090506104a991906104ad565b5090565b5b808211156104c65760008160009055506001016104ae565b5090565b6000604051905090565b600080fd5b600080fd5b600073ffffffffffffffffffffffffffffffffffffffff82169050919050565b6000610509826104de565b9050919050565b600061051b826104fe565b9050919050565b61052b81610510565b811461053657600080fd5b50565b60008135905061054881610522565b92915050565b6000819050919050565b6105618161054e565b811461056c57600080fd5b50565b60008135905061057e81610558565b92915050565b6000806040838503121561059b5761059a6104d4565b5b60006105a985828601610539565b92505060206105ba8582860161056f565b9150509250929050565b600081519050919050565b600082825260208201905092915050565b6000819050602082019050919050565b6105f98161054e565b82525050565b600061060b83836105f0565b60208301905092915050565b6000602082019050919050565b600061062f826105c4565b61063981856105cf565b9350610644836105e0565b8060005b8381101561067557815161065c88826105ff565b975061066783610617565b925050600181019050610648565b5085935050505092915050565b6000602082019050818103600083015261069c8184610624565b905092915050565b7f4e487b7100000000000000000000000000000000000000000000000000000000600052604160045260246000fd5b7f4e487b7100000000000000000000000000000000000000000000000000000000600052601260045260246000fd5b7f4e487b7100000000000000000000000000000000000000000000000000000000600052601160045260246000fd5b600061073c8261054e565b91506107478361054e565b925082610757576107566106d3565b5b828204905092915050565b600080fd5b6000601f19601f8301169050919050565b61078182610767565b810181811067ffffffffffffffff821117156107a05761079f6106a4565b5b80604052505050565b60006107b36104ca565b90506107bf8282610778565b919050565b600067ffffffffffffffff8211156107df576107de6106a4565b5b602082029050602081019050919050565b600080fd5b60008151905061080481610558565b92915050565b600061081d610818846107c4565b6107a9565b905080838252602082019050602084028301858111156108405761083f6107f0565b5b835b81811015610869578061085588826107f5565b845260208401935050602081019050610842565b5050509392505050565b600082601f83011261088857610887610762565b5b815161089884826020860161080a565b91505092915050565b6000602082840312156108b7576108b66104d4565b5b600082015167ffffffffffffffff8111156108d5576108d46104d9565b5b6108e184828501610873565b91505092915050565b7f4e487b7100000000000000000000000000000000000000000000000000000000600052603260045260246000fd5b6109228161054e565b82525050565b600060408201905061093d6000830185610919565b61094a6020830184610919565b9392505050565b600060208284031215610967576109666104d4565b5b6000610975848285016107f5565b91505092915050565b60006109898261054e565b91506109948361054e565b92508282019050808211156109ac576109ab610702565b5b9291505056fea26469706673582212201fba870ff0c418f9b72316223478e9f16cb40bde3e3cd2fa94259449f134ecc464736f6c63430008170033608060405234801561001057600080fd5b50610c90806100206000396000f3fe608060405234801561001057600080fd5b50600436106100415760003560e01c8063a2fb117514610046578063c5071fd314610076578063c8344a20146100a6575b600080fd5b610060600480360381019061005b9190610508565b6100d6565b60405161006d9190610544565b60405180910390f35b610090600480360381019061008b9190610799565b6100fa565b60405161009d91906108cf565b60405180910390f35b6100c060048036038101906100bb9190610961565b610372565b6040516100cd91906108cf565b60405180910390f35b600081815481106100e657600080fd5b906000526020600020016000915090505481565b60606000825167ffffffffffffffff81111561011957610118610575565b5b6040519080825280602002602001820160405280156101475781602001602082028036833780820191505090505b50905060005b835181101561018b57600082828151811061016b5761016a6109a1565b5b60200260200101818152505060018161018491906109ff565b905061014d565b5060005b845181101561023a5760005b845181101561022c578582815181106101b7576101b66109a1565b5b602002602001015181815181106101d1576101d06109a1565b5b6020026020010151600186516101e791906109ff565b6101f19190610a33565b838281518110610204576102036109a1565b5b6020026020010181815161021891906109ff565b91508181525050808060010191505061019b565b50808060010191505061018f565b506000805b8451811015610316578183828151811061025c5761025b6109a1565b5b6020026020010151036102935760008190806001815401808255809150506001900390600052602060002001600090919091909150555b818382815181106102a7576102a66109a1565b5b60200260200101511115610309578281815181106102c8576102c76109a1565b5b602002602001015191506000806102df9190610480565b60008190806001815401808255809150506001900390600052602060002001600090919091909150555b808060010191505061023f565b50600080548060200260200160405190810160405280929190818152602001828054801561036357602002820191906000526020600020905b81548152602001906001019080831161034f575b50505050509250505092915050565b606060008373ffffffffffffffffffffffffffffffffffffffff1663afa524086040518163ffffffff1660e01b81526004016000604051808303816000875af11580156103c3573d6000803e3d6000fd5b505050506040513d6000823e3d601f19601f820116820180604052508101906103ec9190610bc8565b905060008473ffffffffffffffffffffffffffffffffffffffff166306a49fce6040518163ffffffff1660e01b8152600401600060405180830381865afa15801561043b573d6000803e3d6000fd5b505050506040513d6000823e3d601f19601f820116820180604052508101906104649190610c11565b9050600061047283836100fa565b905080935050505092915050565b508054600082559060005260206000209081019061049e91906104a1565b50565b5b808211156104ba5760008160009055506001016104a2565b5090565b6000604051905090565b600080fd5b600080fd5b6000819050919050565b6104e5816104d2565b81146104f057600080fd5b50565b600081359050610502816104dc565b92915050565b60006020828403121561051e5761051d6104c8565b5b600061052c848285016104f3565b91505092915050565b61053e816104d2565b82525050565b60006020820190506105596000830184610535565b92915050565b600080fd5b6000601f19601f8301169050919050565b7f4e487b7100000000000000000000000000000000000000000000000000000000600052604160045260246000fd5b6105ad82610564565b810181811067ffffffffffffffff821117156105cc576105cb610575565b5b80604052505050565b60006105df6104be565b90506105eb82826105a4565b919050565b600067ffffffffffffffff82111561060b5761060a610575565b5b602082029050602081019050919050565b600080fd5b600067ffffffffffffffff82111561063c5761063b610575565b5b602082029050602081019050919050565b600061066061065b84610621565b6105d5565b905080838252602082019050602084028301858111156106835761068261061c565b5b835b818110156106ac578061069888826104f3565b845260208401935050602081019050610685565b5050509392505050565b600082601f8301126106cb576106ca61055f565b5b81356106db84826020860161064d565b91505092915050565b60006106f76106f2846105f0565b6105d5565b9050808382526020820190506020840283018581111561071a5761071961061c565b5b835b8181101561076157803567ffffffffffffffff81111561073f5761073e61055f565b5b80860161074c89826106b6565b8552602085019450505060208101905061071c565b5050509392505050565b600082601f8301126107805761077f61055f565b5b81356107908482602086016106e4565b91505092915050565b600080604083850312156107b0576107af6104c8565b5b600083013567ffffffffffffffff8111156107ce576107cd6104cd565b5b6107da8582860161076b565b925050602083013567ffffffffffffffff8111156107fb576107fa6104cd565b5b610807858286016106b6565b9150509250929050565b600081519050919050565b600082825260208201905092915050565b6000819050602082019050919050565b610846816104d2565b82525050565b6000610858838361083d565b60208301905092915050565b6000602082019050919050565b600061087c82610811565b610886818561081c565b93506108918361082d565b8060005b838110156108c25781516108a9888261084c565b97506108b483610864565b925050600181019050610895565b5085935050505092915050565b600060208201905081810360008301526108e98184610871565b905092915050565b600073ffffffffffffffffffffffffffffffffffffffff82169050919050565b600061091c826108f1565b9050919050565b600061092e82610911565b9050919050565b61093e81610923565b811461094957600080fd5b50565b60008135905061095b81610935565b92915050565b60008060408385031215610978576109776104c8565b5b60006109868582860161094c565b9250506020610997858286016104f3565b9150509250929050565b7f4e487b7100000000000000000000000000000000000000000000000000000000600052603260045260246000fd5b7f4e487b7100000000000000000000000000000000000000000000000000000000600052601160045260246000fd5b6000610a0a826104d2565b9150610a15836104d2565b9250828201905080821115610a2d57610a2c6109d0565b5b92915050565b6000610a3e826104d2565b9150610a49836104d2565b9250828203905081811115610a6157610a606109d0565b5b92915050565b600081519050610a76816104dc565b92915050565b6000610a8f610a8a84610621565b6105d5565b90508083825260208201905060208402830185811115610ab257610ab161061c565b5b835b81811015610adb5780610ac78882610a67565b845260208401935050602081019050610ab4565b5050509392505050565b600082601f830112610afa57610af961055f565b5b8151610b0a848260208601610a7c565b91505092915050565b6000610b26610b21846105f0565b6105d5565b90508083825260208201905060208402830185811115610b4957610b4861061c565b5b835b81811015610b9057805167ffffffffffffffff811115610b6e57610b6d61055f565b5b808601610b7b8982610ae5565b85526020850194505050602081019050610b4b565b5050509392505050565b600082601f830112610baf57610bae61055f565b5b8151610bbf848260208601610b13565b91505092915050565b600060208284031215610bde57610bdd6104c8565b5b600082015167ffffffffffffffff811115610bfc57610bfb6104cd565b5b610c0884828501610b9a565b91505092915050565b600060208284031215610c2757610c266104c8565b5b600082015167ffffffffffffffff811115610c4557610c446104cd565b5b610c5184828501610ae5565b9150509291505056fea2646970667358221220d9fa11932ae4c06663205df5e0166e95afc56510942b1194ffd4b13c72e3b75664736f6c63430008170033608060405234801561001057600080fd5b50610f0e806100206000396000f3fe608060405234801561001057600080fd5b506004361061002b5760003560e01c8063c8344a2014610030575b600080fd5b61004a60048036038101906100459190610a45565b610060565b6040516100579190610b43565b60405180910390f35b606060008373ffffffffffffffffffffffffffffffffffffffff166306a49fce6040518163ffffffff1660e01b8152600401600060405180830381865afa1580156100af573d6000803e3d6000fd5b505050506040513d6000823e3d601f19601f820116820180604052508101906100d89190610cd3565b905060008473ffffffffffffffffffffffffffffffffffffffff1663afa524086040518163ffffffff1660e01b81526004016000604051808303816000875af1158015610129573d6000803e3d6000fd5b505050506040513d6000823e3d601f19601f820116820180604052508101906101529190610dfd565b90506000825190508067ffffffffffffffff81111561017457610173610b7b565b5b6040519080825280602002602001820160405280156101a25781602001602082028036833780820191505090505b50600090805190602001906101b8929190610921565b5060005b818110156101f6576103e8600082815481106101db576101da610e46565b5b906000526020600020018190555080806001019150506101bc565b5060008167ffffffffffffffff81111561021357610212610b7b565b5b60405190808252806020026020018201604052801561024657816020015b60608152602001906001900390816102315790505b50905060005b828110156102c8578267ffffffffffffffff81111561026e5761026d610b7b565b5b60405190808252806020026020018201604052801561029c5781602001602082028036833780820191505090505b508282815181106102b0576102af610e46565b5b6020026020010181905250808060010191505061024c565b5060005b828110156103355760005b838110156103275760008383815181106102f4576102f3610e46565b5b6020026020010151828151811061030e5761030d610e46565b5b60200260200101818152505080806001019150506102d7565b5080806001019150506102cc565b5060005b8281101561048e5760005b83811015610480578082146104735784818151811061036657610365610e46565b5b602002602001015182815181106103805761037f610e46565b5b602002602001015185838151811061039b5761039a610e46565b5b602002602001015182815181106103b5576103b4610e46565b5b60200260200101511115610436578482815181106103d6576103d5610e46565b5b602002602001015181815181106103f0576103ef610e46565b5b602002602001015183838151811061040b5761040a610e46565b5b6020026020010151828151811061042557610424610e46565b5b602002602001018181525050610472565b600083838151811061044b5761044a610e46565b5b6020026020010151828151811061046557610464610e46565b5b6020026020010181815250505b5b8080600101915050610344565b508080600101915050610339565b5060008060005b848110156105ec5760005b858110156105de578082146105d15760005b868110156105cf578083141580156104ca5750808214155b156105c257600094506105458683815181106104e9576104e8610e46565b5b6020026020010151848151811061050357610502610e46565b5b602002602001015187858151811061051e5761051d610e46565b5b6020026020010151838151811061053857610537610e46565b5b60200260200101516107d2565b94506105858587848151811061055e5761055d610e46565b5b6020026020010151838151811061057857610577610e46565b5b60200260200101516107eb565b93508386838151811061059b5761059a610e46565b5b602002602001015182815181106105b5576105b4610e46565b5b6020026020010181815250505b80806001019150506104b2565b505b80806001019150506104a0565b508080600101915050610495565b506000865167ffffffffffffffff81111561060a57610609610b7b565b5b6040519080825280602002602001820160405280156106385781602001602082028036833780820191505090505b50905060005b87518110156106765761271082828151811061065d5761065c610e46565b5b602002602001018181525050808060010191505061063e565b5060005b858110156107675760005b868110156107595780821461074c578582815181106106a7576106a6610e46565b5b602002602001015181815181106106c1576106c0610e46565b5b60200260200101518682815181106106dc576106db610e46565b5b602002602001015183815181106106f6576106f5610e46565b5b6020026020010151111561074b57600183838151811061071957610718610e46565b5b602002602001015161072b9190610ea4565b83838151811061073e5761073d610e46565b5b6020026020010181815250505b5b8080600101915050610685565b50808060010191505061067a565b506107728188610804565b60008054806020026020016040519081016040528092919081815260200182805480156107be57602002820191906000526020600020905b8154815260200190600101908083116107aa575b505050505097505050505050505092915050565b60008183106107e157816107e3565b825b905092915050565b60008183116107fa57816107fc565b825b905092915050565b600067ffffffffffffffff81111561081f5761081e610b7b565b5b60405190808252806020026020018201604052801561084d5781602001602082028036833780820191505090505b5060009080519060200190610863929190610921565b506000805b82518110156108be578184828151811061088557610884610e46565b5b602002602001015111156108b1578381815181106108a6576108a5610e46565b5b602002602001015191505b8080600101915050610868565b5060005b825181101561091b5760008382815181106108e0576108df610e46565b5b6020026020010151908060018154018082558091505060019003906000526020600020016000909190919091505580806001019150506108c2565b50505050565b82805482825590600052602060002090810192821561095d579160200282015b8281111561095c578251825591602001919060010190610941565b5b50905061096a919061096e565b5090565b5b8082111561098757600081600090555060010161096f565b5090565b6000604051905090565b600080fd5b600080fd5b600073ffffffffffffffffffffffffffffffffffffffff82169050919050565b60006109ca8261099f565b9050919050565b60006109dc826109bf565b9050919050565b6109ec816109d1565b81146109f757600080fd5b50565b600081359050610a09816109e3565b92915050565b6000819050919050565b610a2281610a0f565b8114610a2d57600080fd5b50565b600081359050610a3f81610a19565b92915050565b60008060408385031215610a5c57610a5b610995565b5b6000610a6a858286016109fa565b9250506020610a7b85828601610a30565b9150509250929050565b600081519050919050565b600082825260208201905092915050565b6000819050602082019050919050565b610aba81610a0f565b82525050565b6000610acc8383610ab1565b60208301905092915050565b6000602082019050919050565b6000610af082610a85565b610afa8185610a90565b9350610b0583610aa1565b8060005b83811015610b36578151610b1d8882610ac0565b9750610b2883610ad8565b925050600181019050610b09565b5085935050505092915050565b60006020820190508181036000830152610b5d8184610ae5565b905092915050565b600080fd5b6000601f19601f8301169050919050565b7f4e487b7100000000000000000000000000000000000000000000000000000000600052604160045260246000fd5b610bb382610b6a565b810181811067ffffffffffffffff82111715610bd257610bd1610b7b565b5b80604052505050565b6000610be561098b565b9050610bf18282610baa565b919050565b600067ffffffffffffffff821115610c1157610c10610b7b565b5b602082029050602081019050919050565b600080fd5b600081519050610c3681610a19565b92915050565b6000610c4f610c4a84610bf6565b610bdb565b90508083825260208201905060208402830185811115610c7257610c71610c22565b5b835b81811015610c9b5780610c878882610c27565b845260208401935050602081019050610c74565b5050509392505050565b600082601f830112610cba57610cb9610b65565b5b8151610cca848260208601610c3c565b91505092915050565b600060208284031215610ce957610ce8610995565b5b600082015167ffffffffffffffff811115610d0757610d0661099a565b5b610d1384828501610ca5565b91505092915050565b600067ffffffffffffffff821115610d3757610d36610b7b565b5b602082029050602081019050919050565b6000610d5b610d5684610d1c565b610bdb565b90508083825260208201905060208402830185811115610d7e57610d7d610c22565b5b835b81811015610dc557805167ffffffffffffffff811115610da357610da2610b65565b5b808601610db08982610ca5565b85526020850194505050602081019050610d80565b5050509392505050565b600082601f830112610de457610de3610b65565b5b8151610df4848260208601610d48565b91505092915050565b600060208284031215610e1357610e12610995565b5b600082015167ffffffffffffffff811115610e3157610e3061099a565b5b610e3d84828501610dcf565b91505092915050565b7f4e487b7100000000000000000000000000000000000000000000000000000000600052603260045260246000fd5b7f4e487b7100000000000000000000000000000000000000000000000000000000600052601160045260246000fd5b6000610eaf82610a0f565b9150610eba83610a0f565b9250828203905081811115610ed257610ed1610e75565b5b9291505056fea264697066735822122071df5b3f1ad6a4bbe48fd292554c46e7b0c358a39f01c4f6c3c1cc5a784a79ab64736f6c63430008170033608060405234801561001057600080fd5b506110a1806100206000396000f3fe608060405234801561001057600080fd5b506004361061002b5760003560e01c8063c8344a2014610030575b600080fd5b61004a60048036038101906100459190610b25565b610060565b6040516100579190610c23565b60405180910390f35b6060600067ffffffffffffffff81111561007d5761007c610c45565b5b6040519080825280602002602001820160405280156100ab5781602001602082028036833780820191505090505b50600290805190602001906100c1929190610a01565b5060008373ffffffffffffffffffffffffffffffffffffffff166306a49fce6040518163ffffffff1660e01b8152600401600060405180830381865afa15801561010f573d6000803e3d6000fd5b505050506040513d6000823e3d601f19601f820116820180604052508101906101389190610db3565b9050600081905060005b82518110156101795760018282815181106101605761015f610dfc565b5b6020026020010181815250508080600101915050610142565b5060008573ffffffffffffffffffffffffffffffffffffffff1663afa524086040518163ffffffff1660e01b81526004016000604051808303816000875af11580156101c9573d6000803e3d6000fd5b505050506040513d6000823e3d601f19601f820116820180604052508101906101f29190610f0c565b90506000815190506000845190506000855190505b60008211156109a157600182036102f65760005b818110156102f457600186828151811061023857610237610dfc565b5b6020026020010151036102e757600287828151811061025a57610259610dfc565b5b6020026020010151908060018154018082558091505060019003906000526020600020016000909190919091505560028054806020026020016040519081016040528092919081815260200182805480156102d457602002820191906000526020600020905b8154815260200190600101908083116102c0575b50505050509750505050505050506109fb565b808060010191505061021b565b505b60005b8181101561037357600080600089848151811061031957610318610dfc565b5b602002602001015181526020019081526020016000208190555060006001600089848151811061034c5761034b610dfc565b5b602002602001015181526020019081526020016000208190555080806001019150506102f9565b506000600287516103849190610f84565b90506000805b838110156106235760018882815181106103a7576103a6610dfc565b5b6020026020010151036106165760005b868110156104ca5760018882815181106103d4576103d3610dfc565b5b602002602001015183815181106103ee576103ed610dfc565b5b60200260200101510361043e576000808b848151811061041157610410610dfc565b5b60200260200101518152602001908152602001600020600081548092919061043890610fb8565b91905055505b8588828151811061045257610451610dfc565b5b6020026020010151838151811061046c5761046b610dfc565b5b6020026020010151036104bd57600160008b84815181106104905761048f610dfc565b5b6020026020010151815260200190815260200160002060008154809291906104b790610fb8565b91905055505b80806001019150506103b7565b508560026000808c85815181106104e4576104e3610dfc565b5b60200260200101518152602001908152602001600020546105059190611000565b11156105af5760028982815181106105205761051f610dfc565b5b60200260200101519080600181540180825580915050600190039060005260206000200160009091909190915055600280548060200260200160405190810160405280929190818152602001828054801561059a57602002820191906000526020600020905b815481526020019060010190808311610586575b505050505099505050505050505050506109fb565b81600160008b84815181106105c7576105c6610dfc565b5b6020026020010151815260200190815260200160002054111561061557600160008a83815181106105fb576105fa610dfc565b5b602002602001015181526020019081526020016000205491505b5b808060010191505061038a565b50600080600288516106359190610f84565b90506000805b868110156107685760018b828151811061065857610657610dfc565b5b60200260200101510361075b5784600160008e848151811061067d5761067c610dfc565b5b6020026020010151815260200190815260200160002054036106a85783806106a490610fb8565b9450505b826000808e84815181106106bf576106be610dfc565b5b60200260200101518152602001908152602001600020541015610717576000808d83815181106106f2576106f1610dfc565b5b602002602001015181526020019081526020016000205492506001915080955061075a565b826000808e848151811061072e5761072d610dfc565b5b60200260200101518152602001908152602001600020540361075957818061075590610fb8565b9250505b5b5b808060010191505061063b565b508681036108535760005b8b518110156107ef5760018b828151811061079157610790610dfc565b5b6020026020010151036107e25760028c82815181106107b3576107b2610dfc565b5b602002602001015190806001815401808255809150506001900390600052602060002001600090919091909150555b8080600101915050610773565b50600280548060200260200160405190810160405280929190818152602001828054801561083c57602002820191906000526020600020905b815481526020019060010190808311610828575b50505050509b5050505050505050505050506109fb565b60008a868151811061086857610867610dfc565b5b602002602001018181525050868061087f90611042565b97505060005b888110156109965760008a82815181106108a2576108a1610dfc565b5b602002602001015187815181106108bc576108bb610dfc565b5b6020026020010151905060005b888110156109875760018d82815181106108e6576108e5610dfc565b5b602002602001015114801561092e5750818c848151811061090a57610909610dfc565b5b6020026020010151828151811061092457610923610dfc565b5b6020026020010151115b1561097a578b838151811061094657610945610dfc565b5b602002602001015181815181106109605761095f610dfc565b5b60200260200101805180919061097590611042565b815250505b80806001019150506108c9565b50508080600101915050610885565b505050505050610207565b60028054806020026020016040519081016040528092919081815260200182805480156109ed57602002820191906000526020600020905b8154815260200190600101908083116109d9575b505050505096505050505050505b92915050565b828054828255906000526020600020908101928215610a3d579160200282015b82811115610a3c578251825591602001919060010190610a21565b5b509050610a4a9190610a4e565b5090565b5b80821115610a67576000816000905550600101610a4f565b5090565b6000604051905090565b600080fd5b600080fd5b600073ffffffffffffffffffffffffffffffffffffffff82169050919050565b6000610aaa82610a7f565b9050919050565b6000610abc82610a9f565b9050919050565b610acc81610ab1565b8114610ad757600080fd5b50565b600081359050610ae981610ac3565b92915050565b6000819050919050565b610b0281610aef565b8114610b0d57600080fd5b50565b600081359050610b1f81610af9565b92915050565b60008060408385031215610b3c57610b3b610a75565b5b6000610b4a85828601610ada565b9250506020610b5b85828601610b10565b9150509250929050565b600081519050919050565b600082825260208201905092915050565b6000819050602082019050919050565b610b9a81610aef565b82525050565b6000610bac8383610b91565b60208301905092915050565b6000602082019050919050565b6000610bd082610b65565b610bda8185610b70565b9350610be583610b81565b8060005b83811015610c16578151610bfd8882610ba0565b9750610c0883610bb8565b925050600181019050610be9565b5085935050505092915050565b60006020820190508181036000830152610c3d8184610bc5565b905092915050565b7f4e487b7100000000000000000000000000000000000000000000000000000000600052604160045260246000fd5b600080fd5b6000601f19601f8301169050919050565b610c9382610c79565b810181811067ffffffffffffffff82111715610cb257610cb1610c45565b5b80604052505050565b6000610cc5610a6b565b9050610cd18282610c8a565b919050565b600067ffffffffffffffff821115610cf157610cf0610c45565b5b602082029050602081019050919050565b600080fd5b600081519050610d1681610af9565b92915050565b6000610d2f610d2a84610cd6565b610cbb565b90508083825260208201905060208402830185811115610d5257610d51610d02565b5b835b81811015610d7b5780610d678882610d07565b845260208401935050602081019050610d54565b5050509392505050565b600082601f830112610d9a57610d99610c74565b5b8151610daa848260208601610d1c565b91505092915050565b600060208284031215610dc957610dc8610a75565b5b600082015167ffffffffffffffff811115610de757610de6610a7a565b5b610df384828501610d85565b91505092915050565b7f4e487b7100000000000000000000000000000000000000000000000000000000600052603260045260246000fd5b600067ffffffffffffffff821115610e4657610e45610c45565b5b602082029050602081019050919050565b6000610e6a610e6584610e2b565b610cbb565b90508083825260208201905060208402830185811115610e8d57610e8c610d02565b5b835b81811015610ed457805167ffffffffffffffff811115610eb257610eb1610c74565b5b808601610ebf8982610d85565b85526020850194505050602081019050610e8f565b5050509392505050565b600082601f830112610ef357610ef2610c74565b5b8151610f03848260208601610e57565b91505092915050565b600060208284031215610f2257610f21610a75565b5b600082015167ffffffffffffffff811115610f4057610f3f610a7a565b5b610f4c84828501610ede565b91505092915050565b7f4e487b7100000000000000000000000000000000000000000000000000000000600052601160045260246000fd5b6000610f8f82610aef565b9150610f9a83610aef565b9250828201905080821115610fb257610fb1610f55565b5b92915050565b6000610fc382610aef565b91507fffffffffffffffffffffffffffffffffffffffffffffffffffffffffffffffff8203610ff557610ff4610f55565b5b600182019050919050565b600061100b82610aef565b915061101683610aef565b925082820261102481610aef565b9150828204841483151761103b5761103a610f55565b5b5092915050565b600061104d82610aef565b9150600082036110605761105f610f55565b5b60018203905091905056fea26469706673582212203c166c79aa45be5c965a666493025c441d894f9a2b842f88f86ff1e00853c85064736f6c6343000817003360806040526103e860015534801561001657600080fd5b50610b57806100266000396000f3fe608060405234801561001057600080fd5b506004361061002b5760003560e01c8063c8344a2014610030575b600080fd5b61004a60048036038101906100459190610612565b610060565b6040516100579190610710565b60405180910390f35b6060600067ffffffffffffffff81111561007d5761007c610732565b5b6040519080825280602002602001820160405280156100ab5781602001602082028036833780820191505090505b50600090805190602001906100c19291906104ee565b5060008373ffffffffffffffffffffffffffffffffffffffff166306a49fce6040518163ffffffff1660e01b8152600401600060405180830381865afa15801561010f573d6000803e3d6000fd5b505050506040513d6000823e3d601f19601f8201168201806040525081019061013891906108a0565b905060008473ffffffffffffffffffffffffffffffffffffffff1663afa524086040518163ffffffff1660e01b81526004016000604051808303816000875af1158015610189573d6000803e3d6000fd5b505050506040513d6000823e3d601f19601f820116820180604052508101906101b291906109ca565b905060008251905060008167ffffffffffffffff8111156101d6576101d5610732565b5b6040519080825280602002602001820160405280156102045781602001602082028036833780820191505090505b50905060005b8281101561023f578082828151811061022657610225610a13565b5b602002602001018181525050808060010191505061020a565b50610259838260006001866102549190610a71565b61032a565b60005b828110156102cc57846000828154811061027957610278610a13565b5b90600052602060002001548151811061029557610294610a13565b5b6020026020010151600082815481106102b1576102b0610a13565b5b9060005260206000200181905550808060010191505061025c565b50600080548060200260200160405190810160405280929190818152602001828054801561031957602002820191906000526020600020905b815481526020019060010190808311610305575b505050505094505050505092915050565b808203610419576000805b84518110156103ea57600060018261034d9190610aa5565b90505b85518110156103dc578686828151811061036d5761036c610a13565b5b60200260200101518151811061038657610385610a13565b5b60200260200101518683815181106103a1576103a0610a13565b5b6020026020010151815181106103ba576103b9610a13565b5b6020026020010151836103cd9190610aa5565b92508080600101915050610350565b508080600101915050610335565b50600154811161041357836000908051906020019061040a9291906104ee565b50806001819055505b50610469565b60008290505b8181116104675761043184848361046f565b61044985856001866104439190610aa5565b8561032a565b61045484848361046f565b808061045f90610ad9565b91505061041f565b505b50505050565b600083838151811061048457610483610a13565b5b602002602001015190508382815181106104a1576104a0610a13565b5b60200260200101518484815181106104bc576104bb610a13565b5b602002602001018181525050808483815181106104dc576104db610a13565b5b60200260200101818152505050505050565b82805482825590600052602060002090810192821561052a579160200282015b8281111561052957825182559160200191906001019061050e565b5b509050610537919061053b565b5090565b5b8082111561055457600081600090555060010161053c565b5090565b6000604051905090565b600080fd5b600080fd5b600073ffffffffffffffffffffffffffffffffffffffff82169050919050565b60006105978261056c565b9050919050565b60006105a98261058c565b9050919050565b6105b98161059e565b81146105c457600080fd5b50565b6000813590506105d6816105b0565b92915050565b6000819050919050565b6105ef816105dc565b81146105fa57600080fd5b50565b60008135905061060c816105e6565b92915050565b6000806040838503121561062957610628610562565b5b6000610637858286016105c7565b9250506020610648858286016105fd565b9150509250929050565b600081519050919050565b600082825260208201905092915050565b6000819050602082019050919050565b610687816105dc565b82525050565b6000610699838361067e565b60208301905092915050565b6000602082019050919050565b60006106bd82610652565b6106c7818561065d565b93506106d28361066e565b8060005b838110156107035781516106ea888261068d565b97506106f5836106a5565b9250506001810190506106d6565b5085935050505092915050565b6000602082019050818103600083015261072a81846106b2565b905092915050565b7f4e487b7100000000000000000000000000000000000000000000000000000000600052604160045260246000fd5b600080fd5b6000601f19601f8301169050919050565b61078082610766565b810181811067ffffffffffffffff8211171561079f5761079e610732565b5b80604052505050565b60006107b2610558565b90506107be8282610777565b919050565b600067ffffffffffffffff8211156107de576107dd610732565b5b602082029050602081019050919050565b600080fd5b600081519050610803816105e6565b92915050565b600061081c610817846107c3565b6107a8565b9050808382526020820190506020840283018581111561083f5761083e6107ef565b5b835b81811015610868578061085488826107f4565b845260208401935050602081019050610841565b5050509392505050565b600082601f83011261088757610886610761565b5b8151610897848260208601610809565b91505092915050565b6000602082840312156108b6576108b5610562565b5b600082015167ffffffffffffffff8111156108d4576108d3610567565b5b6108e084828501610872565b91505092915050565b600067ffffffffffffffff82111561090457610903610732565b5b602082029050602081019050919050565b6000610928610923846108e9565b6107a8565b9050808382526020820190506020840283018581111561094b5761094a6107ef565b5b835b8181101561099257805167ffffffffffffffff8111156109705761096f610761565b5b80860161097d8982610872565b8552602085019450505060208101905061094d565b5050509392505050565b600082601f8301126109b1576109b0610761565b5b81516109c1848260208601610915565b91505092915050565b6000602082840312156109e0576109df610562565b5b600082015167ffffffffffffffff8111156109fe576109fd610567565b5b610a0a8482850161099c565b91505092915050565b7f4e487b7100000000000000000000000000000000000000000000000000000000600052603260045260246000fd5b7f4e487b7100000000000000000000000000000000000000000000000000000000600052601160045260246000fd5b6000610a7c826105dc565b9150610a87836105dc565b9250828203905081811115610a9f57610a9e610a42565b5b92915050565b6000610ab0826105dc565b9150610abb836105dc565b9250828201905080821115610ad357610ad2610a42565b5b92915050565b6000610ae4826105dc565b91507fffffffffffffffffffffffffffffffffffffffffffffffffffffffffffffffff8203610b1657610b15610a42565b5b60018201905091905056fea2646970667358221220f9e36bbd3ac758b4bf4a5e5a3282079d977c52fdc4357abddc230b9062b7b2e864736f6c63430008170033a2646970667358221220ae15312bbff21754175fdb31da2b2332d87723b493e78f89088740ba155697af64736f6c63430008170033",
  "linkReferences": {},
  "deployedLinkReferences": {}
}