{
  "_format": "hh-sol-artifact-1",
  "contractName": "Authentication",
  "sourceName": "contracts/facets/Authentication.sol",
  "abi": [
    {
      "inputs": [
        {
          "components": [
            {
              "internalType": "uint256",
              "name": "organizerID",
              "type": "uint256"
            },
            {
              "internalType": "string",
              "name": "name",
              "type": "string"
            },
            {
              "internalType": "address",
              "name": "publicAddress",
              "type": "address"
            }
          ],
          "internalType": "struct ElectionOrganizer.OrganizerInfo",
          "name": "_organizerInfo",
          "type": "tuple"
        },
        {
          "internalType": "string",
          "name": "hashedPassword",
          "type": "string"
        }
      ],
      "name": "createUser",
      "outputs": [],
      "stateMutability": "nonpayable",
      "type": "function"
    },
    {
      "inputs": [
        {
          "internalType": "address",
          "name": "_user",
          "type": "address"
        }
      ],
      "name": "getAuthStatus",
      "outputs": [
        {
          "internalType": "bool",
          "name": "",
          "type": "bool"
        }
      ],
      "stateMutability": "view",
      "type": "function"
    },
    {
      "inputs": [],
      "name": "getElectionOrganizer",
      "outputs": [
        {
          "components": [
            {
              "internalType": "uint256",
              "name": "organizerID",
              "type": "uint256"
            },
            {
              "internalType": "string",
              "name": "name",
              "type": "string"
            },
            {
              "internalType": "address",
              "name": "publicAddress",
              "type": "address"
            }
          ],
          "internalType": "struct ElectionOrganizer.OrganizerInfo[]",
          "name": "",
          "type": "tuple[]"
        }
      ],
      "stateMutability": "view",
      "type": "function"
    },
    {
      "inputs": [],
      "name": "getElectionOrganizerContract",
      "outputs": [
        {
          "internalType": "address",
          "name": "",
          "type": "address"
        }
      ],
      "stateMutability": "view",
      "type": "function"
    },
    {
      "inputs": [
        {
          "internalType": "address",
          "name": "_user",
          "type": "address"
        },
        {
          "internalType": "string",
          "name": "hashedPassword",
          "type": "string"
        }
      ],
      "name": "getLoggedInStatus",
      "outputs": [
        {
          "internalType": "bool",
          "name": "",
          "type": "bool"
        }
      ],
      "stateMutability": "view",
      "type": "function"
    },
    {
      "inputs": [],
      "name": "getVoterContract",
      "outputs": [
        {
          "internalType": "address",
          "name": "",
          "type": "address"
        }
      ],
      "stateMutability": "view",
      "type": "function"
    },
    {
      "inputs": [
        {
          "internalType": "address",
          "name": "_diamond",
          "type": "address"
        }
      ],
      "name": "init",
      "outputs": [],
      "stateMutability": "nonpayable",
      "type": "function"
    }
  ],
  "bytecode": "0x608060405234801561001057600080fd5b506110f2806100206000396000f3fe608060405234801561001057600080fd5b506004361061007d5760003560e01c806363141a541161005b57806363141a54146100ec578063b5af86bd14610108578063bba92b2b14610138578063e04b1c0c146101565761007d565b806314bde88e1461008257806319ab453c146100b2578063378d47e9146100ce575b600080fd5b61009c60048036038101906100979190610753565b610174565b6040516100a9919061079b565b60405180910390f35b6100cc60048036038101906100c79190610753565b610186565b005b6100d66102d4565b6040516100e391906107c5565b60405180910390f35b610106600480360381019061010191906109e6565b6102fd565b005b610122600480360381019061011d9190610abe565b6104c4565b60405161012f919061079b565b60405180910390f35b6101406104da565b60405161014d91906107c5565b60405180910390f35b61015e610504565b60405161016b9190610cd6565b60405180910390f35b600061017f8261059f565b9050919050565b8061018f610603565b60000160006101000a81548173ffffffffffffffffffffffffffffffffffffffff021916908373ffffffffffffffffffffffffffffffffffffffff160217905550806000806101000a81548173ffffffffffffffffffffffffffffffffffffffff021916908373ffffffffffffffffffffffffffffffffffffffff16021790555060008054906101000a900473ffffffffffffffffffffffffffffffffffffffff1673ffffffffffffffffffffffffffffffffffffffff16631d43d8ed6040518163ffffffff1660e01b8152600401600060405180830381600087803b15801561027857600080fd5b505af115801561028c573d6000803e3d6000fd5b5050505080600160006101000a81548173ffffffffffffffffffffffffffffffffffffffff021916908373ffffffffffffffffffffffffffffffffffffffff16021790555050565b60008060009054906101000a900473ffffffffffffffffffffffffffffffffffffffff16905090565b6000151561030e8360400151610174565b151514610350576040517f08c379a000000000000000000000000000000000000000000000000000000000815260040161034790610d55565b60405180910390fd5b600061035a610630565b90506001816000016000856040015173ffffffffffffffffffffffffffffffffffffffff1673ffffffffffffffffffffffffffffffffffffffff16815260200190815260200160002060006101000a81548160ff02191690831515021790555060008054906101000a900473ffffffffffffffffffffffffffffffffffffffff1673ffffffffffffffffffffffffffffffffffffffff166315d4ffa0846040518263ffffffff1660e01b81526004016104139190610dc5565b600060405180830381600087803b15801561042d57600080fd5b505af1158015610441573d6000803e3d6000fd5b505050506001816001016000856040015173ffffffffffffffffffffffffffffffffffffffff1673ffffffffffffffffffffffffffffffffffffffff1681526020019081526020016000208360405161049a9190610e23565b908152602001604051809103902060006101000a81548160ff021916908315150217905550505050565b60006104d184848461065d565b90509392505050565b6000600160009054906101000a900473ffffffffffffffffffffffffffffffffffffffff16905090565b606060008054906101000a900473ffffffffffffffffffffffffffffffffffffffff1673ffffffffffffffffffffffffffffffffffffffff1663a8c019876040518163ffffffff1660e01b8152600401600060405180830381865afa158015610571573d6000803e3d6000fd5b505050506040513d6000823e3d601f19601f8201168201806040525081019061059a9190611035565b905090565b6000806105aa610630565b90508060000160008473ffffffffffffffffffffffffffffffffffffffff1673ffffffffffffffffffffffffffffffffffffffff16815260200190815260200160002060009054906101000a900460ff16915050919050565b6000807fc20038518297e76c0e27a913ab03e5d4fd92b2579d428cf3b89f8c71add2acef90508091505090565b6000807f28c60b22ceff0eefc417330ca9cd9cb24ab3e119eebacc38ff0038307a6965ed90508091505090565b600080610668610630565b90508060010160008673ffffffffffffffffffffffffffffffffffffffff1673ffffffffffffffffffffffffffffffffffffffff16815260200190815260200160002084846040516106bb9291906110a3565b908152602001604051809103902060009054906101000a900460ff169150509392505050565b6000604051905090565b600080fd5b600080fd5b600073ffffffffffffffffffffffffffffffffffffffff82169050919050565b6000610720826106f5565b9050919050565b61073081610715565b811461073b57600080fd5b50565b60008135905061074d81610727565b92915050565b600060208284031215610769576107686106eb565b5b60006107778482850161073e565b91505092915050565b60008115159050919050565b61079581610780565b82525050565b60006020820190506107b0600083018461078c565b92915050565b6107bf81610715565b82525050565b60006020820190506107da60008301846107b6565b92915050565b600080fd5b6000601f19601f8301169050919050565b7f4e487b7100000000000000000000000000000000000000000000000000000000600052604160045260246000fd5b61082e826107e5565b810181811067ffffffffffffffff8211171561084d5761084c6107f6565b5b80604052505050565b60006108606106e1565b905061086c8282610825565b919050565b600080fd5b6000819050919050565b61088981610876565b811461089457600080fd5b50565b6000813590506108a681610880565b92915050565b600080fd5b600080fd5b600067ffffffffffffffff8211156108d1576108d06107f6565b5b6108da826107e5565b9050602081019050919050565b82818337600083830152505050565b6000610909610904846108b6565b610856565b905082815260208101848484011115610925576109246108b1565b5b6109308482856108e7565b509392505050565b600082601f83011261094d5761094c6108ac565b5b813561095d8482602086016108f6565b91505092915050565b60006060828403121561097c5761097b6107e0565b5b6109866060610856565b9050600061099684828501610897565b600083015250602082013567ffffffffffffffff8111156109ba576109b9610871565b5b6109c684828501610938565b60208301525060406109da8482850161073e565b60408301525092915050565b600080604083850312156109fd576109fc6106eb565b5b600083013567ffffffffffffffff811115610a1b57610a1a6106f0565b5b610a2785828601610966565b925050602083013567ffffffffffffffff811115610a4857610a476106f0565b5b610a5485828601610938565b9150509250929050565b600080fd5b600080fd5b60008083601f840112610a7e57610a7d6108ac565b5b8235905067ffffffffffffffff811115610a9b57610a9a610a5e565b5b602083019150836001820283011115610ab757610ab6610a63565b5b9250929050565b600080600060408486031215610ad757610ad66106eb565b5b6000610ae58682870161073e565b935050602084013567ffffffffffffffff811115610b0657610b056106f0565b5b610b1286828701610a68565b92509250509250925092565b600081519050919050565b600082825260208201905092915050565b6000819050602082019050919050565b610b5381610876565b82525050565b600081519050919050565b600082825260208201905092915050565b60005b83811015610b93578082015181840152602081019050610b78565b83811115610ba2576000848401525b50505050565b6000610bb382610b59565b610bbd8185610b64565b9350610bcd818560208601610b75565b610bd6816107e5565b840191505092915050565b610bea81610715565b82525050565b6000606083016000830151610c086000860182610b4a565b5060208301518482036020860152610c208282610ba8565b9150506040830151610c356040860182610be1565b508091505092915050565b6000610c4c8383610bf0565b905092915050565b6000602082019050919050565b6000610c6c82610b1e565b610c768185610b29565b935083602082028501610c8885610b3a565b8060005b85811015610cc45784840389528151610ca58582610c40565b9450610cb083610c54565b925060208a01995050600181019050610c8c565b50829750879550505050505092915050565b60006020820190508181036000830152610cf08184610c61565b905092915050565b600082825260208201905092915050565b7f5573657220616c72656164792072656769737465726564000000000000000000600082015250565b6000610d3f601783610cf8565b9150610d4a82610d09565b602082019050919050565b60006020820190508181036000830152610d6e81610d32565b9050919050565b6000606083016000830151610d8d6000860182610b4a565b5060208301518482036020860152610da58282610ba8565b9150506040830151610dba6040860182610be1565b508091505092915050565b60006020820190508181036000830152610ddf8184610d75565b905092915050565b600081905092915050565b6000610dfd82610b59565b610e078185610de7565b9350610e17818560208601610b75565b80840191505092915050565b6000610e2f8284610df2565b915081905092915050565b600067ffffffffffffffff821115610e5557610e546107f6565b5b602082029050602081019050919050565b600081519050610e7581610880565b92915050565b6000610e8e610e89846108b6565b610856565b905082815260208101848484011115610eaa57610ea96108b1565b5b610eb5848285610b75565b509392505050565b600082601f830112610ed257610ed16108ac565b5b8151610ee2848260208601610e7b565b91505092915050565b600081519050610efa81610727565b92915050565b600060608284031215610f1657610f156107e0565b5b610f206060610856565b90506000610f3084828501610e66565b600083015250602082015167ffffffffffffffff811115610f5457610f53610871565b5b610f6084828501610ebd565b6020830152506040610f7484828501610eeb565b60408301525092915050565b6000610f93610f8e84610e3a565b610856565b90508083825260208201905060208402830185811115610fb657610fb5610a63565b5b835b81811015610ffd57805167ffffffffffffffff811115610fdb57610fda6108ac565b5b808601610fe88982610f00565b85526020850194505050602081019050610fb8565b5050509392505050565b600082601f83011261101c5761101b6108ac565b5b815161102c848260208601610f80565b91505092915050565b60006020828403121561104b5761104a6106eb565b5b600082015167ffffffffffffffff811115611069576110686106f0565b5b61107584828501611007565b91505092915050565b600061108a8385610de7565b93506110978385846108e7565b82840190509392505050565b60006110b082848661107e565b9150819050939250505056fea2646970667358221220d2a8c375666f2a3730a4a1628511cd659e7a25c9c6b3b5ad66db77d1792e38a264736f6c634300080a0033",
  "linkReferences": {},
  "deployedLinkReferences": {}
}