{
  "_format": "hh-sol-artifact-1",
  "contractName": "Authentication",
  "sourceName": "contracts/facets/Authentication.sol",
  "abi": [
    {
      "inputs": [
        {
          "components": [
            {
              "internalType": "uint256",
              "name": "organizerID",
              "type": "uint256"
            },
            {
              "internalType": "string",
              "name": "name",
              "type": "string"
            },
            {
              "internalType": "address",
              "name": "publicAddress",
              "type": "address"
            }
          ],
          "internalType": "struct ElectionOrganizer.OrganizerInfo",
          "name": "_organizerInfo",
          "type": "tuple"
        },
        {
          "internalType": "string",
          "name": "hashedPassword",
          "type": "string"
        }
      ],
      "name": "createUser",
      "outputs": [],
      "stateMutability": "nonpayable",
      "type": "function"
    },
    {
      "inputs": [
        {
          "internalType": "address",
          "name": "_user",
          "type": "address"
        }
      ],
      "name": "getAuthStatus",
      "outputs": [
        {
          "internalType": "bool",
          "name": "",
          "type": "bool"
        }
      ],
      "stateMutability": "view",
      "type": "function"
    },
    {
      "inputs": [],
      "name": "getElectionOrganizer",
      "outputs": [
        {
          "components": [
            {
              "internalType": "uint256",
              "name": "organizerID",
              "type": "uint256"
            },
            {
              "internalType": "string",
              "name": "name",
              "type": "string"
            },
            {
              "internalType": "address",
              "name": "publicAddress",
              "type": "address"
            }
          ],
          "internalType": "struct ElectionOrganizer.OrganizerInfo[]",
          "name": "",
          "type": "tuple[]"
        }
      ],
      "stateMutability": "view",
      "type": "function"
    },
    {
      "inputs": [],
      "name": "getElectionOrganizerContract",
      "outputs": [
        {
          "internalType": "address",
          "name": "",
          "type": "address"
        }
      ],
      "stateMutability": "view",
      "type": "function"
    },
    {
      "inputs": [
        {
          "internalType": "address",
          "name": "_user",
          "type": "address"
        },
        {
          "internalType": "string",
          "name": "hashedPassword",
          "type": "string"
        }
      ],
      "name": "getLoggedInStatus",
      "outputs": [
        {
          "internalType": "bool",
          "name": "",
          "type": "bool"
        }
      ],
      "stateMutability": "view",
      "type": "function"
    },
    {
      "inputs": [
        {
          "internalType": "address",
          "name": "_diamond",
          "type": "address"
        }
      ],
      "name": "init",
      "outputs": [],
      "stateMutability": "nonpayable",
      "type": "function"
    }
  ],
  "bytecode": "0x608060405234801561001057600080fd5b50610f31806100206000396000f3fe608060405234801561001057600080fd5b50600436106100625760003560e01c806314bde88e1461006757806319ab453c14610097578063378d47e9146100b357806363141a54146100d1578063b5af86bd146100ed578063e04b1c0c1461011d575b600080fd5b610081600480360381019061007c919061062f565b61013b565b60405161008e9190610677565b60405180910390f35b6100b160048036038101906100ac919061062f565b610190565b005b6100bb6102a0565b6040516100c891906106a1565b60405180910390f35b6100eb60048036038101906100e691906108c2565b6102ca565b005b6101076004803603810190610102919061093a565b610480565b6040516101149190610677565b60405180910390f35b6101256104f3565b6040516101329190610b4e565b60405180910390f35b60008060008373ffffffffffffffffffffffffffffffffffffffff1673ffffffffffffffffffffffffffffffffffffffff16815260200190815260200160002060009054906101000a900460ff169050919050565b80610199610590565b60000160006101000a81548173ffffffffffffffffffffffffffffffffffffffff021916908373ffffffffffffffffffffffffffffffffffffffff16021790555080600260006101000a81548173ffffffffffffffffffffffffffffffffffffffff021916908373ffffffffffffffffffffffffffffffffffffffff160217905550600260009054906101000a900473ffffffffffffffffffffffffffffffffffffffff1673ffffffffffffffffffffffffffffffffffffffff16631d43d8ed6040518163ffffffff1660e01b8152600401600060405180830381600087803b15801561028557600080fd5b505af1158015610299573d6000803e3d6000fd5b5050505050565b6000600260009054906101000a900473ffffffffffffffffffffffffffffffffffffffff16905090565b600015156102db836040015161013b565b15151461031d576040517f08c379a000000000000000000000000000000000000000000000000000000000815260040161031490610bcd565b60405180910390fd5b6001600080846040015173ffffffffffffffffffffffffffffffffffffffff1673ffffffffffffffffffffffffffffffffffffffff16815260200190815260200160002060006101000a81548160ff021916908315150217905550600260009054906101000a900473ffffffffffffffffffffffffffffffffffffffff1673ffffffffffffffffffffffffffffffffffffffff166315d4ffa0836040518263ffffffff1660e01b81526004016103d39190610c3d565b600060405180830381600087803b1580156103ed57600080fd5b505af1158015610401573d6000803e3d6000fd5b505050506001806000846040015173ffffffffffffffffffffffffffffffffffffffff1673ffffffffffffffffffffffffffffffffffffffff168152602001908152602001600020826040516104579190610c9b565b908152602001604051809103902060006101000a81548160ff0219169083151502179055505050565b6000600160008473ffffffffffffffffffffffffffffffffffffffff1673ffffffffffffffffffffffffffffffffffffffff168152602001908152602001600020826040516104cf9190610c9b565b908152602001604051809103902060009054906101000a900460ff16905092915050565b6060600260009054906101000a900473ffffffffffffffffffffffffffffffffffffffff1673ffffffffffffffffffffffffffffffffffffffff1663a8c019876040518163ffffffff1660e01b8152600401600060405180830381865afa158015610562573d6000803e3d6000fd5b505050506040513d6000823e3d601f19601f8201168201806040525081019061058b9190610eb2565b905090565b6000807fc20038518297e76c0e27a913ab03e5d4fd92b2579d428cf3b89f8c71add2acef90508091505090565b6000604051905090565b600080fd5b600080fd5b600073ffffffffffffffffffffffffffffffffffffffff82169050919050565b60006105fc826105d1565b9050919050565b61060c816105f1565b811461061757600080fd5b50565b60008135905061062981610603565b92915050565b600060208284031215610645576106446105c7565b5b60006106538482850161061a565b91505092915050565b60008115159050919050565b6106718161065c565b82525050565b600060208201905061068c6000830184610668565b92915050565b61069b816105f1565b82525050565b60006020820190506106b66000830184610692565b92915050565b600080fd5b6000601f19601f8301169050919050565b7f4e487b7100000000000000000000000000000000000000000000000000000000600052604160045260246000fd5b61070a826106c1565b810181811067ffffffffffffffff82111715610729576107286106d2565b5b80604052505050565b600061073c6105bd565b90506107488282610701565b919050565b600080fd5b6000819050919050565b61076581610752565b811461077057600080fd5b50565b6000813590506107828161075c565b92915050565b600080fd5b600080fd5b600067ffffffffffffffff8211156107ad576107ac6106d2565b5b6107b6826106c1565b9050602081019050919050565b82818337600083830152505050565b60006107e56107e084610792565b610732565b9050828152602081018484840111156108015761080061078d565b5b61080c8482856107c3565b509392505050565b600082601f83011261082957610828610788565b5b81356108398482602086016107d2565b91505092915050565b600060608284031215610858576108576106bc565b5b6108626060610732565b9050600061087284828501610773565b600083015250602082013567ffffffffffffffff8111156108965761089561074d565b5b6108a284828501610814565b60208301525060406108b68482850161061a565b60408301525092915050565b600080604083850312156108d9576108d86105c7565b5b600083013567ffffffffffffffff8111156108f7576108f66105cc565b5b61090385828601610842565b925050602083013567ffffffffffffffff811115610924576109236105cc565b5b61093085828601610814565b9150509250929050565b60008060408385031215610951576109506105c7565b5b600061095f8582860161061a565b925050602083013567ffffffffffffffff8111156109805761097f6105cc565b5b61098c85828601610814565b9150509250929050565b600081519050919050565b600082825260208201905092915050565b6000819050602082019050919050565b6109cb81610752565b82525050565b600081519050919050565b600082825260208201905092915050565b60005b83811015610a0b5780820151818401526020810190506109f0565b83811115610a1a576000848401525b50505050565b6000610a2b826109d1565b610a3581856109dc565b9350610a458185602086016109ed565b610a4e816106c1565b840191505092915050565b610a62816105f1565b82525050565b6000606083016000830151610a8060008601826109c2565b5060208301518482036020860152610a988282610a20565b9150506040830151610aad6040860182610a59565b508091505092915050565b6000610ac48383610a68565b905092915050565b6000602082019050919050565b6000610ae482610996565b610aee81856109a1565b935083602082028501610b00856109b2565b8060005b85811015610b3c5784840389528151610b1d8582610ab8565b9450610b2883610acc565b925060208a01995050600181019050610b04565b50829750879550505050505092915050565b60006020820190508181036000830152610b688184610ad9565b905092915050565b600082825260208201905092915050565b7f5573657220616c72656164792072656769737465726564000000000000000000600082015250565b6000610bb7601783610b70565b9150610bc282610b81565b602082019050919050565b60006020820190508181036000830152610be681610baa565b9050919050565b6000606083016000830151610c0560008601826109c2565b5060208301518482036020860152610c1d8282610a20565b9150506040830151610c326040860182610a59565b508091505092915050565b60006020820190508181036000830152610c578184610bed565b905092915050565b600081905092915050565b6000610c75826109d1565b610c7f8185610c5f565b9350610c8f8185602086016109ed565b80840191505092915050565b6000610ca78284610c6a565b915081905092915050565b600067ffffffffffffffff821115610ccd57610ccc6106d2565b5b602082029050602081019050919050565b600080fd5b600081519050610cf28161075c565b92915050565b6000610d0b610d0684610792565b610732565b905082815260208101848484011115610d2757610d2661078d565b5b610d328482856109ed565b509392505050565b600082601f830112610d4f57610d4e610788565b5b8151610d5f848260208601610cf8565b91505092915050565b600081519050610d7781610603565b92915050565b600060608284031215610d9357610d926106bc565b5b610d9d6060610732565b90506000610dad84828501610ce3565b600083015250602082015167ffffffffffffffff811115610dd157610dd061074d565b5b610ddd84828501610d3a565b6020830152506040610df184828501610d68565b60408301525092915050565b6000610e10610e0b84610cb2565b610732565b90508083825260208201905060208402830185811115610e3357610e32610cde565b5b835b81811015610e7a57805167ffffffffffffffff811115610e5857610e57610788565b5b808601610e658982610d7d565b85526020850194505050602081019050610e35565b5050509392505050565b600082601f830112610e9957610e98610788565b5b8151610ea9848260208601610dfd565b91505092915050565b600060208284031215610ec857610ec76105c7565b5b600082015167ffffffffffffffff811115610ee657610ee56105cc565b5b610ef284828501610e84565b9150509291505056fea2646970667358221220ef6c9f9d17e0688b6961c86c0ebe2b566363a8d2c7bb6f49c9dc3ab608a97b4f64736f6c634300080a0033",
  "linkReferences": {},
  "deployedLinkReferences": {}
}