{"abi":[{"type":"function","name":"addCandidate","inputs":[{"name":"_name","type":"string","internalType":"string"},{"name":"_description","type":"string","internalType":"string"}],"outputs":[],"stateMutability":"nonpayable"},{"type":"function","name":"candidates","inputs":[{"name":"","type":"uint256","internalType":"uint256"}],"outputs":[{"name":"candidateID","type":"uint256","internalType":"uint256"},{"name":"name","type":"string","internalType":"string"},{"name":"description","type":"string","internalType":"string"}],"stateMutability":"view"},{"type":"function","name":"ccipVote","inputs":[{"name":"user","type":"address","internalType":"address"},{"name":"_voteArr","type":"uint256[]","internalType":"uint256[]"}],"outputs":[],"stateMutability":"nonpayable"},{"type":"function","name":"electionId","inputs":[],"outputs":[{"name":"","type":"uint256","internalType":"uint256"}],"stateMutability":"view"},{"type":"function","name":"electionInfo","inputs":[],"outputs":[{"name":"startTime","type":"uint256","internalType":"uint256"},{"name":"endTime","type":"uint256","internalType":"uint256"},{"name":"name","type":"string","internalType":"string"},{"name":"description","type":"string","internalType":"string"}],"stateMutability":"view"},{"type":"function","name":"factoryContract","inputs":[],"outputs":[{"name":"","type":"address","internalType":"address"}],"stateMutability":"view"},{"type":"function","name":"getCandidateList","inputs":[],"outputs":[{"name":"","type":"tuple[]","internalType":"struct Election.Candidate[]","components":[{"name":"candidateID","type":"uint256","internalType":"uint256"},{"name":"name","type":"string","internalType":"string"},{"name":"description","type":"string","internalType":"string"}]}],"stateMutability":"view"},{"type":"function","name":"getResult","inputs":[],"outputs":[],"stateMutability":"nonpayable"},{"type":"function","name":"getWinners","inputs":[],"outputs":[{"name":"","type":"uint256[]","internalType":"uint256[]"}],"stateMutability":"view"},{"type":"function","name":"initialize","inputs":[{"name":"_electionInfo","type":"tuple","internalType":"struct Election.ElectionInfo","components":[{"name":"startTime","type":"uint256","internalType":"uint256"},{"name":"endTime","type":"uint256","internalType":"uint256"},{"name":"name","type":"string","internalType":"string"},{"name":"description","type":"string","internalType":"string"}]},{"name":"_resultType","type":"uint256","internalType":"uint256"},{"name":"_electionId","type":"uint256","internalType":"uint256"},{"name":"_ballot","type":"address","internalType":"address"},{"name":"_owner","type":"address","internalType":"address"},{"name":"_resultCalculator","type":"address","internalType":"address"}],"outputs":[],"stateMutability":"nonpayable"},{"type":"function","name":"owner","inputs":[],"outputs":[{"name":"","type":"address","internalType":"address"}],"stateMutability":"view"},{"type":"function","name":"removeCandidate","inputs":[{"name":"_id","type":"uint256","internalType":"uint256"}],"outputs":[],"stateMutability":"nonpayable"},{"type":"function","name":"resultType","inputs":[],"outputs":[{"name":"","type":"uint256","internalType":"uint256"}],"stateMutability":"view"},{"type":"function","name":"resultsDeclared","inputs":[],"outputs":[{"name":"","type":"bool","internalType":"bool"}],"stateMutability":"view"},{"type":"function","name":"totalVotes","inputs":[],"outputs":[{"name":"","type":"uint256","internalType":"uint256"}],"stateMutability":"view"},{"type":"function","name":"userVote","inputs":[{"name":"voteArr","type":"uint256[]","internalType":"uint256[]"}],"outputs":[],"stateMutability":"nonpayable"},{"type":"function","name":"userVoted","inputs":[{"name":"user","type":"address","internalType":"address"}],"outputs":[{"name":"isVoted","type":"bool","internalType":"bool"}],"stateMutability":"view"},{"type":"function","name":"winners","inputs":[{"name":"","type":"uint256","internalType":"uint256"}],"outputs":[{"name":"","type":"uint256","internalType":"uint256"}],"stateMutability":"view"},{"type":"event","name":"Initialized","inputs":[{"name":"version","type":"uint8","indexed":false,"internalType":"uint8"}],"anonymous":false},{"type":"error","name":"AlreadyVoted","inputs":[]},{"type":"error","name":"ElectionInactive","inputs":[]},{"type":"error","name":"ElectionIncomplete","inputs":[]},{"type":"error","name":"GetVotes","inputs":[]},{"type":"error","name":"OwnerPermissioned","inputs":[]}],"bytecode":{"object":"0x6080604052348015600e575f5ffd5b5061192f8061001c5f395ff3fe608060405234801561000f575f5ffd5b5060043610610111575f3560e01c80638da5cb5b1161009e578063de11c94a1161006e578063de11c94a14610248578063de2927891461025b578063df15c37e14610263578063e97a2b3614610278578063fdbc40061461028b575f5ffd5b80638da5cb5b146101f4578063965473bd1461021f578063a2fb11751461022c578063c720990a1461023f575f5ffd5b806326541b56116100e457806326541b56146101815780633477ee2e14610194578063510c2d0d146101b65780636a334fe3146101c95780636c74bf6d146101dc575f5ffd5b8063051364d41461011557806309e9d7e2146101315780630d15fd7714610146578063254fe7d71461014f575b5f5ffd5b61011e60095481565b6040519081526020015b60405180910390f35b61014461013f36600461107b565b6102a0565b005b61011e600b5481565b61017161015d3660046110ad565b60016020525f908152604090205460ff1681565b6040519015158152602001610128565b61014461018f366004611111565b6103d7565b6101a76101a236600461107b565b61053f565b604051610128939291906111a9565b6101446101c43660046112d5565b61067f565b6101446101d736600461131f565b610832565b6101e46109aa565b6040516101289493929190611358565b600754610207906001600160a01b031681565b6040516001600160a01b039091168152602001610128565b600c546101719060ff1681565b61011e61023a36600461107b565b610acf565b61011e600a5481565b600654610207906001600160a01b031681565b610144610aee565b61026b610c5f565b6040516101289190611393565b610144610286366004611440565b610cb5565b610293610e5f565b604051610128919061152e565b6007546001600160a01b031633146102cb5760405163282b2e2960e21b815260040160405180910390fd5b6002544211156102ee5760405163715ef7af60e01b815260040160405180910390fd5b600e80546102fe906001906115d6565b8154811061030e5761030e6115ef565b905f5260205f209060030201600e828154811061032d5761032d6115ef565b5f9182526020909120825460039092020190815560018082019061035390840182611687565b5060028181019061036690840182611687565b5090505080600e828154811061037e5761037e6115ef565b5f918252602090912060039091020155600e80548061039f5761039f61175e565b5f8281526020812060035f1990930192830201818155906103c36001830182610fe4565b6103d0600283015f610fe4565b5050905550565b6007546001600160a01b031633146104025760405163282b2e2960e21b815260040160405180910390fd5b6002544211156104255760405163715ef7af60e01b815260040160405180910390fd5b5f6040518060600160405280600e80549050815260200186868080601f0160208091040260200160405190810160405280939291908181526020018383808284375f92019190915250505090825250604080516020601f8701819004810282018101909252858152918101919086908690819084018382808284375f920182905250939094525050600e80546001810182559152825160039091027fbb7b4a454dc3493923482f07822329ed19e8244eff582cc204f8554c3620c3fd8101918255602084015193945084939192507fbb7b4a454dc3493923482f07822329ed19e8244eff582cc204f8554c3620c3fe01906105209082611772565b50604082015160028201906105359082611772565b5050505050505050565b600e818154811061054e575f80fd5b5f918252602090912060039091020180546001820180549193509061057290611603565b80601f016020809104026020016040519081016040528092919081815260200182805461059e90611603565b80156105e95780601f106105c0576101008083540402835291602001916105e9565b820191905f5260205f20905b8154815290600101906020018083116105cc57829003601f168201915b5050505050908060020180546105fe90611603565b80601f016020809104026020016040519081016040528092919081815260200182805461062a90611603565b80156106755780601f1061064c57610100808354040283529160200191610675565b820191905f5260205f20905b81548152906001019060200180831161065857829003601f168201915b5050505050905083565b600254421080610690575060035442115b156106ae5760405163715ef7af60e01b815260040160405180910390fd5b6001600160a01b0382165f9081526001602052604090205460ff16156106e757604051637c9a1cf960e01b815260040160405180910390fd5b600c54610100900460ff1615155f0361076c57600c54600e5460405163b7b0422d60e01b81526004810191909152620100009091046001600160a01b03169063b7b0422d906024015f604051808303815f87803b158015610746575f5ffd5b505af1158015610758573d5f5f3e3d5ffd5b5050600c805461ff00191661010017905550505b6006546001600160a01b031633146107975760405163282b2e2960e21b815260040160405180910390fd5b6001600160a01b038083165f90815260016020819052604091829020805460ff19169091179055600c54905163ce11f2bb60e01b8152620100009091049091169063ce11f2bb906107ec908490600401611393565b5f604051808303815f87803b158015610803575f5ffd5b505af1158015610815573d5f5f3e3d5ffd5b5050600b8054925090505f61082983611824565b91905055505050565b600254421080610843575060035442115b156108615760405163715ef7af60e01b815260040160405180910390fd5b335f9081526001602052604090205460ff161561089157604051637c9a1cf960e01b815260040160405180910390fd5b600c54610100900460ff1615155f0361091657600c54600e5460405163b7b0422d60e01b81526004810191909152620100009091046001600160a01b03169063b7b0422d906024015f604051808303815f87803b1580156108f0575f5ffd5b505af1158015610902573d5f5f3e3d5ffd5b5050600c805461ff00191661010017905550505b600c5460405163ce11f2bb60e01b8152620100009091046001600160a01b03169063ce11f2bb9061094b908490600401611393565b5f604051808303815f87803b158015610962575f5ffd5b505af1158015610974573d5f5f3e3d5ffd5b5050335f9081526001602081905260408220805460ff19169091179055600b8054935091506109a283611824565b919050555050565b6002805460035460048054929391926109c290611603565b80601f01602080910402602001604051908101604052809291908181526020018280546109ee90611603565b8015610a395780601f10610a1057610100808354040283529160200191610a39565b820191905f5260205f20905b815481529060010190602001808311610a1c57829003601f168201915b505050505090806003018054610a4e90611603565b80601f0160208091040260200160405190810160405280929190818152602001828054610a7a90611603565b8015610ac55780601f10610a9c57610100808354040283529160200191610ac5565b820191905f5260205f20905b815481529060010190602001808311610aa857829003601f168201915b5050505050905084565b60088181548110610ade575f80fd5b5f91825260209091200154905081565b600354421015610b11576040516369b8b9ab60e01b815260040160405180910390fd5b60408051600481526024810182526020810180516001600160e01b0316630dc9601560e01b179052600c54915190915f9182916001600160a01b03620100009091041690610b6090859061183c565b5f60405180830381855afa9150503d805f8114610b98576040519150601f19603f3d011682016040523d82523d5f602084013e610b9d565b606091505b509150915081610bc05760405163506e74f560e01b815260040160405180910390fd5b600d54600a546040516324d0543360e21b81525f926001600160a01b03169163934150cc91610bf3918691600401611852565b5f604051808303815f875af1158015610c0e573d5f5f3e3d5ffd5b505050506040513d5f823e601f3d908101601f19168201604052610c359190810190611873565b8051909150610c4b90600890602084019061101e565b5050600c805460ff19166001179055505050565b60606008805480602002602001604051908101604052809291908181526020018280548015610cab57602002820191905f5260205f20905b815481526020019060010190808311610c97575b5050505050905090565b5f54610100900460ff1615808015610cd357505f54600160ff909116105b80610cec5750303b158015610cec57505f5460ff166001145b610d535760405162461bcd60e51b815260206004820152602e60248201527f496e697469616c697a61626c653a20636f6e747261637420697320616c72656160448201526d191e481a5b9a5d1a585b1a5e995960921b606482015260840160405180910390fd5b5f805460ff191660011790558015610d74575f805461ff0019166101001790555b8651600290815560208801516003556040880151889190600490610d989082611772565b5060608201516003820190610dad9082611772565b505050600a8690556009859055600780546001600160a01b038086166001600160a01b03199283161790925560068054821633179055600c8054878416620100000262010000600160b01b0319909116179055600d8054928516929091169190911790558015610e56575f805461ff0019169055604051600181527f7f26b83ff96e1f2b6a682f133852f6798a09c465da95921460cefb38474024989060200160405180910390a15b50505050505050565b6060600e805480602002602001604051908101604052809291908181526020015f905b82821015610fdb578382905f5260205f2090600302016040518060600160405290815f8201548152602001600182018054610ebc90611603565b80601f0160208091040260200160405190810160405280929190818152602001828054610ee890611603565b8015610f335780601f10610f0a57610100808354040283529160200191610f33565b820191905f5260205f20905b815481529060010190602001808311610f1657829003601f168201915b50505050508152602001600282018054610f4c90611603565b80601f0160208091040260200160405190810160405280929190818152602001828054610f7890611603565b8015610fc35780601f10610f9a57610100808354040283529160200191610fc3565b820191905f5260205f20905b815481529060010190602001808311610fa657829003601f168201915b50505050508152505081526020019060010190610e82565b50505050905090565b508054610ff090611603565b5f825580601f10610fff575050565b601f0160209004905f5260205f209081019061101b9190611067565b50565b828054828255905f5260205f20908101928215611057579160200282015b8281111561105757825182559160200191906001019061103c565b50611063929150611067565b5090565b5b80821115611063575f8155600101611068565b5f6020828403121561108b575f5ffd5b5035919050565b80356001600160a01b03811681146110a8575f5ffd5b919050565b5f602082840312156110bd575f5ffd5b6110c682611092565b9392505050565b5f5f83601f8401126110dd575f5ffd5b5081356001600160401b038111156110f3575f5ffd5b60208301915083602082850101111561110a575f5ffd5b9250929050565b5f5f5f5f60408587031215611124575f5ffd5b84356001600160401b03811115611139575f5ffd5b611145878288016110cd565b90955093505060208501356001600160401b03811115611163575f5ffd5b61116f878288016110cd565b95989497509550505050565b5f81518084528060208401602086015e5f602082860101526020601f19601f83011685010191505092915050565b838152606060208201525f6111c1606083018561117b565b82810360408401526111d3818561117b565b9695505050505050565b634e487b7160e01b5f52604160045260245ffd5b604051608081016001600160401b0381118282101715611213576112136111dd565b60405290565b604051601f8201601f191681016001600160401b0381118282101715611241576112416111dd565b604052919050565b5f6001600160401b03821115611261576112616111dd565b5060051b60200190565b5f82601f83011261127a575f5ffd5b813561128d61128882611249565b611219565b8082825260208201915060208360051b8601019250858311156112ae575f5ffd5b602085015b838110156112cb5780358352602092830192016112b3565b5095945050505050565b5f5f604083850312156112e6575f5ffd5b6112ef83611092565b915060208301356001600160401b03811115611309575f5ffd5b6113158582860161126b565b9150509250929050565b5f6020828403121561132f575f5ffd5b81356001600160401b03811115611344575f5ffd5b6113508482850161126b565b949350505050565b848152836020820152608060408201525f611376608083018561117b565b8281036060840152611388818561117b565b979650505050505050565b602080825282518282018190525f918401906040840190835b818110156113ca5783518352602093840193909201916001016113ac565b509095945050505050565b5f82601f8301126113e4575f5ffd5b81356001600160401b038111156113fd576113fd6111dd565b611410601f8201601f1916602001611219565b818152846020838601011115611424575f5ffd5b816020850160208301375f918101602001919091529392505050565b5f5f5f5f5f5f60c08789031215611455575f5ffd5b86356001600160401b0381111561146a575f5ffd5b87016080818a03121561147b575f5ffd5b6114836111f1565b813581526020808301359082015260408201356001600160401b038111156114a9575f5ffd5b6114b58b8285016113d5565b60408301525060608201356001600160401b038111156114d3575f5ffd5b6114df8b8285016113d5565b60608381019190915291985050602089013596506040890135955061150691508801611092565b925061151460808801611092565b915061152260a08801611092565b90509295509295509295565b5f602082016020835280845180835260408501915060408160051b8601019250602086015f5b828110156115b657603f19878603018452815180518652602081015160606020880152611584606088018261117b565b905060408201519150868103604088015261159f818361117b565b965050506020938401939190910190600101611554565b50929695505050505050565b634e487b7160e01b5f52601160045260245ffd5b818103818111156115e9576115e96115c2565b92915050565b634e487b7160e01b5f52603260045260245ffd5b600181811c9082168061161757607f821691505b60208210810361163557634e487b7160e01b5f52602260045260245ffd5b50919050565b601f82111561168257805f5260205f20601f840160051c810160208510156116605750805b601f840160051c820191505b8181101561167f575f815560010161166c565b50505b505050565b818103611692575050565b61169c8254611603565b6001600160401b038111156116b3576116b36111dd565b6116c7816116c18454611603565b8461163b565b5f601f8211600181146116fb575f83156116e15750848201545b600184901b5f19600386901b1c198216175b85555061167f565b5f8581526020808220868352908220601f198616925b838110156117315782860154825560019586019590910190602001611711565b508583101561174e57818501545f19600388901b60f8161c191681555b5050505050600190811b01905550565b634e487b7160e01b5f52603160045260245ffd5b81516001600160401b0381111561178b5761178b6111dd565b611799816116c18454611603565b6020601f8211600181146117c9575f83156116e1575081850151600184901b5f19600386901b1c198216176116f3565b5f84815260208120601f198516915b828110156117f857878501518255602094850194600190920191016117d8565b508482101561181557868401515f19600387901b60f8161c191681555b50505050600190811b01905550565b5f60018201611835576118356115c2565b5060010190565b5f82518060208501845e5f920191825250919050565b604081525f611864604083018561117b565b90508260208301529392505050565b5f60208284031215611883575f5ffd5b81516001600160401b03811115611898575f5ffd5b8201601f810184136118a8575f5ffd5b80516118b661128882611249565b8082825260208201915060208360051b8501019250868311156118d7575f5ffd5b6020840193505b828410156111d35783518252602093840193909101906118de56fea2646970667358221220eca39e5815d5434f9a41f7a923c125a0829777d521d0a5f367aed62eb1c3ed0e64736f6c634300081c0033","linkReferences":{}},"methodIdentifiers":{"addCandidate(string,string)":"26541b56","candidates(uint256)":"3477ee2e","ccipVote(address,uint256[])":"510c2d0d","electionId()":"051364d4","electionInfo()":"6c74bf6d","factoryContract()":"de11c94a","getCandidateList()":"fdbc4006","getResult()":"de292789","getWinners()":"df15c37e","initialize((uint256,uint256,string,string),uint256,uint256,address,address,address)":"e97a2b36","owner()":"8da5cb5b","removeCandidate(uint256)":"09e9d7e2","resultType()":"c720990a","resultsDeclared()":"965473bd","totalVotes()":"0d15fd77","userVote(uint256[])":"6a334fe3","userVoted(address)":"254fe7d7","winners(uint256)":"a2fb1175"},"id":0}