{
  "_format": "hh-sol-artifact-1",
  "contractName": "Test2Facet",
  "sourceName": "contracts/facets/Test2Facet.sol",
  "abi": [
    {
      "inputs": [],
      "name": "getString",
      "outputs": [
        {
          "internalType": "string",
          "name": "_name",
          "type": "string"
        }
      ],
      "stateMutability": "pure",
      "type": "function"
    },
    {
      "inputs": [],
      "name": "test2Func10",
      "outputs": [],
      "stateMutability": "nonpayable",
      "type": "function"
    },
    {
      "inputs": [],
      "name": "test2Func11",
      "outputs": [],
      "stateMutability": "nonpayable",
      "type": "function"
    },
    {
      "inputs": [],
      "name": "test2Func12",
      "outputs": [],
      "stateMutability": "nonpayable",
      "type": "function"
    },
    {
      "inputs": [],
      "name": "test2Func13",
      "outputs": [],
      "stateMutability": "nonpayable",
      "type": "function"
    },
    {
      "inputs": [],
      "name": "test2Func14",
      "outputs": [],
      "stateMutability": "nonpayable",
      "type": "function"
    },
    {
      "inputs": [],
      "name": "test2Func15",
      "outputs": [],
      "stateMutability": "nonpayable",
      "type": "function"
    },
    {
      "inputs": [],
      "name": "test2Func16",
      "outputs": [],
      "stateMutability": "nonpayable",
      "type": "function"
    },
    {
      "inputs": [],
      "name": "test2Func17",
      "outputs": [],
      "stateMutability": "nonpayable",
      "type": "function"
    },
    {
      "inputs": [],
      "name": "test2Func18",
      "outputs": [],
      "stateMutability": "nonpayable",
      "type": "function"
    },
    {
      "inputs": [],
      "name": "test2Func19",
      "outputs": [],
      "stateMutability": "nonpayable",
      "type": "function"
    },
    {
      "inputs": [],
      "name": "test2Func2",
      "outputs": [],
      "stateMutability": "nonpayable",
      "type": "function"
    },
    {
      "inputs": [],
      "name": "test2Func20",
      "outputs": [],
      "stateMutability": "nonpayable",
      "type": "function"
    },
    {
      "inputs": [],
      "name": "test2Func3",
      "outputs": [],
      "stateMutability": "nonpayable",
      "type": "function"
    },
    {
      "inputs": [],
      "name": "test2Func4",
      "outputs": [],
      "stateMutability": "nonpayable",
      "type": "function"
    },
    {
      "inputs": [],
      "name": "test2Func5",
      "outputs": [],
      "stateMutability": "nonpayable",
      "type": "function"
    },
    {
      "inputs": [],
      "name": "test2Func6",
      "outputs": [],
      "stateMutability": "nonpayable",
      "type": "function"
    },
    {
      "inputs": [],
      "name": "test2Func7",
      "outputs": [],
      "stateMutability": "nonpayable",
      "type": "function"
    },
    {
      "inputs": [],
      "name": "test2Func8",
      "outputs": [],
      "stateMutability": "nonpayable",
      "type": "function"
    },
    {
      "inputs": [],
      "name": "test2Func9",
      "outputs": [],
      "stateMutability": "nonpayable",
      "type": "function"
    }
  ],
  "bytecode": "0x608060405234801561001057600080fd5b50610361806100206000396000f3fe608060405234801561001057600080fd5b506004361061012c5760003560e01c806389ea642f116100ad578063caae8f2311610071578063caae8f23146101db578063d2f0c73e146101e5578063e5f687b2146101ef578063e7de23a4146101f9578063ef3f4d78146102035761012c565b806389ea642f146101955780638ee8be30146101b357806391d0396b146101bd578063c670641d146101c7578063ca5fa5c0146101d15761012c565b80632e463958116100f45780632e463958146101635780635fd6312b1461016d5780636dc16b0114610177578063792a8e2e14610181578063884280a61461018b5761012c565b806303feeeae146101315780630c103a931461013b5780630e4cd7fc14610145578063148843091461014f57806317fd06e714610159575b600080fd5b61013961020d565b005b61014361020f565b005b61014d610211565b005b610157610213565b005b610161610215565b005b61016b610217565b005b610175610219565b005b61017f61021b565b005b61018961021d565b005b61019361021f565b005b61019d610221565b6040516101aa9190610309565b60405180910390f35b6101bb61025e565b005b6101c5610260565b005b6101cf610262565b005b6101d9610264565b005b6101e3610266565b005b6101ed610268565b005b6101f761026a565b005b61020161026c565b005b61020b61026e565b005b565b565b565b565b565b565b565b565b565b565b60606040518060400160405280600881526020017f596f67656e647261000000000000000000000000000000000000000000000000815250905090565b565b565b565b565b565b565b565b565b565b600081519050919050565b600082825260208201905092915050565b60005b838110156102aa57808201518184015260208101905061028f565b838111156102b9576000848401525b50505050565b6000601f19601f8301169050919050565b60006102db82610270565b6102e5818561027b565b93506102f581856020860161028c565b6102fe816102bf565b840191505092915050565b6000602082019050818103600083015261032381846102d0565b90509291505056fea2646970667358221220de16e96001b79c69d222ee19316ee28a41d83378c4fe2d12f599caf6f862c23f64736f6c634300080a0033",
  "linkReferences": {},
  "deployedLinkReferences": {}
}