{"abi":[{"type":"function","name":"calculateGeneralResult","inputs":[{"name":"returnData","type":"bytes","internalType":"bytes"}],"outputs":[{"name":"","type":"uint256[]","internalType":"uint256[]"}],"stateMutability":"pure"},{"type":"error","name":"CandidatesTie","inputs":[]},{"type":"error","name":"NoCandidates","inputs":[]},{"type":"error","name":"NoWinner","inputs":[]},{"type":"error","name":"VotesExhausted","inputs":[]}],"bytecode":{"object":"0x6080604052348015600e575f5ffd5b506104548061001c5f395ff3fe608060405234801561000f575f5ffd5b5060043610610029575f3560e01c8063af6de5a11461002d575b5f5ffd5b61004061003b36600461025a565b610056565b60405161004d91906102c8565b60405180910390f35b60605f6100658385018561031e565b805190915060028110156100855761007c816100ce565b925050506100c8565b5f8061009084610135565b90925090505f8290036100b657604051638b9ae95f60e01b815260040160405180910390fd5b6100c18183866101a4565b9450505050505b92915050565b6060815f036100f057604051638b9ae95f60e01b815260040160405180910390fd5b6040805160018082528183019092525f91602080830190803683370190505090505f815f81518110610124576101246103e6565b602090810291909101015292915050565b80515f90819081908190815b81811015610198575f87828151811061015c5761015c6103e6565b602002602001015190508481111561017a578094506001935061018f565b84810361018f578361018b816103fa565b9450505b50600101610141565b50919590945092505050565b60605f8467ffffffffffffffff8111156101c0576101c061030a565b6040519080825280602002602001820160405280156101e9578160200160208202803683370190505b5083519091505f805b8281101561024e578686828151811061020d5761020d6103e6565b602002602001015103610246578084838151811061022d5761022d6103e6565b602090810291909101015281610242816103fa565b9250505b6001016101f2565b50919695505050505050565b5f5f6020838503121561026b575f5ffd5b823567ffffffffffffffff811115610281575f5ffd5b8301601f81018513610291575f5ffd5b803567ffffffffffffffff8111156102a7575f5ffd5b8560208284010111156102b8575f5ffd5b6020919091019590945092505050565b602080825282518282018190525f918401906040840190835b818110156102ff5783518352602093840193909201916001016102e1565b509095945050505050565b634e487b7160e01b5f52604160045260245ffd5b5f6020828403121561032e575f5ffd5b813567ffffffffffffffff811115610344575f5ffd5b8201601f81018413610354575f5ffd5b803567ffffffffffffffff81111561036e5761036e61030a565b8060051b604051601f19603f830116810181811067ffffffffffffffff8211171561039b5761039b61030a565b6040529182526020818401810192908101878411156103b8575f5ffd5b6020850194505b838510156103db578435808252602095860195909350016103bf565b509695505050505050565b634e487b7160e01b5f52603260045260245ffd5b5f6001820161041757634e487b7160e01b5f52601160045260245ffd5b506001019056fea264697066735822122081c5c41b8a2315a3661ff5510def3add0a7c04ba9372983098410ac9c69f632964736f6c634300081c0033","linkReferences":{}},"methodIdentifiers":{"calculateGeneralResult(bytes)":"af6de5a1"},"id":13}