{
  "_format": "hh-sol-artifact-1",
  "contractName": "IRV",
  "sourceName": "contracts/ballots/IRV.sol",
  "abi": [
    {
      "inputs": [
        {
          "internalType": "address",
          "name": "_electionAddress",
          "type": "address"
        }
      ],
      "stateMutability": "nonpayable",
      "type": "constructor"
    },
    {
      "inputs": [],
      "name": "OwnerPermissioned",
      "type": "error"
    },
    {
      "inputs": [],
      "name": "electionContract",
      "outputs": [
        {
          "internalType": "address",
          "name": "",
          "type": "address"
        }
      ],
      "stateMutability": "view",
      "type": "function"
    },
    {
      "inputs": [],
      "name": "getVotes",
      "outputs": [
        {
          "internalType": "uint256[][]",
          "name": "",
          "type": "uint256[][]"
        }
      ],
      "stateMutability": "view",
      "type": "function"
    },
    {
      "inputs": [
        {
          "internalType": "uint256",
          "name": "_totalCandidates",
          "type": "uint256"
        }
      ],
      "name": "init",
      "outputs": [],
      "stateMutability": "nonpayable",
      "type": "function"
    },
    {
      "inputs": [
        {
          "internalType": "uint256[]",
          "name": "voteArr",
          "type": "uint256[]"
        }
      ],
      "name": "vote",
      "outputs": [],
      "stateMutability": "nonpayable",
      "type": "function"
    }
  ],
  "bytecode": "0x608060405234801561001057600080fd5b5060405161096b38038061096b833981810160405281019061003291906100db565b806000806101000a81548173ffffffffffffffffffffffffffffffffffffffff021916908373ffffffffffffffffffffffffffffffffffffffff16021790555050610108565b600080fd5b600073ffffffffffffffffffffffffffffffffffffffff82169050919050565b60006100a88261007d565b9050919050565b6100b88161009d565b81146100c357600080fd5b50565b6000815190506100d5816100af565b92915050565b6000602082840312156100f1576100f0610078565b5b60006100ff848285016100c6565b91505092915050565b610854806101176000396000f3fe608060405234801561001057600080fd5b506004361061004c5760003560e01c80630dc9601514610051578063b7b0422d1461006f578063ce11f2bb1461008b578063e407bcbd146100a7575b600080fd5b6100596100c5565b6040516100669190610514565b60405180910390f35b61008960048036038101906100849190610576565b610164565b005b6100a560048036038101906100a091906106fc565b6101f3565b005b6100af6102fc565b6040516100bc9190610786565b60405180910390f35b60606002805480602002602001604051908101604052809291908181526020016000905b8282101561015b5783829060005260206000200180548060200260200160405190810160405280929190818152602001828054801561014757602002820191906000526020600020905b815481526020019060010190808311610133575b5050505050815260200190600101906100e9565b50505050905090565b60008054906101000a900473ffffffffffffffffffffffffffffffffffffffff1673ffffffffffffffffffffffffffffffffffffffff163373ffffffffffffffffffffffffffffffffffffffff16146101e9576040517fa0acb8a400000000000000000000000000000000000000000000000000000000815260040160405180910390fd5b8060018190555050565b60008054906101000a900473ffffffffffffffffffffffffffffffffffffffff1673ffffffffffffffffffffffffffffffffffffffff163373ffffffffffffffffffffffffffffffffffffffff1614610278576040517fa0acb8a400000000000000000000000000000000000000000000000000000000815260040160405180910390fd5b8051600154146102bd576040517f08c379a00000000000000000000000000000000000000000000000000000000081526004016102b4906107fe565b60405180910390fd5b6002819080600181540180825580915050600190039060005260206000200160009091909190915090805190602001906102f8929190610320565b5050565b60008054906101000a900473ffffffffffffffffffffffffffffffffffffffff1681565b82805482825590600052602060002090810192821561035c579160200282015b8281111561035b578251825591602001919060010190610340565b5b509050610369919061036d565b5090565b5b8082111561038657600081600090555060010161036e565b5090565b600081519050919050565b600082825260208201905092915050565b6000819050602082019050919050565b600081519050919050565b600082825260208201905092915050565b6000819050602082019050919050565b6000819050919050565b6103f5816103e2565b82525050565b600061040783836103ec565b60208301905092915050565b6000602082019050919050565b600061042b826103b6565b61043581856103c1565b9350610440836103d2565b8060005b8381101561047157815161045888826103fb565b975061046383610413565b925050600181019050610444565b5085935050505092915050565b600061048a8383610420565b905092915050565b6000602082019050919050565b60006104aa8261038a565b6104b48185610395565b9350836020820285016104c6856103a6565b8060005b8581101561050257848403895281516104e3858261047e565b94506104ee83610492565b925060208a019950506001810190506104ca565b50829750879550505050505092915050565b6000602082019050818103600083015261052e818461049f565b905092915050565b6000604051905090565b600080fd5b600080fd5b610553816103e2565b811461055e57600080fd5b50565b6000813590506105708161054a565b92915050565b60006020828403121561058c5761058b610540565b5b600061059a84828501610561565b91505092915050565b600080fd5b6000601f19601f8301169050919050565b7f4e487b7100000000000000000000000000000000000000000000000000000000600052604160045260246000fd5b6105f1826105a8565b810181811067ffffffffffffffff821117156106105761060f6105b9565b5b80604052505050565b6000610623610536565b905061062f82826105e8565b919050565b600067ffffffffffffffff82111561064f5761064e6105b9565b5b602082029050602081019050919050565b600080fd5b600061067861067384610634565b610619565b9050808382526020820190506020840283018581111561069b5761069a610660565b5b835b818110156106c457806106b08882610561565b84526020840193505060208101905061069d565b5050509392505050565b600082601f8301126106e3576106e26105a3565b5b81356106f3848260208601610665565b91505092915050565b60006020828403121561071257610711610540565b5b600082013567ffffffffffffffff8111156107305761072f610545565b5b61073c848285016106ce565b91505092915050565b600073ffffffffffffffffffffffffffffffffffffffff82169050919050565b600061077082610745565b9050919050565b61078081610765565b82525050565b600060208201905061079b6000830184610777565b92915050565b600082825260208201905092915050565b7f566f74657320646f6e2774206d61746368207468652063616e64696461746573600082015250565b60006107e86020836107a1565b91506107f3826107b2565b602082019050919050565b60006020820190508181036000830152610817816107db565b905091905056fea264697066735822122093616028de35cffaf211301875169734d61c6f04f5fd6783b17eb10ca10909f964736f6c63430008180033",
  "linkReferences": {},
  "deployedLinkReferences": {}
}