{
  "_format": "hh-sol-artifact-1",
  "contractName": "CCIPSender",
  "sourceName": "contracts/cross-chain/CCIPSender.sol",
  "abi": [
    {
      "inputs": [
        {
          "internalType": "address",
          "name": "_router",
          "type": "address"
        },
        {
          "internalType": "address",
          "name": "_link",
          "type": "address"
        }
      ],
      "stateMutability": "nonpayable",
      "type": "constructor"
    },
    {
      "inputs": [
        {
          "internalType": "uint256",
          "name": "currentBalance",
          "type": "uint256"
        },
        {
          "internalType": "uint256",
          "name": "calculatedFees",
          "type": "uint256"
        }
      ],
      "name": "NotEnoughBalance",
      "type": "error"
    },
    {
      "anonymous": false,
      "inputs": [
        {
          "indexed": true,
          "internalType": "bytes32",
          "name": "messageId",
          "type": "bytes32"
        },
        {
          "indexed": true,
          "internalType": "uint64",
          "name": "destinationChainSelector",
          "type": "uint64"
        },
        {
          "indexed": false,
          "internalType": "address",
          "name": "receiver",
          "type": "address"
        },
        {
          "indexed": false,
          "internalType": "string",
          "name": "text",
          "type": "string"
        },
        {
          "indexed": false,
          "internalType": "address",
          "name": "feeToken",
          "type": "address"
        },
        {
          "indexed": false,
          "internalType": "uint256",
          "name": "fees",
          "type": "uint256"
        }
      ],
      "name": "MessageSent",
      "type": "event"
    },
    {
      "anonymous": false,
      "inputs": [
        {
          "indexed": true,
          "internalType": "address",
          "name": "from",
          "type": "address"
        },
        {
          "indexed": true,
          "internalType": "address",
          "name": "to",
          "type": "address"
        }
      ],
      "name": "OwnershipTransferRequested",
      "type": "event"
    },
    {
      "anonymous": false,
      "inputs": [
        {
          "indexed": true,
          "internalType": "address",
          "name": "from",
          "type": "address"
        },
        {
          "indexed": true,
          "internalType": "address",
          "name": "to",
          "type": "address"
        }
      ],
      "name": "OwnershipTransferred",
      "type": "event"
    },
    {
      "inputs": [],
      "name": "acceptOwnership",
      "outputs": [],
      "stateMutability": "nonpayable",
      "type": "function"
    },
    {
      "inputs": [],
      "name": "owner",
      "outputs": [
        {
          "internalType": "address",
          "name": "",
          "type": "address"
        }
      ],
      "stateMutability": "view",
      "type": "function"
    },
    {
      "inputs": [
        {
          "internalType": "uint64",
          "name": "destinationChainSelector",
          "type": "uint64"
        },
        {
          "internalType": "address",
          "name": "receiver",
          "type": "address"
        },
        {
          "internalType": "address",
          "name": "_election",
          "type": "address"
        },
        {
          "internalType": "uint256[]",
          "name": "_voteArr",
          "type": "uint256[]"
        }
      ],
      "name": "sendMessage",
      "outputs": [
        {
          "internalType": "bytes32",
          "name": "messageId",
          "type": "bytes32"
        }
      ],
      "stateMutability": "nonpayable",
      "type": "function"
    },
    {
      "inputs": [
        {
          "internalType": "address",
          "name": "to",
          "type": "address"
        }
      ],
      "name": "transferOwnership",
      "outputs": [],
      "stateMutability": "nonpayable",
      "type": "function"
    }
  ],
  "bytecode": "0x60806040523480156200001157600080fd5b50604051620018db380380620018db833981810160405281019062000037919062000359565b338060008073ffffffffffffffffffffffffffffffffffffffff168273ffffffffffffffffffffffffffffffffffffffff1603620000ac576040517f08c379a0000000000000000000000000000000000000000000000000000000008152600401620000a39062000401565b60405180910390fd5b816000806101000a81548173ffffffffffffffffffffffffffffffffffffffff021916908373ffffffffffffffffffffffffffffffffffffffff160217905550600073ffffffffffffffffffffffffffffffffffffffff168173ffffffffffffffffffffffffffffffffffffffff161462000133576200013281620001c060201b60201c565b5b50505081600260006101000a81548173ffffffffffffffffffffffffffffffffffffffff021916908373ffffffffffffffffffffffffffffffffffffffff16021790555080600360006101000a81548173ffffffffffffffffffffffffffffffffffffffff021916908373ffffffffffffffffffffffffffffffffffffffff160217905550505062000495565b3373ffffffffffffffffffffffffffffffffffffffff168173ffffffffffffffffffffffffffffffffffffffff160362000231576040517f08c379a0000000000000000000000000000000000000000000000000000000008152600401620002289062000473565b60405180910390fd5b80600160006101000a81548173ffffffffffffffffffffffffffffffffffffffff021916908373ffffffffffffffffffffffffffffffffffffffff1602179055508073ffffffffffffffffffffffffffffffffffffffff1660008054906101000a900473ffffffffffffffffffffffffffffffffffffffff1673ffffffffffffffffffffffffffffffffffffffff167fed8889f560326eb138920d842192f0eb3dd22b4f139c87a2c57538e05bae127860405160405180910390a350565b600080fd5b600073ffffffffffffffffffffffffffffffffffffffff82169050919050565b60006200032182620002f4565b9050919050565b620003338162000314565b81146200033f57600080fd5b50565b600081519050620003538162000328565b92915050565b60008060408385031215620003735762000372620002ef565b5b6000620003838582860162000342565b9250506020620003968582860162000342565b9150509250929050565b600082825260208201905092915050565b7f43616e6e6f7420736574206f776e657220746f207a65726f0000000000000000600082015250565b6000620003e9601883620003a0565b9150620003f682620003b1565b602082019050919050565b600060208201905081810360008301526200041c81620003da565b9050919050565b7f43616e6e6f74207472616e7366657220746f2073656c66000000000000000000600082015250565b60006200045b601783620003a0565b9150620004688262000423565b602082019050919050565b600060208201905081810360008301526200048e816200044c565b9050919050565b61143680620004a56000396000f3fe608060405234801561001057600080fd5b506004361061004c5760003560e01c806379ba5097146100515780638da5cb5b1461005b578063b045b24b14610079578063f2fde38b146100a9575b600080fd5b6100596100c5565b005b61006361025a565b6040516100709190610ad7565b60405180910390f35b610093600480360381019061008e9190610bcd565b610283565b6040516100a09190610c6e565b60405180910390f35b6100c360048036038101906100be9190610c89565b610817565b005b600160009054906101000a900473ffffffffffffffffffffffffffffffffffffffff1673ffffffffffffffffffffffffffffffffffffffff163373ffffffffffffffffffffffffffffffffffffffff1614610155576040517f08c379a000000000000000000000000000000000000000000000000000000000815260040161014c90610d13565b60405180910390fd5b60008060009054906101000a900473ffffffffffffffffffffffffffffffffffffffff169050336000806101000a81548173ffffffffffffffffffffffffffffffffffffffff021916908373ffffffffffffffffffffffffffffffffffffffff1602179055506000600160006101000a81548173ffffffffffffffffffffffffffffffffffffffff021916908373ffffffffffffffffffffffffffffffffffffffff1602179055503373ffffffffffffffffffffffffffffffffffffffff168173ffffffffffffffffffffffffffffffffffffffff167f8be0079c531659141344cd1fd0a4f28419497f9722a3daafe3b4186f6b6457e060405160405180910390a350565b60008060009054906101000a900473ffffffffffffffffffffffffffffffffffffffff16905090565b60008060405180606001604052808673ffffffffffffffffffffffffffffffffffffffff1681526020013373ffffffffffffffffffffffffffffffffffffffff168152602001858580806020026020016040519081016040528093929190818152602001838360200280828437600081840152601f19601f82011690508083019250505050505050815250905060006040518060a001604052808860405160200161032e9190610ad7565b6040516020818303038152906040528152602001836040516020016103539190610e5a565b6040516020818303038152906040528152602001600067ffffffffffffffff81111561038257610381610e7c565b5b6040519080825280602002602001820160405280156103bb57816020015b6103a8610a66565b8152602001906001900390816103a05790505b508152602001600360009054906101000a900473ffffffffffffffffffffffffffffffffffffffff1673ffffffffffffffffffffffffffffffffffffffff168152602001610419604051806020016040528062030d4081525061082b565b81525090506000600260009054906101000a900473ffffffffffffffffffffffffffffffffffffffff1673ffffffffffffffffffffffffffffffffffffffff166320487ded8a846040518363ffffffff1660e01b815260040161047d9291906110b3565b602060405180830381865afa15801561049a573d6000803e3d6000fd5b505050506040513d601f19601f820116820180604052508101906104be919061110f565b9050600360009054906101000a900473ffffffffffffffffffffffffffffffffffffffff1673ffffffffffffffffffffffffffffffffffffffff166370a08231306040518263ffffffff1660e01b815260040161051b9190610ad7565b602060405180830381865afa158015610538573d6000803e3d6000fd5b505050506040513d601f19601f8201168201806040525081019061055c919061110f565b81111561063d57600360009054906101000a900473ffffffffffffffffffffffffffffffffffffffff1673ffffffffffffffffffffffffffffffffffffffff166370a08231306040518263ffffffff1660e01b81526004016105be9190610ad7565b602060405180830381865afa1580156105db573d6000803e3d6000fd5b505050506040513d601f19601f820116820180604052508101906105ff919061110f565b816040517f8f0f420600000000000000000000000000000000000000000000000000000000815260040161063492919061114b565b60405180910390fd5b600360009054906101000a900473ffffffffffffffffffffffffffffffffffffffff1673ffffffffffffffffffffffffffffffffffffffff1663095ea7b3600260009054906101000a900473ffffffffffffffffffffffffffffffffffffffff16836040518363ffffffff1660e01b81526004016106bc929190611174565b6020604051808303816000875af11580156106db573d6000803e3d6000fd5b505050506040513d601f19601f820116820180604052508101906106ff91906111d5565b50600260009054906101000a900473ffffffffffffffffffffffffffffffffffffffff1673ffffffffffffffffffffffffffffffffffffffff166396f4e9f98a846040518363ffffffff1660e01b815260040161075d9291906110b3565b6020604051808303816000875af115801561077c573d6000803e3d6000fd5b505050506040513d601f19601f820116820180604052508101906107a0919061122e565b93508867ffffffffffffffff16847fd36445359b3c6e26c120659aef090ce0f2eb005cf9af450d11aa1225609b4f4d8a600360009054906101000a900473ffffffffffffffffffffffffffffffffffffffff1685604051610803939291906112a7565b60405180910390a350505095945050505050565b61081f6108aa565b6108288161093a565b50565b60606397a657c960e01b82604051602401610846919061130d565b604051602081830303815290604052907bffffffffffffffffffffffffffffffffffffffffffffffffffffffff19166020820180517bffffffffffffffffffffffffffffffffffffffffffffffffffffffff83818316178352505050509050919050565b60008054906101000a900473ffffffffffffffffffffffffffffffffffffffff1673ffffffffffffffffffffffffffffffffffffffff163373ffffffffffffffffffffffffffffffffffffffff1614610938576040517f08c379a000000000000000000000000000000000000000000000000000000000815260040161092f90611374565b60405180910390fd5b565b3373ffffffffffffffffffffffffffffffffffffffff168173ffffffffffffffffffffffffffffffffffffffff16036109a8576040517f08c379a000000000000000000000000000000000000000000000000000000000815260040161099f906113e0565b60405180910390fd5b80600160006101000a81548173ffffffffffffffffffffffffffffffffffffffff021916908373ffffffffffffffffffffffffffffffffffffffff1602179055508073ffffffffffffffffffffffffffffffffffffffff1660008054906101000a900473ffffffffffffffffffffffffffffffffffffffff1673ffffffffffffffffffffffffffffffffffffffff167fed8889f560326eb138920d842192f0eb3dd22b4f139c87a2c57538e05bae127860405160405180910390a350565b6040518060400160405280600073ffffffffffffffffffffffffffffffffffffffff168152602001600081525090565b600073ffffffffffffffffffffffffffffffffffffffff82169050919050565b6000610ac182610a96565b9050919050565b610ad181610ab6565b82525050565b6000602082019050610aec6000830184610ac8565b92915050565b600080fd5b600080fd5b600067ffffffffffffffff82169050919050565b610b1981610afc565b8114610b2457600080fd5b50565b600081359050610b3681610b10565b92915050565b610b4581610ab6565b8114610b5057600080fd5b50565b600081359050610b6281610b3c565b92915050565b600080fd5b600080fd5b600080fd5b60008083601f840112610b8d57610b8c610b68565b5b8235905067ffffffffffffffff811115610baa57610ba9610b6d565b5b602083019150836020820283011115610bc657610bc5610b72565b5b9250929050565b600080600080600060808688031215610be957610be8610af2565b5b6000610bf788828901610b27565b9550506020610c0888828901610b53565b9450506040610c1988828901610b53565b935050606086013567ffffffffffffffff811115610c3a57610c39610af7565b5b610c4688828901610b77565b92509250509295509295909350565b6000819050919050565b610c6881610c55565b82525050565b6000602082019050610c836000830184610c5f565b92915050565b600060208284031215610c9f57610c9e610af2565b5b6000610cad84828501610b53565b91505092915050565b600082825260208201905092915050565b7f4d7573742062652070726f706f736564206f776e657200000000000000000000600082015250565b6000610cfd601683610cb6565b9150610d0882610cc7565b602082019050919050565b60006020820190508181036000830152610d2c81610cf0565b9050919050565b610d3c81610ab6565b82525050565b600081519050919050565b600082825260208201905092915050565b6000819050602082019050919050565b6000819050919050565b610d8181610d6e565b82525050565b6000610d938383610d78565b60208301905092915050565b6000602082019050919050565b6000610db782610d42565b610dc18185610d4d565b9350610dcc83610d5e565b8060005b83811015610dfd578151610de48882610d87565b9750610def83610d9f565b925050600181019050610dd0565b5085935050505092915050565b6000606083016000830151610e226000860182610d33565b506020830151610e356020860182610d33565b5060408301518482036040860152610e4d8282610dac565b9150508091505092915050565b60006020820190508181036000830152610e748184610e0a565b905092915050565b7f4e487b7100000000000000000000000000000000000000000000000000000000600052604160045260246000fd5b610eb481610afc565b82525050565b600081519050919050565b600082825260208201905092915050565b60005b83811015610ef4578082015181840152602081019050610ed9565b60008484015250505050565b6000601f19601f8301169050919050565b6000610f1c82610eba565b610f268185610ec5565b9350610f36818560208601610ed6565b610f3f81610f00565b840191505092915050565b600081519050919050565b600082825260208201905092915050565b6000819050602082019050919050565b604082016000820151610f8c6000850182610d33565b506020820151610f9f6020850182610d78565b50505050565b6000610fb18383610f76565b60408301905092915050565b6000602082019050919050565b6000610fd582610f4a565b610fdf8185610f55565b9350610fea83610f66565b8060005b8381101561101b5781516110028882610fa5565b975061100d83610fbd565b925050600181019050610fee565b5085935050505092915050565b600060a08301600083015184820360008601526110458282610f11565b9150506020830151848203602086015261105f8282610f11565b915050604083015184820360408601526110798282610fca565b915050606083015161108e6060860182610d33565b50608083015184820360808601526110a68282610f11565b9150508091505092915050565b60006040820190506110c86000830185610eab565b81810360208301526110da8184611028565b90509392505050565b6110ec81610d6e565b81146110f757600080fd5b50565b600081519050611109816110e3565b92915050565b60006020828403121561112557611124610af2565b5b6000611133848285016110fa565b91505092915050565b61114581610d6e565b82525050565b6000604082019050611160600083018561113c565b61116d602083018461113c565b9392505050565b60006040820190506111896000830185610ac8565b611196602083018461113c565b9392505050565b60008115159050919050565b6111b28161119d565b81146111bd57600080fd5b50565b6000815190506111cf816111a9565b92915050565b6000602082840312156111eb576111ea610af2565b5b60006111f9848285016111c0565b91505092915050565b61120b81610c55565b811461121657600080fd5b50565b60008151905061122881611202565b92915050565b60006020828403121561124457611243610af2565b5b600061125284828501611219565b91505092915050565b7f566f746564000000000000000000000000000000000000000000000000000000600082015250565b6000611291600583610cb6565b915061129c8261125b565b602082019050919050565b60006080820190506112bc6000830186610ac8565b81810360208301526112cd81611284565b90506112dc6040830185610ac8565b6112e9606083018461113c565b949350505050565b6020820160008201516113076000850182610d78565b50505050565b600060208201905061132260008301846112f1565b92915050565b7f4f6e6c792063616c6c61626c65206279206f776e657200000000000000000000600082015250565b600061135e601683610cb6565b915061136982611328565b602082019050919050565b6000602082019050818103600083015261138d81611351565b9050919050565b7f43616e6e6f74207472616e7366657220746f2073656c66000000000000000000600082015250565b60006113ca601783610cb6565b91506113d582611394565b602082019050919050565b600060208201905081810360008301526113f9816113bd565b905091905056fea26469706673582212203b2420086c459b64a60187abca71f720283748b68e2a01bba95506d1ef64a4bf64736f6c63430008180033",
  "linkReferences": {},
  "deployedLinkReferences": {}
}