{
  "_format": "hh-sol-artifact-1",
  "contractName": "CCIPSender",
  "sourceName": "contracts/cross-chain/CCIPSender.sol",
  "abi": [
    {
      "inputs": [
        {
          "internalType": "address",
          "name": "_router",
          "type": "address"
        },
        {
          "internalType": "address",
          "name": "_link",
          "type": "address"
        },
        {
          "internalType": "address",
          "name": "_electionFactory",
          "type": "address"
        }
      ],
      "stateMutability": "nonpayable",
      "type": "constructor"
    },
    {
      "inputs": [],
      "name": "CCIPNotSupported",
      "type": "error"
    },
    {
      "inputs": [],
      "name": "InsufficientAllowance",
      "type": "error"
    },
    {
      "inputs": [
        {
          "internalType": "uint256",
          "name": "currentBalance",
          "type": "uint256"
        },
        {
          "internalType": "uint256",
          "name": "calculatedFees",
          "type": "uint256"
        }
      ],
      "name": "NotEnoughBalance",
      "type": "error"
    },
    {
      "anonymous": false,
      "inputs": [
        {
          "indexed": true,
          "internalType": "bytes32",
          "name": "messageId",
          "type": "bytes32"
        },
        {
          "indexed": true,
          "internalType": "uint64",
          "name": "destinationChainSelector",
          "type": "uint64"
        },
        {
          "indexed": false,
          "internalType": "address",
          "name": "receiver",
          "type": "address"
        },
        {
          "indexed": false,
          "internalType": "string",
          "name": "text",
          "type": "string"
        },
        {
          "indexed": false,
          "internalType": "address",
          "name": "feeToken",
          "type": "address"
        },
        {
          "indexed": false,
          "internalType": "uint256",
          "name": "fees",
          "type": "uint256"
        }
      ],
      "name": "MessageSent",
      "type": "event"
    },
    {
      "anonymous": false,
      "inputs": [
        {
          "indexed": true,
          "internalType": "address",
          "name": "from",
          "type": "address"
        },
        {
          "indexed": true,
          "internalType": "address",
          "name": "to",
          "type": "address"
        }
      ],
      "name": "OwnershipTransferRequested",
      "type": "event"
    },
    {
      "anonymous": false,
      "inputs": [
        {
          "indexed": true,
          "internalType": "address",
          "name": "from",
          "type": "address"
        },
        {
          "indexed": true,
          "internalType": "address",
          "name": "to",
          "type": "address"
        }
      ],
      "name": "OwnershipTransferred",
      "type": "event"
    },
    {
      "inputs": [],
      "name": "acceptOwnership",
      "outputs": [],
      "stateMutability": "nonpayable",
      "type": "function"
    },
    {
      "inputs": [
        {
          "internalType": "address",
          "name": "_election",
          "type": "address"
        }
      ],
      "name": "addElection",
      "outputs": [],
      "stateMutability": "nonpayable",
      "type": "function"
    },
    {
      "inputs": [
        {
          "internalType": "address",
          "name": "election",
          "type": "address"
        }
      ],
      "name": "electionApproved",
      "outputs": [
        {
          "internalType": "bool",
          "name": "status",
          "type": "bool"
        }
      ],
      "stateMutability": "view",
      "type": "function"
    },
    {
      "inputs": [],
      "name": "getLinkBalance",
      "outputs": [
        {
          "internalType": "uint256",
          "name": "",
          "type": "uint256"
        }
      ],
      "stateMutability": "view",
      "type": "function"
    },
    {
      "inputs": [],
      "name": "minTokens",
      "outputs": [
        {
          "internalType": "uint256",
          "name": "",
          "type": "uint256"
        }
      ],
      "stateMutability": "view",
      "type": "function"
    },
    {
      "inputs": [],
      "name": "owner",
      "outputs": [
        {
          "internalType": "address",
          "name": "",
          "type": "address"
        }
      ],
      "stateMutability": "view",
      "type": "function"
    },
    {
      "inputs": [
        {
          "internalType": "uint64",
          "name": "destinationChainSelector",
          "type": "uint64"
        },
        {
          "internalType": "address",
          "name": "_election",
          "type": "address"
        },
        {
          "internalType": "uint256[]",
          "name": "_voteArr",
          "type": "uint256[]"
        }
      ],
      "name": "sendMessage",
      "outputs": [
        {
          "internalType": "bytes32",
          "name": "messageId",
          "type": "bytes32"
        }
      ],
      "stateMutability": "nonpayable",
      "type": "function"
    },
    {
      "inputs": [
        {
          "internalType": "address",
          "name": "to",
          "type": "address"
        }
      ],
      "name": "transferOwnership",
      "outputs": [],
      "stateMutability": "nonpayable",
      "type": "function"
    },
    {
      "inputs": [
        {
          "internalType": "address",
          "name": "_newElectionFactory",
          "type": "address"
        }
      ],
      "name": "updateElectionFactory",
      "outputs": [],
      "stateMutability": "nonpayable",
      "type": "function"
    }
  ],
  "bytecode": "0x60806040523480156200001157600080fd5b5060405162001e7e38038062001e7e83398181016040528101906200003791906200039b565b338060008073ffffffffffffffffffffffffffffffffffffffff168273ffffffffffffffffffffffffffffffffffffffff1603620000ac576040517f08c379a0000000000000000000000000000000000000000000000000000000008152600401620000a39062000458565b60405180910390fd5b816000806101000a81548173ffffffffffffffffffffffffffffffffffffffff021916908373ffffffffffffffffffffffffffffffffffffffff160217905550600073ffffffffffffffffffffffffffffffffffffffff168173ffffffffffffffffffffffffffffffffffffffff1614620001335762000132816200020260201b60201c565b5b50505082600260006101000a81548173ffffffffffffffffffffffffffffffffffffffff021916908373ffffffffffffffffffffffffffffffffffffffff16021790555081600460006101000a81548173ffffffffffffffffffffffffffffffffffffffff021916908373ffffffffffffffffffffffffffffffffffffffff16021790555080600360006101000a81548173ffffffffffffffffffffffffffffffffffffffff021916908373ffffffffffffffffffffffffffffffffffffffff160217905550505050620004ec565b3373ffffffffffffffffffffffffffffffffffffffff168173ffffffffffffffffffffffffffffffffffffffff160362000273576040517f08c379a00000000000000000000000000000000000000000000000000000000081526004016200026a90620004ca565b60405180910390fd5b80600160006101000a81548173ffffffffffffffffffffffffffffffffffffffff021916908373ffffffffffffffffffffffffffffffffffffffff1602179055508073ffffffffffffffffffffffffffffffffffffffff1660008054906101000a900473ffffffffffffffffffffffffffffffffffffffff1673ffffffffffffffffffffffffffffffffffffffff167fed8889f560326eb138920d842192f0eb3dd22b4f139c87a2c57538e05bae127860405160405180910390a350565b600080fd5b600073ffffffffffffffffffffffffffffffffffffffff82169050919050565b6000620003638262000336565b9050919050565b620003758162000356565b81146200038157600080fd5b50565b60008151905062000395816200036a565b92915050565b600080600060608486031215620003b757620003b662000331565b5b6000620003c78682870162000384565b9350506020620003da8682870162000384565b9250506040620003ed8682870162000384565b9150509250925092565b600082825260208201905092915050565b7f43616e6e6f7420736574206f776e657220746f207a65726f0000000000000000600082015250565b600062000440601883620003f7565b91506200044d8262000408565b602082019050919050565b60006020820190508181036000830152620004738162000431565b9050919050565b7f43616e6e6f74207472616e7366657220746f2073656c66000000000000000000600082015250565b6000620004b2601783620003f7565b9150620004bf826200047a565b602082019050919050565b60006020820190508181036000830152620004e581620004a3565b9050919050565b61198280620004fc6000396000f3fe608060405234801561001057600080fd5b50600436106100935760003560e01c80639b47a915116100665780639b47a915146100fa5780639d4c54511461012a578063b768902514610148578063edfe359d14610164578063f2fde38b1461019457610093565b806350c5f97514610098578063694b98ce146100b657806379ba5097146100d25780638da5cb5b146100dc575b600080fd5b6100a06101b0565b6040516100ad9190610f6a565b60405180910390f35b6100d060048036038101906100cb9190610fed565b610253565b005b6100da610440565b005b6100e46105d5565b6040516100f19190611029565b60405180910390f35b610114600480360381019061010f91906110e9565b6105fe565b6040516101219190611176565b60405180910390f35b610132610c59565b60405161013f9190610f6a565b60405180910390f35b610162600480360381019061015d9190610fed565b610c66565b005b61017e60048036038101906101799190610fed565b610cb2565b60405161018b91906111ac565b60405180910390f35b6101ae60048036038101906101a99190610fed565b610cd2565b005b6000600460009054906101000a900473ffffffffffffffffffffffffffffffffffffffff1673ffffffffffffffffffffffffffffffffffffffff166370a08231306040518263ffffffff1660e01b815260040161020d9190611029565b602060405180830381865afa15801561022a573d6000803e3d6000fd5b505050506040513d601f19601f8201168201806040525081019061024e91906111f3565b905090565b6000600460009054906101000a900473ffffffffffffffffffffffffffffffffffffffff1673ffffffffffffffffffffffffffffffffffffffff1663dd62ed3e33306040518363ffffffff1660e01b81526004016102b2929190611220565b602060405180830381865afa1580156102cf573d6000803e3d6000fd5b505050506040513d601f19601f820116820180604052508101906102f391906111f3565b905068015af1d78b58c40000811015610338576040517f13be252b00000000000000000000000000000000000000000000000000000000815260040160405180910390fd5b600460009054906101000a900473ffffffffffffffffffffffffffffffffffffffff1673ffffffffffffffffffffffffffffffffffffffff166323b872dd333068015af1d78b58c400006040518463ffffffff1660e01b81526004016103a093929190611249565b6020604051808303816000875af11580156103bf573d6000803e3d6000fd5b505050506040513d601f19601f820116820180604052508101906103e391906112ac565b506001600560008473ffffffffffffffffffffffffffffffffffffffff1673ffffffffffffffffffffffffffffffffffffffff16815260200190815260200160002060006101000a81548160ff0219169083151502179055505050565b600160009054906101000a900473ffffffffffffffffffffffffffffffffffffffff1673ffffffffffffffffffffffffffffffffffffffff163373ffffffffffffffffffffffffffffffffffffffff16146104d0576040517f08c379a00000000000000000000000000000000000000000000000000000000081526004016104c790611336565b60405180910390fd5b60008060009054906101000a900473ffffffffffffffffffffffffffffffffffffffff169050336000806101000a81548173ffffffffffffffffffffffffffffffffffffffff021916908373ffffffffffffffffffffffffffffffffffffffff1602179055506000600160006101000a81548173ffffffffffffffffffffffffffffffffffffffff021916908373ffffffffffffffffffffffffffffffffffffffff1602179055503373ffffffffffffffffffffffffffffffffffffffff168173ffffffffffffffffffffffffffffffffffffffff167f8be0079c531659141344cd1fd0a4f28419497f9722a3daafe3b4186f6b6457e060405160405180910390a350565b60008060009054906101000a900473ffffffffffffffffffffffffffffffffffffffff16905090565b6000600560008573ffffffffffffffffffffffffffffffffffffffff1673ffffffffffffffffffffffffffffffffffffffff16815260200190815260200160002060009054906101000a900460ff16610683576040517fd70e16dc00000000000000000000000000000000000000000000000000000000815260040160405180910390fd5b600060405180606001604052808673ffffffffffffffffffffffffffffffffffffffff1681526020013373ffffffffffffffffffffffffffffffffffffffff168152602001858580806020026020016040519081016040528093929190818152602001838360200280828437600081840152601f19601f82011690508083019250505050505050815250905060006040518060a00160405280600360009054906101000a900473ffffffffffffffffffffffffffffffffffffffff1660405160200161074f9190611029565b6040516020818303038152906040528152602001836040516020016107749190611473565b6040516020818303038152906040528152602001600067ffffffffffffffff8111156107a3576107a2611495565b5b6040519080825280602002602001820160405280156107dc57816020015b6107c9610f21565b8152602001906001900390816107c15790505b508152602001600460009054906101000a900473ffffffffffffffffffffffffffffffffffffffff1673ffffffffffffffffffffffffffffffffffffffff16815260200161083a604051806020016040528062030d40815250610ce6565b81525090506000600260009054906101000a900473ffffffffffffffffffffffffffffffffffffffff1673ffffffffffffffffffffffffffffffffffffffff166320487ded89846040518363ffffffff1660e01b815260040161089e9291906116cc565b602060405180830381865afa1580156108bb573d6000803e3d6000fd5b505050506040513d601f19601f820116820180604052508101906108df91906111f3565b9050600460009054906101000a900473ffffffffffffffffffffffffffffffffffffffff1673ffffffffffffffffffffffffffffffffffffffff166370a08231306040518263ffffffff1660e01b815260040161093c9190611029565b602060405180830381865afa158015610959573d6000803e3d6000fd5b505050506040513d601f19601f8201168201806040525081019061097d91906111f3565b811115610a5e57600460009054906101000a900473ffffffffffffffffffffffffffffffffffffffff1673ffffffffffffffffffffffffffffffffffffffff166370a08231306040518263ffffffff1660e01b81526004016109df9190611029565b602060405180830381865afa1580156109fc573d6000803e3d6000fd5b505050506040513d601f19601f82011682018060405250810190610a2091906111f3565b816040517f8f0f4206000000000000000000000000000000000000000000000000000000008152600401610a559291906116fc565b60405180910390fd5b600460009054906101000a900473ffffffffffffffffffffffffffffffffffffffff1673ffffffffffffffffffffffffffffffffffffffff1663095ea7b3600260009054906101000a900473ffffffffffffffffffffffffffffffffffffffff16836040518363ffffffff1660e01b8152600401610add929190611725565b6020604051808303816000875af1158015610afc573d6000803e3d6000fd5b505050506040513d601f19601f82011682018060405250810190610b2091906112ac565b50600260009054906101000a900473ffffffffffffffffffffffffffffffffffffffff1673ffffffffffffffffffffffffffffffffffffffff166396f4e9f989846040518363ffffffff1660e01b8152600401610b7e9291906116cc565b6020604051808303816000875af1158015610b9d573d6000803e3d6000fd5b505050506040513d601f19601f82011682018060405250810190610bc1919061177a565b93508767ffffffffffffffff16847fd36445359b3c6e26c120659aef090ce0f2eb005cf9af450d11aa1225609b4f4d600360009054906101000a900473ffffffffffffffffffffffffffffffffffffffff16600460009054906101000a900473ffffffffffffffffffffffffffffffffffffffff1685604051610c46939291906117f3565b60405180910390a3505050949350505050565b68015af1d78b58c4000081565b610c6e610d65565b80600360006101000a81548173ffffffffffffffffffffffffffffffffffffffff021916908373ffffffffffffffffffffffffffffffffffffffff16021790555050565b60056020528060005260406000206000915054906101000a900460ff1681565b610cda610d65565b610ce381610df5565b50565b60606397a657c960e01b82604051602401610d019190611859565b604051602081830303815290604052907bffffffffffffffffffffffffffffffffffffffffffffffffffffffff19166020820180517bffffffffffffffffffffffffffffffffffffffffffffffffffffffff83818316178352505050509050919050565b60008054906101000a900473ffffffffffffffffffffffffffffffffffffffff1673ffffffffffffffffffffffffffffffffffffffff163373ffffffffffffffffffffffffffffffffffffffff1614610df3576040517f08c379a0000000000000000000000000000000000000000000000000000000008152600401610dea906118c0565b60405180910390fd5b565b3373ffffffffffffffffffffffffffffffffffffffff168173ffffffffffffffffffffffffffffffffffffffff1603610e63576040517f08c379a0000000000000000000000000000000000000000000000000000000008152600401610e5a9061192c565b60405180910390fd5b80600160006101000a81548173ffffffffffffffffffffffffffffffffffffffff021916908373ffffffffffffffffffffffffffffffffffffffff1602179055508073ffffffffffffffffffffffffffffffffffffffff1660008054906101000a900473ffffffffffffffffffffffffffffffffffffffff1673ffffffffffffffffffffffffffffffffffffffff167fed8889f560326eb138920d842192f0eb3dd22b4f139c87a2c57538e05bae127860405160405180910390a350565b6040518060400160405280600073ffffffffffffffffffffffffffffffffffffffff168152602001600081525090565b6000819050919050565b610f6481610f51565b82525050565b6000602082019050610f7f6000830184610f5b565b92915050565b600080fd5b600080fd5b600073ffffffffffffffffffffffffffffffffffffffff82169050919050565b6000610fba82610f8f565b9050919050565b610fca81610faf565b8114610fd557600080fd5b50565b600081359050610fe781610fc1565b92915050565b60006020828403121561100357611002610f85565b5b600061101184828501610fd8565b91505092915050565b61102381610faf565b82525050565b600060208201905061103e600083018461101a565b92915050565b600067ffffffffffffffff82169050919050565b61106181611044565b811461106c57600080fd5b50565b60008135905061107e81611058565b92915050565b600080fd5b600080fd5b600080fd5b60008083601f8401126110a9576110a8611084565b5b8235905067ffffffffffffffff8111156110c6576110c5611089565b5b6020830191508360208202830111156110e2576110e161108e565b5b9250929050565b6000806000806060858703121561110357611102610f85565b5b60006111118782880161106f565b945050602061112287828801610fd8565b935050604085013567ffffffffffffffff81111561114357611142610f8a565b5b61114f87828801611093565b925092505092959194509250565b6000819050919050565b6111708161115d565b82525050565b600060208201905061118b6000830184611167565b92915050565b60008115159050919050565b6111a681611191565b82525050565b60006020820190506111c1600083018461119d565b92915050565b6111d081610f51565b81146111db57600080fd5b50565b6000815190506111ed816111c7565b92915050565b60006020828403121561120957611208610f85565b5b6000611217848285016111de565b91505092915050565b6000604082019050611235600083018561101a565b611242602083018461101a565b9392505050565b600060608201905061125e600083018661101a565b61126b602083018561101a565b6112786040830184610f5b565b949350505050565b61128981611191565b811461129457600080fd5b50565b6000815190506112a681611280565b92915050565b6000602082840312156112c2576112c1610f85565b5b60006112d084828501611297565b91505092915050565b600082825260208201905092915050565b7f4d7573742062652070726f706f736564206f776e657200000000000000000000600082015250565b60006113206016836112d9565b915061132b826112ea565b602082019050919050565b6000602082019050818103600083015261134f81611313565b9050919050565b61135f81610faf565b82525050565b600081519050919050565b600082825260208201905092915050565b6000819050602082019050919050565b61139a81610f51565b82525050565b60006113ac8383611391565b60208301905092915050565b6000602082019050919050565b60006113d082611365565b6113da8185611370565b93506113e583611381565b8060005b838110156114165781516113fd88826113a0565b9750611408836113b8565b9250506001810190506113e9565b5085935050505092915050565b600060608301600083015161143b6000860182611356565b50602083015161144e6020860182611356565b506040830151848203604086015261146682826113c5565b9150508091505092915050565b6000602082019050818103600083015261148d8184611423565b905092915050565b7f4e487b7100000000000000000000000000000000000000000000000000000000600052604160045260246000fd5b6114cd81611044565b82525050565b600081519050919050565b600082825260208201905092915050565b60005b8381101561150d5780820151818401526020810190506114f2565b60008484015250505050565b6000601f19601f8301169050919050565b6000611535826114d3565b61153f81856114de565b935061154f8185602086016114ef565b61155881611519565b840191505092915050565b600081519050919050565b600082825260208201905092915050565b6000819050602082019050919050565b6040820160008201516115a56000850182611356565b5060208201516115b86020850182611391565b50505050565b60006115ca838361158f565b60408301905092915050565b6000602082019050919050565b60006115ee82611563565b6115f8818561156e565b93506116038361157f565b8060005b8381101561163457815161161b88826115be565b9750611626836115d6565b925050600181019050611607565b5085935050505092915050565b600060a083016000830151848203600086015261165e828261152a565b91505060208301518482036020860152611678828261152a565b9150506040830151848203604086015261169282826115e3565b91505060608301516116a76060860182611356565b50608083015184820360808601526116bf828261152a565b9150508091505092915050565b60006040820190506116e160008301856114c4565b81810360208301526116f38184611641565b90509392505050565b60006040820190506117116000830185610f5b565b61171e6020830184610f5b565b9392505050565b600060408201905061173a600083018561101a565b6117476020830184610f5b565b9392505050565b6117578161115d565b811461176257600080fd5b50565b6000815190506117748161174e565b92915050565b6000602082840312156117905761178f610f85565b5b600061179e84828501611765565b91505092915050565b7f566f746564000000000000000000000000000000000000000000000000000000600082015250565b60006117dd6005836112d9565b91506117e8826117a7565b602082019050919050565b6000608082019050611808600083018661101a565b8181036020830152611819816117d0565b9050611828604083018561101a565b6118356060830184610f5b565b949350505050565b6020820160008201516118536000850182611391565b50505050565b600060208201905061186e600083018461183d565b92915050565b7f4f6e6c792063616c6c61626c65206279206f776e657200000000000000000000600082015250565b60006118aa6016836112d9565b91506118b582611874565b602082019050919050565b600060208201905081810360008301526118d98161189d565b9050919050565b7f43616e6e6f74207472616e7366657220746f2073656c66000000000000000000600082015250565b60006119166017836112d9565b9150611921826118e0565b602082019050919050565b6000602082019050818103600083015261194581611909565b905091905056fea264697066735822122067732e38ec04803e62ee063d91eb350274f7c31c2ebf9e5fe48c088d338171fd64736f6c63430008180033",
  "linkReferences": {},
  "deployedLinkReferences": {}
}