{
  "_format": "hh-sol-artifact-1",
  "contractName": "ElectionStorage",
  "sourceName": "contracts/ElectionStorage.sol",
  "abi": [
    {
      "inputs": [],
      "stateMutability": "nonpayable",
      "type": "constructor"
    },
    {
      "inputs": [
        {
          "internalType": "contract Election",
          "name": "_election",
          "type": "address"
        },
        {
          "internalType": "address",
          "name": "_organizer",
          "type": "address"
        }
      ],
      "name": "addElection",
      "outputs": [],
      "stateMutability": "nonpayable",
      "type": "function"
    },
    {
      "inputs": [
        {
          "internalType": "uint256",
          "name": "_electionID",
          "type": "uint256"
        }
      ],
      "name": "getElectionByID",
      "outputs": [
        {
          "internalType": "address",
          "name": "",
          "type": "address"
        }
      ],
      "stateMutability": "view",
      "type": "function"
    },
    {
      "inputs": [],
      "name": "getElectionCount",
      "outputs": [
        {
          "internalType": "uint256",
          "name": "",
          "type": "uint256"
        }
      ],
      "stateMutability": "view",
      "type": "function"
    },
    {
      "inputs": [],
      "name": "getElections",
      "outputs": [
        {
          "internalType": "address[]",
          "name": "",
          "type": "address[]"
        }
      ],
      "stateMutability": "view",
      "type": "function"
    },
    {
      "inputs": [
        {
          "internalType": "address",
          "name": "_organizer",
          "type": "address"
        }
      ],
      "name": "getElectionsOfOrganizer",
      "outputs": [
        {
          "internalType": "address[]",
          "name": "",
          "type": "address[]"
        }
      ],
      "stateMutability": "view",
      "type": "function"
    }
  ],
  "bytecode": "0x608060405234801561001057600080fd5b506103e8600481905550610aa5806100296000396000f3fe608060405234801561001057600080fd5b50600436106100575760003560e01c8063213785a01461005c57806325fb97a91461007a57806364372f73146100aa57806387b4e8d3146100da5780639f3a7f52146100f6575b600080fd5b610064610114565b60405161007191906104c6565b60405180910390f35b610094600480360381019061008f9190610521565b61011e565b6040516100a1919061058f565b60405180910390f35b6100c460048036038101906100bf91906105d6565b61015b565b6040516100d191906106c1565b60405180910390f35b6100f460048036038101906100ef9190610721565b610228565b005b6100fe61041f565b60405161010b91906106c1565b60405180910390f35b6000600454905090565b60006003600083815260200190815260200160002060009054906101000a900473ffffffffffffffffffffffffffffffffffffffff169050919050565b6060600260008373ffffffffffffffffffffffffffffffffffffffff1673ffffffffffffffffffffffffffffffffffffffff16815260200190815260200160002080548060200260200160405190810160405280929190818152602001828054801561021c57602002820191906000526020600020905b8160009054906101000a900473ffffffffffffffffffffffffffffffffffffffff1673ffffffffffffffffffffffffffffffffffffffff16815260200190600101908083116101d2575b50505050509050919050565b6004600081548092919061023b90610790565b91905055506000829080600181540180825580915050600190039060005260206000200160009091909190916101000a81548173ffffffffffffffffffffffffffffffffffffffff021916908373ffffffffffffffffffffffffffffffffffffffff160217905550600260008273ffffffffffffffffffffffffffffffffffffffff1673ffffffffffffffffffffffffffffffffffffffff168152602001908152602001600020829080600181540180825580915050600190039060005260206000200160009091909190916101000a81548173ffffffffffffffffffffffffffffffffffffffff021916908373ffffffffffffffffffffffffffffffffffffffff16021790555081600360008473ffffffffffffffffffffffffffffffffffffffff166386852dca6040518163ffffffff1660e01b815260040160006040518083038186803b15801561038e57600080fd5b505afa1580156103a2573d6000803e3d6000fd5b505050506040513d6000823e3d601f19601f820116820180604052508101906103cb9190610a26565b60000151815260200190815260200160002060006101000a81548173ffffffffffffffffffffffffffffffffffffffff021916908373ffffffffffffffffffffffffffffffffffffffff1602179055505050565b606060008054806020026020016040519081016040528092919081815260200182805480156104a357602002820191906000526020600020905b8160009054906101000a900473ffffffffffffffffffffffffffffffffffffffff1673ffffffffffffffffffffffffffffffffffffffff1681526020019060010190808311610459575b5050505050905090565b6000819050919050565b6104c0816104ad565b82525050565b60006020820190506104db60008301846104b7565b92915050565b6000604051905090565b600080fd5b600080fd5b6104fe816104ad565b811461050957600080fd5b50565b60008135905061051b816104f5565b92915050565b600060208284031215610537576105366104eb565b5b60006105458482850161050c565b91505092915050565b600073ffffffffffffffffffffffffffffffffffffffff82169050919050565b60006105798261054e565b9050919050565b6105898161056e565b82525050565b60006020820190506105a46000830184610580565b92915050565b6105b38161056e565b81146105be57600080fd5b50565b6000813590506105d0816105aa565b92915050565b6000602082840312156105ec576105eb6104eb565b5b60006105fa848285016105c1565b91505092915050565b600081519050919050565b600082825260208201905092915050565b6000819050602082019050919050565b6106388161056e565b82525050565b600061064a838361062f565b60208301905092915050565b6000602082019050919050565b600061066e82610603565b610678818561060e565b93506106838361061f565b8060005b838110156106b457815161069b888261063e565b97506106a683610656565b925050600181019050610687565b5085935050505092915050565b600060208201905081810360008301526106db8184610663565b905092915050565b60006106ee8261056e565b9050919050565b6106fe816106e3565b811461070957600080fd5b50565b60008135905061071b816106f5565b92915050565b60008060408385031215610738576107376104eb565b5b60006107468582860161070c565b9250506020610757858286016105c1565b9150509250929050565b7f4e487b7100000000000000000000000000000000000000000000000000000000600052601160045260246000fd5b600061079b826104ad565b91507fffffffffffffffffffffffffffffffffffffffffffffffffffffffffffffffff8214156107ce576107cd610761565b5b600182019050919050565b600080fd5b6000601f19601f8301169050919050565b7f4e487b7100000000000000000000000000000000000000000000000000000000600052604160045260246000fd5b610827826107de565b810181811067ffffffffffffffff82111715610846576108456107ef565b5b80604052505050565b60006108596104e1565b9050610865828261081e565b919050565b600080fd5b60008151905061087e816104f5565b92915050565b600080fd5b600080fd5b600067ffffffffffffffff8211156108a9576108a86107ef565b5b6108b2826107de565b9050602081019050919050565b60005b838110156108dd5780820151818401526020810190506108c2565b838111156108ec576000848401525b50505050565b60006109056109008461088e565b61084f565b90508281526020810184848401111561092157610920610889565b5b61092c8482856108bf565b509392505050565b600082601f83011261094957610948610884565b5b81516109598482602086016108f2565b91505092915050565b600060a08284031215610978576109776107d9565b5b61098260a061084f565b905060006109928482850161086f565b600083015250602082015167ffffffffffffffff8111156109b6576109b561086a565b5b6109c284828501610934565b602083015250604082015167ffffffffffffffff8111156109e6576109e561086a565b5b6109f284828501610934565b6040830152506060610a068482850161086f565b6060830152506080610a1a8482850161086f565b60808301525092915050565b600060208284031215610a3c57610a3b6104eb565b5b600082015167ffffffffffffffff811115610a5a57610a596104f0565b5b610a6684828501610962565b9150509291505056fea2646970667358221220fa484768f11926a0c313008839f3da16918e37eb710b47d108dd8e266f508ce564736f6c63430008090033",
  "linkReferences": {},
  "deployedLinkReferences": {}
}