{
  "_format": "hh-sol-artifact-1",
  "contractName": "ElectionStorage",
  "sourceName": "contracts/ElectionStorage.sol",
  "abi": [
    {
      "inputs": [],
      "stateMutability": "nonpayable",
      "type": "constructor"
    },
    {
      "inputs": [
        {
          "internalType": "contract Election",
          "name": "_election",
          "type": "address"
        },
        {
          "internalType": "address",
          "name": "_organizer",
          "type": "address"
        }
      ],
      "name": "addElection",
      "outputs": [],
      "stateMutability": "nonpayable",
      "type": "function"
    },
    {
      "inputs": [
        {
          "internalType": "uint256",
          "name": "_electionID",
          "type": "uint256"
        }
      ],
      "name": "getElectionByID",
      "outputs": [
        {
          "internalType": "address",
          "name": "",
          "type": "address"
        }
      ],
      "stateMutability": "view",
      "type": "function"
    },
    {
      "inputs": [],
      "name": "getElectionCount",
      "outputs": [
        {
          "internalType": "uint256",
          "name": "",
          "type": "uint256"
        }
      ],
      "stateMutability": "view",
      "type": "function"
    },
    {
      "inputs": [],
      "name": "getElections",
      "outputs": [
        {
          "internalType": "address[]",
          "name": "",
          "type": "address[]"
        }
      ],
      "stateMutability": "view",
      "type": "function"
    },
    {
      "inputs": [
        {
          "internalType": "address",
          "name": "_organizer",
          "type": "address"
        }
      ],
      "name": "getElectionsOfOrganizer",
      "outputs": [
        {
          "internalType": "address[]",
          "name": "",
          "type": "address[]"
        }
      ],
      "stateMutability": "view",
      "type": "function"
    }
  ],
  "bytecode": "0x608060405234801561001057600080fd5b506103e86004556105e4806100266000396000f3fe608060405234801561001057600080fd5b50600436106100575760003560e01c8063213785a01461005c57806325fb97a91461007257806364372f73146100b357806387b4e8d3146100d35780639f3a7f52146100e8575b600080fd5b6004546040519081526020015b60405180910390f35b61009b6100803660046102fc565b6000908152600360205260409020546001600160a01b031690565b6040516001600160a01b039091168152602001610069565b6100c66100c136600461032d565b6100f0565b6040516100699190610351565b6100e66100e136600461039e565b610166565b005b6100c661029a565b6001600160a01b03811660009081526002602090815260409182902080548351818402810184019094528084526060939283018282801561015a57602002820191906000526020600020905b81546001600160a01b0316815260019091019060200180831161013c575b50505050509050919050565b60048054906000610176836103d7565b909155505060008054600181810183557f290decd9548b62a8d60345a988386fc84ba6bc95484008f6362f93160ef3e56390910180546001600160a01b038087166001600160a01b0319928316811790935585168452600260209081526040808620805495860181558652908520909301805490911682179055815163434296e560e11b8152915185936003939092916386852dca916004808201928692909190829003018186803b15801561022b57600080fd5b505afa15801561023f573d6000803e3d6000fd5b505050506040513d6000823e601f3d908101601f1916820160405261026791908101906104fc565b518152602081019190915260400160002080546001600160a01b0319166001600160a01b03929092169190911790555050565b606060008054806020026020016040519081016040528092919081815260200182805480156102f257602002820191906000526020600020905b81546001600160a01b031681526001909101906020018083116102d4575b5050505050905090565b60006020828403121561030e57600080fd5b5035919050565b6001600160a01b038116811461032a57600080fd5b50565b60006020828403121561033f57600080fd5b813561034a81610315565b9392505050565b6020808252825182820181905260009190848201906040850190845b818110156103925783516001600160a01b03168352928401929184019160010161036d565b50909695505050505050565b600080604083850312156103b157600080fd5b82356103bc81610315565b915060208301356103cc81610315565b809150509250929050565b60006000198214156103f957634e487b7160e01b600052601160045260246000fd5b5060010190565b634e487b7160e01b600052604160045260246000fd5b60405160a0810167ffffffffffffffff8111828210171561043957610439610400565b60405290565b604051601f8201601f1916810167ffffffffffffffff8111828210171561046857610468610400565b604052919050565b600082601f83011261048157600080fd5b815167ffffffffffffffff81111561049b5761049b610400565b60206104af601f8301601f1916820161043f565b82815285828487010111156104c357600080fd5b60005b838110156104e15785810183015182820184015282016104c6565b838111156104f25760008385840101525b5095945050505050565b60006020828403121561050e57600080fd5b815167ffffffffffffffff8082111561052657600080fd5b9083019060a0828603121561053a57600080fd5b610542610416565b8251815260208301518281111561055857600080fd5b61056487828601610470565b60208301525060408301518281111561057c57600080fd5b61058887828601610470565b60408301525060608301516060820152608083015160808201528093505050509291505056fea2646970667358221220381b98107c5a594d4133fb8bfe2eed69a96077bd0e8a5afc8e63ab50e646962164736f6c63430008090033",
  "linkReferences": {},
  "deployedLinkReferences": {}
}