{
  "_format": "hh-sol-artifact-1",
  "contractName": "Voter",
  "sourceName": "contracts/facets/votingApp/Voter.sol",
  "abi": [
    {
      "anonymous": false,
      "inputs": [
        {
          "indexed": false,
          "internalType": "address",
          "name": "election",
          "type": "address"
        },
        {
          "indexed": false,
          "internalType": "uint256",
          "name": "canidateID",
          "type": "uint256"
        },
        {
          "indexed": false,
          "internalType": "uint256",
          "name": "weight",
          "type": "uint256"
        }
      ],
      "name": "VoteCasted",
      "type": "event"
    },
    {
      "inputs": [
        {
          "internalType": "contract Election",
          "name": "_election",
          "type": "address"
        },
        {
          "internalType": "uint256",
          "name": "_candidateID",
          "type": "uint256"
        },
        {
          "internalType": "uint256",
          "name": "_weight",
          "type": "uint256"
        },
        {
          "internalType": "uint256[]",
          "name": "voteArr",
          "type": "uint256[]"
        }
      ],
      "name": "castVote",
      "outputs": [],
      "stateMutability": "nonpayable",
      "type": "function"
    }
  ],
  "bytecode": "0x608060405234801561001057600080fd5b506106e6806100206000396000f3fe608060405234801561001057600080fd5b506004361061002b5760003560e01c8063d52d3c7414610030575b600080fd5b61004a600480360381019061004591906103d1565b61004c565b005b600015158473ffffffffffffffffffffffffffffffffffffffff1663521b0dcc336040518263ffffffff1660e01b81526004016100899190610463565b602060405180830381865afa1580156100a6573d6000803e3d6000fd5b505050506040513d601f19601f820116820180604052508101906100ca91906104b6565b15151461010c576040517f08c379a000000000000000000000000000000000000000000000000000000000815260040161010390610540565b60405180910390fd5b8373ffffffffffffffffffffffffffffffffffffffff1663a1818ac4338585856040518563ffffffff1660e01b815260040161014b949392919061062d565b600060405180830381600087803b15801561016557600080fd5b505af1158015610179573d6000803e3d6000fd5b505050507fcb87df07b1c304492bd875a5c8b98672eca500939412809ea229afef1d7451888484846040516101b093929190610679565b60405180910390a150505050565b6000604051905090565b600080fd5b600080fd5b600073ffffffffffffffffffffffffffffffffffffffff82169050919050565b60006101fd826101d2565b9050919050565b600061020f826101f2565b9050919050565b61021f81610204565b811461022a57600080fd5b50565b60008135905061023c81610216565b92915050565b6000819050919050565b61025581610242565b811461026057600080fd5b50565b6000813590506102728161024c565b92915050565b600080fd5b6000601f19601f8301169050919050565b7f4e487b7100000000000000000000000000000000000000000000000000000000600052604160045260246000fd5b6102c68261027d565b810181811067ffffffffffffffff821117156102e5576102e461028e565b5b80604052505050565b60006102f86101be565b905061030482826102bd565b919050565b600067ffffffffffffffff8211156103245761032361028e565b5b602082029050602081019050919050565b600080fd5b600061034d61034884610309565b6102ee565b905080838252602082019050602084028301858111156103705761036f610335565b5b835b8181101561039957806103858882610263565b845260208401935050602081019050610372565b5050509392505050565b600082601f8301126103b8576103b7610278565b5b81356103c884826020860161033a565b91505092915050565b600080600080608085870312156103eb576103ea6101c8565b5b60006103f98782880161022d565b945050602061040a87828801610263565b935050604061041b87828801610263565b925050606085013567ffffffffffffffff81111561043c5761043b6101cd565b5b610448878288016103a3565b91505092959194509250565b61045d816101f2565b82525050565b60006020820190506104786000830184610454565b92915050565b60008115159050919050565b6104938161047e565b811461049e57600080fd5b50565b6000815190506104b08161048a565b92915050565b6000602082840312156104cc576104cb6101c8565b5b60006104da848285016104a1565b91505092915050565b600082825260208201905092915050565b7f416c726561647920766f74656400000000000000000000000000000000000000600082015250565b600061052a600d836104e3565b9150610535826104f4565b602082019050919050565b600060208201905081810360008301526105598161051d565b9050919050565b61056981610242565b82525050565b600081519050919050565b600082825260208201905092915050565b6000819050602082019050919050565b6105a481610242565b82525050565b60006105b6838361059b565b60208301905092915050565b6000602082019050919050565b60006105da8261056f565b6105e4818561057a565b93506105ef8361058b565b8060005b8381101561062057815161060788826105aa565b9750610612836105c2565b9250506001810190506105f3565b5085935050505092915050565b60006080820190506106426000830187610454565b61064f6020830186610560565b61065c6040830185610560565b818103606083015261066e81846105cf565b905095945050505050565b600060608201905061068e6000830186610454565b61069b6020830185610560565b6106a86040830184610560565b94935050505056fea2646970667358221220a9fc4482cb03b2faa152faf271235f09197da577724fc9f8f3dcaf66ffba912164736f6c634300080a0033",
  "linkReferences": {},
  "deployedLinkReferences": {}
}