{
  "_format": "hh-sol-artifact-1",
  "contractName": "Authentication",
  "sourceName": "contracts/facets/Authentication.sol",
  "abi": [
    {
      "inputs": [
        {
          "components": [
            {
              "internalType": "uint256",
              "name": "organizerID",
              "type": "uint256"
            },
            {
              "internalType": "string",
              "name": "name",
              "type": "string"
            },
            {
              "internalType": "address",
              "name": "publicAddress",
              "type": "address"
            }
          ],
          "internalType": "struct ElectionOrganizer.OrganizerInfo",
          "name": "_organizerInfo",
          "type": "tuple"
        }
      ],
      "name": "createUser",
      "outputs": [],
      "stateMutability": "nonpayable",
      "type": "function"
    },
    {
      "inputs": [
        {
          "internalType": "address",
          "name": "_user",
          "type": "address"
        }
      ],
      "name": "getAuthStatus",
      "outputs": [
        {
          "internalType": "bool",
          "name": "",
          "type": "bool"
        }
      ],
      "stateMutability": "view",
      "type": "function"
    },
    {
      "inputs": [],
      "name": "getElectionOrganizerContract",
      "outputs": [
        {
          "internalType": "address",
          "name": "",
          "type": "address"
        }
      ],
      "stateMutability": "view",
      "type": "function"
    },
    {
      "inputs": [],
      "name": "getVoterContract",
      "outputs": [
        {
          "internalType": "address",
          "name": "",
          "type": "address"
        }
      ],
      "stateMutability": "view",
      "type": "function"
    },
    {
      "inputs": [
        {
          "internalType": "address",
          "name": "_diamond",
          "type": "address"
        }
      ],
      "name": "init",
      "outputs": [],
      "stateMutability": "nonpayable",
      "type": "function"
    }
  ],
  "bytecode": "0x608060405234801561001057600080fd5b5061097e806100206000396000f3fe608060405234801561001057600080fd5b50600436106100575760003560e01c806314bde88e1461005c57806319ab453c1461008c578063378d47e9146100a85780639b05e4b9146100c6578063bba92b2b146100e2575b600080fd5b610076600480360381019061007191906104d7565b610100565b604051610083919061051f565b60405180910390f35b6100a660048036038101906100a191906104d7565b610155565b005b6100b06102a6565b6040516100bd9190610549565b60405180910390f35b6100e060048036038101906100db919061076a565b6102d0565b005b6100ea61040e565b6040516100f79190610549565b60405180910390f35b60008060008373ffffffffffffffffffffffffffffffffffffffff1673ffffffffffffffffffffffffffffffffffffffff16815260200190815260200160002060009054906101000a900460ff169050919050565b8061015e610438565b60000160006101000a81548173ffffffffffffffffffffffffffffffffffffffff021916908373ffffffffffffffffffffffffffffffffffffffff16021790555080600160006101000a81548173ffffffffffffffffffffffffffffffffffffffff021916908373ffffffffffffffffffffffffffffffffffffffff160217905550600160009054906101000a900473ffffffffffffffffffffffffffffffffffffffff1673ffffffffffffffffffffffffffffffffffffffff16631d43d8ed6040518163ffffffff1660e01b8152600401600060405180830381600087803b15801561024a57600080fd5b505af115801561025e573d6000803e3d6000fd5b5050505080600260006101000a81548173ffffffffffffffffffffffffffffffffffffffff021916908373ffffffffffffffffffffffffffffffffffffffff16021790555050565b6000600160009054906101000a900473ffffffffffffffffffffffffffffffffffffffff16905090565b600015156102e18260400151610100565b151514610323576040517f08c379a000000000000000000000000000000000000000000000000000000000815260040161031a90610810565b60405180910390fd5b6001600080836040015173ffffffffffffffffffffffffffffffffffffffff1673ffffffffffffffffffffffffffffffffffffffff16815260200190815260200160002060006101000a81548160ff021916908315150217905550600160009054906101000a900473ffffffffffffffffffffffffffffffffffffffff1673ffffffffffffffffffffffffffffffffffffffff166315d4ffa0826040518263ffffffff1660e01b81526004016103d99190610926565b600060405180830381600087803b1580156103f357600080fd5b505af1158015610407573d6000803e3d6000fd5b5050505050565b6000600260009054906101000a900473ffffffffffffffffffffffffffffffffffffffff16905090565b6000807fc20038518297e76c0e27a913ab03e5d4fd92b2579d428cf3b89f8c71add2acef90508091505090565b6000604051905090565b600080fd5b600080fd5b600073ffffffffffffffffffffffffffffffffffffffff82169050919050565b60006104a482610479565b9050919050565b6104b481610499565b81146104bf57600080fd5b50565b6000813590506104d1816104ab565b92915050565b6000602082840312156104ed576104ec61046f565b5b60006104fb848285016104c2565b91505092915050565b60008115159050919050565b61051981610504565b82525050565b60006020820190506105346000830184610510565b92915050565b61054381610499565b82525050565b600060208201905061055e600083018461053a565b92915050565b600080fd5b6000601f19601f8301169050919050565b7f4e487b7100000000000000000000000000000000000000000000000000000000600052604160045260246000fd5b6105b282610569565b810181811067ffffffffffffffff821117156105d1576105d061057a565b5b80604052505050565b60006105e4610465565b90506105f082826105a9565b919050565b600080fd5b6000819050919050565b61060d816105fa565b811461061857600080fd5b50565b60008135905061062a81610604565b92915050565b600080fd5b600080fd5b600067ffffffffffffffff8211156106555761065461057a565b5b61065e82610569565b9050602081019050919050565b82818337600083830152505050565b600061068d6106888461063a565b6105da565b9050828152602081018484840111156106a9576106a8610635565b5b6106b484828561066b565b509392505050565b600082601f8301126106d1576106d0610630565b5b81356106e184826020860161067a565b91505092915050565b600060608284031215610700576106ff610564565b5b61070a60606105da565b9050600061071a8482850161061b565b600083015250602082013567ffffffffffffffff81111561073e5761073d6105f5565b5b61074a848285016106bc565b602083015250604061075e848285016104c2565b60408301525092915050565b6000602082840312156107805761077f61046f565b5b600082013567ffffffffffffffff81111561079e5761079d610474565b5b6107aa848285016106ea565b91505092915050565b600082825260208201905092915050565b7f5573657220616c72656164792072656769737465726564000000000000000000600082015250565b60006107fa6017836107b3565b9150610805826107c4565b602082019050919050565b60006020820190508181036000830152610829816107ed565b9050919050565b610839816105fa565b82525050565b600081519050919050565b600082825260208201905092915050565b60005b8381101561087957808201518184015260208101905061085e565b83811115610888576000848401525b50505050565b60006108998261083f565b6108a3818561084a565b93506108b381856020860161085b565b6108bc81610569565b840191505092915050565b6108d081610499565b82525050565b60006060830160008301516108ee6000860182610830565b5060208301518482036020860152610906828261088e565b915050604083015161091b60408601826108c7565b508091505092915050565b6000602082019050818103600083015261094081846108d6565b90509291505056fea2646970667358221220ebbdc936cd5bb3d7c179bdae6cb02ce9225af3c58035910ab728ded2d636841764736f6c634300080a0033",
  "linkReferences": {},
  "deployedLinkReferences": {}
}