{
  "_format": "hh-sol-artifact-1",
  "contractName": "IncrementalMerkleTree",
  "sourceName": "contracts/IncrementalMerkleTree.sol",
  "abi": [
    {
      "inputs": [
        {
          "internalType": "uint8",
          "name": "_treeLevels",
          "type": "uint8"
        },
        {
          "internalType": "uint256",
          "name": "_zeroValue",
          "type": "uint256"
        }
      ],
      "stateMutability": "nonpayable",
      "type": "constructor"
    },
    {
      "anonymous": false,
      "inputs": [
        {
          "indexed": true,
          "internalType": "uint256",
          "name": "leaf",
          "type": "uint256"
        },
        {
          "indexed": true,
          "internalType": "uint256",
          "name": "leafIndex",
          "type": "uint256"
        }
      ],
      "name": "LeafInsertion",
      "type": "event"
    },
    {
      "anonymous": false,
      "inputs": [
        {
          "indexed": false,
          "internalType": "uint256",
          "name": "root",
          "type": "uint256"
        }
      ],
      "name": "NewRoot",
      "type": "event"
    },
    {
      "inputs": [],
      "name": "getRoots",
      "outputs": [
        {
          "internalType": "uint256[10]",
          "name": "",
          "type": "uint256[10]"
        }
      ],
      "stateMutability": "view",
      "type": "function"
    },
    {
      "inputs": [],
      "name": "root",
      "outputs": [
        {
          "internalType": "uint256",
          "name": "",
          "type": "uint256"
        }
      ],
      "stateMutability": "view",
      "type": "function"
    },
    {
      "inputs": [
        {
          "internalType": "uint256",
          "name": "",
          "type": "uint256"
        }
      ],
      "name": "rootHistory",
      "outputs": [
        {
          "internalType": "bool",
          "name": "",
          "type": "bool"
        }
      ],
      "stateMutability": "view",
      "type": "function"
    }
  ],
  "bytecode": "0x6080604052600060015534801561001557600080fd5b506040516104d73803806104d7833981016040819052610034916102a2565b60008260ff1611801561004b5750602060ff831611155b6100c15760405162461bcd60e51b815260206004820152603b60248201527f496e6372656d656e74616c4d65726b6c65547265653a205f747265654c65766560448201527f6c73206d757374206265206265747765656e203020616e642033330000000000606482015260840160405180910390fd5b6000805460ff191660ff84161781558190600d01558060015b8360ff168160ff16101561013c5760006100f48380610153565b905080600d8360ff166020811061010d5761010d6102d6565b015580602d60ff841660208110610126576101266102d6565b0155915080610134816102ec565b9150506100da565b506101478180610153565b600c555061033e915050565b60405163f47d33b560e01b815260048101839052600060248201819052908390829073__$cf5da3090e28b1d67a537682696360513a$__9063f47d33b590604401604080518083038186803b1580156101ab57600080fd5b505af41580156101bf573d6000803e3d6000fd5b505050506040513d601f19601f820116820180604052508101906101e3919061031a565b90925090507f30644e72e131a029b85045b68181585d2833e84879b9709143e1f593f000000184830860405163f47d33b560e01b8152600481018290526024810183905290925073__$cf5da3090e28b1d67a537682696360513a$__9063f47d33b590604401604080518083038186803b15801561026057600080fd5b505af4158015610274573d6000803e3d6000fd5b505050506040513d601f19601f82011682018060405250810190610298919061031a565b5095945050505050565b600080604083850312156102b557600080fd5b825160ff811681146102c657600080fd5b6020939093015192949293505050565b634e487b7160e01b600052603260045260246000fd5b600060ff821660ff81141561031157634e487b7160e01b600052601160045260246000fd5b60010192915050565b6000806040838503121561032d57600080fd5b505080516020909101519092909150565b61018a8061034d6000396000f3fe608060405234801561001057600080fd5b50600436106100415760003560e01c806335a5e06d14610046578063ebf0c71714610064578063f1c621ee1461007b575b600080fd5b61004e6100ae565b60405161005b9190610109565b60405180910390f35b61006d600c5481565b60405190815260200161005b565b61009e61008936600461013b565b604d6020526000908152604090205460ff1681565b604051901515815260200161005b565b6100b66100ea565b6040805161014081019182905290600290600a9082845b8154815260200190600101908083116100cd575050505050905090565b604051806101400160405280600a906020820280368337509192915050565b6101408101818360005b600a811015610132578151835260209283019290910190600101610113565b50505092915050565b60006020828403121561014d57600080fd5b503591905056fea264697066735822122056e657a2b8ca46eff0d26650bc814f03f560484d793d51e55368728de5b8798264736f6c63430008090033",
  "linkReferences": {
    "contracts/MiMC.sol": {
      "MiMC": [
        {
          "length": 20,
          "start": 375
        },
        {
          "length": 20,
          "start": 556
        }
      ]
    }
  },
  "deployedLinkReferences": {}
}