{
  "_format": "hh-sol-artifact-1",
  "contractName": "Voter",
  "sourceName": "contracts/Voter.sol",
  "abi": [
    {
      "anonymous": false,
      "inputs": [
        {
          "indexed": false,
          "internalType": "address",
          "name": "election",
          "type": "address"
        },
        {
          "indexed": false,
          "internalType": "uint256",
          "name": "canidateID",
          "type": "uint256"
        },
        {
          "indexed": false,
          "internalType": "uint256",
          "name": "weight",
          "type": "uint256"
        }
      ],
      "name": "VoteCasted",
      "type": "event"
    },
    {
      "inputs": [
        {
          "internalType": "contract Election",
          "name": "_election",
          "type": "address"
        },
        {
          "internalType": "uint256",
          "name": "_candidateID",
          "type": "uint256"
        },
        {
          "internalType": "uint256",
          "name": "_weight",
          "type": "uint256"
        },
        {
          "internalType": "uint256[]",
          "name": "voteArr",
          "type": "uint256[]"
        }
      ],
      "name": "castVote",
      "outputs": [],
      "stateMutability": "nonpayable",
      "type": "function"
    }
  ],
  "bytecode": "0x608060405234801561001057600080fd5b5061037c806100206000396000f3fe608060405234801561001057600080fd5b506004361061002b5760003560e01c8063d52d3c7414610030575b600080fd5b61004361003e3660046101c8565b610045565b005b604051631486c37360e21b81523360048201526001600160a01b0385169063521b0dcc9060240160206040518083038186803b15801561008457600080fd5b505afa158015610098573d6000803e3d6000fd5b505050506040513d601f19601f820116820180604052508101906100bc91906102b8565b156100fd5760405162461bcd60e51b815260206004820152600d60248201526c105b1c9958591e481d9bdd1959609a1b604482015260640160405180910390fd5b60405163286062b160e21b81526001600160a01b0385169063a1818ac49061012f9033908790879087906004016102e1565b600060405180830381600087803b15801561014957600080fd5b505af115801561015d573d6000803e3d6000fd5b5050604080516001600160a01b0388168152602081018790529081018590527fcb87df07b1c304492bd875a5c8b98672eca500939412809ea229afef1d7451889250606001905060405180910390a150505050565b634e487b7160e01b600052604160045260246000fd5b600080600080608085870312156101de57600080fd5b84356001600160a01b03811681146101f557600080fd5b9350602085810135935060408601359250606086013567ffffffffffffffff8082111561022157600080fd5b818801915088601f83011261023557600080fd5b813581811115610247576102476101b2565b8060051b604051601f19603f8301168101818110858211171561026c5761026c6101b2565b60405291825284820192508381018501918b83111561028a57600080fd5b938501935b828510156102a85784358452938501939285019261028f565b989b979a50959850505050505050565b6000602082840312156102ca57600080fd5b815180151581146102da57600080fd5b9392505050565b6001600160a01b038516815260208082018590526040820184905260806060830181905283519083018190526000918481019160a0850190845b818110156103375784518352938301939183019160010161031b565b5090999850505050505050505056fea26469706673582212208fd80c5ac7186b4a4c3bf36d6abdad752e5f49cec354eda2c8f6a9899e4466b464736f6c63430008090033",
  "linkReferences": {},
  "deployedLinkReferences": {}
}