{
  "_format": "hh-sol-artifact-1",
  "contractName": "Voter",
  "sourceName": "contracts/Voter.sol",
  "abi": [
    {
      "anonymous": false,
      "inputs": [
        {
          "indexed": false,
          "internalType": "address",
          "name": "election",
          "type": "address"
        },
        {
          "indexed": false,
          "internalType": "uint256",
          "name": "canidateID",
          "type": "uint256"
        },
        {
          "indexed": false,
          "internalType": "uint256",
          "name": "weight",
          "type": "uint256"
        }
      ],
      "name": "VoteCasted",
      "type": "event"
    },
    {
      "inputs": [
        {
          "internalType": "contract Election",
          "name": "_election",
          "type": "address"
        },
        {
          "internalType": "uint256",
          "name": "_candidateID",
          "type": "uint256"
        },
        {
          "internalType": "uint256",
          "name": "_weight",
          "type": "uint256"
        }
      ],
      "name": "castVote",
      "outputs": [],
      "stateMutability": "nonpayable",
      "type": "function"
    }
  ],
  "bytecode": "0x608060405234801561001057600080fd5b50610450806100206000396000f3fe608060405234801561001057600080fd5b506004361061002b5760003560e01c8063cab2d76e14610030575b600080fd5b61004a60048036038101906100459190610275565b61004c565b005b600015158373ffffffffffffffffffffffffffffffffffffffff1663521b0dcc336040518263ffffffff1660e01b815260040161008991906102d7565b60206040518083038186803b1580156100a157600080fd5b505afa1580156100b5573d6000803e3d6000fd5b505050506040513d601f19601f820116820180604052508101906100d9919061032a565b15151461011b576040517f08c379a0000000000000000000000000000000000000000000000000000000008152600401610112906103b4565b60405180910390fd5b8273ffffffffffffffffffffffffffffffffffffffff16632a4a1b733384846040518463ffffffff1660e01b8152600401610158939291906103e3565b600060405180830381600087803b15801561017257600080fd5b505af1158015610186573d6000803e3d6000fd5b505050507fcb87df07b1c304492bd875a5c8b98672eca500939412809ea229afef1d7451888383836040516101bd939291906103e3565b60405180910390a1505050565b600080fd5b600073ffffffffffffffffffffffffffffffffffffffff82169050919050565b60006101fa826101cf565b9050919050565b600061020c826101ef565b9050919050565b61021c81610201565b811461022757600080fd5b50565b60008135905061023981610213565b92915050565b6000819050919050565b6102528161023f565b811461025d57600080fd5b50565b60008135905061026f81610249565b92915050565b60008060006060848603121561028e5761028d6101ca565b5b600061029c8682870161022a565b93505060206102ad86828701610260565b92505060406102be86828701610260565b9150509250925092565b6102d1816101ef565b82525050565b60006020820190506102ec60008301846102c8565b92915050565b60008115159050919050565b610307816102f2565b811461031257600080fd5b50565b600081519050610324816102fe565b92915050565b6000602082840312156103405761033f6101ca565b5b600061034e84828501610315565b91505092915050565b600082825260208201905092915050565b7f416c726561647920766f74656400000000000000000000000000000000000000600082015250565b600061039e600d83610357565b91506103a982610368565b602082019050919050565b600060208201905081810360008301526103cd81610391565b9050919050565b6103dd8161023f565b82525050565b60006060820190506103f860008301866102c8565b61040560208301856103d4565b61041260408301846103d4565b94935050505056fea26469706673582212206a6ea7ca66eb857d12d559232766e5f953605a8e2aaa1fdb023856ae0f1f5cd964736f6c63430008090033",
  "linkReferences": {},
  "deployedLinkReferences": {}
}