{"abi":[{"type":"function","name":"calculateMooreResult","inputs":[{"name":"returnData","type":"bytes","internalType":"bytes"}],"outputs":[{"name":"","type":"uint256[]","internalType":"uint256[]"}],"stateMutability":"pure"},{"type":"error","name":"CandidatesTie","inputs":[]},{"type":"error","name":"NoCandidates","inputs":[]},{"type":"error","name":"NoWinner","inputs":[]},{"type":"error","name":"VotesExhausted","inputs":[]}],"bytecode":{"object":"0x6080604052348015600e575f5ffd5b506104948061001c5f395ff3fe608060405234801561000f575f5ffd5b5060043610610029575f3560e01c8063dd582afb1461002d575b5f5ffd5b61004061003b36600461027b565b610056565b60405161004d91906102e9565b60405180910390f35b60605f6100658385018561033f565b805190915060028110156100855761007c8161015e565b92505050610158565b5f806060815b84811015610144575f8682815181106100a6576100a6610407565b602002602001015190506002866100bd919061041b565b81111561011257604080516001808252818301909252906020808301908036833701905050925081835f815181106100f7576100f7610407565b60200260200101818152505082975050505050505050610158565b84811115610126578094506001935061013b565b84810361013b57836101378161043a565b9450505b5060010161008b565b506101508284876101c5565b955050505050505b92915050565b6060815f0361018057604051638b9ae95f60e01b815260040160405180910390fd5b6040805160018082528183019092525f91602080830190803683370190505090505f815f815181106101b4576101b4610407565b602090810291909101015292915050565b60605f8467ffffffffffffffff8111156101e1576101e161032b565b60405190808252806020026020018201604052801561020a578160200160208202803683370190505b5083519091505f805b8281101561026f578686828151811061022e5761022e610407565b602002602001015103610267578084838151811061024e5761024e610407565b6020908102919091010152816102638161043a565b9250505b600101610213565b50919695505050505050565b5f5f6020838503121561028c575f5ffd5b823567ffffffffffffffff8111156102a2575f5ffd5b8301601f810185136102b2575f5ffd5b803567ffffffffffffffff8111156102c8575f5ffd5b8560208284010111156102d9575f5ffd5b6020919091019590945092505050565b602080825282518282018190525f918401906040840190835b81811015610320578351835260209384019390920191600101610302565b509095945050505050565b634e487b7160e01b5f52604160045260245ffd5b5f6020828403121561034f575f5ffd5b813567ffffffffffffffff811115610365575f5ffd5b8201601f81018413610375575f5ffd5b803567ffffffffffffffff81111561038f5761038f61032b565b8060051b604051601f19603f830116810181811067ffffffffffffffff821117156103bc576103bc61032b565b6040529182526020818401810192908101878411156103d9575f5ffd5b6020850194505b838510156103fc578435808252602095860195909350016103e0565b509695505050505050565b634e487b7160e01b5f52603260045260245ffd5b5f8261043557634e487b7160e01b5f52601260045260245ffd5b500490565b5f6001820161045757634e487b7160e01b5f52601160045260245ffd5b506001019056fea264697066735822122006e709fd3f8968911b0135e9db507b3ef54f66359e01873bcd09678a3c472c1f64736f6c634300081c0033","linkReferences":{}},"methodIdentifiers":{"calculateMooreResult(bytes)":"dd582afb"},"id":16}