{
  "_format": "hh-sol-artifact-1",
  "contractName": "GetResultCalculator",
  "sourceName": "contracts/facets/votingApp/GetResultCalculator.sol",
  "abi": [
    {
      "inputs": [
        {
          "internalType": "uint256",
          "name": "_ballotType",
          "type": "uint256"
        },
        {
          "internalType": "uint256",
          "name": "_resultCalculatorType",
          "type": "uint256"
        }
      ],
      "name": "getResultCalculator",
      "outputs": [
        {
          "internalType": "contract ResultCalculator",
          "name": "",
          "type": "address"
        }
      ],
      "stateMutability": "nonpayable",
      "type": "function"
    }
  ],
  "bytecode": "0x608060405234801561001057600080fd5b506125a3806100206000396000f3fe608060405234801561001057600080fd5b506004361061002b5760003560e01c806376761d2e14610030575b600080fd5b61004a600480360381019061004591906102ba565b610060565b6040516100579190610379565b60405180910390f35b600060018314156100d85760405161007790610258565b604051809103906000f080158015610093573d6000803e3d6000fd5b506000806101000a81548173ffffffffffffffffffffffffffffffffffffffff021916908373ffffffffffffffffffffffffffffffffffffffff16021790555061022f565b600283141561014e576040516100ed90610265565b604051809103906000f080158015610109573d6000803e3d6000fd5b506000806101000a81548173ffffffffffffffffffffffffffffffffffffffff021916908373ffffffffffffffffffffffffffffffffffffffff16021790555061022e565b60048314156101c45760405161016390610272565b604051809103906000f08015801561017f573d6000803e3d6000fd5b506000806101000a81548173ffffffffffffffffffffffffffffffffffffffff021916908373ffffffffffffffffffffffffffffffffffffffff16021790555061022d565b6040516101d090610258565b604051809103906000f0801580156101ec573d6000803e3d6000fd5b506000806101000a81548173ffffffffffffffffffffffffffffffffffffffff021916908373ffffffffffffffffffffffffffffffffffffffff1602179055505b5b5b60008054906101000a900473ffffffffffffffffffffffffffffffffffffffff16905092915050565b610a208061039583390190565b610a8b80610db583390190565b610d2e8061184083390190565b600080fd5b6000819050919050565b61029781610284565b81146102a257600080fd5b50565b6000813590506102b48161028e565b92915050565b600080604083850312156102d1576102d061027f565b5b60006102df858286016102a5565b92505060206102f0858286016102a5565b9150509250929050565b600073ffffffffffffffffffffffffffffffffffffffff82169050919050565b6000819050919050565b600061033f61033a610335846102fa565b61031a565b6102fa565b9050919050565b600061035182610324565b9050919050565b600061036382610346565b9050919050565b61037381610358565b82525050565b600060208201905061038e600083018461036a565b9291505056fe608060405234801561001057600080fd5b50610a00806100206000396000f3fe608060405234801561001057600080fd5b506004361061002b5760003560e01c8063c8344a2014610030575b600080fd5b61004a60048036038101906100459190610542565b610060565b6040516100579190610640565b60405180910390f35b6060600067ffffffffffffffff81111561007d5761007c610662565b5b6040519080825280602002602001820160405280156100ab5781602001602082028036833780820191505090505b50600090805190602001906100c192919061041e565b5060008373ffffffffffffffffffffffffffffffffffffffff166306a49fce6040518163ffffffff1660e01b8152600401600060405180830381865afa15801561010f573d6000803e3d6000fd5b505050506040513d6000823e3d601f19601f8201168201806040525081019061013891906107d0565b905060008151905060008060005b838110156102ba578773ffffffffffffffffffffffffffffffffffffffff1663de2e19a086838151811061017d5761017c610819565b5b602002602001015160016040518363ffffffff1660e01b81526004016101a492919061089c565b602060405180830381865afa1580156101c1573d6000803e3d6000fd5b505050506040513d601f19601f820116820180604052508101906101e591906108c5565b9150828211156101f3578192505b6002876102009190610950565b8311156102a757600085828151811061021c5761021b610819565b5b60200260200101519080600181540180825580915050600190039060005260206000200160009091909190915055600080548060200260200160405190810160405280929190818152602001828054801561029657602002820191906000526020600020905b815481526020019060010190808311610282575b505050505095505050505050610418565b80806102b290610981565b915050610146565b600090505b838110156103bf578773ffffffffffffffffffffffffffffffffffffffff1663de2e19a08683815181106102f6576102f5610819565b5b602002602001015160016040518363ffffffff1660e01b815260040161031d92919061089c565b602060405180830381865afa15801561033a573d6000803e3d6000fd5b505050506040513d601f19601f8201168201806040525081019061035e91906108c5565b9150828214156103ac57600085828151811061037d5761037c610819565b5b602002602001015190806001815401808255809150506001900390600052602060002001600090919091909150555b80806103b790610981565b9150506102bf565b600080548060200260200160405190810160405280929190818152602001828054801561040b57602002820191906000526020600020905b8154815260200190600101908083116103f7575b5050505050955050505050505b92915050565b82805482825590600052602060002090810192821561045a579160200282015b8281111561045957825182559160200191906001019061043e565b5b509050610467919061046b565b5090565b5b8082111561048457600081600090555060010161046c565b5090565b6000604051905090565b600080fd5b600080fd5b600073ffffffffffffffffffffffffffffffffffffffff82169050919050565b60006104c78261049c565b9050919050565b60006104d9826104bc565b9050919050565b6104e9816104ce565b81146104f457600080fd5b50565b600081359050610506816104e0565b92915050565b6000819050919050565b61051f8161050c565b811461052a57600080fd5b50565b60008135905061053c81610516565b92915050565b6000806040838503121561055957610558610492565b5b6000610567858286016104f7565b92505060206105788582860161052d565b9150509250929050565b600081519050919050565b600082825260208201905092915050565b6000819050602082019050919050565b6105b78161050c565b82525050565b60006105c983836105ae565b60208301905092915050565b6000602082019050919050565b60006105ed82610582565b6105f7818561058d565b93506106028361059e565b8060005b8381101561063357815161061a88826105bd565b9750610625836105d5565b925050600181019050610606565b5085935050505092915050565b6000602082019050818103600083015261065a81846105e2565b905092915050565b7f4e487b7100000000000000000000000000000000000000000000000000000000600052604160045260246000fd5b600080fd5b6000601f19601f8301169050919050565b6106b082610696565b810181811067ffffffffffffffff821117156106cf576106ce610662565b5b80604052505050565b60006106e2610488565b90506106ee82826106a7565b919050565b600067ffffffffffffffff82111561070e5761070d610662565b5b602082029050602081019050919050565b600080fd5b60008151905061073381610516565b92915050565b600061074c610747846106f3565b6106d8565b9050808382526020820190506020840283018581111561076f5761076e61071f565b5b835b8181101561079857806107848882610724565b845260208401935050602081019050610771565b5050509392505050565b600082601f8301126107b7576107b6610691565b5b81516107c7848260208601610739565b91505092915050565b6000602082840312156107e6576107e5610492565b5b600082015167ffffffffffffffff81111561080457610803610497565b5b610810848285016107a2565b91505092915050565b7f4e487b7100000000000000000000000000000000000000000000000000000000600052603260045260246000fd5b6108518161050c565b82525050565b6000819050919050565b6000819050919050565b600061088661088161087c84610857565b610861565b61050c565b9050919050565b6108968161086b565b82525050565b60006040820190506108b16000830185610848565b6108be602083018461088d565b9392505050565b6000602082840312156108db576108da610492565b5b60006108e984828501610724565b91505092915050565b7f4e487b7100000000000000000000000000000000000000000000000000000000600052601260045260246000fd5b7f4e487b7100000000000000000000000000000000000000000000000000000000600052601160045260246000fd5b600061095b8261050c565b91506109668361050c565b925082610976576109756108f2565b5b828204905092915050565b600061098c8261050c565b91507fffffffffffffffffffffffffffffffffffffffffffffffffffffffffffffffff8214156109bf576109be610921565b5b60018201905091905056fea26469706673582212202161ce163b37511478b312734ed053dca95e95099dfdb45988deee192a90d75964736f6c634300080a0033608060405234801561001057600080fd5b50610a6b806100206000396000f3fe608060405234801561001057600080fd5b506004361061002b5760003560e01c8063c8344a2014610030575b600080fd5b61004a6004803603810190610045919061059c565b610060565b604051610057919061069a565b60405180910390f35b6060600067ffffffffffffffff81111561007d5761007c6106bc565b5b6040519080825280602002602001820160405280156100ab5781602001602082028036833780820191505090505b50600190805190602001906100c1929190610478565b5082600560006101000a81548173ffffffffffffffffffffffffffffffffffffffff021916908373ffffffffffffffffffffffffffffffffffffffff1602179055506002826101109190610749565b600481905550600560009054906101000a900473ffffffffffffffffffffffffffffffffffffffff1673ffffffffffffffffffffffffffffffffffffffff166306a49fce6040518163ffffffff1660e01b8152600401600060405180830381865afa158015610183573d6000803e3d6000fd5b505050506040513d6000823e3d601f19601f820116820180604052508101906101ac91906108b9565b600290805190602001906101c1929190610478565b50600280549050600381905550600080600191505b600354821015610227576101e9826102ab565b6101f16103e5565b905060045460008083815260200190815260200160002054111561021457610227565b818061021f90610902565b9250506101d6565b6001819080600181540180825580915050600190039060005260206000200160009091909190915055600180548060200260200160405190810160405280929190818152602001828054801561029c57602002820191906000526020600020905b815481526020019060010190808311610288575b50505050509250505092915050565b600080600091505b6003548210156103e057600560009054906101000a900473ffffffffffffffffffffffffffffffffffffffff1673ffffffffffffffffffffffffffffffffffffffff1663de2e19a06002848154811061030f5761030e61094b565b5b9060005260206000200154856040518363ffffffff1660e01b8152600401610338929190610989565b602060405180830381865afa158015610355573d6000803e3d6000fd5b505050506040513d601f19601f8201168201806040525081019061037991906109b2565b905082816103879190610749565b6000806002858154811061039e5761039d61094b565b5b9060005260206000200154815260200190815260200160002060008282546103c691906109df565b9250508190555081806103d890610902565b9250506102b3565b505050565b60008060008060008093505b60035484101561046e57600080600286815481106104125761041161094b565b5b906000526020600020015481526020019081526020016000205492508183111561045b578291506002848154811061044d5761044c61094b565b5b906000526020600020015490505b838061046690610902565b9450506103f1565b8094505050505090565b8280548282559060005260206000209081019282156104b4579160200282015b828111156104b3578251825591602001919060010190610498565b5b5090506104c191906104c5565b5090565b5b808211156104de5760008160009055506001016104c6565b5090565b6000604051905090565b600080fd5b600080fd5b600073ffffffffffffffffffffffffffffffffffffffff82169050919050565b6000610521826104f6565b9050919050565b600061053382610516565b9050919050565b61054381610528565b811461054e57600080fd5b50565b6000813590506105608161053a565b92915050565b6000819050919050565b61057981610566565b811461058457600080fd5b50565b60008135905061059681610570565b92915050565b600080604083850312156105b3576105b26104ec565b5b60006105c185828601610551565b92505060206105d285828601610587565b9150509250929050565b600081519050919050565b600082825260208201905092915050565b6000819050602082019050919050565b61061181610566565b82525050565b60006106238383610608565b60208301905092915050565b6000602082019050919050565b6000610647826105dc565b61065181856105e7565b935061065c836105f8565b8060005b8381101561068d5781516106748882610617565b975061067f8361062f565b925050600181019050610660565b5085935050505092915050565b600060208201905081810360008301526106b4818461063c565b905092915050565b7f4e487b7100000000000000000000000000000000000000000000000000000000600052604160045260246000fd5b7f4e487b7100000000000000000000000000000000000000000000000000000000600052601260045260246000fd5b7f4e487b7100000000000000000000000000000000000000000000000000000000600052601160045260246000fd5b600061075482610566565b915061075f83610566565b92508261076f5761076e6106eb565b5b828204905092915050565b600080fd5b6000601f19601f8301169050919050565b6107998261077f565b810181811067ffffffffffffffff821117156107b8576107b76106bc565b5b80604052505050565b60006107cb6104e2565b90506107d78282610790565b919050565b600067ffffffffffffffff8211156107f7576107f66106bc565b5b602082029050602081019050919050565b600080fd5b60008151905061081c81610570565b92915050565b6000610835610830846107dc565b6107c1565b9050808382526020820190506020840283018581111561085857610857610808565b5b835b81811015610881578061086d888261080d565b84526020840193505060208101905061085a565b5050509392505050565b600082601f8301126108a05761089f61077a565b5b81516108b0848260208601610822565b91505092915050565b6000602082840312156108cf576108ce6104ec565b5b600082015167ffffffffffffffff8111156108ed576108ec6104f1565b5b6108f98482850161088b565b91505092915050565b600061090d82610566565b91507fffffffffffffffffffffffffffffffffffffffffffffffffffffffffffffffff8214156109405761093f61071a565b5b600182019050919050565b7f4e487b7100000000000000000000000000000000000000000000000000000000600052603260045260246000fd5b61098381610566565b82525050565b600060408201905061099e600083018561097a565b6109ab602083018461097a565b9392505050565b6000602082840312156109c8576109c76104ec565b5b60006109d68482850161080d565b91505092915050565b60006109ea82610566565b91506109f583610566565b9250827fffffffffffffffffffffffffffffffffffffffffffffffffffffffffffffffff03821115610a2a57610a2961071a565b5b82820190509291505056fea2646970667358221220301dbadfbc7686af0c1b3e0c64257cfa584c1297c450e4c9f610b44b2dcac3a764736f6c634300080a0033608060405234801561001057600080fd5b50610d0e806100206000396000f3fe608060405234801561001057600080fd5b50600436106100415760003560e01c8063a2fb117514610046578063c5071fd314610076578063c8344a20146100a6575b600080fd5b610060600480360381019061005b919061051b565b6100d6565b60405161006d9190610557565b60405180910390f35b610090600480360381019061008b91906107ac565b6100fa565b60405161009d91906108e2565b60405180910390f35b6100c060048036038101906100bb9190610974565b610385565b6040516100cd91906108e2565b60405180910390f35b600081815481106100e657600080fd5b906000526020600020016000915090505481565b60606000825167ffffffffffffffff81111561011957610118610588565b5b6040519080825280602002602001820160405280156101475781602001602082028036833780820191505090505b50905060005b835181101561018b57600082828151811061016b5761016a6109b4565b5b6020026020010181815250506001816101849190610a12565b905061014d565b5060005b84518110156102465760005b8451811015610232578582815181106101b7576101b66109b4565b5b602002602001015181815181106101d1576101d06109b4565b5b6020026020010151600186516101e79190610a12565b6101f19190610a68565b838281518110610204576102036109b4565b5b602002602001018181516102189190610a12565b91508181525050808061022a90610a9c565b91505061019b565b50808061023e90610a9c565b91505061018f565b506000805b84518110156103295781838281518110610268576102676109b4565b5b602002602001015114156102a05760008190806001815401808255809150506001900390600052602060002001600090919091909150555b818382815181106102b4576102b36109b4565b5b60200260200101511115610316578281815181106102d5576102d46109b4565b5b602002602001015191506000806102ec9190610493565b60008190806001815401808255809150506001900390600052602060002001600090919091909150555b808061032190610a9c565b91505061024b565b50600080548060200260200160405190810160405280929190818152602001828054801561037657602002820191906000526020600020905b815481526020019060010190808311610362575b50505050509250505092915050565b606060008373ffffffffffffffffffffffffffffffffffffffff1663afa524086040518163ffffffff1660e01b81526004016000604051808303816000875af11580156103d6573d6000803e3d6000fd5b505050506040513d6000823e3d601f19601f820116820180604052508101906103ff9190610c46565b905060008473ffffffffffffffffffffffffffffffffffffffff166306a49fce6040518163ffffffff1660e01b8152600401600060405180830381865afa15801561044e573d6000803e3d6000fd5b505050506040513d6000823e3d601f19601f820116820180604052508101906104779190610c8f565b9050600061048583836100fa565b905080935050505092915050565b50805460008255906000526020600020908101906104b191906104b4565b50565b5b808211156104cd5760008160009055506001016104b5565b5090565b6000604051905090565b600080fd5b600080fd5b6000819050919050565b6104f8816104e5565b811461050357600080fd5b50565b600081359050610515816104ef565b92915050565b600060208284031215610531576105306104db565b5b600061053f84828501610506565b91505092915050565b610551816104e5565b82525050565b600060208201905061056c6000830184610548565b92915050565b600080fd5b6000601f19601f8301169050919050565b7f4e487b7100000000000000000000000000000000000000000000000000000000600052604160045260246000fd5b6105c082610577565b810181811067ffffffffffffffff821117156105df576105de610588565b5b80604052505050565b60006105f26104d1565b90506105fe82826105b7565b919050565b600067ffffffffffffffff82111561061e5761061d610588565b5b602082029050602081019050919050565b600080fd5b600067ffffffffffffffff82111561064f5761064e610588565b5b602082029050602081019050919050565b600061067361066e84610634565b6105e8565b905080838252602082019050602084028301858111156106965761069561062f565b5b835b818110156106bf57806106ab8882610506565b845260208401935050602081019050610698565b5050509392505050565b600082601f8301126106de576106dd610572565b5b81356106ee848260208601610660565b91505092915050565b600061070a61070584610603565b6105e8565b9050808382526020820190506020840283018581111561072d5761072c61062f565b5b835b8181101561077457803567ffffffffffffffff81111561075257610751610572565b5b80860161075f89826106c9565b8552602085019450505060208101905061072f565b5050509392505050565b600082601f83011261079357610792610572565b5b81356107a38482602086016106f7565b91505092915050565b600080604083850312156107c3576107c26104db565b5b600083013567ffffffffffffffff8111156107e1576107e06104e0565b5b6107ed8582860161077e565b925050602083013567ffffffffffffffff81111561080e5761080d6104e0565b5b61081a858286016106c9565b9150509250929050565b600081519050919050565b600082825260208201905092915050565b6000819050602082019050919050565b610859816104e5565b82525050565b600061086b8383610850565b60208301905092915050565b6000602082019050919050565b600061088f82610824565b610899818561082f565b93506108a483610840565b8060005b838110156108d55781516108bc888261085f565b97506108c783610877565b9250506001810190506108a8565b5085935050505092915050565b600060208201905081810360008301526108fc8184610884565b905092915050565b600073ffffffffffffffffffffffffffffffffffffffff82169050919050565b600061092f82610904565b9050919050565b600061094182610924565b9050919050565b61095181610936565b811461095c57600080fd5b50565b60008135905061096e81610948565b92915050565b6000806040838503121561098b5761098a6104db565b5b60006109998582860161095f565b92505060206109aa85828601610506565b9150509250929050565b7f4e487b7100000000000000000000000000000000000000000000000000000000600052603260045260246000fd5b7f4e487b7100000000000000000000000000000000000000000000000000000000600052601160045260246000fd5b6000610a1d826104e5565b9150610a28836104e5565b9250827fffffffffffffffffffffffffffffffffffffffffffffffffffffffffffffffff03821115610a5d57610a5c6109e3565b5b828201905092915050565b6000610a73826104e5565b9150610a7e836104e5565b925082821015610a9157610a906109e3565b5b828203905092915050565b6000610aa7826104e5565b91507fffffffffffffffffffffffffffffffffffffffffffffffffffffffffffffffff821415610ada57610ad96109e3565b5b600182019050919050565b600081519050610af4816104ef565b92915050565b6000610b0d610b0884610634565b6105e8565b90508083825260208201905060208402830185811115610b3057610b2f61062f565b5b835b81811015610b595780610b458882610ae5565b845260208401935050602081019050610b32565b5050509392505050565b600082601f830112610b7857610b77610572565b5b8151610b88848260208601610afa565b91505092915050565b6000610ba4610b9f84610603565b6105e8565b90508083825260208201905060208402830185811115610bc757610bc661062f565b5b835b81811015610c0e57805167ffffffffffffffff811115610bec57610beb610572565b5b808601610bf98982610b63565b85526020850194505050602081019050610bc9565b5050509392505050565b600082601f830112610c2d57610c2c610572565b5b8151610c3d848260208601610b91565b91505092915050565b600060208284031215610c5c57610c5b6104db565b5b600082015167ffffffffffffffff811115610c7a57610c796104e0565b5b610c8684828501610c18565b91505092915050565b600060208284031215610ca557610ca46104db565b5b600082015167ffffffffffffffff811115610cc357610cc26104e0565b5b610ccf84828501610b63565b9150509291505056fea2646970667358221220e06f3a13e56c0d75407d7586b32fc449689ed4554081d2f52a5486a9e876449964736f6c634300080a0033a2646970667358221220d5666bd0eba521ab63d40cf7cbffa9b67f2bcc2b2309ffa3d03ab82d8951b04d64736f6c634300080a0033",
  "linkReferences": {},
  "deployedLinkReferences": {}
}