{
  "_format": "hh-sol-artifact-1",
  "contractName": "IRVResult",
  "sourceName": "contracts/resultCalculators/IRVResult.sol",
  "abi": [
    {
      "inputs": [],
      "name": "CandidatesTie",
      "type": "error"
    },
    {
      "inputs": [],
      "name": "NoCandidates",
      "type": "error"
    },
    {
      "inputs": [],
      "name": "NoWinner",
      "type": "error"
    },
    {
      "inputs": [],
      "name": "VotesExhausted",
      "type": "error"
    },
    {
      "inputs": [
        {
          "internalType": "bytes",
          "name": "returnData",
          "type": "bytes"
        }
      ],
      "name": "calculateIRVResult",
      "outputs": [
        {
          "internalType": "uint256",
          "name": "",
          "type": "uint256"
        }
      ],
      "stateMutability": "pure",
      "type": "function"
    }
  ],
  "bytecode": "0x608060405234801561001057600080fd5b50610af1806100206000396000f3fe608060405234801561001057600080fd5b506004361061002b5760003560e01c8063b226565314610030575b600080fd5b61004a600480360381019061004591906106e6565b610060565b6040516100579190610748565b60405180910390f35b600080828060200190518101906100779190610938565b9050600061008482610090565b90508092505050919050565b600080826000815181106100a7576100a6610981565b5b6020026020010151519050600081036100ec576040517fe504190400000000000000000000000000000000000000000000000000000000815260040160405180910390fd5b5b60011561037057600061010084836103a7565b905060005b8151811015610155576002855161011c9190610a0e565b82828151811061012f5761012e610981565b5b60200260200101511115610148578093505050506103a2565b8080600101915050610105565b5060008451905060008551905060006001905060005b8451811015610240578385828151811061018857610187610981565b5b60200260200101511080156101b7575060008582815181106101ad576101ac610981565b5b6020026020010151115b156101e5578481815181106101cf576101ce610981565b5b6020026020010151935080925060009150610233565b838582815181106101f9576101f8610981565b5b60200260200101511480156102285750600085828151811061021e5761021d610981565b5b6020026020010151115b1561023257600091505b5b808060010191505061016b565b5060028514801561024e5750805b15610285576040517fac5997c700000000000000000000000000000000000000000000000000000000815260040160405180910390fd5b60005b87518110156102e0576102b58882815181106102a7576102a6610981565b5b6020026020010151846104a0565b8882815181106102c8576102c7610981565b5b60200260200101819052508080600101915050610288565b5060006001905060005b885181101561032d57600089828151811061030857610307610981565b5b6020026020010151511115610320576000915061032d565b80806001019150506102ea565b508015610366576040517fd7b4628c00000000000000000000000000000000000000000000000000000000815260040160405180910390fd5b50505050506100ed565b6040517f8b9ae95f00000000000000000000000000000000000000000000000000000000815260040160405180910390fd5b919050565b606060008267ffffffffffffffff8111156103c5576103c46105bb565b5b6040519080825280602002602001820160405280156103f35781602001602082028036833780820191505090505b50905060005b845181101561049557600085828151811061041757610416610981565b5b6020026020010151511115610488578185828151811061043a57610439610981565b5b602002602001015160008151811061045557610454610981565b5b60200260200101518151811061046e5761046d610981565b5b60200260200101805180919061048390610a3f565b815250505b80806001019150506103f9565b508091505092915050565b60606000600184516104b29190610a87565b67ffffffffffffffff8111156104cb576104ca6105bb565b5b6040519080825280602002602001820160405280156104f95781602001602082028036833780820191505090505b5090506000805b8551811015610580578486828151811061051d5761051c610981565b5b6020026020010151146105735785818151811061053d5761053c610981565b5b602002602001015183838151811061055857610557610981565b5b602002602001018181525050818061056f90610a3f565b9250505b8080600101915050610500565b50819250505092915050565b6000604051905090565b600080fd5b600080fd5b600080fd5b600080fd5b6000601f19601f8301169050919050565b7f4e487b7100000000000000000000000000000000000000000000000000000000600052604160045260246000fd5b6105f3826105aa565b810181811067ffffffffffffffff82111715610612576106116105bb565b5b80604052505050565b600061062561058c565b905061063182826105ea565b919050565b600067ffffffffffffffff821115610651576106506105bb565b5b61065a826105aa565b9050602081019050919050565b82818337600083830152505050565b600061068961068484610636565b61061b565b9050828152602081018484840111156106a5576106a46105a5565b5b6106b0848285610667565b509392505050565b600082601f8301126106cd576106cc6105a0565b5b81356106dd848260208601610676565b91505092915050565b6000602082840312156106fc576106fb610596565b5b600082013567ffffffffffffffff81111561071a5761071961059b565b5b610726848285016106b8565b91505092915050565b6000819050919050565b6107428161072f565b82525050565b600060208201905061075d6000830184610739565b92915050565b600067ffffffffffffffff82111561077e5761077d6105bb565b5b602082029050602081019050919050565b600080fd5b600067ffffffffffffffff8211156107af576107ae6105bb565b5b602082029050602081019050919050565b6107c98161072f565b81146107d457600080fd5b50565b6000815190506107e6816107c0565b92915050565b60006107ff6107fa84610794565b61061b565b905080838252602082019050602084028301858111156108225761082161078f565b5b835b8181101561084b578061083788826107d7565b845260208401935050602081019050610824565b5050509392505050565b600082601f83011261086a576108696105a0565b5b815161087a8482602086016107ec565b91505092915050565b600061089661089184610763565b61061b565b905080838252602082019050602084028301858111156108b9576108b861078f565b5b835b8181101561090057805167ffffffffffffffff8111156108de576108dd6105a0565b5b8086016108eb8982610855565b855260208501945050506020810190506108bb565b5050509392505050565b600082601f83011261091f5761091e6105a0565b5b815161092f848260208601610883565b91505092915050565b60006020828403121561094e5761094d610596565b5b600082015167ffffffffffffffff81111561096c5761096b61059b565b5b6109788482850161090a565b91505092915050565b7f4e487b7100000000000000000000000000000000000000000000000000000000600052603260045260246000fd5b7f4e487b7100000000000000000000000000000000000000000000000000000000600052601260045260246000fd5b7f4e487b7100000000000000000000000000000000000000000000000000000000600052601160045260246000fd5b6000610a198261072f565b9150610a248361072f565b925082610a3457610a336109b0565b5b828204905092915050565b6000610a4a8261072f565b91507fffffffffffffffffffffffffffffffffffffffffffffffffffffffffffffffff8203610a7c57610a7b6109df565b5b600182019050919050565b6000610a928261072f565b9150610a9d8361072f565b9250828203905081811115610ab557610ab46109df565b5b9291505056fea26469706673582212207df54cf26ef1d6c847ceca37185717ad6cbbf2a5235e0fa9bb116716285840ad64736f6c63430008180033",
  "linkReferences": {},
  "deployedLinkReferences": {}
}