{"abi":[{"type":"constructor","inputs":[{"name":"_electionAddress","type":"address","internalType":"address"}],"stateMutability":"nonpayable"},{"type":"function","name":"electionContract","inputs":[],"outputs":[{"name":"","type":"address","internalType":"address"}],"stateMutability":"view"},{"type":"function","name":"getVotes","inputs":[],"outputs":[{"name":"","type":"uint256[]","internalType":"uint256[]"}],"stateMutability":"view"},{"type":"function","name":"init","inputs":[{"name":"totalCandidate","type":"uint256","internalType":"uint256"}],"outputs":[],"stateMutability":"nonpayable"},{"type":"function","name":"maxScore","inputs":[],"outputs":[{"name":"","type":"uint256","internalType":"uint256"}],"stateMutability":"view"},{"type":"function","name":"vote","inputs":[{"name":"voteArr","type":"uint256[]","internalType":"uint256[]"}],"outputs":[],"stateMutability":"nonpayable"},{"type":"error","name":"IncorrectCredits","inputs":[]},{"type":"error","name":"InvalidScore","inputs":[{"name":"score","type":"uint256","internalType":"uint256"}]},{"type":"error","name":"OwnerPermissioned","inputs":[]},{"type":"error","name":"VoteInputLength","inputs":[]}],"bytecode":{"object":"0x6080604052348015600e575f5ffd5b50604051610547380380610547833981016040819052602b91604e565b5f80546001600160a01b0319166001600160a01b03929092169190911790556079565b5f60208284031215605d575f5ffd5b81516001600160a01b03811681146072575f5ffd5b9392505050565b6104c1806100865f395ff3fe608060405234801561000f575f5ffd5b5060043610610055575f3560e01c80630dc96015146100595780639a1b4b3814610077578063b7b0422d1461008d578063ce11f2bb146100a2578063e407bcbd146100b5575b5f5ffd5b6100616100df565b60405161006e919061031d565b60405180910390f35b61007f600a81565b60405190815260200161006e565b6100a061009b36600461035f565b610160565b005b6100a06100b036600461038a565b6101e5565b5f546100c7906001600160a01b031681565b6040516001600160a01b03909116815260200161006e565b5f546060906001600160a01b0316331461010c5760405163282b2e2960e21b815260040160405180910390fd5b600180548060200260200160405190810160405280929190818152602001828054801561015657602002820191905f5260205f20905b815481526020019060010190808311610142575b5050505050905090565b5f546001600160a01b0316331461018a5760405163282b2e2960e21b815260040160405180910390fd5b8067ffffffffffffffff8111156101a3576101a3610376565b6040519080825280602002602001820160405280156101cc578160200160208202803683370190505b5080516101e1916001916020909101906102c0565b5050565b5f546001600160a01b0316331461020f5760405163282b2e2960e21b815260040160405180910390fd5b6001548151811461023357604051636e2ca24960e01b815260040160405180910390fd5b5f5b818110156102bb575f83828151811061025057610250610452565b60200260200101519050600a81111561028357604051632c870e6b60e11b81526004810182905260240160405180910390fd5b806001838154811061029757610297610452565b905f5260205f20015f8282546102ad9190610466565b909155505050600101610235565b505050565b828054828255905f5260205f209081019282156102f9579160200282015b828111156102f95782518255916020019190600101906102de565b50610305929150610309565b5090565b5b80821115610305575f815560010161030a565b602080825282518282018190525f918401906040840190835b81811015610354578351835260209384019390920191600101610336565b509095945050505050565b5f6020828403121561036f575f5ffd5b5035919050565b634e487b7160e01b5f52604160045260245ffd5b5f6020828403121561039a575f5ffd5b813567ffffffffffffffff8111156103b0575f5ffd5b8201601f810184136103c0575f5ffd5b803567ffffffffffffffff8111156103da576103da610376565b8060051b604051601f19603f830116810181811067ffffffffffffffff8211171561040757610407610376565b604052918252602081840181019290810187841115610424575f5ffd5b6020850194505b838510156104475784358082526020958601959093500161042b565b509695505050505050565b634e487b7160e01b5f52603260045260245ffd5b8082018082111561048557634e487b7160e01b5f52601160045260245ffd5b9291505056fea26469706673582212203d4efea0005ddbf4621f0f23654208516d1c5836fd103a4f39aa361622c3e2f964736f6c634300081c0033","linkReferences":{}},"methodIdentifiers":{"electionContract()":"e407bcbd","getVotes()":"0dc96015","init(uint256)":"b7b0422d","maxScore()":"9a1b4b38","vote(uint256[])":"ce11f2bb"},"id":9}