{
  "_format": "hh-sol-artifact-1",
  "contractName": "Authentication",
  "sourceName": "contracts/facets/Authentication.sol",
  "abi": [
    {
      "inputs": [
        {
          "components": [
            {
              "internalType": "uint256",
              "name": "organizerID",
              "type": "uint256"
            },
            {
              "internalType": "string",
              "name": "name",
              "type": "string"
            },
            {
              "internalType": "address",
              "name": "publicAddress",
              "type": "address"
            }
          ],
          "internalType": "struct ElectionOrganizer.OrganizerInfo",
          "name": "_organizerInfo",
          "type": "tuple"
        }
      ],
      "name": "createUser",
      "outputs": [],
      "stateMutability": "nonpayable",
      "type": "function"
    },
    {
      "inputs": [
        {
          "internalType": "address",
          "name": "_user",
          "type": "address"
        }
      ],
      "name": "getAuthStatus",
      "outputs": [
        {
          "internalType": "bool",
          "name": "",
          "type": "bool"
        }
      ],
      "stateMutability": "view",
      "type": "function"
    },
    {
      "inputs": [],
      "name": "getElectionOrganizer",
      "outputs": [
        {
          "components": [
            {
              "internalType": "uint256",
              "name": "organizerID",
              "type": "uint256"
            },
            {
              "internalType": "string",
              "name": "name",
              "type": "string"
            },
            {
              "internalType": "address",
              "name": "publicAddress",
              "type": "address"
            }
          ],
          "internalType": "struct ElectionOrganizer.OrganizerInfo[]",
          "name": "",
          "type": "tuple[]"
        }
      ],
      "stateMutability": "view",
      "type": "function"
    },
    {
      "inputs": [],
      "name": "getElectionOrganizerContract",
      "outputs": [
        {
          "internalType": "address",
          "name": "",
          "type": "address"
        }
      ],
      "stateMutability": "view",
      "type": "function"
    },
    {
      "inputs": [
        {
          "internalType": "address",
          "name": "_user",
          "type": "address"
        }
      ],
      "name": "getLoggedInStatus",
      "outputs": [
        {
          "internalType": "bool",
          "name": "",
          "type": "bool"
        }
      ],
      "stateMutability": "view",
      "type": "function"
    },
    {
      "inputs": [],
      "name": "getVoterContract",
      "outputs": [
        {
          "internalType": "address",
          "name": "",
          "type": "address"
        }
      ],
      "stateMutability": "view",
      "type": "function"
    },
    {
      "inputs": [
        {
          "internalType": "address",
          "name": "_diamond",
          "type": "address"
        }
      ],
      "name": "init",
      "outputs": [],
      "stateMutability": "nonpayable",
      "type": "function"
    },
    {
      "inputs": [
        {
          "internalType": "address",
          "name": "_user",
          "type": "address"
        }
      ],
      "name": "login",
      "outputs": [
        {
          "internalType": "bool",
          "name": "",
          "type": "bool"
        }
      ],
      "stateMutability": "nonpayable",
      "type": "function"
    },
    {
      "inputs": [
        {
          "internalType": "address",
          "name": "_user",
          "type": "address"
        }
      ],
      "name": "logout",
      "outputs": [
        {
          "internalType": "bool",
          "name": "",
          "type": "bool"
        }
      ],
      "stateMutability": "nonpayable",
      "type": "function"
    }
  ],
  "bytecode": "0x608060405234801561001057600080fd5b50611442806100206000396000f3fe608060405234801561001057600080fd5b50600436106100935760003560e01c8063949f34a211610066578063949f34a2146101325780639b05e4b914610162578063bba92b2b1461017e578063cc51f9b91461019c578063e04b1c0c146101cc57610093565b806314bde88e1461009857806319ab453c146100c857806335a6861a146100e4578063378d47e914610114575b600080fd5b6100b260048036038101906100ad9190610ab4565b6101ea565b6040516100bf9190610afc565b60405180910390f35b6100e260048036038101906100dd9190610ab4565b61023f565b005b6100fe60048036038101906100f99190610ab4565b610390565b60405161010b9190610afc565b60405180910390f35b61011c610562565b6040516101299190610b26565b60405180910390f35b61014c60048036038101906101479190610ab4565b61058c565b6040516101599190610afc565b60405180910390f35b61017c60048036038101906101779190610d47565b6105e2565b005b61018661077b565b6040516101939190610b26565b60405180910390f35b6101b660048036038101906101b19190610ab4565b6107a5565b6040516101c39190610afc565b60405180910390f35b6101d4610978565b6040516101e19190610f48565b60405180910390f35b60008060008373ffffffffffffffffffffffffffffffffffffffff1673ffffffffffffffffffffffffffffffffffffffff16815260200190815260200160002060009054906101000a900460ff169050919050565b80610248610a15565b60000160006101000a81548173ffffffffffffffffffffffffffffffffffffffff021916908373ffffffffffffffffffffffffffffffffffffffff16021790555080600260006101000a81548173ffffffffffffffffffffffffffffffffffffffff021916908373ffffffffffffffffffffffffffffffffffffffff160217905550600260009054906101000a900473ffffffffffffffffffffffffffffffffffffffff1673ffffffffffffffffffffffffffffffffffffffff16631d43d8ed6040518163ffffffff1660e01b8152600401600060405180830381600087803b15801561033457600080fd5b505af1158015610348573d6000803e3d6000fd5b5050505080600360006101000a81548173ffffffffffffffffffffffffffffffffffffffff021916908373ffffffffffffffffffffffffffffffffffffffff16021790555050565b6000600115156000808473ffffffffffffffffffffffffffffffffffffffff1673ffffffffffffffffffffffffffffffffffffffff16815260200190815260200160002060009054906101000a900460ff16151514610424576040517f08c379a000000000000000000000000000000000000000000000000000000000815260040161041b90610fed565b60405180910390fd5b60001515600160008473ffffffffffffffffffffffffffffffffffffffff1673ffffffffffffffffffffffffffffffffffffffff16815260200190815260200160002060009054906101000a900460ff161515146104b7576040517f08c379a00000000000000000000000000000000000000000000000000000000081526004016104ae90611059565b60405180910390fd5b60018060008473ffffffffffffffffffffffffffffffffffffffff1673ffffffffffffffffffffffffffffffffffffffff16815260200190815260200160002060006101000a81548160ff021916908315150217905550600160008373ffffffffffffffffffffffffffffffffffffffff1673ffffffffffffffffffffffffffffffffffffffff16815260200190815260200160002060009054906101000a900460ff169050919050565b6000600260009054906101000a900473ffffffffffffffffffffffffffffffffffffffff16905090565b6000600160008373ffffffffffffffffffffffffffffffffffffffff1673ffffffffffffffffffffffffffffffffffffffff16815260200190815260200160002060009054906101000a900460ff169050919050565b600015156105f382604001516101ea565b151514610635576040517f08c379a000000000000000000000000000000000000000000000000000000000815260040161062c906110c5565b60405180910390fd5b6001600080836040015173ffffffffffffffffffffffffffffffffffffffff1673ffffffffffffffffffffffffffffffffffffffff16815260200190815260200160002060006101000a81548160ff021916908315150217905550600260009054906101000a900473ffffffffffffffffffffffffffffffffffffffff1673ffffffffffffffffffffffffffffffffffffffff166315d4ffa0826040518263ffffffff1660e01b81526004016106eb9190611135565b600060405180830381600087803b15801561070557600080fd5b505af1158015610719573d6000803e3d6000fd5b505050506001806000836040015173ffffffffffffffffffffffffffffffffffffffff1673ffffffffffffffffffffffffffffffffffffffff16815260200190815260200160002060006101000a81548160ff02191690831515021790555050565b6000600360009054906101000a900473ffffffffffffffffffffffffffffffffffffffff16905090565b6000600115156000808473ffffffffffffffffffffffffffffffffffffffff1673ffffffffffffffffffffffffffffffffffffffff16815260200190815260200160002060009054906101000a900460ff16151514610839576040517f08c379a000000000000000000000000000000000000000000000000000000000815260040161083090610fed565b60405180910390fd5b60011515600160008473ffffffffffffffffffffffffffffffffffffffff1673ffffffffffffffffffffffffffffffffffffffff16815260200190815260200160002060009054906101000a900460ff161515146108cc576040517f08c379a00000000000000000000000000000000000000000000000000000000081526004016108c3906111a3565b60405180910390fd5b6000600160008473ffffffffffffffffffffffffffffffffffffffff1673ffffffffffffffffffffffffffffffffffffffff16815260200190815260200160002060006101000a81548160ff021916908315150217905550600160008373ffffffffffffffffffffffffffffffffffffffff1673ffffffffffffffffffffffffffffffffffffffff16815260200190815260200160002060009054906101000a900460ff169050919050565b6060600260009054906101000a900473ffffffffffffffffffffffffffffffffffffffff1673ffffffffffffffffffffffffffffffffffffffff1663a8c019876040518163ffffffff1660e01b8152600401600060405180830381865afa1580156109e7573d6000803e3d6000fd5b505050506040513d6000823e3d601f19601f82011682018060405250810190610a1091906113c3565b905090565b6000807fc20038518297e76c0e27a913ab03e5d4fd92b2579d428cf3b89f8c71add2acef90508091505090565b6000604051905090565b600080fd5b600080fd5b600073ffffffffffffffffffffffffffffffffffffffff82169050919050565b6000610a8182610a56565b9050919050565b610a9181610a76565b8114610a9c57600080fd5b50565b600081359050610aae81610a88565b92915050565b600060208284031215610aca57610ac9610a4c565b5b6000610ad884828501610a9f565b91505092915050565b60008115159050919050565b610af681610ae1565b82525050565b6000602082019050610b116000830184610aed565b92915050565b610b2081610a76565b82525050565b6000602082019050610b3b6000830184610b17565b92915050565b600080fd5b6000601f19601f8301169050919050565b7f4e487b7100000000000000000000000000000000000000000000000000000000600052604160045260246000fd5b610b8f82610b46565b810181811067ffffffffffffffff82111715610bae57610bad610b57565b5b80604052505050565b6000610bc1610a42565b9050610bcd8282610b86565b919050565b600080fd5b6000819050919050565b610bea81610bd7565b8114610bf557600080fd5b50565b600081359050610c0781610be1565b92915050565b600080fd5b600080fd5b600067ffffffffffffffff821115610c3257610c31610b57565b5b610c3b82610b46565b9050602081019050919050565b82818337600083830152505050565b6000610c6a610c6584610c17565b610bb7565b905082815260208101848484011115610c8657610c85610c12565b5b610c91848285610c48565b509392505050565b600082601f830112610cae57610cad610c0d565b5b8135610cbe848260208601610c57565b91505092915050565b600060608284031215610cdd57610cdc610b41565b5b610ce76060610bb7565b90506000610cf784828501610bf8565b600083015250602082013567ffffffffffffffff811115610d1b57610d1a610bd2565b5b610d2784828501610c99565b6020830152506040610d3b84828501610a9f565b60408301525092915050565b600060208284031215610d5d57610d5c610a4c565b5b600082013567ffffffffffffffff811115610d7b57610d7a610a51565b5b610d8784828501610cc7565b91505092915050565b600081519050919050565b600082825260208201905092915050565b6000819050602082019050919050565b610dc581610bd7565b82525050565b600081519050919050565b600082825260208201905092915050565b60005b83811015610e05578082015181840152602081019050610dea565b83811115610e14576000848401525b50505050565b6000610e2582610dcb565b610e2f8185610dd6565b9350610e3f818560208601610de7565b610e4881610b46565b840191505092915050565b610e5c81610a76565b82525050565b6000606083016000830151610e7a6000860182610dbc565b5060208301518482036020860152610e928282610e1a565b9150506040830151610ea76040860182610e53565b508091505092915050565b6000610ebe8383610e62565b905092915050565b6000602082019050919050565b6000610ede82610d90565b610ee88185610d9b565b935083602082028501610efa85610dac565b8060005b85811015610f365784840389528151610f178582610eb2565b9450610f2283610ec6565b925060208a01995050600181019050610efe565b50829750879550505050505092915050565b60006020820190508181036000830152610f628184610ed3565b905092915050565b600082825260208201905092915050565b7f557365722073686f756c642061757468656e746963617465206265666f72652060008201527f6c6f67696e000000000000000000000000000000000000000000000000000000602082015250565b6000610fd7602583610f6a565b9150610fe282610f7b565b604082019050919050565b6000602082019050818103600083015261100681610fca565b9050919050565b7f5573657220616c7265616479204c6f6767656420496e00000000000000000000600082015250565b6000611043601683610f6a565b915061104e8261100d565b602082019050919050565b6000602082019050818103600083015261107281611036565b9050919050565b7f5573657220616c72656164792072656769737465726564000000000000000000600082015250565b60006110af601783610f6a565b91506110ba82611079565b602082019050919050565b600060208201905081810360008301526110de816110a2565b9050919050565b60006060830160008301516110fd6000860182610dbc565b50602083015184820360208601526111158282610e1a565b915050604083015161112a6040860182610e53565b508091505092915050565b6000602082019050818103600083015261114f81846110e5565b905092915050565b7f5573657220616c7265616479204c6f67676564204f7574000000000000000000600082015250565b600061118d601783610f6a565b915061119882611157565b602082019050919050565b600060208201905081810360008301526111bc81611180565b9050919050565b600067ffffffffffffffff8211156111de576111dd610b57565b5b602082029050602081019050919050565b600080fd5b60008151905061120381610be1565b92915050565b600061121c61121784610c17565b610bb7565b90508281526020810184848401111561123857611237610c12565b5b611243848285610de7565b509392505050565b600082601f8301126112605761125f610c0d565b5b8151611270848260208601611209565b91505092915050565b60008151905061128881610a88565b92915050565b6000606082840312156112a4576112a3610b41565b5b6112ae6060610bb7565b905060006112be848285016111f4565b600083015250602082015167ffffffffffffffff8111156112e2576112e1610bd2565b5b6112ee8482850161124b565b602083015250604061130284828501611279565b60408301525092915050565b600061132161131c846111c3565b610bb7565b90508083825260208201905060208402830185811115611344576113436111ef565b5b835b8181101561138b57805167ffffffffffffffff81111561136957611368610c0d565b5b808601611376898261128e565b85526020850194505050602081019050611346565b5050509392505050565b600082601f8301126113aa576113a9610c0d565b5b81516113ba84826020860161130e565b91505092915050565b6000602082840312156113d9576113d8610a4c565b5b600082015167ffffffffffffffff8111156113f7576113f6610a51565b5b61140384828501611395565b9150509291505056fea264697066735822122070674a0305f1c7153b16966f4ee1f595f82f4275ac103108c2db5445ef8d8d4564736f6c634300080a0033",
  "linkReferences": {},
  "deployedLinkReferences": {}
}