{
  "_format": "hh-sol-artifact-1",
  "contractName": "Authentication",
  "sourceName": "contracts/facets/Authentication.sol",
  "abi": [
    {
      "inputs": [
        {
          "components": [
            {
              "internalType": "uint256",
              "name": "organizerID",
              "type": "uint256"
            },
            {
              "internalType": "string",
              "name": "name",
              "type": "string"
            },
            {
              "internalType": "address",
              "name": "publicAddress",
              "type": "address"
            }
          ],
          "internalType": "struct ElectionOrganizer.OrganizerInfo",
          "name": "_organizerInfo",
          "type": "tuple"
        },
        {
          "internalType": "string",
          "name": "hashedPassword",
          "type": "string"
        }
      ],
      "name": "createUser",
      "outputs": [],
      "stateMutability": "nonpayable",
      "type": "function"
    },
    {
      "inputs": [
        {
          "internalType": "address",
          "name": "_user",
          "type": "address"
        }
      ],
      "name": "getAuthStatus",
      "outputs": [
        {
          "internalType": "bool",
          "name": "",
          "type": "bool"
        }
      ],
      "stateMutability": "view",
      "type": "function"
    },
    {
      "inputs": [],
      "name": "getElectionOrganizer",
      "outputs": [
        {
          "components": [
            {
              "internalType": "uint256",
              "name": "organizerID",
              "type": "uint256"
            },
            {
              "internalType": "string",
              "name": "name",
              "type": "string"
            },
            {
              "internalType": "address",
              "name": "publicAddress",
              "type": "address"
            }
          ],
          "internalType": "struct ElectionOrganizer.OrganizerInfo[]",
          "name": "",
          "type": "tuple[]"
        }
      ],
      "stateMutability": "view",
      "type": "function"
    },
    {
      "inputs": [],
      "name": "getElectionOrganizerContract",
      "outputs": [
        {
          "internalType": "address",
          "name": "",
          "type": "address"
        }
      ],
      "stateMutability": "view",
      "type": "function"
    },
    {
      "inputs": [
        {
          "internalType": "address",
          "name": "_user",
          "type": "address"
        },
        {
          "internalType": "string",
          "name": "hashedPassword",
          "type": "string"
        }
      ],
      "name": "getLoggedInStatus",
      "outputs": [
        {
          "internalType": "bool",
          "name": "",
          "type": "bool"
        }
      ],
      "stateMutability": "view",
      "type": "function"
    },
    {
      "inputs": [],
      "name": "getVoterContract",
      "outputs": [
        {
          "internalType": "address",
          "name": "",
          "type": "address"
        }
      ],
      "stateMutability": "view",
      "type": "function"
    },
    {
      "inputs": [
        {
          "internalType": "address",
          "name": "_diamond",
          "type": "address"
        }
      ],
      "name": "init",
      "outputs": [],
      "stateMutability": "nonpayable",
      "type": "function"
    }
  ],
  "bytecode": "0x608060405234801561001057600080fd5b50610fd5806100206000396000f3fe608060405234801561001057600080fd5b506004361061007d5760003560e01c806363141a541161005b57806363141a54146100ec578063b5af86bd14610108578063bba92b2b14610138578063e04b1c0c146101565761007d565b806314bde88e1461008257806319ab453c146100b2578063378d47e9146100ce575b600080fd5b61009c600480360381019061009791906106d3565b610174565b6040516100a9919061071b565b60405180910390f35b6100cc60048036038101906100c791906106d3565b6101c9565b005b6100d661031a565b6040516100e39190610745565b60405180910390f35b61010660048036038101906101019190610966565b610344565b005b610122600480360381019061011d91906109de565b6104fa565b60405161012f919061071b565b60405180910390f35b61014061056d565b60405161014d9190610745565b60405180910390f35b61015e610597565b60405161016b9190610bf2565b60405180910390f35b60008060008373ffffffffffffffffffffffffffffffffffffffff1673ffffffffffffffffffffffffffffffffffffffff16815260200190815260200160002060009054906101000a900460ff169050919050565b806101d2610634565b60000160006101000a81548173ffffffffffffffffffffffffffffffffffffffff021916908373ffffffffffffffffffffffffffffffffffffffff16021790555080600260006101000a81548173ffffffffffffffffffffffffffffffffffffffff021916908373ffffffffffffffffffffffffffffffffffffffff160217905550600260009054906101000a900473ffffffffffffffffffffffffffffffffffffffff1673ffffffffffffffffffffffffffffffffffffffff16631d43d8ed6040518163ffffffff1660e01b8152600401600060405180830381600087803b1580156102be57600080fd5b505af11580156102d2573d6000803e3d6000fd5b5050505080600360006101000a81548173ffffffffffffffffffffffffffffffffffffffff021916908373ffffffffffffffffffffffffffffffffffffffff16021790555050565b6000600260009054906101000a900473ffffffffffffffffffffffffffffffffffffffff16905090565b600015156103558360400151610174565b151514610397576040517f08c379a000000000000000000000000000000000000000000000000000000000815260040161038e90610c71565b60405180910390fd5b6001600080846040015173ffffffffffffffffffffffffffffffffffffffff1673ffffffffffffffffffffffffffffffffffffffff16815260200190815260200160002060006101000a81548160ff021916908315150217905550600260009054906101000a900473ffffffffffffffffffffffffffffffffffffffff1673ffffffffffffffffffffffffffffffffffffffff166315d4ffa0836040518263ffffffff1660e01b815260040161044d9190610ce1565b600060405180830381600087803b15801561046757600080fd5b505af115801561047b573d6000803e3d6000fd5b505050506001806000846040015173ffffffffffffffffffffffffffffffffffffffff1673ffffffffffffffffffffffffffffffffffffffff168152602001908152602001600020826040516104d19190610d3f565b908152602001604051809103902060006101000a81548160ff0219169083151502179055505050565b6000600160008473ffffffffffffffffffffffffffffffffffffffff1673ffffffffffffffffffffffffffffffffffffffff168152602001908152602001600020826040516105499190610d3f565b908152602001604051809103902060009054906101000a900460ff16905092915050565b6000600360009054906101000a900473ffffffffffffffffffffffffffffffffffffffff16905090565b6060600260009054906101000a900473ffffffffffffffffffffffffffffffffffffffff1673ffffffffffffffffffffffffffffffffffffffff1663a8c019876040518163ffffffff1660e01b8152600401600060405180830381865afa158015610606573d6000803e3d6000fd5b505050506040513d6000823e3d601f19601f8201168201806040525081019061062f9190610f56565b905090565b6000807fc20038518297e76c0e27a913ab03e5d4fd92b2579d428cf3b89f8c71add2acef90508091505090565b6000604051905090565b600080fd5b600080fd5b600073ffffffffffffffffffffffffffffffffffffffff82169050919050565b60006106a082610675565b9050919050565b6106b081610695565b81146106bb57600080fd5b50565b6000813590506106cd816106a7565b92915050565b6000602082840312156106e9576106e861066b565b5b60006106f7848285016106be565b91505092915050565b60008115159050919050565b61071581610700565b82525050565b6000602082019050610730600083018461070c565b92915050565b61073f81610695565b82525050565b600060208201905061075a6000830184610736565b92915050565b600080fd5b6000601f19601f8301169050919050565b7f4e487b7100000000000000000000000000000000000000000000000000000000600052604160045260246000fd5b6107ae82610765565b810181811067ffffffffffffffff821117156107cd576107cc610776565b5b80604052505050565b60006107e0610661565b90506107ec82826107a5565b919050565b600080fd5b6000819050919050565b610809816107f6565b811461081457600080fd5b50565b60008135905061082681610800565b92915050565b600080fd5b600080fd5b600067ffffffffffffffff82111561085157610850610776565b5b61085a82610765565b9050602081019050919050565b82818337600083830152505050565b600061088961088484610836565b6107d6565b9050828152602081018484840111156108a5576108a4610831565b5b6108b0848285610867565b509392505050565b600082601f8301126108cd576108cc61082c565b5b81356108dd848260208601610876565b91505092915050565b6000606082840312156108fc576108fb610760565b5b61090660606107d6565b9050600061091684828501610817565b600083015250602082013567ffffffffffffffff81111561093a576109396107f1565b5b610946848285016108b8565b602083015250604061095a848285016106be565b60408301525092915050565b6000806040838503121561097d5761097c61066b565b5b600083013567ffffffffffffffff81111561099b5761099a610670565b5b6109a7858286016108e6565b925050602083013567ffffffffffffffff8111156109c8576109c7610670565b5b6109d4858286016108b8565b9150509250929050565b600080604083850312156109f5576109f461066b565b5b6000610a03858286016106be565b925050602083013567ffffffffffffffff811115610a2457610a23610670565b5b610a30858286016108b8565b9150509250929050565b600081519050919050565b600082825260208201905092915050565b6000819050602082019050919050565b610a6f816107f6565b82525050565b600081519050919050565b600082825260208201905092915050565b60005b83811015610aaf578082015181840152602081019050610a94565b83811115610abe576000848401525b50505050565b6000610acf82610a75565b610ad98185610a80565b9350610ae9818560208601610a91565b610af281610765565b840191505092915050565b610b0681610695565b82525050565b6000606083016000830151610b246000860182610a66565b5060208301518482036020860152610b3c8282610ac4565b9150506040830151610b516040860182610afd565b508091505092915050565b6000610b688383610b0c565b905092915050565b6000602082019050919050565b6000610b8882610a3a565b610b928185610a45565b935083602082028501610ba485610a56565b8060005b85811015610be05784840389528151610bc18582610b5c565b9450610bcc83610b70565b925060208a01995050600181019050610ba8565b50829750879550505050505092915050565b60006020820190508181036000830152610c0c8184610b7d565b905092915050565b600082825260208201905092915050565b7f5573657220616c72656164792072656769737465726564000000000000000000600082015250565b6000610c5b601783610c14565b9150610c6682610c25565b602082019050919050565b60006020820190508181036000830152610c8a81610c4e565b9050919050565b6000606083016000830151610ca96000860182610a66565b5060208301518482036020860152610cc18282610ac4565b9150506040830151610cd66040860182610afd565b508091505092915050565b60006020820190508181036000830152610cfb8184610c91565b905092915050565b600081905092915050565b6000610d1982610a75565b610d238185610d03565b9350610d33818560208601610a91565b80840191505092915050565b6000610d4b8284610d0e565b915081905092915050565b600067ffffffffffffffff821115610d7157610d70610776565b5b602082029050602081019050919050565b600080fd5b600081519050610d9681610800565b92915050565b6000610daf610daa84610836565b6107d6565b905082815260208101848484011115610dcb57610dca610831565b5b610dd6848285610a91565b509392505050565b600082601f830112610df357610df261082c565b5b8151610e03848260208601610d9c565b91505092915050565b600081519050610e1b816106a7565b92915050565b600060608284031215610e3757610e36610760565b5b610e4160606107d6565b90506000610e5184828501610d87565b600083015250602082015167ffffffffffffffff811115610e7557610e746107f1565b5b610e8184828501610dde565b6020830152506040610e9584828501610e0c565b60408301525092915050565b6000610eb4610eaf84610d56565b6107d6565b90508083825260208201905060208402830185811115610ed757610ed6610d82565b5b835b81811015610f1e57805167ffffffffffffffff811115610efc57610efb61082c565b5b808601610f098982610e21565b85526020850194505050602081019050610ed9565b5050509392505050565b600082601f830112610f3d57610f3c61082c565b5b8151610f4d848260208601610ea1565b91505092915050565b600060208284031215610f6c57610f6b61066b565b5b600082015167ffffffffffffffff811115610f8a57610f89610670565b5b610f9684828501610f28565b9150509291505056fea2646970667358221220a1d73991a96dede9682565109900e38eacf54865db324fe955970febfe7656ab64736f6c634300080a0033",
  "linkReferences": {},
  "deployedLinkReferences": {}
}