{
  "_format": "hh-sol-artifact-1",
  "contractName": "Authentication",
  "sourceName": "contracts/facets/Authentication.sol",
  "abi": [
    {
      "inputs": [
        {
          "components": [
            {
              "internalType": "uint256",
              "name": "organizerID",
              "type": "uint256"
            },
            {
              "internalType": "string",
              "name": "name",
              "type": "string"
            },
            {
              "internalType": "address",
              "name": "publicAddress",
              "type": "address"
            }
          ],
          "internalType": "struct ElectionOrganizer.OrganizerInfo",
          "name": "_organizerInfo",
          "type": "tuple"
        }
      ],
      "name": "createUser",
      "outputs": [],
      "stateMutability": "nonpayable",
      "type": "function"
    },
    {
      "inputs": [
        {
          "internalType": "address",
          "name": "_user",
          "type": "address"
        }
      ],
      "name": "getAuthStatus",
      "outputs": [
        {
          "internalType": "bool",
          "name": "",
          "type": "bool"
        }
      ],
      "stateMutability": "view",
      "type": "function"
    },
    {
      "inputs": [],
      "name": "getElectionOrganizer",
      "outputs": [
        {
          "components": [
            {
              "internalType": "uint256",
              "name": "organizerID",
              "type": "uint256"
            },
            {
              "internalType": "string",
              "name": "name",
              "type": "string"
            },
            {
              "internalType": "address",
              "name": "publicAddress",
              "type": "address"
            }
          ],
          "internalType": "struct ElectionOrganizer.OrganizerInfo[]",
          "name": "",
          "type": "tuple[]"
        }
      ],
      "stateMutability": "view",
      "type": "function"
    },
    {
      "inputs": [],
      "name": "getElectionOrganizerContract",
      "outputs": [
        {
          "internalType": "address",
          "name": "",
          "type": "address"
        }
      ],
      "stateMutability": "view",
      "type": "function"
    },
    {
      "inputs": [],
      "name": "getVoterContract",
      "outputs": [
        {
          "internalType": "address",
          "name": "",
          "type": "address"
        }
      ],
      "stateMutability": "view",
      "type": "function"
    },
    {
      "inputs": [
        {
          "internalType": "address",
          "name": "_diamond",
          "type": "address"
        }
      ],
      "name": "init",
      "outputs": [],
      "stateMutability": "nonpayable",
      "type": "function"
    }
  ],
  "bytecode": "0x608060405234801561001057600080fd5b50610dc1806100206000396000f3fe608060405234801561001057600080fd5b50600436106100625760003560e01c806314bde88e1461006757806319ab453c14610097578063378d47e9146100b35780639b05e4b9146100d1578063bba92b2b146100ed578063e04b1c0c1461010b575b600080fd5b610081600480360381019061007c919061059d565b610129565b60405161008e91906105e5565b60405180910390f35b6100b160048036038101906100ac919061059d565b61017e565b005b6100bb6102cf565b6040516100c8919061060f565b60405180910390f35b6100eb60048036038101906100e69190610830565b6102f9565b005b6100f5610437565b604051610102919061060f565b60405180910390f35b610113610461565b6040516101209190610a31565b60405180910390f35b60008060008373ffffffffffffffffffffffffffffffffffffffff1673ffffffffffffffffffffffffffffffffffffffff16815260200190815260200160002060009054906101000a900460ff169050919050565b806101876104fe565b60000160006101000a81548173ffffffffffffffffffffffffffffffffffffffff021916908373ffffffffffffffffffffffffffffffffffffffff16021790555080600160006101000a81548173ffffffffffffffffffffffffffffffffffffffff021916908373ffffffffffffffffffffffffffffffffffffffff160217905550600160009054906101000a900473ffffffffffffffffffffffffffffffffffffffff1673ffffffffffffffffffffffffffffffffffffffff16631d43d8ed6040518163ffffffff1660e01b8152600401600060405180830381600087803b15801561027357600080fd5b505af1158015610287573d6000803e3d6000fd5b5050505080600260006101000a81548173ffffffffffffffffffffffffffffffffffffffff021916908373ffffffffffffffffffffffffffffffffffffffff16021790555050565b6000600160009054906101000a900473ffffffffffffffffffffffffffffffffffffffff16905090565b6000151561030a8260400151610129565b15151461034c576040517f08c379a000000000000000000000000000000000000000000000000000000000815260040161034390610ab0565b60405180910390fd5b6001600080836040015173ffffffffffffffffffffffffffffffffffffffff1673ffffffffffffffffffffffffffffffffffffffff16815260200190815260200160002060006101000a81548160ff021916908315150217905550600160009054906101000a900473ffffffffffffffffffffffffffffffffffffffff1673ffffffffffffffffffffffffffffffffffffffff166315d4ffa0826040518263ffffffff1660e01b81526004016104029190610b20565b600060405180830381600087803b15801561041c57600080fd5b505af1158015610430573d6000803e3d6000fd5b5050505050565b6000600260009054906101000a900473ffffffffffffffffffffffffffffffffffffffff16905090565b6060600160009054906101000a900473ffffffffffffffffffffffffffffffffffffffff1673ffffffffffffffffffffffffffffffffffffffff1663a8c019876040518163ffffffff1660e01b8152600401600060405180830381865afa1580156104d0573d6000803e3d6000fd5b505050506040513d6000823e3d601f19601f820116820180604052508101906104f99190610d42565b905090565b6000807fc20038518297e76c0e27a913ab03e5d4fd92b2579d428cf3b89f8c71add2acef90508091505090565b6000604051905090565b600080fd5b600080fd5b600073ffffffffffffffffffffffffffffffffffffffff82169050919050565b600061056a8261053f565b9050919050565b61057a8161055f565b811461058557600080fd5b50565b60008135905061059781610571565b92915050565b6000602082840312156105b3576105b2610535565b5b60006105c184828501610588565b91505092915050565b60008115159050919050565b6105df816105ca565b82525050565b60006020820190506105fa60008301846105d6565b92915050565b6106098161055f565b82525050565b60006020820190506106246000830184610600565b92915050565b600080fd5b6000601f19601f8301169050919050565b7f4e487b7100000000000000000000000000000000000000000000000000000000600052604160045260246000fd5b6106788261062f565b810181811067ffffffffffffffff8211171561069757610696610640565b5b80604052505050565b60006106aa61052b565b90506106b6828261066f565b919050565b600080fd5b6000819050919050565b6106d3816106c0565b81146106de57600080fd5b50565b6000813590506106f0816106ca565b92915050565b600080fd5b600080fd5b600067ffffffffffffffff82111561071b5761071a610640565b5b6107248261062f565b9050602081019050919050565b82818337600083830152505050565b600061075361074e84610700565b6106a0565b90508281526020810184848401111561076f5761076e6106fb565b5b61077a848285610731565b509392505050565b600082601f830112610797576107966106f6565b5b81356107a7848260208601610740565b91505092915050565b6000606082840312156107c6576107c561062a565b5b6107d060606106a0565b905060006107e0848285016106e1565b600083015250602082013567ffffffffffffffff811115610804576108036106bb565b5b61081084828501610782565b602083015250604061082484828501610588565b60408301525092915050565b60006020828403121561084657610845610535565b5b600082013567ffffffffffffffff8111156108645761086361053a565b5b610870848285016107b0565b91505092915050565b600081519050919050565b600082825260208201905092915050565b6000819050602082019050919050565b6108ae816106c0565b82525050565b600081519050919050565b600082825260208201905092915050565b60005b838110156108ee5780820151818401526020810190506108d3565b838111156108fd576000848401525b50505050565b600061090e826108b4565b61091881856108bf565b93506109288185602086016108d0565b6109318161062f565b840191505092915050565b6109458161055f565b82525050565b600060608301600083015161096360008601826108a5565b506020830151848203602086015261097b8282610903565b9150506040830151610990604086018261093c565b508091505092915050565b60006109a7838361094b565b905092915050565b6000602082019050919050565b60006109c782610879565b6109d18185610884565b9350836020820285016109e385610895565b8060005b85811015610a1f5784840389528151610a00858261099b565b9450610a0b836109af565b925060208a019950506001810190506109e7565b50829750879550505050505092915050565b60006020820190508181036000830152610a4b81846109bc565b905092915050565b600082825260208201905092915050565b7f5573657220616c72656164792072656769737465726564000000000000000000600082015250565b6000610a9a601783610a53565b9150610aa582610a64565b602082019050919050565b60006020820190508181036000830152610ac981610a8d565b9050919050565b6000606083016000830151610ae860008601826108a5565b5060208301518482036020860152610b008282610903565b9150506040830151610b15604086018261093c565b508091505092915050565b60006020820190508181036000830152610b3a8184610ad0565b905092915050565b600067ffffffffffffffff821115610b5d57610b5c610640565b5b602082029050602081019050919050565b600080fd5b600081519050610b82816106ca565b92915050565b6000610b9b610b9684610700565b6106a0565b905082815260208101848484011115610bb757610bb66106fb565b5b610bc28482856108d0565b509392505050565b600082601f830112610bdf57610bde6106f6565b5b8151610bef848260208601610b88565b91505092915050565b600081519050610c0781610571565b92915050565b600060608284031215610c2357610c2261062a565b5b610c2d60606106a0565b90506000610c3d84828501610b73565b600083015250602082015167ffffffffffffffff811115610c6157610c606106bb565b5b610c6d84828501610bca565b6020830152506040610c8184828501610bf8565b60408301525092915050565b6000610ca0610c9b84610b42565b6106a0565b90508083825260208201905060208402830185811115610cc357610cc2610b6e565b5b835b81811015610d0a57805167ffffffffffffffff811115610ce857610ce76106f6565b5b808601610cf58982610c0d565b85526020850194505050602081019050610cc5565b5050509392505050565b600082601f830112610d2957610d286106f6565b5b8151610d39848260208601610c8d565b91505092915050565b600060208284031215610d5857610d57610535565b5b600082015167ffffffffffffffff811115610d7657610d7561053a565b5b610d8284828501610d14565b9150509291505056fea26469706673582212206e5bb23bb520fb7370df1da1e863c5cd880ed743dd1537041862b9a452f8c75f64736f6c634300080a0033",
  "linkReferences": {},
  "deployedLinkReferences": {}
}