{
  "_format": "hh-sol-artifact-1",
  "contractName": "ElectionOrganizer",
  "sourceName": "contracts/facets/votingApp/ElectionOrganizer.sol",
  "abi": [
    {
      "anonymous": false,
      "inputs": [
        {
          "indexed": false,
          "internalType": "address",
          "name": "election",
          "type": "address"
        },
        {
          "components": [
            {
              "internalType": "uint256",
              "name": "candidateID",
              "type": "uint256"
            },
            {
              "internalType": "string",
              "name": "name",
              "type": "string"
            },
            {
              "internalType": "string",
              "name": "description",
              "type": "string"
            }
          ],
          "indexed": false,
          "internalType": "struct Election.Candidate",
          "name": "candidate",
          "type": "tuple"
        }
      ],
      "name": "CandidateAdded",
      "type": "event"
    },
    {
      "anonymous": false,
      "inputs": [
        {
          "indexed": false,
          "internalType": "address",
          "name": "election",
          "type": "address"
        }
      ],
      "name": "CreatedElection",
      "type": "event"
    },
    {
      "inputs": [
        {
          "internalType": "contract Election",
          "name": "_election",
          "type": "address"
        },
        {
          "components": [
            {
              "internalType": "uint256",
              "name": "candidateID",
              "type": "uint256"
            },
            {
              "internalType": "string",
              "name": "name",
              "type": "string"
            },
            {
              "internalType": "string",
              "name": "description",
              "type": "string"
            }
          ],
          "internalType": "struct Election.Candidate",
          "name": "_candidate",
          "type": "tuple"
        }
      ],
      "name": "addCandidate",
      "outputs": [],
      "stateMutability": "nonpayable",
      "type": "function"
    },
    {
      "inputs": [
        {
          "components": [
            {
              "internalType": "uint256",
              "name": "organizerID",
              "type": "uint256"
            },
            {
              "internalType": "string",
              "name": "name",
              "type": "string"
            },
            {
              "internalType": "address",
              "name": "publicAddress",
              "type": "address"
            }
          ],
          "internalType": "struct ElectionOrganizer.OrganizerInfo",
          "name": "_organizerInfo",
          "type": "tuple"
        }
      ],
      "name": "addElectionOrganizer",
      "outputs": [],
      "stateMutability": "nonpayable",
      "type": "function"
    },
    {
      "inputs": [
        {
          "components": [
            {
              "internalType": "uint256",
              "name": "electionID",
              "type": "uint256"
            },
            {
              "internalType": "string",
              "name": "name",
              "type": "string"
            },
            {
              "internalType": "string",
              "name": "description",
              "type": "string"
            },
            {
              "internalType": "uint256",
              "name": "startDate",
              "type": "uint256"
            },
            {
              "internalType": "uint256",
              "name": "endDate",
              "type": "uint256"
            }
          ],
          "internalType": "struct Election.ElectionInfo",
          "name": "_electionInfo",
          "type": "tuple"
        },
        {
          "internalType": "uint256",
          "name": "_ballotType",
          "type": "uint256"
        },
        {
          "internalType": "uint256",
          "name": "_resultCalculatorType",
          "type": "uint256"
        }
      ],
      "name": "createElection",
      "outputs": [],
      "stateMutability": "nonpayable",
      "type": "function"
    },
    {
      "inputs": [
        {
          "internalType": "uint256",
          "name": "_electionID",
          "type": "uint256"
        }
      ],
      "name": "getElectionByID",
      "outputs": [
        {
          "internalType": "address",
          "name": "",
          "type": "address"
        }
      ],
      "stateMutability": "view",
      "type": "function"
    },
    {
      "inputs": [],
      "name": "getElectionFactory",
      "outputs": [
        {
          "internalType": "address",
          "name": "",
          "type": "address"
        }
      ],
      "stateMutability": "view",
      "type": "function"
    },
    {
      "inputs": [
        {
          "internalType": "address",
          "name": "_address",
          "type": "address"
        }
      ],
      "name": "getElectionOrganizerByAddress",
      "outputs": [
        {
          "components": [
            {
              "internalType": "uint256",
              "name": "organizerID",
              "type": "uint256"
            },
            {
              "internalType": "string",
              "name": "name",
              "type": "string"
            },
            {
              "internalType": "address",
              "name": "publicAddress",
              "type": "address"
            }
          ],
          "internalType": "struct ElectionOrganizer.OrganizerInfo",
          "name": "",
          "type": "tuple"
        }
      ],
      "stateMutability": "view",
      "type": "function"
    },
    {
      "inputs": [
        {
          "internalType": "uint256",
          "name": "_organizerID",
          "type": "uint256"
        }
      ],
      "name": "getElectionOrganizerByID",
      "outputs": [
        {
          "components": [
            {
              "internalType": "uint256",
              "name": "organizerID",
              "type": "uint256"
            },
            {
              "internalType": "string",
              "name": "name",
              "type": "string"
            },
            {
              "internalType": "address",
              "name": "publicAddress",
              "type": "address"
            }
          ],
          "internalType": "struct ElectionOrganizer.OrganizerInfo",
          "name": "",
          "type": "tuple"
        }
      ],
      "stateMutability": "view",
      "type": "function"
    },
    {
      "inputs": [],
      "name": "getElectionOrganizers",
      "outputs": [
        {
          "components": [
            {
              "internalType": "uint256",
              "name": "organizerID",
              "type": "uint256"
            },
            {
              "internalType": "string",
              "name": "name",
              "type": "string"
            },
            {
              "internalType": "address",
              "name": "publicAddress",
              "type": "address"
            }
          ],
          "internalType": "struct ElectionOrganizer.OrganizerInfo[]",
          "name": "",
          "type": "tuple[]"
        }
      ],
      "stateMutability": "view",
      "type": "function"
    },
    {
      "inputs": [],
      "name": "getElectionStorage",
      "outputs": [
        {
          "internalType": "address",
          "name": "",
          "type": "address"
        }
      ],
      "stateMutability": "view",
      "type": "function"
    },
    {
      "inputs": [],
      "name": "getElections",
      "outputs": [
        {
          "internalType": "address[]",
          "name": "",
          "type": "address[]"
        }
      ],
      "stateMutability": "view",
      "type": "function"
    },
    {
      "inputs": [],
      "name": "getElectionsOfOrganizer",
      "outputs": [
        {
          "internalType": "address[]",
          "name": "",
          "type": "address[]"
        }
      ],
      "stateMutability": "view",
      "type": "function"
    },
    {
      "inputs": [
        {
          "internalType": "contract Election",
          "name": "_election",
          "type": "address"
        }
      ],
      "name": "getResult",
      "outputs": [
        {
          "internalType": "uint256[]",
          "name": "",
          "type": "uint256[]"
        }
      ],
      "stateMutability": "nonpayable",
      "type": "function"
    },
    {
      "inputs": [],
      "name": "init",
      "outputs": [],
      "stateMutability": "nonpayable",
      "type": "function"
    }
  ],
  "bytecode": "0x6080604052606460035534801561001557600080fd5b5061ad36806100256000396000f3fe608060405234801561001057600080fd5b50600436106100cf5760003560e01c8063446a37e01161008c5780639f3a7f52116100665780639f3a7f5214610212578063a8c0198714610230578063a95bc6351461024e578063e1c7392a1461027e576100cf565b8063446a37e01461019657806379db9ffe146101c65780637f934bdb146101f6576100cf565b80630249ff4d146100d457806315d4ffa0146100f257806325fb97a91461010e578063326e0d281461013e57806332fb68cd1461015a57806339d8a45114610178575b600080fd5b6100dc610288565b6040516100e9919061122d565b60405180910390f35b61010c6004803603810190610107919061148e565b6102b2565b005b610128600480360381019061012391906114d7565b610521565b604051610135919061122d565b60405180910390f35b610158600480360381019061015391906115de565b6105c6565b005b61016261074c565b60405161016f919061122d565b60405180910390f35b610180610776565b60405161018d91906116f8565b60405180910390f35b6101b060048036038101906101ab919061171a565b61081e565b6040516101bd9190611805565b60405180910390f35b6101e060048036038101906101db91906114d7565b61089d565b6040516101ed91906118ff565b60405180910390f35b610210600480360381019061020b91906119e5565b6109bc565b005b61021a610c69565b60405161022791906116f8565b60405180910390f35b610238610d06565b6040516102459190611b66565b60405180910390f35b61026860048036038101906102639190611b88565b610e57565b60405161027591906118ff565b60405180910390f35b610286610fa2565b005b6000600560009054906101000a900473ffffffffffffffffffffffffffffffffffffffff16905090565b600060016003546102c39190611be4565b90508082600001818152505060008290806001815401808255809150506001900390600052602060002090600302016000909190919091506000820151816000015560208201518160010190805190602001906103219291906110f8565b5060408201518160020160006101000a81548173ffffffffffffffffffffffffffffffffffffffff021916908373ffffffffffffffffffffffffffffffffffffffff16021790555050508160016000846040015173ffffffffffffffffffffffffffffffffffffffff1673ffffffffffffffffffffffffffffffffffffffff1681526020019081526020016000206000820151816000015560208201518160010190805190602001906103d59291906110f8565b5060408201518160020160006101000a81548173ffffffffffffffffffffffffffffffffffffffff021916908373ffffffffffffffffffffffffffffffffffffffff16021790555090505081600260008460000151815260200190815260200160002060008201518160000155602082015181600101908051906020019061045e9291906110f8565b5060408201518160020160006101000a81548173ffffffffffffffffffffffffffffffffffffffff021916908373ffffffffffffffffffffffffffffffffffffffff160217905550905050600160046000846040015173ffffffffffffffffffffffffffffffffffffffff1673ffffffffffffffffffffffffffffffffffffffff16815260200190815260200160002060006101000a81548160ff0219169083151502179055506003600081548092919061051890611c3a565b91905055505050565b6000600560009054906101000a900473ffffffffffffffffffffffffffffffffffffffff1673ffffffffffffffffffffffffffffffffffffffff166325fb97a9836040518263ffffffff1660e01b815260040161057e9190611c92565b602060405180830381865afa15801561059b573d6000803e3d6000fd5b505050506040513d601f19601f820116820180604052508101906105bf9190611cc2565b9050919050565b8173ffffffffffffffffffffffffffffffffffffffff1663e04b1c0c6040518163ffffffff1660e01b8152600401602060405180830381865afa158015610611573d6000803e3d6000fd5b505050506040513d601f19601f820116820180604052508101906106359190611cc2565b8073ffffffffffffffffffffffffffffffffffffffff163373ffffffffffffffffffffffffffffffffffffffff16146106a3576040517f08c379a000000000000000000000000000000000000000000000000000000000815260040161069a90611d72565b60405180910390fd5b8273ffffffffffffffffffffffffffffffffffffffff1663273ffe86836040518263ffffffff1660e01b81526004016106dc9190611de9565b600060405180830381600087803b1580156106f657600080fd5b505af115801561070a573d6000803e3d6000fd5b505050507fd0c201c1465de1cf8804d8aa806f3674abe49346aa6a18624a868dfa14108921838360405161073f929190611e0b565b60405180910390a1505050565b6000600660009054906101000a900473ffffffffffffffffffffffffffffffffffffffff16905090565b6060600560009054906101000a900473ffffffffffffffffffffffffffffffffffffffff1673ffffffffffffffffffffffffffffffffffffffff166364372f73336040518263ffffffff1660e01b81526004016107d3919061122d565b600060405180830381865afa1580156107f0573d6000803e3d6000fd5b505050506040513d6000823e3d601f19601f820116820180604052508101906108199190611f03565b905090565b60608173ffffffffffffffffffffffffffffffffffffffff1663de2927896040518163ffffffff1660e01b81526004016000604051808303816000875af115801561086d573d6000803e3d6000fd5b505050506040513d6000823e3d601f19601f820116820180604052508101906108969190612024565b9050919050565b6108a561117e565b60026000838152602001908152602001600020604051806060016040529081600082015481526020016001820180546108dd9061209c565b80601f01602080910402602001604051908101604052809291908181526020018280546109099061209c565b80156109565780601f1061092b57610100808354040283529160200191610956565b820191906000526020600020905b81548152906001019060200180831161093957829003601f168201915b505050505081526020016002820160009054906101000a900473ffffffffffffffffffffffffffffffffffffffff1673ffffffffffffffffffffffffffffffffffffffff1673ffffffffffffffffffffffffffffffffffffffff16815250509050919050565b600460003373ffffffffffffffffffffffffffffffffffffffff1673ffffffffffffffffffffffffffffffffffffffff16815260200190815260200160002060009054906101000a900460ff16610a48576040517f08c379a0000000000000000000000000000000000000000000000000000000008152600401610a3f90612140565b60405180910390fd5b6000806001600560009054906101000a900473ffffffffffffffffffffffffffffffffffffffff1673ffffffffffffffffffffffffffffffffffffffff1663213785a06040518163ffffffff1660e01b8152600401602060405180830381865afa158015610aba573d6000803e3d6000fd5b505050506040513d601f19601f82011682018060405250810190610ade9190612160565b610ae89190611be4565b905080856000018181525050600660009054906101000a900473ffffffffffffffffffffffffffffffffffffffff1673ffffffffffffffffffffffffffffffffffffffff16631140fc1986868633306040518663ffffffff1660e01b8152600401610b5795949392919061220a565b6020604051808303816000875af1158015610b76573d6000803e3d6000fd5b505050506040513d601f19601f82011682018060405250810190610b9a9190612279565b9150600560009054906101000a900473ffffffffffffffffffffffffffffffffffffffff1673ffffffffffffffffffffffffffffffffffffffff166387b4e8d383336040518363ffffffff1660e01b8152600401610bf9929190612305565b600060405180830381600087803b158015610c1357600080fd5b505af1158015610c27573d6000803e3d6000fd5b505050507f49fdfe60e25ebf09e8f8c20a8a10c828d9b82cecf7b04e1ecb59ae51f79f827782604051610c5a919061122d565b60405180910390a15050505050565b6060600560009054906101000a900473ffffffffffffffffffffffffffffffffffffffff1673ffffffffffffffffffffffffffffffffffffffff16639f3a7f526040518163ffffffff1660e01b8152600401600060405180830381865afa158015610cd8573d6000803e3d6000fd5b505050506040513d6000823e3d601f19601f82011682018060405250810190610d019190611f03565b905090565b60606000805480602002602001604051908101604052809291908181526020016000905b82821015610e4e578382906000526020600020906003020160405180606001604052908160008201548152602001600182018054610d679061209c565b80601f0160208091040260200160405190810160405280929190818152602001828054610d939061209c565b8015610de05780601f10610db557610100808354040283529160200191610de0565b820191906000526020600020905b815481529060010190602001808311610dc357829003601f168201915b505050505081526020016002820160009054906101000a900473ffffffffffffffffffffffffffffffffffffffff1673ffffffffffffffffffffffffffffffffffffffff1673ffffffffffffffffffffffffffffffffffffffff168152505081526020019060010190610d2a565b50505050905090565b610e5f61117e565b600160008373ffffffffffffffffffffffffffffffffffffffff1673ffffffffffffffffffffffffffffffffffffffff16815260200190815260200160002060405180606001604052908160008201548152602001600182018054610ec39061209c565b80601f0160208091040260200160405190810160405280929190818152602001828054610eef9061209c565b8015610f3c5780601f10610f1157610100808354040283529160200191610f3c565b820191906000526020600020905b815481529060010190602001808311610f1f57829003601f168201915b505050505081526020016002820160009054906101000a900473ffffffffffffffffffffffffffffffffffffffff1673ffffffffffffffffffffffffffffffffffffffff1673ffffffffffffffffffffffffffffffffffffffff16815250509050919050565b604051610fae906111b5565b604051809103906000f080158015610fca573d6000803e3d6000fd5b50600560006101000a81548173ffffffffffffffffffffffffffffffffffffffff021916908373ffffffffffffffffffffffffffffffffffffffff160217905550604051611017906111c2565b604051809103906000f080158015611033573d6000803e3d6000fd5b50600660006101000a81548173ffffffffffffffffffffffffffffffffffffffff021916908373ffffffffffffffffffffffffffffffffffffffff160217905550600660009054906101000a900473ffffffffffffffffffffffffffffffffffffffff1673ffffffffffffffffffffffffffffffffffffffff1663e1c7392a6040518163ffffffff1660e01b8152600401600060405180830381600087803b1580156110de57600080fd5b505af11580156110f2573d6000803e3d6000fd5b50505050565b8280546111049061209c565b90600052602060002090601f016020900481019282611126576000855561116d565b82601f1061113f57805160ff191683800117855561116d565b8280016001018555821561116d579182015b8281111561116c578251825591602001919060010190611151565b5b50905061117a91906111cf565b5090565b60405180606001604052806000815260200160608152602001600073ffffffffffffffffffffffffffffffffffffffff1681525090565b610abc8061232f83390190565b617f1680612deb83390190565b5b808211156111e85760008160009055506001016111d0565b5090565b600073ffffffffffffffffffffffffffffffffffffffff82169050919050565b6000611217826111ec565b9050919050565b6112278161120c565b82525050565b6000602082019050611242600083018461121e565b92915050565b6000604051905090565b600080fd5b600080fd5b600080fd5b6000601f19601f8301169050919050565b7f4e487b7100000000000000000000000000000000000000000000000000000000600052604160045260246000fd5b6112aa82611261565b810181811067ffffffffffffffff821117156112c9576112c8611272565b5b80604052505050565b60006112dc611248565b90506112e882826112a1565b919050565b600080fd5b6000819050919050565b611305816112f2565b811461131057600080fd5b50565b600081359050611322816112fc565b92915050565b600080fd5b600080fd5b600067ffffffffffffffff82111561134d5761134c611272565b5b61135682611261565b9050602081019050919050565b82818337600083830152505050565b600061138561138084611332565b6112d2565b9050828152602081018484840111156113a1576113a061132d565b5b6113ac848285611363565b509392505050565b600082601f8301126113c9576113c8611328565b5b81356113d9848260208601611372565b91505092915050565b6113eb8161120c565b81146113f657600080fd5b50565b600081359050611408816113e2565b92915050565b6000606082840312156114245761142361125c565b5b61142e60606112d2565b9050600061143e84828501611313565b600083015250602082013567ffffffffffffffff811115611462576114616112ed565b5b61146e848285016113b4565b6020830152506040611482848285016113f9565b60408301525092915050565b6000602082840312156114a4576114a3611252565b5b600082013567ffffffffffffffff8111156114c2576114c1611257565b5b6114ce8482850161140e565b91505092915050565b6000602082840312156114ed576114ec611252565b5b60006114fb84828501611313565b91505092915050565b600061150f8261120c565b9050919050565b61151f81611504565b811461152a57600080fd5b50565b60008135905061153c81611516565b92915050565b6000606082840312156115585761155761125c565b5b61156260606112d2565b9050600061157284828501611313565b600083015250602082013567ffffffffffffffff811115611596576115956112ed565b5b6115a2848285016113b4565b602083015250604082013567ffffffffffffffff8111156115c6576115c56112ed565b5b6115d2848285016113b4565b60408301525092915050565b600080604083850312156115f5576115f4611252565b5b60006116038582860161152d565b925050602083013567ffffffffffffffff81111561162457611623611257565b5b61163085828601611542565b9150509250929050565b600081519050919050565b600082825260208201905092915050565b6000819050602082019050919050565b61166f8161120c565b82525050565b60006116818383611666565b60208301905092915050565b6000602082019050919050565b60006116a58261163a565b6116af8185611645565b93506116ba83611656565b8060005b838110156116eb5781516116d28882611675565b97506116dd8361168d565b9250506001810190506116be565b5085935050505092915050565b60006020820190508181036000830152611712818461169a565b905092915050565b6000602082840312156117305761172f611252565b5b600061173e8482850161152d565b91505092915050565b600081519050919050565b600082825260208201905092915050565b6000819050602082019050919050565b61177c816112f2565b82525050565b600061178e8383611773565b60208301905092915050565b6000602082019050919050565b60006117b282611747565b6117bc8185611752565b93506117c783611763565b8060005b838110156117f85781516117df8882611782565b97506117ea8361179a565b9250506001810190506117cb565b5085935050505092915050565b6000602082019050818103600083015261181f81846117a7565b905092915050565b600081519050919050565b600082825260208201905092915050565b60005b83811015611861578082015181840152602081019050611846565b83811115611870576000848401525b50505050565b600061188182611827565b61188b8185611832565b935061189b818560208601611843565b6118a481611261565b840191505092915050565b60006060830160008301516118c76000860182611773565b50602083015184820360208601526118df8282611876565b91505060408301516118f46040860182611666565b508091505092915050565b6000602082019050818103600083015261191981846118af565b905092915050565b600060a082840312156119375761193661125c565b5b61194160a06112d2565b9050600061195184828501611313565b600083015250602082013567ffffffffffffffff811115611975576119746112ed565b5b611981848285016113b4565b602083015250604082013567ffffffffffffffff8111156119a5576119a46112ed565b5b6119b1848285016113b4565b60408301525060606119c584828501611313565b60608301525060806119d984828501611313565b60808301525092915050565b6000806000606084860312156119fe576119fd611252565b5b600084013567ffffffffffffffff811115611a1c57611a1b611257565b5b611a2886828701611921565b9350506020611a3986828701611313565b9250506040611a4a86828701611313565b9150509250925092565b600081519050919050565b600082825260208201905092915050565b6000819050602082019050919050565b6000606083016000830151611a986000860182611773565b5060208301518482036020860152611ab08282611876565b9150506040830151611ac56040860182611666565b508091505092915050565b6000611adc8383611a80565b905092915050565b6000602082019050919050565b6000611afc82611a54565b611b068185611a5f565b935083602082028501611b1885611a70565b8060005b85811015611b545784840389528151611b358582611ad0565b9450611b4083611ae4565b925060208a01995050600181019050611b1c565b50829750879550505050505092915050565b60006020820190508181036000830152611b808184611af1565b905092915050565b600060208284031215611b9e57611b9d611252565b5b6000611bac848285016113f9565b91505092915050565b7f4e487b7100000000000000000000000000000000000000000000000000000000600052601160045260246000fd5b6000611bef826112f2565b9150611bfa836112f2565b9250827fffffffffffffffffffffffffffffffffffffffffffffffffffffffffffffffff03821115611c2f57611c2e611bb5565b5b828201905092915050565b6000611c45826112f2565b91507fffffffffffffffffffffffffffffffffffffffffffffffffffffffffffffffff821415611c7857611c77611bb5565b5b600182019050919050565b611c8c816112f2565b82525050565b6000602082019050611ca76000830184611c83565b92915050565b600081519050611cbc816113e2565b92915050565b600060208284031215611cd857611cd7611252565b5b6000611ce684828501611cad565b91505092915050565b600082825260208201905092915050565b7f4f6e6c792061636365737369626c652062792074686520636f72726573706f6e60008201527f64696e6720656c656374696f6e206f7267616e697a6572000000000000000000602082015250565b6000611d5c603783611cef565b9150611d6782611d00565b604082019050919050565b60006020820190508181036000830152611d8b81611d4f565b9050919050565b6000606083016000830151611daa6000860182611773565b5060208301518482036020860152611dc28282611876565b91505060408301518482036040860152611ddc8282611876565b9150508091505092915050565b60006020820190508181036000830152611e038184611d92565b905092915050565b6000604082019050611e20600083018561121e565b8181036020830152611e328184611d92565b90509392505050565b600067ffffffffffffffff821115611e5657611e55611272565b5b602082029050602081019050919050565b600080fd5b6000611e7f611e7a84611e3b565b6112d2565b90508083825260208201905060208402830185811115611ea257611ea1611e67565b5b835b81811015611ecb5780611eb78882611cad565b845260208401935050602081019050611ea4565b5050509392505050565b600082601f830112611eea57611ee9611328565b5b8151611efa848260208601611e6c565b91505092915050565b600060208284031215611f1957611f18611252565b5b600082015167ffffffffffffffff811115611f3757611f36611257565b5b611f4384828501611ed5565b91505092915050565b600067ffffffffffffffff821115611f6757611f66611272565b5b602082029050602081019050919050565b600081519050611f87816112fc565b92915050565b6000611fa0611f9b84611f4c565b6112d2565b90508083825260208201905060208402830185811115611fc357611fc2611e67565b5b835b81811015611fec5780611fd88882611f78565b845260208401935050602081019050611fc5565b5050509392505050565b600082601f83011261200b5761200a611328565b5b815161201b848260208601611f8d565b91505092915050565b60006020828403121561203a57612039611252565b5b600082015167ffffffffffffffff81111561205857612057611257565b5b61206484828501611ff6565b91505092915050565b7f4e487b7100000000000000000000000000000000000000000000000000000000600052602260045260246000fd5b600060028204905060018216806120b457607f821691505b602082108114156120c8576120c761206d565b5b50919050565b7f4f6e6c792061636365737369626c65206279207573657273207265676973657460008201527f65726564206173206f7267616e697a6572730000000000000000000000000000602082015250565b600061212a603283611cef565b9150612135826120ce565b604082019050919050565b600060208201905081810360008301526121598161211d565b9050919050565b60006020828403121561217657612175611252565b5b600061218484828501611f78565b91505092915050565b600060a0830160008301516121a56000860182611773565b50602083015184820360208601526121bd8282611876565b915050604083015184820360408601526121d78282611876565b91505060608301516121ec6060860182611773565b5060808301516121ff6080860182611773565b508091505092915050565b600060a0820190508181036000830152612224818861218d565b90506122336020830187611c83565b6122406040830186611c83565b61224d606083018561121e565b61225a608083018461121e565b9695505050505050565b60008151905061227381611516565b92915050565b60006020828403121561228f5761228e611252565b5b600061229d84828501612264565b91505092915050565b6000819050919050565b60006122cb6122c66122c1846111ec565b6122a6565b6111ec565b9050919050565b60006122dd826122b0565b9050919050565b60006122ef826122d2565b9050919050565b6122ff816122e4565b82525050565b600060408201905061231a60008301856122f6565b612327602083018461121e565b939250505056fe60806040526103e860045534801561001657600080fd5b50610a96806100266000396000f3fe608060405234801561001057600080fd5b50600436106100575760003560e01c8063213785a01461005c57806325fb97a91461007a57806364372f73146100aa57806387b4e8d3146100da5780639f3a7f52146100f6575b600080fd5b610064610114565b60405161007191906104b7565b60405180910390f35b610094600480360381019061008f9190610512565b61011e565b6040516100a19190610580565b60405180910390f35b6100c460048036038101906100bf91906105c7565b61015b565b6040516100d191906106b2565b60405180910390f35b6100f460048036038101906100ef9190610712565b610228565b005b6100fe610410565b60405161010b91906106b2565b60405180910390f35b6000600454905090565b60006003600083815260200190815260200160002060009054906101000a900473ffffffffffffffffffffffffffffffffffffffff169050919050565b6060600260008373ffffffffffffffffffffffffffffffffffffffff1673ffffffffffffffffffffffffffffffffffffffff16815260200190815260200160002080548060200260200160405190810160405280929190818152602001828054801561021c57602002820191906000526020600020905b8160009054906101000a900473ffffffffffffffffffffffffffffffffffffffff1673ffffffffffffffffffffffffffffffffffffffff16815260200190600101908083116101d2575b50505050509050919050565b6004600081548092919061023b90610781565b91905055506000829080600181540180825580915050600190039060005260206000200160009091909190916101000a81548173ffffffffffffffffffffffffffffffffffffffff021916908373ffffffffffffffffffffffffffffffffffffffff160217905550600260008273ffffffffffffffffffffffffffffffffffffffff1673ffffffffffffffffffffffffffffffffffffffff168152602001908152602001600020829080600181540180825580915050600190039060005260206000200160009091909190916101000a81548173ffffffffffffffffffffffffffffffffffffffff021916908373ffffffffffffffffffffffffffffffffffffffff16021790555081600360008473ffffffffffffffffffffffffffffffffffffffff166386852dca6040518163ffffffff1660e01b8152600401600060405180830381865afa158015610393573d6000803e3d6000fd5b505050506040513d6000823e3d601f19601f820116820180604052508101906103bc9190610a17565b60000151815260200190815260200160002060006101000a81548173ffffffffffffffffffffffffffffffffffffffff021916908373ffffffffffffffffffffffffffffffffffffffff1602179055505050565b6060600080548060200260200160405190810160405280929190818152602001828054801561049457602002820191906000526020600020905b8160009054906101000a900473ffffffffffffffffffffffffffffffffffffffff1673ffffffffffffffffffffffffffffffffffffffff168152602001906001019080831161044a575b5050505050905090565b6000819050919050565b6104b18161049e565b82525050565b60006020820190506104cc60008301846104a8565b92915050565b6000604051905090565b600080fd5b600080fd5b6104ef8161049e565b81146104fa57600080fd5b50565b60008135905061050c816104e6565b92915050565b600060208284031215610528576105276104dc565b5b6000610536848285016104fd565b91505092915050565b600073ffffffffffffffffffffffffffffffffffffffff82169050919050565b600061056a8261053f565b9050919050565b61057a8161055f565b82525050565b60006020820190506105956000830184610571565b92915050565b6105a48161055f565b81146105af57600080fd5b50565b6000813590506105c18161059b565b92915050565b6000602082840312156105dd576105dc6104dc565b5b60006105eb848285016105b2565b91505092915050565b600081519050919050565b600082825260208201905092915050565b6000819050602082019050919050565b6106298161055f565b82525050565b600061063b8383610620565b60208301905092915050565b6000602082019050919050565b600061065f826105f4565b61066981856105ff565b935061067483610610565b8060005b838110156106a557815161068c888261062f565b975061069783610647565b925050600181019050610678565b5085935050505092915050565b600060208201905081810360008301526106cc8184610654565b905092915050565b60006106df8261055f565b9050919050565b6106ef816106d4565b81146106fa57600080fd5b50565b60008135905061070c816106e6565b92915050565b60008060408385031215610729576107286104dc565b5b6000610737858286016106fd565b9250506020610748858286016105b2565b9150509250929050565b7f4e487b7100000000000000000000000000000000000000000000000000000000600052601160045260246000fd5b600061078c8261049e565b91507fffffffffffffffffffffffffffffffffffffffffffffffffffffffffffffffff8214156107bf576107be610752565b5b600182019050919050565b600080fd5b6000601f19601f8301169050919050565b7f4e487b7100000000000000000000000000000000000000000000000000000000600052604160045260246000fd5b610818826107cf565b810181811067ffffffffffffffff82111715610837576108366107e0565b5b80604052505050565b600061084a6104d2565b9050610856828261080f565b919050565b600080fd5b60008151905061086f816104e6565b92915050565b600080fd5b600080fd5b600067ffffffffffffffff82111561089a576108996107e0565b5b6108a3826107cf565b9050602081019050919050565b60005b838110156108ce5780820151818401526020810190506108b3565b838111156108dd576000848401525b50505050565b60006108f66108f18461087f565b610840565b9050828152602081018484840111156109125761091161087a565b5b61091d8482856108b0565b509392505050565b600082601f83011261093a57610939610875565b5b815161094a8482602086016108e3565b91505092915050565b600060a08284031215610969576109686107ca565b5b61097360a0610840565b9050600061098384828501610860565b600083015250602082015167ffffffffffffffff8111156109a7576109a661085b565b5b6109b384828501610925565b602083015250604082015167ffffffffffffffff8111156109d7576109d661085b565b5b6109e384828501610925565b60408301525060606109f784828501610860565b6060830152506080610a0b84828501610860565b60808301525092915050565b600060208284031215610a2d57610a2c6104dc565b5b600082015167ffffffffffffffff811115610a4b57610a4a6104e1565b5b610a5784828501610953565b9150509291505056fea26469706673582212205e892d3e7143799da1ba0bbcd27917d20c4e4a0ad17b9a365d74a629591842f764736f6c634300080a0033608060405234801561001057600080fd5b50617ef6806100206000396000f3fe608060405234801561001057600080fd5b50600436106100365760003560e01c80631140fc191461003b578063e1c7392a1461006b575b600080fd5b61005560048036038101906100509190610a38565b610075565b6040516100629190610b2e565b60405180910390f35b61007361020d565b005b6000600260009054906101000a900473ffffffffffffffffffffffffffffffffffffffff1673ffffffffffffffffffffffffffffffffffffffff163373ffffffffffffffffffffffffffffffffffffffff1614610107576040517f08c379a00000000000000000000000000000000000000000000000000000000081526004016100fe90610bcc565b60405180910390fd5b600061011286610250565b5061011d8686610456565b5060405161012a90610721565b604051809103906000f080158015610146573d6000803e3d6000fd5b5090508073ffffffffffffffffffffffffffffffffffffffff16637c24b12c8860008054906101000a900473ffffffffffffffffffffffffffffffffffffffff16600160009054906101000a900473ffffffffffffffffffffffffffffffffffffffff1688888c6040518763ffffffff1660e01b81526004016101ce96959493929190610d60565b600060405180830381600087803b1580156101e857600080fd5b505af11580156101fc573d6000803e3d6000fd5b505050508091505095945050505050565b33600260006101000a81548173ffffffffffffffffffffffffffffffffffffffff021916908373ffffffffffffffffffffffffffffffffffffffff160217905550565b600060018214156102c8576040516102679061072e565b604051809103906000f080158015610283573d6000803e3d6000fd5b506000806101000a81548173ffffffffffffffffffffffffffffffffffffffff021916908373ffffffffffffffffffffffffffffffffffffffff16021790555061042e565b600282141561033e576040516102dd9061073b565b604051809103906000f0801580156102f9573d6000803e3d6000fd5b506000806101000a81548173ffffffffffffffffffffffffffffffffffffffff021916908373ffffffffffffffffffffffffffffffffffffffff16021790555061042d565b600382141561034c5761042c565b60048214156103c25760405161036190610748565b604051809103906000f08015801561037d573d6000803e3d6000fd5b506000806101000a81548173ffffffffffffffffffffffffffffffffffffffff021916908373ffffffffffffffffffffffffffffffffffffffff16021790555061042b565b6040516103ce9061072e565b604051809103906000f0801580156103ea573d6000803e3d6000fd5b506000806101000a81548173ffffffffffffffffffffffffffffffffffffffff021916908373ffffffffffffffffffffffffffffffffffffffff1602179055505b5b5b5b60008054906101000a900473ffffffffffffffffffffffffffffffffffffffff169050919050565b6000600183141561046f5761046a826104eb565b6104c0565b600283141561048657610481826105cf565b6104bf565b600383141561049d57610498826106b3565b6104be565b60048314156104b3576104ae6106b6565b6104bd565b6104bc826104eb565b5b5b5b5b600160009054906101000a900473ffffffffffffffffffffffffffffffffffffffff16905092915050565b60018114156105625760405161050090610755565b604051809103906000f08015801561051c573d6000803e3d6000fd5b50600160006101000a81548173ffffffffffffffffffffffffffffffffffffffff021916908373ffffffffffffffffffffffffffffffffffffffff1602179055506105cc565b60405161056e90610755565b604051809103906000f08015801561058a573d6000803e3d6000fd5b50600160006101000a81548173ffffffffffffffffffffffffffffffffffffffff021916908373ffffffffffffffffffffffffffffffffffffffff1602179055505b50565b6001811415610646576040516105e490610762565b604051809103906000f080158015610600573d6000803e3d6000fd5b50600160006101000a81548173ffffffffffffffffffffffffffffffffffffffff021916908373ffffffffffffffffffffffffffffffffffffffff1602179055506106b0565b60405161065290610762565b604051809103906000f08015801561066e573d6000803e3d6000fd5b50600160006101000a81548173ffffffffffffffffffffffffffffffffffffffff021916908373ffffffffffffffffffffffffffffffffffffffff1602179055505b50565b50565b6040516106c29061076f565b604051809103906000f0801580156106de573d6000803e3d6000fd5b50600160006101000a81548173ffffffffffffffffffffffffffffffffffffffff021916908373ffffffffffffffffffffffffffffffffffffffff160217905550565b612b1980610dc983390190565b6109bc806138e283390190565b610dde8061429e83390190565b610c6c8061507c83390190565b610a2080615ce883390190565b610a8b8061670883390190565b610d2e8061719383390190565b6000604051905090565b600080fd5b600080fd5b600080fd5b6000601f19601f8301169050919050565b7f4e487b7100000000000000000000000000000000000000000000000000000000600052604160045260246000fd5b6107de82610795565b810181811067ffffffffffffffff821117156107fd576107fc6107a6565b5b80604052505050565b600061081061077c565b905061081c82826107d5565b919050565b600080fd5b6000819050919050565b61083981610826565b811461084457600080fd5b50565b60008135905061085681610830565b92915050565b600080fd5b600080fd5b600067ffffffffffffffff821115610881576108806107a6565b5b61088a82610795565b9050602081019050919050565b82818337600083830152505050565b60006108b96108b484610866565b610806565b9050828152602081018484840111156108d5576108d4610861565b5b6108e0848285610897565b509392505050565b600082601f8301126108fd576108fc61085c565b5b813561090d8482602086016108a6565b91505092915050565b600060a0828403121561092c5761092b610790565b5b61093660a0610806565b9050600061094684828501610847565b600083015250602082013567ffffffffffffffff81111561096a57610969610821565b5b610976848285016108e8565b602083015250604082013567ffffffffffffffff81111561099a57610999610821565b5b6109a6848285016108e8565b60408301525060606109ba84828501610847565b60608301525060806109ce84828501610847565b60808301525092915050565b600073ffffffffffffffffffffffffffffffffffffffff82169050919050565b6000610a05826109da565b9050919050565b610a15816109fa565b8114610a2057600080fd5b50565b600081359050610a3281610a0c565b92915050565b600080600080600060a08688031215610a5457610a53610786565b5b600086013567ffffffffffffffff811115610a7257610a7161078b565b5b610a7e88828901610916565b9550506020610a8f88828901610847565b9450506040610aa088828901610847565b9350506060610ab188828901610a23565b9250506080610ac288828901610a23565b9150509295509295909350565b6000819050919050565b6000610af4610aef610aea846109da565b610acf565b6109da565b9050919050565b6000610b0682610ad9565b9050919050565b6000610b1882610afb565b9050919050565b610b2881610b0d565b82525050565b6000602082019050610b436000830184610b1f565b92915050565b600082825260208201905092915050565b7f4d7573742062652063616c6c65642066726f6d2074686520656c656374696f6e60008201527f206f7267616e697a657220636f6e747261637400000000000000000000000000602082015250565b6000610bb6603383610b49565b9150610bc182610b5a565b604082019050919050565b60006020820190508181036000830152610be581610ba9565b9050919050565b610bf581610826565b82525050565b600081519050919050565b600082825260208201905092915050565b60005b83811015610c35578082015181840152602081019050610c1a565b83811115610c44576000848401525b50505050565b6000610c5582610bfb565b610c5f8185610c06565b9350610c6f818560208601610c17565b610c7881610795565b840191505092915050565b600060a083016000830151610c9b6000860182610bec565b5060208301518482036020860152610cb38282610c4a565b91505060408301518482036040860152610ccd8282610c4a565b9150506060830151610ce26060860182610bec565b506080830151610cf56080860182610bec565b508091505092915050565b6000610d0b82610afb565b9050919050565b610d1b81610d00565b82525050565b6000610d2c82610afb565b9050919050565b610d3c81610d21565b82525050565b610d4b816109fa565b82525050565b610d5a81610826565b82525050565b600060c0820190508181036000830152610d7a8189610c83565b9050610d896020830188610d12565b610d966040830187610d33565b610da36060830186610d42565b610db06080830185610d42565b610dbd60a0830184610d51565b97965050505050505056fe608060405234801561001057600080fd5b50612af9806100206000396000f3fe608060405234801561001057600080fd5b506004361061010b5760003560e01c80637c24b12c116100a2578063a1818ac411610071578063a1818ac414610298578063de292789146102b4578063df15c37e146102d2578063e04b1c0c146102f0578063ecff1f4b1461030e5761010b565b80637c24b12c14610210578063822023961461022c57806386852dca1461025c5780639baec8b91461027a5761010b565b806330a56347116100de57806330a563471461018657806337349a7d146101a45780634e69d560146101c2578063521b0dcc146101e05761010b565b806306a49fce1461011057806311174a291461012e5780631ca577141461014c578063273ffe861461016a575b600080fd5b61011861032a565b604051610125919061175e565b60405180910390f35b6101366104b7565b604051610143919061178f565b60405180910390f35b6101546104c1565b604051610161919061178f565b60405180910390f35b610184600480360381019061017f91906119c5565b6104cb565b005b61018e6107c1565b60405161019b919061178f565b60405180910390f35b6101ac6107cb565b6040516101b99190611a4f565b60405180910390f35b6101ca610885565b6040516101d79190611ae1565b60405180910390f35b6101fa60048036038101906101f59190611b28565b6108ba565b6040516102079190611b70565b60405180910390f35b61022a60048036038101906102259190611ccb565b61095f565b005b61024660048036038101906102419190611d74565b610afb565b6040516102539190611df8565b60405180910390f35b610264610c56565b6040516102719190611e97565b60405180910390f35b610282610db2565b60405161028f9190611a4f565b60405180910390f35b6102b260048036038101906102ad9190611f81565b610e6c565b005b6102bc610ffa565b6040516102c991906120b3565b60405180910390f35b6102da61121d565b6040516102e791906120b3565b60405180910390f35b6102f86112cb565b6040516103059190611a4f565b60405180910390f35b610328600480360381019061032391906120d5565b6112f5565b005b60606005805480602002602001604051908101604052809291908181526020016000905b828210156104ae57838290600052602060002090600302016040518060600160405290816000820154815260200160018201805461038b9061214d565b80601f01602080910402602001604051908101604052809291908181526020018280546103b79061214d565b80156104045780601f106103d957610100808354040283529160200191610404565b820191906000526020600020905b8154815290600101906020018083116103e757829003601f168201915b5050505050815260200160028201805461041d9061214d565b80601f01602080910402602001604051908101604052809291908181526020018280546104499061214d565b80156104965780601f1061046b57610100808354040283529160200191610496565b820191906000526020600020905b81548152906001019060200180831161047957829003601f168201915b5050505050815250508152602001906001019061034e565b50505050905090565b6000600b54905090565b6000600c54905090565b600a60009054906101000a900473ffffffffffffffffffffffffffffffffffffffff1673ffffffffffffffffffffffffffffffffffffffff163373ffffffffffffffffffffffffffffffffffffffff161461055b576040517f08c379a000000000000000000000000000000000000000000000000000000000815260040161055290612202565b60405180910390fd5b6001600281111561056f5761056e611a6a565b5b610577610885565b600281111561058957610588611a6a565b5b146105c9576040517f08c379a00000000000000000000000000000000000000000000000000000000081526004016105c090612294565b60405180910390fd5b600060016008546105da91906122e3565b9050808260000181815250506005829080600181540180825580915050600190039060005260206000209060030201600090919091909150600082015181600001556020820151816001019080519060200190610638929190611453565b506040820151816002019080519060200190610655929190611453565b505050600d60019054906101000a900473ffffffffffffffffffffffffffffffffffffffff1673ffffffffffffffffffffffffffffffffffffffff1663e844d09783600001516040518263ffffffff1660e01b81526004016106b7919061178f565b600060405180830381600087803b1580156106d157600080fd5b505af11580156106e5573d6000803e3d6000fd5b50505050816007600084600001518152602001908152602001600020600082015181600001556020820151816001019080519060200190610727929190611453565b506040820151816002019080519060200190610744929190611453565b509050506008600081548092919061075b90612339565b91905055507f4d9dd414a40890e16b7bd0ea98bdf9d5b55c3d20cfe4b18febda0d60fb32a60c30600d60019054906101000a900473ffffffffffffffffffffffffffffffffffffffff16846040516107b593929190612382565b60405180910390a15050565b6000600854905090565b6000600960009054906101000a900473ffffffffffffffffffffffffffffffffffffffff1673ffffffffffffffffffffffffffffffffffffffff163373ffffffffffffffffffffffffffffffffffffffff161461085d576040517f08c379a000000000000000000000000000000000000000000000000000000000815260040161085490612432565b60405180910390fd5b600e60009054906101000a900473ffffffffffffffffffffffffffffffffffffffff16905090565b6000806003015442101561089c57600190506108b7565b6000600401544210156108b257600090506108b7565b600290505b90565b6000600d60019054906101000a900473ffffffffffffffffffffffffffffffffffffffff1673ffffffffffffffffffffffffffffffffffffffff1663521b0dcc836040518263ffffffff1660e01b81526004016109179190611a4f565b602060405180830381865afa158015610934573d6000803e3d6000fd5b505050506040513d601f19601f82011682018060405250810190610958919061247e565b9050919050565b82600960006101000a81548173ffffffffffffffffffffffffffffffffffffffff021916908373ffffffffffffffffffffffffffffffffffffffff16021790555081600a60006101000a81548173ffffffffffffffffffffffffffffffffffffffff021916908373ffffffffffffffffffffffffffffffffffffffff1602179055508560008082015181600001556020820151816001019080519060200190610a09929190611453565b506040820151816002019080519060200190610a26929190611453565b50606082015181600301556080820151816004015590505084600d60016101000a81548173ffffffffffffffffffffffffffffffffffffffff021916908373ffffffffffffffffffffffffffffffffffffffff16021790555083600e60006101000a81548173ffffffffffffffffffffffffffffffffffffffff021916908373ffffffffffffffffffffffffffffffffffffffff1602179055506103e86008819055506000600b819055506000600d60006101000a81548160ff02191690831515021790555080600c81905550505050505050565b610b036114d9565b6007600083815260200190815260200160002060405180606001604052908160008201548152602001600182018054610b3b9061214d565b80601f0160208091040260200160405190810160405280929190818152602001828054610b679061214d565b8015610bb45780601f10610b8957610100808354040283529160200191610bb4565b820191906000526020600020905b815481529060010190602001808311610b9757829003601f168201915b50505050508152602001600282018054610bcd9061214d565b80601f0160208091040260200160405190810160405280929190818152602001828054610bf99061214d565b8015610c465780601f10610c1b57610100808354040283529160200191610c46565b820191906000526020600020905b815481529060010190602001808311610c2957829003601f168201915b5050505050815250509050919050565b610c5e6114fa565b60006040518060a001604052908160008201548152602001600182018054610c859061214d565b80601f0160208091040260200160405190810160405280929190818152602001828054610cb19061214d565b8015610cfe5780601f10610cd357610100808354040283529160200191610cfe565b820191906000526020600020905b815481529060010190602001808311610ce157829003601f168201915b50505050508152602001600282018054610d179061214d565b80601f0160208091040260200160405190810160405280929190818152602001828054610d439061214d565b8015610d905780601f10610d6557610100808354040283529160200191610d90565b820191906000526020600020905b815481529060010190602001808311610d7357829003601f168201915b5050505050815260200160038201548152602001600482015481525050905090565b6000600960009054906101000a900473ffffffffffffffffffffffffffffffffffffffff1673ffffffffffffffffffffffffffffffffffffffff163373ffffffffffffffffffffffffffffffffffffffff1614610e44576040517f08c379a0000000000000000000000000000000000000000000000000000000008152600401610e3b90612432565b60405180910390fd5b600d60019054906101000a900473ffffffffffffffffffffffffffffffffffffffff16905090565b60006002811115610e8057610e7f611a6a565b5b610e88610885565b6002811115610e9a57610e99611a6a565b5b14610eda576040517f08c379a0000000000000000000000000000000000000000000000000000000008152600401610ed19061251d565b60405180910390fd5b600d60019054906101000a900473ffffffffffffffffffffffffffffffffffffffff1673ffffffffffffffffffffffffffffffffffffffff1663a1818ac4858585856040518563ffffffff1660e01b8152600401610f3b949392919061253d565b600060405180830381600087803b158015610f5557600080fd5b505af1158015610f69573d6000803e3d6000fd5b50505050600b6000815480929190610f8090612339565b91905055507fd589db416dab4dff131e94610b2d02ce215ded85a2943a2ea59acd2153a85182600d60019054906101000a900473ffffffffffffffffffffffffffffffffffffffff166007600086815260200190815260200160002084604051610fec939291906126b1565b60405180910390a150505050565b606060028081111561100f5761100e611a6a565b5b611017610885565b600281111561102957611028611a6a565b5b14611069576040517f08c379a000000000000000000000000000000000000000000000000000000000815260040161106090612761565b60405180910390fd5b60001515600d60009054906101000a900460ff161515141561120f57600e60009054906101000a900473ffffffffffffffffffffffffffffffffffffffff1673ffffffffffffffffffffffffffffffffffffffff1663c8344a20600d60019054906101000a900473ffffffffffffffffffffffffffffffffffffffff16600b546040518363ffffffff1660e01b81526004016111069291906127e0565b6000604051808303816000875af1158015611125573d6000803e3d6000fd5b505050506040513d6000823e3d601f19601f8201168201806040525081019061114e91906128b5565b60069080519060200190611163929190611529565b506001600d60006101000a81548160ff0219169083151502179055507f28e5f582afeee46fd13ea548ad814f45b1d4a5159990336d5e66deb48a960e4c60066040516111af91906129a3565b60405180910390a1600680548060200260200160405190810160405280929190818152602001828054801561120357602002820191906000526020600020905b8154815260200190600101908083116111ef575b5050505050905061121a565b61121761121d565b90505b90565b606060011515600d60009054906101000a900460ff16151514611275576040517f08c379a000000000000000000000000000000000000000000000000000000000815260040161126c90612a11565b60405180910390fd5b60068054806020026020016040519081016040528092919081815260200182805480156112c157602002820191906000526020600020905b8154815260200190600101908083116112ad575b5050505050905090565b6000600960009054906101000a900473ffffffffffffffffffffffffffffffffffffffff16905090565b600960009054906101000a900473ffffffffffffffffffffffffffffffffffffffff1673ffffffffffffffffffffffffffffffffffffffff163373ffffffffffffffffffffffffffffffffffffffff1614611385576040517f08c379a000000000000000000000000000000000000000000000000000000000815260040161137c90612432565b60405180910390fd5b6001600281111561139957611398611a6a565b5b6113a1610885565b60028111156113b3576113b2611a6a565b5b146113f3576040517f08c379a00000000000000000000000000000000000000000000000000000000081526004016113ea90612aa3565b60405180910390fd5b806000808201518160000155602082015181600101908051906020019061141b929190611453565b506040820151816002019080519060200190611438929190611453565b50606082015181600301556080820151816004015590505050565b82805461145f9061214d565b90600052602060002090601f01602090048101928261148157600085556114c8565b82601f1061149a57805160ff19168380011785556114c8565b828001600101855582156114c8579182015b828111156114c75782518255916020019190600101906114ac565b5b5090506114d59190611576565b5090565b60405180606001604052806000815260200160608152602001606081525090565b6040518060a0016040528060008152602001606081526020016060815260200160008152602001600081525090565b828054828255906000526020600020908101928215611565579160200282015b82811115611564578251825591602001919060010190611549565b5b5090506115729190611576565b5090565b5b8082111561158f576000816000905550600101611577565b5090565b600081519050919050565b600082825260208201905092915050565b6000819050602082019050919050565b6000819050919050565b6115d2816115bf565b82525050565b600081519050919050565b600082825260208201905092915050565b60005b838110156116125780820151818401526020810190506115f7565b83811115611621576000848401525b50505050565b6000601f19601f8301169050919050565b6000611643826115d8565b61164d81856115e3565b935061165d8185602086016115f4565b61166681611627565b840191505092915050565b600060608301600083015161168960008601826115c9565b50602083015184820360208601526116a18282611638565b915050604083015184820360408601526116bb8282611638565b9150508091505092915050565b60006116d48383611671565b905092915050565b6000602082019050919050565b60006116f482611593565b6116fe818561159e565b935083602082028501611710856115af565b8060005b8581101561174c578484038952815161172d85826116c8565b9450611738836116dc565b925060208a01995050600181019050611714565b50829750879550505050505092915050565b6000602082019050818103600083015261177881846116e9565b905092915050565b611789816115bf565b82525050565b60006020820190506117a46000830184611780565b92915050565b6000604051905090565b600080fd5b600080fd5b600080fd5b7f4e487b7100000000000000000000000000000000000000000000000000000000600052604160045260246000fd5b6117fb82611627565b810181811067ffffffffffffffff8211171561181a576118196117c3565b5b80604052505050565b600061182d6117aa565b905061183982826117f2565b919050565b600080fd5b61184c816115bf565b811461185757600080fd5b50565b60008135905061186981611843565b92915050565b600080fd5b600080fd5b600067ffffffffffffffff821115611894576118936117c3565b5b61189d82611627565b9050602081019050919050565b82818337600083830152505050565b60006118cc6118c784611879565b611823565b9050828152602081018484840111156118e8576118e7611874565b5b6118f38482856118aa565b509392505050565b600082601f8301126119105761190f61186f565b5b81356119208482602086016118b9565b91505092915050565b60006060828403121561193f5761193e6117be565b5b6119496060611823565b905060006119598482850161185a565b600083015250602082013567ffffffffffffffff81111561197d5761197c61183e565b5b611989848285016118fb565b602083015250604082013567ffffffffffffffff8111156119ad576119ac61183e565b5b6119b9848285016118fb565b60408301525092915050565b6000602082840312156119db576119da6117b4565b5b600082013567ffffffffffffffff8111156119f9576119f86117b9565b5b611a0584828501611929565b91505092915050565b600073ffffffffffffffffffffffffffffffffffffffff82169050919050565b6000611a3982611a0e565b9050919050565b611a4981611a2e565b82525050565b6000602082019050611a646000830184611a40565b92915050565b7f4e487b7100000000000000000000000000000000000000000000000000000000600052602160045260246000fd5b60038110611aaa57611aa9611a6a565b5b50565b6000819050611abb82611a99565b919050565b6000611acb82611aad565b9050919050565b611adb81611ac0565b82525050565b6000602082019050611af66000830184611ad2565b92915050565b611b0581611a2e565b8114611b1057600080fd5b50565b600081359050611b2281611afc565b92915050565b600060208284031215611b3e57611b3d6117b4565b5b6000611b4c84828501611b13565b91505092915050565b60008115159050919050565b611b6a81611b55565b82525050565b6000602082019050611b856000830184611b61565b92915050565b600060a08284031215611ba157611ba06117be565b5b611bab60a0611823565b90506000611bbb8482850161185a565b600083015250602082013567ffffffffffffffff811115611bdf57611bde61183e565b5b611beb848285016118fb565b602083015250604082013567ffffffffffffffff811115611c0f57611c0e61183e565b5b611c1b848285016118fb565b6040830152506060611c2f8482850161185a565b6060830152506080611c438482850161185a565b60808301525092915050565b6000611c5a82611a2e565b9050919050565b611c6a81611c4f565b8114611c7557600080fd5b50565b600081359050611c8781611c61565b92915050565b6000611c9882611a2e565b9050919050565b611ca881611c8d565b8114611cb357600080fd5b50565b600081359050611cc581611c9f565b92915050565b60008060008060008060c08789031215611ce857611ce76117b4565b5b600087013567ffffffffffffffff811115611d0657611d056117b9565b5b611d1289828a01611b8b565b9650506020611d2389828a01611c78565b9550506040611d3489828a01611cb6565b9450506060611d4589828a01611b13565b9350506080611d5689828a01611b13565b92505060a0611d6789828a0161185a565b9150509295509295509295565b600060208284031215611d8a57611d896117b4565b5b6000611d988482850161185a565b91505092915050565b6000606083016000830151611db960008601826115c9565b5060208301518482036020860152611dd18282611638565b91505060408301518482036040860152611deb8282611638565b9150508091505092915050565b60006020820190508181036000830152611e128184611da1565b905092915050565b600060a083016000830151611e3260008601826115c9565b5060208301518482036020860152611e4a8282611638565b91505060408301518482036040860152611e648282611638565b9150506060830151611e7960608601826115c9565b506080830151611e8c60808601826115c9565b508091505092915050565b60006020820190508181036000830152611eb18184611e1a565b905092915050565b600067ffffffffffffffff821115611ed457611ed36117c3565b5b602082029050602081019050919050565b600080fd5b6000611efd611ef884611eb9565b611823565b90508083825260208201905060208402830185811115611f2057611f1f611ee5565b5b835b81811015611f495780611f35888261185a565b845260208401935050602081019050611f22565b5050509392505050565b600082601f830112611f6857611f6761186f565b5b8135611f78848260208601611eea565b91505092915050565b60008060008060808587031215611f9b57611f9a6117b4565b5b6000611fa987828801611b13565b9450506020611fba8782880161185a565b9350506040611fcb8782880161185a565b925050606085013567ffffffffffffffff811115611fec57611feb6117b9565b5b611ff887828801611f53565b91505092959194509250565b600081519050919050565b600082825260208201905092915050565b6000819050602082019050919050565b600061203c83836115c9565b60208301905092915050565b6000602082019050919050565b600061206082612004565b61206a818561200f565b935061207583612020565b8060005b838110156120a657815161208d8882612030565b975061209883612048565b925050600181019050612079565b5085935050505092915050565b600060208201905081810360008301526120cd8184612055565b905092915050565b6000602082840312156120eb576120ea6117b4565b5b600082013567ffffffffffffffff811115612109576121086117b9565b5b61211584828501611b8b565b91505092915050565b7f4e487b7100000000000000000000000000000000000000000000000000000000600052602260045260246000fd5b6000600282049050600182168061216557607f821691505b602082108114156121795761217861211e565b5b50919050565b600082825260208201905092915050565b7f4d7573742062652063616c6c65642066726f6d2074686520656c656374696f6e60008201527f206f7267616e697a657220636f6e747261637400000000000000000000000000602082015250565b60006121ec60338361217f565b91506121f782612190565b604082019050919050565b6000602082019050818103600083015261221b816121df565b9050919050565b7f43616e6e6f74206164642063616e6469646174657320616674657220656c656360008201527f74696f6e20686173207374617274656400000000000000000000000000000000602082015250565b600061227e60308361217f565b915061228982612222565b604082019050919050565b600060208201905081810360008301526122ad81612271565b9050919050565b7f4e487b7100000000000000000000000000000000000000000000000000000000600052601160045260246000fd5b60006122ee826115bf565b91506122f9836115bf565b9250827fffffffffffffffffffffffffffffffffffffffffffffffffffffffffffffffff0382111561232e5761232d6122b4565b5b828201905092915050565b6000612344826115bf565b91507fffffffffffffffffffffffffffffffffffffffffffffffffffffffffffffffff821415612377576123766122b4565b5b600182019050919050565b60006060820190506123976000830186611a40565b6123a46020830185611a40565b81810360408301526123b68184611da1565b9050949350505050565b7f43616c6c6572206d7573742062652074686520656c656374696f6e206f72676160008201527f6e697a6572000000000000000000000000000000000000000000000000000000602082015250565b600061241c60258361217f565b9150612427826123c0565b604082019050919050565b6000602082019050818103600083015261244b8161240f565b9050919050565b61245b81611b55565b811461246657600080fd5b50565b60008151905061247881612452565b92915050565b600060208284031215612494576124936117b4565b5b60006124a284828501612469565b91505092915050565b7f456c656374696f6e206e6565647320746f2062652061637469766520746f207660008201527f6f74650000000000000000000000000000000000000000000000000000000000602082015250565b600061250760238361217f565b9150612512826124ab565b604082019050919050565b60006020820190508181036000830152612536816124fa565b9050919050565b60006080820190506125526000830187611a40565b61255f6020830186611780565b61256c6040830185611780565b818103606083015261257e8184612055565b905095945050505050565b60008160001c9050919050565b6000819050919050565b60006125b36125ae83612589565b612596565b9050919050565b60008190508160005260206000209050919050565b600081546125dc8161214d565b6125e681866115e3565b94506001821660008114612601576001811461261357612646565b60ff1983168652602086019350612646565b61261c856125ba565b60005b8381101561263e5781548189015260018201915060208101905061261f565b808801955050505b50505092915050565b6000606083016000808401549050612666816125a0565b61267360008701826115c9565b5060018401858303602087015261268a83826125cf565b9250506002840185830360408701526126a383826125cf565b925050819250505092915050565b60006060820190506126c66000830186611a40565b81810360208301526126d8818561264f565b90506126e76040830184611780565b949350505050565b7f526573756c747320617265206465636c61726564206f6e6c792061667465722060008201527f74686520656c656374696f6e20656e6473000000000000000000000000000000602082015250565b600061274b60318361217f565b9150612756826126ef565b604082019050919050565b6000602082019050818103600083015261277a8161273e565b9050919050565b6000819050919050565b60006127a66127a161279c84611a0e565b612781565b611a0e565b9050919050565b60006127b88261278b565b9050919050565b60006127ca826127ad565b9050919050565b6127da816127bf565b82525050565b60006040820190506127f560008301856127d1565b6128026020830184611780565b9392505050565b60008151905061281881611843565b92915050565b600061283161282c84611eb9565b611823565b9050808382526020820190506020840283018581111561285457612853611ee5565b5b835b8181101561287d57806128698882612809565b845260208401935050602081019050612856565b5050509392505050565b600082601f83011261289c5761289b61186f565b5b81516128ac84826020860161281e565b91505092915050565b6000602082840312156128cb576128ca6117b4565b5b600082015167ffffffffffffffff8111156128e9576128e86117b9565b5b6128f584828501612887565b91505092915050565b600081549050919050565b60008190508160005260206000209050919050565b600061292a82546125a0565b9050919050565b6000600182019050919050565b6000612949826128fe565b612953818561200f565b935061295e83612909565b8060005b83811015612996576129738261291e565b61297d8882612030565b975061298883612931565b925050600181019050612962565b5085935050505092915050565b600060208201905081810360008301526129bd818461293e565b905092915050565b7f526573756c7473206172656e2774206465636c61726564207965740000000000600082015250565b60006129fb601b8361217f565b9150612a06826129c5565b602082019050919050565b60006020820190508181036000830152612a2a816129ee565b9050919050565b7f43616e6e6f742075706461746520656c656374696f6e20696e666f206166746560008201527f7220656c656374696f6e20686173207374617274656400000000000000000000602082015250565b6000612a8d60368361217f565b9150612a9882612a31565b604082019050919050565b60006020820190508181036000830152612abc81612a80565b905091905056fea264697066735822122099e0a21f0209c3d560bac83815e5bfa08f3094fd0f40565caf975842d219d87764736f6c634300080a0033608060405234801561001057600080fd5b5061099c806100206000396000f3fe608060405234801561001057600080fd5b506004361061007d5760003560e01c8063a1818ac41161005b578063a1818ac414610100578063afa524081461011c578063de2e19a01461013a578063e844d0971461016a5761007d565b806306a49fce14610082578063521b0dcc146100a05780635df81330146100d0575b600080fd5b61008a610186565b60405161009791906103f8565b60405180910390f35b6100ba60048036038101906100b5919061048c565b6101de565b6040516100c791906104d4565b60405180910390f35b6100ea60048036038101906100e5919061051b565b610234565b6040516100f79190610557565b60405180910390f35b61011a600480360381019061011591906106cb565b61024c565b005b6101246102d8565b604051610131919061087f565b60405180910390f35b610154600480360381019061014f91906108a1565b6102e2565b6040516101619190610557565b60405180910390f35b610184600480360381019061017f919061051b565b610304565b005b606060008054806020026020016040519081016040528092919081815260200182805480156101d457602002820191906000526020600020905b8154815260200190600101908083116101c0575b5050505050905090565b6000600160008373ffffffffffffffffffffffffffffffffffffffff1673ffffffffffffffffffffffffffffffffffffffff16815260200190815260200160002060009054906101000a900460ff169050919050565b60026020528060005260406000206000915090505481565b6001915060016002600085815260200190815260200160002060008282546102749190610910565b9250508190555060018060008673ffffffffffffffffffffffffffffffffffffffff1673ffffffffffffffffffffffffffffffffffffffff16815260200190815260200160002060006101000a81548160ff02191690831515021790555050505050565b6060808091505090565b6000600191506002600084815260200190815260200160002054905092915050565b600081908060018154018082558091505060019003906000526020600020016000909190919091505550565b600081519050919050565b600082825260208201905092915050565b6000819050602082019050919050565b6000819050919050565b61036f8161035c565b82525050565b60006103818383610366565b60208301905092915050565b6000602082019050919050565b60006103a582610330565b6103af818561033b565b93506103ba8361034c565b8060005b838110156103eb5781516103d28882610375565b97506103dd8361038d565b9250506001810190506103be565b5085935050505092915050565b60006020820190508181036000830152610412818461039a565b905092915050565b6000604051905090565b600080fd5b600080fd5b600073ffffffffffffffffffffffffffffffffffffffff82169050919050565b60006104598261042e565b9050919050565b6104698161044e565b811461047457600080fd5b50565b60008135905061048681610460565b92915050565b6000602082840312156104a2576104a1610424565b5b60006104b084828501610477565b91505092915050565b60008115159050919050565b6104ce816104b9565b82525050565b60006020820190506104e960008301846104c5565b92915050565b6104f88161035c565b811461050357600080fd5b50565b600081359050610515816104ef565b92915050565b60006020828403121561053157610530610424565b5b600061053f84828501610506565b91505092915050565b6105518161035c565b82525050565b600060208201905061056c6000830184610548565b92915050565b600080fd5b6000601f19601f8301169050919050565b7f4e487b7100000000000000000000000000000000000000000000000000000000600052604160045260246000fd5b6105c082610577565b810181811067ffffffffffffffff821117156105df576105de610588565b5b80604052505050565b60006105f261041a565b90506105fe82826105b7565b919050565b600067ffffffffffffffff82111561061e5761061d610588565b5b602082029050602081019050919050565b600080fd5b600061064761064284610603565b6105e8565b9050808382526020820190506020840283018581111561066a5761066961062f565b5b835b81811015610693578061067f8882610506565b84526020840193505060208101905061066c565b5050509392505050565b600082601f8301126106b2576106b1610572565b5b81356106c2848260208601610634565b91505092915050565b600080600080608085870312156106e5576106e4610424565b5b60006106f387828801610477565b945050602061070487828801610506565b935050604061071587828801610506565b925050606085013567ffffffffffffffff81111561073657610735610429565b5b6107428782880161069d565b91505092959194509250565b600081519050919050565b600082825260208201905092915050565b6000819050602082019050919050565b600082825260208201905092915050565b600061079682610330565b6107a0818561077a565b93506107ab8361034c565b8060005b838110156107dc5781516107c38882610375565b97506107ce8361038d565b9250506001810190506107af565b5085935050505092915050565b60006107f5838361078b565b905092915050565b6000602082019050919050565b60006108158261074e565b61081f8185610759565b9350836020820285016108318561076a565b8060005b8581101561086d578484038952815161084e85826107e9565b9450610859836107fd565b925060208a01995050600181019050610835565b50829750879550505050505092915050565b60006020820190508181036000830152610899818461080a565b905092915050565b600080604083850312156108b8576108b7610424565b5b60006108c685828601610506565b92505060206108d785828601610506565b9150509250929050565b7f4e487b7100000000000000000000000000000000000000000000000000000000600052601160045260246000fd5b600061091b8261035c565b91506109268361035c565b9250827fffffffffffffffffffffffffffffffffffffffffffffffffffffffffffffffff0382111561095b5761095a6108e1565b5b82820190509291505056fea264697066735822122031b862c4a6decc3d3c552b05713dbabb48458b93b0082777e18cff6b23b9d2d164736f6c634300080a0033608060405234801561001057600080fd5b50610dbe806100206000396000f3fe608060405234801561001057600080fd5b50600436106100625760003560e01c806306a49fce14610067578063521b0dcc14610085578063a1818ac4146100b5578063afa52408146100d1578063de2e19a0146100ef578063e844d0971461011f575b600080fd5b61006f61013b565b60405161007c9190610679565b60405180910390f35b61009f600480360381019061009a919061070d565b610193565b6040516100ac9190610755565b60405180910390f35b6100cf60048036038101906100ca91906108f5565b6101e9565b005b6100d961054c565b6040516100e69190610aa9565b60405180910390f35b61010960048036038101906101049190610acb565b610556565b6040516101169190610b1a565b60405180910390f35b61013960048036038101906101349190610b35565b610585565b005b6060600080548060200260200160405190810160405280929190818152602001828054801561018957602002820191906000526020600020905b815481526020019060010190808311610175575b5050505050905090565b6000600160008373ffffffffffffffffffffffffffffffffffffffff1673ffffffffffffffffffffffffffffffffffffffff16815260200190815260200160002060009054906101000a900460ff169050919050565b60001515600160008673ffffffffffffffffffffffffffffffffffffffff1673ffffffffffffffffffffffffffffffffffffffff16815260200190815260200160002060009054906101000a900460ff1615151461027c576040517f08c379a000000000000000000000000000000000000000000000000000000000815260040161027390610bbf565b60405180910390fd5b60001515600360008673ffffffffffffffffffffffffffffffffffffffff1673ffffffffffffffffffffffffffffffffffffffff168152602001908152602001600020600085815260200190815260200160002060009054906101000a900460ff16151514610320576040517f08c379a000000000000000000000000000000000000000000000000000000000815260040161031790610c51565b60405180910390fd5b600080549050600460008673ffffffffffffffffffffffffffffffffffffffff1673ffffffffffffffffffffffffffffffffffffffff16815260200190815260200160002054106103a6576040517f08c379a000000000000000000000000000000000000000000000000000000000815260040161039d90610ce3565b60405180910390fd5b600160026000848152602001908152602001600020600085815260200190815260200160002060008282546103db9190610d32565b925050819055506001600460008673ffffffffffffffffffffffffffffffffffffffff1673ffffffffffffffffffffffffffffffffffffffff16815260200190815260200160002060008282546104329190610d32565b925050819055506001600360008673ffffffffffffffffffffffffffffffffffffffff1673ffffffffffffffffffffffffffffffffffffffff168152602001908152602001600020600085815260200190815260200160002060006101000a81548160ff021916908315150217905550600080549050600460008673ffffffffffffffffffffffffffffffffffffffff1673ffffffffffffffffffffffffffffffffffffffff1681526020019081526020016000205414156105465760018060008673ffffffffffffffffffffffffffffffffffffffff1673ffffffffffffffffffffffffffffffffffffffff16815260200190815260200160002060006101000a81548160ff0219169083151502179055505b50505050565b6060808091505090565b600060026000838152602001908152602001600020600084815260200190815260200160002054905092915050565b600081908060018154018082558091505060019003906000526020600020016000909190919091505550565b600081519050919050565b600082825260208201905092915050565b6000819050602082019050919050565b6000819050919050565b6105f0816105dd565b82525050565b600061060283836105e7565b60208301905092915050565b6000602082019050919050565b6000610626826105b1565b61063081856105bc565b935061063b836105cd565b8060005b8381101561066c57815161065388826105f6565b975061065e8361060e565b92505060018101905061063f565b5085935050505092915050565b60006020820190508181036000830152610693818461061b565b905092915050565b6000604051905090565b600080fd5b600080fd5b600073ffffffffffffffffffffffffffffffffffffffff82169050919050565b60006106da826106af565b9050919050565b6106ea816106cf565b81146106f557600080fd5b50565b600081359050610707816106e1565b92915050565b600060208284031215610723576107226106a5565b5b6000610731848285016106f8565b91505092915050565b60008115159050919050565b61074f8161073a565b82525050565b600060208201905061076a6000830184610746565b92915050565b610779816105dd565b811461078457600080fd5b50565b60008135905061079681610770565b92915050565b600080fd5b6000601f19601f8301169050919050565b7f4e487b7100000000000000000000000000000000000000000000000000000000600052604160045260246000fd5b6107ea826107a1565b810181811067ffffffffffffffff82111715610809576108086107b2565b5b80604052505050565b600061081c61069b565b905061082882826107e1565b919050565b600067ffffffffffffffff821115610848576108476107b2565b5b602082029050602081019050919050565b600080fd5b600061087161086c8461082d565b610812565b9050808382526020820190506020840283018581111561089457610893610859565b5b835b818110156108bd57806108a98882610787565b845260208401935050602081019050610896565b5050509392505050565b600082601f8301126108dc576108db61079c565b5b81356108ec84826020860161085e565b91505092915050565b6000806000806080858703121561090f5761090e6106a5565b5b600061091d878288016106f8565b945050602061092e87828801610787565b935050604061093f87828801610787565b925050606085013567ffffffffffffffff8111156109605761095f6106aa565b5b61096c878288016108c7565b91505092959194509250565b600081519050919050565b600082825260208201905092915050565b6000819050602082019050919050565b600082825260208201905092915050565b60006109c0826105b1565b6109ca81856109a4565b93506109d5836105cd565b8060005b83811015610a065781516109ed88826105f6565b97506109f88361060e565b9250506001810190506109d9565b5085935050505092915050565b6000610a1f83836109b5565b905092915050565b6000602082019050919050565b6000610a3f82610978565b610a498185610983565b935083602082028501610a5b85610994565b8060005b85811015610a975784840389528151610a788582610a13565b9450610a8383610a27565b925060208a01995050600181019050610a5f565b50829750879550505050505092915050565b60006020820190508181036000830152610ac38184610a34565b905092915050565b60008060408385031215610ae257610ae16106a5565b5b6000610af085828601610787565b9250506020610b0185828601610787565b9150509250929050565b610b14816105dd565b82525050565b6000602082019050610b2f6000830184610b0b565b92915050565b600060208284031215610b4b57610b4a6106a5565b5b6000610b5984828501610787565b91505092915050565b600082825260208201905092915050565b7f566f74657220616c726561647920766f74656400000000000000000000000000600082015250565b6000610ba9601383610b62565b9150610bb482610b73565b602082019050919050565b60006020820190508181036000830152610bd881610b9c565b9050919050565b7f566f74657220616c726561647920766f74656420666f7220746869732063616e60008201527f6469646174650000000000000000000000000000000000000000000000000000602082015250565b6000610c3b602683610b62565b9150610c4682610bdf565b604082019050919050565b60006020820190508181036000830152610c6a81610c2e565b9050919050565b7f4d617820766f74657320616c72656164792063617374656420627920766f746560008201527f7200000000000000000000000000000000000000000000000000000000000000602082015250565b6000610ccd602183610b62565b9150610cd882610c71565b604082019050919050565b60006020820190508181036000830152610cfc81610cc0565b9050919050565b7f4e487b7100000000000000000000000000000000000000000000000000000000600052601160045260246000fd5b6000610d3d826105dd565b9150610d48836105dd565b9250827fffffffffffffffffffffffffffffffffffffffffffffffffffffffffffffffff03821115610d7d57610d7c610d03565b5b82820190509291505056fea2646970667358221220175350967493426043f6f3e273f66530c4bda1af612229ef72466b72f88a067664736f6c634300080a0033608060405234801561001057600080fd5b50610c4c806100206000396000f3fe608060405234801561001057600080fd5b50600436106100625760003560e01c806306a49fce14610067578063521b0dcc14610085578063a1818ac4146100b5578063afa52408146100d1578063de2e19a0146100ef578063e844d0971461011f575b600080fd5b61006f61013b565b60405161007c919061062b565b60405180910390f35b61009f600480360381019061009a91906106bf565b610193565b6040516100ac9190610707565b60405180910390f35b6100cf60048036038101906100ca91906108a7565b6101e9565b005b6100d9610422565b6040516100e69190610a5b565b60405180910390f35b61010960048036038101906101049190610a7d565b6104c1565b6040516101169190610acc565b60405180910390f35b61013960048036038101906101349190610ae7565b6104cd565b005b6060600080548060200260200160405190810160405280929190818152602001828054801561018957602002820191906000526020600020905b815481526020019060010190808311610175575b5050505050905090565b6000600160008373ffffffffffffffffffffffffffffffffffffffff1673ffffffffffffffffffffffffffffffffffffffff16815260200190815260200160002060009054906101000a900460ff169050919050565b60001515600160008673ffffffffffffffffffffffffffffffffffffffff1673ffffffffffffffffffffffffffffffffffffffff16815260200190815260200160002060009054906101000a900460ff1615151461027c576040517f08c379a000000000000000000000000000000000000000000000000000000000815260040161027390610b71565b60405180910390fd5b6002819080600181540180825580915050600190039060005260206000200160009091909190915090805190602001906102b79291906104f9565b506001600460008673ffffffffffffffffffffffffffffffffffffffff1673ffffffffffffffffffffffffffffffffffffffff16815260200190815260200160002060008282546103089190610bc0565b925050819055506001600360008673ffffffffffffffffffffffffffffffffffffffff1673ffffffffffffffffffffffffffffffffffffffff168152602001908152602001600020600085815260200190815260200160002060006101000a81548160ff021916908315150217905550600080549050600460008673ffffffffffffffffffffffffffffffffffffffff1673ffffffffffffffffffffffffffffffffffffffff16815260200190815260200160002054141561041c5760018060008673ffffffffffffffffffffffffffffffffffffffff1673ffffffffffffffffffffffffffffffffffffffff16815260200190815260200160002060006101000a81548160ff0219169083151502179055505b50505050565b60606002805480602002602001604051908101604052809291908181526020016000905b828210156104b8578382906000526020600020018054806020026020016040519081016040528092919081815260200182805480156104a457602002820191906000526020600020905b815481526020019060010190808311610490575b505050505081526020019060010190610446565b50505050905090565b60006001905092915050565b600081908060018154018082558091505060019003906000526020600020016000909190919091505550565b828054828255906000526020600020908101928215610535579160200282015b82811115610534578251825591602001919060010190610519565b5b5090506105429190610546565b5090565b5b8082111561055f576000816000905550600101610547565b5090565b600081519050919050565b600082825260208201905092915050565b6000819050602082019050919050565b6000819050919050565b6105a28161058f565b82525050565b60006105b48383610599565b60208301905092915050565b6000602082019050919050565b60006105d882610563565b6105e2818561056e565b93506105ed8361057f565b8060005b8381101561061e57815161060588826105a8565b9750610610836105c0565b9250506001810190506105f1565b5085935050505092915050565b6000602082019050818103600083015261064581846105cd565b905092915050565b6000604051905090565b600080fd5b600080fd5b600073ffffffffffffffffffffffffffffffffffffffff82169050919050565b600061068c82610661565b9050919050565b61069c81610681565b81146106a757600080fd5b50565b6000813590506106b981610693565b92915050565b6000602082840312156106d5576106d4610657565b5b60006106e3848285016106aa565b91505092915050565b60008115159050919050565b610701816106ec565b82525050565b600060208201905061071c60008301846106f8565b92915050565b61072b8161058f565b811461073657600080fd5b50565b60008135905061074881610722565b92915050565b600080fd5b6000601f19601f8301169050919050565b7f4e487b7100000000000000000000000000000000000000000000000000000000600052604160045260246000fd5b61079c82610753565b810181811067ffffffffffffffff821117156107bb576107ba610764565b5b80604052505050565b60006107ce61064d565b90506107da8282610793565b919050565b600067ffffffffffffffff8211156107fa576107f9610764565b5b602082029050602081019050919050565b600080fd5b600061082361081e846107df565b6107c4565b905080838252602082019050602084028301858111156108465761084561080b565b5b835b8181101561086f578061085b8882610739565b845260208401935050602081019050610848565b5050509392505050565b600082601f83011261088e5761088d61074e565b5b813561089e848260208601610810565b91505092915050565b600080600080608085870312156108c1576108c0610657565b5b60006108cf878288016106aa565b94505060206108e087828801610739565b93505060406108f187828801610739565b925050606085013567ffffffffffffffff8111156109125761091161065c565b5b61091e87828801610879565b91505092959194509250565b600081519050919050565b600082825260208201905092915050565b6000819050602082019050919050565b600082825260208201905092915050565b600061097282610563565b61097c8185610956565b93506109878361057f565b8060005b838110156109b857815161099f88826105a8565b97506109aa836105c0565b92505060018101905061098b565b5085935050505092915050565b60006109d18383610967565b905092915050565b6000602082019050919050565b60006109f18261092a565b6109fb8185610935565b935083602082028501610a0d85610946565b8060005b85811015610a495784840389528151610a2a85826109c5565b9450610a35836109d9565b925060208a01995050600181019050610a11565b50829750879550505050505092915050565b60006020820190508181036000830152610a7581846109e6565b905092915050565b60008060408385031215610a9457610a93610657565b5b6000610aa285828601610739565b9250506020610ab385828601610739565b9150509250929050565b610ac68161058f565b82525050565b6000602082019050610ae16000830184610abd565b92915050565b600060208284031215610afd57610afc610657565b5b6000610b0b84828501610739565b91505092915050565b600082825260208201905092915050565b7f566f74657220616c726561647920766f74656400000000000000000000000000600082015250565b6000610b5b601383610b14565b9150610b6682610b25565b602082019050919050565b60006020820190508181036000830152610b8a81610b4e565b9050919050565b7f4e487b7100000000000000000000000000000000000000000000000000000000600052601160045260246000fd5b6000610bcb8261058f565b9150610bd68361058f565b9250827fffffffffffffffffffffffffffffffffffffffffffffffffffffffffffffffff03821115610c0b57610c0a610b91565b5b82820190509291505056fea2646970667358221220362c2fd06a4fd7c1e31b41fe4da6bc3e4f2d044fd0410115293ecff11ca85ac264736f6c634300080a0033608060405234801561001057600080fd5b50610a00806100206000396000f3fe608060405234801561001057600080fd5b506004361061002b5760003560e01c8063c8344a2014610030575b600080fd5b61004a60048036038101906100459190610542565b610060565b6040516100579190610640565b60405180910390f35b6060600067ffffffffffffffff81111561007d5761007c610662565b5b6040519080825280602002602001820160405280156100ab5781602001602082028036833780820191505090505b50600090805190602001906100c192919061041e565b5060008373ffffffffffffffffffffffffffffffffffffffff166306a49fce6040518163ffffffff1660e01b8152600401600060405180830381865afa15801561010f573d6000803e3d6000fd5b505050506040513d6000823e3d601f19601f8201168201806040525081019061013891906107d0565b905060008151905060008060005b838110156102ba578773ffffffffffffffffffffffffffffffffffffffff1663de2e19a086838151811061017d5761017c610819565b5b602002602001015160016040518363ffffffff1660e01b81526004016101a492919061089c565b602060405180830381865afa1580156101c1573d6000803e3d6000fd5b505050506040513d601f19601f820116820180604052508101906101e591906108c5565b9150828211156101f3578192505b6002876102009190610950565b8311156102a757600085828151811061021c5761021b610819565b5b60200260200101519080600181540180825580915050600190039060005260206000200160009091909190915055600080548060200260200160405190810160405280929190818152602001828054801561029657602002820191906000526020600020905b815481526020019060010190808311610282575b505050505095505050505050610418565b80806102b290610981565b915050610146565b600090505b838110156103bf578773ffffffffffffffffffffffffffffffffffffffff1663de2e19a08683815181106102f6576102f5610819565b5b602002602001015160016040518363ffffffff1660e01b815260040161031d92919061089c565b602060405180830381865afa15801561033a573d6000803e3d6000fd5b505050506040513d601f19601f8201168201806040525081019061035e91906108c5565b9150828214156103ac57600085828151811061037d5761037c610819565b5b602002602001015190806001815401808255809150506001900390600052602060002001600090919091909150555b80806103b790610981565b9150506102bf565b600080548060200260200160405190810160405280929190818152602001828054801561040b57602002820191906000526020600020905b8154815260200190600101908083116103f7575b5050505050955050505050505b92915050565b82805482825590600052602060002090810192821561045a579160200282015b8281111561045957825182559160200191906001019061043e565b5b509050610467919061046b565b5090565b5b8082111561048457600081600090555060010161046c565b5090565b6000604051905090565b600080fd5b600080fd5b600073ffffffffffffffffffffffffffffffffffffffff82169050919050565b60006104c78261049c565b9050919050565b60006104d9826104bc565b9050919050565b6104e9816104ce565b81146104f457600080fd5b50565b600081359050610506816104e0565b92915050565b6000819050919050565b61051f8161050c565b811461052a57600080fd5b50565b60008135905061053c81610516565b92915050565b6000806040838503121561055957610558610492565b5b6000610567858286016104f7565b92505060206105788582860161052d565b9150509250929050565b600081519050919050565b600082825260208201905092915050565b6000819050602082019050919050565b6105b78161050c565b82525050565b60006105c983836105ae565b60208301905092915050565b6000602082019050919050565b60006105ed82610582565b6105f7818561058d565b93506106028361059e565b8060005b8381101561063357815161061a88826105bd565b9750610625836105d5565b925050600181019050610606565b5085935050505092915050565b6000602082019050818103600083015261065a81846105e2565b905092915050565b7f4e487b7100000000000000000000000000000000000000000000000000000000600052604160045260246000fd5b600080fd5b6000601f19601f8301169050919050565b6106b082610696565b810181811067ffffffffffffffff821117156106cf576106ce610662565b5b80604052505050565b60006106e2610488565b90506106ee82826106a7565b919050565b600067ffffffffffffffff82111561070e5761070d610662565b5b602082029050602081019050919050565b600080fd5b60008151905061073381610516565b92915050565b600061074c610747846106f3565b6106d8565b9050808382526020820190506020840283018581111561076f5761076e61071f565b5b835b8181101561079857806107848882610724565b845260208401935050602081019050610771565b5050509392505050565b600082601f8301126107b7576107b6610691565b5b81516107c7848260208601610739565b91505092915050565b6000602082840312156107e6576107e5610492565b5b600082015167ffffffffffffffff81111561080457610803610497565b5b610810848285016107a2565b91505092915050565b7f4e487b7100000000000000000000000000000000000000000000000000000000600052603260045260246000fd5b6108518161050c565b82525050565b6000819050919050565b6000819050919050565b600061088661088161087c84610857565b610861565b61050c565b9050919050565b6108968161086b565b82525050565b60006040820190506108b16000830185610848565b6108be602083018461088d565b9392505050565b6000602082840312156108db576108da610492565b5b60006108e984828501610724565b91505092915050565b7f4e487b7100000000000000000000000000000000000000000000000000000000600052601260045260246000fd5b7f4e487b7100000000000000000000000000000000000000000000000000000000600052601160045260246000fd5b600061095b8261050c565b91506109668361050c565b925082610976576109756108f2565b5b828204905092915050565b600061098c8261050c565b91507fffffffffffffffffffffffffffffffffffffffffffffffffffffffffffffffff8214156109bf576109be610921565b5b60018201905091905056fea26469706673582212202161ce163b37511478b312734ed053dca95e95099dfdb45988deee192a90d75964736f6c634300080a0033608060405234801561001057600080fd5b50610a6b806100206000396000f3fe608060405234801561001057600080fd5b506004361061002b5760003560e01c8063c8344a2014610030575b600080fd5b61004a6004803603810190610045919061059c565b610060565b604051610057919061069a565b60405180910390f35b6060600067ffffffffffffffff81111561007d5761007c6106bc565b5b6040519080825280602002602001820160405280156100ab5781602001602082028036833780820191505090505b50600190805190602001906100c1929190610478565b5082600560006101000a81548173ffffffffffffffffffffffffffffffffffffffff021916908373ffffffffffffffffffffffffffffffffffffffff1602179055506002826101109190610749565b600481905550600560009054906101000a900473ffffffffffffffffffffffffffffffffffffffff1673ffffffffffffffffffffffffffffffffffffffff166306a49fce6040518163ffffffff1660e01b8152600401600060405180830381865afa158015610183573d6000803e3d6000fd5b505050506040513d6000823e3d601f19601f820116820180604052508101906101ac91906108b9565b600290805190602001906101c1929190610478565b50600280549050600381905550600080600191505b600354821015610227576101e9826102ab565b6101f16103e5565b905060045460008083815260200190815260200160002054111561021457610227565b818061021f90610902565b9250506101d6565b6001819080600181540180825580915050600190039060005260206000200160009091909190915055600180548060200260200160405190810160405280929190818152602001828054801561029c57602002820191906000526020600020905b815481526020019060010190808311610288575b50505050509250505092915050565b600080600091505b6003548210156103e057600560009054906101000a900473ffffffffffffffffffffffffffffffffffffffff1673ffffffffffffffffffffffffffffffffffffffff1663de2e19a06002848154811061030f5761030e61094b565b5b9060005260206000200154856040518363ffffffff1660e01b8152600401610338929190610989565b602060405180830381865afa158015610355573d6000803e3d6000fd5b505050506040513d601f19601f8201168201806040525081019061037991906109b2565b905082816103879190610749565b6000806002858154811061039e5761039d61094b565b5b9060005260206000200154815260200190815260200160002060008282546103c691906109df565b9250508190555081806103d890610902565b9250506102b3565b505050565b60008060008060008093505b60035484101561046e57600080600286815481106104125761041161094b565b5b906000526020600020015481526020019081526020016000205492508183111561045b578291506002848154811061044d5761044c61094b565b5b906000526020600020015490505b838061046690610902565b9450506103f1565b8094505050505090565b8280548282559060005260206000209081019282156104b4579160200282015b828111156104b3578251825591602001919060010190610498565b5b5090506104c191906104c5565b5090565b5b808211156104de5760008160009055506001016104c6565b5090565b6000604051905090565b600080fd5b600080fd5b600073ffffffffffffffffffffffffffffffffffffffff82169050919050565b6000610521826104f6565b9050919050565b600061053382610516565b9050919050565b61054381610528565b811461054e57600080fd5b50565b6000813590506105608161053a565b92915050565b6000819050919050565b61057981610566565b811461058457600080fd5b50565b60008135905061059681610570565b92915050565b600080604083850312156105b3576105b26104ec565b5b60006105c185828601610551565b92505060206105d285828601610587565b9150509250929050565b600081519050919050565b600082825260208201905092915050565b6000819050602082019050919050565b61061181610566565b82525050565b60006106238383610608565b60208301905092915050565b6000602082019050919050565b6000610647826105dc565b61065181856105e7565b935061065c836105f8565b8060005b8381101561068d5781516106748882610617565b975061067f8361062f565b925050600181019050610660565b5085935050505092915050565b600060208201905081810360008301526106b4818461063c565b905092915050565b7f4e487b7100000000000000000000000000000000000000000000000000000000600052604160045260246000fd5b7f4e487b7100000000000000000000000000000000000000000000000000000000600052601260045260246000fd5b7f4e487b7100000000000000000000000000000000000000000000000000000000600052601160045260246000fd5b600061075482610566565b915061075f83610566565b92508261076f5761076e6106eb565b5b828204905092915050565b600080fd5b6000601f19601f8301169050919050565b6107998261077f565b810181811067ffffffffffffffff821117156107b8576107b76106bc565b5b80604052505050565b60006107cb6104e2565b90506107d78282610790565b919050565b600067ffffffffffffffff8211156107f7576107f66106bc565b5b602082029050602081019050919050565b600080fd5b60008151905061081c81610570565b92915050565b6000610835610830846107dc565b6107c1565b9050808382526020820190506020840283018581111561085857610857610808565b5b835b81811015610881578061086d888261080d565b84526020840193505060208101905061085a565b5050509392505050565b600082601f8301126108a05761089f61077a565b5b81516108b0848260208601610822565b91505092915050565b6000602082840312156108cf576108ce6104ec565b5b600082015167ffffffffffffffff8111156108ed576108ec6104f1565b5b6108f98482850161088b565b91505092915050565b600061090d82610566565b91507fffffffffffffffffffffffffffffffffffffffffffffffffffffffffffffffff8214156109405761093f61071a565b5b600182019050919050565b7f4e487b7100000000000000000000000000000000000000000000000000000000600052603260045260246000fd5b61098381610566565b82525050565b600060408201905061099e600083018561097a565b6109ab602083018461097a565b9392505050565b6000602082840312156109c8576109c76104ec565b5b60006109d68482850161080d565b91505092915050565b60006109ea82610566565b91506109f583610566565b9250827fffffffffffffffffffffffffffffffffffffffffffffffffffffffffffffffff03821115610a2a57610a2961071a565b5b82820190509291505056fea2646970667358221220301dbadfbc7686af0c1b3e0c64257cfa584c1297c450e4c9f610b44b2dcac3a764736f6c634300080a0033608060405234801561001057600080fd5b50610d0e806100206000396000f3fe608060405234801561001057600080fd5b50600436106100415760003560e01c8063a2fb117514610046578063c5071fd314610076578063c8344a20146100a6575b600080fd5b610060600480360381019061005b919061051b565b6100d6565b60405161006d9190610557565b60405180910390f35b610090600480360381019061008b91906107ac565b6100fa565b60405161009d91906108e2565b60405180910390f35b6100c060048036038101906100bb9190610974565b610385565b6040516100cd91906108e2565b60405180910390f35b600081815481106100e657600080fd5b906000526020600020016000915090505481565b60606000825167ffffffffffffffff81111561011957610118610588565b5b6040519080825280602002602001820160405280156101475781602001602082028036833780820191505090505b50905060005b835181101561018b57600082828151811061016b5761016a6109b4565b5b6020026020010181815250506001816101849190610a12565b905061014d565b5060005b84518110156102465760005b8451811015610232578582815181106101b7576101b66109b4565b5b602002602001015181815181106101d1576101d06109b4565b5b6020026020010151600186516101e79190610a12565b6101f19190610a68565b838281518110610204576102036109b4565b5b602002602001018181516102189190610a12565b91508181525050808061022a90610a9c565b91505061019b565b50808061023e90610a9c565b91505061018f565b506000805b84518110156103295781838281518110610268576102676109b4565b5b602002602001015114156102a05760008190806001815401808255809150506001900390600052602060002001600090919091909150555b818382815181106102b4576102b36109b4565b5b60200260200101511115610316578281815181106102d5576102d46109b4565b5b602002602001015191506000806102ec9190610493565b60008190806001815401808255809150506001900390600052602060002001600090919091909150555b808061032190610a9c565b91505061024b565b50600080548060200260200160405190810160405280929190818152602001828054801561037657602002820191906000526020600020905b815481526020019060010190808311610362575b50505050509250505092915050565b606060008373ffffffffffffffffffffffffffffffffffffffff1663afa524086040518163ffffffff1660e01b81526004016000604051808303816000875af11580156103d6573d6000803e3d6000fd5b505050506040513d6000823e3d601f19601f820116820180604052508101906103ff9190610c46565b905060008473ffffffffffffffffffffffffffffffffffffffff166306a49fce6040518163ffffffff1660e01b8152600401600060405180830381865afa15801561044e573d6000803e3d6000fd5b505050506040513d6000823e3d601f19601f820116820180604052508101906104779190610c8f565b9050600061048583836100fa565b905080935050505092915050565b50805460008255906000526020600020908101906104b191906104b4565b50565b5b808211156104cd5760008160009055506001016104b5565b5090565b6000604051905090565b600080fd5b600080fd5b6000819050919050565b6104f8816104e5565b811461050357600080fd5b50565b600081359050610515816104ef565b92915050565b600060208284031215610531576105306104db565b5b600061053f84828501610506565b91505092915050565b610551816104e5565b82525050565b600060208201905061056c6000830184610548565b92915050565b600080fd5b6000601f19601f8301169050919050565b7f4e487b7100000000000000000000000000000000000000000000000000000000600052604160045260246000fd5b6105c082610577565b810181811067ffffffffffffffff821117156105df576105de610588565b5b80604052505050565b60006105f26104d1565b90506105fe82826105b7565b919050565b600067ffffffffffffffff82111561061e5761061d610588565b5b602082029050602081019050919050565b600080fd5b600067ffffffffffffffff82111561064f5761064e610588565b5b602082029050602081019050919050565b600061067361066e84610634565b6105e8565b905080838252602082019050602084028301858111156106965761069561062f565b5b835b818110156106bf57806106ab8882610506565b845260208401935050602081019050610698565b5050509392505050565b600082601f8301126106de576106dd610572565b5b81356106ee848260208601610660565b91505092915050565b600061070a61070584610603565b6105e8565b9050808382526020820190506020840283018581111561072d5761072c61062f565b5b835b8181101561077457803567ffffffffffffffff81111561075257610751610572565b5b80860161075f89826106c9565b8552602085019450505060208101905061072f565b5050509392505050565b600082601f83011261079357610792610572565b5b81356107a38482602086016106f7565b91505092915050565b600080604083850312156107c3576107c26104db565b5b600083013567ffffffffffffffff8111156107e1576107e06104e0565b5b6107ed8582860161077e565b925050602083013567ffffffffffffffff81111561080e5761080d6104e0565b5b61081a858286016106c9565b9150509250929050565b600081519050919050565b600082825260208201905092915050565b6000819050602082019050919050565b610859816104e5565b82525050565b600061086b8383610850565b60208301905092915050565b6000602082019050919050565b600061088f82610824565b610899818561082f565b93506108a483610840565b8060005b838110156108d55781516108bc888261085f565b97506108c783610877565b9250506001810190506108a8565b5085935050505092915050565b600060208201905081810360008301526108fc8184610884565b905092915050565b600073ffffffffffffffffffffffffffffffffffffffff82169050919050565b600061092f82610904565b9050919050565b600061094182610924565b9050919050565b61095181610936565b811461095c57600080fd5b50565b60008135905061096e81610948565b92915050565b6000806040838503121561098b5761098a6104db565b5b60006109998582860161095f565b92505060206109aa85828601610506565b9150509250929050565b7f4e487b7100000000000000000000000000000000000000000000000000000000600052603260045260246000fd5b7f4e487b7100000000000000000000000000000000000000000000000000000000600052601160045260246000fd5b6000610a1d826104e5565b9150610a28836104e5565b9250827fffffffffffffffffffffffffffffffffffffffffffffffffffffffffffffffff03821115610a5d57610a5c6109e3565b5b828201905092915050565b6000610a73826104e5565b9150610a7e836104e5565b925082821015610a9157610a906109e3565b5b828203905092915050565b6000610aa7826104e5565b91507fffffffffffffffffffffffffffffffffffffffffffffffffffffffffffffffff821415610ada57610ad96109e3565b5b600182019050919050565b600081519050610af4816104ef565b92915050565b6000610b0d610b0884610634565b6105e8565b90508083825260208201905060208402830185811115610b3057610b2f61062f565b5b835b81811015610b595780610b458882610ae5565b845260208401935050602081019050610b32565b5050509392505050565b600082601f830112610b7857610b77610572565b5b8151610b88848260208601610afa565b91505092915050565b6000610ba4610b9f84610603565b6105e8565b90508083825260208201905060208402830185811115610bc757610bc661062f565b5b835b81811015610c0e57805167ffffffffffffffff811115610bec57610beb610572565b5b808601610bf98982610b63565b85526020850194505050602081019050610bc9565b5050509392505050565b600082601f830112610c2d57610c2c610572565b5b8151610c3d848260208601610b91565b91505092915050565b600060208284031215610c5c57610c5b6104db565b5b600082015167ffffffffffffffff811115610c7a57610c796104e0565b5b610c8684828501610c18565b91505092915050565b600060208284031215610ca557610ca46104db565b5b600082015167ffffffffffffffff811115610cc357610cc26104e0565b5b610ccf84828501610b63565b9150509291505056fea2646970667358221220e06f3a13e56c0d75407d7586b32fc449689ed4554081d2f52a5486a9e876449964736f6c634300080a0033a264697066735822122074aa0f97cfe751314816158b09f7bcae155f11ada558b48438e022431439cb3b64736f6c634300080a0033a2646970667358221220b5164e51c3c31ee7935bb53c7f54ea5ec3628565f49a35e64c8422285704ab4f64736f6c634300080a0033",
  "linkReferences": {},
  "deployedLinkReferences": {}
}