{
  "_format": "hh-sol-artifact-1",
  "contractName": "ElectionOrganizer",
  "sourceName": "contracts/facets/ElectionOrganizer.sol",
  "abi": [
    {
      "anonymous": false,
      "inputs": [
        {
          "indexed": false,
          "internalType": "address",
          "name": "election",
          "type": "address"
        },
        {
          "components": [
            {
              "internalType": "uint256",
              "name": "candidateID",
              "type": "uint256"
            },
            {
              "internalType": "string",
              "name": "name",
              "type": "string"
            },
            {
              "internalType": "string",
              "name": "description",
              "type": "string"
            }
          ],
          "indexed": false,
          "internalType": "struct Election.Candidate",
          "name": "candidate",
          "type": "tuple"
        }
      ],
      "name": "CandidateAdded",
      "type": "event"
    },
    {
      "anonymous": false,
      "inputs": [
        {
          "indexed": false,
          "internalType": "address",
          "name": "election",
          "type": "address"
        }
      ],
      "name": "CreatedElection",
      "type": "event"
    },
    {
      "inputs": [
        {
          "internalType": "contract Election",
          "name": "_election",
          "type": "address"
        },
        {
          "components": [
            {
              "internalType": "uint256",
              "name": "candidateID",
              "type": "uint256"
            },
            {
              "internalType": "string",
              "name": "name",
              "type": "string"
            },
            {
              "internalType": "string",
              "name": "description",
              "type": "string"
            }
          ],
          "internalType": "struct Election.Candidate",
          "name": "_candidate",
          "type": "tuple"
        }
      ],
      "name": "addCandidate",
      "outputs": [],
      "stateMutability": "nonpayable",
      "type": "function"
    },
    {
      "inputs": [
        {
          "components": [
            {
              "internalType": "uint256",
              "name": "organizerID",
              "type": "uint256"
            },
            {
              "internalType": "string",
              "name": "name",
              "type": "string"
            },
            {
              "internalType": "address",
              "name": "publicAddress",
              "type": "address"
            }
          ],
          "internalType": "struct ElectionOrganizer.OrganizerInfo",
          "name": "_organizerInfo",
          "type": "tuple"
        }
      ],
      "name": "addElectionOrganizer",
      "outputs": [],
      "stateMutability": "nonpayable",
      "type": "function"
    },
    {
      "inputs": [
        {
          "components": [
            {
              "internalType": "uint256",
              "name": "electionID",
              "type": "uint256"
            },
            {
              "internalType": "string",
              "name": "name",
              "type": "string"
            },
            {
              "internalType": "string",
              "name": "description",
              "type": "string"
            },
            {
              "internalType": "uint256",
              "name": "startDate",
              "type": "uint256"
            },
            {
              "internalType": "uint256",
              "name": "endDate",
              "type": "uint256"
            }
          ],
          "internalType": "struct Election.ElectionInfo",
          "name": "_electionInfo",
          "type": "tuple"
        },
        {
          "internalType": "uint256",
          "name": "_ballotType",
          "type": "uint256"
        },
        {
          "internalType": "uint256",
          "name": "_resultCalculatorType",
          "type": "uint256"
        }
      ],
      "name": "createElection",
      "outputs": [
        {
          "internalType": "address",
          "name": "",
          "type": "address"
        }
      ],
      "stateMutability": "nonpayable",
      "type": "function"
    },
    {
      "inputs": [],
      "name": "electionOrganizerInit",
      "outputs": [],
      "stateMutability": "nonpayable",
      "type": "function"
    },
    {
      "inputs": [
        {
          "internalType": "uint256",
          "name": "_electionID",
          "type": "uint256"
        }
      ],
      "name": "getElectionByID",
      "outputs": [
        {
          "internalType": "address",
          "name": "",
          "type": "address"
        }
      ],
      "stateMutability": "view",
      "type": "function"
    },
    {
      "inputs": [],
      "name": "getElectionFactory",
      "outputs": [
        {
          "internalType": "address",
          "name": "",
          "type": "address"
        }
      ],
      "stateMutability": "view",
      "type": "function"
    },
    {
      "inputs": [
        {
          "internalType": "address",
          "name": "_address",
          "type": "address"
        }
      ],
      "name": "getElectionOrganizerByAddress",
      "outputs": [
        {
          "components": [
            {
              "internalType": "uint256",
              "name": "organizerID",
              "type": "uint256"
            },
            {
              "internalType": "string",
              "name": "name",
              "type": "string"
            },
            {
              "internalType": "address",
              "name": "publicAddress",
              "type": "address"
            }
          ],
          "internalType": "struct ElectionOrganizer.OrganizerInfo",
          "name": "",
          "type": "tuple"
        }
      ],
      "stateMutability": "view",
      "type": "function"
    },
    {
      "inputs": [
        {
          "internalType": "uint256",
          "name": "_organizerID",
          "type": "uint256"
        }
      ],
      "name": "getElectionOrganizerByID",
      "outputs": [
        {
          "components": [
            {
              "internalType": "uint256",
              "name": "organizerID",
              "type": "uint256"
            },
            {
              "internalType": "string",
              "name": "name",
              "type": "string"
            },
            {
              "internalType": "address",
              "name": "publicAddress",
              "type": "address"
            }
          ],
          "internalType": "struct ElectionOrganizer.OrganizerInfo",
          "name": "",
          "type": "tuple"
        }
      ],
      "stateMutability": "view",
      "type": "function"
    },
    {
      "inputs": [],
      "name": "getElectionOrganizers",
      "outputs": [
        {
          "components": [
            {
              "internalType": "uint256",
              "name": "organizerID",
              "type": "uint256"
            },
            {
              "internalType": "string",
              "name": "name",
              "type": "string"
            },
            {
              "internalType": "address",
              "name": "publicAddress",
              "type": "address"
            }
          ],
          "internalType": "struct ElectionOrganizer.OrganizerInfo[]",
          "name": "",
          "type": "tuple[]"
        }
      ],
      "stateMutability": "view",
      "type": "function"
    },
    {
      "inputs": [],
      "name": "getElectionStorage",
      "outputs": [
        {
          "internalType": "address",
          "name": "",
          "type": "address"
        }
      ],
      "stateMutability": "view",
      "type": "function"
    },
    {
      "inputs": [],
      "name": "getElections",
      "outputs": [
        {
          "internalType": "address[]",
          "name": "",
          "type": "address[]"
        }
      ],
      "stateMutability": "view",
      "type": "function"
    },
    {
      "inputs": [],
      "name": "getElectionsOfOrganizer",
      "outputs": [
        {
          "internalType": "address[]",
          "name": "",
          "type": "address[]"
        }
      ],
      "stateMutability": "view",
      "type": "function"
    },
    {
      "inputs": [
        {
          "internalType": "contract Election",
          "name": "_election",
          "type": "address"
        }
      ],
      "name": "getResult",
      "outputs": [
        {
          "internalType": "uint256[]",
          "name": "",
          "type": "uint256[]"
        }
      ],
      "stateMutability": "nonpayable",
      "type": "function"
    },
    {
      "inputs": [
        {
          "internalType": "contract Election",
          "name": "_election",
          "type": "address"
        },
        {
          "internalType": "string",
          "name": "_name",
          "type": "string"
        },
        {
          "internalType": "string",
          "name": "_description",
          "type": "string"
        },
        {
          "internalType": "uint256",
          "name": "index",
          "type": "uint256"
        }
      ],
      "name": "updateCandidateInfo",
      "outputs": [],
      "stateMutability": "nonpayable",
      "type": "function"
    }
  ],
  "bytecode": "0x6080604052606460035534801561001557600080fd5b50612f96806100256000396000f3fe608060405234801561001057600080fd5b50600436106100ea5760003560e01c8063446a37e01161008c578063936a116711610066578063936a11671461024b5780639f3a7f5214610267578063a8c0198714610285578063a95bc635146102a3576100ea565b8063446a37e0146101bb57806379db9ffe146101eb5780637f934bdb1461021b576100ea565b806325fb97a9116100c857806325fb97a914610133578063326e0d281461016357806332fb68cd1461017f57806339d8a4511461019d576100ea565b80630249ff4d146100ef57806315d4ffa01461010d5780631d43d8ed14610129575b600080fd5b6100f76102d3565b6040516101049190611365565b60405180910390f35b610127600480360381019061012291906115c6565b6102fd565b005b61013161056c565b005b61014d6004803603810190610148919061160f565b6105d7565b60405161015a9190611365565b60405180910390f35b61017d60048036038101906101789190611716565b61067c565b005b610187610802565b6040516101949190611365565b60405180910390f35b6101a5610835565b6040516101b29190611830565b60405180910390f35b6101d560048036038101906101d09190611852565b6108dd565b6040516101e2919061193d565b60405180910390f35b6102056004803603810190610200919061160f565b61095c565b6040516102129190611a37565b60405180910390f35b61023560048036038101906102309190611b1d565b610a7b565b6040516102429190611365565b60405180910390f35b61026560048036038101906102609190611b8c565b610d57565b005b61026f610eaa565b60405161027c9190611830565b60405180910390f35b61028d610f47565b60405161029a9190611d3d565b60405180910390f35b6102bd60048036038101906102b89190611d5f565b611098565b6040516102ca9190611a37565b60405180910390f35b6000600560009054906101000a900473ffffffffffffffffffffffffffffffffffffffff16905090565b6000600160035461030e9190611dbb565b905080826000018181525050600082908060018154018082558091505060019003906000526020600020906003020160009091909190915060008201518160000155602082015181600101908051906020019061036c92919061123d565b5060408201518160020160006101000a81548173ffffffffffffffffffffffffffffffffffffffff021916908373ffffffffffffffffffffffffffffffffffffffff16021790555050508160016000846040015173ffffffffffffffffffffffffffffffffffffffff1673ffffffffffffffffffffffffffffffffffffffff16815260200190815260200160002060008201518160000155602082015181600101908051906020019061042092919061123d565b5060408201518160020160006101000a81548173ffffffffffffffffffffffffffffffffffffffff021916908373ffffffffffffffffffffffffffffffffffffffff1602179055509050508160026000846000015181526020019081526020016000206000820151816000015560208201518160010190805190602001906104a992919061123d565b5060408201518160020160006101000a81548173ffffffffffffffffffffffffffffffffffffffff021916908373ffffffffffffffffffffffffffffffffffffffff160217905550905050600160046000846040015173ffffffffffffffffffffffffffffffffffffffff1673ffffffffffffffffffffffffffffffffffffffff16815260200190815260200160002060006101000a81548160ff0219169083151502179055506003600081548092919061056390611e11565b91905055505050565b604051610578906112c3565b604051809103906000f080158015610594573d6000803e3d6000fd5b50600560006101000a81548173ffffffffffffffffffffffffffffffffffffffff021916908373ffffffffffffffffffffffffffffffffffffffff160217905550565b6000600560009054906101000a900473ffffffffffffffffffffffffffffffffffffffff1673ffffffffffffffffffffffffffffffffffffffff166325fb97a9836040518263ffffffff1660e01b81526004016106349190611e69565b602060405180830381865afa158015610651573d6000803e3d6000fd5b505050506040513d601f19601f820116820180604052508101906106759190611e99565b9050919050565b8173ffffffffffffffffffffffffffffffffffffffff1663e04b1c0c6040518163ffffffff1660e01b8152600401602060405180830381865afa1580156106c7573d6000803e3d6000fd5b505050506040513d601f19601f820116820180604052508101906106eb9190611e99565b8073ffffffffffffffffffffffffffffffffffffffff163373ffffffffffffffffffffffffffffffffffffffff1614610759576040517f08c379a000000000000000000000000000000000000000000000000000000000815260040161075090611f49565b60405180910390fd5b8273ffffffffffffffffffffffffffffffffffffffff1663273ffe86836040518263ffffffff1660e01b81526004016107929190611fc0565b600060405180830381600087803b1580156107ac57600080fd5b505af11580156107c0573d6000803e3d6000fd5b505050507fd0c201c1465de1cf8804d8aa806f3674abe49346aa6a18624a868dfa1410892183836040516107f5929190611fe2565b60405180910390a1505050565b600061080c6111e3565b60000160009054906101000a900473ffffffffffffffffffffffffffffffffffffffff16905090565b6060600560009054906101000a900473ffffffffffffffffffffffffffffffffffffffff1673ffffffffffffffffffffffffffffffffffffffff166364372f73336040518263ffffffff1660e01b81526004016108929190611365565b600060405180830381865afa1580156108af573d6000803e3d6000fd5b505050506040513d6000823e3d601f19601f820116820180604052508101906108d891906120da565b905090565b60608173ffffffffffffffffffffffffffffffffffffffff1663de2927896040518163ffffffff1660e01b81526004016000604051808303816000875af115801561092c573d6000803e3d6000fd5b505050506040513d6000823e3d601f19601f8201168201806040525081019061095591906121fb565b9050919050565b6109646112d0565b600260008381526020019081526020016000206040518060600160405290816000820154815260200160018201805461099c90612273565b80601f01602080910402602001604051908101604052809291908181526020018280546109c890612273565b8015610a155780601f106109ea57610100808354040283529160200191610a15565b820191906000526020600020905b8154815290600101906020018083116109f857829003601f168201915b505050505081526020016002820160009054906101000a900473ffffffffffffffffffffffffffffffffffffffff1673ffffffffffffffffffffffffffffffffffffffff1673ffffffffffffffffffffffffffffffffffffffff16815250509050919050565b6000600460003373ffffffffffffffffffffffffffffffffffffffff1673ffffffffffffffffffffffffffffffffffffffff16815260200190815260200160002060009054906101000a900460ff16610b09576040517f08c379a0000000000000000000000000000000000000000000000000000000008152600401610b0090612317565b60405180910390fd5b6000610b136111e3565b60000160009054906101000a900473ffffffffffffffffffffffffffffffffffffffff16905060006001600560009054906101000a900473ffffffffffffffffffffffffffffffffffffffff1673ffffffffffffffffffffffffffffffffffffffff1663213785a06040518163ffffffff1660e01b8152600401602060405180830381865afa158015610baa573d6000803e3d6000fd5b505050506040513d601f19601f82011682018060405250810190610bce9190612337565b610bd89190611dbb565b9050808660000181815250508173ffffffffffffffffffffffffffffffffffffffff16639727e64587878733306040518663ffffffff1660e01b8152600401610c259594939291906123e1565b600060405180830381600087803b158015610c3f57600080fd5b505af1158015610c53573d6000803e3d6000fd5b505050506000610c61611210565b60020160009054906101000a900473ffffffffffffffffffffffffffffffffffffffff169050600560009054906101000a900473ffffffffffffffffffffffffffffffffffffffff1673ffffffffffffffffffffffffffffffffffffffff166387b4e8d382336040518363ffffffff1660e01b8152600401610ce492919061243b565b600060405180830381600087803b158015610cfe57600080fd5b505af1158015610d12573d6000803e3d6000fd5b505050507f49fdfe60e25ebf09e8f8c20a8a10c828d9b82cecf7b04e1ecb59ae51f79f827781604051610d459190611365565b60405180910390a15050509392505050565b8373ffffffffffffffffffffffffffffffffffffffff1663e04b1c0c6040518163ffffffff1660e01b8152600401602060405180830381865afa158015610da2573d6000803e3d6000fd5b505050506040513d601f19601f82011682018060405250810190610dc69190611e99565b8073ffffffffffffffffffffffffffffffffffffffff163373ffffffffffffffffffffffffffffffffffffffff1614610e34576040517f08c379a0000000000000000000000000000000000000000000000000000000008152600401610e2b90611f49565b60405180910390fd5b8473ffffffffffffffffffffffffffffffffffffffff166324fd983c8585856040518463ffffffff1660e01b8152600401610e719392919061249d565b600060405180830381600087803b158015610e8b57600080fd5b505af1158015610e9f573d6000803e3d6000fd5b505050505050505050565b6060600560009054906101000a900473ffffffffffffffffffffffffffffffffffffffff1673ffffffffffffffffffffffffffffffffffffffff16639f3a7f526040518163ffffffff1660e01b8152600401600060405180830381865afa158015610f19573d6000803e3d6000fd5b505050506040513d6000823e3d601f19601f82011682018060405250810190610f4291906120da565b905090565b60606000805480602002602001604051908101604052809291908181526020016000905b8282101561108f578382906000526020600020906003020160405180606001604052908160008201548152602001600182018054610fa890612273565b80601f0160208091040260200160405190810160405280929190818152602001828054610fd490612273565b80156110215780601f10610ff657610100808354040283529160200191611021565b820191906000526020600020905b81548152906001019060200180831161100457829003601f168201915b505050505081526020016002820160009054906101000a900473ffffffffffffffffffffffffffffffffffffffff1673ffffffffffffffffffffffffffffffffffffffff1673ffffffffffffffffffffffffffffffffffffffff168152505081526020019060010190610f6b565b50505050905090565b6110a06112d0565b600160008373ffffffffffffffffffffffffffffffffffffffff1673ffffffffffffffffffffffffffffffffffffffff1681526020019081526020016000206040518060600160405290816000820154815260200160018201805461110490612273565b80601f016020809104026020016040519081016040528092919081815260200182805461113090612273565b801561117d5780601f106111525761010080835404028352916020019161117d565b820191906000526020600020905b81548152906001019060200180831161116057829003601f168201915b505050505081526020016002820160009054906101000a900473ffffffffffffffffffffffffffffffffffffffff1673ffffffffffffffffffffffffffffffffffffffff1673ffffffffffffffffffffffffffffffffffffffff16815250509050919050565b6000807fc20038518297e76c0e27a913ab03e5d4fd92b2579d428cf3b89f8c71add2acef90508091505090565b6000807f5b43f313088137496832405d64cc708765db93c8144d82f7a7f806ac22d5603b90508091505090565b82805461124990612273565b90600052602060002090601f01602090048101928261126b57600085556112b2565b82601f1061128457805160ff19168380011785556112b2565b828001600101855582156112b2579182015b828111156112b1578251825591602001919060010190611296565b5b5090506112bf9190611307565b5090565b610a7e806124e383390190565b60405180606001604052806000815260200160608152602001600073ffffffffffffffffffffffffffffffffffffffff1681525090565b5b80821115611320576000816000905550600101611308565b5090565b600073ffffffffffffffffffffffffffffffffffffffff82169050919050565b600061134f82611324565b9050919050565b61135f81611344565b82525050565b600060208201905061137a6000830184611356565b92915050565b6000604051905090565b600080fd5b600080fd5b600080fd5b6000601f19601f8301169050919050565b7f4e487b7100000000000000000000000000000000000000000000000000000000600052604160045260246000fd5b6113e282611399565b810181811067ffffffffffffffff82111715611401576114006113aa565b5b80604052505050565b6000611414611380565b905061142082826113d9565b919050565b600080fd5b6000819050919050565b61143d8161142a565b811461144857600080fd5b50565b60008135905061145a81611434565b92915050565b600080fd5b600080fd5b600067ffffffffffffffff821115611485576114846113aa565b5b61148e82611399565b9050602081019050919050565b82818337600083830152505050565b60006114bd6114b88461146a565b61140a565b9050828152602081018484840111156114d9576114d8611465565b5b6114e484828561149b565b509392505050565b600082601f83011261150157611500611460565b5b81356115118482602086016114aa565b91505092915050565b61152381611344565b811461152e57600080fd5b50565b6000813590506115408161151a565b92915050565b60006060828403121561155c5761155b611394565b5b611566606061140a565b905060006115768482850161144b565b600083015250602082013567ffffffffffffffff81111561159a57611599611425565b5b6115a6848285016114ec565b60208301525060406115ba84828501611531565b60408301525092915050565b6000602082840312156115dc576115db61138a565b5b600082013567ffffffffffffffff8111156115fa576115f961138f565b5b61160684828501611546565b91505092915050565b6000602082840312156116255761162461138a565b5b60006116338482850161144b565b91505092915050565b600061164782611344565b9050919050565b6116578161163c565b811461166257600080fd5b50565b6000813590506116748161164e565b92915050565b6000606082840312156116905761168f611394565b5b61169a606061140a565b905060006116aa8482850161144b565b600083015250602082013567ffffffffffffffff8111156116ce576116cd611425565b5b6116da848285016114ec565b602083015250604082013567ffffffffffffffff8111156116fe576116fd611425565b5b61170a848285016114ec565b60408301525092915050565b6000806040838503121561172d5761172c61138a565b5b600061173b85828601611665565b925050602083013567ffffffffffffffff81111561175c5761175b61138f565b5b6117688582860161167a565b9150509250929050565b600081519050919050565b600082825260208201905092915050565b6000819050602082019050919050565b6117a781611344565b82525050565b60006117b9838361179e565b60208301905092915050565b6000602082019050919050565b60006117dd82611772565b6117e7818561177d565b93506117f28361178e565b8060005b8381101561182357815161180a88826117ad565b9750611815836117c5565b9250506001810190506117f6565b5085935050505092915050565b6000602082019050818103600083015261184a81846117d2565b905092915050565b6000602082840312156118685761186761138a565b5b600061187684828501611665565b91505092915050565b600081519050919050565b600082825260208201905092915050565b6000819050602082019050919050565b6118b48161142a565b82525050565b60006118c683836118ab565b60208301905092915050565b6000602082019050919050565b60006118ea8261187f565b6118f4818561188a565b93506118ff8361189b565b8060005b8381101561193057815161191788826118ba565b9750611922836118d2565b925050600181019050611903565b5085935050505092915050565b6000602082019050818103600083015261195781846118df565b905092915050565b600081519050919050565b600082825260208201905092915050565b60005b8381101561199957808201518184015260208101905061197e565b838111156119a8576000848401525b50505050565b60006119b98261195f565b6119c3818561196a565b93506119d381856020860161197b565b6119dc81611399565b840191505092915050565b60006060830160008301516119ff60008601826118ab565b5060208301518482036020860152611a1782826119ae565b9150506040830151611a2c604086018261179e565b508091505092915050565b60006020820190508181036000830152611a5181846119e7565b905092915050565b600060a08284031215611a6f57611a6e611394565b5b611a7960a061140a565b90506000611a898482850161144b565b600083015250602082013567ffffffffffffffff811115611aad57611aac611425565b5b611ab9848285016114ec565b602083015250604082013567ffffffffffffffff811115611add57611adc611425565b5b611ae9848285016114ec565b6040830152506060611afd8482850161144b565b6060830152506080611b118482850161144b565b60808301525092915050565b600080600060608486031215611b3657611b3561138a565b5b600084013567ffffffffffffffff811115611b5457611b5361138f565b5b611b6086828701611a59565b9350506020611b718682870161144b565b9250506040611b828682870161144b565b9150509250925092565b60008060008060808587031215611ba657611ba561138a565b5b6000611bb487828801611665565b945050602085013567ffffffffffffffff811115611bd557611bd461138f565b5b611be1878288016114ec565b935050604085013567ffffffffffffffff811115611c0257611c0161138f565b5b611c0e878288016114ec565b9250506060611c1f8782880161144b565b91505092959194509250565b600081519050919050565b600082825260208201905092915050565b6000819050602082019050919050565b6000606083016000830151611c6f60008601826118ab565b5060208301518482036020860152611c8782826119ae565b9150506040830151611c9c604086018261179e565b508091505092915050565b6000611cb38383611c57565b905092915050565b6000602082019050919050565b6000611cd382611c2b565b611cdd8185611c36565b935083602082028501611cef85611c47565b8060005b85811015611d2b5784840389528151611d0c8582611ca7565b9450611d1783611cbb565b925060208a01995050600181019050611cf3565b50829750879550505050505092915050565b60006020820190508181036000830152611d578184611cc8565b905092915050565b600060208284031215611d7557611d7461138a565b5b6000611d8384828501611531565b91505092915050565b7f4e487b7100000000000000000000000000000000000000000000000000000000600052601160045260246000fd5b6000611dc68261142a565b9150611dd18361142a565b9250827fffffffffffffffffffffffffffffffffffffffffffffffffffffffffffffffff03821115611e0657611e05611d8c565b5b828201905092915050565b6000611e1c8261142a565b91507fffffffffffffffffffffffffffffffffffffffffffffffffffffffffffffffff821415611e4f57611e4e611d8c565b5b600182019050919050565b611e638161142a565b82525050565b6000602082019050611e7e6000830184611e5a565b92915050565b600081519050611e938161151a565b92915050565b600060208284031215611eaf57611eae61138a565b5b6000611ebd84828501611e84565b91505092915050565b600082825260208201905092915050565b7f4f6e6c792061636365737369626c652062792074686520636f72726573706f6e60008201527f64696e6720656c656374696f6e206f7267616e697a6572000000000000000000602082015250565b6000611f33603783611ec6565b9150611f3e82611ed7565b604082019050919050565b60006020820190508181036000830152611f6281611f26565b9050919050565b6000606083016000830151611f8160008601826118ab565b5060208301518482036020860152611f9982826119ae565b91505060408301518482036040860152611fb382826119ae565b9150508091505092915050565b60006020820190508181036000830152611fda8184611f69565b905092915050565b6000604082019050611ff76000830185611356565b81810360208301526120098184611f69565b90509392505050565b600067ffffffffffffffff82111561202d5761202c6113aa565b5b602082029050602081019050919050565b600080fd5b600061205661205184612012565b61140a565b905080838252602082019050602084028301858111156120795761207861203e565b5b835b818110156120a2578061208e8882611e84565b84526020840193505060208101905061207b565b5050509392505050565b600082601f8301126120c1576120c0611460565b5b81516120d1848260208601612043565b91505092915050565b6000602082840312156120f0576120ef61138a565b5b600082015167ffffffffffffffff81111561210e5761210d61138f565b5b61211a848285016120ac565b91505092915050565b600067ffffffffffffffff82111561213e5761213d6113aa565b5b602082029050602081019050919050565b60008151905061215e81611434565b92915050565b600061217761217284612123565b61140a565b9050808382526020820190506020840283018581111561219a5761219961203e565b5b835b818110156121c357806121af888261214f565b84526020840193505060208101905061219c565b5050509392505050565b600082601f8301126121e2576121e1611460565b5b81516121f2848260208601612164565b91505092915050565b6000602082840312156122115761221061138a565b5b600082015167ffffffffffffffff81111561222f5761222e61138f565b5b61223b848285016121cd565b91505092915050565b7f4e487b7100000000000000000000000000000000000000000000000000000000600052602260045260246000fd5b6000600282049050600182168061228b57607f821691505b6020821081141561229f5761229e612244565b5b50919050565b7f4f6e6c792061636365737369626c65206279207573657273207265676973657460008201527f65726564206173206f7267616e697a6572730000000000000000000000000000602082015250565b6000612301603283611ec6565b915061230c826122a5565b604082019050919050565b60006020820190508181036000830152612330816122f4565b9050919050565b60006020828403121561234d5761234c61138a565b5b600061235b8482850161214f565b91505092915050565b600060a08301600083015161237c60008601826118ab565b506020830151848203602086015261239482826119ae565b915050604083015184820360408601526123ae82826119ae565b91505060608301516123c360608601826118ab565b5060808301516123d660808601826118ab565b508091505092915050565b600060a08201905081810360008301526123fb8188612364565b905061240a6020830187611e5a565b6124176040830186611e5a565b6124246060830185611356565b6124316080830184611356565b9695505050505050565b60006040820190506124506000830185611356565b61245d6020830184611356565b9392505050565b600061246f8261195f565b6124798185611ec6565b935061248981856020860161197b565b61249281611399565b840191505092915050565b600060608201905081810360008301526124b78186612464565b905081810360208301526124cb8185612464565b90506124da6040830184611e5a565b94935050505056fe608060405234801561001057600080fd5b50610a5e806100206000396000f3fe608060405234801561001057600080fd5b50600436106100575760003560e01c8063213785a01461005c57806325fb97a91461007a57806364372f73146100aa57806387b4e8d3146100da5780639f3a7f52146100f6575b600080fd5b610064610114565b60405161007191906104bd565b60405180910390f35b610094600480360381019061008f9190610518565b61011e565b6040516100a19190610586565b60405180910390f35b6100c460048036038101906100bf91906105cd565b61015b565b6040516100d191906106b8565b60405180910390f35b6100f460048036038101906100ef91906106da565b610228565b005b6100fe610416565b60405161010b91906106b8565b60405180910390f35b6000600454905090565b60006003600083815260200190815260200160002060009054906101000a900473ffffffffffffffffffffffffffffffffffffffff169050919050565b6060600260008373ffffffffffffffffffffffffffffffffffffffff1673ffffffffffffffffffffffffffffffffffffffff16815260200190815260200160002080548060200260200160405190810160405280929190818152602001828054801561021c57602002820191906000526020600020905b8160009054906101000a900473ffffffffffffffffffffffffffffffffffffffff1673ffffffffffffffffffffffffffffffffffffffff16815260200190600101908083116101d2575b50505050509050919050565b60008290506004600081548092919061024090610749565b91905055506000819080600181540180825580915050600190039060005260206000200160009091909190916101000a81548173ffffffffffffffffffffffffffffffffffffffff021916908373ffffffffffffffffffffffffffffffffffffffff160217905550600260008373ffffffffffffffffffffffffffffffffffffffff1673ffffffffffffffffffffffffffffffffffffffff168152602001908152602001600020819080600181540180825580915050600190039060005260206000200160009091909190916101000a81548173ffffffffffffffffffffffffffffffffffffffff021916908373ffffffffffffffffffffffffffffffffffffffff16021790555080600360008373ffffffffffffffffffffffffffffffffffffffff166386852dca6040518163ffffffff1660e01b8152600401600060405180830381865afa158015610398573d6000803e3d6000fd5b505050506040513d6000823e3d601f19601f820116820180604052508101906103c191906109df565b60000151815260200190815260200160002060006101000a81548173ffffffffffffffffffffffffffffffffffffffff021916908373ffffffffffffffffffffffffffffffffffffffff160217905550505050565b6060600080548060200260200160405190810160405280929190818152602001828054801561049a57602002820191906000526020600020905b8160009054906101000a900473ffffffffffffffffffffffffffffffffffffffff1673ffffffffffffffffffffffffffffffffffffffff1681526020019060010190808311610450575b5050505050905090565b6000819050919050565b6104b7816104a4565b82525050565b60006020820190506104d260008301846104ae565b92915050565b6000604051905090565b600080fd5b600080fd5b6104f5816104a4565b811461050057600080fd5b50565b600081359050610512816104ec565b92915050565b60006020828403121561052e5761052d6104e2565b5b600061053c84828501610503565b91505092915050565b600073ffffffffffffffffffffffffffffffffffffffff82169050919050565b600061057082610545565b9050919050565b61058081610565565b82525050565b600060208201905061059b6000830184610577565b92915050565b6105aa81610565565b81146105b557600080fd5b50565b6000813590506105c7816105a1565b92915050565b6000602082840312156105e3576105e26104e2565b5b60006105f1848285016105b8565b91505092915050565b600081519050919050565b600082825260208201905092915050565b6000819050602082019050919050565b61062f81610565565b82525050565b60006106418383610626565b60208301905092915050565b6000602082019050919050565b6000610665826105fa565b61066f8185610605565b935061067a83610616565b8060005b838110156106ab5781516106928882610635565b975061069d8361064d565b92505060018101905061067e565b5085935050505092915050565b600060208201905081810360008301526106d2818461065a565b905092915050565b600080604083850312156106f1576106f06104e2565b5b60006106ff858286016105b8565b9250506020610710858286016105b8565b9150509250929050565b7f4e487b7100000000000000000000000000000000000000000000000000000000600052601160045260246000fd5b6000610754826104a4565b91507fffffffffffffffffffffffffffffffffffffffffffffffffffffffffffffffff8214156107875761078661071a565b5b600182019050919050565b600080fd5b6000601f19601f8301169050919050565b7f4e487b7100000000000000000000000000000000000000000000000000000000600052604160045260246000fd5b6107e082610797565b810181811067ffffffffffffffff821117156107ff576107fe6107a8565b5b80604052505050565b60006108126104d8565b905061081e82826107d7565b919050565b600080fd5b600081519050610837816104ec565b92915050565b600080fd5b600080fd5b600067ffffffffffffffff821115610862576108616107a8565b5b61086b82610797565b9050602081019050919050565b60005b8381101561089657808201518184015260208101905061087b565b838111156108a5576000848401525b50505050565b60006108be6108b984610847565b610808565b9050828152602081018484840111156108da576108d9610842565b5b6108e5848285610878565b509392505050565b600082601f8301126109025761090161083d565b5b81516109128482602086016108ab565b91505092915050565b600060a0828403121561093157610930610792565b5b61093b60a0610808565b9050600061094b84828501610828565b600083015250602082015167ffffffffffffffff81111561096f5761096e610823565b5b61097b848285016108ed565b602083015250604082015167ffffffffffffffff81111561099f5761099e610823565b5b6109ab848285016108ed565b60408301525060606109bf84828501610828565b60608301525060806109d384828501610828565b60808301525092915050565b6000602082840312156109f5576109f46104e2565b5b600082015167ffffffffffffffff811115610a1357610a126104e7565b5b610a1f8482850161091b565b9150509291505056fea2646970667358221220bebf34b8e646422e40c2fda2b8c3880a9ac62789317a21ef18b772e8944d9e9564736f6c634300080a0033a2646970667358221220d193228a424949ece5db151867a07fc7422092d73eae25d2729731ddf65cfab764736f6c634300080a0033",
  "linkReferences": {},
  "deployedLinkReferences": {}
}