{
  "_format": "hh-sol-artifact-1",
  "contractName": "Oklahoma",
  "sourceName": "contracts/resultCalculator/Oklahoma.sol",
  "abi": [
    {
      "inputs": [
        {
          "internalType": "contract Ballot",
          "name": "_ballot",
          "type": "address"
        },
        {
          "internalType": "uint256",
          "name": "_voterCount",
          "type": "uint256"
        }
      ],
      "name": "getResult",
      "outputs": [
        {
          "internalType": "uint256[]",
          "name": "",
          "type": "uint256[]"
        }
      ],
      "stateMutability": "nonpayable",
      "type": "function"
    }
  ],
  "bytecode": "0x608060405234801561001057600080fd5b50610643806100206000396000f3fe608060405234801561001057600080fd5b506004361061002b5760003560e01c8063c8344a2014610030575b600080fd5b61004361003e366004610423565b610059565b604051610050919061045b565b60405180910390f35b604080516000815260208101918290525160609161007a91600191906103c3565b50600580546001600160a01b0319166001600160a01b0385161790556100a16002836104cb565b6004908155600554604080516303524fe760e11b815290516001600160a01b03909216926306a49fce928282019260009290829003018186803b1580156100e757600080fd5b505afa1580156100fb573d6000803e3d6000fd5b505050506040513d6000823e601f3d908101601f1916820160405261012391908101906104ed565b8051610137916002916020909101906103c3565b50600254600355600160005b6003548210156101905761015682610219565b61015e61033a565b600454600082815260208190526040902054919250101561017e57610190565b81610188816105ab565b925050610143565b60018054808201825560008290527fb10e2d527612073b26eecdfd717e6a320cf44b4afac2b0732d9fcbe2b7fa0cf60182905580546040805160208381028201810190925282815292919083018282801561020a57602002820191906000526020600020905b8154815260200190600101908083116101f6575b50505050509250505092915050565b6000805b60035482101561033557600554600280546001600160a01b039092169163de2e19a0919085908110610251576102516105c6565b9060005260206000200154856040518363ffffffff1660e01b8152600401610283929190918252602082015260400190565b60206040518083038186803b15801561029b57600080fd5b505afa1580156102af573d6000803e3d6000fd5b505050506040513d601f19601f820116820180604052508101906102d391906105dc565b90506102df83826104cb565b600080600285815481106102f5576102f56105c6565b90600052602060002001548152602001908152602001600020600082825461031d91906105f5565b9091555082905061032d816105ab565b92505061021d565b505050565b6000808080805b6003548410156103bb5760008060028681548110610361576103616105c6565b90600052602060002001548152602001908152602001600020549250818311156103a9578291506002848154811061039b5761039b6105c6565b906000526020600020015490505b836103b3816105ab565b945050610341565b949350505050565b8280548282559060005260206000209081019282156103fe579160200282015b828111156103fe5782518255916020019190600101906103e3565b5061040a92915061040e565b5090565b5b8082111561040a576000815560010161040f565b6000806040838503121561043657600080fd5b82356001600160a01b038116811461044d57600080fd5b946020939093013593505050565b6020808252825182820181905260009190848201906040850190845b8181101561049357835183529284019291840191600101610477565b50909695505050505050565b634e487b7160e01b600052604160045260246000fd5b634e487b7160e01b600052601160045260246000fd5b6000826104e857634e487b7160e01b600052601260045260246000fd5b500490565b6000602080838503121561050057600080fd5b825167ffffffffffffffff8082111561051857600080fd5b818501915085601f83011261052c57600080fd5b81518181111561053e5761053e61049f565b8060051b604051601f19603f830116810181811085821117156105635761056361049f565b60405291825284820192508381018501918883111561058157600080fd5b938501935b8285101561059f57845184529385019392850192610586565b98975050505050505050565b60006000198214156105bf576105bf6104b5565b5060010190565b634e487b7160e01b600052603260045260246000fd5b6000602082840312156105ee57600080fd5b5051919050565b60008219821115610608576106086104b5565b50019056fea2646970667358221220a6c4baa51fdf422f1abee2a6e44c056dd2b6c206160c01e2fa15e18e1c4660df64736f6c63430008090033",
  "linkReferences": {},
  "deployedLinkReferences": {}
}