{"abi":[{"type":"function","name":"calculateSchulzeResult","inputs":[{"name":"returnData","type":"bytes","internalType":"bytes"}],"outputs":[{"name":"","type":"uint256[]","internalType":"uint256[]"}],"stateMutability":"pure"},{"type":"error","name":"CandidatesTie","inputs":[]},{"type":"error","name":"NoCandidates","inputs":[]},{"type":"error","name":"NoWinner","inputs":[]},{"type":"error","name":"VotesExhausted","inputs":[]}],"bytecode":{"object":"0x6080604052348015600e575f5ffd5b506109f28061001c5f395ff3fe608060405234801561000f575f5ffd5b5060043610610029575f3560e01c8063189251381461002d575b5f5ffd5b61004061003b366004610757565b610056565b60405161004d91906107eb565b60405180910390f35b60605f8280602001905181019061006d9190610850565b90505f61007982610081565b949350505050565b8051606090600281101561009f57610098816105f5565b9392505050565b5f8167ffffffffffffffff8111156100b9576100b9610712565b6040519080825280602002602001820160405280156100ec57816020015b60608152602001906001900390816100d75790505b5090505f5b82811015610161578267ffffffffffffffff81111561011257610112610712565b60405190808252806020026020018201604052801561013b578160200160208202803683370190505b5082828151811061014e5761014e610963565b60209081029190910101526001016100f1565b505f5b82811015610265575f5b8381101561025c578082146102545785818151811061018f5761018f610963565b602002602001015182815181106101a8576101a8610963565b60200260200101518683815181106101c2576101c2610963565b602002602001015182815181106101db576101db610963565b60200260200101511115610254578582815181106101fb576101fb610963565b6020026020010151818151811061021457610214610963565b602002602001015183838151811061022e5761022e610963565b6020026020010151828151811061024757610247610963565b6020026020010181815250505b60010161016e565b50600101610164565b505f5b828110156104a5575f5b8381101561049c57808214610494575f5b848110156104925780831415801561029b5750808214155b1561048a578382815181106102b2576102b2610963565b602002602001015183815181106102cb576102cb610963565b60200260200101518483815181106102e5576102e5610963565b602002602001015182815181106102fe576102fe610963565b6020026020010151108015610376575083838151811061032057610320610963565b6020026020010151818151811061033957610339610963565b602002602001015184838151811061035357610353610963565b6020026020010151828151811061036c5761036c610963565b6020026020010151105b1561048a5783838151811061038d5761038d610963565b602002602001015181815181106103a6576103a6610963565b60200260200101518483815181106103c0576103c0610963565b602002602001015184815181106103d9576103d9610963565b60200260200101511061041e578383815181106103f8576103f8610963565b6020026020010151818151811061041157610411610963565b6020026020010151610452565b83828151811061043057610430610963565b6020026020010151838151811061044957610449610963565b60200260200101515b84838151811061046457610464610963565b6020026020010151828151811061047d5761047d610963565b6020026020010181815250505b600101610283565b505b600101610272565b50600101610268565b505f80808467ffffffffffffffff8111156104c2576104c2610712565b6040519080825280602002602001820160405280156104eb578160200160208202803683370190505b5090505f5b858110156105de575f805b8781101561058c578083146105845786818151811061051c5761051c610963565b6020026020010151838151811061053557610535610963565b602002602001015187848151811061054f5761054f610963565b6020026020010151828151811061056857610568610963565b602002602001015111156105845761058160018361098b565b91505b6001016104fb565b50808383815181106105a0576105a0610963565b602002602001018181525050848111156105c057809450600193506105d5565b8481036105d557836105d1816109a4565b9450505b506001016104f0565b506105ea82848361065c565b979650505050505050565b6060815f0361061757604051638b9ae95f60e01b815260040160405180910390fd5b6040805160018082528183019092525f91602080830190803683370190505090505f815f8151811061064b5761064b610963565b602090810291909101015292915050565b60605f8467ffffffffffffffff81111561067857610678610712565b6040519080825280602002602001820160405280156106a1578160200160208202803683370190505b5083519091505f805b8281101561070657868682815181106106c5576106c5610963565b6020026020010151036106fe57808483815181106106e5576106e5610963565b6020908102919091010152816106fa816109a4565b9250505b6001016106aa565b50919695505050505050565b634e487b7160e01b5f52604160045260245ffd5b604051601f8201601f1916810167ffffffffffffffff8111828210171561074f5761074f610712565b604052919050565b5f60208284031215610767575f5ffd5b813567ffffffffffffffff81111561077d575f5ffd5b8201601f8101841361078d575f5ffd5b803567ffffffffffffffff8111156107a7576107a7610712565b6107ba601f8201601f1916602001610726565b8181528560208385010111156107ce575f5ffd5b816020840160208301375f91810160200191909152949350505050565b602080825282518282018190525f918401906040840190835b81811015610822578351835260209384019390920191600101610804565b509095945050505050565b5f67ffffffffffffffff82111561084657610846610712565b5060051b60200190565b5f60208284031215610860575f5ffd5b815167ffffffffffffffff811115610876575f5ffd5b8201601f81018413610886575f5ffd5b80516108996108948261082d565b610726565b8082825260208201915060208360051b8501019250868311156108ba575f5ffd5b602084015b8381101561095857805167ffffffffffffffff8111156108dd575f5ffd5b8501603f810189136108ed575f5ffd5b60208101516108fe6108948261082d565b808282526020820191506020808460051b8601010192508b831115610921575f5ffd5b6040840193505b82841015610943578351825260209384019390910190610928565b865250506020938401939190910190506108bf565b509695505050505050565b634e487b7160e01b5f52603260045260245ffd5b634e487b7160e01b5f52601160045260245ffd5b8082018082111561099e5761099e610977565b92915050565b5f600182016109b5576109b5610977565b506001019056fea2646970667358221220d53fad97ea3f3112651eb32e7b7c78a570d805ed744aa1e739452b97302c7b4a64736f6c634300081c0033","linkReferences":{}},"methodIdentifiers":{"calculateSchulzeResult(bytes)":"18925138"},"id":18}