{
  "_format": "hh-sol-artifact-1",
  "contractName": "IncrementalMerkleTree",
  "sourceName": "contracts/IncrementalMerkleTree.sol",
  "abi": [
    {
      "inputs": [
        {
          "internalType": "uint8",
          "name": "_treeLevels",
          "type": "uint8"
        },
        {
          "internalType": "uint256",
          "name": "_zeroValue",
          "type": "uint256"
        }
      ],
      "stateMutability": "nonpayable",
      "type": "constructor"
    },
    {
      "anonymous": false,
      "inputs": [
        {
          "indexed": true,
          "internalType": "uint256",
          "name": "leaf",
          "type": "uint256"
        },
        {
          "indexed": true,
          "internalType": "uint256",
          "name": "leafIndex",
          "type": "uint256"
        }
      ],
      "name": "LeafInsertion",
      "type": "event"
    },
    {
      "anonymous": false,
      "inputs": [
        {
          "indexed": false,
          "internalType": "uint256",
          "name": "root",
          "type": "uint256"
        }
      ],
      "name": "NewRoot",
      "type": "event"
    },
    {
      "inputs": [],
      "name": "getRoots",
      "outputs": [
        {
          "internalType": "uint256[10]",
          "name": "",
          "type": "uint256[10]"
        }
      ],
      "stateMutability": "view",
      "type": "function"
    },
    {
      "inputs": [],
      "name": "root",
      "outputs": [
        {
          "internalType": "uint256",
          "name": "",
          "type": "uint256"
        }
      ],
      "stateMutability": "view",
      "type": "function"
    },
    {
      "inputs": [
        {
          "internalType": "uint256",
          "name": "",
          "type": "uint256"
        }
      ],
      "name": "rootHistory",
      "outputs": [
        {
          "internalType": "bool",
          "name": "",
          "type": "bool"
        }
      ],
      "stateMutability": "view",
      "type": "function"
    }
  ],
  "bytecode": "0x608060405260006001553480156200001657600080fd5b50604051620009193803806200091983398181016040528101906200003c919062000353565b60008260ff16118015620000575750602060ff168260ff1611155b62000099576040517f08c379a0000000000000000000000000000000000000000000000000000000008152600401620000909062000421565b60405180910390fd5b816000806101000a81548160ff021916908360ff16021790555080600d600060208110620000cc57620000cb62000443565b5b018190555060008190506000600190505b8360ff168160ff1610156200015c5760006200010083846200017e60201b60201c565b905080600d8360ff16602081106200011d576200011c62000443565b5b018190555080602d8360ff16602081106200013d576200013c62000443565b5b01819055508092505080806200015390620004a1565b915050620000dd565b506200016f81826200017e60201b60201c565b600c81905550505050620005fe565b600080839050600073__$cf5da3090e28b1d67a537682696360513a$__63f47d33b58360006040518363ffffffff1660e01b8152600401620001c29291906200052e565b6040805180830381865af4158015620001df573d6000803e3d6000fd5b505050506040513d601f19601f820116820180604052508101906200020591906200055b565b80925081935050507f30644e72e131a029b85045b68181585d2833e84879b9709143e1f593f0000001806200023f576200023e620005a2565b5b848308915073__$cf5da3090e28b1d67a537682696360513a$__63f47d33b583836040518363ffffffff1660e01b81526004016200027f929190620005d1565b6040805180830381865af41580156200029c573d6000803e3d6000fd5b505050506040513d601f19601f82011682018060405250810190620002c291906200055b565b8092508193505050819250505092915050565b600080fd5b600060ff82169050919050565b620002f281620002da565b8114620002fe57600080fd5b50565b6000815190506200031281620002e7565b92915050565b6000819050919050565b6200032d8162000318565b81146200033957600080fd5b50565b6000815190506200034d8162000322565b92915050565b600080604083850312156200036d576200036c620002d5565b5b60006200037d8582860162000301565b925050602062000390858286016200033c565b9150509250929050565b600082825260208201905092915050565b7f496e6372656d656e74616c4d65726b6c65547265653a205f747265654c65766560008201527f6c73206d757374206265206265747765656e203020616e642033330000000000602082015250565b600062000409603b836200039a565b91506200041682620003ab565b604082019050919050565b600060208201905081810360008301526200043c81620003fa565b9050919050565b7f4e487b7100000000000000000000000000000000000000000000000000000000600052603260045260246000fd5b7f4e487b7100000000000000000000000000000000000000000000000000000000600052601160045260246000fd5b6000620004ae82620002da565b915060ff821415620004c557620004c462000472565b5b600182019050919050565b620004db8162000318565b82525050565b6000819050919050565b6000819050919050565b600062000516620005106200050a84620004e1565b620004eb565b62000318565b9050919050565b6200052881620004f5565b82525050565b6000604082019050620005456000830185620004d0565b6200055460208301846200051d565b9392505050565b60008060408385031215620005755762000574620002d5565b5b600062000585858286016200033c565b925050602062000598858286016200033c565b9150509250929050565b7f4e487b7100000000000000000000000000000000000000000000000000000000600052601260045260246000fd5b6000604082019050620005e86000830185620004d0565b620005f76020830184620004d0565b9392505050565b61030b806200060e6000396000f3fe608060405234801561001057600080fd5b50600436106100415760003560e01c806335a5e06d14610046578063ebf0c71714610064578063f1c621ee14610082575b600080fd5b61004e6100b2565b60405161005b91906101fb565b60405180910390f35b61006c6100fd565b6040516100799190610226565b60405180910390f35b61009c60048036038101906100979190610272565b610103565b6040516100a991906102ba565b60405180910390f35b6100ba610123565b6002600a806020026040519081016040528092919082600a80156100f3576020028201915b8154815260200190600101908083116100df575b5050505050905090565b600c5481565b604d6020528060005260406000206000915054906101000a900460ff1681565b604051806101400160405280600a90602082028036833780820191505090505090565b6000600a9050919050565b600081905092915050565b6000819050919050565b6000819050919050565b61017981610166565b82525050565b600061018b8383610170565b60208301905092915050565b6000602082019050919050565b6101ad81610146565b6101b78184610151565b92506101c28261015c565b8060005b838110156101f35781516101da878261017f565b96506101e583610197565b9250506001810190506101c6565b505050505050565b60006101408201905061021160008301846101a4565b92915050565b61022081610166565b82525050565b600060208201905061023b6000830184610217565b92915050565b600080fd5b61024f81610166565b811461025a57600080fd5b50565b60008135905061026c81610246565b92915050565b60006020828403121561028857610287610241565b5b60006102968482850161025d565b91505092915050565b60008115159050919050565b6102b48161029f565b82525050565b60006020820190506102cf60008301846102ab565b9291505056fea2646970667358221220fabd62ca6524aedeec37a52a575f752770b5c1744639bd1200d2d833e5929f0f64736f6c634300080a0033",
  "linkReferences": {
    "contracts/MiMC.sol": {
      "MiMC": [
        {
          "length": 20,
          "start": 392
        },
        {
          "length": 20,
          "start": 582
        }
      ]
    }
  },
  "deployedLinkReferences": {}
}