{
  "_format": "hh-sol-artifact-1",
  "contractName": "ElectionFactory",
  "sourceName": "contracts/facets/votingApp/ElectionFactory.sol",
  "abi": [
    {
      "inputs": [
        {
          "components": [
            {
              "internalType": "uint256",
              "name": "electionID",
              "type": "uint256"
            },
            {
              "internalType": "string",
              "name": "name",
              "type": "string"
            },
            {
              "internalType": "string",
              "name": "description",
              "type": "string"
            },
            {
              "internalType": "uint256",
              "name": "startDate",
              "type": "uint256"
            },
            {
              "internalType": "uint256",
              "name": "endDate",
              "type": "uint256"
            }
          ],
          "internalType": "struct Election.ElectionInfo",
          "name": "_electionInfo",
          "type": "tuple"
        },
        {
          "internalType": "uint256",
          "name": "_ballotType",
          "type": "uint256"
        },
        {
          "internalType": "uint256",
          "name": "_resultCalculatorType",
          "type": "uint256"
        },
        {
          "internalType": "address",
          "name": "_electionOrganizer",
          "type": "address"
        },
        {
          "internalType": "address",
          "name": "_electionOrganizerContract",
          "type": "address"
        }
      ],
      "name": "getElection",
      "outputs": [
        {
          "internalType": "contract Election",
          "name": "",
          "type": "address"
        }
      ],
      "stateMutability": "nonpayable",
      "type": "function"
    },
    {
      "inputs": [],
      "name": "init",
      "outputs": [],
      "stateMutability": "nonpayable",
      "type": "function"
    }
  ],
  "bytecode": "0x608060405234801561001057600080fd5b506136ba806100206000396000f3fe608060405234801561001057600080fd5b50600436106100365760003560e01c80631140fc191461003b578063e1c7392a1461006b575b600080fd5b610055600480360381019061005091906106c1565b610075565b60405161006291906107b7565b60405180910390f35b6100736103b5565b005b6000600460009054906101000a900473ffffffffffffffffffffffffffffffffffffffff1673ffffffffffffffffffffffffffffffffffffffff163373ffffffffffffffffffffffffffffffffffffffff1614610107576040517f08c379a00000000000000000000000000000000000000000000000000000000081526004016100fe90610855565b60405180910390fd5b6000600260009054906101000a900473ffffffffffffffffffffffffffffffffffffffff1673ffffffffffffffffffffffffffffffffffffffff1663f9d5ee75876040518263ffffffff1660e01b81526004016101649190610884565b6020604051808303816000875af1158015610183573d6000803e3d6000fd5b505050506040513d601f19601f820116820180604052508101906101a791906108dd565b6000806101000a81548173ffffffffffffffffffffffffffffffffffffffff021916908373ffffffffffffffffffffffffffffffffffffffff160217905550600360009054906101000a900473ffffffffffffffffffffffffffffffffffffffff1673ffffffffffffffffffffffffffffffffffffffff166376761d2e87876040518363ffffffff1660e01b815260040161024392919061090a565b6020604051808303816000875af1158015610262573d6000803e3d6000fd5b505050506040513d601f19601f820116820180604052508101906102869190610971565b600160006101000a81548173ffffffffffffffffffffffffffffffffffffffff021916908373ffffffffffffffffffffffffffffffffffffffff1602179055506040516102d2906103f8565b604051809103906000f0801580156102ee573d6000803e3d6000fd5b5090508073ffffffffffffffffffffffffffffffffffffffff16637c24b12c8860008054906101000a900473ffffffffffffffffffffffffffffffffffffffff16600160009054906101000a900473ffffffffffffffffffffffffffffffffffffffff1688888c6040518763ffffffff1660e01b815260040161037696959493929190610b03565b600060405180830381600087803b15801561039057600080fd5b505af11580156103a4573d6000803e3d6000fd5b505050508091505095945050505050565b33600460006101000a81548173ffffffffffffffffffffffffffffffffffffffff021916908373ffffffffffffffffffffffffffffffffffffffff160217905550565b612b1980610b6c83390190565b6000604051905090565b600080fd5b600080fd5b600080fd5b6000601f19601f8301169050919050565b7f4e487b7100000000000000000000000000000000000000000000000000000000600052604160045260246000fd5b6104678261041e565b810181811067ffffffffffffffff821117156104865761048561042f565b5b80604052505050565b6000610499610405565b90506104a5828261045e565b919050565b600080fd5b6000819050919050565b6104c2816104af565b81146104cd57600080fd5b50565b6000813590506104df816104b9565b92915050565b600080fd5b600080fd5b600067ffffffffffffffff82111561050a5761050961042f565b5b6105138261041e565b9050602081019050919050565b82818337600083830152505050565b600061054261053d846104ef565b61048f565b90508281526020810184848401111561055e5761055d6104ea565b5b610569848285610520565b509392505050565b600082601f830112610586576105856104e5565b5b813561059684826020860161052f565b91505092915050565b600060a082840312156105b5576105b4610419565b5b6105bf60a061048f565b905060006105cf848285016104d0565b600083015250602082013567ffffffffffffffff8111156105f3576105f26104aa565b5b6105ff84828501610571565b602083015250604082013567ffffffffffffffff811115610623576106226104aa565b5b61062f84828501610571565b6040830152506060610643848285016104d0565b6060830152506080610657848285016104d0565b60808301525092915050565b600073ffffffffffffffffffffffffffffffffffffffff82169050919050565b600061068e82610663565b9050919050565b61069e81610683565b81146106a957600080fd5b50565b6000813590506106bb81610695565b92915050565b600080600080600060a086880312156106dd576106dc61040f565b5b600086013567ffffffffffffffff8111156106fb576106fa610414565b5b6107078882890161059f565b9550506020610718888289016104d0565b9450506040610729888289016104d0565b935050606061073a888289016106ac565b925050608061074b888289016106ac565b9150509295509295909350565b6000819050919050565b600061077d61077861077384610663565b610758565b610663565b9050919050565b600061078f82610762565b9050919050565b60006107a182610784565b9050919050565b6107b181610796565b82525050565b60006020820190506107cc60008301846107a8565b92915050565b600082825260208201905092915050565b7f4d7573742062652063616c6c65642066726f6d2074686520656c656374696f6e60008201527f206f7267616e697a657220636f6e747261637400000000000000000000000000602082015250565b600061083f6033836107d2565b915061084a826107e3565b604082019050919050565b6000602082019050818103600083015261086e81610832565b9050919050565b61087e816104af565b82525050565b60006020820190506108996000830184610875565b92915050565b60006108aa82610683565b9050919050565b6108ba8161089f565b81146108c557600080fd5b50565b6000815190506108d7816108b1565b92915050565b6000602082840312156108f3576108f261040f565b5b6000610901848285016108c8565b91505092915050565b600060408201905061091f6000830185610875565b61092c6020830184610875565b9392505050565b600061093e82610683565b9050919050565b61094e81610933565b811461095957600080fd5b50565b60008151905061096b81610945565b92915050565b6000602082840312156109875761098661040f565b5b60006109958482850161095c565b91505092915050565b6109a7816104af565b82525050565b600081519050919050565b600082825260208201905092915050565b60005b838110156109e75780820151818401526020810190506109cc565b838111156109f6576000848401525b50505050565b6000610a07826109ad565b610a1181856109b8565b9350610a218185602086016109c9565b610a2a8161041e565b840191505092915050565b600060a083016000830151610a4d600086018261099e565b5060208301518482036020860152610a6582826109fc565b91505060408301518482036040860152610a7f82826109fc565b9150506060830151610a94606086018261099e565b506080830151610aa7608086018261099e565b508091505092915050565b6000610abd82610784565b9050919050565b610acd81610ab2565b82525050565b6000610ade82610784565b9050919050565b610aee81610ad3565b82525050565b610afd81610683565b82525050565b600060c0820190508181036000830152610b1d8189610a35565b9050610b2c6020830188610ac4565b610b396040830187610ae5565b610b466060830186610af4565b610b536080830185610af4565b610b6060a0830184610875565b97965050505050505056fe608060405234801561001057600080fd5b50612af9806100206000396000f3fe608060405234801561001057600080fd5b506004361061010b5760003560e01c80637c24b12c116100a2578063a1818ac411610071578063a1818ac414610298578063de292789146102b4578063df15c37e146102d2578063e04b1c0c146102f0578063ecff1f4b1461030e5761010b565b80637c24b12c14610210578063822023961461022c57806386852dca1461025c5780639baec8b91461027a5761010b565b806330a56347116100de57806330a563471461018657806337349a7d146101a45780634e69d560146101c2578063521b0dcc146101e05761010b565b806306a49fce1461011057806311174a291461012e5780631ca577141461014c578063273ffe861461016a575b600080fd5b61011861032a565b604051610125919061175e565b60405180910390f35b6101366104b7565b604051610143919061178f565b60405180910390f35b6101546104c1565b604051610161919061178f565b60405180910390f35b610184600480360381019061017f91906119c5565b6104cb565b005b61018e6107c1565b60405161019b919061178f565b60405180910390f35b6101ac6107cb565b6040516101b99190611a4f565b60405180910390f35b6101ca610885565b6040516101d79190611ae1565b60405180910390f35b6101fa60048036038101906101f59190611b28565b6108ba565b6040516102079190611b70565b60405180910390f35b61022a60048036038101906102259190611ccb565b61095f565b005b61024660048036038101906102419190611d74565b610afb565b6040516102539190611df8565b60405180910390f35b610264610c56565b6040516102719190611e97565b60405180910390f35b610282610db2565b60405161028f9190611a4f565b60405180910390f35b6102b260048036038101906102ad9190611f81565b610e6c565b005b6102bc610ffa565b6040516102c991906120b3565b60405180910390f35b6102da61121d565b6040516102e791906120b3565b60405180910390f35b6102f86112cb565b6040516103059190611a4f565b60405180910390f35b610328600480360381019061032391906120d5565b6112f5565b005b60606005805480602002602001604051908101604052809291908181526020016000905b828210156104ae57838290600052602060002090600302016040518060600160405290816000820154815260200160018201805461038b9061214d565b80601f01602080910402602001604051908101604052809291908181526020018280546103b79061214d565b80156104045780601f106103d957610100808354040283529160200191610404565b820191906000526020600020905b8154815290600101906020018083116103e757829003601f168201915b5050505050815260200160028201805461041d9061214d565b80601f01602080910402602001604051908101604052809291908181526020018280546104499061214d565b80156104965780601f1061046b57610100808354040283529160200191610496565b820191906000526020600020905b81548152906001019060200180831161047957829003601f168201915b5050505050815250508152602001906001019061034e565b50505050905090565b6000600b54905090565b6000600c54905090565b600a60009054906101000a900473ffffffffffffffffffffffffffffffffffffffff1673ffffffffffffffffffffffffffffffffffffffff163373ffffffffffffffffffffffffffffffffffffffff161461055b576040517f08c379a000000000000000000000000000000000000000000000000000000000815260040161055290612202565b60405180910390fd5b6001600281111561056f5761056e611a6a565b5b610577610885565b600281111561058957610588611a6a565b5b146105c9576040517f08c379a00000000000000000000000000000000000000000000000000000000081526004016105c090612294565b60405180910390fd5b600060016008546105da91906122e3565b9050808260000181815250506005829080600181540180825580915050600190039060005260206000209060030201600090919091909150600082015181600001556020820151816001019080519060200190610638929190611453565b506040820151816002019080519060200190610655929190611453565b505050600d60019054906101000a900473ffffffffffffffffffffffffffffffffffffffff1673ffffffffffffffffffffffffffffffffffffffff1663e844d09783600001516040518263ffffffff1660e01b81526004016106b7919061178f565b600060405180830381600087803b1580156106d157600080fd5b505af11580156106e5573d6000803e3d6000fd5b50505050816007600084600001518152602001908152602001600020600082015181600001556020820151816001019080519060200190610727929190611453565b506040820151816002019080519060200190610744929190611453565b509050506008600081548092919061075b90612339565b91905055507f4d9dd414a40890e16b7bd0ea98bdf9d5b55c3d20cfe4b18febda0d60fb32a60c30600d60019054906101000a900473ffffffffffffffffffffffffffffffffffffffff16846040516107b593929190612382565b60405180910390a15050565b6000600854905090565b6000600960009054906101000a900473ffffffffffffffffffffffffffffffffffffffff1673ffffffffffffffffffffffffffffffffffffffff163373ffffffffffffffffffffffffffffffffffffffff161461085d576040517f08c379a000000000000000000000000000000000000000000000000000000000815260040161085490612432565b60405180910390fd5b600e60009054906101000a900473ffffffffffffffffffffffffffffffffffffffff16905090565b6000806003015442101561089c57600190506108b7565b6000600401544210156108b257600090506108b7565b600290505b90565b6000600d60019054906101000a900473ffffffffffffffffffffffffffffffffffffffff1673ffffffffffffffffffffffffffffffffffffffff1663521b0dcc836040518263ffffffff1660e01b81526004016109179190611a4f565b602060405180830381865afa158015610934573d6000803e3d6000fd5b505050506040513d601f19601f82011682018060405250810190610958919061247e565b9050919050565b82600960006101000a81548173ffffffffffffffffffffffffffffffffffffffff021916908373ffffffffffffffffffffffffffffffffffffffff16021790555081600a60006101000a81548173ffffffffffffffffffffffffffffffffffffffff021916908373ffffffffffffffffffffffffffffffffffffffff1602179055508560008082015181600001556020820151816001019080519060200190610a09929190611453565b506040820151816002019080519060200190610a26929190611453565b50606082015181600301556080820151816004015590505084600d60016101000a81548173ffffffffffffffffffffffffffffffffffffffff021916908373ffffffffffffffffffffffffffffffffffffffff16021790555083600e60006101000a81548173ffffffffffffffffffffffffffffffffffffffff021916908373ffffffffffffffffffffffffffffffffffffffff1602179055506103e86008819055506000600b819055506000600d60006101000a81548160ff02191690831515021790555080600c81905550505050505050565b610b036114d9565b6007600083815260200190815260200160002060405180606001604052908160008201548152602001600182018054610b3b9061214d565b80601f0160208091040260200160405190810160405280929190818152602001828054610b679061214d565b8015610bb45780601f10610b8957610100808354040283529160200191610bb4565b820191906000526020600020905b815481529060010190602001808311610b9757829003601f168201915b50505050508152602001600282018054610bcd9061214d565b80601f0160208091040260200160405190810160405280929190818152602001828054610bf99061214d565b8015610c465780601f10610c1b57610100808354040283529160200191610c46565b820191906000526020600020905b815481529060010190602001808311610c2957829003601f168201915b5050505050815250509050919050565b610c5e6114fa565b60006040518060a001604052908160008201548152602001600182018054610c859061214d565b80601f0160208091040260200160405190810160405280929190818152602001828054610cb19061214d565b8015610cfe5780601f10610cd357610100808354040283529160200191610cfe565b820191906000526020600020905b815481529060010190602001808311610ce157829003601f168201915b50505050508152602001600282018054610d179061214d565b80601f0160208091040260200160405190810160405280929190818152602001828054610d439061214d565b8015610d905780601f10610d6557610100808354040283529160200191610d90565b820191906000526020600020905b815481529060010190602001808311610d7357829003601f168201915b5050505050815260200160038201548152602001600482015481525050905090565b6000600960009054906101000a900473ffffffffffffffffffffffffffffffffffffffff1673ffffffffffffffffffffffffffffffffffffffff163373ffffffffffffffffffffffffffffffffffffffff1614610e44576040517f08c379a0000000000000000000000000000000000000000000000000000000008152600401610e3b90612432565b60405180910390fd5b600d60019054906101000a900473ffffffffffffffffffffffffffffffffffffffff16905090565b60006002811115610e8057610e7f611a6a565b5b610e88610885565b6002811115610e9a57610e99611a6a565b5b14610eda576040517f08c379a0000000000000000000000000000000000000000000000000000000008152600401610ed19061251d565b60405180910390fd5b600d60019054906101000a900473ffffffffffffffffffffffffffffffffffffffff1673ffffffffffffffffffffffffffffffffffffffff1663a1818ac4858585856040518563ffffffff1660e01b8152600401610f3b949392919061253d565b600060405180830381600087803b158015610f5557600080fd5b505af1158015610f69573d6000803e3d6000fd5b50505050600b6000815480929190610f8090612339565b91905055507fd589db416dab4dff131e94610b2d02ce215ded85a2943a2ea59acd2153a85182600d60019054906101000a900473ffffffffffffffffffffffffffffffffffffffff166007600086815260200190815260200160002084604051610fec939291906126b1565b60405180910390a150505050565b606060028081111561100f5761100e611a6a565b5b611017610885565b600281111561102957611028611a6a565b5b14611069576040517f08c379a000000000000000000000000000000000000000000000000000000000815260040161106090612761565b60405180910390fd5b60001515600d60009054906101000a900460ff161515141561120f57600e60009054906101000a900473ffffffffffffffffffffffffffffffffffffffff1673ffffffffffffffffffffffffffffffffffffffff1663c8344a20600d60019054906101000a900473ffffffffffffffffffffffffffffffffffffffff16600b546040518363ffffffff1660e01b81526004016111069291906127e0565b6000604051808303816000875af1158015611125573d6000803e3d6000fd5b505050506040513d6000823e3d601f19601f8201168201806040525081019061114e91906128b5565b60069080519060200190611163929190611529565b506001600d60006101000a81548160ff0219169083151502179055507f28e5f582afeee46fd13ea548ad814f45b1d4a5159990336d5e66deb48a960e4c60066040516111af91906129a3565b60405180910390a1600680548060200260200160405190810160405280929190818152602001828054801561120357602002820191906000526020600020905b8154815260200190600101908083116111ef575b5050505050905061121a565b61121761121d565b90505b90565b606060011515600d60009054906101000a900460ff16151514611275576040517f08c379a000000000000000000000000000000000000000000000000000000000815260040161126c90612a11565b60405180910390fd5b60068054806020026020016040519081016040528092919081815260200182805480156112c157602002820191906000526020600020905b8154815260200190600101908083116112ad575b5050505050905090565b6000600960009054906101000a900473ffffffffffffffffffffffffffffffffffffffff16905090565b600960009054906101000a900473ffffffffffffffffffffffffffffffffffffffff1673ffffffffffffffffffffffffffffffffffffffff163373ffffffffffffffffffffffffffffffffffffffff1614611385576040517f08c379a000000000000000000000000000000000000000000000000000000000815260040161137c90612432565b60405180910390fd5b6001600281111561139957611398611a6a565b5b6113a1610885565b60028111156113b3576113b2611a6a565b5b146113f3576040517f08c379a00000000000000000000000000000000000000000000000000000000081526004016113ea90612aa3565b60405180910390fd5b806000808201518160000155602082015181600101908051906020019061141b929190611453565b506040820151816002019080519060200190611438929190611453565b50606082015181600301556080820151816004015590505050565b82805461145f9061214d565b90600052602060002090601f01602090048101928261148157600085556114c8565b82601f1061149a57805160ff19168380011785556114c8565b828001600101855582156114c8579182015b828111156114c75782518255916020019190600101906114ac565b5b5090506114d59190611576565b5090565b60405180606001604052806000815260200160608152602001606081525090565b6040518060a0016040528060008152602001606081526020016060815260200160008152602001600081525090565b828054828255906000526020600020908101928215611565579160200282015b82811115611564578251825591602001919060010190611549565b5b5090506115729190611576565b5090565b5b8082111561158f576000816000905550600101611577565b5090565b600081519050919050565b600082825260208201905092915050565b6000819050602082019050919050565b6000819050919050565b6115d2816115bf565b82525050565b600081519050919050565b600082825260208201905092915050565b60005b838110156116125780820151818401526020810190506115f7565b83811115611621576000848401525b50505050565b6000601f19601f8301169050919050565b6000611643826115d8565b61164d81856115e3565b935061165d8185602086016115f4565b61166681611627565b840191505092915050565b600060608301600083015161168960008601826115c9565b50602083015184820360208601526116a18282611638565b915050604083015184820360408601526116bb8282611638565b9150508091505092915050565b60006116d48383611671565b905092915050565b6000602082019050919050565b60006116f482611593565b6116fe818561159e565b935083602082028501611710856115af565b8060005b8581101561174c578484038952815161172d85826116c8565b9450611738836116dc565b925060208a01995050600181019050611714565b50829750879550505050505092915050565b6000602082019050818103600083015261177881846116e9565b905092915050565b611789816115bf565b82525050565b60006020820190506117a46000830184611780565b92915050565b6000604051905090565b600080fd5b600080fd5b600080fd5b7f4e487b7100000000000000000000000000000000000000000000000000000000600052604160045260246000fd5b6117fb82611627565b810181811067ffffffffffffffff8211171561181a576118196117c3565b5b80604052505050565b600061182d6117aa565b905061183982826117f2565b919050565b600080fd5b61184c816115bf565b811461185757600080fd5b50565b60008135905061186981611843565b92915050565b600080fd5b600080fd5b600067ffffffffffffffff821115611894576118936117c3565b5b61189d82611627565b9050602081019050919050565b82818337600083830152505050565b60006118cc6118c784611879565b611823565b9050828152602081018484840111156118e8576118e7611874565b5b6118f38482856118aa565b509392505050565b600082601f8301126119105761190f61186f565b5b81356119208482602086016118b9565b91505092915050565b60006060828403121561193f5761193e6117be565b5b6119496060611823565b905060006119598482850161185a565b600083015250602082013567ffffffffffffffff81111561197d5761197c61183e565b5b611989848285016118fb565b602083015250604082013567ffffffffffffffff8111156119ad576119ac61183e565b5b6119b9848285016118fb565b60408301525092915050565b6000602082840312156119db576119da6117b4565b5b600082013567ffffffffffffffff8111156119f9576119f86117b9565b5b611a0584828501611929565b91505092915050565b600073ffffffffffffffffffffffffffffffffffffffff82169050919050565b6000611a3982611a0e565b9050919050565b611a4981611a2e565b82525050565b6000602082019050611a646000830184611a40565b92915050565b7f4e487b7100000000000000000000000000000000000000000000000000000000600052602160045260246000fd5b60038110611aaa57611aa9611a6a565b5b50565b6000819050611abb82611a99565b919050565b6000611acb82611aad565b9050919050565b611adb81611ac0565b82525050565b6000602082019050611af66000830184611ad2565b92915050565b611b0581611a2e565b8114611b1057600080fd5b50565b600081359050611b2281611afc565b92915050565b600060208284031215611b3e57611b3d6117b4565b5b6000611b4c84828501611b13565b91505092915050565b60008115159050919050565b611b6a81611b55565b82525050565b6000602082019050611b856000830184611b61565b92915050565b600060a08284031215611ba157611ba06117be565b5b611bab60a0611823565b90506000611bbb8482850161185a565b600083015250602082013567ffffffffffffffff811115611bdf57611bde61183e565b5b611beb848285016118fb565b602083015250604082013567ffffffffffffffff811115611c0f57611c0e61183e565b5b611c1b848285016118fb565b6040830152506060611c2f8482850161185a565b6060830152506080611c438482850161185a565b60808301525092915050565b6000611c5a82611a2e565b9050919050565b611c6a81611c4f565b8114611c7557600080fd5b50565b600081359050611c8781611c61565b92915050565b6000611c9882611a2e565b9050919050565b611ca881611c8d565b8114611cb357600080fd5b50565b600081359050611cc581611c9f565b92915050565b60008060008060008060c08789031215611ce857611ce76117b4565b5b600087013567ffffffffffffffff811115611d0657611d056117b9565b5b611d1289828a01611b8b565b9650506020611d2389828a01611c78565b9550506040611d3489828a01611cb6565b9450506060611d4589828a01611b13565b9350506080611d5689828a01611b13565b92505060a0611d6789828a0161185a565b9150509295509295509295565b600060208284031215611d8a57611d896117b4565b5b6000611d988482850161185a565b91505092915050565b6000606083016000830151611db960008601826115c9565b5060208301518482036020860152611dd18282611638565b91505060408301518482036040860152611deb8282611638565b9150508091505092915050565b60006020820190508181036000830152611e128184611da1565b905092915050565b600060a083016000830151611e3260008601826115c9565b5060208301518482036020860152611e4a8282611638565b91505060408301518482036040860152611e648282611638565b9150506060830151611e7960608601826115c9565b506080830151611e8c60808601826115c9565b508091505092915050565b60006020820190508181036000830152611eb18184611e1a565b905092915050565b600067ffffffffffffffff821115611ed457611ed36117c3565b5b602082029050602081019050919050565b600080fd5b6000611efd611ef884611eb9565b611823565b90508083825260208201905060208402830185811115611f2057611f1f611ee5565b5b835b81811015611f495780611f35888261185a565b845260208401935050602081019050611f22565b5050509392505050565b600082601f830112611f6857611f6761186f565b5b8135611f78848260208601611eea565b91505092915050565b60008060008060808587031215611f9b57611f9a6117b4565b5b6000611fa987828801611b13565b9450506020611fba8782880161185a565b9350506040611fcb8782880161185a565b925050606085013567ffffffffffffffff811115611fec57611feb6117b9565b5b611ff887828801611f53565b91505092959194509250565b600081519050919050565b600082825260208201905092915050565b6000819050602082019050919050565b600061203c83836115c9565b60208301905092915050565b6000602082019050919050565b600061206082612004565b61206a818561200f565b935061207583612020565b8060005b838110156120a657815161208d8882612030565b975061209883612048565b925050600181019050612079565b5085935050505092915050565b600060208201905081810360008301526120cd8184612055565b905092915050565b6000602082840312156120eb576120ea6117b4565b5b600082013567ffffffffffffffff811115612109576121086117b9565b5b61211584828501611b8b565b91505092915050565b7f4e487b7100000000000000000000000000000000000000000000000000000000600052602260045260246000fd5b6000600282049050600182168061216557607f821691505b602082108114156121795761217861211e565b5b50919050565b600082825260208201905092915050565b7f4d7573742062652063616c6c65642066726f6d2074686520656c656374696f6e60008201527f206f7267616e697a657220636f6e747261637400000000000000000000000000602082015250565b60006121ec60338361217f565b91506121f782612190565b604082019050919050565b6000602082019050818103600083015261221b816121df565b9050919050565b7f43616e6e6f74206164642063616e6469646174657320616674657220656c656360008201527f74696f6e20686173207374617274656400000000000000000000000000000000602082015250565b600061227e60308361217f565b915061228982612222565b604082019050919050565b600060208201905081810360008301526122ad81612271565b9050919050565b7f4e487b7100000000000000000000000000000000000000000000000000000000600052601160045260246000fd5b60006122ee826115bf565b91506122f9836115bf565b9250827fffffffffffffffffffffffffffffffffffffffffffffffffffffffffffffffff0382111561232e5761232d6122b4565b5b828201905092915050565b6000612344826115bf565b91507fffffffffffffffffffffffffffffffffffffffffffffffffffffffffffffffff821415612377576123766122b4565b5b600182019050919050565b60006060820190506123976000830186611a40565b6123a46020830185611a40565b81810360408301526123b68184611da1565b9050949350505050565b7f43616c6c6572206d7573742062652074686520656c656374696f6e206f72676160008201527f6e697a6572000000000000000000000000000000000000000000000000000000602082015250565b600061241c60258361217f565b9150612427826123c0565b604082019050919050565b6000602082019050818103600083015261244b8161240f565b9050919050565b61245b81611b55565b811461246657600080fd5b50565b60008151905061247881612452565b92915050565b600060208284031215612494576124936117b4565b5b60006124a284828501612469565b91505092915050565b7f456c656374696f6e206e6565647320746f2062652061637469766520746f207660008201527f6f74650000000000000000000000000000000000000000000000000000000000602082015250565b600061250760238361217f565b9150612512826124ab565b604082019050919050565b60006020820190508181036000830152612536816124fa565b9050919050565b60006080820190506125526000830187611a40565b61255f6020830186611780565b61256c6040830185611780565b818103606083015261257e8184612055565b905095945050505050565b60008160001c9050919050565b6000819050919050565b60006125b36125ae83612589565b612596565b9050919050565b60008190508160005260206000209050919050565b600081546125dc8161214d565b6125e681866115e3565b94506001821660008114612601576001811461261357612646565b60ff1983168652602086019350612646565b61261c856125ba565b60005b8381101561263e5781548189015260018201915060208101905061261f565b808801955050505b50505092915050565b6000606083016000808401549050612666816125a0565b61267360008701826115c9565b5060018401858303602087015261268a83826125cf565b9250506002840185830360408701526126a383826125cf565b925050819250505092915050565b60006060820190506126c66000830186611a40565b81810360208301526126d8818561264f565b90506126e76040830184611780565b949350505050565b7f526573756c747320617265206465636c61726564206f6e6c792061667465722060008201527f74686520656c656374696f6e20656e6473000000000000000000000000000000602082015250565b600061274b60318361217f565b9150612756826126ef565b604082019050919050565b6000602082019050818103600083015261277a8161273e565b9050919050565b6000819050919050565b60006127a66127a161279c84611a0e565b612781565b611a0e565b9050919050565b60006127b88261278b565b9050919050565b60006127ca826127ad565b9050919050565b6127da816127bf565b82525050565b60006040820190506127f560008301856127d1565b6128026020830184611780565b9392505050565b60008151905061281881611843565b92915050565b600061283161282c84611eb9565b611823565b9050808382526020820190506020840283018581111561285457612853611ee5565b5b835b8181101561287d57806128698882612809565b845260208401935050602081019050612856565b5050509392505050565b600082601f83011261289c5761289b61186f565b5b81516128ac84826020860161281e565b91505092915050565b6000602082840312156128cb576128ca6117b4565b5b600082015167ffffffffffffffff8111156128e9576128e86117b9565b5b6128f584828501612887565b91505092915050565b600081549050919050565b60008190508160005260206000209050919050565b600061292a82546125a0565b9050919050565b6000600182019050919050565b6000612949826128fe565b612953818561200f565b935061295e83612909565b8060005b83811015612996576129738261291e565b61297d8882612030565b975061298883612931565b925050600181019050612962565b5085935050505092915050565b600060208201905081810360008301526129bd818461293e565b905092915050565b7f526573756c7473206172656e2774206465636c61726564207965740000000000600082015250565b60006129fb601b8361217f565b9150612a06826129c5565b602082019050919050565b60006020820190508181036000830152612a2a816129ee565b9050919050565b7f43616e6e6f742075706461746520656c656374696f6e20696e666f206166746560008201527f7220656c656374696f6e20686173207374617274656400000000000000000000602082015250565b6000612a8d60368361217f565b9150612a9882612a31565b604082019050919050565b60006020820190508181036000830152612abc81612a80565b905091905056fea264697066735822122099e0a21f0209c3d560bac83815e5bfa08f3094fd0f40565caf975842d219d87764736f6c634300080a0033a264697066735822122067483b32e15b91ee21cbda2dbad1f4414e307cb61534e8bd488fae13f154948364736f6c634300080a0033",
  "linkReferences": {},
  "deployedLinkReferences": {}
}