{
  "_format": "hh-sol-artifact-1",
  "contractName": "VotingProcess",
  "sourceName": "contracts/VotingProcess.sol",
  "abi": [
    {
      "inputs": [
        {
          "internalType": "uint256",
          "name": "_id",
          "type": "uint256"
        },
        {
          "internalType": "string",
          "name": "_name",
          "type": "string"
        },
        {
          "internalType": "string",
          "name": "_description",
          "type": "string"
        },
        {
          "internalType": "uint256",
          "name": "_startDate",
          "type": "uint256"
        },
        {
          "internalType": "uint256",
          "name": "_endDate",
          "type": "uint256"
        }
      ],
      "stateMutability": "nonpayable",
      "type": "constructor"
    },
    {
      "inputs": [
        {
          "internalType": "bytes",
          "name": "_proposal",
          "type": "bytes"
        }
      ],
      "name": "addProposal",
      "outputs": [],
      "stateMutability": "nonpayable",
      "type": "function"
    },
    {
      "inputs": [],
      "name": "description",
      "outputs": [
        {
          "internalType": "string",
          "name": "",
          "type": "string"
        }
      ],
      "stateMutability": "view",
      "type": "function"
    },
    {
      "inputs": [],
      "name": "getEndDate",
      "outputs": [
        {
          "internalType": "uint256",
          "name": "",
          "type": "uint256"
        }
      ],
      "stateMutability": "view",
      "type": "function"
    },
    {
      "inputs": [],
      "name": "getProposals",
      "outputs": [
        {
          "internalType": "bytes[]",
          "name": "",
          "type": "bytes[]"
        }
      ],
      "stateMutability": "view",
      "type": "function"
    },
    {
      "inputs": [],
      "name": "getStartDate",
      "outputs": [
        {
          "internalType": "uint256",
          "name": "",
          "type": "uint256"
        }
      ],
      "stateMutability": "view",
      "type": "function"
    },
    {
      "inputs": [],
      "name": "getStatus",
      "outputs": [
        {
          "internalType": "enum VotingProcess.Status",
          "name": "",
          "type": "uint8"
        }
      ],
      "stateMutability": "view",
      "type": "function"
    },
    {
      "inputs": [],
      "name": "getVotesPerProposal",
      "outputs": [
        {
          "components": [
            {
              "internalType": "bytes",
              "name": "proposal",
              "type": "bytes"
            },
            {
              "internalType": "uint256",
              "name": "numberOfVotes",
              "type": "uint256"
            }
          ],
          "internalType": "struct VotingProcess.VoteProposal[]",
          "name": "",
          "type": "tuple[]"
        }
      ],
      "stateMutability": "view",
      "type": "function"
    },
    {
      "inputs": [],
      "name": "getWinningProposal",
      "outputs": [
        {
          "components": [
            {
              "internalType": "bytes",
              "name": "proposal",
              "type": "bytes"
            },
            {
              "internalType": "uint256",
              "name": "numberOfVotes",
              "type": "uint256"
            }
          ],
          "internalType": "struct VotingProcess.VoteProposal",
          "name": "",
          "type": "tuple"
        }
      ],
      "stateMutability": "view",
      "type": "function"
    },
    {
      "inputs": [],
      "name": "id",
      "outputs": [
        {
          "internalType": "uint256",
          "name": "",
          "type": "uint256"
        }
      ],
      "stateMutability": "view",
      "type": "function"
    },
    {
      "inputs": [],
      "name": "name",
      "outputs": [
        {
          "internalType": "string",
          "name": "",
          "type": "string"
        }
      ],
      "stateMutability": "view",
      "type": "function"
    },
    {
      "inputs": [
        {
          "internalType": "uint256",
          "name": "",
          "type": "uint256"
        }
      ],
      "name": "proposals",
      "outputs": [
        {
          "internalType": "bytes",
          "name": "",
          "type": "bytes"
        }
      ],
      "stateMutability": "view",
      "type": "function"
    },
    {
      "inputs": [
        {
          "internalType": "bytes",
          "name": "signal",
          "type": "bytes"
        }
      ],
      "name": "vote",
      "outputs": [],
      "stateMutability": "nonpayable",
      "type": "function"
    },
    {
      "inputs": [
        {
          "internalType": "bytes",
          "name": "",
          "type": "bytes"
        }
      ],
      "name": "votesPerProposal",
      "outputs": [
        {
          "internalType": "uint256",
          "name": "",
          "type": "uint256"
        }
      ],
      "stateMutability": "view",
      "type": "function"
    }
  ],
  "bytecode": "0x60806040523480156200001157600080fd5b5060405162001030380380620010308339810160408190526200003491620001eb565b600085905583516200004e90600190602087019062000078565b5082516200006490600290602086019062000078565b5060039190915560045550620002af915050565b828054620000869062000272565b90600052602060002090601f016020900481019282620000aa5760008555620000f5565b82601f10620000c557805160ff1916838001178555620000f5565b82800160010185558215620000f5579182015b82811115620000f5578251825591602001919060010190620000d8565b506200010392915062000107565b5090565b5b8082111562000103576000815560010162000108565b634e487b7160e01b600052604160045260246000fd5b600082601f8301126200014657600080fd5b81516001600160401b03808211156200016357620001636200011e565b604051601f8301601f19908116603f011681019082821181831017156200018e576200018e6200011e565b81604052838152602092508683858801011115620001ab57600080fd5b600091505b83821015620001cf5785820183015181830184015290820190620001b0565b83821115620001e15760008385830101525b9695505050505050565b600080600080600060a086880312156200020457600080fd5b855160208701519095506001600160401b03808211156200022457600080fd5b6200023289838a0162000134565b955060408801519150808211156200024957600080fd5b50620002588882890162000134565b606088015160809098015196999598509695949350505050565b600181811c908216806200028757607f821691505b60208210811415620002a957634e487b7160e01b600052602260045260246000fd5b50919050565b610d7180620002bf6000396000f3fe608060405234801561001057600080fd5b50600436106100cf5760003560e01c80637284e4161161008c578063af640d0f11610066578063af640d0f146101a2578063b1356488146101ab578063bf7f3cfe146101b3578063e9dc0614146101c857600080fd5b80637284e4161461017d57806378f305c614610185578063a51346201461018d57600080fd5b8063013cf08b146100d457806302f6df8e146100fd57806306fdde03146101365780634e69d5601461013e578063534376531461015357806362564c4814610168575b600080fd5b6100e76100e2366004610962565b6101db565b6040516100f491906109d7565b60405180910390f35b61012861010b366004610a07565b805160208183018101805160068252928201919093012091525481565b6040519081526020016100f4565b6100e7610287565b610146610294565b6040516100f49190610ace565b610166610161366004610a07565b6102bc565b005b610170610386565b6040516100f49190610af6565b6100e761045f565b600354610128565b61019561046c565b6040516100f49190610b81565b61012860005481565b600454610128565b6101bb610683565b6040516100f49190610b94565b6101666101d6366004610a07565b61081e565b600581815481106101eb57600080fd5b90600052602060002001600091509050805461020690610be9565b80601f016020809104026020016040519081016040528092919081815260200182805461023290610be9565b801561027f5780601f106102545761010080835404028352916020019161027f565b820191906000526020600020905b81548152906001019060200180831161026257829003601f168201915b505050505081565b6001805461020690610be9565b60006003544210156102a65750600190565b6004544210156102b65750600090565b50600290565b60016102c6610294565b60028111156102d7576102d7610ab8565b1461033f5760405162461bcd60e51b815260206004820152602d60248201527f456c656374696f6e206e6565647320746f2062652070656e64696e6720746f2060448201526c6164642070726f706f73616c7360981b60648201526084015b60405180910390fd5b600580546001810182556000919091528151610382917f036b6384b5eca791c62761152d0c79bb0604c104a5fb6f4eb0703f3154bb3db0019060208401906108c9565b5050565b60606005805480602002602001604051908101604052809291908181526020016000905b828210156104565783829060005260206000200180546103c990610be9565b80601f01602080910402602001604051908101604052809291908181526020018280546103f590610be9565b80156104425780601f1061041757610100808354040283529160200191610442565b820191906000526020600020905b81548152906001019060200180831161042557829003601f168201915b5050505050815260200190600101906103aa565b50505050905090565b6002805461020690610be9565b604080518082019091526060815260006020820152600261048b610294565b600281111561049c5761049c610ab8565b146105035760405162461bcd60e51b815260206004820152603160248201527f526573756c747320617265206465636c61726564206f6e6c792061667465722060448201527074686520656c656374696f6e20656e647360781b6064820152608401610336565b6000610522604051806040016040528060608152602001600081525090565b600060208201525b60055482101561067d57806020015160066005848154811061054e5761054e610c24565b906000526020600020016040516105659190610c3a565b908152602001604051809103902054111561066b576005828154811061058d5761058d610c24565b9060005260206000200180546105a290610be9565b80601f01602080910402602001604051908101604052809291908181526020018280546105ce90610be9565b801561061b5780601f106105f05761010080835404028352916020019161061b565b820191906000526020600020905b8154815290600101906020018083116105fe57829003601f168201915b505050918352505060058054600691908490811061063b5761063b610c24565b906000526020600020016040516106529190610c3a565b9081526020016040518091039020548160200181815250505b8161067581610cec565b92505061052a565b92915050565b606060008060058054905067ffffffffffffffff8111156106a6576106a66109f1565b6040519080825280602002602001820160405280156106ec57816020015b6040805180820190915260608152600060208201528152602001906001900390816106c45790505b5090505b60055482101561067d5760405180604001604052806005848154811061071857610718610c24565b90600052602060002001805461072d90610be9565b80601f016020809104026020016040519081016040528092919081815260200182805461075990610be9565b80156107a65780601f1061077b576101008083540402835291602001916107a6565b820191906000526020600020905b81548152906001019060200180831161078957829003601f168201915b505050505081526020016006600585815481106107c5576107c5610c24565b906000526020600020016040516107dc9190610c3a565b90815260200160405180910390205481525081838151811061080057610800610c24565b6020026020010181905250818061081690610cec565b9250506106f0565b6000610828610294565b600281111561083957610839610ab8565b146108925760405162461bcd60e51b815260206004820152602360248201527f456c656374696f6e206e6565647320746f2062652061637469766520746f20766044820152626f746560e81b6064820152608401610336565b60016006826040516108a49190610d07565b908152602001604051809103902060008282546108c19190610d23565b909155505050565b8280546108d590610be9565b90600052602060002090601f0160209004810192826108f7576000855561093d565b82601f1061091057805160ff191683800117855561093d565b8280016001018555821561093d579182015b8281111561093d578251825591602001919060010190610922565b5061094992915061094d565b5090565b5b80821115610949576000815560010161094e565b60006020828403121561097457600080fd5b5035919050565b60005b8381101561099657818101518382015260200161097e565b838111156109a5576000848401525b50505050565b600081518084526109c381602086016020860161097b565b601f01601f19169290920160200192915050565b6020815260006109ea60208301846109ab565b9392505050565b634e487b7160e01b600052604160045260246000fd5b600060208284031215610a1957600080fd5b813567ffffffffffffffff80821115610a3157600080fd5b818401915084601f830112610a4557600080fd5b813581811115610a5757610a576109f1565b604051601f8201601f19908116603f01168101908382118183101715610a7f57610a7f6109f1565b81604052828152876020848701011115610a9857600080fd5b826020860160208301376000928101602001929092525095945050505050565b634e487b7160e01b600052602160045260246000fd5b6020810160038310610af057634e487b7160e01b600052602160045260246000fd5b91905290565b6000602080830181845280855180835260408601915060408160051b870101925083870160005b82811015610b4b57603f19888603018452610b398583516109ab565b94509285019290850190600101610b1d565b5092979650505050505050565b6000815160408452610b6d60408501826109ab565b602093840151949093019390935250919050565b6020815260006109ea6020830184610b58565b6000602080830181845280855180835260408601915060408160051b870101925083870160005b82811015610b4b57603f19888603018452610bd7858351610b58565b94509285019290850190600101610bbb565b600181811c90821680610bfd57607f821691505b60208210811415610c1e57634e487b7160e01b600052602260045260246000fd5b50919050565b634e487b7160e01b600052603260045260246000fd5b600080835481600182811c915080831680610c5657607f831692505b6020808410821415610c7657634e487b7160e01b86526022600452602486fd5b818015610c8a5760018114610c9b57610cc8565b60ff19861689528489019650610cc8565b60008a81526020902060005b86811015610cc05781548b820152908501908301610ca7565b505084890196505b509498975050505050505050565b634e487b7160e01b600052601160045260246000fd5b6000600019821415610d0057610d00610cd6565b5060010190565b60008251610d1981846020870161097b565b9190910192915050565b60008219821115610d3657610d36610cd6565b50019056fea264697066735822122046a92cc987c01ad1789b4901f00ef9bbc104ba18930e4007d2948eba0449182d64736f6c63430008090033",
  "linkReferences": {},
  "deployedLinkReferences": {}
}